{
  "abi": [
    {
      "inputs": [],
      "stateMutability": "nonpayable",
      "type": "constructor"
    },
    {
      "anonymous": false,
      "inputs": [
        {
          "indexed": false,
          "internalType": "uint8",
          "name": "version",
          "type": "uint8"
        }
      ],
      "name": "Initialized",
      "type": "event"
    },
    {
      "anonymous": false,
      "inputs": [
        {
          "indexed": false,
          "internalType": "address",
          "name": "account",
          "type": "address"
        }
      ],
      "name": "Paused",
      "type": "event"
    },
    {
      "anonymous": false,
      "inputs": [
        {
          "indexed": true,
          "internalType": "address",
          "name": "from",
          "type": "address"
        },
        {
          "indexed": true,
          "internalType": "address",
          "name": "to",
          "type": "address"
        },
        {
          "indexed": true,
          "internalType": "uint256",
          "name": "version",
          "type": "uint256"
        },
        {
          "indexed": false,
          "internalType": "bytes",
          "name": "opaqueData",
          "type": "bytes"
        }
      ],
      "name": "TransactionDeposited",
      "type": "event"
    },
    {
      "anonymous": false,
      "inputs": [
        {
          "indexed": false,
          "internalType": "address",
          "name": "account",
          "type": "address"
        }
      ],
      "name": "Unpaused",
      "type": "event"
    },
    {
      "anonymous": false,
      "inputs": [
        {
          "indexed": true,
          "internalType": "bytes32",
          "name": "withdrawalHash",
          "type": "bytes32"
        },
        {
          "indexed": false,
          "internalType": "bool",
          "name": "success",
          "type": "bool"
        }
      ],
      "name": "WithdrawalFinalized",
      "type": "event"
    },
    {
      "anonymous": false,
      "inputs": [
        {
          "indexed": true,
          "internalType": "bytes32",
          "name": "withdrawalHash",
          "type": "bytes32"
        },
        {
          "indexed": true,
          "internalType": "address",
          "name": "from",
          "type": "address"
        },
        {
          "indexed": true,
          "internalType": "address",
          "name": "to",
          "type": "address"
        }
      ],
      "name": "WithdrawalProven",
      "type": "event"
    },
    {
      "inputs": [],
      "name": "GUARDIAN",
      "outputs": [
        {
          "internalType": "address",
          "name": "",
          "type": "address"
        }
      ],
      "stateMutability": "view",
      "type": "function"
    },
    {
      "inputs": [],
      "name": "L2_ORACLE",
      "outputs": [
        {
          "internalType": "contract L2OutputOracle",
          "name": "",
          "type": "address"
        }
      ],
      "stateMutability": "view",
      "type": "function"
    },
    {
      "inputs": [],
      "name": "SYSTEM_CONFIG",
      "outputs": [
        {
          "internalType": "contract SystemConfig",
          "name": "",
          "type": "address"
        }
      ],
      "stateMutability": "view",
      "type": "function"
    },
    {
      "inputs": [
        {
          "internalType": "address",
          "name": "_to",
          "type": "address"
        },
        {
          "internalType": "uint256",
          "name": "_value",
          "type": "uint256"
        },
        {
          "internalType": "uint64",
          "name": "_gasLimit",
          "type": "uint64"
        },
        {
          "internalType": "bytes",
          "name": "_data",
          "type": "bytes"
        }
      ],
      "name": "depositTransaction",
      "outputs": [],
      "stateMutability": "nonpayable",
      "type": "function"
    },
    {
      "inputs": [],
      "name": "depositedAmount",
      "outputs": [
        {
          "internalType": "uint256",
          "name": "",
          "type": "uint256"
        }
      ],
      "stateMutability": "view",
      "type": "function"
    },
    {
      "inputs": [],
      "name": "donateETH",
      "outputs": [],
      "stateMutability": "payable",
      "type": "function"
    },
    {
      "inputs": [
        {
          "components": [
            {
              "internalType": "uint256",
              "name": "nonce",
              "type": "uint256"
            },
            {
              "internalType": "address",
              "name": "sender",
              "type": "address"
            },
            {
              "internalType": "address",
              "name": "target",
              "type": "address"
            },
            {
              "internalType": "uint256",
              "name": "value",
              "type": "uint256"
            },
            {
              "internalType": "uint256",
              "name": "gasLimit",
              "type": "uint256"
            },
            {
              "internalType": "bytes",
              "name": "data",
              "type": "bytes"
            }
          ],
          "internalType": "struct Types.WithdrawalTransaction",
          "name": "_tx",
          "type": "tuple"
        }
      ],
      "name": "finalizeWithdrawalTransaction",
      "outputs": [],
      "stateMutability": "nonpayable",
      "type": "function"
    },
    {
      "inputs": [
        {
          "internalType": "bytes32",
          "name": "",
          "type": "bytes32"
        }
      ],
      "name": "finalizedWithdrawals",
      "outputs": [
        {
          "internalType": "bool",
          "name": "",
          "type": "bool"
        }
      ],
      "stateMutability": "view",
      "type": "function"
    },
    {
      "inputs": [],
      "name": "guardian",
      "outputs": [
        {
          "internalType": "address",
          "name": "",
          "type": "address"
        }
      ],
      "stateMutability": "view",
      "type": "function"
    },
    {
      "inputs": [
        {
          "internalType": "address",
          "name": "_nativeTokenAddress",
          "type": "address"
        },
        {
          "internalType": "contract L2OutputOracle",
          "name": "_l2Oracle",
          "type": "address"
        },
        {
          "internalType": "address",
          "name": "_guardian",
          "type": "address"
        },
        {
          "internalType": "contract SystemConfig",
          "name": "_systemConfig",
          "type": "address"
        },
        {
          "internalType": "bool",
          "name": "_paused",
          "type": "bool"
        }
      ],
      "name": "initialize",
      "outputs": [],
      "stateMutability": "nonpayable",
      "type": "function"
    },
    {
      "inputs": [
        {
          "internalType": "uint256",
          "name": "_l2OutputIndex",
          "type": "uint256"
        }
      ],
      "name": "isOutputFinalized",
      "outputs": [
        {
          "internalType": "bool",
          "name": "",
          "type": "bool"
        }
      ],
      "stateMutability": "view",
      "type": "function"
    },
    {
      "inputs": [],
      "name": "l2Oracle",
      "outputs": [
        {
          "internalType": "contract L2OutputOracle",
          "name": "",
          "type": "address"
        }
      ],
      "stateMutability": "view",
      "type": "function"
    },
    {
      "inputs": [],
      "name": "l2Sender",
      "outputs": [
        {
          "internalType": "address",
          "name": "",
          "type": "address"
        }
      ],
      "stateMutability": "view",
      "type": "function"
    },
    {
      "inputs": [
        {
          "internalType": "uint64",
          "name": "_byteCount",
          "type": "uint64"
        }
      ],
      "name": "minimumGasLimit",
      "outputs": [
        {
          "internalType": "uint64",
          "name": "",
          "type": "uint64"
        }
      ],
      "stateMutability": "pure",
      "type": "function"
    },
    {
      "inputs": [],
      "name": "nativeTokenAddress",
      "outputs": [
        {
          "internalType": "address",
          "name": "",
          "type": "address"
        }
      ],
      "stateMutability": "view",
      "type": "function"
    },
    {
      "inputs": [
        {
          "internalType": "address",
          "name": "_owner",
          "type": "address"
        },
        {
          "internalType": "address",
          "name": "",
          "type": "address"
        },
        {
          "internalType": "uint256",
          "name": "_amount",
          "type": "uint256"
        },
        {
          "internalType": "bytes",
          "name": "_data",
          "type": "bytes"
        }
      ],
      "name": "onApprove",
      "outputs": [
        {
          "internalType": "bool",
          "name": "",
          "type": "bool"
        }
      ],
      "stateMutability": "nonpayable",
      "type": "function"
    },
    {
      "inputs": [],
      "name": "params",
      "outputs": [
        {
          "internalType": "uint128",
          "name": "prevBaseFee",
          "type": "uint128"
        },
        {
          "internalType": "uint64",
          "name": "prevBoughtGas",
          "type": "uint64"
        },
        {
          "internalType": "uint64",
          "name": "prevBlockNum",
          "type": "uint64"
        }
      ],
      "stateMutability": "view",
      "type": "function"
    },
    {
      "inputs": [],
      "name": "pause",
      "outputs": [],
      "stateMutability": "nonpayable",
      "type": "function"
    },
    {
      "inputs": [],
      "name": "paused",
      "outputs": [
        {
          "internalType": "bool",
          "name": "",
          "type": "bool"
        }
      ],
      "stateMutability": "view",
      "type": "function"
    },
    {
      "inputs": [
        {
          "components": [
            {
              "internalType": "uint256",
              "name": "nonce",
              "type": "uint256"
            },
            {
              "internalType": "address",
              "name": "sender",
              "type": "address"
            },
            {
              "internalType": "address",
              "name": "target",
              "type": "address"
            },
            {
              "internalType": "uint256",
              "name": "value",
              "type": "uint256"
            },
            {
              "internalType": "uint256",
              "name": "gasLimit",
              "type": "uint256"
            },
            {
              "internalType": "bytes",
              "name": "data",
              "type": "bytes"
            }
          ],
          "internalType": "struct Types.WithdrawalTransaction",
          "name": "_tx",
          "type": "tuple"
        },
        {
          "internalType": "uint256",
          "name": "_l2OutputIndex",
          "type": "uint256"
        },
        {
          "components": [
            {
              "internalType": "bytes32",
              "name": "version",
              "type": "bytes32"
            },
            {
              "internalType": "bytes32",
              "name": "stateRoot",
              "type": "bytes32"
            },
            {
              "internalType": "bytes32",
              "name": "messagePasserStorageRoot",
              "type": "bytes32"
            },
            {
              "internalType": "bytes32",
              "name": "latestBlockhash",
              "type": "bytes32"
            }
          ],
          "internalType": "struct Types.OutputRootProof",
          "name": "_outputRootProof",
          "type": "tuple"
        },
        {
          "internalType": "bytes[]",
          "name": "_withdrawalProof",
          "type": "bytes[]"
        }
      ],
      "name": "proveWithdrawalTransaction",
      "outputs": [],
      "stateMutability": "nonpayable",
      "type": "function"
    },
    {
      "inputs": [
        {
          "internalType": "bytes32",
          "name": "",
          "type": "bytes32"
        }
      ],
      "name": "provenWithdrawals",
      "outputs": [
        {
          "internalType": "bytes32",
          "name": "outputRoot",
          "type": "bytes32"
        },
        {
          "internalType": "uint128",
          "name": "timestamp",
          "type": "uint128"
        },
        {
          "internalType": "uint128",
          "name": "l2OutputIndex",
          "type": "uint128"
        }
      ],
      "stateMutability": "view",
      "type": "function"
    },
    {
      "inputs": [
        {
          "internalType": "bytes4",
          "name": "interfaceId",
          "type": "bytes4"
        }
      ],
      "name": "supportsInterface",
      "outputs": [
        {
          "internalType": "bool",
          "name": "",
          "type": "bool"
        }
      ],
      "stateMutability": "pure",
      "type": "function"
    },
    {
      "inputs": [],
      "name": "systemConfig",
      "outputs": [
        {
          "internalType": "contract SystemConfig",
          "name": "",
          "type": "address"
        }
      ],
      "stateMutability": "view",
      "type": "function"
    },
    {
      "inputs": [
        {
          "internalType": "bytes",
          "name": "_data",
          "type": "bytes"
        }
      ],
      "name": "unpackOnApproveData",
      "outputs": [
        {
          "internalType": "address",
          "name": "_from",
          "type": "address"
        },
        {
          "internalType": "address",
          "name": "_to",
          "type": "address"
        },
        {
          "internalType": "uint256",
          "name": "_amount",
          "type": "uint256"
        },
        {
          "internalType": "uint32",
          "name": "_gasLimit",
          "type": "uint32"
        },
        {
          "internalType": "bytes",
          "name": "_message",
          "type": "bytes"
        }
      ],
      "stateMutability": "pure",
      "type": "function"
    },
    {
      "inputs": [],
      "name": "unpause",
      "outputs": [],
      "stateMutability": "nonpayable",
      "type": "function"
    },
    {
      "inputs": [],
      "name": "version",
      "outputs": [
        {
          "internalType": "string",
          "name": "",
          "type": "string"
        }
      ],
      "stateMutability": "view",
      "type": "function"
    },
    {
      "stateMutability": "payable",
      "type": "receive"
    }
  ],
  "bytecode": {
    "object": "0x60806040523480156200001157600080fd5b50620000236000808080600162000029565b6200022b565b600054600390610100900460ff161580156200004c575060005460ff8083169116105b620000b55760405162461bcd60e51b815260206004820152602e60248201527f496e697469616c697a61626c653a20636f6e747261637420697320616c72656160448201526d191e481a5b9a5d1a585b1a5e995960921b60648201526084015b60405180910390fd5b6000805461ffff191660ff831617610100908117909155603880546001600160a01b03808a166001600160a01b03199283161790925560328054821661dead1790556035805460368054898616908516179055603780548a861694169390931790925585151592891690930260ff19166001600160a81b0319909116171790556200013f62000188565b6000805461ff001916905560405160ff821681527f7f26b83ff96e1f2b6a682f133852f6798a09c465da95921460cefb38474024989060200160405180910390a1505050505050565b600054610100900460ff16620001f55760405162461bcd60e51b815260206004820152602b60248201527f496e697469616c697a61626c653a20636f6e7472616374206973206e6f74206960448201526a6e697469616c697a696e6760a81b6064820152608401620000ac565b60408051606081018252633b9aca0080825260006020830152436001600160401b031691909201819052600160c01b0217600155565b615eef806200023b6000396000f3fe6080604052600436106101a45760003560e01c8063724c184c116100e15780639bf62d821161008a578063cff0ab9611610064578063cff0ab96146105a7578063e965084c14610648578063f0498750146106d4578063fc5b5fda146106ff57600080fd5b80639bf62d8214610511578063a14238e71461053e578063a35d99df1461056e57600080fd5b80638c3152e9116100bb5780638c3152e91461048d57806392a162cf146104ad5780639b5f694a146104df57600080fd5b8063724c184c1461044d5780638456cb59146104785780638b4c40b0146102bb57600080fd5b80634273ca161161014e5780634d0047ee116101285780634d0047ee1461039057806354fd4d50146103bd5780635c975abb146104135780636dbffb781461042d57600080fd5b80634273ca1614610323578063452a9320146103435780634870496f1461037057600080fd5b80631d01364c1161017f5780631d01364c146102bd57806333d7e2bd146102e15780633f4ba83a1461030e57600080fd5b80621c2ff61461021557806301ffc9a71461026b57806306e2b8b91461029b57600080fd5b36610210576040517f08c379a000000000000000000000000000000000000000000000000000000000815260206004820152601760248201527f4f6e6c7920616c6c6f77206e617469766520746f6b656e00000000000000000060448201526064015b60405180910390fd5b600080fd5b34801561022157600080fd5b50603554610100900473ffffffffffffffffffffffffffffffffffffffff165b60405173ffffffffffffffffffffffffffffffffffffffff90911681526020015b60405180910390f35b34801561027757600080fd5b5061028b61028636600461511a565b61071f565b6040519015158152602001610262565b3480156102a757600080fd5b506102bb6102b63660046151e7565b6107b8565b005b3480156102c957600080fd5b506102d360395481565b604051908152602001610262565b3480156102ed57600080fd5b506036546102419073ffffffffffffffffffffffffffffffffffffffff1681565b34801561031a57600080fd5b506102bb6107cf565b34801561032f57600080fd5b5061028b61033e366004615258565b6108d4565b34801561034f57600080fd5b506037546102419073ffffffffffffffffffffffffffffffffffffffff1681565b34801561037c57600080fd5b506102bb61038b366004615469565b610993565b34801561039c57600080fd5b506038546102419073ffffffffffffffffffffffffffffffffffffffff1681565b3480156103c957600080fd5b506104066040518060400160405280600681526020017f312e31302e30000000000000000000000000000000000000000000000000000081525081565b60405161026291906155bb565b34801561041f57600080fd5b5060355461028b9060ff1681565b34801561043957600080fd5b5061028b6104483660046155ce565b610fc8565b34801561045957600080fd5b5060375473ffffffffffffffffffffffffffffffffffffffff16610241565b34801561048457600080fd5b506102bb611081565b34801561049957600080fd5b506102bb6104a83660046155e7565b611183565b3480156104b957600080fd5b506104cd6104c8366004615624565b611c13565b60405161026296959493929190615666565b3480156104eb57600080fd5b5060355461024190610100900473ffffffffffffffffffffffffffffffffffffffff1681565b34801561051d57600080fd5b506032546102419073ffffffffffffffffffffffffffffffffffffffff1681565b34801561054a57600080fd5b5061028b6105593660046155ce565b60336020526000908152604090205460ff1681565b34801561057a57600080fd5b5061058e6105893660046156f2565b611cd6565b60405167ffffffffffffffff9091168152602001610262565b3480156105b357600080fd5b5060015461060f906fffffffffffffffffffffffffffffffff81169067ffffffffffffffff7001000000000000000000000000000000008204811691780100000000000000000000000000000000000000000000000090041683565b604080516fffffffffffffffffffffffffffffffff909416845267ffffffffffffffff9283166020850152911690820152606001610262565b34801561065457600080fd5b506106a66106633660046155ce565b603460205260009081526040902080546001909101546fffffffffffffffffffffffffffffffff8082169170010000000000000000000000000000000090041683565b604080519384526fffffffffffffffffffffffffffffffff9283166020850152911690820152606001610262565b3480156106e057600080fd5b5060365473ffffffffffffffffffffffffffffffffffffffff16610241565b34801561070b57600080fd5b506102bb61071a36600461571b565b611cef565b60007fffffffff0000000000000000000000000000000000000000000000000000000082167f4273ca160000000000000000000000000000000000000000000000000000000014806107b257507fffffffff0000000000000000000000000000000000000000000000000000000082167f01ffc9a700000000000000000000000000000000000000000000000000000000145b92915050565b6107c83386868686866000611f03565b5050505050565b60375473ffffffffffffffffffffffffffffffffffffffff163314610876576040517f08c379a000000000000000000000000000000000000000000000000000000000815260206004820152602960248201527f4f7074696d69736d506f7274616c3a206f6e6c7920677561726469616e20636160448201527f6e20756e706175736500000000000000000000000000000000000000000000006064820152608401610207565b603580547fffffffffffffffffffffffffffffffffffffffffffffffffffffffffffffff001690556040513381527f5db9ee0a495bf2e6ff9c91a7834c1ba4fdd244a5e8aa4e537bd38aeae4b073aa906020015b60405180910390a1565b60008060008060003660006108e98989611c13565b603854959b5093995091975095509350915073ffffffffffffffffffffffffffffffffffffffff163314801561094a57508573ffffffffffffffffffffffffffffffffffffffff168c73ffffffffffffffffffffffffffffffffffffffff16145b80156109555750838a145b1561097f576109708686868663ffffffff1686866001611f03565b6001965050505050505061098a565b600096505050505050505b95945050505050565b60355460ff1615610a00576040517f08c379a000000000000000000000000000000000000000000000000000000000815260206004820152601660248201527f4f7074696d69736d506f7274616c3a20706175736564000000000000000000006044820152606401610207565b3073ffffffffffffffffffffffffffffffffffffffff16856040015173ffffffffffffffffffffffffffffffffffffffff1603610abf576040517f08c379a000000000000000000000000000000000000000000000000000000000815260206004820152602c60248201527f4f7074696d69736d506f7274616c3a2063616e6e6f742073656e64206d65737360448201527f6167657320746f207468697300000000000000000000000000000000000000006064820152608401610207565b6035546040517fa25ae55700000000000000000000000000000000000000000000000000000000815260048101869052600091610100900473ffffffffffffffffffffffffffffffffffffffff169063a25ae55790602401606060405180830381865afa158015610b34573d6000803e3d6000fd5b505050506040513d601f19601f82011682018060405250810190610b5891906157ac565b519050610b72610b6d36869003860186615811565b61216c565b8114610c00576040517f08c379a000000000000000000000000000000000000000000000000000000000815260206004820152602960248201527f4f7074696d69736d506f7274616c3a20696e76616c6964206f7574707574207260448201527f6f6f742070726f6f6600000000000000000000000000000000000000000000006064820152608401610207565b6000610c0b876121c8565b6000818152603460209081526040918290208251606081018452815481526001909101546fffffffffffffffffffffffffffffffff8082169383018490527001000000000000000000000000000000009091041692810192909252919250901580610d255750805160355460408084015190517fa25ae5570000000000000000000000000000000000000000000000000000000081526fffffffffffffffffffffffffffffffff909116600482015261010090910473ffffffffffffffffffffffffffffffffffffffff169063a25ae55790602401606060405180830381865afa158015610cfd573d6000803e3d6000fd5b505050506040513d601f19601f82011682018060405250810190610d2191906157ac565b5114155b610db1576040517f08c379a000000000000000000000000000000000000000000000000000000000815260206004820152602360248201527f4f7074696d69736d506f7274616c3a20616c7265616479206265656e2070726f60448201527f76656e00000000000000000000000000000000000000000000000000000000006064820152608401610207565b60408051602081018490526000918101829052606001604080517fffffffffffffffffffffffffffffffffffffffffffffffffffffffffffffffe081840301815282825280516020918201209083018190529250610e7a9101604080517fffffffffffffffffffffffffffffffffffffffffffffffffffffffffffffffe0818403018152828201909152600182527f0100000000000000000000000000000000000000000000000000000000000000602083015290610e70888a615877565b8a604001356121f8565b610f06576040517f08c379a000000000000000000000000000000000000000000000000000000000815260206004820152603260248201527f4f7074696d69736d506f7274616c3a20696e76616c696420776974686472617760448201527f616c20696e636c7573696f6e2070726f6f6600000000000000000000000000006064820152608401610207565b604080516060810182528581526fffffffffffffffffffffffffffffffff42811660208084019182528c831684860190815260008981526034835286812095518655925190518416700100000000000000000000000000000000029316929092176001909301929092558b830151908c0151925173ffffffffffffffffffffffffffffffffffffffff918216939091169186917f67a6208cfcc0801d50f6cbe764733f4fddf66ac0b04442061a8a8c0cb6b63f629190a4505050505050505050565b6035546040517fa25ae557000000000000000000000000000000000000000000000000000000008152600481018390526000916107b29161010090910473ffffffffffffffffffffffffffffffffffffffff169063a25ae55790602401606060405180830381865afa158015611042573d6000803e3d6000fd5b505050506040513d601f19601f8201168201806040525081019061106691906157ac565b602001516fffffffffffffffffffffffffffffffff1661221c565b60375473ffffffffffffffffffffffffffffffffffffffff163314611128576040517f08c379a000000000000000000000000000000000000000000000000000000000815260206004820152602760248201527f4f7074696d69736d506f7274616c3a206f6e6c7920677561726469616e20636160448201527f6e207061757365000000000000000000000000000000000000000000000000006064820152608401610207565b603580547fffffffffffffffffffffffffffffffffffffffffffffffffffffffffffffff001660011790556040513381527f62e78cea01bee320cd4e420270b5ea74000d11b0c9f74754ebdbfc544b05a258906020016108ca565b60355460ff16156111f0576040517f08c379a000000000000000000000000000000000000000000000000000000000815260206004820152601660248201527f4f7074696d69736d506f7274616c3a20706175736564000000000000000000006044820152606401610207565b60325473ffffffffffffffffffffffffffffffffffffffff1661dead14611299576040517f08c379a000000000000000000000000000000000000000000000000000000000815260206004820152603f60248201527f4f7074696d69736d506f7274616c3a2063616e206f6e6c79207472696767657260448201527f206f6e65207769746864726177616c20706572207472616e73616374696f6e006064820152608401610207565b60006112a4826121c8565b60008181526034602090815260408083208151606081018352815481526001909101546fffffffffffffffffffffffffffffffff8082169483018590527001000000000000000000000000000000009091041691810191909152929350900361138f576040517f08c379a000000000000000000000000000000000000000000000000000000000815260206004820152603260248201527f4f7074696d69736d506f7274616c3a207769746864726177616c20686173206e60448201527f6f74206265656e2070726f76656e2079657400000000000000000000000000006064820152608401610207565b603560019054906101000a900473ffffffffffffffffffffffffffffffffffffffff1673ffffffffffffffffffffffffffffffffffffffff1663887862726040518163ffffffff1660e01b8152600401602060405180830381865afa1580156113fc573d6000803e3d6000fd5b505050506040513d601f19601f8201168201806040525081019061142091906158fb565b81602001516fffffffffffffffffffffffffffffffff1610156114eb576040517f08c379a000000000000000000000000000000000000000000000000000000000815260206004820152604b60248201527f4f7074696d69736d506f7274616c3a207769746864726177616c2074696d657360448201527f74616d70206c657373207468616e204c32204f7261636c65207374617274696e60648201527f672074696d657374616d70000000000000000000000000000000000000000000608482015260a401610207565b61150a81602001516fffffffffffffffffffffffffffffffff1661221c565b6115bc576040517f08c379a000000000000000000000000000000000000000000000000000000000815260206004820152604560248201527f4f7074696d69736d506f7274616c3a2070726f76656e2077697468647261776160448201527f6c2066696e616c697a6174696f6e20706572696f6420686173206e6f7420656c60648201527f6170736564000000000000000000000000000000000000000000000000000000608482015260a401610207565b60355460408281015190517fa25ae5570000000000000000000000000000000000000000000000000000000081526fffffffffffffffffffffffffffffffff9091166004820152600091610100900473ffffffffffffffffffffffffffffffffffffffff169063a25ae55790602401606060405180830381865afa158015611648573d6000803e3d6000fd5b505050506040513d601f19601f8201168201806040525081019061166c91906157ac565b8251815191925014611726576040517f08c379a000000000000000000000000000000000000000000000000000000000815260206004820152604960248201527f4f7074696d69736d506f7274616c3a206f757470757420726f6f742070726f7660448201527f656e206973206e6f74207468652073616d652061732063757272656e74206f7560648201527f7470757420726f6f740000000000000000000000000000000000000000000000608482015260a401610207565b61174581602001516fffffffffffffffffffffffffffffffff1661221c565b6117f7576040517f08c379a000000000000000000000000000000000000000000000000000000000815260206004820152604360248201527f4f7074696d69736d506f7274616c3a206f75747075742070726f706f73616c2060448201527f66696e616c697a6174696f6e20706572696f6420686173206e6f7420656c617060648201527f7365640000000000000000000000000000000000000000000000000000000000608482015260a401610207565b60008381526033602052604090205460ff1615611896576040517f08c379a000000000000000000000000000000000000000000000000000000000815260206004820152603560248201527f4f7074696d69736d506f7274616c3a207769746864726177616c20686173206160448201527f6c7265616479206265656e2066696e616c697a656400000000000000000000006064820152608401610207565b600083815260336020908152604090912080547fffffffffffffffffffffffffffffffffffffffffffffffffffffffffffffff001660011790558401516032805473ffffffffffffffffffffffffffffffffffffffff9092167fffffffffffffffffffffffff0000000000000000000000000000000000000000909216919091179055606084015115611af05760385460408581015190517fdd62ed3e00000000000000000000000000000000000000000000000000000000815230600482015273ffffffffffffffffffffffffffffffffffffffff80831660248301529092169163095ea7b39190839063dd62ed3e90604401602060405180830381865afa1580156119a7573d6000803e3d6000fd5b505050506040513d601f19601f820116820180604052508101906119cb91906158fb565b87606001516119da9190615943565b6040517fffffffff0000000000000000000000000000000000000000000000000000000060e085901b16815273ffffffffffffffffffffffffffffffffffffffff909216600483015260248201526044016020604051808303816000875af1158015611a4a573d6000803e3d6000fd5b505050506040513d601f19601f82011682018060405250810190611a6e919061595b565b611ad4576040517f08c379a000000000000000000000000000000000000000000000000000000000815260206004820152601760248201527f4f7074696d69736d20617070726f7665206661696c65640000000000000000006044820152606401610207565b836060015160396000828254611aea9190615978565b90915550505b6000611b0b8560400151866080015160008860a001516122c1565b603280547fffffffffffffffffffffffff00000000000000000000000000000000000000001661dead17905560405190915084907fdb5c7652857aa163daadd670e116628fb42e869d8ac4251ef8971d9e5727df1b90611b7090841515815260200190565b60405180910390a280158015611b865750326001145b156107c8576040517f08c379a000000000000000000000000000000000000000000000000000000000815260206004820152602160248201527f4f7074696d69736d506f7274616c3a207769746864726177616c206661696c6560448201527f64000000000000000000000000000000000000000000000000000000000000006064820152608401610207565b60008080803681604c871015611c85576040517f08c379a000000000000000000000000000000000000000000000000000000000815260206004820152601660248201527f696e76616c6964206f6e417070726f76652064617461000000000000000000006044820152606401610207565b5050508435606090811c96601487013590911c95602881013595604882013560e01c9550604c90910193507fffffffffffffffffffffffffffffffffffffffffffffffffffffffffffffffb4019150565b6000611ce382601061598f565b6107b2906152086159bf565b600054600390610100900460ff16158015611d11575060005460ff8083169116105b611d9d576040517f08c379a000000000000000000000000000000000000000000000000000000000815260206004820152602e60248201527f496e697469616c697a61626c653a20636f6e747261637420697320616c72656160448201527f647920696e697469616c697a65640000000000000000000000000000000000006064820152608401610207565b600080547fffffffffffffffffffffffffffffffffffffffffffffffffffffffffffff00001660ff8316176101009081179091556038805473ffffffffffffffffffffffffffffffffffffffff808a167fffffffffffffffffffffffff00000000000000000000000000000000000000009283161790925560328054821661dead1790556035805460368054898616908516179055603780548a86169416939093179092558515159289169093027fffffffffffffffffffffffffffffffffffffffffffffffffffffffffffffff00167fffffffffffffffffffffff00000000000000000000000000000000000000000090911617179055611e9d61231f565b600080547fffffffffffffffffffffffffffffffffffffffffffffffffffffffffffff00ff16905560405160ff821681527f7f26b83ff96e1f2b6a682f133852f6798a09c465da95921460cefb38474024989060200160405180910390a1505050505050565b8360005a90508615611f4c57603854611f349073ffffffffffffffffffffffffffffffffffffffff168a308a612402565b8660396000828254611f469190615943565b90915550505b611f5584611cd6565b67ffffffffffffffff168667ffffffffffffffff161015611ff8576040517f08c379a000000000000000000000000000000000000000000000000000000000815260206004820152602360248201527f4f7074696d69736d506f7274616c3a20676173206c696d697420746f6f20736d60448201527f616c6c00000000000000000000000000000000000000000000000000000000006064820152608401610207565b6201d4c0841115612065576040517f08c379a000000000000000000000000000000000000000000000000000000000815260206004820152601e60248201527f4f7074696d69736d506f7274616c3a206461746120746f6f206c6172676500006044820152606401610207565b8873ffffffffffffffffffffffffffffffffffffffff8116321480159061208a575083155b156120a8575073111100000000000000000000000000000000111189015b6040516000906120dd908a9081908b9073ffffffffffffffffffffffffffffffffffffffff8f1615908c908c906020016159eb565b604051602081830303815290604052905060008a73ffffffffffffffffffffffffffffffffffffffff168373ffffffffffffffffffffffffffffffffffffffff167fb3813568d9991fc951961fcb4c784893574240a28925604d09fc577c55bb7c328460405161214d91906155bb565b60405180910390a45050612161828261249d565b505050505050505050565b600081600001518260200151836040015184606001516040516020016121ab949392919093845260208401929092526040830152606082015260800190565b604051602081830303815290604052805190602001209050919050565b80516020808301516040808501516060860151608087015160a088015193516000976121ab979096959101615a44565b600080612204866127ca565b9050612212818686866127fc565b9695505050505050565b6000603560019054906101000a900473ffffffffffffffffffffffffffffffffffffffff1673ffffffffffffffffffffffffffffffffffffffff1663f4daa2916040518163ffffffff1660e01b8152600401602060405180830381865afa15801561228b573d6000803e3d6000fd5b505050506040513d601f19601f820116820180604052508101906122af91906158fb565b6122b99083615943565b421192915050565b60008060006122d1866000612823565b905080612307576308c379a06000526020805278185361666543616c6c3a204e6f7420656e6f756768206761736058526064601cfd5b600080855160208701888b5af1979650505050505050565b600054610100900460ff166123b6576040517f08c379a000000000000000000000000000000000000000000000000000000000815260206004820152602b60248201527f496e697469616c697a61626c653a20636f6e7472616374206973206e6f74206960448201527f6e697469616c697a696e670000000000000000000000000000000000000000006064820152608401610207565b60408051606081018252633b9aca00808252600060208301524367ffffffffffffffff169190920181905278010000000000000000000000000000000000000000000000000217600155565b6040805173ffffffffffffffffffffffffffffffffffffffff85811660248301528416604482015260648082018490528251808303909101815260849091019091526020810180517bffffffffffffffffffffffffffffffffffffffffffffffffffffffff167f23b872dd00000000000000000000000000000000000000000000000000000000179052612497908590612841565b50505050565b6001546000906124d3907801000000000000000000000000000000000000000000000000900467ffffffffffffffff1643615978565b905060006124df612952565b90506000816020015160ff16826000015163ffffffff166125009190615aca565b9050821561263757600154600090612537908390700100000000000000000000000000000000900467ffffffffffffffff16615b32565b90506000836040015160ff168361254e9190615ba6565b60015461256e9084906fffffffffffffffffffffffffffffffff16615ba6565b6125789190615aca565b6001549091506000906125c9906125a29084906fffffffffffffffffffffffffffffffff16615c62565b866060015163ffffffff168760a001516fffffffffffffffffffffffffffffffff16612a18565b905060018611156125f8576125f56125a282876040015160ff1660018a6125f09190615978565b612a37565b90505b6fffffffffffffffffffffffffffffffff16780100000000000000000000000000000000000000000000000067ffffffffffffffff4316021760015550505b6001805486919060109061266a908490700100000000000000000000000000000000900467ffffffffffffffff166159bf565b92506101000a81548167ffffffffffffffff021916908367ffffffffffffffff160217905550816000015163ffffffff16600160000160109054906101000a900467ffffffffffffffff1667ffffffffffffffff16131561274d576040517f08c379a000000000000000000000000000000000000000000000000000000000815260206004820152603e60248201527f5265736f757263654d65746572696e673a2063616e6e6f7420627579206d6f7260448201527f6520676173207468616e20617661696c61626c6520676173206c696d697400006064820152608401610207565b600154600090612779906fffffffffffffffffffffffffffffffff1667ffffffffffffffff8816615cd6565b9050600061278b48633b9aca00612a8c565b6127959083615d13565b905060005a6127a49088615978565b9050808211156127c0576127c06127bb8284615978565b612aa3565b5050505050505050565b606081805190602001206040516020016127e691815260200190565b6040516020818303038152906040529050919050565b600061098a8461280d878686612acc565b8051602091820120825192909101919091201490565b600080603f83619c4001026040850201603f5a021015949350505050565b60006128a3826040518060400160405280602081526020017f5361666545524332303a206c6f772d6c6576656c2063616c6c206661696c65648152508573ffffffffffffffffffffffffffffffffffffffff1661354a9092919063ffffffff16565b80519091501561294d57808060200190518101906128c1919061595b565b61294d576040517f08c379a000000000000000000000000000000000000000000000000000000000815260206004820152602a60248201527f5361666545524332303a204552433230206f7065726174696f6e20646964206e60448201527f6f742073756363656564000000000000000000000000000000000000000000006064820152608401610207565b505050565b6040805160c08082018352600080835260208301819052828401819052606083018190526080830181905260a083015260365483517fcc731b020000000000000000000000000000000000000000000000000000000081529351929373ffffffffffffffffffffffffffffffffffffffff9091169263cc731b02926004808401939192918290030181865afa1580156129ef573d6000803e3d6000fd5b505050506040513d601f19601f82011682018060405250810190612a139190615d4c565b905090565b6000612a2d612a278585613559565b83613569565b90505b9392505050565b6000670de0b6b3a7640000612a78612a4f8583615aca565b612a6190670de0b6b3a7640000615b32565b612a7385670de0b6b3a7640000615ba6565b613578565b612a829086615ba6565b612a2d9190615aca565b600081831015612a9c5781612a30565b5090919050565b6000805a90505b825a612ab69083615978565b101561294d57612ac582615deb565b9150612aaa565b60606000845111612b39576040517f08c379a000000000000000000000000000000000000000000000000000000000815260206004820152601560248201527f4d65726b6c65547269653a20656d707479206b657900000000000000000000006044820152606401610207565b6000612b44846135a9565b90506000612b5186613695565b9050600084604051602001612b6891815260200190565b60405160208183030381529060405290506000805b84518110156134c1576000858281518110612b9a57612b9a615e23565b602002602001015190508451831115612c35576040517f08c379a000000000000000000000000000000000000000000000000000000000815260206004820152602e60248201527f4d65726b6c65547269653a206b657920696e646578206578636565647320746f60448201527f74616c206b6579206c656e6774680000000000000000000000000000000000006064820152608401610207565b82600003612cee5780518051602091820120604051612c8392612c5d92910190815260200190565b604051602081830303815290604052858051602091820120825192909101919091201490565b612ce9576040517f08c379a000000000000000000000000000000000000000000000000000000000815260206004820152601d60248201527f4d65726b6c65547269653a20696e76616c696420726f6f7420686173680000006044820152606401610207565b612e45565b805151602011612da45780518051602091820120604051612d1892612c5d92910190815260200190565b612ce9576040517f08c379a000000000000000000000000000000000000000000000000000000000815260206004820152602760248201527f4d65726b6c65547269653a20696e76616c6964206c6172676520696e7465726e60448201527f616c2068617368000000000000000000000000000000000000000000000000006064820152608401610207565b805184516020808701919091208251919092012014612e45576040517f08c379a000000000000000000000000000000000000000000000000000000000815260206004820152602660248201527f4d65726b6c65547269653a20696e76616c696420696e7465726e616c206e6f6460448201527f65206861736800000000000000000000000000000000000000000000000000006064820152608401610207565b612e5160106001615943565b8160200151510361302d5784518303612fc557612e8b8160200151601081518110612e7e57612e7e615e23565b60200260200101516136f8565b96506000875111612f1e576040517f08c379a000000000000000000000000000000000000000000000000000000000815260206004820152603b60248201527f4d65726b6c65547269653a2076616c7565206c656e677468206d75737420626560448201527f2067726561746572207468616e207a65726f20286272616e63682900000000006064820152608401610207565b60018651612f2c9190615978565b8214612fba576040517f08c379a000000000000000000000000000000000000000000000000000000000815260206004820152603a60248201527f4d65726b6c65547269653a2076616c7565206e6f6465206d757374206265206c60448201527f617374206e6f646520696e2070726f6f6620286272616e6368290000000000006064820152608401610207565b505050505050612a30565b6000858481518110612fd957612fd9615e23565b602001015160f81c60f81b60f81c9050600082602001518260ff168151811061300457613004615e23565b6020026020010151905061301781613858565b9550613024600186615943565b945050506134ae565b6002816020015151036134265760006130458261387d565b905060008160008151811061305c5761305c615e23565b016020015160f81c90506000613073600283615e52565b61307e906002615e74565b9050600061308f848360ff166138a1565b9050600061309d8a896138a1565b905060006130ab83836138d7565b90508083511461313d576040517f08c379a000000000000000000000000000000000000000000000000000000000815260206004820152603a60248201527f4d65726b6c65547269653a20706174682072656d61696e646572206d7573742060448201527f736861726520616c6c206e6962626c65732077697468206b65790000000000006064820152608401610207565b60ff851660021480613152575060ff85166003145b1561334157808251146131e7576040517f08c379a000000000000000000000000000000000000000000000000000000000815260206004820152603d60248201527f4d65726b6c65547269653a206b65792072656d61696e646572206d757374206260448201527f65206964656e746963616c20746f20706174682072656d61696e6465720000006064820152608401610207565b6132018760200151600181518110612e7e57612e7e615e23565b9c5060008d5111613294576040517f08c379a000000000000000000000000000000000000000000000000000000000815260206004820152603960248201527f4d65726b6c65547269653a2076616c7565206c656e677468206d75737420626560448201527f2067726561746572207468616e207a65726f20286c65616629000000000000006064820152608401610207565b60018c516132a29190615978565b8814613330576040517f08c379a000000000000000000000000000000000000000000000000000000000815260206004820152603860248201527f4d65726b6c65547269653a2076616c7565206e6f6465206d757374206265206c60448201527f617374206e6f646520696e2070726f6f6620286c6561662900000000000000006064820152608401610207565b505050505050505050505050612a30565b60ff85161580613354575060ff85166001145b1561339357613380876020015160018151811061337357613373615e23565b6020026020010151613858565b995061338c818a615943565b985061341b565b6040517f08c379a000000000000000000000000000000000000000000000000000000000815260206004820152603260248201527f4d65726b6c65547269653a2072656365697665642061206e6f6465207769746860448201527f20616e20756e6b6e6f776e2070726566697800000000000000000000000000006064820152608401610207565b5050505050506134ae565b6040517f08c379a000000000000000000000000000000000000000000000000000000000815260206004820152602860248201527f4d65726b6c65547269653a20726563656976656420616e20756e70617273656160448201527f626c65206e6f64650000000000000000000000000000000000000000000000006064820152608401610207565b50806134b981615deb565b915050612b7d565b506040517f08c379a000000000000000000000000000000000000000000000000000000000815260206004820152602560248201527f4d65726b6c65547269653a2072616e206f7574206f662070726f6f6620656c6560448201527f6d656e74730000000000000000000000000000000000000000000000000000006064820152608401610207565b6060612a2d848460008561398b565b600081831215612a9c5781612a30565b6000818312612a9c5781612a30565b6000612a30670de0b6b3a76400008361359086613b21565b61359a9190615ba6565b6135a49190615aca565b613d65565b80516060908067ffffffffffffffff8111156135c7576135c76152ae565b60405190808252806020026020018201604052801561360c57816020015b60408051808201909152606080825260208201528152602001906001900390816135e55790505b50915060005b8181101561368e57604051806040016040528085838151811061363757613637615e23565b6020026020010151815260200161366686848151811061365957613659615e23565b6020026020010151613fa4565b81525083828151811061367b5761367b615e23565b6020908102919091010152600101613612565b5050919050565b606080604051905082518060011b603f8101601f1916830160405280835250602084016020830160005b838110156136ed578060011b82018184015160001a8060041c8253600f8116600183015350506001016136bf565b509295945050505050565b6060600080600061370885613fb7565b91945092509050600081600181111561372357613723615e97565b146137b0576040517f08c379a000000000000000000000000000000000000000000000000000000000815260206004820152603960248201527f524c505265616465723a206465636f646564206974656d207479706520666f7260448201527f206279746573206973206e6f7420612064617461206974656d000000000000006064820152608401610207565b6137ba8284615943565b855114613849576040517f08c379a000000000000000000000000000000000000000000000000000000000815260206004820152603460248201527f524c505265616465723a2062797465732076616c756520636f6e7461696e732060448201527f616e20696e76616c69642072656d61696e6465720000000000000000000000006064820152608401610207565b61098a85602001518484614a24565b606060208260000151106138745761386f826136f8565b6107b2565b6107b282614ab8565b60606107b261389c8360200151600081518110612e7e57612e7e615e23565b613695565b6060825182106138c057506040805160208101909152600081526107b2565b612a3083838486516138d29190615978565b614ace565b60008082518451106138ea5782516138ed565b83515b90505b8082108015613974575082828151811061390c5761390c615e23565b602001015160f81c60f81b7effffffffffffffffffffffffffffffffffffffffffffffffffffffffffffff191684838151811061394b5761394b615e23565b01602001517fff0000000000000000000000000000000000000000000000000000000000000016145b15613984578160010191506138f0565b5092915050565b606082471015613a1d576040517f08c379a000000000000000000000000000000000000000000000000000000000815260206004820152602660248201527f416464726573733a20696e73756666696369656e742062616c616e636520666f60448201527f722063616c6c00000000000000000000000000000000000000000000000000006064820152608401610207565b73ffffffffffffffffffffffffffffffffffffffff85163b613a9b576040517f08c379a000000000000000000000000000000000000000000000000000000000815260206004820152601d60248201527f416464726573733a2063616c6c20746f206e6f6e2d636f6e74726163740000006044820152606401610207565b6000808673ffffffffffffffffffffffffffffffffffffffff168587604051613ac49190615ec6565b60006040518083038185875af1925050503d8060008114613b01576040519150601f19603f3d011682016040523d82523d6000602084013e613b06565b606091505b5091509150613b16828286614ca6565b979650505050505050565b6000808213613b8c576040517f08c379a000000000000000000000000000000000000000000000000000000000815260206004820152600960248201527f554e444546494e454400000000000000000000000000000000000000000000006044820152606401610207565b60006060613b9984614cf9565b03609f8181039490941b90931c6c465772b2bbbb5f824b15207a3081018102606090811d6d0388eaa27412d5aca026815d636e018202811d6d0df99ac502031bf953eff472fdcc018202811d6d13cdffb29d51d99322bdff5f2211018202811d6d0a0f742023def783a307a986912e018202811d6d01920d8043ca89b5239253284e42018202811d6c0b7a86d7375468fac667a0a527016c29508e458543d8aa4df2abee7883018302821d6d0139601a2efabe717e604cbb4894018302821d6d02247f7a7b6594320649aa03aba1018302821d7fffffffffffffffffffffffffffffffffffffff73c0c716a594e00d54e3c4cbc9018302821d7ffffffffffffffffffffffffffffffffffffffdc7b88c420e53a9890533129f6f01830290911d7fffffffffffffffffffffffffffffffffffffff465fda27eb4d63ded474e5f832019091027ffffffffffffffff5f6af8f7b3396644f18e157960000000000000000000000000105711340daa0d5f769dba1915cef59f0815a5506027d0267a36c0c95b3975ab3ee5b203a7614a3f75373f047d803ae7b6687f2b393909302929092017d57115e47018c7177eebf7cd370a3356a1b7863008a5ae8028c72b88642840160ae1d92915050565b60007ffffffffffffffffffffffffffffffffffffffffffffffffdb731c958f34d94c18213613d9657506000919050565b680755bf798b4a1bf1e58212613e08576040517f08c379a000000000000000000000000000000000000000000000000000000000815260206004820152600c60248201527f4558505f4f564552464c4f5700000000000000000000000000000000000000006044820152606401610207565b6503782dace9d9604e83901b059150600060606bb17217f7d1cf79abc9e3b39884821b056b80000000000000000000000001901d6bb17217f7d1cf79abc9e3b39881029093037fffffffffffffffffffffffffffffffffffffffdbf3ccf1604d263450f02a550481018102606090811d6d0277594991cfc85f6e2461837cd9018202811d7fffffffffffffffffffffffffffffffffffffe5adedaa1cb095af9e4da10e363c018202811d6db1bbb201f443cf962f1a1d3db4a5018202811d7ffffffffffffffffffffffffffffffffffffd38dc772608b0ae56cce01296c0eb018202811d6e05180bb14799ab47a8a8cb2a527d57016d02d16720577bd19bf614176fe9ea6c10fe68e7fd37d0007b713f765084018402831d9081019084017ffffffffffffffffffffffffffffffffffffffe2c69812cf03b0763fd454a8f7e010290911d6e0587f503bb6ea29d25fcb7401964500190910279d835ebba824c98fb31b83b2ca45c000000000000000000000000010574029d9dc38563c32e5c2f6dc192ee70ef65f9978af30260c3939093039290921c92915050565b60606107b2613fb283614dcf565b614eb8565b600080600080846000015111614075576040517f08c379a000000000000000000000000000000000000000000000000000000000815260206004820152604a60248201527f524c505265616465723a206c656e677468206f6620616e20524c50206974656d60448201527f206d7573742062652067726561746572207468616e207a65726f20746f20626560648201527f206465636f6461626c6500000000000000000000000000000000000000000000608482015260a401610207565b6020840151805160001a607f811161409a576000600160009450945094505050614a1d565b60b781116142a85760006140af608083615978565b90508087600001511161416a576040517f08c379a000000000000000000000000000000000000000000000000000000000815260206004820152604e60248201527f524c505265616465723a206c656e677468206f6620636f6e74656e74206d757360448201527f742062652067726561746572207468616e20737472696e67206c656e6774682060648201527f2873686f727420737472696e6729000000000000000000000000000000000000608482015260a401610207565b6001838101517fff000000000000000000000000000000000000000000000000000000000000001690821415806141e357507f80000000000000000000000000000000000000000000000000000000000000007fff00000000000000000000000000000000000000000000000000000000000000821610155b614295576040517f08c379a000000000000000000000000000000000000000000000000000000000815260206004820152604d60248201527f524c505265616465723a20696e76616c6964207072656669782c2073696e676c60448201527f652062797465203c203078383020617265206e6f74207072656669786564202860648201527f73686f727420737472696e672900000000000000000000000000000000000000608482015260a401610207565b5060019550935060009250614a1d915050565b60bf81116145f65760006142bd60b783615978565b905080876000015111614378576040517f08c379a000000000000000000000000000000000000000000000000000000000815260206004820152605160248201527f524c505265616465723a206c656e677468206f6620636f6e74656e74206d757360448201527f74206265203e207468616e206c656e677468206f6620737472696e67206c656e60648201527f67746820286c6f6e6720737472696e6729000000000000000000000000000000608482015260a401610207565b60018301517fff00000000000000000000000000000000000000000000000000000000000000166000819003614456576040517f08c379a000000000000000000000000000000000000000000000000000000000815260206004820152604a60248201527f524c505265616465723a206c656e677468206f6620636f6e74656e74206d757360448201527f74206e6f74206861766520616e79206c656164696e67207a65726f7320286c6f60648201527f6e6720737472696e672900000000000000000000000000000000000000000000608482015260a401610207565b600184015160088302610100031c6037811161451a576040517f08c379a000000000000000000000000000000000000000000000000000000000815260206004820152604860248201527f524c505265616465723a206c656e677468206f6620636f6e74656e74206d757360448201527f742062652067726561746572207468616e20353520627974657320286c6f6e6760648201527f20737472696e6729000000000000000000000000000000000000000000000000608482015260a401610207565b6145248184615943565b8951116145d9576040517f08c379a000000000000000000000000000000000000000000000000000000000815260206004820152604c60248201527f524c505265616465723a206c656e677468206f6620636f6e74656e74206d757360448201527f742062652067726561746572207468616e20746f74616c206c656e677468202860648201527f6c6f6e6720737472696e67290000000000000000000000000000000000000000608482015260a401610207565b6145e4836001615943565b9750955060009450614a1d9350505050565b60f781116146d757600061460b60c083615978565b9050808760000151116146c6576040517f08c379a000000000000000000000000000000000000000000000000000000000815260206004820152604a60248201527f524c505265616465723a206c656e677468206f6620636f6e74656e74206d757360448201527f742062652067726561746572207468616e206c697374206c656e67746820287360648201527f686f7274206c6973742900000000000000000000000000000000000000000000608482015260a401610207565b600195509350849250614a1d915050565b60006146e460f783615978565b90508087600001511161479f576040517f08c379a000000000000000000000000000000000000000000000000000000000815260206004820152604d60248201527f524c505265616465723a206c656e677468206f6620636f6e74656e74206d757360448201527f74206265203e207468616e206c656e677468206f66206c697374206c656e677460648201527f6820286c6f6e67206c6973742900000000000000000000000000000000000000608482015260a401610207565b60018301517fff0000000000000000000000000000000000000000000000000000000000000016600081900361487d576040517f08c379a000000000000000000000000000000000000000000000000000000000815260206004820152604860248201527f524c505265616465723a206c656e677468206f6620636f6e74656e74206d757360448201527f74206e6f74206861766520616e79206c656164696e67207a65726f7320286c6f60648201527f6e67206c69737429000000000000000000000000000000000000000000000000608482015260a401610207565b600184015160088302610100031c60378111614941576040517f08c379a000000000000000000000000000000000000000000000000000000000815260206004820152604660248201527f524c505265616465723a206c656e677468206f6620636f6e74656e74206d757360448201527f742062652067726561746572207468616e20353520627974657320286c6f6e6760648201527f206c697374290000000000000000000000000000000000000000000000000000608482015260a401610207565b61494b8184615943565b895111614a00576040517f08c379a000000000000000000000000000000000000000000000000000000000815260206004820152604a60248201527f524c505265616465723a206c656e677468206f6620636f6e74656e74206d757360448201527f742062652067726561746572207468616e20746f74616c206c656e677468202860648201527f6c6f6e67206c6973742900000000000000000000000000000000000000000000608482015260a401610207565b614a0b836001615943565b9750955060019450614a1d9350505050565b9193909250565b60608167ffffffffffffffff811115614a3f57614a3f6152ae565b6040519080825280601f01601f191660200182016040528015614a69576020820181803683370190505b5090508115612a30576000614a7e8486615943565b90506020820160005b84811015614a9f578281015182820152602001614a87565b84811115614aae576000858301525b5050509392505050565b60606107b2826020015160008460000151614a24565b60608182601f011015614b3d576040517f08c379a000000000000000000000000000000000000000000000000000000000815260206004820152600e60248201527f736c6963655f6f766572666c6f770000000000000000000000000000000000006044820152606401610207565b828284011015614ba9576040517f08c379a000000000000000000000000000000000000000000000000000000000815260206004820152600e60248201527f736c6963655f6f766572666c6f770000000000000000000000000000000000006044820152606401610207565b81830184511015614c16576040517f08c379a000000000000000000000000000000000000000000000000000000000815260206004820152601160248201527f736c6963655f6f75744f66426f756e64730000000000000000000000000000006044820152606401610207565b606082158015614c355760405191506000825260208201604052614c9d565b6040519150601f8416801560200281840101858101878315602002848b0101015b81831015614c6e578051835260209283019201614c56565b5050858452601f017fffffffffffffffffffffffffffffffffffffffffffffffffffffffffffffffe016604052505b50949350505050565b60608315614cb5575081612a30565b825115614cc55782518084602001fd5b816040517f08c379a000000000000000000000000000000000000000000000000000000000815260040161020791906155bb565b6000808211614d64576040517f08c379a000000000000000000000000000000000000000000000000000000000815260206004820152600960248201527f554e444546494e454400000000000000000000000000000000000000000000006044820152606401610207565b5060016fffffffffffffffffffffffffffffffff821160071b82811c67ffffffffffffffff1060061b1782811c63ffffffff1060051b1782811c61ffff1060041b1782811c60ff10600390811b90911783811c600f1060021b1783811c909110821b1791821c111790565b60408051808201909152600080825260208201526000825111614e9a576040517f08c379a000000000000000000000000000000000000000000000000000000000815260206004820152604a60248201527f524c505265616465723a206c656e677468206f6620616e20524c50206974656d60448201527f206d7573742062652067726561746572207468616e207a65726f20746f20626560648201527f206465636f6461626c6500000000000000000000000000000000000000000000608482015260a401610207565b50604080518082019091528151815260209182019181019190915290565b60606000806000614ec885613fb7565b919450925090506001816001811115614ee357614ee3615e97565b14614f70576040517f08c379a000000000000000000000000000000000000000000000000000000000815260206004820152603860248201527f524c505265616465723a206465636f646564206974656d207479706520666f7260448201527f206c697374206973206e6f742061206c697374206974656d00000000000000006064820152608401610207565b8451614f7c8385615943565b14615009576040517f08c379a000000000000000000000000000000000000000000000000000000000815260206004820152603260248201527f524c505265616465723a206c697374206974656d2068617320616e20696e766160448201527f6c696420646174612072656d61696e64657200000000000000000000000000006064820152608401610207565b604080516020808252610420820190925290816020015b60408051808201909152600080825260208201528152602001906001900390816150205790505093506000835b865181101561510e576000806150936040518060400160405280858c600001516150779190615978565b8152602001858c6020015161508c9190615943565b9052613fb7565b5091509150604051806040016040528083836150af9190615943565b8152602001848b602001516150c49190615943565b8152508885815181106150d9576150d9615e23565b60209081029190910101526150ef600185615943565b93506150fb8183615943565b6151059084615943565b9250505061504d565b50845250919392505050565b60006020828403121561512c57600080fd5b81357fffffffff0000000000000000000000000000000000000000000000000000000081168114612a3057600080fd5b73ffffffffffffffffffffffffffffffffffffffff8116811461517e57600080fd5b50565b803567ffffffffffffffff8116811461519957600080fd5b919050565b60008083601f8401126151b057600080fd5b50813567ffffffffffffffff8111156151c857600080fd5b6020830191508360208285010111156151e057600080fd5b9250929050565b6000806000806000608086880312156151ff57600080fd5b853561520a8161515c565b94506020860135935061521f60408701615181565b9250606086013567ffffffffffffffff81111561523b57600080fd5b6152478882890161519e565b969995985093965092949392505050565b60008060008060006080868803121561527057600080fd5b853561527b8161515c565b9450602086013561528b8161515c565b935060408601359250606086013567ffffffffffffffff81111561523b57600080fd5b7f4e487b7100000000000000000000000000000000000000000000000000000000600052604160045260246000fd5b604051601f82017fffffffffffffffffffffffffffffffffffffffffffffffffffffffffffffffe016810167ffffffffffffffff81118282101715615324576153246152ae565b604052919050565b600082601f83011261533d57600080fd5b813567ffffffffffffffff811115615357576153576152ae565b61538860207fffffffffffffffffffffffffffffffffffffffffffffffffffffffffffffffe0601f840116016152dd565b81815284602083860101111561539d57600080fd5b816020850160208301376000918101602001919091529392505050565b600060c082840312156153cc57600080fd5b60405160c0810167ffffffffffffffff82821081831117156153f0576153f06152ae565b81604052829350843583526020850135915061540b8261515c565b816020840152604085013591506154218261515c565b816040840152606085013560608401526080850135608084015260a085013591508082111561544f57600080fd5b5061545c8582860161532c565b60a0830152505092915050565b600080600080600085870360e081121561548257600080fd5b863567ffffffffffffffff8082111561549a57600080fd5b6154a68a838b016153ba565b97506020890135965060807fffffffffffffffffffffffffffffffffffffffffffffffffffffffffffffffc0840112156154df57600080fd5b60408901955060c08901359250808311156154f957600080fd5b828901925089601f84011261550d57600080fd5b823591508082111561551e57600080fd5b508860208260051b840101111561553457600080fd5b959894975092955050506020019190565b60005b83811015615560578181015183820152602001615548565b838111156124975750506000910152565b60008151808452615589816020860160208601615545565b601f017fffffffffffffffffffffffffffffffffffffffffffffffffffffffffffffffe0169290920160200192915050565b602081526000612a306020830184615571565b6000602082840312156155e057600080fd5b5035919050565b6000602082840312156155f957600080fd5b813567ffffffffffffffff81111561561057600080fd5b61561c848285016153ba565b949350505050565b6000806020838503121561563757600080fd5b823567ffffffffffffffff81111561564e57600080fd5b61565a8582860161519e565b90969095509350505050565b600073ffffffffffffffffffffffffffffffffffffffff808916835280881660208401525085604083015263ffffffff8516606083015260a060808301528260a0830152828460c0840137600060c0848401015260c07fffffffffffffffffffffffffffffffffffffffffffffffffffffffffffffffe0601f8501168301019050979650505050505050565b60006020828403121561570457600080fd5b612a3082615181565b801515811461517e57600080fd5b600080600080600060a0868803121561573357600080fd5b853561573e8161515c565b9450602086013561574e8161515c565b9350604086013561575e8161515c565b9250606086013561576e8161515c565b9150608086013561577e8161570d565b809150509295509295909350565b80516fffffffffffffffffffffffffffffffff8116811461519957600080fd5b6000606082840312156157be57600080fd5b6040516060810181811067ffffffffffffffff821117156157e1576157e16152ae565b604052825181526157f46020840161578c565b60208201526158056040840161578c565b60408201529392505050565b60006080828403121561582357600080fd5b6040516080810181811067ffffffffffffffff82111715615846576158466152ae565b8060405250823581526020830135602082015260408301356040820152606083013560608201528091505092915050565b600067ffffffffffffffff80841115615892576158926152ae565b8360051b60206158a38183016152dd565b8681529185019181810190368411156158bb57600080fd5b865b848110156158ef578035868111156158d55760008081fd5b6158e136828b0161532c565b8452509183019183016158bd565b50979650505050505050565b60006020828403121561590d57600080fd5b5051919050565b7f4e487b7100000000000000000000000000000000000000000000000000000000600052601160045260246000fd5b6000821982111561595657615956615914565b500190565b60006020828403121561596d57600080fd5b8151612a308161570d565b60008282101561598a5761598a615914565b500390565b600067ffffffffffffffff808316818516818304811182151516156159b6576159b6615914565b02949350505050565b600067ffffffffffffffff8083168185168083038211156159e2576159e2615914565b01949350505050565b8681528560208201527fffffffffffffffff0000000000000000000000000000000000000000000000008560c01b16604082015283151560f81b6048820152818360498301376000910160490190815295945050505050565b868152600073ffffffffffffffffffffffffffffffffffffffff808816602084015280871660408401525084606083015283608083015260c060a0830152615a8f60c0830184615571565b98975050505050505050565b7f4e487b7100000000000000000000000000000000000000000000000000000000600052601260045260246000fd5b600082615ad957615ad9615a9b565b7fffffffffffffffffffffffffffffffffffffffffffffffffffffffffffffffff83147f800000000000000000000000000000000000000000000000000000000000000083141615615b2d57615b2d615914565b500590565b6000808312837f800000000000000000000000000000000000000000000000000000000000000001831281151615615b6c57615b6c615914565b837f7fffffffffffffffffffffffffffffffffffffffffffffffffffffffffffffff018313811615615ba057615ba0615914565b50500390565b60007f7fffffffffffffffffffffffffffffffffffffffffffffffffffffffffffffff600084136000841385830485118282161615615be757615be7615914565b7f80000000000000000000000000000000000000000000000000000000000000006000871286820588128184161615615c2257615c22615914565b60008712925087820587128484161615615c3e57615c3e615914565b87850587128184161615615c5457615c54615914565b505050929093029392505050565b6000808212827f7fffffffffffffffffffffffffffffffffffffffffffffffffffffffffffffff03841381151615615c9c57615c9c615914565b827f8000000000000000000000000000000000000000000000000000000000000000038412811615615cd057615cd0615914565b50500190565b6000817fffffffffffffffffffffffffffffffffffffffffffffffffffffffffffffffff0483118215151615615d0e57615d0e615914565b500290565b600082615d2257615d22615a9b565b500490565b805163ffffffff8116811461519957600080fd5b805160ff8116811461519957600080fd5b600060c08284031215615d5e57600080fd5b60405160c0810181811067ffffffffffffffff82111715615d8157615d816152ae565b604052615d8d83615d27565b8152615d9b60208401615d3b565b6020820152615dac60408401615d3b565b6040820152615dbd60608401615d27565b6060820152615dce60808401615d27565b6080820152615ddf60a0840161578c565b60a08201529392505050565b60007fffffffffffffffffffffffffffffffffffffffffffffffffffffffffffffffff8203615e1c57615e1c615914565b5060010190565b7f4e487b7100000000000000000000000000000000000000000000000000000000600052603260045260246000fd5b600060ff831680615e6557615e65615a9b565b8060ff84160691505092915050565b600060ff821660ff841680821015615e8e57615e8e615914565b90039392505050565b7f4e487b7100000000000000000000000000000000000000000000000000000000600052602160045260246000fd5b60008251615ed8818460208701615545565b919091019291505056fea164736f6c634300080f000a",
    "linkReferences": {}
  },
  "methodIdentifiers": {
    "GUARDIAN()": "724c184c",
    "L2_ORACLE()": "001c2ff6",
    "SYSTEM_CONFIG()": "f0498750",
    "depositTransaction(address,uint256,uint64,bytes)": "06e2b8b9",
    "depositedAmount()": "1d01364c",
    "donateETH()": "8b4c40b0",
    "finalizeWithdrawalTransaction((uint256,address,address,uint256,uint256,bytes))": "8c3152e9",
    "finalizedWithdrawals(bytes32)": "a14238e7",
    "guardian()": "452a9320",
    "initialize(address,address,address,address,bool)": "fc5b5fda",
    "isOutputFinalized(uint256)": "6dbffb78",
    "l2Oracle()": "9b5f694a",
    "l2Sender()": "9bf62d82",
    "minimumGasLimit(uint64)": "a35d99df",
    "nativeTokenAddress()": "4d0047ee",
    "onApprove(address,address,uint256,bytes)": "4273ca16",
    "params()": "cff0ab96",
    "pause()": "8456cb59",
    "paused()": "5c975abb",
    "proveWithdrawalTransaction((uint256,address,address,uint256,uint256,bytes),uint256,(bytes32,bytes32,bytes32,bytes32),bytes[])": "4870496f",
    "provenWithdrawals(bytes32)": "e965084c",
    "supportsInterface(bytes4)": "01ffc9a7",
    "systemConfig()": "33d7e2bd",
    "unpackOnApproveData(bytes)": "92a162cf",
    "unpause()": "3f4ba83a",
    "version()": "54fd4d50"
  },
  "storageLayout": {
    "storage": [
      {
        "astId": 30163,
        "contract": "src/L1/OptimismPortal.sol:OptimismPortal",
        "label": "_initialized",
        "offset": 0,
        "slot": "0",
        "type": "t_uint8"
      },
      {
        "astId": 30166,
        "contract": "src/L1/OptimismPortal.sol:OptimismPortal",
        "label": "_initializing",
        "offset": 1,
        "slot": "0",
        "type": "t_bool"
      },
      {
        "astId": 58715,
        "contract": "src/L1/OptimismPortal.sol:OptimismPortal",
        "label": "params",
        "offset": 0,
        "slot": "1",
        "type": "t_struct(ResourceParams)58698_storage"
      },
      {
        "astId": 58720,
        "contract": "src/L1/OptimismPortal.sol:OptimismPortal",
        "label": "__gap",
        "offset": 0,
        "slot": "2",
        "type": "t_array(t_uint256)48_storage"
      },
      {
        "astId": 57588,
        "contract": "src/L1/OptimismPortal.sol:OptimismPortal",
        "label": "l2Sender",
        "offset": 0,
        "slot": "50",
        "type": "t_address"
      },
      {
        "astId": 57593,
        "contract": "src/L1/OptimismPortal.sol:OptimismPortal",
        "label": "finalizedWithdrawals",
        "offset": 0,
        "slot": "51",
        "type": "t_mapping(t_bytes32,t_bool)"
      },
      {
        "astId": 57599,
        "contract": "src/L1/OptimismPortal.sol:OptimismPortal",
        "label": "provenWithdrawals",
        "offset": 0,
        "slot": "52",
        "type": "t_mapping(t_bytes32,t_struct(ProvenWithdrawal)57577_storage)"
      },
      {
        "astId": 57602,
        "contract": "src/L1/OptimismPortal.sol:OptimismPortal",
        "label": "paused",
        "offset": 0,
        "slot": "53",
        "type": "t_bool"
      },
      {
        "astId": 57606,
        "contract": "src/L1/OptimismPortal.sol:OptimismPortal",
        "label": "l2Oracle",
        "offset": 1,
        "slot": "53",
        "type": "t_contract(L2OutputOracle)57491"
      },
      {
        "astId": 57610,
        "contract": "src/L1/OptimismPortal.sol:OptimismPortal",
        "label": "systemConfig",
        "offset": 0,
        "slot": "54",
        "type": "t_contract(SystemConfig)59821"
      },
      {
        "astId": 57613,
        "contract": "src/L1/OptimismPortal.sol:OptimismPortal",
        "label": "guardian",
        "offset": 0,
        "slot": "55",
        "type": "t_address"
      },
      {
        "astId": 57616,
        "contract": "src/L1/OptimismPortal.sol:OptimismPortal",
        "label": "nativeTokenAddress",
        "offset": 0,
        "slot": "56",
        "type": "t_address"
      },
      {
        "astId": 57618,
        "contract": "src/L1/OptimismPortal.sol:OptimismPortal",
        "label": "depositedAmount",
        "offset": 0,
        "slot": "57",
        "type": "t_uint256"
      }
    ],
    "types": {
      "t_address": {
        "encoding": "inplace",
        "label": "address",
        "numberOfBytes": "20"
      },
      "t_array(t_uint256)48_storage": {
        "encoding": "inplace",
        "label": "uint256[48]",
        "numberOfBytes": "1536",
        "base": "t_uint256"
      },
      "t_bool": {
        "encoding": "inplace",
        "label": "bool",
        "numberOfBytes": "1"
      },
      "t_bytes32": {
        "encoding": "inplace",
        "label": "bytes32",
        "numberOfBytes": "32"
      },
      "t_contract(L2OutputOracle)57491": {
        "encoding": "inplace",
        "label": "contract L2OutputOracle",
        "numberOfBytes": "20"
      },
      "t_contract(SystemConfig)59821": {
        "encoding": "inplace",
        "label": "contract SystemConfig",
        "numberOfBytes": "20"
      },
      "t_mapping(t_bytes32,t_bool)": {
        "encoding": "mapping",
        "key": "t_bytes32",
        "label": "mapping(bytes32 => bool)",
        "numberOfBytes": "32",
        "value": "t_bool"
      },
      "t_mapping(t_bytes32,t_struct(ProvenWithdrawal)57577_storage)": {
        "encoding": "mapping",
        "key": "t_bytes32",
        "label": "mapping(bytes32 => struct OptimismPortal.ProvenWithdrawal)",
        "numberOfBytes": "32",
        "value": "t_struct(ProvenWithdrawal)57577_storage"
      },
      "t_struct(ProvenWithdrawal)57577_storage": {
        "encoding": "inplace",
        "label": "struct OptimismPortal.ProvenWithdrawal",
        "numberOfBytes": "64",
        "members": [
          {
            "astId": 57572,
            "contract": "src/L1/OptimismPortal.sol:OptimismPortal",
            "label": "outputRoot",
            "offset": 0,
            "slot": "0",
            "type": "t_bytes32"
          },
          {
            "astId": 57574,
            "contract": "src/L1/OptimismPortal.sol:OptimismPortal",
            "label": "timestamp",
            "offset": 0,
            "slot": "1",
            "type": "t_uint128"
          },
          {
            "astId": 57576,
            "contract": "src/L1/OptimismPortal.sol:OptimismPortal",
            "label": "l2OutputIndex",
            "offset": 16,
            "slot": "1",
            "type": "t_uint128"
          }
        ]
      },
      "t_struct(ResourceParams)58698_storage": {
        "encoding": "inplace",
        "label": "struct ResourceMetering.ResourceParams",
        "numberOfBytes": "32",
        "members": [
          {
            "astId": 58693,
            "contract": "src/L1/OptimismPortal.sol:OptimismPortal",
            "label": "prevBaseFee",
            "offset": 0,
            "slot": "0",
            "type": "t_uint128"
          },
          {
            "astId": 58695,
            "contract": "src/L1/OptimismPortal.sol:OptimismPortal",
            "label": "prevBoughtGas",
            "offset": 16,
            "slot": "0",
            "type": "t_uint64"
          },
          {
            "astId": 58697,
            "contract": "src/L1/OptimismPortal.sol:OptimismPortal",
            "label": "prevBlockNum",
            "offset": 24,
            "slot": "0",
            "type": "t_uint64"
          }
        ]
      },
      "t_uint128": {
        "encoding": "inplace",
        "label": "uint128",
        "numberOfBytes": "16"
      },
      "t_uint256": {
        "encoding": "inplace",
        "label": "uint256",
        "numberOfBytes": "32"
      },
      "t_uint64": {
        "encoding": "inplace",
        "label": "uint64",
        "numberOfBytes": "8"
      },
      "t_uint8": {
        "encoding": "inplace",
        "label": "uint8",
        "numberOfBytes": "1"
      }
    }
  },
  "userdoc": {
    "version": 1,
    "kind": "user",
    "methods": {
      "GUARDIAN()": {
        "notice": "Getter for the Guardian"
      },
      "L2_ORACLE()": {
        "notice": "Getter for the L2OutputOracle"
      },
      "SYSTEM_CONFIG()": {
        "notice": "Getter for the SystemConfig"
      },
      "constructor": {
        "notice": "Constructs the OptimismPortal contract."
      },
      "depositTransaction(address,uint256,uint64,bytes)": {
        "notice": "deriving deposit transactions. Note that if a deposit is made by a contract, its         address will be aliased when retrieved using `tx.origin` or `msg.sender`. Consider         using the CrossDomainMessenger contracts for a simpler developer experience."
      },
      "donateETH()": {
        "notice": "Accepts ETH value without triggering a deposit to L2.         This function mainly exists for the sake of the migration between the legacy         Optimism system and Bedrock."
      },
      "finalizeWithdrawalTransaction((uint256,address,address,uint256,uint256,bytes))": {
        "notice": "Finalizes a withdrawal transaction."
      },
      "finalizedWithdrawals(bytes32)": {
        "notice": "A list of withdrawal hashes which have been successfully finalized."
      },
      "guardian()": {
        "notice": "Address that has the ability to pause and unpause withdrawals."
      },
      "initialize(address,address,address,address,bool)": {
        "notice": "Initializer."
      },
      "isOutputFinalized(uint256)": {
        "notice": "Determine if a given output is finalized.         Reverts if the call to L2_ORACLE.getL2Output reverts.         Returns a boolean otherwise."
      },
      "l2Oracle()": {
        "notice": "Address of the L2OutputOracle contract."
      },
      "l2Sender()": {
        "notice": "Address of the L2 account which initiated a withdrawal in this transaction.         If the of this variable is the default L2 sender address, then we are NOT inside of         a call to finalizeWithdrawalTransaction."
      },
      "minimumGasLimit(uint64)": {
        "notice": "Computes the minimum gas limit for a deposit.         The minimum gas limit linearly increases based on the size of the calldata.         This is to prevent users from creating L2 resource usage without paying for it.         This function can be used when interacting with the portal to ensure forwards         compatibility."
      },
      "nativeTokenAddress()": {
        "notice": "Address of native (ERC-20 token)"
      },
      "onApprove(address,address,uint256,bytes)": {
        "notice": "ERC20 onApprove callback"
      },
      "params()": {
        "notice": "EIP-1559 style gas parameters."
      },
      "pause()": {
        "notice": "Pauses withdrawals."
      },
      "paused()": {
        "notice": "Determines if cross domain messaging is paused.         When set to true, withdrawals are paused.         This may be removed in the future."
      },
      "proveWithdrawalTransaction((uint256,address,address,uint256,uint256,bytes),uint256,(bytes32,bytes32,bytes32,bytes32),bytes[])": {
        "notice": "Proves a withdrawal transaction."
      },
      "provenWithdrawals(bytes32)": {
        "notice": "A mapping of withdrawal hashes to `ProvenWithdrawal` data."
      },
      "systemConfig()": {
        "notice": "Address of the SystemConfig contract."
      },
      "unpackOnApproveData(bytes)": {
        "notice": "unpack onApprove data"
      },
      "unpause()": {
        "notice": "Unpauses withdrawals."
      },
      "version()": {
        "notice": "Semantic version."
      }
    },
    "events": {
      "Paused(address)": {
        "notice": "Emitted when the pause is triggered."
      },
      "TransactionDeposited(address,address,uint256,bytes)": {
        "notice": "Emitted when a transaction is deposited from L1 to L2.         The parameters of this event are read by the rollup node and used to derive deposit         transactions on L2."
      },
      "Unpaused(address)": {
        "notice": "Emitted when the pause is lifted."
      },
      "WithdrawalFinalized(bytes32,bool)": {
        "notice": "Emitted when a withdrawal transaction is finalized."
      },
      "WithdrawalProven(bytes32,address,address)": {
        "notice": "Emitted when a withdrawal transaction is proven."
      }
    },
    "notice": "The OptimismPortal is a low-level contract responsible for passing messages between L1         and L2. Messages sent directly to the OptimismPortal have no form of replayability.         Users are encouraged to use the L1CrossDomainMessenger for a higher-level interface."
  },
  "devdoc": {
    "version": 1,
    "kind": "dev",
    "methods": {
      "GUARDIAN()": {},
      "L2_ORACLE()": {},
      "SYSTEM_CONFIG()": {},
      "depositTransaction(address,uint256,uint64,bytes)": {
        "params": {
          "_data": "Data to trigger the recipient with.",
          "_gasLimit": "Amount of L2 gas to purchase by burning gas on L1.",
          "_to": "Target address on L2.",
          "_value": "Native token value to send to the recipient."
        }
      },
      "finalizeWithdrawalTransaction((uint256,address,address,uint256,uint256,bytes))": {
        "params": {
          "_tx": "Withdrawal transaction to finalize."
        }
      },
      "initialize(address,address,address,address,bool)": {
        "params": {
          "_guardian": "Address that can pause withdrawals.",
          "_l2Oracle": "Address of the L2OutputOracle contract.",
          "_paused": "Sets the contract's pausability state.",
          "_systemConfig": "Address of the SystemConfig contract."
        }
      },
      "isOutputFinalized(uint256)": {
        "params": {
          "_l2OutputIndex": "Index of the L2 output to check."
        },
        "returns": {
          "_0": "Whether or not the output is finalized."
        }
      },
      "minimumGasLimit(uint64)": {
        "params": {
          "_byteCount": "Number of bytes in the calldata."
        },
        "returns": {
          "_0": "The minimum gas limit for a deposit."
        }
      },
      "onApprove(address,address,uint256,bytes)": {
        "params": {
          "_amount": "Approved amount",
          "_data": "Data used in OnApprove contract",
          "_owner": "Account that called approveAndCall"
        }
      },
      "proveWithdrawalTransaction((uint256,address,address,uint256,uint256,bytes),uint256,(bytes32,bytes32,bytes32,bytes32),bytes[])": {
        "params": {
          "_l2OutputIndex": "L2 output index to prove against.",
          "_outputRootProof": "Inclusion proof of the L2ToL1MessagePasser contract's storage root.",
          "_tx": "Withdrawal transaction to finalize.",
          "_withdrawalProof": "Inclusion proof of the withdrawal in L2ToL1MessagePasser contract."
        }
      },
      "unpackOnApproveData(bytes)": {
        "params": {
          "_data": "Data used in OnApprove contract"
        }
      }
    },
    "events": {
      "Paused(address)": {
        "params": {
          "account": "Address of the account triggering the pause."
        }
      },
      "TransactionDeposited(address,address,uint256,bytes)": {
        "params": {
          "from": "Address that triggered the deposit transaction.",
          "opaqueData": "ABI encoded deposit data to be parsed off-chain.",
          "to": "Address that the deposit transaction is directed to.",
          "version": "Version of this deposit transaction event."
        }
      },
      "Unpaused(address)": {
        "params": {
          "account": "Address of the account triggering the unpause."
        }
      },
      "WithdrawalFinalized(bytes32,bool)": {
        "params": {
          "success": "Whether the withdrawal transaction was successful.",
          "withdrawalHash": "Hash of the withdrawal transaction."
        }
      },
      "WithdrawalProven(bytes32,address,address)": {
        "params": {
          "from": "Address that triggered the withdrawal transaction.",
          "to": "Address that the withdrawal transaction is directed to.",
          "withdrawalHash": "Hash of the withdrawal transaction."
        }
      }
    }
  },
  "id": 93
}