{
	"data": {
		"bytecode": {
			"linkReferences": {},
			"object": "6080806040523461001b576001600b556124ec90816100208239f35b5f80fdfe6080604081815260049182361015610015575f80fd5b5f3560e01c90816301ffc9a7146116c6575080631037be21146114f257806316e01724146114a05780631785f53c1461142057806322985246146113c8578063248a9ca31461138157806324d7806c146112f25780632f2ff15d146112a957806336568abe1461122157806350d2a2761461119a578063550d01a3146111335780635cadbd3b146110e957806363a8fd89146110a95780636c790d5414610dad5780636dd897c714610cf35780637048027514610c6257806375829def14610ae657806375b238fc14610a8e5780637f02944f146109f057806391d1485414610981578063a1e89aec14610945578063a217fddf1461090d578063b911135f146108b2578063c8b8e35e146105b6578063d547741f1461055b578063df2ccdbf146103db578063e59f69c214610374578063ee976ab414610286578063f43b3613146102345763f5869c2f14610169575f80fd5b346102305760207ffffffffffffffffffffffffffffffffffffffffffffffffffffffffffffffffc360112610230578161014092355f526008602052815f2073ffffffffffffffffffffffffffffffffffffffff92838254169380600184015416938160028501541691806003860154169185015416600585015491600686015493600787015495600960088901549801549881519a8b5260208b01528901526060880152608087015260a086015260c085015260e0840152610100830152610120820152f35b5f80fd5b5034610230575f7ffffffffffffffffffffffffffffffffffffffffffffffffffffffffffffffffc3601126102305760209073ffffffffffffffffffffffffffffffffffffffff600554169051908152f35b507fbdada440ba6a1aee247cdac6cf66343ea063ea610a86100acdee8496b90351e561036a6102b4366117c7565b9293959694916102c53233146118b3565b6102d085151561193e565b6102db81151561193e565b6102e3611d30565b6102fd84838a84898c896001600754019485600755611d6b565b6007549a5173ffffffffffffffffffffffffffffffffffffffff998a1681529389166020850152969097166040830152336060830152608082019390935260a081019590955260c08501919091524660e08501526101008401526101208301919091528190610140820190565b0390a26001600b55005b5090346102305760207ffffffffffffffffffffffffffffffffffffffffffffffffffffffffffffffffc36011261023057355f52600a602052805f2073ffffffffffffffffffffffffffffffffffffffff6001818354169201541682519182526020820152f35b5034610230576104b46104886103f03661183f565b9496937fdf8b4c520ffe197c5343c6f5aec59570151ef9a492f2c624fd45ddde6135ec425f979397949294526020978a8952895f20335f52895261043960ff8b5f205416611a11565b89519687958a8701998a949260a0949197969260c087019887526020870152604086015273ffffffffffffffffffffffffffffffffffffffff9283809216606087015216608085015216910152565b037fffffffffffffffffffffffffffffffffffffffffffffffffffffffffffffffe081018352826119a3565b51902092835f526009825260ff835f20541661050057505f92835260099052902080547fffffffffffffffffffffffffffffffffffffffffffffffffffffffffffffff00166001179055005b9060649251917f08c379a0000000000000000000000000000000000000000000000000000000008352820152601560248201527f616c7265616479207265676973746572546f6b656e00000000000000000000006044820152fd5b50903461023057817ffffffffffffffffffffffffffffffffffffffffffffffffffffffffffffffffc360112610230576105b4916105af600183359261059f6117a4565b94845f526020525f200154612032565b6122e1565b005b50346102305760c07ffffffffffffffffffffffffffffffffffffffffffffffffffffffffffffffffc360112610230576105ee611781565b9160243592604435936064359160a43593610607611d30565b73ffffffffffffffffffffffffffffffffffffffff95818760055416803314908161081d575b506106389150611b1b565b875f52602090600882526106538884835f2001541615611b80565b885f526008825261066b876009835f20015414611be5565b8415610807575b885f5260088252805f20908382019389861694857fffffffffffffffffffffffff000000000000000000000000000000000000000082541617905560058a600185015416930154958a6006541684145f146107c857505f80808089895af16106d8611c4a565b501561076d575091610160979593917face34b2c3b172510c52ebf145ec31462fba5692f1bebf302f0f4ff2ac407d6cd999795935b8b5f5260088352805f20918983541699600381600286015416940154169382519a8b528a01528801526060870152608086015260a085015260c084015260e083015246610100830152608435610120830152610140820152a26001600b55005b8360649251917f08c379a0000000000000000000000000000000000000000000000000000000008352820152600a60248201527f636c61696d206661696c000000000000000000000000000000000000000000006044820152fd5b83915091610802877face34b2c3b172510c52ebf145ec31462fba5692f1bebf302f0f4ff2ac407d6cd9c9a9896946101609c9a9896612399565b61070d565b9350875f52600881526006845f20015493610672565b602091508351928380927f6e296e450000000000000000000000000000000000000000000000000000000082525afa9081156108a85790610638915f91610879575b50865f52600a6020528880845f205416911614839161062d565b61089b915060203d6020116108a1575b61089381836119a3565b810190611aef565b5f61085f565b503d610889565b82513d5f823e3d90fd5b50346102305760207ffffffffffffffffffffffffffffffffffffffffffffffffffffffffffffffffc36011261023057602091355f526001825273ffffffffffffffffffffffffffffffffffffffff815f2054169051908152f35b5034610230575f7ffffffffffffffffffffffffffffffffffffffffffffffffffffffffffffffffc36011261023057602090515f8152f35b5034610230575f7ffffffffffffffffffffffffffffffffffffffffffffffffffffffffffffffffc360112610230576020906007549051908152f35b503461023057807ffffffffffffffffffffffffffffffffffffffffffffffffffffffffffffffffc360112610230576020916109bb6117a4565b9080355f52835273ffffffffffffffffffffffffffffffffffffffff825f2091165f52825260ff815f20541690519015158152f35b5034610230576101407ffffffffffffffffffffffffffffffffffffffffffffffffffffffffffffffffc36011261023057610a29611781565b90610a326117a4565b6044359073ffffffffffffffffffffffffffffffffffffffff93848316830361023057606435948516850361023057602094610a87936101243593610104359360e4359360c4359360a4359360843593611ca7565b9051908152f35b5034610230575f7ffffffffffffffffffffffffffffffffffffffffffffffffffffffffffffffffc36011261023057602090517fdf8b4c520ffe197c5343c6f5aec59570151ef9a492f2c624fd45ddde6135ec428152f35b50903461023057602090817ffffffffffffffffffffffffffffffffffffffffffffffffffffffffffffffffc36011261023057610b21611781565b917fdf8b4c520ffe197c5343c6f5aec59570151ef9a492f2c624fd45ddde6135ec42805f52828252845f20335f528252610b6060ff865f205416611a11565b73ffffffffffffffffffffffffffffffffffffffff84168015610c06573314610baa5793610b9b92600192610ba0965f52525f200154612032565b61208b565b506105b433611a9c565b606483838751917f08c379a0000000000000000000000000000000000000000000000000000000008352820152601660248201527f41636365737369626c653a2073616d652061646d696e000000000000000000006044820152fd5b606484848851917f08c379a0000000000000000000000000000000000000000000000000000000008352820152601860248201527f41636365737369626c653a207a65726f206164647265737300000000000000006044820152fd5b5090346102305760207ffffffffffffffffffffffffffffffffffffffffffffffffffffffffffffffffc36011261023057610b9b60016105b493610ca4611781565b937fdf8b4c520ffe197c5343c6f5aec59570151ef9a492f2c624fd45ddde6135ec42805f5281602052825f20335f52602052610ce560ff845f205416611a11565b5f526020525f200154612032565b503461023057610d086104886103f03661183f565b51902092835f526009825260ff835f20541615610d5257505f92835260099052902080547fffffffffffffffffffffffffffffffffffffffffffffffffffffffffffffff00169055005b9060649251917f08c379a0000000000000000000000000000000000000000000000000000000008352820152601360248201527f616c72656164792064656c657465546f6b656e000000000000000000000000006044820152fd5b5090346102305760a07ffffffffffffffffffffffffffffffffffffffffffffffffffffffffffffffffc36011261023057610de6611781565b90602435926044359060843592610dfb611d30565b73ffffffffffffffffffffffffffffffffffffffff908082600554168033149081611024575b50610e2c9150611b1b565b865f5260209060088252610e478382865f2001541615611b80565b875f5260088252826003855f2001541696838116809803610fc857885f5260088352610e7a876009875f20015414611be5565b885f5260088352845f2093828501897fffffffffffffffffffffffff0000000000000000000000000000000000000000825416179055806001600587015496015416906006541681145f14610f8d5750505f808080868b5af1610edb611c4a565b5015610f325750917fff2934c52f646a47cac1f95449dfda335ed35c7d2296fd4a988a2227fa0378aa95939160c095935b8251958652850152830152466060830152606435608083015260a0820152a26001600b55005b6064918451917f08c379a0000000000000000000000000000000000000000000000000000000008352820152601260248201527f63616e63656c20726566756e64206661696c00000000000000000000000000006044820152fd5b847fff2934c52f646a47cac1f95449dfda335ed35c7d2296fd4a988a2227fa0378aa999795935060c098969492610fc392612399565b610f0c565b506064918451917f08c379a0000000000000000000000000000000000000000000000000000000008352820152600f60248201527f796f7572206e6f742073656c6c657200000000000000000000000000000000006044820152fd5b602091508551928380927f6e296e450000000000000000000000000000000000000000000000000000000082525afa90811561109f5790610e2c915f91611080575b50855f52600a6020528380865f2054169116148291610e21565b611099915060203d6020116108a15761089381836119a3565b5f611066565b84513d5f823e3d90fd5b5034610230575f7ffffffffffffffffffffffffffffffffffffffffffffffffffffffffffffffffc3601126102305760209060ff5f541690519015158152f35b50346102305760207ffffffffffffffffffffffffffffffffffffffffffffffffffffffffffffffffc36011261023057602091355f526009825260ff815f20541690519015158152f35b50346102305760207ffffffffffffffffffffffffffffffffffffffffffffffffffffffffffffffffc3601126102305760209073ffffffffffffffffffffffffffffffffffffffff611183611781565b165f526002825260ff815f20541690519015158152f35b5090346102305760207ffffffffffffffffffffffffffffffffffffffffffffffffffffffffffffffffc3601126102305735907fffffffff000000000000000000000000000000000000000000000000000000008216809203610230576020915f526003825273ffffffffffffffffffffffffffffffffffffffff815f2054169051908152f35b503461023057807ffffffffffffffffffffffffffffffffffffffffffffffffffffffffffffffffc360112610230576112586117a4565b903373ffffffffffffffffffffffffffffffffffffffff83160361128157506105b491356122e1565b9050517f6697b232000000000000000000000000000000000000000000000000000000008152fd5b50903461023057817ffffffffffffffffffffffffffffffffffffffffffffffffffffffffffffffffc360112610230576105b4916112ed600183359261059f6117a4565b612168565b50346102305760207ffffffffffffffffffffffffffffffffffffffffffffffffffffffffffffffffc3601126102305760209161132d611781565b907fdf8b4c520ffe197c5343c6f5aec59570151ef9a492f2c624fd45ddde6135ec425f52835273ffffffffffffffffffffffffffffffffffffffff825f2091165f52825260ff815f20541690519015158152f35b50346102305760207ffffffffffffffffffffffffffffffffffffffffffffffffffffffffffffffffc3601126102305781602092355f5282526001815f2001549051908152f35b5034610230575f7ffffffffffffffffffffffffffffffffffffffffffffffffffffffffffffffffc36011261023057602090517ffb5864e8ff833c3cb2d2d08505e82ff02a43554c74a35d4f5a64e852612783118152f35b5090346102305760207ffffffffffffffffffffffffffffffffffffffffffffffffffffffffffffffffc3601126102305761149b60ff6105b493611462611781565b937fdf8b4c520ffe197c5343c6f5aec59570151ef9a492f2c624fd45ddde6135ec425f52602052805f20335f526020525f205416611a11565b611a9c565b5034610230575f7ffffffffffffffffffffffffffffffffffffffffffffffffffffffffffffffffc3601126102305760209073ffffffffffffffffffffffffffffffffffffffff600654169051908152f35b50906114fd366117c7565b9395966115119593959291923233146118b3565b61151c86151561193e565b61152782151561193e565b61152f611d30565b8851602081018481524660408301526060820187905273ffffffffffffffffffffffffffffffffffffffff808b16608084015280871660a0840152891660c08301529061157f8160e08101610488565b5190205f526009602052600160ff8a5f205416151503611669578186106115e657509181836102fd8661036a97958b8a988c9b7ff58a3eb43ce8649bc1cfb2014001a2bf5a73ab4e3df0f0f76ce5f2d1b390d3d99e9d896001600754019485600755611d6b565b60849060208a51917f08c379a0000000000000000000000000000000000000000000000000000000008352820152603360248201527f54686520746f74616c416d6f756e742076616c7565206d75737420626520677260448201527f6561746572207468616e206374416d6f756e74000000000000000000000000006064820152fd5b60649060208a51917f08c379a0000000000000000000000000000000000000000000000000000000008352820152601260248201527f6e6f7420726567697374657220746f6b656e00000000000000000000000000006044820152fd5b83346102305760207ffffffffffffffffffffffffffffffffffffffffffffffffffffffffffffffffc3601126102305735907fffffffff00000000000000000000000000000000000000000000000000000000821680920361023057817f7965db0b0000000000000000000000000000000000000000000000000000000060209314908115611757575b5015158152f35b7f01ffc9a70000000000000000000000000000000000000000000000000000000091501483611750565b6004359073ffffffffffffffffffffffffffffffffffffffff8216820361023057565b6024359073ffffffffffffffffffffffffffffffffffffffff8216820361023057565b7ffffffffffffffffffffffffffffffffffffffffffffffffffffffffffffffffc60e09101126102305773ffffffffffffffffffffffffffffffffffffffff600435818116810361023057916024358281168103610230579160443590811681036102305790606435906084359060a4359060c43590565b7ffffffffffffffffffffffffffffffffffffffffffffffffffffffffffffffffc60c09101126102305773ffffffffffffffffffffffffffffffffffffffff600435818116810361023057916024358281168103610230579160443590811681036102305790606435906084359060a43590565b156118ba57565b60846040517f08c379a000000000000000000000000000000000000000000000000000000000815260206004820152602d60248201527f4c3246573a2066756e6374696f6e2063616e206f6e6c792062652063616c6c6560448201527f642066726f6d20616e20454f41000000000000000000000000000000000000006064820152fd5b1561194557565b60646040517f08c379a000000000000000000000000000000000000000000000000000000000815260206004820152601960248201527f696e70757420616d6f756e74206e656564206e6f6e5a65726f000000000000006044820152fd5b90601f7fffffffffffffffffffffffffffffffffffffffffffffffffffffffffffffffe0910116810190811067ffffffffffffffff8211176119e457604052565b7f4e487b71000000000000000000000000000000000000000000000000000000005f52604160045260245ffd5b15611a1857565b60846040517f08c379a000000000000000000000000000000000000000000000000000000000815260206004820152602260248201527f41636365737369626c653a2043616c6c6572206973206e6f7420616e2061646d60448201527f696e0000000000000000000000000000000000000000000000000000000000006064820152fd5b3373ffffffffffffffffffffffffffffffffffffffff821603611ac557611ac29061220c565b50565b60046040517f6697b232000000000000000000000000000000000000000000000000000000008152fd5b90816020910312610230575173ffffffffffffffffffffffffffffffffffffffff811681036102305790565b15611b2257565b60646040517f08c379a000000000000000000000000000000000000000000000000000000000815260206004820152601860248201527f6f6e6c792063616c6c206c3146617374576974686472617700000000000000006044820152fd5b15611b8757565b60646040517f08c379a000000000000000000000000000000000000000000000000000000000815260206004820152600c60248201527f616c726561647920736f6c6400000000000000000000000000000000000000006044820152fd5b15611bec57565b60646040517f08c379a000000000000000000000000000000000000000000000000000000000815260206004820152601860248201527f486173682076616c75657320646f206e6f74206d6174636800000000000000006044820152fd5b3d15611ca2573d9067ffffffffffffffff82116119e45760405191611c9760207fffffffffffffffffffffffffffffffffffffffffffffffffffffffffffffffe0601f84011601846119a3565b82523d5f602084013e565b606090565b97959391989694926040519860208a019a8b9173ffffffffffffffffffffffffffffffffffffffff9485938480931690521660408c01521660608a015216608088015260a087015260c086015260e085015261010084015261012083015261014090818301528152610160810181811067ffffffffffffffff8211176119e45760405251902090565b6002600b5414611d41576002600b55565b60046040517f3ee5aeb5000000000000000000000000000000000000000000000000000000008152fd5b9796929591949593909373ffffffffffffffffffffffffffffffffffffffff968760065416958881169687145f14611f1b57823403611ebd578486611dba9284878f88908e5b46953392611ca7565b996040519061014082019782891067ffffffffffffffff8a11176119e4576009998b80938f9b60405216845260208401918252826040850191168152606084019133835260808501955f875260a0860197885260c0860198895260e08601998a5261010086019a8b5261012086019b8c525f52600860205283600160405f209e8f975116967fffffffffffffffffffffffff0000000000000000000000000000000000000000978882541617815501915116858254161790558260028d01915116848254161790558160038c019151168382541617905560048a019251169082541617905551600587015551600686015551600785015551600884015551910155565b60646040517f08c379a000000000000000000000000000000000000000000000000000000000815260206004820152601960248201527f43543a206e6174697665544f4e206e65656420616d6f756e74000000000000006044820152fd5b604051602081017f23b872dd0000000000000000000000000000000000000000000000000000000081523360248301523060448301528460648301526064825260a082019082821067ffffffffffffffff8311176119e4575f9283926040525190828b5af1611f88611c4a565b81612003575b5015611fa5578486611dba9284878f88908e611db1565b60646040517f08c379a000000000000000000000000000000000000000000000000000000000815260206004820152601460248201527f5452414e534645525f46524f4d5f4641494c45440000000000000000000000006044820152fd5b8051801592508215612018575b50505f611f8e565b61202b9250602080918301019101612381565b5f80612010565b805f52600460205260405f20335f5260205260ff60405f205416156120545750565b604490604051907fe2517d3f0000000000000000000000000000000000000000000000000000000082523360048301526024820152fd5b73ffffffffffffffffffffffffffffffffffffffff165f8181527f2fb794d17134dfdec181ddbac1babb5ab1eb140204ef4d982f294e7fc8b6902260205260409020547fdf8b4c520ffe197c5343c6f5aec59570151ef9a492f2c624fd45ddde6135ec42919060ff1661216257815f52600460205260405f20815f5260205260405f2060017fffffffffffffffffffffffffffffffffffffffffffffffffffffffffffffff0082541617905533917f2f8788117e7eff1d82e926ec794901d17c78024a50270940304540a733656f0d5f80a4600190565b50505f90565b90815f52600460205273ffffffffffffffffffffffffffffffffffffffff60405f20911690815f5260205260ff60405f205416155f1461216257815f52600460205260405f20815f5260205260405f2060017fffffffffffffffffffffffffffffffffffffffffffffffffffffffffffffff0082541617905533917f2f8788117e7eff1d82e926ec794901d17c78024a50270940304540a733656f0d5f80a4600190565b73ffffffffffffffffffffffffffffffffffffffff165f8181527f2fb794d17134dfdec181ddbac1babb5ab1eb140204ef4d982f294e7fc8b6902260205260409020547fdf8b4c520ffe197c5343c6f5aec59570151ef9a492f2c624fd45ddde6135ec42919060ff161561216257815f52600460205260405f20815f5260205260405f207fffffffffffffffffffffffffffffffffffffffffffffffffffffffffffffff00815416905533917ff6391f5c32d9c69d2a47ea670b442974b53935d1edc7fd64eb21e047a839171b5f80a4600190565b90815f52600460205273ffffffffffffffffffffffffffffffffffffffff60405f20911690815f5260205260ff60405f2054165f1461216257815f52600460205260405f20815f5260205260405f207fffffffffffffffffffffffffffffffffffffffffffffffffffffffffffffff00815416905533917ff6391f5c32d9c69d2a47ea670b442974b53935d1edc7fd64eb21e047a839171b5f80a4600190565b90816020910312610230575180151581036102305790565b91909173ffffffffffffffffffffffffffffffffffffffff92604051928460208501927fa9059cbb0000000000000000000000000000000000000000000000000000000084521660248501526044840152604483526080830183811067ffffffffffffffff8211176119e4575f94859485926040525193165af161241b611c4a565b81612487575b501561242957565b60646040517f08c379a000000000000000000000000000000000000000000000000000000000815260206004820152600f60248201527f5452414e534645525f4641494c454400000000000000000000000000000000006044820152fd5b805180159250821561249c575b50505f612421565b6124af9250602080918301019101612381565b5f8061249456fea26469706673582212203a0bca64c94bf406763ee2d9c5a47a64bf07fd54983e528837d21934246c509164736f6c63430008180033",
			"opcodes": "PUSH1 0x80 DUP1 PUSH1 0x40 MSTORE CALLVALUE PUSH2 0x1B JUMPI PUSH1 0x1 PUSH1 0xB SSTORE PUSH2 0x24EC SWAP1 DUP2 PUSH2 0x20 DUP3 CODECOPY RETURN JUMPDEST PUSH0 DUP1 REVERT INVALID PUSH1 0x80 PUSH1 0x40 DUP2 DUP2 MSTORE PUSH1 0x4 SWAP2 DUP3 CALLDATASIZE LT ISZERO PUSH2 0x15 JUMPI PUSH0 DUP1 REVERT JUMPDEST PUSH0 CALLDATALOAD PUSH1 0xE0 SHR SWAP1 DUP2 PUSH4 0x1FFC9A7 EQ PUSH2 0x16C6 JUMPI POP DUP1 PUSH4 0x1037BE21 EQ PUSH2 0x14F2 JUMPI DUP1 PUSH4 0x16E01724 EQ PUSH2 0x14A0 JUMPI DUP1 PUSH4 0x1785F53C EQ PUSH2 0x1420 JUMPI DUP1 PUSH4 0x22985246 EQ PUSH2 0x13C8 JUMPI DUP1 PUSH4 0x248A9CA3 EQ PUSH2 0x1381 JUMPI DUP1 PUSH4 0x24D7806C EQ PUSH2 0x12F2 JUMPI DUP1 PUSH4 0x2F2FF15D EQ PUSH2 0x12A9 JUMPI DUP1 PUSH4 0x36568ABE EQ PUSH2 0x1221 JUMPI DUP1 PUSH4 0x50D2A276 EQ PUSH2 0x119A JUMPI DUP1 PUSH4 0x550D01A3 EQ PUSH2 0x1133 JUMPI DUP1 PUSH4 0x5CADBD3B EQ PUSH2 0x10E9 JUMPI DUP1 PUSH4 0x63A8FD89 EQ PUSH2 0x10A9 JUMPI DUP1 PUSH4 0x6C790D54 EQ PUSH2 0xDAD JUMPI DUP1 PUSH4 0x6DD897C7 EQ PUSH2 0xCF3 JUMPI DUP1 PUSH4 0x70480275 EQ PUSH2 0xC62 JUMPI DUP1 PUSH4 0x75829DEF EQ PUSH2 0xAE6 JUMPI DUP1 PUSH4 0x75B238FC EQ PUSH2 0xA8E JUMPI DUP1 PUSH4 0x7F02944F EQ PUSH2 0x9F0 JUMPI DUP1 PUSH4 0x91D14854 EQ PUSH2 0x981 JUMPI DUP1 PUSH4 0xA1E89AEC EQ PUSH2 0x945 JUMPI DUP1 PUSH4 0xA217FDDF EQ PUSH2 0x90D JUMPI DUP1 PUSH4 0xB911135F EQ PUSH2 0x8B2 JUMPI DUP1 PUSH4 0xC8B8E35E EQ PUSH2 0x5B6 JUMPI DUP1 PUSH4 0xD547741F EQ PUSH2 0x55B JUMPI DUP1 PUSH4 0xDF2CCDBF EQ PUSH2 0x3DB JUMPI DUP1 PUSH4 0xE59F69C2 EQ PUSH2 0x374 JUMPI DUP1 PUSH4 0xEE976AB4 EQ PUSH2 0x286 JUMPI DUP1 PUSH4 0xF43B3613 EQ PUSH2 0x234 JUMPI PUSH4 0xF5869C2F EQ PUSH2 0x169 JUMPI PUSH0 DUP1 REVERT JUMPDEST CALLVALUE PUSH2 0x230 JUMPI PUSH1 0x20 PUSH32 0xFFFFFFFFFFFFFFFFFFFFFFFFFFFFFFFFFFFFFFFFFFFFFFFFFFFFFFFFFFFFFFFC CALLDATASIZE ADD SLT PUSH2 0x230 JUMPI DUP2 PUSH2 0x140 SWAP3 CALLDATALOAD PUSH0 MSTORE PUSH1 0x8 PUSH1 0x20 MSTORE DUP2 PUSH0 KECCAK256 PUSH20 0xFFFFFFFFFFFFFFFFFFFFFFFFFFFFFFFFFFFFFFFF SWAP3 DUP4 DUP3 SLOAD AND SWAP4 DUP1 PUSH1 0x1 DUP5 ADD SLOAD AND SWAP4 DUP2 PUSH1 0x2 DUP6 ADD SLOAD AND SWAP2 DUP1 PUSH1 0x3 DUP7 ADD SLOAD AND SWAP2 DUP6 ADD SLOAD AND PUSH1 0x5 DUP6 ADD SLOAD SWAP2 PUSH1 0x6 DUP7 ADD SLOAD SWAP4 PUSH1 0x7 DUP8 ADD SLOAD SWAP6 PUSH1 0x9 PUSH1 0x8 DUP10 ADD SLOAD SWAP9 ADD SLOAD SWAP9 DUP2 MLOAD SWAP11 DUP12 MSTORE PUSH1 0x20 DUP12 ADD MSTORE DUP10 ADD MSTORE PUSH1 0x60 DUP9 ADD MSTORE PUSH1 0x80 DUP8 ADD MSTORE PUSH1 0xA0 DUP7 ADD MSTORE PUSH1 0xC0 DUP6 ADD MSTORE PUSH1 0xE0 DUP5 ADD MSTORE PUSH2 0x100 DUP4 ADD MSTORE PUSH2 0x120 DUP3 ADD MSTORE RETURN JUMPDEST PUSH0 DUP1 REVERT JUMPDEST POP CALLVALUE PUSH2 0x230 JUMPI PUSH0 PUSH32 0xFFFFFFFFFFFFFFFFFFFFFFFFFFFFFFFFFFFFFFFFFFFFFFFFFFFFFFFFFFFFFFFC CALLDATASIZE ADD SLT PUSH2 0x230 JUMPI PUSH1 0x20 SWAP1 PUSH20 0xFFFFFFFFFFFFFFFFFFFFFFFFFFFFFFFFFFFFFFFF PUSH1 0x5 SLOAD AND SWAP1 MLOAD SWAP1 DUP2 MSTORE RETURN JUMPDEST POP PUSH32 0xBDADA440BA6A1AEE247CDAC6CF66343EA063EA610A86100ACDEE8496B90351E5 PUSH2 0x36A PUSH2 0x2B4 CALLDATASIZE PUSH2 0x17C7 JUMP JUMPDEST SWAP3 SWAP4 SWAP6 SWAP7 SWAP5 SWAP2 PUSH2 0x2C5 ORIGIN CALLER EQ PUSH2 0x18B3 JUMP JUMPDEST PUSH2 0x2D0 DUP6 ISZERO ISZERO PUSH2 0x193E JUMP JUMPDEST PUSH2 0x2DB DUP2 ISZERO ISZERO PUSH2 0x193E JUMP JUMPDEST PUSH2 0x2E3 PUSH2 0x1D30 JUMP JUMPDEST PUSH2 0x2FD DUP5 DUP4 DUP11 DUP5 DUP10 DUP13 DUP10 PUSH1 0x1 PUSH1 0x7 SLOAD ADD SWAP5 DUP6 PUSH1 0x7 SSTORE PUSH2 0x1D6B JUMP JUMPDEST PUSH1 0x7 SLOAD SWAP11 MLOAD PUSH20 0xFFFFFFFFFFFFFFFFFFFFFFFFFFFFFFFFFFFFFFFF SWAP10 DUP11 AND DUP2 MSTORE SWAP4 DUP10 AND PUSH1 0x20 DUP6 ADD MSTORE SWAP7 SWAP1 SWAP8 AND PUSH1 0x40 DUP4 ADD MSTORE CALLER PUSH1 0x60 DUP4 ADD MSTORE PUSH1 0x80 DUP3 ADD SWAP4 SWAP1 SWAP4 MSTORE PUSH1 0xA0 DUP2 ADD SWAP6 SWAP1 SWAP6 MSTORE PUSH1 0xC0 DUP6 ADD SWAP2 SWAP1 SWAP2 MSTORE CHAINID PUSH1 0xE0 DUP6 ADD MSTORE PUSH2 0x100 DUP5 ADD MSTORE PUSH2 0x120 DUP4 ADD SWAP2 SWAP1 SWAP2 MSTORE DUP2 SWAP1 PUSH2 0x140 DUP3 ADD SWAP1 JUMP JUMPDEST SUB SWAP1 LOG2 PUSH1 0x1 PUSH1 0xB SSTORE STOP JUMPDEST POP SWAP1 CALLVALUE PUSH2 0x230 JUMPI PUSH1 0x20 PUSH32 0xFFFFFFFFFFFFFFFFFFFFFFFFFFFFFFFFFFFFFFFFFFFFFFFFFFFFFFFFFFFFFFFC CALLDATASIZE ADD SLT PUSH2 0x230 JUMPI CALLDATALOAD PUSH0 MSTORE PUSH1 0xA PUSH1 0x20 MSTORE DUP1 PUSH0 KECCAK256 PUSH20 0xFFFFFFFFFFFFFFFFFFFFFFFFFFFFFFFFFFFFFFFF PUSH1 0x1 DUP2 DUP4 SLOAD AND SWAP3 ADD SLOAD AND DUP3 MLOAD SWAP2 DUP3 MSTORE PUSH1 0x20 DUP3 ADD MSTORE RETURN JUMPDEST POP CALLVALUE PUSH2 0x230 JUMPI PUSH2 0x4B4 PUSH2 0x488 PUSH2 0x3F0 CALLDATASIZE PUSH2 0x183F JUMP JUMPDEST SWAP5 SWAP7 SWAP4 PUSH32 0xDF8B4C520FFE197C5343C6F5AEC59570151EF9A492F2C624FD45DDDE6135EC42 PUSH0 SWAP8 SWAP4 SWAP8 SWAP5 SWAP3 SWAP5 MSTORE PUSH1 0x20 SWAP8 DUP11 DUP10 MSTORE DUP10 PUSH0 KECCAK256 CALLER PUSH0 MSTORE DUP10 MSTORE PUSH2 0x439 PUSH1 0xFF DUP12 PUSH0 KECCAK256 SLOAD AND PUSH2 0x1A11 JUMP JUMPDEST DUP10 MLOAD SWAP7 DUP8 SWAP6 DUP11 DUP8 ADD SWAP10 DUP11 SWAP5 SWAP3 PUSH1 0xA0 SWAP5 SWAP2 SWAP8 SWAP7 SWAP3 PUSH1 0xC0 DUP8 ADD SWAP9 DUP8 MSTORE PUSH1 0x20 DUP8 ADD MSTORE PUSH1 0x40 DUP7 ADD MSTORE PUSH20 0xFFFFFFFFFFFFFFFFFFFFFFFFFFFFFFFFFFFFFFFF SWAP3 DUP4 DUP1 SWAP3 AND PUSH1 0x60 DUP8 ADD MSTORE AND PUSH1 0x80 DUP6 ADD MSTORE AND SWAP2 ADD MSTORE JUMP JUMPDEST SUB PUSH32 0xFFFFFFFFFFFFFFFFFFFFFFFFFFFFFFFFFFFFFFFFFFFFFFFFFFFFFFFFFFFFFFE0 DUP2 ADD DUP4 MSTORE DUP3 PUSH2 0x19A3 JUMP JUMPDEST MLOAD SWAP1 KECCAK256 SWAP3 DUP4 PUSH0 MSTORE PUSH1 0x9 DUP3 MSTORE PUSH1 0xFF DUP4 PUSH0 KECCAK256 SLOAD AND PUSH2 0x500 JUMPI POP PUSH0 SWAP3 DUP4 MSTORE PUSH1 0x9 SWAP1 MSTORE SWAP1 KECCAK256 DUP1 SLOAD PUSH32 0xFFFFFFFFFFFFFFFFFFFFFFFFFFFFFFFFFFFFFFFFFFFFFFFFFFFFFFFFFFFFFF00 AND PUSH1 0x1 OR SWAP1 SSTORE STOP JUMPDEST SWAP1 PUSH1 0x64 SWAP3 MLOAD SWAP2 PUSH32 0x8C379A000000000000000000000000000000000000000000000000000000000 DUP4 MSTORE DUP3 ADD MSTORE PUSH1 0x15 PUSH1 0x24 DUP3 ADD MSTORE PUSH32 0x616C7265616479207265676973746572546F6B656E0000000000000000000000 PUSH1 0x44 DUP3 ADD MSTORE REVERT JUMPDEST POP SWAP1 CALLVALUE PUSH2 0x230 JUMPI DUP2 PUSH32 0xFFFFFFFFFFFFFFFFFFFFFFFFFFFFFFFFFFFFFFFFFFFFFFFFFFFFFFFFFFFFFFFC CALLDATASIZE ADD SLT PUSH2 0x230 JUMPI PUSH2 0x5B4 SWAP2 PUSH2 0x5AF PUSH1 0x1 DUP4 CALLDATALOAD SWAP3 PUSH2 0x59F PUSH2 0x17A4 JUMP JUMPDEST SWAP5 DUP5 PUSH0 MSTORE PUSH1 0x20 MSTORE PUSH0 KECCAK256 ADD SLOAD PUSH2 0x2032 JUMP JUMPDEST PUSH2 0x22E1 JUMP JUMPDEST STOP JUMPDEST POP CALLVALUE PUSH2 0x230 JUMPI PUSH1 0xC0 PUSH32 0xFFFFFFFFFFFFFFFFFFFFFFFFFFFFFFFFFFFFFFFFFFFFFFFFFFFFFFFFFFFFFFFC CALLDATASIZE ADD SLT PUSH2 0x230 JUMPI PUSH2 0x5EE PUSH2 0x1781 JUMP JUMPDEST SWAP2 PUSH1 0x24 CALLDATALOAD SWAP3 PUSH1 0x44 CALLDATALOAD SWAP4 PUSH1 0x64 CALLDATALOAD SWAP2 PUSH1 0xA4 CALLDATALOAD SWAP4 PUSH2 0x607 PUSH2 0x1D30 JUMP JUMPDEST PUSH20 0xFFFFFFFFFFFFFFFFFFFFFFFFFFFFFFFFFFFFFFFF SWAP6 DUP2 DUP8 PUSH1 0x5 SLOAD AND DUP1 CALLER EQ SWAP1 DUP2 PUSH2 0x81D JUMPI JUMPDEST POP PUSH2 0x638 SWAP2 POP PUSH2 0x1B1B JUMP JUMPDEST DUP8 PUSH0 MSTORE PUSH1 0x20 SWAP1 PUSH1 0x8 DUP3 MSTORE PUSH2 0x653 DUP9 DUP5 DUP4 PUSH0 KECCAK256 ADD SLOAD AND ISZERO PUSH2 0x1B80 JUMP JUMPDEST DUP9 PUSH0 MSTORE PUSH1 0x8 DUP3 MSTORE PUSH2 0x66B DUP8 PUSH1 0x9 DUP4 PUSH0 KECCAK256 ADD SLOAD EQ PUSH2 0x1BE5 JUMP JUMPDEST DUP5 ISZERO PUSH2 0x807 JUMPI JUMPDEST DUP9 PUSH0 MSTORE PUSH1 0x8 DUP3 MSTORE DUP1 PUSH0 KECCAK256 SWAP1 DUP4 DUP3 ADD SWAP4 DUP10 DUP7 AND SWAP5 DUP6 PUSH32 0xFFFFFFFFFFFFFFFFFFFFFFFF0000000000000000000000000000000000000000 DUP3 SLOAD AND OR SWAP1 SSTORE PUSH1 0x5 DUP11 PUSH1 0x1 DUP6 ADD SLOAD AND SWAP4 ADD SLOAD SWAP6 DUP11 PUSH1 0x6 SLOAD AND DUP5 EQ PUSH0 EQ PUSH2 0x7C8 JUMPI POP PUSH0 DUP1 DUP1 DUP1 DUP10 DUP10 GAS CALL PUSH2 0x6D8 PUSH2 0x1C4A JUMP JUMPDEST POP ISZERO PUSH2 0x76D JUMPI POP SWAP2 PUSH2 0x160 SWAP8 SWAP6 SWAP4 SWAP2 PUSH32 0xACE34B2C3B172510C52EBF145EC31462FBA5692F1BEBF302F0F4FF2AC407D6CD SWAP10 SWAP8 SWAP6 SWAP4 JUMPDEST DUP12 PUSH0 MSTORE PUSH1 0x8 DUP4 MSTORE DUP1 PUSH0 KECCAK256 SWAP2 DUP10 DUP4 SLOAD AND SWAP10 PUSH1 0x3 DUP2 PUSH1 0x2 DUP7 ADD SLOAD AND SWAP5 ADD SLOAD AND SWAP4 DUP3 MLOAD SWAP11 DUP12 MSTORE DUP11 ADD MSTORE DUP9 ADD MSTORE PUSH1 0x60 DUP8 ADD MSTORE PUSH1 0x80 DUP7 ADD MSTORE PUSH1 0xA0 DUP6 ADD MSTORE PUSH1 0xC0 DUP5 ADD MSTORE PUSH1 0xE0 DUP4 ADD MSTORE CHAINID PUSH2 0x100 DUP4 ADD MSTORE PUSH1 0x84 CALLDATALOAD PUSH2 0x120 DUP4 ADD MSTORE PUSH2 0x140 DUP3 ADD MSTORE LOG2 PUSH1 0x1 PUSH1 0xB SSTORE STOP JUMPDEST DUP4 PUSH1 0x64 SWAP3 MLOAD SWAP2 PUSH32 0x8C379A000000000000000000000000000000000000000000000000000000000 DUP4 MSTORE DUP3 ADD MSTORE PUSH1 0xA PUSH1 0x24 DUP3 ADD MSTORE PUSH32 0x636C61696D206661696C00000000000000000000000000000000000000000000 PUSH1 0x44 DUP3 ADD MSTORE REVERT JUMPDEST DUP4 SWAP2 POP SWAP2 PUSH2 0x802 DUP8 PUSH32 0xACE34B2C3B172510C52EBF145EC31462FBA5692F1BEBF302F0F4FF2AC407D6CD SWAP13 SWAP11 SWAP9 SWAP7 SWAP5 PUSH2 0x160 SWAP13 SWAP11 SWAP9 SWAP7 PUSH2 0x2399 JUMP JUMPDEST PUSH2 0x70D JUMP JUMPDEST SWAP4 POP DUP8 PUSH0 MSTORE PUSH1 0x8 DUP2 MSTORE PUSH1 0x6 DUP5 PUSH0 KECCAK256 ADD SLOAD SWAP4 PUSH2 0x672 JUMP JUMPDEST PUSH1 0x20 SWAP2 POP DUP4 MLOAD SWAP3 DUP4 DUP1 SWAP3 PUSH32 0x6E296E4500000000000000000000000000000000000000000000000000000000 DUP3 MSTORE GAS STATICCALL SWAP1 DUP2 ISZERO PUSH2 0x8A8 JUMPI SWAP1 PUSH2 0x638 SWAP2 PUSH0 SWAP2 PUSH2 0x879 JUMPI JUMPDEST POP DUP7 PUSH0 MSTORE PUSH1 0xA PUSH1 0x20 MSTORE DUP9 DUP1 DUP5 PUSH0 KECCAK256 SLOAD AND SWAP2 AND EQ DUP4 SWAP2 PUSH2 0x62D JUMP JUMPDEST PUSH2 0x89B SWAP2 POP PUSH1 0x20 RETURNDATASIZE PUSH1 0x20 GT PUSH2 0x8A1 JUMPI JUMPDEST PUSH2 0x893 DUP2 DUP4 PUSH2 0x19A3 JUMP JUMPDEST DUP2 ADD SWAP1 PUSH2 0x1AEF JUMP JUMPDEST PUSH0 PUSH2 0x85F JUMP JUMPDEST POP RETURNDATASIZE PUSH2 0x889 JUMP JUMPDEST DUP3 MLOAD RETURNDATASIZE PUSH0 DUP3 RETURNDATACOPY RETURNDATASIZE SWAP1 REVERT JUMPDEST POP CALLVALUE PUSH2 0x230 JUMPI PUSH1 0x20 PUSH32 0xFFFFFFFFFFFFFFFFFFFFFFFFFFFFFFFFFFFFFFFFFFFFFFFFFFFFFFFFFFFFFFFC CALLDATASIZE ADD SLT PUSH2 0x230 JUMPI PUSH1 0x20 SWAP2 CALLDATALOAD PUSH0 MSTORE PUSH1 0x1 DUP3 MSTORE PUSH20 0xFFFFFFFFFFFFFFFFFFFFFFFFFFFFFFFFFFFFFFFF DUP2 PUSH0 KECCAK256 SLOAD AND SWAP1 MLOAD SWAP1 DUP2 MSTORE RETURN JUMPDEST POP CALLVALUE PUSH2 0x230 JUMPI PUSH0 PUSH32 0xFFFFFFFFFFFFFFFFFFFFFFFFFFFFFFFFFFFFFFFFFFFFFFFFFFFFFFFFFFFFFFFC CALLDATASIZE ADD SLT PUSH2 0x230 JUMPI PUSH1 0x20 SWAP1 MLOAD PUSH0 DUP2 MSTORE RETURN JUMPDEST POP CALLVALUE PUSH2 0x230 JUMPI PUSH0 PUSH32 0xFFFFFFFFFFFFFFFFFFFFFFFFFFFFFFFFFFFFFFFFFFFFFFFFFFFFFFFFFFFFFFFC CALLDATASIZE ADD SLT PUSH2 0x230 JUMPI PUSH1 0x20 SWAP1 PUSH1 0x7 SLOAD SWAP1 MLOAD SWAP1 DUP2 MSTORE RETURN JUMPDEST POP CALLVALUE PUSH2 0x230 JUMPI DUP1 PUSH32 0xFFFFFFFFFFFFFFFFFFFFFFFFFFFFFFFFFFFFFFFFFFFFFFFFFFFFFFFFFFFFFFFC CALLDATASIZE ADD SLT PUSH2 0x230 JUMPI PUSH1 0x20 SWAP2 PUSH2 0x9BB PUSH2 0x17A4 JUMP JUMPDEST SWAP1 DUP1 CALLDATALOAD PUSH0 MSTORE DUP4 MSTORE PUSH20 0xFFFFFFFFFFFFFFFFFFFFFFFFFFFFFFFFFFFFFFFF DUP3 PUSH0 KECCAK256 SWAP2 AND PUSH0 MSTORE DUP3 MSTORE PUSH1 0xFF DUP2 PUSH0 KECCAK256 SLOAD AND SWAP1 MLOAD SWAP1 ISZERO ISZERO DUP2 MSTORE RETURN JUMPDEST POP CALLVALUE PUSH2 0x230 JUMPI PUSH2 0x140 PUSH32 0xFFFFFFFFFFFFFFFFFFFFFFFFFFFFFFFFFFFFFFFFFFFFFFFFFFFFFFFFFFFFFFFC CALLDATASIZE ADD SLT PUSH2 0x230 JUMPI PUSH2 0xA29 PUSH2 0x1781 JUMP JUMPDEST SWAP1 PUSH2 0xA32 PUSH2 0x17A4 JUMP JUMPDEST PUSH1 0x44 CALLDATALOAD SWAP1 PUSH20 0xFFFFFFFFFFFFFFFFFFFFFFFFFFFFFFFFFFFFFFFF SWAP4 DUP5 DUP4 AND DUP4 SUB PUSH2 0x230 JUMPI PUSH1 0x64 CALLDATALOAD SWAP5 DUP6 AND DUP6 SUB PUSH2 0x230 JUMPI PUSH1 0x20 SWAP5 PUSH2 0xA87 SWAP4 PUSH2 0x124 CALLDATALOAD SWAP4 PUSH2 0x104 CALLDATALOAD SWAP4 PUSH1 0xE4 CALLDATALOAD SWAP4 PUSH1 0xC4 CALLDATALOAD SWAP4 PUSH1 0xA4 CALLDATALOAD SWAP4 PUSH1 0x84 CALLDATALOAD SWAP4 PUSH2 0x1CA7 JUMP JUMPDEST SWAP1 MLOAD SWAP1 DUP2 MSTORE RETURN JUMPDEST POP CALLVALUE PUSH2 0x230 JUMPI PUSH0 PUSH32 0xFFFFFFFFFFFFFFFFFFFFFFFFFFFFFFFFFFFFFFFFFFFFFFFFFFFFFFFFFFFFFFFC CALLDATASIZE ADD SLT PUSH2 0x230 JUMPI PUSH1 0x20 SWAP1 MLOAD PUSH32 0xDF8B4C520FFE197C5343C6F5AEC59570151EF9A492F2C624FD45DDDE6135EC42 DUP2 MSTORE RETURN JUMPDEST POP SWAP1 CALLVALUE PUSH2 0x230 JUMPI PUSH1 0x20 SWAP1 DUP2 PUSH32 0xFFFFFFFFFFFFFFFFFFFFFFFFFFFFFFFFFFFFFFFFFFFFFFFFFFFFFFFFFFFFFFFC CALLDATASIZE ADD SLT PUSH2 0x230 JUMPI PUSH2 0xB21 PUSH2 0x1781 JUMP JUMPDEST SWAP2 PUSH32 0xDF8B4C520FFE197C5343C6F5AEC59570151EF9A492F2C624FD45DDDE6135EC42 DUP1 PUSH0 MSTORE DUP3 DUP3 MSTORE DUP5 PUSH0 KECCAK256 CALLER PUSH0 MSTORE DUP3 MSTORE PUSH2 0xB60 PUSH1 0xFF DUP7 PUSH0 KECCAK256 SLOAD AND PUSH2 0x1A11 JUMP JUMPDEST PUSH20 0xFFFFFFFFFFFFFFFFFFFFFFFFFFFFFFFFFFFFFFFF DUP5 AND DUP1 ISZERO PUSH2 0xC06 JUMPI CALLER EQ PUSH2 0xBAA JUMPI SWAP4 PUSH2 0xB9B SWAP3 PUSH1 0x1 SWAP3 PUSH2 0xBA0 SWAP7 PUSH0 MSTORE MSTORE PUSH0 KECCAK256 ADD SLOAD PUSH2 0x2032 JUMP JUMPDEST PUSH2 0x208B JUMP JUMPDEST POP PUSH2 0x5B4 CALLER PUSH2 0x1A9C JUMP JUMPDEST PUSH1 0x64 DUP4 DUP4 DUP8 MLOAD SWAP2 PUSH32 0x8C379A000000000000000000000000000000000000000000000000000000000 DUP4 MSTORE DUP3 ADD MSTORE PUSH1 0x16 PUSH1 0x24 DUP3 ADD MSTORE PUSH32 0x41636365737369626C653A2073616D652061646D696E00000000000000000000 PUSH1 0x44 DUP3 ADD MSTORE REVERT JUMPDEST PUSH1 0x64 DUP5 DUP5 DUP9 MLOAD SWAP2 PUSH32 0x8C379A000000000000000000000000000000000000000000000000000000000 DUP4 MSTORE DUP3 ADD MSTORE PUSH1 0x18 PUSH1 0x24 DUP3 ADD MSTORE PUSH32 0x41636365737369626C653A207A65726F20616464726573730000000000000000 PUSH1 0x44 DUP3 ADD MSTORE REVERT JUMPDEST POP SWAP1 CALLVALUE PUSH2 0x230 JUMPI PUSH1 0x20 PUSH32 0xFFFFFFFFFFFFFFFFFFFFFFFFFFFFFFFFFFFFFFFFFFFFFFFFFFFFFFFFFFFFFFFC CALLDATASIZE ADD SLT PUSH2 0x230 JUMPI PUSH2 0xB9B PUSH1 0x1 PUSH2 0x5B4 SWAP4 PUSH2 0xCA4 PUSH2 0x1781 JUMP JUMPDEST SWAP4 PUSH32 0xDF8B4C520FFE197C5343C6F5AEC59570151EF9A492F2C624FD45DDDE6135EC42 DUP1 PUSH0 MSTORE DUP2 PUSH1 0x20 MSTORE DUP3 PUSH0 KECCAK256 CALLER PUSH0 MSTORE PUSH1 0x20 MSTORE PUSH2 0xCE5 PUSH1 0xFF DUP5 PUSH0 KECCAK256 SLOAD AND PUSH2 0x1A11 JUMP JUMPDEST PUSH0 MSTORE PUSH1 0x20 MSTORE PUSH0 KECCAK256 ADD SLOAD PUSH2 0x2032 JUMP JUMPDEST POP CALLVALUE PUSH2 0x230 JUMPI PUSH2 0xD08 PUSH2 0x488 PUSH2 0x3F0 CALLDATASIZE PUSH2 0x183F JUMP JUMPDEST MLOAD SWAP1 KECCAK256 SWAP3 DUP4 PUSH0 MSTORE PUSH1 0x9 DUP3 MSTORE PUSH1 0xFF DUP4 PUSH0 KECCAK256 SLOAD AND ISZERO PUSH2 0xD52 JUMPI POP PUSH0 SWAP3 DUP4 MSTORE PUSH1 0x9 SWAP1 MSTORE SWAP1 KECCAK256 DUP1 SLOAD PUSH32 0xFFFFFFFFFFFFFFFFFFFFFFFFFFFFFFFFFFFFFFFFFFFFFFFFFFFFFFFFFFFFFF00 AND SWAP1 SSTORE STOP JUMPDEST SWAP1 PUSH1 0x64 SWAP3 MLOAD SWAP2 PUSH32 0x8C379A000000000000000000000000000000000000000000000000000000000 DUP4 MSTORE DUP3 ADD MSTORE PUSH1 0x13 PUSH1 0x24 DUP3 ADD MSTORE PUSH32 0x616C72656164792064656C657465546F6B656E00000000000000000000000000 PUSH1 0x44 DUP3 ADD MSTORE REVERT JUMPDEST POP SWAP1 CALLVALUE PUSH2 0x230 JUMPI PUSH1 0xA0 PUSH32 0xFFFFFFFFFFFFFFFFFFFFFFFFFFFFFFFFFFFFFFFFFFFFFFFFFFFFFFFFFFFFFFFC CALLDATASIZE ADD SLT PUSH2 0x230 JUMPI PUSH2 0xDE6 PUSH2 0x1781 JUMP JUMPDEST SWAP1 PUSH1 0x24 CALLDATALOAD SWAP3 PUSH1 0x44 CALLDATALOAD SWAP1 PUSH1 0x84 CALLDATALOAD SWAP3 PUSH2 0xDFB PUSH2 0x1D30 JUMP JUMPDEST PUSH20 0xFFFFFFFFFFFFFFFFFFFFFFFFFFFFFFFFFFFFFFFF SWAP1 DUP1 DUP3 PUSH1 0x5 SLOAD AND DUP1 CALLER EQ SWAP1 DUP2 PUSH2 0x1024 JUMPI JUMPDEST POP PUSH2 0xE2C SWAP2 POP PUSH2 0x1B1B JUMP JUMPDEST DUP7 PUSH0 MSTORE PUSH1 0x20 SWAP1 PUSH1 0x8 DUP3 MSTORE PUSH2 0xE47 DUP4 DUP3 DUP7 PUSH0 KECCAK256 ADD SLOAD AND ISZERO PUSH2 0x1B80 JUMP JUMPDEST DUP8 PUSH0 MSTORE PUSH1 0x8 DUP3 MSTORE DUP3 PUSH1 0x3 DUP6 PUSH0 KECCAK256 ADD SLOAD AND SWAP7 DUP4 DUP2 AND DUP1 SWAP9 SUB PUSH2 0xFC8 JUMPI DUP9 PUSH0 MSTORE PUSH1 0x8 DUP4 MSTORE PUSH2 0xE7A DUP8 PUSH1 0x9 DUP8 PUSH0 KECCAK256 ADD SLOAD EQ PUSH2 0x1BE5 JUMP JUMPDEST DUP9 PUSH0 MSTORE PUSH1 0x8 DUP4 MSTORE DUP5 PUSH0 KECCAK256 SWAP4 DUP3 DUP6 ADD DUP10 PUSH32 0xFFFFFFFFFFFFFFFFFFFFFFFF0000000000000000000000000000000000000000 DUP3 SLOAD AND OR SWAP1 SSTORE DUP1 PUSH1 0x1 PUSH1 0x5 DUP8 ADD SLOAD SWAP7 ADD SLOAD AND SWAP1 PUSH1 0x6 SLOAD AND DUP2 EQ PUSH0 EQ PUSH2 0xF8D JUMPI POP POP PUSH0 DUP1 DUP1 DUP1 DUP7 DUP12 GAS CALL PUSH2 0xEDB PUSH2 0x1C4A JUMP JUMPDEST POP ISZERO PUSH2 0xF32 JUMPI POP SWAP2 PUSH32 0xFF2934C52F646A47CAC1F95449DFDA335ED35C7D2296FD4A988A2227FA0378AA SWAP6 SWAP4 SWAP2 PUSH1 0xC0 SWAP6 SWAP4 JUMPDEST DUP3 MLOAD SWAP6 DUP7 MSTORE DUP6 ADD MSTORE DUP4 ADD MSTORE CHAINID PUSH1 0x60 DUP4 ADD MSTORE PUSH1 0x64 CALLDATALOAD PUSH1 0x80 DUP4 ADD MSTORE PUSH1 0xA0 DUP3 ADD MSTORE LOG2 PUSH1 0x1 PUSH1 0xB SSTORE STOP JUMPDEST PUSH1 0x64 SWAP2 DUP5 MLOAD SWAP2 PUSH32 0x8C379A000000000000000000000000000000000000000000000000000000000 DUP4 MSTORE DUP3 ADD MSTORE PUSH1 0x12 PUSH1 0x24 DUP3 ADD MSTORE PUSH32 0x63616E63656C20726566756E64206661696C0000000000000000000000000000 PUSH1 0x44 DUP3 ADD MSTORE REVERT JUMPDEST DUP5 PUSH32 0xFF2934C52F646A47CAC1F95449DFDA335ED35C7D2296FD4A988A2227FA0378AA SWAP10 SWAP8 SWAP6 SWAP4 POP PUSH1 0xC0 SWAP9 SWAP7 SWAP5 SWAP3 PUSH2 0xFC3 SWAP3 PUSH2 0x2399 JUMP JUMPDEST PUSH2 0xF0C JUMP JUMPDEST POP PUSH1 0x64 SWAP2 DUP5 MLOAD SWAP2 PUSH32 0x8C379A000000000000000000000000000000000000000000000000000000000 DUP4 MSTORE DUP3 ADD MSTORE PUSH1 0xF PUSH1 0x24 DUP3 ADD MSTORE PUSH32 0x796F7572206E6F742073656C6C65720000000000000000000000000000000000 PUSH1 0x44 DUP3 ADD MSTORE REVERT JUMPDEST PUSH1 0x20 SWAP2 POP DUP6 MLOAD SWAP3 DUP4 DUP1 SWAP3 PUSH32 0x6E296E4500000000000000000000000000000000000000000000000000000000 DUP3 MSTORE GAS STATICCALL SWAP1 DUP2 ISZERO PUSH2 0x109F JUMPI SWAP1 PUSH2 0xE2C SWAP2 PUSH0 SWAP2 PUSH2 0x1080 JUMPI JUMPDEST POP DUP6 PUSH0 MSTORE PUSH1 0xA PUSH1 0x20 MSTORE DUP4 DUP1 DUP7 PUSH0 KECCAK256 SLOAD AND SWAP2 AND EQ DUP3 SWAP2 PUSH2 0xE21 JUMP JUMPDEST PUSH2 0x1099 SWAP2 POP PUSH1 0x20 RETURNDATASIZE PUSH1 0x20 GT PUSH2 0x8A1 JUMPI PUSH2 0x893 DUP2 DUP4 PUSH2 0x19A3 JUMP JUMPDEST PUSH0 PUSH2 0x1066 JUMP JUMPDEST DUP5 MLOAD RETURNDATASIZE PUSH0 DUP3 RETURNDATACOPY RETURNDATASIZE SWAP1 REVERT JUMPDEST POP CALLVALUE PUSH2 0x230 JUMPI PUSH0 PUSH32 0xFFFFFFFFFFFFFFFFFFFFFFFFFFFFFFFFFFFFFFFFFFFFFFFFFFFFFFFFFFFFFFFC CALLDATASIZE ADD SLT PUSH2 0x230 JUMPI PUSH1 0x20 SWAP1 PUSH1 0xFF PUSH0 SLOAD AND SWAP1 MLOAD SWAP1 ISZERO ISZERO DUP2 MSTORE RETURN JUMPDEST POP CALLVALUE PUSH2 0x230 JUMPI PUSH1 0x20 PUSH32 0xFFFFFFFFFFFFFFFFFFFFFFFFFFFFFFFFFFFFFFFFFFFFFFFFFFFFFFFFFFFFFFFC CALLDATASIZE ADD SLT PUSH2 0x230 JUMPI PUSH1 0x20 SWAP2 CALLDATALOAD PUSH0 MSTORE PUSH1 0x9 DUP3 MSTORE PUSH1 0xFF DUP2 PUSH0 KECCAK256 SLOAD AND SWAP1 MLOAD SWAP1 ISZERO ISZERO DUP2 MSTORE RETURN JUMPDEST POP CALLVALUE PUSH2 0x230 JUMPI PUSH1 0x20 PUSH32 0xFFFFFFFFFFFFFFFFFFFFFFFFFFFFFFFFFFFFFFFFFFFFFFFFFFFFFFFFFFFFFFFC CALLDATASIZE ADD SLT PUSH2 0x230 JUMPI PUSH1 0x20 SWAP1 PUSH20 0xFFFFFFFFFFFFFFFFFFFFFFFFFFFFFFFFFFFFFFFF PUSH2 0x1183 PUSH2 0x1781 JUMP JUMPDEST AND PUSH0 MSTORE PUSH1 0x2 DUP3 MSTORE PUSH1 0xFF DUP2 PUSH0 KECCAK256 SLOAD AND SWAP1 MLOAD SWAP1 ISZERO ISZERO DUP2 MSTORE RETURN JUMPDEST POP SWAP1 CALLVALUE PUSH2 0x230 JUMPI PUSH1 0x20 PUSH32 0xFFFFFFFFFFFFFFFFFFFFFFFFFFFFFFFFFFFFFFFFFFFFFFFFFFFFFFFFFFFFFFFC CALLDATASIZE ADD SLT PUSH2 0x230 JUMPI CALLDATALOAD SWAP1 PUSH32 0xFFFFFFFF00000000000000000000000000000000000000000000000000000000 DUP3 AND DUP1 SWAP3 SUB PUSH2 0x230 JUMPI PUSH1 0x20 SWAP2 PUSH0 MSTORE PUSH1 0x3 DUP3 MSTORE PUSH20 0xFFFFFFFFFFFFFFFFFFFFFFFFFFFFFFFFFFFFFFFF DUP2 PUSH0 KECCAK256 SLOAD AND SWAP1 MLOAD SWAP1 DUP2 MSTORE RETURN JUMPDEST POP CALLVALUE PUSH2 0x230 JUMPI DUP1 PUSH32 0xFFFFFFFFFFFFFFFFFFFFFFFFFFFFFFFFFFFFFFFFFFFFFFFFFFFFFFFFFFFFFFFC CALLDATASIZE ADD SLT PUSH2 0x230 JUMPI PUSH2 0x1258 PUSH2 0x17A4 JUMP JUMPDEST SWAP1 CALLER PUSH20 0xFFFFFFFFFFFFFFFFFFFFFFFFFFFFFFFFFFFFFFFF DUP4 AND SUB PUSH2 0x1281 JUMPI POP PUSH2 0x5B4 SWAP2 CALLDATALOAD PUSH2 0x22E1 JUMP JUMPDEST SWAP1 POP MLOAD PUSH32 0x6697B23200000000000000000000000000000000000000000000000000000000 DUP2 MSTORE REVERT JUMPDEST POP SWAP1 CALLVALUE PUSH2 0x230 JUMPI DUP2 PUSH32 0xFFFFFFFFFFFFFFFFFFFFFFFFFFFFFFFFFFFFFFFFFFFFFFFFFFFFFFFFFFFFFFFC CALLDATASIZE ADD SLT PUSH2 0x230 JUMPI PUSH2 0x5B4 SWAP2 PUSH2 0x12ED PUSH1 0x1 DUP4 CALLDATALOAD SWAP3 PUSH2 0x59F PUSH2 0x17A4 JUMP JUMPDEST PUSH2 0x2168 JUMP JUMPDEST POP CALLVALUE PUSH2 0x230 JUMPI PUSH1 0x20 PUSH32 0xFFFFFFFFFFFFFFFFFFFFFFFFFFFFFFFFFFFFFFFFFFFFFFFFFFFFFFFFFFFFFFFC CALLDATASIZE ADD SLT PUSH2 0x230 JUMPI PUSH1 0x20 SWAP2 PUSH2 0x132D PUSH2 0x1781 JUMP JUMPDEST SWAP1 PUSH32 0xDF8B4C520FFE197C5343C6F5AEC59570151EF9A492F2C624FD45DDDE6135EC42 PUSH0 MSTORE DUP4 MSTORE PUSH20 0xFFFFFFFFFFFFFFFFFFFFFFFFFFFFFFFFFFFFFFFF DUP3 PUSH0 KECCAK256 SWAP2 AND PUSH0 MSTORE DUP3 MSTORE PUSH1 0xFF DUP2 PUSH0 KECCAK256 SLOAD AND SWAP1 MLOAD SWAP1 ISZERO ISZERO DUP2 MSTORE RETURN JUMPDEST POP CALLVALUE PUSH2 0x230 JUMPI PUSH1 0x20 PUSH32 0xFFFFFFFFFFFFFFFFFFFFFFFFFFFFFFFFFFFFFFFFFFFFFFFFFFFFFFFFFFFFFFFC CALLDATASIZE ADD SLT PUSH2 0x230 JUMPI DUP2 PUSH1 0x20 SWAP3 CALLDATALOAD PUSH0 MSTORE DUP3 MSTORE PUSH1 0x1 DUP2 PUSH0 KECCAK256 ADD SLOAD SWAP1 MLOAD SWAP1 DUP2 MSTORE RETURN JUMPDEST POP CALLVALUE PUSH2 0x230 JUMPI PUSH0 PUSH32 0xFFFFFFFFFFFFFFFFFFFFFFFFFFFFFFFFFFFFFFFFFFFFFFFFFFFFFFFFFFFFFFFC CALLDATASIZE ADD SLT PUSH2 0x230 JUMPI PUSH1 0x20 SWAP1 MLOAD PUSH32 0xFB5864E8FF833C3CB2D2D08505E82FF02A43554C74A35D4F5A64E85261278311 DUP2 MSTORE RETURN JUMPDEST POP SWAP1 CALLVALUE PUSH2 0x230 JUMPI PUSH1 0x20 PUSH32 0xFFFFFFFFFFFFFFFFFFFFFFFFFFFFFFFFFFFFFFFFFFFFFFFFFFFFFFFFFFFFFFFC CALLDATASIZE ADD SLT PUSH2 0x230 JUMPI PUSH2 0x149B PUSH1 0xFF PUSH2 0x5B4 SWAP4 PUSH2 0x1462 PUSH2 0x1781 JUMP JUMPDEST SWAP4 PUSH32 0xDF8B4C520FFE197C5343C6F5AEC59570151EF9A492F2C624FD45DDDE6135EC42 PUSH0 MSTORE PUSH1 0x20 MSTORE DUP1 PUSH0 KECCAK256 CALLER PUSH0 MSTORE PUSH1 0x20 MSTORE PUSH0 KECCAK256 SLOAD AND PUSH2 0x1A11 JUMP JUMPDEST PUSH2 0x1A9C JUMP JUMPDEST POP CALLVALUE PUSH2 0x230 JUMPI PUSH0 PUSH32 0xFFFFFFFFFFFFFFFFFFFFFFFFFFFFFFFFFFFFFFFFFFFFFFFFFFFFFFFFFFFFFFFC CALLDATASIZE ADD SLT PUSH2 0x230 JUMPI PUSH1 0x20 SWAP1 PUSH20 0xFFFFFFFFFFFFFFFFFFFFFFFFFFFFFFFFFFFFFFFF PUSH1 0x6 SLOAD AND SWAP1 MLOAD SWAP1 DUP2 MSTORE RETURN JUMPDEST POP SWAP1 PUSH2 0x14FD CALLDATASIZE PUSH2 0x17C7 JUMP JUMPDEST SWAP4 SWAP6 SWAP7 PUSH2 0x1511 SWAP6 SWAP4 SWAP6 SWAP3 SWAP2 SWAP3 ORIGIN CALLER EQ PUSH2 0x18B3 JUMP JUMPDEST PUSH2 0x151C DUP7 ISZERO ISZERO PUSH2 0x193E JUMP JUMPDEST PUSH2 0x1527 DUP3 ISZERO ISZERO PUSH2 0x193E JUMP JUMPDEST PUSH2 0x152F PUSH2 0x1D30 JUMP JUMPDEST DUP9 MLOAD PUSH1 0x20 DUP2 ADD DUP5 DUP2 MSTORE CHAINID PUSH1 0x40 DUP4 ADD MSTORE PUSH1 0x60 DUP3 ADD DUP8 SWAP1 MSTORE PUSH20 0xFFFFFFFFFFFFFFFFFFFFFFFFFFFFFFFFFFFFFFFF DUP1 DUP12 AND PUSH1 0x80 DUP5 ADD MSTORE DUP1 DUP8 AND PUSH1 0xA0 DUP5 ADD MSTORE DUP10 AND PUSH1 0xC0 DUP4 ADD MSTORE SWAP1 PUSH2 0x157F DUP2 PUSH1 0xE0 DUP2 ADD PUSH2 0x488 JUMP JUMPDEST MLOAD SWAP1 KECCAK256 PUSH0 MSTORE PUSH1 0x9 PUSH1 0x20 MSTORE PUSH1 0x1 PUSH1 0xFF DUP11 PUSH0 KECCAK256 SLOAD AND ISZERO ISZERO SUB PUSH2 0x1669 JUMPI DUP2 DUP7 LT PUSH2 0x15E6 JUMPI POP SWAP2 DUP2 DUP4 PUSH2 0x2FD DUP7 PUSH2 0x36A SWAP8 SWAP6 DUP12 DUP11 SWAP9 DUP13 SWAP12 PUSH32 0xF58A3EB43CE8649BC1CFB2014001A2BF5A73AB4E3DF0F0F76CE5F2D1B390D3D9 SWAP15 SWAP14 DUP10 PUSH1 0x1 PUSH1 0x7 SLOAD ADD SWAP5 DUP6 PUSH1 0x7 SSTORE PUSH2 0x1D6B JUMP JUMPDEST PUSH1 0x84 SWAP1 PUSH1 0x20 DUP11 MLOAD SWAP2 PUSH32 0x8C379A000000000000000000000000000000000000000000000000000000000 DUP4 MSTORE DUP3 ADD MSTORE PUSH1 0x33 PUSH1 0x24 DUP3 ADD MSTORE PUSH32 0x54686520746F74616C416D6F756E742076616C7565206D757374206265206772 PUSH1 0x44 DUP3 ADD MSTORE PUSH32 0x6561746572207468616E206374416D6F756E7400000000000000000000000000 PUSH1 0x64 DUP3 ADD MSTORE REVERT JUMPDEST PUSH1 0x64 SWAP1 PUSH1 0x20 DUP11 MLOAD SWAP2 PUSH32 0x8C379A000000000000000000000000000000000000000000000000000000000 DUP4 MSTORE DUP3 ADD MSTORE PUSH1 0x12 PUSH1 0x24 DUP3 ADD MSTORE PUSH32 0x6E6F7420726567697374657220746F6B656E0000000000000000000000000000 PUSH1 0x44 DUP3 ADD MSTORE REVERT JUMPDEST DUP4 CALLVALUE PUSH2 0x230 JUMPI PUSH1 0x20 PUSH32 0xFFFFFFFFFFFFFFFFFFFFFFFFFFFFFFFFFFFFFFFFFFFFFFFFFFFFFFFFFFFFFFFC CALLDATASIZE ADD SLT PUSH2 0x230 JUMPI CALLDATALOAD SWAP1 PUSH32 0xFFFFFFFF00000000000000000000000000000000000000000000000000000000 DUP3 AND DUP1 SWAP3 SUB PUSH2 0x230 JUMPI DUP2 PUSH32 0x7965DB0B00000000000000000000000000000000000000000000000000000000 PUSH1 0x20 SWAP4 EQ SWAP1 DUP2 ISZERO PUSH2 0x1757 JUMPI JUMPDEST POP ISZERO ISZERO DUP2 MSTORE RETURN JUMPDEST PUSH32 0x1FFC9A700000000000000000000000000000000000000000000000000000000 SWAP2 POP EQ DUP4 PUSH2 0x1750 JUMP JUMPDEST PUSH1 0x4 CALLDATALOAD SWAP1 PUSH20 0xFFFFFFFFFFFFFFFFFFFFFFFFFFFFFFFFFFFFFFFF DUP3 AND DUP3 SUB PUSH2 0x230 JUMPI JUMP JUMPDEST PUSH1 0x24 CALLDATALOAD SWAP1 PUSH20 0xFFFFFFFFFFFFFFFFFFFFFFFFFFFFFFFFFFFFFFFF DUP3 AND DUP3 SUB PUSH2 0x230 JUMPI JUMP JUMPDEST PUSH32 0xFFFFFFFFFFFFFFFFFFFFFFFFFFFFFFFFFFFFFFFFFFFFFFFFFFFFFFFFFFFFFFFC PUSH1 0xE0 SWAP2 ADD SLT PUSH2 0x230 JUMPI PUSH20 0xFFFFFFFFFFFFFFFFFFFFFFFFFFFFFFFFFFFFFFFF PUSH1 0x4 CALLDATALOAD DUP2 DUP2 AND DUP2 SUB PUSH2 0x230 JUMPI SWAP2 PUSH1 0x24 CALLDATALOAD DUP3 DUP2 AND DUP2 SUB PUSH2 0x230 JUMPI SWAP2 PUSH1 0x44 CALLDATALOAD SWAP1 DUP2 AND DUP2 SUB PUSH2 0x230 JUMPI SWAP1 PUSH1 0x64 CALLDATALOAD SWAP1 PUSH1 0x84 CALLDATALOAD SWAP1 PUSH1 0xA4 CALLDATALOAD SWAP1 PUSH1 0xC4 CALLDATALOAD SWAP1 JUMP JUMPDEST PUSH32 0xFFFFFFFFFFFFFFFFFFFFFFFFFFFFFFFFFFFFFFFFFFFFFFFFFFFFFFFFFFFFFFFC PUSH1 0xC0 SWAP2 ADD SLT PUSH2 0x230 JUMPI PUSH20 0xFFFFFFFFFFFFFFFFFFFFFFFFFFFFFFFFFFFFFFFF PUSH1 0x4 CALLDATALOAD DUP2 DUP2 AND DUP2 SUB PUSH2 0x230 JUMPI SWAP2 PUSH1 0x24 CALLDATALOAD DUP3 DUP2 AND DUP2 SUB PUSH2 0x230 JUMPI SWAP2 PUSH1 0x44 CALLDATALOAD SWAP1 DUP2 AND DUP2 SUB PUSH2 0x230 JUMPI SWAP1 PUSH1 0x64 CALLDATALOAD SWAP1 PUSH1 0x84 CALLDATALOAD SWAP1 PUSH1 0xA4 CALLDATALOAD SWAP1 JUMP JUMPDEST ISZERO PUSH2 0x18BA JUMPI JUMP JUMPDEST PUSH1 0x84 PUSH1 0x40 MLOAD PUSH32 0x8C379A000000000000000000000000000000000000000000000000000000000 DUP2 MSTORE PUSH1 0x20 PUSH1 0x4 DUP3 ADD MSTORE PUSH1 0x2D PUSH1 0x24 DUP3 ADD MSTORE PUSH32 0x4C3246573A2066756E6374696F6E2063616E206F6E6C792062652063616C6C65 PUSH1 0x44 DUP3 ADD MSTORE PUSH32 0x642066726F6D20616E20454F4100000000000000000000000000000000000000 PUSH1 0x64 DUP3 ADD MSTORE REVERT JUMPDEST ISZERO PUSH2 0x1945 JUMPI JUMP JUMPDEST PUSH1 0x64 PUSH1 0x40 MLOAD PUSH32 0x8C379A000000000000000000000000000000000000000000000000000000000 DUP2 MSTORE PUSH1 0x20 PUSH1 0x4 DUP3 ADD MSTORE PUSH1 0x19 PUSH1 0x24 DUP3 ADD MSTORE PUSH32 0x696E70757420616D6F756E74206E656564206E6F6E5A65726F00000000000000 PUSH1 0x44 DUP3 ADD MSTORE REVERT JUMPDEST SWAP1 PUSH1 0x1F PUSH32 0xFFFFFFFFFFFFFFFFFFFFFFFFFFFFFFFFFFFFFFFFFFFFFFFFFFFFFFFFFFFFFFE0 SWAP2 ADD AND DUP2 ADD SWAP1 DUP2 LT PUSH8 0xFFFFFFFFFFFFFFFF DUP3 GT OR PUSH2 0x19E4 JUMPI PUSH1 0x40 MSTORE JUMP JUMPDEST PUSH32 0x4E487B7100000000000000000000000000000000000000000000000000000000 PUSH0 MSTORE PUSH1 0x41 PUSH1 0x4 MSTORE PUSH1 0x24 PUSH0 REVERT JUMPDEST ISZERO PUSH2 0x1A18 JUMPI JUMP JUMPDEST PUSH1 0x84 PUSH1 0x40 MLOAD PUSH32 0x8C379A000000000000000000000000000000000000000000000000000000000 DUP2 MSTORE PUSH1 0x20 PUSH1 0x4 DUP3 ADD MSTORE PUSH1 0x22 PUSH1 0x24 DUP3 ADD MSTORE PUSH32 0x41636365737369626C653A2043616C6C6572206973206E6F7420616E2061646D PUSH1 0x44 DUP3 ADD MSTORE PUSH32 0x696E000000000000000000000000000000000000000000000000000000000000 PUSH1 0x64 DUP3 ADD MSTORE REVERT JUMPDEST CALLER PUSH20 0xFFFFFFFFFFFFFFFFFFFFFFFFFFFFFFFFFFFFFFFF DUP3 AND SUB PUSH2 0x1AC5 JUMPI PUSH2 0x1AC2 SWAP1 PUSH2 0x220C JUMP JUMPDEST POP JUMP JUMPDEST PUSH1 0x4 PUSH1 0x40 MLOAD PUSH32 0x6697B23200000000000000000000000000000000000000000000000000000000 DUP2 MSTORE REVERT JUMPDEST SWAP1 DUP2 PUSH1 0x20 SWAP2 SUB SLT PUSH2 0x230 JUMPI MLOAD PUSH20 0xFFFFFFFFFFFFFFFFFFFFFFFFFFFFFFFFFFFFFFFF DUP2 AND DUP2 SUB PUSH2 0x230 JUMPI SWAP1 JUMP JUMPDEST ISZERO PUSH2 0x1B22 JUMPI JUMP JUMPDEST PUSH1 0x64 PUSH1 0x40 MLOAD PUSH32 0x8C379A000000000000000000000000000000000000000000000000000000000 DUP2 MSTORE PUSH1 0x20 PUSH1 0x4 DUP3 ADD MSTORE PUSH1 0x18 PUSH1 0x24 DUP3 ADD MSTORE PUSH32 0x6F6E6C792063616C6C206C314661737457697468647261770000000000000000 PUSH1 0x44 DUP3 ADD MSTORE REVERT JUMPDEST ISZERO PUSH2 0x1B87 JUMPI JUMP JUMPDEST PUSH1 0x64 PUSH1 0x40 MLOAD PUSH32 0x8C379A000000000000000000000000000000000000000000000000000000000 DUP2 MSTORE PUSH1 0x20 PUSH1 0x4 DUP3 ADD MSTORE PUSH1 0xC PUSH1 0x24 DUP3 ADD MSTORE PUSH32 0x616C726561647920736F6C640000000000000000000000000000000000000000 PUSH1 0x44 DUP3 ADD MSTORE REVERT JUMPDEST ISZERO PUSH2 0x1BEC JUMPI JUMP JUMPDEST PUSH1 0x64 PUSH1 0x40 MLOAD PUSH32 0x8C379A000000000000000000000000000000000000000000000000000000000 DUP2 MSTORE PUSH1 0x20 PUSH1 0x4 DUP3 ADD MSTORE PUSH1 0x18 PUSH1 0x24 DUP3 ADD MSTORE PUSH32 0x486173682076616C75657320646F206E6F74206D617463680000000000000000 PUSH1 0x44 DUP3 ADD MSTORE REVERT JUMPDEST RETURNDATASIZE ISZERO PUSH2 0x1CA2 JUMPI RETURNDATASIZE SWAP1 PUSH8 0xFFFFFFFFFFFFFFFF DUP3 GT PUSH2 0x19E4 JUMPI PUSH1 0x40 MLOAD SWAP2 PUSH2 0x1C97 PUSH1 0x20 PUSH32 0xFFFFFFFFFFFFFFFFFFFFFFFFFFFFFFFFFFFFFFFFFFFFFFFFFFFFFFFFFFFFFFE0 PUSH1 0x1F DUP5 ADD AND ADD DUP5 PUSH2 0x19A3 JUMP JUMPDEST DUP3 MSTORE RETURNDATASIZE PUSH0 PUSH1 0x20 DUP5 ADD RETURNDATACOPY JUMP JUMPDEST PUSH1 0x60 SWAP1 JUMP JUMPDEST SWAP8 SWAP6 SWAP4 SWAP2 SWAP9 SWAP7 SWAP5 SWAP3 PUSH1 0x40 MLOAD SWAP9 PUSH1 0x20 DUP11 ADD SWAP11 DUP12 SWAP2 PUSH20 0xFFFFFFFFFFFFFFFFFFFFFFFFFFFFFFFFFFFFFFFF SWAP5 DUP6 SWAP4 DUP5 DUP1 SWAP4 AND SWAP1 MSTORE AND PUSH1 0x40 DUP13 ADD MSTORE AND PUSH1 0x60 DUP11 ADD MSTORE AND PUSH1 0x80 DUP9 ADD MSTORE PUSH1 0xA0 DUP8 ADD MSTORE PUSH1 0xC0 DUP7 ADD MSTORE PUSH1 0xE0 DUP6 ADD MSTORE PUSH2 0x100 DUP5 ADD MSTORE PUSH2 0x120 DUP4 ADD MSTORE PUSH2 0x140 SWAP1 DUP2 DUP4 ADD MSTORE DUP2 MSTORE PUSH2 0x160 DUP2 ADD DUP2 DUP2 LT PUSH8 0xFFFFFFFFFFFFFFFF DUP3 GT OR PUSH2 0x19E4 JUMPI PUSH1 0x40 MSTORE MLOAD SWAP1 KECCAK256 SWAP1 JUMP JUMPDEST PUSH1 0x2 PUSH1 0xB SLOAD EQ PUSH2 0x1D41 JUMPI PUSH1 0x2 PUSH1 0xB SSTORE JUMP JUMPDEST PUSH1 0x4 PUSH1 0x40 MLOAD PUSH32 0x3EE5AEB500000000000000000000000000000000000000000000000000000000 DUP2 MSTORE REVERT JUMPDEST SWAP8 SWAP7 SWAP3 SWAP6 SWAP2 SWAP5 SWAP6 SWAP4 SWAP1 SWAP4 PUSH20 0xFFFFFFFFFFFFFFFFFFFFFFFFFFFFFFFFFFFFFFFF SWAP7 DUP8 PUSH1 0x6 SLOAD AND SWAP6 DUP9 DUP2 AND SWAP7 DUP8 EQ PUSH0 EQ PUSH2 0x1F1B JUMPI DUP3 CALLVALUE SUB PUSH2 0x1EBD JUMPI DUP5 DUP7 PUSH2 0x1DBA SWAP3 DUP5 DUP8 DUP16 DUP9 SWAP1 DUP15 JUMPDEST CHAINID SWAP6 CALLER SWAP3 PUSH2 0x1CA7 JUMP JUMPDEST SWAP10 PUSH1 0x40 MLOAD SWAP1 PUSH2 0x140 DUP3 ADD SWAP8 DUP3 DUP10 LT PUSH8 0xFFFFFFFFFFFFFFFF DUP11 GT OR PUSH2 0x19E4 JUMPI PUSH1 0x9 SWAP10 DUP12 DUP1 SWAP4 DUP16 SWAP12 PUSH1 0x40 MSTORE AND DUP5 MSTORE PUSH1 0x20 DUP5 ADD SWAP2 DUP3 MSTORE DUP3 PUSH1 0x40 DUP6 ADD SWAP2 AND DUP2 MSTORE PUSH1 0x60 DUP5 ADD SWAP2 CALLER DUP4 MSTORE PUSH1 0x80 DUP6 ADD SWAP6 PUSH0 DUP8 MSTORE PUSH1 0xA0 DUP7 ADD SWAP8 DUP9 MSTORE PUSH1 0xC0 DUP7 ADD SWAP9 DUP10 MSTORE PUSH1 0xE0 DUP7 ADD SWAP10 DUP11 MSTORE PUSH2 0x100 DUP7 ADD SWAP11 DUP12 MSTORE PUSH2 0x120 DUP7 ADD SWAP12 DUP13 MSTORE PUSH0 MSTORE PUSH1 0x8 PUSH1 0x20 MSTORE DUP4 PUSH1 0x1 PUSH1 0x40 PUSH0 KECCAK256 SWAP15 DUP16 SWAP8 MLOAD AND SWAP7 PUSH32 0xFFFFFFFFFFFFFFFFFFFFFFFF0000000000000000000000000000000000000000 SWAP8 DUP9 DUP3 SLOAD AND OR DUP2 SSTORE ADD SWAP2 MLOAD AND DUP6 DUP3 SLOAD AND OR SWAP1 SSTORE DUP3 PUSH1 0x2 DUP14 ADD SWAP2 MLOAD AND DUP5 DUP3 SLOAD AND OR SWAP1 SSTORE DUP2 PUSH1 0x3 DUP13 ADD SWAP2 MLOAD AND DUP4 DUP3 SLOAD AND OR SWAP1 SSTORE PUSH1 0x4 DUP11 ADD SWAP3 MLOAD AND SWAP1 DUP3 SLOAD AND OR SWAP1 SSTORE MLOAD PUSH1 0x5 DUP8 ADD SSTORE MLOAD PUSH1 0x6 DUP7 ADD SSTORE MLOAD PUSH1 0x7 DUP6 ADD SSTORE MLOAD PUSH1 0x8 DUP5 ADD SSTORE MLOAD SWAP2 ADD SSTORE JUMP JUMPDEST PUSH1 0x64 PUSH1 0x40 MLOAD PUSH32 0x8C379A000000000000000000000000000000000000000000000000000000000 DUP2 MSTORE PUSH1 0x20 PUSH1 0x4 DUP3 ADD MSTORE PUSH1 0x19 PUSH1 0x24 DUP3 ADD MSTORE PUSH32 0x43543A206E6174697665544F4E206E65656420616D6F756E7400000000000000 PUSH1 0x44 DUP3 ADD MSTORE REVERT JUMPDEST PUSH1 0x40 MLOAD PUSH1 0x20 DUP2 ADD PUSH32 0x23B872DD00000000000000000000000000000000000000000000000000000000 DUP2 MSTORE CALLER PUSH1 0x24 DUP4 ADD MSTORE ADDRESS PUSH1 0x44 DUP4 ADD MSTORE DUP5 PUSH1 0x64 DUP4 ADD MSTORE PUSH1 0x64 DUP3 MSTORE PUSH1 0xA0 DUP3 ADD SWAP1 DUP3 DUP3 LT PUSH8 0xFFFFFFFFFFFFFFFF DUP4 GT OR PUSH2 0x19E4 JUMPI PUSH0 SWAP3 DUP4 SWAP3 PUSH1 0x40 MSTORE MLOAD SWAP1 DUP3 DUP12 GAS CALL PUSH2 0x1F88 PUSH2 0x1C4A JUMP JUMPDEST DUP2 PUSH2 0x2003 JUMPI JUMPDEST POP ISZERO PUSH2 0x1FA5 JUMPI DUP5 DUP7 PUSH2 0x1DBA SWAP3 DUP5 DUP8 DUP16 DUP9 SWAP1 DUP15 PUSH2 0x1DB1 JUMP JUMPDEST PUSH1 0x64 PUSH1 0x40 MLOAD PUSH32 0x8C379A000000000000000000000000000000000000000000000000000000000 DUP2 MSTORE PUSH1 0x20 PUSH1 0x4 DUP3 ADD MSTORE PUSH1 0x14 PUSH1 0x24 DUP3 ADD MSTORE PUSH32 0x5452414E534645525F46524F4D5F4641494C4544000000000000000000000000 PUSH1 0x44 DUP3 ADD MSTORE REVERT JUMPDEST DUP1 MLOAD DUP1 ISZERO SWAP3 POP DUP3 ISZERO PUSH2 0x2018 JUMPI JUMPDEST POP POP PUSH0 PUSH2 0x1F8E JUMP JUMPDEST PUSH2 0x202B SWAP3 POP PUSH1 0x20 DUP1 SWAP2 DUP4 ADD ADD SWAP2 ADD PUSH2 0x2381 JUMP JUMPDEST PUSH0 DUP1 PUSH2 0x2010 JUMP JUMPDEST DUP1 PUSH0 MSTORE PUSH1 0x4 PUSH1 0x20 MSTORE PUSH1 0x40 PUSH0 KECCAK256 CALLER PUSH0 MSTORE PUSH1 0x20 MSTORE PUSH1 0xFF PUSH1 0x40 PUSH0 KECCAK256 SLOAD AND ISZERO PUSH2 0x2054 JUMPI POP JUMP JUMPDEST PUSH1 0x44 SWAP1 PUSH1 0x40 MLOAD SWAP1 PUSH32 0xE2517D3F00000000000000000000000000000000000000000000000000000000 DUP3 MSTORE CALLER PUSH1 0x4 DUP4 ADD MSTORE PUSH1 0x24 DUP3 ADD MSTORE REVERT JUMPDEST PUSH20 0xFFFFFFFFFFFFFFFFFFFFFFFFFFFFFFFFFFFFFFFF AND PUSH0 DUP2 DUP2 MSTORE PUSH32 0x2FB794D17134DFDEC181DDBAC1BABB5AB1EB140204EF4D982F294E7FC8B69022 PUSH1 0x20 MSTORE PUSH1 0x40 SWAP1 KECCAK256 SLOAD PUSH32 0xDF8B4C520FFE197C5343C6F5AEC59570151EF9A492F2C624FD45DDDE6135EC42 SWAP2 SWAP1 PUSH1 0xFF AND PUSH2 0x2162 JUMPI DUP2 PUSH0 MSTORE PUSH1 0x4 PUSH1 0x20 MSTORE PUSH1 0x40 PUSH0 KECCAK256 DUP2 PUSH0 MSTORE PUSH1 0x20 MSTORE PUSH1 0x40 PUSH0 KECCAK256 PUSH1 0x1 PUSH32 0xFFFFFFFFFFFFFFFFFFFFFFFFFFFFFFFFFFFFFFFFFFFFFFFFFFFFFFFFFFFFFF00 DUP3 SLOAD AND OR SWAP1 SSTORE CALLER SWAP2 PUSH32 0x2F8788117E7EFF1D82E926EC794901D17C78024A50270940304540A733656F0D PUSH0 DUP1 LOG4 PUSH1 0x1 SWAP1 JUMP JUMPDEST POP POP PUSH0 SWAP1 JUMP JUMPDEST SWAP1 DUP2 PUSH0 MSTORE PUSH1 0x4 PUSH1 0x20 MSTORE PUSH20 0xFFFFFFFFFFFFFFFFFFFFFFFFFFFFFFFFFFFFFFFF PUSH1 0x40 PUSH0 KECCAK256 SWAP2 AND SWAP1 DUP2 PUSH0 MSTORE PUSH1 0x20 MSTORE PUSH1 0xFF PUSH1 0x40 PUSH0 KECCAK256 SLOAD AND ISZERO PUSH0 EQ PUSH2 0x2162 JUMPI DUP2 PUSH0 MSTORE PUSH1 0x4 PUSH1 0x20 MSTORE PUSH1 0x40 PUSH0 KECCAK256 DUP2 PUSH0 MSTORE PUSH1 0x20 MSTORE PUSH1 0x40 PUSH0 KECCAK256 PUSH1 0x1 PUSH32 0xFFFFFFFFFFFFFFFFFFFFFFFFFFFFFFFFFFFFFFFFFFFFFFFFFFFFFFFFFFFFFF00 DUP3 SLOAD AND OR SWAP1 SSTORE CALLER SWAP2 PUSH32 0x2F8788117E7EFF1D82E926EC794901D17C78024A50270940304540A733656F0D PUSH0 DUP1 LOG4 PUSH1 0x1 SWAP1 JUMP JUMPDEST PUSH20 0xFFFFFFFFFFFFFFFFFFFFFFFFFFFFFFFFFFFFFFFF AND PUSH0 DUP2 DUP2 MSTORE PUSH32 0x2FB794D17134DFDEC181DDBAC1BABB5AB1EB140204EF4D982F294E7FC8B69022 PUSH1 0x20 MSTORE PUSH1 0x40 SWAP1 KECCAK256 SLOAD PUSH32 0xDF8B4C520FFE197C5343C6F5AEC59570151EF9A492F2C624FD45DDDE6135EC42 SWAP2 SWAP1 PUSH1 0xFF AND ISZERO PUSH2 0x2162 JUMPI DUP2 PUSH0 MSTORE PUSH1 0x4 PUSH1 0x20 MSTORE PUSH1 0x40 PUSH0 KECCAK256 DUP2 PUSH0 MSTORE PUSH1 0x20 MSTORE PUSH1 0x40 PUSH0 KECCAK256 PUSH32 0xFFFFFFFFFFFFFFFFFFFFFFFFFFFFFFFFFFFFFFFFFFFFFFFFFFFFFFFFFFFFFF00 DUP2 SLOAD AND SWAP1 SSTORE CALLER SWAP2 PUSH32 0xF6391F5C32D9C69D2A47EA670B442974B53935D1EDC7FD64EB21E047A839171B PUSH0 DUP1 LOG4 PUSH1 0x1 SWAP1 JUMP JUMPDEST SWAP1 DUP2 PUSH0 MSTORE PUSH1 0x4 PUSH1 0x20 MSTORE PUSH20 0xFFFFFFFFFFFFFFFFFFFFFFFFFFFFFFFFFFFFFFFF PUSH1 0x40 PUSH0 KECCAK256 SWAP2 AND SWAP1 DUP2 PUSH0 MSTORE PUSH1 0x20 MSTORE PUSH1 0xFF PUSH1 0x40 PUSH0 KECCAK256 SLOAD AND PUSH0 EQ PUSH2 0x2162 JUMPI DUP2 PUSH0 MSTORE PUSH1 0x4 PUSH1 0x20 MSTORE PUSH1 0x40 PUSH0 KECCAK256 DUP2 PUSH0 MSTORE PUSH1 0x20 MSTORE PUSH1 0x40 PUSH0 KECCAK256 PUSH32 0xFFFFFFFFFFFFFFFFFFFFFFFFFFFFFFFFFFFFFFFFFFFFFFFFFFFFFFFFFFFFFF00 DUP2 SLOAD AND SWAP1 SSTORE CALLER SWAP2 PUSH32 0xF6391F5C32D9C69D2A47EA670B442974B53935D1EDC7FD64EB21E047A839171B PUSH0 DUP1 LOG4 PUSH1 0x1 SWAP1 JUMP JUMPDEST SWAP1 DUP2 PUSH1 0x20 SWAP2 SUB SLT PUSH2 0x230 JUMPI MLOAD DUP1 ISZERO ISZERO DUP2 SUB PUSH2 0x230 JUMPI SWAP1 JUMP JUMPDEST SWAP2 SWAP1 SWAP2 PUSH20 0xFFFFFFFFFFFFFFFFFFFFFFFFFFFFFFFFFFFFFFFF SWAP3 PUSH1 0x40 MLOAD SWAP3 DUP5 PUSH1 0x20 DUP6 ADD SWAP3 PUSH32 0xA9059CBB00000000000000000000000000000000000000000000000000000000 DUP5 MSTORE AND PUSH1 0x24 DUP6 ADD MSTORE PUSH1 0x44 DUP5 ADD MSTORE PUSH1 0x44 DUP4 MSTORE PUSH1 0x80 DUP4 ADD DUP4 DUP2 LT PUSH8 0xFFFFFFFFFFFFFFFF DUP3 GT OR PUSH2 0x19E4 JUMPI PUSH0 SWAP5 DUP6 SWAP5 DUP6 SWAP3 PUSH1 0x40 MSTORE MLOAD SWAP4 AND GAS CALL PUSH2 0x241B PUSH2 0x1C4A JUMP JUMPDEST DUP2 PUSH2 0x2487 JUMPI JUMPDEST POP ISZERO PUSH2 0x2429 JUMPI JUMP JUMPDEST PUSH1 0x64 PUSH1 0x40 MLOAD PUSH32 0x8C379A000000000000000000000000000000000000000000000000000000000 DUP2 MSTORE PUSH1 0x20 PUSH1 0x4 DUP3 ADD MSTORE PUSH1 0xF PUSH1 0x24 DUP3 ADD MSTORE PUSH32 0x5452414E534645525F4641494C45440000000000000000000000000000000000 PUSH1 0x44 DUP3 ADD MSTORE REVERT JUMPDEST DUP1 MLOAD DUP1 ISZERO SWAP3 POP DUP3 ISZERO PUSH2 0x249C JUMPI JUMPDEST POP POP PUSH0 PUSH2 0x2421 JUMP JUMPDEST PUSH2 0x24AF SWAP3 POP PUSH1 0x20 DUP1 SWAP2 DUP4 ADD ADD SWAP2 ADD PUSH2 0x2381 JUMP JUMPDEST PUSH0 DUP1 PUSH2 0x2494 JUMP INVALID LOG2 PUSH5 0x6970667358 0x22 SLT KECCAK256 GASPRICE SIGNEXTEND 0xCA PUSH5 0xC94BF40676 RETURNDATACOPY 0xE2 0xD9 0xC5 LOG4 PUSH27 0x64BF07FD54983E528837D21934246C509164736F6C634300081800 CALLER "
		},
		"gasEstimates": {
			"creation": {
				"codeDepositCost": "1890400",
				"executionCost": "24114",
				"totalCost": "1914514"
			},
			"external": {
				"ADMIN_ROLE()": "535",
				"DEFAULT_ADMIN_ROLE()": "622",
				"POLICY_ROLE()": "249",
				"addAdmin(address)": "35707",
				"aliveImplementation(address)": "2625",
				"cancelCT(address,uint256,uint256,uint256,bytes32)": "infinite",
				"chainData(uint256)": "5037",
				"claimCT(address,uint256,uint256,uint256,uint256,bytes32)": "infinite",
				"crossDomainMessenger()": "2889",
				"dealData(uint256)": "22135",
				"deleteToken(address,address,address,uint256,uint256,uint256)": "29755",
				"getHash(address,address,address,address,uint256,uint256,uint256,uint256,uint256,uint256)": "1235",
				"getRoleAdmin(bytes32)": "2445",
				"grantRole(bytes32,address)": "33335",
				"hasRole(bytes32,address)": "2890",
				"isAdmin(address)": "2601",
				"legacyERC20ETH()": "2317",
				"pauseProxy()": "2542",
				"proxyImplementation(uint256)": "2819",
				"registerCheck(bytes32)": "2583",
				"registerToken(address,address,address,uint256,uint256,uint256)": "30000",
				"removeAdmin(address)": "31054",
				"renounceRole(bytes32,address)": "28932",
				"requestNonRegisteredToken(address,address,address,uint256,uint256,uint256,uint256)": "infinite",
				"requestRegisteredToken(address,address,address,uint256,uint256,uint256,uint256)": "infinite",
				"revokeRole(bytes32,address)": "33700",
				"saleCount()": "2707",
				"selectorImplementation(bytes4)": "2570",
				"supportsInterface(bytes4)": "258",
				"transferAdmin(address)": "64307"
			},
			"internal": {
				"_getChainID()": "infinite",
				"_request(address,address,address,uint256,uint256,uint256,uint256,uint256)": "infinite"
			}
		},
		"methodIdentifiers": {
			"ADMIN_ROLE()": "75b238fc",
			"DEFAULT_ADMIN_ROLE()": "a217fddf",
			"POLICY_ROLE()": "22985246",
			"addAdmin(address)": "70480275",
			"aliveImplementation(address)": "550d01a3",
			"cancelCT(address,uint256,uint256,uint256,bytes32)": "6c790d54",
			"chainData(uint256)": "e59f69c2",
			"claimCT(address,uint256,uint256,uint256,uint256,bytes32)": "c8b8e35e",
			"crossDomainMessenger()": "f43b3613",
			"dealData(uint256)": "f5869c2f",
			"deleteToken(address,address,address,uint256,uint256,uint256)": "6dd897c7",
			"getHash(address,address,address,address,uint256,uint256,uint256,uint256,uint256,uint256)": "7f02944f",
			"getRoleAdmin(bytes32)": "248a9ca3",
			"grantRole(bytes32,address)": "2f2ff15d",
			"hasRole(bytes32,address)": "91d14854",
			"isAdmin(address)": "24d7806c",
			"legacyERC20ETH()": "16e01724",
			"pauseProxy()": "63a8fd89",
			"proxyImplementation(uint256)": "b911135f",
			"registerCheck(bytes32)": "5cadbd3b",
			"registerToken(address,address,address,uint256,uint256,uint256)": "df2ccdbf",
			"removeAdmin(address)": "1785f53c",
			"renounceRole(bytes32,address)": "36568abe",
			"requestNonRegisteredToken(address,address,address,uint256,uint256,uint256,uint256)": "ee976ab4",
			"requestRegisteredToken(address,address,address,uint256,uint256,uint256,uint256)": "1037be21",
			"revokeRole(bytes32,address)": "d547741f",
			"saleCount()": "a1e89aec",
			"selectorImplementation(bytes4)": "50d2a276",
			"supportsInterface(bytes4)": "01ffc9a7",
			"transferAdmin(address)": "75829def"
		}
	},
	"abi": [
		{
			"inputs": [],
			"name": "AccessControlBadConfirmation",
			"type": "error"
		},
		{
			"inputs": [
				{
					"internalType": "address",
					"name": "account",
					"type": "address"
				},
				{
					"internalType": "bytes32",
					"name": "neededRole",
					"type": "bytes32"
				}
			],
			"name": "AccessControlUnauthorizedAccount",
			"type": "error"
		},
		{
			"inputs": [],
			"name": "ReentrancyGuardReentrantCall",
			"type": "error"
		},
		{
			"anonymous": false,
			"inputs": [
				{
					"indexed": false,
					"internalType": "address",
					"name": "_requester",
					"type": "address"
				},
				{
					"indexed": false,
					"internalType": "uint256",
					"name": "_totalAmount",
					"type": "uint256"
				},
				{
					"indexed": true,
					"internalType": "uint256",
					"name": "_saleCount",
					"type": "uint256"
				},
				{
					"indexed": false,
					"internalType": "uint256",
					"name": "_l1ChainId",
					"type": "uint256"
				},
				{
					"indexed": false,
					"internalType": "uint256",
					"name": "_l2SourceChainId",
					"type": "uint256"
				},
				{
					"indexed": false,
					"internalType": "uint256",
					"name": "_l2TargetChainId",
					"type": "uint256"
				},
				{
					"indexed": false,
					"internalType": "bytes32",
					"name": "_hash",
					"type": "bytes32"
				}
			],
			"name": "CancelCT",
			"type": "event"
		},
		{
			"anonymous": false,
			"inputs": [
				{
					"indexed": false,
					"internalType": "address",
					"name": "_l1token",
					"type": "address"
				},
				{
					"indexed": false,
					"internalType": "address",
					"name": "_l2SourceToken",
					"type": "address"
				},
				{
					"indexed": false,
					"internalType": "address",
					"name": "_l2TargetToken",
					"type": "address"
				},
				{
					"indexed": false,
					"internalType": "address",
					"name": "_requester",
					"type": "address"
				},
				{
					"indexed": false,
					"internalType": "uint256",
					"name": "_totalAmount",
					"type": "uint256"
				},
				{
					"indexed": false,
					"internalType": "uint256",
					"name": "_ctAmount",
					"type": "uint256"
				},
				{
					"indexed": true,
					"internalType": "uint256",
					"name": "_saleCount",
					"type": "uint256"
				},
				{
					"indexed": false,
					"internalType": "uint256",
					"name": "_l1ChainId",
					"type": "uint256"
				},
				{
					"indexed": false,
					"internalType": "uint256",
					"name": "_l2SourceChainId",
					"type": "uint256"
				},
				{
					"indexed": false,
					"internalType": "uint256",
					"name": "_l2TargetChainId",
					"type": "uint256"
				},
				{
					"indexed": false,
					"internalType": "bytes32",
					"name": "_hashValue",
					"type": "bytes32"
				}
			],
			"name": "NonRequestCT",
			"type": "event"
		},
		{
			"anonymous": false,
			"inputs": [
				{
					"indexed": false,
					"internalType": "address",
					"name": "_l1token",
					"type": "address"
				},
				{
					"indexed": false,
					"internalType": "address",
					"name": "_l2SourceToken",
					"type": "address"
				},
				{
					"indexed": false,
					"internalType": "address",
					"name": "_l2TargetToken",
					"type": "address"
				},
				{
					"indexed": false,
					"internalType": "address",
					"name": "_requester",
					"type": "address"
				},
				{
					"indexed": false,
					"internalType": "address",
					"name": "_provider",
					"type": "address"
				},
				{
					"indexed": false,
					"internalType": "uint256",
					"name": "_totalAmount",
					"type": "uint256"
				},
				{
					"indexed": false,
					"internalType": "uint256",
					"name": "_ctAmount",
					"type": "uint256"
				},
				{
					"indexed": true,
					"internalType": "uint256",
					"name": "_saleCount",
					"type": "uint256"
				},
				{
					"indexed": false,
					"internalType": "uint256",
					"name": "_l1ChainId",
					"type": "uint256"
				},
				{
					"indexed": false,
					"internalType": "uint256",
					"name": "_l2SourceChainId",
					"type": "uint256"
				},
				{
					"indexed": false,
					"internalType": "uint256",
					"name": "_l2TargetChainId",
					"type": "uint256"
				},
				{
					"indexed": false,
					"internalType": "bytes32",
					"name": "_hash",
					"type": "bytes32"
				}
			],
			"name": "ProviderClaimCT",
			"type": "event"
		},
		{
			"anonymous": false,
			"inputs": [
				{
					"indexed": false,
					"internalType": "address",
					"name": "_l1token",
					"type": "address"
				},
				{
					"indexed": false,
					"internalType": "address",
					"name": "_l2SourceToken",
					"type": "address"
				},
				{
					"indexed": false,
					"internalType": "address",
					"name": "_l2TargetToken",
					"type": "address"
				},
				{
					"indexed": false,
					"internalType": "address",
					"name": "_requester",
					"type": "address"
				},
				{
					"indexed": false,
					"internalType": "uint256",
					"name": "_totalAmount",
					"type": "uint256"
				},
				{
					"indexed": false,
					"internalType": "uint256",
					"name": "_ctAmount",
					"type": "uint256"
				},
				{
					"indexed": true,
					"internalType": "uint256",
					"name": "_saleCount",
					"type": "uint256"
				},
				{
					"indexed": false,
					"internalType": "uint256",
					"name": "_l1ChainId",
					"type": "uint256"
				},
				{
					"indexed": false,
					"internalType": "uint256",
					"name": "_l2SourceChainId",
					"type": "uint256"
				},
				{
					"indexed": false,
					"internalType": "uint256",
					"name": "_l2TargetChainId",
					"type": "uint256"
				},
				{
					"indexed": false,
					"internalType": "bytes32",
					"name": "_hashValue",
					"type": "bytes32"
				}
			],
			"name": "RequestCT",
			"type": "event"
		},
		{
			"anonymous": false,
			"inputs": [
				{
					"indexed": true,
					"internalType": "bytes32",
					"name": "role",
					"type": "bytes32"
				},
				{
					"indexed": true,
					"internalType": "bytes32",
					"name": "previousAdminRole",
					"type": "bytes32"
				},
				{
					"indexed": true,
					"internalType": "bytes32",
					"name": "newAdminRole",
					"type": "bytes32"
				}
			],
			"name": "RoleAdminChanged",
			"type": "event"
		},
		{
			"anonymous": false,
			"inputs": [
				{
					"indexed": true,
					"internalType": "bytes32",
					"name": "role",
					"type": "bytes32"
				},
				{
					"indexed": true,
					"internalType": "address",
					"name": "account",
					"type": "address"
				},
				{
					"indexed": true,
					"internalType": "address",
					"name": "sender",
					"type": "address"
				}
			],
			"name": "RoleGranted",
			"type": "event"
		},
		{
			"anonymous": false,
			"inputs": [
				{
					"indexed": true,
					"internalType": "bytes32",
					"name": "role",
					"type": "bytes32"
				},
				{
					"indexed": true,
					"internalType": "address",
					"name": "account",
					"type": "address"
				},
				{
					"indexed": true,
					"internalType": "address",
					"name": "sender",
					"type": "address"
				}
			],
			"name": "RoleRevoked",
			"type": "event"
		},
		{
			"inputs": [],
			"name": "ADMIN_ROLE",
			"outputs": [
				{
					"internalType": "bytes32",
					"name": "",
					"type": "bytes32"
				}
			],
			"stateMutability": "view",
			"type": "function"
		},
		{
			"inputs": [],
			"name": "DEFAULT_ADMIN_ROLE",
			"outputs": [
				{
					"internalType": "bytes32",
					"name": "",
					"type": "bytes32"
				}
			],
			"stateMutability": "view",
			"type": "function"
		},
		{
			"inputs": [],
			"name": "POLICY_ROLE",
			"outputs": [
				{
					"internalType": "bytes32",
					"name": "",
					"type": "bytes32"
				}
			],
			"stateMutability": "view",
			"type": "function"
		},
		{
			"inputs": [
				{
					"internalType": "address",
					"name": "account",
					"type": "address"
				}
			],
			"name": "addAdmin",
			"outputs": [],
			"stateMutability": "nonpayable",
			"type": "function"
		},
		{
			"inputs": [
				{
					"internalType": "address",
					"name": "",
					"type": "address"
				}
			],
			"name": "aliveImplementation",
			"outputs": [
				{
					"internalType": "bool",
					"name": "",
					"type": "bool"
				}
			],
			"stateMutability": "view",
			"type": "function"
		},
		{
			"inputs": [
				{
					"internalType": "address",
					"name": "_msgSender",
					"type": "address"
				},
				{
					"internalType": "uint256",
					"name": "_salecount",
					"type": "uint256"
				},
				{
					"internalType": "uint256",
					"name": "_l1ChainId",
					"type": "uint256"
				},
				{
					"internalType": "uint256",
					"name": "_l2TargetChainId",
					"type": "uint256"
				},
				{
					"internalType": "bytes32",
					"name": "_hash",
					"type": "bytes32"
				}
			],
			"name": "cancelCT",
			"outputs": [],
			"stateMutability": "nonpayable",
			"type": "function"
		},
		{
			"inputs": [
				{
					"internalType": "uint256",
					"name": "",
					"type": "uint256"
				}
			],
			"name": "chainData",
			"outputs": [
				{
					"internalType": "address",
					"name": "l1CrossTradeContract",
					"type": "address"
				},
				{
					"internalType": "address",
					"name": "l1TON",
					"type": "address"
				}
			],
			"stateMutability": "view",
			"type": "function"
		},
		{
			"inputs": [
				{
					"internalType": "address",
					"name": "_from",
					"type": "address"
				},
				{
					"internalType": "uint256",
					"name": "_ctAmount",
					"type": "uint256"
				},
				{
					"internalType": "uint256",
					"name": "_saleCount",
					"type": "uint256"
				},
				{
					"internalType": "uint256",
					"name": "_l1ChainId",
					"type": "uint256"
				},
				{
					"internalType": "uint256",
					"name": "_l2TargetChainId",
					"type": "uint256"
				},
				{
					"internalType": "bytes32",
					"name": "_hash",
					"type": "bytes32"
				}
			],
			"name": "claimCT",
			"outputs": [],
			"stateMutability": "nonpayable",
			"type": "function"
		},
		{
			"inputs": [],
			"name": "crossDomainMessenger",
			"outputs": [
				{
					"internalType": "address",
					"name": "",
					"type": "address"
				}
			],
			"stateMutability": "view",
			"type": "function"
		},
		{
			"inputs": [
				{
					"internalType": "uint256",
					"name": "",
					"type": "uint256"
				}
			],
			"name": "dealData",
			"outputs": [
				{
					"internalType": "address",
					"name": "l1token",
					"type": "address"
				},
				{
					"internalType": "address",
					"name": "l2SourceToken",
					"type": "address"
				},
				{
					"internalType": "address",
					"name": "l2TargetToken",
					"type": "address"
				},
				{
					"internalType": "address",
					"name": "requester",
					"type": "address"
				},
				{
					"internalType": "address",
					"name": "provider",
					"type": "address"
				},
				{
					"internalType": "uint256",
					"name": "totalAmount",
					"type": "uint256"
				},
				{
					"internalType": "uint256",
					"name": "ctAmount",
					"type": "uint256"
				},
				{
					"internalType": "uint256",
					"name": "l1ChainId",
					"type": "uint256"
				},
				{
					"internalType": "uint256",
					"name": "l2TargetChainId",
					"type": "uint256"
				},
				{
					"internalType": "bytes32",
					"name": "hashValue",
					"type": "bytes32"
				}
			],
			"stateMutability": "view",
			"type": "function"
		},
		{
			"inputs": [
				{
					"internalType": "address",
					"name": "_l1token",
					"type": "address"
				},
				{
					"internalType": "address",
					"name": "_l2SourceToken",
					"type": "address"
				},
				{
					"internalType": "address",
					"name": "_l2TargetToken",
					"type": "address"
				},
				{
					"internalType": "uint256",
					"name": "_l1ChainId",
					"type": "uint256"
				},
				{
					"internalType": "uint256",
					"name": "_l2SourceChainId",
					"type": "uint256"
				},
				{
					"internalType": "uint256",
					"name": "_l2TargetChainId",
					"type": "uint256"
				}
			],
			"name": "deleteToken",
			"outputs": [],
			"stateMutability": "nonpayable",
			"type": "function"
		},
		{
			"inputs": [
				{
					"internalType": "address",
					"name": "_l1token",
					"type": "address"
				},
				{
					"internalType": "address",
					"name": "_l2SourceToken",
					"type": "address"
				},
				{
					"internalType": "address",
					"name": "_l2TargetToken",
					"type": "address"
				},
				{
					"internalType": "address",
					"name": "_requestor",
					"type": "address"
				},
				{
					"internalType": "uint256",
					"name": "_totalAmount",
					"type": "uint256"
				},
				{
					"internalType": "uint256",
					"name": "_ctAmount",
					"type": "uint256"
				},
				{
					"internalType": "uint256",
					"name": "_saleCount",
					"type": "uint256"
				},
				{
					"internalType": "uint256",
					"name": "_l1ChainId",
					"type": "uint256"
				},
				{
					"internalType": "uint256",
					"name": "_l2SourceChainId",
					"type": "uint256"
				},
				{
					"internalType": "uint256",
					"name": "_l2TargetChainId",
					"type": "uint256"
				}
			],
			"name": "getHash",
			"outputs": [
				{
					"internalType": "bytes32",
					"name": "",
					"type": "bytes32"
				}
			],
			"stateMutability": "pure",
			"type": "function"
		},
		{
			"inputs": [
				{
					"internalType": "bytes32",
					"name": "role",
					"type": "bytes32"
				}
			],
			"name": "getRoleAdmin",
			"outputs": [
				{
					"internalType": "bytes32",
					"name": "",
					"type": "bytes32"
				}
			],
			"stateMutability": "view",
			"type": "function"
		},
		{
			"inputs": [
				{
					"internalType": "bytes32",
					"name": "role",
					"type": "bytes32"
				},
				{
					"internalType": "address",
					"name": "account",
					"type": "address"
				}
			],
			"name": "grantRole",
			"outputs": [],
			"stateMutability": "nonpayable",
			"type": "function"
		},
		{
			"inputs": [
				{
					"internalType": "bytes32",
					"name": "role",
					"type": "bytes32"
				},
				{
					"internalType": "address",
					"name": "account",
					"type": "address"
				}
			],
			"name": "hasRole",
			"outputs": [
				{
					"internalType": "bool",
					"name": "",
					"type": "bool"
				}
			],
			"stateMutability": "view",
			"type": "function"
		},
		{
			"inputs": [
				{
					"internalType": "address",
					"name": "account",
					"type": "address"
				}
			],
			"name": "isAdmin",
			"outputs": [
				{
					"internalType": "bool",
					"name": "",
					"type": "bool"
				}
			],
			"stateMutability": "view",
			"type": "function"
		},
		{
			"inputs": [],
			"name": "legacyERC20ETH",
			"outputs": [
				{
					"internalType": "address",
					"name": "",
					"type": "address"
				}
			],
			"stateMutability": "view",
			"type": "function"
		},
		{
			"inputs": [],
			"name": "pauseProxy",
			"outputs": [
				{
					"internalType": "bool",
					"name": "",
					"type": "bool"
				}
			],
			"stateMutability": "view",
			"type": "function"
		},
		{
			"inputs": [
				{
					"internalType": "uint256",
					"name": "",
					"type": "uint256"
				}
			],
			"name": "proxyImplementation",
			"outputs": [
				{
					"internalType": "address",
					"name": "",
					"type": "address"
				}
			],
			"stateMutability": "view",
			"type": "function"
		},
		{
			"inputs": [
				{
					"internalType": "bytes32",
					"name": "",
					"type": "bytes32"
				}
			],
			"name": "registerCheck",
			"outputs": [
				{
					"internalType": "bool",
					"name": "",
					"type": "bool"
				}
			],
			"stateMutability": "view",
			"type": "function"
		},
		{
			"inputs": [
				{
					"internalType": "address",
					"name": "_l1token",
					"type": "address"
				},
				{
					"internalType": "address",
					"name": "_l2SourceToken",
					"type": "address"
				},
				{
					"internalType": "address",
					"name": "_l2TargetToken",
					"type": "address"
				},
				{
					"internalType": "uint256",
					"name": "_l1ChainId",
					"type": "uint256"
				},
				{
					"internalType": "uint256",
					"name": "_l2SourceChainId",
					"type": "uint256"
				},
				{
					"internalType": "uint256",
					"name": "_l2TargetChainId",
					"type": "uint256"
				}
			],
			"name": "registerToken",
			"outputs": [],
			"stateMutability": "nonpayable",
			"type": "function"
		},
		{
			"inputs": [
				{
					"internalType": "address",
					"name": "account",
					"type": "address"
				}
			],
			"name": "removeAdmin",
			"outputs": [],
			"stateMutability": "nonpayable",
			"type": "function"
		},
		{
			"inputs": [
				{
					"internalType": "bytes32",
					"name": "role",
					"type": "bytes32"
				},
				{
					"internalType": "address",
					"name": "callerConfirmation",
					"type": "address"
				}
			],
			"name": "renounceRole",
			"outputs": [],
			"stateMutability": "nonpayable",
			"type": "function"
		},
		{
			"inputs": [
				{
					"internalType": "address",
					"name": "_l1token",
					"type": "address"
				},
				{
					"internalType": "address",
					"name": "_l2SourceToken",
					"type": "address"
				},
				{
					"internalType": "address",
					"name": "_l2TargetToken",
					"type": "address"
				},
				{
					"internalType": "uint256",
					"name": "_totalAmount",
					"type": "uint256"
				},
				{
					"internalType": "uint256",
					"name": "_ctAmount",
					"type": "uint256"
				},
				{
					"internalType": "uint256",
					"name": "_l1ChainId",
					"type": "uint256"
				},
				{
					"internalType": "uint256",
					"name": "_l2TargetChainId",
					"type": "uint256"
				}
			],
			"name": "requestNonRegisteredToken",
			"outputs": [],
			"stateMutability": "payable",
			"type": "function"
		},
		{
			"inputs": [
				{
					"internalType": "address",
					"name": "_l1token",
					"type": "address"
				},
				{
					"internalType": "address",
					"name": "_l2SourceToken",
					"type": "address"
				},
				{
					"internalType": "address",
					"name": "_l2TargetToken",
					"type": "address"
				},
				{
					"internalType": "uint256",
					"name": "_totalAmount",
					"type": "uint256"
				},
				{
					"internalType": "uint256",
					"name": "_ctAmount",
					"type": "uint256"
				},
				{
					"internalType": "uint256",
					"name": "_l1ChainId",
					"type": "uint256"
				},
				{
					"internalType": "uint256",
					"name": "_l2TargetChainId",
					"type": "uint256"
				}
			],
			"name": "requestRegisteredToken",
			"outputs": [],
			"stateMutability": "payable",
			"type": "function"
		},
		{
			"inputs": [
				{
					"internalType": "bytes32",
					"name": "role",
					"type": "bytes32"
				},
				{
					"internalType": "address",
					"name": "account",
					"type": "address"
				}
			],
			"name": "revokeRole",
			"outputs": [],
			"stateMutability": "nonpayable",
			"type": "function"
		},
		{
			"inputs": [],
			"name": "saleCount",
			"outputs": [
				{
					"internalType": "uint256",
					"name": "",
					"type": "uint256"
				}
			],
			"stateMutability": "view",
			"type": "function"
		},
		{
			"inputs": [
				{
					"internalType": "bytes4",
					"name": "",
					"type": "bytes4"
				}
			],
			"name": "selectorImplementation",
			"outputs": [
				{
					"internalType": "address",
					"name": "",
					"type": "address"
				}
			],
			"stateMutability": "view",
			"type": "function"
		},
		{
			"inputs": [
				{
					"internalType": "bytes4",
					"name": "interfaceId",
					"type": "bytes4"
				}
			],
			"name": "supportsInterface",
			"outputs": [
				{
					"internalType": "bool",
					"name": "",
					"type": "bool"
				}
			],
			"stateMutability": "view",
			"type": "function"
		},
		{
			"inputs": [
				{
					"internalType": "address",
					"name": "newAdmin",
					"type": "address"
				}
			],
			"name": "transferAdmin",
			"outputs": [],
			"stateMutability": "nonpayable",
			"type": "function"
		}
	]
}