{
	"data": {
		"bytecode": {
			"linkReferences": {},
			"object": "608060405234801561000f575f80fd5b506001600b55611e5d806100225f395ff3fe6080604052600436106101ba575f3560e01c806370480275116100f2578063b911135f11610092578063e59f69c211610062578063e59f69c214610536578063ee976ab414610595578063f43b3613146105a8578063f5869c2f146105c7575f80fd5b8063b911135f146104a5578063c8b8e35e146104d9578063d547741f146104f8578063df2ccdbf14610517575f80fd5b80637f02944f116100cd5780637f02944f1461043f57806391d148541461045e578063a1e89aec1461047d578063a217fddf14610492575f80fd5b806370480275146103e157806375829def1461040057806375b238fc1461041f575f80fd5b80632f2ff15d1161015d578063550d01a311610138578063550d01a31461035d57806363a8fd891461038b5780636c790d54146103a35780636dd897c7146103c2575f80fd5b80632f2ff15d146102eb57806336568abe1461030a57806350d2a27614610329575f80fd5b80631785f53c116101985780631785f53c1461023e578063229852461461025d578063248a9ca31461029e57806324d7806c146102cc575f80fd5b806301ffc9a7146101be5780631037be21146101f257806316e0172414610207575b5f80fd5b3480156101c9575f80fd5b506101dd6101d83660046119ca565b6106a7565b60405190151581526020015b60405180910390f35b610205610200366004611a0c565b6106dd565b005b348015610212575f80fd5b50600654610226906001600160a01b031681565b6040516001600160a01b0390911681526020016101e9565b348015610249575f80fd5b50610205610258366004611a75565b6108d0565b348015610268575f80fd5b506102907ffb5864e8ff833c3cb2d2d08505e82ff02a43554c74a35d4f5a64e8526127831181565b6040519081526020016101e9565b3480156102a9575f80fd5b506102906102b8366004611a90565b5f9081526004602052604090206001015490565b3480156102d7575f80fd5b506101dd6102e6366004611a75565b61090f565b3480156102f6575f80fd5b50610205610305366004611aa7565b610927565b348015610315575f80fd5b50610205610324366004611aa7565b610951565b348015610334575f80fd5b506102266103433660046119ca565b60036020525f90815260409020546001600160a01b031681565b348015610368575f80fd5b506101dd610377366004611a75565b60026020525f908152604090205460ff1681565b348015610396575f80fd5b505f546101dd9060ff1681565b3480156103ae575f80fd5b506102056103bd366004611ad5565b610989565b3480156103cd575f80fd5b506102056103dc366004611b15565b610d02565b3480156103ec575f80fd5b506102056103fb366004611a75565b610dd1565b34801561040b575f80fd5b5061020561041a366004611a75565b610e0d565b34801561042a575f80fd5b506102905f80516020611e0883398151915281565b34801561044a575f80fd5b50610290610459366004611b76565b610f07565b348015610469575f80fd5b506101dd610478366004611aa7565b610f51565b348015610488575f80fd5b5061029060075481565b34801561049d575f80fd5b506102905f81565b3480156104b0575f80fd5b506102266104bf366004611a90565b60016020525f90815260409020546001600160a01b031681565b3480156104e4575f80fd5b506102056104f3366004611c03565b610f7b565b348015610503575f80fd5b50610205610512366004611aa7565b61123d565b348015610522575f80fd5b50610205610531366004611b15565b611261565b348015610541575f80fd5b50610575610550366004611a90565b600a6020525f9081526040902080546001909101546001600160a01b03918216911682565b604080516001600160a01b039384168152929091166020830152016101e9565b6102056105a3366004611a0c565b611331565b3480156105b3575f80fd5b50600554610226906001600160a01b031681565b3480156105d2575f80fd5b506106466105e1366004611a90565b600860208190525f918252604090912080546001820154600283015460038401546004850154600586015460068701546007880154988801546009909801546001600160a01b039788169996881698958816979485169693909416949193909291908a565b604080516001600160a01b039b8c168152998b1660208b0152978a1697890197909752948816606088015296909216608086015260a085015260c084015260e0830193909352610100820192909252610120810191909152610140016101e9565b5f6001600160e01b03198216637965db0b60e01b14806106d757506301ffc9a760e01b6001600160e01b03198316145b92915050565b3332146107055760405162461bcd60e51b81526004016106fc90611c4b565b60405180910390fd5b835f81116107255760405162461bcd60e51b81526004016106fc90611c98565b835f81116107455760405162461bcd60e51b81526004016106fc90611c98565b61074d611416565b60405146905f9061076c908790849088908f908f908f90602001611ccf565b60408051601f1981840301815291815281516020928301205f818152600990935291205490915060ff1615156001146107dc5760405162461bcd60e51b81526020600482015260126024820152713737ba103932b3b4b9ba32b9103a37b5b2b760711b60448201526064016106fc565b868810156108485760405162461bcd60e51b815260206004820152603360248201527f54686520746f74616c416d6f756e742076616c7565206d75737420626520677260448201527219585d195c881d1a185b8818dd105b5bdd5b9d606a1b60648201526084016106fc565b60075f8154600101919050819055505f61086a8c8c8c8c8c6007548d8d611440565b90506007547ff58a3eb43ce8649bc1cfb2014001a2bf5a73ab4e3df0f0f76ce5f2d1b390d3d98d8d8d338e8e8e8b8f8b6040516108b09a99989796959493929190611d06565b60405180910390a25050506108c56001600b55565b505050505050505050565b6108d93361090f565b6108f55760405162461bcd60e51b81526004016106fc90611d5f565b61090c5f80516020611e0883398151915282610951565b50565b5f6106d75f80516020611e0883398151915283610f51565b5f8281526004602052604090206001015461094181611678565b61094b8383611682565b50505050565b6001600160a01b038116331461097a5760405163334bd91960e11b815260040160405180910390fd5b6109848282611713565b505050565b610991611416565b60055483906001600160a01b031633148015610a2e57505f818152600a6020908152604091829020546005548351636e296e4560e01b815293516001600160a01b03928316949190921692636e296e45926004808401938290030181865afa1580156109ff573d5f803e3d5ffd5b505050506040513d601f19601f82011682018060405250810190610a239190611da1565b6001600160a01b0316145b610a755760405162461bcd60e51b81526020600482015260186024820152776f6e6c792063616c6c206c3146617374576974686472617760401b60448201526064016106fc565b5f8581526008602052604090206004015485906001600160a01b031615610acd5760405162461bcd60e51b815260206004820152600c60248201526b185b1c9958591e481cdbdb1960a21b60448201526064016106fc565b5f868152600860205260409020600301546001600160a01b03888116911614610b2a5760405162461bcd60e51b815260206004820152600f60248201526e3cb7bab9103737ba1039b2b63632b960891b60448201526064016106fc565b5f868152600860205260409020600901548314610b845760405162461bcd60e51b8152602060048201526018602482015277090c2e6d040ecc2d8eacae640c8de40dcdee840dac2e8c6d60431b60448201526064016106fc565b5f8681526008602052604090206004810180546001600160a01b0319166001600160a01b038a811691909117909155600582015460065460019093015490928216911603610c66575f886001600160a01b0316826040515f6040518083038185875af1925050503d805f8114610c15576040519150601f19603f3d011682016040523d82523d5f602084013e610c1a565b606091505b5050905080610c605760405162461bcd60e51b815260206004820152601260248201527118d85b98d95b081c99599d5b990819985a5b60721b60448201526064016106fc565b50610c8b565b5f87815260086020526040902060010154610c8b906001600160a01b0316898361177e565b604080516001600160a01b038a1681526020810183905280820188905246606082018190526080820188905260a08201879052915189917fff2934c52f646a47cac1f95449dfda335ed35c7d2296fd4a988a2227fa0378aa919081900360c00190a250505050610cfb6001600b55565b5050505050565b610d0b3361090f565b610d275760405162461bcd60e51b81526004016106fc90611d5f565b5f838383898989604051602001610d4396959493929190611ccf565b60408051601f1981840301815291815281516020928301205f81815260099093529082205490925060ff1615159003610db45760405162461bcd60e51b815260206004820152601360248201527230b63932b0b23c903232b632ba32aa37b5b2b760691b60448201526064016106fc565b5f908152600960205260409020805460ff19169055505050505050565b610dda3361090f565b610df65760405162461bcd60e51b81526004016106fc90611d5f565b61090c5f80516020611e0883398151915282610927565b610e163361090f565b610e325760405162461bcd60e51b81526004016106fc90611d5f565b6001600160a01b038116610e885760405162461bcd60e51b815260206004820152601860248201527f41636365737369626c653a207a65726f2061646472657373000000000000000060448201526064016106fc565b6001600160a01b0381163303610ed95760405162461bcd60e51b815260206004820152601660248201527520b1b1b2b9b9b4b136329d1039b0b6b29030b236b4b760511b60448201526064016106fc565b610ef05f80516020611e0883398151915282610927565b61090c5f80516020611e0883398151915233610951565b5f8a8a8a8a8a8a8a8a8a8a604051602001610f2b9a99989796959493929190611d06565b6040516020818303038152906040528051906020012090509a9950505050505050505050565b5f9182526004602090815260408084206001600160a01b0393909316845291905290205460ff1690565b610f83611416565b60055483906001600160a01b03163314801561102057505f818152600a6020908152604091829020546005548351636e296e4560e01b815293516001600160a01b03928316949190921692636e296e45926004808401938290030181865afa158015610ff1573d5f803e3d5ffd5b505050506040513d601f19601f820116820180604052508101906110159190611da1565b6001600160a01b0316145b6110675760405162461bcd60e51b81526020600482015260186024820152776f6e6c792063616c6c206c3146617374576974686472617760401b60448201526064016106fc565b5f8581526008602052604090206004015485906001600160a01b0316156110bf5760405162461bcd60e51b815260206004820152600c60248201526b185b1c9958591e481cdbdb1960a21b60448201526064016106fc565b5f8681526008602052604090206009015483146111195760405162461bcd60e51b8152602060048201526018602482015277090c2e6d040ecc2d8eacae640c8de40dcdee840dac2e8c6d60431b60448201526064016106fc565b865f81900361113557505f868152600860205260409020600601545b5f8781526008602052604090206004810180546001600160a01b0319166001600160a01b038c8116919091179091556001820154600590920154600654928216929091168203611211575f8b6001600160a01b0316826040515f6040518083038185875af1925050503d805f81146111c8576040519150601f19603f3d011682016040523d82523d5f602084013e6111cd565b606091505b505090508061120b5760405162461bcd60e51b815260206004820152600a60248201526918db185a5b4819985a5b60b21b60448201526064016106fc565b50611225565b6112256001600160a01b0383168c8361177e565b50506001600b5550611235915050565b505050505050565b5f8281526004602052604090206001015461125781611678565b61094b8383611713565b61126a3361090f565b6112865760405162461bcd60e51b81526004016106fc90611d5f565b5f8383838989896040516020016112a296959493929190611ccf565b60408051601f1981840301815291815281516020928301205f818152600990935291205490915060ff16156113115760405162461bcd60e51b815260206004820152601560248201527430b63932b0b23c903932b3b4b9ba32b92a37b5b2b760591b60448201526064016106fc565b5f908152600960205260409020805460ff19166001179055505050505050565b3332146113505760405162461bcd60e51b81526004016106fc90611c4b565b835f81116113705760405162461bcd60e51b81526004016106fc90611c98565b835f81116113905760405162461bcd60e51b81526004016106fc90611c98565b611398611416565b600780546001019081905546905f906113bc908c908c908c908c908c908c8c611440565b90506007547fbdada440ba6a1aee247cdac6cf66343ea063ea610a86100acdee8496b90351e58c8c8c338d8d8d8a8e8b6040516114029a99989796959493929190611d06565b60405180910390a250506108c56001600b55565b6002600b540361143957604051633ee5aeb560e01b815260040160405180910390fd5b6002600b55565b6006545f906001600160a01b03908116908916036114ac578534146114a75760405162461bcd60e51b815260206004820152601960248201527f43543a206e6174697665544f4e206e65656420616d6f756e740000000000000060448201526064016106fc565b6114c1565b6114c16001600160a01b03891633308961187f565b466114d48a8a8a338b8b8b888b8d610f07565b91506040518061014001604052808b6001600160a01b031681526020018a6001600160a01b03168152602001896001600160a01b03168152602001336001600160a01b031681526020015f6001600160a01b031681526020018881526020018781526020018581526020018481526020018381525060085f8781526020019081526020015f205f820151815f015f6101000a8154816001600160a01b0302191690836001600160a01b031602179055506020820151816001015f6101000a8154816001600160a01b0302191690836001600160a01b031602179055506040820151816002015f6101000a8154816001600160a01b0302191690836001600160a01b031602179055506060820151816003015f6101000a8154816001600160a01b0302191690836001600160a01b031602179055506080820151816004015f6101000a8154816001600160a01b0302191690836001600160a01b0316021790555060a0820151816005015560c0820151816006015560e08201518160070155610100820151816008015561012082015181600901559050505098975050505050505050565b61090c813361198d565b5f61168d8383610f51565b61170c575f8381526004602090815260408083206001600160a01b03861684529091529020805460ff191660011790556116c43390565b6001600160a01b0316826001600160a01b0316847f2f8788117e7eff1d82e926ec794901d17c78024a50270940304540a733656f0d60405160405180910390a45060016106d7565b505f6106d7565b5f61171e8383610f51565b1561170c575f8381526004602090815260408083206001600160a01b0386168085529252808320805460ff1916905551339286917ff6391f5c32d9c69d2a47ea670b442974b53935d1edc7fd64eb21e047a839171b9190a45060016106d7565b604080516001600160a01b038481166024830152604480830185905283518084039091018152606490920183526020820180516001600160e01b031663a9059cbb60e01b17905291515f928392908716916117d99190611dbc565b5f604051808303815f865af19150503d805f8114611812576040519150601f19603f3d011682016040523d82523d5f602084013e611817565b606091505b50915091508180156118415750805115806118415750808060200190518101906118419190611de8565b610cfb5760405162461bcd60e51b815260206004820152600f60248201526e1514905394d1915497d19052531151608a1b60448201526064016106fc565b604080516001600160a01b0385811660248301528481166044830152606480830185905283518084039091018152608490920183526020820180516001600160e01b03166323b872dd60e01b17905291515f928392908816916118e29190611dbc565b5f604051808303815f865af19150503d805f811461191b576040519150601f19603f3d011682016040523d82523d5f602084013e611920565b606091505b509150915081801561194a57508051158061194a57508080602001905181019061194a9190611de8565b6112355760405162461bcd60e51b81526020600482015260146024820152731514905394d1915497d19493d357d1905253115160621b60448201526064016106fc565b6119978282610f51565b6119c65760405163e2517d3f60e01b81526001600160a01b0382166004820152602481018390526044016106fc565b5050565b5f602082840312156119da575f80fd5b81356001600160e01b0319811681146119f1575f80fd5b9392505050565b6001600160a01b038116811461090c575f80fd5b5f805f805f805f60e0888a031215611a22575f80fd5b8735611a2d816119f8565b96506020880135611a3d816119f8565b95506040880135611a4d816119f8565b969995985095966060810135965060808101359560a0820135955060c0909101359350915050565b5f60208284031215611a85575f80fd5b81356119f1816119f8565b5f60208284031215611aa0575f80fd5b5035919050565b5f8060408385031215611ab8575f80fd5b823591506020830135611aca816119f8565b809150509250929050565b5f805f805f60a08688031215611ae9575f80fd5b8535611af4816119f8565b97602087013597506040870135966060810135965060800135945092505050565b5f805f805f8060c08789031215611b2a575f80fd5b8635611b35816119f8565b95506020870135611b45816119f8565b94506040870135611b55816119f8565b959894975094956060810135955060808101359460a0909101359350915050565b5f805f805f805f805f806101408b8d031215611b90575f80fd5b8a35611b9b816119f8565b995060208b0135611bab816119f8565b985060408b0135611bbb816119f8565b975060608b0135611bcb816119f8565b999c989b50969960808101359860a0820135985060c0820135975060e082013596506101008201359550610120909101359350915050565b5f805f805f8060c08789031215611c18575f80fd5b8635611c23816119f8565b9860208801359850604088013597606081013597506080810135965060a00135945092505050565b6020808252602d908201527f4c3246573a2066756e6374696f6e2063616e206f6e6c792062652063616c6c6560408201526c642066726f6d20616e20454f4160981b606082015260800190565b60208082526019908201527f696e70757420616d6f756e74206e656564206e6f6e5a65726f00000000000000604082015260600190565b958652602086019490945260408501929092526001600160a01b03908116606085015290811660808401521660a082015260c00190565b6001600160a01b039a8b168152988a1660208a01529689166040890152949097166060870152608086019290925260a085015260c084015260e08301939093526101008201929092526101208101919091526101400190565b60208082526022908201527f41636365737369626c653a2043616c6c6572206973206e6f7420616e2061646d60408201526134b760f11b606082015260800190565b5f60208284031215611db1575f80fd5b81516119f1816119f8565b5f82515f5b81811015611ddb5760208186018101518583015201611dc1565b505f920191825250919050565b5f60208284031215611df8575f80fd5b815180151581146119f1575f80fdfedf8b4c520ffe197c5343c6f5aec59570151ef9a492f2c624fd45ddde6135ec42a2646970667358221220261b732418c75bfb722a2565de30c63dc73532e84290f457603a637731c5778864736f6c63430008180033",
			"opcodes": "PUSH1 0x80 PUSH1 0x40 MSTORE CALLVALUE DUP1 ISZERO PUSH2 0xF JUMPI PUSH0 DUP1 REVERT JUMPDEST POP PUSH1 0x1 PUSH1 0xB SSTORE PUSH2 0x1E5D DUP1 PUSH2 0x22 PUSH0 CODECOPY PUSH0 RETURN INVALID PUSH1 0x80 PUSH1 0x40 MSTORE PUSH1 0x4 CALLDATASIZE LT PUSH2 0x1BA JUMPI PUSH0 CALLDATALOAD PUSH1 0xE0 SHR DUP1 PUSH4 0x70480275 GT PUSH2 0xF2 JUMPI DUP1 PUSH4 0xB911135F GT PUSH2 0x92 JUMPI DUP1 PUSH4 0xE59F69C2 GT PUSH2 0x62 JUMPI DUP1 PUSH4 0xE59F69C2 EQ PUSH2 0x536 JUMPI DUP1 PUSH4 0xEE976AB4 EQ PUSH2 0x595 JUMPI DUP1 PUSH4 0xF43B3613 EQ PUSH2 0x5A8 JUMPI DUP1 PUSH4 0xF5869C2F EQ PUSH2 0x5C7 JUMPI PUSH0 DUP1 REVERT JUMPDEST DUP1 PUSH4 0xB911135F EQ PUSH2 0x4A5 JUMPI DUP1 PUSH4 0xC8B8E35E EQ PUSH2 0x4D9 JUMPI DUP1 PUSH4 0xD547741F EQ PUSH2 0x4F8 JUMPI DUP1 PUSH4 0xDF2CCDBF EQ PUSH2 0x517 JUMPI PUSH0 DUP1 REVERT JUMPDEST DUP1 PUSH4 0x7F02944F GT PUSH2 0xCD JUMPI DUP1 PUSH4 0x7F02944F EQ PUSH2 0x43F JUMPI DUP1 PUSH4 0x91D14854 EQ PUSH2 0x45E JUMPI DUP1 PUSH4 0xA1E89AEC EQ PUSH2 0x47D JUMPI DUP1 PUSH4 0xA217FDDF EQ PUSH2 0x492 JUMPI PUSH0 DUP1 REVERT JUMPDEST DUP1 PUSH4 0x70480275 EQ PUSH2 0x3E1 JUMPI DUP1 PUSH4 0x75829DEF EQ PUSH2 0x400 JUMPI DUP1 PUSH4 0x75B238FC EQ PUSH2 0x41F JUMPI PUSH0 DUP1 REVERT JUMPDEST DUP1 PUSH4 0x2F2FF15D GT PUSH2 0x15D JUMPI DUP1 PUSH4 0x550D01A3 GT PUSH2 0x138 JUMPI DUP1 PUSH4 0x550D01A3 EQ PUSH2 0x35D JUMPI DUP1 PUSH4 0x63A8FD89 EQ PUSH2 0x38B JUMPI DUP1 PUSH4 0x6C790D54 EQ PUSH2 0x3A3 JUMPI DUP1 PUSH4 0x6DD897C7 EQ PUSH2 0x3C2 JUMPI PUSH0 DUP1 REVERT JUMPDEST DUP1 PUSH4 0x2F2FF15D EQ PUSH2 0x2EB JUMPI DUP1 PUSH4 0x36568ABE EQ PUSH2 0x30A JUMPI DUP1 PUSH4 0x50D2A276 EQ PUSH2 0x329 JUMPI PUSH0 DUP1 REVERT JUMPDEST DUP1 PUSH4 0x1785F53C GT PUSH2 0x198 JUMPI DUP1 PUSH4 0x1785F53C EQ PUSH2 0x23E JUMPI DUP1 PUSH4 0x22985246 EQ PUSH2 0x25D JUMPI DUP1 PUSH4 0x248A9CA3 EQ PUSH2 0x29E JUMPI DUP1 PUSH4 0x24D7806C EQ PUSH2 0x2CC JUMPI PUSH0 DUP1 REVERT JUMPDEST DUP1 PUSH4 0x1FFC9A7 EQ PUSH2 0x1BE JUMPI DUP1 PUSH4 0x1037BE21 EQ PUSH2 0x1F2 JUMPI DUP1 PUSH4 0x16E01724 EQ PUSH2 0x207 JUMPI JUMPDEST PUSH0 DUP1 REVERT JUMPDEST CALLVALUE DUP1 ISZERO PUSH2 0x1C9 JUMPI PUSH0 DUP1 REVERT JUMPDEST POP PUSH2 0x1DD PUSH2 0x1D8 CALLDATASIZE PUSH1 0x4 PUSH2 0x19CA JUMP JUMPDEST PUSH2 0x6A7 JUMP JUMPDEST PUSH1 0x40 MLOAD SWAP1 ISZERO ISZERO DUP2 MSTORE PUSH1 0x20 ADD JUMPDEST PUSH1 0x40 MLOAD DUP1 SWAP2 SUB SWAP1 RETURN JUMPDEST PUSH2 0x205 PUSH2 0x200 CALLDATASIZE PUSH1 0x4 PUSH2 0x1A0C JUMP JUMPDEST PUSH2 0x6DD JUMP JUMPDEST STOP JUMPDEST CALLVALUE DUP1 ISZERO PUSH2 0x212 JUMPI PUSH0 DUP1 REVERT JUMPDEST POP PUSH1 0x6 SLOAD PUSH2 0x226 SWAP1 PUSH1 0x1 PUSH1 0x1 PUSH1 0xA0 SHL SUB AND DUP2 JUMP JUMPDEST PUSH1 0x40 MLOAD PUSH1 0x1 PUSH1 0x1 PUSH1 0xA0 SHL SUB SWAP1 SWAP2 AND DUP2 MSTORE PUSH1 0x20 ADD PUSH2 0x1E9 JUMP JUMPDEST CALLVALUE DUP1 ISZERO PUSH2 0x249 JUMPI PUSH0 DUP1 REVERT JUMPDEST POP PUSH2 0x205 PUSH2 0x258 CALLDATASIZE PUSH1 0x4 PUSH2 0x1A75 JUMP JUMPDEST PUSH2 0x8D0 JUMP JUMPDEST CALLVALUE DUP1 ISZERO PUSH2 0x268 JUMPI PUSH0 DUP1 REVERT JUMPDEST POP PUSH2 0x290 PUSH32 0xFB5864E8FF833C3CB2D2D08505E82FF02A43554C74A35D4F5A64E85261278311 DUP2 JUMP JUMPDEST PUSH1 0x40 MLOAD SWAP1 DUP2 MSTORE PUSH1 0x20 ADD PUSH2 0x1E9 JUMP JUMPDEST CALLVALUE DUP1 ISZERO PUSH2 0x2A9 JUMPI PUSH0 DUP1 REVERT JUMPDEST POP PUSH2 0x290 PUSH2 0x2B8 CALLDATASIZE PUSH1 0x4 PUSH2 0x1A90 JUMP JUMPDEST PUSH0 SWAP1 DUP2 MSTORE PUSH1 0x4 PUSH1 0x20 MSTORE PUSH1 0x40 SWAP1 KECCAK256 PUSH1 0x1 ADD SLOAD SWAP1 JUMP JUMPDEST CALLVALUE DUP1 ISZERO PUSH2 0x2D7 JUMPI PUSH0 DUP1 REVERT JUMPDEST POP PUSH2 0x1DD PUSH2 0x2E6 CALLDATASIZE PUSH1 0x4 PUSH2 0x1A75 JUMP JUMPDEST PUSH2 0x90F JUMP JUMPDEST CALLVALUE DUP1 ISZERO PUSH2 0x2F6 JUMPI PUSH0 DUP1 REVERT JUMPDEST POP PUSH2 0x205 PUSH2 0x305 CALLDATASIZE PUSH1 0x4 PUSH2 0x1AA7 JUMP JUMPDEST PUSH2 0x927 JUMP JUMPDEST CALLVALUE DUP1 ISZERO PUSH2 0x315 JUMPI PUSH0 DUP1 REVERT JUMPDEST POP PUSH2 0x205 PUSH2 0x324 CALLDATASIZE PUSH1 0x4 PUSH2 0x1AA7 JUMP JUMPDEST PUSH2 0x951 JUMP JUMPDEST CALLVALUE DUP1 ISZERO PUSH2 0x334 JUMPI PUSH0 DUP1 REVERT JUMPDEST POP PUSH2 0x226 PUSH2 0x343 CALLDATASIZE PUSH1 0x4 PUSH2 0x19CA JUMP JUMPDEST PUSH1 0x3 PUSH1 0x20 MSTORE PUSH0 SWAP1 DUP2 MSTORE PUSH1 0x40 SWAP1 KECCAK256 SLOAD PUSH1 0x1 PUSH1 0x1 PUSH1 0xA0 SHL SUB AND DUP2 JUMP JUMPDEST CALLVALUE DUP1 ISZERO PUSH2 0x368 JUMPI PUSH0 DUP1 REVERT JUMPDEST POP PUSH2 0x1DD PUSH2 0x377 CALLDATASIZE PUSH1 0x4 PUSH2 0x1A75 JUMP JUMPDEST PUSH1 0x2 PUSH1 0x20 MSTORE PUSH0 SWAP1 DUP2 MSTORE PUSH1 0x40 SWAP1 KECCAK256 SLOAD PUSH1 0xFF AND DUP2 JUMP JUMPDEST CALLVALUE DUP1 ISZERO PUSH2 0x396 JUMPI PUSH0 DUP1 REVERT JUMPDEST POP PUSH0 SLOAD PUSH2 0x1DD SWAP1 PUSH1 0xFF AND DUP2 JUMP JUMPDEST CALLVALUE DUP1 ISZERO PUSH2 0x3AE JUMPI PUSH0 DUP1 REVERT JUMPDEST POP PUSH2 0x205 PUSH2 0x3BD CALLDATASIZE PUSH1 0x4 PUSH2 0x1AD5 JUMP JUMPDEST PUSH2 0x989 JUMP JUMPDEST CALLVALUE DUP1 ISZERO PUSH2 0x3CD JUMPI PUSH0 DUP1 REVERT JUMPDEST POP PUSH2 0x205 PUSH2 0x3DC CALLDATASIZE PUSH1 0x4 PUSH2 0x1B15 JUMP JUMPDEST PUSH2 0xD02 JUMP JUMPDEST CALLVALUE DUP1 ISZERO PUSH2 0x3EC JUMPI PUSH0 DUP1 REVERT JUMPDEST POP PUSH2 0x205 PUSH2 0x3FB CALLDATASIZE PUSH1 0x4 PUSH2 0x1A75 JUMP JUMPDEST PUSH2 0xDD1 JUMP JUMPDEST CALLVALUE DUP1 ISZERO PUSH2 0x40B JUMPI PUSH0 DUP1 REVERT JUMPDEST POP PUSH2 0x205 PUSH2 0x41A CALLDATASIZE PUSH1 0x4 PUSH2 0x1A75 JUMP JUMPDEST PUSH2 0xE0D JUMP JUMPDEST CALLVALUE DUP1 ISZERO PUSH2 0x42A JUMPI PUSH0 DUP1 REVERT JUMPDEST POP PUSH2 0x290 PUSH0 DUP1 MLOAD PUSH1 0x20 PUSH2 0x1E08 DUP4 CODECOPY DUP2 MLOAD SWAP2 MSTORE DUP2 JUMP JUMPDEST CALLVALUE DUP1 ISZERO PUSH2 0x44A JUMPI PUSH0 DUP1 REVERT JUMPDEST POP PUSH2 0x290 PUSH2 0x459 CALLDATASIZE PUSH1 0x4 PUSH2 0x1B76 JUMP JUMPDEST PUSH2 0xF07 JUMP JUMPDEST CALLVALUE DUP1 ISZERO PUSH2 0x469 JUMPI PUSH0 DUP1 REVERT JUMPDEST POP PUSH2 0x1DD PUSH2 0x478 CALLDATASIZE PUSH1 0x4 PUSH2 0x1AA7 JUMP JUMPDEST PUSH2 0xF51 JUMP JUMPDEST CALLVALUE DUP1 ISZERO PUSH2 0x488 JUMPI PUSH0 DUP1 REVERT JUMPDEST POP PUSH2 0x290 PUSH1 0x7 SLOAD DUP2 JUMP JUMPDEST CALLVALUE DUP1 ISZERO PUSH2 0x49D JUMPI PUSH0 DUP1 REVERT JUMPDEST POP PUSH2 0x290 PUSH0 DUP2 JUMP JUMPDEST CALLVALUE DUP1 ISZERO PUSH2 0x4B0 JUMPI PUSH0 DUP1 REVERT JUMPDEST POP PUSH2 0x226 PUSH2 0x4BF CALLDATASIZE PUSH1 0x4 PUSH2 0x1A90 JUMP JUMPDEST PUSH1 0x1 PUSH1 0x20 MSTORE PUSH0 SWAP1 DUP2 MSTORE PUSH1 0x40 SWAP1 KECCAK256 SLOAD PUSH1 0x1 PUSH1 0x1 PUSH1 0xA0 SHL SUB AND DUP2 JUMP JUMPDEST CALLVALUE DUP1 ISZERO PUSH2 0x4E4 JUMPI PUSH0 DUP1 REVERT JUMPDEST POP PUSH2 0x205 PUSH2 0x4F3 CALLDATASIZE PUSH1 0x4 PUSH2 0x1C03 JUMP JUMPDEST PUSH2 0xF7B JUMP JUMPDEST CALLVALUE DUP1 ISZERO PUSH2 0x503 JUMPI PUSH0 DUP1 REVERT JUMPDEST POP PUSH2 0x205 PUSH2 0x512 CALLDATASIZE PUSH1 0x4 PUSH2 0x1AA7 JUMP JUMPDEST PUSH2 0x123D JUMP JUMPDEST CALLVALUE DUP1 ISZERO PUSH2 0x522 JUMPI PUSH0 DUP1 REVERT JUMPDEST POP PUSH2 0x205 PUSH2 0x531 CALLDATASIZE PUSH1 0x4 PUSH2 0x1B15 JUMP JUMPDEST PUSH2 0x1261 JUMP JUMPDEST CALLVALUE DUP1 ISZERO PUSH2 0x541 JUMPI PUSH0 DUP1 REVERT JUMPDEST POP PUSH2 0x575 PUSH2 0x550 CALLDATASIZE PUSH1 0x4 PUSH2 0x1A90 JUMP JUMPDEST PUSH1 0xA PUSH1 0x20 MSTORE PUSH0 SWAP1 DUP2 MSTORE PUSH1 0x40 SWAP1 KECCAK256 DUP1 SLOAD PUSH1 0x1 SWAP1 SWAP2 ADD SLOAD PUSH1 0x1 PUSH1 0x1 PUSH1 0xA0 SHL SUB SWAP2 DUP3 AND SWAP2 AND DUP3 JUMP JUMPDEST PUSH1 0x40 DUP1 MLOAD PUSH1 0x1 PUSH1 0x1 PUSH1 0xA0 SHL SUB SWAP4 DUP5 AND DUP2 MSTORE SWAP3 SWAP1 SWAP2 AND PUSH1 0x20 DUP4 ADD MSTORE ADD PUSH2 0x1E9 JUMP JUMPDEST PUSH2 0x205 PUSH2 0x5A3 CALLDATASIZE PUSH1 0x4 PUSH2 0x1A0C JUMP JUMPDEST PUSH2 0x1331 JUMP JUMPDEST CALLVALUE DUP1 ISZERO PUSH2 0x5B3 JUMPI PUSH0 DUP1 REVERT JUMPDEST POP PUSH1 0x5 SLOAD PUSH2 0x226 SWAP1 PUSH1 0x1 PUSH1 0x1 PUSH1 0xA0 SHL SUB AND DUP2 JUMP JUMPDEST CALLVALUE DUP1 ISZERO PUSH2 0x5D2 JUMPI PUSH0 DUP1 REVERT JUMPDEST POP PUSH2 0x646 PUSH2 0x5E1 CALLDATASIZE PUSH1 0x4 PUSH2 0x1A90 JUMP JUMPDEST PUSH1 0x8 PUSH1 0x20 DUP2 SWAP1 MSTORE PUSH0 SWAP2 DUP3 MSTORE PUSH1 0x40 SWAP1 SWAP2 KECCAK256 DUP1 SLOAD PUSH1 0x1 DUP3 ADD SLOAD PUSH1 0x2 DUP4 ADD SLOAD PUSH1 0x3 DUP5 ADD SLOAD PUSH1 0x4 DUP6 ADD SLOAD PUSH1 0x5 DUP7 ADD SLOAD PUSH1 0x6 DUP8 ADD SLOAD PUSH1 0x7 DUP9 ADD SLOAD SWAP9 DUP9 ADD SLOAD PUSH1 0x9 SWAP1 SWAP9 ADD SLOAD PUSH1 0x1 PUSH1 0x1 PUSH1 0xA0 SHL SUB SWAP8 DUP9 AND SWAP10 SWAP7 DUP9 AND SWAP9 SWAP6 DUP9 AND SWAP8 SWAP5 DUP6 AND SWAP7 SWAP4 SWAP1 SWAP5 AND SWAP5 SWAP2 SWAP4 SWAP1 SWAP3 SWAP2 SWAP1 DUP11 JUMP JUMPDEST PUSH1 0x40 DUP1 MLOAD PUSH1 0x1 PUSH1 0x1 PUSH1 0xA0 SHL SUB SWAP12 DUP13 AND DUP2 MSTORE SWAP10 DUP12 AND PUSH1 0x20 DUP12 ADD MSTORE SWAP8 DUP11 AND SWAP8 DUP10 ADD SWAP8 SWAP1 SWAP8 MSTORE SWAP5 DUP9 AND PUSH1 0x60 DUP9 ADD MSTORE SWAP7 SWAP1 SWAP3 AND PUSH1 0x80 DUP7 ADD MSTORE PUSH1 0xA0 DUP6 ADD MSTORE PUSH1 0xC0 DUP5 ADD MSTORE PUSH1 0xE0 DUP4 ADD SWAP4 SWAP1 SWAP4 MSTORE PUSH2 0x100 DUP3 ADD SWAP3 SWAP1 SWAP3 MSTORE PUSH2 0x120 DUP2 ADD SWAP2 SWAP1 SWAP2 MSTORE PUSH2 0x140 ADD PUSH2 0x1E9 JUMP JUMPDEST PUSH0 PUSH1 0x1 PUSH1 0x1 PUSH1 0xE0 SHL SUB NOT DUP3 AND PUSH4 0x7965DB0B PUSH1 0xE0 SHL EQ DUP1 PUSH2 0x6D7 JUMPI POP PUSH4 0x1FFC9A7 PUSH1 0xE0 SHL PUSH1 0x1 PUSH1 0x1 PUSH1 0xE0 SHL SUB NOT DUP4 AND EQ JUMPDEST SWAP3 SWAP2 POP POP JUMP JUMPDEST CALLER ORIGIN EQ PUSH2 0x705 JUMPI PUSH1 0x40 MLOAD PUSH3 0x461BCD PUSH1 0xE5 SHL DUP2 MSTORE PUSH1 0x4 ADD PUSH2 0x6FC SWAP1 PUSH2 0x1C4B JUMP JUMPDEST PUSH1 0x40 MLOAD DUP1 SWAP2 SUB SWAP1 REVERT JUMPDEST DUP4 PUSH0 DUP2 GT PUSH2 0x725 JUMPI PUSH1 0x40 MLOAD PUSH3 0x461BCD PUSH1 0xE5 SHL DUP2 MSTORE PUSH1 0x4 ADD PUSH2 0x6FC SWAP1 PUSH2 0x1C98 JUMP JUMPDEST DUP4 PUSH0 DUP2 GT PUSH2 0x745 JUMPI PUSH1 0x40 MLOAD PUSH3 0x461BCD PUSH1 0xE5 SHL DUP2 MSTORE PUSH1 0x4 ADD PUSH2 0x6FC SWAP1 PUSH2 0x1C98 JUMP JUMPDEST PUSH2 0x74D PUSH2 0x1416 JUMP JUMPDEST PUSH1 0x40 MLOAD CHAINID SWAP1 PUSH0 SWAP1 PUSH2 0x76C SWAP1 DUP8 SWAP1 DUP5 SWAP1 DUP9 SWAP1 DUP16 SWAP1 DUP16 SWAP1 DUP16 SWAP1 PUSH1 0x20 ADD PUSH2 0x1CCF JUMP JUMPDEST PUSH1 0x40 DUP1 MLOAD PUSH1 0x1F NOT DUP2 DUP5 SUB ADD DUP2 MSTORE SWAP2 DUP2 MSTORE DUP2 MLOAD PUSH1 0x20 SWAP3 DUP4 ADD KECCAK256 PUSH0 DUP2 DUP2 MSTORE PUSH1 0x9 SWAP1 SWAP4 MSTORE SWAP2 KECCAK256 SLOAD SWAP1 SWAP2 POP PUSH1 0xFF AND ISZERO ISZERO PUSH1 0x1 EQ PUSH2 0x7DC JUMPI PUSH1 0x40 MLOAD PUSH3 0x461BCD PUSH1 0xE5 SHL DUP2 MSTORE PUSH1 0x20 PUSH1 0x4 DUP3 ADD MSTORE PUSH1 0x12 PUSH1 0x24 DUP3 ADD MSTORE PUSH18 0x3737BA103932B3B4B9BA32B9103A37B5B2B7 PUSH1 0x71 SHL PUSH1 0x44 DUP3 ADD MSTORE PUSH1 0x64 ADD PUSH2 0x6FC JUMP JUMPDEST DUP7 DUP9 LT ISZERO PUSH2 0x848 JUMPI PUSH1 0x40 MLOAD PUSH3 0x461BCD PUSH1 0xE5 SHL DUP2 MSTORE PUSH1 0x20 PUSH1 0x4 DUP3 ADD MSTORE PUSH1 0x33 PUSH1 0x24 DUP3 ADD MSTORE PUSH32 0x54686520746F74616C416D6F756E742076616C7565206D757374206265206772 PUSH1 0x44 DUP3 ADD MSTORE PUSH19 0x19585D195C881D1A185B8818DD105B5BDD5B9D PUSH1 0x6A SHL PUSH1 0x64 DUP3 ADD MSTORE PUSH1 0x84 ADD PUSH2 0x6FC JUMP JUMPDEST PUSH1 0x7 PUSH0 DUP2 SLOAD PUSH1 0x1 ADD SWAP2 SWAP1 POP DUP2 SWAP1 SSTORE POP PUSH0 PUSH2 0x86A DUP13 DUP13 DUP13 DUP13 DUP13 PUSH1 0x7 SLOAD DUP14 DUP14 PUSH2 0x1440 JUMP JUMPDEST SWAP1 POP PUSH1 0x7 SLOAD PUSH32 0xF58A3EB43CE8649BC1CFB2014001A2BF5A73AB4E3DF0F0F76CE5F2D1B390D3D9 DUP14 DUP14 DUP14 CALLER DUP15 DUP15 DUP15 DUP12 DUP16 DUP12 PUSH1 0x40 MLOAD PUSH2 0x8B0 SWAP11 SWAP10 SWAP9 SWAP8 SWAP7 SWAP6 SWAP5 SWAP4 SWAP3 SWAP2 SWAP1 PUSH2 0x1D06 JUMP JUMPDEST PUSH1 0x40 MLOAD DUP1 SWAP2 SUB SWAP1 LOG2 POP POP POP PUSH2 0x8C5 PUSH1 0x1 PUSH1 0xB SSTORE JUMP JUMPDEST POP POP POP POP POP POP POP POP POP JUMP JUMPDEST PUSH2 0x8D9 CALLER PUSH2 0x90F JUMP JUMPDEST PUSH2 0x8F5 JUMPI PUSH1 0x40 MLOAD PUSH3 0x461BCD PUSH1 0xE5 SHL DUP2 MSTORE PUSH1 0x4 ADD PUSH2 0x6FC SWAP1 PUSH2 0x1D5F JUMP JUMPDEST PUSH2 0x90C PUSH0 DUP1 MLOAD PUSH1 0x20 PUSH2 0x1E08 DUP4 CODECOPY DUP2 MLOAD SWAP2 MSTORE DUP3 PUSH2 0x951 JUMP JUMPDEST POP JUMP JUMPDEST PUSH0 PUSH2 0x6D7 PUSH0 DUP1 MLOAD PUSH1 0x20 PUSH2 0x1E08 DUP4 CODECOPY DUP2 MLOAD SWAP2 MSTORE DUP4 PUSH2 0xF51 JUMP JUMPDEST PUSH0 DUP3 DUP2 MSTORE PUSH1 0x4 PUSH1 0x20 MSTORE PUSH1 0x40 SWAP1 KECCAK256 PUSH1 0x1 ADD SLOAD PUSH2 0x941 DUP2 PUSH2 0x1678 JUMP JUMPDEST PUSH2 0x94B DUP4 DUP4 PUSH2 0x1682 JUMP JUMPDEST POP POP POP POP JUMP JUMPDEST PUSH1 0x1 PUSH1 0x1 PUSH1 0xA0 SHL SUB DUP2 AND CALLER EQ PUSH2 0x97A JUMPI PUSH1 0x40 MLOAD PUSH4 0x334BD919 PUSH1 0xE1 SHL DUP2 MSTORE PUSH1 0x4 ADD PUSH1 0x40 MLOAD DUP1 SWAP2 SUB SWAP1 REVERT JUMPDEST PUSH2 0x984 DUP3 DUP3 PUSH2 0x1713 JUMP JUMPDEST POP POP POP JUMP JUMPDEST PUSH2 0x991 PUSH2 0x1416 JUMP JUMPDEST PUSH1 0x5 SLOAD DUP4 SWAP1 PUSH1 0x1 PUSH1 0x1 PUSH1 0xA0 SHL SUB AND CALLER EQ DUP1 ISZERO PUSH2 0xA2E JUMPI POP PUSH0 DUP2 DUP2 MSTORE PUSH1 0xA PUSH1 0x20 SWAP1 DUP2 MSTORE PUSH1 0x40 SWAP2 DUP3 SWAP1 KECCAK256 SLOAD PUSH1 0x5 SLOAD DUP4 MLOAD PUSH4 0x6E296E45 PUSH1 0xE0 SHL DUP2 MSTORE SWAP4 MLOAD PUSH1 0x1 PUSH1 0x1 PUSH1 0xA0 SHL SUB SWAP3 DUP4 AND SWAP5 SWAP2 SWAP1 SWAP3 AND SWAP3 PUSH4 0x6E296E45 SWAP3 PUSH1 0x4 DUP1 DUP5 ADD SWAP4 DUP3 SWAP1 SUB ADD DUP2 DUP7 GAS STATICCALL ISZERO DUP1 ISZERO PUSH2 0x9FF JUMPI RETURNDATASIZE PUSH0 DUP1 RETURNDATACOPY RETURNDATASIZE PUSH0 REVERT JUMPDEST POP POP POP POP PUSH1 0x40 MLOAD RETURNDATASIZE PUSH1 0x1F NOT PUSH1 0x1F DUP3 ADD AND DUP3 ADD DUP1 PUSH1 0x40 MSTORE POP DUP2 ADD SWAP1 PUSH2 0xA23 SWAP2 SWAP1 PUSH2 0x1DA1 JUMP JUMPDEST PUSH1 0x1 PUSH1 0x1 PUSH1 0xA0 SHL SUB AND EQ JUMPDEST PUSH2 0xA75 JUMPI PUSH1 0x40 MLOAD PUSH3 0x461BCD PUSH1 0xE5 SHL DUP2 MSTORE PUSH1 0x20 PUSH1 0x4 DUP3 ADD MSTORE PUSH1 0x18 PUSH1 0x24 DUP3 ADD MSTORE PUSH24 0x6F6E6C792063616C6C206C31466173745769746864726177 PUSH1 0x40 SHL PUSH1 0x44 DUP3 ADD MSTORE PUSH1 0x64 ADD PUSH2 0x6FC JUMP JUMPDEST PUSH0 DUP6 DUP2 MSTORE PUSH1 0x8 PUSH1 0x20 MSTORE PUSH1 0x40 SWAP1 KECCAK256 PUSH1 0x4 ADD SLOAD DUP6 SWAP1 PUSH1 0x1 PUSH1 0x1 PUSH1 0xA0 SHL SUB AND ISZERO PUSH2 0xACD JUMPI PUSH1 0x40 MLOAD PUSH3 0x461BCD PUSH1 0xE5 SHL DUP2 MSTORE PUSH1 0x20 PUSH1 0x4 DUP3 ADD MSTORE PUSH1 0xC PUSH1 0x24 DUP3 ADD MSTORE PUSH12 0x185B1C9958591E481CDBDB19 PUSH1 0xA2 SHL PUSH1 0x44 DUP3 ADD MSTORE PUSH1 0x64 ADD PUSH2 0x6FC JUMP JUMPDEST PUSH0 DUP7 DUP2 MSTORE PUSH1 0x8 PUSH1 0x20 MSTORE PUSH1 0x40 SWAP1 KECCAK256 PUSH1 0x3 ADD SLOAD PUSH1 0x1 PUSH1 0x1 PUSH1 0xA0 SHL SUB DUP9 DUP2 AND SWAP2 AND EQ PUSH2 0xB2A JUMPI PUSH1 0x40 MLOAD PUSH3 0x461BCD PUSH1 0xE5 SHL DUP2 MSTORE PUSH1 0x20 PUSH1 0x4 DUP3 ADD MSTORE PUSH1 0xF PUSH1 0x24 DUP3 ADD MSTORE PUSH15 0x3CB7BAB9103737BA1039B2B63632B9 PUSH1 0x89 SHL PUSH1 0x44 DUP3 ADD MSTORE PUSH1 0x64 ADD PUSH2 0x6FC JUMP JUMPDEST PUSH0 DUP7 DUP2 MSTORE PUSH1 0x8 PUSH1 0x20 MSTORE PUSH1 0x40 SWAP1 KECCAK256 PUSH1 0x9 ADD SLOAD DUP4 EQ PUSH2 0xB84 JUMPI PUSH1 0x40 MLOAD PUSH3 0x461BCD PUSH1 0xE5 SHL DUP2 MSTORE PUSH1 0x20 PUSH1 0x4 DUP3 ADD MSTORE PUSH1 0x18 PUSH1 0x24 DUP3 ADD MSTORE PUSH24 0x90C2E6D040ECC2D8EACAE640C8DE40DCDEE840DAC2E8C6D PUSH1 0x43 SHL PUSH1 0x44 DUP3 ADD MSTORE PUSH1 0x64 ADD PUSH2 0x6FC JUMP JUMPDEST PUSH0 DUP7 DUP2 MSTORE PUSH1 0x8 PUSH1 0x20 MSTORE PUSH1 0x40 SWAP1 KECCAK256 PUSH1 0x4 DUP2 ADD DUP1 SLOAD PUSH1 0x1 PUSH1 0x1 PUSH1 0xA0 SHL SUB NOT AND PUSH1 0x1 PUSH1 0x1 PUSH1 0xA0 SHL SUB DUP11 DUP2 AND SWAP2 SWAP1 SWAP2 OR SWAP1 SWAP2 SSTORE PUSH1 0x5 DUP3 ADD SLOAD PUSH1 0x6 SLOAD PUSH1 0x1 SWAP1 SWAP4 ADD SLOAD SWAP1 SWAP3 DUP3 AND SWAP2 AND SUB PUSH2 0xC66 JUMPI PUSH0 DUP9 PUSH1 0x1 PUSH1 0x1 PUSH1 0xA0 SHL SUB AND DUP3 PUSH1 0x40 MLOAD PUSH0 PUSH1 0x40 MLOAD DUP1 DUP4 SUB DUP2 DUP6 DUP8 GAS CALL SWAP3 POP POP POP RETURNDATASIZE DUP1 PUSH0 DUP2 EQ PUSH2 0xC15 JUMPI PUSH1 0x40 MLOAD SWAP2 POP PUSH1 0x1F NOT PUSH1 0x3F RETURNDATASIZE ADD AND DUP3 ADD PUSH1 0x40 MSTORE RETURNDATASIZE DUP3 MSTORE RETURNDATASIZE PUSH0 PUSH1 0x20 DUP5 ADD RETURNDATACOPY PUSH2 0xC1A JUMP JUMPDEST PUSH1 0x60 SWAP2 POP JUMPDEST POP POP SWAP1 POP DUP1 PUSH2 0xC60 JUMPI PUSH1 0x40 MLOAD PUSH3 0x461BCD PUSH1 0xE5 SHL DUP2 MSTORE PUSH1 0x20 PUSH1 0x4 DUP3 ADD MSTORE PUSH1 0x12 PUSH1 0x24 DUP3 ADD MSTORE PUSH18 0x18D85B98D95B081C99599D5B990819985A5B PUSH1 0x72 SHL PUSH1 0x44 DUP3 ADD MSTORE PUSH1 0x64 ADD PUSH2 0x6FC JUMP JUMPDEST POP PUSH2 0xC8B JUMP JUMPDEST PUSH0 DUP8 DUP2 MSTORE PUSH1 0x8 PUSH1 0x20 MSTORE PUSH1 0x40 SWAP1 KECCAK256 PUSH1 0x1 ADD SLOAD PUSH2 0xC8B SWAP1 PUSH1 0x1 PUSH1 0x1 PUSH1 0xA0 SHL SUB AND DUP10 DUP4 PUSH2 0x177E JUMP JUMPDEST PUSH1 0x40 DUP1 MLOAD PUSH1 0x1 PUSH1 0x1 PUSH1 0xA0 SHL SUB DUP11 AND DUP2 MSTORE PUSH1 0x20 DUP2 ADD DUP4 SWAP1 MSTORE DUP1 DUP3 ADD DUP9 SWAP1 MSTORE CHAINID PUSH1 0x60 DUP3 ADD DUP2 SWAP1 MSTORE PUSH1 0x80 DUP3 ADD DUP9 SWAP1 MSTORE PUSH1 0xA0 DUP3 ADD DUP8 SWAP1 MSTORE SWAP2 MLOAD DUP10 SWAP2 PUSH32 0xFF2934C52F646A47CAC1F95449DFDA335ED35C7D2296FD4A988A2227FA0378AA SWAP2 SWAP1 DUP2 SWAP1 SUB PUSH1 0xC0 ADD SWAP1 LOG2 POP POP POP POP PUSH2 0xCFB PUSH1 0x1 PUSH1 0xB SSTORE JUMP JUMPDEST POP POP POP POP POP JUMP JUMPDEST PUSH2 0xD0B CALLER PUSH2 0x90F JUMP JUMPDEST PUSH2 0xD27 JUMPI PUSH1 0x40 MLOAD PUSH3 0x461BCD PUSH1 0xE5 SHL DUP2 MSTORE PUSH1 0x4 ADD PUSH2 0x6FC SWAP1 PUSH2 0x1D5F JUMP JUMPDEST PUSH0 DUP4 DUP4 DUP4 DUP10 DUP10 DUP10 PUSH1 0x40 MLOAD PUSH1 0x20 ADD PUSH2 0xD43 SWAP7 SWAP6 SWAP5 SWAP4 SWAP3 SWAP2 SWAP1 PUSH2 0x1CCF JUMP JUMPDEST PUSH1 0x40 DUP1 MLOAD PUSH1 0x1F NOT DUP2 DUP5 SUB ADD DUP2 MSTORE SWAP2 DUP2 MSTORE DUP2 MLOAD PUSH1 0x20 SWAP3 DUP4 ADD KECCAK256 PUSH0 DUP2 DUP2 MSTORE PUSH1 0x9 SWAP1 SWAP4 MSTORE SWAP1 DUP3 KECCAK256 SLOAD SWAP1 SWAP3 POP PUSH1 0xFF AND ISZERO ISZERO SWAP1 SUB PUSH2 0xDB4 JUMPI PUSH1 0x40 MLOAD PUSH3 0x461BCD PUSH1 0xE5 SHL DUP2 MSTORE PUSH1 0x20 PUSH1 0x4 DUP3 ADD MSTORE PUSH1 0x13 PUSH1 0x24 DUP3 ADD MSTORE PUSH19 0x30B63932B0B23C903232B632BA32AA37B5B2B7 PUSH1 0x69 SHL PUSH1 0x44 DUP3 ADD MSTORE PUSH1 0x64 ADD PUSH2 0x6FC JUMP JUMPDEST PUSH0 SWAP1 DUP2 MSTORE PUSH1 0x9 PUSH1 0x20 MSTORE PUSH1 0x40 SWAP1 KECCAK256 DUP1 SLOAD PUSH1 0xFF NOT AND SWAP1 SSTORE POP POP POP POP POP POP JUMP JUMPDEST PUSH2 0xDDA CALLER PUSH2 0x90F JUMP JUMPDEST PUSH2 0xDF6 JUMPI PUSH1 0x40 MLOAD PUSH3 0x461BCD PUSH1 0xE5 SHL DUP2 MSTORE PUSH1 0x4 ADD PUSH2 0x6FC SWAP1 PUSH2 0x1D5F JUMP JUMPDEST PUSH2 0x90C PUSH0 DUP1 MLOAD PUSH1 0x20 PUSH2 0x1E08 DUP4 CODECOPY DUP2 MLOAD SWAP2 MSTORE DUP3 PUSH2 0x927 JUMP JUMPDEST PUSH2 0xE16 CALLER PUSH2 0x90F JUMP JUMPDEST PUSH2 0xE32 JUMPI PUSH1 0x40 MLOAD PUSH3 0x461BCD PUSH1 0xE5 SHL DUP2 MSTORE PUSH1 0x4 ADD PUSH2 0x6FC SWAP1 PUSH2 0x1D5F JUMP JUMPDEST PUSH1 0x1 PUSH1 0x1 PUSH1 0xA0 SHL SUB DUP2 AND PUSH2 0xE88 JUMPI PUSH1 0x40 MLOAD PUSH3 0x461BCD PUSH1 0xE5 SHL DUP2 MSTORE PUSH1 0x20 PUSH1 0x4 DUP3 ADD MSTORE PUSH1 0x18 PUSH1 0x24 DUP3 ADD MSTORE PUSH32 0x41636365737369626C653A207A65726F20616464726573730000000000000000 PUSH1 0x44 DUP3 ADD MSTORE PUSH1 0x64 ADD PUSH2 0x6FC JUMP JUMPDEST PUSH1 0x1 PUSH1 0x1 PUSH1 0xA0 SHL SUB DUP2 AND CALLER SUB PUSH2 0xED9 JUMPI PUSH1 0x40 MLOAD PUSH3 0x461BCD PUSH1 0xE5 SHL DUP2 MSTORE PUSH1 0x20 PUSH1 0x4 DUP3 ADD MSTORE PUSH1 0x16 PUSH1 0x24 DUP3 ADD MSTORE PUSH22 0x20B1B1B2B9B9B4B136329D1039B0B6B29030B236B4B7 PUSH1 0x51 SHL PUSH1 0x44 DUP3 ADD MSTORE PUSH1 0x64 ADD PUSH2 0x6FC JUMP JUMPDEST PUSH2 0xEF0 PUSH0 DUP1 MLOAD PUSH1 0x20 PUSH2 0x1E08 DUP4 CODECOPY DUP2 MLOAD SWAP2 MSTORE DUP3 PUSH2 0x927 JUMP JUMPDEST PUSH2 0x90C PUSH0 DUP1 MLOAD PUSH1 0x20 PUSH2 0x1E08 DUP4 CODECOPY DUP2 MLOAD SWAP2 MSTORE CALLER PUSH2 0x951 JUMP JUMPDEST PUSH0 DUP11 DUP11 DUP11 DUP11 DUP11 DUP11 DUP11 DUP11 DUP11 DUP11 PUSH1 0x40 MLOAD PUSH1 0x20 ADD PUSH2 0xF2B SWAP11 SWAP10 SWAP9 SWAP8 SWAP7 SWAP6 SWAP5 SWAP4 SWAP3 SWAP2 SWAP1 PUSH2 0x1D06 JUMP JUMPDEST PUSH1 0x40 MLOAD PUSH1 0x20 DUP2 DUP4 SUB SUB DUP2 MSTORE SWAP1 PUSH1 0x40 MSTORE DUP1 MLOAD SWAP1 PUSH1 0x20 ADD KECCAK256 SWAP1 POP SWAP11 SWAP10 POP POP POP POP POP POP POP POP POP POP JUMP JUMPDEST PUSH0 SWAP2 DUP3 MSTORE PUSH1 0x4 PUSH1 0x20 SWAP1 DUP2 MSTORE PUSH1 0x40 DUP1 DUP5 KECCAK256 PUSH1 0x1 PUSH1 0x1 PUSH1 0xA0 SHL SUB SWAP4 SWAP1 SWAP4 AND DUP5 MSTORE SWAP2 SWAP1 MSTORE SWAP1 KECCAK256 SLOAD PUSH1 0xFF AND SWAP1 JUMP JUMPDEST PUSH2 0xF83 PUSH2 0x1416 JUMP JUMPDEST PUSH1 0x5 SLOAD DUP4 SWAP1 PUSH1 0x1 PUSH1 0x1 PUSH1 0xA0 SHL SUB AND CALLER EQ DUP1 ISZERO PUSH2 0x1020 JUMPI POP PUSH0 DUP2 DUP2 MSTORE PUSH1 0xA PUSH1 0x20 SWAP1 DUP2 MSTORE PUSH1 0x40 SWAP2 DUP3 SWAP1 KECCAK256 SLOAD PUSH1 0x5 SLOAD DUP4 MLOAD PUSH4 0x6E296E45 PUSH1 0xE0 SHL DUP2 MSTORE SWAP4 MLOAD PUSH1 0x1 PUSH1 0x1 PUSH1 0xA0 SHL SUB SWAP3 DUP4 AND SWAP5 SWAP2 SWAP1 SWAP3 AND SWAP3 PUSH4 0x6E296E45 SWAP3 PUSH1 0x4 DUP1 DUP5 ADD SWAP4 DUP3 SWAP1 SUB ADD DUP2 DUP7 GAS STATICCALL ISZERO DUP1 ISZERO PUSH2 0xFF1 JUMPI RETURNDATASIZE PUSH0 DUP1 RETURNDATACOPY RETURNDATASIZE PUSH0 REVERT JUMPDEST POP POP POP POP PUSH1 0x40 MLOAD RETURNDATASIZE PUSH1 0x1F NOT PUSH1 0x1F DUP3 ADD AND DUP3 ADD DUP1 PUSH1 0x40 MSTORE POP DUP2 ADD SWAP1 PUSH2 0x1015 SWAP2 SWAP1 PUSH2 0x1DA1 JUMP JUMPDEST PUSH1 0x1 PUSH1 0x1 PUSH1 0xA0 SHL SUB AND EQ JUMPDEST PUSH2 0x1067 JUMPI PUSH1 0x40 MLOAD PUSH3 0x461BCD PUSH1 0xE5 SHL DUP2 MSTORE PUSH1 0x20 PUSH1 0x4 DUP3 ADD MSTORE PUSH1 0x18 PUSH1 0x24 DUP3 ADD MSTORE PUSH24 0x6F6E6C792063616C6C206C31466173745769746864726177 PUSH1 0x40 SHL PUSH1 0x44 DUP3 ADD MSTORE PUSH1 0x64 ADD PUSH2 0x6FC JUMP JUMPDEST PUSH0 DUP6 DUP2 MSTORE PUSH1 0x8 PUSH1 0x20 MSTORE PUSH1 0x40 SWAP1 KECCAK256 PUSH1 0x4 ADD SLOAD DUP6 SWAP1 PUSH1 0x1 PUSH1 0x1 PUSH1 0xA0 SHL SUB AND ISZERO PUSH2 0x10BF JUMPI PUSH1 0x40 MLOAD PUSH3 0x461BCD PUSH1 0xE5 SHL DUP2 MSTORE PUSH1 0x20 PUSH1 0x4 DUP3 ADD MSTORE PUSH1 0xC PUSH1 0x24 DUP3 ADD MSTORE PUSH12 0x185B1C9958591E481CDBDB19 PUSH1 0xA2 SHL PUSH1 0x44 DUP3 ADD MSTORE PUSH1 0x64 ADD PUSH2 0x6FC JUMP JUMPDEST PUSH0 DUP7 DUP2 MSTORE PUSH1 0x8 PUSH1 0x20 MSTORE PUSH1 0x40 SWAP1 KECCAK256 PUSH1 0x9 ADD SLOAD DUP4 EQ PUSH2 0x1119 JUMPI PUSH1 0x40 MLOAD PUSH3 0x461BCD PUSH1 0xE5 SHL DUP2 MSTORE PUSH1 0x20 PUSH1 0x4 DUP3 ADD MSTORE PUSH1 0x18 PUSH1 0x24 DUP3 ADD MSTORE PUSH24 0x90C2E6D040ECC2D8EACAE640C8DE40DCDEE840DAC2E8C6D PUSH1 0x43 SHL PUSH1 0x44 DUP3 ADD MSTORE PUSH1 0x64 ADD PUSH2 0x6FC JUMP JUMPDEST DUP7 PUSH0 DUP2 SWAP1 SUB PUSH2 0x1135 JUMPI POP PUSH0 DUP7 DUP2 MSTORE PUSH1 0x8 PUSH1 0x20 MSTORE PUSH1 0x40 SWAP1 KECCAK256 PUSH1 0x6 ADD SLOAD JUMPDEST PUSH0 DUP8 DUP2 MSTORE PUSH1 0x8 PUSH1 0x20 MSTORE PUSH1 0x40 SWAP1 KECCAK256 PUSH1 0x4 DUP2 ADD DUP1 SLOAD PUSH1 0x1 PUSH1 0x1 PUSH1 0xA0 SHL SUB NOT AND PUSH1 0x1 PUSH1 0x1 PUSH1 0xA0 SHL SUB DUP13 DUP2 AND SWAP2 SWAP1 SWAP2 OR SWAP1 SWAP2 SSTORE PUSH1 0x1 DUP3 ADD SLOAD PUSH1 0x5 SWAP1 SWAP3 ADD SLOAD PUSH1 0x6 SLOAD SWAP3 DUP3 AND SWAP3 SWAP1 SWAP2 AND DUP3 SUB PUSH2 0x1211 JUMPI PUSH0 DUP12 PUSH1 0x1 PUSH1 0x1 PUSH1 0xA0 SHL SUB AND DUP3 PUSH1 0x40 MLOAD PUSH0 PUSH1 0x40 MLOAD DUP1 DUP4 SUB DUP2 DUP6 DUP8 GAS CALL SWAP3 POP POP POP RETURNDATASIZE DUP1 PUSH0 DUP2 EQ PUSH2 0x11C8 JUMPI PUSH1 0x40 MLOAD SWAP2 POP PUSH1 0x1F NOT PUSH1 0x3F RETURNDATASIZE ADD AND DUP3 ADD PUSH1 0x40 MSTORE RETURNDATASIZE DUP3 MSTORE RETURNDATASIZE PUSH0 PUSH1 0x20 DUP5 ADD RETURNDATACOPY PUSH2 0x11CD JUMP JUMPDEST PUSH1 0x60 SWAP2 POP JUMPDEST POP POP SWAP1 POP DUP1 PUSH2 0x120B JUMPI PUSH1 0x40 MLOAD PUSH3 0x461BCD PUSH1 0xE5 SHL DUP2 MSTORE PUSH1 0x20 PUSH1 0x4 DUP3 ADD MSTORE PUSH1 0xA PUSH1 0x24 DUP3 ADD MSTORE PUSH10 0x18DB185A5B4819985A5B PUSH1 0xB2 SHL PUSH1 0x44 DUP3 ADD MSTORE PUSH1 0x64 ADD PUSH2 0x6FC JUMP JUMPDEST POP PUSH2 0x1225 JUMP JUMPDEST PUSH2 0x1225 PUSH1 0x1 PUSH1 0x1 PUSH1 0xA0 SHL SUB DUP4 AND DUP13 DUP4 PUSH2 0x177E JUMP JUMPDEST POP POP PUSH1 0x1 PUSH1 0xB SSTORE POP PUSH2 0x1235 SWAP2 POP POP JUMP JUMPDEST POP POP POP POP POP POP JUMP JUMPDEST PUSH0 DUP3 DUP2 MSTORE PUSH1 0x4 PUSH1 0x20 MSTORE PUSH1 0x40 SWAP1 KECCAK256 PUSH1 0x1 ADD SLOAD PUSH2 0x1257 DUP2 PUSH2 0x1678 JUMP JUMPDEST PUSH2 0x94B DUP4 DUP4 PUSH2 0x1713 JUMP JUMPDEST PUSH2 0x126A CALLER PUSH2 0x90F JUMP JUMPDEST PUSH2 0x1286 JUMPI PUSH1 0x40 MLOAD PUSH3 0x461BCD PUSH1 0xE5 SHL DUP2 MSTORE PUSH1 0x4 ADD PUSH2 0x6FC SWAP1 PUSH2 0x1D5F JUMP JUMPDEST PUSH0 DUP4 DUP4 DUP4 DUP10 DUP10 DUP10 PUSH1 0x40 MLOAD PUSH1 0x20 ADD PUSH2 0x12A2 SWAP7 SWAP6 SWAP5 SWAP4 SWAP3 SWAP2 SWAP1 PUSH2 0x1CCF JUMP JUMPDEST PUSH1 0x40 DUP1 MLOAD PUSH1 0x1F NOT DUP2 DUP5 SUB ADD DUP2 MSTORE SWAP2 DUP2 MSTORE DUP2 MLOAD PUSH1 0x20 SWAP3 DUP4 ADD KECCAK256 PUSH0 DUP2 DUP2 MSTORE PUSH1 0x9 SWAP1 SWAP4 MSTORE SWAP2 KECCAK256 SLOAD SWAP1 SWAP2 POP PUSH1 0xFF AND ISZERO PUSH2 0x1311 JUMPI PUSH1 0x40 MLOAD PUSH3 0x461BCD PUSH1 0xE5 SHL DUP2 MSTORE PUSH1 0x20 PUSH1 0x4 DUP3 ADD MSTORE PUSH1 0x15 PUSH1 0x24 DUP3 ADD MSTORE PUSH21 0x30B63932B0B23C903932B3B4B9BA32B92A37B5B2B7 PUSH1 0x59 SHL PUSH1 0x44 DUP3 ADD MSTORE PUSH1 0x64 ADD PUSH2 0x6FC JUMP JUMPDEST PUSH0 SWAP1 DUP2 MSTORE PUSH1 0x9 PUSH1 0x20 MSTORE PUSH1 0x40 SWAP1 KECCAK256 DUP1 SLOAD PUSH1 0xFF NOT AND PUSH1 0x1 OR SWAP1 SSTORE POP POP POP POP POP POP JUMP JUMPDEST CALLER ORIGIN EQ PUSH2 0x1350 JUMPI PUSH1 0x40 MLOAD PUSH3 0x461BCD PUSH1 0xE5 SHL DUP2 MSTORE PUSH1 0x4 ADD PUSH2 0x6FC SWAP1 PUSH2 0x1C4B JUMP JUMPDEST DUP4 PUSH0 DUP2 GT PUSH2 0x1370 JUMPI PUSH1 0x40 MLOAD PUSH3 0x461BCD PUSH1 0xE5 SHL DUP2 MSTORE PUSH1 0x4 ADD PUSH2 0x6FC SWAP1 PUSH2 0x1C98 JUMP JUMPDEST DUP4 PUSH0 DUP2 GT PUSH2 0x1390 JUMPI PUSH1 0x40 MLOAD PUSH3 0x461BCD PUSH1 0xE5 SHL DUP2 MSTORE PUSH1 0x4 ADD PUSH2 0x6FC SWAP1 PUSH2 0x1C98 JUMP JUMPDEST PUSH2 0x1398 PUSH2 0x1416 JUMP JUMPDEST PUSH1 0x7 DUP1 SLOAD PUSH1 0x1 ADD SWAP1 DUP2 SWAP1 SSTORE CHAINID SWAP1 PUSH0 SWAP1 PUSH2 0x13BC SWAP1 DUP13 SWAP1 DUP13 SWAP1 DUP13 SWAP1 DUP13 SWAP1 DUP13 SWAP1 DUP13 DUP13 PUSH2 0x1440 JUMP JUMPDEST SWAP1 POP PUSH1 0x7 SLOAD PUSH32 0xBDADA440BA6A1AEE247CDAC6CF66343EA063EA610A86100ACDEE8496B90351E5 DUP13 DUP13 DUP13 CALLER DUP14 DUP14 DUP14 DUP11 DUP15 DUP12 PUSH1 0x40 MLOAD PUSH2 0x1402 SWAP11 SWAP10 SWAP9 SWAP8 SWAP7 SWAP6 SWAP5 SWAP4 SWAP3 SWAP2 SWAP1 PUSH2 0x1D06 JUMP JUMPDEST PUSH1 0x40 MLOAD DUP1 SWAP2 SUB SWAP1 LOG2 POP POP PUSH2 0x8C5 PUSH1 0x1 PUSH1 0xB SSTORE JUMP JUMPDEST PUSH1 0x2 PUSH1 0xB SLOAD SUB PUSH2 0x1439 JUMPI PUSH1 0x40 MLOAD PUSH4 0x3EE5AEB5 PUSH1 0xE0 SHL DUP2 MSTORE PUSH1 0x4 ADD PUSH1 0x40 MLOAD DUP1 SWAP2 SUB SWAP1 REVERT JUMPDEST PUSH1 0x2 PUSH1 0xB SSTORE JUMP JUMPDEST PUSH1 0x6 SLOAD PUSH0 SWAP1 PUSH1 0x1 PUSH1 0x1 PUSH1 0xA0 SHL SUB SWAP1 DUP2 AND SWAP1 DUP10 AND SUB PUSH2 0x14AC JUMPI DUP6 CALLVALUE EQ PUSH2 0x14A7 JUMPI PUSH1 0x40 MLOAD PUSH3 0x461BCD PUSH1 0xE5 SHL DUP2 MSTORE PUSH1 0x20 PUSH1 0x4 DUP3 ADD MSTORE PUSH1 0x19 PUSH1 0x24 DUP3 ADD MSTORE PUSH32 0x43543A206E6174697665544F4E206E65656420616D6F756E7400000000000000 PUSH1 0x44 DUP3 ADD MSTORE PUSH1 0x64 ADD PUSH2 0x6FC JUMP JUMPDEST PUSH2 0x14C1 JUMP JUMPDEST PUSH2 0x14C1 PUSH1 0x1 PUSH1 0x1 PUSH1 0xA0 SHL SUB DUP10 AND CALLER ADDRESS DUP10 PUSH2 0x187F JUMP JUMPDEST CHAINID PUSH2 0x14D4 DUP11 DUP11 DUP11 CALLER DUP12 DUP12 DUP12 DUP9 DUP12 DUP14 PUSH2 0xF07 JUMP JUMPDEST SWAP2 POP PUSH1 0x40 MLOAD DUP1 PUSH2 0x140 ADD PUSH1 0x40 MSTORE DUP1 DUP12 PUSH1 0x1 PUSH1 0x1 PUSH1 0xA0 SHL SUB AND DUP2 MSTORE PUSH1 0x20 ADD DUP11 PUSH1 0x1 PUSH1 0x1 PUSH1 0xA0 SHL SUB AND DUP2 MSTORE PUSH1 0x20 ADD DUP10 PUSH1 0x1 PUSH1 0x1 PUSH1 0xA0 SHL SUB AND DUP2 MSTORE PUSH1 0x20 ADD CALLER PUSH1 0x1 PUSH1 0x1 PUSH1 0xA0 SHL SUB AND DUP2 MSTORE PUSH1 0x20 ADD PUSH0 PUSH1 0x1 PUSH1 0x1 PUSH1 0xA0 SHL SUB AND DUP2 MSTORE PUSH1 0x20 ADD DUP9 DUP2 MSTORE PUSH1 0x20 ADD DUP8 DUP2 MSTORE PUSH1 0x20 ADD DUP6 DUP2 MSTORE PUSH1 0x20 ADD DUP5 DUP2 MSTORE PUSH1 0x20 ADD DUP4 DUP2 MSTORE POP PUSH1 0x8 PUSH0 DUP8 DUP2 MSTORE PUSH1 0x20 ADD SWAP1 DUP2 MSTORE PUSH1 0x20 ADD PUSH0 KECCAK256 PUSH0 DUP3 ADD MLOAD DUP2 PUSH0 ADD PUSH0 PUSH2 0x100 EXP DUP2 SLOAD DUP2 PUSH1 0x1 PUSH1 0x1 PUSH1 0xA0 SHL SUB MUL NOT AND SWAP1 DUP4 PUSH1 0x1 PUSH1 0x1 PUSH1 0xA0 SHL SUB AND MUL OR SWAP1 SSTORE POP PUSH1 0x20 DUP3 ADD MLOAD DUP2 PUSH1 0x1 ADD PUSH0 PUSH2 0x100 EXP DUP2 SLOAD DUP2 PUSH1 0x1 PUSH1 0x1 PUSH1 0xA0 SHL SUB MUL NOT AND SWAP1 DUP4 PUSH1 0x1 PUSH1 0x1 PUSH1 0xA0 SHL SUB AND MUL OR SWAP1 SSTORE POP PUSH1 0x40 DUP3 ADD MLOAD DUP2 PUSH1 0x2 ADD PUSH0 PUSH2 0x100 EXP DUP2 SLOAD DUP2 PUSH1 0x1 PUSH1 0x1 PUSH1 0xA0 SHL SUB MUL NOT AND SWAP1 DUP4 PUSH1 0x1 PUSH1 0x1 PUSH1 0xA0 SHL SUB AND MUL OR SWAP1 SSTORE POP PUSH1 0x60 DUP3 ADD MLOAD DUP2 PUSH1 0x3 ADD PUSH0 PUSH2 0x100 EXP DUP2 SLOAD DUP2 PUSH1 0x1 PUSH1 0x1 PUSH1 0xA0 SHL SUB MUL NOT AND SWAP1 DUP4 PUSH1 0x1 PUSH1 0x1 PUSH1 0xA0 SHL SUB AND MUL OR SWAP1 SSTORE POP PUSH1 0x80 DUP3 ADD MLOAD DUP2 PUSH1 0x4 ADD PUSH0 PUSH2 0x100 EXP DUP2 SLOAD DUP2 PUSH1 0x1 PUSH1 0x1 PUSH1 0xA0 SHL SUB MUL NOT AND SWAP1 DUP4 PUSH1 0x1 PUSH1 0x1 PUSH1 0xA0 SHL SUB AND MUL OR SWAP1 SSTORE POP PUSH1 0xA0 DUP3 ADD MLOAD DUP2 PUSH1 0x5 ADD SSTORE PUSH1 0xC0 DUP3 ADD MLOAD DUP2 PUSH1 0x6 ADD SSTORE PUSH1 0xE0 DUP3 ADD MLOAD DUP2 PUSH1 0x7 ADD SSTORE PUSH2 0x100 DUP3 ADD MLOAD DUP2 PUSH1 0x8 ADD SSTORE PUSH2 0x120 DUP3 ADD MLOAD DUP2 PUSH1 0x9 ADD SSTORE SWAP1 POP POP POP SWAP9 SWAP8 POP POP POP POP POP POP POP POP JUMP JUMPDEST PUSH2 0x90C DUP2 CALLER PUSH2 0x198D JUMP JUMPDEST PUSH0 PUSH2 0x168D DUP4 DUP4 PUSH2 0xF51 JUMP JUMPDEST PUSH2 0x170C JUMPI PUSH0 DUP4 DUP2 MSTORE PUSH1 0x4 PUSH1 0x20 SWAP1 DUP2 MSTORE PUSH1 0x40 DUP1 DUP4 KECCAK256 PUSH1 0x1 PUSH1 0x1 PUSH1 0xA0 SHL SUB DUP7 AND DUP5 MSTORE SWAP1 SWAP2 MSTORE SWAP1 KECCAK256 DUP1 SLOAD PUSH1 0xFF NOT AND PUSH1 0x1 OR SWAP1 SSTORE PUSH2 0x16C4 CALLER SWAP1 JUMP JUMPDEST PUSH1 0x1 PUSH1 0x1 PUSH1 0xA0 SHL SUB AND DUP3 PUSH1 0x1 PUSH1 0x1 PUSH1 0xA0 SHL SUB AND DUP5 PUSH32 0x2F8788117E7EFF1D82E926EC794901D17C78024A50270940304540A733656F0D PUSH1 0x40 MLOAD PUSH1 0x40 MLOAD DUP1 SWAP2 SUB SWAP1 LOG4 POP PUSH1 0x1 PUSH2 0x6D7 JUMP JUMPDEST POP PUSH0 PUSH2 0x6D7 JUMP JUMPDEST PUSH0 PUSH2 0x171E DUP4 DUP4 PUSH2 0xF51 JUMP JUMPDEST ISZERO PUSH2 0x170C JUMPI PUSH0 DUP4 DUP2 MSTORE PUSH1 0x4 PUSH1 0x20 SWAP1 DUP2 MSTORE PUSH1 0x40 DUP1 DUP4 KECCAK256 PUSH1 0x1 PUSH1 0x1 PUSH1 0xA0 SHL SUB DUP7 AND DUP1 DUP6 MSTORE SWAP3 MSTORE DUP1 DUP4 KECCAK256 DUP1 SLOAD PUSH1 0xFF NOT AND SWAP1 SSTORE MLOAD CALLER SWAP3 DUP7 SWAP2 PUSH32 0xF6391F5C32D9C69D2A47EA670B442974B53935D1EDC7FD64EB21E047A839171B SWAP2 SWAP1 LOG4 POP PUSH1 0x1 PUSH2 0x6D7 JUMP JUMPDEST PUSH1 0x40 DUP1 MLOAD PUSH1 0x1 PUSH1 0x1 PUSH1 0xA0 SHL SUB DUP5 DUP2 AND PUSH1 0x24 DUP4 ADD MSTORE PUSH1 0x44 DUP1 DUP4 ADD DUP6 SWAP1 MSTORE DUP4 MLOAD DUP1 DUP5 SUB SWAP1 SWAP2 ADD DUP2 MSTORE PUSH1 0x64 SWAP1 SWAP3 ADD DUP4 MSTORE PUSH1 0x20 DUP3 ADD DUP1 MLOAD PUSH1 0x1 PUSH1 0x1 PUSH1 0xE0 SHL SUB AND PUSH4 0xA9059CBB PUSH1 0xE0 SHL OR SWAP1 MSTORE SWAP2 MLOAD PUSH0 SWAP3 DUP4 SWAP3 SWAP1 DUP8 AND SWAP2 PUSH2 0x17D9 SWAP2 SWAP1 PUSH2 0x1DBC JUMP JUMPDEST PUSH0 PUSH1 0x40 MLOAD DUP1 DUP4 SUB DUP2 PUSH0 DUP7 GAS CALL SWAP2 POP POP RETURNDATASIZE DUP1 PUSH0 DUP2 EQ PUSH2 0x1812 JUMPI PUSH1 0x40 MLOAD SWAP2 POP PUSH1 0x1F NOT PUSH1 0x3F RETURNDATASIZE ADD AND DUP3 ADD PUSH1 0x40 MSTORE RETURNDATASIZE DUP3 MSTORE RETURNDATASIZE PUSH0 PUSH1 0x20 DUP5 ADD RETURNDATACOPY PUSH2 0x1817 JUMP JUMPDEST PUSH1 0x60 SWAP2 POP JUMPDEST POP SWAP2 POP SWAP2 POP DUP2 DUP1 ISZERO PUSH2 0x1841 JUMPI POP DUP1 MLOAD ISZERO DUP1 PUSH2 0x1841 JUMPI POP DUP1 DUP1 PUSH1 0x20 ADD SWAP1 MLOAD DUP2 ADD SWAP1 PUSH2 0x1841 SWAP2 SWAP1 PUSH2 0x1DE8 JUMP JUMPDEST PUSH2 0xCFB JUMPI PUSH1 0x40 MLOAD PUSH3 0x461BCD PUSH1 0xE5 SHL DUP2 MSTORE PUSH1 0x20 PUSH1 0x4 DUP3 ADD MSTORE PUSH1 0xF PUSH1 0x24 DUP3 ADD MSTORE PUSH15 0x1514905394D1915497D19052531151 PUSH1 0x8A SHL PUSH1 0x44 DUP3 ADD MSTORE PUSH1 0x64 ADD PUSH2 0x6FC JUMP JUMPDEST PUSH1 0x40 DUP1 MLOAD PUSH1 0x1 PUSH1 0x1 PUSH1 0xA0 SHL SUB DUP6 DUP2 AND PUSH1 0x24 DUP4 ADD MSTORE DUP5 DUP2 AND PUSH1 0x44 DUP4 ADD MSTORE PUSH1 0x64 DUP1 DUP4 ADD DUP6 SWAP1 MSTORE DUP4 MLOAD DUP1 DUP5 SUB SWAP1 SWAP2 ADD DUP2 MSTORE PUSH1 0x84 SWAP1 SWAP3 ADD DUP4 MSTORE PUSH1 0x20 DUP3 ADD DUP1 MLOAD PUSH1 0x1 PUSH1 0x1 PUSH1 0xE0 SHL SUB AND PUSH4 0x23B872DD PUSH1 0xE0 SHL OR SWAP1 MSTORE SWAP2 MLOAD PUSH0 SWAP3 DUP4 SWAP3 SWAP1 DUP9 AND SWAP2 PUSH2 0x18E2 SWAP2 SWAP1 PUSH2 0x1DBC JUMP JUMPDEST PUSH0 PUSH1 0x40 MLOAD DUP1 DUP4 SUB DUP2 PUSH0 DUP7 GAS CALL SWAP2 POP POP RETURNDATASIZE DUP1 PUSH0 DUP2 EQ PUSH2 0x191B JUMPI PUSH1 0x40 MLOAD SWAP2 POP PUSH1 0x1F NOT PUSH1 0x3F RETURNDATASIZE ADD AND DUP3 ADD PUSH1 0x40 MSTORE RETURNDATASIZE DUP3 MSTORE RETURNDATASIZE PUSH0 PUSH1 0x20 DUP5 ADD RETURNDATACOPY PUSH2 0x1920 JUMP JUMPDEST PUSH1 0x60 SWAP2 POP JUMPDEST POP SWAP2 POP SWAP2 POP DUP2 DUP1 ISZERO PUSH2 0x194A JUMPI POP DUP1 MLOAD ISZERO DUP1 PUSH2 0x194A JUMPI POP DUP1 DUP1 PUSH1 0x20 ADD SWAP1 MLOAD DUP2 ADD SWAP1 PUSH2 0x194A SWAP2 SWAP1 PUSH2 0x1DE8 JUMP JUMPDEST PUSH2 0x1235 JUMPI PUSH1 0x40 MLOAD PUSH3 0x461BCD PUSH1 0xE5 SHL DUP2 MSTORE PUSH1 0x20 PUSH1 0x4 DUP3 ADD MSTORE PUSH1 0x14 PUSH1 0x24 DUP3 ADD MSTORE PUSH20 0x1514905394D1915497D19493D357D19052531151 PUSH1 0x62 SHL PUSH1 0x44 DUP3 ADD MSTORE PUSH1 0x64 ADD PUSH2 0x6FC JUMP JUMPDEST PUSH2 0x1997 DUP3 DUP3 PUSH2 0xF51 JUMP JUMPDEST PUSH2 0x19C6 JUMPI PUSH1 0x40 MLOAD PUSH4 0xE2517D3F PUSH1 0xE0 SHL DUP2 MSTORE PUSH1 0x1 PUSH1 0x1 PUSH1 0xA0 SHL SUB DUP3 AND PUSH1 0x4 DUP3 ADD MSTORE PUSH1 0x24 DUP2 ADD DUP4 SWAP1 MSTORE PUSH1 0x44 ADD PUSH2 0x6FC JUMP JUMPDEST POP POP JUMP JUMPDEST PUSH0 PUSH1 0x20 DUP3 DUP5 SUB SLT ISZERO PUSH2 0x19DA JUMPI PUSH0 DUP1 REVERT JUMPDEST DUP2 CALLDATALOAD PUSH1 0x1 PUSH1 0x1 PUSH1 0xE0 SHL SUB NOT DUP2 AND DUP2 EQ PUSH2 0x19F1 JUMPI PUSH0 DUP1 REVERT JUMPDEST SWAP4 SWAP3 POP POP POP JUMP JUMPDEST PUSH1 0x1 PUSH1 0x1 PUSH1 0xA0 SHL SUB DUP2 AND DUP2 EQ PUSH2 0x90C JUMPI PUSH0 DUP1 REVERT JUMPDEST PUSH0 DUP1 PUSH0 DUP1 PUSH0 DUP1 PUSH0 PUSH1 0xE0 DUP9 DUP11 SUB SLT ISZERO PUSH2 0x1A22 JUMPI PUSH0 DUP1 REVERT JUMPDEST DUP8 CALLDATALOAD PUSH2 0x1A2D DUP2 PUSH2 0x19F8 JUMP JUMPDEST SWAP7 POP PUSH1 0x20 DUP9 ADD CALLDATALOAD PUSH2 0x1A3D DUP2 PUSH2 0x19F8 JUMP JUMPDEST SWAP6 POP PUSH1 0x40 DUP9 ADD CALLDATALOAD PUSH2 0x1A4D DUP2 PUSH2 0x19F8 JUMP JUMPDEST SWAP7 SWAP10 SWAP6 SWAP9 POP SWAP6 SWAP7 PUSH1 0x60 DUP2 ADD CALLDATALOAD SWAP7 POP PUSH1 0x80 DUP2 ADD CALLDATALOAD SWAP6 PUSH1 0xA0 DUP3 ADD CALLDATALOAD SWAP6 POP PUSH1 0xC0 SWAP1 SWAP2 ADD CALLDATALOAD SWAP4 POP SWAP2 POP POP JUMP JUMPDEST PUSH0 PUSH1 0x20 DUP3 DUP5 SUB SLT ISZERO PUSH2 0x1A85 JUMPI PUSH0 DUP1 REVERT JUMPDEST DUP2 CALLDATALOAD PUSH2 0x19F1 DUP2 PUSH2 0x19F8 JUMP JUMPDEST PUSH0 PUSH1 0x20 DUP3 DUP5 SUB SLT ISZERO PUSH2 0x1AA0 JUMPI PUSH0 DUP1 REVERT JUMPDEST POP CALLDATALOAD SWAP2 SWAP1 POP JUMP JUMPDEST PUSH0 DUP1 PUSH1 0x40 DUP4 DUP6 SUB SLT ISZERO PUSH2 0x1AB8 JUMPI PUSH0 DUP1 REVERT JUMPDEST DUP3 CALLDATALOAD SWAP2 POP PUSH1 0x20 DUP4 ADD CALLDATALOAD PUSH2 0x1ACA DUP2 PUSH2 0x19F8 JUMP JUMPDEST DUP1 SWAP2 POP POP SWAP3 POP SWAP3 SWAP1 POP JUMP JUMPDEST PUSH0 DUP1 PUSH0 DUP1 PUSH0 PUSH1 0xA0 DUP7 DUP9 SUB SLT ISZERO PUSH2 0x1AE9 JUMPI PUSH0 DUP1 REVERT JUMPDEST DUP6 CALLDATALOAD PUSH2 0x1AF4 DUP2 PUSH2 0x19F8 JUMP JUMPDEST SWAP8 PUSH1 0x20 DUP8 ADD CALLDATALOAD SWAP8 POP PUSH1 0x40 DUP8 ADD CALLDATALOAD SWAP7 PUSH1 0x60 DUP2 ADD CALLDATALOAD SWAP7 POP PUSH1 0x80 ADD CALLDATALOAD SWAP5 POP SWAP3 POP POP POP JUMP JUMPDEST PUSH0 DUP1 PUSH0 DUP1 PUSH0 DUP1 PUSH1 0xC0 DUP8 DUP10 SUB SLT ISZERO PUSH2 0x1B2A JUMPI PUSH0 DUP1 REVERT JUMPDEST DUP7 CALLDATALOAD PUSH2 0x1B35 DUP2 PUSH2 0x19F8 JUMP JUMPDEST SWAP6 POP PUSH1 0x20 DUP8 ADD CALLDATALOAD PUSH2 0x1B45 DUP2 PUSH2 0x19F8 JUMP JUMPDEST SWAP5 POP PUSH1 0x40 DUP8 ADD CALLDATALOAD PUSH2 0x1B55 DUP2 PUSH2 0x19F8 JUMP JUMPDEST SWAP6 SWAP9 SWAP5 SWAP8 POP SWAP5 SWAP6 PUSH1 0x60 DUP2 ADD CALLDATALOAD SWAP6 POP PUSH1 0x80 DUP2 ADD CALLDATALOAD SWAP5 PUSH1 0xA0 SWAP1 SWAP2 ADD CALLDATALOAD SWAP4 POP SWAP2 POP POP JUMP JUMPDEST PUSH0 DUP1 PUSH0 DUP1 PUSH0 DUP1 PUSH0 DUP1 PUSH0 DUP1 PUSH2 0x140 DUP12 DUP14 SUB SLT ISZERO PUSH2 0x1B90 JUMPI PUSH0 DUP1 REVERT JUMPDEST DUP11 CALLDATALOAD PUSH2 0x1B9B DUP2 PUSH2 0x19F8 JUMP JUMPDEST SWAP10 POP PUSH1 0x20 DUP12 ADD CALLDATALOAD PUSH2 0x1BAB DUP2 PUSH2 0x19F8 JUMP JUMPDEST SWAP9 POP PUSH1 0x40 DUP12 ADD CALLDATALOAD PUSH2 0x1BBB DUP2 PUSH2 0x19F8 JUMP JUMPDEST SWAP8 POP PUSH1 0x60 DUP12 ADD CALLDATALOAD PUSH2 0x1BCB DUP2 PUSH2 0x19F8 JUMP JUMPDEST SWAP10 SWAP13 SWAP9 SWAP12 POP SWAP7 SWAP10 PUSH1 0x80 DUP2 ADD CALLDATALOAD SWAP9 PUSH1 0xA0 DUP3 ADD CALLDATALOAD SWAP9 POP PUSH1 0xC0 DUP3 ADD CALLDATALOAD SWAP8 POP PUSH1 0xE0 DUP3 ADD CALLDATALOAD SWAP7 POP PUSH2 0x100 DUP3 ADD CALLDATALOAD SWAP6 POP PUSH2 0x120 SWAP1 SWAP2 ADD CALLDATALOAD SWAP4 POP SWAP2 POP POP JUMP JUMPDEST PUSH0 DUP1 PUSH0 DUP1 PUSH0 DUP1 PUSH1 0xC0 DUP8 DUP10 SUB SLT ISZERO PUSH2 0x1C18 JUMPI PUSH0 DUP1 REVERT JUMPDEST DUP7 CALLDATALOAD PUSH2 0x1C23 DUP2 PUSH2 0x19F8 JUMP JUMPDEST SWAP9 PUSH1 0x20 DUP9 ADD CALLDATALOAD SWAP9 POP PUSH1 0x40 DUP9 ADD CALLDATALOAD SWAP8 PUSH1 0x60 DUP2 ADD CALLDATALOAD SWAP8 POP PUSH1 0x80 DUP2 ADD CALLDATALOAD SWAP7 POP PUSH1 0xA0 ADD CALLDATALOAD SWAP5 POP SWAP3 POP POP POP JUMP JUMPDEST PUSH1 0x20 DUP1 DUP3 MSTORE PUSH1 0x2D SWAP1 DUP3 ADD MSTORE PUSH32 0x4C3246573A2066756E6374696F6E2063616E206F6E6C792062652063616C6C65 PUSH1 0x40 DUP3 ADD MSTORE PUSH13 0x642066726F6D20616E20454F41 PUSH1 0x98 SHL PUSH1 0x60 DUP3 ADD MSTORE PUSH1 0x80 ADD SWAP1 JUMP JUMPDEST PUSH1 0x20 DUP1 DUP3 MSTORE PUSH1 0x19 SWAP1 DUP3 ADD MSTORE PUSH32 0x696E70757420616D6F756E74206E656564206E6F6E5A65726F00000000000000 PUSH1 0x40 DUP3 ADD MSTORE PUSH1 0x60 ADD SWAP1 JUMP JUMPDEST SWAP6 DUP7 MSTORE PUSH1 0x20 DUP7 ADD SWAP5 SWAP1 SWAP5 MSTORE PUSH1 0x40 DUP6 ADD SWAP3 SWAP1 SWAP3 MSTORE PUSH1 0x1 PUSH1 0x1 PUSH1 0xA0 SHL SUB SWAP1 DUP2 AND PUSH1 0x60 DUP6 ADD MSTORE SWAP1 DUP2 AND PUSH1 0x80 DUP5 ADD MSTORE AND PUSH1 0xA0 DUP3 ADD MSTORE PUSH1 0xC0 ADD SWAP1 JUMP JUMPDEST PUSH1 0x1 PUSH1 0x1 PUSH1 0xA0 SHL SUB SWAP11 DUP12 AND DUP2 MSTORE SWAP9 DUP11 AND PUSH1 0x20 DUP11 ADD MSTORE SWAP7 DUP10 AND PUSH1 0x40 DUP10 ADD MSTORE SWAP5 SWAP1 SWAP8 AND PUSH1 0x60 DUP8 ADD MSTORE PUSH1 0x80 DUP7 ADD SWAP3 SWAP1 SWAP3 MSTORE PUSH1 0xA0 DUP6 ADD MSTORE PUSH1 0xC0 DUP5 ADD MSTORE PUSH1 0xE0 DUP4 ADD SWAP4 SWAP1 SWAP4 MSTORE PUSH2 0x100 DUP3 ADD SWAP3 SWAP1 SWAP3 MSTORE PUSH2 0x120 DUP2 ADD SWAP2 SWAP1 SWAP2 MSTORE PUSH2 0x140 ADD SWAP1 JUMP JUMPDEST PUSH1 0x20 DUP1 DUP3 MSTORE PUSH1 0x22 SWAP1 DUP3 ADD MSTORE PUSH32 0x41636365737369626C653A2043616C6C6572206973206E6F7420616E2061646D PUSH1 0x40 DUP3 ADD MSTORE PUSH2 0x34B7 PUSH1 0xF1 SHL PUSH1 0x60 DUP3 ADD MSTORE PUSH1 0x80 ADD SWAP1 JUMP JUMPDEST PUSH0 PUSH1 0x20 DUP3 DUP5 SUB SLT ISZERO PUSH2 0x1DB1 JUMPI PUSH0 DUP1 REVERT JUMPDEST DUP2 MLOAD PUSH2 0x19F1 DUP2 PUSH2 0x19F8 JUMP JUMPDEST PUSH0 DUP3 MLOAD PUSH0 JUMPDEST DUP2 DUP2 LT ISZERO PUSH2 0x1DDB JUMPI PUSH1 0x20 DUP2 DUP7 ADD DUP2 ADD MLOAD DUP6 DUP4 ADD MSTORE ADD PUSH2 0x1DC1 JUMP JUMPDEST POP PUSH0 SWAP3 ADD SWAP2 DUP3 MSTORE POP SWAP2 SWAP1 POP JUMP JUMPDEST PUSH0 PUSH1 0x20 DUP3 DUP5 SUB SLT ISZERO PUSH2 0x1DF8 JUMPI PUSH0 DUP1 REVERT JUMPDEST DUP2 MLOAD DUP1 ISZERO ISZERO DUP2 EQ PUSH2 0x19F1 JUMPI PUSH0 DUP1 REVERT INVALID 0xDF DUP12 0x4C MSTORE 0xF INVALID NOT PUSH29 0x5343C6F5AEC59570151EF9A492F2C624FD45DDDE6135EC42A264697066 PUSH20 0x58221220261B732418C75BFB722A2565DE30C63D 0xC7 CALLDATALOAD ORIGIN 0xE8 TIMESTAMP SWAP1 DELEGATECALL JUMPI PUSH1 0x3A PUSH4 0x7731C577 DUP9 PUSH5 0x736F6C6343 STOP ADDMOD XOR STOP CALLER "
		},
		"gasEstimates": {
			"creation": {
				"codeDepositCost": "1554600",
				"executionCost": "23728",
				"totalCost": "1578328"
			},
			"external": {
				"ADMIN_ROLE()": "infinite",
				"DEFAULT_ADMIN_ROLE()": "304",
				"POLICY_ROLE()": "262",
				"addAdmin(address)": "infinite",
				"aliveImplementation(address)": "2556",
				"cancelCT(address,uint256,uint256,uint256,bytes32)": "infinite",
				"chainData(uint256)": "4672",
				"claimCT(address,uint256,uint256,uint256,uint256,bytes32)": "infinite",
				"crossDomainMessenger()": "2424",
				"dealData(uint256)": "21871",
				"deleteToken(address,address,address,uint256,uint256,uint256)": "infinite",
				"getHash(address,address,address,address,uint256,uint256,uint256,uint256,uint256,uint256)": "infinite",
				"getRoleAdmin(bytes32)": "2531",
				"grantRole(bytes32,address)": "infinite",
				"hasRole(bytes32,address)": "2717",
				"isAdmin(address)": "infinite",
				"legacyERC20ETH()": "2427",
				"pauseProxy()": "2364",
				"proxyImplementation(uint256)": "2519",
				"registerToken(address,address,address,uint256,uint256,uint256)": "infinite",
				"removeAdmin(address)": "infinite",
				"renounceRole(bytes32,address)": "29091",
				"requestNonRegisteredToken(address,address,address,uint256,uint256,uint256,uint256)": "infinite",
				"requestRegisteredToken(address,address,address,uint256,uint256,uint256,uint256)": "infinite",
				"revokeRole(bytes32,address)": "infinite",
				"saleCount()": "2383",
				"selectorImplementation(bytes4)": "2613",
				"supportsInterface(bytes4)": "470",
				"transferAdmin(address)": "infinite"
			},
			"internal": {
				"_getChainID()": "infinite",
				"_request(address,address,address,uint256,uint256,uint256,uint256,uint256)": "infinite"
			}
		},
		"methodIdentifiers": {
			"ADMIN_ROLE()": "75b238fc",
			"DEFAULT_ADMIN_ROLE()": "a217fddf",
			"POLICY_ROLE()": "22985246",
			"addAdmin(address)": "70480275",
			"aliveImplementation(address)": "550d01a3",
			"cancelCT(address,uint256,uint256,uint256,bytes32)": "6c790d54",
			"chainData(uint256)": "e59f69c2",
			"claimCT(address,uint256,uint256,uint256,uint256,bytes32)": "c8b8e35e",
			"crossDomainMessenger()": "f43b3613",
			"dealData(uint256)": "f5869c2f",
			"deleteToken(address,address,address,uint256,uint256,uint256)": "6dd897c7",
			"getHash(address,address,address,address,uint256,uint256,uint256,uint256,uint256,uint256)": "7f02944f",
			"getRoleAdmin(bytes32)": "248a9ca3",
			"grantRole(bytes32,address)": "2f2ff15d",
			"hasRole(bytes32,address)": "91d14854",
			"isAdmin(address)": "24d7806c",
			"legacyERC20ETH()": "16e01724",
			"pauseProxy()": "63a8fd89",
			"proxyImplementation(uint256)": "b911135f",
			"registerToken(address,address,address,uint256,uint256,uint256)": "df2ccdbf",
			"removeAdmin(address)": "1785f53c",
			"renounceRole(bytes32,address)": "36568abe",
			"requestNonRegisteredToken(address,address,address,uint256,uint256,uint256,uint256)": "ee976ab4",
			"requestRegisteredToken(address,address,address,uint256,uint256,uint256,uint256)": "1037be21",
			"revokeRole(bytes32,address)": "d547741f",
			"saleCount()": "a1e89aec",
			"selectorImplementation(bytes4)": "50d2a276",
			"supportsInterface(bytes4)": "01ffc9a7",
			"transferAdmin(address)": "75829def"
		}
	},
	"abi": [
		{
			"inputs": [],
			"name": "AccessControlBadConfirmation",
			"type": "error"
		},
		{
			"inputs": [
				{
					"internalType": "address",
					"name": "account",
					"type": "address"
				},
				{
					"internalType": "bytes32",
					"name": "neededRole",
					"type": "bytes32"
				}
			],
			"name": "AccessControlUnauthorizedAccount",
			"type": "error"
		},
		{
			"inputs": [],
			"name": "ReentrancyGuardReentrantCall",
			"type": "error"
		},
		{
			"anonymous": false,
			"inputs": [
				{
					"indexed": false,
					"internalType": "address",
					"name": "_requester",
					"type": "address"
				},
				{
					"indexed": false,
					"internalType": "uint256",
					"name": "_totalAmount",
					"type": "uint256"
				},
				{
					"indexed": true,
					"internalType": "uint256",
					"name": "_saleCount",
					"type": "uint256"
				},
				{
					"indexed": false,
					"internalType": "uint256",
					"name": "_l1ChainId",
					"type": "uint256"
				},
				{
					"indexed": false,
					"internalType": "uint256",
					"name": "_l2SourceChainId",
					"type": "uint256"
				},
				{
					"indexed": false,
					"internalType": "uint256",
					"name": "_l2TargetChainId",
					"type": "uint256"
				},
				{
					"indexed": false,
					"internalType": "bytes32",
					"name": "_hash",
					"type": "bytes32"
				}
			],
			"name": "CancelCT",
			"type": "event"
		},
		{
			"anonymous": false,
			"inputs": [
				{
					"indexed": false,
					"internalType": "address",
					"name": "_l1token",
					"type": "address"
				},
				{
					"indexed": false,
					"internalType": "address",
					"name": "_l2SourceToken",
					"type": "address"
				},
				{
					"indexed": false,
					"internalType": "address",
					"name": "_l2TargetToken",
					"type": "address"
				},
				{
					"indexed": false,
					"internalType": "address",
					"name": "_requester",
					"type": "address"
				},
				{
					"indexed": false,
					"internalType": "uint256",
					"name": "_totalAmount",
					"type": "uint256"
				},
				{
					"indexed": false,
					"internalType": "uint256",
					"name": "_ctAmount",
					"type": "uint256"
				},
				{
					"indexed": true,
					"internalType": "uint256",
					"name": "_saleCount",
					"type": "uint256"
				},
				{
					"indexed": false,
					"internalType": "uint256",
					"name": "_l1ChainId",
					"type": "uint256"
				},
				{
					"indexed": false,
					"internalType": "uint256",
					"name": "_l2SourceChainId",
					"type": "uint256"
				},
				{
					"indexed": false,
					"internalType": "uint256",
					"name": "_l2TargetChainId",
					"type": "uint256"
				},
				{
					"indexed": false,
					"internalType": "bytes32",
					"name": "_hashValue",
					"type": "bytes32"
				}
			],
			"name": "NonRequestCT",
			"type": "event"
		},
		{
			"anonymous": false,
			"inputs": [
				{
					"indexed": false,
					"internalType": "address",
					"name": "_l1token",
					"type": "address"
				},
				{
					"indexed": false,
					"internalType": "address",
					"name": "_l2SourceToken",
					"type": "address"
				},
				{
					"indexed": false,
					"internalType": "address",
					"name": "_l2TargetToken",
					"type": "address"
				},
				{
					"indexed": false,
					"internalType": "address",
					"name": "_requester",
					"type": "address"
				},
				{
					"indexed": false,
					"internalType": "address",
					"name": "_provider",
					"type": "address"
				},
				{
					"indexed": false,
					"internalType": "uint256",
					"name": "_totalAmount",
					"type": "uint256"
				},
				{
					"indexed": false,
					"internalType": "uint256",
					"name": "_ctAmount",
					"type": "uint256"
				},
				{
					"indexed": true,
					"internalType": "uint256",
					"name": "_saleCount",
					"type": "uint256"
				},
				{
					"indexed": false,
					"internalType": "uint256",
					"name": "_l1ChainId",
					"type": "uint256"
				},
				{
					"indexed": false,
					"internalType": "uint256",
					"name": "_l2SourceChainId",
					"type": "uint256"
				},
				{
					"indexed": false,
					"internalType": "uint256",
					"name": "_l2TargetChainId",
					"type": "uint256"
				},
				{
					"indexed": false,
					"internalType": "bytes32",
					"name": "_hash",
					"type": "bytes32"
				}
			],
			"name": "ProviderClaimCT",
			"type": "event"
		},
		{
			"anonymous": false,
			"inputs": [
				{
					"indexed": false,
					"internalType": "address",
					"name": "_l1token",
					"type": "address"
				},
				{
					"indexed": false,
					"internalType": "address",
					"name": "_l2SourceToken",
					"type": "address"
				},
				{
					"indexed": false,
					"internalType": "address",
					"name": "_l2TargetToken",
					"type": "address"
				},
				{
					"indexed": false,
					"internalType": "address",
					"name": "_requester",
					"type": "address"
				},
				{
					"indexed": false,
					"internalType": "uint256",
					"name": "_totalAmount",
					"type": "uint256"
				},
				{
					"indexed": false,
					"internalType": "uint256",
					"name": "_ctAmount",
					"type": "uint256"
				},
				{
					"indexed": true,
					"internalType": "uint256",
					"name": "_saleCount",
					"type": "uint256"
				},
				{
					"indexed": false,
					"internalType": "uint256",
					"name": "_l1ChainId",
					"type": "uint256"
				},
				{
					"indexed": false,
					"internalType": "uint256",
					"name": "_l2SourceChainId",
					"type": "uint256"
				},
				{
					"indexed": false,
					"internalType": "uint256",
					"name": "_l2TargetChainId",
					"type": "uint256"
				},
				{
					"indexed": false,
					"internalType": "bytes32",
					"name": "_hashValue",
					"type": "bytes32"
				}
			],
			"name": "RequestCT",
			"type": "event"
		},
		{
			"anonymous": false,
			"inputs": [
				{
					"indexed": true,
					"internalType": "bytes32",
					"name": "role",
					"type": "bytes32"
				},
				{
					"indexed": true,
					"internalType": "bytes32",
					"name": "previousAdminRole",
					"type": "bytes32"
				},
				{
					"indexed": true,
					"internalType": "bytes32",
					"name": "newAdminRole",
					"type": "bytes32"
				}
			],
			"name": "RoleAdminChanged",
			"type": "event"
		},
		{
			"anonymous": false,
			"inputs": [
				{
					"indexed": true,
					"internalType": "bytes32",
					"name": "role",
					"type": "bytes32"
				},
				{
					"indexed": true,
					"internalType": "address",
					"name": "account",
					"type": "address"
				},
				{
					"indexed": true,
					"internalType": "address",
					"name": "sender",
					"type": "address"
				}
			],
			"name": "RoleGranted",
			"type": "event"
		},
		{
			"anonymous": false,
			"inputs": [
				{
					"indexed": true,
					"internalType": "bytes32",
					"name": "role",
					"type": "bytes32"
				},
				{
					"indexed": true,
					"internalType": "address",
					"name": "account",
					"type": "address"
				},
				{
					"indexed": true,
					"internalType": "address",
					"name": "sender",
					"type": "address"
				}
			],
			"name": "RoleRevoked",
			"type": "event"
		},
		{
			"inputs": [],
			"name": "ADMIN_ROLE",
			"outputs": [
				{
					"internalType": "bytes32",
					"name": "",
					"type": "bytes32"
				}
			],
			"stateMutability": "view",
			"type": "function"
		},
		{
			"inputs": [],
			"name": "DEFAULT_ADMIN_ROLE",
			"outputs": [
				{
					"internalType": "bytes32",
					"name": "",
					"type": "bytes32"
				}
			],
			"stateMutability": "view",
			"type": "function"
		},
		{
			"inputs": [],
			"name": "POLICY_ROLE",
			"outputs": [
				{
					"internalType": "bytes32",
					"name": "",
					"type": "bytes32"
				}
			],
			"stateMutability": "view",
			"type": "function"
		},
		{
			"inputs": [
				{
					"internalType": "address",
					"name": "account",
					"type": "address"
				}
			],
			"name": "addAdmin",
			"outputs": [],
			"stateMutability": "nonpayable",
			"type": "function"
		},
		{
			"inputs": [
				{
					"internalType": "address",
					"name": "",
					"type": "address"
				}
			],
			"name": "aliveImplementation",
			"outputs": [
				{
					"internalType": "bool",
					"name": "",
					"type": "bool"
				}
			],
			"stateMutability": "view",
			"type": "function"
		},
		{
			"inputs": [
				{
					"internalType": "address",
					"name": "_msgSender",
					"type": "address"
				},
				{
					"internalType": "uint256",
					"name": "_salecount",
					"type": "uint256"
				},
				{
					"internalType": "uint256",
					"name": "_l1ChainId",
					"type": "uint256"
				},
				{
					"internalType": "uint256",
					"name": "_l2TargetChainId",
					"type": "uint256"
				},
				{
					"internalType": "bytes32",
					"name": "_hash",
					"type": "bytes32"
				}
			],
			"name": "cancelCT",
			"outputs": [],
			"stateMutability": "nonpayable",
			"type": "function"
		},
		{
			"inputs": [
				{
					"internalType": "uint256",
					"name": "",
					"type": "uint256"
				}
			],
			"name": "chainData",
			"outputs": [
				{
					"internalType": "address",
					"name": "l1CrossTradeContract",
					"type": "address"
				},
				{
					"internalType": "address",
					"name": "l1TON",
					"type": "address"
				}
			],
			"stateMutability": "view",
			"type": "function"
		},
		{
			"inputs": [
				{
					"internalType": "address",
					"name": "_from",
					"type": "address"
				},
				{
					"internalType": "uint256",
					"name": "_ctAmount",
					"type": "uint256"
				},
				{
					"internalType": "uint256",
					"name": "_saleCount",
					"type": "uint256"
				},
				{
					"internalType": "uint256",
					"name": "_l1ChainId",
					"type": "uint256"
				},
				{
					"internalType": "uint256",
					"name": "_l2TargetChainId",
					"type": "uint256"
				},
				{
					"internalType": "bytes32",
					"name": "_hash",
					"type": "bytes32"
				}
			],
			"name": "claimCT",
			"outputs": [],
			"stateMutability": "nonpayable",
			"type": "function"
		},
		{
			"inputs": [],
			"name": "crossDomainMessenger",
			"outputs": [
				{
					"internalType": "address",
					"name": "",
					"type": "address"
				}
			],
			"stateMutability": "view",
			"type": "function"
		},
		{
			"inputs": [
				{
					"internalType": "uint256",
					"name": "",
					"type": "uint256"
				}
			],
			"name": "dealData",
			"outputs": [
				{
					"internalType": "address",
					"name": "l1token",
					"type": "address"
				},
				{
					"internalType": "address",
					"name": "l2SourceToken",
					"type": "address"
				},
				{
					"internalType": "address",
					"name": "l2TargetToken",
					"type": "address"
				},
				{
					"internalType": "address",
					"name": "requester",
					"type": "address"
				},
				{
					"internalType": "address",
					"name": "provider",
					"type": "address"
				},
				{
					"internalType": "uint256",
					"name": "totalAmount",
					"type": "uint256"
				},
				{
					"internalType": "uint256",
					"name": "ctAmount",
					"type": "uint256"
				},
				{
					"internalType": "uint256",
					"name": "l1ChainId",
					"type": "uint256"
				},
				{
					"internalType": "uint256",
					"name": "l2TargetChainId",
					"type": "uint256"
				},
				{
					"internalType": "bytes32",
					"name": "hashValue",
					"type": "bytes32"
				}
			],
			"stateMutability": "view",
			"type": "function"
		},
		{
			"inputs": [
				{
					"internalType": "address",
					"name": "_l1token",
					"type": "address"
				},
				{
					"internalType": "address",
					"name": "_l2SourceToken",
					"type": "address"
				},
				{
					"internalType": "address",
					"name": "_l2TargetToken",
					"type": "address"
				},
				{
					"internalType": "uint256",
					"name": "_l1ChainId",
					"type": "uint256"
				},
				{
					"internalType": "uint256",
					"name": "_l2SourceChainId",
					"type": "uint256"
				},
				{
					"internalType": "uint256",
					"name": "_l2TargetChainId",
					"type": "uint256"
				}
			],
			"name": "deleteToken",
			"outputs": [],
			"stateMutability": "nonpayable",
			"type": "function"
		},
		{
			"inputs": [
				{
					"internalType": "address",
					"name": "_l1token",
					"type": "address"
				},
				{
					"internalType": "address",
					"name": "_l2SourceToken",
					"type": "address"
				},
				{
					"internalType": "address",
					"name": "_l2TargetToken",
					"type": "address"
				},
				{
					"internalType": "address",
					"name": "_requestor",
					"type": "address"
				},
				{
					"internalType": "uint256",
					"name": "_totalAmount",
					"type": "uint256"
				},
				{
					"internalType": "uint256",
					"name": "_ctAmount",
					"type": "uint256"
				},
				{
					"internalType": "uint256",
					"name": "_saleCount",
					"type": "uint256"
				},
				{
					"internalType": "uint256",
					"name": "_l1ChainId",
					"type": "uint256"
				},
				{
					"internalType": "uint256",
					"name": "_l2SourceChainId",
					"type": "uint256"
				},
				{
					"internalType": "uint256",
					"name": "_l2TargetChainId",
					"type": "uint256"
				}
			],
			"name": "getHash",
			"outputs": [
				{
					"internalType": "bytes32",
					"name": "",
					"type": "bytes32"
				}
			],
			"stateMutability": "pure",
			"type": "function"
		},
		{
			"inputs": [
				{
					"internalType": "bytes32",
					"name": "role",
					"type": "bytes32"
				}
			],
			"name": "getRoleAdmin",
			"outputs": [
				{
					"internalType": "bytes32",
					"name": "",
					"type": "bytes32"
				}
			],
			"stateMutability": "view",
			"type": "function"
		},
		{
			"inputs": [
				{
					"internalType": "bytes32",
					"name": "role",
					"type": "bytes32"
				},
				{
					"internalType": "address",
					"name": "account",
					"type": "address"
				}
			],
			"name": "grantRole",
			"outputs": [],
			"stateMutability": "nonpayable",
			"type": "function"
		},
		{
			"inputs": [
				{
					"internalType": "bytes32",
					"name": "role",
					"type": "bytes32"
				},
				{
					"internalType": "address",
					"name": "account",
					"type": "address"
				}
			],
			"name": "hasRole",
			"outputs": [
				{
					"internalType": "bool",
					"name": "",
					"type": "bool"
				}
			],
			"stateMutability": "view",
			"type": "function"
		},
		{
			"inputs": [
				{
					"internalType": "address",
					"name": "account",
					"type": "address"
				}
			],
			"name": "isAdmin",
			"outputs": [
				{
					"internalType": "bool",
					"name": "",
					"type": "bool"
				}
			],
			"stateMutability": "view",
			"type": "function"
		},
		{
			"inputs": [],
			"name": "legacyERC20ETH",
			"outputs": [
				{
					"internalType": "address",
					"name": "",
					"type": "address"
				}
			],
			"stateMutability": "view",
			"type": "function"
		},
		{
			"inputs": [],
			"name": "pauseProxy",
			"outputs": [
				{
					"internalType": "bool",
					"name": "",
					"type": "bool"
				}
			],
			"stateMutability": "view",
			"type": "function"
		},
		{
			"inputs": [
				{
					"internalType": "uint256",
					"name": "",
					"type": "uint256"
				}
			],
			"name": "proxyImplementation",
			"outputs": [
				{
					"internalType": "address",
					"name": "",
					"type": "address"
				}
			],
			"stateMutability": "view",
			"type": "function"
		},
		{
			"inputs": [
				{
					"internalType": "address",
					"name": "_l1token",
					"type": "address"
				},
				{
					"internalType": "address",
					"name": "_l2SourceToken",
					"type": "address"
				},
				{
					"internalType": "address",
					"name": "_l2TargetToken",
					"type": "address"
				},
				{
					"internalType": "uint256",
					"name": "_l1ChainId",
					"type": "uint256"
				},
				{
					"internalType": "uint256",
					"name": "_l2SourceChainId",
					"type": "uint256"
				},
				{
					"internalType": "uint256",
					"name": "_l2TargetChainId",
					"type": "uint256"
				}
			],
			"name": "registerToken",
			"outputs": [],
			"stateMutability": "nonpayable",
			"type": "function"
		},
		{
			"inputs": [
				{
					"internalType": "address",
					"name": "account",
					"type": "address"
				}
			],
			"name": "removeAdmin",
			"outputs": [],
			"stateMutability": "nonpayable",
			"type": "function"
		},
		{
			"inputs": [
				{
					"internalType": "bytes32",
					"name": "role",
					"type": "bytes32"
				},
				{
					"internalType": "address",
					"name": "callerConfirmation",
					"type": "address"
				}
			],
			"name": "renounceRole",
			"outputs": [],
			"stateMutability": "nonpayable",
			"type": "function"
		},
		{
			"inputs": [
				{
					"internalType": "address",
					"name": "_l1token",
					"type": "address"
				},
				{
					"internalType": "address",
					"name": "_l2SourceToken",
					"type": "address"
				},
				{
					"internalType": "address",
					"name": "_l2TargetToken",
					"type": "address"
				},
				{
					"internalType": "uint256",
					"name": "_totalAmount",
					"type": "uint256"
				},
				{
					"internalType": "uint256",
					"name": "_ctAmount",
					"type": "uint256"
				},
				{
					"internalType": "uint256",
					"name": "_l1ChainId",
					"type": "uint256"
				},
				{
					"internalType": "uint256",
					"name": "_l2TargetChainId",
					"type": "uint256"
				}
			],
			"name": "requestNonRegisteredToken",
			"outputs": [],
			"stateMutability": "payable",
			"type": "function"
		},
		{
			"inputs": [
				{
					"internalType": "address",
					"name": "_l1token",
					"type": "address"
				},
				{
					"internalType": "address",
					"name": "_l2SourceToken",
					"type": "address"
				},
				{
					"internalType": "address",
					"name": "_l2TargetToken",
					"type": "address"
				},
				{
					"internalType": "uint256",
					"name": "_totalAmount",
					"type": "uint256"
				},
				{
					"internalType": "uint256",
					"name": "_ctAmount",
					"type": "uint256"
				},
				{
					"internalType": "uint256",
					"name": "_l1ChainId",
					"type": "uint256"
				},
				{
					"internalType": "uint256",
					"name": "_l2TargetChainId",
					"type": "uint256"
				}
			],
			"name": "requestRegisteredToken",
			"outputs": [],
			"stateMutability": "payable",
			"type": "function"
		},
		{
			"inputs": [
				{
					"internalType": "bytes32",
					"name": "role",
					"type": "bytes32"
				},
				{
					"internalType": "address",
					"name": "account",
					"type": "address"
				}
			],
			"name": "revokeRole",
			"outputs": [],
			"stateMutability": "nonpayable",
			"type": "function"
		},
		{
			"inputs": [],
			"name": "saleCount",
			"outputs": [
				{
					"internalType": "uint256",
					"name": "",
					"type": "uint256"
				}
			],
			"stateMutability": "view",
			"type": "function"
		},
		{
			"inputs": [
				{
					"internalType": "bytes4",
					"name": "",
					"type": "bytes4"
				}
			],
			"name": "selectorImplementation",
			"outputs": [
				{
					"internalType": "address",
					"name": "",
					"type": "address"
				}
			],
			"stateMutability": "view",
			"type": "function"
		},
		{
			"inputs": [
				{
					"internalType": "bytes4",
					"name": "interfaceId",
					"type": "bytes4"
				}
			],
			"name": "supportsInterface",
			"outputs": [
				{
					"internalType": "bool",
					"name": "",
					"type": "bool"
				}
			],
			"stateMutability": "view",
			"type": "function"
		},
		{
			"inputs": [
				{
					"internalType": "address",
					"name": "newAdmin",
					"type": "address"
				}
			],
			"name": "transferAdmin",
			"outputs": [],
			"stateMutability": "nonpayable",
			"type": "function"
		}
	]
}