{
	"data": {
		"bytecode": {
			"linkReferences": {},
			"object": "60806040523461006b575f8051602062002176833981519152805f526004602052600160405f20018181549155817fbd79b86ffe0ab8e8776151514217cd7cacd52c909f66475c3af44e129f0b00ff5f80a461005a3361006f565b506040516120669081620001108239f35b5f80fd5b6001600160a01b03165f8181527f2fb794d17134dfdec181ddbac1babb5ab1eb140204ef4d982f294e7fc8b6902260205260409020545f8051602062002176833981519152919060ff1661010957815f52600460205260405f20815f5260205260405f20600160ff1982541617905533917f2f8788117e7eff1d82e926ec794901d17c78024a50270940304540a733656f0d5f80a4600190565b50505f9056fe60806040526004361015610015575b36611f5957005b5f3560e01c806301ffc9a71461021f5780631230b14c1461021a57806316e01724146102155780631785f53c14610210578063229852461461020b578063248a9ca31461020657806324d7806c146102015780632f2ff15d146101fc57806336568abe146101f75780633659cfe6146101f2578063485cc955146101ed5780634a5df50f146101e857806350d2a276146101e3578063550d01a3146101de5780635c60da1b146101d95780635cadbd3b146101d45780635cc797d8146101cf57806363a8fd89146101ca57806370480275146101c557806375829def146101c057806375b238fc146101bb5780637cb00d25146101b65780637cd5f663146101b15780638b8f4a65146101985780638d4fdb40146101ac57806391d14854146101a7578063a1e89aec146101a2578063a217fddf1461019d578063b911135f14610198578063d547741f14610193578063e59f69c21461018e578063f43b3613146101895763f5869c2f0361000e5761161f565b6115ce565b611565565b61150a565b611368565b6114d2565b611497565b611429565b6113c6565b61122b565b611187565b61112f565b610fce565b610f1d565b610ede565b610e58565b610e0b565b610db0565b610d48565b610cbf565b610a20565b610957565b6107e8565b61075e565b610703565b61066b565b610620565b6105c8565b61054f565b6104fe565b610357565b610252565b7fffffffff0000000000000000000000000000000000000000000000000000000081160361024e57565b5f80fd5b3461024e5760207ffffffffffffffffffffffffffffffffffffffffffffffffffffffffffffffffc36011261024e5760207fffffffff000000000000000000000000000000000000000000000000000000006004356102b081610224565b167f7965db0b0000000000000000000000000000000000000000000000000000000081149081156102e7575b506040519015158152f35b7f01ffc9a7000000000000000000000000000000000000000000000000000000009150145f6102dc565b6004359073ffffffffffffffffffffffffffffffffffffffff8216820361024e57565b6024359073ffffffffffffffffffffffffffffffffffffffff8216820361024e57565b3461024e5760607ffffffffffffffffffffffffffffffffffffffffffffffffffffffffffffffffc36011261024e5761038e610311565b610396610334565b906103ec6103e73373ffffffffffffffffffffffffffffffffffffffff165f9081527f2fb794d17134dfdec181ddbac1babb5ab1eb140204ef4d982f294e7fc8b69022602052604090205460ff1690565b61173c565b60405190604082019082821067ffffffffffffffff8311176104d1576104cf9360019260405273ffffffffffffffffffffffffffffffffffffffff80921684528160208501911681526044355f52600a60205261048b8260405f20955116859073ffffffffffffffffffffffffffffffffffffffff167fffffffffffffffffffffffff0000000000000000000000000000000000000000825416179055565b511691019073ffffffffffffffffffffffffffffffffffffffff167fffffffffffffffffffffffff0000000000000000000000000000000000000000825416179055565b005b7f4e487b71000000000000000000000000000000000000000000000000000000005f52604160045260245ffd5b3461024e575f7ffffffffffffffffffffffffffffffffffffffffffffffffffffffffffffffffc36011261024e57602073ffffffffffffffffffffffffffffffffffffffff60065416604051908152f35b3461024e5760207ffffffffffffffffffffffffffffffffffffffffffffffffffffffffffffffffc36011261024e576104cf610589610311565b335f9081527f2fb794d17134dfdec181ddbac1babb5ab1eb140204ef4d982f294e7fc8b6902260205260409020546105c39060ff1661173c565b611822565b3461024e575f7ffffffffffffffffffffffffffffffffffffffffffffffffffffffffffffffffc36011261024e5760206040517ffb5864e8ff833c3cb2d2d08505e82ff02a43554c74a35d4f5a64e852612783118152f35b3461024e5760207ffffffffffffffffffffffffffffffffffffffffffffffffffffffffffffffffc36011261024e576004355f5260046020526020600160405f200154604051908152f35b3461024e5760207ffffffffffffffffffffffffffffffffffffffffffffffffffffffffffffffffc36011261024e57602060ff6106f76106a9610311565b7fdf8b4c520ffe197c5343c6f5aec59570151ef9a492f2c624fd45ddde6135ec425f526004845260405f209073ffffffffffffffffffffffffffffffffffffffff165f5260205260405f2090565b54166040519015158152f35b3461024e5760407ffffffffffffffffffffffffffffffffffffffffffffffffffffffffffffffffc36011261024e576104cf600435610740610334565b90805f526004602052610759600160405f200154611b0d565b611c96565b3461024e5760407ffffffffffffffffffffffffffffffffffffffffffffffffffffffffffffffffc36011261024e57610795610334565b3373ffffffffffffffffffffffffffffffffffffffff8216036107be576104cf90600435611dd6565b60046040517f6697b232000000000000000000000000000000000000000000000000000000008152fd5b3461024e5760207ffffffffffffffffffffffffffffffffffffffffffffffffffffffffffffffffc36011261024e5761081f610311565b335f9081527f2fb794d17134dfdec181ddbac1babb5ab1eb140204ef4d982f294e7fc8b690226020526040902061085b9060ff905b541661173c565b73ffffffffffffffffffffffffffffffffffffffff81169081156108f9576108d3905f805260016020526108ce836108c76108ae60405f2073ffffffffffffffffffffffffffffffffffffffff90541690565b73ffffffffffffffffffffffffffffffffffffffff1690565b1415611848565b611e0b565b7fbc7cd75a20ee27fd9adebab32041f755214dbc6bffa90cc0225b39da2e5c2d3b5f80a2005b60646040517f08c379a000000000000000000000000000000000000000000000000000000000815260206004820152600d60248201527f696e707574206973207a65726f000000000000000000000000000000000000006044820152fd5b3461024e5760407ffffffffffffffffffffffffffffffffffffffffffffffffffffffffffffffffc36011261024e5761098e610311565b610996610334565b335f9081527f2fb794d17134dfdec181ddbac1babb5ab1eb140204ef4d982f294e7fc8b69022602052604090206109cf9060ff90610854565b73ffffffffffffffffffffffffffffffffffffffff90817fffffffffffffffffffffffff00000000000000000000000000000000000000009316836005541617600555169060065416176006555f80f35b3461024e5760407ffffffffffffffffffffffffffffffffffffffffffffffffffffffffffffffffc36011261024e5760043567ffffffffffffffff80821161024e573660238301121561024e57816004013590811161024e576024820191602436918360051b01011161024e57610a95610334565b335f9081527f2fb794d17134dfdec181ddbac1babb5ab1eb140204ef4d982f294e7fc8b6902260205260409020909290610ad19060ff90610854565b8115610c615790610b12610b0d610b068573ffffffffffffffffffffffffffffffffffffffff165f52600260205260405f2090565b5460ff1690565b6118ad565b5f9073ffffffffffffffffffffffffffffffffffffffff92838516925b828110610b3857005b80610bab8587610ba3610b89610b59610b546001988b8b611912565b61194f565b7fffffffff00000000000000000000000000000000000000000000000000000000165f52600360205260405f2090565b5473ffffffffffffffffffffffffffffffffffffffff1690565b16141561195c565b610c0087610bc0610b59610b54858989611912565b9073ffffffffffffffffffffffffffffffffffffffff167fffffffffffffffffffffffff0000000000000000000000000000000000000000825416179055565b84610c37610c12610b54848888611912565b7fffffffff000000000000000000000000000000000000000000000000000000001690565b7f14ebc1c32aa68f4d766e89f3e546cee249f7df25183fc10ab1568d91c2ce9b7b5f80a301610b2f565b60646040517f08c379a000000000000000000000000000000000000000000000000000000000815260206004820152602060248201527f50726f78793a205f73656c6563746f727327732073697a65206973207a65726f6044820152fd5b3461024e5760207ffffffffffffffffffffffffffffffffffffffffffffffffffffffffffffffffc36011261024e577fffffffff00000000000000000000000000000000000000000000000000000000600435610d1b81610224565b165f526003602052602073ffffffffffffffffffffffffffffffffffffffff60405f205416604051908152f35b3461024e5760207ffffffffffffffffffffffffffffffffffffffffffffffffffffffffffffffffc36011261024e5773ffffffffffffffffffffffffffffffffffffffff610d94610311565b165f526002602052602060ff60405f2054166040519015158152f35b3461024e575f7ffffffffffffffffffffffffffffffffffffffffffffffffffffffffffffffffc36011261024e575f80526001602052602073ffffffffffffffffffffffffffffffffffffffff60405f205416604051908152f35b3461024e5760207ffffffffffffffffffffffffffffffffffffffffffffffffffffffffffffffffc36011261024e576004355f526009602052602060ff60405f2054166040519015158152f35b3461024e5760407ffffffffffffffffffffffffffffffffffffffffffffffffffffffffffffffffc36011261024e57610e8f610311565b602435801515810361024e57335f9081527f2fb794d17134dfdec181ddbac1babb5ab1eb140204ef4d982f294e7fc8b69022602052604090206104cf9290610ed99060ff90610854565b611edb565b3461024e575f7ffffffffffffffffffffffffffffffffffffffffffffffffffffffffffffffffc36011261024e57602060ff5f54166040519015158152f35b3461024e5760207ffffffffffffffffffffffffffffffffffffffffffffffffffffffffffffffffc36011261024e576104cf610f57610311565b335f9081527f2fb794d17134dfdec181ddbac1babb5ab1eb140204ef4d982f294e7fc8b69022602052604090207fdf8b4c520ffe197c5343c6f5aec59570151ef9a492f2c624fd45ddde6135ec4290610fb29060ff90610854565b5f526004602052610fc9600160405f200154611b0d565b611b83565b3461024e5760207ffffffffffffffffffffffffffffffffffffffffffffffffffffffffffffffffc36011261024e57611005610311565b335f9081527f2fb794d17134dfdec181ddbac1babb5ab1eb140204ef4d982f294e7fc8b690226020526040902061103e9060ff90610854565b73ffffffffffffffffffffffffffffffffffffffff811680156110d15733146110735761106a906117c7565b6104cf33611822565b60646040517f08c379a000000000000000000000000000000000000000000000000000000000815260206004820152601660248201527f41636365737369626c653a2073616d652061646d696e000000000000000000006044820152fd5b60646040517f08c379a000000000000000000000000000000000000000000000000000000000815260206004820152601860248201527f41636365737369626c653a207a65726f206164647265737300000000000000006044820152fd5b3461024e575f7ffffffffffffffffffffffffffffffffffffffffffffffffffffffffffffffffc36011261024e5760206040517fdf8b4c520ffe197c5343c6f5aec59570151ef9a492f2c624fd45ddde6135ec428152f35b3461024e5760207ffffffffffffffffffffffffffffffffffffffffffffffffffffffffffffffffc36011261024e5760043580151580910361024e57335f9081527f2fb794d17134dfdec181ddbac1babb5ab1eb140204ef4d982f294e7fc8b69022602052604090206111fc9060ff90610854565b60ff7fffffffffffffffffffffffffffffffffffffffffffffffffffffffffffffff005f54169116175f555f80f35b3461024e5760607ffffffffffffffffffffffffffffffffffffffffffffffffffffffffffffffffc36011261024e57611262610311565b604435801515810361024e57335f9081527f2fb794d17134dfdec181ddbac1babb5ab1eb140204ef4d982f294e7fc8b69022602052604090206112a79060ff90610854565b813b1561130a576104cf918115611edb576024355f526001602052610ed98160405f209073ffffffffffffffffffffffffffffffffffffffff167fffffffffffffffffffffffff0000000000000000000000000000000000000000825416179055565b60646040517f08c379a000000000000000000000000000000000000000000000000000000000815260206004820152601b60248201527f50726f78793a206e6f7420636f6e7472616374206164647265737300000000006044820152fd5b3461024e5760207ffffffffffffffffffffffffffffffffffffffffffffffffffffffffffffffffc36011261024e576004355f526001602052602073ffffffffffffffffffffffffffffffffffffffff60405f205416604051908152f35b3461024e5760207ffffffffffffffffffffffffffffffffffffffffffffffffffffffffffffffffc36011261024e57602061140b60043561140681610224565b6119c1565b73ffffffffffffffffffffffffffffffffffffffff60405191168152f35b3461024e5760407ffffffffffffffffffffffffffffffffffffffffffffffffffffffffffffffffc36011261024e57602060ff6106f7611467610334565b6004355f526004845260405f209073ffffffffffffffffffffffffffffffffffffffff165f5260205260405f2090565b3461024e575f7ffffffffffffffffffffffffffffffffffffffffffffffffffffffffffffffffc36011261024e576020600754604051908152f35b3461024e575f7ffffffffffffffffffffffffffffffffffffffffffffffffffffffffffffffffc36011261024e5760206040515f8152f35b3461024e5760407ffffffffffffffffffffffffffffffffffffffffffffffffffffffffffffffffc36011261024e576104cf600435611547610334565b90805f526004602052611560600160405f200154611b0d565b611dd6565b3461024e5760207ffffffffffffffffffffffffffffffffffffffffffffffffffffffffffffffffc36011261024e576004355f52600a6020526040805f2073ffffffffffffffffffffffffffffffffffffffff6001818354169201541682519182526020820152f35b3461024e575f7ffffffffffffffffffffffffffffffffffffffffffffffffffffffffffffffffc36011261024e57602073ffffffffffffffffffffffffffffffffffffffff60055416604051908152f35b3461024e5760207ffffffffffffffffffffffffffffffffffffffffffffffffffffffffffffffffc36011261024e576004355f52600860205260405f2073ffffffffffffffffffffffffffffffffffffffff6117388183541691806001850154169381600282015416916003820154166116b0600483015473ffffffffffffffffffffffffffffffffffffffff1690565b600583015460068401549160078501549360096008870154960154966040519a8b9a8b9693916101209895919b9a9996939261014089019c73ffffffffffffffffffffffffffffffffffffffff94858094818094168d521660208c01521660408a015216606088015216608086015260a085015260c084015260e08301526101008201520152565b0390f35b1561174357565b60846040517f08c379a000000000000000000000000000000000000000000000000000000000815260206004820152602260248201527f41636365737369626c653a2043616c6c6572206973206e6f7420616e2061646d60448201527f696e0000000000000000000000000000000000000000000000000000000000006064820152fd5b7fdf8b4c520ffe197c5343c6f5aec59570151ef9a492f2c624fd45ddde6135ec425f5260046020527f2fb794d17134dfdec181ddbac1babb5ab1eb140204ef4d982f294e7fc8b690235461181f9190610fc990611b0d565b50565b3373ffffffffffffffffffffffffffffffffffffffff8216036107be5761181f90611ccb565b1561184f57565b60646040517f08c379a000000000000000000000000000000000000000000000000000000000815260206004820152600960248201527f73616d65206164647200000000000000000000000000000000000000000000006044820152fd5b156118b457565b60646040517f08c379a000000000000000000000000000000000000000000000000000000000815260206004820152601860248201527f50726f78793a205f696d70206973206e6f7420616c69766500000000000000006044820152fd5b91908110156119225760051b0190565b7f4e487b71000000000000000000000000000000000000000000000000000000005f52603260045260245ffd5b3561195981610224565b90565b1561196357565b60646040517f08c379a000000000000000000000000000000000000000000000000000000000815260206004820152601d60248201527f4c69717569646974795661756c7450726f78793a2073616d6520696d700000006044820152fd5b7fffffffff0000000000000000000000000000000000000000000000000000000081165f52600360205273ffffffffffffffffffffffffffffffffffffffff908160405f205416155f14611a4357505f805260016020527fa6eef7e35abe7026729641147f7915573c7e97b47efa546f5f6e3230263bcb49541690565b541690565b60ff611aa383611a7d847fffffffff00000000000000000000000000000000000000000000000000000000165f52600360205260405f2090565b541673ffffffffffffffffffffffffffffffffffffffff165f52600260205260405f2090565b541615611ade57611a3e907fffffffff00000000000000000000000000000000000000000000000000000000165f52600360205260405f2090565b505f805260016020527fa6eef7e35abe7026729641147f7915573c7e97b47efa546f5f6e3230263bcb49541690565b805f52600460205260ff611b423360405f209073ffffffffffffffffffffffffffffffffffffffff165f5260205260405f2090565b541615611b4c5750565b604490604051907fe2517d3f0000000000000000000000000000000000000000000000000000000082523360048301526024820152fd5b73ffffffffffffffffffffffffffffffffffffffff81165f9081527f2fb794d17134dfdec181ddbac1babb5ab1eb140204ef4d982f294e7fc8b69022602052604090207fdf8b4c520ffe197c5343c6f5aec59570151ef9a492f2c624fd45ddde6135ec429060ff905b5416611c9057805f526004602052611c258260405f209073ffffffffffffffffffffffffffffffffffffffff165f5260205260405f2090565b60017fffffffffffffffffffffffffffffffffffffffffffffffffffffffffffffff0082541617905573ffffffffffffffffffffffffffffffffffffffff339216907f2f8788117e7eff1d82e926ec794901d17c78024a50270940304540a733656f0d5f80a4600190565b50505f90565b805f52600460205260ff611bec8360405f209073ffffffffffffffffffffffffffffffffffffffff165f5260205260405f2090565b73ffffffffffffffffffffffffffffffffffffffff81165f9081527f2fb794d17134dfdec181ddbac1babb5ab1eb140204ef4d982f294e7fc8b69022602052604090207fdf8b4c520ffe197c5343c6f5aec59570151ef9a492f2c624fd45ddde6135ec429060ff905b541615611c9057805f526004602052611d6e8260405f209073ffffffffffffffffffffffffffffffffffffffff165f5260205260405f2090565b7fffffffffffffffffffffffffffffffffffffffffffffffffffffffffffffff00815416905573ffffffffffffffffffffffffffffffffffffffff339216907ff6391f5c32d9c69d2a47ea670b442974b53935d1edc7fd64eb21e047a839171b5f80a4600190565b805f52600460205260ff611d348360405f209073ffffffffffffffffffffffffffffffffffffffff165f5260205260405f2090565b803b1561130a5773ffffffffffffffffffffffffffffffffffffffff905f80526001602052611e788160405f209073ffffffffffffffffffffffffffffffffffffffff167fffffffffffffffffffffffff0000000000000000000000000000000000000000825416179055565b16805f52600260205260405f2060017fffffffffffffffffffffffffffffffffffffffffffffffffffffffffffffff008254161790557f72558d9bfba4210f9ef095c782589484151f6d90f7a81bb3cb9b33efc695d324602060405160018152a2565b602073ffffffffffffffffffffffffffffffffffffffff7f72558d9bfba4210f9ef095c782589484151f6d90f7a81bb3cb9b33efc695d324921692835f526002825260405f20901515907fffffffffffffffffffffffffffffffffffffffffffffffffffffffffffffff0081541660ff8316179055604051908152a2565b611f857fffffffff000000000000000000000000000000000000000000000000000000005f35166119c1565b73ffffffffffffffffffffffffffffffffffffffff8116151580612024575b15611fc6575f8091368280378136915af43d5f803e15611fc2573d5ff35b3d5ffd5b60646040517f08c379a000000000000000000000000000000000000000000000000000000000815260206004820152601d60248201527f50726f78793a20696d706c204f522070726f78792069732066616c73650000006044820152fd5b5060ff5f541615611fa456fea26469706673582212205fd6648cdc225e9a3651c7c84b0716a2702287277dd445de0f429dd7a8b8319364736f6c63430008180033df8b4c520ffe197c5343c6f5aec59570151ef9a492f2c624fd45ddde6135ec42",
			"opcodes": "PUSH1 0x80 PUSH1 0x40 MSTORE CALLVALUE PUSH2 0x6B JUMPI PUSH0 DUP1 MLOAD PUSH1 0x20 PUSH3 0x2176 DUP4 CODECOPY DUP2 MLOAD SWAP2 MSTORE DUP1 PUSH0 MSTORE PUSH1 0x4 PUSH1 0x20 MSTORE PUSH1 0x1 PUSH1 0x40 PUSH0 KECCAK256 ADD DUP2 DUP2 SLOAD SWAP2 SSTORE DUP2 PUSH32 0xBD79B86FFE0AB8E8776151514217CD7CACD52C909F66475C3AF44E129F0B00FF PUSH0 DUP1 LOG4 PUSH2 0x5A CALLER PUSH2 0x6F JUMP JUMPDEST POP PUSH1 0x40 MLOAD PUSH2 0x2066 SWAP1 DUP2 PUSH3 0x110 DUP3 CODECOPY RETURN JUMPDEST PUSH0 DUP1 REVERT JUMPDEST PUSH1 0x1 PUSH1 0x1 PUSH1 0xA0 SHL SUB AND PUSH0 DUP2 DUP2 MSTORE PUSH32 0x2FB794D17134DFDEC181DDBAC1BABB5AB1EB140204EF4D982F294E7FC8B69022 PUSH1 0x20 MSTORE PUSH1 0x40 SWAP1 KECCAK256 SLOAD PUSH0 DUP1 MLOAD PUSH1 0x20 PUSH3 0x2176 DUP4 CODECOPY DUP2 MLOAD SWAP2 MSTORE SWAP2 SWAP1 PUSH1 0xFF AND PUSH2 0x109 JUMPI DUP2 PUSH0 MSTORE PUSH1 0x4 PUSH1 0x20 MSTORE PUSH1 0x40 PUSH0 KECCAK256 DUP2 PUSH0 MSTORE PUSH1 0x20 MSTORE PUSH1 0x40 PUSH0 KECCAK256 PUSH1 0x1 PUSH1 0xFF NOT DUP3 SLOAD AND OR SWAP1 SSTORE CALLER SWAP2 PUSH32 0x2F8788117E7EFF1D82E926EC794901D17C78024A50270940304540A733656F0D PUSH0 DUP1 LOG4 PUSH1 0x1 SWAP1 JUMP JUMPDEST POP POP PUSH0 SWAP1 JUMP INVALID PUSH1 0x80 PUSH1 0x40 MSTORE PUSH1 0x4 CALLDATASIZE LT ISZERO PUSH2 0x15 JUMPI JUMPDEST CALLDATASIZE PUSH2 0x1F59 JUMPI STOP JUMPDEST PUSH0 CALLDATALOAD PUSH1 0xE0 SHR DUP1 PUSH4 0x1FFC9A7 EQ PUSH2 0x21F JUMPI DUP1 PUSH4 0x1230B14C EQ PUSH2 0x21A JUMPI DUP1 PUSH4 0x16E01724 EQ PUSH2 0x215 JUMPI DUP1 PUSH4 0x1785F53C EQ PUSH2 0x210 JUMPI DUP1 PUSH4 0x22985246 EQ PUSH2 0x20B JUMPI DUP1 PUSH4 0x248A9CA3 EQ PUSH2 0x206 JUMPI DUP1 PUSH4 0x24D7806C EQ PUSH2 0x201 JUMPI DUP1 PUSH4 0x2F2FF15D EQ PUSH2 0x1FC JUMPI DUP1 PUSH4 0x36568ABE EQ PUSH2 0x1F7 JUMPI DUP1 PUSH4 0x3659CFE6 EQ PUSH2 0x1F2 JUMPI DUP1 PUSH4 0x485CC955 EQ PUSH2 0x1ED JUMPI DUP1 PUSH4 0x4A5DF50F EQ PUSH2 0x1E8 JUMPI DUP1 PUSH4 0x50D2A276 EQ PUSH2 0x1E3 JUMPI DUP1 PUSH4 0x550D01A3 EQ PUSH2 0x1DE JUMPI DUP1 PUSH4 0x5C60DA1B EQ PUSH2 0x1D9 JUMPI DUP1 PUSH4 0x5CADBD3B EQ PUSH2 0x1D4 JUMPI DUP1 PUSH4 0x5CC797D8 EQ PUSH2 0x1CF JUMPI DUP1 PUSH4 0x63A8FD89 EQ PUSH2 0x1CA JUMPI DUP1 PUSH4 0x70480275 EQ PUSH2 0x1C5 JUMPI DUP1 PUSH4 0x75829DEF EQ PUSH2 0x1C0 JUMPI DUP1 PUSH4 0x75B238FC EQ PUSH2 0x1BB JUMPI DUP1 PUSH4 0x7CB00D25 EQ PUSH2 0x1B6 JUMPI DUP1 PUSH4 0x7CD5F663 EQ PUSH2 0x1B1 JUMPI DUP1 PUSH4 0x8B8F4A65 EQ PUSH2 0x198 JUMPI DUP1 PUSH4 0x8D4FDB40 EQ PUSH2 0x1AC JUMPI DUP1 PUSH4 0x91D14854 EQ PUSH2 0x1A7 JUMPI DUP1 PUSH4 0xA1E89AEC EQ PUSH2 0x1A2 JUMPI DUP1 PUSH4 0xA217FDDF EQ PUSH2 0x19D JUMPI DUP1 PUSH4 0xB911135F EQ PUSH2 0x198 JUMPI DUP1 PUSH4 0xD547741F EQ PUSH2 0x193 JUMPI DUP1 PUSH4 0xE59F69C2 EQ PUSH2 0x18E JUMPI DUP1 PUSH4 0xF43B3613 EQ PUSH2 0x189 JUMPI PUSH4 0xF5869C2F SUB PUSH2 0xE JUMPI PUSH2 0x161F JUMP JUMPDEST PUSH2 0x15CE JUMP JUMPDEST PUSH2 0x1565 JUMP JUMPDEST PUSH2 0x150A JUMP JUMPDEST PUSH2 0x1368 JUMP JUMPDEST PUSH2 0x14D2 JUMP JUMPDEST PUSH2 0x1497 JUMP JUMPDEST PUSH2 0x1429 JUMP JUMPDEST PUSH2 0x13C6 JUMP JUMPDEST PUSH2 0x122B JUMP JUMPDEST PUSH2 0x1187 JUMP JUMPDEST PUSH2 0x112F JUMP JUMPDEST PUSH2 0xFCE JUMP JUMPDEST PUSH2 0xF1D JUMP JUMPDEST PUSH2 0xEDE JUMP JUMPDEST PUSH2 0xE58 JUMP JUMPDEST PUSH2 0xE0B JUMP JUMPDEST PUSH2 0xDB0 JUMP JUMPDEST PUSH2 0xD48 JUMP JUMPDEST PUSH2 0xCBF JUMP JUMPDEST PUSH2 0xA20 JUMP JUMPDEST PUSH2 0x957 JUMP JUMPDEST PUSH2 0x7E8 JUMP JUMPDEST PUSH2 0x75E JUMP JUMPDEST PUSH2 0x703 JUMP JUMPDEST PUSH2 0x66B JUMP JUMPDEST PUSH2 0x620 JUMP JUMPDEST PUSH2 0x5C8 JUMP JUMPDEST PUSH2 0x54F JUMP JUMPDEST PUSH2 0x4FE JUMP JUMPDEST PUSH2 0x357 JUMP JUMPDEST PUSH2 0x252 JUMP JUMPDEST PUSH32 0xFFFFFFFF00000000000000000000000000000000000000000000000000000000 DUP2 AND SUB PUSH2 0x24E JUMPI JUMP JUMPDEST PUSH0 DUP1 REVERT JUMPDEST CALLVALUE PUSH2 0x24E JUMPI PUSH1 0x20 PUSH32 0xFFFFFFFFFFFFFFFFFFFFFFFFFFFFFFFFFFFFFFFFFFFFFFFFFFFFFFFFFFFFFFFC CALLDATASIZE ADD SLT PUSH2 0x24E JUMPI PUSH1 0x20 PUSH32 0xFFFFFFFF00000000000000000000000000000000000000000000000000000000 PUSH1 0x4 CALLDATALOAD PUSH2 0x2B0 DUP2 PUSH2 0x224 JUMP JUMPDEST AND PUSH32 0x7965DB0B00000000000000000000000000000000000000000000000000000000 DUP2 EQ SWAP1 DUP2 ISZERO PUSH2 0x2E7 JUMPI JUMPDEST POP PUSH1 0x40 MLOAD SWAP1 ISZERO ISZERO DUP2 MSTORE RETURN JUMPDEST PUSH32 0x1FFC9A700000000000000000000000000000000000000000000000000000000 SWAP2 POP EQ PUSH0 PUSH2 0x2DC JUMP JUMPDEST PUSH1 0x4 CALLDATALOAD SWAP1 PUSH20 0xFFFFFFFFFFFFFFFFFFFFFFFFFFFFFFFFFFFFFFFF DUP3 AND DUP3 SUB PUSH2 0x24E JUMPI JUMP JUMPDEST PUSH1 0x24 CALLDATALOAD SWAP1 PUSH20 0xFFFFFFFFFFFFFFFFFFFFFFFFFFFFFFFFFFFFFFFF DUP3 AND DUP3 SUB PUSH2 0x24E JUMPI JUMP JUMPDEST CALLVALUE PUSH2 0x24E JUMPI PUSH1 0x60 PUSH32 0xFFFFFFFFFFFFFFFFFFFFFFFFFFFFFFFFFFFFFFFFFFFFFFFFFFFFFFFFFFFFFFFC CALLDATASIZE ADD SLT PUSH2 0x24E JUMPI PUSH2 0x38E PUSH2 0x311 JUMP JUMPDEST PUSH2 0x396 PUSH2 0x334 JUMP JUMPDEST SWAP1 PUSH2 0x3EC PUSH2 0x3E7 CALLER PUSH20 0xFFFFFFFFFFFFFFFFFFFFFFFFFFFFFFFFFFFFFFFF AND PUSH0 SWAP1 DUP2 MSTORE PUSH32 0x2FB794D17134DFDEC181DDBAC1BABB5AB1EB140204EF4D982F294E7FC8B69022 PUSH1 0x20 MSTORE PUSH1 0x40 SWAP1 KECCAK256 SLOAD PUSH1 0xFF AND SWAP1 JUMP JUMPDEST PUSH2 0x173C JUMP JUMPDEST PUSH1 0x40 MLOAD SWAP1 PUSH1 0x40 DUP3 ADD SWAP1 DUP3 DUP3 LT PUSH8 0xFFFFFFFFFFFFFFFF DUP4 GT OR PUSH2 0x4D1 JUMPI PUSH2 0x4CF SWAP4 PUSH1 0x1 SWAP3 PUSH1 0x40 MSTORE PUSH20 0xFFFFFFFFFFFFFFFFFFFFFFFFFFFFFFFFFFFFFFFF DUP1 SWAP3 AND DUP5 MSTORE DUP2 PUSH1 0x20 DUP6 ADD SWAP2 AND DUP2 MSTORE PUSH1 0x44 CALLDATALOAD PUSH0 MSTORE PUSH1 0xA PUSH1 0x20 MSTORE PUSH2 0x48B DUP3 PUSH1 0x40 PUSH0 KECCAK256 SWAP6 MLOAD AND DUP6 SWAP1 PUSH20 0xFFFFFFFFFFFFFFFFFFFFFFFFFFFFFFFFFFFFFFFF AND PUSH32 0xFFFFFFFFFFFFFFFFFFFFFFFF0000000000000000000000000000000000000000 DUP3 SLOAD AND OR SWAP1 SSTORE JUMP JUMPDEST MLOAD AND SWAP2 ADD SWAP1 PUSH20 0xFFFFFFFFFFFFFFFFFFFFFFFFFFFFFFFFFFFFFFFF AND PUSH32 0xFFFFFFFFFFFFFFFFFFFFFFFF0000000000000000000000000000000000000000 DUP3 SLOAD AND OR SWAP1 SSTORE JUMP JUMPDEST STOP JUMPDEST PUSH32 0x4E487B7100000000000000000000000000000000000000000000000000000000 PUSH0 MSTORE PUSH1 0x41 PUSH1 0x4 MSTORE PUSH1 0x24 PUSH0 REVERT JUMPDEST CALLVALUE PUSH2 0x24E JUMPI PUSH0 PUSH32 0xFFFFFFFFFFFFFFFFFFFFFFFFFFFFFFFFFFFFFFFFFFFFFFFFFFFFFFFFFFFFFFFC CALLDATASIZE ADD SLT PUSH2 0x24E JUMPI PUSH1 0x20 PUSH20 0xFFFFFFFFFFFFFFFFFFFFFFFFFFFFFFFFFFFFFFFF PUSH1 0x6 SLOAD AND PUSH1 0x40 MLOAD SWAP1 DUP2 MSTORE RETURN JUMPDEST CALLVALUE PUSH2 0x24E JUMPI PUSH1 0x20 PUSH32 0xFFFFFFFFFFFFFFFFFFFFFFFFFFFFFFFFFFFFFFFFFFFFFFFFFFFFFFFFFFFFFFFC CALLDATASIZE ADD SLT PUSH2 0x24E JUMPI PUSH2 0x4CF PUSH2 0x589 PUSH2 0x311 JUMP JUMPDEST CALLER PUSH0 SWAP1 DUP2 MSTORE PUSH32 0x2FB794D17134DFDEC181DDBAC1BABB5AB1EB140204EF4D982F294E7FC8B69022 PUSH1 0x20 MSTORE PUSH1 0x40 SWAP1 KECCAK256 SLOAD PUSH2 0x5C3 SWAP1 PUSH1 0xFF AND PUSH2 0x173C JUMP JUMPDEST PUSH2 0x1822 JUMP JUMPDEST CALLVALUE PUSH2 0x24E JUMPI PUSH0 PUSH32 0xFFFFFFFFFFFFFFFFFFFFFFFFFFFFFFFFFFFFFFFFFFFFFFFFFFFFFFFFFFFFFFFC CALLDATASIZE ADD SLT PUSH2 0x24E JUMPI PUSH1 0x20 PUSH1 0x40 MLOAD PUSH32 0xFB5864E8FF833C3CB2D2D08505E82FF02A43554C74A35D4F5A64E85261278311 DUP2 MSTORE RETURN JUMPDEST CALLVALUE PUSH2 0x24E JUMPI PUSH1 0x20 PUSH32 0xFFFFFFFFFFFFFFFFFFFFFFFFFFFFFFFFFFFFFFFFFFFFFFFFFFFFFFFFFFFFFFFC CALLDATASIZE ADD SLT PUSH2 0x24E JUMPI PUSH1 0x4 CALLDATALOAD PUSH0 MSTORE PUSH1 0x4 PUSH1 0x20 MSTORE PUSH1 0x20 PUSH1 0x1 PUSH1 0x40 PUSH0 KECCAK256 ADD SLOAD PUSH1 0x40 MLOAD SWAP1 DUP2 MSTORE RETURN JUMPDEST CALLVALUE PUSH2 0x24E JUMPI PUSH1 0x20 PUSH32 0xFFFFFFFFFFFFFFFFFFFFFFFFFFFFFFFFFFFFFFFFFFFFFFFFFFFFFFFFFFFFFFFC CALLDATASIZE ADD SLT PUSH2 0x24E JUMPI PUSH1 0x20 PUSH1 0xFF PUSH2 0x6F7 PUSH2 0x6A9 PUSH2 0x311 JUMP JUMPDEST PUSH32 0xDF8B4C520FFE197C5343C6F5AEC59570151EF9A492F2C624FD45DDDE6135EC42 PUSH0 MSTORE PUSH1 0x4 DUP5 MSTORE PUSH1 0x40 PUSH0 KECCAK256 SWAP1 PUSH20 0xFFFFFFFFFFFFFFFFFFFFFFFFFFFFFFFFFFFFFFFF AND PUSH0 MSTORE PUSH1 0x20 MSTORE PUSH1 0x40 PUSH0 KECCAK256 SWAP1 JUMP JUMPDEST SLOAD AND PUSH1 0x40 MLOAD SWAP1 ISZERO ISZERO DUP2 MSTORE RETURN JUMPDEST CALLVALUE PUSH2 0x24E JUMPI PUSH1 0x40 PUSH32 0xFFFFFFFFFFFFFFFFFFFFFFFFFFFFFFFFFFFFFFFFFFFFFFFFFFFFFFFFFFFFFFFC CALLDATASIZE ADD SLT PUSH2 0x24E JUMPI PUSH2 0x4CF PUSH1 0x4 CALLDATALOAD PUSH2 0x740 PUSH2 0x334 JUMP JUMPDEST SWAP1 DUP1 PUSH0 MSTORE PUSH1 0x4 PUSH1 0x20 MSTORE PUSH2 0x759 PUSH1 0x1 PUSH1 0x40 PUSH0 KECCAK256 ADD SLOAD PUSH2 0x1B0D JUMP JUMPDEST PUSH2 0x1C96 JUMP JUMPDEST CALLVALUE PUSH2 0x24E JUMPI PUSH1 0x40 PUSH32 0xFFFFFFFFFFFFFFFFFFFFFFFFFFFFFFFFFFFFFFFFFFFFFFFFFFFFFFFFFFFFFFFC CALLDATASIZE ADD SLT PUSH2 0x24E JUMPI PUSH2 0x795 PUSH2 0x334 JUMP JUMPDEST CALLER PUSH20 0xFFFFFFFFFFFFFFFFFFFFFFFFFFFFFFFFFFFFFFFF DUP3 AND SUB PUSH2 0x7BE JUMPI PUSH2 0x4CF SWAP1 PUSH1 0x4 CALLDATALOAD PUSH2 0x1DD6 JUMP JUMPDEST PUSH1 0x4 PUSH1 0x40 MLOAD PUSH32 0x6697B23200000000000000000000000000000000000000000000000000000000 DUP2 MSTORE REVERT JUMPDEST CALLVALUE PUSH2 0x24E JUMPI PUSH1 0x20 PUSH32 0xFFFFFFFFFFFFFFFFFFFFFFFFFFFFFFFFFFFFFFFFFFFFFFFFFFFFFFFFFFFFFFFC CALLDATASIZE ADD SLT PUSH2 0x24E JUMPI PUSH2 0x81F PUSH2 0x311 JUMP JUMPDEST CALLER PUSH0 SWAP1 DUP2 MSTORE PUSH32 0x2FB794D17134DFDEC181DDBAC1BABB5AB1EB140204EF4D982F294E7FC8B69022 PUSH1 0x20 MSTORE PUSH1 0x40 SWAP1 KECCAK256 PUSH2 0x85B SWAP1 PUSH1 0xFF SWAP1 JUMPDEST SLOAD AND PUSH2 0x173C JUMP JUMPDEST PUSH20 0xFFFFFFFFFFFFFFFFFFFFFFFFFFFFFFFFFFFFFFFF DUP2 AND SWAP1 DUP2 ISZERO PUSH2 0x8F9 JUMPI PUSH2 0x8D3 SWAP1 PUSH0 DUP1 MSTORE PUSH1 0x1 PUSH1 0x20 MSTORE PUSH2 0x8CE DUP4 PUSH2 0x8C7 PUSH2 0x8AE PUSH1 0x40 PUSH0 KECCAK256 PUSH20 0xFFFFFFFFFFFFFFFFFFFFFFFFFFFFFFFFFFFFFFFF SWAP1 SLOAD AND SWAP1 JUMP JUMPDEST PUSH20 0xFFFFFFFFFFFFFFFFFFFFFFFFFFFFFFFFFFFFFFFF AND SWAP1 JUMP JUMPDEST EQ ISZERO PUSH2 0x1848 JUMP JUMPDEST PUSH2 0x1E0B JUMP JUMPDEST PUSH32 0xBC7CD75A20EE27FD9ADEBAB32041F755214DBC6BFFA90CC0225B39DA2E5C2D3B PUSH0 DUP1 LOG2 STOP JUMPDEST PUSH1 0x64 PUSH1 0x40 MLOAD PUSH32 0x8C379A000000000000000000000000000000000000000000000000000000000 DUP2 MSTORE PUSH1 0x20 PUSH1 0x4 DUP3 ADD MSTORE PUSH1 0xD PUSH1 0x24 DUP3 ADD MSTORE PUSH32 0x696E707574206973207A65726F00000000000000000000000000000000000000 PUSH1 0x44 DUP3 ADD MSTORE REVERT JUMPDEST CALLVALUE PUSH2 0x24E JUMPI PUSH1 0x40 PUSH32 0xFFFFFFFFFFFFFFFFFFFFFFFFFFFFFFFFFFFFFFFFFFFFFFFFFFFFFFFFFFFFFFFC CALLDATASIZE ADD SLT PUSH2 0x24E JUMPI PUSH2 0x98E PUSH2 0x311 JUMP JUMPDEST PUSH2 0x996 PUSH2 0x334 JUMP JUMPDEST CALLER PUSH0 SWAP1 DUP2 MSTORE PUSH32 0x2FB794D17134DFDEC181DDBAC1BABB5AB1EB140204EF4D982F294E7FC8B69022 PUSH1 0x20 MSTORE PUSH1 0x40 SWAP1 KECCAK256 PUSH2 0x9CF SWAP1 PUSH1 0xFF SWAP1 PUSH2 0x854 JUMP JUMPDEST PUSH20 0xFFFFFFFFFFFFFFFFFFFFFFFFFFFFFFFFFFFFFFFF SWAP1 DUP2 PUSH32 0xFFFFFFFFFFFFFFFFFFFFFFFF0000000000000000000000000000000000000000 SWAP4 AND DUP4 PUSH1 0x5 SLOAD AND OR PUSH1 0x5 SSTORE AND SWAP1 PUSH1 0x6 SLOAD AND OR PUSH1 0x6 SSTORE PUSH0 DUP1 RETURN JUMPDEST CALLVALUE PUSH2 0x24E JUMPI PUSH1 0x40 PUSH32 0xFFFFFFFFFFFFFFFFFFFFFFFFFFFFFFFFFFFFFFFFFFFFFFFFFFFFFFFFFFFFFFFC CALLDATASIZE ADD SLT PUSH2 0x24E JUMPI PUSH1 0x4 CALLDATALOAD PUSH8 0xFFFFFFFFFFFFFFFF DUP1 DUP3 GT PUSH2 0x24E JUMPI CALLDATASIZE PUSH1 0x23 DUP4 ADD SLT ISZERO PUSH2 0x24E JUMPI DUP2 PUSH1 0x4 ADD CALLDATALOAD SWAP1 DUP2 GT PUSH2 0x24E JUMPI PUSH1 0x24 DUP3 ADD SWAP2 PUSH1 0x24 CALLDATASIZE SWAP2 DUP4 PUSH1 0x5 SHL ADD ADD GT PUSH2 0x24E JUMPI PUSH2 0xA95 PUSH2 0x334 JUMP JUMPDEST CALLER PUSH0 SWAP1 DUP2 MSTORE PUSH32 0x2FB794D17134DFDEC181DDBAC1BABB5AB1EB140204EF4D982F294E7FC8B69022 PUSH1 0x20 MSTORE PUSH1 0x40 SWAP1 KECCAK256 SWAP1 SWAP3 SWAP1 PUSH2 0xAD1 SWAP1 PUSH1 0xFF SWAP1 PUSH2 0x854 JUMP JUMPDEST DUP2 ISZERO PUSH2 0xC61 JUMPI SWAP1 PUSH2 0xB12 PUSH2 0xB0D PUSH2 0xB06 DUP6 PUSH20 0xFFFFFFFFFFFFFFFFFFFFFFFFFFFFFFFFFFFFFFFF AND PUSH0 MSTORE PUSH1 0x2 PUSH1 0x20 MSTORE PUSH1 0x40 PUSH0 KECCAK256 SWAP1 JUMP JUMPDEST SLOAD PUSH1 0xFF AND SWAP1 JUMP JUMPDEST PUSH2 0x18AD JUMP JUMPDEST PUSH0 SWAP1 PUSH20 0xFFFFFFFFFFFFFFFFFFFFFFFFFFFFFFFFFFFFFFFF SWAP3 DUP4 DUP6 AND SWAP3 JUMPDEST DUP3 DUP2 LT PUSH2 0xB38 JUMPI STOP JUMPDEST DUP1 PUSH2 0xBAB DUP6 DUP8 PUSH2 0xBA3 PUSH2 0xB89 PUSH2 0xB59 PUSH2 0xB54 PUSH1 0x1 SWAP9 DUP12 DUP12 PUSH2 0x1912 JUMP JUMPDEST PUSH2 0x194F JUMP JUMPDEST PUSH32 0xFFFFFFFF00000000000000000000000000000000000000000000000000000000 AND PUSH0 MSTORE PUSH1 0x3 PUSH1 0x20 MSTORE PUSH1 0x40 PUSH0 KECCAK256 SWAP1 JUMP JUMPDEST SLOAD PUSH20 0xFFFFFFFFFFFFFFFFFFFFFFFFFFFFFFFFFFFFFFFF AND SWAP1 JUMP JUMPDEST AND EQ ISZERO PUSH2 0x195C JUMP JUMPDEST PUSH2 0xC00 DUP8 PUSH2 0xBC0 PUSH2 0xB59 PUSH2 0xB54 DUP6 DUP10 DUP10 PUSH2 0x1912 JUMP JUMPDEST SWAP1 PUSH20 0xFFFFFFFFFFFFFFFFFFFFFFFFFFFFFFFFFFFFFFFF AND PUSH32 0xFFFFFFFFFFFFFFFFFFFFFFFF0000000000000000000000000000000000000000 DUP3 SLOAD AND OR SWAP1 SSTORE JUMP JUMPDEST DUP5 PUSH2 0xC37 PUSH2 0xC12 PUSH2 0xB54 DUP5 DUP9 DUP9 PUSH2 0x1912 JUMP JUMPDEST PUSH32 0xFFFFFFFF00000000000000000000000000000000000000000000000000000000 AND SWAP1 JUMP JUMPDEST PUSH32 0x14EBC1C32AA68F4D766E89F3E546CEE249F7DF25183FC10AB1568D91C2CE9B7B PUSH0 DUP1 LOG3 ADD PUSH2 0xB2F JUMP JUMPDEST PUSH1 0x64 PUSH1 0x40 MLOAD PUSH32 0x8C379A000000000000000000000000000000000000000000000000000000000 DUP2 MSTORE PUSH1 0x20 PUSH1 0x4 DUP3 ADD MSTORE PUSH1 0x20 PUSH1 0x24 DUP3 ADD MSTORE PUSH32 0x50726F78793A205F73656C6563746F727327732073697A65206973207A65726F PUSH1 0x44 DUP3 ADD MSTORE REVERT JUMPDEST CALLVALUE PUSH2 0x24E JUMPI PUSH1 0x20 PUSH32 0xFFFFFFFFFFFFFFFFFFFFFFFFFFFFFFFFFFFFFFFFFFFFFFFFFFFFFFFFFFFFFFFC CALLDATASIZE ADD SLT PUSH2 0x24E JUMPI PUSH32 0xFFFFFFFF00000000000000000000000000000000000000000000000000000000 PUSH1 0x4 CALLDATALOAD PUSH2 0xD1B DUP2 PUSH2 0x224 JUMP JUMPDEST AND PUSH0 MSTORE PUSH1 0x3 PUSH1 0x20 MSTORE PUSH1 0x20 PUSH20 0xFFFFFFFFFFFFFFFFFFFFFFFFFFFFFFFFFFFFFFFF PUSH1 0x40 PUSH0 KECCAK256 SLOAD AND PUSH1 0x40 MLOAD SWAP1 DUP2 MSTORE RETURN JUMPDEST CALLVALUE PUSH2 0x24E JUMPI PUSH1 0x20 PUSH32 0xFFFFFFFFFFFFFFFFFFFFFFFFFFFFFFFFFFFFFFFFFFFFFFFFFFFFFFFFFFFFFFFC CALLDATASIZE ADD SLT PUSH2 0x24E JUMPI PUSH20 0xFFFFFFFFFFFFFFFFFFFFFFFFFFFFFFFFFFFFFFFF PUSH2 0xD94 PUSH2 0x311 JUMP JUMPDEST AND PUSH0 MSTORE PUSH1 0x2 PUSH1 0x20 MSTORE PUSH1 0x20 PUSH1 0xFF PUSH1 0x40 PUSH0 KECCAK256 SLOAD AND PUSH1 0x40 MLOAD SWAP1 ISZERO ISZERO DUP2 MSTORE RETURN JUMPDEST CALLVALUE PUSH2 0x24E JUMPI PUSH0 PUSH32 0xFFFFFFFFFFFFFFFFFFFFFFFFFFFFFFFFFFFFFFFFFFFFFFFFFFFFFFFFFFFFFFFC CALLDATASIZE ADD SLT PUSH2 0x24E JUMPI PUSH0 DUP1 MSTORE PUSH1 0x1 PUSH1 0x20 MSTORE PUSH1 0x20 PUSH20 0xFFFFFFFFFFFFFFFFFFFFFFFFFFFFFFFFFFFFFFFF PUSH1 0x40 PUSH0 KECCAK256 SLOAD AND PUSH1 0x40 MLOAD SWAP1 DUP2 MSTORE RETURN JUMPDEST CALLVALUE PUSH2 0x24E JUMPI PUSH1 0x20 PUSH32 0xFFFFFFFFFFFFFFFFFFFFFFFFFFFFFFFFFFFFFFFFFFFFFFFFFFFFFFFFFFFFFFFC CALLDATASIZE ADD SLT PUSH2 0x24E JUMPI PUSH1 0x4 CALLDATALOAD PUSH0 MSTORE PUSH1 0x9 PUSH1 0x20 MSTORE PUSH1 0x20 PUSH1 0xFF PUSH1 0x40 PUSH0 KECCAK256 SLOAD AND PUSH1 0x40 MLOAD SWAP1 ISZERO ISZERO DUP2 MSTORE RETURN JUMPDEST CALLVALUE PUSH2 0x24E JUMPI PUSH1 0x40 PUSH32 0xFFFFFFFFFFFFFFFFFFFFFFFFFFFFFFFFFFFFFFFFFFFFFFFFFFFFFFFFFFFFFFFC CALLDATASIZE ADD SLT PUSH2 0x24E JUMPI PUSH2 0xE8F PUSH2 0x311 JUMP JUMPDEST PUSH1 0x24 CALLDATALOAD DUP1 ISZERO ISZERO DUP2 SUB PUSH2 0x24E JUMPI CALLER PUSH0 SWAP1 DUP2 MSTORE PUSH32 0x2FB794D17134DFDEC181DDBAC1BABB5AB1EB140204EF4D982F294E7FC8B69022 PUSH1 0x20 MSTORE PUSH1 0x40 SWAP1 KECCAK256 PUSH2 0x4CF SWAP3 SWAP1 PUSH2 0xED9 SWAP1 PUSH1 0xFF SWAP1 PUSH2 0x854 JUMP JUMPDEST PUSH2 0x1EDB JUMP JUMPDEST CALLVALUE PUSH2 0x24E JUMPI PUSH0 PUSH32 0xFFFFFFFFFFFFFFFFFFFFFFFFFFFFFFFFFFFFFFFFFFFFFFFFFFFFFFFFFFFFFFFC CALLDATASIZE ADD SLT PUSH2 0x24E JUMPI PUSH1 0x20 PUSH1 0xFF PUSH0 SLOAD AND PUSH1 0x40 MLOAD SWAP1 ISZERO ISZERO DUP2 MSTORE RETURN JUMPDEST CALLVALUE PUSH2 0x24E JUMPI PUSH1 0x20 PUSH32 0xFFFFFFFFFFFFFFFFFFFFFFFFFFFFFFFFFFFFFFFFFFFFFFFFFFFFFFFFFFFFFFFC CALLDATASIZE ADD SLT PUSH2 0x24E JUMPI PUSH2 0x4CF PUSH2 0xF57 PUSH2 0x311 JUMP JUMPDEST CALLER PUSH0 SWAP1 DUP2 MSTORE PUSH32 0x2FB794D17134DFDEC181DDBAC1BABB5AB1EB140204EF4D982F294E7FC8B69022 PUSH1 0x20 MSTORE PUSH1 0x40 SWAP1 KECCAK256 PUSH32 0xDF8B4C520FFE197C5343C6F5AEC59570151EF9A492F2C624FD45DDDE6135EC42 SWAP1 PUSH2 0xFB2 SWAP1 PUSH1 0xFF SWAP1 PUSH2 0x854 JUMP JUMPDEST PUSH0 MSTORE PUSH1 0x4 PUSH1 0x20 MSTORE PUSH2 0xFC9 PUSH1 0x1 PUSH1 0x40 PUSH0 KECCAK256 ADD SLOAD PUSH2 0x1B0D JUMP JUMPDEST PUSH2 0x1B83 JUMP JUMPDEST CALLVALUE PUSH2 0x24E JUMPI PUSH1 0x20 PUSH32 0xFFFFFFFFFFFFFFFFFFFFFFFFFFFFFFFFFFFFFFFFFFFFFFFFFFFFFFFFFFFFFFFC CALLDATASIZE ADD SLT PUSH2 0x24E JUMPI PUSH2 0x1005 PUSH2 0x311 JUMP JUMPDEST CALLER PUSH0 SWAP1 DUP2 MSTORE PUSH32 0x2FB794D17134DFDEC181DDBAC1BABB5AB1EB140204EF4D982F294E7FC8B69022 PUSH1 0x20 MSTORE PUSH1 0x40 SWAP1 KECCAK256 PUSH2 0x103E SWAP1 PUSH1 0xFF SWAP1 PUSH2 0x854 JUMP JUMPDEST PUSH20 0xFFFFFFFFFFFFFFFFFFFFFFFFFFFFFFFFFFFFFFFF DUP2 AND DUP1 ISZERO PUSH2 0x10D1 JUMPI CALLER EQ PUSH2 0x1073 JUMPI PUSH2 0x106A SWAP1 PUSH2 0x17C7 JUMP JUMPDEST PUSH2 0x4CF CALLER PUSH2 0x1822 JUMP JUMPDEST PUSH1 0x64 PUSH1 0x40 MLOAD PUSH32 0x8C379A000000000000000000000000000000000000000000000000000000000 DUP2 MSTORE PUSH1 0x20 PUSH1 0x4 DUP3 ADD MSTORE PUSH1 0x16 PUSH1 0x24 DUP3 ADD MSTORE PUSH32 0x41636365737369626C653A2073616D652061646D696E00000000000000000000 PUSH1 0x44 DUP3 ADD MSTORE REVERT JUMPDEST PUSH1 0x64 PUSH1 0x40 MLOAD PUSH32 0x8C379A000000000000000000000000000000000000000000000000000000000 DUP2 MSTORE PUSH1 0x20 PUSH1 0x4 DUP3 ADD MSTORE PUSH1 0x18 PUSH1 0x24 DUP3 ADD MSTORE PUSH32 0x41636365737369626C653A207A65726F20616464726573730000000000000000 PUSH1 0x44 DUP3 ADD MSTORE REVERT JUMPDEST CALLVALUE PUSH2 0x24E JUMPI PUSH0 PUSH32 0xFFFFFFFFFFFFFFFFFFFFFFFFFFFFFFFFFFFFFFFFFFFFFFFFFFFFFFFFFFFFFFFC CALLDATASIZE ADD SLT PUSH2 0x24E JUMPI PUSH1 0x20 PUSH1 0x40 MLOAD PUSH32 0xDF8B4C520FFE197C5343C6F5AEC59570151EF9A492F2C624FD45DDDE6135EC42 DUP2 MSTORE RETURN JUMPDEST CALLVALUE PUSH2 0x24E JUMPI PUSH1 0x20 PUSH32 0xFFFFFFFFFFFFFFFFFFFFFFFFFFFFFFFFFFFFFFFFFFFFFFFFFFFFFFFFFFFFFFFC CALLDATASIZE ADD SLT PUSH2 0x24E JUMPI PUSH1 0x4 CALLDATALOAD DUP1 ISZERO ISZERO DUP1 SWAP2 SUB PUSH2 0x24E JUMPI CALLER PUSH0 SWAP1 DUP2 MSTORE PUSH32 0x2FB794D17134DFDEC181DDBAC1BABB5AB1EB140204EF4D982F294E7FC8B69022 PUSH1 0x20 MSTORE PUSH1 0x40 SWAP1 KECCAK256 PUSH2 0x11FC SWAP1 PUSH1 0xFF SWAP1 PUSH2 0x854 JUMP JUMPDEST PUSH1 0xFF PUSH32 0xFFFFFFFFFFFFFFFFFFFFFFFFFFFFFFFFFFFFFFFFFFFFFFFFFFFFFFFFFFFFFF00 PUSH0 SLOAD AND SWAP2 AND OR PUSH0 SSTORE PUSH0 DUP1 RETURN JUMPDEST CALLVALUE PUSH2 0x24E JUMPI PUSH1 0x60 PUSH32 0xFFFFFFFFFFFFFFFFFFFFFFFFFFFFFFFFFFFFFFFFFFFFFFFFFFFFFFFFFFFFFFFC CALLDATASIZE ADD SLT PUSH2 0x24E JUMPI PUSH2 0x1262 PUSH2 0x311 JUMP JUMPDEST PUSH1 0x44 CALLDATALOAD DUP1 ISZERO ISZERO DUP2 SUB PUSH2 0x24E JUMPI CALLER PUSH0 SWAP1 DUP2 MSTORE PUSH32 0x2FB794D17134DFDEC181DDBAC1BABB5AB1EB140204EF4D982F294E7FC8B69022 PUSH1 0x20 MSTORE PUSH1 0x40 SWAP1 KECCAK256 PUSH2 0x12A7 SWAP1 PUSH1 0xFF SWAP1 PUSH2 0x854 JUMP JUMPDEST DUP2 EXTCODESIZE ISZERO PUSH2 0x130A JUMPI PUSH2 0x4CF SWAP2 DUP2 ISZERO PUSH2 0x1EDB JUMPI PUSH1 0x24 CALLDATALOAD PUSH0 MSTORE PUSH1 0x1 PUSH1 0x20 MSTORE PUSH2 0xED9 DUP2 PUSH1 0x40 PUSH0 KECCAK256 SWAP1 PUSH20 0xFFFFFFFFFFFFFFFFFFFFFFFFFFFFFFFFFFFFFFFF AND PUSH32 0xFFFFFFFFFFFFFFFFFFFFFFFF0000000000000000000000000000000000000000 DUP3 SLOAD AND OR SWAP1 SSTORE JUMP JUMPDEST PUSH1 0x64 PUSH1 0x40 MLOAD PUSH32 0x8C379A000000000000000000000000000000000000000000000000000000000 DUP2 MSTORE PUSH1 0x20 PUSH1 0x4 DUP3 ADD MSTORE PUSH1 0x1B PUSH1 0x24 DUP3 ADD MSTORE PUSH32 0x50726F78793A206E6F7420636F6E747261637420616464726573730000000000 PUSH1 0x44 DUP3 ADD MSTORE REVERT JUMPDEST CALLVALUE PUSH2 0x24E JUMPI PUSH1 0x20 PUSH32 0xFFFFFFFFFFFFFFFFFFFFFFFFFFFFFFFFFFFFFFFFFFFFFFFFFFFFFFFFFFFFFFFC CALLDATASIZE ADD SLT PUSH2 0x24E JUMPI PUSH1 0x4 CALLDATALOAD PUSH0 MSTORE PUSH1 0x1 PUSH1 0x20 MSTORE PUSH1 0x20 PUSH20 0xFFFFFFFFFFFFFFFFFFFFFFFFFFFFFFFFFFFFFFFF PUSH1 0x40 PUSH0 KECCAK256 SLOAD AND PUSH1 0x40 MLOAD SWAP1 DUP2 MSTORE RETURN JUMPDEST CALLVALUE PUSH2 0x24E JUMPI PUSH1 0x20 PUSH32 0xFFFFFFFFFFFFFFFFFFFFFFFFFFFFFFFFFFFFFFFFFFFFFFFFFFFFFFFFFFFFFFFC CALLDATASIZE ADD SLT PUSH2 0x24E JUMPI PUSH1 0x20 PUSH2 0x140B PUSH1 0x4 CALLDATALOAD PUSH2 0x1406 DUP2 PUSH2 0x224 JUMP JUMPDEST PUSH2 0x19C1 JUMP JUMPDEST PUSH20 0xFFFFFFFFFFFFFFFFFFFFFFFFFFFFFFFFFFFFFFFF PUSH1 0x40 MLOAD SWAP2 AND DUP2 MSTORE RETURN JUMPDEST CALLVALUE PUSH2 0x24E JUMPI PUSH1 0x40 PUSH32 0xFFFFFFFFFFFFFFFFFFFFFFFFFFFFFFFFFFFFFFFFFFFFFFFFFFFFFFFFFFFFFFFC CALLDATASIZE ADD SLT PUSH2 0x24E JUMPI PUSH1 0x20 PUSH1 0xFF PUSH2 0x6F7 PUSH2 0x1467 PUSH2 0x334 JUMP JUMPDEST PUSH1 0x4 CALLDATALOAD PUSH0 MSTORE PUSH1 0x4 DUP5 MSTORE PUSH1 0x40 PUSH0 KECCAK256 SWAP1 PUSH20 0xFFFFFFFFFFFFFFFFFFFFFFFFFFFFFFFFFFFFFFFF AND PUSH0 MSTORE PUSH1 0x20 MSTORE PUSH1 0x40 PUSH0 KECCAK256 SWAP1 JUMP JUMPDEST CALLVALUE PUSH2 0x24E JUMPI PUSH0 PUSH32 0xFFFFFFFFFFFFFFFFFFFFFFFFFFFFFFFFFFFFFFFFFFFFFFFFFFFFFFFFFFFFFFFC CALLDATASIZE ADD SLT PUSH2 0x24E JUMPI PUSH1 0x20 PUSH1 0x7 SLOAD PUSH1 0x40 MLOAD SWAP1 DUP2 MSTORE RETURN JUMPDEST CALLVALUE PUSH2 0x24E JUMPI PUSH0 PUSH32 0xFFFFFFFFFFFFFFFFFFFFFFFFFFFFFFFFFFFFFFFFFFFFFFFFFFFFFFFFFFFFFFFC CALLDATASIZE ADD SLT PUSH2 0x24E JUMPI PUSH1 0x20 PUSH1 0x40 MLOAD PUSH0 DUP2 MSTORE RETURN JUMPDEST CALLVALUE PUSH2 0x24E JUMPI PUSH1 0x40 PUSH32 0xFFFFFFFFFFFFFFFFFFFFFFFFFFFFFFFFFFFFFFFFFFFFFFFFFFFFFFFFFFFFFFFC CALLDATASIZE ADD SLT PUSH2 0x24E JUMPI PUSH2 0x4CF PUSH1 0x4 CALLDATALOAD PUSH2 0x1547 PUSH2 0x334 JUMP JUMPDEST SWAP1 DUP1 PUSH0 MSTORE PUSH1 0x4 PUSH1 0x20 MSTORE PUSH2 0x1560 PUSH1 0x1 PUSH1 0x40 PUSH0 KECCAK256 ADD SLOAD PUSH2 0x1B0D JUMP JUMPDEST PUSH2 0x1DD6 JUMP JUMPDEST CALLVALUE PUSH2 0x24E JUMPI PUSH1 0x20 PUSH32 0xFFFFFFFFFFFFFFFFFFFFFFFFFFFFFFFFFFFFFFFFFFFFFFFFFFFFFFFFFFFFFFFC CALLDATASIZE ADD SLT PUSH2 0x24E JUMPI PUSH1 0x4 CALLDATALOAD PUSH0 MSTORE PUSH1 0xA PUSH1 0x20 MSTORE PUSH1 0x40 DUP1 PUSH0 KECCAK256 PUSH20 0xFFFFFFFFFFFFFFFFFFFFFFFFFFFFFFFFFFFFFFFF PUSH1 0x1 DUP2 DUP4 SLOAD AND SWAP3 ADD SLOAD AND DUP3 MLOAD SWAP2 DUP3 MSTORE PUSH1 0x20 DUP3 ADD MSTORE RETURN JUMPDEST CALLVALUE PUSH2 0x24E JUMPI PUSH0 PUSH32 0xFFFFFFFFFFFFFFFFFFFFFFFFFFFFFFFFFFFFFFFFFFFFFFFFFFFFFFFFFFFFFFFC CALLDATASIZE ADD SLT PUSH2 0x24E JUMPI PUSH1 0x20 PUSH20 0xFFFFFFFFFFFFFFFFFFFFFFFFFFFFFFFFFFFFFFFF PUSH1 0x5 SLOAD AND PUSH1 0x40 MLOAD SWAP1 DUP2 MSTORE RETURN JUMPDEST CALLVALUE PUSH2 0x24E JUMPI PUSH1 0x20 PUSH32 0xFFFFFFFFFFFFFFFFFFFFFFFFFFFFFFFFFFFFFFFFFFFFFFFFFFFFFFFFFFFFFFFC CALLDATASIZE ADD SLT PUSH2 0x24E JUMPI PUSH1 0x4 CALLDATALOAD PUSH0 MSTORE PUSH1 0x8 PUSH1 0x20 MSTORE PUSH1 0x40 PUSH0 KECCAK256 PUSH20 0xFFFFFFFFFFFFFFFFFFFFFFFFFFFFFFFFFFFFFFFF PUSH2 0x1738 DUP2 DUP4 SLOAD AND SWAP2 DUP1 PUSH1 0x1 DUP6 ADD SLOAD AND SWAP4 DUP2 PUSH1 0x2 DUP3 ADD SLOAD AND SWAP2 PUSH1 0x3 DUP3 ADD SLOAD AND PUSH2 0x16B0 PUSH1 0x4 DUP4 ADD SLOAD PUSH20 0xFFFFFFFFFFFFFFFFFFFFFFFFFFFFFFFFFFFFFFFF AND SWAP1 JUMP JUMPDEST PUSH1 0x5 DUP4 ADD SLOAD PUSH1 0x6 DUP5 ADD SLOAD SWAP2 PUSH1 0x7 DUP6 ADD SLOAD SWAP4 PUSH1 0x9 PUSH1 0x8 DUP8 ADD SLOAD SWAP7 ADD SLOAD SWAP7 PUSH1 0x40 MLOAD SWAP11 DUP12 SWAP11 DUP12 SWAP7 SWAP4 SWAP2 PUSH2 0x120 SWAP9 SWAP6 SWAP2 SWAP12 SWAP11 SWAP10 SWAP7 SWAP4 SWAP3 PUSH2 0x140 DUP10 ADD SWAP13 PUSH20 0xFFFFFFFFFFFFFFFFFFFFFFFFFFFFFFFFFFFFFFFF SWAP5 DUP6 DUP1 SWAP5 DUP2 DUP1 SWAP5 AND DUP14 MSTORE AND PUSH1 0x20 DUP13 ADD MSTORE AND PUSH1 0x40 DUP11 ADD MSTORE AND PUSH1 0x60 DUP9 ADD MSTORE AND PUSH1 0x80 DUP7 ADD MSTORE PUSH1 0xA0 DUP6 ADD MSTORE PUSH1 0xC0 DUP5 ADD MSTORE PUSH1 0xE0 DUP4 ADD MSTORE PUSH2 0x100 DUP3 ADD MSTORE ADD MSTORE JUMP JUMPDEST SUB SWAP1 RETURN JUMPDEST ISZERO PUSH2 0x1743 JUMPI JUMP JUMPDEST PUSH1 0x84 PUSH1 0x40 MLOAD PUSH32 0x8C379A000000000000000000000000000000000000000000000000000000000 DUP2 MSTORE PUSH1 0x20 PUSH1 0x4 DUP3 ADD MSTORE PUSH1 0x22 PUSH1 0x24 DUP3 ADD MSTORE PUSH32 0x41636365737369626C653A2043616C6C6572206973206E6F7420616E2061646D PUSH1 0x44 DUP3 ADD MSTORE PUSH32 0x696E000000000000000000000000000000000000000000000000000000000000 PUSH1 0x64 DUP3 ADD MSTORE REVERT JUMPDEST PUSH32 0xDF8B4C520FFE197C5343C6F5AEC59570151EF9A492F2C624FD45DDDE6135EC42 PUSH0 MSTORE PUSH1 0x4 PUSH1 0x20 MSTORE PUSH32 0x2FB794D17134DFDEC181DDBAC1BABB5AB1EB140204EF4D982F294E7FC8B69023 SLOAD PUSH2 0x181F SWAP2 SWAP1 PUSH2 0xFC9 SWAP1 PUSH2 0x1B0D JUMP JUMPDEST POP JUMP JUMPDEST CALLER PUSH20 0xFFFFFFFFFFFFFFFFFFFFFFFFFFFFFFFFFFFFFFFF DUP3 AND SUB PUSH2 0x7BE JUMPI PUSH2 0x181F SWAP1 PUSH2 0x1CCB JUMP JUMPDEST ISZERO PUSH2 0x184F JUMPI JUMP JUMPDEST PUSH1 0x64 PUSH1 0x40 MLOAD PUSH32 0x8C379A000000000000000000000000000000000000000000000000000000000 DUP2 MSTORE PUSH1 0x20 PUSH1 0x4 DUP3 ADD MSTORE PUSH1 0x9 PUSH1 0x24 DUP3 ADD MSTORE PUSH32 0x73616D6520616464720000000000000000000000000000000000000000000000 PUSH1 0x44 DUP3 ADD MSTORE REVERT JUMPDEST ISZERO PUSH2 0x18B4 JUMPI JUMP JUMPDEST PUSH1 0x64 PUSH1 0x40 MLOAD PUSH32 0x8C379A000000000000000000000000000000000000000000000000000000000 DUP2 MSTORE PUSH1 0x20 PUSH1 0x4 DUP3 ADD MSTORE PUSH1 0x18 PUSH1 0x24 DUP3 ADD MSTORE PUSH32 0x50726F78793A205F696D70206973206E6F7420616C6976650000000000000000 PUSH1 0x44 DUP3 ADD MSTORE REVERT JUMPDEST SWAP2 SWAP1 DUP2 LT ISZERO PUSH2 0x1922 JUMPI PUSH1 0x5 SHL ADD SWAP1 JUMP JUMPDEST PUSH32 0x4E487B7100000000000000000000000000000000000000000000000000000000 PUSH0 MSTORE PUSH1 0x32 PUSH1 0x4 MSTORE PUSH1 0x24 PUSH0 REVERT JUMPDEST CALLDATALOAD PUSH2 0x1959 DUP2 PUSH2 0x224 JUMP JUMPDEST SWAP1 JUMP JUMPDEST ISZERO PUSH2 0x1963 JUMPI JUMP JUMPDEST PUSH1 0x64 PUSH1 0x40 MLOAD PUSH32 0x8C379A000000000000000000000000000000000000000000000000000000000 DUP2 MSTORE PUSH1 0x20 PUSH1 0x4 DUP3 ADD MSTORE PUSH1 0x1D PUSH1 0x24 DUP3 ADD MSTORE PUSH32 0x4C69717569646974795661756C7450726F78793A2073616D6520696D70000000 PUSH1 0x44 DUP3 ADD MSTORE REVERT JUMPDEST PUSH32 0xFFFFFFFF00000000000000000000000000000000000000000000000000000000 DUP2 AND PUSH0 MSTORE PUSH1 0x3 PUSH1 0x20 MSTORE PUSH20 0xFFFFFFFFFFFFFFFFFFFFFFFFFFFFFFFFFFFFFFFF SWAP1 DUP2 PUSH1 0x40 PUSH0 KECCAK256 SLOAD AND ISZERO PUSH0 EQ PUSH2 0x1A43 JUMPI POP PUSH0 DUP1 MSTORE PUSH1 0x1 PUSH1 0x20 MSTORE PUSH32 0xA6EEF7E35ABE7026729641147F7915573C7E97B47EFA546F5F6E3230263BCB49 SLOAD AND SWAP1 JUMP JUMPDEST SLOAD AND SWAP1 JUMP JUMPDEST PUSH1 0xFF PUSH2 0x1AA3 DUP4 PUSH2 0x1A7D DUP5 PUSH32 0xFFFFFFFF00000000000000000000000000000000000000000000000000000000 AND PUSH0 MSTORE PUSH1 0x3 PUSH1 0x20 MSTORE PUSH1 0x40 PUSH0 KECCAK256 SWAP1 JUMP JUMPDEST SLOAD AND PUSH20 0xFFFFFFFFFFFFFFFFFFFFFFFFFFFFFFFFFFFFFFFF AND PUSH0 MSTORE PUSH1 0x2 PUSH1 0x20 MSTORE PUSH1 0x40 PUSH0 KECCAK256 SWAP1 JUMP JUMPDEST SLOAD AND ISZERO PUSH2 0x1ADE JUMPI PUSH2 0x1A3E SWAP1 PUSH32 0xFFFFFFFF00000000000000000000000000000000000000000000000000000000 AND PUSH0 MSTORE PUSH1 0x3 PUSH1 0x20 MSTORE PUSH1 0x40 PUSH0 KECCAK256 SWAP1 JUMP JUMPDEST POP PUSH0 DUP1 MSTORE PUSH1 0x1 PUSH1 0x20 MSTORE PUSH32 0xA6EEF7E35ABE7026729641147F7915573C7E97B47EFA546F5F6E3230263BCB49 SLOAD AND SWAP1 JUMP JUMPDEST DUP1 PUSH0 MSTORE PUSH1 0x4 PUSH1 0x20 MSTORE PUSH1 0xFF PUSH2 0x1B42 CALLER PUSH1 0x40 PUSH0 KECCAK256 SWAP1 PUSH20 0xFFFFFFFFFFFFFFFFFFFFFFFFFFFFFFFFFFFFFFFF AND PUSH0 MSTORE PUSH1 0x20 MSTORE PUSH1 0x40 PUSH0 KECCAK256 SWAP1 JUMP JUMPDEST SLOAD AND ISZERO PUSH2 0x1B4C JUMPI POP JUMP JUMPDEST PUSH1 0x44 SWAP1 PUSH1 0x40 MLOAD SWAP1 PUSH32 0xE2517D3F00000000000000000000000000000000000000000000000000000000 DUP3 MSTORE CALLER PUSH1 0x4 DUP4 ADD MSTORE PUSH1 0x24 DUP3 ADD MSTORE REVERT JUMPDEST PUSH20 0xFFFFFFFFFFFFFFFFFFFFFFFFFFFFFFFFFFFFFFFF DUP2 AND PUSH0 SWAP1 DUP2 MSTORE PUSH32 0x2FB794D17134DFDEC181DDBAC1BABB5AB1EB140204EF4D982F294E7FC8B69022 PUSH1 0x20 MSTORE PUSH1 0x40 SWAP1 KECCAK256 PUSH32 0xDF8B4C520FFE197C5343C6F5AEC59570151EF9A492F2C624FD45DDDE6135EC42 SWAP1 PUSH1 0xFF SWAP1 JUMPDEST SLOAD AND PUSH2 0x1C90 JUMPI DUP1 PUSH0 MSTORE PUSH1 0x4 PUSH1 0x20 MSTORE PUSH2 0x1C25 DUP3 PUSH1 0x40 PUSH0 KECCAK256 SWAP1 PUSH20 0xFFFFFFFFFFFFFFFFFFFFFFFFFFFFFFFFFFFFFFFF AND PUSH0 MSTORE PUSH1 0x20 MSTORE PUSH1 0x40 PUSH0 KECCAK256 SWAP1 JUMP JUMPDEST PUSH1 0x1 PUSH32 0xFFFFFFFFFFFFFFFFFFFFFFFFFFFFFFFFFFFFFFFFFFFFFFFFFFFFFFFFFFFFFF00 DUP3 SLOAD AND OR SWAP1 SSTORE PUSH20 0xFFFFFFFFFFFFFFFFFFFFFFFFFFFFFFFFFFFFFFFF CALLER SWAP3 AND SWAP1 PUSH32 0x2F8788117E7EFF1D82E926EC794901D17C78024A50270940304540A733656F0D PUSH0 DUP1 LOG4 PUSH1 0x1 SWAP1 JUMP JUMPDEST POP POP PUSH0 SWAP1 JUMP JUMPDEST DUP1 PUSH0 MSTORE PUSH1 0x4 PUSH1 0x20 MSTORE PUSH1 0xFF PUSH2 0x1BEC DUP4 PUSH1 0x40 PUSH0 KECCAK256 SWAP1 PUSH20 0xFFFFFFFFFFFFFFFFFFFFFFFFFFFFFFFFFFFFFFFF AND PUSH0 MSTORE PUSH1 0x20 MSTORE PUSH1 0x40 PUSH0 KECCAK256 SWAP1 JUMP JUMPDEST PUSH20 0xFFFFFFFFFFFFFFFFFFFFFFFFFFFFFFFFFFFFFFFF DUP2 AND PUSH0 SWAP1 DUP2 MSTORE PUSH32 0x2FB794D17134DFDEC181DDBAC1BABB5AB1EB140204EF4D982F294E7FC8B69022 PUSH1 0x20 MSTORE PUSH1 0x40 SWAP1 KECCAK256 PUSH32 0xDF8B4C520FFE197C5343C6F5AEC59570151EF9A492F2C624FD45DDDE6135EC42 SWAP1 PUSH1 0xFF SWAP1 JUMPDEST SLOAD AND ISZERO PUSH2 0x1C90 JUMPI DUP1 PUSH0 MSTORE PUSH1 0x4 PUSH1 0x20 MSTORE PUSH2 0x1D6E DUP3 PUSH1 0x40 PUSH0 KECCAK256 SWAP1 PUSH20 0xFFFFFFFFFFFFFFFFFFFFFFFFFFFFFFFFFFFFFFFF AND PUSH0 MSTORE PUSH1 0x20 MSTORE PUSH1 0x40 PUSH0 KECCAK256 SWAP1 JUMP JUMPDEST PUSH32 0xFFFFFFFFFFFFFFFFFFFFFFFFFFFFFFFFFFFFFFFFFFFFFFFFFFFFFFFFFFFFFF00 DUP2 SLOAD AND SWAP1 SSTORE PUSH20 0xFFFFFFFFFFFFFFFFFFFFFFFFFFFFFFFFFFFFFFFF CALLER SWAP3 AND SWAP1 PUSH32 0xF6391F5C32D9C69D2A47EA670B442974B53935D1EDC7FD64EB21E047A839171B PUSH0 DUP1 LOG4 PUSH1 0x1 SWAP1 JUMP JUMPDEST DUP1 PUSH0 MSTORE PUSH1 0x4 PUSH1 0x20 MSTORE PUSH1 0xFF PUSH2 0x1D34 DUP4 PUSH1 0x40 PUSH0 KECCAK256 SWAP1 PUSH20 0xFFFFFFFFFFFFFFFFFFFFFFFFFFFFFFFFFFFFFFFF AND PUSH0 MSTORE PUSH1 0x20 MSTORE PUSH1 0x40 PUSH0 KECCAK256 SWAP1 JUMP JUMPDEST DUP1 EXTCODESIZE ISZERO PUSH2 0x130A JUMPI PUSH20 0xFFFFFFFFFFFFFFFFFFFFFFFFFFFFFFFFFFFFFFFF SWAP1 PUSH0 DUP1 MSTORE PUSH1 0x1 PUSH1 0x20 MSTORE PUSH2 0x1E78 DUP2 PUSH1 0x40 PUSH0 KECCAK256 SWAP1 PUSH20 0xFFFFFFFFFFFFFFFFFFFFFFFFFFFFFFFFFFFFFFFF AND PUSH32 0xFFFFFFFFFFFFFFFFFFFFFFFF0000000000000000000000000000000000000000 DUP3 SLOAD AND OR SWAP1 SSTORE JUMP JUMPDEST AND DUP1 PUSH0 MSTORE PUSH1 0x2 PUSH1 0x20 MSTORE PUSH1 0x40 PUSH0 KECCAK256 PUSH1 0x1 PUSH32 0xFFFFFFFFFFFFFFFFFFFFFFFFFFFFFFFFFFFFFFFFFFFFFFFFFFFFFFFFFFFFFF00 DUP3 SLOAD AND OR SWAP1 SSTORE PUSH32 0x72558D9BFBA4210F9EF095C782589484151F6D90F7A81BB3CB9B33EFC695D324 PUSH1 0x20 PUSH1 0x40 MLOAD PUSH1 0x1 DUP2 MSTORE LOG2 JUMP JUMPDEST PUSH1 0x20 PUSH20 0xFFFFFFFFFFFFFFFFFFFFFFFFFFFFFFFFFFFFFFFF PUSH32 0x72558D9BFBA4210F9EF095C782589484151F6D90F7A81BB3CB9B33EFC695D324 SWAP3 AND SWAP3 DUP4 PUSH0 MSTORE PUSH1 0x2 DUP3 MSTORE PUSH1 0x40 PUSH0 KECCAK256 SWAP1 ISZERO ISZERO SWAP1 PUSH32 0xFFFFFFFFFFFFFFFFFFFFFFFFFFFFFFFFFFFFFFFFFFFFFFFFFFFFFFFFFFFFFF00 DUP2 SLOAD AND PUSH1 0xFF DUP4 AND OR SWAP1 SSTORE PUSH1 0x40 MLOAD SWAP1 DUP2 MSTORE LOG2 JUMP JUMPDEST PUSH2 0x1F85 PUSH32 0xFFFFFFFF00000000000000000000000000000000000000000000000000000000 PUSH0 CALLDATALOAD AND PUSH2 0x19C1 JUMP JUMPDEST PUSH20 0xFFFFFFFFFFFFFFFFFFFFFFFFFFFFFFFFFFFFFFFF DUP2 AND ISZERO ISZERO DUP1 PUSH2 0x2024 JUMPI JUMPDEST ISZERO PUSH2 0x1FC6 JUMPI PUSH0 DUP1 SWAP2 CALLDATASIZE DUP3 DUP1 CALLDATACOPY DUP2 CALLDATASIZE SWAP2 GAS DELEGATECALL RETURNDATASIZE PUSH0 DUP1 RETURNDATACOPY ISZERO PUSH2 0x1FC2 JUMPI RETURNDATASIZE PUSH0 RETURN JUMPDEST RETURNDATASIZE PUSH0 REVERT JUMPDEST PUSH1 0x64 PUSH1 0x40 MLOAD PUSH32 0x8C379A000000000000000000000000000000000000000000000000000000000 DUP2 MSTORE PUSH1 0x20 PUSH1 0x4 DUP3 ADD MSTORE PUSH1 0x1D PUSH1 0x24 DUP3 ADD MSTORE PUSH32 0x50726F78793A20696D706C204F522070726F78792069732066616C7365000000 PUSH1 0x44 DUP3 ADD MSTORE REVERT JUMPDEST POP PUSH1 0xFF PUSH0 SLOAD AND ISZERO PUSH2 0x1FA4 JUMP INVALID LOG2 PUSH5 0x6970667358 0x22 SLT KECCAK256 PUSH0 0xD6 PUSH5 0x8CDC225E9A CALLDATASIZE MLOAD 0xC7 0xC8 0x4B SMOD AND LOG2 PUSH17 0x2287277DD445DE0F429DD7A8B831936473 PUSH16 0x6C63430008180033DF8B4C520FFE197C MSTORE8 NUMBER 0xC6 CREATE2 0xAE 0xC5 SWAP6 PUSH17 0x151EF9A492F2C624FD45DDDE6135EC4200 "
		},
		"gasEstimates": {
			"creation": {
				"codeDepositCost": "1658800",
				"executionCost": "infinite",
				"totalCost": "infinite"
			},
			"external": {
				"": "infinite",
				"ADMIN_ROLE()": "594",
				"DEFAULT_ADMIN_ROLE()": "747",
				"POLICY_ROLE()": "242",
				"addAdmin(address)": "35791",
				"aliveImplementation(address)": "2681",
				"chainData(uint256)": "5121",
				"crossDomainMessenger()": "2945",
				"dealData(uint256)": "22312",
				"getRoleAdmin(bytes32)": "2438",
				"getSelectorImplementation2(bytes4)": "9561",
				"grantRole(bytes32,address)": "33383",
				"hasRole(bytes32,address)": "3027",
				"implementation()": "2632",
				"implementation2(uint256)": "2834",
				"initialize(address,address)": "51163",
				"isAdmin(address)": "2606",
				"legacyERC20ETH()": "2307",
				"pauseProxy()": "2642",
				"proxyImplementation(uint256)": "2944",
				"registerCheck(bytes32)": "2664",
				"removeAdmin(address)": "31030",
				"renounceRole(bytes32,address)": "28963",
				"revokeRole(bytes32,address)": "33864",
				"saleCount()": "2829",
				"selectorImplementation(bytes4)": "2650",
				"setAliveImplementation2(address,bool)": "28562",
				"setChainInfo(address,address,uint256)": "51202",
				"setImplementation2(address,uint256,bool)": "55635",
				"setProxyPause(bool)": "27091",
				"setSelectorImplementations2(bytes4[],address)": "infinite",
				"supportsInterface(bytes4)": "284",
				"transferAdmin(address)": "infinite",
				"upgradeTo(address)": "58683"
			}
		},
		"methodIdentifiers": {
			"ADMIN_ROLE()": "75b238fc",
			"DEFAULT_ADMIN_ROLE()": "a217fddf",
			"POLICY_ROLE()": "22985246",
			"addAdmin(address)": "70480275",
			"aliveImplementation(address)": "550d01a3",
			"chainData(uint256)": "e59f69c2",
			"crossDomainMessenger()": "f43b3613",
			"dealData(uint256)": "f5869c2f",
			"getRoleAdmin(bytes32)": "248a9ca3",
			"getSelectorImplementation2(bytes4)": "8d4fdb40",
			"grantRole(bytes32,address)": "2f2ff15d",
			"hasRole(bytes32,address)": "91d14854",
			"implementation()": "5c60da1b",
			"implementation2(uint256)": "8b8f4a65",
			"initialize(address,address)": "485cc955",
			"isAdmin(address)": "24d7806c",
			"legacyERC20ETH()": "16e01724",
			"pauseProxy()": "63a8fd89",
			"proxyImplementation(uint256)": "b911135f",
			"registerCheck(bytes32)": "5cadbd3b",
			"removeAdmin(address)": "1785f53c",
			"renounceRole(bytes32,address)": "36568abe",
			"revokeRole(bytes32,address)": "d547741f",
			"saleCount()": "a1e89aec",
			"selectorImplementation(bytes4)": "50d2a276",
			"setAliveImplementation2(address,bool)": "5cc797d8",
			"setChainInfo(address,address,uint256)": "1230b14c",
			"setImplementation2(address,uint256,bool)": "7cd5f663",
			"setProxyPause(bool)": "7cb00d25",
			"setSelectorImplementations2(bytes4[],address)": "4a5df50f",
			"supportsInterface(bytes4)": "01ffc9a7",
			"transferAdmin(address)": "75829def",
			"upgradeTo(address)": "3659cfe6"
		}
	},
	"abi": [
		{
			"inputs": [],
			"name": "AccessControlBadConfirmation",
			"type": "error"
		},
		{
			"inputs": [
				{
					"internalType": "address",
					"name": "account",
					"type": "address"
				},
				{
					"internalType": "bytes32",
					"name": "neededRole",
					"type": "bytes32"
				}
			],
			"name": "AccessControlUnauthorizedAccount",
			"type": "error"
		},
		{
			"anonymous": false,
			"inputs": [
				{
					"indexed": true,
					"internalType": "bytes32",
					"name": "role",
					"type": "bytes32"
				},
				{
					"indexed": true,
					"internalType": "bytes32",
					"name": "previousAdminRole",
					"type": "bytes32"
				},
				{
					"indexed": true,
					"internalType": "bytes32",
					"name": "newAdminRole",
					"type": "bytes32"
				}
			],
			"name": "RoleAdminChanged",
			"type": "event"
		},
		{
			"anonymous": false,
			"inputs": [
				{
					"indexed": true,
					"internalType": "bytes32",
					"name": "role",
					"type": "bytes32"
				},
				{
					"indexed": true,
					"internalType": "address",
					"name": "account",
					"type": "address"
				},
				{
					"indexed": true,
					"internalType": "address",
					"name": "sender",
					"type": "address"
				}
			],
			"name": "RoleGranted",
			"type": "event"
		},
		{
			"anonymous": false,
			"inputs": [
				{
					"indexed": true,
					"internalType": "bytes32",
					"name": "role",
					"type": "bytes32"
				},
				{
					"indexed": true,
					"internalType": "address",
					"name": "account",
					"type": "address"
				},
				{
					"indexed": true,
					"internalType": "address",
					"name": "sender",
					"type": "address"
				}
			],
			"name": "RoleRevoked",
			"type": "event"
		},
		{
			"anonymous": false,
			"inputs": [
				{
					"indexed": true,
					"internalType": "address",
					"name": "impl",
					"type": "address"
				},
				{
					"indexed": false,
					"internalType": "bool",
					"name": "alive",
					"type": "bool"
				}
			],
			"name": "SetAliveImplementation",
			"type": "event"
		},
		{
			"anonymous": false,
			"inputs": [
				{
					"indexed": true,
					"internalType": "bytes4",
					"name": "selector",
					"type": "bytes4"
				},
				{
					"indexed": true,
					"internalType": "address",
					"name": "impl",
					"type": "address"
				}
			],
			"name": "SetSelectorImplementation",
			"type": "event"
		},
		{
			"anonymous": false,
			"inputs": [
				{
					"indexed": true,
					"internalType": "address",
					"name": "implementation",
					"type": "address"
				}
			],
			"name": "Upgraded",
			"type": "event"
		},
		{
			"stateMutability": "payable",
			"type": "fallback"
		},
		{
			"inputs": [],
			"name": "ADMIN_ROLE",
			"outputs": [
				{
					"internalType": "bytes32",
					"name": "",
					"type": "bytes32"
				}
			],
			"stateMutability": "view",
			"type": "function"
		},
		{
			"inputs": [],
			"name": "DEFAULT_ADMIN_ROLE",
			"outputs": [
				{
					"internalType": "bytes32",
					"name": "",
					"type": "bytes32"
				}
			],
			"stateMutability": "view",
			"type": "function"
		},
		{
			"inputs": [],
			"name": "POLICY_ROLE",
			"outputs": [
				{
					"internalType": "bytes32",
					"name": "",
					"type": "bytes32"
				}
			],
			"stateMutability": "view",
			"type": "function"
		},
		{
			"inputs": [
				{
					"internalType": "address",
					"name": "account",
					"type": "address"
				}
			],
			"name": "addAdmin",
			"outputs": [],
			"stateMutability": "nonpayable",
			"type": "function"
		},
		{
			"inputs": [
				{
					"internalType": "address",
					"name": "",
					"type": "address"
				}
			],
			"name": "aliveImplementation",
			"outputs": [
				{
					"internalType": "bool",
					"name": "",
					"type": "bool"
				}
			],
			"stateMutability": "view",
			"type": "function"
		},
		{
			"inputs": [
				{
					"internalType": "uint256",
					"name": "",
					"type": "uint256"
				}
			],
			"name": "chainData",
			"outputs": [
				{
					"internalType": "address",
					"name": "l1CrossTradeContract",
					"type": "address"
				},
				{
					"internalType": "address",
					"name": "l1TON",
					"type": "address"
				}
			],
			"stateMutability": "view",
			"type": "function"
		},
		{
			"inputs": [],
			"name": "crossDomainMessenger",
			"outputs": [
				{
					"internalType": "address",
					"name": "",
					"type": "address"
				}
			],
			"stateMutability": "view",
			"type": "function"
		},
		{
			"inputs": [
				{
					"internalType": "uint256",
					"name": "",
					"type": "uint256"
				}
			],
			"name": "dealData",
			"outputs": [
				{
					"internalType": "address",
					"name": "l1token",
					"type": "address"
				},
				{
					"internalType": "address",
					"name": "l2SourceToken",
					"type": "address"
				},
				{
					"internalType": "address",
					"name": "l2TargetToken",
					"type": "address"
				},
				{
					"internalType": "address",
					"name": "requester",
					"type": "address"
				},
				{
					"internalType": "address",
					"name": "provider",
					"type": "address"
				},
				{
					"internalType": "uint256",
					"name": "totalAmount",
					"type": "uint256"
				},
				{
					"internalType": "uint256",
					"name": "ctAmount",
					"type": "uint256"
				},
				{
					"internalType": "uint256",
					"name": "l1ChainId",
					"type": "uint256"
				},
				{
					"internalType": "uint256",
					"name": "l2TargetChainId",
					"type": "uint256"
				},
				{
					"internalType": "bytes32",
					"name": "hashValue",
					"type": "bytes32"
				}
			],
			"stateMutability": "view",
			"type": "function"
		},
		{
			"inputs": [
				{
					"internalType": "bytes32",
					"name": "role",
					"type": "bytes32"
				}
			],
			"name": "getRoleAdmin",
			"outputs": [
				{
					"internalType": "bytes32",
					"name": "",
					"type": "bytes32"
				}
			],
			"stateMutability": "view",
			"type": "function"
		},
		{
			"inputs": [
				{
					"internalType": "bytes4",
					"name": "_selector",
					"type": "bytes4"
				}
			],
			"name": "getSelectorImplementation2",
			"outputs": [
				{
					"internalType": "address",
					"name": "impl",
					"type": "address"
				}
			],
			"stateMutability": "view",
			"type": "function"
		},
		{
			"inputs": [
				{
					"internalType": "bytes32",
					"name": "role",
					"type": "bytes32"
				},
				{
					"internalType": "address",
					"name": "account",
					"type": "address"
				}
			],
			"name": "grantRole",
			"outputs": [],
			"stateMutability": "nonpayable",
			"type": "function"
		},
		{
			"inputs": [
				{
					"internalType": "bytes32",
					"name": "role",
					"type": "bytes32"
				},
				{
					"internalType": "address",
					"name": "account",
					"type": "address"
				}
			],
			"name": "hasRole",
			"outputs": [
				{
					"internalType": "bool",
					"name": "",
					"type": "bool"
				}
			],
			"stateMutability": "view",
			"type": "function"
		},
		{
			"inputs": [],
			"name": "implementation",
			"outputs": [
				{
					"internalType": "address",
					"name": "",
					"type": "address"
				}
			],
			"stateMutability": "view",
			"type": "function"
		},
		{
			"inputs": [
				{
					"internalType": "uint256",
					"name": "_index",
					"type": "uint256"
				}
			],
			"name": "implementation2",
			"outputs": [
				{
					"internalType": "address",
					"name": "",
					"type": "address"
				}
			],
			"stateMutability": "view",
			"type": "function"
		},
		{
			"inputs": [
				{
					"internalType": "address",
					"name": "_crossDomainMessenger",
					"type": "address"
				},
				{
					"internalType": "address",
					"name": "_legacyERC20",
					"type": "address"
				}
			],
			"name": "initialize",
			"outputs": [],
			"stateMutability": "nonpayable",
			"type": "function"
		},
		{
			"inputs": [
				{
					"internalType": "address",
					"name": "account",
					"type": "address"
				}
			],
			"name": "isAdmin",
			"outputs": [
				{
					"internalType": "bool",
					"name": "",
					"type": "bool"
				}
			],
			"stateMutability": "view",
			"type": "function"
		},
		{
			"inputs": [],
			"name": "legacyERC20ETH",
			"outputs": [
				{
					"internalType": "address",
					"name": "",
					"type": "address"
				}
			],
			"stateMutability": "view",
			"type": "function"
		},
		{
			"inputs": [],
			"name": "pauseProxy",
			"outputs": [
				{
					"internalType": "bool",
					"name": "",
					"type": "bool"
				}
			],
			"stateMutability": "view",
			"type": "function"
		},
		{
			"inputs": [
				{
					"internalType": "uint256",
					"name": "",
					"type": "uint256"
				}
			],
			"name": "proxyImplementation",
			"outputs": [
				{
					"internalType": "address",
					"name": "",
					"type": "address"
				}
			],
			"stateMutability": "view",
			"type": "function"
		},
		{
			"inputs": [
				{
					"internalType": "bytes32",
					"name": "",
					"type": "bytes32"
				}
			],
			"name": "registerCheck",
			"outputs": [
				{
					"internalType": "bool",
					"name": "",
					"type": "bool"
				}
			],
			"stateMutability": "view",
			"type": "function"
		},
		{
			"inputs": [
				{
					"internalType": "address",
					"name": "account",
					"type": "address"
				}
			],
			"name": "removeAdmin",
			"outputs": [],
			"stateMutability": "nonpayable",
			"type": "function"
		},
		{
			"inputs": [
				{
					"internalType": "bytes32",
					"name": "role",
					"type": "bytes32"
				},
				{
					"internalType": "address",
					"name": "callerConfirmation",
					"type": "address"
				}
			],
			"name": "renounceRole",
			"outputs": [],
			"stateMutability": "nonpayable",
			"type": "function"
		},
		{
			"inputs": [
				{
					"internalType": "bytes32",
					"name": "role",
					"type": "bytes32"
				},
				{
					"internalType": "address",
					"name": "account",
					"type": "address"
				}
			],
			"name": "revokeRole",
			"outputs": [],
			"stateMutability": "nonpayable",
			"type": "function"
		},
		{
			"inputs": [],
			"name": "saleCount",
			"outputs": [
				{
					"internalType": "uint256",
					"name": "",
					"type": "uint256"
				}
			],
			"stateMutability": "view",
			"type": "function"
		},
		{
			"inputs": [
				{
					"internalType": "bytes4",
					"name": "",
					"type": "bytes4"
				}
			],
			"name": "selectorImplementation",
			"outputs": [
				{
					"internalType": "address",
					"name": "",
					"type": "address"
				}
			],
			"stateMutability": "view",
			"type": "function"
		},
		{
			"inputs": [
				{
					"internalType": "address",
					"name": "newImplementation",
					"type": "address"
				},
				{
					"internalType": "bool",
					"name": "_alive",
					"type": "bool"
				}
			],
			"name": "setAliveImplementation2",
			"outputs": [],
			"stateMutability": "nonpayable",
			"type": "function"
		},
		{
			"inputs": [
				{
					"internalType": "address",
					"name": "_l1CrossTrade",
					"type": "address"
				},
				{
					"internalType": "address",
					"name": "_l1legacyERC20",
					"type": "address"
				},
				{
					"internalType": "uint256",
					"name": "_chainId",
					"type": "uint256"
				}
			],
			"name": "setChainInfo",
			"outputs": [],
			"stateMutability": "nonpayable",
			"type": "function"
		},
		{
			"inputs": [
				{
					"internalType": "address",
					"name": "newImplementation",
					"type": "address"
				},
				{
					"internalType": "uint256",
					"name": "_index",
					"type": "uint256"
				},
				{
					"internalType": "bool",
					"name": "_alive",
					"type": "bool"
				}
			],
			"name": "setImplementation2",
			"outputs": [],
			"stateMutability": "nonpayable",
			"type": "function"
		},
		{
			"inputs": [
				{
					"internalType": "bool",
					"name": "_pause",
					"type": "bool"
				}
			],
			"name": "setProxyPause",
			"outputs": [],
			"stateMutability": "nonpayable",
			"type": "function"
		},
		{
			"inputs": [
				{
					"internalType": "bytes4[]",
					"name": "_selectors",
					"type": "bytes4[]"
				},
				{
					"internalType": "address",
					"name": "_imp",
					"type": "address"
				}
			],
			"name": "setSelectorImplementations2",
			"outputs": [],
			"stateMutability": "nonpayable",
			"type": "function"
		},
		{
			"inputs": [
				{
					"internalType": "bytes4",
					"name": "interfaceId",
					"type": "bytes4"
				}
			],
			"name": "supportsInterface",
			"outputs": [
				{
					"internalType": "bool",
					"name": "",
					"type": "bool"
				}
			],
			"stateMutability": "view",
			"type": "function"
		},
		{
			"inputs": [
				{
					"internalType": "address",
					"name": "newAdmin",
					"type": "address"
				}
			],
			"name": "transferAdmin",
			"outputs": [],
			"stateMutability": "nonpayable",
			"type": "function"
		},
		{
			"inputs": [
				{
					"internalType": "address",
					"name": "impl",
					"type": "address"
				}
			],
			"name": "upgradeTo",
			"outputs": [],
			"stateMutability": "nonpayable",
			"type": "function"
		},
		{
			"stateMutability": "payable",
			"type": "receive"
		}
	]
}