{
  "abi": [
    {
      "anonymous": false,
      "inputs": [
        {
          "indexed": true,
          "internalType": "bytes32",
          "name": "role",
          "type": "bytes32"
        },
        {
          "indexed": true,
          "internalType": "bytes32",
          "name": "previousAdminRole",
          "type": "bytes32"
        },
        {
          "indexed": true,
          "internalType": "bytes32",
          "name": "newAdminRole",
          "type": "bytes32"
        }
      ],
      "name": "RoleAdminChanged",
      "type": "event"
    },
    {
      "anonymous": false,
      "inputs": [
        {
          "indexed": true,
          "internalType": "bytes32",
          "name": "role",
          "type": "bytes32"
        },
        {
          "indexed": true,
          "internalType": "address",
          "name": "account",
          "type": "address"
        },
        {
          "indexed": true,
          "internalType": "address",
          "name": "sender",
          "type": "address"
        }
      ],
      "name": "RoleGranted",
      "type": "event"
    },
    {
      "anonymous": false,
      "inputs": [
        {
          "indexed": true,
          "internalType": "bytes32",
          "name": "role",
          "type": "bytes32"
        },
        {
          "indexed": true,
          "internalType": "address",
          "name": "account",
          "type": "address"
        },
        {
          "indexed": true,
          "internalType": "address",
          "name": "sender",
          "type": "address"
        }
      ],
      "name": "RoleRevoked",
      "type": "event"
    },
    {
      "anonymous": false,
      "inputs": [
        {
          "indexed": true,
          "internalType": "address",
          "name": "impl",
          "type": "address"
        },
        {
          "indexed": false,
          "internalType": "bool",
          "name": "alive",
          "type": "bool"
        }
      ],
      "name": "SetAliveImplementation",
      "type": "event"
    },
    {
      "anonymous": false,
      "inputs": [
        {
          "indexed": true,
          "internalType": "bytes4",
          "name": "selector",
          "type": "bytes4"
        },
        {
          "indexed": true,
          "internalType": "address",
          "name": "impl",
          "type": "address"
        }
      ],
      "name": "SetSelectorImplementation",
      "type": "event"
    },
    {
      "anonymous": false,
      "inputs": [
        {
          "indexed": true,
          "internalType": "address",
          "name": "implementation",
          "type": "address"
        }
      ],
      "name": "Upgraded",
      "type": "event"
    },
    {
      "stateMutability": "payable",
      "type": "fallback"
    },
    {
      "inputs": [],
      "name": "ADMIN_ROLE",
      "outputs": [
        {
          "internalType": "bytes32",
          "name": "",
          "type": "bytes32"
        }
      ],
      "stateMutability": "view",
      "type": "function"
    },
    {
      "inputs": [],
      "name": "DEFAULT_ADMIN_ROLE",
      "outputs": [
        {
          "internalType": "bytes32",
          "name": "",
          "type": "bytes32"
        }
      ],
      "stateMutability": "view",
      "type": "function"
    },
    {
      "inputs": [],
      "name": "LEGACY_ERC20_ETH",
      "outputs": [
        {
          "internalType": "address",
          "name": "",
          "type": "address"
        }
      ],
      "stateMutability": "view",
      "type": "function"
    },
    {
      "inputs": [],
      "name": "LEGACY_l1token",
      "outputs": [
        {
          "internalType": "address",
          "name": "",
          "type": "address"
        }
      ],
      "stateMutability": "view",
      "type": "function"
    },
    {
      "inputs": [],
      "name": "POLICY_ROLE",
      "outputs": [
        {
          "internalType": "bytes32",
          "name": "",
          "type": "bytes32"
        }
      ],
      "stateMutability": "view",
      "type": "function"
    },
    {
      "inputs": [
        {
          "internalType": "address",
          "name": "account",
          "type": "address"
        }
      ],
      "name": "addAdmin",
      "outputs": [],
      "stateMutability": "nonpayable",
      "type": "function"
    },
    {
      "inputs": [
        {
          "internalType": "address",
          "name": "",
          "type": "address"
        }
      ],
      "name": "aliveImplementation",
      "outputs": [
        {
          "internalType": "bool",
          "name": "",
          "type": "bool"
        }
      ],
      "stateMutability": "view",
      "type": "function"
    },
    {
      "inputs": [],
      "name": "crossDomainMessenger",
      "outputs": [
        {
          "internalType": "address",
          "name": "",
          "type": "address"
        }
      ],
      "stateMutability": "view",
      "type": "function"
    },
    {
      "inputs": [
        {
          "internalType": "bytes32",
          "name": "role",
          "type": "bytes32"
        }
      ],
      "name": "getRoleAdmin",
      "outputs": [
        {
          "internalType": "bytes32",
          "name": "",
          "type": "bytes32"
        }
      ],
      "stateMutability": "view",
      "type": "function"
    },
    {
      "inputs": [
        {
          "internalType": "bytes4",
          "name": "_selector",
          "type": "bytes4"
        }
      ],
      "name": "getSelectorImplementation2",
      "outputs": [
        {
          "internalType": "address",
          "name": "impl",
          "type": "address"
        }
      ],
      "stateMutability": "view",
      "type": "function"
    },
    {
      "inputs": [
        {
          "internalType": "bytes32",
          "name": "role",
          "type": "bytes32"
        },
        {
          "internalType": "address",
          "name": "account",
          "type": "address"
        }
      ],
      "name": "grantRole",
      "outputs": [],
      "stateMutability": "nonpayable",
      "type": "function"
    },
    {
      "inputs": [
        {
          "internalType": "bytes32",
          "name": "role",
          "type": "bytes32"
        },
        {
          "internalType": "address",
          "name": "account",
          "type": "address"
        }
      ],
      "name": "hasRole",
      "outputs": [
        {
          "internalType": "bool",
          "name": "",
          "type": "bool"
        }
      ],
      "stateMutability": "view",
      "type": "function"
    },
    {
      "inputs": [],
      "name": "implementation",
      "outputs": [
        {
          "internalType": "address",
          "name": "",
          "type": "address"
        }
      ],
      "stateMutability": "view",
      "type": "function"
    },
    {
      "inputs": [
        {
          "internalType": "uint256",
          "name": "_index",
          "type": "uint256"
        }
      ],
      "name": "implementation2",
      "outputs": [
        {
          "internalType": "address",
          "name": "",
          "type": "address"
        }
      ],
      "stateMutability": "view",
      "type": "function"
    },
    {
      "inputs": [
        {
          "internalType": "address",
          "name": "_crossDomainMessenger",
          "type": "address"
        },
        {
          "internalType": "address",
          "name": "_l2fastWithdraw",
          "type": "address"
        },
        {
          "internalType": "address",
          "name": "_legacyERC20",
          "type": "address"
        },
        {
          "internalType": "address",
          "name": "_l1legacyERC20",
          "type": "address"
        }
      ],
      "name": "initialize",
      "outputs": [],
      "stateMutability": "nonpayable",
      "type": "function"
    },
    {
      "inputs": [
        {
          "internalType": "address",
          "name": "account",
          "type": "address"
        }
      ],
      "name": "isAdmin",
      "outputs": [
        {
          "internalType": "bool",
          "name": "",
          "type": "bool"
        }
      ],
      "stateMutability": "view",
      "type": "function"
    },
    {
      "inputs": [],
      "name": "l2fastWithdrawContract",
      "outputs": [
        {
          "internalType": "address",
          "name": "",
          "type": "address"
        }
      ],
      "stateMutability": "view",
      "type": "function"
    },
    {
      "inputs": [],
      "name": "pauseProxy",
      "outputs": [
        {
          "internalType": "bool",
          "name": "",
          "type": "bool"
        }
      ],
      "stateMutability": "view",
      "type": "function"
    },
    {
      "inputs": [
        {
          "internalType": "uint256",
          "name": "",
          "type": "uint256"
        }
      ],
      "name": "proxyImplementation",
      "outputs": [
        {
          "internalType": "address",
          "name": "",
          "type": "address"
        }
      ],
      "stateMutability": "view",
      "type": "function"
    },
    {
      "inputs": [
        {
          "internalType": "address",
          "name": "account",
          "type": "address"
        }
      ],
      "name": "removeAdmin",
      "outputs": [],
      "stateMutability": "nonpayable",
      "type": "function"
    },
    {
      "inputs": [
        {
          "internalType": "bytes32",
          "name": "role",
          "type": "bytes32"
        },
        {
          "internalType": "address",
          "name": "account",
          "type": "address"
        }
      ],
      "name": "renounceRole",
      "outputs": [],
      "stateMutability": "nonpayable",
      "type": "function"
    },
    {
      "inputs": [
        {
          "internalType": "bytes32",
          "name": "role",
          "type": "bytes32"
        },
        {
          "internalType": "address",
          "name": "account",
          "type": "address"
        }
      ],
      "name": "revokeRole",
      "outputs": [],
      "stateMutability": "nonpayable",
      "type": "function"
    },
    {
      "inputs": [
        {
          "internalType": "bytes4",
          "name": "",
          "type": "bytes4"
        }
      ],
      "name": "selectorImplementation",
      "outputs": [
        {
          "internalType": "address",
          "name": "",
          "type": "address"
        }
      ],
      "stateMutability": "view",
      "type": "function"
    },
    {
      "inputs": [
        {
          "internalType": "address",
          "name": "newImplementation",
          "type": "address"
        },
        {
          "internalType": "bool",
          "name": "_alive",
          "type": "bool"
        }
      ],
      "name": "setAliveImplementation2",
      "outputs": [],
      "stateMutability": "nonpayable",
      "type": "function"
    },
    {
      "inputs": [
        {
          "internalType": "address",
          "name": "newImplementation",
          "type": "address"
        },
        {
          "internalType": "uint256",
          "name": "_index",
          "type": "uint256"
        },
        {
          "internalType": "bool",
          "name": "_alive",
          "type": "bool"
        }
      ],
      "name": "setImplementation2",
      "outputs": [],
      "stateMutability": "nonpayable",
      "type": "function"
    },
    {
      "inputs": [
        {
          "internalType": "bool",
          "name": "_pause",
          "type": "bool"
        }
      ],
      "name": "setProxyPause",
      "outputs": [],
      "stateMutability": "nonpayable",
      "type": "function"
    },
    {
      "inputs": [
        {
          "internalType": "bytes4[]",
          "name": "_selectors",
          "type": "bytes4[]"
        },
        {
          "internalType": "address",
          "name": "_imp",
          "type": "address"
        }
      ],
      "name": "setSelectorImplementations2",
      "outputs": [],
      "stateMutability": "nonpayable",
      "type": "function"
    },
    {
      "inputs": [
        {
          "internalType": "bytes4",
          "name": "interfaceId",
          "type": "bytes4"
        }
      ],
      "name": "supportsInterface",
      "outputs": [
        {
          "internalType": "bool",
          "name": "",
          "type": "bool"
        }
      ],
      "stateMutability": "view",
      "type": "function"
    },
    {
      "inputs": [
        {
          "internalType": "address",
          "name": "newAdmin",
          "type": "address"
        }
      ],
      "name": "transferAdmin",
      "outputs": [],
      "stateMutability": "nonpayable",
      "type": "function"
    },
    {
      "inputs": [
        {
          "internalType": "address",
          "name": "impl",
          "type": "address"
        }
      ],
      "name": "upgradeTo",
      "outputs": [],
      "stateMutability": "nonpayable",
      "type": "function"
    },
    {
      "stateMutability": "payable",
      "type": "receive"
    }
  ],
  "bytecode": {
    "object": "0x60806040523480156200001157600080fd5b506200002d6000805160206200233b833981519152806200004e565b620000486000805160206200233b8339815191523362000099565b6200013e565b600082815260046020526040808220600101805490849055905190918391839186917fbd79b86ffe0ab8e8776151514217cd7cacd52c909f66475c3af44e129f0b00ff9190a4505050565b60008281526004602090815260408083206001600160a01b038516845290915290205460ff166200013a5760008281526004602090815260408083206001600160a01b03851684529091529020805460ff19166001179055620000f93390565b6001600160a01b0316816001600160a01b0316837f2f8788117e7eff1d82e926ec794901d17c78024a50270940304540a733656f0d60405160405180910390a45b5050565b6121ed806200014e6000396000f3fe6080604052600436106101d15760003560e01c8063609cd1fa116100f75780638b8f4a6511610095578063b911135f11610064578063b911135f14610651578063d547741f14610694578063f43b3613146106b4578063f8c8765e146106e1576101d8565b80638b8f4a65146105a95780638d4fdb40146105c957806391d14854146105e9578063a217fddf1461063c576101d8565b806375829def116100d157806375829def1461051557806375b238fc146105355780637cb00d25146105695780637cd5f66314610589576101d8565b8063609cd1fa146104ae57806363a8fd89146104db57806370480275146104f5576101d8565b80633659cfe61161016f57806350d2a2761161013e57806350d2a276146103c8578063550d01a31461040b5780635c60da1b1461043b5780635cc797d81461048e576101d8565b80633659cfe6146103095780633fbe7fa41461032957806342c66a881461037b5780634a5df50f146103a8576101d8565b8063248a9ca3116101ab578063248a9ca31461027957806324d7806c146102a95780632f2ff15d146102c957806336568abe146102e9576101d8565b806301ffc9a7146101e25780631785f53c146102175780632298524614610237576101d8565b366101d857005b6101e0610701565b005b3480156101ee57600080fd5b506102026101fd366004611d6d565b6107ee565b60405190151581526020015b60405180910390f35b34801561022357600080fd5b506101e0610232366004611dd3565b610887565b34801561024357600080fd5b5061026b7ffb5864e8ff833c3cb2d2d08505e82ff02a43554c74a35d4f5a64e8526127831181565b60405190815260200161020e565b34801561028557600080fd5b5061026b610294366004611dee565b60009081526004602052604090206001015490565b3480156102b557600080fd5b506102026102c4366004611dd3565b610949565b3480156102d557600080fd5b506101e06102e4366004611e07565b610996565b3480156102f557600080fd5b506101e0610304366004611e07565b6109bb565b34801561031557600080fd5b506101e0610324366004611dd3565b610a6e565b34801561033557600080fd5b506006546103569073ffffffffffffffffffffffffffffffffffffffff1681565b60405173ffffffffffffffffffffffffffffffffffffffff909116815260200161020e565b34801561038757600080fd5b506008546103569073ffffffffffffffffffffffffffffffffffffffff1681565b3480156103b457600080fd5b506101e06103c3366004611e33565b610c7d565b3480156103d457600080fd5b506103566103e3366004611d6d565b60036020526000908152604090205473ffffffffffffffffffffffffffffffffffffffff1681565b34801561041757600080fd5b50610202610426366004611dd3565b60026020526000908152604090205460ff1681565b34801561044757600080fd5b506000805260016020527fa6eef7e35abe7026729641147f7915573c7e97b47efa546f5f6e3230263bcb495473ffffffffffffffffffffffffffffffffffffffff16610356565b34801561049a57600080fd5b506101e06104a9366004611ec7565b61102e565b3480156104ba57600080fd5b506007546103569073ffffffffffffffffffffffffffffffffffffffff1681565b3480156104e757600080fd5b506000546102029060ff1681565b34801561050157600080fd5b506101e0610510366004611dd3565b6110cd565b34801561052157600080fd5b506101e0610530366004611dd3565b61118c565b34801561054157600080fd5b5061026b7fdf8b4c520ffe197c5343c6f5aec59570151ef9a492f2c624fd45ddde6135ec4281565b34801561057557600080fd5b506101e0610584366004611ef1565b611371565b34801561059557600080fd5b506101e06105a4366004611f0c565b611437565b3480156105b557600080fd5b506103566105c4366004611dee565b6114d7565b3480156105d557600080fd5b506103566105e4366004611d6d565b611501565b3480156105f557600080fd5b50610202610604366004611e07565b600091825260046020908152604080842073ffffffffffffffffffffffffffffffffffffffff93909316845291905290205460ff1690565b34801561064857600080fd5b5061026b600081565b34801561065d57600080fd5b5061035661066c366004611dee565b60016020526000908152604090205473ffffffffffffffffffffffffffffffffffffffff1681565b3480156106a057600080fd5b506101e06106af366004611e07565b611686565b3480156106c057600080fd5b506005546103569073ffffffffffffffffffffffffffffffffffffffff1681565b3480156106ed57600080fd5b506101e06106fc366004611f3f565b6116ab565b60006107306000357fffffffff0000000000000000000000000000000000000000000000000000000016611501565b905073ffffffffffffffffffffffffffffffffffffffff81161580159061075a575060005460ff16155b6107c5576040517f08c379a000000000000000000000000000000000000000000000000000000000815260206004820152601d60248201527f50726f78793a20696d706c204f522070726f78792069732066616c736500000060448201526064015b60405180910390fd5b3660008037600080366000845af43d6000803e8080156107e4573d6000f35b3d6000fd5b505050565b60007fffffffff0000000000000000000000000000000000000000000000000000000082167f7965db0b00000000000000000000000000000000000000000000000000000000148061088157507f01ffc9a7000000000000000000000000000000000000000000000000000000007fffffffff000000000000000000000000000000000000000000000000000000008316145b92915050565b61089033610949565b61091c576040517f08c379a000000000000000000000000000000000000000000000000000000000815260206004820152602260248201527f41636365737369626c653a2043616c6c6572206973206e6f7420616e2061646d60448201527f696e00000000000000000000000000000000000000000000000000000000000060648201526084016107bc565b6109467fdf8b4c520ffe197c5343c6f5aec59570151ef9a492f2c624fd45ddde6135ec42826109bb565b50565b73ffffffffffffffffffffffffffffffffffffffff811660009081527f2fb794d17134dfdec181ddbac1babb5ab1eb140204ef4d982f294e7fc8b69022602052604081205460ff16610881565b6000828152600460205260409020600101546109b1816117b5565b6107e983836117bf565b73ffffffffffffffffffffffffffffffffffffffff81163314610a60576040517f08c379a000000000000000000000000000000000000000000000000000000000815260206004820152602f60248201527f416363657373436f6e74726f6c3a2063616e206f6e6c792072656e6f756e636560448201527f20726f6c657320666f722073656c66000000000000000000000000000000000060648201526084016107bc565b610a6a82826118b3565b5050565b610a7733610949565b610b03576040517f08c379a000000000000000000000000000000000000000000000000000000000815260206004820152602260248201527f41636365737369626c653a2043616c6c6572206973206e6f7420616e2061646d60448201527f696e00000000000000000000000000000000000000000000000000000000000060648201526084016107bc565b73ffffffffffffffffffffffffffffffffffffffff8116610b80576040517f08c379a000000000000000000000000000000000000000000000000000000000815260206004820152600d60248201527f696e707574206973207a65726f0000000000000000000000000000000000000060448201526064016107bc565b6000805260016020527fa6eef7e35abe7026729641147f7915573c7e97b47efa546f5f6e3230263bcb495473ffffffffffffffffffffffffffffffffffffffff828116911603610c2c576040517f08c379a000000000000000000000000000000000000000000000000000000000815260206004820152600960248201527f73616d652061646472000000000000000000000000000000000000000000000060448201526064016107bc565b610c39816000600161196e565b60405173ffffffffffffffffffffffffffffffffffffffff8216907fbc7cd75a20ee27fd9adebab32041f755214dbc6bffa90cc0225b39da2e5c2d3b90600090a250565b610c8633610949565b610d12576040517f08c379a000000000000000000000000000000000000000000000000000000000815260206004820152602260248201527f41636365737369626c653a2043616c6c6572206973206e6f7420616e2061646d60448201527f696e00000000000000000000000000000000000000000000000000000000000060648201526084016107bc565b81610d79576040517f08c379a000000000000000000000000000000000000000000000000000000000815260206004820181905260248201527f50726f78793a205f73656c6563746f727327732073697a65206973207a65726f60448201526064016107bc565b73ffffffffffffffffffffffffffffffffffffffff811660009081526002602052604090205460ff16610e08576040517f08c379a000000000000000000000000000000000000000000000000000000000815260206004820152601860248201527f50726f78793a205f696d70206973206e6f7420616c697665000000000000000060448201526064016107bc565b60005b82811015611028578173ffffffffffffffffffffffffffffffffffffffff1660036000868685818110610e4057610e40611f93565b9050602002016020810190610e559190611d6d565b7fffffffff0000000000000000000000000000000000000000000000000000000016815260208101919091526040016000205473ffffffffffffffffffffffffffffffffffffffff1603610f05576040517f08c379a000000000000000000000000000000000000000000000000000000000815260206004820152601d60248201527f4c69717569646974795661756c7450726f78793a2073616d6520696d7000000060448201526064016107bc565b8160036000868685818110610f1c57610f1c611f93565b9050602002016020810190610f319190611d6d565b7fffffffff00000000000000000000000000000000000000000000000000000000168152602081019190915260400160002080547fffffffffffffffffffffffff00000000000000000000000000000000000000001673ffffffffffffffffffffffffffffffffffffffff9283161790558216848483818110610fb657610fb6611f93565b9050602002016020810190610fcb9190611d6d565b7bffffffffffffffffffffffffffffffffffffffffffffffffffffffff19167f14ebc1c32aa68f4d766e89f3e546cee249f7df25183fc10ab1568d91c2ce9b7b60405160405180910390a38061102081611ff1565b915050610e0b565b50505050565b61103733610949565b6110c3576040517f08c379a000000000000000000000000000000000000000000000000000000000815260206004820152602260248201527f41636365737369626c653a2043616c6c6572206973206e6f7420616e2061646d60448201527f696e00000000000000000000000000000000000000000000000000000000000060648201526084016107bc565b610a6a82826119c7565b6110d633610949565b611162576040517f08c379a000000000000000000000000000000000000000000000000000000000815260206004820152602260248201527f41636365737369626c653a2043616c6c6572206973206e6f7420616e2061646d60448201527f696e00000000000000000000000000000000000000000000000000000000000060648201526084016107bc565b6109467fdf8b4c520ffe197c5343c6f5aec59570151ef9a492f2c624fd45ddde6135ec4282610996565b61119533610949565b611221576040517f08c379a000000000000000000000000000000000000000000000000000000000815260206004820152602260248201527f41636365737369626c653a2043616c6c6572206973206e6f7420616e2061646d60448201527f696e00000000000000000000000000000000000000000000000000000000000060648201526084016107bc565b73ffffffffffffffffffffffffffffffffffffffff811661129e576040517f08c379a000000000000000000000000000000000000000000000000000000000815260206004820152601860248201527f41636365737369626c653a207a65726f2061646472657373000000000000000060448201526064016107bc565b73ffffffffffffffffffffffffffffffffffffffff8116330361131d576040517f08c379a000000000000000000000000000000000000000000000000000000000815260206004820152601660248201527f41636365737369626c653a2073616d652061646d696e0000000000000000000060448201526064016107bc565b6113477fdf8b4c520ffe197c5343c6f5aec59570151ef9a492f2c624fd45ddde6135ec4282610996565b6109467fdf8b4c520ffe197c5343c6f5aec59570151ef9a492f2c624fd45ddde6135ec42336109bb565b61137a33610949565b611406576040517f08c379a000000000000000000000000000000000000000000000000000000000815260206004820152602260248201527f41636365737369626c653a2043616c6c6572206973206e6f7420616e2061646d60448201527f696e00000000000000000000000000000000000000000000000000000000000060648201526084016107bc565b600080547fffffffffffffffffffffffffffffffffffffffffffffffffffffffffffffff0016911515919091179055565b61144033610949565b6114cc576040517f08c379a000000000000000000000000000000000000000000000000000000000815260206004820152602260248201527f41636365737369626c653a2043616c6c6572206973206e6f7420616e2061646d60448201527f696e00000000000000000000000000000000000000000000000000000000000060648201526084016107bc565b6107e983838361196e565b60008181526001602052604081205473ffffffffffffffffffffffffffffffffffffffff16610881565b7fffffffff00000000000000000000000000000000000000000000000000000000811660009081526003602052604081205473ffffffffffffffffffffffffffffffffffffffff166115935750506000805260016020527fa6eef7e35abe7026729641147f7915573c7e97b47efa546f5f6e3230263bcb495473ffffffffffffffffffffffffffffffffffffffff1690565b7fffffffff00000000000000000000000000000000000000000000000000000000821660009081526003602090815260408083205473ffffffffffffffffffffffffffffffffffffffff168352600290915290205460ff161561163b57507fffffffff000000000000000000000000000000000000000000000000000000001660009081526003602052604090205473ffffffffffffffffffffffffffffffffffffffff1690565b50506000805260016020527fa6eef7e35abe7026729641147f7915573c7e97b47efa546f5f6e3230263bcb495473ffffffffffffffffffffffffffffffffffffffff1690565b919050565b6000828152600460205260409020600101546116a1816117b5565b6107e983836118b3565b6116b433610949565b611740576040517f08c379a000000000000000000000000000000000000000000000000000000000815260206004820152602260248201527f41636365737369626c653a2043616c6c6572206973206e6f7420616e2061646d60448201527f696e00000000000000000000000000000000000000000000000000000000000060648201526084016107bc565b6005805473ffffffffffffffffffffffffffffffffffffffff9586167fffffffffffffffffffffffff0000000000000000000000000000000000000000918216179091556006805494861694821694909417909355600780549285169284169290921790915560088054919093169116179055565b6109468133611a51565b600082815260046020908152604080832073ffffffffffffffffffffffffffffffffffffffff8516845290915290205460ff16610a6a57600082815260046020908152604080832073ffffffffffffffffffffffffffffffffffffffff85168452909152902080547fffffffffffffffffffffffffffffffffffffffffffffffffffffffffffffff001660011790556118553390565b73ffffffffffffffffffffffffffffffffffffffff168173ffffffffffffffffffffffffffffffffffffffff16837f2f8788117e7eff1d82e926ec794901d17c78024a50270940304540a733656f0d60405160405180910390a45050565b600082815260046020908152604080832073ffffffffffffffffffffffffffffffffffffffff8516845290915290205460ff1615610a6a57600082815260046020908152604080832073ffffffffffffffffffffffffffffffffffffffff8516808552925280832080547fffffffffffffffffffffffffffffffffffffffffffffffffffffffffffffff0016905551339285917ff6391f5c32d9c69d2a47ea670b442974b53935d1edc7fd64eb21e047a839171b9190a45050565b80156119c157600082815260016020526040902080547fffffffffffffffffffffffff00000000000000000000000000000000000000001673ffffffffffffffffffffffffffffffffffffffff85161790555b6107e983825b73ffffffffffffffffffffffffffffffffffffffff821660008181526002602090815260409182902080547fffffffffffffffffffffffffffffffffffffffffffffffffffffffffffffff001685151590811790915591519182527f72558d9bfba4210f9ef095c782589484151f6d90f7a81bb3cb9b33efc695d324910160405180910390a25050565b600082815260046020908152604080832073ffffffffffffffffffffffffffffffffffffffff8516845290915290205460ff16610a6a57611aa98173ffffffffffffffffffffffffffffffffffffffff166014611b23565b611ab4836020611b23565b604051602001611ac5929190612055565b604080517fffffffffffffffffffffffffffffffffffffffffffffffffffffffffffffffe0818403018152908290527f08c379a00000000000000000000000000000000000000000000000000000000082526107bc916004016120d6565b60606000611b32836002612127565b611b3d906002612164565b67ffffffffffffffff811115611b5557611b5561217c565b6040519080825280601f01601f191660200182016040528015611b7f576020820181803683370190505b5090507f300000000000000000000000000000000000000000000000000000000000000081600081518110611bb657611bb6611f93565b60200101907effffffffffffffffffffffffffffffffffffffffffffffffffffffffffffff1916908160001a9053507f780000000000000000000000000000000000000000000000000000000000000081600181518110611c1957611c19611f93565b60200101907effffffffffffffffffffffffffffffffffffffffffffffffffffffffffffff1916908160001a9053506000611c55846002612127565b611c60906001612164565b90505b6001811115611cfd577f303132333435363738396162636465660000000000000000000000000000000085600f1660108110611ca157611ca1611f93565b1a60f81b828281518110611cb757611cb7611f93565b60200101907effffffffffffffffffffffffffffffffffffffffffffffffffffffffffffff1916908160001a90535060049490941c93611cf6816121ab565b9050611c63565b508315611d66576040517f08c379a000000000000000000000000000000000000000000000000000000000815260206004820181905260248201527f537472696e67733a20686578206c656e67746820696e73756666696369656e7460448201526064016107bc565b9392505050565b600060208284031215611d7f57600080fd5b81357fffffffff0000000000000000000000000000000000000000000000000000000081168114611d6657600080fd5b803573ffffffffffffffffffffffffffffffffffffffff8116811461168157600080fd5b600060208284031215611de557600080fd5b611d6682611daf565b600060208284031215611e0057600080fd5b5035919050565b60008060408385031215611e1a57600080fd5b82359150611e2a60208401611daf565b90509250929050565b600080600060408486031215611e4857600080fd5b833567ffffffffffffffff80821115611e6057600080fd5b818601915086601f830112611e7457600080fd5b813581811115611e8357600080fd5b8760208260051b8501011115611e9857600080fd5b602092830195509350611eae9186019050611daf565b90509250925092565b8035801515811461168157600080fd5b60008060408385031215611eda57600080fd5b611ee383611daf565b9150611e2a60208401611eb7565b600060208284031215611f0357600080fd5b611d6682611eb7565b600080600060608486031215611f2157600080fd5b611f2a84611daf565b925060208401359150611eae60408501611eb7565b60008060008060808587031215611f5557600080fd5b611f5e85611daf565b9350611f6c60208601611daf565b9250611f7a60408601611daf565b9150611f8860608601611daf565b905092959194509250565b7f4e487b7100000000000000000000000000000000000000000000000000000000600052603260045260246000fd5b7f4e487b7100000000000000000000000000000000000000000000000000000000600052601160045260246000fd5b60007fffffffffffffffffffffffffffffffffffffffffffffffffffffffffffffffff820361202257612022611fc2565b5060010190565b60005b8381101561204457818101518382015260200161202c565b838111156110285750506000910152565b7f416363657373436f6e74726f6c3a206163636f756e742000000000000000000081526000835161208d816017850160208801612029565b7f206973206d697373696e6720726f6c652000000000000000000000000000000060179184019182015283516120ca816028840160208801612029565b01602801949350505050565b60208152600082518060208401526120f5816040850160208701612029565b601f017fffffffffffffffffffffffffffffffffffffffffffffffffffffffffffffffe0169190910160400192915050565b6000817fffffffffffffffffffffffffffffffffffffffffffffffffffffffffffffffff048311821515161561215f5761215f611fc2565b500290565b6000821982111561217757612177611fc2565b500190565b7f4e487b7100000000000000000000000000000000000000000000000000000000600052604160045260246000fd5b6000816121ba576121ba611fc2565b507fffffffffffffffffffffffffffffffffffffffffffffffffffffffffffffffff019056fea164736f6c634300080f000adf8b4c520ffe197c5343c6f5aec59570151ef9a492f2c624fd45ddde6135ec42",
    "linkReferences": {}
  },
  "methodIdentifiers": {
    "ADMIN_ROLE()": "75b238fc",
    "DEFAULT_ADMIN_ROLE()": "a217fddf",
    "LEGACY_ERC20_ETH()": "609cd1fa",
    "LEGACY_l1token()": "42c66a88",
    "POLICY_ROLE()": "22985246",
    "addAdmin(address)": "70480275",
    "aliveImplementation(address)": "550d01a3",
    "crossDomainMessenger()": "f43b3613",
    "getRoleAdmin(bytes32)": "248a9ca3",
    "getSelectorImplementation2(bytes4)": "8d4fdb40",
    "grantRole(bytes32,address)": "2f2ff15d",
    "hasRole(bytes32,address)": "91d14854",
    "implementation()": "5c60da1b",
    "implementation2(uint256)": "8b8f4a65",
    "initialize(address,address,address,address)": "f8c8765e",
    "isAdmin(address)": "24d7806c",
    "l2fastWithdrawContract()": "3fbe7fa4",
    "pauseProxy()": "63a8fd89",
    "proxyImplementation(uint256)": "b911135f",
    "removeAdmin(address)": "1785f53c",
    "renounceRole(bytes32,address)": "36568abe",
    "revokeRole(bytes32,address)": "d547741f",
    "selectorImplementation(bytes4)": "50d2a276",
    "setAliveImplementation2(address,bool)": "5cc797d8",
    "setImplementation2(address,uint256,bool)": "7cd5f663",
    "setProxyPause(bool)": "7cb00d25",
    "setSelectorImplementations2(bytes4[],address)": "4a5df50f",
    "supportsInterface(bytes4)": "01ffc9a7",
    "transferAdmin(address)": "75829def",
    "upgradeTo(address)": "3659cfe6"
  },
  "storageLayout": {
    "storage": [
      {
        "astId": 1348,
        "contract": "src/L1/L1FastWithdrawProxy.sol:L1FastWithdrawProxy",
        "label": "pauseProxy",
        "offset": 0,
        "slot": "0",
        "type": "t_bool"
      },
      {
        "astId": 1352,
        "contract": "src/L1/L1FastWithdrawProxy.sol:L1FastWithdrawProxy",
        "label": "proxyImplementation",
        "offset": 0,
        "slot": "1",
        "type": "t_mapping(t_uint256,t_address)"
      },
      {
        "astId": 1356,
        "contract": "src/L1/L1FastWithdrawProxy.sol:L1FastWithdrawProxy",
        "label": "aliveImplementation",
        "offset": 0,
        "slot": "2",
        "type": "t_mapping(t_address,t_bool)"
      },
      {
        "astId": 1360,
        "contract": "src/L1/L1FastWithdrawProxy.sol:L1FastWithdrawProxy",
        "label": "selectorImplementation",
        "offset": 0,
        "slot": "3",
        "type": "t_mapping(t_bytes4,t_address)"
      },
      {
        "astId": 24,
        "contract": "src/L1/L1FastWithdrawProxy.sol:L1FastWithdrawProxy",
        "label": "_roles",
        "offset": 0,
        "slot": "4",
        "type": "t_mapping(t_bytes32,t_struct(RoleData)19_storage)"
      },
      {
        "astId": 721,
        "contract": "src/L1/L1FastWithdrawProxy.sol:L1FastWithdrawProxy",
        "label": "crossDomainMessenger",
        "offset": 0,
        "slot": "5",
        "type": "t_address"
      },
      {
        "astId": 723,
        "contract": "src/L1/L1FastWithdrawProxy.sol:L1FastWithdrawProxy",
        "label": "l2fastWithdrawContract",
        "offset": 0,
        "slot": "6",
        "type": "t_address"
      },
      {
        "astId": 725,
        "contract": "src/L1/L1FastWithdrawProxy.sol:L1FastWithdrawProxy",
        "label": "LEGACY_ERC20_ETH",
        "offset": 0,
        "slot": "7",
        "type": "t_address"
      },
      {
        "astId": 727,
        "contract": "src/L1/L1FastWithdrawProxy.sol:L1FastWithdrawProxy",
        "label": "LEGACY_l1token",
        "offset": 0,
        "slot": "8",
        "type": "t_address"
      }
    ],
    "types": {
      "t_address": {
        "encoding": "inplace",
        "label": "address",
        "numberOfBytes": "20"
      },
      "t_bool": {
        "encoding": "inplace",
        "label": "bool",
        "numberOfBytes": "1"
      },
      "t_bytes32": {
        "encoding": "inplace",
        "label": "bytes32",
        "numberOfBytes": "32"
      },
      "t_bytes4": {
        "encoding": "inplace",
        "label": "bytes4",
        "numberOfBytes": "4"
      },
      "t_mapping(t_address,t_bool)": {
        "encoding": "mapping",
        "key": "t_address",
        "label": "mapping(address => bool)",
        "numberOfBytes": "32",
        "value": "t_bool"
      },
      "t_mapping(t_bytes32,t_struct(RoleData)19_storage)": {
        "encoding": "mapping",
        "key": "t_bytes32",
        "label": "mapping(bytes32 => struct AccessControl.RoleData)",
        "numberOfBytes": "32",
        "value": "t_struct(RoleData)19_storage"
      },
      "t_mapping(t_bytes4,t_address)": {
        "encoding": "mapping",
        "key": "t_bytes4",
        "label": "mapping(bytes4 => address)",
        "numberOfBytes": "32",
        "value": "t_address"
      },
      "t_mapping(t_uint256,t_address)": {
        "encoding": "mapping",
        "key": "t_uint256",
        "label": "mapping(uint256 => address)",
        "numberOfBytes": "32",
        "value": "t_address"
      },
      "t_struct(RoleData)19_storage": {
        "encoding": "inplace",
        "label": "struct AccessControl.RoleData",
        "numberOfBytes": "64",
        "members": [
          {
            "astId": 16,
            "contract": "src/L1/L1FastWithdrawProxy.sol:L1FastWithdrawProxy",
            "label": "members",
            "offset": 0,
            "slot": "0",
            "type": "t_mapping(t_address,t_bool)"
          },
          {
            "astId": 18,
            "contract": "src/L1/L1FastWithdrawProxy.sol:L1FastWithdrawProxy",
            "label": "adminRole",
            "offset": 0,
            "slot": "1",
            "type": "t_bytes32"
          }
        ]
      },
      "t_uint256": {
        "encoding": "inplace",
        "label": "uint256",
        "numberOfBytes": "32"
      }
    }
  },
  "userdoc": {
    "version": 1,
    "kind": "user",
    "methods": {
      "setProxyPause(bool)": {
        "notice": "Set pause state"
      },
      "upgradeTo(address)": {
        "notice": "Set implementation contract"
      }
    }
  },
  "devdoc": {
    "version": 1,
    "kind": "dev",
    "methods": {
      "addAdmin(address)": {
        "details": "add admin",
        "params": {
          "account": "address to add"
        }
      },
      "getRoleAdmin(bytes32)": {
        "details": "Returns the admin role that controls `role`. See {grantRole} and {revokeRole}. To change a role's admin, use {_setRoleAdmin}."
      },
      "getSelectorImplementation2(bytes4)": {
        "details": "view implementation address of selector of function",
        "params": {
          "_selector": "selector of function"
        },
        "returns": {
          "impl": "address of the implementation"
        }
      },
      "grantRole(bytes32,address)": {
        "details": "Grants `role` to `account`. If `account` had not been already granted `role`, emits a {RoleGranted} event. Requirements: - the caller must have ``role``'s admin role. May emit a {RoleGranted} event."
      },
      "hasRole(bytes32,address)": {
        "details": "Returns `true` if `account` has been granted `role`."
      },
      "implementation()": {
        "details": "returns the implementation"
      },
      "implementation2(uint256)": {
        "details": "view implementation address of the proxy[index]",
        "params": {
          "_index": "index of proxy"
        },
        "returns": {
          "_0": "address of the implementation"
        }
      },
      "isAdmin(address)": {
        "details": "whether admin",
        "params": {
          "account": "address to check"
        }
      },
      "removeAdmin(address)": {
        "details": "remove admin",
        "params": {
          "account": "address to remove"
        }
      },
      "renounceRole(bytes32,address)": {
        "details": "Revokes `role` from the calling account. Roles are often managed via {grantRole} and {revokeRole}: this function's purpose is to provide a mechanism for accounts to lose their privileges if they are compromised (such as when a trusted device is misplaced). If the calling account had been revoked `role`, emits a {RoleRevoked} event. Requirements: - the caller must be `account`. May emit a {RoleRevoked} event."
      },
      "revokeRole(bytes32,address)": {
        "details": "Revokes `role` from `account`. If `account` had been granted `role`, emits a {RoleRevoked} event. Requirements: - the caller must have ``role``'s admin role. May emit a {RoleRevoked} event."
      },
      "setAliveImplementation2(address,bool)": {
        "details": "set alive status of implementation",
        "params": {
          "_alive": "alive status",
          "newImplementation": "Address of the new implementation."
        }
      },
      "setImplementation2(address,uint256,bool)": {
        "details": "set the implementation address and status of the proxy[index]",
        "params": {
          "_alive": "_alive",
          "_index": "index",
          "newImplementation": "Address of the new implementation."
        }
      },
      "setProxyPause(bool)": {
        "params": {
          "_pause": "true:pause or false:resume"
        }
      },
      "setSelectorImplementations2(bytes4[],address)": {
        "details": "set selectors of Implementation",
        "params": {
          "_imp": "implementation address",
          "_selectors": "being added selectors"
        }
      },
      "supportsInterface(bytes4)": {
        "details": "See {IERC165-supportsInterface}."
      },
      "transferAdmin(address)": {
        "details": "transfer admin",
        "params": {
          "newAdmin": "new admin address"
        }
      },
      "upgradeTo(address)": {
        "params": {
          "impl": "New implementation contract address"
        }
      }
    }
  },
  "id": 6
}