{
  "abi": [
    {
      "inputs": [],
      "stateMutability": "nonpayable",
      "type": "constructor"
    },
    {
      "anonymous": false,
      "inputs": [
        {
          "indexed": true,
          "internalType": "address",
          "name": "owner",
          "type": "address"
        },
        {
          "indexed": true,
          "internalType": "address",
          "name": "spender",
          "type": "address"
        },
        {
          "indexed": false,
          "internalType": "uint256",
          "name": "value",
          "type": "uint256"
        }
      ],
      "name": "Approval",
      "type": "event"
    },
    {
      "anonymous": false,
      "inputs": [
        {
          "indexed": true,
          "internalType": "address",
          "name": "account",
          "type": "address"
        },
        {
          "indexed": false,
          "internalType": "uint256",
          "name": "amount",
          "type": "uint256"
        }
      ],
      "name": "Burn",
      "type": "event"
    },
    {
      "anonymous": false,
      "inputs": [
        {
          "indexed": true,
          "internalType": "address",
          "name": "account",
          "type": "address"
        },
        {
          "indexed": false,
          "internalType": "uint256",
          "name": "amount",
          "type": "uint256"
        }
      ],
      "name": "Mint",
      "type": "event"
    },
    {
      "anonymous": false,
      "inputs": [
        {
          "indexed": true,
          "internalType": "address",
          "name": "from",
          "type": "address"
        },
        {
          "indexed": true,
          "internalType": "address",
          "name": "to",
          "type": "address"
        },
        {
          "indexed": false,
          "internalType": "uint256",
          "name": "value",
          "type": "uint256"
        }
      ],
      "name": "Transfer",
      "type": "event"
    },
    {
      "inputs": [],
      "name": "BRIDGE",
      "outputs": [
        {
          "internalType": "address",
          "name": "",
          "type": "address"
        }
      ],
      "stateMutability": "view",
      "type": "function"
    },
    {
      "inputs": [],
      "name": "REMOTE_TOKEN",
      "outputs": [
        {
          "internalType": "address",
          "name": "",
          "type": "address"
        }
      ],
      "stateMutability": "view",
      "type": "function"
    },
    {
      "inputs": [
        {
          "internalType": "address",
          "name": "owner",
          "type": "address"
        },
        {
          "internalType": "address",
          "name": "spender",
          "type": "address"
        }
      ],
      "name": "allowance",
      "outputs": [
        {
          "internalType": "uint256",
          "name": "",
          "type": "uint256"
        }
      ],
      "stateMutability": "view",
      "type": "function"
    },
    {
      "inputs": [
        {
          "internalType": "address",
          "name": "",
          "type": "address"
        },
        {
          "internalType": "uint256",
          "name": "",
          "type": "uint256"
        }
      ],
      "name": "approve",
      "outputs": [
        {
          "internalType": "bool",
          "name": "",
          "type": "bool"
        }
      ],
      "stateMutability": "nonpayable",
      "type": "function"
    },
    {
      "inputs": [
        {
          "internalType": "address",
          "name": "_who",
          "type": "address"
        }
      ],
      "name": "balanceOf",
      "outputs": [
        {
          "internalType": "uint256",
          "name": "",
          "type": "uint256"
        }
      ],
      "stateMutability": "view",
      "type": "function"
    },
    {
      "inputs": [],
      "name": "bridge",
      "outputs": [
        {
          "internalType": "address",
          "name": "",
          "type": "address"
        }
      ],
      "stateMutability": "view",
      "type": "function"
    },
    {
      "inputs": [
        {
          "internalType": "address",
          "name": "",
          "type": "address"
        },
        {
          "internalType": "uint256",
          "name": "",
          "type": "uint256"
        }
      ],
      "name": "burn",
      "outputs": [],
      "stateMutability": "nonpayable",
      "type": "function"
    },
    {
      "inputs": [],
      "name": "decimals",
      "outputs": [
        {
          "internalType": "uint8",
          "name": "",
          "type": "uint8"
        }
      ],
      "stateMutability": "view",
      "type": "function"
    },
    {
      "inputs": [
        {
          "internalType": "address",
          "name": "",
          "type": "address"
        },
        {
          "internalType": "uint256",
          "name": "",
          "type": "uint256"
        }
      ],
      "name": "decreaseAllowance",
      "outputs": [
        {
          "internalType": "bool",
          "name": "",
          "type": "bool"
        }
      ],
      "stateMutability": "nonpayable",
      "type": "function"
    },
    {
      "inputs": [
        {
          "internalType": "address",
          "name": "",
          "type": "address"
        },
        {
          "internalType": "uint256",
          "name": "",
          "type": "uint256"
        }
      ],
      "name": "increaseAllowance",
      "outputs": [
        {
          "internalType": "bool",
          "name": "",
          "type": "bool"
        }
      ],
      "stateMutability": "nonpayable",
      "type": "function"
    },
    {
      "inputs": [],
      "name": "l1Token",
      "outputs": [
        {
          "internalType": "address",
          "name": "",
          "type": "address"
        }
      ],
      "stateMutability": "view",
      "type": "function"
    },
    {
      "inputs": [],
      "name": "l2Bridge",
      "outputs": [
        {
          "internalType": "address",
          "name": "",
          "type": "address"
        }
      ],
      "stateMutability": "view",
      "type": "function"
    },
    {
      "inputs": [
        {
          "internalType": "address",
          "name": "",
          "type": "address"
        },
        {
          "internalType": "uint256",
          "name": "",
          "type": "uint256"
        }
      ],
      "name": "mint",
      "outputs": [],
      "stateMutability": "nonpayable",
      "type": "function"
    },
    {
      "inputs": [],
      "name": "name",
      "outputs": [
        {
          "internalType": "string",
          "name": "",
          "type": "string"
        }
      ],
      "stateMutability": "view",
      "type": "function"
    },
    {
      "inputs": [],
      "name": "remoteToken",
      "outputs": [
        {
          "internalType": "address",
          "name": "",
          "type": "address"
        }
      ],
      "stateMutability": "view",
      "type": "function"
    },
    {
      "inputs": [
        {
          "internalType": "bytes4",
          "name": "_interfaceId",
          "type": "bytes4"
        }
      ],
      "name": "supportsInterface",
      "outputs": [
        {
          "internalType": "bool",
          "name": "",
          "type": "bool"
        }
      ],
      "stateMutability": "pure",
      "type": "function"
    },
    {
      "inputs": [],
      "name": "symbol",
      "outputs": [
        {
          "internalType": "string",
          "name": "",
          "type": "string"
        }
      ],
      "stateMutability": "view",
      "type": "function"
    },
    {
      "inputs": [],
      "name": "totalSupply",
      "outputs": [
        {
          "internalType": "uint256",
          "name": "",
          "type": "uint256"
        }
      ],
      "stateMutability": "view",
      "type": "function"
    },
    {
      "inputs": [
        {
          "internalType": "address",
          "name": "",
          "type": "address"
        },
        {
          "internalType": "uint256",
          "name": "",
          "type": "uint256"
        }
      ],
      "name": "transfer",
      "outputs": [
        {
          "internalType": "bool",
          "name": "",
          "type": "bool"
        }
      ],
      "stateMutability": "nonpayable",
      "type": "function"
    },
    {
      "inputs": [
        {
          "internalType": "address",
          "name": "",
          "type": "address"
        },
        {
          "internalType": "address",
          "name": "",
          "type": "address"
        },
        {
          "internalType": "uint256",
          "name": "",
          "type": "uint256"
        }
      ],
      "name": "transferFrom",
      "outputs": [
        {
          "internalType": "bool",
          "name": "",
          "type": "bool"
        }
      ],
      "stateMutability": "nonpayable",
      "type": "function"
    },
    {
      "inputs": [],
      "name": "version",
      "outputs": [
        {
          "internalType": "string",
          "name": "",
          "type": "string"
        }
      ],
      "stateMutability": "view",
      "type": "function"
    }
  ],
  "bytecode": {
    "object": "0x6101406040523480156200001257600080fd5b5073420000000000000000000000000000000000001060006040518060400160405280600581526020016422ba3432b960d91b8152506040518060400160405280600381526020016208aa8960eb1b8152506012600160026001858581600390816200007f919062000167565b5060046200008e828262000167565b50505060809290925260a05260c0526001600160a01b0393841660e0529390921661010052505060ff166101205262000233565b634e487b7160e01b600052604160045260246000fd5b600181811c90821680620000ed57607f821691505b6020821081036200010e57634e487b7160e01b600052602260045260246000fd5b50919050565b601f8211156200016257600081815260208120601f850160051c810160208610156200013d5750805b601f850160051c820191505b818110156200015e5782815560010162000149565b5050505b505050565b81516001600160401b03811115620001835762000183620000c2565b6200019b81620001948454620000d8565b8462000114565b602080601f831160018114620001d35760008415620001ba5750858301515b600019600386901b1c1916600185901b1785556200015e565b600085815260208120601f198616915b828110156200020457888601518255948401946001909101908401620001e3565b5085821015620002235787850151600019600388901b60f8161c191681555b5050505050600190811b01905550565b60805160a05160c05160e0516101005161012051610ec6620002916000396000610244015260008181610309015261039e0152600081816101a9015261032f015260006107ca015260006107a1015260006107780152610ec66000f3fe608060405234801561001057600080fd5b50600436106101775760003560e01c806370a08231116100d8578063ae1f6aaf1161008c578063dd62ed3e11610066578063dd62ed3e14610353578063e78cea9214610307578063ee9a31a21461039957600080fd5b8063ae1f6aaf14610307578063c01e1bd61461032d578063d6c0b2c41461032d57600080fd5b80639dc29fac116100bd5780639dc29fac146102ce578063a457c2d7146102e1578063a9059cbb146102f457600080fd5b806370a082311461029e57806395d89b41146102c657600080fd5b806323b872dd1161012f5780633950935111610114578063395093511461026e57806340c10f191461028157806354fd4d501461029657600080fd5b806323b872dd1461022a578063313ce5671461023d57600080fd5b806306fdde031161016057806306fdde03146101f0578063095ea7b31461020557806318160ddd1461021857600080fd5b806301ffc9a71461017c578063033964be146101a4575b600080fd5b61018f61018a366004610afe565b6103c0565b60405190151581526020015b60405180910390f35b6101cb7f000000000000000000000000000000000000000000000000000000000000000081565b60405173ffffffffffffffffffffffffffffffffffffffff909116815260200161019b565b6101f86104b1565b60405161019b9190610b77565b61018f610213366004610bf1565b610543565b6002545b60405190815260200161019b565b61018f610238366004610c1b565b6105d3565b60405160ff7f000000000000000000000000000000000000000000000000000000000000000016815260200161019b565b61018f61027c366004610bf1565b61065e565b61029461028f366004610bf1565b6106e9565b005b6101f8610771565b61021c6102ac366004610c57565b73ffffffffffffffffffffffffffffffffffffffff163190565b6101f8610814565b6102946102dc366004610bf1565b610823565b61018f6102ef366004610bf1565b6108ab565b61018f610302366004610bf1565b610936565b7f00000000000000000000000000000000000000000000000000000000000000006101cb565b7f00000000000000000000000000000000000000000000000000000000000000006101cb565b61021c610361366004610c72565b73ffffffffffffffffffffffffffffffffffffffff918216600090815260016020908152604080832093909416825291909152205490565b6101cb7f000000000000000000000000000000000000000000000000000000000000000081565b60007f01ffc9a7000000000000000000000000000000000000000000000000000000007f1d1d8b63000000000000000000000000000000000000000000000000000000007fec4fc8e3000000000000000000000000000000000000000000000000000000007fffffffff00000000000000000000000000000000000000000000000000000000851683148061047957507fffffffff00000000000000000000000000000000000000000000000000000000858116908316145b806104a857507fffffffff00000000000000000000000000000000000000000000000000000000858116908216145b95945050505050565b6060600380546104c090610ca5565b80601f01602080910402602001604051908101604052809291908181526020018280546104ec90610ca5565b80156105395780601f1061050e57610100808354040283529160200191610539565b820191906000526020600020905b81548152906001019060200180831161051c57829003601f168201915b5050505050905090565b6040517f08c379a000000000000000000000000000000000000000000000000000000000815260206004820152602b60248201527f4c656761637945524332304e6174697665546f6b656e3a20617070726f76652060448201527f69732064697361626c656400000000000000000000000000000000000000000060648201526000906084015b60405180910390fd5b6040517f08c379a000000000000000000000000000000000000000000000000000000000815260206004820152603060248201527f4c656761637945524332304e6174697665546f6b656e3a207472616e7366657260448201527f46726f6d2069732064697361626c65640000000000000000000000000000000060648201526000906084016105ca565b6040517f08c379a000000000000000000000000000000000000000000000000000000000815260206004820152603560248201527f4c656761637945524332304e6174697665546f6b656e3a20696e63726561736560448201527f416c6c6f77616e63652069732064697361626c6564000000000000000000000060648201526000906084016105ca565b6040517f08c379a000000000000000000000000000000000000000000000000000000000815260206004820152602860248201527f4c656761637945524332304e6174697665546f6b656e3a206d696e742069732060448201527f64697361626c656400000000000000000000000000000000000000000000000060648201526084016105ca565b606061079c7f00000000000000000000000000000000000000000000000000000000000000006109c1565b6107c57f00000000000000000000000000000000000000000000000000000000000000006109c1565b6107ee7f00000000000000000000000000000000000000000000000000000000000000006109c1565b60405160200161080093929190610cf8565b604051602081830303815290604052905090565b6060600480546104c090610ca5565b6040517f08c379a000000000000000000000000000000000000000000000000000000000815260206004820152602860248201527f4c656761637945524332304e6174697665546f6b656e3a206275726e2069732060448201527f64697361626c656400000000000000000000000000000000000000000000000060648201526084016105ca565b6040517f08c379a000000000000000000000000000000000000000000000000000000000815260206004820152603560248201527f4c656761637945524332304e6174697665546f6b656e3a20646563726561736560448201527f416c6c6f77616e63652069732064697361626c6564000000000000000000000060648201526000906084016105ca565b6040517f08c379a000000000000000000000000000000000000000000000000000000000815260206004820152602c60248201527f4c656761637945524332304e6174697665546f6b656e3a207472616e7366657260448201527f2069732064697361626c6564000000000000000000000000000000000000000060648201526000906084016105ca565b606081600003610a0457505060408051808201909152600181527f3000000000000000000000000000000000000000000000000000000000000000602082015290565b8160005b8115610a2e5780610a1881610d9d565b9150610a279050600a83610e04565b9150610a08565b60008167ffffffffffffffff811115610a4957610a49610e18565b6040519080825280601f01601f191660200182016040528015610a73576020820181803683370190505b5090505b8415610af657610a88600183610e47565b9150610a95600a86610e5e565b610aa0906030610e72565b60f81b818381518110610ab557610ab5610e8a565b60200101907effffffffffffffffffffffffffffffffffffffffffffffffffffffffffffff1916908160001a905350610aef600a86610e04565b9450610a77565b949350505050565b600060208284031215610b1057600080fd5b81357fffffffff0000000000000000000000000000000000000000000000000000000081168114610b4057600080fd5b9392505050565b60005b83811015610b62578181015183820152602001610b4a565b83811115610b71576000848401525b50505050565b6020815260008251806020840152610b96816040850160208701610b47565b601f017fffffffffffffffffffffffffffffffffffffffffffffffffffffffffffffffe0169190910160400192915050565b803573ffffffffffffffffffffffffffffffffffffffff81168114610bec57600080fd5b919050565b60008060408385031215610c0457600080fd5b610c0d83610bc8565b946020939093013593505050565b600080600060608486031215610c3057600080fd5b610c3984610bc8565b9250610c4760208501610bc8565b9150604084013590509250925092565b600060208284031215610c6957600080fd5b610b4082610bc8565b60008060408385031215610c8557600080fd5b610c8e83610bc8565b9150610c9c60208401610bc8565b90509250929050565b600181811c90821680610cb957607f821691505b602082108103610cf2577f4e487b7100000000000000000000000000000000000000000000000000000000600052602260045260246000fd5b50919050565b60008451610d0a818460208901610b47565b80830190507f2e000000000000000000000000000000000000000000000000000000000000008082528551610d46816001850160208a01610b47565b60019201918201528351610d61816002840160208801610b47565b0160020195945050505050565b7f4e487b7100000000000000000000000000000000000000000000000000000000600052601160045260246000fd5b60007fffffffffffffffffffffffffffffffffffffffffffffffffffffffffffffffff8203610dce57610dce610d6e565b5060010190565b7f4e487b7100000000000000000000000000000000000000000000000000000000600052601260045260246000fd5b600082610e1357610e13610dd5565b500490565b7f4e487b7100000000000000000000000000000000000000000000000000000000600052604160045260246000fd5b600082821015610e5957610e59610d6e565b500390565b600082610e6d57610e6d610dd5565b500690565b60008219821115610e8557610e85610d6e565b500190565b7f4e487b7100000000000000000000000000000000000000000000000000000000600052603260045260246000fdfea164736f6c634300080f000a",
    "linkReferences": {}
  },
  "methodIdentifiers": {
    "BRIDGE()": "ee9a31a2",
    "REMOTE_TOKEN()": "033964be",
    "allowance(address,address)": "dd62ed3e",
    "approve(address,uint256)": "095ea7b3",
    "balanceOf(address)": "70a08231",
    "bridge()": "e78cea92",
    "burn(address,uint256)": "9dc29fac",
    "decimals()": "313ce567",
    "decreaseAllowance(address,uint256)": "a457c2d7",
    "increaseAllowance(address,uint256)": "39509351",
    "l1Token()": "c01e1bd6",
    "l2Bridge()": "ae1f6aaf",
    "mint(address,uint256)": "40c10f19",
    "name()": "06fdde03",
    "remoteToken()": "d6c0b2c4",
    "supportsInterface(bytes4)": "01ffc9a7",
    "symbol()": "95d89b41",
    "totalSupply()": "18160ddd",
    "transfer(address,uint256)": "a9059cbb",
    "transferFrom(address,address,uint256)": "23b872dd",
    "version()": "54fd4d50"
  },
  "storageLayout": {
    "storage": [
      {
        "astId": 30323,
        "contract": "src/legacy/LegacyERC20NativeToken.sol:LegacyERC20NativeToken",
        "label": "_balances",
        "offset": 0,
        "slot": "0",
        "type": "t_mapping(t_address,t_uint256)"
      },
      {
        "astId": 30329,
        "contract": "src/legacy/LegacyERC20NativeToken.sol:LegacyERC20NativeToken",
        "label": "_allowances",
        "offset": 0,
        "slot": "1",
        "type": "t_mapping(t_address,t_mapping(t_address,t_uint256))"
      },
      {
        "astId": 30331,
        "contract": "src/legacy/LegacyERC20NativeToken.sol:LegacyERC20NativeToken",
        "label": "_totalSupply",
        "offset": 0,
        "slot": "2",
        "type": "t_uint256"
      },
      {
        "astId": 30333,
        "contract": "src/legacy/LegacyERC20NativeToken.sol:LegacyERC20NativeToken",
        "label": "_name",
        "offset": 0,
        "slot": "3",
        "type": "t_string_storage"
      },
      {
        "astId": 30335,
        "contract": "src/legacy/LegacyERC20NativeToken.sol:LegacyERC20NativeToken",
        "label": "_symbol",
        "offset": 0,
        "slot": "4",
        "type": "t_string_storage"
      }
    ],
    "types": {
      "t_address": {
        "encoding": "inplace",
        "label": "address",
        "numberOfBytes": "20"
      },
      "t_mapping(t_address,t_mapping(t_address,t_uint256))": {
        "encoding": "mapping",
        "key": "t_address",
        "label": "mapping(address => mapping(address => uint256))",
        "numberOfBytes": "32",
        "value": "t_mapping(t_address,t_uint256)"
      },
      "t_mapping(t_address,t_uint256)": {
        "encoding": "mapping",
        "key": "t_address",
        "label": "mapping(address => uint256)",
        "numberOfBytes": "32",
        "value": "t_uint256"
      },
      "t_string_storage": {
        "encoding": "bytes",
        "label": "string",
        "numberOfBytes": "32"
      },
      "t_uint256": {
        "encoding": "inplace",
        "label": "uint256",
        "numberOfBytes": "32"
      }
    }
  },
  "userdoc": {
    "version": 1,
    "kind": "user",
    "methods": {
      "BRIDGE()": {
        "notice": "Address of the StandardBridge on this network."
      },
      "REMOTE_TOKEN()": {
        "notice": "Address of the corresponding version of this token on the remote chain."
      },
      "balanceOf(address)": {
        "notice": "Returns the NativeToken balance of the target account. Overrides the base behavior of the         contract to preserve the invariant that the balance within this contract always         matches the balance in the state trie."
      },
      "constructor": {
        "notice": "Initializes the contract as an Optimism Mintable ERC20."
      },
      "supportsInterface(bytes4)": {
        "notice": "ERC165 interface check function."
      },
      "version()": {
        "notice": "Returns the full semver contract version."
      }
    },
    "events": {
      "Burn(address,uint256)": {
        "notice": "Emitted whenever tokens are burned from an account."
      },
      "Mint(address,uint256)": {
        "notice": "Emitted whenever tokens are minted for an account."
      }
    },
    "notice": "LegacyERC20NativeToken is a legacy contract that held NativeToken balances before the Bedrock upgrade.         All NativeToken balances held within this contract were migrated to the state trie as part of         the Bedrock upgrade. Functions within this contract that mutate state were already         disabled as part of the EVM equivalence upgrade."
  },
  "devdoc": {
    "version": 1,
    "kind": "dev",
    "methods": {
      "allowance(address,address)": {
        "details": "See {IERC20-allowance}."
      },
      "approve(address,uint256)": {},
      "balanceOf(address)": {
        "params": {
          "_who": "Address of the account to query."
        },
        "returns": {
          "_0": "The NativeToken balance of the target account."
        }
      },
      "bridge()": {},
      "burn(address,uint256)": {},
      "decimals()": {
        "details": "Returns the number of decimals used to get its user representation. For example, if `decimals` equals `2`, a balance of `505` tokens should be displayed to a user as `5.05` (`505 / 10 ** 2`). NOTE: This information is only used for _display_ purposes: it in no way affects any of the arithmetic of the contract, including {IERC20-balanceOf} and {IERC20-transfer}."
      },
      "decreaseAllowance(address,uint256)": {},
      "increaseAllowance(address,uint256)": {},
      "l1Token()": {},
      "l2Bridge()": {},
      "mint(address,uint256)": {},
      "name()": {
        "details": "Returns the name of the token."
      },
      "remoteToken()": {},
      "supportsInterface(bytes4)": {
        "params": {
          "_interfaceId": "Interface ID to check."
        },
        "returns": {
          "_0": "Whether or not the interface is supported by this contract."
        }
      },
      "symbol()": {
        "details": "Returns the symbol of the token, usually a shorter version of the name."
      },
      "totalSupply()": {
        "details": "See {IERC20-totalSupply}."
      },
      "transfer(address,uint256)": {},
      "transferFrom(address,address,uint256)": {},
      "version()": {
        "returns": {
          "_0": "Semver contract version as a string."
        }
      }
    },
    "title": "LegacyERC20NativeToken"
  },
  "id": 134
}