{
  "abi": [
    {
      "anonymous": false,
      "inputs": [
        {
          "indexed": true,
          "internalType": "bytes32",
          "name": "role",
          "type": "bytes32"
        },
        {
          "indexed": true,
          "internalType": "bytes32",
          "name": "previousAdminRole",
          "type": "bytes32"
        },
        {
          "indexed": true,
          "internalType": "bytes32",
          "name": "newAdminRole",
          "type": "bytes32"
        }
      ],
      "name": "RoleAdminChanged",
      "type": "event"
    },
    {
      "anonymous": false,
      "inputs": [
        {
          "indexed": true,
          "internalType": "bytes32",
          "name": "role",
          "type": "bytes32"
        },
        {
          "indexed": true,
          "internalType": "address",
          "name": "account",
          "type": "address"
        },
        {
          "indexed": true,
          "internalType": "address",
          "name": "sender",
          "type": "address"
        }
      ],
      "name": "RoleGranted",
      "type": "event"
    },
    {
      "anonymous": false,
      "inputs": [
        {
          "indexed": true,
          "internalType": "bytes32",
          "name": "role",
          "type": "bytes32"
        },
        {
          "indexed": true,
          "internalType": "address",
          "name": "account",
          "type": "address"
        },
        {
          "indexed": true,
          "internalType": "address",
          "name": "sender",
          "type": "address"
        }
      ],
      "name": "RoleRevoked",
      "type": "event"
    },
    {
      "inputs": [],
      "name": "ADMIN_ROLE",
      "outputs": [
        {
          "internalType": "bytes32",
          "name": "",
          "type": "bytes32"
        }
      ],
      "stateMutability": "view",
      "type": "function"
    },
    {
      "inputs": [],
      "name": "DEFAULT_ADMIN_ROLE",
      "outputs": [
        {
          "internalType": "bytes32",
          "name": "",
          "type": "bytes32"
        }
      ],
      "stateMutability": "view",
      "type": "function"
    },
    {
      "inputs": [],
      "name": "LEGACY_ERC20_ETH",
      "outputs": [
        {
          "internalType": "address",
          "name": "",
          "type": "address"
        }
      ],
      "stateMutability": "view",
      "type": "function"
    },
    {
      "inputs": [],
      "name": "LEGACY_l1token",
      "outputs": [
        {
          "internalType": "address",
          "name": "",
          "type": "address"
        }
      ],
      "stateMutability": "view",
      "type": "function"
    },
    {
      "inputs": [],
      "name": "POLICY_ROLE",
      "outputs": [
        {
          "internalType": "bytes32",
          "name": "",
          "type": "bytes32"
        }
      ],
      "stateMutability": "view",
      "type": "function"
    },
    {
      "inputs": [
        {
          "internalType": "address",
          "name": "account",
          "type": "address"
        }
      ],
      "name": "addAdmin",
      "outputs": [],
      "stateMutability": "nonpayable",
      "type": "function"
    },
    {
      "inputs": [
        {
          "internalType": "uint256",
          "name": "_salecount",
          "type": "uint256"
        }
      ],
      "name": "cancelFW",
      "outputs": [],
      "stateMutability": "payable",
      "type": "function"
    },
    {
      "inputs": [
        {
          "internalType": "address",
          "name": "_from",
          "type": "address"
        },
        {
          "internalType": "address",
          "name": "_to",
          "type": "address"
        },
        {
          "internalType": "uint256",
          "name": "_amount",
          "type": "uint256"
        },
        {
          "internalType": "uint256",
          "name": "_saleCount",
          "type": "uint256"
        }
      ],
      "name": "claimFW",
      "outputs": [],
      "stateMutability": "payable",
      "type": "function"
    },
    {
      "inputs": [],
      "name": "crossDomainMessenger",
      "outputs": [
        {
          "internalType": "address",
          "name": "",
          "type": "address"
        }
      ],
      "stateMutability": "view",
      "type": "function"
    },
    {
      "inputs": [
        {
          "internalType": "uint256",
          "name": "",
          "type": "uint256"
        }
      ],
      "name": "dealData",
      "outputs": [
        {
          "internalType": "address",
          "name": "l2token",
          "type": "address"
        },
        {
          "internalType": "address",
          "name": "requester",
          "type": "address"
        },
        {
          "internalType": "address",
          "name": "provider",
          "type": "address"
        },
        {
          "internalType": "uint256",
          "name": "totalAmount",
          "type": "uint256"
        },
        {
          "internalType": "uint256",
          "name": "fwAmount",
          "type": "uint256"
        }
      ],
      "stateMutability": "view",
      "type": "function"
    },
    {
      "inputs": [
        {
          "internalType": "address",
          "name": "_l2token",
          "type": "address"
        }
      ],
      "name": "getL1token",
      "outputs": [
        {
          "internalType": "address",
          "name": "l1Token",
          "type": "address"
        }
      ],
      "stateMutability": "view",
      "type": "function"
    },
    {
      "inputs": [
        {
          "internalType": "bytes32",
          "name": "role",
          "type": "bytes32"
        }
      ],
      "name": "getRoleAdmin",
      "outputs": [
        {
          "internalType": "bytes32",
          "name": "",
          "type": "bytes32"
        }
      ],
      "stateMutability": "view",
      "type": "function"
    },
    {
      "inputs": [
        {
          "internalType": "bytes32",
          "name": "role",
          "type": "bytes32"
        },
        {
          "internalType": "address",
          "name": "account",
          "type": "address"
        }
      ],
      "name": "grantRole",
      "outputs": [],
      "stateMutability": "nonpayable",
      "type": "function"
    },
    {
      "inputs": [
        {
          "internalType": "bytes32",
          "name": "role",
          "type": "bytes32"
        },
        {
          "internalType": "address",
          "name": "account",
          "type": "address"
        }
      ],
      "name": "hasRole",
      "outputs": [
        {
          "internalType": "bool",
          "name": "",
          "type": "bool"
        }
      ],
      "stateMutability": "view",
      "type": "function"
    },
    {
      "inputs": [
        {
          "internalType": "address",
          "name": "_crossDomainMessenger",
          "type": "address"
        },
        {
          "internalType": "address",
          "name": "_l1fastWithdraw",
          "type": "address"
        },
        {
          "internalType": "address",
          "name": "_legacyERC20",
          "type": "address"
        },
        {
          "internalType": "address",
          "name": "_l1legacyERC20",
          "type": "address"
        }
      ],
      "name": "initialize",
      "outputs": [],
      "stateMutability": "nonpayable",
      "type": "function"
    },
    {
      "inputs": [
        {
          "internalType": "address",
          "name": "account",
          "type": "address"
        }
      ],
      "name": "isAdmin",
      "outputs": [
        {
          "internalType": "bool",
          "name": "",
          "type": "bool"
        }
      ],
      "stateMutability": "view",
      "type": "function"
    },
    {
      "inputs": [],
      "name": "l1fastWithdrawContract",
      "outputs": [
        {
          "internalType": "address",
          "name": "",
          "type": "address"
        }
      ],
      "stateMutability": "view",
      "type": "function"
    },
    {
      "inputs": [
        {
          "internalType": "address",
          "name": "account",
          "type": "address"
        }
      ],
      "name": "removeAdmin",
      "outputs": [],
      "stateMutability": "nonpayable",
      "type": "function"
    },
    {
      "inputs": [
        {
          "internalType": "bytes32",
          "name": "role",
          "type": "bytes32"
        },
        {
          "internalType": "address",
          "name": "account",
          "type": "address"
        }
      ],
      "name": "renounceRole",
      "outputs": [],
      "stateMutability": "nonpayable",
      "type": "function"
    },
    {
      "inputs": [
        {
          "internalType": "address",
          "name": "_l2token",
          "type": "address"
        },
        {
          "internalType": "uint256",
          "name": "_totalAmount",
          "type": "uint256"
        },
        {
          "internalType": "uint256",
          "name": "_fwAmount",
          "type": "uint256"
        }
      ],
      "name": "requestFW",
      "outputs": [],
      "stateMutability": "payable",
      "type": "function"
    },
    {
      "inputs": [
        {
          "internalType": "bytes32",
          "name": "role",
          "type": "bytes32"
        },
        {
          "internalType": "address",
          "name": "account",
          "type": "address"
        }
      ],
      "name": "revokeRole",
      "outputs": [],
      "stateMutability": "nonpayable",
      "type": "function"
    },
    {
      "inputs": [],
      "name": "salecount",
      "outputs": [
        {
          "internalType": "uint256",
          "name": "",
          "type": "uint256"
        }
      ],
      "stateMutability": "view",
      "type": "function"
    },
    {
      "inputs": [
        {
          "internalType": "bytes4",
          "name": "interfaceId",
          "type": "bytes4"
        }
      ],
      "name": "supportsInterface",
      "outputs": [
        {
          "internalType": "bool",
          "name": "",
          "type": "bool"
        }
      ],
      "stateMutability": "view",
      "type": "function"
    },
    {
      "inputs": [
        {
          "internalType": "address",
          "name": "newAdmin",
          "type": "address"
        }
      ],
      "name": "transferAdmin",
      "outputs": [],
      "stateMutability": "nonpayable",
      "type": "function"
    }
  ],
  "bytecode": {
    "object": "0x608060405234801561001057600080fd5b50611ecd806100206000396000f3fe60806040526004361061018b5760003560e01c806370480275116100d6578063c97a7fdd1161007f578063f43b361311610059578063f43b3613146104ce578063f5869c2f146104fb578063f8c8765e146105a657600080fd5b8063c97a7fdd14610485578063d547741f14610498578063e338e655146104b857600080fd5b806391d14854116100b057806391d148541461040c5780639beb4fe51461045d578063a217fddf1461047057600080fd5b8063704802751461039857806375829def146103b857806375b238fc146103d857600080fd5b80632f2ff15d1161013857806342e51d741161011257806342e51d741461031e578063609cd1fa1461034b57806362d1c9761461037857600080fd5b80632f2ff15d1461028c57806336568abe146102ac57806342c66a88146102cc57600080fd5b8063229852461161016957806322985246146101fa578063248a9ca31461023c57806324d7806c1461026c57600080fd5b806301d0d8151461019057806301ffc9a7146101a55780631785f53c146101da575b600080fd5b6101a361019e366004611a99565b610636565b005b3480156101b157600080fd5b506101c56101c0366004611ace565b6108c5565b60405190151581526020015b60405180910390f35b3480156101e657600080fd5b506101a36101f5366004611b10565b61095e565b34801561020657600080fd5b5061022e7ffb5864e8ff833c3cb2d2d08505e82ff02a43554c74a35d4f5a64e8526127831181565b6040519081526020016101d1565b34801561024857600080fd5b5061022e610257366004611b2d565b60009081526020819052604090206001015490565b34801561027857600080fd5b506101c5610287366004611b10565b610a20565b34801561029857600080fd5b506101a36102a7366004611b46565b610a6d565b3480156102b857600080fd5b506101a36102c7366004611b46565b610a97565b3480156102d857600080fd5b506004546102f99073ffffffffffffffffffffffffffffffffffffffff1681565b60405173ffffffffffffffffffffffffffffffffffffffff90911681526020016101d1565b34801561032a57600080fd5b506002546102f99073ffffffffffffffffffffffffffffffffffffffff1681565b34801561035757600080fd5b506003546102f99073ffffffffffffffffffffffffffffffffffffffff1681565b34801561038457600080fd5b506102f9610393366004611b10565b610b4a565b3480156103a457600080fd5b506101a36103b3366004611b10565b610bfd565b3480156103c457600080fd5b506101a36103d3366004611b10565b610cbc565b3480156103e457600080fd5b5061022e7fdf8b4c520ffe197c5343c6f5aec59570151ef9a492f2c624fd45ddde6135ec4281565b34801561041857600080fd5b506101c5610427366004611b46565b60009182526020828152604080842073ffffffffffffffffffffffffffffffffffffffff93909316845291905290205460ff1690565b6101a361046b366004611b2d565b610ea1565b34801561047c57600080fd5b5061022e600081565b6101a3610493366004611b76565b611110565b3480156104a457600080fd5b506101a36104b3366004611b46565b61141e565b3480156104c457600080fd5b5061022e60055481565b3480156104da57600080fd5b506001546102f99073ffffffffffffffffffffffffffffffffffffffff1681565b34801561050757600080fd5b50610560610516366004611b2d565b6006602052600090815260409020805460018201546002830154600384015460049094015473ffffffffffffffffffffffffffffffffffffffff9384169492841693909116919085565b6040805173ffffffffffffffffffffffffffffffffffffffff9687168152948616602086015292909416918301919091526060820152608081019190915260a0016101d1565b3480156105b257600080fd5b506101a36105c1366004611bbc565b6001805473ffffffffffffffffffffffffffffffffffffffff9586167fffffffffffffffffffffffff0000000000000000000000000000000000000000918216179091556002805494861694821694909417909355600380549285169284169290921790915560048054919093169116179055565b333b156106ca576040517f08c379a000000000000000000000000000000000000000000000000000000000815260206004820152602d60248201527f4c3246573a2066756e6374696f6e2063616e206f6e6c792062652063616c6c6560448201527f642066726f6d20616e20454f410000000000000000000000000000000000000060648201526084015b60405180910390fd5b6005600081546106d990611c47565b9091555060035473ffffffffffffffffffffffffffffffffffffffff9081169084160361076e57813414610769576040517f08c379a000000000000000000000000000000000000000000000000000000000815260206004820152601960248201527f46573a206e6174697665544f4e206e65656420616d6f756e740000000000000060448201526064016106c1565b61080d565b6040517f23b872dd0000000000000000000000000000000000000000000000000000000081523360048201523060248201526044810183905273ffffffffffffffffffffffffffffffffffffffff8416906323b872dd906064016020604051808303816000875af11580156107e7573d6000803e3d6000fd5b505050506040513d601f19601f8201168201806040525081019061080b9190611c7f565b505b6040805160a08101825273ffffffffffffffffffffffffffffffffffffffff9485168152336020808301918252600083850181815260608501978852608085019687526005548252600690925293909320915182549087167fffffffffffffffffffffffff000000000000000000000000000000000000000091821617835590516001830180549188169183169190911790559151600282018054919096169216919091179093559051600383015551600490910155565b60007fffffffff0000000000000000000000000000000000000000000000000000000082167f7965db0b00000000000000000000000000000000000000000000000000000000148061095857507f01ffc9a7000000000000000000000000000000000000000000000000000000007fffffffff000000000000000000000000000000000000000000000000000000008316145b92915050565b61096733610a20565b6109f3576040517f08c379a000000000000000000000000000000000000000000000000000000000815260206004820152602260248201527f41636365737369626c653a2043616c6c6572206973206e6f7420616e2061646d60448201527f696e00000000000000000000000000000000000000000000000000000000000060648201526084016106c1565b610a1d7fdf8b4c520ffe197c5343c6f5aec59570151ef9a492f2c624fd45ddde6135ec4282610a97565b50565b73ffffffffffffffffffffffffffffffffffffffff811660009081527f5cbfc8ee58ca47855df7bcf648dd304ddb6b932f9b87878bdf6318d7ec7ee5b7602052604081205460ff16610958565b600082815260208190526040902060010154610a8881611443565b610a92838361144d565b505050565b73ffffffffffffffffffffffffffffffffffffffff81163314610b3c576040517f08c379a000000000000000000000000000000000000000000000000000000000815260206004820152602f60248201527f416363657373436f6e74726f6c3a2063616e206f6e6c792072656e6f756e636560448201527f20726f6c657320666f722073656c66000000000000000000000000000000000060648201526084016106c1565b610b46828261153d565b5050565b60035460009073ffffffffffffffffffffffffffffffffffffffff90811690831603610b8e57505060045473ffffffffffffffffffffffffffffffffffffffff1690565b8173ffffffffffffffffffffffffffffffffffffffff1663c01e1bd66040518163ffffffff1660e01b8152600401602060405180830381865afa158015610bd9573d6000803e3d6000fd5b505050506040513d601f19601f820116820180604052508101906109589190611ca1565b610c0633610a20565b610c92576040517f08c379a000000000000000000000000000000000000000000000000000000000815260206004820152602260248201527f41636365737369626c653a2043616c6c6572206973206e6f7420616e2061646d60448201527f696e00000000000000000000000000000000000000000000000000000000000060648201526084016106c1565b610a1d7fdf8b4c520ffe197c5343c6f5aec59570151ef9a492f2c624fd45ddde6135ec4282610a6d565b610cc533610a20565b610d51576040517f08c379a000000000000000000000000000000000000000000000000000000000815260206004820152602260248201527f41636365737369626c653a2043616c6c6572206973206e6f7420616e2061646d60448201527f696e00000000000000000000000000000000000000000000000000000000000060648201526084016106c1565b73ffffffffffffffffffffffffffffffffffffffff8116610dce576040517f08c379a000000000000000000000000000000000000000000000000000000000815260206004820152601860248201527f41636365737369626c653a207a65726f2061646472657373000000000000000060448201526064016106c1565b73ffffffffffffffffffffffffffffffffffffffff81163303610e4d576040517f08c379a000000000000000000000000000000000000000000000000000000000815260206004820152601660248201527f41636365737369626c653a2073616d652061646d696e0000000000000000000060448201526064016106c1565b610e777fdf8b4c520ffe197c5343c6f5aec59570151ef9a492f2c624fd45ddde6135ec4282610a6d565b610a1d7fdf8b4c520ffe197c5343c6f5aec59570151ef9a492f2c624fd45ddde6135ec4233610a97565b6000818152600660205260409020600281015460019091015473ffffffffffffffffffffffffffffffffffffffff9081169116148015610ef05750600081815260066020526040902060040154155b610f56576040517f08c379a000000000000000000000000000000000000000000000000000000000815260206004820152601160248201527f616c7265616479206265656e20736f6c6400000000000000000000000000000060448201526064016106c1565b60008181526006602052604090206001015473ffffffffffffffffffffffffffffffffffffffff163314610fe6576040517f08c379a000000000000000000000000000000000000000000000000000000000815260206004820152600f60248201527f796f7572206e6f742073656c6c6572000000000000000000000000000000000060448201526064016106c1565b60035460008281526006602052604090205473ffffffffffffffffffffffffffffffffffffffff9182169116036110d7576000818152600660205260408082206003015490513391908381818185875af1925050503d8060008114611067576040519150601f19603f3d011682016040523d82523d6000602084013e61106c565b606091505b5050905080610b46576040517f08c379a000000000000000000000000000000000000000000000000000000000815260206004820152601260248201527f63616e63656c20726566756e64206661696c000000000000000000000000000060448201526064016106c1565b600081815260066020526040902060038101549054610a1d9173ffffffffffffffffffffffffffffffffffffffff9091169033906115f4565b60008181526006602052604090206001015473ffffffffffffffffffffffffffffffffffffffff8481169116146111a3576040517f08c379a000000000000000000000000000000000000000000000000000000000815260206004820152601460248201527f6e6f74206d61746368207468652073656c6c657200000000000000000000000060448201526064016106c1565b60008181526006602052604090206004015482101561121e576040517f08c379a000000000000000000000000000000000000000000000000000000000815260206004820152601660248201527f6e65656420746f206f766572206d696e416d6f756e740000000000000000000060448201526064016106c1565b60008181526006602052604090206002810180547fffffffffffffffffffffffff00000000000000000000000000000000000000001673ffffffffffffffffffffffffffffffffffffffff878116919091179091556004820184905560035491549181169116036113655760008181526006602052604080822060030154905173ffffffffffffffffffffffffffffffffffffffff871691908381818185875af1925050503d80600081146112ef576040519150601f19603f3d011682016040523d82523d6000602084013e6112f4565b606091505b505090508061135f576040517f08c379a000000000000000000000000000000000000000000000000000000000815260206004820152600a60248201527f636c61696d206661696c0000000000000000000000000000000000000000000060448201526064016106c1565b50611418565b60008181526006602052604090819020805460039091015491517fa9059cbb00000000000000000000000000000000000000000000000000000000815273ffffffffffffffffffffffffffffffffffffffff8781166004830152602482019390935291169063a9059cbb906044016020604051808303816000875af11580156113f2573d6000803e3d6000fd5b505050506040513d601f19601f820116820180604052508101906114169190611c7f565b505b50505050565b60008281526020819052604090206001015461143981611443565b610a92838361153d565b610a1d813361175d565b60008281526020818152604080832073ffffffffffffffffffffffffffffffffffffffff8516845290915290205460ff16610b465760008281526020818152604080832073ffffffffffffffffffffffffffffffffffffffff85168452909152902080547fffffffffffffffffffffffffffffffffffffffffffffffffffffffffffffff001660011790556114df3390565b73ffffffffffffffffffffffffffffffffffffffff168173ffffffffffffffffffffffffffffffffffffffff16837f2f8788117e7eff1d82e926ec794901d17c78024a50270940304540a733656f0d60405160405180910390a45050565b60008281526020818152604080832073ffffffffffffffffffffffffffffffffffffffff8516845290915290205460ff1615610b465760008281526020818152604080832073ffffffffffffffffffffffffffffffffffffffff8516808552925280832080547fffffffffffffffffffffffffffffffffffffffffffffffffffffffffffffff0016905551339285917ff6391f5c32d9c69d2a47ea670b442974b53935d1edc7fd64eb21e047a839171b9190a45050565b6040805173ffffffffffffffffffffffffffffffffffffffff8481166024830152604480830185905283518084039091018152606490920183526020820180517bffffffffffffffffffffffffffffffffffffffffffffffffffffffff167fa9059cbb00000000000000000000000000000000000000000000000000000000179052915160009283929087169161168b9190611cea565b6000604051808303816000865af19150503d80600081146116c8576040519150601f19603f3d011682016040523d82523d6000602084013e6116cd565b606091505b50915091508180156116f75750805115806116f75750808060200190518101906116f79190611c7f565b611416576040517f08c379a000000000000000000000000000000000000000000000000000000000815260206004820152600f60248201527f5452414e534645525f4641494c4544000000000000000000000000000000000060448201526064016106c1565b60008281526020818152604080832073ffffffffffffffffffffffffffffffffffffffff8516845290915290205460ff16610b46576117b38173ffffffffffffffffffffffffffffffffffffffff16601461182d565b6117be83602061182d565b6040516020016117cf929190611d06565b604080517fffffffffffffffffffffffffffffffffffffffffffffffffffffffffffffffe0818403018152908290527f08c379a00000000000000000000000000000000000000000000000000000000082526106c191600401611d87565b6060600061183c836002611dd8565b611847906002611e15565b67ffffffffffffffff81111561185f5761185f611e2d565b6040519080825280601f01601f191660200182016040528015611889576020820181803683370190505b5090507f3000000000000000000000000000000000000000000000000000000000000000816000815181106118c0576118c0611e5c565b60200101907effffffffffffffffffffffffffffffffffffffffffffffffffffffffffffff1916908160001a9053507f78000000000000000000000000000000000000000000000000000000000000008160018151811061192357611923611e5c565b60200101907effffffffffffffffffffffffffffffffffffffffffffffffffffffffffffff1916908160001a905350600061195f846002611dd8565b61196a906001611e15565b90505b6001811115611a07577f303132333435363738396162636465660000000000000000000000000000000085600f16601081106119ab576119ab611e5c565b1a60f81b8282815181106119c1576119c1611e5c565b60200101907effffffffffffffffffffffffffffffffffffffffffffffffffffffffffffff1916908160001a90535060049490941c93611a0081611e8b565b905061196d565b508315611a70576040517f08c379a000000000000000000000000000000000000000000000000000000000815260206004820181905260248201527f537472696e67733a20686578206c656e67746820696e73756666696369656e7460448201526064016106c1565b9392505050565b73ffffffffffffffffffffffffffffffffffffffff81168114610a1d57600080fd5b600080600060608486031215611aae57600080fd5b8335611ab981611a77565b95602085013595506040909401359392505050565b600060208284031215611ae057600080fd5b81357fffffffff0000000000000000000000000000000000000000000000000000000081168114611a7057600080fd5b600060208284031215611b2257600080fd5b8135611a7081611a77565b600060208284031215611b3f57600080fd5b5035919050565b60008060408385031215611b5957600080fd5b823591506020830135611b6b81611a77565b809150509250929050565b60008060008060808587031215611b8c57600080fd5b8435611b9781611a77565b93506020850135611ba781611a77565b93969395505050506040820135916060013590565b60008060008060808587031215611bd257600080fd5b8435611bdd81611a77565b93506020850135611bed81611a77565b92506040850135611bfd81611a77565b91506060850135611c0d81611a77565b939692955090935050565b7f4e487b7100000000000000000000000000000000000000000000000000000000600052601160045260246000fd5b60007fffffffffffffffffffffffffffffffffffffffffffffffffffffffffffffffff8203611c7857611c78611c18565b5060010190565b600060208284031215611c9157600080fd5b81518015158114611a7057600080fd5b600060208284031215611cb357600080fd5b8151611a7081611a77565b60005b83811015611cd9578181015183820152602001611cc1565b838111156114185750506000910152565b60008251611cfc818460208701611cbe565b9190910192915050565b7f416363657373436f6e74726f6c3a206163636f756e7420000000000000000000815260008351611d3e816017850160208801611cbe565b7f206973206d697373696e6720726f6c65200000000000000000000000000000006017918401918201528351611d7b816028840160208801611cbe565b01602801949350505050565b6020815260008251806020840152611da6816040850160208701611cbe565b601f017fffffffffffffffffffffffffffffffffffffffffffffffffffffffffffffffe0169190910160400192915050565b6000817fffffffffffffffffffffffffffffffffffffffffffffffffffffffffffffffff0483118215151615611e1057611e10611c18565b500290565b60008219821115611e2857611e28611c18565b500190565b7f4e487b7100000000000000000000000000000000000000000000000000000000600052604160045260246000fd5b7f4e487b7100000000000000000000000000000000000000000000000000000000600052603260045260246000fd5b600081611e9a57611e9a611c18565b507fffffffffffffffffffffffffffffffffffffffffffffffffffffffffffffffff019056fea164736f6c634300080f000a",
    "linkReferences": {}
  },
  "methodIdentifiers": {
    "ADMIN_ROLE()": "75b238fc",
    "DEFAULT_ADMIN_ROLE()": "a217fddf",
    "LEGACY_ERC20_ETH()": "609cd1fa",
    "LEGACY_l1token()": "42c66a88",
    "POLICY_ROLE()": "22985246",
    "addAdmin(address)": "70480275",
    "cancelFW(uint256)": "9beb4fe5",
    "claimFW(address,address,uint256,uint256)": "c97a7fdd",
    "crossDomainMessenger()": "f43b3613",
    "dealData(uint256)": "f5869c2f",
    "getL1token(address)": "62d1c976",
    "getRoleAdmin(bytes32)": "248a9ca3",
    "grantRole(bytes32,address)": "2f2ff15d",
    "hasRole(bytes32,address)": "91d14854",
    "initialize(address,address,address,address)": "f8c8765e",
    "isAdmin(address)": "24d7806c",
    "l1fastWithdrawContract()": "42e51d74",
    "removeAdmin(address)": "1785f53c",
    "renounceRole(bytes32,address)": "36568abe",
    "requestFW(address,uint256,uint256)": "01d0d815",
    "revokeRole(bytes32,address)": "d547741f",
    "salecount()": "e338e655",
    "supportsInterface(bytes4)": "01ffc9a7",
    "transferAdmin(address)": "75829def"
  },
  "storageLayout": {
    "storage": [
      {
        "astId": 24,
        "contract": "src/L2/L2FastWithdraw.sol:L2FastWithdraw",
        "label": "_roles",
        "offset": 0,
        "slot": "0",
        "type": "t_mapping(t_bytes32,t_struct(RoleData)19_storage)"
      },
      {
        "astId": 1032,
        "contract": "src/L2/L2FastWithdraw.sol:L2FastWithdraw",
        "label": "crossDomainMessenger",
        "offset": 0,
        "slot": "1",
        "type": "t_address"
      },
      {
        "astId": 1034,
        "contract": "src/L2/L2FastWithdraw.sol:L2FastWithdraw",
        "label": "l1fastWithdrawContract",
        "offset": 0,
        "slot": "2",
        "type": "t_address"
      },
      {
        "astId": 1036,
        "contract": "src/L2/L2FastWithdraw.sol:L2FastWithdraw",
        "label": "LEGACY_ERC20_ETH",
        "offset": 0,
        "slot": "3",
        "type": "t_address"
      },
      {
        "astId": 1038,
        "contract": "src/L2/L2FastWithdraw.sol:L2FastWithdraw",
        "label": "LEGACY_l1token",
        "offset": 0,
        "slot": "4",
        "type": "t_address"
      },
      {
        "astId": 1040,
        "contract": "src/L2/L2FastWithdraw.sol:L2FastWithdraw",
        "label": "salecount",
        "offset": 0,
        "slot": "5",
        "type": "t_uint256"
      },
      {
        "astId": 1045,
        "contract": "src/L2/L2FastWithdraw.sol:L2FastWithdraw",
        "label": "dealData",
        "offset": 0,
        "slot": "6",
        "type": "t_mapping(t_uint256,t_struct(RequestData)1030_storage)"
      }
    ],
    "types": {
      "t_address": {
        "encoding": "inplace",
        "label": "address",
        "numberOfBytes": "20"
      },
      "t_bool": {
        "encoding": "inplace",
        "label": "bool",
        "numberOfBytes": "1"
      },
      "t_bytes32": {
        "encoding": "inplace",
        "label": "bytes32",
        "numberOfBytes": "32"
      },
      "t_mapping(t_address,t_bool)": {
        "encoding": "mapping",
        "key": "t_address",
        "label": "mapping(address => bool)",
        "numberOfBytes": "32",
        "value": "t_bool"
      },
      "t_mapping(t_bytes32,t_struct(RoleData)19_storage)": {
        "encoding": "mapping",
        "key": "t_bytes32",
        "label": "mapping(bytes32 => struct AccessControl.RoleData)",
        "numberOfBytes": "32",
        "value": "t_struct(RoleData)19_storage"
      },
      "t_mapping(t_uint256,t_struct(RequestData)1030_storage)": {
        "encoding": "mapping",
        "key": "t_uint256",
        "label": "mapping(uint256 => struct L2FastWithdrawStorage.RequestData)",
        "numberOfBytes": "32",
        "value": "t_struct(RequestData)1030_storage"
      },
      "t_struct(RequestData)1030_storage": {
        "encoding": "inplace",
        "label": "struct L2FastWithdrawStorage.RequestData",
        "numberOfBytes": "160",
        "members": [
          {
            "astId": 1021,
            "contract": "src/L2/L2FastWithdraw.sol:L2FastWithdraw",
            "label": "l2token",
            "offset": 0,
            "slot": "0",
            "type": "t_address"
          },
          {
            "astId": 1023,
            "contract": "src/L2/L2FastWithdraw.sol:L2FastWithdraw",
            "label": "requester",
            "offset": 0,
            "slot": "1",
            "type": "t_address"
          },
          {
            "astId": 1025,
            "contract": "src/L2/L2FastWithdraw.sol:L2FastWithdraw",
            "label": "provider",
            "offset": 0,
            "slot": "2",
            "type": "t_address"
          },
          {
            "astId": 1027,
            "contract": "src/L2/L2FastWithdraw.sol:L2FastWithdraw",
            "label": "totalAmount",
            "offset": 0,
            "slot": "3",
            "type": "t_uint256"
          },
          {
            "astId": 1029,
            "contract": "src/L2/L2FastWithdraw.sol:L2FastWithdraw",
            "label": "fwAmount",
            "offset": 0,
            "slot": "4",
            "type": "t_uint256"
          }
        ]
      },
      "t_struct(RoleData)19_storage": {
        "encoding": "inplace",
        "label": "struct AccessControl.RoleData",
        "numberOfBytes": "64",
        "members": [
          {
            "astId": 16,
            "contract": "src/L2/L2FastWithdraw.sol:L2FastWithdraw",
            "label": "members",
            "offset": 0,
            "slot": "0",
            "type": "t_mapping(t_address,t_bool)"
          },
          {
            "astId": 18,
            "contract": "src/L2/L2FastWithdraw.sol:L2FastWithdraw",
            "label": "adminRole",
            "offset": 0,
            "slot": "1",
            "type": "t_bytes32"
          }
        ]
      },
      "t_uint256": {
        "encoding": "inplace",
        "label": "uint256",
        "numberOfBytes": "32"
      }
    }
  },
  "userdoc": {
    "version": 1,
    "kind": "user"
  },
  "devdoc": {
    "version": 1,
    "kind": "dev",
    "methods": {
      "addAdmin(address)": {
        "details": "add admin",
        "params": {
          "account": "address to add"
        }
      },
      "getRoleAdmin(bytes32)": {
        "details": "Returns the admin role that controls `role`. See {grantRole} and {revokeRole}. To change a role's admin, use {_setRoleAdmin}."
      },
      "grantRole(bytes32,address)": {
        "details": "Grants `role` to `account`. If `account` had not been already granted `role`, emits a {RoleGranted} event. Requirements: - the caller must have ``role``'s admin role. May emit a {RoleGranted} event."
      },
      "hasRole(bytes32,address)": {
        "details": "Returns `true` if `account` has been granted `role`."
      },
      "isAdmin(address)": {
        "details": "whether admin",
        "params": {
          "account": "address to check"
        }
      },
      "removeAdmin(address)": {
        "details": "remove admin",
        "params": {
          "account": "address to remove"
        }
      },
      "renounceRole(bytes32,address)": {
        "details": "Revokes `role` from the calling account. Roles are often managed via {grantRole} and {revokeRole}: this function's purpose is to provide a mechanism for accounts to lose their privileges if they are compromised (such as when a trusted device is misplaced). If the calling account had been revoked `role`, emits a {RoleRevoked} event. Requirements: - the caller must be `account`. May emit a {RoleRevoked} event."
      },
      "revokeRole(bytes32,address)": {
        "details": "Revokes `role` from `account`. If `account` had been granted `role`, emits a {RoleRevoked} event. Requirements: - the caller must have ``role``'s admin role. May emit a {RoleRevoked} event."
      },
      "supportsInterface(bytes4)": {
        "details": "See {IERC165-supportsInterface}."
      },
      "transferAdmin(address)": {
        "details": "transfer admin",
        "params": {
          "newAdmin": "new admin address"
        }
      }
    }
  },
  "id": 6
}