{
  "abi": [
    {
      "inputs": [
        {
          "internalType": "bytes32",
          "name": "_slot",
          "type": "bytes32"
        }
      ],
      "name": "getAddress",
      "outputs": [
        {
          "internalType": "address",
          "name": "",
          "type": "address"
        }
      ],
      "stateMutability": "view",
      "type": "function"
    },
    {
      "inputs": [
        {
          "internalType": "bytes32",
          "name": "_slot",
          "type": "bytes32"
        }
      ],
      "name": "getBytes32",
      "outputs": [
        {
          "internalType": "bytes32",
          "name": "",
          "type": "bytes32"
        }
      ],
      "stateMutability": "view",
      "type": "function"
    },
    {
      "inputs": [
        {
          "internalType": "bytes32",
          "name": "_slot",
          "type": "bytes32"
        }
      ],
      "name": "getUint",
      "outputs": [
        {
          "internalType": "uint256",
          "name": "",
          "type": "uint256"
        }
      ],
      "stateMutability": "view",
      "type": "function"
    },
    {
      "inputs": [
        {
          "internalType": "bytes32",
          "name": "_slot",
          "type": "bytes32"
        },
        {
          "internalType": "address",
          "name": "_address",
          "type": "address"
        }
      ],
      "name": "setAddress",
      "outputs": [],
      "stateMutability": "nonpayable",
      "type": "function"
    },
    {
      "inputs": [
        {
          "internalType": "bytes32",
          "name": "_slot",
          "type": "bytes32"
        },
        {
          "internalType": "bytes32",
          "name": "_value",
          "type": "bytes32"
        }
      ],
      "name": "setBytes32",
      "outputs": [],
      "stateMutability": "nonpayable",
      "type": "function"
    },
    {
      "inputs": [
        {
          "internalType": "bytes32",
          "name": "_slot",
          "type": "bytes32"
        },
        {
          "internalType": "uint256",
          "name": "_value",
          "type": "uint256"
        }
      ],
      "name": "setUint",
      "outputs": [],
      "stateMutability": "nonpayable",
      "type": "function"
    },
    {
      "inputs": [],
      "name": "version",
      "outputs": [
        {
          "internalType": "string",
          "name": "",
          "type": "string"
        }
      ],
      "stateMutability": "view",
      "type": "function"
    }
  ],
  "bytecode": {
    "object": "0x608060405234801561001057600080fd5b5061025a806100206000396000f3fe608060405234801561001057600080fd5b506004361061007d5760003560e01c8063a6ed563e1161005b578063a6ed563e1461011c578063bd02d0f51461011c578063ca446dd914610138578063e2a4853a146100bf57600080fd5b806321f8a721146100825780634e91db08146100bf57806354fd4d50146100d3575b600080fd5b610095610090366004610156565b610146565b60405173ffffffffffffffffffffffffffffffffffffffff90911681526020015b60405180910390f35b6100d16100cd36600461016f565b9055565b005b61010f6040518060400160405280600581526020017f312e302e3000000000000000000000000000000000000000000000000000000081525081565b6040516100b69190610191565b61012a610090366004610156565b6040519081526020016100b6565b6100d16100cd366004610204565b6000610150825490565b92915050565b60006020828403121561016857600080fd5b5035919050565b6000806040838503121561018257600080fd5b50508035926020909101359150565b600060208083528351808285015260005b818110156101be578581018301518582016040015282016101a2565b818111156101d0576000604083870101525b50601f017fffffffffffffffffffffffffffffffffffffffffffffffffffffffffffffffe016929092016040019392505050565b6000806040838503121561021757600080fd5b82359150602083013573ffffffffffffffffffffffffffffffffffffffff8116811461024257600080fd5b80915050925092905056fea164736f6c634300080f000a",
    "linkReferences": {}
  },
  "methodIdentifiers": {
    "getAddress(bytes32)": "21f8a721",
    "getBytes32(bytes32)": "a6ed563e",
    "getUint(bytes32)": "bd02d0f5",
    "setAddress(bytes32,address)": "ca446dd9",
    "setBytes32(bytes32,bytes32)": "4e91db08",
    "setUint(bytes32,uint256)": "e2a4853a",
    "version()": "54fd4d50"
  },
  "storageLayout": {
    "storage": [],
    "types": {}
  },
  "userdoc": {
    "version": 1,
    "kind": "user",
    "methods": {
      "getAddress(bytes32)": {
        "notice": "Retrieves an address value from `_slot`."
      },
      "getBytes32(bytes32)": {
        "notice": "Retrieves a bytes32 value from `_slot`."
      },
      "getUint(bytes32)": {
        "notice": "Retrieves a uint256 value from `_slot`."
      },
      "setAddress(bytes32,address)": {
        "notice": "Stores an address `_value` at `_slot`."
      },
      "setBytes32(bytes32,bytes32)": {
        "notice": "Stores a bytes32 `_value` at `_slot`. Any storage slots that         are packed should be set through this interface."
      },
      "setUint(bytes32,uint256)": {
        "notice": "Stores a uint256 `_value` at `_slot`."
      },
      "version()": {
        "notice": "Semantic version."
      }
    },
    "notice": "A simple contract that allows setting arbitrary storage slots.         WARNING: this contract is not safe to be called by untrusted parties.         It is only meant as an intermediate step during upgrades."
  },
  "devdoc": {
    "version": 1,
    "kind": "dev",
    "title": "StorageSetter"
  },
  "id": 170
}