{
	"contracts/L1/L2toL2CrossTradeStorageL1.sol": {
		"L2toL2CrossTradeStorageL1": {
			"abi": [
				{
					"inputs": [
						{
							"internalType": "bytes32",
							"name": "",
							"type": "bytes32"
						}
					],
					"name": "cancelL1",
					"outputs": [
						{
							"internalType": "address",
							"name": "",
							"type": "address"
						}
					],
					"stateMutability": "view",
					"type": "function"
				},
				{
					"inputs": [
						{
							"internalType": "uint256",
							"name": "",
							"type": "uint256"
						}
					],
					"name": "chainData",
					"outputs": [
						{
							"internalType": "address",
							"name": "crossDomainMessenger",
							"type": "address"
						},
						{
							"internalType": "address",
							"name": "l2CrossTradeContract",
							"type": "address"
						},
						{
							"internalType": "address",
							"name": "legacyERC20ETH",
							"type": "address"
						},
						{
							"internalType": "address",
							"name": "l1TON",
							"type": "address"
						}
					],
					"stateMutability": "view",
					"type": "function"
				},
				{
					"inputs": [
						{
							"internalType": "bytes32",
							"name": "",
							"type": "bytes32"
						}
					],
					"name": "editCtAmount",
					"outputs": [
						{
							"internalType": "uint256",
							"name": "",
							"type": "uint256"
						}
					],
					"stateMutability": "view",
					"type": "function"
				},
				{
					"inputs": [
						{
							"internalType": "bytes32",
							"name": "",
							"type": "bytes32"
						}
					],
					"name": "provideAccount",
					"outputs": [
						{
							"internalType": "address",
							"name": "",
							"type": "address"
						}
					],
					"stateMutability": "view",
					"type": "function"
				},
				{
					"inputs": [
						{
							"internalType": "bytes32",
							"name": "",
							"type": "bytes32"
						}
					],
					"name": "successCT",
					"outputs": [
						{
							"internalType": "bool",
							"name": "",
							"type": "bool"
						}
					],
					"stateMutability": "view",
					"type": "function"
				}
			],
			"devdoc": {
				"kind": "dev",
				"methods": {},
				"version": 1
			},
			"evm": {
				"assembly": "    /* \"contracts/L1/L2toL2CrossTradeStorageL1.sol\":63:1032  contract L2toL2CrossTradeStorageL1 {... */\n  0x80\n  dup1\n  0x40\n  mstore\n  jumpi(tag_1, callvalue)\n  dataSize(sub_0)\n  swap1\n  dup2\n  dataOffset(sub_0)\n  dup3\n  codecopy\n  return\ntag_1:\n  0x00\n  dup1\n  revert\nstop\n\nsub_0: assembly {\n        /* \"contracts/L1/L2toL2CrossTradeStorageL1.sol\":63:1032  contract L2toL2CrossTradeStorageL1 {... */\n      0x80\n      0x40\n      dup2\n      dup2\n      mstore\n      0x04\n      swap2\n      dup3\n      calldatasize\n      lt\n      iszero\n      tag_1\n      jumpi\n      0x00\n      dup1\n      revert\n    tag_1:\n      shr(0xe0, calldataload(0x00))\n      swap1\n      dup2\n      0x178694b7\n      eq\n      tag_3\n      jumpi\n      pop\n      dup1\n      0x8b41f3ab\n      eq\n      tag_5\n      jumpi\n      dup1\n      0xab01fac0\n      eq\n      tag_7\n      jumpi\n      dup1\n      0xdaf380bf\n      eq\n      tag_9\n      jumpi\n      0xe59f69c2\n      eq\n      tag_11\n      jumpi\n      0x00\n      dup1\n      revert\n    tag_11:\n      jumpi(tag_15, callvalue)\n      jumpi(tag_15, slt(add(calldatasize, 0xfffffffffffffffffffffffffffffffffffffffffffffffffffffffffffffffc), 0x20))\n      0x80\n      swap2\n      calldataload\n      0x00\n      mstore\n        /* \"contracts/L1/L2toL2CrossTradeStorageL1.sol\":981:1029  mapping(uint256 => ChainIdData) public chainData */\n      0x05\n        /* \"contracts/L1/L2toL2CrossTradeStorageL1.sol\":63:1032  contract L2toL2CrossTradeStorageL1 {... */\n      0x20\n      mstore\n      dup1\n      0x00\n      keccak256\n      0xffffffffffffffffffffffffffffffffffffffff\n      swap1\n      dup2\n      dup2\n      sload\n      and\n        /* \"contracts/L1/L2toL2CrossTradeStorageL1.sol\":981:1029  mapping(uint256 => ChainIdData) public chainData */\n      swap3\n      dup3\n        /* \"contracts/L1/L2toL2CrossTradeStorageL1.sol\":63:1032  contract L2toL2CrossTradeStorageL1 {... */\n      0x01\n        /* \"contracts/L1/L2toL2CrossTradeStorageL1.sol\":981:1029  mapping(uint256 => ChainIdData) public chainData */\n      dup4\n      add\n        /* \"contracts/L1/L2toL2CrossTradeStorageL1.sol\":63:1032  contract L2toL2CrossTradeStorageL1 {... */\n      sload\n      and\n        /* \"contracts/L1/L2toL2CrossTradeStorageL1.sol\":981:1029  mapping(uint256 => ChainIdData) public chainData */\n      swap3\n      0x03\n      dup2\n      0x02\n      dup6\n      add\n        /* \"contracts/L1/L2toL2CrossTradeStorageL1.sol\":63:1032  contract L2toL2CrossTradeStorageL1 {... */\n      sload\n      and\n        /* \"contracts/L1/L2toL2CrossTradeStorageL1.sol\":981:1029  mapping(uint256 => ChainIdData) public chainData */\n      swap4\n      add\n        /* \"contracts/L1/L2toL2CrossTradeStorageL1.sol\":63:1032  contract L2toL2CrossTradeStorageL1 {... */\n      sload\n      and\n      swap3\n      dup2\n      mload\n      swap5\n      dup6\n      mstore\n      0x20\n      dup6\n      add\n      mstore\n      dup4\n      add\n      mstore\n      0x60\n      dup3\n      add\n      mstore\n      return\n    tag_15:\n      0x00\n      dup1\n      revert\n    tag_9:\n      pop\n      jumpi(tag_15, callvalue)\n      jumpi(tag_15, slt(add(calldatasize, 0xfffffffffffffffffffffffffffffffffffffffffffffffffffffffffffffffc), 0x20))\n      dup2\n      0x20\n      swap3\n      calldataload\n      0x00\n      mstore\n      dup3\n      mstore\n      dup1\n      0x00\n      keccak256\n      sload\n      swap1\n      mload\n      swap1\n      dup2\n      mstore\n      return\n    tag_7:\n      pop\n      jumpi(tag_15, callvalue)\n      jumpi(tag_15, slt(add(calldatasize, 0xfffffffffffffffffffffffffffffffffffffffffffffffffffffffffffffffc), 0x20))\n      0x20\n      swap2\n      calldataload\n      0x00\n      mstore\n      0x01\n      dup3\n      mstore\n      0xff\n      dup2\n      0x00\n      keccak256\n      sload\n      and\n      swap1\n      mload\n      swap1\n      iszero\n      iszero\n      dup2\n      mstore\n      return\n    tag_5:\n      pop\n      jumpi(tag_15, callvalue)\n      jumpi(tag_15, slt(add(calldatasize, 0xfffffffffffffffffffffffffffffffffffffffffffffffffffffffffffffffc), 0x20))\n      0x20\n      swap2\n      calldataload\n      0x00\n      mstore\n        /* \"contracts/L1/L2toL2CrossTradeStorageL1.sol\":749:798  mapping(bytes32 => address) public provideAccount */\n      0x03\n        /* \"contracts/L1/L2toL2CrossTradeStorageL1.sol\":63:1032  contract L2toL2CrossTradeStorageL1 {... */\n      dup3\n      mstore\n      0xffffffffffffffffffffffffffffffffffffffff\n      dup2\n      0x00\n      keccak256\n      sload\n      and\n      swap1\n      mload\n      swap1\n      dup2\n      mstore\n      return\n    tag_3:\n      swap1\n      pop\n      dup3\n      jumpi(tag_15, callvalue)\n      jumpi(tag_15, slt(add(calldatasize, 0xfffffffffffffffffffffffffffffffffffffffffffffffffffffffffffffffc), 0x20))\n      0x20\n      swap3\n      0xffffffffffffffffffffffffffffffffffffffff\n      swap2\n      calldataload\n      0x00\n      mstore\n        /* \"contracts/L1/L2toL2CrossTradeStorageL1.sol\":621:664  mapping(bytes32 => address) public cancelL1 */\n      0x02\n        /* \"contracts/L1/L2toL2CrossTradeStorageL1.sol\":63:1032  contract L2toL2CrossTradeStorageL1 {... */\n      dup5\n      mstore\n      0x00\n      keccak256\n      sload\n      and\n      dup2\n      mstore\n      return\n\n    auxdata: 0xa264697066735822122053ad0f675e5fa275c5c266ab37585355af3ccc189ca33b3ad8b412611c41e13864736f6c63430008180033\n}\n",
				"bytecode": {
					"linkReferences": {},
					"object": "6080806040523461001657610255908161001b8239f35b5f80fdfe6080604081815260049182361015610015575f80fd5b5f3560e01c908163178694b7146101c5575080638b41f3ab1461016a578063ab01fac014610120578063daf380bf146100dc5763e59f69c214610056575f80fd5b346100d85760207ffffffffffffffffffffffffffffffffffffffffffffffffffffffffffffffffc3601126100d857608091355f526005602052805f2073ffffffffffffffffffffffffffffffffffffffff90818154169282600183015416926003816002850154169301541692815194855260208501528301526060820152f35b5f80fd5b50346100d85760207ffffffffffffffffffffffffffffffffffffffffffffffffffffffffffffffffc3601126100d85781602092355f528252805f20549051908152f35b50346100d85760207ffffffffffffffffffffffffffffffffffffffffffffffffffffffffffffffffc3601126100d857602091355f526001825260ff815f20541690519015158152f35b50346100d85760207ffffffffffffffffffffffffffffffffffffffffffffffffffffffffffffffffc3601126100d857602091355f526003825273ffffffffffffffffffffffffffffffffffffffff815f2054169051908152f35b905082346100d85760207ffffffffffffffffffffffffffffffffffffffffffffffffffffffffffffffffc3601126100d85760209273ffffffffffffffffffffffffffffffffffffffff91355f52600284525f2054168152f3fea264697066735822122053ad0f675e5fa275c5c266ab37585355af3ccc189ca33b3ad8b412611c41e13864736f6c63430008180033",
					"opcodes": "PUSH1 0x80 DUP1 PUSH1 0x40 MSTORE CALLVALUE PUSH2 0x16 JUMPI PUSH2 0x255 SWAP1 DUP2 PUSH2 0x1B DUP3 CODECOPY RETURN JUMPDEST PUSH0 DUP1 REVERT INVALID PUSH1 0x80 PUSH1 0x40 DUP2 DUP2 MSTORE PUSH1 0x4 SWAP2 DUP3 CALLDATASIZE LT ISZERO PUSH2 0x15 JUMPI PUSH0 DUP1 REVERT JUMPDEST PUSH0 CALLDATALOAD PUSH1 0xE0 SHR SWAP1 DUP2 PUSH4 0x178694B7 EQ PUSH2 0x1C5 JUMPI POP DUP1 PUSH4 0x8B41F3AB EQ PUSH2 0x16A JUMPI DUP1 PUSH4 0xAB01FAC0 EQ PUSH2 0x120 JUMPI DUP1 PUSH4 0xDAF380BF EQ PUSH2 0xDC JUMPI PUSH4 0xE59F69C2 EQ PUSH2 0x56 JUMPI PUSH0 DUP1 REVERT JUMPDEST CALLVALUE PUSH2 0xD8 JUMPI PUSH1 0x20 PUSH32 0xFFFFFFFFFFFFFFFFFFFFFFFFFFFFFFFFFFFFFFFFFFFFFFFFFFFFFFFFFFFFFFFC CALLDATASIZE ADD SLT PUSH2 0xD8 JUMPI PUSH1 0x80 SWAP2 CALLDATALOAD PUSH0 MSTORE PUSH1 0x5 PUSH1 0x20 MSTORE DUP1 PUSH0 KECCAK256 PUSH20 0xFFFFFFFFFFFFFFFFFFFFFFFFFFFFFFFFFFFFFFFF SWAP1 DUP2 DUP2 SLOAD AND SWAP3 DUP3 PUSH1 0x1 DUP4 ADD SLOAD AND SWAP3 PUSH1 0x3 DUP2 PUSH1 0x2 DUP6 ADD SLOAD AND SWAP4 ADD SLOAD AND SWAP3 DUP2 MLOAD SWAP5 DUP6 MSTORE PUSH1 0x20 DUP6 ADD MSTORE DUP4 ADD MSTORE PUSH1 0x60 DUP3 ADD MSTORE RETURN JUMPDEST PUSH0 DUP1 REVERT JUMPDEST POP CALLVALUE PUSH2 0xD8 JUMPI PUSH1 0x20 PUSH32 0xFFFFFFFFFFFFFFFFFFFFFFFFFFFFFFFFFFFFFFFFFFFFFFFFFFFFFFFFFFFFFFFC CALLDATASIZE ADD SLT PUSH2 0xD8 JUMPI DUP2 PUSH1 0x20 SWAP3 CALLDATALOAD PUSH0 MSTORE DUP3 MSTORE DUP1 PUSH0 KECCAK256 SLOAD SWAP1 MLOAD SWAP1 DUP2 MSTORE RETURN JUMPDEST POP CALLVALUE PUSH2 0xD8 JUMPI PUSH1 0x20 PUSH32 0xFFFFFFFFFFFFFFFFFFFFFFFFFFFFFFFFFFFFFFFFFFFFFFFFFFFFFFFFFFFFFFFC CALLDATASIZE ADD SLT PUSH2 0xD8 JUMPI PUSH1 0x20 SWAP2 CALLDATALOAD PUSH0 MSTORE PUSH1 0x1 DUP3 MSTORE PUSH1 0xFF DUP2 PUSH0 KECCAK256 SLOAD AND SWAP1 MLOAD SWAP1 ISZERO ISZERO DUP2 MSTORE RETURN JUMPDEST POP CALLVALUE PUSH2 0xD8 JUMPI PUSH1 0x20 PUSH32 0xFFFFFFFFFFFFFFFFFFFFFFFFFFFFFFFFFFFFFFFFFFFFFFFFFFFFFFFFFFFFFFFC CALLDATASIZE ADD SLT PUSH2 0xD8 JUMPI PUSH1 0x20 SWAP2 CALLDATALOAD PUSH0 MSTORE PUSH1 0x3 DUP3 MSTORE PUSH20 0xFFFFFFFFFFFFFFFFFFFFFFFFFFFFFFFFFFFFFFFF DUP2 PUSH0 KECCAK256 SLOAD AND SWAP1 MLOAD SWAP1 DUP2 MSTORE RETURN JUMPDEST SWAP1 POP DUP3 CALLVALUE PUSH2 0xD8 JUMPI PUSH1 0x20 PUSH32 0xFFFFFFFFFFFFFFFFFFFFFFFFFFFFFFFFFFFFFFFFFFFFFFFFFFFFFFFFFFFFFFFC CALLDATASIZE ADD SLT PUSH2 0xD8 JUMPI PUSH1 0x20 SWAP3 PUSH20 0xFFFFFFFFFFFFFFFFFFFFFFFFFFFFFFFFFFFFFFFF SWAP2 CALLDATALOAD PUSH0 MSTORE PUSH1 0x2 DUP5 MSTORE PUSH0 KECCAK256 SLOAD AND DUP2 MSTORE RETURN INVALID LOG2 PUSH5 0x6970667358 0x22 SLT KECCAK256 MSTORE8 0xAD 0xF PUSH8 0x5E5FA275C5C266AB CALLDATACOPY PC MSTORE8 SSTORE 0xAF EXTCODECOPY 0xCC XOR SWAP13 LOG3 EXTCODESIZE GASPRICE 0xD8 0xB4 SLT PUSH2 0x1C41 0xE1 CODESIZE PUSH5 0x736F6C6343 STOP ADDMOD XOR STOP CALLER "
				},
				"gasEstimates": {
					"creation": {
						"codeDepositCost": "119400",
						"executionCost": "172",
						"totalCost": "119572"
					},
					"external": {
						"cancelL1(bytes32)": "2330",
						"chainData(uint256)": "8820",
						"editCtAmount(bytes32)": "2395",
						"provideAccount(bytes32)": "2357",
						"successCT(bytes32)": "2385"
					}
				},
				"methodIdentifiers": {
					"cancelL1(bytes32)": "178694b7",
					"chainData(uint256)": "e59f69c2",
					"editCtAmount(bytes32)": "daf380bf",
					"provideAccount(bytes32)": "8b41f3ab",
					"successCT(bytes32)": "ab01fac0"
				}
			},
			"storageLayout": {
				"storage": [
					{
						"astId": 1229,
						"contract": "contracts/L1/L2toL2CrossTradeStorageL1.sol:L2toL2CrossTradeStorageL1",
						"label": "l1StandardBridge",
						"offset": 0,
						"slot": "0",
						"type": "t_mapping(t_uint256,t_address)"
					},
					{
						"astId": 1233,
						"contract": "contracts/L1/L2toL2CrossTradeStorageL1.sol:L2toL2CrossTradeStorageL1",
						"label": "successCT",
						"offset": 0,
						"slot": "1",
						"type": "t_mapping(t_bytes32,t_bool)"
					},
					{
						"astId": 1237,
						"contract": "contracts/L1/L2toL2CrossTradeStorageL1.sol:L2toL2CrossTradeStorageL1",
						"label": "cancelL1",
						"offset": 0,
						"slot": "2",
						"type": "t_mapping(t_bytes32,t_address)"
					},
					{
						"astId": 1241,
						"contract": "contracts/L1/L2toL2CrossTradeStorageL1.sol:L2toL2CrossTradeStorageL1",
						"label": "provideAccount",
						"offset": 0,
						"slot": "3",
						"type": "t_mapping(t_bytes32,t_address)"
					},
					{
						"astId": 1245,
						"contract": "contracts/L1/L2toL2CrossTradeStorageL1.sol:L2toL2CrossTradeStorageL1",
						"label": "editCtAmount",
						"offset": 0,
						"slot": "4",
						"type": "t_mapping(t_bytes32,t_uint256)"
					},
					{
						"astId": 1250,
						"contract": "contracts/L1/L2toL2CrossTradeStorageL1.sol:L2toL2CrossTradeStorageL1",
						"label": "chainData",
						"offset": 0,
						"slot": "5",
						"type": "t_mapping(t_uint256,t_struct(ChainIdData)1225_storage)"
					}
				],
				"types": {
					"t_address": {
						"encoding": "inplace",
						"label": "address",
						"numberOfBytes": "20"
					},
					"t_bool": {
						"encoding": "inplace",
						"label": "bool",
						"numberOfBytes": "1"
					},
					"t_bytes32": {
						"encoding": "inplace",
						"label": "bytes32",
						"numberOfBytes": "32"
					},
					"t_mapping(t_bytes32,t_address)": {
						"encoding": "mapping",
						"key": "t_bytes32",
						"label": "mapping(bytes32 => address)",
						"numberOfBytes": "32",
						"value": "t_address"
					},
					"t_mapping(t_bytes32,t_bool)": {
						"encoding": "mapping",
						"key": "t_bytes32",
						"label": "mapping(bytes32 => bool)",
						"numberOfBytes": "32",
						"value": "t_bool"
					},
					"t_mapping(t_bytes32,t_uint256)": {
						"encoding": "mapping",
						"key": "t_bytes32",
						"label": "mapping(bytes32 => uint256)",
						"numberOfBytes": "32",
						"value": "t_uint256"
					},
					"t_mapping(t_uint256,t_address)": {
						"encoding": "mapping",
						"key": "t_uint256",
						"label": "mapping(uint256 => address)",
						"numberOfBytes": "32",
						"value": "t_address"
					},
					"t_mapping(t_uint256,t_struct(ChainIdData)1225_storage)": {
						"encoding": "mapping",
						"key": "t_uint256",
						"label": "mapping(uint256 => struct L2toL2CrossTradeStorageL1.ChainIdData)",
						"numberOfBytes": "32",
						"value": "t_struct(ChainIdData)1225_storage"
					},
					"t_struct(ChainIdData)1225_storage": {
						"encoding": "inplace",
						"label": "struct L2toL2CrossTradeStorageL1.ChainIdData",
						"members": [
							{
								"astId": 1218,
								"contract": "contracts/L1/L2toL2CrossTradeStorageL1.sol:L2toL2CrossTradeStorageL1",
								"label": "crossDomainMessenger",
								"offset": 0,
								"slot": "0",
								"type": "t_address"
							},
							{
								"astId": 1220,
								"contract": "contracts/L1/L2toL2CrossTradeStorageL1.sol:L2toL2CrossTradeStorageL1",
								"label": "l2CrossTradeContract",
								"offset": 0,
								"slot": "1",
								"type": "t_address"
							},
							{
								"astId": 1222,
								"contract": "contracts/L1/L2toL2CrossTradeStorageL1.sol:L2toL2CrossTradeStorageL1",
								"label": "legacyERC20ETH",
								"offset": 0,
								"slot": "2",
								"type": "t_address"
							},
							{
								"astId": 1224,
								"contract": "contracts/L1/L2toL2CrossTradeStorageL1.sol:L2toL2CrossTradeStorageL1",
								"label": "l1TON",
								"offset": 0,
								"slot": "3",
								"type": "t_address"
							}
						],
						"numberOfBytes": "128"
					},
					"t_uint256": {
						"encoding": "inplace",
						"label": "uint256",
						"numberOfBytes": "32"
					}
				}
			},
			"userdoc": {
				"kind": "user",
				"methods": {},
				"version": 1
			}
		}
	}
}