{
	"contracts/L1/IL1StandardBridge.sol": {
		"IL1StandardBridge": {
			"abi": [
				{
					"inputs": [
						{
							"internalType": "address",
							"name": "_l1Token",
							"type": "address"
						},
						{
							"internalType": "address",
							"name": "_l2Token",
							"type": "address"
						},
						{
							"internalType": "uint256",
							"name": "_amount",
							"type": "uint256"
						},
						{
							"internalType": "uint32",
							"name": "_minGasLimit",
							"type": "uint32"
						},
						{
							"internalType": "bytes",
							"name": "_extraData",
							"type": "bytes"
						}
					],
					"name": "depositERC20",
					"outputs": [],
					"stateMutability": "nonpayable",
					"type": "function"
				},
				{
					"inputs": [
						{
							"internalType": "address",
							"name": "_l1Token",
							"type": "address"
						},
						{
							"internalType": "address",
							"name": "_l2Token",
							"type": "address"
						},
						{
							"internalType": "address",
							"name": "_to",
							"type": "address"
						},
						{
							"internalType": "uint256",
							"name": "_amount",
							"type": "uint256"
						},
						{
							"internalType": "uint32",
							"name": "_minGasLimit",
							"type": "uint32"
						},
						{
							"internalType": "bytes",
							"name": "_extraData",
							"type": "bytes"
						}
					],
					"name": "depositERC20To",
					"outputs": [],
					"stateMutability": "nonpayable",
					"type": "function"
				},
				{
					"inputs": [
						{
							"internalType": "uint32",
							"name": "_minGasLimit",
							"type": "uint32"
						},
						{
							"internalType": "bytes",
							"name": "_extraData",
							"type": "bytes"
						}
					],
					"name": "depositETH",
					"outputs": [],
					"stateMutability": "payable",
					"type": "function"
				},
				{
					"inputs": [
						{
							"internalType": "address",
							"name": "_to",
							"type": "address"
						},
						{
							"internalType": "uint32",
							"name": "_minGasLimit",
							"type": "uint32"
						},
						{
							"internalType": "bytes",
							"name": "_extraData",
							"type": "bytes"
						}
					],
					"name": "depositETHTo",
					"outputs": [],
					"stateMutability": "payable",
					"type": "function"
				},
				{
					"inputs": [
						{
							"internalType": "address",
							"name": "_l1Token",
							"type": "address"
						},
						{
							"internalType": "address",
							"name": "_l2Token",
							"type": "address"
						},
						{
							"internalType": "address",
							"name": "_from",
							"type": "address"
						},
						{
							"internalType": "address",
							"name": "_to",
							"type": "address"
						},
						{
							"internalType": "uint256",
							"name": "_amount",
							"type": "uint256"
						},
						{
							"internalType": "bytes",
							"name": "_extraData",
							"type": "bytes"
						}
					],
					"name": "finalizeERC20Withdrawal",
					"outputs": [],
					"stateMutability": "nonpayable",
					"type": "function"
				},
				{
					"inputs": [
						{
							"internalType": "address",
							"name": "_from",
							"type": "address"
						},
						{
							"internalType": "address",
							"name": "_to",
							"type": "address"
						},
						{
							"internalType": "uint256",
							"name": "_amount",
							"type": "uint256"
						},
						{
							"internalType": "bytes",
							"name": "_extraData",
							"type": "bytes"
						}
					],
					"name": "finalizeETHWithdrawal",
					"outputs": [],
					"stateMutability": "payable",
					"type": "function"
				},
				{
					"inputs": [],
					"name": "l2TokenBridge",
					"outputs": [
						{
							"internalType": "address",
							"name": "",
							"type": "address"
						}
					],
					"stateMutability": "view",
					"type": "function"
				}
			],
			"devdoc": {
				"kind": "dev",
				"methods": {},
				"version": 1
			},
			"evm": {
				"assembly": "    /* \"contracts/L1/IL1StandardBridge.sol\":58:1264  contract IL1StandardBridge {... */\n  0x80\n  dup1\n  0x40\n  mstore\n  jumpi(tag_1, callvalue)\n  dataSize(sub_0)\n  swap1\n  dup2\n  dataOffset(sub_0)\n  dup3\n  codecopy\n  return\ntag_1:\n  0x00\n  dup1\n  revert\nstop\n\nsub_0: assembly {\n        /* \"contracts/L1/IL1StandardBridge.sol\":58:1264  contract IL1StandardBridge {... */\n      0x80\n      dup1\n      0x40\n      mstore\n      0x04\n      swap1\n      dup2\n      calldatasize\n      lt\n      iszero\n      tag_5\n      jumpi\n      0x00\n      dup1\n      revert\n    tag_5:\n      shr(0xe0, calldataload(0x00))\n      swap1\n      dup2\n      0x1532ec34\n      eq\n      tag_7\n      jumpi\n      dup2\n      0x58a997f6\n      eq\n      tag_9\n      jumpi\n      dup2\n      0x838b2520\n      eq\n      tag_11\n      jumpi\n      dup2\n      0x91c49bf8\n      eq\n      tag_13\n      jumpi\n      pop\n      dup1\n      0x9a2ac6d5\n      eq\n      tag_15\n      jumpi\n      dup1\n      0xa9f9e675\n      eq\n      tag_17\n      jumpi\n      0xb1a1a882\n      eq\n      tag_19\n      jumpi\n      0x00\n      dup1\n      revert\n    tag_19:\n      jumpi(tag_25, slt(add(calldatasize, 0xfffffffffffffffffffffffffffffffffffffffffffffffffffffffffffffffc), 0x40))\n      dup1\n      calldataload\n      0xffffffff\n      dup2\n      and\n      sub\n      tag_25\n      jumpi\n      calldataload(0x24)\n      swap1\n      0xffffffffffffffff\n      dup3\n      gt\n      tag_25\n      jumpi\n      tag_27\n      swap2\n      calldatasize\n      swap2\n      add\n      tag_4\n      jump\t// in\n    tag_27:\n      stop\n    tag_25:\n      0x00\n      dup1\n      revert\n    tag_17:\n      pop\n      jumpi(tag_25, callvalue)\n      jumpi(tag_25, slt(add(calldatasize, 0xfffffffffffffffffffffffffffffffffffffffffffffffffffffffffffffffc), 0xc0))\n      tag_32\n      tag_1\n      jump\t// in\n    tag_32:\n      pop\n      tag_33\n      tag_2\n      jump\t// in\n    tag_33:\n      pop\n      tag_34\n      tag_3\n      jump\t// in\n    tag_34:\n      pop\n      calldataload(0x64)\n      0xffffffffffffffffffffffffffffffffffffffff\n      dup2\n      and\n      sub\n      tag_25\n      jumpi\n      calldataload(0xa4)\n      swap1\n      0xffffffffffffffff\n      dup3\n      gt\n      tag_25\n      jumpi\n      tag_27\n      swap2\n      calldatasize\n      swap2\n      add\n      tag_4\n      jump\t// in\n    tag_15:\n      pop\n      jumpi(tag_25, slt(add(calldatasize, 0xfffffffffffffffffffffffffffffffffffffffffffffffffffffffffffffffc), 0x60))\n      tag_42\n      tag_1\n      jump\t// in\n    tag_42:\n      pop\n      calldataload(0x24)\n      0xffffffff\n      dup2\n      and\n      sub\n      tag_25\n      jumpi\n      calldataload(0x44)\n      swap1\n      0xffffffffffffffff\n      dup3\n      gt\n      tag_25\n      jumpi\n      tag_27\n      swap2\n      calldatasize\n      swap2\n      add\n      tag_4\n      jump\t// in\n    tag_13:\n      jumpi(tag_25, callvalue)\n      jumpi(tag_25, slt(add(calldatasize, 0xfffffffffffffffffffffffffffffffffffffffffffffffffffffffffffffffc), 0x00))\n      dup1\n      0x00\n      0x20\n      swap3\n      mstore\n      return\n    tag_11:\n      dup3\n      jumpi(tag_25, callvalue)\n      jumpi(tag_25, slt(add(calldatasize, 0xfffffffffffffffffffffffffffffffffffffffffffffffffffffffffffffffc), 0xc0))\n      tag_56\n      tag_1\n      jump\t// in\n    tag_56:\n      pop\n      tag_57\n      tag_2\n      jump\t// in\n    tag_57:\n      pop\n      tag_58\n      tag_3\n      jump\t// in\n    tag_58:\n      pop\n      calldataload(0x84)\n      0xffffffff\n      dup2\n      and\n      sub\n      tag_25\n      jumpi\n      calldataload(0xa4)\n      swap1\n      0xffffffffffffffff\n      dup3\n      gt\n      tag_25\n      jumpi\n      tag_27\n      swap2\n      calldatasize\n      swap2\n      add\n      tag_4\n      jump\t// in\n    tag_9:\n      dup3\n      jumpi(tag_25, callvalue)\n      jumpi(tag_25, slt(add(calldatasize, 0xfffffffffffffffffffffffffffffffffffffffffffffffffffffffffffffffc), 0xa0))\n      tag_68\n      tag_1\n      jump\t// in\n    tag_68:\n      pop\n      tag_69\n      tag_2\n      jump\t// in\n    tag_69:\n      pop\n      calldataload(0x64)\n      0xffffffff\n      dup2\n      and\n      sub\n      tag_25\n      jumpi\n      calldataload(0x84)\n      swap1\n      0xffffffffffffffff\n      dup3\n      gt\n      tag_25\n      jumpi\n      tag_27\n      swap2\n      calldatasize\n      swap2\n      add\n      tag_4\n      jump\t// in\n    tag_7:\n      dup3\n      jumpi(tag_25, slt(add(calldatasize, 0xfffffffffffffffffffffffffffffffffffffffffffffffffffffffffffffffc), 0x80))\n      tag_77\n      tag_1\n      jump\t// in\n    tag_77:\n      pop\n      tag_78\n      tag_2\n      jump\t// in\n    tag_78:\n      pop\n      calldataload(0x64)\n      swap1\n      0xffffffffffffffff\n      dup3\n      gt\n      tag_25\n      jumpi\n      tag_27\n      swap2\n      calldatasize\n      swap2\n      add\n      tag_4\n      jump\t// in\n    tag_1:\n      calldataload(0x04)\n      swap1\n      0xffffffffffffffffffffffffffffffffffffffff\n      dup3\n      and\n      dup3\n      sub\n      tag_25\n      jumpi\n      jump\t// out\n    tag_2:\n      calldataload(0x24)\n      swap1\n      0xffffffffffffffffffffffffffffffffffffffff\n      dup3\n      and\n      dup3\n      sub\n      tag_25\n      jumpi\n      jump\t// out\n    tag_3:\n      calldataload(0x44)\n      swap1\n      0xffffffffffffffffffffffffffffffffffffffff\n      dup3\n      and\n      dup3\n      sub\n      tag_25\n      jumpi\n      jump\t// out\n    tag_4:\n      swap2\n      dup2\n      0x1f\n      dup5\n      add\n      slt\n      iszero\n      tag_25\n      jumpi\n      dup3\n      calldataload\n      swap2\n      0xffffffffffffffff\n      dup4\n      gt\n      tag_25\n      jumpi\n      0x20\n      dup4\n      dup2\n      dup7\n      add\n      swap6\n      add\n      add\n      gt\n      tag_25\n      jumpi\n      jump\t// out\n\n    auxdata: 0xa2646970667358221220dee63b6d97bcd30de78fb268e44d2a6a0e1b0c5212ee5750eee760e8cdeeca0a64736f6c63430008180033\n}\n",
				"bytecode": {
					"linkReferences": {},
					"object": "60808060405234610016576103fb908161001b8239f35b5f80fdfe60808060405260049081361015610014575f80fd5b5f3560e01c9081631532ec34146102d257816358a997f614610262578163838b2520146101e957816391c49bf8146101b3575080639a2ac6d514610151578063a9f9e675146100c85763b1a1a8821461006b575f80fd5b60407ffffffffffffffffffffffffffffffffffffffffffffffffffffffffffffffffc3601126100c457803563ffffffff8116036100c4576024359067ffffffffffffffff82116100c4576100c291369101610397565b005b5f80fd5b50346100c45760c07ffffffffffffffffffffffffffffffffffffffffffffffffffffffffffffffffc3601126100c45761010061032e565b50610109610351565b50610112610374565b5060643573ffffffffffffffffffffffffffffffffffffffff8116036100c45760a4359067ffffffffffffffff82116100c4576100c291369101610397565b5060607ffffffffffffffffffffffffffffffffffffffffffffffffffffffffffffffffc3601126100c45761018461032e565b5060243563ffffffff8116036100c4576044359067ffffffffffffffff82116100c4576100c291369101610397565b346100c4575f7ffffffffffffffffffffffffffffffffffffffffffffffffffffffffffffffffc3601126100c457805f60209252f35b82346100c45760c07ffffffffffffffffffffffffffffffffffffffffffffffffffffffffffffffffc3601126100c45761022161032e565b5061022a610351565b50610233610374565b5060843563ffffffff8116036100c45760a4359067ffffffffffffffff82116100c4576100c291369101610397565b82346100c45760a07ffffffffffffffffffffffffffffffffffffffffffffffffffffffffffffffffc3601126100c45761029a61032e565b506102a3610351565b5060643563ffffffff8116036100c4576084359067ffffffffffffffff82116100c4576100c291369101610397565b8260807ffffffffffffffffffffffffffffffffffffffffffffffffffffffffffffffffc3601126100c45761030561032e565b5061030e610351565b506064359067ffffffffffffffff82116100c4576100c291369101610397565b6004359073ffffffffffffffffffffffffffffffffffffffff821682036100c457565b6024359073ffffffffffffffffffffffffffffffffffffffff821682036100c457565b6044359073ffffffffffffffffffffffffffffffffffffffff821682036100c457565b9181601f840112156100c45782359167ffffffffffffffff83116100c457602083818601950101116100c45756fea2646970667358221220dee63b6d97bcd30de78fb268e44d2a6a0e1b0c5212ee5750eee760e8cdeeca0a64736f6c63430008180033",
					"opcodes": "PUSH1 0x80 DUP1 PUSH1 0x40 MSTORE CALLVALUE PUSH2 0x16 JUMPI PUSH2 0x3FB SWAP1 DUP2 PUSH2 0x1B DUP3 CODECOPY RETURN JUMPDEST PUSH0 DUP1 REVERT INVALID PUSH1 0x80 DUP1 PUSH1 0x40 MSTORE PUSH1 0x4 SWAP1 DUP2 CALLDATASIZE LT ISZERO PUSH2 0x14 JUMPI PUSH0 DUP1 REVERT JUMPDEST PUSH0 CALLDATALOAD PUSH1 0xE0 SHR SWAP1 DUP2 PUSH4 0x1532EC34 EQ PUSH2 0x2D2 JUMPI DUP2 PUSH4 0x58A997F6 EQ PUSH2 0x262 JUMPI DUP2 PUSH4 0x838B2520 EQ PUSH2 0x1E9 JUMPI DUP2 PUSH4 0x91C49BF8 EQ PUSH2 0x1B3 JUMPI POP DUP1 PUSH4 0x9A2AC6D5 EQ PUSH2 0x151 JUMPI DUP1 PUSH4 0xA9F9E675 EQ PUSH2 0xC8 JUMPI PUSH4 0xB1A1A882 EQ PUSH2 0x6B JUMPI PUSH0 DUP1 REVERT JUMPDEST PUSH1 0x40 PUSH32 0xFFFFFFFFFFFFFFFFFFFFFFFFFFFFFFFFFFFFFFFFFFFFFFFFFFFFFFFFFFFFFFFC CALLDATASIZE ADD SLT PUSH2 0xC4 JUMPI DUP1 CALLDATALOAD PUSH4 0xFFFFFFFF DUP2 AND SUB PUSH2 0xC4 JUMPI PUSH1 0x24 CALLDATALOAD SWAP1 PUSH8 0xFFFFFFFFFFFFFFFF DUP3 GT PUSH2 0xC4 JUMPI PUSH2 0xC2 SWAP2 CALLDATASIZE SWAP2 ADD PUSH2 0x397 JUMP JUMPDEST STOP JUMPDEST PUSH0 DUP1 REVERT JUMPDEST POP CALLVALUE PUSH2 0xC4 JUMPI PUSH1 0xC0 PUSH32 0xFFFFFFFFFFFFFFFFFFFFFFFFFFFFFFFFFFFFFFFFFFFFFFFFFFFFFFFFFFFFFFFC CALLDATASIZE ADD SLT PUSH2 0xC4 JUMPI PUSH2 0x100 PUSH2 0x32E JUMP JUMPDEST POP PUSH2 0x109 PUSH2 0x351 JUMP JUMPDEST POP PUSH2 0x112 PUSH2 0x374 JUMP JUMPDEST POP PUSH1 0x64 CALLDATALOAD PUSH20 0xFFFFFFFFFFFFFFFFFFFFFFFFFFFFFFFFFFFFFFFF DUP2 AND SUB PUSH2 0xC4 JUMPI PUSH1 0xA4 CALLDATALOAD SWAP1 PUSH8 0xFFFFFFFFFFFFFFFF DUP3 GT PUSH2 0xC4 JUMPI PUSH2 0xC2 SWAP2 CALLDATASIZE SWAP2 ADD PUSH2 0x397 JUMP JUMPDEST POP PUSH1 0x60 PUSH32 0xFFFFFFFFFFFFFFFFFFFFFFFFFFFFFFFFFFFFFFFFFFFFFFFFFFFFFFFFFFFFFFFC CALLDATASIZE ADD SLT PUSH2 0xC4 JUMPI PUSH2 0x184 PUSH2 0x32E JUMP JUMPDEST POP PUSH1 0x24 CALLDATALOAD PUSH4 0xFFFFFFFF DUP2 AND SUB PUSH2 0xC4 JUMPI PUSH1 0x44 CALLDATALOAD SWAP1 PUSH8 0xFFFFFFFFFFFFFFFF DUP3 GT PUSH2 0xC4 JUMPI PUSH2 0xC2 SWAP2 CALLDATASIZE SWAP2 ADD PUSH2 0x397 JUMP JUMPDEST CALLVALUE PUSH2 0xC4 JUMPI PUSH0 PUSH32 0xFFFFFFFFFFFFFFFFFFFFFFFFFFFFFFFFFFFFFFFFFFFFFFFFFFFFFFFFFFFFFFFC CALLDATASIZE ADD SLT PUSH2 0xC4 JUMPI DUP1 PUSH0 PUSH1 0x20 SWAP3 MSTORE RETURN JUMPDEST DUP3 CALLVALUE PUSH2 0xC4 JUMPI PUSH1 0xC0 PUSH32 0xFFFFFFFFFFFFFFFFFFFFFFFFFFFFFFFFFFFFFFFFFFFFFFFFFFFFFFFFFFFFFFFC CALLDATASIZE ADD SLT PUSH2 0xC4 JUMPI PUSH2 0x221 PUSH2 0x32E JUMP JUMPDEST POP PUSH2 0x22A PUSH2 0x351 JUMP JUMPDEST POP PUSH2 0x233 PUSH2 0x374 JUMP JUMPDEST POP PUSH1 0x84 CALLDATALOAD PUSH4 0xFFFFFFFF DUP2 AND SUB PUSH2 0xC4 JUMPI PUSH1 0xA4 CALLDATALOAD SWAP1 PUSH8 0xFFFFFFFFFFFFFFFF DUP3 GT PUSH2 0xC4 JUMPI PUSH2 0xC2 SWAP2 CALLDATASIZE SWAP2 ADD PUSH2 0x397 JUMP JUMPDEST DUP3 CALLVALUE PUSH2 0xC4 JUMPI PUSH1 0xA0 PUSH32 0xFFFFFFFFFFFFFFFFFFFFFFFFFFFFFFFFFFFFFFFFFFFFFFFFFFFFFFFFFFFFFFFC CALLDATASIZE ADD SLT PUSH2 0xC4 JUMPI PUSH2 0x29A PUSH2 0x32E JUMP JUMPDEST POP PUSH2 0x2A3 PUSH2 0x351 JUMP JUMPDEST POP PUSH1 0x64 CALLDATALOAD PUSH4 0xFFFFFFFF DUP2 AND SUB PUSH2 0xC4 JUMPI PUSH1 0x84 CALLDATALOAD SWAP1 PUSH8 0xFFFFFFFFFFFFFFFF DUP3 GT PUSH2 0xC4 JUMPI PUSH2 0xC2 SWAP2 CALLDATASIZE SWAP2 ADD PUSH2 0x397 JUMP JUMPDEST DUP3 PUSH1 0x80 PUSH32 0xFFFFFFFFFFFFFFFFFFFFFFFFFFFFFFFFFFFFFFFFFFFFFFFFFFFFFFFFFFFFFFFC CALLDATASIZE ADD SLT PUSH2 0xC4 JUMPI PUSH2 0x305 PUSH2 0x32E JUMP JUMPDEST POP PUSH2 0x30E PUSH2 0x351 JUMP JUMPDEST POP PUSH1 0x64 CALLDATALOAD SWAP1 PUSH8 0xFFFFFFFFFFFFFFFF DUP3 GT PUSH2 0xC4 JUMPI PUSH2 0xC2 SWAP2 CALLDATASIZE SWAP2 ADD PUSH2 0x397 JUMP JUMPDEST PUSH1 0x4 CALLDATALOAD SWAP1 PUSH20 0xFFFFFFFFFFFFFFFFFFFFFFFFFFFFFFFFFFFFFFFF DUP3 AND DUP3 SUB PUSH2 0xC4 JUMPI JUMP JUMPDEST PUSH1 0x24 CALLDATALOAD SWAP1 PUSH20 0xFFFFFFFFFFFFFFFFFFFFFFFFFFFFFFFFFFFFFFFF DUP3 AND DUP3 SUB PUSH2 0xC4 JUMPI JUMP JUMPDEST PUSH1 0x44 CALLDATALOAD SWAP1 PUSH20 0xFFFFFFFFFFFFFFFFFFFFFFFFFFFFFFFFFFFFFFFF DUP3 AND DUP3 SUB PUSH2 0xC4 JUMPI JUMP JUMPDEST SWAP2 DUP2 PUSH1 0x1F DUP5 ADD SLT ISZERO PUSH2 0xC4 JUMPI DUP3 CALLDATALOAD SWAP2 PUSH8 0xFFFFFFFFFFFFFFFF DUP4 GT PUSH2 0xC4 JUMPI PUSH1 0x20 DUP4 DUP2 DUP7 ADD SWAP6 ADD ADD GT PUSH2 0xC4 JUMPI JUMP INVALID LOG2 PUSH5 0x6970667358 0x22 SLT KECCAK256 0xDE 0xE6 EXTCODESIZE PUSH14 0x97BCD30DE78FB268E44D2A6A0E1B 0xC MSTORE SLT 0xEE JUMPI POP 0xEE 0xE7 PUSH1 0xE8 0xCD 0xEE 0xCA EXP PUSH5 0x736F6C6343 STOP ADDMOD XOR STOP CALLER "
				},
				"gasEstimates": {
					"creation": {
						"codeDepositCost": "203800",
						"executionCost": "251",
						"totalCost": "204051"
					},
					"external": {
						"depositERC20(address,address,uint256,uint32,bytes)": "484",
						"depositERC20To(address,address,address,uint256,uint32,bytes)": "569",
						"depositETH(uint32,bytes)": "449",
						"depositETHTo(address,uint32,bytes)": "473",
						"finalizeERC20Withdrawal(address,address,address,address,uint256,bytes)": "636",
						"finalizeETHWithdrawal(address,address,uint256,bytes)": "416",
						"l2TokenBridge()": "216"
					}
				},
				"methodIdentifiers": {
					"depositERC20(address,address,uint256,uint32,bytes)": "58a997f6",
					"depositERC20To(address,address,address,uint256,uint32,bytes)": "838b2520",
					"depositETH(uint32,bytes)": "b1a1a882",
					"depositETHTo(address,uint32,bytes)": "9a2ac6d5",
					"finalizeERC20Withdrawal(address,address,address,address,uint256,bytes)": "a9f9e675",
					"finalizeETHWithdrawal(address,address,uint256,bytes)": "1532ec34",
					"l2TokenBridge()": "91c49bf8"
				}
			},
			"storageLayout": {
				"storage": [],
				"types": null
			},
			"userdoc": {
				"kind": "user",
				"methods": {},
				"version": 1
			}
		}
	}
}