{
	"contracts/L1/L2toL2CrossTradeProxyL1.sol": {
		"L2toL2CrossTradeProxyL1": {
			"abi": [
				{
					"inputs": [],
					"name": "AccessControlBadConfirmation",
					"type": "error"
				},
				{
					"inputs": [
						{
							"internalType": "address",
							"name": "account",
							"type": "address"
						},
						{
							"internalType": "bytes32",
							"name": "neededRole",
							"type": "bytes32"
						}
					],
					"name": "AccessControlUnauthorizedAccount",
					"type": "error"
				},
				{
					"anonymous": false,
					"inputs": [
						{
							"indexed": true,
							"internalType": "bytes32",
							"name": "role",
							"type": "bytes32"
						},
						{
							"indexed": true,
							"internalType": "bytes32",
							"name": "previousAdminRole",
							"type": "bytes32"
						},
						{
							"indexed": true,
							"internalType": "bytes32",
							"name": "newAdminRole",
							"type": "bytes32"
						}
					],
					"name": "RoleAdminChanged",
					"type": "event"
				},
				{
					"anonymous": false,
					"inputs": [
						{
							"indexed": true,
							"internalType": "bytes32",
							"name": "role",
							"type": "bytes32"
						},
						{
							"indexed": true,
							"internalType": "address",
							"name": "account",
							"type": "address"
						},
						{
							"indexed": true,
							"internalType": "address",
							"name": "sender",
							"type": "address"
						}
					],
					"name": "RoleGranted",
					"type": "event"
				},
				{
					"anonymous": false,
					"inputs": [
						{
							"indexed": true,
							"internalType": "bytes32",
							"name": "role",
							"type": "bytes32"
						},
						{
							"indexed": true,
							"internalType": "address",
							"name": "account",
							"type": "address"
						},
						{
							"indexed": true,
							"internalType": "address",
							"name": "sender",
							"type": "address"
						}
					],
					"name": "RoleRevoked",
					"type": "event"
				},
				{
					"anonymous": false,
					"inputs": [
						{
							"indexed": true,
							"internalType": "address",
							"name": "impl",
							"type": "address"
						},
						{
							"indexed": false,
							"internalType": "bool",
							"name": "alive",
							"type": "bool"
						}
					],
					"name": "SetAliveImplementation",
					"type": "event"
				},
				{
					"anonymous": false,
					"inputs": [
						{
							"indexed": true,
							"internalType": "bytes4",
							"name": "selector",
							"type": "bytes4"
						},
						{
							"indexed": true,
							"internalType": "address",
							"name": "impl",
							"type": "address"
						}
					],
					"name": "SetSelectorImplementation",
					"type": "event"
				},
				{
					"anonymous": false,
					"inputs": [
						{
							"indexed": true,
							"internalType": "address",
							"name": "implementation",
							"type": "address"
						}
					],
					"name": "Upgraded",
					"type": "event"
				},
				{
					"stateMutability": "payable",
					"type": "fallback"
				},
				{
					"inputs": [],
					"name": "ADMIN_ROLE",
					"outputs": [
						{
							"internalType": "bytes32",
							"name": "",
							"type": "bytes32"
						}
					],
					"stateMutability": "view",
					"type": "function"
				},
				{
					"inputs": [],
					"name": "DEFAULT_ADMIN_ROLE",
					"outputs": [
						{
							"internalType": "bytes32",
							"name": "",
							"type": "bytes32"
						}
					],
					"stateMutability": "view",
					"type": "function"
				},
				{
					"inputs": [],
					"name": "POLICY_ROLE",
					"outputs": [
						{
							"internalType": "bytes32",
							"name": "",
							"type": "bytes32"
						}
					],
					"stateMutability": "view",
					"type": "function"
				},
				{
					"inputs": [
						{
							"internalType": "address",
							"name": "account",
							"type": "address"
						}
					],
					"name": "addAdmin",
					"outputs": [],
					"stateMutability": "nonpayable",
					"type": "function"
				},
				{
					"inputs": [
						{
							"internalType": "address",
							"name": "",
							"type": "address"
						}
					],
					"name": "aliveImplementation",
					"outputs": [
						{
							"internalType": "bool",
							"name": "",
							"type": "bool"
						}
					],
					"stateMutability": "view",
					"type": "function"
				},
				{
					"inputs": [
						{
							"internalType": "bytes32",
							"name": "",
							"type": "bytes32"
						}
					],
					"name": "cancelL1",
					"outputs": [
						{
							"internalType": "address",
							"name": "",
							"type": "address"
						}
					],
					"stateMutability": "view",
					"type": "function"
				},
				{
					"inputs": [
						{
							"internalType": "uint256",
							"name": "",
							"type": "uint256"
						}
					],
					"name": "chainData",
					"outputs": [
						{
							"internalType": "address",
							"name": "crossDomainMessenger",
							"type": "address"
						},
						{
							"internalType": "address",
							"name": "l2CrossTradeContract",
							"type": "address"
						},
						{
							"internalType": "address",
							"name": "legacyERC20ETH",
							"type": "address"
						},
						{
							"internalType": "address",
							"name": "l1TON",
							"type": "address"
						}
					],
					"stateMutability": "view",
					"type": "function"
				},
				{
					"inputs": [
						{
							"internalType": "bytes32",
							"name": "",
							"type": "bytes32"
						}
					],
					"name": "editCtAmount",
					"outputs": [
						{
							"internalType": "uint256",
							"name": "",
							"type": "uint256"
						}
					],
					"stateMutability": "view",
					"type": "function"
				},
				{
					"inputs": [
						{
							"internalType": "bytes32",
							"name": "role",
							"type": "bytes32"
						}
					],
					"name": "getRoleAdmin",
					"outputs": [
						{
							"internalType": "bytes32",
							"name": "",
							"type": "bytes32"
						}
					],
					"stateMutability": "view",
					"type": "function"
				},
				{
					"inputs": [
						{
							"internalType": "bytes4",
							"name": "_selector",
							"type": "bytes4"
						}
					],
					"name": "getSelectorImplementation2",
					"outputs": [
						{
							"internalType": "address",
							"name": "impl",
							"type": "address"
						}
					],
					"stateMutability": "view",
					"type": "function"
				},
				{
					"inputs": [
						{
							"internalType": "bytes32",
							"name": "role",
							"type": "bytes32"
						},
						{
							"internalType": "address",
							"name": "account",
							"type": "address"
						}
					],
					"name": "grantRole",
					"outputs": [],
					"stateMutability": "nonpayable",
					"type": "function"
				},
				{
					"inputs": [
						{
							"internalType": "bytes32",
							"name": "role",
							"type": "bytes32"
						},
						{
							"internalType": "address",
							"name": "account",
							"type": "address"
						}
					],
					"name": "hasRole",
					"outputs": [
						{
							"internalType": "bool",
							"name": "",
							"type": "bool"
						}
					],
					"stateMutability": "view",
					"type": "function"
				},
				{
					"inputs": [],
					"name": "implementation",
					"outputs": [
						{
							"internalType": "address",
							"name": "",
							"type": "address"
						}
					],
					"stateMutability": "view",
					"type": "function"
				},
				{
					"inputs": [
						{
							"internalType": "uint256",
							"name": "_index",
							"type": "uint256"
						}
					],
					"name": "implementation2",
					"outputs": [
						{
							"internalType": "address",
							"name": "",
							"type": "address"
						}
					],
					"stateMutability": "view",
					"type": "function"
				},
				{
					"inputs": [
						{
							"internalType": "address",
							"name": "account",
							"type": "address"
						}
					],
					"name": "isAdmin",
					"outputs": [
						{
							"internalType": "bool",
							"name": "",
							"type": "bool"
						}
					],
					"stateMutability": "view",
					"type": "function"
				},
				{
					"inputs": [],
					"name": "pauseProxy",
					"outputs": [
						{
							"internalType": "bool",
							"name": "",
							"type": "bool"
						}
					],
					"stateMutability": "view",
					"type": "function"
				},
				{
					"inputs": [
						{
							"internalType": "bytes32",
							"name": "",
							"type": "bytes32"
						}
					],
					"name": "provideAccount",
					"outputs": [
						{
							"internalType": "address",
							"name": "",
							"type": "address"
						}
					],
					"stateMutability": "view",
					"type": "function"
				},
				{
					"inputs": [
						{
							"internalType": "uint256",
							"name": "",
							"type": "uint256"
						}
					],
					"name": "proxyImplementation",
					"outputs": [
						{
							"internalType": "address",
							"name": "",
							"type": "address"
						}
					],
					"stateMutability": "view",
					"type": "function"
				},
				{
					"inputs": [
						{
							"internalType": "address",
							"name": "account",
							"type": "address"
						}
					],
					"name": "removeAdmin",
					"outputs": [],
					"stateMutability": "nonpayable",
					"type": "function"
				},
				{
					"inputs": [
						{
							"internalType": "bytes32",
							"name": "role",
							"type": "bytes32"
						},
						{
							"internalType": "address",
							"name": "callerConfirmation",
							"type": "address"
						}
					],
					"name": "renounceRole",
					"outputs": [],
					"stateMutability": "nonpayable",
					"type": "function"
				},
				{
					"inputs": [
						{
							"internalType": "bytes32",
							"name": "role",
							"type": "bytes32"
						},
						{
							"internalType": "address",
							"name": "account",
							"type": "address"
						}
					],
					"name": "revokeRole",
					"outputs": [],
					"stateMutability": "nonpayable",
					"type": "function"
				},
				{
					"inputs": [
						{
							"internalType": "bytes4",
							"name": "",
							"type": "bytes4"
						}
					],
					"name": "selectorImplementation",
					"outputs": [
						{
							"internalType": "address",
							"name": "",
							"type": "address"
						}
					],
					"stateMutability": "view",
					"type": "function"
				},
				{
					"inputs": [
						{
							"internalType": "address",
							"name": "newImplementation",
							"type": "address"
						},
						{
							"internalType": "bool",
							"name": "_alive",
							"type": "bool"
						}
					],
					"name": "setAliveImplementation2",
					"outputs": [],
					"stateMutability": "nonpayable",
					"type": "function"
				},
				{
					"inputs": [
						{
							"internalType": "address",
							"name": "_crossDomainMessenger",
							"type": "address"
						},
						{
							"internalType": "address",
							"name": "_l2CrossTrade",
							"type": "address"
						},
						{
							"internalType": "address",
							"name": "_legacyERC20",
							"type": "address"
						},
						{
							"internalType": "address",
							"name": "_l1legacyERC20",
							"type": "address"
						},
						{
							"internalType": "uint256",
							"name": "_l2chainId",
							"type": "uint256"
						}
					],
					"name": "setChainInfo",
					"outputs": [],
					"stateMutability": "nonpayable",
					"type": "function"
				},
				{
					"inputs": [
						{
							"internalType": "address",
							"name": "newImplementation",
							"type": "address"
						},
						{
							"internalType": "uint256",
							"name": "_index",
							"type": "uint256"
						},
						{
							"internalType": "bool",
							"name": "_alive",
							"type": "bool"
						}
					],
					"name": "setImplementation2",
					"outputs": [],
					"stateMutability": "nonpayable",
					"type": "function"
				},
				{
					"inputs": [
						{
							"internalType": "uint256",
							"name": "chainId",
							"type": "uint256"
						},
						{
							"internalType": "address",
							"name": "l1StandardBridgeAddress",
							"type": "address"
						}
					],
					"name": "setL1StandardBridge",
					"outputs": [],
					"stateMutability": "nonpayable",
					"type": "function"
				},
				{
					"inputs": [
						{
							"internalType": "bool",
							"name": "_pause",
							"type": "bool"
						}
					],
					"name": "setProxyPause",
					"outputs": [],
					"stateMutability": "nonpayable",
					"type": "function"
				},
				{
					"inputs": [
						{
							"internalType": "bytes4[]",
							"name": "_selectors",
							"type": "bytes4[]"
						},
						{
							"internalType": "address",
							"name": "_imp",
							"type": "address"
						}
					],
					"name": "setSelectorImplementations2",
					"outputs": [],
					"stateMutability": "nonpayable",
					"type": "function"
				},
				{
					"inputs": [
						{
							"internalType": "bytes32",
							"name": "",
							"type": "bytes32"
						}
					],
					"name": "successCT",
					"outputs": [
						{
							"internalType": "bool",
							"name": "",
							"type": "bool"
						}
					],
					"stateMutability": "view",
					"type": "function"
				},
				{
					"inputs": [
						{
							"internalType": "bytes4",
							"name": "interfaceId",
							"type": "bytes4"
						}
					],
					"name": "supportsInterface",
					"outputs": [
						{
							"internalType": "bool",
							"name": "",
							"type": "bool"
						}
					],
					"stateMutability": "view",
					"type": "function"
				},
				{
					"inputs": [
						{
							"internalType": "address",
							"name": "newAdmin",
							"type": "address"
						}
					],
					"name": "transferAdmin",
					"outputs": [],
					"stateMutability": "nonpayable",
					"type": "function"
				},
				{
					"inputs": [
						{
							"internalType": "address",
							"name": "impl",
							"type": "address"
						}
					],
					"name": "upgradeTo",
					"outputs": [],
					"stateMutability": "nonpayable",
					"type": "function"
				},
				{
					"stateMutability": "payable",
					"type": "receive"
				}
			],
			"devdoc": {
				"errors": {
					"AccessControlBadConfirmation()": [
						{
							"details": "The caller of a function is not the expected one. NOTE: Don't confuse with {AccessControlUnauthorizedAccount}."
						}
					],
					"AccessControlUnauthorizedAccount(address,bytes32)": [
						{
							"details": "The `account` is missing a role."
						}
					]
				},
				"events": {
					"RoleAdminChanged(bytes32,bytes32,bytes32)": {
						"details": "Emitted when `newAdminRole` is set as ``role``'s admin role, replacing `previousAdminRole` `DEFAULT_ADMIN_ROLE` is the starting admin for all roles, despite {RoleAdminChanged} not being emitted signaling this."
					},
					"RoleGranted(bytes32,address,address)": {
						"details": "Emitted when `account` is granted `role`. `sender` is the account that originated the contract call, an admin role bearer except when using {AccessControl-_setupRole}."
					},
					"RoleRevoked(bytes32,address,address)": {
						"details": "Emitted when `account` is revoked `role`. `sender` is the account that originated the contract call:   - if using `revokeRole`, it is the admin role bearer   - if using `renounceRole`, it is the role bearer (i.e. `account`)"
					}
				},
				"kind": "dev",
				"methods": {
					"addAdmin(address)": {
						"details": "add admin",
						"params": {
							"account": "address to add"
						}
					},
					"getRoleAdmin(bytes32)": {
						"details": "Returns the admin role that controls `role`. See {grantRole} and {revokeRole}. To change a role's admin, use {_setRoleAdmin}."
					},
					"getSelectorImplementation2(bytes4)": {
						"details": "view implementation address of selector of function",
						"params": {
							"_selector": "selector of function"
						},
						"returns": {
							"impl": "address of the implementation"
						}
					},
					"grantRole(bytes32,address)": {
						"details": "Grants `role` to `account`. If `account` had not been already granted `role`, emits a {RoleGranted} event. Requirements: - the caller must have ``role``'s admin role. May emit a {RoleGranted} event."
					},
					"hasRole(bytes32,address)": {
						"details": "Returns `true` if `account` has been granted `role`."
					},
					"implementation()": {
						"details": "returns the implementation"
					},
					"implementation2(uint256)": {
						"details": "view implementation address of the proxy[index]",
						"params": {
							"_index": "index of proxy"
						},
						"returns": {
							"_0": "address of the implementation"
						}
					},
					"isAdmin(address)": {
						"details": "whether admin",
						"params": {
							"account": "address to check"
						}
					},
					"removeAdmin(address)": {
						"details": "remove admin",
						"params": {
							"account": "address to remove"
						}
					},
					"renounceRole(bytes32,address)": {
						"details": "Revokes `role` from the calling account. Roles are often managed via {grantRole} and {revokeRole}: this function's purpose is to provide a mechanism for accounts to lose their privileges if they are compromised (such as when a trusted device is misplaced). If the calling account had been revoked `role`, emits a {RoleRevoked} event. Requirements: - the caller must be `callerConfirmation`. May emit a {RoleRevoked} event."
					},
					"revokeRole(bytes32,address)": {
						"details": "Revokes `role` from `account`. If `account` had been granted `role`, emits a {RoleRevoked} event. Requirements: - the caller must have ``role``'s admin role. May emit a {RoleRevoked} event."
					},
					"setAliveImplementation2(address,bool)": {
						"details": "set alive status of implementation",
						"params": {
							"_alive": "alive status",
							"newImplementation": "Address of the new implementation."
						}
					},
					"setChainInfo(address,address,address,address,uint256)": {
						"params": {
							"_crossDomainMessenger": "crossDomainMessenger address for chainId",
							"_l1legacyERC20": "l1legacyERC20 address for chainId",
							"_l2CrossTrade": "L2CrossTradeProxy address for chainId",
							"_l2chainId": "store chainId",
							"_legacyERC20": "legacyERC20 address for chainId"
						}
					},
					"setImplementation2(address,uint256,bool)": {
						"details": "set the implementation address and status of the proxy[index]",
						"params": {
							"_alive": "_alive",
							"_index": "index",
							"newImplementation": "Address of the new implementation."
						}
					},
					"setProxyPause(bool)": {
						"params": {
							"_pause": "true:pause or false:resume"
						}
					},
					"setSelectorImplementations2(bytes4[],address)": {
						"details": "set selectors of Implementation",
						"params": {
							"_imp": "implementation address",
							"_selectors": "being added selectors"
						}
					},
					"supportsInterface(bytes4)": {
						"details": "See {IERC165-supportsInterface}."
					},
					"transferAdmin(address)": {
						"details": "transfer admin",
						"params": {
							"newAdmin": "new admin address"
						}
					},
					"upgradeTo(address)": {
						"params": {
							"impl": "New implementation contract address"
						}
					}
				},
				"version": 1
			},
			"evm": {
				"assembly": "    /* \"contracts/L1/L2toL2CrossTradeProxyL1.sol\":185:1306  contract L2toL2CrossTradeProxyL1 is Proxy, L2toL2CrossTradeStorageL1 {... */\n  mstore(0x40, 0x80)\n  callvalue\n  dup1\n  iszero\n  tag_1\n  jumpi\n  0x00\n  dup1\n  revert\ntag_1:\n  pop\n    /* \"contracts/proxy/Proxy.sol\":548:585  _setRoleAdmin(ADMIN_ROLE, ADMIN_ROLE) */\n  tag_4\n  0x00\n  dup1\n  mload\n  0x20\n  data_a29c3f0504a76c686875ea2f0fc314af702d3407223f14a34325f35a1858bd3b\n  dup4\n  codecopy\n  dup2\n  mload\n  swap2\n  mstore\n    /* \"contracts/common/AccessRoleCommon.sol\":127:145  keccak256(\"ADMIN\") */\n  dup1\n    /* \"contracts/proxy/Proxy.sol\":548:561  _setRoleAdmin */\n  tag_5\n    /* \"contracts/proxy/Proxy.sol\":548:585  _setRoleAdmin(ADMIN_ROLE, ADMIN_ROLE) */\n  jump\t// in\ntag_4:\n    /* \"contracts/proxy/Proxy.sol\":595:629  _grantRole(ADMIN_ROLE, msg.sender) */\n  tag_6\n  0x00\n  dup1\n  mload\n  0x20\n  data_a29c3f0504a76c686875ea2f0fc314af702d3407223f14a34325f35a1858bd3b\n  dup4\n  codecopy\n  dup2\n  mload\n  swap2\n  mstore\n    /* \"contracts/proxy/Proxy.sol\":618:628  msg.sender */\n  caller\n    /* \"contracts/proxy/Proxy.sol\":595:605  _grantRole */\n  tag_7\n    /* \"contracts/proxy/Proxy.sol\":595:629  _grantRole(ADMIN_ROLE, msg.sender) */\n  jump\t// in\ntag_6:\n  pop\n    /* \"contracts/L1/L2toL2CrossTradeProxyL1.sol\":185:1306  contract L2toL2CrossTradeProxyL1 is Proxy, L2toL2CrossTradeStorageL1 {... */\n  jump(tag_8)\n    /* \"@openzeppelin/contracts/access/AccessControl.sol\":5698:5945  function _setRoleAdmin(bytes32 role, bytes32 adminRole) internal virtual {... */\ntag_5:\n    /* \"@openzeppelin/contracts/access/AccessControl.sol\":5781:5806  bytes32 previousAdminRole */\n  0x00\n    /* \"@openzeppelin/contracts/access/AccessControl.sol\":3901:3913  _roles[role] */\n  dup3\n  dup2\n  mstore\n    /* \"@openzeppelin/contracts/access/AccessControl.sol\":3901:3907  _roles */\n  0x04\n    /* \"@openzeppelin/contracts/access/AccessControl.sol\":3901:3913  _roles[role] */\n  0x20\n  mstore\n  0x40\n  dup1\n  dup3\n  keccak256\n    /* \"@openzeppelin/contracts/access/AccessControl.sol\":3901:3923  _roles[role].adminRole */\n  0x01\n  add\n  dup1\n  sload\n    /* \"@openzeppelin/contracts/access/AccessControl.sol\":5837:5871  _roles[role].adminRole = adminRole */\n  swap1\n  dup5\n  swap1\n  sstore\n    /* \"@openzeppelin/contracts/access/AccessControl.sol\":5886:5938  RoleAdminChanged(role, previousAdminRole, adminRole) */\n  swap1\n  mload\n    /* \"@openzeppelin/contracts/access/AccessControl.sol\":3901:3923  _roles[role].adminRole */\n  swap1\n  swap2\n    /* \"@openzeppelin/contracts/access/AccessControl.sol\":5837:5871  _roles[role].adminRole = adminRole */\n  dup4\n  swap2\n    /* \"@openzeppelin/contracts/access/AccessControl.sol\":3901:3923  _roles[role].adminRole */\n  dup4\n  swap2\n    /* \"@openzeppelin/contracts/access/AccessControl.sol\":3901:3913  _roles[role] */\n  dup7\n  swap2\n    /* \"@openzeppelin/contracts/access/AccessControl.sol\":5886:5938  RoleAdminChanged(role, previousAdminRole, adminRole) */\n  0xbd79b86ffe0ab8e8776151514217cd7cacd52c909f66475c3af44e129f0b00ff\n  swap2\n    /* \"@openzeppelin/contracts/access/AccessControl.sol\":5781:5806  bytes32 previousAdminRole */\n  swap1\n    /* \"@openzeppelin/contracts/access/AccessControl.sol\":5886:5938  RoleAdminChanged(role, previousAdminRole, adminRole) */\n  log4\n    /* \"@openzeppelin/contracts/access/AccessControl.sol\":5771:5945  {... */\n  pop\n    /* \"@openzeppelin/contracts/access/AccessControl.sol\":5698:5945  function _setRoleAdmin(bytes32 role, bytes32 adminRole) internal virtual {... */\n  pop\n  pop\n  jump\t// out\n    /* \"@openzeppelin/contracts/access/AccessControl.sol\":6179:6495  function _grantRole(bytes32 role, address account) internal virtual returns (bool) {... */\ntag_7:\n    /* \"@openzeppelin/contracts/access/AccessControl.sol\":6256:6260  bool */\n  0x00\n    /* \"@openzeppelin/contracts/access/AccessControl.sol\":2954:2966  _roles[role] */\n  dup3\n  dup2\n  mstore\n    /* \"@openzeppelin/contracts/access/AccessControl.sol\":2954:2960  _roles */\n  0x04\n    /* \"@openzeppelin/contracts/access/AccessControl.sol\":2954:2966  _roles[role] */\n  0x20\n  swap1\n  dup2\n  mstore\n  0x40\n  dup1\n  dup4\n  keccak256\n  sub(shl(0xa0, 0x01), 0x01)\n    /* \"@openzeppelin/contracts/access/AccessControl.sol\":2954:2983  _roles[role].hasRole[account] */\n  dup6\n  and\n  dup5\n  mstore\n  swap1\n  swap2\n  mstore\n  dup2\n  keccak256\n  sload\n  0xff\n  and\n    /* \"@openzeppelin/contracts/access/AccessControl.sol\":6272:6489  if (!hasRole(role, account)) {... */\n  tag_15\n  jumpi\n    /* \"@openzeppelin/contracts/access/AccessControl.sol\":6315:6327  _roles[role] */\n  0x00\n  dup4\n  dup2\n  mstore\n    /* \"@openzeppelin/contracts/access/AccessControl.sol\":6315:6321  _roles */\n  0x04\n    /* \"@openzeppelin/contracts/access/AccessControl.sol\":6315:6327  _roles[role] */\n  0x20\n  swap1\n  dup2\n  mstore\n  0x40\n  dup1\n  dup4\n  keccak256\n  sub(shl(0xa0, 0x01), 0x01)\n    /* \"@openzeppelin/contracts/access/AccessControl.sol\":6315:6344  _roles[role].hasRole[account] */\n  dup7\n  and\n  dup5\n  mstore\n  swap1\n  swap2\n  mstore\n  swap1\n  keccak256\n    /* \"@openzeppelin/contracts/access/AccessControl.sol\":6315:6351  _roles[role].hasRole[account] = true */\n  dup1\n  sload\n  not(0xff)\n  and\n    /* \"@openzeppelin/contracts/access/AccessControl.sol\":6347:6351  true */\n  0x01\n    /* \"@openzeppelin/contracts/access/AccessControl.sol\":6315:6351  _roles[role].hasRole[account] = true */\n  or\n  swap1\n  sstore\n    /* \"@openzeppelin/contracts/access/AccessControl.sol\":6397:6409  _msgSender() */\n  tag_16\n    /* \"@openzeppelin/contracts/utils/Context.sol\":735:745  msg.sender */\n  caller\n  swap1\n    /* \"@openzeppelin/contracts/utils/Context.sol\":656:752  function _msgSender() internal view virtual returns (address) {... */\n  jump\n    /* \"@openzeppelin/contracts/access/AccessControl.sol\":6397:6409  _msgSender() */\ntag_16:\n  sub(shl(0xa0, 0x01), 0x01)\n    /* \"@openzeppelin/contracts/access/AccessControl.sol\":6370:6410  RoleGranted(role, account, _msgSender()) */\n  and\n    /* \"@openzeppelin/contracts/access/AccessControl.sol\":6388:6395  account */\n  dup3\n  sub(shl(0xa0, 0x01), 0x01)\n    /* \"@openzeppelin/contracts/access/AccessControl.sol\":6370:6410  RoleGranted(role, account, _msgSender()) */\n  and\n    /* \"@openzeppelin/contracts/access/AccessControl.sol\":6382:6386  role */\n  dup5\n    /* \"@openzeppelin/contracts/access/AccessControl.sol\":6370:6410  RoleGranted(role, account, _msgSender()) */\n  0x2f8788117e7eff1d82e926ec794901d17c78024a50270940304540a733656f0d\n  mload(0x40)\n  mload(0x40)\n  dup1\n  swap2\n  sub\n  swap1\n  log4\n  pop\n    /* \"@openzeppelin/contracts/access/AccessControl.sol\":6431:6435  true */\n  0x01\n    /* \"@openzeppelin/contracts/access/AccessControl.sol\":6424:6435  return true */\n  jump(tag_18)\n    /* \"@openzeppelin/contracts/access/AccessControl.sol\":6272:6489  if (!hasRole(role, account)) {... */\ntag_15:\n  pop\n    /* \"@openzeppelin/contracts/access/AccessControl.sol\":6473:6478  false */\n  0x00\n    /* \"@openzeppelin/contracts/access/AccessControl.sol\":6272:6489  if (!hasRole(role, account)) {... */\ntag_18:\n    /* \"@openzeppelin/contracts/access/AccessControl.sol\":6179:6495  function _grantRole(bytes32 role, address account) internal virtual returns (bool) {... */\n  swap3\n  swap2\n  pop\n  pop\n  jump\t// out\n    /* \"contracts/L1/L2toL2CrossTradeProxyL1.sol\":185:1306  contract L2toL2CrossTradeProxyL1 is Proxy, L2toL2CrossTradeStorageL1 {... */\ntag_8:\n  dataSize(sub_0)\n  dup1\n  dataOffset(sub_0)\n  0x00\n  codecopy\n  0x00\n  return\nstop\ndata_a29c3f0504a76c686875ea2f0fc314af702d3407223f14a34325f35a1858bd3b df8b4c520ffe197c5343c6f5aec59570151ef9a492f2c624fd45ddde6135ec42\n\nsub_0: assembly {\n        /* \"contracts/L1/L2toL2CrossTradeProxyL1.sol\":185:1306  contract L2toL2CrossTradeProxyL1 is Proxy, L2toL2CrossTradeStorageL1 {... */\n      mstore(0x40, 0x80)\n      jumpi(tag_1, lt(calldatasize, 0x04))\n      shr(0xe0, calldataload(0x00))\n      dup1\n      0x70480275\n      gt\n      tag_35\n      jumpi\n      dup1\n      0x91d14854\n      gt\n      tag_36\n      jumpi\n      dup1\n      0xb911135f\n      gt\n      tag_37\n      jumpi\n      dup1\n      0xb911135f\n      eq\n      tag_31\n      jumpi\n      dup1\n      0xd547741f\n      eq\n      tag_32\n      jumpi\n      dup1\n      0xdaf380bf\n      eq\n      tag_33\n      jumpi\n      dup1\n      0xe59f69c2\n      eq\n      tag_34\n      jumpi\n      jump(tag_2)\n    tag_37:\n      dup1\n      0x91d14854\n      eq\n      tag_27\n      jumpi\n      dup1\n      0xa217fddf\n      eq\n      tag_28\n      jumpi\n      dup1\n      0xab01fac0\n      eq\n      tag_29\n      jumpi\n      dup1\n      0xad084c9e\n      eq\n      tag_30\n      jumpi\n      jump(tag_2)\n    tag_36:\n      dup1\n      0x7cd5f663\n      gt\n      tag_38\n      jumpi\n      dup1\n      0x7cd5f663\n      eq\n      tag_23\n      jumpi\n      dup1\n      0x8b41f3ab\n      eq\n      tag_24\n      jumpi\n      dup1\n      0x8b8f4a65\n      eq\n      tag_25\n      jumpi\n      dup1\n      0x8d4fdb40\n      eq\n      tag_26\n      jumpi\n      jump(tag_2)\n    tag_38:\n      dup1\n      0x70480275\n      eq\n      tag_19\n      jumpi\n      dup1\n      0x75829def\n      eq\n      tag_20\n      jumpi\n      dup1\n      0x75b238fc\n      eq\n      tag_21\n      jumpi\n      dup1\n      0x7cb00d25\n      eq\n      tag_22\n      jumpi\n      jump(tag_2)\n    tag_35:\n      dup1\n      0x3659cfe6\n      gt\n      tag_39\n      jumpi\n      dup1\n      0x5c60da1b\n      gt\n      tag_40\n      jumpi\n      dup1\n      0x5c60da1b\n      eq\n      tag_15\n      jumpi\n      dup1\n      0x5cc797d8\n      eq\n      tag_16\n      jumpi\n      dup1\n      0x63a8fd89\n      eq\n      tag_17\n      jumpi\n      dup1\n      0x6ecfae00\n      eq\n      tag_18\n      jumpi\n      jump(tag_2)\n    tag_40:\n      dup1\n      0x3659cfe6\n      eq\n      tag_11\n      jumpi\n      dup1\n      0x4a5df50f\n      eq\n      tag_12\n      jumpi\n      dup1\n      0x50d2a276\n      eq\n      tag_13\n      jumpi\n      dup1\n      0x550d01a3\n      eq\n      tag_14\n      jumpi\n      jump(tag_2)\n    tag_39:\n      dup1\n      0x248a9ca3\n      gt\n      tag_41\n      jumpi\n      dup1\n      0x248a9ca3\n      eq\n      tag_7\n      jumpi\n      dup1\n      0x24d7806c\n      eq\n      tag_8\n      jumpi\n      dup1\n      0x2f2ff15d\n      eq\n      tag_9\n      jumpi\n      dup1\n      0x36568abe\n      eq\n      tag_10\n      jumpi\n      jump(tag_2)\n    tag_41:\n      dup1\n      0x01ffc9a7\n      eq\n      tag_3\n      jumpi\n      dup1\n      0x1785f53c\n      eq\n      tag_4\n      jumpi\n      dup1\n      0x178694b7\n      eq\n      tag_5\n      jumpi\n      dup1\n      0x22985246\n      eq\n      tag_6\n      jumpi\n      jump(tag_2)\n    tag_1:\n      jumpi(tag_2, calldatasize)\n      stop\n    tag_2:\n        /* \"contracts/proxy/Proxy.sol\":3404:3415  _fallback() */\n      tag_46\n        /* \"contracts/proxy/Proxy.sol\":3404:3413  _fallback */\n      tag_47\n        /* \"contracts/proxy/Proxy.sol\":3404:3415  _fallback() */\n      jump\t// in\n    tag_46:\n        /* \"contracts/L1/L2toL2CrossTradeProxyL1.sol\":185:1306  contract L2toL2CrossTradeProxyL1 is Proxy, L2toL2CrossTradeStorageL1 {... */\n      stop\n        /* \"@openzeppelin/contracts/access/AccessControl.sol\":2565:2767  function supportsInterface(bytes4 interfaceId) public view virtual override returns (bool) {... */\n    tag_3:\n      callvalue\n      dup1\n      iszero\n      tag_48\n      jumpi\n      0x00\n      dup1\n      revert\n    tag_48:\n      pop\n      tag_49\n      tag_50\n      calldatasize\n      0x04\n      tag_51\n      jump\t// in\n    tag_50:\n      tag_52\n      jump\t// in\n    tag_49:\n      mload(0x40)\n        /* \"#utility.yul\":470:484   */\n      swap1\n      iszero\n        /* \"#utility.yul\":463:485   */\n      iszero\n        /* \"#utility.yul\":445:486   */\n      dup2\n      mstore\n        /* \"#utility.yul\":433:435   */\n      0x20\n        /* \"#utility.yul\":418:436   */\n      add\n        /* \"@openzeppelin/contracts/access/AccessControl.sol\":2565:2767  function supportsInterface(bytes4 interfaceId) public view virtual override returns (bool) {... */\n    tag_53:\n      mload(0x40)\n      dup1\n      swap2\n      sub\n      swap1\n      return\n        /* \"contracts/common/AccessibleCommon.sol\":582:695  function removeAdmin(address account) public virtual onlyOwner {... */\n    tag_4:\n      callvalue\n      dup1\n      iszero\n      tag_55\n      jumpi\n      0x00\n      dup1\n      revert\n    tag_55:\n      pop\n      tag_46\n      tag_57\n      calldatasize\n      0x04\n      tag_58\n      jump\t// in\n    tag_57:\n      tag_59\n      jump\t// in\n        /* \"contracts/L1/L2toL2CrossTradeStorageL1.sol\":621:664  mapping(bytes32 => address) public cancelL1 */\n    tag_5:\n      callvalue\n      dup1\n      iszero\n      tag_60\n      jumpi\n      0x00\n      dup1\n      revert\n    tag_60:\n      pop\n      tag_61\n      tag_62\n      calldatasize\n      0x04\n      tag_63\n      jump\t// in\n    tag_62:\n      mstore(0x20, 0x07)\n      0x00\n      swap1\n      dup2\n      mstore\n      0x40\n      swap1\n      keccak256\n      sload\n      sub(shl(0xa0, 0x01), 0x01)\n      and\n      dup2\n      jump\n    tag_61:\n      mload(0x40)\n      sub(shl(0xa0, 0x01), 0x01)\n        /* \"#utility.yul\":1215:1247   */\n      swap1\n      swap2\n      and\n        /* \"#utility.yul\":1197:1248   */\n      dup2\n      mstore\n        /* \"#utility.yul\":1185:1187   */\n      0x20\n        /* \"#utility.yul\":1170:1188   */\n      add\n        /* \"contracts/L1/L2toL2CrossTradeStorageL1.sol\":621:664  mapping(bytes32 => address) public cancelL1 */\n      tag_53\n        /* \"#utility.yul\":1051:1254   */\n      jump\n        /* \"contracts/common/AccessRoleCommon.sol\":151:213  bytes32 public constant POLICY_ROLE = keccak256(\"POLICY_ROLE\") */\n    tag_6:\n      callvalue\n      dup1\n      iszero\n      tag_67\n      jumpi\n      0x00\n      dup1\n      revert\n    tag_67:\n      pop\n      tag_68\n        /* \"contracts/common/AccessRoleCommon.sol\":189:213  keccak256(\"POLICY_ROLE\") */\n      0xfb5864e8ff833c3cb2d2d08505e82ff02a43554c74a35d4f5a64e85261278311\n        /* \"contracts/common/AccessRoleCommon.sol\":151:213  bytes32 public constant POLICY_ROLE = keccak256(\"POLICY_ROLE\") */\n      dup2\n      jump\n    tag_68:\n      mload(0x40)\n        /* \"#utility.yul\":1405:1430   */\n      swap1\n      dup2\n      mstore\n        /* \"#utility.yul\":1393:1395   */\n      0x20\n        /* \"#utility.yul\":1378:1396   */\n      add\n        /* \"contracts/common/AccessRoleCommon.sol\":151:213  bytes32 public constant POLICY_ROLE = keccak256(\"POLICY_ROLE\") */\n      tag_53\n        /* \"#utility.yul\":1259:1436   */\n      jump\n        /* \"@openzeppelin/contracts/access/AccessControl.sol\":3810:3930  function getRoleAdmin(bytes32 role) public view virtual returns (bytes32) {... */\n    tag_7:\n      callvalue\n      dup1\n      iszero\n      tag_72\n      jumpi\n      0x00\n      dup1\n      revert\n    tag_72:\n      pop\n      tag_68\n      tag_74\n      calldatasize\n      0x04\n      tag_63\n      jump\t// in\n    tag_74:\n        /* \"@openzeppelin/contracts/access/AccessControl.sol\":3875:3882  bytes32 */\n      0x00\n        /* \"@openzeppelin/contracts/access/AccessControl.sol\":3901:3913  _roles[role] */\n      swap1\n      dup2\n      mstore\n        /* \"@openzeppelin/contracts/access/AccessControl.sol\":3901:3907  _roles */\n      0x04\n        /* \"@openzeppelin/contracts/access/AccessControl.sol\":3901:3913  _roles[role] */\n      0x20\n      mstore\n      0x40\n      swap1\n      keccak256\n        /* \"@openzeppelin/contracts/access/AccessControl.sol\":3901:3923  _roles[role].adminRole */\n      0x01\n      add\n      sload\n      swap1\n        /* \"@openzeppelin/contracts/access/AccessControl.sol\":3810:3930  function getRoleAdmin(bytes32 role) public view virtual returns (bytes32) {... */\n      jump\n        /* \"contracts/common/AccessibleCommon.sol\":1144:1265  function isAdmin(address account) public view virtual returns (bool) {... */\n    tag_8:\n      callvalue\n      dup1\n      iszero\n      tag_77\n      jumpi\n      0x00\n      dup1\n      revert\n    tag_77:\n      pop\n      tag_49\n      tag_79\n      calldatasize\n      0x04\n      tag_58\n      jump\t// in\n    tag_79:\n      tag_80\n      jump\t// in\n        /* \"@openzeppelin/contracts/access/AccessControl.sol\":4226:4362  function grantRole(bytes32 role, address account) public virtual onlyRole(getRoleAdmin(role)) {... */\n    tag_9:\n      callvalue\n      dup1\n      iszero\n      tag_82\n      jumpi\n      0x00\n      dup1\n      revert\n    tag_82:\n      pop\n      tag_46\n      tag_84\n      calldatasize\n      0x04\n      tag_85\n      jump\t// in\n    tag_84:\n      tag_86\n      jump\t// in\n        /* \"@openzeppelin/contracts/access/AccessControl.sol\":5328:5573  function renounceRole(bytes32 role, address callerConfirmation) public virtual {... */\n    tag_10:\n      callvalue\n      dup1\n      iszero\n      tag_87\n      jumpi\n      0x00\n      dup1\n      revert\n    tag_87:\n      pop\n      tag_46\n      tag_89\n      calldatasize\n      0x04\n      tag_85\n      jump\t// in\n    tag_89:\n      tag_90\n      jump\t// in\n        /* \"contracts/proxy/Proxy.sol\":916:1195  function upgradeTo(address impl) external onlyOwner {... */\n    tag_11:\n      callvalue\n      dup1\n      iszero\n      tag_91\n      jumpi\n      0x00\n      dup1\n      revert\n    tag_91:\n      pop\n      tag_46\n      tag_93\n      calldatasize\n      0x04\n      tag_58\n      jump\t// in\n    tag_93:\n      tag_94\n      jump\t// in\n        /* \"contracts/proxy/Proxy.sol\":1705:2362  function setSelectorImplementations2(... */\n    tag_12:\n      callvalue\n      dup1\n      iszero\n      tag_95\n      jumpi\n      0x00\n      dup1\n      revert\n    tag_95:\n      pop\n      tag_46\n      tag_97\n      calldatasize\n      0x04\n      tag_98\n      jump\t// in\n    tag_97:\n      tag_99\n      jump\t// in\n        /* \"contracts/proxy/ProxyStorage.sol\":239:295  mapping(bytes4 => address) public selectorImplementation */\n    tag_13:\n      callvalue\n      dup1\n      iszero\n      tag_100\n      jumpi\n      0x00\n      dup1\n      revert\n    tag_100:\n      pop\n      tag_61\n      tag_102\n      calldatasize\n      0x04\n      tag_51\n      jump\t// in\n    tag_102:\n      mstore(0x20, 0x03)\n      0x00\n      swap1\n      dup2\n      mstore\n      0x40\n      swap1\n      keccak256\n      sload\n      sub(shl(0xa0, 0x01), 0x01)\n      and\n      dup2\n      jump\n        /* \"contracts/proxy/ProxyStorage.sol\":182:233  mapping(address => bool) public aliveImplementation */\n    tag_14:\n      callvalue\n      dup1\n      iszero\n      tag_105\n      jumpi\n      0x00\n      dup1\n      revert\n    tag_105:\n      pop\n      tag_49\n      tag_107\n      calldatasize\n      0x04\n      tag_58\n      jump\t// in\n    tag_107:\n      mstore(0x20, 0x02)\n      0x00\n      swap1\n      dup2\n      mstore\n      0x40\n      swap1\n      keccak256\n      sload\n      0xff\n      and\n      dup2\n      jump\n        /* \"contracts/proxy/Proxy.sol\":2494:2595  function implementation() external view returns (address) {... */\n    tag_15:\n      callvalue\n      dup1\n      iszero\n      tag_110\n      jumpi\n      0x00\n      dup1\n      revert\n    tag_110:\n      pop\n        /* \"contracts/proxy/Proxy.sol\":2543:2550  address */\n      0x00\n        /* \"contracts/proxy/Proxy.sol\":3744:3771  proxyImplementation[_index] */\n      dup1\n      mstore\n        /* \"contracts/proxy/Proxy.sol\":3744:3763  proxyImplementation */\n      0x01\n        /* \"contracts/proxy/Proxy.sol\":3744:3771  proxyImplementation[_index] */\n      0x20\n      mstore\n      0x00\n      dup1\n      mload\n      0x20\n      data_0eb5be412f275a18f6e4d622aee4ff40b21467c926224771b782d4c095d1444b\n      dup4\n      codecopy\n      dup2\n      mload\n      swap2\n      mstore\n      sload\n      sub(shl(0xa0, 0x01), 0x01)\n      and\n        /* \"contracts/proxy/Proxy.sol\":2494:2595  function implementation() external view returns (address) {... */\n      jump(tag_61)\n        /* \"contracts/proxy/Proxy.sol\":1487:1666  function setAliveImplementation2(address newImplementation, bool _alive)... */\n    tag_16:\n      callvalue\n      dup1\n      iszero\n      tag_114\n      jumpi\n      0x00\n      dup1\n      revert\n    tag_114:\n      pop\n      tag_46\n      tag_116\n      calldatasize\n      0x04\n      tag_117\n      jump\t// in\n    tag_116:\n      tag_118\n      jump\t// in\n        /* \"contracts/proxy/ProxyStorage.sol\":93:115  bool public pauseProxy */\n    tag_17:\n      callvalue\n      dup1\n      iszero\n      tag_119\n      jumpi\n      0x00\n      dup1\n      revert\n    tag_119:\n      pop\n      sload(0x00)\n      tag_49\n      swap1\n      0xff\n      and\n      dup2\n      jump\n        /* \"contracts/L1/L2toL2CrossTradeProxyL1.sol\":1094:1302  function setL1StandardBridge(... */\n    tag_18:\n      callvalue\n      dup1\n      iszero\n      tag_123\n      jumpi\n      0x00\n      dup1\n      revert\n    tag_123:\n      pop\n      tag_46\n      tag_125\n      calldatasize\n      0x04\n      tag_85\n      jump\t// in\n    tag_125:\n      tag_127\n      jump\t// in\n        /* \"contracts/common/AccessibleCommon.sol\":401:508  function addAdmin(address account) public virtual onlyOwner {... */\n    tag_19:\n      callvalue\n      dup1\n      iszero\n      tag_128\n      jumpi\n      0x00\n      dup1\n      revert\n    tag_128:\n      pop\n      tag_46\n      tag_130\n      calldatasize\n      0x04\n      tag_58\n      jump\t// in\n    tag_130:\n      tag_131\n      jump\t// in\n        /* \"contracts/common/AccessibleCommon.sol\":771:1070  function transferAdmin(address newAdmin) external virtual onlyOwner {... */\n    tag_20:\n      callvalue\n      dup1\n      iszero\n      tag_132\n      jumpi\n      0x00\n      dup1\n      revert\n    tag_132:\n      pop\n      tag_46\n      tag_134\n      calldatasize\n      0x04\n      tag_58\n      jump\t// in\n    tag_134:\n      tag_135\n      jump\t// in\n        /* \"contracts/common/AccessRoleCommon.sol\":90:145  bytes32 public constant ADMIN_ROLE = keccak256(\"ADMIN\") */\n    tag_21:\n      callvalue\n      dup1\n      iszero\n      tag_136\n      jumpi\n      0x00\n      dup1\n      revert\n    tag_136:\n      pop\n      tag_68\n      0x00\n      dup1\n      mload\n      0x20\n      data_a29c3f0504a76c686875ea2f0fc314af702d3407223f14a34325f35a1858bd3b\n      dup4\n      codecopy\n      dup2\n      mload\n      swap2\n      mstore\n      dup2\n      jump\n        /* \"contracts/proxy/Proxy.sol\":719:810  function setProxyPause(bool _pause) external onlyOwner {... */\n    tag_22:\n      callvalue\n      dup1\n      iszero\n      tag_140\n      jumpi\n      0x00\n      dup1\n      revert\n    tag_140:\n      pop\n      tag_46\n      tag_142\n      calldatasize\n      0x04\n      tag_143\n      jump\t// in\n    tag_142:\n      tag_144\n      jump\t// in\n        /* \"contracts/proxy/Proxy.sol\":1235:1448  function setImplementation2(... */\n    tag_23:\n      callvalue\n      dup1\n      iszero\n      tag_145\n      jumpi\n      0x00\n      dup1\n      revert\n    tag_145:\n      pop\n      tag_46\n      tag_147\n      calldatasize\n      0x04\n      tag_148\n      jump\t// in\n    tag_147:\n      tag_149\n      jump\t// in\n        /* \"contracts/L1/L2toL2CrossTradeStorageL1.sol\":749:798  mapping(bytes32 => address) public provideAccount */\n    tag_24:\n      callvalue\n      dup1\n      iszero\n      tag_150\n      jumpi\n      0x00\n      dup1\n      revert\n    tag_150:\n      pop\n      tag_61\n      tag_152\n      calldatasize\n      0x04\n      tag_63\n      jump\t// in\n    tag_152:\n      mstore(0x20, 0x08)\n      0x00\n      swap1\n      dup2\n      mstore\n      0x40\n      swap1\n      keccak256\n      sload\n      sub(shl(0xa0, 0x01), 0x01)\n      and\n      dup2\n      jump\n        /* \"contracts/proxy/Proxy.sol\":2634:2764  function implementation2(uint256 _index) external override view returns (address) {... */\n    tag_25:\n      callvalue\n      dup1\n      iszero\n      tag_155\n      jumpi\n      0x00\n      dup1\n      revert\n    tag_155:\n      pop\n      tag_61\n      tag_157\n      calldatasize\n      0x04\n      tag_63\n      jump\t// in\n    tag_157:\n      tag_159\n      jump\t// in\n        /* \"contracts/proxy/Proxy.sol\":2804:3223  function getSelectorImplementation2(bytes4 _selector)... */\n    tag_26:\n      callvalue\n      dup1\n      iszero\n      tag_161\n      jumpi\n      0x00\n      dup1\n      revert\n    tag_161:\n      pop\n      tag_61\n      tag_163\n      calldatasize\n      0x04\n      tag_51\n      jump\t// in\n    tag_163:\n      tag_164\n      jump\t// in\n        /* \"@openzeppelin/contracts/access/AccessControl.sol\":2854:2990  function hasRole(bytes32 role, address account) public view virtual returns (bool) {... */\n    tag_27:\n      callvalue\n      dup1\n      iszero\n      tag_166\n      jumpi\n      0x00\n      dup1\n      revert\n    tag_166:\n      pop\n      tag_49\n      tag_168\n      calldatasize\n      0x04\n      tag_85\n      jump\t// in\n    tag_168:\n      tag_169\n      jump\t// in\n        /* \"@openzeppelin/contracts/access/AccessControl.sol\":2187:2236  bytes32 public constant DEFAULT_ADMIN_ROLE = 0x00 */\n    tag_28:\n      callvalue\n      dup1\n      iszero\n      tag_171\n      jumpi\n      0x00\n      dup1\n      revert\n    tag_171:\n      pop\n      tag_68\n        /* \"@openzeppelin/contracts/access/AccessControl.sol\":2232:2236  0x00 */\n      0x00\n        /* \"@openzeppelin/contracts/access/AccessControl.sol\":2187:2236  bytes32 public constant DEFAULT_ADMIN_ROLE = 0x00 */\n      dup2\n      jump\n        /* \"contracts/L1/L2toL2CrossTradeStorageL1.sol\":495:536  mapping(bytes32 => bool) public successCT */\n    tag_29:\n      callvalue\n      dup1\n      iszero\n      tag_175\n      jumpi\n      0x00\n      dup1\n      revert\n    tag_175:\n      pop\n      tag_49\n      tag_177\n      calldatasize\n      0x04\n      tag_63\n      jump\t// in\n    tag_177:\n      mstore(0x20, 0x06)\n      0x00\n      swap1\n      dup2\n      mstore\n      0x40\n      swap1\n      keccak256\n      sload\n      0xff\n      and\n      dup2\n      jump\n        /* \"contracts/L1/L2toL2CrossTradeProxyL1.sol\":614:1088  function setChainInfo(... */\n    tag_30:\n      callvalue\n      dup1\n      iszero\n      tag_180\n      jumpi\n      0x00\n      dup1\n      revert\n    tag_180:\n      pop\n      tag_46\n      tag_182\n      calldatasize\n      0x04\n      tag_183\n      jump\t// in\n    tag_182:\n      tag_184\n      jump\t// in\n        /* \"contracts/proxy/ProxyStorage.sol\":122:176  mapping(uint256 => address) public proxyImplementation */\n    tag_31:\n      callvalue\n      dup1\n      iszero\n      tag_185\n      jumpi\n      0x00\n      dup1\n      revert\n    tag_185:\n      pop\n      tag_61\n      tag_187\n      calldatasize\n      0x04\n      tag_63\n      jump\t// in\n    tag_187:\n      mstore(0x20, 0x01)\n      0x00\n      swap1\n      dup2\n      mstore\n      0x40\n      swap1\n      keccak256\n      sload\n      sub(shl(0xa0, 0x01), 0x01)\n      and\n      dup2\n      jump\n        /* \"@openzeppelin/contracts/access/AccessControl.sol\":4642:4780  function revokeRole(bytes32 role, address account) public virtual onlyRole(getRoleAdmin(role)) {... */\n    tag_32:\n      callvalue\n      dup1\n      iszero\n      tag_190\n      jumpi\n      0x00\n      dup1\n      revert\n    tag_190:\n      pop\n      tag_46\n      tag_192\n      calldatasize\n      0x04\n      tag_85\n      jump\t// in\n    tag_192:\n      tag_193\n      jump\t// in\n        /* \"contracts/L1/L2toL2CrossTradeStorageL1.sol\":906:953  mapping(bytes32 => uint256) public editCtAmount */\n    tag_33:\n      callvalue\n      dup1\n      iszero\n      tag_194\n      jumpi\n      0x00\n      dup1\n      revert\n    tag_194:\n      pop\n      tag_68\n      tag_196\n      calldatasize\n      0x04\n      tag_63\n      jump\t// in\n    tag_196:\n      mstore(0x20, 0x09)\n      0x00\n      swap1\n      dup2\n      mstore\n      0x40\n      swap1\n      keccak256\n      sload\n      dup2\n      jump\n        /* \"contracts/L1/L2toL2CrossTradeStorageL1.sol\":981:1029  mapping(uint256 => ChainIdData) public chainData */\n    tag_34:\n      callvalue\n      dup1\n      iszero\n      tag_200\n      jumpi\n      0x00\n      dup1\n      revert\n    tag_200:\n      pop\n      tag_201\n      tag_202\n      calldatasize\n      0x04\n      tag_63\n      jump\t// in\n    tag_202:\n      mstore(0x20, 0x0a)\n      0x00\n      swap1\n      dup2\n      mstore\n      0x40\n      swap1\n      keccak256\n      dup1\n      sload\n      0x01\n      dup3\n      add\n      sload\n      0x02\n      dup4\n      add\n      sload\n      0x03\n      swap1\n      swap4\n      add\n      sload\n      sub(shl(0xa0, 0x01), 0x01)\n      swap3\n      dup4\n      and\n      swap4\n      swap2\n      dup4\n      and\n      swap3\n      swap2\n      dup3\n      and\n      swap2\n      and\n      dup5\n      jump\n    tag_201:\n      0x40\n      dup1\n      mload\n      sub(shl(0xa0, 0x01), 0x01)\n        /* \"#utility.yul\":4731:4746   */\n      swap6\n      dup7\n      and\n        /* \"#utility.yul\":4713:4747   */\n      dup2\n      mstore\n        /* \"#utility.yul\":4783:4798   */\n      swap4\n      dup6\n      and\n        /* \"#utility.yul\":4778:4780   */\n      0x20\n        /* \"#utility.yul\":4763:4781   */\n      dup6\n      add\n        /* \"#utility.yul\":4756:4799   */\n      mstore\n        /* \"#utility.yul\":4835:4850   */\n      swap2\n      dup5\n      and\n        /* \"#utility.yul\":4815:4833   */\n      swap2\n      dup4\n      add\n        /* \"#utility.yul\":4808:4851   */\n      swap2\n      swap1\n      swap2\n      mstore\n        /* \"#utility.yul\":4887:4902   */\n      swap1\n      swap2\n      and\n        /* \"#utility.yul\":4882:4884   */\n      0x60\n        /* \"#utility.yul\":4867:4885   */\n      dup3\n      add\n        /* \"#utility.yul\":4860:4903   */\n      mstore\n        /* \"#utility.yul\":4662:4665   */\n      0x80\n        /* \"#utility.yul\":4647:4666   */\n      add\n        /* \"contracts/L1/L2toL2CrossTradeStorageL1.sol\":981:1029  mapping(uint256 => ChainIdData) public chainData */\n      tag_53\n        /* \"#utility.yul\":4444:4909   */\n      jump\n        /* \"contracts/proxy/Proxy.sol\":3852:4919  function _fallback() internal {... */\n    tag_47:\n        /* \"contracts/proxy/Proxy.sol\":3892:3905  address _impl */\n      0x00\n        /* \"contracts/proxy/Proxy.sol\":3908:3943  getSelectorImplementation2(msg.sig) */\n      tag_207\n        /* \"contracts/proxy/Proxy.sol\":3935:3942  msg.sig */\n      and(not(sub(shl(0xe0, 0x01), 0x01)), calldataload(0x00))\n        /* \"contracts/proxy/Proxy.sol\":3908:3934  getSelectorImplementation2 */\n      tag_164\n        /* \"contracts/proxy/Proxy.sol\":3908:3943  getSelectorImplementation2(msg.sig) */\n      jump\t// in\n    tag_207:\n        /* \"contracts/proxy/Proxy.sol\":3892:3943  address _impl = getSelectorImplementation2(msg.sig) */\n      swap1\n      pop\n      sub(shl(0xa0, 0x01), 0x01)\n        /* \"contracts/proxy/Proxy.sol\":3975:3994  _impl != address(0) */\n      dup2\n      and\n      iszero\n      dup1\n      iszero\n      swap1\n        /* \"contracts/proxy/Proxy.sol\":3975:4009  _impl != address(0) && !pauseProxy */\n      tag_208\n      jumpi\n      pop\n        /* \"contracts/proxy/Proxy.sol\":3999:4009  pauseProxy */\n      and(0xff, sload(0x00))\n        /* \"contracts/proxy/Proxy.sol\":3998:4009  !pauseProxy */\n      iszero\n        /* \"contracts/proxy/Proxy.sol\":3975:4009  _impl != address(0) && !pauseProxy */\n    tag_208:\n        /* \"contracts/proxy/Proxy.sol\":3954:4064  require(... */\n      tag_209\n      jumpi\n      mload(0x40)\n      shl(0xe5, 0x461bcd)\n      dup2\n      mstore\n        /* \"#utility.yul\":5116:5118   */\n      0x20\n        /* \"contracts/proxy/Proxy.sol\":3954:4064  require(... */\n      0x04\n      dup3\n      add\n        /* \"#utility.yul\":5098:5119   */\n      mstore\n        /* \"#utility.yul\":5155:5157   */\n      0x1d\n        /* \"#utility.yul\":5135:5153   */\n      0x24\n      dup3\n      add\n        /* \"#utility.yul\":5128:5158   */\n      mstore\n        /* \"#utility.yul\":5194:5225   */\n      0x50726f78793a20696d706c204f522070726f78792069732066616c7365000000\n        /* \"#utility.yul\":5174:5192   */\n      0x44\n      dup3\n      add\n        /* \"#utility.yul\":5167:5226   */\n      mstore\n        /* \"#utility.yul\":5243:5261   */\n      0x64\n      add\n        /* \"contracts/proxy/Proxy.sol\":3954:4064  require(... */\n    tag_210:\n      mload(0x40)\n      dup1\n      swap2\n      sub\n      swap1\n      revert\n    tag_209:\n        /* \"contracts/proxy/Proxy.sol\":4343:4357  calldatasize() */\n      calldatasize\n        /* \"contracts/proxy/Proxy.sol\":4340:4341  0 */\n      0x00\n        /* \"contracts/proxy/Proxy.sol\":4337:4338  0 */\n      dup1\n        /* \"contracts/proxy/Proxy.sol\":4324:4358  calldatacopy(0, 0, calldatasize()) */\n      calldatacopy\n        /* \"contracts/proxy/Proxy.sol\":4548:4549  0 */\n      0x00\n        /* \"contracts/proxy/Proxy.sol\":4545:4546  0 */\n      dup1\n        /* \"contracts/proxy/Proxy.sol\":4529:4543  calldatasize() */\n      calldatasize\n        /* \"contracts/proxy/Proxy.sol\":4526:4527  0 */\n      0x00\n        /* \"contracts/proxy/Proxy.sol\":4519:4524  _impl */\n      dup5\n        /* \"contracts/proxy/Proxy.sol\":4512:4517  gas() */\n      gas\n        /* \"contracts/proxy/Proxy.sol\":4499:4550  delegatecall(gas(), _impl, 0, calldatasize(), 0, 0) */\n      delegatecall\n        /* \"contracts/proxy/Proxy.sol\":4624:4640  returndatasize() */\n      returndatasize\n        /* \"contracts/proxy/Proxy.sol\":4621:4622  0 */\n      0x00\n        /* \"contracts/proxy/Proxy.sol\":4618:4619  0 */\n      dup1\n        /* \"contracts/proxy/Proxy.sol\":4603:4641  returndatacopy(0, 0, returndatasize()) */\n      returndatacopy\n        /* \"contracts/proxy/Proxy.sol\":4662:4668  result */\n      dup1\n        /* \"contracts/proxy/Proxy.sol\":4737:4811  case 0 {... */\n      dup1\n      iszero\n      tag_213\n      jumpi\n        /* \"contracts/proxy/Proxy.sol\":4868:4884  returndatasize() */\n      returndatasize\n        /* \"contracts/proxy/Proxy.sol\":4865:4866  0 */\n      0x00\n        /* \"contracts/proxy/Proxy.sol\":4858:4885  return(0, returndatasize()) */\n      return\n        /* \"contracts/proxy/Proxy.sol\":4737:4811  case 0 {... */\n    tag_213:\n        /* \"contracts/proxy/Proxy.sol\":4776:4792  returndatasize() */\n      returndatasize\n        /* \"contracts/proxy/Proxy.sol\":4773:4774  0 */\n      0x00\n        /* \"contracts/proxy/Proxy.sol\":4766:4793  revert(0, returndatasize()) */\n      revert\n        /* \"contracts/proxy/Proxy.sol\":4655:4903  switch result... */\n    tag_212:\n      pop\n      pop\n        /* \"contracts/proxy/Proxy.sol\":4084:4913  {... */\n      pop\n        /* \"contracts/proxy/Proxy.sol\":3852:4919  function _fallback() internal {... */\n      jump\t// out\n        /* \"@openzeppelin/contracts/access/AccessControl.sol\":2565:2767  function supportsInterface(bytes4 interfaceId) public view virtual override returns (bool) {... */\n    tag_52:\n        /* \"@openzeppelin/contracts/access/AccessControl.sol\":2650:2654  bool */\n      0x00\n      not(sub(shl(0xe0, 0x01), 0x01))\n        /* \"@openzeppelin/contracts/access/AccessControl.sol\":2673:2720  interfaceId == type(IAccessControl).interfaceId */\n      dup3\n      and\n      shl(0xe0, 0x7965db0b)\n      eq\n      dup1\n        /* \"@openzeppelin/contracts/access/AccessControl.sol\":2673:2760  interfaceId == type(IAccessControl).interfaceId || super.supportsInterface(interfaceId) */\n      tag_216\n      jumpi\n      pop\n      shl(0xe0, 0x01ffc9a7)\n      not(sub(shl(0xe0, 0x01), 0x01))\n        /* \"@openzeppelin/contracts/utils/introspection/ERC165.sol\":861:901  interfaceId == type(IERC165).interfaceId */\n      dup4\n      and\n      eq\n        /* \"@openzeppelin/contracts/access/AccessControl.sol\":2724:2760  super.supportsInterface(interfaceId) */\n    tag_216:\n        /* \"@openzeppelin/contracts/access/AccessControl.sol\":2666:2760  return interfaceId == type(IAccessControl).interfaceId || super.supportsInterface(interfaceId) */\n      swap3\n        /* \"@openzeppelin/contracts/access/AccessControl.sol\":2565:2767  function supportsInterface(bytes4 interfaceId) public view virtual override returns (bool) {... */\n      swap2\n      pop\n      pop\n      jump\t// out\n        /* \"contracts/common/AccessibleCommon.sol\":582:695  function removeAdmin(address account) public virtual onlyOwner {... */\n    tag_59:\n        /* \"contracts/common/AccessibleCommon.sol\":257:276  isAdmin(msg.sender) */\n      tag_219\n        /* \"contracts/common/AccessibleCommon.sol\":265:275  msg.sender */\n      caller\n        /* \"contracts/common/AccessibleCommon.sol\":257:264  isAdmin */\n      tag_80\n        /* \"contracts/common/AccessibleCommon.sol\":257:276  isAdmin(msg.sender) */\n      jump\t// in\n    tag_219:\n        /* \"contracts/common/AccessibleCommon.sol\":249:315  require(isAdmin(msg.sender), \"Accessible: Caller is not an admin\") */\n      tag_220\n      jumpi\n      mload(0x40)\n      shl(0xe5, 0x461bcd)\n      dup2\n      mstore\n      0x04\n      add\n      tag_210\n      swap1\n      tag_222\n      jump\t// in\n    tag_220:\n        /* \"contracts/common/AccessibleCommon.sol\":655:688  renounceRole(ADMIN_ROLE, account) */\n      tag_224\n      0x00\n      dup1\n      mload\n      0x20\n      data_a29c3f0504a76c686875ea2f0fc314af702d3407223f14a34325f35a1858bd3b\n      dup4\n      codecopy\n      dup2\n      mload\n      swap2\n      mstore\n        /* \"contracts/common/AccessibleCommon.sol\":680:687  account */\n      dup3\n        /* \"contracts/common/AccessibleCommon.sol\":655:667  renounceRole */\n      tag_90\n        /* \"contracts/common/AccessibleCommon.sol\":655:688  renounceRole(ADMIN_ROLE, account) */\n      jump\t// in\n    tag_224:\n        /* \"contracts/common/AccessibleCommon.sol\":582:695  function removeAdmin(address account) public virtual onlyOwner {... */\n      pop\n      jump\t// out\n        /* \"contracts/common/AccessibleCommon.sol\":1144:1265  function isAdmin(address account) public view virtual returns (bool) {... */\n    tag_80:\n        /* \"contracts/common/AccessibleCommon.sol\":1207:1211  bool */\n      0x00\n        /* \"contracts/common/AccessibleCommon.sol\":1230:1258  hasRole(ADMIN_ROLE, account) */\n      tag_216\n      0x00\n      dup1\n      mload\n      0x20\n      data_a29c3f0504a76c686875ea2f0fc314af702d3407223f14a34325f35a1858bd3b\n      dup4\n      codecopy\n      dup2\n      mload\n      swap2\n      mstore\n        /* \"contracts/common/AccessibleCommon.sol\":1250:1257  account */\n      dup4\n        /* \"contracts/common/AccessibleCommon.sol\":1230:1237  hasRole */\n      tag_169\n        /* \"contracts/common/AccessibleCommon.sol\":1230:1258  hasRole(ADMIN_ROLE, account) */\n      jump\t// in\n        /* \"@openzeppelin/contracts/access/AccessControl.sol\":4226:4362  function grantRole(bytes32 role, address account) public virtual onlyRole(getRoleAdmin(role)) {... */\n    tag_86:\n        /* \"@openzeppelin/contracts/access/AccessControl.sol\":3875:3882  bytes32 */\n      0x00\n        /* \"@openzeppelin/contracts/access/AccessControl.sol\":3901:3913  _roles[role] */\n      dup3\n      dup2\n      mstore\n        /* \"@openzeppelin/contracts/access/AccessControl.sol\":3901:3907  _roles */\n      0x04\n        /* \"@openzeppelin/contracts/access/AccessControl.sol\":3901:3913  _roles[role] */\n      0x20\n      mstore\n      0x40\n      swap1\n      keccak256\n        /* \"@openzeppelin/contracts/access/AccessControl.sol\":3901:3923  _roles[role].adminRole */\n      0x01\n      add\n      sload\n        /* \"@openzeppelin/contracts/access/AccessControl.sol\":2464:2480  _checkRole(role) */\n      tag_230\n        /* \"@openzeppelin/contracts/access/AccessControl.sol\":2475:2479  role */\n      dup2\n        /* \"@openzeppelin/contracts/access/AccessControl.sol\":2464:2474  _checkRole */\n      tag_231\n        /* \"@openzeppelin/contracts/access/AccessControl.sol\":2464:2480  _checkRole(role) */\n      jump\t// in\n    tag_230:\n        /* \"@openzeppelin/contracts/access/AccessControl.sol\":4330:4355  _grantRole(role, account) */\n      tag_233\n        /* \"@openzeppelin/contracts/access/AccessControl.sol\":4341:4345  role */\n      dup4\n        /* \"@openzeppelin/contracts/access/AccessControl.sol\":4347:4354  account */\n      dup4\n        /* \"@openzeppelin/contracts/access/AccessControl.sol\":4330:4340  _grantRole */\n      tag_234\n        /* \"@openzeppelin/contracts/access/AccessControl.sol\":4330:4355  _grantRole(role, account) */\n      jump\t// in\n    tag_233:\n      pop\n        /* \"@openzeppelin/contracts/access/AccessControl.sol\":4226:4362  function grantRole(bytes32 role, address account) public virtual onlyRole(getRoleAdmin(role)) {... */\n      pop\n      pop\n      pop\n      jump\t// out\n        /* \"@openzeppelin/contracts/access/AccessControl.sol\":5328:5573  function renounceRole(bytes32 role, address callerConfirmation) public virtual {... */\n    tag_90:\n      sub(shl(0xa0, 0x01), 0x01)\n        /* \"@openzeppelin/contracts/access/AccessControl.sol\":5421:5455  callerConfirmation != _msgSender() */\n      dup2\n      and\n        /* \"@openzeppelin/contracts/utils/Context.sol\":735:745  msg.sender */\n      caller\n        /* \"@openzeppelin/contracts/access/AccessControl.sol\":5421:5455  callerConfirmation != _msgSender() */\n      eq\n        /* \"@openzeppelin/contracts/access/AccessControl.sol\":5417:5519  if (callerConfirmation != _msgSender()) {... */\n      tag_238\n      jumpi\n        /* \"@openzeppelin/contracts/access/AccessControl.sol\":5478:5508  AccessControlBadConfirmation() */\n      mload(0x40)\n      shl(0xe1, 0x334bd919)\n      dup2\n      mstore\n      0x04\n      add\n      mload(0x40)\n      dup1\n      swap2\n      sub\n      swap1\n      revert\n        /* \"@openzeppelin/contracts/access/AccessControl.sol\":5417:5519  if (callerConfirmation != _msgSender()) {... */\n    tag_238:\n        /* \"@openzeppelin/contracts/access/AccessControl.sol\":5529:5566  _revokeRole(role, callerConfirmation) */\n      tag_212\n        /* \"@openzeppelin/contracts/access/AccessControl.sol\":5541:5545  role */\n      dup3\n        /* \"@openzeppelin/contracts/access/AccessControl.sol\":5547:5565  callerConfirmation */\n      dup3\n        /* \"@openzeppelin/contracts/access/AccessControl.sol\":5529:5540  _revokeRole */\n      tag_240\n        /* \"@openzeppelin/contracts/access/AccessControl.sol\":5529:5566  _revokeRole(role, callerConfirmation) */\n      jump\t// in\n        /* \"contracts/proxy/Proxy.sol\":916:1195  function upgradeTo(address impl) external onlyOwner {... */\n    tag_94:\n        /* \"contracts/common/AccessibleCommon.sol\":257:276  isAdmin(msg.sender) */\n      tag_242\n        /* \"contracts/common/AccessibleCommon.sol\":265:275  msg.sender */\n      caller\n        /* \"contracts/common/AccessibleCommon.sol\":257:264  isAdmin */\n      tag_80\n        /* \"contracts/common/AccessibleCommon.sol\":257:276  isAdmin(msg.sender) */\n      jump\t// in\n    tag_242:\n        /* \"contracts/common/AccessibleCommon.sol\":249:315  require(isAdmin(msg.sender), \"Accessible: Caller is not an admin\") */\n      tag_243\n      jumpi\n      mload(0x40)\n      shl(0xe5, 0x461bcd)\n      dup2\n      mstore\n      0x04\n      add\n      tag_210\n      swap1\n      tag_222\n      jump\t// in\n    tag_243:\n      sub(shl(0xa0, 0x01), 0x01)\n        /* \"contracts/proxy/Proxy.sol\":986:1004  impl != address(0) */\n      dup2\n      and\n        /* \"contracts/proxy/Proxy.sol\":978:1022  require(impl != address(0), \"input is zero\") */\n      tag_246\n      jumpi\n      mload(0x40)\n      shl(0xe5, 0x461bcd)\n      dup2\n      mstore\n        /* \"#utility.yul\":5877:5879   */\n      0x20\n        /* \"contracts/proxy/Proxy.sol\":978:1022  require(impl != address(0), \"input is zero\") */\n      0x04\n      dup3\n      add\n        /* \"#utility.yul\":5859:5880   */\n      mstore\n        /* \"#utility.yul\":5916:5918   */\n      0x0d\n        /* \"#utility.yul\":5896:5914   */\n      0x24\n      dup3\n      add\n        /* \"#utility.yul\":5889:5919   */\n      mstore\n      shl(0x98, 0x696e707574206973207a65726f)\n        /* \"#utility.yul\":5935:5953   */\n      0x44\n      dup3\n      add\n        /* \"#utility.yul\":5928:5971   */\n      mstore\n        /* \"#utility.yul\":5988:6006   */\n      0x64\n      add\n        /* \"contracts/proxy/Proxy.sol\":978:1022  require(impl != address(0), \"input is zero\") */\n      tag_210\n        /* \"#utility.yul\":5675:6012   */\n      jump\n        /* \"contracts/proxy/Proxy.sol\":978:1022  require(impl != address(0), \"input is zero\") */\n    tag_246:\n        /* \"contracts/proxy/Proxy.sol\":1070:1071  0 */\n      0x00\n        /* \"contracts/proxy/Proxy.sol\":3744:3771  proxyImplementation[_index] */\n      dup1\n      mstore\n        /* \"contracts/proxy/Proxy.sol\":3744:3763  proxyImplementation */\n      0x01\n        /* \"contracts/proxy/Proxy.sol\":3744:3771  proxyImplementation[_index] */\n      0x20\n      mstore\n      0x00\n      dup1\n      mload\n      0x20\n      data_0eb5be412f275a18f6e4d622aee4ff40b21467c926224771b782d4c095d1444b\n      dup4\n      codecopy\n      dup2\n      mload\n      swap2\n      mstore\n      sload\n      sub(shl(0xa0, 0x01), 0x01)\n        /* \"contracts/proxy/Proxy.sol\":1053:1080  _implementation2(0) != impl */\n      dup3\n      dup2\n      and\n        /* \"contracts/proxy/Proxy.sol\":3744:3771  proxyImplementation[_index] */\n      swap2\n      and\n        /* \"contracts/proxy/Proxy.sol\":1053:1080  _implementation2(0) != impl */\n      sub\n        /* \"contracts/proxy/Proxy.sol\":1032:1115  require(... */\n      tag_251\n      jumpi\n      mload(0x40)\n      shl(0xe5, 0x461bcd)\n      dup2\n      mstore\n        /* \"#utility.yul\":6219:6221   */\n      0x20\n        /* \"contracts/proxy/Proxy.sol\":1032:1115  require(... */\n      0x04\n      dup3\n      add\n        /* \"#utility.yul\":6201:6222   */\n      mstore\n        /* \"#utility.yul\":6258:6259   */\n      0x09\n        /* \"#utility.yul\":6238:6256   */\n      0x24\n      dup3\n      add\n        /* \"#utility.yul\":6231:6260   */\n      mstore\n      shl(0xb9, 0x39b0b6b29030b23239)\n        /* \"#utility.yul\":6276:6294   */\n      0x44\n      dup3\n      add\n        /* \"#utility.yul\":6269:6308   */\n      mstore\n        /* \"#utility.yul\":6325:6343   */\n      0x64\n      add\n        /* \"contracts/proxy/Proxy.sol\":1032:1115  require(... */\n      tag_210\n        /* \"#utility.yul\":6017:6349   */\n      jump\n        /* \"contracts/proxy/Proxy.sol\":1032:1115  require(... */\n    tag_251:\n        /* \"contracts/proxy/Proxy.sol\":1125:1159  _setImplementation2(impl, 0, true) */\n      tag_254\n        /* \"contracts/proxy/Proxy.sol\":1145:1149  impl */\n      dup2\n        /* \"contracts/proxy/Proxy.sol\":1151:1152  0 */\n      0x00\n        /* \"contracts/proxy/Proxy.sol\":1154:1158  true */\n      0x01\n        /* \"contracts/proxy/Proxy.sol\":1125:1144  _setImplementation2 */\n      tag_255\n        /* \"contracts/proxy/Proxy.sol\":1125:1159  _setImplementation2(impl, 0, true) */\n      jump\t// in\n    tag_254:\n        /* \"contracts/proxy/Proxy.sol\":1174:1188  Upgraded(impl) */\n      mload(0x40)\n      sub(shl(0xa0, 0x01), 0x01)\n      dup3\n      and\n      swap1\n      0xbc7cd75a20ee27fd9adebab32041f755214dbc6bffa90cc0225b39da2e5c2d3b\n      swap1\n      0x00\n      swap1\n      log2\n        /* \"contracts/proxy/Proxy.sol\":916:1195  function upgradeTo(address impl) external onlyOwner {... */\n      pop\n      jump\t// out\n        /* \"contracts/proxy/Proxy.sol\":1705:2362  function setSelectorImplementations2(... */\n    tag_99:\n        /* \"contracts/common/AccessibleCommon.sol\":257:276  isAdmin(msg.sender) */\n      tag_257\n        /* \"contracts/common/AccessibleCommon.sol\":265:275  msg.sender */\n      caller\n        /* \"contracts/common/AccessibleCommon.sol\":257:264  isAdmin */\n      tag_80\n        /* \"contracts/common/AccessibleCommon.sol\":257:276  isAdmin(msg.sender) */\n      jump\t// in\n    tag_257:\n        /* \"contracts/common/AccessibleCommon.sol\":249:315  require(isAdmin(msg.sender), \"Accessible: Caller is not an admin\") */\n      tag_258\n      jumpi\n      mload(0x40)\n      shl(0xe5, 0x461bcd)\n      dup2\n      mstore\n      0x04\n      add\n      tag_210\n      swap1\n      tag_222\n      jump\t// in\n    tag_258:\n        /* \"contracts/proxy/Proxy.sol\":1865:1886  _selectors.length > 0 */\n      dup2\n        /* \"contracts/proxy/Proxy.sol\":1844:1944  require(... */\n      tag_261\n      jumpi\n      mload(0x40)\n      shl(0xe5, 0x461bcd)\n      dup2\n      mstore\n        /* \"#utility.yul\":6556:6558   */\n      0x20\n        /* \"contracts/proxy/Proxy.sol\":1844:1944  require(... */\n      0x04\n      dup3\n      add\n        /* \"#utility.yul\":6538:6559   */\n      dup2\n      swap1\n      mstore\n        /* \"#utility.yul\":6575:6593   */\n      0x24\n      dup3\n      add\n        /* \"#utility.yul\":6568:6598   */\n      mstore\n        /* \"#utility.yul\":6634:6668   */\n      0x50726f78793a205f73656c6563746f727327732073697a65206973207a65726f\n        /* \"#utility.yul\":6614:6632   */\n      0x44\n      dup3\n      add\n        /* \"#utility.yul\":6607:6669   */\n      mstore\n        /* \"#utility.yul\":6686:6704   */\n      0x64\n      add\n        /* \"contracts/proxy/Proxy.sol\":1844:1944  require(... */\n      tag_210\n        /* \"#utility.yul\":6354:6710   */\n      jump\n        /* \"contracts/proxy/Proxy.sol\":1844:1944  require(... */\n    tag_261:\n      sub(shl(0xa0, 0x01), 0x01)\n        /* \"contracts/proxy/Proxy.sol\":1962:1987  aliveImplementation[_imp] */\n      dup2\n      and\n      0x00\n      swap1\n      dup2\n      mstore\n        /* \"contracts/proxy/Proxy.sol\":1962:1981  aliveImplementation */\n      0x02\n        /* \"contracts/proxy/Proxy.sol\":1962:1987  aliveImplementation[_imp] */\n      0x20\n      mstore\n      0x40\n      swap1\n      keccak256\n      sload\n      0xff\n      and\n        /* \"contracts/proxy/Proxy.sol\":1954:2016  require(aliveImplementation[_imp], \"Proxy: _imp is not alive\") */\n      tag_264\n      jumpi\n      mload(0x40)\n      shl(0xe5, 0x461bcd)\n      dup2\n      mstore\n        /* \"#utility.yul\":6917:6919   */\n      0x20\n        /* \"contracts/proxy/Proxy.sol\":1954:2016  require(aliveImplementation[_imp], \"Proxy: _imp is not alive\") */\n      0x04\n      dup3\n      add\n        /* \"#utility.yul\":6899:6920   */\n      mstore\n        /* \"#utility.yul\":6956:6958   */\n      0x18\n        /* \"#utility.yul\":6936:6954   */\n      0x24\n      dup3\n      add\n        /* \"#utility.yul\":6929:6959   */\n      mstore\n        /* \"#utility.yul\":6995:7021   */\n      0x50726f78793a205f696d70206973206e6f7420616c6976650000000000000000\n        /* \"#utility.yul\":6975:6993   */\n      0x44\n      dup3\n      add\n        /* \"#utility.yul\":6968:7022   */\n      mstore\n        /* \"#utility.yul\":7039:7057   */\n      0x64\n      add\n        /* \"contracts/proxy/Proxy.sol\":1954:2016  require(aliveImplementation[_imp], \"Proxy: _imp is not alive\") */\n      tag_210\n        /* \"#utility.yul\":6715:7063   */\n      jump\n        /* \"contracts/proxy/Proxy.sol\":1954:2016  require(aliveImplementation[_imp], \"Proxy: _imp is not alive\") */\n    tag_264:\n        /* \"contracts/proxy/Proxy.sol\":2032:2041  uint256 i */\n      0x00\n        /* \"contracts/proxy/Proxy.sol\":2027:2356  for (uint256 i = 0; i < _selectors.length; i++) {... */\n    tag_267:\n        /* \"contracts/proxy/Proxy.sol\":2047:2068  i < _selectors.length */\n      dup3\n      dup2\n      lt\n        /* \"contracts/proxy/Proxy.sol\":2027:2356  for (uint256 i = 0; i < _selectors.length; i++) {... */\n      iszero\n      tag_233\n      jumpi\n        /* \"contracts/proxy/Proxy.sol\":2155:2159  _imp */\n      dup2\n      sub(shl(0xa0, 0x01), 0x01)\n        /* \"contracts/proxy/Proxy.sol\":2114:2159  selectorImplementation[_selectors[i]] != _imp */\n      and\n        /* \"contracts/proxy/Proxy.sol\":2114:2136  selectorImplementation */\n      0x03\n        /* \"contracts/proxy/Proxy.sol\":2114:2151  selectorImplementation[_selectors[i]] */\n      0x00\n        /* \"contracts/proxy/Proxy.sol\":2137:2147  _selectors */\n      dup7\n      dup7\n        /* \"contracts/proxy/Proxy.sol\":2148:2149  i */\n      dup6\n        /* \"contracts/proxy/Proxy.sol\":2137:2150  _selectors[i] */\n      dup2\n      dup2\n      lt\n      tag_271\n      jumpi\n      tag_271\n      tag_272\n      jump\t// in\n    tag_271:\n      swap1\n      pop\n      0x20\n      mul\n      add\n      0x20\n      dup2\n      add\n      swap1\n      tag_273\n      swap2\n      swap1\n      tag_51\n      jump\t// in\n    tag_273:\n      not(sub(shl(0xe0, 0x01), 0x01))\n        /* \"contracts/proxy/Proxy.sol\":2114:2151  selectorImplementation[_selectors[i]] */\n      and\n      dup2\n      mstore\n      0x20\n      dup2\n      add\n      swap2\n      swap1\n      swap2\n      mstore\n      0x40\n      add\n      0x00\n      keccak256\n      sload\n      sub(shl(0xa0, 0x01), 0x01)\n      and\n        /* \"contracts/proxy/Proxy.sol\":2114:2159  selectorImplementation[_selectors[i]] != _imp */\n      sub\n        /* \"contracts/proxy/Proxy.sol\":2089:2222  require(... */\n      tag_274\n      jumpi\n      mload(0x40)\n      shl(0xe5, 0x461bcd)\n      dup2\n      mstore\n        /* \"#utility.yul\":7402:7404   */\n      0x20\n        /* \"contracts/proxy/Proxy.sol\":2089:2222  require(... */\n      0x04\n      dup3\n      add\n        /* \"#utility.yul\":7384:7405   */\n      mstore\n        /* \"#utility.yul\":7441:7443   */\n      0x1d\n        /* \"#utility.yul\":7421:7439   */\n      0x24\n      dup3\n      add\n        /* \"#utility.yul\":7414:7444   */\n      mstore\n        /* \"#utility.yul\":7480:7511   */\n      0x4c69717569646974795661756c7450726f78793a2073616d6520696d70000000\n        /* \"#utility.yul\":7460:7478   */\n      0x44\n      dup3\n      add\n        /* \"#utility.yul\":7453:7512   */\n      mstore\n        /* \"#utility.yul\":7529:7547   */\n      0x64\n      add\n        /* \"contracts/proxy/Proxy.sol\":2089:2222  require(... */\n      tag_210\n        /* \"#utility.yul\":7200:7553   */\n      jump\n        /* \"contracts/proxy/Proxy.sol\":2089:2222  require(... */\n    tag_274:\n        /* \"contracts/proxy/Proxy.sol\":2276:2280  _imp */\n      dup2\n        /* \"contracts/proxy/Proxy.sol\":2236:2258  selectorImplementation */\n      0x03\n        /* \"contracts/proxy/Proxy.sol\":2236:2273  selectorImplementation[_selectors[i]] */\n      0x00\n        /* \"contracts/proxy/Proxy.sol\":2259:2269  _selectors */\n      dup7\n      dup7\n        /* \"contracts/proxy/Proxy.sol\":2270:2271  i */\n      dup6\n        /* \"contracts/proxy/Proxy.sol\":2259:2272  _selectors[i] */\n      dup2\n      dup2\n      lt\n      tag_278\n      jumpi\n      tag_278\n      tag_272\n      jump\t// in\n    tag_278:\n      swap1\n      pop\n      0x20\n      mul\n      add\n      0x20\n      dup2\n      add\n      swap1\n      tag_279\n      swap2\n      swap1\n      tag_51\n      jump\t// in\n    tag_279:\n      not(sub(shl(0xe0, 0x01), 0x01))\n        /* \"contracts/proxy/Proxy.sol\":2236:2273  selectorImplementation[_selectors[i]] */\n      and\n      dup2\n      mstore\n      0x20\n      dup2\n      add\n      swap2\n      swap1\n      swap2\n      mstore\n      0x40\n      add\n      0x00\n      keccak256\n        /* \"contracts/proxy/Proxy.sol\":2236:2280  selectorImplementation[_selectors[i]] = _imp */\n      dup1\n      sload\n      not(sub(shl(0xa0, 0x01), 0x01))\n      and\n      sub(shl(0xa0, 0x01), 0x01)\n      swap3\n      dup4\n      and\n      or\n      swap1\n      sstore\n        /* \"contracts/proxy/Proxy.sol\":2299:2345  SetSelectorImplementation(_selectors[i], _imp) */\n      dup3\n      and\n        /* \"contracts/proxy/Proxy.sol\":2325:2335  _selectors */\n      dup5\n      dup5\n        /* \"contracts/proxy/Proxy.sol\":2336:2337  i */\n      dup4\n        /* \"contracts/proxy/Proxy.sol\":2325:2338  _selectors[i] */\n      dup2\n      dup2\n      lt\n      tag_281\n      jumpi\n      tag_281\n      tag_272\n      jump\t// in\n    tag_281:\n      swap1\n      pop\n      0x20\n      mul\n      add\n      0x20\n      dup2\n      add\n      swap1\n      tag_282\n      swap2\n      swap1\n      tag_51\n      jump\t// in\n    tag_282:\n      sub(shl(0xe0, 0x01), 0x01)\n        /* \"contracts/proxy/Proxy.sol\":2299:2345  SetSelectorImplementation(_selectors[i], _imp) */\n      not\n      and\n      0x14ebc1c32aa68f4d766e89f3e546cee249f7df25183fc10ab1568d91c2ce9b7b\n      mload(0x40)\n      mload(0x40)\n      dup1\n      swap2\n      sub\n      swap1\n      log3\n        /* \"contracts/proxy/Proxy.sol\":2070:2073  i++ */\n      0x01\n      add\n        /* \"contracts/proxy/Proxy.sol\":2027:2356  for (uint256 i = 0; i < _selectors.length; i++) {... */\n      jump(tag_267)\n        /* \"contracts/proxy/Proxy.sol\":1487:1666  function setAliveImplementation2(address newImplementation, bool _alive)... */\n    tag_118:\n        /* \"contracts/common/AccessibleCommon.sol\":257:276  isAdmin(msg.sender) */\n      tag_286\n        /* \"contracts/common/AccessibleCommon.sol\":265:275  msg.sender */\n      caller\n        /* \"contracts/common/AccessibleCommon.sol\":257:264  isAdmin */\n      tag_80\n        /* \"contracts/common/AccessibleCommon.sol\":257:276  isAdmin(msg.sender) */\n      jump\t// in\n    tag_286:\n        /* \"contracts/common/AccessibleCommon.sol\":249:315  require(isAdmin(msg.sender), \"Accessible: Caller is not an admin\") */\n      tag_287\n      jumpi\n      mload(0x40)\n      shl(0xe5, 0x461bcd)\n      dup2\n      mstore\n      0x04\n      add\n      tag_210\n      swap1\n      tag_222\n      jump\t// in\n    tag_287:\n        /* \"contracts/proxy/Proxy.sol\":1608:1659  _setAliveImplementation2(newImplementation, _alive) */\n      tag_290\n        /* \"contracts/proxy/Proxy.sol\":1633:1650  newImplementation */\n      dup3\n        /* \"contracts/proxy/Proxy.sol\":1652:1658  _alive */\n      dup3\n        /* \"contracts/proxy/Proxy.sol\":1608:1632  _setAliveImplementation2 */\n      tag_291\n        /* \"contracts/proxy/Proxy.sol\":1608:1659  _setAliveImplementation2(newImplementation, _alive) */\n      jump\t// in\n    tag_290:\n        /* \"contracts/proxy/Proxy.sol\":1487:1666  function setAliveImplementation2(address newImplementation, bool _alive)... */\n      pop\n      pop\n      jump\t// out\n        /* \"contracts/L1/L2toL2CrossTradeProxyL1.sol\":1094:1302  function setL1StandardBridge(... */\n    tag_127:\n        /* \"contracts/common/AccessibleCommon.sol\":257:276  isAdmin(msg.sender) */\n      tag_293\n        /* \"contracts/common/AccessibleCommon.sol\":265:275  msg.sender */\n      caller\n        /* \"contracts/common/AccessibleCommon.sol\":257:264  isAdmin */\n      tag_80\n        /* \"contracts/common/AccessibleCommon.sol\":257:276  isAdmin(msg.sender) */\n      jump\t// in\n    tag_293:\n        /* \"contracts/common/AccessibleCommon.sol\":249:315  require(isAdmin(msg.sender), \"Accessible: Caller is not an admin\") */\n      tag_294\n      jumpi\n      mload(0x40)\n      shl(0xe5, 0x461bcd)\n      dup2\n      mstore\n      0x04\n      add\n      tag_210\n      swap1\n      tag_222\n      jump\t// in\n    tag_294:\n        /* \"contracts/L1/L2toL2CrossTradeProxyL1.sol\":1244:1269  l1StandardBridge[chainId] */\n      0x00\n      swap2\n      dup3\n      mstore\n        /* \"contracts/L1/L2toL2CrossTradeProxyL1.sol\":1244:1260  l1StandardBridge */\n      0x05\n        /* \"contracts/L1/L2toL2CrossTradeProxyL1.sol\":1244:1269  l1StandardBridge[chainId] */\n      0x20\n      mstore\n      0x40\n      swap1\n      swap2\n      keccak256\n        /* \"contracts/L1/L2toL2CrossTradeProxyL1.sol\":1244:1295  l1StandardBridge[chainId] = l1StandardBridgeAddress */\n      dup1\n      sload\n      not(sub(shl(0xa0, 0x01), 0x01))\n      and\n      sub(shl(0xa0, 0x01), 0x01)\n      swap1\n      swap3\n      and\n      swap2\n      swap1\n      swap2\n      or\n      swap1\n      sstore\n        /* \"contracts/L1/L2toL2CrossTradeProxyL1.sol\":1094:1302  function setL1StandardBridge(... */\n      jump\t// out\n        /* \"contracts/common/AccessibleCommon.sol\":401:508  function addAdmin(address account) public virtual onlyOwner {... */\n    tag_131:\n        /* \"contracts/common/AccessibleCommon.sol\":257:276  isAdmin(msg.sender) */\n      tag_298\n        /* \"contracts/common/AccessibleCommon.sol\":265:275  msg.sender */\n      caller\n        /* \"contracts/common/AccessibleCommon.sol\":257:264  isAdmin */\n      tag_80\n        /* \"contracts/common/AccessibleCommon.sol\":257:276  isAdmin(msg.sender) */\n      jump\t// in\n    tag_298:\n        /* \"contracts/common/AccessibleCommon.sol\":249:315  require(isAdmin(msg.sender), \"Accessible: Caller is not an admin\") */\n      tag_299\n      jumpi\n      mload(0x40)\n      shl(0xe5, 0x461bcd)\n      dup2\n      mstore\n      0x04\n      add\n      tag_210\n      swap1\n      tag_222\n      jump\t// in\n    tag_299:\n        /* \"contracts/common/AccessibleCommon.sol\":471:501  grantRole(ADMIN_ROLE, account) */\n      tag_224\n      0x00\n      dup1\n      mload\n      0x20\n      data_a29c3f0504a76c686875ea2f0fc314af702d3407223f14a34325f35a1858bd3b\n      dup4\n      codecopy\n      dup2\n      mload\n      swap2\n      mstore\n        /* \"contracts/common/AccessibleCommon.sol\":493:500  account */\n      dup3\n        /* \"contracts/common/AccessibleCommon.sol\":471:480  grantRole */\n      tag_86\n        /* \"contracts/common/AccessibleCommon.sol\":471:501  grantRole(ADMIN_ROLE, account) */\n      jump\t// in\n        /* \"contracts/common/AccessibleCommon.sol\":771:1070  function transferAdmin(address newAdmin) external virtual onlyOwner {... */\n    tag_135:\n        /* \"contracts/common/AccessibleCommon.sol\":257:276  isAdmin(msg.sender) */\n      tag_304\n        /* \"contracts/common/AccessibleCommon.sol\":265:275  msg.sender */\n      caller\n        /* \"contracts/common/AccessibleCommon.sol\":257:264  isAdmin */\n      tag_80\n        /* \"contracts/common/AccessibleCommon.sol\":257:276  isAdmin(msg.sender) */\n      jump\t// in\n    tag_304:\n        /* \"contracts/common/AccessibleCommon.sol\":249:315  require(isAdmin(msg.sender), \"Accessible: Caller is not an admin\") */\n      tag_305\n      jumpi\n      mload(0x40)\n      shl(0xe5, 0x461bcd)\n      dup2\n      mstore\n      0x04\n      add\n      tag_210\n      swap1\n      tag_222\n      jump\t// in\n    tag_305:\n      sub(shl(0xa0, 0x01), 0x01)\n        /* \"contracts/common/AccessibleCommon.sol\":857:879  newAdmin != address(0) */\n      dup2\n      and\n        /* \"contracts/common/AccessibleCommon.sol\":849:908  require(newAdmin != address(0), \"Accessible: zero address\") */\n      tag_308\n      jumpi\n      mload(0x40)\n      shl(0xe5, 0x461bcd)\n      dup2\n      mstore\n        /* \"#utility.yul\":7760:7762   */\n      0x20\n        /* \"contracts/common/AccessibleCommon.sol\":849:908  require(newAdmin != address(0), \"Accessible: zero address\") */\n      0x04\n      dup3\n      add\n        /* \"#utility.yul\":7742:7763   */\n      mstore\n        /* \"#utility.yul\":7799:7801   */\n      0x18\n        /* \"#utility.yul\":7779:7797   */\n      0x24\n      dup3\n      add\n        /* \"#utility.yul\":7772:7802   */\n      mstore\n        /* \"#utility.yul\":7838:7864   */\n      0x41636365737369626c653a207a65726f20616464726573730000000000000000\n        /* \"#utility.yul\":7818:7836   */\n      0x44\n      dup3\n      add\n        /* \"#utility.yul\":7811:7865   */\n      mstore\n        /* \"#utility.yul\":7882:7900   */\n      0x64\n      add\n        /* \"contracts/common/AccessibleCommon.sol\":849:908  require(newAdmin != address(0), \"Accessible: zero address\") */\n      tag_210\n        /* \"#utility.yul\":7558:7906   */\n      jump\n        /* \"contracts/common/AccessibleCommon.sol\":849:908  require(newAdmin != address(0), \"Accessible: zero address\") */\n    tag_308:\n      sub(shl(0xa0, 0x01), 0x01)\n        /* \"contracts/common/AccessibleCommon.sol\":926:948  msg.sender != newAdmin */\n      dup2\n      and\n        /* \"contracts/common/AccessibleCommon.sol\":926:936  msg.sender */\n      caller\n        /* \"contracts/common/AccessibleCommon.sol\":926:948  msg.sender != newAdmin */\n      sub\n        /* \"contracts/common/AccessibleCommon.sol\":918:975  require(msg.sender != newAdmin, \"Accessible: same admin\") */\n      tag_311\n      jumpi\n      mload(0x40)\n      shl(0xe5, 0x461bcd)\n      dup2\n      mstore\n        /* \"#utility.yul\":8113:8115   */\n      0x20\n        /* \"contracts/common/AccessibleCommon.sol\":918:975  require(msg.sender != newAdmin, \"Accessible: same admin\") */\n      0x04\n      dup3\n      add\n        /* \"#utility.yul\":8095:8116   */\n      mstore\n        /* \"#utility.yul\":8152:8154   */\n      0x16\n        /* \"#utility.yul\":8132:8150   */\n      0x24\n      dup3\n      add\n        /* \"#utility.yul\":8125:8155   */\n      mstore\n      shl(0x51, 0x20b1b1b2b9b9b4b136329d1039b0b6b29030b236b4b7)\n        /* \"#utility.yul\":8171:8189   */\n      0x44\n      dup3\n      add\n        /* \"#utility.yul\":8164:8216   */\n      mstore\n        /* \"#utility.yul\":8233:8251   */\n      0x64\n      add\n        /* \"contracts/common/AccessibleCommon.sol\":918:975  require(msg.sender != newAdmin, \"Accessible: same admin\") */\n      tag_210\n        /* \"#utility.yul\":7911:8257   */\n      jump\n        /* \"contracts/common/AccessibleCommon.sol\":918:975  require(msg.sender != newAdmin, \"Accessible: same admin\") */\n    tag_311:\n        /* \"contracts/common/AccessibleCommon.sol\":986:1017  grantRole(ADMIN_ROLE, newAdmin) */\n      tag_314\n      0x00\n      dup1\n      mload\n      0x20\n      data_a29c3f0504a76c686875ea2f0fc314af702d3407223f14a34325f35a1858bd3b\n      dup4\n      codecopy\n      dup2\n      mload\n      swap2\n      mstore\n        /* \"contracts/common/AccessibleCommon.sol\":1008:1016  newAdmin */\n      dup3\n        /* \"contracts/common/AccessibleCommon.sol\":986:995  grantRole */\n      tag_86\n        /* \"contracts/common/AccessibleCommon.sol\":986:1017  grantRole(ADMIN_ROLE, newAdmin) */\n      jump\t// in\n    tag_314:\n        /* \"contracts/common/AccessibleCommon.sol\":1027:1063  renounceRole(ADMIN_ROLE, msg.sender) */\n      tag_224\n      0x00\n      dup1\n      mload\n      0x20\n      data_a29c3f0504a76c686875ea2f0fc314af702d3407223f14a34325f35a1858bd3b\n      dup4\n      codecopy\n      dup2\n      mload\n      swap2\n      mstore\n        /* \"contracts/common/AccessibleCommon.sol\":1052:1062  msg.sender */\n      caller\n        /* \"contracts/common/AccessibleCommon.sol\":1027:1039  renounceRole */\n      tag_90\n        /* \"contracts/common/AccessibleCommon.sol\":1027:1063  renounceRole(ADMIN_ROLE, msg.sender) */\n      jump\t// in\n        /* \"contracts/proxy/Proxy.sol\":719:810  function setProxyPause(bool _pause) external onlyOwner {... */\n    tag_144:\n        /* \"contracts/common/AccessibleCommon.sol\":257:276  isAdmin(msg.sender) */\n      tag_317\n        /* \"contracts/common/AccessibleCommon.sol\":265:275  msg.sender */\n      caller\n        /* \"contracts/common/AccessibleCommon.sol\":257:264  isAdmin */\n      tag_80\n        /* \"contracts/common/AccessibleCommon.sol\":257:276  isAdmin(msg.sender) */\n      jump\t// in\n    tag_317:\n        /* \"contracts/common/AccessibleCommon.sol\":249:315  require(isAdmin(msg.sender), \"Accessible: Caller is not an admin\") */\n      tag_318\n      jumpi\n      mload(0x40)\n      shl(0xe5, 0x461bcd)\n      dup2\n      mstore\n      0x04\n      add\n      tag_210\n      swap1\n      tag_222\n      jump\t// in\n    tag_318:\n        /* \"contracts/proxy/Proxy.sol\":784:794  pauseProxy */\n      0x00\n        /* \"contracts/proxy/Proxy.sol\":784:803  pauseProxy = _pause */\n      dup1\n      sload\n      not(0xff)\n      and\n      swap2\n      iszero\n      iszero\n      swap2\n      swap1\n      swap2\n      or\n      swap1\n      sstore\n        /* \"contracts/proxy/Proxy.sol\":719:810  function setProxyPause(bool _pause) external onlyOwner {... */\n      jump\t// out\n        /* \"contracts/proxy/Proxy.sol\":1235:1448  function setImplementation2(... */\n    tag_149:\n        /* \"contracts/common/AccessibleCommon.sol\":257:276  isAdmin(msg.sender) */\n      tag_322\n        /* \"contracts/common/AccessibleCommon.sol\":265:275  msg.sender */\n      caller\n        /* \"contracts/common/AccessibleCommon.sol\":257:264  isAdmin */\n      tag_80\n        /* \"contracts/common/AccessibleCommon.sol\":257:276  isAdmin(msg.sender) */\n      jump\t// in\n    tag_322:\n        /* \"contracts/common/AccessibleCommon.sol\":249:315  require(isAdmin(msg.sender), \"Accessible: Caller is not an admin\") */\n      tag_323\n      jumpi\n      mload(0x40)\n      shl(0xe5, 0x461bcd)\n      dup2\n      mstore\n      0x04\n      add\n      tag_210\n      swap1\n      tag_222\n      jump\t// in\n    tag_323:\n        /* \"contracts/proxy/Proxy.sol\":1387:1441  _setImplementation2(newImplementation, _index, _alive) */\n      tag_212\n        /* \"contracts/proxy/Proxy.sol\":1407:1424  newImplementation */\n      dup4\n        /* \"contracts/proxy/Proxy.sol\":1426:1432  _index */\n      dup4\n        /* \"contracts/proxy/Proxy.sol\":1434:1440  _alive */\n      dup4\n        /* \"contracts/proxy/Proxy.sol\":1387:1406  _setImplementation2 */\n      tag_255\n        /* \"contracts/proxy/Proxy.sol\":1387:1441  _setImplementation2(newImplementation, _index, _alive) */\n      jump\t// in\n        /* \"contracts/proxy/Proxy.sol\":2634:2764  function implementation2(uint256 _index) external override view returns (address) {... */\n    tag_159:\n        /* \"contracts/proxy/Proxy.sol\":2707:2714  address */\n      0x00\n        /* \"contracts/proxy/Proxy.sol\":3744:3771  proxyImplementation[_index] */\n      dup2\n      dup2\n      mstore\n        /* \"contracts/proxy/Proxy.sol\":3744:3763  proxyImplementation */\n      0x01\n        /* \"contracts/proxy/Proxy.sol\":3744:3771  proxyImplementation[_index] */\n      0x20\n      mstore\n      0x40\n      dup2\n      keccak256\n      sload\n      sub(shl(0xa0, 0x01), 0x01)\n      and\n        /* \"contracts/proxy/Proxy.sol\":2733:2757  _implementation2(_index) */\n      tag_216\n        /* \"contracts/proxy/Proxy.sol\":3620:3778  function _implementation2(uint256 _index)... */\n      jump\n        /* \"contracts/proxy/Proxy.sol\":2804:3223  function getSelectorImplementation2(bytes4 _selector)... */\n    tag_164:\n      not(sub(shl(0xe0, 0x01), 0x01))\n        /* \"contracts/proxy/Proxy.sol\":2944:2977  selectorImplementation[_selector] */\n      dup2\n      and\n        /* \"contracts/proxy/Proxy.sol\":2912:2924  address impl */\n      0x00\n        /* \"contracts/proxy/Proxy.sol\":2944:2977  selectorImplementation[_selector] */\n      swap1\n      dup2\n      mstore\n        /* \"contracts/proxy/Proxy.sol\":2944:2966  selectorImplementation */\n      0x03\n        /* \"contracts/proxy/Proxy.sol\":2944:2977  selectorImplementation[_selector] */\n      0x20\n      mstore\n      0x40\n      dup2\n      keccak256\n      sload\n      sub(shl(0xa0, 0x01), 0x01)\n      and\n        /* \"contracts/proxy/Proxy.sol\":2940:3216  if (selectorImplementation[_selector] == address(0))... */\n      tag_330\n      jumpi\n      pop\n      pop\n        /* \"contracts/proxy/Proxy.sol\":3012:3034  proxyImplementation[0] */\n      0x00\n      dup1\n      mstore\n        /* \"contracts/proxy/Proxy.sol\":3012:3031  proxyImplementation */\n      0x01\n        /* \"contracts/proxy/Proxy.sol\":3012:3034  proxyImplementation[0] */\n      0x20\n      mstore\n      0x00\n      dup1\n      mload\n      0x20\n      data_0eb5be412f275a18f6e4d622aee4ff40b21467c926224771b782d4c095d1444b\n      dup4\n      codecopy\n      dup2\n      mload\n      swap2\n      mstore\n      sload\n      sub(shl(0xa0, 0x01), 0x01)\n      and\n      swap1\n        /* \"contracts/proxy/Proxy.sol\":2804:3223  function getSelectorImplementation2(bytes4 _selector)... */\n      jump\t// out\n        /* \"contracts/proxy/Proxy.sol\":2940:3216  if (selectorImplementation[_selector] == address(0))... */\n    tag_330:\n      not(sub(shl(0xe0, 0x01), 0x01))\n        /* \"contracts/proxy/Proxy.sol\":3073:3106  selectorImplementation[_selector] */\n      dup3\n      and\n        /* \"contracts/proxy/Proxy.sol\":3053:3107  aliveImplementation[selectorImplementation[_selector]] */\n      0x00\n        /* \"contracts/proxy/Proxy.sol\":3073:3106  selectorImplementation[_selector] */\n      swap1\n      dup2\n      mstore\n        /* \"contracts/proxy/Proxy.sol\":3073:3095  selectorImplementation */\n      0x03\n        /* \"contracts/proxy/Proxy.sol\":3073:3106  selectorImplementation[_selector] */\n      0x20\n      swap1\n      dup2\n      mstore\n      0x40\n      dup1\n      dup4\n      keccak256\n      sload\n      sub(shl(0xa0, 0x01), 0x01)\n      and\n        /* \"contracts/proxy/Proxy.sol\":3053:3107  aliveImplementation[selectorImplementation[_selector]] */\n      dup4\n      mstore\n        /* \"contracts/proxy/Proxy.sol\":3053:3072  aliveImplementation */\n      0x02\n        /* \"contracts/proxy/Proxy.sol\":3053:3107  aliveImplementation[selectorImplementation[_selector]] */\n      swap1\n      swap2\n      mstore\n      swap1\n      keccak256\n      sload\n      0xff\n      and\n        /* \"contracts/proxy/Proxy.sol\":3049:3216  if (aliveImplementation[selectorImplementation[_selector]]){... */\n      iszero\n      tag_332\n      jumpi\n      pop\n      not(sub(shl(0xe0, 0x01), 0x01))\n        /* \"contracts/proxy/Proxy.sol\":3129:3162  selectorImplementation[_selector] */\n      and\n      0x00\n      swap1\n      dup2\n      mstore\n        /* \"contracts/proxy/Proxy.sol\":3129:3151  selectorImplementation */\n      0x03\n        /* \"contracts/proxy/Proxy.sol\":3129:3162  selectorImplementation[_selector] */\n      0x20\n      mstore\n      0x40\n      swap1\n      keccak256\n      sload\n      sub(shl(0xa0, 0x01), 0x01)\n      and\n      swap1\n        /* \"contracts/proxy/Proxy.sol\":2804:3223  function getSelectorImplementation2(bytes4 _selector)... */\n      jump\t// out\n        /* \"contracts/proxy/Proxy.sol\":3049:3216  if (aliveImplementation[selectorImplementation[_selector]]){... */\n    tag_332:\n      pop\n      pop\n        /* \"contracts/proxy/Proxy.sol\":3194:3216  proxyImplementation[0] */\n      0x00\n      dup1\n      mstore\n        /* \"contracts/proxy/Proxy.sol\":3194:3213  proxyImplementation */\n      0x01\n        /* \"contracts/proxy/Proxy.sol\":3194:3216  proxyImplementation[0] */\n      0x20\n      mstore\n      0x00\n      dup1\n      mload\n      0x20\n      data_0eb5be412f275a18f6e4d622aee4ff40b21467c926224771b782d4c095d1444b\n      dup4\n      codecopy\n      dup2\n      mload\n      swap2\n      mstore\n      sload\n      sub(shl(0xa0, 0x01), 0x01)\n      and\n      swap1\n        /* \"contracts/proxy/Proxy.sol\":2804:3223  function getSelectorImplementation2(bytes4 _selector)... */\n      jump\t// out\n        /* \"contracts/proxy/Proxy.sol\":3049:3216  if (aliveImplementation[selectorImplementation[_selector]]){... */\n    tag_333:\n        /* \"contracts/proxy/Proxy.sol\":2804:3223  function getSelectorImplementation2(bytes4 _selector)... */\n      swap2\n      swap1\n      pop\n      jump\t// out\n        /* \"@openzeppelin/contracts/access/AccessControl.sol\":2854:2990  function hasRole(bytes32 role, address account) public view virtual returns (bool) {... */\n    tag_169:\n        /* \"@openzeppelin/contracts/access/AccessControl.sol\":2931:2935  bool */\n      0x00\n        /* \"@openzeppelin/contracts/access/AccessControl.sol\":2954:2966  _roles[role] */\n      swap2\n      dup3\n      mstore\n        /* \"@openzeppelin/contracts/access/AccessControl.sol\":2954:2960  _roles */\n      0x04\n        /* \"@openzeppelin/contracts/access/AccessControl.sol\":2954:2966  _roles[role] */\n      0x20\n      swap1\n      dup2\n      mstore\n      0x40\n      dup1\n      dup5\n      keccak256\n      sub(shl(0xa0, 0x01), 0x01)\n        /* \"@openzeppelin/contracts/access/AccessControl.sol\":2954:2983  _roles[role].hasRole[account] */\n      swap4\n      swap1\n      swap4\n      and\n      dup5\n      mstore\n      swap2\n      swap1\n      mstore\n      swap1\n      keccak256\n      sload\n      0xff\n      and\n      swap1\n        /* \"@openzeppelin/contracts/access/AccessControl.sol\":2854:2990  function hasRole(bytes32 role, address account) public view virtual returns (bool) {... */\n      jump\t// out\n        /* \"contracts/L1/L2toL2CrossTradeProxyL1.sol\":614:1088  function setChainInfo(... */\n    tag_184:\n        /* \"contracts/common/AccessibleCommon.sol\":257:276  isAdmin(msg.sender) */\n      tag_336\n        /* \"contracts/common/AccessibleCommon.sol\":265:275  msg.sender */\n      caller\n        /* \"contracts/common/AccessibleCommon.sol\":257:264  isAdmin */\n      tag_80\n        /* \"contracts/common/AccessibleCommon.sol\":257:276  isAdmin(msg.sender) */\n      jump\t// in\n    tag_336:\n        /* \"contracts/common/AccessibleCommon.sol\":249:315  require(isAdmin(msg.sender), \"Accessible: Caller is not an admin\") */\n      tag_337\n      jumpi\n      mload(0x40)\n      shl(0xe5, 0x461bcd)\n      dup2\n      mstore\n      0x04\n      add\n      tag_210\n      swap1\n      tag_222\n      jump\t// in\n    tag_337:\n        /* \"contracts/L1/L2toL2CrossTradeProxyL1.sol\":875:1081  ChainIdData({... */\n      0x40\n      dup1\n      mload\n      0x80\n      dup2\n      add\n      dup3\n      mstore\n      sub(shl(0xa0, 0x01), 0x01)\n      swap7\n      dup8\n      and\n      dup2\n      mstore\n      swap5\n      dup7\n      and\n      0x20\n      dup1\n      dup8\n      add\n      swap2\n      dup3\n      mstore\n      swap5\n      dup8\n      and\n      dup7\n      dup4\n      add\n      swap1\n      dup2\n      mstore\n      swap4\n      dup8\n      and\n      0x60\n      dup8\n      add\n      swap1\n      dup2\n      mstore\n      0x00\n        /* \"contracts/L1/L2toL2CrossTradeProxyL1.sol\":851:872  chainData[_l2chainId] */\n      swap4\n      dup5\n      mstore\n        /* \"contracts/L1/L2toL2CrossTradeProxyL1.sol\":851:860  chainData */\n      0x0a\n        /* \"contracts/L1/L2toL2CrossTradeProxyL1.sol\":851:872  chainData[_l2chainId] */\n      swap1\n      swap6\n      mstore\n      swap2\n      keccak256\n        /* \"contracts/L1/L2toL2CrossTradeProxyL1.sol\":851:1081  chainData[_l2chainId] = ChainIdData({... */\n      swap4\n      mload\n      dup5\n      sload\n      swap1\n      dup7\n      and\n      not(sub(shl(0xa0, 0x01), 0x01))\n      swap2\n      dup3\n      and\n      or\n      dup6\n      sstore\n      swap1\n      mload\n      0x01\n      dup6\n      add\n      dup1\n      sload\n      swap2\n      dup8\n      and\n      swap2\n      dup4\n      and\n      swap2\n      swap1\n      swap2\n      or\n      swap1\n      sstore\n      swap1\n      mload\n      0x02\n      dup5\n      add\n      dup1\n      sload\n      swap2\n      dup7\n      and\n      swap2\n      dup4\n      and\n      swap2\n      swap1\n      swap2\n      or\n      swap1\n      sstore\n      swap1\n      mload\n      0x03\n      swap1\n      swap3\n      add\n      dup1\n      sload\n      swap3\n      swap1\n      swap4\n      and\n      swap2\n      and\n      or\n      swap1\n      sstore\n        /* \"contracts/L1/L2toL2CrossTradeProxyL1.sol\":614:1088  function setChainInfo(... */\n      jump\t// out\n        /* \"@openzeppelin/contracts/access/AccessControl.sol\":4642:4780  function revokeRole(bytes32 role, address account) public virtual onlyRole(getRoleAdmin(role)) {... */\n    tag_193:\n        /* \"@openzeppelin/contracts/access/AccessControl.sol\":3875:3882  bytes32 */\n      0x00\n        /* \"@openzeppelin/contracts/access/AccessControl.sol\":3901:3913  _roles[role] */\n      dup3\n      dup2\n      mstore\n        /* \"@openzeppelin/contracts/access/AccessControl.sol\":3901:3907  _roles */\n      0x04\n        /* \"@openzeppelin/contracts/access/AccessControl.sol\":3901:3913  _roles[role] */\n      0x20\n      mstore\n      0x40\n      swap1\n      keccak256\n        /* \"@openzeppelin/contracts/access/AccessControl.sol\":3901:3923  _roles[role].adminRole */\n      0x01\n      add\n      sload\n        /* \"@openzeppelin/contracts/access/AccessControl.sol\":2464:2480  _checkRole(role) */\n      tag_342\n        /* \"@openzeppelin/contracts/access/AccessControl.sol\":2475:2479  role */\n      dup2\n        /* \"@openzeppelin/contracts/access/AccessControl.sol\":2464:2474  _checkRole */\n      tag_231\n        /* \"@openzeppelin/contracts/access/AccessControl.sol\":2464:2480  _checkRole(role) */\n      jump\t// in\n    tag_342:\n        /* \"@openzeppelin/contracts/access/AccessControl.sol\":4747:4773  _revokeRole(role, account) */\n      tag_233\n        /* \"@openzeppelin/contracts/access/AccessControl.sol\":4759:4763  role */\n      dup4\n        /* \"@openzeppelin/contracts/access/AccessControl.sol\":4765:4772  account */\n      dup4\n        /* \"@openzeppelin/contracts/access/AccessControl.sol\":4747:4758  _revokeRole */\n      tag_240\n        /* \"@openzeppelin/contracts/access/AccessControl.sol\":4747:4773  _revokeRole(role, account) */\n      jump\t// in\n        /* \"@openzeppelin/contracts/access/AccessControl.sol\":3199:3302  function _checkRole(bytes32 role) internal view virtual {... */\n    tag_231:\n        /* \"@openzeppelin/contracts/access/AccessControl.sol\":3265:3295  _checkRole(role, _msgSender()) */\n      tag_224\n        /* \"@openzeppelin/contracts/access/AccessControl.sol\":3276:3280  role */\n      dup2\n        /* \"@openzeppelin/contracts/utils/Context.sol\":735:745  msg.sender */\n      caller\n        /* \"@openzeppelin/contracts/access/AccessControl.sol\":3265:3275  _checkRole */\n      tag_349\n        /* \"@openzeppelin/contracts/access/AccessControl.sol\":3265:3295  _checkRole(role, _msgSender()) */\n      jump\t// in\n        /* \"@openzeppelin/contracts/access/AccessControl.sol\":6179:6495  function _grantRole(bytes32 role, address account) internal virtual returns (bool) {... */\n    tag_234:\n        /* \"@openzeppelin/contracts/access/AccessControl.sol\":6256:6260  bool */\n      0x00\n        /* \"@openzeppelin/contracts/access/AccessControl.sol\":6277:6299  hasRole(role, account) */\n      tag_351\n        /* \"@openzeppelin/contracts/access/AccessControl.sol\":6285:6289  role */\n      dup4\n        /* \"@openzeppelin/contracts/access/AccessControl.sol\":6291:6298  account */\n      dup4\n        /* \"@openzeppelin/contracts/access/AccessControl.sol\":6277:6284  hasRole */\n      tag_169\n        /* \"@openzeppelin/contracts/access/AccessControl.sol\":6277:6299  hasRole(role, account) */\n      jump\t// in\n    tag_351:\n        /* \"@openzeppelin/contracts/access/AccessControl.sol\":6272:6489  if (!hasRole(role, account)) {... */\n      tag_352\n      jumpi\n        /* \"@openzeppelin/contracts/access/AccessControl.sol\":6315:6327  _roles[role] */\n      0x00\n      dup4\n      dup2\n      mstore\n        /* \"@openzeppelin/contracts/access/AccessControl.sol\":6315:6321  _roles */\n      0x04\n        /* \"@openzeppelin/contracts/access/AccessControl.sol\":6315:6327  _roles[role] */\n      0x20\n      swap1\n      dup2\n      mstore\n      0x40\n      dup1\n      dup4\n      keccak256\n      sub(shl(0xa0, 0x01), 0x01)\n        /* \"@openzeppelin/contracts/access/AccessControl.sol\":6315:6344  _roles[role].hasRole[account] */\n      dup7\n      and\n      dup5\n      mstore\n      swap1\n      swap2\n      mstore\n      swap1\n      keccak256\n        /* \"@openzeppelin/contracts/access/AccessControl.sol\":6315:6351  _roles[role].hasRole[account] = true */\n      dup1\n      sload\n      not(0xff)\n      and\n        /* \"@openzeppelin/contracts/access/AccessControl.sol\":6347:6351  true */\n      0x01\n        /* \"@openzeppelin/contracts/access/AccessControl.sol\":6315:6351  _roles[role].hasRole[account] = true */\n      or\n      swap1\n      sstore\n        /* \"@openzeppelin/contracts/access/AccessControl.sol\":6397:6409  _msgSender() */\n      tag_353\n        /* \"@openzeppelin/contracts/utils/Context.sol\":735:745  msg.sender */\n      caller\n      swap1\n        /* \"@openzeppelin/contracts/utils/Context.sol\":656:752  function _msgSender() internal view virtual returns (address) {... */\n      jump\n        /* \"@openzeppelin/contracts/access/AccessControl.sol\":6397:6409  _msgSender() */\n    tag_353:\n      sub(shl(0xa0, 0x01), 0x01)\n        /* \"@openzeppelin/contracts/access/AccessControl.sol\":6370:6410  RoleGranted(role, account, _msgSender()) */\n      and\n        /* \"@openzeppelin/contracts/access/AccessControl.sol\":6388:6395  account */\n      dup3\n      sub(shl(0xa0, 0x01), 0x01)\n        /* \"@openzeppelin/contracts/access/AccessControl.sol\":6370:6410  RoleGranted(role, account, _msgSender()) */\n      and\n        /* \"@openzeppelin/contracts/access/AccessControl.sol\":6382:6386  role */\n      dup5\n        /* \"@openzeppelin/contracts/access/AccessControl.sol\":6370:6410  RoleGranted(role, account, _msgSender()) */\n      0x2f8788117e7eff1d82e926ec794901d17c78024a50270940304540a733656f0d\n      mload(0x40)\n      mload(0x40)\n      dup1\n      swap2\n      sub\n      swap1\n      log4\n      pop\n        /* \"@openzeppelin/contracts/access/AccessControl.sol\":6431:6435  true */\n      0x01\n        /* \"@openzeppelin/contracts/access/AccessControl.sol\":6424:6435  return true */\n      jump(tag_216)\n        /* \"@openzeppelin/contracts/access/AccessControl.sol\":6272:6489  if (!hasRole(role, account)) {... */\n    tag_352:\n      pop\n        /* \"@openzeppelin/contracts/access/AccessControl.sol\":6473:6478  false */\n      0x00\n        /* \"@openzeppelin/contracts/access/AccessControl.sol\":6466:6478  return false */\n      jump(tag_216)\n        /* \"@openzeppelin/contracts/access/AccessControl.sol\":6730:7047  function _revokeRole(bytes32 role, address account) internal virtual returns (bool) {... */\n    tag_240:\n        /* \"@openzeppelin/contracts/access/AccessControl.sol\":6808:6812  bool */\n      0x00\n        /* \"@openzeppelin/contracts/access/AccessControl.sol\":6828:6850  hasRole(role, account) */\n      tag_357\n        /* \"@openzeppelin/contracts/access/AccessControl.sol\":6836:6840  role */\n      dup4\n        /* \"@openzeppelin/contracts/access/AccessControl.sol\":6842:6849  account */\n      dup4\n        /* \"@openzeppelin/contracts/access/AccessControl.sol\":6828:6835  hasRole */\n      tag_169\n        /* \"@openzeppelin/contracts/access/AccessControl.sol\":6828:6850  hasRole(role, account) */\n      jump\t// in\n    tag_357:\n        /* \"@openzeppelin/contracts/access/AccessControl.sol\":6824:7041  if (hasRole(role, account)) {... */\n      iszero\n      tag_352\n      jumpi\n        /* \"@openzeppelin/contracts/access/AccessControl.sol\":6898:6903  false */\n      0x00\n        /* \"@openzeppelin/contracts/access/AccessControl.sol\":6866:6878  _roles[role] */\n      dup4\n      dup2\n      mstore\n        /* \"@openzeppelin/contracts/access/AccessControl.sol\":6866:6872  _roles */\n      0x04\n        /* \"@openzeppelin/contracts/access/AccessControl.sol\":6866:6878  _roles[role] */\n      0x20\n      swap1\n      dup2\n      mstore\n      0x40\n      dup1\n      dup4\n      keccak256\n      sub(shl(0xa0, 0x01), 0x01)\n        /* \"@openzeppelin/contracts/access/AccessControl.sol\":6866:6895  _roles[role].hasRole[account] */\n      dup7\n      and\n      dup1\n      dup6\n      mstore\n      swap3\n      mstore\n      dup1\n      dup4\n      keccak256\n        /* \"@openzeppelin/contracts/access/AccessControl.sol\":6866:6903  _roles[role].hasRole[account] = false */\n      dup1\n      sload\n      not(0xff)\n      and\n      swap1\n      sstore\n        /* \"@openzeppelin/contracts/access/AccessControl.sol\":6922:6962  RoleRevoked(role, account, _msgSender()) */\n      mload\n        /* \"@openzeppelin/contracts/utils/Context.sol\":735:745  msg.sender */\n      caller\n      swap3\n        /* \"@openzeppelin/contracts/access/AccessControl.sol\":6866:6878  _roles[role] */\n      dup7\n      swap2\n        /* \"@openzeppelin/contracts/access/AccessControl.sol\":6922:6962  RoleRevoked(role, account, _msgSender()) */\n      0xf6391f5c32d9c69d2a47ea670b442974b53935d1edc7fd64eb21e047a839171b\n      swap2\n        /* \"@openzeppelin/contracts/access/AccessControl.sol\":6898:6903  false */\n      swap1\n        /* \"@openzeppelin/contracts/access/AccessControl.sol\":6922:6962  RoleRevoked(role, account, _msgSender()) */\n      log4\n      pop\n        /* \"@openzeppelin/contracts/access/AccessControl.sol\":6983:6987  true */\n      0x01\n        /* \"@openzeppelin/contracts/access/AccessControl.sol\":6976:6987  return true */\n      jump(tag_216)\n        /* \"contracts/proxy/Proxy.sol\":5140:5515  function _setImplementation2(... */\n    tag_255:\n      sub(shl(0xa0, 0x01), 0x01)\n        /* \"contracts/proxy/Proxy.sol\":5985:6004  account.code.length */\n      dup4\n      and\n      extcodesize\n        /* \"contracts/proxy/Proxy.sol\":5274:5378  require(... */\n      tag_365\n      jumpi\n      mload(0x40)\n      shl(0xe5, 0x461bcd)\n      dup2\n      mstore\n        /* \"#utility.yul\":8464:8466   */\n      0x20\n        /* \"contracts/proxy/Proxy.sol\":5274:5378  require(... */\n      0x04\n      dup3\n      add\n        /* \"#utility.yul\":8446:8467   */\n      mstore\n        /* \"#utility.yul\":8503:8505   */\n      0x1b\n        /* \"#utility.yul\":8483:8501   */\n      0x24\n      dup3\n      add\n        /* \"#utility.yul\":8476:8506   */\n      mstore\n        /* \"#utility.yul\":8542:8571   */\n      0x50726f78793a206e6f7420636f6e747261637420616464726573730000000000\n        /* \"#utility.yul\":8522:8540   */\n      0x44\n      dup3\n      add\n        /* \"#utility.yul\":8515:8572   */\n      mstore\n        /* \"#utility.yul\":8589:8607   */\n      0x64\n      add\n        /* \"contracts/proxy/Proxy.sol\":5274:5378  require(... */\n      tag_210\n        /* \"#utility.yul\":8262:8613   */\n      jump\n        /* \"contracts/proxy/Proxy.sol\":5274:5378  require(... */\n    tag_365:\n        /* \"contracts/proxy/Proxy.sol\":5392:5398  _alive */\n      dup1\n        /* \"contracts/proxy/Proxy.sol\":5388:5447  if (_alive) proxyImplementation[_index] = newImplementation */\n      iszero\n      tag_368\n      jumpi\n        /* \"contracts/proxy/Proxy.sol\":5400:5427  proxyImplementation[_index] */\n      0x00\n      dup3\n      dup2\n      mstore\n        /* \"contracts/proxy/Proxy.sol\":5400:5419  proxyImplementation */\n      0x01\n        /* \"contracts/proxy/Proxy.sol\":5400:5427  proxyImplementation[_index] */\n      0x20\n      mstore\n      0x40\n      swap1\n      keccak256\n        /* \"contracts/proxy/Proxy.sol\":5400:5447  proxyImplementation[_index] = newImplementation */\n      dup1\n      sload\n      not(sub(shl(0xa0, 0x01), 0x01))\n      and\n      sub(shl(0xa0, 0x01), 0x01)\n      dup6\n      and\n      or\n      swap1\n      sstore\n        /* \"contracts/proxy/Proxy.sol\":5388:5447  if (_alive) proxyImplementation[_index] = newImplementation */\n    tag_368:\n        /* \"contracts/proxy/Proxy.sol\":5457:5508  _setAliveImplementation2(newImplementation, _alive) */\n      tag_212\n        /* \"contracts/proxy/Proxy.sol\":5482:5499  newImplementation */\n      dup4\n        /* \"contracts/proxy/Proxy.sol\":5501:5507  _alive */\n      dup3\n        /* \"contracts/proxy/Proxy.sol\":5672:5895  function _setAliveImplementation2(address newImplementation, bool _alive)... */\n    tag_291:\n      sub(shl(0xa0, 0x01), 0x01)\n        /* \"contracts/proxy/Proxy.sol\":5777:5815  aliveImplementation[newImplementation] */\n      dup3\n      and\n      0x00\n      dup2\n      dup2\n      mstore\n        /* \"contracts/proxy/Proxy.sol\":5777:5796  aliveImplementation */\n      0x02\n        /* \"contracts/proxy/Proxy.sol\":5777:5815  aliveImplementation[newImplementation] */\n      0x20\n      swap1\n      dup2\n      mstore\n      0x40\n      swap2\n      dup3\n      swap1\n      keccak256\n        /* \"contracts/proxy/Proxy.sol\":5777:5824  aliveImplementation[newImplementation] = _alive */\n      dup1\n      sload\n      not(0xff)\n      and\n      dup6\n      iszero\n      iszero\n      swap1\n      dup2\n      or\n      swap1\n      swap2\n      sstore\n        /* \"contracts/proxy/Proxy.sol\":5839:5888  SetAliveImplementation(newImplementation, _alive) */\n      swap2\n      mload\n        /* \"#utility.yul\":445:486   */\n      swap2\n      dup3\n      mstore\n        /* \"contracts/proxy/Proxy.sol\":5839:5888  SetAliveImplementation(newImplementation, _alive) */\n      0x72558d9bfba4210f9ef095c782589484151f6d90f7a81bb3cb9b33efc695d324\n      swap2\n        /* \"#utility.yul\":418:436   */\n      add\n        /* \"contracts/proxy/Proxy.sol\":5839:5888  SetAliveImplementation(newImplementation, _alive) */\n      mload(0x40)\n      dup1\n      swap2\n      sub\n      swap1\n      log2\n        /* \"contracts/proxy/Proxy.sol\":5672:5895  function _setAliveImplementation2(address newImplementation, bool _alive)... */\n      pop\n      pop\n      jump\t// out\n        /* \"@openzeppelin/contracts/access/AccessControl.sol\":3432:3629  function _checkRole(bytes32 role, address account) internal view virtual {... */\n    tag_349:\n        /* \"@openzeppelin/contracts/access/AccessControl.sol\":3520:3542  hasRole(role, account) */\n      tag_373\n        /* \"@openzeppelin/contracts/access/AccessControl.sol\":3528:3532  role */\n      dup3\n        /* \"@openzeppelin/contracts/access/AccessControl.sol\":3534:3541  account */\n      dup3\n        /* \"@openzeppelin/contracts/access/AccessControl.sol\":3520:3527  hasRole */\n      tag_169\n        /* \"@openzeppelin/contracts/access/AccessControl.sol\":3520:3542  hasRole(role, account) */\n      jump\t// in\n    tag_373:\n        /* \"@openzeppelin/contracts/access/AccessControl.sol\":3515:3623  if (!hasRole(role, account)) {... */\n      tag_290\n      jumpi\n        /* \"@openzeppelin/contracts/access/AccessControl.sol\":3565:3612  AccessControlUnauthorizedAccount(account, role) */\n      mload(0x40)\n      shl(0xe0, 0xe2517d3f)\n      dup2\n      mstore\n      sub(shl(0xa0, 0x01), 0x01)\n        /* \"#utility.yul\":8810:8842   */\n      dup3\n      and\n        /* \"@openzeppelin/contracts/access/AccessControl.sol\":3565:3612  AccessControlUnauthorizedAccount(account, role) */\n      0x04\n      dup3\n      add\n        /* \"#utility.yul\":8792:8843   */\n      mstore\n        /* \"#utility.yul\":8859:8877   */\n      0x24\n      dup2\n      add\n        /* \"#utility.yul\":8852:8886   */\n      dup4\n      swap1\n      mstore\n        /* \"#utility.yul\":8765:8783   */\n      0x44\n      add\n        /* \"@openzeppelin/contracts/access/AccessControl.sol\":3565:3612  AccessControlUnauthorizedAccount(account, role) */\n      tag_210\n        /* \"#utility.yul\":8618:8892   */\n      jump\n        /* \"#utility.yul\":14:300   */\n    tag_51:\n        /* \"#utility.yul\":72:78   */\n      0x00\n        /* \"#utility.yul\":125:127   */\n      0x20\n        /* \"#utility.yul\":113:122   */\n      dup3\n        /* \"#utility.yul\":104:111   */\n      dup5\n        /* \"#utility.yul\":100:123   */\n      sub\n        /* \"#utility.yul\":96:128   */\n      slt\n        /* \"#utility.yul\":93:145   */\n      iszero\n      tag_382\n      jumpi\n        /* \"#utility.yul\":141:142   */\n      0x00\n        /* \"#utility.yul\":138:139   */\n      dup1\n        /* \"#utility.yul\":131:143   */\n      revert\n        /* \"#utility.yul\":93:145   */\n    tag_382:\n        /* \"#utility.yul\":167:190   */\n      dup2\n      calldataload\n      not(sub(shl(0xe0, 0x01), 0x01))\n        /* \"#utility.yul\":219:251   */\n      dup2\n      and\n        /* \"#utility.yul\":209:252   */\n      dup2\n      eq\n        /* \"#utility.yul\":199:270   */\n      tag_383\n      jumpi\n        /* \"#utility.yul\":266:267   */\n      0x00\n        /* \"#utility.yul\":263:264   */\n      dup1\n        /* \"#utility.yul\":256:268   */\n      revert\n        /* \"#utility.yul\":199:270   */\n    tag_383:\n        /* \"#utility.yul\":289:294   */\n      swap4\n        /* \"#utility.yul\":14:300   */\n      swap3\n      pop\n      pop\n      pop\n      jump\t// out\n        /* \"#utility.yul\":497:670   */\n    tag_378:\n        /* \"#utility.yul\":565:585   */\n      dup1\n      calldataload\n      sub(shl(0xa0, 0x01), 0x01)\n        /* \"#utility.yul\":614:645   */\n      dup2\n      and\n        /* \"#utility.yul\":604:646   */\n      dup2\n      eq\n        /* \"#utility.yul\":594:664   */\n      tag_333\n      jumpi\n        /* \"#utility.yul\":660:661   */\n      0x00\n        /* \"#utility.yul\":657:658   */\n      dup1\n        /* \"#utility.yul\":650:662   */\n      revert\n        /* \"#utility.yul\":675:861   */\n    tag_58:\n        /* \"#utility.yul\":734:740   */\n      0x00\n        /* \"#utility.yul\":787:789   */\n      0x20\n        /* \"#utility.yul\":775:784   */\n      dup3\n        /* \"#utility.yul\":766:773   */\n      dup5\n        /* \"#utility.yul\":762:785   */\n      sub\n        /* \"#utility.yul\":758:790   */\n      slt\n        /* \"#utility.yul\":755:807   */\n      iszero\n      tag_388\n      jumpi\n        /* \"#utility.yul\":803:804   */\n      0x00\n        /* \"#utility.yul\":800:801   */\n      dup1\n        /* \"#utility.yul\":793:805   */\n      revert\n        /* \"#utility.yul\":755:807   */\n    tag_388:\n        /* \"#utility.yul\":826:855   */\n      tag_383\n        /* \"#utility.yul\":845:854   */\n      dup3\n        /* \"#utility.yul\":826:855   */\n      tag_378\n      jump\t// in\n        /* \"#utility.yul\":866:1046   */\n    tag_63:\n        /* \"#utility.yul\":925:931   */\n      0x00\n        /* \"#utility.yul\":978:980   */\n      0x20\n        /* \"#utility.yul\":966:975   */\n      dup3\n        /* \"#utility.yul\":957:964   */\n      dup5\n        /* \"#utility.yul\":953:976   */\n      sub\n        /* \"#utility.yul\":949:981   */\n      slt\n        /* \"#utility.yul\":946:998   */\n      iszero\n      tag_391\n      jumpi\n        /* \"#utility.yul\":994:995   */\n      0x00\n        /* \"#utility.yul\":991:992   */\n      dup1\n        /* \"#utility.yul\":984:996   */\n      revert\n        /* \"#utility.yul\":946:998   */\n    tag_391:\n      pop\n        /* \"#utility.yul\":1017:1040   */\n      calldataload\n      swap2\n        /* \"#utility.yul\":866:1046   */\n      swap1\n      pop\n      jump\t// out\n        /* \"#utility.yul\":1441:1695   */\n    tag_85:\n        /* \"#utility.yul\":1509:1515   */\n      0x00\n        /* \"#utility.yul\":1517:1523   */\n      dup1\n        /* \"#utility.yul\":1570:1572   */\n      0x40\n        /* \"#utility.yul\":1558:1567   */\n      dup4\n        /* \"#utility.yul\":1549:1556   */\n      dup6\n        /* \"#utility.yul\":1545:1568   */\n      sub\n        /* \"#utility.yul\":1541:1573   */\n      slt\n        /* \"#utility.yul\":1538:1590   */\n      iszero\n      tag_395\n      jumpi\n        /* \"#utility.yul\":1586:1587   */\n      0x00\n        /* \"#utility.yul\":1583:1584   */\n      dup1\n        /* \"#utility.yul\":1576:1588   */\n      revert\n        /* \"#utility.yul\":1538:1590   */\n    tag_395:\n        /* \"#utility.yul\":1622:1631   */\n      dup3\n        /* \"#utility.yul\":1609:1632   */\n      calldataload\n        /* \"#utility.yul\":1599:1632   */\n      swap2\n      pop\n        /* \"#utility.yul\":1651:1689   */\n      tag_396\n        /* \"#utility.yul\":1685:1687   */\n      0x20\n        /* \"#utility.yul\":1674:1683   */\n      dup5\n        /* \"#utility.yul\":1670:1688   */\n      add\n        /* \"#utility.yul\":1651:1689   */\n      tag_378\n      jump\t// in\n    tag_396:\n        /* \"#utility.yul\":1641:1689   */\n      swap1\n      pop\n        /* \"#utility.yul\":1441:1695   */\n      swap3\n      pop\n      swap3\n      swap1\n      pop\n      jump\t// out\n        /* \"#utility.yul\":1700:2394   */\n    tag_98:\n        /* \"#utility.yul\":1794:1800   */\n      0x00\n        /* \"#utility.yul\":1802:1808   */\n      dup1\n        /* \"#utility.yul\":1810:1816   */\n      0x00\n        /* \"#utility.yul\":1863:1865   */\n      0x40\n        /* \"#utility.yul\":1851:1860   */\n      dup5\n        /* \"#utility.yul\":1842:1849   */\n      dup7\n        /* \"#utility.yul\":1838:1861   */\n      sub\n        /* \"#utility.yul\":1834:1866   */\n      slt\n        /* \"#utility.yul\":1831:1883   */\n      iszero\n      tag_398\n      jumpi\n        /* \"#utility.yul\":1879:1880   */\n      0x00\n        /* \"#utility.yul\":1876:1877   */\n      dup1\n        /* \"#utility.yul\":1869:1881   */\n      revert\n        /* \"#utility.yul\":1831:1883   */\n    tag_398:\n        /* \"#utility.yul\":1919:1928   */\n      dup4\n        /* \"#utility.yul\":1906:1929   */\n      calldataload\n        /* \"#utility.yul\":1948:1966   */\n      0xffffffffffffffff\n        /* \"#utility.yul\":1989:1991   */\n      dup1\n        /* \"#utility.yul\":1981:1987   */\n      dup3\n        /* \"#utility.yul\":1978:1992   */\n      gt\n        /* \"#utility.yul\":1975:2009   */\n      iszero\n      tag_399\n      jumpi\n        /* \"#utility.yul\":2005:2006   */\n      0x00\n        /* \"#utility.yul\":2002:2003   */\n      dup1\n        /* \"#utility.yul\":1995:2007   */\n      revert\n        /* \"#utility.yul\":1975:2009   */\n    tag_399:\n        /* \"#utility.yul\":2043:2049   */\n      dup2\n        /* \"#utility.yul\":2032:2041   */\n      dup7\n        /* \"#utility.yul\":2028:2050   */\n      add\n        /* \"#utility.yul\":2018:2050   */\n      swap2\n      pop\n        /* \"#utility.yul\":2088:2095   */\n      dup7\n        /* \"#utility.yul\":2081:2085   */\n      0x1f\n        /* \"#utility.yul\":2077:2079   */\n      dup4\n        /* \"#utility.yul\":2073:2086   */\n      add\n        /* \"#utility.yul\":2069:2096   */\n      slt\n        /* \"#utility.yul\":2059:2114   */\n      tag_400\n      jumpi\n        /* \"#utility.yul\":2110:2111   */\n      0x00\n        /* \"#utility.yul\":2107:2108   */\n      dup1\n        /* \"#utility.yul\":2100:2112   */\n      revert\n        /* \"#utility.yul\":2059:2114   */\n    tag_400:\n        /* \"#utility.yul\":2150:2152   */\n      dup2\n        /* \"#utility.yul\":2137:2153   */\n      calldataload\n        /* \"#utility.yul\":2176:2178   */\n      dup2\n        /* \"#utility.yul\":2168:2174   */\n      dup2\n        /* \"#utility.yul\":2165:2179   */\n      gt\n        /* \"#utility.yul\":2162:2196   */\n      iszero\n      tag_401\n      jumpi\n        /* \"#utility.yul\":2192:2193   */\n      0x00\n        /* \"#utility.yul\":2189:2190   */\n      dup1\n        /* \"#utility.yul\":2182:2194   */\n      revert\n        /* \"#utility.yul\":2162:2196   */\n    tag_401:\n        /* \"#utility.yul\":2247:2254   */\n      dup8\n        /* \"#utility.yul\":2240:2244   */\n      0x20\n        /* \"#utility.yul\":2230:2236   */\n      dup3\n        /* \"#utility.yul\":2227:2228   */\n      0x05\n        /* \"#utility.yul\":2223:2237   */\n      shl\n        /* \"#utility.yul\":2219:2221   */\n      dup6\n        /* \"#utility.yul\":2215:2238   */\n      add\n        /* \"#utility.yul\":2211:2245   */\n      add\n        /* \"#utility.yul\":2208:2255   */\n      gt\n        /* \"#utility.yul\":2205:2272   */\n      iszero\n      tag_402\n      jumpi\n        /* \"#utility.yul\":2268:2269   */\n      0x00\n        /* \"#utility.yul\":2265:2266   */\n      dup1\n        /* \"#utility.yul\":2258:2270   */\n      revert\n        /* \"#utility.yul\":2205:2272   */\n    tag_402:\n        /* \"#utility.yul\":2299:2303   */\n      0x20\n        /* \"#utility.yul\":2291:2304   */\n      swap3\n      dup4\n      add\n      swap6\n      pop\n        /* \"#utility.yul\":2323:2329   */\n      swap4\n      pop\n        /* \"#utility.yul\":2348:2388   */\n      tag_403\n      swap2\n        /* \"#utility.yul\":2367:2387   */\n      dup7\n      add\n      swap1\n      pop\n        /* \"#utility.yul\":2348:2388   */\n      tag_378\n      jump\t// in\n    tag_403:\n        /* \"#utility.yul\":2338:2388   */\n      swap1\n      pop\n        /* \"#utility.yul\":1700:2394   */\n      swap3\n      pop\n      swap3\n      pop\n      swap3\n      jump\t// out\n        /* \"#utility.yul\":2399:2559   */\n    tag_379:\n        /* \"#utility.yul\":2464:2484   */\n      dup1\n      calldataload\n        /* \"#utility.yul\":2520:2533   */\n      dup1\n      iszero\n        /* \"#utility.yul\":2513:2534   */\n      iszero\n        /* \"#utility.yul\":2503:2535   */\n      dup2\n      eq\n        /* \"#utility.yul\":2493:2553   */\n      tag_333\n      jumpi\n        /* \"#utility.yul\":2549:2550   */\n      0x00\n        /* \"#utility.yul\":2546:2547   */\n      dup1\n        /* \"#utility.yul\":2539:2551   */\n      revert\n        /* \"#utility.yul\":2564:2818   */\n    tag_117:\n        /* \"#utility.yul\":2629:2635   */\n      0x00\n        /* \"#utility.yul\":2637:2643   */\n      dup1\n        /* \"#utility.yul\":2690:2692   */\n      0x40\n        /* \"#utility.yul\":2678:2687   */\n      dup4\n        /* \"#utility.yul\":2669:2676   */\n      dup6\n        /* \"#utility.yul\":2665:2688   */\n      sub\n        /* \"#utility.yul\":2661:2693   */\n      slt\n        /* \"#utility.yul\":2658:2710   */\n      iszero\n      tag_407\n      jumpi\n        /* \"#utility.yul\":2706:2707   */\n      0x00\n        /* \"#utility.yul\":2703:2704   */\n      dup1\n        /* \"#utility.yul\":2696:2708   */\n      revert\n        /* \"#utility.yul\":2658:2710   */\n    tag_407:\n        /* \"#utility.yul\":2729:2758   */\n      tag_408\n        /* \"#utility.yul\":2748:2757   */\n      dup4\n        /* \"#utility.yul\":2729:2758   */\n      tag_378\n      jump\t// in\n    tag_408:\n        /* \"#utility.yul\":2719:2758   */\n      swap2\n      pop\n        /* \"#utility.yul\":2777:2812   */\n      tag_396\n        /* \"#utility.yul\":2808:2810   */\n      0x20\n        /* \"#utility.yul\":2797:2806   */\n      dup5\n        /* \"#utility.yul\":2793:2811   */\n      add\n        /* \"#utility.yul\":2777:2812   */\n      tag_379\n      jump\t// in\n        /* \"#utility.yul\":3082:3262   */\n    tag_143:\n        /* \"#utility.yul\":3138:3144   */\n      0x00\n        /* \"#utility.yul\":3191:3193   */\n      0x20\n        /* \"#utility.yul\":3179:3188   */\n      dup3\n        /* \"#utility.yul\":3170:3177   */\n      dup5\n        /* \"#utility.yul\":3166:3189   */\n      sub\n        /* \"#utility.yul\":3162:3194   */\n      slt\n        /* \"#utility.yul\":3159:3211   */\n      iszero\n      tag_414\n      jumpi\n        /* \"#utility.yul\":3207:3208   */\n      0x00\n        /* \"#utility.yul\":3204:3205   */\n      dup1\n        /* \"#utility.yul\":3197:3209   */\n      revert\n        /* \"#utility.yul\":3159:3211   */\n    tag_414:\n        /* \"#utility.yul\":3230:3256   */\n      tag_383\n        /* \"#utility.yul\":3246:3255   */\n      dup3\n        /* \"#utility.yul\":3230:3256   */\n      tag_379\n      jump\t// in\n        /* \"#utility.yul\":3267:3589   */\n    tag_148:\n        /* \"#utility.yul\":3341:3347   */\n      0x00\n        /* \"#utility.yul\":3349:3355   */\n      dup1\n        /* \"#utility.yul\":3357:3363   */\n      0x00\n        /* \"#utility.yul\":3410:3412   */\n      0x60\n        /* \"#utility.yul\":3398:3407   */\n      dup5\n        /* \"#utility.yul\":3389:3396   */\n      dup7\n        /* \"#utility.yul\":3385:3408   */\n      sub\n        /* \"#utility.yul\":3381:3413   */\n      slt\n        /* \"#utility.yul\":3378:3430   */\n      iszero\n      tag_417\n      jumpi\n        /* \"#utility.yul\":3426:3427   */\n      0x00\n        /* \"#utility.yul\":3423:3424   */\n      dup1\n        /* \"#utility.yul\":3416:3428   */\n      revert\n        /* \"#utility.yul\":3378:3430   */\n    tag_417:\n        /* \"#utility.yul\":3449:3478   */\n      tag_418\n        /* \"#utility.yul\":3468:3477   */\n      dup5\n        /* \"#utility.yul\":3449:3478   */\n      tag_378\n      jump\t// in\n    tag_418:\n        /* \"#utility.yul\":3439:3478   */\n      swap3\n      pop\n        /* \"#utility.yul\":3525:3527   */\n      0x20\n        /* \"#utility.yul\":3514:3523   */\n      dup5\n        /* \"#utility.yul\":3510:3528   */\n      add\n        /* \"#utility.yul\":3497:3529   */\n      calldataload\n        /* \"#utility.yul\":3487:3529   */\n      swap2\n      pop\n        /* \"#utility.yul\":3548:3583   */\n      tag_403\n        /* \"#utility.yul\":3579:3581   */\n      0x40\n        /* \"#utility.yul\":3568:3577   */\n      dup6\n        /* \"#utility.yul\":3564:3582   */\n      add\n        /* \"#utility.yul\":3548:3583   */\n      tag_379\n      jump\t// in\n        /* \"#utility.yul\":3779:4257   */\n    tag_183:\n        /* \"#utility.yul\":3874:3880   */\n      0x00\n        /* \"#utility.yul\":3882:3888   */\n      dup1\n        /* \"#utility.yul\":3890:3896   */\n      0x00\n        /* \"#utility.yul\":3898:3904   */\n      dup1\n        /* \"#utility.yul\":3906:3912   */\n      0x00\n        /* \"#utility.yul\":3959:3962   */\n      0xa0\n        /* \"#utility.yul\":3947:3956   */\n      dup7\n        /* \"#utility.yul\":3938:3945   */\n      dup9\n        /* \"#utility.yul\":3934:3957   */\n      sub\n        /* \"#utility.yul\":3930:3963   */\n      slt\n        /* \"#utility.yul\":3927:3980   */\n      iszero\n      tag_423\n      jumpi\n        /* \"#utility.yul\":3976:3977   */\n      0x00\n        /* \"#utility.yul\":3973:3974   */\n      dup1\n        /* \"#utility.yul\":3966:3978   */\n      revert\n        /* \"#utility.yul\":3927:3980   */\n    tag_423:\n        /* \"#utility.yul\":3999:4028   */\n      tag_424\n        /* \"#utility.yul\":4018:4027   */\n      dup7\n        /* \"#utility.yul\":3999:4028   */\n      tag_378\n      jump\t// in\n    tag_424:\n        /* \"#utility.yul\":3989:4028   */\n      swap5\n      pop\n        /* \"#utility.yul\":4047:4085   */\n      tag_425\n        /* \"#utility.yul\":4081:4083   */\n      0x20\n        /* \"#utility.yul\":4070:4079   */\n      dup8\n        /* \"#utility.yul\":4066:4084   */\n      add\n        /* \"#utility.yul\":4047:4085   */\n      tag_378\n      jump\t// in\n    tag_425:\n        /* \"#utility.yul\":4037:4085   */\n      swap4\n      pop\n        /* \"#utility.yul\":4104:4142   */\n      tag_426\n        /* \"#utility.yul\":4138:4140   */\n      0x40\n        /* \"#utility.yul\":4127:4136   */\n      dup8\n        /* \"#utility.yul\":4123:4141   */\n      add\n        /* \"#utility.yul\":4104:4142   */\n      tag_378\n      jump\t// in\n    tag_426:\n        /* \"#utility.yul\":4094:4142   */\n      swap3\n      pop\n        /* \"#utility.yul\":4161:4199   */\n      tag_427\n        /* \"#utility.yul\":4195:4197   */\n      0x60\n        /* \"#utility.yul\":4184:4193   */\n      dup8\n        /* \"#utility.yul\":4180:4198   */\n      add\n        /* \"#utility.yul\":4161:4199   */\n      tag_378\n      jump\t// in\n    tag_427:\n        /* \"#utility.yul\":3779:4257   */\n      swap5\n      swap8\n      swap4\n      swap7\n      pop\n      swap2\n      swap5\n        /* \"#utility.yul\":4246:4249   */\n      0x80\n        /* \"#utility.yul\":4231:4250   */\n      add\n        /* \"#utility.yul\":4218:4251   */\n      calldataload\n      swap3\n        /* \"#utility.yul\":3779:4257   */\n      swap2\n      pop\n      pop\n      jump\t// out\n        /* \"#utility.yul\":5272:5670   */\n    tag_222:\n        /* \"#utility.yul\":5474:5476   */\n      0x20\n        /* \"#utility.yul\":5456:5477   */\n      dup1\n      dup3\n      mstore\n        /* \"#utility.yul\":5513:5515   */\n      0x22\n        /* \"#utility.yul\":5493:5511   */\n      swap1\n      dup3\n      add\n        /* \"#utility.yul\":5486:5516   */\n      mstore\n        /* \"#utility.yul\":5552:5586   */\n      0x41636365737369626c653a2043616c6c6572206973206e6f7420616e2061646d\n        /* \"#utility.yul\":5547:5549   */\n      0x40\n        /* \"#utility.yul\":5532:5550   */\n      dup3\n      add\n        /* \"#utility.yul\":5525:5587   */\n      mstore\n      shl(0xf1, 0x34b7)\n        /* \"#utility.yul\":5618:5620   */\n      0x60\n        /* \"#utility.yul\":5603:5621   */\n      dup3\n      add\n        /* \"#utility.yul\":5596:5628   */\n      mstore\n        /* \"#utility.yul\":5660:5663   */\n      0x80\n        /* \"#utility.yul\":5645:5664   */\n      add\n      swap1\n        /* \"#utility.yul\":5272:5670   */\n      jump\t// out\n        /* \"#utility.yul\":7068:7195   */\n    tag_272:\n        /* \"#utility.yul\":7129:7139   */\n      0x4e487b71\n        /* \"#utility.yul\":7124:7127   */\n      0xe0\n        /* \"#utility.yul\":7120:7140   */\n      shl\n        /* \"#utility.yul\":7117:7118   */\n      0x00\n        /* \"#utility.yul\":7110:7141   */\n      mstore\n        /* \"#utility.yul\":7160:7164   */\n      0x32\n        /* \"#utility.yul\":7157:7158   */\n      0x04\n        /* \"#utility.yul\":7150:7165   */\n      mstore\n        /* \"#utility.yul\":7184:7188   */\n      0x24\n        /* \"#utility.yul\":7181:7182   */\n      0x00\n        /* \"#utility.yul\":7174:7189   */\n      revert\n    stop\n    data_0eb5be412f275a18f6e4d622aee4ff40b21467c926224771b782d4c095d1444b a6eef7e35abe7026729641147f7915573c7e97b47efa546f5f6e3230263bcb49\n    data_a29c3f0504a76c686875ea2f0fc314af702d3407223f14a34325f35a1858bd3b df8b4c520ffe197c5343c6f5aec59570151ef9a492f2c624fd45ddde6135ec42\n\n    auxdata: 0xa26469706673582212200e2af590dd3ff8f8e94bbc05e06c70515ecc5bc966096587180110b162a4f3b764736f6c63430008180033\n}\n",
				"bytecode": {
					"linkReferences": {},
					"object": "608060405234801561000f575f80fd5b506100285f805160206200164283398151915280610046565b6100405f805160206200164283398151915233610090565b5061013d565b5f82815260046020526040808220600101805490849055905190918391839186917fbd79b86ffe0ab8e8776151514217cd7cacd52c909f66475c3af44e129f0b00ff9190a4505050565b5f8281526004602090815260408083206001600160a01b038516845290915281205460ff16610134575f8381526004602090815260408083206001600160a01b03861684529091529020805460ff191660011790556100ec3390565b6001600160a01b0316826001600160a01b0316847f2f8788117e7eff1d82e926ec794901d17c78024a50270940304540a733656f0d60405160405180910390a4506001610137565b505f5b92915050565b6114f7806200014b5f395ff3fe6080604052600436106101e6575f3560e01c8063704802751161010157806391d1485411610094578063b911135f11610063578063b911135f14610616578063d547741f1461064a578063daf380bf14610669578063e59f69c214610694576101ed565b806391d1485414610597578063a217fddf146105b6578063ab01fac0146105c9578063ad084c9e146105f7576101ed565b80637cd5f663116100d05780637cd5f663146105065780638b41f3ab146105255780638b8f4a65146105595780638d4fdb4014610578576101ed565b8063704802751461048957806375829def146104a857806375b238fc146104c75780637cb00d25146104e7576101ed565b80633659cfe6116101795780635c60da1b116101485780635c60da1b146104025780635cc797d81461043357806363a8fd89146104525780636ecfae001461046a576101ed565b80633659cfe6146103625780634a5df50f1461038157806350d2a276146103a0578063550d01a3146103d4576101ed565b8063248a9ca3116101b5578063248a9ca3146102d757806324d7806c146103055780632f2ff15d1461032457806336568abe14610343576101ed565b806301ffc9a7146101f75780631785f53c1461022b578063178694b71461024a5780632298524614610296576101ed565b366101ed57005b6101f5610718565b005b348015610202575f80fd5b50610216610211366004611238565b6107bd565b60405190151581526020015b60405180910390f35b348015610236575f80fd5b506101f561024536600461127c565b6107f3565b348015610255575f80fd5b5061027e610264366004611295565b60076020525f90815260409020546001600160a01b031681565b6040516001600160a01b039091168152602001610222565b3480156102a1575f80fd5b506102c97ffb5864e8ff833c3cb2d2d08505e82ff02a43554c74a35d4f5a64e8526127831181565b604051908152602001610222565b3480156102e2575f80fd5b506102c96102f1366004611295565b5f9081526004602052604090206001015490565b348015610310575f80fd5b5061021661031f36600461127c565b610832565b34801561032f575f80fd5b506101f561033e3660046112ac565b61084a565b34801561034e575f80fd5b506101f561035d3660046112ac565b610874565b34801561036d575f80fd5b506101f561037c36600461127c565b6108a7565b34801561038c575f80fd5b506101f561039b3660046112d6565b6109b1565b3480156103ab575f80fd5b5061027e6103ba366004611238565b60036020525f90815260409020546001600160a01b031681565b3480156103df575f80fd5b506102166103ee36600461127c565b60026020525f908152604090205460ff1681565b34801561040d575f80fd5b505f805260016020525f80516020611482833981519152546001600160a01b031661027e565b34801561043e575f80fd5b506101f561044d366004611362565b610bfd565b34801561045d575f80fd5b505f546102169060ff1681565b348015610475575f80fd5b506101f56104843660046112ac565b610c30565b348015610494575f80fd5b506101f56104a336600461127c565b610c82565b3480156104b3575f80fd5b506101f56104c236600461127c565b610cbe565b3480156104d2575f80fd5b506102c95f805160206114a283398151915281565b3480156104f2575f80fd5b506101f561050136600461138a565b610db8565b348015610511575f80fd5b506101f56105203660046113a3565b610def565b348015610530575f80fd5b5061027e61053f366004611295565b60086020525f90815260409020546001600160a01b031681565b348015610564575f80fd5b5061027e610573366004611295565b610e1f565b348015610583575f80fd5b5061027e610592366004611238565b610e3b565b3480156105a2575f80fd5b506102166105b13660046112ac565b610f0c565b3480156105c1575f80fd5b506102c95f81565b3480156105d4575f80fd5b506102166105e3366004611295565b60066020525f908152604090205460ff1681565b348015610602575f80fd5b506101f56106113660046113d3565b610f36565b348015610621575f80fd5b5061027e610630366004611295565b60016020525f90815260409020546001600160a01b031681565b348015610655575f80fd5b506101f56106643660046112ac565b610fed565b348015610674575f80fd5b506102c9610683366004611295565b60096020525f908152604090205481565b34801561069f575f80fd5b506106e56106ae366004611295565b600a6020525f908152604090208054600182015460028301546003909301546001600160a01b039283169391831692918216911684565b604080516001600160a01b0395861681529385166020850152918416918301919091529091166060820152608001610222565b5f61072d5f356001600160e01b031916610e3b565b90506001600160a01b0381161580159061074957505f5460ff16155b61079a5760405162461bcd60e51b815260206004820152601d60248201527f50726f78793a20696d706c204f522070726f78792069732066616c736500000060448201526064015b60405180910390fd5b365f80375f80365f845af43d5f803e8080156107b4573d5ff35b3d5ffd5b505050565b5f6001600160e01b03198216637965db0b60e01b14806107ed57506301ffc9a760e01b6001600160e01b03198316145b92915050565b6107fc33610832565b6108185760405162461bcd60e51b81526004016107919061142b565b61082f5f805160206114a283398151915282610874565b50565b5f6107ed5f805160206114a283398151915283610f0c565b5f8281526004602052604090206001015461086481611011565b61086e838361101b565b50505050565b6001600160a01b038116331461089d5760405163334bd91960e11b815260040160405180910390fd5b6107b882826110ac565b6108b033610832565b6108cc5760405162461bcd60e51b81526004016107919061142b565b6001600160a01b0381166109125760405162461bcd60e51b815260206004820152600d60248201526c696e707574206973207a65726f60981b6044820152606401610791565b5f805260016020525f80516020611482833981519152546001600160a01b0382811691160361096f5760405162461bcd60e51b815260206004820152600960248201526839b0b6b29030b2323960b91b6044820152606401610791565b61097b815f6001611117565b6040516001600160a01b038216907fbc7cd75a20ee27fd9adebab32041f755214dbc6bffa90cc0225b39da2e5c2d3b905f90a250565b6109ba33610832565b6109d65760405162461bcd60e51b81526004016107919061142b565b81610a235760405162461bcd60e51b815260206004820181905260248201527f50726f78793a205f73656c6563746f727327732073697a65206973207a65726f6044820152606401610791565b6001600160a01b0381165f9081526002602052604090205460ff16610a8a5760405162461bcd60e51b815260206004820152601860248201527f50726f78793a205f696d70206973206e6f7420616c69766500000000000000006044820152606401610791565b5f5b8281101561086e57816001600160a01b031660035f868685818110610ab357610ab361146d565b9050602002016020810190610ac89190611238565b6001600160e01b031916815260208101919091526040015f20546001600160a01b031603610b385760405162461bcd60e51b815260206004820152601d60248201527f4c69717569646974795661756c7450726f78793a2073616d6520696d700000006044820152606401610791565b8160035f868685818110610b4e57610b4e61146d565b9050602002016020810190610b639190611238565b6001600160e01b031916815260208101919091526040015f2080546001600160a01b0319166001600160a01b039283161790558216848483818110610baa57610baa61146d565b9050602002016020810190610bbf9190611238565b6001600160e01b0319167f14ebc1c32aa68f4d766e89f3e546cee249f7df25183fc10ab1568d91c2ce9b7b60405160405180910390a3600101610a8c565b610c0633610832565b610c225760405162461bcd60e51b81526004016107919061142b565b610c2c82826111a1565b5050565b610c3933610832565b610c555760405162461bcd60e51b81526004016107919061142b565b5f9182526005602052604090912080546001600160a01b0319166001600160a01b03909216919091179055565b610c8b33610832565b610ca75760405162461bcd60e51b81526004016107919061142b565b61082f5f805160206114a28339815191528261084a565b610cc733610832565b610ce35760405162461bcd60e51b81526004016107919061142b565b6001600160a01b038116610d395760405162461bcd60e51b815260206004820152601860248201527f41636365737369626c653a207a65726f206164647265737300000000000000006044820152606401610791565b6001600160a01b0381163303610d8a5760405162461bcd60e51b815260206004820152601660248201527520b1b1b2b9b9b4b136329d1039b0b6b29030b236b4b760511b6044820152606401610791565b610da15f805160206114a28339815191528261084a565b61082f5f805160206114a283398151915233610874565b610dc133610832565b610ddd5760405162461bcd60e51b81526004016107919061142b565b5f805460ff1916911515919091179055565b610df833610832565b610e145760405162461bcd60e51b81526004016107919061142b565b6107b8838383611117565b5f818152600160205260408120546001600160a01b03166107ed565b6001600160e01b031981165f908152600360205260408120546001600160a01b0316610e865750505f805260016020525f80516020611482833981519152546001600160a01b031690565b6001600160e01b031982165f908152600360209081526040808320546001600160a01b03168352600290915290205460ff1615610ee257506001600160e01b0319165f908152600360205260409020546001600160a01b031690565b50505f805260016020525f80516020611482833981519152546001600160a01b031690565b919050565b5f9182526004602090815260408084206001600160a01b0393909316845291905290205460ff1690565b610f3f33610832565b610f5b5760405162461bcd60e51b81526004016107919061142b565b604080516080810182526001600160a01b0396871681529486166020808701918252948716868301908152938716606087019081525f938452600a9095529120935184549086166001600160a01b031991821617855590516001850180549187169183169190911790559051600284018054918616918316919091179055905160039092018054929093169116179055565b5f8281526004602052604090206001015461100781611011565b61086e83836110ac565b61082f81336111ff565b5f6110268383610f0c565b6110a5575f8381526004602090815260408083206001600160a01b03861684529091529020805460ff1916600117905561105d3390565b6001600160a01b0316826001600160a01b0316847f2f8788117e7eff1d82e926ec794901d17c78024a50270940304540a733656f0d60405160405180910390a45060016107ed565b505f6107ed565b5f6110b78383610f0c565b156110a5575f8381526004602090815260408083206001600160a01b0386168085529252808320805460ff1916905551339286917ff6391f5c32d9c69d2a47ea670b442974b53935d1edc7fd64eb21e047a839171b9190a45060016107ed565b6001600160a01b0383163b61116e5760405162461bcd60e51b815260206004820152601b60248201527f50726f78793a206e6f7420636f6e7472616374206164647265737300000000006044820152606401610791565b801561119b575f82815260016020526040902080546001600160a01b0319166001600160a01b0385161790555b6107b883825b6001600160a01b0382165f81815260026020908152604091829020805460ff191685151590811790915591519182527f72558d9bfba4210f9ef095c782589484151f6d90f7a81bb3cb9b33efc695d324910160405180910390a25050565b6112098282610f0c565b610c2c5760405163e2517d3f60e01b81526001600160a01b038216600482015260248101839052604401610791565b5f60208284031215611248575f80fd5b81356001600160e01b03198116811461125f575f80fd5b9392505050565b80356001600160a01b0381168114610f07575f80fd5b5f6020828403121561128c575f80fd5b61125f82611266565b5f602082840312156112a5575f80fd5b5035919050565b5f80604083850312156112bd575f80fd5b823591506112cd60208401611266565b90509250929050565b5f805f604084860312156112e8575f80fd5b833567ffffffffffffffff808211156112ff575f80fd5b818601915086601f830112611312575f80fd5b813581811115611320575f80fd5b8760208260051b8501011115611334575f80fd5b60209283019550935061134a9186019050611266565b90509250925092565b80358015158114610f07575f80fd5b5f8060408385031215611373575f80fd5b61137c83611266565b91506112cd60208401611353565b5f6020828403121561139a575f80fd5b61125f82611353565b5f805f606084860312156113b5575f80fd5b6113be84611266565b92506020840135915061134a60408501611353565b5f805f805f60a086880312156113e7575f80fd5b6113f086611266565b94506113fe60208701611266565b935061140c60408701611266565b925061141a60608701611266565b949793965091946080013592915050565b60208082526022908201527f41636365737369626c653a2043616c6c6572206973206e6f7420616e2061646d60408201526134b760f11b606082015260800190565b634e487b7160e01b5f52603260045260245ffdfea6eef7e35abe7026729641147f7915573c7e97b47efa546f5f6e3230263bcb49df8b4c520ffe197c5343c6f5aec59570151ef9a492f2c624fd45ddde6135ec42a26469706673582212200e2af590dd3ff8f8e94bbc05e06c70515ecc5bc966096587180110b162a4f3b764736f6c63430008180033df8b4c520ffe197c5343c6f5aec59570151ef9a492f2c624fd45ddde6135ec42",
					"opcodes": "PUSH1 0x80 PUSH1 0x40 MSTORE CALLVALUE DUP1 ISZERO PUSH2 0xF JUMPI PUSH0 DUP1 REVERT JUMPDEST POP PUSH2 0x28 PUSH0 DUP1 MLOAD PUSH1 0x20 PUSH3 0x1642 DUP4 CODECOPY DUP2 MLOAD SWAP2 MSTORE DUP1 PUSH2 0x46 JUMP JUMPDEST PUSH2 0x40 PUSH0 DUP1 MLOAD PUSH1 0x20 PUSH3 0x1642 DUP4 CODECOPY DUP2 MLOAD SWAP2 MSTORE CALLER PUSH2 0x90 JUMP JUMPDEST POP PUSH2 0x13D JUMP JUMPDEST PUSH0 DUP3 DUP2 MSTORE PUSH1 0x4 PUSH1 0x20 MSTORE PUSH1 0x40 DUP1 DUP3 KECCAK256 PUSH1 0x1 ADD DUP1 SLOAD SWAP1 DUP5 SWAP1 SSTORE SWAP1 MLOAD SWAP1 SWAP2 DUP4 SWAP2 DUP4 SWAP2 DUP7 SWAP2 PUSH32 0xBD79B86FFE0AB8E8776151514217CD7CACD52C909F66475C3AF44E129F0B00FF SWAP2 SWAP1 LOG4 POP POP POP JUMP JUMPDEST PUSH0 DUP3 DUP2 MSTORE PUSH1 0x4 PUSH1 0x20 SWAP1 DUP2 MSTORE PUSH1 0x40 DUP1 DUP4 KECCAK256 PUSH1 0x1 PUSH1 0x1 PUSH1 0xA0 SHL SUB DUP6 AND DUP5 MSTORE SWAP1 SWAP2 MSTORE DUP2 KECCAK256 SLOAD PUSH1 0xFF AND PUSH2 0x134 JUMPI PUSH0 DUP4 DUP2 MSTORE PUSH1 0x4 PUSH1 0x20 SWAP1 DUP2 MSTORE PUSH1 0x40 DUP1 DUP4 KECCAK256 PUSH1 0x1 PUSH1 0x1 PUSH1 0xA0 SHL SUB DUP7 AND DUP5 MSTORE SWAP1 SWAP2 MSTORE SWAP1 KECCAK256 DUP1 SLOAD PUSH1 0xFF NOT AND PUSH1 0x1 OR SWAP1 SSTORE PUSH2 0xEC CALLER SWAP1 JUMP JUMPDEST PUSH1 0x1 PUSH1 0x1 PUSH1 0xA0 SHL SUB AND DUP3 PUSH1 0x1 PUSH1 0x1 PUSH1 0xA0 SHL SUB AND DUP5 PUSH32 0x2F8788117E7EFF1D82E926EC794901D17C78024A50270940304540A733656F0D PUSH1 0x40 MLOAD PUSH1 0x40 MLOAD DUP1 SWAP2 SUB SWAP1 LOG4 POP PUSH1 0x1 PUSH2 0x137 JUMP JUMPDEST POP PUSH0 JUMPDEST SWAP3 SWAP2 POP POP JUMP JUMPDEST PUSH2 0x14F7 DUP1 PUSH3 0x14B PUSH0 CODECOPY PUSH0 RETURN INVALID PUSH1 0x80 PUSH1 0x40 MSTORE PUSH1 0x4 CALLDATASIZE LT PUSH2 0x1E6 JUMPI PUSH0 CALLDATALOAD PUSH1 0xE0 SHR DUP1 PUSH4 0x70480275 GT PUSH2 0x101 JUMPI DUP1 PUSH4 0x91D14854 GT PUSH2 0x94 JUMPI DUP1 PUSH4 0xB911135F GT PUSH2 0x63 JUMPI DUP1 PUSH4 0xB911135F EQ PUSH2 0x616 JUMPI DUP1 PUSH4 0xD547741F EQ PUSH2 0x64A JUMPI DUP1 PUSH4 0xDAF380BF EQ PUSH2 0x669 JUMPI DUP1 PUSH4 0xE59F69C2 EQ PUSH2 0x694 JUMPI PUSH2 0x1ED JUMP JUMPDEST DUP1 PUSH4 0x91D14854 EQ PUSH2 0x597 JUMPI DUP1 PUSH4 0xA217FDDF EQ PUSH2 0x5B6 JUMPI DUP1 PUSH4 0xAB01FAC0 EQ PUSH2 0x5C9 JUMPI DUP1 PUSH4 0xAD084C9E EQ PUSH2 0x5F7 JUMPI PUSH2 0x1ED JUMP JUMPDEST DUP1 PUSH4 0x7CD5F663 GT PUSH2 0xD0 JUMPI DUP1 PUSH4 0x7CD5F663 EQ PUSH2 0x506 JUMPI DUP1 PUSH4 0x8B41F3AB EQ PUSH2 0x525 JUMPI DUP1 PUSH4 0x8B8F4A65 EQ PUSH2 0x559 JUMPI DUP1 PUSH4 0x8D4FDB40 EQ PUSH2 0x578 JUMPI PUSH2 0x1ED JUMP JUMPDEST DUP1 PUSH4 0x70480275 EQ PUSH2 0x489 JUMPI DUP1 PUSH4 0x75829DEF EQ PUSH2 0x4A8 JUMPI DUP1 PUSH4 0x75B238FC EQ PUSH2 0x4C7 JUMPI DUP1 PUSH4 0x7CB00D25 EQ PUSH2 0x4E7 JUMPI PUSH2 0x1ED JUMP JUMPDEST DUP1 PUSH4 0x3659CFE6 GT PUSH2 0x179 JUMPI DUP1 PUSH4 0x5C60DA1B GT PUSH2 0x148 JUMPI DUP1 PUSH4 0x5C60DA1B EQ PUSH2 0x402 JUMPI DUP1 PUSH4 0x5CC797D8 EQ PUSH2 0x433 JUMPI DUP1 PUSH4 0x63A8FD89 EQ PUSH2 0x452 JUMPI DUP1 PUSH4 0x6ECFAE00 EQ PUSH2 0x46A JUMPI PUSH2 0x1ED JUMP JUMPDEST DUP1 PUSH4 0x3659CFE6 EQ PUSH2 0x362 JUMPI DUP1 PUSH4 0x4A5DF50F EQ PUSH2 0x381 JUMPI DUP1 PUSH4 0x50D2A276 EQ PUSH2 0x3A0 JUMPI DUP1 PUSH4 0x550D01A3 EQ PUSH2 0x3D4 JUMPI PUSH2 0x1ED JUMP JUMPDEST DUP1 PUSH4 0x248A9CA3 GT PUSH2 0x1B5 JUMPI DUP1 PUSH4 0x248A9CA3 EQ PUSH2 0x2D7 JUMPI DUP1 PUSH4 0x24D7806C EQ PUSH2 0x305 JUMPI DUP1 PUSH4 0x2F2FF15D EQ PUSH2 0x324 JUMPI DUP1 PUSH4 0x36568ABE EQ PUSH2 0x343 JUMPI PUSH2 0x1ED JUMP JUMPDEST DUP1 PUSH4 0x1FFC9A7 EQ PUSH2 0x1F7 JUMPI DUP1 PUSH4 0x1785F53C EQ PUSH2 0x22B JUMPI DUP1 PUSH4 0x178694B7 EQ PUSH2 0x24A JUMPI DUP1 PUSH4 0x22985246 EQ PUSH2 0x296 JUMPI PUSH2 0x1ED JUMP JUMPDEST CALLDATASIZE PUSH2 0x1ED JUMPI STOP JUMPDEST PUSH2 0x1F5 PUSH2 0x718 JUMP JUMPDEST STOP JUMPDEST CALLVALUE DUP1 ISZERO PUSH2 0x202 JUMPI PUSH0 DUP1 REVERT JUMPDEST POP PUSH2 0x216 PUSH2 0x211 CALLDATASIZE PUSH1 0x4 PUSH2 0x1238 JUMP JUMPDEST PUSH2 0x7BD JUMP JUMPDEST PUSH1 0x40 MLOAD SWAP1 ISZERO ISZERO DUP2 MSTORE PUSH1 0x20 ADD JUMPDEST PUSH1 0x40 MLOAD DUP1 SWAP2 SUB SWAP1 RETURN JUMPDEST CALLVALUE DUP1 ISZERO PUSH2 0x236 JUMPI PUSH0 DUP1 REVERT JUMPDEST POP PUSH2 0x1F5 PUSH2 0x245 CALLDATASIZE PUSH1 0x4 PUSH2 0x127C JUMP JUMPDEST PUSH2 0x7F3 JUMP JUMPDEST CALLVALUE DUP1 ISZERO PUSH2 0x255 JUMPI PUSH0 DUP1 REVERT JUMPDEST POP PUSH2 0x27E PUSH2 0x264 CALLDATASIZE PUSH1 0x4 PUSH2 0x1295 JUMP JUMPDEST PUSH1 0x7 PUSH1 0x20 MSTORE PUSH0 SWAP1 DUP2 MSTORE PUSH1 0x40 SWAP1 KECCAK256 SLOAD PUSH1 0x1 PUSH1 0x1 PUSH1 0xA0 SHL SUB AND DUP2 JUMP JUMPDEST PUSH1 0x40 MLOAD PUSH1 0x1 PUSH1 0x1 PUSH1 0xA0 SHL SUB SWAP1 SWAP2 AND DUP2 MSTORE PUSH1 0x20 ADD PUSH2 0x222 JUMP JUMPDEST CALLVALUE DUP1 ISZERO PUSH2 0x2A1 JUMPI PUSH0 DUP1 REVERT JUMPDEST POP PUSH2 0x2C9 PUSH32 0xFB5864E8FF833C3CB2D2D08505E82FF02A43554C74A35D4F5A64E85261278311 DUP2 JUMP JUMPDEST PUSH1 0x40 MLOAD SWAP1 DUP2 MSTORE PUSH1 0x20 ADD PUSH2 0x222 JUMP JUMPDEST CALLVALUE DUP1 ISZERO PUSH2 0x2E2 JUMPI PUSH0 DUP1 REVERT JUMPDEST POP PUSH2 0x2C9 PUSH2 0x2F1 CALLDATASIZE PUSH1 0x4 PUSH2 0x1295 JUMP JUMPDEST PUSH0 SWAP1 DUP2 MSTORE PUSH1 0x4 PUSH1 0x20 MSTORE PUSH1 0x40 SWAP1 KECCAK256 PUSH1 0x1 ADD SLOAD SWAP1 JUMP JUMPDEST CALLVALUE DUP1 ISZERO PUSH2 0x310 JUMPI PUSH0 DUP1 REVERT JUMPDEST POP PUSH2 0x216 PUSH2 0x31F CALLDATASIZE PUSH1 0x4 PUSH2 0x127C JUMP JUMPDEST PUSH2 0x832 JUMP JUMPDEST CALLVALUE DUP1 ISZERO PUSH2 0x32F JUMPI PUSH0 DUP1 REVERT JUMPDEST POP PUSH2 0x1F5 PUSH2 0x33E CALLDATASIZE PUSH1 0x4 PUSH2 0x12AC JUMP JUMPDEST PUSH2 0x84A JUMP JUMPDEST CALLVALUE DUP1 ISZERO PUSH2 0x34E JUMPI PUSH0 DUP1 REVERT JUMPDEST POP PUSH2 0x1F5 PUSH2 0x35D CALLDATASIZE PUSH1 0x4 PUSH2 0x12AC JUMP JUMPDEST PUSH2 0x874 JUMP JUMPDEST CALLVALUE DUP1 ISZERO PUSH2 0x36D JUMPI PUSH0 DUP1 REVERT JUMPDEST POP PUSH2 0x1F5 PUSH2 0x37C CALLDATASIZE PUSH1 0x4 PUSH2 0x127C JUMP JUMPDEST PUSH2 0x8A7 JUMP JUMPDEST CALLVALUE DUP1 ISZERO PUSH2 0x38C JUMPI PUSH0 DUP1 REVERT JUMPDEST POP PUSH2 0x1F5 PUSH2 0x39B CALLDATASIZE PUSH1 0x4 PUSH2 0x12D6 JUMP JUMPDEST PUSH2 0x9B1 JUMP JUMPDEST CALLVALUE DUP1 ISZERO PUSH2 0x3AB JUMPI PUSH0 DUP1 REVERT JUMPDEST POP PUSH2 0x27E PUSH2 0x3BA CALLDATASIZE PUSH1 0x4 PUSH2 0x1238 JUMP JUMPDEST PUSH1 0x3 PUSH1 0x20 MSTORE PUSH0 SWAP1 DUP2 MSTORE PUSH1 0x40 SWAP1 KECCAK256 SLOAD PUSH1 0x1 PUSH1 0x1 PUSH1 0xA0 SHL SUB AND DUP2 JUMP JUMPDEST CALLVALUE DUP1 ISZERO PUSH2 0x3DF JUMPI PUSH0 DUP1 REVERT JUMPDEST POP PUSH2 0x216 PUSH2 0x3EE CALLDATASIZE PUSH1 0x4 PUSH2 0x127C JUMP JUMPDEST PUSH1 0x2 PUSH1 0x20 MSTORE PUSH0 SWAP1 DUP2 MSTORE PUSH1 0x40 SWAP1 KECCAK256 SLOAD PUSH1 0xFF AND DUP2 JUMP JUMPDEST CALLVALUE DUP1 ISZERO PUSH2 0x40D JUMPI PUSH0 DUP1 REVERT JUMPDEST POP PUSH0 DUP1 MSTORE PUSH1 0x1 PUSH1 0x20 MSTORE PUSH0 DUP1 MLOAD PUSH1 0x20 PUSH2 0x1482 DUP4 CODECOPY DUP2 MLOAD SWAP2 MSTORE SLOAD PUSH1 0x1 PUSH1 0x1 PUSH1 0xA0 SHL SUB AND PUSH2 0x27E JUMP JUMPDEST CALLVALUE DUP1 ISZERO PUSH2 0x43E JUMPI PUSH0 DUP1 REVERT JUMPDEST POP PUSH2 0x1F5 PUSH2 0x44D CALLDATASIZE PUSH1 0x4 PUSH2 0x1362 JUMP JUMPDEST PUSH2 0xBFD JUMP JUMPDEST CALLVALUE DUP1 ISZERO PUSH2 0x45D JUMPI PUSH0 DUP1 REVERT JUMPDEST POP PUSH0 SLOAD PUSH2 0x216 SWAP1 PUSH1 0xFF AND DUP2 JUMP JUMPDEST CALLVALUE DUP1 ISZERO PUSH2 0x475 JUMPI PUSH0 DUP1 REVERT JUMPDEST POP PUSH2 0x1F5 PUSH2 0x484 CALLDATASIZE PUSH1 0x4 PUSH2 0x12AC JUMP JUMPDEST PUSH2 0xC30 JUMP JUMPDEST CALLVALUE DUP1 ISZERO PUSH2 0x494 JUMPI PUSH0 DUP1 REVERT JUMPDEST POP PUSH2 0x1F5 PUSH2 0x4A3 CALLDATASIZE PUSH1 0x4 PUSH2 0x127C JUMP JUMPDEST PUSH2 0xC82 JUMP JUMPDEST CALLVALUE DUP1 ISZERO PUSH2 0x4B3 JUMPI PUSH0 DUP1 REVERT JUMPDEST POP PUSH2 0x1F5 PUSH2 0x4C2 CALLDATASIZE PUSH1 0x4 PUSH2 0x127C JUMP JUMPDEST PUSH2 0xCBE JUMP JUMPDEST CALLVALUE DUP1 ISZERO PUSH2 0x4D2 JUMPI PUSH0 DUP1 REVERT JUMPDEST POP PUSH2 0x2C9 PUSH0 DUP1 MLOAD PUSH1 0x20 PUSH2 0x14A2 DUP4 CODECOPY DUP2 MLOAD SWAP2 MSTORE DUP2 JUMP JUMPDEST CALLVALUE DUP1 ISZERO PUSH2 0x4F2 JUMPI PUSH0 DUP1 REVERT JUMPDEST POP PUSH2 0x1F5 PUSH2 0x501 CALLDATASIZE PUSH1 0x4 PUSH2 0x138A JUMP JUMPDEST PUSH2 0xDB8 JUMP JUMPDEST CALLVALUE DUP1 ISZERO PUSH2 0x511 JUMPI PUSH0 DUP1 REVERT JUMPDEST POP PUSH2 0x1F5 PUSH2 0x520 CALLDATASIZE PUSH1 0x4 PUSH2 0x13A3 JUMP JUMPDEST PUSH2 0xDEF JUMP JUMPDEST CALLVALUE DUP1 ISZERO PUSH2 0x530 JUMPI PUSH0 DUP1 REVERT JUMPDEST POP PUSH2 0x27E PUSH2 0x53F CALLDATASIZE PUSH1 0x4 PUSH2 0x1295 JUMP JUMPDEST PUSH1 0x8 PUSH1 0x20 MSTORE PUSH0 SWAP1 DUP2 MSTORE PUSH1 0x40 SWAP1 KECCAK256 SLOAD PUSH1 0x1 PUSH1 0x1 PUSH1 0xA0 SHL SUB AND DUP2 JUMP JUMPDEST CALLVALUE DUP1 ISZERO PUSH2 0x564 JUMPI PUSH0 DUP1 REVERT JUMPDEST POP PUSH2 0x27E PUSH2 0x573 CALLDATASIZE PUSH1 0x4 PUSH2 0x1295 JUMP JUMPDEST PUSH2 0xE1F JUMP JUMPDEST CALLVALUE DUP1 ISZERO PUSH2 0x583 JUMPI PUSH0 DUP1 REVERT JUMPDEST POP PUSH2 0x27E PUSH2 0x592 CALLDATASIZE PUSH1 0x4 PUSH2 0x1238 JUMP JUMPDEST PUSH2 0xE3B JUMP JUMPDEST CALLVALUE DUP1 ISZERO PUSH2 0x5A2 JUMPI PUSH0 DUP1 REVERT JUMPDEST POP PUSH2 0x216 PUSH2 0x5B1 CALLDATASIZE PUSH1 0x4 PUSH2 0x12AC JUMP JUMPDEST PUSH2 0xF0C JUMP JUMPDEST CALLVALUE DUP1 ISZERO PUSH2 0x5C1 JUMPI PUSH0 DUP1 REVERT JUMPDEST POP PUSH2 0x2C9 PUSH0 DUP2 JUMP JUMPDEST CALLVALUE DUP1 ISZERO PUSH2 0x5D4 JUMPI PUSH0 DUP1 REVERT JUMPDEST POP PUSH2 0x216 PUSH2 0x5E3 CALLDATASIZE PUSH1 0x4 PUSH2 0x1295 JUMP JUMPDEST PUSH1 0x6 PUSH1 0x20 MSTORE PUSH0 SWAP1 DUP2 MSTORE PUSH1 0x40 SWAP1 KECCAK256 SLOAD PUSH1 0xFF AND DUP2 JUMP JUMPDEST CALLVALUE DUP1 ISZERO PUSH2 0x602 JUMPI PUSH0 DUP1 REVERT JUMPDEST POP PUSH2 0x1F5 PUSH2 0x611 CALLDATASIZE PUSH1 0x4 PUSH2 0x13D3 JUMP JUMPDEST PUSH2 0xF36 JUMP JUMPDEST CALLVALUE DUP1 ISZERO PUSH2 0x621 JUMPI PUSH0 DUP1 REVERT JUMPDEST POP PUSH2 0x27E PUSH2 0x630 CALLDATASIZE PUSH1 0x4 PUSH2 0x1295 JUMP JUMPDEST PUSH1 0x1 PUSH1 0x20 MSTORE PUSH0 SWAP1 DUP2 MSTORE PUSH1 0x40 SWAP1 KECCAK256 SLOAD PUSH1 0x1 PUSH1 0x1 PUSH1 0xA0 SHL SUB AND DUP2 JUMP JUMPDEST CALLVALUE DUP1 ISZERO PUSH2 0x655 JUMPI PUSH0 DUP1 REVERT JUMPDEST POP PUSH2 0x1F5 PUSH2 0x664 CALLDATASIZE PUSH1 0x4 PUSH2 0x12AC JUMP JUMPDEST PUSH2 0xFED JUMP JUMPDEST CALLVALUE DUP1 ISZERO PUSH2 0x674 JUMPI PUSH0 DUP1 REVERT JUMPDEST POP PUSH2 0x2C9 PUSH2 0x683 CALLDATASIZE PUSH1 0x4 PUSH2 0x1295 JUMP JUMPDEST PUSH1 0x9 PUSH1 0x20 MSTORE PUSH0 SWAP1 DUP2 MSTORE PUSH1 0x40 SWAP1 KECCAK256 SLOAD DUP2 JUMP JUMPDEST CALLVALUE DUP1 ISZERO PUSH2 0x69F JUMPI PUSH0 DUP1 REVERT JUMPDEST POP PUSH2 0x6E5 PUSH2 0x6AE CALLDATASIZE PUSH1 0x4 PUSH2 0x1295 JUMP JUMPDEST PUSH1 0xA PUSH1 0x20 MSTORE PUSH0 SWAP1 DUP2 MSTORE PUSH1 0x40 SWAP1 KECCAK256 DUP1 SLOAD PUSH1 0x1 DUP3 ADD SLOAD PUSH1 0x2 DUP4 ADD SLOAD PUSH1 0x3 SWAP1 SWAP4 ADD SLOAD PUSH1 0x1 PUSH1 0x1 PUSH1 0xA0 SHL SUB SWAP3 DUP4 AND SWAP4 SWAP2 DUP4 AND SWAP3 SWAP2 DUP3 AND SWAP2 AND DUP5 JUMP JUMPDEST PUSH1 0x40 DUP1 MLOAD PUSH1 0x1 PUSH1 0x1 PUSH1 0xA0 SHL SUB SWAP6 DUP7 AND DUP2 MSTORE SWAP4 DUP6 AND PUSH1 0x20 DUP6 ADD MSTORE SWAP2 DUP5 AND SWAP2 DUP4 ADD SWAP2 SWAP1 SWAP2 MSTORE SWAP1 SWAP2 AND PUSH1 0x60 DUP3 ADD MSTORE PUSH1 0x80 ADD PUSH2 0x222 JUMP JUMPDEST PUSH0 PUSH2 0x72D PUSH0 CALLDATALOAD PUSH1 0x1 PUSH1 0x1 PUSH1 0xE0 SHL SUB NOT AND PUSH2 0xE3B JUMP JUMPDEST SWAP1 POP PUSH1 0x1 PUSH1 0x1 PUSH1 0xA0 SHL SUB DUP2 AND ISZERO DUP1 ISZERO SWAP1 PUSH2 0x749 JUMPI POP PUSH0 SLOAD PUSH1 0xFF AND ISZERO JUMPDEST PUSH2 0x79A JUMPI PUSH1 0x40 MLOAD PUSH3 0x461BCD PUSH1 0xE5 SHL DUP2 MSTORE PUSH1 0x20 PUSH1 0x4 DUP3 ADD MSTORE PUSH1 0x1D PUSH1 0x24 DUP3 ADD MSTORE PUSH32 0x50726F78793A20696D706C204F522070726F78792069732066616C7365000000 PUSH1 0x44 DUP3 ADD MSTORE PUSH1 0x64 ADD JUMPDEST PUSH1 0x40 MLOAD DUP1 SWAP2 SUB SWAP1 REVERT JUMPDEST CALLDATASIZE PUSH0 DUP1 CALLDATACOPY PUSH0 DUP1 CALLDATASIZE PUSH0 DUP5 GAS DELEGATECALL RETURNDATASIZE PUSH0 DUP1 RETURNDATACOPY DUP1 DUP1 ISZERO PUSH2 0x7B4 JUMPI RETURNDATASIZE PUSH0 RETURN JUMPDEST RETURNDATASIZE PUSH0 REVERT JUMPDEST POP POP POP JUMP JUMPDEST PUSH0 PUSH1 0x1 PUSH1 0x1 PUSH1 0xE0 SHL SUB NOT DUP3 AND PUSH4 0x7965DB0B PUSH1 0xE0 SHL EQ DUP1 PUSH2 0x7ED JUMPI POP PUSH4 0x1FFC9A7 PUSH1 0xE0 SHL PUSH1 0x1 PUSH1 0x1 PUSH1 0xE0 SHL SUB NOT DUP4 AND EQ JUMPDEST SWAP3 SWAP2 POP POP JUMP JUMPDEST PUSH2 0x7FC CALLER PUSH2 0x832 JUMP JUMPDEST PUSH2 0x818 JUMPI PUSH1 0x40 MLOAD PUSH3 0x461BCD PUSH1 0xE5 SHL DUP2 MSTORE PUSH1 0x4 ADD PUSH2 0x791 SWAP1 PUSH2 0x142B JUMP JUMPDEST PUSH2 0x82F PUSH0 DUP1 MLOAD PUSH1 0x20 PUSH2 0x14A2 DUP4 CODECOPY DUP2 MLOAD SWAP2 MSTORE DUP3 PUSH2 0x874 JUMP JUMPDEST POP JUMP JUMPDEST PUSH0 PUSH2 0x7ED PUSH0 DUP1 MLOAD PUSH1 0x20 PUSH2 0x14A2 DUP4 CODECOPY DUP2 MLOAD SWAP2 MSTORE DUP4 PUSH2 0xF0C JUMP JUMPDEST PUSH0 DUP3 DUP2 MSTORE PUSH1 0x4 PUSH1 0x20 MSTORE PUSH1 0x40 SWAP1 KECCAK256 PUSH1 0x1 ADD SLOAD PUSH2 0x864 DUP2 PUSH2 0x1011 JUMP JUMPDEST PUSH2 0x86E DUP4 DUP4 PUSH2 0x101B JUMP JUMPDEST POP POP POP POP JUMP JUMPDEST PUSH1 0x1 PUSH1 0x1 PUSH1 0xA0 SHL SUB DUP2 AND CALLER EQ PUSH2 0x89D JUMPI PUSH1 0x40 MLOAD PUSH4 0x334BD919 PUSH1 0xE1 SHL DUP2 MSTORE PUSH1 0x4 ADD PUSH1 0x40 MLOAD DUP1 SWAP2 SUB SWAP1 REVERT JUMPDEST PUSH2 0x7B8 DUP3 DUP3 PUSH2 0x10AC JUMP JUMPDEST PUSH2 0x8B0 CALLER PUSH2 0x832 JUMP JUMPDEST PUSH2 0x8CC JUMPI PUSH1 0x40 MLOAD PUSH3 0x461BCD PUSH1 0xE5 SHL DUP2 MSTORE PUSH1 0x4 ADD PUSH2 0x791 SWAP1 PUSH2 0x142B JUMP JUMPDEST PUSH1 0x1 PUSH1 0x1 PUSH1 0xA0 SHL SUB DUP2 AND PUSH2 0x912 JUMPI PUSH1 0x40 MLOAD PUSH3 0x461BCD PUSH1 0xE5 SHL DUP2 MSTORE PUSH1 0x20 PUSH1 0x4 DUP3 ADD MSTORE PUSH1 0xD PUSH1 0x24 DUP3 ADD MSTORE PUSH13 0x696E707574206973207A65726F PUSH1 0x98 SHL PUSH1 0x44 DUP3 ADD MSTORE PUSH1 0x64 ADD PUSH2 0x791 JUMP JUMPDEST PUSH0 DUP1 MSTORE PUSH1 0x1 PUSH1 0x20 MSTORE PUSH0 DUP1 MLOAD PUSH1 0x20 PUSH2 0x1482 DUP4 CODECOPY DUP2 MLOAD SWAP2 MSTORE SLOAD PUSH1 0x1 PUSH1 0x1 PUSH1 0xA0 SHL SUB DUP3 DUP2 AND SWAP2 AND SUB PUSH2 0x96F JUMPI PUSH1 0x40 MLOAD PUSH3 0x461BCD PUSH1 0xE5 SHL DUP2 MSTORE PUSH1 0x20 PUSH1 0x4 DUP3 ADD MSTORE PUSH1 0x9 PUSH1 0x24 DUP3 ADD MSTORE PUSH9 0x39B0B6B29030B23239 PUSH1 0xB9 SHL PUSH1 0x44 DUP3 ADD MSTORE PUSH1 0x64 ADD PUSH2 0x791 JUMP JUMPDEST PUSH2 0x97B DUP2 PUSH0 PUSH1 0x1 PUSH2 0x1117 JUMP JUMPDEST PUSH1 0x40 MLOAD PUSH1 0x1 PUSH1 0x1 PUSH1 0xA0 SHL SUB DUP3 AND SWAP1 PUSH32 0xBC7CD75A20EE27FD9ADEBAB32041F755214DBC6BFFA90CC0225B39DA2E5C2D3B SWAP1 PUSH0 SWAP1 LOG2 POP JUMP JUMPDEST PUSH2 0x9BA CALLER PUSH2 0x832 JUMP JUMPDEST PUSH2 0x9D6 JUMPI PUSH1 0x40 MLOAD PUSH3 0x461BCD PUSH1 0xE5 SHL DUP2 MSTORE PUSH1 0x4 ADD PUSH2 0x791 SWAP1 PUSH2 0x142B JUMP JUMPDEST DUP2 PUSH2 0xA23 JUMPI PUSH1 0x40 MLOAD PUSH3 0x461BCD PUSH1 0xE5 SHL DUP2 MSTORE PUSH1 0x20 PUSH1 0x4 DUP3 ADD DUP2 SWAP1 MSTORE PUSH1 0x24 DUP3 ADD MSTORE PUSH32 0x50726F78793A205F73656C6563746F727327732073697A65206973207A65726F PUSH1 0x44 DUP3 ADD MSTORE PUSH1 0x64 ADD PUSH2 0x791 JUMP JUMPDEST PUSH1 0x1 PUSH1 0x1 PUSH1 0xA0 SHL SUB DUP2 AND PUSH0 SWAP1 DUP2 MSTORE PUSH1 0x2 PUSH1 0x20 MSTORE PUSH1 0x40 SWAP1 KECCAK256 SLOAD PUSH1 0xFF AND PUSH2 0xA8A JUMPI PUSH1 0x40 MLOAD PUSH3 0x461BCD PUSH1 0xE5 SHL DUP2 MSTORE PUSH1 0x20 PUSH1 0x4 DUP3 ADD MSTORE PUSH1 0x18 PUSH1 0x24 DUP3 ADD MSTORE PUSH32 0x50726F78793A205F696D70206973206E6F7420616C6976650000000000000000 PUSH1 0x44 DUP3 ADD MSTORE PUSH1 0x64 ADD PUSH2 0x791 JUMP JUMPDEST PUSH0 JUMPDEST DUP3 DUP2 LT ISZERO PUSH2 0x86E JUMPI DUP2 PUSH1 0x1 PUSH1 0x1 PUSH1 0xA0 SHL SUB AND PUSH1 0x3 PUSH0 DUP7 DUP7 DUP6 DUP2 DUP2 LT PUSH2 0xAB3 JUMPI PUSH2 0xAB3 PUSH2 0x146D JUMP JUMPDEST SWAP1 POP PUSH1 0x20 MUL ADD PUSH1 0x20 DUP2 ADD SWAP1 PUSH2 0xAC8 SWAP2 SWAP1 PUSH2 0x1238 JUMP JUMPDEST PUSH1 0x1 PUSH1 0x1 PUSH1 0xE0 SHL SUB NOT AND DUP2 MSTORE PUSH1 0x20 DUP2 ADD SWAP2 SWAP1 SWAP2 MSTORE PUSH1 0x40 ADD PUSH0 KECCAK256 SLOAD PUSH1 0x1 PUSH1 0x1 PUSH1 0xA0 SHL SUB AND SUB PUSH2 0xB38 JUMPI PUSH1 0x40 MLOAD PUSH3 0x461BCD PUSH1 0xE5 SHL DUP2 MSTORE PUSH1 0x20 PUSH1 0x4 DUP3 ADD MSTORE PUSH1 0x1D PUSH1 0x24 DUP3 ADD MSTORE PUSH32 0x4C69717569646974795661756C7450726F78793A2073616D6520696D70000000 PUSH1 0x44 DUP3 ADD MSTORE PUSH1 0x64 ADD PUSH2 0x791 JUMP JUMPDEST DUP2 PUSH1 0x3 PUSH0 DUP7 DUP7 DUP6 DUP2 DUP2 LT PUSH2 0xB4E JUMPI PUSH2 0xB4E PUSH2 0x146D JUMP JUMPDEST SWAP1 POP PUSH1 0x20 MUL ADD PUSH1 0x20 DUP2 ADD SWAP1 PUSH2 0xB63 SWAP2 SWAP1 PUSH2 0x1238 JUMP JUMPDEST PUSH1 0x1 PUSH1 0x1 PUSH1 0xE0 SHL SUB NOT AND DUP2 MSTORE PUSH1 0x20 DUP2 ADD SWAP2 SWAP1 SWAP2 MSTORE PUSH1 0x40 ADD PUSH0 KECCAK256 DUP1 SLOAD PUSH1 0x1 PUSH1 0x1 PUSH1 0xA0 SHL SUB NOT AND PUSH1 0x1 PUSH1 0x1 PUSH1 0xA0 SHL SUB SWAP3 DUP4 AND OR SWAP1 SSTORE DUP3 AND DUP5 DUP5 DUP4 DUP2 DUP2 LT PUSH2 0xBAA JUMPI PUSH2 0xBAA PUSH2 0x146D JUMP JUMPDEST SWAP1 POP PUSH1 0x20 MUL ADD PUSH1 0x20 DUP2 ADD SWAP1 PUSH2 0xBBF SWAP2 SWAP1 PUSH2 0x1238 JUMP JUMPDEST PUSH1 0x1 PUSH1 0x1 PUSH1 0xE0 SHL SUB NOT AND PUSH32 0x14EBC1C32AA68F4D766E89F3E546CEE249F7DF25183FC10AB1568D91C2CE9B7B PUSH1 0x40 MLOAD PUSH1 0x40 MLOAD DUP1 SWAP2 SUB SWAP1 LOG3 PUSH1 0x1 ADD PUSH2 0xA8C JUMP JUMPDEST PUSH2 0xC06 CALLER PUSH2 0x832 JUMP JUMPDEST PUSH2 0xC22 JUMPI PUSH1 0x40 MLOAD PUSH3 0x461BCD PUSH1 0xE5 SHL DUP2 MSTORE PUSH1 0x4 ADD PUSH2 0x791 SWAP1 PUSH2 0x142B JUMP JUMPDEST PUSH2 0xC2C DUP3 DUP3 PUSH2 0x11A1 JUMP JUMPDEST POP POP JUMP JUMPDEST PUSH2 0xC39 CALLER PUSH2 0x832 JUMP JUMPDEST PUSH2 0xC55 JUMPI PUSH1 0x40 MLOAD PUSH3 0x461BCD PUSH1 0xE5 SHL DUP2 MSTORE PUSH1 0x4 ADD PUSH2 0x791 SWAP1 PUSH2 0x142B JUMP JUMPDEST PUSH0 SWAP2 DUP3 MSTORE PUSH1 0x5 PUSH1 0x20 MSTORE PUSH1 0x40 SWAP1 SWAP2 KECCAK256 DUP1 SLOAD PUSH1 0x1 PUSH1 0x1 PUSH1 0xA0 SHL SUB NOT AND PUSH1 0x1 PUSH1 0x1 PUSH1 0xA0 SHL SUB SWAP1 SWAP3 AND SWAP2 SWAP1 SWAP2 OR SWAP1 SSTORE JUMP JUMPDEST PUSH2 0xC8B CALLER PUSH2 0x832 JUMP JUMPDEST PUSH2 0xCA7 JUMPI PUSH1 0x40 MLOAD PUSH3 0x461BCD PUSH1 0xE5 SHL DUP2 MSTORE PUSH1 0x4 ADD PUSH2 0x791 SWAP1 PUSH2 0x142B JUMP JUMPDEST PUSH2 0x82F PUSH0 DUP1 MLOAD PUSH1 0x20 PUSH2 0x14A2 DUP4 CODECOPY DUP2 MLOAD SWAP2 MSTORE DUP3 PUSH2 0x84A JUMP JUMPDEST PUSH2 0xCC7 CALLER PUSH2 0x832 JUMP JUMPDEST PUSH2 0xCE3 JUMPI PUSH1 0x40 MLOAD PUSH3 0x461BCD PUSH1 0xE5 SHL DUP2 MSTORE PUSH1 0x4 ADD PUSH2 0x791 SWAP1 PUSH2 0x142B JUMP JUMPDEST PUSH1 0x1 PUSH1 0x1 PUSH1 0xA0 SHL SUB DUP2 AND PUSH2 0xD39 JUMPI PUSH1 0x40 MLOAD PUSH3 0x461BCD PUSH1 0xE5 SHL DUP2 MSTORE PUSH1 0x20 PUSH1 0x4 DUP3 ADD MSTORE PUSH1 0x18 PUSH1 0x24 DUP3 ADD MSTORE PUSH32 0x41636365737369626C653A207A65726F20616464726573730000000000000000 PUSH1 0x44 DUP3 ADD MSTORE PUSH1 0x64 ADD PUSH2 0x791 JUMP JUMPDEST PUSH1 0x1 PUSH1 0x1 PUSH1 0xA0 SHL SUB DUP2 AND CALLER SUB PUSH2 0xD8A JUMPI PUSH1 0x40 MLOAD PUSH3 0x461BCD PUSH1 0xE5 SHL DUP2 MSTORE PUSH1 0x20 PUSH1 0x4 DUP3 ADD MSTORE PUSH1 0x16 PUSH1 0x24 DUP3 ADD MSTORE PUSH22 0x20B1B1B2B9B9B4B136329D1039B0B6B29030B236B4B7 PUSH1 0x51 SHL PUSH1 0x44 DUP3 ADD MSTORE PUSH1 0x64 ADD PUSH2 0x791 JUMP JUMPDEST PUSH2 0xDA1 PUSH0 DUP1 MLOAD PUSH1 0x20 PUSH2 0x14A2 DUP4 CODECOPY DUP2 MLOAD SWAP2 MSTORE DUP3 PUSH2 0x84A JUMP JUMPDEST PUSH2 0x82F PUSH0 DUP1 MLOAD PUSH1 0x20 PUSH2 0x14A2 DUP4 CODECOPY DUP2 MLOAD SWAP2 MSTORE CALLER PUSH2 0x874 JUMP JUMPDEST PUSH2 0xDC1 CALLER PUSH2 0x832 JUMP JUMPDEST PUSH2 0xDDD JUMPI PUSH1 0x40 MLOAD PUSH3 0x461BCD PUSH1 0xE5 SHL DUP2 MSTORE PUSH1 0x4 ADD PUSH2 0x791 SWAP1 PUSH2 0x142B JUMP JUMPDEST PUSH0 DUP1 SLOAD PUSH1 0xFF NOT AND SWAP2 ISZERO ISZERO SWAP2 SWAP1 SWAP2 OR SWAP1 SSTORE JUMP JUMPDEST PUSH2 0xDF8 CALLER PUSH2 0x832 JUMP JUMPDEST PUSH2 0xE14 JUMPI PUSH1 0x40 MLOAD PUSH3 0x461BCD PUSH1 0xE5 SHL DUP2 MSTORE PUSH1 0x4 ADD PUSH2 0x791 SWAP1 PUSH2 0x142B JUMP JUMPDEST PUSH2 0x7B8 DUP4 DUP4 DUP4 PUSH2 0x1117 JUMP JUMPDEST PUSH0 DUP2 DUP2 MSTORE PUSH1 0x1 PUSH1 0x20 MSTORE PUSH1 0x40 DUP2 KECCAK256 SLOAD PUSH1 0x1 PUSH1 0x1 PUSH1 0xA0 SHL SUB AND PUSH2 0x7ED JUMP JUMPDEST PUSH1 0x1 PUSH1 0x1 PUSH1 0xE0 SHL SUB NOT DUP2 AND PUSH0 SWAP1 DUP2 MSTORE PUSH1 0x3 PUSH1 0x20 MSTORE PUSH1 0x40 DUP2 KECCAK256 SLOAD PUSH1 0x1 PUSH1 0x1 PUSH1 0xA0 SHL SUB AND PUSH2 0xE86 JUMPI POP POP PUSH0 DUP1 MSTORE PUSH1 0x1 PUSH1 0x20 MSTORE PUSH0 DUP1 MLOAD PUSH1 0x20 PUSH2 0x1482 DUP4 CODECOPY DUP2 MLOAD SWAP2 MSTORE SLOAD PUSH1 0x1 PUSH1 0x1 PUSH1 0xA0 SHL SUB AND SWAP1 JUMP JUMPDEST PUSH1 0x1 PUSH1 0x1 PUSH1 0xE0 SHL SUB NOT DUP3 AND PUSH0 SWAP1 DUP2 MSTORE PUSH1 0x3 PUSH1 0x20 SWAP1 DUP2 MSTORE PUSH1 0x40 DUP1 DUP4 KECCAK256 SLOAD PUSH1 0x1 PUSH1 0x1 PUSH1 0xA0 SHL SUB AND DUP4 MSTORE PUSH1 0x2 SWAP1 SWAP2 MSTORE SWAP1 KECCAK256 SLOAD PUSH1 0xFF AND ISZERO PUSH2 0xEE2 JUMPI POP PUSH1 0x1 PUSH1 0x1 PUSH1 0xE0 SHL SUB NOT AND PUSH0 SWAP1 DUP2 MSTORE PUSH1 0x3 PUSH1 0x20 MSTORE PUSH1 0x40 SWAP1 KECCAK256 SLOAD PUSH1 0x1 PUSH1 0x1 PUSH1 0xA0 SHL SUB AND SWAP1 JUMP JUMPDEST POP POP PUSH0 DUP1 MSTORE PUSH1 0x1 PUSH1 0x20 MSTORE PUSH0 DUP1 MLOAD PUSH1 0x20 PUSH2 0x1482 DUP4 CODECOPY DUP2 MLOAD SWAP2 MSTORE SLOAD PUSH1 0x1 PUSH1 0x1 PUSH1 0xA0 SHL SUB AND SWAP1 JUMP JUMPDEST SWAP2 SWAP1 POP JUMP JUMPDEST PUSH0 SWAP2 DUP3 MSTORE PUSH1 0x4 PUSH1 0x20 SWAP1 DUP2 MSTORE PUSH1 0x40 DUP1 DUP5 KECCAK256 PUSH1 0x1 PUSH1 0x1 PUSH1 0xA0 SHL SUB SWAP4 SWAP1 SWAP4 AND DUP5 MSTORE SWAP2 SWAP1 MSTORE SWAP1 KECCAK256 SLOAD PUSH1 0xFF AND SWAP1 JUMP JUMPDEST PUSH2 0xF3F CALLER PUSH2 0x832 JUMP JUMPDEST PUSH2 0xF5B JUMPI PUSH1 0x40 MLOAD PUSH3 0x461BCD PUSH1 0xE5 SHL DUP2 MSTORE PUSH1 0x4 ADD PUSH2 0x791 SWAP1 PUSH2 0x142B JUMP JUMPDEST PUSH1 0x40 DUP1 MLOAD PUSH1 0x80 DUP2 ADD DUP3 MSTORE PUSH1 0x1 PUSH1 0x1 PUSH1 0xA0 SHL SUB SWAP7 DUP8 AND DUP2 MSTORE SWAP5 DUP7 AND PUSH1 0x20 DUP1 DUP8 ADD SWAP2 DUP3 MSTORE SWAP5 DUP8 AND DUP7 DUP4 ADD SWAP1 DUP2 MSTORE SWAP4 DUP8 AND PUSH1 0x60 DUP8 ADD SWAP1 DUP2 MSTORE PUSH0 SWAP4 DUP5 MSTORE PUSH1 0xA SWAP1 SWAP6 MSTORE SWAP2 KECCAK256 SWAP4 MLOAD DUP5 SLOAD SWAP1 DUP7 AND PUSH1 0x1 PUSH1 0x1 PUSH1 0xA0 SHL SUB NOT SWAP2 DUP3 AND OR DUP6 SSTORE SWAP1 MLOAD PUSH1 0x1 DUP6 ADD DUP1 SLOAD SWAP2 DUP8 AND SWAP2 DUP4 AND SWAP2 SWAP1 SWAP2 OR SWAP1 SSTORE SWAP1 MLOAD PUSH1 0x2 DUP5 ADD DUP1 SLOAD SWAP2 DUP7 AND SWAP2 DUP4 AND SWAP2 SWAP1 SWAP2 OR SWAP1 SSTORE SWAP1 MLOAD PUSH1 0x3 SWAP1 SWAP3 ADD DUP1 SLOAD SWAP3 SWAP1 SWAP4 AND SWAP2 AND OR SWAP1 SSTORE JUMP JUMPDEST PUSH0 DUP3 DUP2 MSTORE PUSH1 0x4 PUSH1 0x20 MSTORE PUSH1 0x40 SWAP1 KECCAK256 PUSH1 0x1 ADD SLOAD PUSH2 0x1007 DUP2 PUSH2 0x1011 JUMP JUMPDEST PUSH2 0x86E DUP4 DUP4 PUSH2 0x10AC JUMP JUMPDEST PUSH2 0x82F DUP2 CALLER PUSH2 0x11FF JUMP JUMPDEST PUSH0 PUSH2 0x1026 DUP4 DUP4 PUSH2 0xF0C JUMP JUMPDEST PUSH2 0x10A5 JUMPI PUSH0 DUP4 DUP2 MSTORE PUSH1 0x4 PUSH1 0x20 SWAP1 DUP2 MSTORE PUSH1 0x40 DUP1 DUP4 KECCAK256 PUSH1 0x1 PUSH1 0x1 PUSH1 0xA0 SHL SUB DUP7 AND DUP5 MSTORE SWAP1 SWAP2 MSTORE SWAP1 KECCAK256 DUP1 SLOAD PUSH1 0xFF NOT AND PUSH1 0x1 OR SWAP1 SSTORE PUSH2 0x105D CALLER SWAP1 JUMP JUMPDEST PUSH1 0x1 PUSH1 0x1 PUSH1 0xA0 SHL SUB AND DUP3 PUSH1 0x1 PUSH1 0x1 PUSH1 0xA0 SHL SUB AND DUP5 PUSH32 0x2F8788117E7EFF1D82E926EC794901D17C78024A50270940304540A733656F0D PUSH1 0x40 MLOAD PUSH1 0x40 MLOAD DUP1 SWAP2 SUB SWAP1 LOG4 POP PUSH1 0x1 PUSH2 0x7ED JUMP JUMPDEST POP PUSH0 PUSH2 0x7ED JUMP JUMPDEST PUSH0 PUSH2 0x10B7 DUP4 DUP4 PUSH2 0xF0C JUMP JUMPDEST ISZERO PUSH2 0x10A5 JUMPI PUSH0 DUP4 DUP2 MSTORE PUSH1 0x4 PUSH1 0x20 SWAP1 DUP2 MSTORE PUSH1 0x40 DUP1 DUP4 KECCAK256 PUSH1 0x1 PUSH1 0x1 PUSH1 0xA0 SHL SUB DUP7 AND DUP1 DUP6 MSTORE SWAP3 MSTORE DUP1 DUP4 KECCAK256 DUP1 SLOAD PUSH1 0xFF NOT AND SWAP1 SSTORE MLOAD CALLER SWAP3 DUP7 SWAP2 PUSH32 0xF6391F5C32D9C69D2A47EA670B442974B53935D1EDC7FD64EB21E047A839171B SWAP2 SWAP1 LOG4 POP PUSH1 0x1 PUSH2 0x7ED JUMP JUMPDEST PUSH1 0x1 PUSH1 0x1 PUSH1 0xA0 SHL SUB DUP4 AND EXTCODESIZE PUSH2 0x116E JUMPI PUSH1 0x40 MLOAD PUSH3 0x461BCD PUSH1 0xE5 SHL DUP2 MSTORE PUSH1 0x20 PUSH1 0x4 DUP3 ADD MSTORE PUSH1 0x1B PUSH1 0x24 DUP3 ADD MSTORE PUSH32 0x50726F78793A206E6F7420636F6E747261637420616464726573730000000000 PUSH1 0x44 DUP3 ADD MSTORE PUSH1 0x64 ADD PUSH2 0x791 JUMP JUMPDEST DUP1 ISZERO PUSH2 0x119B JUMPI PUSH0 DUP3 DUP2 MSTORE PUSH1 0x1 PUSH1 0x20 MSTORE PUSH1 0x40 SWAP1 KECCAK256 DUP1 SLOAD PUSH1 0x1 PUSH1 0x1 PUSH1 0xA0 SHL SUB NOT AND PUSH1 0x1 PUSH1 0x1 PUSH1 0xA0 SHL SUB DUP6 AND OR SWAP1 SSTORE JUMPDEST PUSH2 0x7B8 DUP4 DUP3 JUMPDEST PUSH1 0x1 PUSH1 0x1 PUSH1 0xA0 SHL SUB DUP3 AND PUSH0 DUP2 DUP2 MSTORE PUSH1 0x2 PUSH1 0x20 SWAP1 DUP2 MSTORE PUSH1 0x40 SWAP2 DUP3 SWAP1 KECCAK256 DUP1 SLOAD PUSH1 0xFF NOT AND DUP6 ISZERO ISZERO SWAP1 DUP2 OR SWAP1 SWAP2 SSTORE SWAP2 MLOAD SWAP2 DUP3 MSTORE PUSH32 0x72558D9BFBA4210F9EF095C782589484151F6D90F7A81BB3CB9B33EFC695D324 SWAP2 ADD PUSH1 0x40 MLOAD DUP1 SWAP2 SUB SWAP1 LOG2 POP POP JUMP JUMPDEST PUSH2 0x1209 DUP3 DUP3 PUSH2 0xF0C JUMP JUMPDEST PUSH2 0xC2C JUMPI PUSH1 0x40 MLOAD PUSH4 0xE2517D3F PUSH1 0xE0 SHL DUP2 MSTORE PUSH1 0x1 PUSH1 0x1 PUSH1 0xA0 SHL SUB DUP3 AND PUSH1 0x4 DUP3 ADD MSTORE PUSH1 0x24 DUP2 ADD DUP4 SWAP1 MSTORE PUSH1 0x44 ADD PUSH2 0x791 JUMP JUMPDEST PUSH0 PUSH1 0x20 DUP3 DUP5 SUB SLT ISZERO PUSH2 0x1248 JUMPI PUSH0 DUP1 REVERT JUMPDEST DUP2 CALLDATALOAD PUSH1 0x1 PUSH1 0x1 PUSH1 0xE0 SHL SUB NOT DUP2 AND DUP2 EQ PUSH2 0x125F JUMPI PUSH0 DUP1 REVERT JUMPDEST SWAP4 SWAP3 POP POP POP JUMP JUMPDEST DUP1 CALLDATALOAD PUSH1 0x1 PUSH1 0x1 PUSH1 0xA0 SHL SUB DUP2 AND DUP2 EQ PUSH2 0xF07 JUMPI PUSH0 DUP1 REVERT JUMPDEST PUSH0 PUSH1 0x20 DUP3 DUP5 SUB SLT ISZERO PUSH2 0x128C JUMPI PUSH0 DUP1 REVERT JUMPDEST PUSH2 0x125F DUP3 PUSH2 0x1266 JUMP JUMPDEST PUSH0 PUSH1 0x20 DUP3 DUP5 SUB SLT ISZERO PUSH2 0x12A5 JUMPI PUSH0 DUP1 REVERT JUMPDEST POP CALLDATALOAD SWAP2 SWAP1 POP JUMP JUMPDEST PUSH0 DUP1 PUSH1 0x40 DUP4 DUP6 SUB SLT ISZERO PUSH2 0x12BD JUMPI PUSH0 DUP1 REVERT JUMPDEST DUP3 CALLDATALOAD SWAP2 POP PUSH2 0x12CD PUSH1 0x20 DUP5 ADD PUSH2 0x1266 JUMP JUMPDEST SWAP1 POP SWAP3 POP SWAP3 SWAP1 POP JUMP JUMPDEST PUSH0 DUP1 PUSH0 PUSH1 0x40 DUP5 DUP7 SUB SLT ISZERO PUSH2 0x12E8 JUMPI PUSH0 DUP1 REVERT JUMPDEST DUP4 CALLDATALOAD PUSH8 0xFFFFFFFFFFFFFFFF DUP1 DUP3 GT ISZERO PUSH2 0x12FF JUMPI PUSH0 DUP1 REVERT JUMPDEST DUP2 DUP7 ADD SWAP2 POP DUP7 PUSH1 0x1F DUP4 ADD SLT PUSH2 0x1312 JUMPI PUSH0 DUP1 REVERT JUMPDEST DUP2 CALLDATALOAD DUP2 DUP2 GT ISZERO PUSH2 0x1320 JUMPI PUSH0 DUP1 REVERT JUMPDEST DUP8 PUSH1 0x20 DUP3 PUSH1 0x5 SHL DUP6 ADD ADD GT ISZERO PUSH2 0x1334 JUMPI PUSH0 DUP1 REVERT JUMPDEST PUSH1 0x20 SWAP3 DUP4 ADD SWAP6 POP SWAP4 POP PUSH2 0x134A SWAP2 DUP7 ADD SWAP1 POP PUSH2 0x1266 JUMP JUMPDEST SWAP1 POP SWAP3 POP SWAP3 POP SWAP3 JUMP JUMPDEST DUP1 CALLDATALOAD DUP1 ISZERO ISZERO DUP2 EQ PUSH2 0xF07 JUMPI PUSH0 DUP1 REVERT JUMPDEST PUSH0 DUP1 PUSH1 0x40 DUP4 DUP6 SUB SLT ISZERO PUSH2 0x1373 JUMPI PUSH0 DUP1 REVERT JUMPDEST PUSH2 0x137C DUP4 PUSH2 0x1266 JUMP JUMPDEST SWAP2 POP PUSH2 0x12CD PUSH1 0x20 DUP5 ADD PUSH2 0x1353 JUMP JUMPDEST PUSH0 PUSH1 0x20 DUP3 DUP5 SUB SLT ISZERO PUSH2 0x139A JUMPI PUSH0 DUP1 REVERT JUMPDEST PUSH2 0x125F DUP3 PUSH2 0x1353 JUMP JUMPDEST PUSH0 DUP1 PUSH0 PUSH1 0x60 DUP5 DUP7 SUB SLT ISZERO PUSH2 0x13B5 JUMPI PUSH0 DUP1 REVERT JUMPDEST PUSH2 0x13BE DUP5 PUSH2 0x1266 JUMP JUMPDEST SWAP3 POP PUSH1 0x20 DUP5 ADD CALLDATALOAD SWAP2 POP PUSH2 0x134A PUSH1 0x40 DUP6 ADD PUSH2 0x1353 JUMP JUMPDEST PUSH0 DUP1 PUSH0 DUP1 PUSH0 PUSH1 0xA0 DUP7 DUP9 SUB SLT ISZERO PUSH2 0x13E7 JUMPI PUSH0 DUP1 REVERT JUMPDEST PUSH2 0x13F0 DUP7 PUSH2 0x1266 JUMP JUMPDEST SWAP5 POP PUSH2 0x13FE PUSH1 0x20 DUP8 ADD PUSH2 0x1266 JUMP JUMPDEST SWAP4 POP PUSH2 0x140C PUSH1 0x40 DUP8 ADD PUSH2 0x1266 JUMP JUMPDEST SWAP3 POP PUSH2 0x141A PUSH1 0x60 DUP8 ADD PUSH2 0x1266 JUMP JUMPDEST SWAP5 SWAP8 SWAP4 SWAP7 POP SWAP2 SWAP5 PUSH1 0x80 ADD CALLDATALOAD SWAP3 SWAP2 POP POP JUMP JUMPDEST PUSH1 0x20 DUP1 DUP3 MSTORE PUSH1 0x22 SWAP1 DUP3 ADD MSTORE PUSH32 0x41636365737369626C653A2043616C6C6572206973206E6F7420616E2061646D PUSH1 0x40 DUP3 ADD MSTORE PUSH2 0x34B7 PUSH1 0xF1 SHL PUSH1 0x60 DUP3 ADD MSTORE PUSH1 0x80 ADD SWAP1 JUMP JUMPDEST PUSH4 0x4E487B71 PUSH1 0xE0 SHL PUSH0 MSTORE PUSH1 0x32 PUSH1 0x4 MSTORE PUSH1 0x24 PUSH0 REVERT INVALID 0xA6 0xEE 0xF7 0xE3 GAS 0xBE PUSH17 0x26729641147F7915573C7E97B47EFA546F PUSH0 PUSH15 0x3230263BCB49DF8B4C520FFE197C53 NUMBER 0xC6 CREATE2 0xAE 0xC5 SWAP6 PUSH17 0x151EF9A492F2C624FD45DDDE6135EC42A2 PUSH5 0x6970667358 0x22 SLT KECCAK256 0xE 0x2A CREATE2 SWAP1 0xDD EXTCODEHASH 0xF8 0xF8 0xE9 0x4B 0xBC SDIV 0xE0 PUSH13 0x70515ECC5BC966096587180110 0xB1 PUSH3 0xA4F3B7 PUSH5 0x736F6C6343 STOP ADDMOD XOR STOP CALLER 0xDF DUP12 0x4C MSTORE 0xF INVALID NOT PUSH29 0x5343C6F5AEC59570151EF9A492F2C624FD45DDDE6135EC420000000000 "
				},
				"gasEstimates": {
					"creation": {
						"codeDepositCost": "1073400",
						"executionCost": "56102",
						"totalCost": "1129502"
					},
					"external": {
						"": "infinite",
						"ADMIN_ROLE()": "infinite",
						"DEFAULT_ADMIN_ROLE()": "260",
						"POLICY_ROLE()": "307",
						"addAdmin(address)": "infinite",
						"aliveImplementation(address)": "2629",
						"cancelL1(bytes32)": "2565",
						"chainData(uint256)": "9037",
						"editCtAmount(bytes32)": "2523",
						"getRoleAdmin(bytes32)": "2487",
						"getSelectorImplementation2(bytes4)": "9297",
						"grantRole(bytes32,address)": "infinite",
						"hasRole(bytes32,address)": "2696",
						"implementation()": "infinite",
						"implementation2(uint256)": "2594",
						"isAdmin(address)": "infinite",
						"pauseProxy()": "2386",
						"provideAccount(bytes32)": "2541",
						"proxyImplementation(uint256)": "2518",
						"removeAdmin(address)": "infinite",
						"renounceRole(bytes32,address)": "29136",
						"revokeRole(bytes32,address)": "infinite",
						"selectorImplementation(bytes4)": "2613",
						"setAliveImplementation2(address,bool)": "infinite",
						"setChainInfo(address,address,address,address,uint256)": "infinite",
						"setImplementation2(address,uint256,bool)": "infinite",
						"setL1StandardBridge(uint256,address)": "infinite",
						"setProxyPause(bool)": "infinite",
						"setSelectorImplementations2(bytes4[],address)": "infinite",
						"successCT(bytes32)": "2525",
						"supportsInterface(bytes4)": "470",
						"transferAdmin(address)": "infinite",
						"upgradeTo(address)": "infinite"
					}
				},
				"methodIdentifiers": {
					"ADMIN_ROLE()": "75b238fc",
					"DEFAULT_ADMIN_ROLE()": "a217fddf",
					"POLICY_ROLE()": "22985246",
					"addAdmin(address)": "70480275",
					"aliveImplementation(address)": "550d01a3",
					"cancelL1(bytes32)": "178694b7",
					"chainData(uint256)": "e59f69c2",
					"editCtAmount(bytes32)": "daf380bf",
					"getRoleAdmin(bytes32)": "248a9ca3",
					"getSelectorImplementation2(bytes4)": "8d4fdb40",
					"grantRole(bytes32,address)": "2f2ff15d",
					"hasRole(bytes32,address)": "91d14854",
					"implementation()": "5c60da1b",
					"implementation2(uint256)": "8b8f4a65",
					"isAdmin(address)": "24d7806c",
					"pauseProxy()": "63a8fd89",
					"provideAccount(bytes32)": "8b41f3ab",
					"proxyImplementation(uint256)": "b911135f",
					"removeAdmin(address)": "1785f53c",
					"renounceRole(bytes32,address)": "36568abe",
					"revokeRole(bytes32,address)": "d547741f",
					"selectorImplementation(bytes4)": "50d2a276",
					"setAliveImplementation2(address,bool)": "5cc797d8",
					"setChainInfo(address,address,address,address,uint256)": "ad084c9e",
					"setImplementation2(address,uint256,bool)": "7cd5f663",
					"setL1StandardBridge(uint256,address)": "6ecfae00",
					"setProxyPause(bool)": "7cb00d25",
					"setSelectorImplementations2(bytes4[],address)": "4a5df50f",
					"successCT(bytes32)": "ab01fac0",
					"supportsInterface(bytes4)": "01ffc9a7",
					"transferAdmin(address)": "75829def",
					"upgradeTo(address)": "3659cfe6"
				}
			},
			"storageLayout": {
				"storage": [
					{
						"astId": 1099,
						"contract": "contracts/L1/L2toL2CrossTradeProxyL1.sol:L2toL2CrossTradeProxyL1",
						"label": "pauseProxy",
						"offset": 0,
						"slot": "0",
						"type": "t_bool"
					},
					{
						"astId": 1103,
						"contract": "contracts/L1/L2toL2CrossTradeProxyL1.sol:L2toL2CrossTradeProxyL1",
						"label": "proxyImplementation",
						"offset": 0,
						"slot": "1",
						"type": "t_mapping(t_uint256,t_address)"
					},
					{
						"astId": 1107,
						"contract": "contracts/L1/L2toL2CrossTradeProxyL1.sol:L2toL2CrossTradeProxyL1",
						"label": "aliveImplementation",
						"offset": 0,
						"slot": "2",
						"type": "t_mapping(t_address,t_bool)"
					},
					{
						"astId": 1111,
						"contract": "contracts/L1/L2toL2CrossTradeProxyL1.sol:L2toL2CrossTradeProxyL1",
						"label": "selectorImplementation",
						"offset": 0,
						"slot": "3",
						"type": "t_mapping(t_bytes4,t_address)"
					},
					{
						"astId": 26,
						"contract": "contracts/L1/L2toL2CrossTradeProxyL1.sol:L2toL2CrossTradeProxyL1",
						"label": "_roles",
						"offset": 0,
						"slot": "4",
						"type": "t_mapping(t_bytes32,t_struct(RoleData)21_storage)"
					},
					{
						"astId": 520,
						"contract": "contracts/L1/L2toL2CrossTradeProxyL1.sol:L2toL2CrossTradeProxyL1",
						"label": "l1StandardBridge",
						"offset": 0,
						"slot": "5",
						"type": "t_mapping(t_uint256,t_address)"
					},
					{
						"astId": 524,
						"contract": "contracts/L1/L2toL2CrossTradeProxyL1.sol:L2toL2CrossTradeProxyL1",
						"label": "successCT",
						"offset": 0,
						"slot": "6",
						"type": "t_mapping(t_bytes32,t_bool)"
					},
					{
						"astId": 528,
						"contract": "contracts/L1/L2toL2CrossTradeProxyL1.sol:L2toL2CrossTradeProxyL1",
						"label": "cancelL1",
						"offset": 0,
						"slot": "7",
						"type": "t_mapping(t_bytes32,t_address)"
					},
					{
						"astId": 532,
						"contract": "contracts/L1/L2toL2CrossTradeProxyL1.sol:L2toL2CrossTradeProxyL1",
						"label": "provideAccount",
						"offset": 0,
						"slot": "8",
						"type": "t_mapping(t_bytes32,t_address)"
					},
					{
						"astId": 536,
						"contract": "contracts/L1/L2toL2CrossTradeProxyL1.sol:L2toL2CrossTradeProxyL1",
						"label": "editCtAmount",
						"offset": 0,
						"slot": "9",
						"type": "t_mapping(t_bytes32,t_uint256)"
					},
					{
						"astId": 541,
						"contract": "contracts/L1/L2toL2CrossTradeProxyL1.sol:L2toL2CrossTradeProxyL1",
						"label": "chainData",
						"offset": 0,
						"slot": "10",
						"type": "t_mapping(t_uint256,t_struct(ChainIdData)516_storage)"
					}
				],
				"types": {
					"t_address": {
						"encoding": "inplace",
						"label": "address",
						"numberOfBytes": "20"
					},
					"t_bool": {
						"encoding": "inplace",
						"label": "bool",
						"numberOfBytes": "1"
					},
					"t_bytes32": {
						"encoding": "inplace",
						"label": "bytes32",
						"numberOfBytes": "32"
					},
					"t_bytes4": {
						"encoding": "inplace",
						"label": "bytes4",
						"numberOfBytes": "4"
					},
					"t_mapping(t_address,t_bool)": {
						"encoding": "mapping",
						"key": "t_address",
						"label": "mapping(address => bool)",
						"numberOfBytes": "32",
						"value": "t_bool"
					},
					"t_mapping(t_bytes32,t_address)": {
						"encoding": "mapping",
						"key": "t_bytes32",
						"label": "mapping(bytes32 => address)",
						"numberOfBytes": "32",
						"value": "t_address"
					},
					"t_mapping(t_bytes32,t_bool)": {
						"encoding": "mapping",
						"key": "t_bytes32",
						"label": "mapping(bytes32 => bool)",
						"numberOfBytes": "32",
						"value": "t_bool"
					},
					"t_mapping(t_bytes32,t_struct(RoleData)21_storage)": {
						"encoding": "mapping",
						"key": "t_bytes32",
						"label": "mapping(bytes32 => struct AccessControl.RoleData)",
						"numberOfBytes": "32",
						"value": "t_struct(RoleData)21_storage"
					},
					"t_mapping(t_bytes32,t_uint256)": {
						"encoding": "mapping",
						"key": "t_bytes32",
						"label": "mapping(bytes32 => uint256)",
						"numberOfBytes": "32",
						"value": "t_uint256"
					},
					"t_mapping(t_bytes4,t_address)": {
						"encoding": "mapping",
						"key": "t_bytes4",
						"label": "mapping(bytes4 => address)",
						"numberOfBytes": "32",
						"value": "t_address"
					},
					"t_mapping(t_uint256,t_address)": {
						"encoding": "mapping",
						"key": "t_uint256",
						"label": "mapping(uint256 => address)",
						"numberOfBytes": "32",
						"value": "t_address"
					},
					"t_mapping(t_uint256,t_struct(ChainIdData)516_storage)": {
						"encoding": "mapping",
						"key": "t_uint256",
						"label": "mapping(uint256 => struct L2toL2CrossTradeStorageL1.ChainIdData)",
						"numberOfBytes": "32",
						"value": "t_struct(ChainIdData)516_storage"
					},
					"t_struct(ChainIdData)516_storage": {
						"encoding": "inplace",
						"label": "struct L2toL2CrossTradeStorageL1.ChainIdData",
						"members": [
							{
								"astId": 509,
								"contract": "contracts/L1/L2toL2CrossTradeProxyL1.sol:L2toL2CrossTradeProxyL1",
								"label": "crossDomainMessenger",
								"offset": 0,
								"slot": "0",
								"type": "t_address"
							},
							{
								"astId": 511,
								"contract": "contracts/L1/L2toL2CrossTradeProxyL1.sol:L2toL2CrossTradeProxyL1",
								"label": "l2CrossTradeContract",
								"offset": 0,
								"slot": "1",
								"type": "t_address"
							},
							{
								"astId": 513,
								"contract": "contracts/L1/L2toL2CrossTradeProxyL1.sol:L2toL2CrossTradeProxyL1",
								"label": "legacyERC20ETH",
								"offset": 0,
								"slot": "2",
								"type": "t_address"
							},
							{
								"astId": 515,
								"contract": "contracts/L1/L2toL2CrossTradeProxyL1.sol:L2toL2CrossTradeProxyL1",
								"label": "l1TON",
								"offset": 0,
								"slot": "3",
								"type": "t_address"
							}
						],
						"numberOfBytes": "128"
					},
					"t_struct(RoleData)21_storage": {
						"encoding": "inplace",
						"label": "struct AccessControl.RoleData",
						"members": [
							{
								"astId": 18,
								"contract": "contracts/L1/L2toL2CrossTradeProxyL1.sol:L2toL2CrossTradeProxyL1",
								"label": "hasRole",
								"offset": 0,
								"slot": "0",
								"type": "t_mapping(t_address,t_bool)"
							},
							{
								"astId": 20,
								"contract": "contracts/L1/L2toL2CrossTradeProxyL1.sol:L2toL2CrossTradeProxyL1",
								"label": "adminRole",
								"offset": 0,
								"slot": "1",
								"type": "t_bytes32"
							}
						],
						"numberOfBytes": "64"
					},
					"t_uint256": {
						"encoding": "inplace",
						"label": "uint256",
						"numberOfBytes": "32"
					}
				}
			},
			"userdoc": {
				"kind": "user",
				"methods": {
					"setChainInfo(address,address,address,address,uint256)": {
						"notice": "Store addresses for chainId"
					},
					"setProxyPause(bool)": {
						"notice": "Set pause state"
					},
					"upgradeTo(address)": {
						"notice": "Set implementation contract"
					}
				},
				"version": 1
			}
		}
	}
}