{
	"contracts/L1/L2toL2CrossTradeStorageL1.sol": {
		"L2toL2CrossTradeStorageL1": {
			"abi": [
				{
					"inputs": [
						{
							"internalType": "bytes32",
							"name": "",
							"type": "bytes32"
						}
					],
					"name": "cancelL1",
					"outputs": [
						{
							"internalType": "address",
							"name": "",
							"type": "address"
						}
					],
					"stateMutability": "view",
					"type": "function"
				},
				{
					"inputs": [
						{
							"internalType": "uint256",
							"name": "",
							"type": "uint256"
						}
					],
					"name": "chainData",
					"outputs": [
						{
							"internalType": "address",
							"name": "crossDomainMessenger",
							"type": "address"
						},
						{
							"internalType": "address",
							"name": "l2CrossTradeContract",
							"type": "address"
						},
						{
							"internalType": "address",
							"name": "legacyERC20ETH",
							"type": "address"
						},
						{
							"internalType": "address",
							"name": "l1TON",
							"type": "address"
						}
					],
					"stateMutability": "view",
					"type": "function"
				},
				{
					"inputs": [
						{
							"internalType": "bytes32",
							"name": "",
							"type": "bytes32"
						}
					],
					"name": "editCtAmount",
					"outputs": [
						{
							"internalType": "uint256",
							"name": "",
							"type": "uint256"
						}
					],
					"stateMutability": "view",
					"type": "function"
				},
				{
					"inputs": [
						{
							"internalType": "bytes32",
							"name": "",
							"type": "bytes32"
						}
					],
					"name": "provideAccount",
					"outputs": [
						{
							"internalType": "address",
							"name": "",
							"type": "address"
						}
					],
					"stateMutability": "view",
					"type": "function"
				},
				{
					"inputs": [
						{
							"internalType": "bytes32",
							"name": "",
							"type": "bytes32"
						}
					],
					"name": "successCT",
					"outputs": [
						{
							"internalType": "bool",
							"name": "",
							"type": "bool"
						}
					],
					"stateMutability": "view",
					"type": "function"
				}
			],
			"devdoc": {
				"kind": "dev",
				"methods": {},
				"version": 1
			},
			"evm": {
				"assembly": "    /* \"contracts/L1/L2toL2CrossTradeStorageL1.sol\":63:1032  contract L2toL2CrossTradeStorageL1 {... */\n  mstore(0x40, 0x80)\n  callvalue\n  dup1\n  iszero\n  tag_1\n  jumpi\n  0x00\n  dup1\n  revert\ntag_1:\n  pop\n  dataSize(sub_0)\n  dup1\n  dataOffset(sub_0)\n  0x00\n  codecopy\n  0x00\n  return\nstop\n\nsub_0: assembly {\n        /* \"contracts/L1/L2toL2CrossTradeStorageL1.sol\":63:1032  contract L2toL2CrossTradeStorageL1 {... */\n      mstore(0x40, 0x80)\n      callvalue\n      dup1\n      iszero\n      tag_1\n      jumpi\n      0x00\n      dup1\n      revert\n    tag_1:\n      pop\n      jumpi(tag_2, lt(calldatasize, 0x04))\n      shr(0xe0, calldataload(0x00))\n      dup1\n      0x178694b7\n      eq\n      tag_3\n      jumpi\n      dup1\n      0x8b41f3ab\n      eq\n      tag_4\n      jumpi\n      dup1\n      0xab01fac0\n      eq\n      tag_5\n      jumpi\n      dup1\n      0xdaf380bf\n      eq\n      tag_6\n      jumpi\n      dup1\n      0xe59f69c2\n      eq\n      tag_7\n      jumpi\n    tag_2:\n      0x00\n      dup1\n      revert\n        /* \"contracts/L1/L2toL2CrossTradeStorageL1.sol\":621:664  mapping(bytes32 => address) public cancelL1 */\n    tag_3:\n      tag_8\n      tag_9\n      calldatasize\n      0x04\n      tag_10\n      jump\t// in\n    tag_9:\n      mstore(0x20, 0x02)\n      0x00\n      swap1\n      dup2\n      mstore\n      0x40\n      swap1\n      keccak256\n      sload\n      sub(shl(0xa0, 0x01), 0x01)\n      and\n      dup2\n      jump\n    tag_8:\n      mload(0x40)\n      sub(shl(0xa0, 0x01), 0x01)\n        /* \"#utility.yul\":363:395   */\n      swap1\n      swap2\n      and\n        /* \"#utility.yul\":345:396   */\n      dup2\n      mstore\n        /* \"#utility.yul\":333:335   */\n      0x20\n        /* \"#utility.yul\":318:336   */\n      add\n        /* \"contracts/L1/L2toL2CrossTradeStorageL1.sol\":621:664  mapping(bytes32 => address) public cancelL1 */\n    tag_12:\n      mload(0x40)\n      dup1\n      swap2\n      sub\n      swap1\n      return\n        /* \"contracts/L1/L2toL2CrossTradeStorageL1.sol\":749:798  mapping(bytes32 => address) public provideAccount */\n    tag_4:\n      tag_8\n      tag_15\n      calldatasize\n      0x04\n      tag_10\n      jump\t// in\n    tag_15:\n      mstore(0x20, 0x03)\n      0x00\n      swap1\n      dup2\n      mstore\n      0x40\n      swap1\n      keccak256\n      sload\n      sub(shl(0xa0, 0x01), 0x01)\n      and\n      dup2\n      jump\n        /* \"contracts/L1/L2toL2CrossTradeStorageL1.sol\":495:536  mapping(bytes32 => bool) public successCT */\n    tag_5:\n      tag_18\n      tag_19\n      calldatasize\n      0x04\n      tag_10\n      jump\t// in\n    tag_19:\n      mstore(0x20, 0x01)\n      0x00\n      swap1\n      dup2\n      mstore\n      0x40\n      swap1\n      keccak256\n      sload\n      0xff\n      and\n      dup2\n      jump\n    tag_18:\n      mload(0x40)\n        /* \"#utility.yul\":572:586   */\n      swap1\n      iszero\n        /* \"#utility.yul\":565:587   */\n      iszero\n        /* \"#utility.yul\":547:588   */\n      dup2\n      mstore\n        /* \"#utility.yul\":535:537   */\n      0x20\n        /* \"#utility.yul\":520:538   */\n      add\n        /* \"contracts/L1/L2toL2CrossTradeStorageL1.sol\":495:536  mapping(bytes32 => bool) public successCT */\n      tag_12\n        /* \"#utility.yul\":407:594   */\n      jump\n        /* \"contracts/L1/L2toL2CrossTradeStorageL1.sol\":906:953  mapping(bytes32 => uint256) public editCtAmount */\n    tag_6:\n      tag_23\n      tag_24\n      calldatasize\n      0x04\n      tag_10\n      jump\t// in\n    tag_24:\n      mstore(0x20, 0x04)\n      0x00\n      swap1\n      dup2\n      mstore\n      0x40\n      swap1\n      keccak256\n      sload\n      dup2\n      jump\n    tag_23:\n      mload(0x40)\n        /* \"#utility.yul\":745:770   */\n      swap1\n      dup2\n      mstore\n        /* \"#utility.yul\":733:735   */\n      0x20\n        /* \"#utility.yul\":718:736   */\n      add\n        /* \"contracts/L1/L2toL2CrossTradeStorageL1.sol\":906:953  mapping(bytes32 => uint256) public editCtAmount */\n      tag_12\n        /* \"#utility.yul\":599:776   */\n      jump\n        /* \"contracts/L1/L2toL2CrossTradeStorageL1.sol\":981:1029  mapping(uint256 => ChainIdData) public chainData */\n    tag_7:\n      tag_28\n      tag_29\n      calldatasize\n      0x04\n      tag_10\n      jump\t// in\n    tag_29:\n      mstore(0x20, 0x05)\n      0x00\n      swap1\n      dup2\n      mstore\n      0x40\n      swap1\n      keccak256\n      dup1\n      sload\n      0x01\n      dup3\n      add\n      sload\n      0x02\n      dup4\n      add\n      sload\n      0x03\n      swap1\n      swap4\n      add\n      sload\n      sub(shl(0xa0, 0x01), 0x01)\n      swap3\n      dup4\n      and\n      swap4\n      swap2\n      dup4\n      and\n      swap3\n      swap2\n      dup3\n      and\n      swap2\n      and\n      dup5\n      jump\n    tag_28:\n      0x40\n      dup1\n      mload\n      sub(shl(0xa0, 0x01), 0x01)\n        /* \"#utility.yul\":1253:1268   */\n      swap6\n      dup7\n      and\n        /* \"#utility.yul\":1235:1269   */\n      dup2\n      mstore\n        /* \"#utility.yul\":1305:1320   */\n      swap4\n      dup6\n      and\n        /* \"#utility.yul\":1300:1302   */\n      0x20\n        /* \"#utility.yul\":1285:1303   */\n      dup6\n      add\n        /* \"#utility.yul\":1278:1321   */\n      mstore\n        /* \"#utility.yul\":1357:1372   */\n      swap2\n      dup5\n      and\n        /* \"#utility.yul\":1337:1355   */\n      swap2\n      dup4\n      add\n        /* \"#utility.yul\":1330:1373   */\n      swap2\n      swap1\n      swap2\n      mstore\n        /* \"#utility.yul\":1409:1424   */\n      swap1\n      swap2\n      and\n        /* \"#utility.yul\":1404:1406   */\n      0x60\n        /* \"#utility.yul\":1389:1407   */\n      dup3\n      add\n        /* \"#utility.yul\":1382:1425   */\n      mstore\n        /* \"#utility.yul\":1184:1187   */\n      0x80\n        /* \"#utility.yul\":1169:1188   */\n      add\n        /* \"contracts/L1/L2toL2CrossTradeStorageL1.sol\":981:1029  mapping(uint256 => ChainIdData) public chainData */\n      tag_12\n        /* \"#utility.yul\":966:1431   */\n      jump\n        /* \"#utility.yul\":14:194   */\n    tag_10:\n        /* \"#utility.yul\":73:79   */\n      0x00\n        /* \"#utility.yul\":126:128   */\n      0x20\n        /* \"#utility.yul\":114:123   */\n      dup3\n        /* \"#utility.yul\":105:112   */\n      dup5\n        /* \"#utility.yul\":101:124   */\n      sub\n        /* \"#utility.yul\":97:129   */\n      slt\n        /* \"#utility.yul\":94:146   */\n      iszero\n      tag_36\n      jumpi\n        /* \"#utility.yul\":142:143   */\n      0x00\n        /* \"#utility.yul\":139:140   */\n      dup1\n        /* \"#utility.yul\":132:144   */\n      revert\n        /* \"#utility.yul\":94:146   */\n    tag_36:\n      pop\n        /* \"#utility.yul\":165:188   */\n      calldataload\n      swap2\n        /* \"#utility.yul\":14:194   */\n      swap1\n      pop\n      jump\t// out\n\n    auxdata: 0xa264697066735822122026eee8c6f378565e345562e731d074df63ce3e53bf65baf390c53a555ca5055e64736f6c63430008180033\n}\n",
				"bytecode": {
					"linkReferences": {},
					"object": "608060405234801561000f575f80fd5b506101ea8061001d5f395ff3fe608060405234801561000f575f80fd5b5060043610610055575f3560e01c8063178694b7146100595780638b41f3ab1461009e578063ab01fac0146100c6578063daf380bf146100f8578063e59f69c214610125575b5f80fd5b61008161006736600461019d565b60026020525f90815260409020546001600160a01b031681565b6040516001600160a01b0390911681526020015b60405180910390f35b6100816100ac36600461019d565b60036020525f90815260409020546001600160a01b031681565b6100e86100d436600461019d565b60016020525f908152604090205460ff1681565b6040519015158152602001610095565b61011761010636600461019d565b60046020525f908152604090205481565b604051908152602001610095565b61016a61013336600461019d565b60056020525f908152604090208054600182015460028301546003909301546001600160a01b039283169391831692918216911684565b604080516001600160a01b0395861681529385166020850152918416918301919091529091166060820152608001610095565b5f602082840312156101ad575f80fd5b503591905056fea264697066735822122026eee8c6f378565e345562e731d074df63ce3e53bf65baf390c53a555ca5055e64736f6c63430008180033",
					"opcodes": "PUSH1 0x80 PUSH1 0x40 MSTORE CALLVALUE DUP1 ISZERO PUSH2 0xF JUMPI PUSH0 DUP1 REVERT JUMPDEST POP PUSH2 0x1EA DUP1 PUSH2 0x1D PUSH0 CODECOPY PUSH0 RETURN INVALID PUSH1 0x80 PUSH1 0x40 MSTORE CALLVALUE DUP1 ISZERO PUSH2 0xF JUMPI PUSH0 DUP1 REVERT JUMPDEST POP PUSH1 0x4 CALLDATASIZE LT PUSH2 0x55 JUMPI PUSH0 CALLDATALOAD PUSH1 0xE0 SHR DUP1 PUSH4 0x178694B7 EQ PUSH2 0x59 JUMPI DUP1 PUSH4 0x8B41F3AB EQ PUSH2 0x9E JUMPI DUP1 PUSH4 0xAB01FAC0 EQ PUSH2 0xC6 JUMPI DUP1 PUSH4 0xDAF380BF EQ PUSH2 0xF8 JUMPI DUP1 PUSH4 0xE59F69C2 EQ PUSH2 0x125 JUMPI JUMPDEST PUSH0 DUP1 REVERT JUMPDEST PUSH2 0x81 PUSH2 0x67 CALLDATASIZE PUSH1 0x4 PUSH2 0x19D JUMP JUMPDEST PUSH1 0x2 PUSH1 0x20 MSTORE PUSH0 SWAP1 DUP2 MSTORE PUSH1 0x40 SWAP1 KECCAK256 SLOAD PUSH1 0x1 PUSH1 0x1 PUSH1 0xA0 SHL SUB AND DUP2 JUMP JUMPDEST PUSH1 0x40 MLOAD PUSH1 0x1 PUSH1 0x1 PUSH1 0xA0 SHL SUB SWAP1 SWAP2 AND DUP2 MSTORE PUSH1 0x20 ADD JUMPDEST PUSH1 0x40 MLOAD DUP1 SWAP2 SUB SWAP1 RETURN JUMPDEST PUSH2 0x81 PUSH2 0xAC CALLDATASIZE PUSH1 0x4 PUSH2 0x19D JUMP JUMPDEST PUSH1 0x3 PUSH1 0x20 MSTORE PUSH0 SWAP1 DUP2 MSTORE PUSH1 0x40 SWAP1 KECCAK256 SLOAD PUSH1 0x1 PUSH1 0x1 PUSH1 0xA0 SHL SUB AND DUP2 JUMP JUMPDEST PUSH2 0xE8 PUSH2 0xD4 CALLDATASIZE PUSH1 0x4 PUSH2 0x19D JUMP JUMPDEST PUSH1 0x1 PUSH1 0x20 MSTORE PUSH0 SWAP1 DUP2 MSTORE PUSH1 0x40 SWAP1 KECCAK256 SLOAD PUSH1 0xFF AND DUP2 JUMP JUMPDEST PUSH1 0x40 MLOAD SWAP1 ISZERO ISZERO DUP2 MSTORE PUSH1 0x20 ADD PUSH2 0x95 JUMP JUMPDEST PUSH2 0x117 PUSH2 0x106 CALLDATASIZE PUSH1 0x4 PUSH2 0x19D JUMP JUMPDEST PUSH1 0x4 PUSH1 0x20 MSTORE PUSH0 SWAP1 DUP2 MSTORE PUSH1 0x40 SWAP1 KECCAK256 SLOAD DUP2 JUMP JUMPDEST PUSH1 0x40 MLOAD SWAP1 DUP2 MSTORE PUSH1 0x20 ADD PUSH2 0x95 JUMP JUMPDEST PUSH2 0x16A PUSH2 0x133 CALLDATASIZE PUSH1 0x4 PUSH2 0x19D JUMP JUMPDEST PUSH1 0x5 PUSH1 0x20 MSTORE PUSH0 SWAP1 DUP2 MSTORE PUSH1 0x40 SWAP1 KECCAK256 DUP1 SLOAD PUSH1 0x1 DUP3 ADD SLOAD PUSH1 0x2 DUP4 ADD SLOAD PUSH1 0x3 SWAP1 SWAP4 ADD SLOAD PUSH1 0x1 PUSH1 0x1 PUSH1 0xA0 SHL SUB SWAP3 DUP4 AND SWAP4 SWAP2 DUP4 AND SWAP3 SWAP2 DUP3 AND SWAP2 AND DUP5 JUMP JUMPDEST PUSH1 0x40 DUP1 MLOAD PUSH1 0x1 PUSH1 0x1 PUSH1 0xA0 SHL SUB SWAP6 DUP7 AND DUP2 MSTORE SWAP4 DUP6 AND PUSH1 0x20 DUP6 ADD MSTORE SWAP2 DUP5 AND SWAP2 DUP4 ADD SWAP2 SWAP1 SWAP2 MSTORE SWAP1 SWAP2 AND PUSH1 0x60 DUP3 ADD MSTORE PUSH1 0x80 ADD PUSH2 0x95 JUMP JUMPDEST PUSH0 PUSH1 0x20 DUP3 DUP5 SUB SLT ISZERO PUSH2 0x1AD JUMPI PUSH0 DUP1 REVERT JUMPDEST POP CALLDATALOAD SWAP2 SWAP1 POP JUMP INVALID LOG2 PUSH5 0x6970667358 0x22 SLT KECCAK256 0x26 0xEE 0xE8 0xC6 RETURN PUSH25 0x565E345562E731D074DF63CE3E53BF65BAF390C53A555CA505 MCOPY PUSH5 0x736F6C6343 STOP ADDMOD XOR STOP CALLER "
				},
				"gasEstimates": {
					"creation": {
						"codeDepositCost": "98000",
						"executionCost": "145",
						"totalCost": "98145"
					},
					"external": {
						"cancelL1(bytes32)": "2441",
						"chainData(uint256)": "8993",
						"editCtAmount(bytes32)": "2479",
						"provideAccount(bytes32)": "2463",
						"successCT(bytes32)": "2469"
					}
				},
				"methodIdentifiers": {
					"cancelL1(bytes32)": "178694b7",
					"chainData(uint256)": "e59f69c2",
					"editCtAmount(bytes32)": "daf380bf",
					"provideAccount(bytes32)": "8b41f3ab",
					"successCT(bytes32)": "ab01fac0"
				}
			},
			"storageLayout": {
				"storage": [
					{
						"astId": 520,
						"contract": "contracts/L1/L2toL2CrossTradeStorageL1.sol:L2toL2CrossTradeStorageL1",
						"label": "l1StandardBridge",
						"offset": 0,
						"slot": "0",
						"type": "t_mapping(t_uint256,t_address)"
					},
					{
						"astId": 524,
						"contract": "contracts/L1/L2toL2CrossTradeStorageL1.sol:L2toL2CrossTradeStorageL1",
						"label": "successCT",
						"offset": 0,
						"slot": "1",
						"type": "t_mapping(t_bytes32,t_bool)"
					},
					{
						"astId": 528,
						"contract": "contracts/L1/L2toL2CrossTradeStorageL1.sol:L2toL2CrossTradeStorageL1",
						"label": "cancelL1",
						"offset": 0,
						"slot": "2",
						"type": "t_mapping(t_bytes32,t_address)"
					},
					{
						"astId": 532,
						"contract": "contracts/L1/L2toL2CrossTradeStorageL1.sol:L2toL2CrossTradeStorageL1",
						"label": "provideAccount",
						"offset": 0,
						"slot": "3",
						"type": "t_mapping(t_bytes32,t_address)"
					},
					{
						"astId": 536,
						"contract": "contracts/L1/L2toL2CrossTradeStorageL1.sol:L2toL2CrossTradeStorageL1",
						"label": "editCtAmount",
						"offset": 0,
						"slot": "4",
						"type": "t_mapping(t_bytes32,t_uint256)"
					},
					{
						"astId": 541,
						"contract": "contracts/L1/L2toL2CrossTradeStorageL1.sol:L2toL2CrossTradeStorageL1",
						"label": "chainData",
						"offset": 0,
						"slot": "5",
						"type": "t_mapping(t_uint256,t_struct(ChainIdData)516_storage)"
					}
				],
				"types": {
					"t_address": {
						"encoding": "inplace",
						"label": "address",
						"numberOfBytes": "20"
					},
					"t_bool": {
						"encoding": "inplace",
						"label": "bool",
						"numberOfBytes": "1"
					},
					"t_bytes32": {
						"encoding": "inplace",
						"label": "bytes32",
						"numberOfBytes": "32"
					},
					"t_mapping(t_bytes32,t_address)": {
						"encoding": "mapping",
						"key": "t_bytes32",
						"label": "mapping(bytes32 => address)",
						"numberOfBytes": "32",
						"value": "t_address"
					},
					"t_mapping(t_bytes32,t_bool)": {
						"encoding": "mapping",
						"key": "t_bytes32",
						"label": "mapping(bytes32 => bool)",
						"numberOfBytes": "32",
						"value": "t_bool"
					},
					"t_mapping(t_bytes32,t_uint256)": {
						"encoding": "mapping",
						"key": "t_bytes32",
						"label": "mapping(bytes32 => uint256)",
						"numberOfBytes": "32",
						"value": "t_uint256"
					},
					"t_mapping(t_uint256,t_address)": {
						"encoding": "mapping",
						"key": "t_uint256",
						"label": "mapping(uint256 => address)",
						"numberOfBytes": "32",
						"value": "t_address"
					},
					"t_mapping(t_uint256,t_struct(ChainIdData)516_storage)": {
						"encoding": "mapping",
						"key": "t_uint256",
						"label": "mapping(uint256 => struct L2toL2CrossTradeStorageL1.ChainIdData)",
						"numberOfBytes": "32",
						"value": "t_struct(ChainIdData)516_storage"
					},
					"t_struct(ChainIdData)516_storage": {
						"encoding": "inplace",
						"label": "struct L2toL2CrossTradeStorageL1.ChainIdData",
						"members": [
							{
								"astId": 509,
								"contract": "contracts/L1/L2toL2CrossTradeStorageL1.sol:L2toL2CrossTradeStorageL1",
								"label": "crossDomainMessenger",
								"offset": 0,
								"slot": "0",
								"type": "t_address"
							},
							{
								"astId": 511,
								"contract": "contracts/L1/L2toL2CrossTradeStorageL1.sol:L2toL2CrossTradeStorageL1",
								"label": "l2CrossTradeContract",
								"offset": 0,
								"slot": "1",
								"type": "t_address"
							},
							{
								"astId": 513,
								"contract": "contracts/L1/L2toL2CrossTradeStorageL1.sol:L2toL2CrossTradeStorageL1",
								"label": "legacyERC20ETH",
								"offset": 0,
								"slot": "2",
								"type": "t_address"
							},
							{
								"astId": 515,
								"contract": "contracts/L1/L2toL2CrossTradeStorageL1.sol:L2toL2CrossTradeStorageL1",
								"label": "l1TON",
								"offset": 0,
								"slot": "3",
								"type": "t_address"
							}
						],
						"numberOfBytes": "128"
					},
					"t_uint256": {
						"encoding": "inplace",
						"label": "uint256",
						"numberOfBytes": "32"
					}
				}
			},
			"userdoc": {
				"kind": "user",
				"methods": {},
				"version": 1
			}
		}
	}
}