{
  "abi": [
    {
      "inputs": [
        {
          "internalType": "address",
          "name": "_recipient",
          "type": "address"
        },
        {
          "internalType": "uint256",
          "name": "_minWithdrawalAmount",
          "type": "uint256"
        },
        {
          "internalType": "enum FeeVault.WithdrawalNetwork",
          "name": "_withdrawalNetwork",
          "type": "uint8"
        }
      ],
      "stateMutability": "nonpayable",
      "type": "constructor"
    },
    {
      "anonymous": false,
      "inputs": [
        {
          "indexed": false,
          "internalType": "uint256",
          "name": "value",
          "type": "uint256"
        },
        {
          "indexed": false,
          "internalType": "address",
          "name": "to",
          "type": "address"
        },
        {
          "indexed": false,
          "internalType": "address",
          "name": "from",
          "type": "address"
        }
      ],
      "name": "Withdrawal",
      "type": "event"
    },
    {
      "anonymous": false,
      "inputs": [
        {
          "indexed": false,
          "internalType": "uint256",
          "name": "value",
          "type": "uint256"
        },
        {
          "indexed": false,
          "internalType": "address",
          "name": "to",
          "type": "address"
        },
        {
          "indexed": false,
          "internalType": "address",
          "name": "from",
          "type": "address"
        },
        {
          "indexed": false,
          "internalType": "enum FeeVault.WithdrawalNetwork",
          "name": "withdrawalNetwork",
          "type": "uint8"
        }
      ],
      "name": "Withdrawal",
      "type": "event"
    },
    {
      "inputs": [],
      "name": "MIN_WITHDRAWAL_AMOUNT",
      "outputs": [
        {
          "internalType": "uint256",
          "name": "",
          "type": "uint256"
        }
      ],
      "stateMutability": "view",
      "type": "function"
    },
    {
      "inputs": [],
      "name": "RECIPIENT",
      "outputs": [
        {
          "internalType": "address",
          "name": "",
          "type": "address"
        }
      ],
      "stateMutability": "view",
      "type": "function"
    },
    {
      "inputs": [],
      "name": "WITHDRAWAL_NETWORK",
      "outputs": [
        {
          "internalType": "enum FeeVault.WithdrawalNetwork",
          "name": "",
          "type": "uint8"
        }
      ],
      "stateMutability": "view",
      "type": "function"
    },
    {
      "inputs": [],
      "name": "l1FeeWallet",
      "outputs": [
        {
          "internalType": "address",
          "name": "",
          "type": "address"
        }
      ],
      "stateMutability": "view",
      "type": "function"
    },
    {
      "inputs": [],
      "name": "totalProcessed",
      "outputs": [
        {
          "internalType": "uint256",
          "name": "",
          "type": "uint256"
        }
      ],
      "stateMutability": "view",
      "type": "function"
    },
    {
      "inputs": [],
      "name": "version",
      "outputs": [
        {
          "internalType": "string",
          "name": "",
          "type": "string"
        }
      ],
      "stateMutability": "view",
      "type": "function"
    },
    {
      "inputs": [],
      "name": "withdraw",
      "outputs": [],
      "stateMutability": "nonpayable",
      "type": "function"
    },
    {
      "stateMutability": "payable",
      "type": "receive"
    }
  ],
  "bytecode": {
    "object": "0x60e060405234801561001057600080fd5b5060405161091638038061091683398101604081905261002f91610079565b6001600160a01b03831660a0526080829052828282806001811115610056576100566100cc565b60c081600181111561006a5761006a6100cc565b815250505050505050506100e2565b60008060006060848603121561008e57600080fd5b83516001600160a01b03811681146100a557600080fd5b602085015160408601519194509250600281106100c157600080fd5b809150509250925092565b634e487b7160e01b600052602160045260246000fd5b60805160a05160c0516107ce61014860003960008181610181015281816103c701526104020152600081816092015281816101f301528181610316015281816103a50152818161043b01526105a20152600081816101c2015261021901526107ce6000f3fe6080604052600436106100745760003560e01c806384411d651161004e57806384411d651461014b578063d0e12f901461016f578063d3e5792b146101b0578063d4ff9218146101e457600080fd5b80630d9019e1146100805780633ccfd60b146100de57806354fd4d50146100f557600080fd5b3661007b57005b600080fd5b34801561008c57600080fd5b506100b47f000000000000000000000000000000000000000000000000000000000000000081565b60405173ffffffffffffffffffffffffffffffffffffffff90911681526020015b60405180910390f35b3480156100ea57600080fd5b506100f3610217565b005b34801561010157600080fd5b5061013e6040518060400160405280600581526020017f312e342e3100000000000000000000000000000000000000000000000000000081525081565b6040516100d5919061066e565b34801561015757600080fd5b5061016160005481565b6040519081526020016100d5565b34801561017b57600080fd5b506101a37f000000000000000000000000000000000000000000000000000000000000000081565b6040516100d591906106f2565b3480156101bc57600080fd5b506101617f000000000000000000000000000000000000000000000000000000000000000081565b3480156101f057600080fd5b507f00000000000000000000000000000000000000000000000000000000000000006100b4565b7f00000000000000000000000000000000000000000000000000000000000000004710156102f2576040517f08c379a000000000000000000000000000000000000000000000000000000000815260206004820152604a60248201527f4665655661756c743a207769746864726177616c20616d6f756e74206d75737460448201527f2062652067726561746572207468616e206d696e696d756d207769746864726160648201527f77616c20616d6f756e7400000000000000000000000000000000000000000000608482015260a4015b60405180910390fd5b6000479050806000808282546103089190610706565b9091555050604080518281527f000000000000000000000000000000000000000000000000000000000000000073ffffffffffffffffffffffffffffffffffffffff166020820152338183015290517fc8a211cc64b6ed1b50595a9fcb1932b6d1e5a6e8ef15b60e5b1f988ea9086bba9181900360600190a17f38e04cbeb8c10f8f568618aa75be0f10b6729b8b4237743b4de20cbcde2839ee817f0000000000000000000000000000000000000000000000000000000000000000337f00000000000000000000000000000000000000000000000000000000000000006040516103f69493929190610745565b60405180910390a160017f0000000000000000000000000000000000000000000000000000000000000000600181111561043257610432610688565b0361054b5760007f000000000000000000000000000000000000000000000000000000000000000073ffffffffffffffffffffffffffffffffffffffff168260405160006040518083038185875af1925050503d80600081146104b1576040519150601f19603f3d011682016040523d82523d6000602084013e6104b6565b606091505b5050905080610547576040517f08c379a000000000000000000000000000000000000000000000000000000000815260206004820152603060248201527f4665655661756c743a206661696c656420746f2073656e642045544820746f2060448201527f4c322066656520726563697069656e740000000000000000000000000000000060648201526084016102e9565b5050565b604080516020810182526000815290517f239955f70000000000000000000000000000000000000000000000000000000081527342000000000000000000000000000000000000109163239955f79184916105ce917f0000000000000000000000000000000000000000000000000000000000000000916188b891600401610786565b6000604051808303818588803b1580156105e757600080fd5b505af11580156105fb573d6000803e3d6000fd5b505050505050565b6000815180845260005b818110156106295760208185018101518683018201520161060d565b8181111561063b576000602083870101525b50601f017fffffffffffffffffffffffffffffffffffffffffffffffffffffffffffffffe0169290920160200192915050565b6020815260006106816020830184610603565b9392505050565b7f4e487b7100000000000000000000000000000000000000000000000000000000600052602160045260246000fd5b600281106106ee577f4e487b7100000000000000000000000000000000000000000000000000000000600052602160045260246000fd5b9052565b6020810161070082846106b7565b92915050565b60008219821115610740577f4e487b7100000000000000000000000000000000000000000000000000000000600052601160045260246000fd5b500190565b84815273ffffffffffffffffffffffffffffffffffffffff8481166020830152831660408201526080810161077d60608301846106b7565b95945050505050565b73ffffffffffffffffffffffffffffffffffffffff8416815263ffffffff8316602082015260606040820152600061077d606083018461060356fea164736f6c634300080f000a",
    "linkReferences": {}
  },
  "methodIdentifiers": {
    "MIN_WITHDRAWAL_AMOUNT()": "d3e5792b",
    "RECIPIENT()": "0d9019e1",
    "WITHDRAWAL_NETWORK()": "d0e12f90",
    "l1FeeWallet()": "d4ff9218",
    "totalProcessed()": "84411d65",
    "version()": "54fd4d50",
    "withdraw()": "3ccfd60b"
  },
  "storageLayout": {
    "storage": [
      {
        "astId": 71571,
        "contract": "src/L2/SequencerFeeVault.sol:SequencerFeeVault",
        "label": "totalProcessed",
        "offset": 0,
        "slot": "0",
        "type": "t_uint256"
      }
    ],
    "types": {
      "t_uint256": {
        "encoding": "inplace",
        "label": "uint256",
        "numberOfBytes": "32"
      }
    }
  },
  "userdoc": {
    "version": 1,
    "kind": "user",
    "methods": {
      "MIN_WITHDRAWAL_AMOUNT()": {
        "notice": "Minimum balance before a withdrawal can be triggered."
      },
      "RECIPIENT()": {
        "notice": "Wallet that will receive the fees."
      },
      "WITHDRAWAL_NETWORK()": {
        "notice": "Network which the RECIPIENT will receive fees on."
      },
      "constructor": {
        "notice": "Constructs the SequencerFeeVault contract."
      },
      "totalProcessed()": {
        "notice": "Total amount of wei processed by the contract."
      },
      "withdraw()": {
        "notice": "Triggers a withdrawal of funds to the fee wallet on L1 or L2."
      }
    },
    "events": {
      "Withdrawal(uint256,address,address)": {
        "notice": "Emitted each time a withdrawal occurs. This event will be deprecated         in favor of the Withdrawal event containing the WithdrawalNetwork parameter."
      },
      "Withdrawal(uint256,address,address,uint8)": {
        "notice": "Emitted each time a withdrawal occurs."
      }
    },
    "notice": "The SequencerFeeVault is the contract that holds any fees paid to the Sequencer during         transaction processing and block production."
  },
  "devdoc": {
    "version": 1,
    "kind": "dev",
    "methods": {
      "constructor": {
        "params": {
          "_minWithdrawalAmount": "Minimum balance for withdrawals.",
          "_recipient": "Wallet that will receive the fees.",
          "_withdrawalNetwork": "Network which the recipient will receive fees on."
        }
      },
      "l1FeeWallet()": {
        "returns": {
          "_0": "The recipient address."
        }
      }
    },
    "title": "SequencerFeeVault"
  },
  "id": 109
}