{
  "abi": [
    {
      "anonymous": false,
      "inputs": [
        {
          "indexed": true,
          "internalType": "bytes32",
          "name": "role",
          "type": "bytes32"
        },
        {
          "indexed": true,
          "internalType": "bytes32",
          "name": "previousAdminRole",
          "type": "bytes32"
        },
        {
          "indexed": true,
          "internalType": "bytes32",
          "name": "newAdminRole",
          "type": "bytes32"
        }
      ],
      "name": "RoleAdminChanged",
      "type": "event"
    },
    {
      "anonymous": false,
      "inputs": [
        {
          "indexed": true,
          "internalType": "bytes32",
          "name": "role",
          "type": "bytes32"
        },
        {
          "indexed": true,
          "internalType": "address",
          "name": "account",
          "type": "address"
        },
        {
          "indexed": true,
          "internalType": "address",
          "name": "sender",
          "type": "address"
        }
      ],
      "name": "RoleGranted",
      "type": "event"
    },
    {
      "anonymous": false,
      "inputs": [
        {
          "indexed": true,
          "internalType": "bytes32",
          "name": "role",
          "type": "bytes32"
        },
        {
          "indexed": true,
          "internalType": "address",
          "name": "account",
          "type": "address"
        },
        {
          "indexed": true,
          "internalType": "address",
          "name": "sender",
          "type": "address"
        }
      ],
      "name": "RoleRevoked",
      "type": "event"
    },
    {
      "inputs": [],
      "name": "ADMIN_ROLE",
      "outputs": [
        {
          "internalType": "bytes32",
          "name": "",
          "type": "bytes32"
        }
      ],
      "stateMutability": "view",
      "type": "function"
    },
    {
      "inputs": [],
      "name": "DEFAULT_ADMIN_ROLE",
      "outputs": [
        {
          "internalType": "bytes32",
          "name": "",
          "type": "bytes32"
        }
      ],
      "stateMutability": "view",
      "type": "function"
    },
    {
      "inputs": [],
      "name": "LEGACY_ERC20_ETH",
      "outputs": [
        {
          "internalType": "address",
          "name": "",
          "type": "address"
        }
      ],
      "stateMutability": "view",
      "type": "function"
    },
    {
      "inputs": [],
      "name": "LEGACY_l1token",
      "outputs": [
        {
          "internalType": "address",
          "name": "",
          "type": "address"
        }
      ],
      "stateMutability": "view",
      "type": "function"
    },
    {
      "inputs": [],
      "name": "POLICY_ROLE",
      "outputs": [
        {
          "internalType": "bytes32",
          "name": "",
          "type": "bytes32"
        }
      ],
      "stateMutability": "view",
      "type": "function"
    },
    {
      "inputs": [
        {
          "internalType": "address",
          "name": "account",
          "type": "address"
        }
      ],
      "name": "addAdmin",
      "outputs": [],
      "stateMutability": "nonpayable",
      "type": "function"
    },
    {
      "inputs": [],
      "name": "cancelFW",
      "outputs": [],
      "stateMutability": "nonpayable",
      "type": "function"
    },
    {
      "inputs": [],
      "name": "crossDomainMessenger",
      "outputs": [
        {
          "internalType": "address",
          "name": "",
          "type": "address"
        }
      ],
      "stateMutability": "view",
      "type": "function"
    },
    {
      "inputs": [],
      "name": "editFW",
      "outputs": [],
      "stateMutability": "nonpayable",
      "type": "function"
    },
    {
      "inputs": [
        {
          "internalType": "bytes32",
          "name": "role",
          "type": "bytes32"
        }
      ],
      "name": "getRoleAdmin",
      "outputs": [
        {
          "internalType": "bytes32",
          "name": "",
          "type": "bytes32"
        }
      ],
      "stateMutability": "view",
      "type": "function"
    },
    {
      "inputs": [
        {
          "internalType": "bytes32",
          "name": "role",
          "type": "bytes32"
        },
        {
          "internalType": "address",
          "name": "account",
          "type": "address"
        }
      ],
      "name": "grantRole",
      "outputs": [],
      "stateMutability": "nonpayable",
      "type": "function"
    },
    {
      "inputs": [
        {
          "internalType": "bytes32",
          "name": "role",
          "type": "bytes32"
        },
        {
          "internalType": "address",
          "name": "account",
          "type": "address"
        }
      ],
      "name": "hasRole",
      "outputs": [
        {
          "internalType": "bool",
          "name": "",
          "type": "bool"
        }
      ],
      "stateMutability": "view",
      "type": "function"
    },
    {
      "inputs": [
        {
          "internalType": "address",
          "name": "_crossDomainMessenger",
          "type": "address"
        },
        {
          "internalType": "address",
          "name": "_l2fastWithdraw",
          "type": "address"
        },
        {
          "internalType": "address",
          "name": "_legacyERC20",
          "type": "address"
        },
        {
          "internalType": "address",
          "name": "_l1legacyERC20",
          "type": "address"
        }
      ],
      "name": "initialize",
      "outputs": [],
      "stateMutability": "nonpayable",
      "type": "function"
    },
    {
      "inputs": [
        {
          "internalType": "address",
          "name": "account",
          "type": "address"
        }
      ],
      "name": "isAdmin",
      "outputs": [
        {
          "internalType": "bool",
          "name": "",
          "type": "bool"
        }
      ],
      "stateMutability": "view",
      "type": "function"
    },
    {
      "inputs": [],
      "name": "l2fastWithdrawContract",
      "outputs": [
        {
          "internalType": "address",
          "name": "",
          "type": "address"
        }
      ],
      "stateMutability": "view",
      "type": "function"
    },
    {
      "inputs": [
        {
          "internalType": "address",
          "name": "_l1token",
          "type": "address"
        },
        {
          "internalType": "address",
          "name": "_to",
          "type": "address"
        },
        {
          "internalType": "uint256",
          "name": "_amount",
          "type": "uint256"
        },
        {
          "internalType": "uint256",
          "name": "_saleCount",
          "type": "uint256"
        },
        {
          "internalType": "uint32",
          "name": "_minGasLimit",
          "type": "uint32"
        }
      ],
      "name": "provideFW",
      "outputs": [],
      "stateMutability": "payable",
      "type": "function"
    },
    {
      "inputs": [
        {
          "internalType": "address",
          "name": "account",
          "type": "address"
        }
      ],
      "name": "removeAdmin",
      "outputs": [],
      "stateMutability": "nonpayable",
      "type": "function"
    },
    {
      "inputs": [
        {
          "internalType": "bytes32",
          "name": "role",
          "type": "bytes32"
        },
        {
          "internalType": "address",
          "name": "account",
          "type": "address"
        }
      ],
      "name": "renounceRole",
      "outputs": [],
      "stateMutability": "nonpayable",
      "type": "function"
    },
    {
      "inputs": [
        {
          "internalType": "bytes32",
          "name": "role",
          "type": "bytes32"
        },
        {
          "internalType": "address",
          "name": "account",
          "type": "address"
        }
      ],
      "name": "revokeRole",
      "outputs": [],
      "stateMutability": "nonpayable",
      "type": "function"
    },
    {
      "inputs": [
        {
          "internalType": "bytes4",
          "name": "interfaceId",
          "type": "bytes4"
        }
      ],
      "name": "supportsInterface",
      "outputs": [
        {
          "internalType": "bool",
          "name": "",
          "type": "bool"
        }
      ],
      "stateMutability": "view",
      "type": "function"
    },
    {
      "inputs": [
        {
          "internalType": "address",
          "name": "newAdmin",
          "type": "address"
        }
      ],
      "name": "transferAdmin",
      "outputs": [],
      "stateMutability": "nonpayable",
      "type": "function"
    },
    {
      "stateMutability": "payable",
      "type": "receive"
    }
  ],
  "bytecode": {
    "object": "0x608060405234801561001057600080fd5b506117fe806100206000396000f3fe60806040526004361061016e5760003560e01c80634c9b0c7d116100cb57806391d148541161007f578063d547741f11610059578063d547741f14610448578063f43b361314610468578063f8c8765e1461049557600080fd5b806391d14854146103e2578063926dd1b014610335578063a217fddf1461043357600080fd5b806370480275116100b0578063704802751461036e57806375829def1461038e57806375b238fc146103ae57600080fd5b80634c9b0c7d14610335578063609cd1fa1461034157600080fd5b80632ad0ad6f1161012257806336568abe1161010757806336568abe146102965780633fbe7fa4146102b657806342c66a881461030857600080fd5b80632ad0ad6f146102635780632f2ff15d1461027657600080fd5b8063229852461161015357806322985246146101d1578063248a9ca31461021357806324d7806c1461024357600080fd5b806301ffc9a71461017a5780631785f53c146101af57600080fd5b3661017557005b600080fd5b34801561018657600080fd5b5061019a6101953660046113e2565b610525565b60405190151581526020015b60405180910390f35b3480156101bb57600080fd5b506101cf6101ca36600461144d565b6105be565b005b3480156101dd57600080fd5b506102057ffb5864e8ff833c3cb2d2d08505e82ff02a43554c74a35d4f5a64e8526127831181565b6040519081526020016101a6565b34801561021f57600080fd5b5061020561022e366004611468565b60009081526020819052604090206001015490565b34801561024f57600080fd5b5061019a61025e36600461144d565b610685565b6101cf610271366004611481565b6106d2565b34801561028257600080fd5b506101cf6102913660046114e5565b610b71565b3480156102a257600080fd5b506101cf6102b13660046114e5565b610b9b565b3480156102c257600080fd5b506002546102e39073ffffffffffffffffffffffffffffffffffffffff1681565b60405173ffffffffffffffffffffffffffffffffffffffff90911681526020016101a6565b34801561031457600080fd5b506004546102e39073ffffffffffffffffffffffffffffffffffffffff1681565b3480156101cf57600080fd5b34801561034d57600080fd5b506003546102e39073ffffffffffffffffffffffffffffffffffffffff1681565b34801561037a57600080fd5b506101cf61038936600461144d565b610c4e565b34801561039a57600080fd5b506101cf6103a936600461144d565b610d0d565b3480156103ba57600080fd5b506102057fdf8b4c520ffe197c5343c6f5aec59570151ef9a492f2c624fd45ddde6135ec4281565b3480156103ee57600080fd5b5061019a6103fd3660046114e5565b60009182526020828152604080842073ffffffffffffffffffffffffffffffffffffffff93909316845291905290205460ff1690565b34801561043f57600080fd5b50610205600081565b34801561045457600080fd5b506101cf6104633660046114e5565b610ef2565b34801561047457600080fd5b506001546102e39073ffffffffffffffffffffffffffffffffffffffff1681565b3480156104a157600080fd5b506101cf6104b0366004611511565b6001805473ffffffffffffffffffffffffffffffffffffffff9586167fffffffffffffffffffffffff0000000000000000000000000000000000000000918216179091556002805494861694821694909417909355600380549285169284169290921790915560048054919093169116179055565b60007fffffffff0000000000000000000000000000000000000000000000000000000082167f7965db0b0000000000000000000000000000000000000000000000000000000014806105b857507f01ffc9a7000000000000000000000000000000000000000000000000000000007fffffffff000000000000000000000000000000000000000000000000000000008316145b92915050565b6105c733610685565b610658576040517f08c379a000000000000000000000000000000000000000000000000000000000815260206004820152602260248201527f41636365737369626c653a2043616c6c6572206973206e6f7420616e2061646d60448201527f696e00000000000000000000000000000000000000000000000000000000000060648201526084015b60405180910390fd5b6106827fdf8b4c520ffe197c5343c6f5aec59570151ef9a492f2c624fd45ddde6135ec4282610b9b565b50565b73ffffffffffffffffffffffffffffffffffffffff811660009081527f5cbfc8ee58ca47855df7bcf648dd304ddb6b932f9b87878bdf6318d7ec7ee5b7602052604081205460ff166105b8565b60405133602482015273ffffffffffffffffffffffffffffffffffffffff85166044820152606481018490526084810183905260609060a401604080517fffffffffffffffffffffffffffffffffffffffffffffffffffffffffffffffe08184030181529190526020810180517bffffffffffffffffffffffffffffffffffffffffffffffffffffffff167fc97a7fdd0000000000000000000000000000000000000000000000000000000017905260045490915073ffffffffffffffffffffffffffffffffffffffff8088169116036108e3576040517f23b872dd0000000000000000000000000000000000000000000000000000000081523360048201523060248201526044810185905273ffffffffffffffffffffffffffffffffffffffff8716906323b872dd906064016020604051808303816000875af115801561081f573d6000803e3d6000fd5b505050506040513d601f19601f820116820180604052508101906108439190611565565b506040517fa9059cbb00000000000000000000000000000000000000000000000000000000815273ffffffffffffffffffffffffffffffffffffffff86811660048301526024820186905287169063a9059cbb906044016020604051808303816000875af11580156108b9573d6000803e3d6000fd5b505050506040513d601f19601f820116820180604052508101906108dd9190611565565b50610ad9565b60035473ffffffffffffffffffffffffffffffffffffffff808816911603610a385783341461096e576040517f08c379a000000000000000000000000000000000000000000000000000000000815260206004820152601860248201527f46573a20455448206e6565642073616d6520616d6f756e740000000000000000604482015260640161064f565b60008573ffffffffffffffffffffffffffffffffffffffff163460405160006040518083038185875af1925050503d80600081146109c8576040519150601f19603f3d011682016040523d82523d6000602084013e6109cd565b606091505b50509050806108dd576040517f08c379a000000000000000000000000000000000000000000000000000000000815260206004820152600a60248201527f636c61696d206661696c00000000000000000000000000000000000000000000604482015260640161064f565b6040517f23b872dd00000000000000000000000000000000000000000000000000000000815233600482015273ffffffffffffffffffffffffffffffffffffffff8681166024830152604482018690528716906323b872dd906064016020604051808303816000875af1158015610ab3573d6000803e3d6000fd5b505050506040513d601f19601f82011682018060405250810190610ad79190611565565b505b6001546002546040517f3dbb202b00000000000000000000000000000000000000000000000000000000815273ffffffffffffffffffffffffffffffffffffffff92831692633dbb202b92610b379291169085908790600401611601565b600060405180830381600087803b158015610b5157600080fd5b505af1158015610b65573d6000803e3d6000fd5b50505050505050505050565b600082815260208190526040902060010154610b8c81610f17565b610b968383610f21565b505050565b73ffffffffffffffffffffffffffffffffffffffff81163314610c40576040517f08c379a000000000000000000000000000000000000000000000000000000000815260206004820152602f60248201527f416363657373436f6e74726f6c3a2063616e206f6e6c792072656e6f756e636560448201527f20726f6c657320666f722073656c660000000000000000000000000000000000606482015260840161064f565b610c4a8282611011565b5050565b610c5733610685565b610ce3576040517f08c379a000000000000000000000000000000000000000000000000000000000815260206004820152602260248201527f41636365737369626c653a2043616c6c6572206973206e6f7420616e2061646d60448201527f696e000000000000000000000000000000000000000000000000000000000000606482015260840161064f565b6106827fdf8b4c520ffe197c5343c6f5aec59570151ef9a492f2c624fd45ddde6135ec4282610b71565b610d1633610685565b610da2576040517f08c379a000000000000000000000000000000000000000000000000000000000815260206004820152602260248201527f41636365737369626c653a2043616c6c6572206973206e6f7420616e2061646d60448201527f696e000000000000000000000000000000000000000000000000000000000000606482015260840161064f565b73ffffffffffffffffffffffffffffffffffffffff8116610e1f576040517f08c379a000000000000000000000000000000000000000000000000000000000815260206004820152601860248201527f41636365737369626c653a207a65726f20616464726573730000000000000000604482015260640161064f565b73ffffffffffffffffffffffffffffffffffffffff81163303610e9e576040517f08c379a000000000000000000000000000000000000000000000000000000000815260206004820152601660248201527f41636365737369626c653a2073616d652061646d696e00000000000000000000604482015260640161064f565b610ec87fdf8b4c520ffe197c5343c6f5aec59570151ef9a492f2c624fd45ddde6135ec4282610b71565b6106827fdf8b4c520ffe197c5343c6f5aec59570151ef9a492f2c624fd45ddde6135ec4233610b9b565b600082815260208190526040902060010154610f0d81610f17565b610b968383611011565b61068281336110c8565b60008281526020818152604080832073ffffffffffffffffffffffffffffffffffffffff8516845290915290205460ff16610c4a5760008281526020818152604080832073ffffffffffffffffffffffffffffffffffffffff85168452909152902080547fffffffffffffffffffffffffffffffffffffffffffffffffffffffffffffff00166001179055610fb33390565b73ffffffffffffffffffffffffffffffffffffffff168173ffffffffffffffffffffffffffffffffffffffff16837f2f8788117e7eff1d82e926ec794901d17c78024a50270940304540a733656f0d60405160405180910390a45050565b60008281526020818152604080832073ffffffffffffffffffffffffffffffffffffffff8516845290915290205460ff1615610c4a5760008281526020818152604080832073ffffffffffffffffffffffffffffffffffffffff8516808552925280832080547fffffffffffffffffffffffffffffffffffffffffffffffffffffffffffffff0016905551339285917ff6391f5c32d9c69d2a47ea670b442974b53935d1edc7fd64eb21e047a839171b9190a45050565b60008281526020818152604080832073ffffffffffffffffffffffffffffffffffffffff8516845290915290205460ff16610c4a5761111e8173ffffffffffffffffffffffffffffffffffffffff166014611198565b611129836020611198565b60405160200161113a929190611646565b604080517fffffffffffffffffffffffffffffffffffffffffffffffffffffffffffffffe0818403018152908290527f08c379a000000000000000000000000000000000000000000000000000000000825261064f916004016116c7565b606060006111a7836002611709565b6111b2906002611746565b67ffffffffffffffff8111156111ca576111ca61175e565b6040519080825280601f01601f1916602001820160405280156111f4576020820181803683370190505b5090507f30000000000000000000000000000000000000000000000000000000000000008160008151811061122b5761122b61178d565b60200101907effffffffffffffffffffffffffffffffffffffffffffffffffffffffffffff1916908160001a9053507f78000000000000000000000000000000000000000000000000000000000000008160018151811061128e5761128e61178d565b60200101907effffffffffffffffffffffffffffffffffffffffffffffffffffffffffffff1916908160001a90535060006112ca846002611709565b6112d5906001611746565b90505b6001811115611372577f303132333435363738396162636465660000000000000000000000000000000085600f16601081106113165761131661178d565b1a60f81b82828151811061132c5761132c61178d565b60200101907effffffffffffffffffffffffffffffffffffffffffffffffffffffffffffff1916908160001a90535060049490941c9361136b816117bc565b90506112d8565b5083156113db576040517f08c379a000000000000000000000000000000000000000000000000000000000815260206004820181905260248201527f537472696e67733a20686578206c656e67746820696e73756666696369656e74604482015260640161064f565b9392505050565b6000602082840312156113f457600080fd5b81357fffffffff00000000000000000000000000000000000000000000000000000000811681146113db57600080fd5b803573ffffffffffffffffffffffffffffffffffffffff8116811461144857600080fd5b919050565b60006020828403121561145f57600080fd5b6113db82611424565b60006020828403121561147a57600080fd5b5035919050565b600080600080600060a0868803121561149957600080fd5b6114a286611424565b94506114b060208701611424565b93506040860135925060608601359150608086013563ffffffff811681146114d757600080fd5b809150509295509295909350565b600080604083850312156114f857600080fd5b8235915061150860208401611424565b90509250929050565b6000806000806080858703121561152757600080fd5b61153085611424565b935061153e60208601611424565b925061154c60408601611424565b915061155a60608601611424565b905092959194509250565b60006020828403121561157757600080fd5b815180151581146113db57600080fd5b60005b838110156115a257818101518382015260200161158a565b838111156115b1576000848401525b50505050565b600081518084526115cf816020860160208601611587565b601f017fffffffffffffffffffffffffffffffffffffffffffffffffffffffffffffffe0169290920160200192915050565b73ffffffffffffffffffffffffffffffffffffffff8416815260606020820152600061163060608301856115b7565b905063ffffffff83166040830152949350505050565b7f416363657373436f6e74726f6c3a206163636f756e742000000000000000000081526000835161167e816017850160208801611587565b7f206973206d697373696e6720726f6c652000000000000000000000000000000060179184019182015283516116bb816028840160208801611587565b01602801949350505050565b6020815260006113db60208301846115b7565b7f4e487b7100000000000000000000000000000000000000000000000000000000600052601160045260246000fd5b6000817fffffffffffffffffffffffffffffffffffffffffffffffffffffffffffffffff0483118215151615611741576117416116da565b500290565b60008219821115611759576117596116da565b500190565b7f4e487b7100000000000000000000000000000000000000000000000000000000600052604160045260246000fd5b7f4e487b7100000000000000000000000000000000000000000000000000000000600052603260045260246000fd5b6000816117cb576117cb6116da565b507fffffffffffffffffffffffffffffffffffffffffffffffffffffffffffffffff019056fea164736f6c634300080f000a",
    "linkReferences": {}
  },
  "methodIdentifiers": {
    "ADMIN_ROLE()": "75b238fc",
    "DEFAULT_ADMIN_ROLE()": "a217fddf",
    "LEGACY_ERC20_ETH()": "609cd1fa",
    "LEGACY_l1token()": "42c66a88",
    "POLICY_ROLE()": "22985246",
    "addAdmin(address)": "70480275",
    "cancelFW()": "926dd1b0",
    "crossDomainMessenger()": "f43b3613",
    "editFW()": "4c9b0c7d",
    "getRoleAdmin(bytes32)": "248a9ca3",
    "grantRole(bytes32,address)": "2f2ff15d",
    "hasRole(bytes32,address)": "91d14854",
    "initialize(address,address,address,address)": "f8c8765e",
    "isAdmin(address)": "24d7806c",
    "l2fastWithdrawContract()": "3fbe7fa4",
    "provideFW(address,address,uint256,uint256,uint32)": "2ad0ad6f",
    "removeAdmin(address)": "1785f53c",
    "renounceRole(bytes32,address)": "36568abe",
    "revokeRole(bytes32,address)": "d547741f",
    "supportsInterface(bytes4)": "01ffc9a7",
    "transferAdmin(address)": "75829def"
  },
  "storageLayout": {
    "storage": [
      {
        "astId": 24,
        "contract": "src/L1/L1FastWithdraw.sol:L1FastWithdraw",
        "label": "_roles",
        "offset": 0,
        "slot": "0",
        "type": "t_mapping(t_bytes32,t_struct(RoleData)19_storage)"
      },
      {
        "astId": 858,
        "contract": "src/L1/L1FastWithdraw.sol:L1FastWithdraw",
        "label": "crossDomainMessenger",
        "offset": 0,
        "slot": "1",
        "type": "t_address"
      },
      {
        "astId": 860,
        "contract": "src/L1/L1FastWithdraw.sol:L1FastWithdraw",
        "label": "l2fastWithdrawContract",
        "offset": 0,
        "slot": "2",
        "type": "t_address"
      },
      {
        "astId": 862,
        "contract": "src/L1/L1FastWithdraw.sol:L1FastWithdraw",
        "label": "LEGACY_ERC20_ETH",
        "offset": 0,
        "slot": "3",
        "type": "t_address"
      },
      {
        "astId": 864,
        "contract": "src/L1/L1FastWithdraw.sol:L1FastWithdraw",
        "label": "LEGACY_l1token",
        "offset": 0,
        "slot": "4",
        "type": "t_address"
      }
    ],
    "types": {
      "t_address": {
        "encoding": "inplace",
        "label": "address",
        "numberOfBytes": "20"
      },
      "t_bool": {
        "encoding": "inplace",
        "label": "bool",
        "numberOfBytes": "1"
      },
      "t_bytes32": {
        "encoding": "inplace",
        "label": "bytes32",
        "numberOfBytes": "32"
      },
      "t_mapping(t_address,t_bool)": {
        "encoding": "mapping",
        "key": "t_address",
        "label": "mapping(address => bool)",
        "numberOfBytes": "32",
        "value": "t_bool"
      },
      "t_mapping(t_bytes32,t_struct(RoleData)19_storage)": {
        "encoding": "mapping",
        "key": "t_bytes32",
        "label": "mapping(bytes32 => struct AccessControl.RoleData)",
        "numberOfBytes": "32",
        "value": "t_struct(RoleData)19_storage"
      },
      "t_struct(RoleData)19_storage": {
        "encoding": "inplace",
        "label": "struct AccessControl.RoleData",
        "numberOfBytes": "64",
        "members": [
          {
            "astId": 16,
            "contract": "src/L1/L1FastWithdraw.sol:L1FastWithdraw",
            "label": "members",
            "offset": 0,
            "slot": "0",
            "type": "t_mapping(t_address,t_bool)"
          },
          {
            "astId": 18,
            "contract": "src/L1/L1FastWithdraw.sol:L1FastWithdraw",
            "label": "adminRole",
            "offset": 0,
            "slot": "1",
            "type": "t_bytes32"
          }
        ]
      }
    }
  },
  "userdoc": {
    "version": 1,
    "kind": "user"
  },
  "devdoc": {
    "version": 1,
    "kind": "dev",
    "methods": {
      "addAdmin(address)": {
        "details": "add admin",
        "params": {
          "account": "address to add"
        }
      },
      "getRoleAdmin(bytes32)": {
        "details": "Returns the admin role that controls `role`. See {grantRole} and {revokeRole}. To change a role's admin, use {_setRoleAdmin}."
      },
      "grantRole(bytes32,address)": {
        "details": "Grants `role` to `account`. If `account` had not been already granted `role`, emits a {RoleGranted} event. Requirements: - the caller must have ``role``'s admin role. May emit a {RoleGranted} event."
      },
      "hasRole(bytes32,address)": {
        "details": "Returns `true` if `account` has been granted `role`."
      },
      "isAdmin(address)": {
        "details": "whether admin",
        "params": {
          "account": "address to check"
        }
      },
      "removeAdmin(address)": {
        "details": "remove admin",
        "params": {
          "account": "address to remove"
        }
      },
      "renounceRole(bytes32,address)": {
        "details": "Revokes `role` from the calling account. Roles are often managed via {grantRole} and {revokeRole}: this function's purpose is to provide a mechanism for accounts to lose their privileges if they are compromised (such as when a trusted device is misplaced). If the calling account had been revoked `role`, emits a {RoleRevoked} event. Requirements: - the caller must be `account`. May emit a {RoleRevoked} event."
      },
      "revokeRole(bytes32,address)": {
        "details": "Revokes `role` from `account`. If `account` had been granted `role`, emits a {RoleRevoked} event. Requirements: - the caller must have ``role``'s admin role. May emit a {RoleRevoked} event."
      },
      "supportsInterface(bytes4)": {
        "details": "See {IERC165-supportsInterface}."
      },
      "transferAdmin(address)": {
        "details": "transfer admin",
        "params": {
          "newAdmin": "new admin address"
        }
      }
    }
  },
  "id": 6
}