{
	"data": {
		"bytecode": {
			"linkReferences": {},
			"object": "6080806040523461001b576001600b55611eee90816100208239f35b5f80fdfe6080806040526004361015610012575f80fd5b5f905f3560e01c90816301ffc9a7146115d3575080631391dd481461143f5780631785f53c146113c4578063178694b7146113665780632282eb521461110057806322985246146110a7578063248a9ca31461105c57806324d7806c14610fc85780632f2ff15d14610f6c57806336568abe14610ee157806350d2a27614610e54578063550d01a314610dec57806363a8fd8914610dac5780636db8e6371461087157806370480275146107dc57806375829def1461065557806375b238fc146105fc5780637f02944f1461057d5780638b41f3ab1461051f57806391d14854146104a9578063a217fddf1461046f578063ab01fac014610422578063b911135f146103c4578063cbf236dc14610278578063d547741f14610218578063daf380bf146101d05763e59f69c214610147575f80fd5b346101cd5760207ffffffffffffffffffffffffffffffffffffffffffffffffffffffffffffffffc3601126101cd5760406080916004358152600a6020522073ffffffffffffffffffffffffffffffffffffffff808254169181600182015416916003816002840154169201541691604051938452602084015260408301526060820152f35b80fd5b50346101cd5760207ffffffffffffffffffffffffffffffffffffffffffffffffffffffffffffffffc3601126101cd5760406020916004358152600983522054604051908152f35b50346101cd5760407ffffffffffffffffffffffffffffffffffffffffffffffffffffffffffffffffc3601126101cd576102746004356102566116b2565b90808452600460205261026f6001604086200154611b69565b611e18565b5080f35b50346101cd5760807ffffffffffffffffffffffffffffffffffffffffffffffffffffffffffffffffc3601126101cd5760443563ffffffff811681036103c05781906064356102c832331461171b565b6102d0611ab6565b808352600760205261032673ffffffffffffffffffffffffffffffffffffffff91826040862054166006602052610312600160ff604089205416151514611a51565b61031d811515611a51565b60043590611af1565b916024358452600a60205260408420916001818454169301541691803b156103bc5761038593858094604051968795869485937f3dbb202b0000000000000000000000000000000000000000000000000000000085526004850161190f565b03925af180156103b15761039d575b506001600b5580f35b6103a6906118fb565b6101cd57805f610394565b6040513d84823e3d90fd5b8480fd5b5f80fd5b50346101cd5760207ffffffffffffffffffffffffffffffffffffffffffffffffffffffffffffffffc3601126101cd5773ffffffffffffffffffffffffffffffffffffffff6040602092600435815260018452205416604051908152f35b50346101cd5760207ffffffffffffffffffffffffffffffffffffffffffffffffffffffffffffffffc3601126101cd5760ff60406020926004358152600684522054166040519015158152f35b50346101cd57807ffffffffffffffffffffffffffffffffffffffffffffffffffffffffffffffffc3601126101cd57602090604051908152f35b50346101cd5760407ffffffffffffffffffffffffffffffffffffffffffffffffffffffffffffffffc3601126101cd5773ffffffffffffffffffffffffffffffffffffffff60406104f86116b2565b92600435815260046020522091165f52602052602060ff60405f2054166040519015158152f35b50346101cd5760207ffffffffffffffffffffffffffffffffffffffffffffffffffffffffffffffffc3601126101cd5773ffffffffffffffffffffffffffffffffffffffff6040602092600435815260088452205416604051908152f35b50346101cd576101407ffffffffffffffffffffffffffffffffffffffffffffffffffffffffffffffffc3601126101cd5760206105f46105bb61168f565b6105c36116b2565b906105cc6116d5565b6105d46116f8565b906101243593610104359360e4359360c4359360a43593608435936119c8565b604051908152f35b50346101cd57807ffffffffffffffffffffffffffffffffffffffffffffffffffffffffffffffffc3601126101cd5760206040517fdf8b4c520ffe197c5343c6f5aec59570151ef9a492f2c624fd45ddde6135ec428152f35b50346101cd57602090817ffffffffffffffffffffffffffffffffffffffffffffffffffffffffffffffffc3601126101cd5761068f61168f565b7fdf8b4c520ffe197c5343c6f5aec59570151ef9a492f2c624fd45ddde6135ec428083526004845260408320335f5284526106d060ff60405f205416611870565b73ffffffffffffffffffffffffffffffffffffffff8216801561077e57331461072057829360049161071394525261070e6001604085200154611b69565b611bc2565b5061071d3361199f565b80f35b606484604051907f08c379a00000000000000000000000000000000000000000000000000000000082526004820152601660248201527f41636365737369626c653a2073616d652061646d696e000000000000000000006044820152fd5b606485604051907f08c379a00000000000000000000000000000000000000000000000000000000082526004820152601860248201527f41636365737369626c653a207a65726f206164647265737300000000000000006044820152fd5b50346101cd5760207ffffffffffffffffffffffffffffffffffffffffffffffffffffffffffffffffc3601126101cd5761027461081761168f565b7fdf8b4c520ffe197c5343c6f5aec59570151ef9a492f2c624fd45ddde6135ec42808452600460205260408420335f5260205261085a60ff60405f205416611870565b8352600460205261070e6001604085200154611b69565b506101607ffffffffffffffffffffffffffffffffffffffffffffffffffffffffffffffffc3601126101cd576108a561168f565b6108ad6116b2565b6108b56116d5565b906108be6116f8565b63ffffffff610124351661012435036103c0576108dc32331461171b565b6108e4611ab6565b6109016101043560e4354660c43560a435608435878a8a8d6119c8565b916109106101443584146117a6565b828652600660205261092960ff6040882054161561180b565b60a435938387526009602052604087205480610da4575b50604051937f0f37739500000000000000000000000000000000000000000000000000000000602086015233602486015285604486015260c43560648601524660848601528060a486015260a485528460e081011067ffffffffffffffff60e087011117610d775760e085016040528752600860205260408720337fffffffffffffffffffffffff000000000000000000000000000000000000000082541617905560066020526040872060017fffffffffffffffffffffffffffffffffffffffffffffffffffffffffffffff0082541617905560e4358752600a602052866040812073ffffffffffffffffffffffffffffffffffffffff958660018184541693015416823b15610d7357610a8c928492836040518096819582947f3dbb202b00000000000000000000000000000000000000000000000000000000845261012435916004850161190f565b03925af180156103b157610d5f575b505060e4358752600a60205260408720600201549584169584168603610c7a57843403610c1c5761010435875260056020528360408820541691823b15610c1857878060405180957f9a2ac6d5000000000000000000000000000000000000000000000000000000008252888816600483015263ffffffff6101243516602483015260606044830152818381610b5f60648201604090600281527f307800000000000000000000000000000000000000000000000000000000000060208201520190565b03925af1938415610c0b578694610bee575b505082905b60405197885216602087015216604085015216606083015233608083015260843560a083015260c082015260e43560e082015261010435610100820152610144356101208201527fe4a4de157ca2fba25cb3d16d10e2a7c518accb542747cd18be214c63800780c661014060c43592a26001600b5580f35b610bfa919294506118fb565b610c07578391875f610b71565b8680fd5b50604051903d90823e3d90fd5b8780fd5b60646040517f08c379a000000000000000000000000000000000000000000000000000000000815260206004820152601860248201527f43543a20455448206e6565642073616d6520616d6f756e7400000000000000006044820152fd5b61010435875260056020528360408820541691823b15610c1857878060405180957f838b25200000000000000000000000000000000000000000000000000000000082528a60048301528886166024830152888816604483015289606483015263ffffffff6101243516608483015260c060a4830152818381610d2b60c48201604090600281527f307800000000000000000000000000000000000000000000000000000000000060208201520190565b03925af1938415610c0b578694610d46575b50508290610b76565b610d52919294506118fb565b610c07578391875f610d3d565b610d68906118fb565b610c0757865f610a9b565b8380fd5b7f4e487b71000000000000000000000000000000000000000000000000000000005f52604160045260245ffd5b94505f610940565b50346101cd57807ffffffffffffffffffffffffffffffffffffffffffffffffffffffffffffffffc3601126101cd5760ff60209154166040519015158152f35b50346101cd5760207ffffffffffffffffffffffffffffffffffffffffffffffffffffffffffffffffc3601126101cd5760ff604060209273ffffffffffffffffffffffffffffffffffffffff610e4061168f565b168152600284522054166040519015158152f35b50346101cd5760207ffffffffffffffffffffffffffffffffffffffffffffffffffffffffffffffffc3601126101cd576004357fffffffff000000000000000000000000000000000000000000000000000000008116809103610edd5760408273ffffffffffffffffffffffffffffffffffffffff926020945260038452205416604051908152f35b5080fd5b50346101cd5760407ffffffffffffffffffffffffffffffffffffffffffffffffffffffffffffffffc3601126101cd57610f196116b2565b3373ffffffffffffffffffffffffffffffffffffffff821603610f425761027490600435611e18565b60046040517f6697b232000000000000000000000000000000000000000000000000000000008152fd5b50346101cd5760407ffffffffffffffffffffffffffffffffffffffffffffffffffffffffffffffffc3601126101cd57610274600435610faa6116b2565b908084526004602052610fc36001604086200154611b69565b611c9f565b50346101cd5760207ffffffffffffffffffffffffffffffffffffffffffffffffffffffffffffffffc3601126101cd5773ffffffffffffffffffffffffffffffffffffffff604061101761168f565b927fdf8b4c520ffe197c5343c6f5aec59570151ef9a492f2c624fd45ddde6135ec42815260046020522091165f52602052602060ff60405f2054166040519015158152f35b50346101cd5760207ffffffffffffffffffffffffffffffffffffffffffffffffffffffffffffffffc3601126101cd5760016040602092600435815260048452200154604051908152f35b50346101cd57807ffffffffffffffffffffffffffffffffffffffffffffffffffffffffffffffffc3601126101cd5760206040517ffb5864e8ff833c3cb2d2d08505e82ff02a43554c74a35d4f5a64e852612783118152f35b50346103c0576101407ffffffffffffffffffffffffffffffffffffffffffffffffffffffffffffffffc3601126103c05761113961168f565b6111416116b2565b9061114a6116d5565b916064359260a4359360c4359060e43592610104359063ffffffff821682036103c057610124359561117d32331461171b565b611185611ab6565b6111ca61119e8787468d8d8a608435918a8a33926119c8565b976111aa818a146117a6565b885f5260066020526111c360ff60405f2054161561180b565b8a33611af1565b875f52600760205260405f20337fffffffffffffffffffffffff0000000000000000000000000000000000000000825416179055600660205260405f2060017fffffffffffffffffffffffffffffffffffffffffffffffffffffffffffffff00825416179055855f52600a60205260405f2073ffffffffffffffffffffffffffffffffffffffff94856001818454169301541691803b156103c0576112a2935f8094604051968795869485937f3dbb202b0000000000000000000000000000000000000000000000000000000085526004850161190f565b03925af1801561135b57611312575b506040805198841689529083166020890152911690860152336060860152608085015260a084015260c083015260e08201527f3609a5f4e8755144b3159f44834f5de5190de30403956eca59756b837acfce909061010090a26001600b5580f35b610100979593919a50916113497f3609a5f4e8755144b3159f44834f5de5190de30403956eca59756b837acfce90999795936118fb565b815f9b925093959750919395976112b1565b6040513d5f823e3d90fd5b346103c05760207ffffffffffffffffffffffffffffffffffffffffffffffffffffffffffffffffc3601126103c0576004355f526007602052602073ffffffffffffffffffffffffffffffffffffffff60405f205416604051908152f35b346103c05760207ffffffffffffffffffffffffffffffffffffffffffffffffffffffffffffffffc3601126103c05761143d6113fe61168f565b335f9081527f2fb794d17134dfdec181ddbac1babb5ab1eb140204ef4d982f294e7fc8b6902260205260409020546114389060ff16611870565b61199f565b005b346103c0576101407ffffffffffffffffffffffffffffffffffffffffffffffffffffffffffffffffc3601126103c05761147761168f565b61147f6116b2565b6114876116d5565b60c435926064356101043560e43560a4356114a333321461171b565b6114ab611ab6565b6114bf8383468b60843589338d8f8e6119c8565b936114ce6101243586146117a6565b845f5260066020526114e760ff60405f2054161561180b565b8115611575577ff633ac6217ec373ce78b3abb6f8141bb1fa544811102886bc221d3c259d4ce049761012097865f5260096020528360405f20556040519773ffffffffffffffffffffffffffffffffffffffff92838092168a52166020890152166040870152336060870152608086015260a085015260c084015260e0830152610100820152a26001600b55005b60646040517f08c379a000000000000000000000000000000000000000000000000000000000815260206004820152601560248201527f6374416d6f756e74206e656564206e6f6e5a65726f00000000000000000000006044820152fd5b346103c05760207ffffffffffffffffffffffffffffffffffffffffffffffffffffffffffffffffc3601126103c057600435907fffffffff0000000000000000000000000000000000000000000000000000000082168092036103c057817f7965db0b0000000000000000000000000000000000000000000000000000000060209314908115611665575b5015158152f35b7f01ffc9a7000000000000000000000000000000000000000000000000000000009150148361165e565b6004359073ffffffffffffffffffffffffffffffffffffffff821682036103c057565b6024359073ffffffffffffffffffffffffffffffffffffffff821682036103c057565b6044359073ffffffffffffffffffffffffffffffffffffffff821682036103c057565b6064359073ffffffffffffffffffffffffffffffffffffffff821682036103c057565b1561172257565b60846040517f08c379a000000000000000000000000000000000000000000000000000000000815260206004820152602d60248201527f4c3246573a2066756e6374696f6e2063616e206f6e6c792062652063616c6c6560448201527f642066726f6d20616e20454f41000000000000000000000000000000000000006064820152fd5b156117ad57565b60646040517f08c379a000000000000000000000000000000000000000000000000000000000815260206004820152601960248201527f486173682076616c75657320646f206e6f74206d617463682e000000000000006044820152fd5b1561181257565b60646040517f08c379a000000000000000000000000000000000000000000000000000000000815260206004820152600c60248201527f616c726561647920736f6c6400000000000000000000000000000000000000006044820152fd5b1561187757565b60846040517f08c379a000000000000000000000000000000000000000000000000000000000815260206004820152602260248201527f41636365737369626c653a2043616c6c6572206973206e6f7420616e2061646d60448201527f696e0000000000000000000000000000000000000000000000000000000000006064820152fd5b67ffffffffffffffff8111610d7757604052565b919073ffffffffffffffffffffffffffffffffffffffff909493941682526020606060208401528151918260608501525f5b83811061198b5750505063ffffffff60807fffffffffffffffffffffffffffffffffffffffffffffffffffffffffffffffe0601f845f846040978901015201168401019416910152565b818101830151858201608001528201611941565b3373ffffffffffffffffffffffffffffffffffffffff821603610f42576119c590611d43565b50565b97959391989694926040519860208a019a8b9173ffffffffffffffffffffffffffffffffffffffff9485938480931690521660408c01521660608a015216608088015260a087015260c086015260e085015261010084015261012083015261014090818301528152610160810181811067ffffffffffffffff821117610d775760405251902090565b15611a5857565b60646040517f08c379a000000000000000000000000000000000000000000000000000000000815260206004820152600a60248201527f6e6f742063616e63656c000000000000000000000000000000000000000000006044820152fd5b6002600b5414611ac7576002600b55565b60046040517f3ee5aeb5000000000000000000000000000000000000000000000000000000008152fd5b919073ffffffffffffffffffffffffffffffffffffffff604051937ffc9dc186000000000000000000000000000000000000000000000000000000006020860152166024840152604483015246606483015260848201526084815260c0810181811067ffffffffffffffff821117610d775760405290565b805f52600460205260405f20335f5260205260ff60405f20541615611b8b5750565b604490604051907fe2517d3f0000000000000000000000000000000000000000000000000000000082523360048301526024820152fd5b73ffffffffffffffffffffffffffffffffffffffff165f8181527f2fb794d17134dfdec181ddbac1babb5ab1eb140204ef4d982f294e7fc8b6902260205260409020547fdf8b4c520ffe197c5343c6f5aec59570151ef9a492f2c624fd45ddde6135ec42919060ff16611c9957815f52600460205260405f20815f5260205260405f2060017fffffffffffffffffffffffffffffffffffffffffffffffffffffffffffffff0082541617905533917f2f8788117e7eff1d82e926ec794901d17c78024a50270940304540a733656f0d5f80a4600190565b50505f90565b90815f52600460205273ffffffffffffffffffffffffffffffffffffffff60405f20911690815f5260205260ff60405f205416155f14611c9957815f52600460205260405f20815f5260205260405f2060017fffffffffffffffffffffffffffffffffffffffffffffffffffffffffffffff0082541617905533917f2f8788117e7eff1d82e926ec794901d17c78024a50270940304540a733656f0d5f80a4600190565b73ffffffffffffffffffffffffffffffffffffffff165f8181527f2fb794d17134dfdec181ddbac1babb5ab1eb140204ef4d982f294e7fc8b6902260205260409020547fdf8b4c520ffe197c5343c6f5aec59570151ef9a492f2c624fd45ddde6135ec42919060ff1615611c9957815f52600460205260405f20815f5260205260405f207fffffffffffffffffffffffffffffffffffffffffffffffffffffffffffffff00815416905533917ff6391f5c32d9c69d2a47ea670b442974b53935d1edc7fd64eb21e047a839171b5f80a4600190565b90815f52600460205273ffffffffffffffffffffffffffffffffffffffff60405f20911690815f5260205260ff60405f2054165f14611c9957815f52600460205260405f20815f5260205260405f207fffffffffffffffffffffffffffffffffffffffffffffffffffffffffffffff00815416905533917ff6391f5c32d9c69d2a47ea670b442974b53935d1edc7fd64eb21e047a839171b5f80a460019056fea264697066735822122018fd5a490e65c43168d6ebb9f2758402d78a21ba2da7e9d19d87c49bee67f70f64736f6c63430008180033",
			"opcodes": "PUSH1 0x80 DUP1 PUSH1 0x40 MSTORE CALLVALUE PUSH2 0x1B JUMPI PUSH1 0x1 PUSH1 0xB SSTORE PUSH2 0x1EEE SWAP1 DUP2 PUSH2 0x20 DUP3 CODECOPY RETURN JUMPDEST PUSH0 DUP1 REVERT INVALID PUSH1 0x80 DUP1 PUSH1 0x40 MSTORE PUSH1 0x4 CALLDATASIZE LT ISZERO PUSH2 0x12 JUMPI PUSH0 DUP1 REVERT JUMPDEST PUSH0 SWAP1 PUSH0 CALLDATALOAD PUSH1 0xE0 SHR SWAP1 DUP2 PUSH4 0x1FFC9A7 EQ PUSH2 0x15D3 JUMPI POP DUP1 PUSH4 0x1391DD48 EQ PUSH2 0x143F JUMPI DUP1 PUSH4 0x1785F53C EQ PUSH2 0x13C4 JUMPI DUP1 PUSH4 0x178694B7 EQ PUSH2 0x1366 JUMPI DUP1 PUSH4 0x2282EB52 EQ PUSH2 0x1100 JUMPI DUP1 PUSH4 0x22985246 EQ PUSH2 0x10A7 JUMPI DUP1 PUSH4 0x248A9CA3 EQ PUSH2 0x105C JUMPI DUP1 PUSH4 0x24D7806C EQ PUSH2 0xFC8 JUMPI DUP1 PUSH4 0x2F2FF15D EQ PUSH2 0xF6C JUMPI DUP1 PUSH4 0x36568ABE EQ PUSH2 0xEE1 JUMPI DUP1 PUSH4 0x50D2A276 EQ PUSH2 0xE54 JUMPI DUP1 PUSH4 0x550D01A3 EQ PUSH2 0xDEC JUMPI DUP1 PUSH4 0x63A8FD89 EQ PUSH2 0xDAC JUMPI DUP1 PUSH4 0x6DB8E637 EQ PUSH2 0x871 JUMPI DUP1 PUSH4 0x70480275 EQ PUSH2 0x7DC JUMPI DUP1 PUSH4 0x75829DEF EQ PUSH2 0x655 JUMPI DUP1 PUSH4 0x75B238FC EQ PUSH2 0x5FC JUMPI DUP1 PUSH4 0x7F02944F EQ PUSH2 0x57D JUMPI DUP1 PUSH4 0x8B41F3AB EQ PUSH2 0x51F JUMPI DUP1 PUSH4 0x91D14854 EQ PUSH2 0x4A9 JUMPI DUP1 PUSH4 0xA217FDDF EQ PUSH2 0x46F JUMPI DUP1 PUSH4 0xAB01FAC0 EQ PUSH2 0x422 JUMPI DUP1 PUSH4 0xB911135F EQ PUSH2 0x3C4 JUMPI DUP1 PUSH4 0xCBF236DC EQ PUSH2 0x278 JUMPI DUP1 PUSH4 0xD547741F EQ PUSH2 0x218 JUMPI DUP1 PUSH4 0xDAF380BF EQ PUSH2 0x1D0 JUMPI PUSH4 0xE59F69C2 EQ PUSH2 0x147 JUMPI PUSH0 DUP1 REVERT JUMPDEST CALLVALUE PUSH2 0x1CD JUMPI PUSH1 0x20 PUSH32 0xFFFFFFFFFFFFFFFFFFFFFFFFFFFFFFFFFFFFFFFFFFFFFFFFFFFFFFFFFFFFFFFC CALLDATASIZE ADD SLT PUSH2 0x1CD JUMPI PUSH1 0x40 PUSH1 0x80 SWAP2 PUSH1 0x4 CALLDATALOAD DUP2 MSTORE PUSH1 0xA PUSH1 0x20 MSTORE KECCAK256 PUSH20 0xFFFFFFFFFFFFFFFFFFFFFFFFFFFFFFFFFFFFFFFF DUP1 DUP3 SLOAD AND SWAP2 DUP2 PUSH1 0x1 DUP3 ADD SLOAD AND SWAP2 PUSH1 0x3 DUP2 PUSH1 0x2 DUP5 ADD SLOAD AND SWAP3 ADD SLOAD AND SWAP2 PUSH1 0x40 MLOAD SWAP4 DUP5 MSTORE PUSH1 0x20 DUP5 ADD MSTORE PUSH1 0x40 DUP4 ADD MSTORE PUSH1 0x60 DUP3 ADD MSTORE RETURN JUMPDEST DUP1 REVERT JUMPDEST POP CALLVALUE PUSH2 0x1CD JUMPI PUSH1 0x20 PUSH32 0xFFFFFFFFFFFFFFFFFFFFFFFFFFFFFFFFFFFFFFFFFFFFFFFFFFFFFFFFFFFFFFFC CALLDATASIZE ADD SLT PUSH2 0x1CD JUMPI PUSH1 0x40 PUSH1 0x20 SWAP2 PUSH1 0x4 CALLDATALOAD DUP2 MSTORE PUSH1 0x9 DUP4 MSTORE KECCAK256 SLOAD PUSH1 0x40 MLOAD SWAP1 DUP2 MSTORE RETURN JUMPDEST POP CALLVALUE PUSH2 0x1CD JUMPI PUSH1 0x40 PUSH32 0xFFFFFFFFFFFFFFFFFFFFFFFFFFFFFFFFFFFFFFFFFFFFFFFFFFFFFFFFFFFFFFFC CALLDATASIZE ADD SLT PUSH2 0x1CD JUMPI PUSH2 0x274 PUSH1 0x4 CALLDATALOAD PUSH2 0x256 PUSH2 0x16B2 JUMP JUMPDEST SWAP1 DUP1 DUP5 MSTORE PUSH1 0x4 PUSH1 0x20 MSTORE PUSH2 0x26F PUSH1 0x1 PUSH1 0x40 DUP7 KECCAK256 ADD SLOAD PUSH2 0x1B69 JUMP JUMPDEST PUSH2 0x1E18 JUMP JUMPDEST POP DUP1 RETURN JUMPDEST POP CALLVALUE PUSH2 0x1CD JUMPI PUSH1 0x80 PUSH32 0xFFFFFFFFFFFFFFFFFFFFFFFFFFFFFFFFFFFFFFFFFFFFFFFFFFFFFFFFFFFFFFFC CALLDATASIZE ADD SLT PUSH2 0x1CD JUMPI PUSH1 0x44 CALLDATALOAD PUSH4 0xFFFFFFFF DUP2 AND DUP2 SUB PUSH2 0x3C0 JUMPI DUP2 SWAP1 PUSH1 0x64 CALLDATALOAD PUSH2 0x2C8 ORIGIN CALLER EQ PUSH2 0x171B JUMP JUMPDEST PUSH2 0x2D0 PUSH2 0x1AB6 JUMP JUMPDEST DUP1 DUP4 MSTORE PUSH1 0x7 PUSH1 0x20 MSTORE PUSH2 0x326 PUSH20 0xFFFFFFFFFFFFFFFFFFFFFFFFFFFFFFFFFFFFFFFF SWAP2 DUP3 PUSH1 0x40 DUP7 KECCAK256 SLOAD AND PUSH1 0x6 PUSH1 0x20 MSTORE PUSH2 0x312 PUSH1 0x1 PUSH1 0xFF PUSH1 0x40 DUP10 KECCAK256 SLOAD AND ISZERO ISZERO EQ PUSH2 0x1A51 JUMP JUMPDEST PUSH2 0x31D DUP2 ISZERO ISZERO PUSH2 0x1A51 JUMP JUMPDEST PUSH1 0x4 CALLDATALOAD SWAP1 PUSH2 0x1AF1 JUMP JUMPDEST SWAP2 PUSH1 0x24 CALLDATALOAD DUP5 MSTORE PUSH1 0xA PUSH1 0x20 MSTORE PUSH1 0x40 DUP5 KECCAK256 SWAP2 PUSH1 0x1 DUP2 DUP5 SLOAD AND SWAP4 ADD SLOAD AND SWAP2 DUP1 EXTCODESIZE ISZERO PUSH2 0x3BC JUMPI PUSH2 0x385 SWAP4 DUP6 DUP1 SWAP5 PUSH1 0x40 MLOAD SWAP7 DUP8 SWAP6 DUP7 SWAP5 DUP6 SWAP4 PUSH32 0x3DBB202B00000000000000000000000000000000000000000000000000000000 DUP6 MSTORE PUSH1 0x4 DUP6 ADD PUSH2 0x190F JUMP JUMPDEST SUB SWAP3 GAS CALL DUP1 ISZERO PUSH2 0x3B1 JUMPI PUSH2 0x39D JUMPI JUMPDEST POP PUSH1 0x1 PUSH1 0xB SSTORE DUP1 RETURN JUMPDEST PUSH2 0x3A6 SWAP1 PUSH2 0x18FB JUMP JUMPDEST PUSH2 0x1CD JUMPI DUP1 PUSH0 PUSH2 0x394 JUMP JUMPDEST PUSH1 0x40 MLOAD RETURNDATASIZE DUP5 DUP3 RETURNDATACOPY RETURNDATASIZE SWAP1 REVERT JUMPDEST DUP5 DUP1 REVERT JUMPDEST PUSH0 DUP1 REVERT JUMPDEST POP CALLVALUE PUSH2 0x1CD JUMPI PUSH1 0x20 PUSH32 0xFFFFFFFFFFFFFFFFFFFFFFFFFFFFFFFFFFFFFFFFFFFFFFFFFFFFFFFFFFFFFFFC CALLDATASIZE ADD SLT PUSH2 0x1CD JUMPI PUSH20 0xFFFFFFFFFFFFFFFFFFFFFFFFFFFFFFFFFFFFFFFF PUSH1 0x40 PUSH1 0x20 SWAP3 PUSH1 0x4 CALLDATALOAD DUP2 MSTORE PUSH1 0x1 DUP5 MSTORE KECCAK256 SLOAD AND PUSH1 0x40 MLOAD SWAP1 DUP2 MSTORE RETURN JUMPDEST POP CALLVALUE PUSH2 0x1CD JUMPI PUSH1 0x20 PUSH32 0xFFFFFFFFFFFFFFFFFFFFFFFFFFFFFFFFFFFFFFFFFFFFFFFFFFFFFFFFFFFFFFFC CALLDATASIZE ADD SLT PUSH2 0x1CD JUMPI PUSH1 0xFF PUSH1 0x40 PUSH1 0x20 SWAP3 PUSH1 0x4 CALLDATALOAD DUP2 MSTORE PUSH1 0x6 DUP5 MSTORE KECCAK256 SLOAD AND PUSH1 0x40 MLOAD SWAP1 ISZERO ISZERO DUP2 MSTORE RETURN JUMPDEST POP CALLVALUE PUSH2 0x1CD JUMPI DUP1 PUSH32 0xFFFFFFFFFFFFFFFFFFFFFFFFFFFFFFFFFFFFFFFFFFFFFFFFFFFFFFFFFFFFFFFC CALLDATASIZE ADD SLT PUSH2 0x1CD JUMPI PUSH1 0x20 SWAP1 PUSH1 0x40 MLOAD SWAP1 DUP2 MSTORE RETURN JUMPDEST POP CALLVALUE PUSH2 0x1CD JUMPI PUSH1 0x40 PUSH32 0xFFFFFFFFFFFFFFFFFFFFFFFFFFFFFFFFFFFFFFFFFFFFFFFFFFFFFFFFFFFFFFFC CALLDATASIZE ADD SLT PUSH2 0x1CD JUMPI PUSH20 0xFFFFFFFFFFFFFFFFFFFFFFFFFFFFFFFFFFFFFFFF PUSH1 0x40 PUSH2 0x4F8 PUSH2 0x16B2 JUMP JUMPDEST SWAP3 PUSH1 0x4 CALLDATALOAD DUP2 MSTORE PUSH1 0x4 PUSH1 0x20 MSTORE KECCAK256 SWAP2 AND PUSH0 MSTORE PUSH1 0x20 MSTORE PUSH1 0x20 PUSH1 0xFF PUSH1 0x40 PUSH0 KECCAK256 SLOAD AND PUSH1 0x40 MLOAD SWAP1 ISZERO ISZERO DUP2 MSTORE RETURN JUMPDEST POP CALLVALUE PUSH2 0x1CD JUMPI PUSH1 0x20 PUSH32 0xFFFFFFFFFFFFFFFFFFFFFFFFFFFFFFFFFFFFFFFFFFFFFFFFFFFFFFFFFFFFFFFC CALLDATASIZE ADD SLT PUSH2 0x1CD JUMPI PUSH20 0xFFFFFFFFFFFFFFFFFFFFFFFFFFFFFFFFFFFFFFFF PUSH1 0x40 PUSH1 0x20 SWAP3 PUSH1 0x4 CALLDATALOAD DUP2 MSTORE PUSH1 0x8 DUP5 MSTORE KECCAK256 SLOAD AND PUSH1 0x40 MLOAD SWAP1 DUP2 MSTORE RETURN JUMPDEST POP CALLVALUE PUSH2 0x1CD JUMPI PUSH2 0x140 PUSH32 0xFFFFFFFFFFFFFFFFFFFFFFFFFFFFFFFFFFFFFFFFFFFFFFFFFFFFFFFFFFFFFFFC CALLDATASIZE ADD SLT PUSH2 0x1CD JUMPI PUSH1 0x20 PUSH2 0x5F4 PUSH2 0x5BB PUSH2 0x168F JUMP JUMPDEST PUSH2 0x5C3 PUSH2 0x16B2 JUMP JUMPDEST SWAP1 PUSH2 0x5CC PUSH2 0x16D5 JUMP JUMPDEST PUSH2 0x5D4 PUSH2 0x16F8 JUMP JUMPDEST SWAP1 PUSH2 0x124 CALLDATALOAD SWAP4 PUSH2 0x104 CALLDATALOAD SWAP4 PUSH1 0xE4 CALLDATALOAD SWAP4 PUSH1 0xC4 CALLDATALOAD SWAP4 PUSH1 0xA4 CALLDATALOAD SWAP4 PUSH1 0x84 CALLDATALOAD SWAP4 PUSH2 0x19C8 JUMP JUMPDEST PUSH1 0x40 MLOAD SWAP1 DUP2 MSTORE RETURN JUMPDEST POP CALLVALUE PUSH2 0x1CD JUMPI DUP1 PUSH32 0xFFFFFFFFFFFFFFFFFFFFFFFFFFFFFFFFFFFFFFFFFFFFFFFFFFFFFFFFFFFFFFFC CALLDATASIZE ADD SLT PUSH2 0x1CD JUMPI PUSH1 0x20 PUSH1 0x40 MLOAD PUSH32 0xDF8B4C520FFE197C5343C6F5AEC59570151EF9A492F2C624FD45DDDE6135EC42 DUP2 MSTORE RETURN JUMPDEST POP CALLVALUE PUSH2 0x1CD JUMPI PUSH1 0x20 SWAP1 DUP2 PUSH32 0xFFFFFFFFFFFFFFFFFFFFFFFFFFFFFFFFFFFFFFFFFFFFFFFFFFFFFFFFFFFFFFFC CALLDATASIZE ADD SLT PUSH2 0x1CD JUMPI PUSH2 0x68F PUSH2 0x168F JUMP JUMPDEST PUSH32 0xDF8B4C520FFE197C5343C6F5AEC59570151EF9A492F2C624FD45DDDE6135EC42 DUP1 DUP4 MSTORE PUSH1 0x4 DUP5 MSTORE PUSH1 0x40 DUP4 KECCAK256 CALLER PUSH0 MSTORE DUP5 MSTORE PUSH2 0x6D0 PUSH1 0xFF PUSH1 0x40 PUSH0 KECCAK256 SLOAD AND PUSH2 0x1870 JUMP JUMPDEST PUSH20 0xFFFFFFFFFFFFFFFFFFFFFFFFFFFFFFFFFFFFFFFF DUP3 AND DUP1 ISZERO PUSH2 0x77E JUMPI CALLER EQ PUSH2 0x720 JUMPI DUP3 SWAP4 PUSH1 0x4 SWAP2 PUSH2 0x713 SWAP5 MSTORE MSTORE PUSH2 0x70E PUSH1 0x1 PUSH1 0x40 DUP6 KECCAK256 ADD SLOAD PUSH2 0x1B69 JUMP JUMPDEST PUSH2 0x1BC2 JUMP JUMPDEST POP PUSH2 0x71D CALLER PUSH2 0x199F JUMP JUMPDEST DUP1 RETURN JUMPDEST PUSH1 0x64 DUP5 PUSH1 0x40 MLOAD SWAP1 PUSH32 0x8C379A000000000000000000000000000000000000000000000000000000000 DUP3 MSTORE PUSH1 0x4 DUP3 ADD MSTORE PUSH1 0x16 PUSH1 0x24 DUP3 ADD MSTORE PUSH32 0x41636365737369626C653A2073616D652061646D696E00000000000000000000 PUSH1 0x44 DUP3 ADD MSTORE REVERT JUMPDEST PUSH1 0x64 DUP6 PUSH1 0x40 MLOAD SWAP1 PUSH32 0x8C379A000000000000000000000000000000000000000000000000000000000 DUP3 MSTORE PUSH1 0x4 DUP3 ADD MSTORE PUSH1 0x18 PUSH1 0x24 DUP3 ADD MSTORE PUSH32 0x41636365737369626C653A207A65726F20616464726573730000000000000000 PUSH1 0x44 DUP3 ADD MSTORE REVERT JUMPDEST POP CALLVALUE PUSH2 0x1CD JUMPI PUSH1 0x20 PUSH32 0xFFFFFFFFFFFFFFFFFFFFFFFFFFFFFFFFFFFFFFFFFFFFFFFFFFFFFFFFFFFFFFFC CALLDATASIZE ADD SLT PUSH2 0x1CD JUMPI PUSH2 0x274 PUSH2 0x817 PUSH2 0x168F JUMP JUMPDEST PUSH32 0xDF8B4C520FFE197C5343C6F5AEC59570151EF9A492F2C624FD45DDDE6135EC42 DUP1 DUP5 MSTORE PUSH1 0x4 PUSH1 0x20 MSTORE PUSH1 0x40 DUP5 KECCAK256 CALLER PUSH0 MSTORE PUSH1 0x20 MSTORE PUSH2 0x85A PUSH1 0xFF PUSH1 0x40 PUSH0 KECCAK256 SLOAD AND PUSH2 0x1870 JUMP JUMPDEST DUP4 MSTORE PUSH1 0x4 PUSH1 0x20 MSTORE PUSH2 0x70E PUSH1 0x1 PUSH1 0x40 DUP6 KECCAK256 ADD SLOAD PUSH2 0x1B69 JUMP JUMPDEST POP PUSH2 0x160 PUSH32 0xFFFFFFFFFFFFFFFFFFFFFFFFFFFFFFFFFFFFFFFFFFFFFFFFFFFFFFFFFFFFFFFC CALLDATASIZE ADD SLT PUSH2 0x1CD JUMPI PUSH2 0x8A5 PUSH2 0x168F JUMP JUMPDEST PUSH2 0x8AD PUSH2 0x16B2 JUMP JUMPDEST PUSH2 0x8B5 PUSH2 0x16D5 JUMP JUMPDEST SWAP1 PUSH2 0x8BE PUSH2 0x16F8 JUMP JUMPDEST PUSH4 0xFFFFFFFF PUSH2 0x124 CALLDATALOAD AND PUSH2 0x124 CALLDATALOAD SUB PUSH2 0x3C0 JUMPI PUSH2 0x8DC ORIGIN CALLER EQ PUSH2 0x171B JUMP JUMPDEST PUSH2 0x8E4 PUSH2 0x1AB6 JUMP JUMPDEST PUSH2 0x901 PUSH2 0x104 CALLDATALOAD PUSH1 0xE4 CALLDATALOAD CHAINID PUSH1 0xC4 CALLDATALOAD PUSH1 0xA4 CALLDATALOAD PUSH1 0x84 CALLDATALOAD DUP8 DUP11 DUP11 DUP14 PUSH2 0x19C8 JUMP JUMPDEST SWAP2 PUSH2 0x910 PUSH2 0x144 CALLDATALOAD DUP5 EQ PUSH2 0x17A6 JUMP JUMPDEST DUP3 DUP7 MSTORE PUSH1 0x6 PUSH1 0x20 MSTORE PUSH2 0x929 PUSH1 0xFF PUSH1 0x40 DUP9 KECCAK256 SLOAD AND ISZERO PUSH2 0x180B JUMP JUMPDEST PUSH1 0xA4 CALLDATALOAD SWAP4 DUP4 DUP8 MSTORE PUSH1 0x9 PUSH1 0x20 MSTORE PUSH1 0x40 DUP8 KECCAK256 SLOAD DUP1 PUSH2 0xDA4 JUMPI JUMPDEST POP PUSH1 0x40 MLOAD SWAP4 PUSH32 0xF37739500000000000000000000000000000000000000000000000000000000 PUSH1 0x20 DUP7 ADD MSTORE CALLER PUSH1 0x24 DUP7 ADD MSTORE DUP6 PUSH1 0x44 DUP7 ADD MSTORE PUSH1 0xC4 CALLDATALOAD PUSH1 0x64 DUP7 ADD MSTORE CHAINID PUSH1 0x84 DUP7 ADD MSTORE DUP1 PUSH1 0xA4 DUP7 ADD MSTORE PUSH1 0xA4 DUP6 MSTORE DUP5 PUSH1 0xE0 DUP2 ADD LT PUSH8 0xFFFFFFFFFFFFFFFF PUSH1 0xE0 DUP8 ADD GT OR PUSH2 0xD77 JUMPI PUSH1 0xE0 DUP6 ADD PUSH1 0x40 MSTORE DUP8 MSTORE PUSH1 0x8 PUSH1 0x20 MSTORE PUSH1 0x40 DUP8 KECCAK256 CALLER PUSH32 0xFFFFFFFFFFFFFFFFFFFFFFFF0000000000000000000000000000000000000000 DUP3 SLOAD AND OR SWAP1 SSTORE PUSH1 0x6 PUSH1 0x20 MSTORE PUSH1 0x40 DUP8 KECCAK256 PUSH1 0x1 PUSH32 0xFFFFFFFFFFFFFFFFFFFFFFFFFFFFFFFFFFFFFFFFFFFFFFFFFFFFFFFFFFFFFF00 DUP3 SLOAD AND OR SWAP1 SSTORE PUSH1 0xE4 CALLDATALOAD DUP8 MSTORE PUSH1 0xA PUSH1 0x20 MSTORE DUP7 PUSH1 0x40 DUP2 KECCAK256 PUSH20 0xFFFFFFFFFFFFFFFFFFFFFFFFFFFFFFFFFFFFFFFF SWAP6 DUP7 PUSH1 0x1 DUP2 DUP5 SLOAD AND SWAP4 ADD SLOAD AND DUP3 EXTCODESIZE ISZERO PUSH2 0xD73 JUMPI PUSH2 0xA8C SWAP3 DUP5 SWAP3 DUP4 PUSH1 0x40 MLOAD DUP1 SWAP7 DUP2 SWAP6 DUP3 SWAP5 PUSH32 0x3DBB202B00000000000000000000000000000000000000000000000000000000 DUP5 MSTORE PUSH2 0x124 CALLDATALOAD SWAP2 PUSH1 0x4 DUP6 ADD PUSH2 0x190F JUMP JUMPDEST SUB SWAP3 GAS CALL DUP1 ISZERO PUSH2 0x3B1 JUMPI PUSH2 0xD5F JUMPI JUMPDEST POP POP PUSH1 0xE4 CALLDATALOAD DUP8 MSTORE PUSH1 0xA PUSH1 0x20 MSTORE PUSH1 0x40 DUP8 KECCAK256 PUSH1 0x2 ADD SLOAD SWAP6 DUP5 AND SWAP6 DUP5 AND DUP7 SUB PUSH2 0xC7A JUMPI DUP5 CALLVALUE SUB PUSH2 0xC1C JUMPI PUSH2 0x104 CALLDATALOAD DUP8 MSTORE PUSH1 0x5 PUSH1 0x20 MSTORE DUP4 PUSH1 0x40 DUP9 KECCAK256 SLOAD AND SWAP2 DUP3 EXTCODESIZE ISZERO PUSH2 0xC18 JUMPI DUP8 DUP1 PUSH1 0x40 MLOAD DUP1 SWAP6 PUSH32 0x9A2AC6D500000000000000000000000000000000000000000000000000000000 DUP3 MSTORE DUP9 DUP9 AND PUSH1 0x4 DUP4 ADD MSTORE PUSH4 0xFFFFFFFF PUSH2 0x124 CALLDATALOAD AND PUSH1 0x24 DUP4 ADD MSTORE PUSH1 0x60 PUSH1 0x44 DUP4 ADD MSTORE DUP2 DUP4 DUP2 PUSH2 0xB5F PUSH1 0x64 DUP3 ADD PUSH1 0x40 SWAP1 PUSH1 0x2 DUP2 MSTORE PUSH32 0x3078000000000000000000000000000000000000000000000000000000000000 PUSH1 0x20 DUP3 ADD MSTORE ADD SWAP1 JUMP JUMPDEST SUB SWAP3 GAS CALL SWAP4 DUP5 ISZERO PUSH2 0xC0B JUMPI DUP7 SWAP5 PUSH2 0xBEE JUMPI JUMPDEST POP POP DUP3 SWAP1 JUMPDEST PUSH1 0x40 MLOAD SWAP8 DUP9 MSTORE AND PUSH1 0x20 DUP8 ADD MSTORE AND PUSH1 0x40 DUP6 ADD MSTORE AND PUSH1 0x60 DUP4 ADD MSTORE CALLER PUSH1 0x80 DUP4 ADD MSTORE PUSH1 0x84 CALLDATALOAD PUSH1 0xA0 DUP4 ADD MSTORE PUSH1 0xC0 DUP3 ADD MSTORE PUSH1 0xE4 CALLDATALOAD PUSH1 0xE0 DUP3 ADD MSTORE PUSH2 0x104 CALLDATALOAD PUSH2 0x100 DUP3 ADD MSTORE PUSH2 0x144 CALLDATALOAD PUSH2 0x120 DUP3 ADD MSTORE PUSH32 0xE4A4DE157CA2FBA25CB3D16D10E2A7C518ACCB542747CD18BE214C63800780C6 PUSH2 0x140 PUSH1 0xC4 CALLDATALOAD SWAP3 LOG2 PUSH1 0x1 PUSH1 0xB SSTORE DUP1 RETURN JUMPDEST PUSH2 0xBFA SWAP2 SWAP3 SWAP5 POP PUSH2 0x18FB JUMP JUMPDEST PUSH2 0xC07 JUMPI DUP4 SWAP2 DUP8 PUSH0 PUSH2 0xB71 JUMP JUMPDEST DUP7 DUP1 REVERT JUMPDEST POP PUSH1 0x40 MLOAD SWAP1 RETURNDATASIZE SWAP1 DUP3 RETURNDATACOPY RETURNDATASIZE SWAP1 REVERT JUMPDEST DUP8 DUP1 REVERT JUMPDEST PUSH1 0x64 PUSH1 0x40 MLOAD PUSH32 0x8C379A000000000000000000000000000000000000000000000000000000000 DUP2 MSTORE PUSH1 0x20 PUSH1 0x4 DUP3 ADD MSTORE PUSH1 0x18 PUSH1 0x24 DUP3 ADD MSTORE PUSH32 0x43543A20455448206E6565642073616D6520616D6F756E740000000000000000 PUSH1 0x44 DUP3 ADD MSTORE REVERT JUMPDEST PUSH2 0x104 CALLDATALOAD DUP8 MSTORE PUSH1 0x5 PUSH1 0x20 MSTORE DUP4 PUSH1 0x40 DUP9 KECCAK256 SLOAD AND SWAP2 DUP3 EXTCODESIZE ISZERO PUSH2 0xC18 JUMPI DUP8 DUP1 PUSH1 0x40 MLOAD DUP1 SWAP6 PUSH32 0x838B252000000000000000000000000000000000000000000000000000000000 DUP3 MSTORE DUP11 PUSH1 0x4 DUP4 ADD MSTORE DUP9 DUP7 AND PUSH1 0x24 DUP4 ADD MSTORE DUP9 DUP9 AND PUSH1 0x44 DUP4 ADD MSTORE DUP10 PUSH1 0x64 DUP4 ADD MSTORE PUSH4 0xFFFFFFFF PUSH2 0x124 CALLDATALOAD AND PUSH1 0x84 DUP4 ADD MSTORE PUSH1 0xC0 PUSH1 0xA4 DUP4 ADD MSTORE DUP2 DUP4 DUP2 PUSH2 0xD2B PUSH1 0xC4 DUP3 ADD PUSH1 0x40 SWAP1 PUSH1 0x2 DUP2 MSTORE PUSH32 0x3078000000000000000000000000000000000000000000000000000000000000 PUSH1 0x20 DUP3 ADD MSTORE ADD SWAP1 JUMP JUMPDEST SUB SWAP3 GAS CALL SWAP4 DUP5 ISZERO PUSH2 0xC0B JUMPI DUP7 SWAP5 PUSH2 0xD46 JUMPI JUMPDEST POP POP DUP3 SWAP1 PUSH2 0xB76 JUMP JUMPDEST PUSH2 0xD52 SWAP2 SWAP3 SWAP5 POP PUSH2 0x18FB JUMP JUMPDEST PUSH2 0xC07 JUMPI DUP4 SWAP2 DUP8 PUSH0 PUSH2 0xD3D JUMP JUMPDEST PUSH2 0xD68 SWAP1 PUSH2 0x18FB JUMP JUMPDEST PUSH2 0xC07 JUMPI DUP7 PUSH0 PUSH2 0xA9B JUMP JUMPDEST DUP4 DUP1 REVERT JUMPDEST PUSH32 0x4E487B7100000000000000000000000000000000000000000000000000000000 PUSH0 MSTORE PUSH1 0x41 PUSH1 0x4 MSTORE PUSH1 0x24 PUSH0 REVERT JUMPDEST SWAP5 POP PUSH0 PUSH2 0x940 JUMP JUMPDEST POP CALLVALUE PUSH2 0x1CD JUMPI DUP1 PUSH32 0xFFFFFFFFFFFFFFFFFFFFFFFFFFFFFFFFFFFFFFFFFFFFFFFFFFFFFFFFFFFFFFFC CALLDATASIZE ADD SLT PUSH2 0x1CD JUMPI PUSH1 0xFF PUSH1 0x20 SWAP2 SLOAD AND PUSH1 0x40 MLOAD SWAP1 ISZERO ISZERO DUP2 MSTORE RETURN JUMPDEST POP CALLVALUE PUSH2 0x1CD JUMPI PUSH1 0x20 PUSH32 0xFFFFFFFFFFFFFFFFFFFFFFFFFFFFFFFFFFFFFFFFFFFFFFFFFFFFFFFFFFFFFFFC CALLDATASIZE ADD SLT PUSH2 0x1CD JUMPI PUSH1 0xFF PUSH1 0x40 PUSH1 0x20 SWAP3 PUSH20 0xFFFFFFFFFFFFFFFFFFFFFFFFFFFFFFFFFFFFFFFF PUSH2 0xE40 PUSH2 0x168F JUMP JUMPDEST AND DUP2 MSTORE PUSH1 0x2 DUP5 MSTORE KECCAK256 SLOAD AND PUSH1 0x40 MLOAD SWAP1 ISZERO ISZERO DUP2 MSTORE RETURN JUMPDEST POP CALLVALUE PUSH2 0x1CD JUMPI PUSH1 0x20 PUSH32 0xFFFFFFFFFFFFFFFFFFFFFFFFFFFFFFFFFFFFFFFFFFFFFFFFFFFFFFFFFFFFFFFC CALLDATASIZE ADD SLT PUSH2 0x1CD JUMPI PUSH1 0x4 CALLDATALOAD PUSH32 0xFFFFFFFF00000000000000000000000000000000000000000000000000000000 DUP2 AND DUP1 SWAP2 SUB PUSH2 0xEDD JUMPI PUSH1 0x40 DUP3 PUSH20 0xFFFFFFFFFFFFFFFFFFFFFFFFFFFFFFFFFFFFFFFF SWAP3 PUSH1 0x20 SWAP5 MSTORE PUSH1 0x3 DUP5 MSTORE KECCAK256 SLOAD AND PUSH1 0x40 MLOAD SWAP1 DUP2 MSTORE RETURN JUMPDEST POP DUP1 REVERT JUMPDEST POP CALLVALUE PUSH2 0x1CD JUMPI PUSH1 0x40 PUSH32 0xFFFFFFFFFFFFFFFFFFFFFFFFFFFFFFFFFFFFFFFFFFFFFFFFFFFFFFFFFFFFFFFC CALLDATASIZE ADD SLT PUSH2 0x1CD JUMPI PUSH2 0xF19 PUSH2 0x16B2 JUMP JUMPDEST CALLER PUSH20 0xFFFFFFFFFFFFFFFFFFFFFFFFFFFFFFFFFFFFFFFF DUP3 AND SUB PUSH2 0xF42 JUMPI PUSH2 0x274 SWAP1 PUSH1 0x4 CALLDATALOAD PUSH2 0x1E18 JUMP JUMPDEST PUSH1 0x4 PUSH1 0x40 MLOAD PUSH32 0x6697B23200000000000000000000000000000000000000000000000000000000 DUP2 MSTORE REVERT JUMPDEST POP CALLVALUE PUSH2 0x1CD JUMPI PUSH1 0x40 PUSH32 0xFFFFFFFFFFFFFFFFFFFFFFFFFFFFFFFFFFFFFFFFFFFFFFFFFFFFFFFFFFFFFFFC CALLDATASIZE ADD SLT PUSH2 0x1CD JUMPI PUSH2 0x274 PUSH1 0x4 CALLDATALOAD PUSH2 0xFAA PUSH2 0x16B2 JUMP JUMPDEST SWAP1 DUP1 DUP5 MSTORE PUSH1 0x4 PUSH1 0x20 MSTORE PUSH2 0xFC3 PUSH1 0x1 PUSH1 0x40 DUP7 KECCAK256 ADD SLOAD PUSH2 0x1B69 JUMP JUMPDEST PUSH2 0x1C9F JUMP JUMPDEST POP CALLVALUE PUSH2 0x1CD JUMPI PUSH1 0x20 PUSH32 0xFFFFFFFFFFFFFFFFFFFFFFFFFFFFFFFFFFFFFFFFFFFFFFFFFFFFFFFFFFFFFFFC CALLDATASIZE ADD SLT PUSH2 0x1CD JUMPI PUSH20 0xFFFFFFFFFFFFFFFFFFFFFFFFFFFFFFFFFFFFFFFF PUSH1 0x40 PUSH2 0x1017 PUSH2 0x168F JUMP JUMPDEST SWAP3 PUSH32 0xDF8B4C520FFE197C5343C6F5AEC59570151EF9A492F2C624FD45DDDE6135EC42 DUP2 MSTORE PUSH1 0x4 PUSH1 0x20 MSTORE KECCAK256 SWAP2 AND PUSH0 MSTORE PUSH1 0x20 MSTORE PUSH1 0x20 PUSH1 0xFF PUSH1 0x40 PUSH0 KECCAK256 SLOAD AND PUSH1 0x40 MLOAD SWAP1 ISZERO ISZERO DUP2 MSTORE RETURN JUMPDEST POP CALLVALUE PUSH2 0x1CD JUMPI PUSH1 0x20 PUSH32 0xFFFFFFFFFFFFFFFFFFFFFFFFFFFFFFFFFFFFFFFFFFFFFFFFFFFFFFFFFFFFFFFC CALLDATASIZE ADD SLT PUSH2 0x1CD JUMPI PUSH1 0x1 PUSH1 0x40 PUSH1 0x20 SWAP3 PUSH1 0x4 CALLDATALOAD DUP2 MSTORE PUSH1 0x4 DUP5 MSTORE KECCAK256 ADD SLOAD PUSH1 0x40 MLOAD SWAP1 DUP2 MSTORE RETURN JUMPDEST POP CALLVALUE PUSH2 0x1CD JUMPI DUP1 PUSH32 0xFFFFFFFFFFFFFFFFFFFFFFFFFFFFFFFFFFFFFFFFFFFFFFFFFFFFFFFFFFFFFFFC CALLDATASIZE ADD SLT PUSH2 0x1CD JUMPI PUSH1 0x20 PUSH1 0x40 MLOAD PUSH32 0xFB5864E8FF833C3CB2D2D08505E82FF02A43554C74A35D4F5A64E85261278311 DUP2 MSTORE RETURN JUMPDEST POP CALLVALUE PUSH2 0x3C0 JUMPI PUSH2 0x140 PUSH32 0xFFFFFFFFFFFFFFFFFFFFFFFFFFFFFFFFFFFFFFFFFFFFFFFFFFFFFFFFFFFFFFFC CALLDATASIZE ADD SLT PUSH2 0x3C0 JUMPI PUSH2 0x1139 PUSH2 0x168F JUMP JUMPDEST PUSH2 0x1141 PUSH2 0x16B2 JUMP JUMPDEST SWAP1 PUSH2 0x114A PUSH2 0x16D5 JUMP JUMPDEST SWAP2 PUSH1 0x64 CALLDATALOAD SWAP3 PUSH1 0xA4 CALLDATALOAD SWAP4 PUSH1 0xC4 CALLDATALOAD SWAP1 PUSH1 0xE4 CALLDATALOAD SWAP3 PUSH2 0x104 CALLDATALOAD SWAP1 PUSH4 0xFFFFFFFF DUP3 AND DUP3 SUB PUSH2 0x3C0 JUMPI PUSH2 0x124 CALLDATALOAD SWAP6 PUSH2 0x117D ORIGIN CALLER EQ PUSH2 0x171B JUMP JUMPDEST PUSH2 0x1185 PUSH2 0x1AB6 JUMP JUMPDEST PUSH2 0x11CA PUSH2 0x119E DUP8 DUP8 CHAINID DUP14 DUP14 DUP11 PUSH1 0x84 CALLDATALOAD SWAP2 DUP11 DUP11 CALLER SWAP3 PUSH2 0x19C8 JUMP JUMPDEST SWAP8 PUSH2 0x11AA DUP2 DUP11 EQ PUSH2 0x17A6 JUMP JUMPDEST DUP9 PUSH0 MSTORE PUSH1 0x6 PUSH1 0x20 MSTORE PUSH2 0x11C3 PUSH1 0xFF PUSH1 0x40 PUSH0 KECCAK256 SLOAD AND ISZERO PUSH2 0x180B JUMP JUMPDEST DUP11 CALLER PUSH2 0x1AF1 JUMP JUMPDEST DUP8 PUSH0 MSTORE PUSH1 0x7 PUSH1 0x20 MSTORE PUSH1 0x40 PUSH0 KECCAK256 CALLER PUSH32 0xFFFFFFFFFFFFFFFFFFFFFFFF0000000000000000000000000000000000000000 DUP3 SLOAD AND OR SWAP1 SSTORE PUSH1 0x6 PUSH1 0x20 MSTORE PUSH1 0x40 PUSH0 KECCAK256 PUSH1 0x1 PUSH32 0xFFFFFFFFFFFFFFFFFFFFFFFFFFFFFFFFFFFFFFFFFFFFFFFFFFFFFFFFFFFFFF00 DUP3 SLOAD AND OR SWAP1 SSTORE DUP6 PUSH0 MSTORE PUSH1 0xA PUSH1 0x20 MSTORE PUSH1 0x40 PUSH0 KECCAK256 PUSH20 0xFFFFFFFFFFFFFFFFFFFFFFFFFFFFFFFFFFFFFFFF SWAP5 DUP6 PUSH1 0x1 DUP2 DUP5 SLOAD AND SWAP4 ADD SLOAD AND SWAP2 DUP1 EXTCODESIZE ISZERO PUSH2 0x3C0 JUMPI PUSH2 0x12A2 SWAP4 PUSH0 DUP1 SWAP5 PUSH1 0x40 MLOAD SWAP7 DUP8 SWAP6 DUP7 SWAP5 DUP6 SWAP4 PUSH32 0x3DBB202B00000000000000000000000000000000000000000000000000000000 DUP6 MSTORE PUSH1 0x4 DUP6 ADD PUSH2 0x190F JUMP JUMPDEST SUB SWAP3 GAS CALL DUP1 ISZERO PUSH2 0x135B JUMPI PUSH2 0x1312 JUMPI JUMPDEST POP PUSH1 0x40 DUP1 MLOAD SWAP9 DUP5 AND DUP10 MSTORE SWAP1 DUP4 AND PUSH1 0x20 DUP10 ADD MSTORE SWAP2 AND SWAP1 DUP7 ADD MSTORE CALLER PUSH1 0x60 DUP7 ADD MSTORE PUSH1 0x80 DUP6 ADD MSTORE PUSH1 0xA0 DUP5 ADD MSTORE PUSH1 0xC0 DUP4 ADD MSTORE PUSH1 0xE0 DUP3 ADD MSTORE PUSH32 0x3609A5F4E8755144B3159F44834F5DE5190DE30403956ECA59756B837ACFCE90 SWAP1 PUSH2 0x100 SWAP1 LOG2 PUSH1 0x1 PUSH1 0xB SSTORE DUP1 RETURN JUMPDEST PUSH2 0x100 SWAP8 SWAP6 SWAP4 SWAP2 SWAP11 POP SWAP2 PUSH2 0x1349 PUSH32 0x3609A5F4E8755144B3159F44834F5DE5190DE30403956ECA59756B837ACFCE90 SWAP10 SWAP8 SWAP6 SWAP4 PUSH2 0x18FB JUMP JUMPDEST DUP2 PUSH0 SWAP12 SWAP3 POP SWAP4 SWAP6 SWAP8 POP SWAP2 SWAP4 SWAP6 SWAP8 PUSH2 0x12B1 JUMP JUMPDEST PUSH1 0x40 MLOAD RETURNDATASIZE PUSH0 DUP3 RETURNDATACOPY RETURNDATASIZE SWAP1 REVERT JUMPDEST CALLVALUE PUSH2 0x3C0 JUMPI PUSH1 0x20 PUSH32 0xFFFFFFFFFFFFFFFFFFFFFFFFFFFFFFFFFFFFFFFFFFFFFFFFFFFFFFFFFFFFFFFC CALLDATASIZE ADD SLT PUSH2 0x3C0 JUMPI PUSH1 0x4 CALLDATALOAD PUSH0 MSTORE PUSH1 0x7 PUSH1 0x20 MSTORE PUSH1 0x20 PUSH20 0xFFFFFFFFFFFFFFFFFFFFFFFFFFFFFFFFFFFFFFFF PUSH1 0x40 PUSH0 KECCAK256 SLOAD AND PUSH1 0x40 MLOAD SWAP1 DUP2 MSTORE RETURN JUMPDEST CALLVALUE PUSH2 0x3C0 JUMPI PUSH1 0x20 PUSH32 0xFFFFFFFFFFFFFFFFFFFFFFFFFFFFFFFFFFFFFFFFFFFFFFFFFFFFFFFFFFFFFFFC CALLDATASIZE ADD SLT PUSH2 0x3C0 JUMPI PUSH2 0x143D PUSH2 0x13FE PUSH2 0x168F JUMP JUMPDEST CALLER PUSH0 SWAP1 DUP2 MSTORE PUSH32 0x2FB794D17134DFDEC181DDBAC1BABB5AB1EB140204EF4D982F294E7FC8B69022 PUSH1 0x20 MSTORE PUSH1 0x40 SWAP1 KECCAK256 SLOAD PUSH2 0x1438 SWAP1 PUSH1 0xFF AND PUSH2 0x1870 JUMP JUMPDEST PUSH2 0x199F JUMP JUMPDEST STOP JUMPDEST CALLVALUE PUSH2 0x3C0 JUMPI PUSH2 0x140 PUSH32 0xFFFFFFFFFFFFFFFFFFFFFFFFFFFFFFFFFFFFFFFFFFFFFFFFFFFFFFFFFFFFFFFC CALLDATASIZE ADD SLT PUSH2 0x3C0 JUMPI PUSH2 0x1477 PUSH2 0x168F JUMP JUMPDEST PUSH2 0x147F PUSH2 0x16B2 JUMP JUMPDEST PUSH2 0x1487 PUSH2 0x16D5 JUMP JUMPDEST PUSH1 0xC4 CALLDATALOAD SWAP3 PUSH1 0x64 CALLDATALOAD PUSH2 0x104 CALLDATALOAD PUSH1 0xE4 CALLDATALOAD PUSH1 0xA4 CALLDATALOAD PUSH2 0x14A3 CALLER ORIGIN EQ PUSH2 0x171B JUMP JUMPDEST PUSH2 0x14AB PUSH2 0x1AB6 JUMP JUMPDEST PUSH2 0x14BF DUP4 DUP4 CHAINID DUP12 PUSH1 0x84 CALLDATALOAD DUP10 CALLER DUP14 DUP16 DUP15 PUSH2 0x19C8 JUMP JUMPDEST SWAP4 PUSH2 0x14CE PUSH2 0x124 CALLDATALOAD DUP7 EQ PUSH2 0x17A6 JUMP JUMPDEST DUP5 PUSH0 MSTORE PUSH1 0x6 PUSH1 0x20 MSTORE PUSH2 0x14E7 PUSH1 0xFF PUSH1 0x40 PUSH0 KECCAK256 SLOAD AND ISZERO PUSH2 0x180B JUMP JUMPDEST DUP2 ISZERO PUSH2 0x1575 JUMPI PUSH32 0xF633AC6217EC373CE78B3ABB6F8141BB1FA544811102886BC221D3C259D4CE04 SWAP8 PUSH2 0x120 SWAP8 DUP7 PUSH0 MSTORE PUSH1 0x9 PUSH1 0x20 MSTORE DUP4 PUSH1 0x40 PUSH0 KECCAK256 SSTORE PUSH1 0x40 MLOAD SWAP8 PUSH20 0xFFFFFFFFFFFFFFFFFFFFFFFFFFFFFFFFFFFFFFFF SWAP3 DUP4 DUP1 SWAP3 AND DUP11 MSTORE AND PUSH1 0x20 DUP10 ADD MSTORE AND PUSH1 0x40 DUP8 ADD MSTORE CALLER PUSH1 0x60 DUP8 ADD MSTORE PUSH1 0x80 DUP7 ADD MSTORE PUSH1 0xA0 DUP6 ADD MSTORE PUSH1 0xC0 DUP5 ADD MSTORE PUSH1 0xE0 DUP4 ADD MSTORE PUSH2 0x100 DUP3 ADD MSTORE LOG2 PUSH1 0x1 PUSH1 0xB SSTORE STOP JUMPDEST PUSH1 0x64 PUSH1 0x40 MLOAD PUSH32 0x8C379A000000000000000000000000000000000000000000000000000000000 DUP2 MSTORE PUSH1 0x20 PUSH1 0x4 DUP3 ADD MSTORE PUSH1 0x15 PUSH1 0x24 DUP3 ADD MSTORE PUSH32 0x6374416D6F756E74206E656564206E6F6E5A65726F0000000000000000000000 PUSH1 0x44 DUP3 ADD MSTORE REVERT JUMPDEST CALLVALUE PUSH2 0x3C0 JUMPI PUSH1 0x20 PUSH32 0xFFFFFFFFFFFFFFFFFFFFFFFFFFFFFFFFFFFFFFFFFFFFFFFFFFFFFFFFFFFFFFFC CALLDATASIZE ADD SLT PUSH2 0x3C0 JUMPI PUSH1 0x4 CALLDATALOAD SWAP1 PUSH32 0xFFFFFFFF00000000000000000000000000000000000000000000000000000000 DUP3 AND DUP1 SWAP3 SUB PUSH2 0x3C0 JUMPI DUP2 PUSH32 0x7965DB0B00000000000000000000000000000000000000000000000000000000 PUSH1 0x20 SWAP4 EQ SWAP1 DUP2 ISZERO PUSH2 0x1665 JUMPI JUMPDEST POP ISZERO ISZERO DUP2 MSTORE RETURN JUMPDEST PUSH32 0x1FFC9A700000000000000000000000000000000000000000000000000000000 SWAP2 POP EQ DUP4 PUSH2 0x165E JUMP JUMPDEST PUSH1 0x4 CALLDATALOAD SWAP1 PUSH20 0xFFFFFFFFFFFFFFFFFFFFFFFFFFFFFFFFFFFFFFFF DUP3 AND DUP3 SUB PUSH2 0x3C0 JUMPI JUMP JUMPDEST PUSH1 0x24 CALLDATALOAD SWAP1 PUSH20 0xFFFFFFFFFFFFFFFFFFFFFFFFFFFFFFFFFFFFFFFF DUP3 AND DUP3 SUB PUSH2 0x3C0 JUMPI JUMP JUMPDEST PUSH1 0x44 CALLDATALOAD SWAP1 PUSH20 0xFFFFFFFFFFFFFFFFFFFFFFFFFFFFFFFFFFFFFFFF DUP3 AND DUP3 SUB PUSH2 0x3C0 JUMPI JUMP JUMPDEST PUSH1 0x64 CALLDATALOAD SWAP1 PUSH20 0xFFFFFFFFFFFFFFFFFFFFFFFFFFFFFFFFFFFFFFFF DUP3 AND DUP3 SUB PUSH2 0x3C0 JUMPI JUMP JUMPDEST ISZERO PUSH2 0x1722 JUMPI JUMP JUMPDEST PUSH1 0x84 PUSH1 0x40 MLOAD PUSH32 0x8C379A000000000000000000000000000000000000000000000000000000000 DUP2 MSTORE PUSH1 0x20 PUSH1 0x4 DUP3 ADD MSTORE PUSH1 0x2D PUSH1 0x24 DUP3 ADD MSTORE PUSH32 0x4C3246573A2066756E6374696F6E2063616E206F6E6C792062652063616C6C65 PUSH1 0x44 DUP3 ADD MSTORE PUSH32 0x642066726F6D20616E20454F4100000000000000000000000000000000000000 PUSH1 0x64 DUP3 ADD MSTORE REVERT JUMPDEST ISZERO PUSH2 0x17AD JUMPI JUMP JUMPDEST PUSH1 0x64 PUSH1 0x40 MLOAD PUSH32 0x8C379A000000000000000000000000000000000000000000000000000000000 DUP2 MSTORE PUSH1 0x20 PUSH1 0x4 DUP3 ADD MSTORE PUSH1 0x19 PUSH1 0x24 DUP3 ADD MSTORE PUSH32 0x486173682076616C75657320646F206E6F74206D617463682E00000000000000 PUSH1 0x44 DUP3 ADD MSTORE REVERT JUMPDEST ISZERO PUSH2 0x1812 JUMPI JUMP JUMPDEST PUSH1 0x64 PUSH1 0x40 MLOAD PUSH32 0x8C379A000000000000000000000000000000000000000000000000000000000 DUP2 MSTORE PUSH1 0x20 PUSH1 0x4 DUP3 ADD MSTORE PUSH1 0xC PUSH1 0x24 DUP3 ADD MSTORE PUSH32 0x616C726561647920736F6C640000000000000000000000000000000000000000 PUSH1 0x44 DUP3 ADD MSTORE REVERT JUMPDEST ISZERO PUSH2 0x1877 JUMPI JUMP JUMPDEST PUSH1 0x84 PUSH1 0x40 MLOAD PUSH32 0x8C379A000000000000000000000000000000000000000000000000000000000 DUP2 MSTORE PUSH1 0x20 PUSH1 0x4 DUP3 ADD MSTORE PUSH1 0x22 PUSH1 0x24 DUP3 ADD MSTORE PUSH32 0x41636365737369626C653A2043616C6C6572206973206E6F7420616E2061646D PUSH1 0x44 DUP3 ADD MSTORE PUSH32 0x696E000000000000000000000000000000000000000000000000000000000000 PUSH1 0x64 DUP3 ADD MSTORE REVERT JUMPDEST PUSH8 0xFFFFFFFFFFFFFFFF DUP2 GT PUSH2 0xD77 JUMPI PUSH1 0x40 MSTORE JUMP JUMPDEST SWAP2 SWAP1 PUSH20 0xFFFFFFFFFFFFFFFFFFFFFFFFFFFFFFFFFFFFFFFF SWAP1 SWAP5 SWAP4 SWAP5 AND DUP3 MSTORE PUSH1 0x20 PUSH1 0x60 PUSH1 0x20 DUP5 ADD MSTORE DUP2 MLOAD SWAP2 DUP3 PUSH1 0x60 DUP6 ADD MSTORE PUSH0 JUMPDEST DUP4 DUP2 LT PUSH2 0x198B JUMPI POP POP POP PUSH4 0xFFFFFFFF PUSH1 0x80 PUSH32 0xFFFFFFFFFFFFFFFFFFFFFFFFFFFFFFFFFFFFFFFFFFFFFFFFFFFFFFFFFFFFFFE0 PUSH1 0x1F DUP5 PUSH0 DUP5 PUSH1 0x40 SWAP8 DUP10 ADD ADD MSTORE ADD AND DUP5 ADD ADD SWAP5 AND SWAP2 ADD MSTORE JUMP JUMPDEST DUP2 DUP2 ADD DUP4 ADD MLOAD DUP6 DUP3 ADD PUSH1 0x80 ADD MSTORE DUP3 ADD PUSH2 0x1941 JUMP JUMPDEST CALLER PUSH20 0xFFFFFFFFFFFFFFFFFFFFFFFFFFFFFFFFFFFFFFFF DUP3 AND SUB PUSH2 0xF42 JUMPI PUSH2 0x19C5 SWAP1 PUSH2 0x1D43 JUMP JUMPDEST POP JUMP JUMPDEST SWAP8 SWAP6 SWAP4 SWAP2 SWAP9 SWAP7 SWAP5 SWAP3 PUSH1 0x40 MLOAD SWAP9 PUSH1 0x20 DUP11 ADD SWAP11 DUP12 SWAP2 PUSH20 0xFFFFFFFFFFFFFFFFFFFFFFFFFFFFFFFFFFFFFFFF SWAP5 DUP6 SWAP4 DUP5 DUP1 SWAP4 AND SWAP1 MSTORE AND PUSH1 0x40 DUP13 ADD MSTORE AND PUSH1 0x60 DUP11 ADD MSTORE AND PUSH1 0x80 DUP9 ADD MSTORE PUSH1 0xA0 DUP8 ADD MSTORE PUSH1 0xC0 DUP7 ADD MSTORE PUSH1 0xE0 DUP6 ADD MSTORE PUSH2 0x100 DUP5 ADD MSTORE PUSH2 0x120 DUP4 ADD MSTORE PUSH2 0x140 SWAP1 DUP2 DUP4 ADD MSTORE DUP2 MSTORE PUSH2 0x160 DUP2 ADD DUP2 DUP2 LT PUSH8 0xFFFFFFFFFFFFFFFF DUP3 GT OR PUSH2 0xD77 JUMPI PUSH1 0x40 MSTORE MLOAD SWAP1 KECCAK256 SWAP1 JUMP JUMPDEST ISZERO PUSH2 0x1A58 JUMPI JUMP JUMPDEST PUSH1 0x64 PUSH1 0x40 MLOAD PUSH32 0x8C379A000000000000000000000000000000000000000000000000000000000 DUP2 MSTORE PUSH1 0x20 PUSH1 0x4 DUP3 ADD MSTORE PUSH1 0xA PUSH1 0x24 DUP3 ADD MSTORE PUSH32 0x6E6F742063616E63656C00000000000000000000000000000000000000000000 PUSH1 0x44 DUP3 ADD MSTORE REVERT JUMPDEST PUSH1 0x2 PUSH1 0xB SLOAD EQ PUSH2 0x1AC7 JUMPI PUSH1 0x2 PUSH1 0xB SSTORE JUMP JUMPDEST PUSH1 0x4 PUSH1 0x40 MLOAD PUSH32 0x3EE5AEB500000000000000000000000000000000000000000000000000000000 DUP2 MSTORE REVERT JUMPDEST SWAP2 SWAP1 PUSH20 0xFFFFFFFFFFFFFFFFFFFFFFFFFFFFFFFFFFFFFFFF PUSH1 0x40 MLOAD SWAP4 PUSH32 0xFC9DC18600000000000000000000000000000000000000000000000000000000 PUSH1 0x20 DUP7 ADD MSTORE AND PUSH1 0x24 DUP5 ADD MSTORE PUSH1 0x44 DUP4 ADD MSTORE CHAINID PUSH1 0x64 DUP4 ADD MSTORE PUSH1 0x84 DUP3 ADD MSTORE PUSH1 0x84 DUP2 MSTORE PUSH1 0xC0 DUP2 ADD DUP2 DUP2 LT PUSH8 0xFFFFFFFFFFFFFFFF DUP3 GT OR PUSH2 0xD77 JUMPI PUSH1 0x40 MSTORE SWAP1 JUMP JUMPDEST DUP1 PUSH0 MSTORE PUSH1 0x4 PUSH1 0x20 MSTORE PUSH1 0x40 PUSH0 KECCAK256 CALLER PUSH0 MSTORE PUSH1 0x20 MSTORE PUSH1 0xFF PUSH1 0x40 PUSH0 KECCAK256 SLOAD AND ISZERO PUSH2 0x1B8B JUMPI POP JUMP JUMPDEST PUSH1 0x44 SWAP1 PUSH1 0x40 MLOAD SWAP1 PUSH32 0xE2517D3F00000000000000000000000000000000000000000000000000000000 DUP3 MSTORE CALLER PUSH1 0x4 DUP4 ADD MSTORE PUSH1 0x24 DUP3 ADD MSTORE REVERT JUMPDEST PUSH20 0xFFFFFFFFFFFFFFFFFFFFFFFFFFFFFFFFFFFFFFFF AND PUSH0 DUP2 DUP2 MSTORE PUSH32 0x2FB794D17134DFDEC181DDBAC1BABB5AB1EB140204EF4D982F294E7FC8B69022 PUSH1 0x20 MSTORE PUSH1 0x40 SWAP1 KECCAK256 SLOAD PUSH32 0xDF8B4C520FFE197C5343C6F5AEC59570151EF9A492F2C624FD45DDDE6135EC42 SWAP2 SWAP1 PUSH1 0xFF AND PUSH2 0x1C99 JUMPI DUP2 PUSH0 MSTORE PUSH1 0x4 PUSH1 0x20 MSTORE PUSH1 0x40 PUSH0 KECCAK256 DUP2 PUSH0 MSTORE PUSH1 0x20 MSTORE PUSH1 0x40 PUSH0 KECCAK256 PUSH1 0x1 PUSH32 0xFFFFFFFFFFFFFFFFFFFFFFFFFFFFFFFFFFFFFFFFFFFFFFFFFFFFFFFFFFFFFF00 DUP3 SLOAD AND OR SWAP1 SSTORE CALLER SWAP2 PUSH32 0x2F8788117E7EFF1D82E926EC794901D17C78024A50270940304540A733656F0D PUSH0 DUP1 LOG4 PUSH1 0x1 SWAP1 JUMP JUMPDEST POP POP PUSH0 SWAP1 JUMP JUMPDEST SWAP1 DUP2 PUSH0 MSTORE PUSH1 0x4 PUSH1 0x20 MSTORE PUSH20 0xFFFFFFFFFFFFFFFFFFFFFFFFFFFFFFFFFFFFFFFF PUSH1 0x40 PUSH0 KECCAK256 SWAP2 AND SWAP1 DUP2 PUSH0 MSTORE PUSH1 0x20 MSTORE PUSH1 0xFF PUSH1 0x40 PUSH0 KECCAK256 SLOAD AND ISZERO PUSH0 EQ PUSH2 0x1C99 JUMPI DUP2 PUSH0 MSTORE PUSH1 0x4 PUSH1 0x20 MSTORE PUSH1 0x40 PUSH0 KECCAK256 DUP2 PUSH0 MSTORE PUSH1 0x20 MSTORE PUSH1 0x40 PUSH0 KECCAK256 PUSH1 0x1 PUSH32 0xFFFFFFFFFFFFFFFFFFFFFFFFFFFFFFFFFFFFFFFFFFFFFFFFFFFFFFFFFFFFFF00 DUP3 SLOAD AND OR SWAP1 SSTORE CALLER SWAP2 PUSH32 0x2F8788117E7EFF1D82E926EC794901D17C78024A50270940304540A733656F0D PUSH0 DUP1 LOG4 PUSH1 0x1 SWAP1 JUMP JUMPDEST PUSH20 0xFFFFFFFFFFFFFFFFFFFFFFFFFFFFFFFFFFFFFFFF AND PUSH0 DUP2 DUP2 MSTORE PUSH32 0x2FB794D17134DFDEC181DDBAC1BABB5AB1EB140204EF4D982F294E7FC8B69022 PUSH1 0x20 MSTORE PUSH1 0x40 SWAP1 KECCAK256 SLOAD PUSH32 0xDF8B4C520FFE197C5343C6F5AEC59570151EF9A492F2C624FD45DDDE6135EC42 SWAP2 SWAP1 PUSH1 0xFF AND ISZERO PUSH2 0x1C99 JUMPI DUP2 PUSH0 MSTORE PUSH1 0x4 PUSH1 0x20 MSTORE PUSH1 0x40 PUSH0 KECCAK256 DUP2 PUSH0 MSTORE PUSH1 0x20 MSTORE PUSH1 0x40 PUSH0 KECCAK256 PUSH32 0xFFFFFFFFFFFFFFFFFFFFFFFFFFFFFFFFFFFFFFFFFFFFFFFFFFFFFFFFFFFFFF00 DUP2 SLOAD AND SWAP1 SSTORE CALLER SWAP2 PUSH32 0xF6391F5C32D9C69D2A47EA670B442974B53935D1EDC7FD64EB21E047A839171B PUSH0 DUP1 LOG4 PUSH1 0x1 SWAP1 JUMP JUMPDEST SWAP1 DUP2 PUSH0 MSTORE PUSH1 0x4 PUSH1 0x20 MSTORE PUSH20 0xFFFFFFFFFFFFFFFFFFFFFFFFFFFFFFFFFFFFFFFF PUSH1 0x40 PUSH0 KECCAK256 SWAP2 AND SWAP1 DUP2 PUSH0 MSTORE PUSH1 0x20 MSTORE PUSH1 0xFF PUSH1 0x40 PUSH0 KECCAK256 SLOAD AND PUSH0 EQ PUSH2 0x1C99 JUMPI DUP2 PUSH0 MSTORE PUSH1 0x4 PUSH1 0x20 MSTORE PUSH1 0x40 PUSH0 KECCAK256 DUP2 PUSH0 MSTORE PUSH1 0x20 MSTORE PUSH1 0x40 PUSH0 KECCAK256 PUSH32 0xFFFFFFFFFFFFFFFFFFFFFFFFFFFFFFFFFFFFFFFFFFFFFFFFFFFFFFFFFFFFFF00 DUP2 SLOAD AND SWAP1 SSTORE CALLER SWAP2 PUSH32 0xF6391F5C32D9C69D2A47EA670B442974B53935D1EDC7FD64EB21E047A839171B PUSH0 DUP1 LOG4 PUSH1 0x1 SWAP1 JUMP INVALID LOG2 PUSH5 0x6970667358 0x22 SLT KECCAK256 XOR REVERT GAS BLOBHASH 0xE PUSH6 0xC43168D6EBB9 CALLCODE PUSH22 0x8402D78A21BA2DA7E9D19D87C49BEE67F70F64736F6C PUSH4 0x43000818 STOP CALLER "
		},
		"gasEstimates": {
			"creation": {
				"codeDepositCost": "1583600",
				"executionCost": "23775",
				"totalCost": "1607375"
			},
			"external": {
				"ADMIN_ROLE()": "510",
				"DEFAULT_ADMIN_ROLE()": "601",
				"POLICY_ROLE()": "268",
				"addAdmin(address)": "35687",
				"aliveImplementation(address)": "2642",
				"cancel(address,address,address,uint256,uint256,uint256,uint256,uint256,uint32,bytes32)": "infinite",
				"cancelL1(bytes32)": "2395",
				"chainData(uint256)": "9302",
				"editCtAmount(bytes32)": "2877",
				"editFee(address,address,address,uint256,uint256,uint256,uint256,uint256,uint256,bytes32)": "75284",
				"getHash(address,address,address,address,uint256,uint256,uint256,uint256,uint256,uint256)": "1251",
				"getRoleAdmin(bytes32)": "2465",
				"grantRole(bytes32,address)": "33357",
				"hasRole(bytes32,address)": "2885",
				"isAdmin(address)": "2618",
				"pauseProxy()": "2537",
				"provideAccount(bytes32)": "2729",
				"provideCT(address,address,address,address,uint256,uint256,uint256,uint256,uint256,uint32,bytes32)": "infinite",
				"proxyImplementation(uint256)": "2817",
				"removeAdmin(address)": "30972",
				"renounceRole(bytes32,address)": "28953",
				"resendCancelMessage(uint256,uint256,uint32,bytes32)": "infinite",
				"revokeRole(bytes32,address)": "33700",
				"selectorImplementation(bytes4)": "2587",
				"successCT(bytes32)": "2801",
				"supportsInterface(bytes4)": "254",
				"transferAdmin(address)": "64285"
			},
			"internal": {
				"_getChainID()": "infinite",
				"makeEncodeWithSignature(uint8,address,uint256,uint256,bytes32)": "infinite"
			}
		},
		"methodIdentifiers": {
			"ADMIN_ROLE()": "75b238fc",
			"DEFAULT_ADMIN_ROLE()": "a217fddf",
			"POLICY_ROLE()": "22985246",
			"addAdmin(address)": "70480275",
			"aliveImplementation(address)": "550d01a3",
			"cancel(address,address,address,uint256,uint256,uint256,uint256,uint256,uint32,bytes32)": "2282eb52",
			"cancelL1(bytes32)": "178694b7",
			"chainData(uint256)": "e59f69c2",
			"editCtAmount(bytes32)": "daf380bf",
			"editFee(address,address,address,uint256,uint256,uint256,uint256,uint256,uint256,bytes32)": "1391dd48",
			"getHash(address,address,address,address,uint256,uint256,uint256,uint256,uint256,uint256)": "7f02944f",
			"getRoleAdmin(bytes32)": "248a9ca3",
			"grantRole(bytes32,address)": "2f2ff15d",
			"hasRole(bytes32,address)": "91d14854",
			"isAdmin(address)": "24d7806c",
			"pauseProxy()": "63a8fd89",
			"provideAccount(bytes32)": "8b41f3ab",
			"provideCT(address,address,address,address,uint256,uint256,uint256,uint256,uint256,uint32,bytes32)": "6db8e637",
			"proxyImplementation(uint256)": "b911135f",
			"removeAdmin(address)": "1785f53c",
			"renounceRole(bytes32,address)": "36568abe",
			"resendCancelMessage(uint256,uint256,uint32,bytes32)": "cbf236dc",
			"revokeRole(bytes32,address)": "d547741f",
			"selectorImplementation(bytes4)": "50d2a276",
			"successCT(bytes32)": "ab01fac0",
			"supportsInterface(bytes4)": "01ffc9a7",
			"transferAdmin(address)": "75829def"
		}
	},
	"abi": [
		{
			"inputs": [],
			"name": "AccessControlBadConfirmation",
			"type": "error"
		},
		{
			"inputs": [
				{
					"internalType": "address",
					"name": "account",
					"type": "address"
				},
				{
					"internalType": "bytes32",
					"name": "neededRole",
					"type": "bytes32"
				}
			],
			"name": "AccessControlUnauthorizedAccount",
			"type": "error"
		},
		{
			"inputs": [],
			"name": "ReentrancyGuardReentrantCall",
			"type": "error"
		},
		{
			"anonymous": false,
			"inputs": [
				{
					"indexed": false,
					"internalType": "address",
					"name": "_l1token",
					"type": "address"
				},
				{
					"indexed": false,
					"internalType": "address",
					"name": "_l2SourceToken",
					"type": "address"
				},
				{
					"indexed": false,
					"internalType": "address",
					"name": "_l2TargetToken",
					"type": "address"
				},
				{
					"indexed": false,
					"internalType": "address",
					"name": "_requester",
					"type": "address"
				},
				{
					"indexed": false,
					"internalType": "uint256",
					"name": "_totalAmount",
					"type": "uint256"
				},
				{
					"indexed": false,
					"internalType": "uint256",
					"name": "_ctAmount",
					"type": "uint256"
				},
				{
					"indexed": true,
					"internalType": "uint256",
					"name": "_saleCount",
					"type": "uint256"
				},
				{
					"indexed": false,
					"internalType": "uint256",
					"name": "_l2SourceChainId",
					"type": "uint256"
				},
				{
					"indexed": false,
					"internalType": "uint256",
					"name": "_l2TargetChainId",
					"type": "uint256"
				},
				{
					"indexed": false,
					"internalType": "bytes32",
					"name": "_hash",
					"type": "bytes32"
				}
			],
			"name": "EditCT",
			"type": "event"
		},
		{
			"anonymous": false,
			"inputs": [
				{
					"indexed": false,
					"internalType": "address",
					"name": "_l1token",
					"type": "address"
				},
				{
					"indexed": false,
					"internalType": "address",
					"name": "_l2SourceToken",
					"type": "address"
				},
				{
					"indexed": false,
					"internalType": "address",
					"name": "_l2TargetToken",
					"type": "address"
				},
				{
					"indexed": false,
					"internalType": "address",
					"name": "_requester",
					"type": "address"
				},
				{
					"indexed": false,
					"internalType": "uint256",
					"name": "_totalAmount",
					"type": "uint256"
				},
				{
					"indexed": true,
					"internalType": "uint256",
					"name": "_saleCount",
					"type": "uint256"
				},
				{
					"indexed": false,
					"internalType": "uint256",
					"name": "_l2SourceChainId",
					"type": "uint256"
				},
				{
					"indexed": false,
					"internalType": "uint256",
					"name": "_l2TargetChainId",
					"type": "uint256"
				},
				{
					"indexed": false,
					"internalType": "bytes32",
					"name": "_hash",
					"type": "bytes32"
				}
			],
			"name": "L1CancelCT",
			"type": "event"
		},
		{
			"anonymous": false,
			"inputs": [
				{
					"indexed": false,
					"internalType": "address",
					"name": "_l1token",
					"type": "address"
				},
				{
					"indexed": false,
					"internalType": "address",
					"name": "_l2SourceToken",
					"type": "address"
				},
				{
					"indexed": false,
					"internalType": "address",
					"name": "_l2TargetToken",
					"type": "address"
				},
				{
					"indexed": false,
					"internalType": "address",
					"name": "_requester",
					"type": "address"
				},
				{
					"indexed": false,
					"internalType": "address",
					"name": "_provider",
					"type": "address"
				},
				{
					"indexed": false,
					"internalType": "uint256",
					"name": "_totalAmount",
					"type": "uint256"
				},
				{
					"indexed": false,
					"internalType": "uint256",
					"name": "_ctAmount",
					"type": "uint256"
				},
				{
					"indexed": true,
					"internalType": "uint256",
					"name": "_saleCount",
					"type": "uint256"
				},
				{
					"indexed": false,
					"internalType": "uint256",
					"name": "_l2SourceChainId",
					"type": "uint256"
				},
				{
					"indexed": false,
					"internalType": "uint256",
					"name": "_l2TargetChainId",
					"type": "uint256"
				},
				{
					"indexed": false,
					"internalType": "bytes32",
					"name": "_hash",
					"type": "bytes32"
				}
			],
			"name": "ProvideCT",
			"type": "event"
		},
		{
			"anonymous": false,
			"inputs": [
				{
					"indexed": true,
					"internalType": "bytes32",
					"name": "role",
					"type": "bytes32"
				},
				{
					"indexed": true,
					"internalType": "bytes32",
					"name": "previousAdminRole",
					"type": "bytes32"
				},
				{
					"indexed": true,
					"internalType": "bytes32",
					"name": "newAdminRole",
					"type": "bytes32"
				}
			],
			"name": "RoleAdminChanged",
			"type": "event"
		},
		{
			"anonymous": false,
			"inputs": [
				{
					"indexed": true,
					"internalType": "bytes32",
					"name": "role",
					"type": "bytes32"
				},
				{
					"indexed": true,
					"internalType": "address",
					"name": "account",
					"type": "address"
				},
				{
					"indexed": true,
					"internalType": "address",
					"name": "sender",
					"type": "address"
				}
			],
			"name": "RoleGranted",
			"type": "event"
		},
		{
			"anonymous": false,
			"inputs": [
				{
					"indexed": true,
					"internalType": "bytes32",
					"name": "role",
					"type": "bytes32"
				},
				{
					"indexed": true,
					"internalType": "address",
					"name": "account",
					"type": "address"
				},
				{
					"indexed": true,
					"internalType": "address",
					"name": "sender",
					"type": "address"
				}
			],
			"name": "RoleRevoked",
			"type": "event"
		},
		{
			"inputs": [],
			"name": "ADMIN_ROLE",
			"outputs": [
				{
					"internalType": "bytes32",
					"name": "",
					"type": "bytes32"
				}
			],
			"stateMutability": "view",
			"type": "function"
		},
		{
			"inputs": [],
			"name": "DEFAULT_ADMIN_ROLE",
			"outputs": [
				{
					"internalType": "bytes32",
					"name": "",
					"type": "bytes32"
				}
			],
			"stateMutability": "view",
			"type": "function"
		},
		{
			"inputs": [],
			"name": "POLICY_ROLE",
			"outputs": [
				{
					"internalType": "bytes32",
					"name": "",
					"type": "bytes32"
				}
			],
			"stateMutability": "view",
			"type": "function"
		},
		{
			"inputs": [
				{
					"internalType": "address",
					"name": "account",
					"type": "address"
				}
			],
			"name": "addAdmin",
			"outputs": [],
			"stateMutability": "nonpayable",
			"type": "function"
		},
		{
			"inputs": [
				{
					"internalType": "address",
					"name": "",
					"type": "address"
				}
			],
			"name": "aliveImplementation",
			"outputs": [
				{
					"internalType": "bool",
					"name": "",
					"type": "bool"
				}
			],
			"stateMutability": "view",
			"type": "function"
		},
		{
			"inputs": [
				{
					"internalType": "address",
					"name": "_l1token",
					"type": "address"
				},
				{
					"internalType": "address",
					"name": "_l2SourceToken",
					"type": "address"
				},
				{
					"internalType": "address",
					"name": "_l2TargetToken",
					"type": "address"
				},
				{
					"internalType": "uint256",
					"name": "_totalAmount",
					"type": "uint256"
				},
				{
					"internalType": "uint256",
					"name": "_initialctAmount",
					"type": "uint256"
				},
				{
					"internalType": "uint256",
					"name": "_salecount",
					"type": "uint256"
				},
				{
					"internalType": "uint256",
					"name": "_l2SourceChainId",
					"type": "uint256"
				},
				{
					"internalType": "uint256",
					"name": "_l2TargetChainId",
					"type": "uint256"
				},
				{
					"internalType": "uint32",
					"name": "_minGasLimit",
					"type": "uint32"
				},
				{
					"internalType": "bytes32",
					"name": "_hash",
					"type": "bytes32"
				}
			],
			"name": "cancel",
			"outputs": [],
			"stateMutability": "nonpayable",
			"type": "function"
		},
		{
			"inputs": [
				{
					"internalType": "bytes32",
					"name": "",
					"type": "bytes32"
				}
			],
			"name": "cancelL1",
			"outputs": [
				{
					"internalType": "address",
					"name": "",
					"type": "address"
				}
			],
			"stateMutability": "view",
			"type": "function"
		},
		{
			"inputs": [
				{
					"internalType": "uint256",
					"name": "",
					"type": "uint256"
				}
			],
			"name": "chainData",
			"outputs": [
				{
					"internalType": "address",
					"name": "crossDomainMessenger",
					"type": "address"
				},
				{
					"internalType": "address",
					"name": "l2CrossTradeContract",
					"type": "address"
				},
				{
					"internalType": "address",
					"name": "legacyERC20ETH",
					"type": "address"
				},
				{
					"internalType": "address",
					"name": "l1TON",
					"type": "address"
				}
			],
			"stateMutability": "view",
			"type": "function"
		},
		{
			"inputs": [
				{
					"internalType": "bytes32",
					"name": "",
					"type": "bytes32"
				}
			],
			"name": "editCtAmount",
			"outputs": [
				{
					"internalType": "uint256",
					"name": "",
					"type": "uint256"
				}
			],
			"stateMutability": "view",
			"type": "function"
		},
		{
			"inputs": [
				{
					"internalType": "address",
					"name": "_l1token",
					"type": "address"
				},
				{
					"internalType": "address",
					"name": "_l2SourceToken",
					"type": "address"
				},
				{
					"internalType": "address",
					"name": "_l2TargetToken",
					"type": "address"
				},
				{
					"internalType": "uint256",
					"name": "_totalAmount",
					"type": "uint256"
				},
				{
					"internalType": "uint256",
					"name": "_initialctAmount",
					"type": "uint256"
				},
				{
					"internalType": "uint256",
					"name": "_editedctAmount",
					"type": "uint256"
				},
				{
					"internalType": "uint256",
					"name": "_salecount",
					"type": "uint256"
				},
				{
					"internalType": "uint256",
					"name": "_l2SourceChainId",
					"type": "uint256"
				},
				{
					"internalType": "uint256",
					"name": "_l2TargetChainId",
					"type": "uint256"
				},
				{
					"internalType": "bytes32",
					"name": "_hash",
					"type": "bytes32"
				}
			],
			"name": "editFee",
			"outputs": [],
			"stateMutability": "nonpayable",
			"type": "function"
		},
		{
			"inputs": [
				{
					"internalType": "address",
					"name": "_l1token",
					"type": "address"
				},
				{
					"internalType": "address",
					"name": "_l2SourceToken",
					"type": "address"
				},
				{
					"internalType": "address",
					"name": "_l2TargetToken",
					"type": "address"
				},
				{
					"internalType": "address",
					"name": "_requestor",
					"type": "address"
				},
				{
					"internalType": "uint256",
					"name": "_totalAmount",
					"type": "uint256"
				},
				{
					"internalType": "uint256",
					"name": "_ctAmount",
					"type": "uint256"
				},
				{
					"internalType": "uint256",
					"name": "_saleCount",
					"type": "uint256"
				},
				{
					"internalType": "uint256",
					"name": "_l1ChainId",
					"type": "uint256"
				},
				{
					"internalType": "uint256",
					"name": "_l2SourceChainId",
					"type": "uint256"
				},
				{
					"internalType": "uint256",
					"name": "_l2TargetChainId",
					"type": "uint256"
				}
			],
			"name": "getHash",
			"outputs": [
				{
					"internalType": "bytes32",
					"name": "",
					"type": "bytes32"
				}
			],
			"stateMutability": "pure",
			"type": "function"
		},
		{
			"inputs": [
				{
					"internalType": "bytes32",
					"name": "role",
					"type": "bytes32"
				}
			],
			"name": "getRoleAdmin",
			"outputs": [
				{
					"internalType": "bytes32",
					"name": "",
					"type": "bytes32"
				}
			],
			"stateMutability": "view",
			"type": "function"
		},
		{
			"inputs": [
				{
					"internalType": "bytes32",
					"name": "role",
					"type": "bytes32"
				},
				{
					"internalType": "address",
					"name": "account",
					"type": "address"
				}
			],
			"name": "grantRole",
			"outputs": [],
			"stateMutability": "nonpayable",
			"type": "function"
		},
		{
			"inputs": [
				{
					"internalType": "bytes32",
					"name": "role",
					"type": "bytes32"
				},
				{
					"internalType": "address",
					"name": "account",
					"type": "address"
				}
			],
			"name": "hasRole",
			"outputs": [
				{
					"internalType": "bool",
					"name": "",
					"type": "bool"
				}
			],
			"stateMutability": "view",
			"type": "function"
		},
		{
			"inputs": [
				{
					"internalType": "address",
					"name": "account",
					"type": "address"
				}
			],
			"name": "isAdmin",
			"outputs": [
				{
					"internalType": "bool",
					"name": "",
					"type": "bool"
				}
			],
			"stateMutability": "view",
			"type": "function"
		},
		{
			"inputs": [],
			"name": "pauseProxy",
			"outputs": [
				{
					"internalType": "bool",
					"name": "",
					"type": "bool"
				}
			],
			"stateMutability": "view",
			"type": "function"
		},
		{
			"inputs": [
				{
					"internalType": "bytes32",
					"name": "",
					"type": "bytes32"
				}
			],
			"name": "provideAccount",
			"outputs": [
				{
					"internalType": "address",
					"name": "",
					"type": "address"
				}
			],
			"stateMutability": "view",
			"type": "function"
		},
		{
			"inputs": [
				{
					"internalType": "address",
					"name": "_l1token",
					"type": "address"
				},
				{
					"internalType": "address",
					"name": "_l2SourceToken",
					"type": "address"
				},
				{
					"internalType": "address",
					"name": "_l2TargetToken",
					"type": "address"
				},
				{
					"internalType": "address",
					"name": "_requestor",
					"type": "address"
				},
				{
					"internalType": "uint256",
					"name": "_totalAmount",
					"type": "uint256"
				},
				{
					"internalType": "uint256",
					"name": "_initialctAmount",
					"type": "uint256"
				},
				{
					"internalType": "uint256",
					"name": "_salecount",
					"type": "uint256"
				},
				{
					"internalType": "uint256",
					"name": "_l2SourceChainId",
					"type": "uint256"
				},
				{
					"internalType": "uint256",
					"name": "_l2TargetChainId",
					"type": "uint256"
				},
				{
					"internalType": "uint32",
					"name": "_minGasLimit",
					"type": "uint32"
				},
				{
					"internalType": "bytes32",
					"name": "_hash",
					"type": "bytes32"
				}
			],
			"name": "provideCT",
			"outputs": [],
			"stateMutability": "payable",
			"type": "function"
		},
		{
			"inputs": [
				{
					"internalType": "uint256",
					"name": "",
					"type": "uint256"
				}
			],
			"name": "proxyImplementation",
			"outputs": [
				{
					"internalType": "address",
					"name": "",
					"type": "address"
				}
			],
			"stateMutability": "view",
			"type": "function"
		},
		{
			"inputs": [
				{
					"internalType": "address",
					"name": "account",
					"type": "address"
				}
			],
			"name": "removeAdmin",
			"outputs": [],
			"stateMutability": "nonpayable",
			"type": "function"
		},
		{
			"inputs": [
				{
					"internalType": "bytes32",
					"name": "role",
					"type": "bytes32"
				},
				{
					"internalType": "address",
					"name": "callerConfirmation",
					"type": "address"
				}
			],
			"name": "renounceRole",
			"outputs": [],
			"stateMutability": "nonpayable",
			"type": "function"
		},
		{
			"inputs": [
				{
					"internalType": "uint256",
					"name": "_salecount",
					"type": "uint256"
				},
				{
					"internalType": "uint256",
					"name": "_l2SourceChainId",
					"type": "uint256"
				},
				{
					"internalType": "uint32",
					"name": "_minGasLimit",
					"type": "uint32"
				},
				{
					"internalType": "bytes32",
					"name": "_hash",
					"type": "bytes32"
				}
			],
			"name": "resendCancelMessage",
			"outputs": [],
			"stateMutability": "nonpayable",
			"type": "function"
		},
		{
			"inputs": [
				{
					"internalType": "bytes32",
					"name": "role",
					"type": "bytes32"
				},
				{
					"internalType": "address",
					"name": "account",
					"type": "address"
				}
			],
			"name": "revokeRole",
			"outputs": [],
			"stateMutability": "nonpayable",
			"type": "function"
		},
		{
			"inputs": [
				{
					"internalType": "bytes4",
					"name": "",
					"type": "bytes4"
				}
			],
			"name": "selectorImplementation",
			"outputs": [
				{
					"internalType": "address",
					"name": "",
					"type": "address"
				}
			],
			"stateMutability": "view",
			"type": "function"
		},
		{
			"inputs": [
				{
					"internalType": "bytes32",
					"name": "",
					"type": "bytes32"
				}
			],
			"name": "successCT",
			"outputs": [
				{
					"internalType": "bool",
					"name": "",
					"type": "bool"
				}
			],
			"stateMutability": "view",
			"type": "function"
		},
		{
			"inputs": [
				{
					"internalType": "bytes4",
					"name": "interfaceId",
					"type": "bytes4"
				}
			],
			"name": "supportsInterface",
			"outputs": [
				{
					"internalType": "bool",
					"name": "",
					"type": "bool"
				}
			],
			"stateMutability": "view",
			"type": "function"
		},
		{
			"inputs": [
				{
					"internalType": "address",
					"name": "newAdmin",
					"type": "address"
				}
			],
			"name": "transferAdmin",
			"outputs": [],
			"stateMutability": "nonpayable",
			"type": "function"
		}
	]
}