{
  "abi": [
    {
      "inputs": [],
      "stateMutability": "nonpayable",
      "type": "constructor"
    },
    {
      "inputs": [],
      "name": "AccessDenied",
      "type": "error"
    },
    {
      "inputs": [],
      "name": "AlreadyRevoked",
      "type": "error"
    },
    {
      "inputs": [],
      "name": "AlreadyRevokedOffchain",
      "type": "error"
    },
    {
      "inputs": [],
      "name": "AlreadyTimestamped",
      "type": "error"
    },
    {
      "inputs": [],
      "name": "DeadlineExpired",
      "type": "error"
    },
    {
      "inputs": [],
      "name": "InsufficientValue",
      "type": "error"
    },
    {
      "inputs": [],
      "name": "InvalidAttestation",
      "type": "error"
    },
    {
      "inputs": [],
      "name": "InvalidAttestations",
      "type": "error"
    },
    {
      "inputs": [],
      "name": "InvalidExpirationTime",
      "type": "error"
    },
    {
      "inputs": [],
      "name": "InvalidLength",
      "type": "error"
    },
    {
      "inputs": [],
      "name": "InvalidNonce",
      "type": "error"
    },
    {
      "inputs": [],
      "name": "InvalidOffset",
      "type": "error"
    },
    {
      "inputs": [],
      "name": "InvalidRegistry",
      "type": "error"
    },
    {
      "inputs": [],
      "name": "InvalidRevocation",
      "type": "error"
    },
    {
      "inputs": [],
      "name": "InvalidRevocations",
      "type": "error"
    },
    {
      "inputs": [],
      "name": "InvalidSchema",
      "type": "error"
    },
    {
      "inputs": [],
      "name": "InvalidSignature",
      "type": "error"
    },
    {
      "inputs": [],
      "name": "InvalidVerifier",
      "type": "error"
    },
    {
      "inputs": [],
      "name": "Irrevocable",
      "type": "error"
    },
    {
      "inputs": [],
      "name": "NotFound",
      "type": "error"
    },
    {
      "inputs": [],
      "name": "NotPayable",
      "type": "error"
    },
    {
      "inputs": [],
      "name": "WrongSchema",
      "type": "error"
    },
    {
      "anonymous": false,
      "inputs": [
        {
          "indexed": true,
          "internalType": "address",
          "name": "recipient",
          "type": "address"
        },
        {
          "indexed": true,
          "internalType": "address",
          "name": "attester",
          "type": "address"
        },
        {
          "indexed": false,
          "internalType": "bytes32",
          "name": "uid",
          "type": "bytes32"
        },
        {
          "indexed": true,
          "internalType": "bytes32",
          "name": "schemaUID",
          "type": "bytes32"
        }
      ],
      "name": "Attested",
      "type": "event"
    },
    {
      "anonymous": false,
      "inputs": [
        {
          "indexed": false,
          "internalType": "uint256",
          "name": "oldNonce",
          "type": "uint256"
        },
        {
          "indexed": false,
          "internalType": "uint256",
          "name": "newNonce",
          "type": "uint256"
        }
      ],
      "name": "NonceIncreased",
      "type": "event"
    },
    {
      "anonymous": false,
      "inputs": [
        {
          "indexed": true,
          "internalType": "address",
          "name": "recipient",
          "type": "address"
        },
        {
          "indexed": true,
          "internalType": "address",
          "name": "attester",
          "type": "address"
        },
        {
          "indexed": false,
          "internalType": "bytes32",
          "name": "uid",
          "type": "bytes32"
        },
        {
          "indexed": true,
          "internalType": "bytes32",
          "name": "schemaUID",
          "type": "bytes32"
        }
      ],
      "name": "Revoked",
      "type": "event"
    },
    {
      "anonymous": false,
      "inputs": [
        {
          "indexed": true,
          "internalType": "address",
          "name": "revoker",
          "type": "address"
        },
        {
          "indexed": true,
          "internalType": "bytes32",
          "name": "data",
          "type": "bytes32"
        },
        {
          "indexed": true,
          "internalType": "uint64",
          "name": "timestamp",
          "type": "uint64"
        }
      ],
      "name": "RevokedOffchain",
      "type": "event"
    },
    {
      "anonymous": false,
      "inputs": [
        {
          "indexed": true,
          "internalType": "bytes32",
          "name": "data",
          "type": "bytes32"
        },
        {
          "indexed": true,
          "internalType": "uint64",
          "name": "timestamp",
          "type": "uint64"
        }
      ],
      "name": "Timestamped",
      "type": "event"
    },
    {
      "inputs": [
        {
          "components": [
            {
              "internalType": "bytes32",
              "name": "schema",
              "type": "bytes32"
            },
            {
              "components": [
                {
                  "internalType": "address",
                  "name": "recipient",
                  "type": "address"
                },
                {
                  "internalType": "uint64",
                  "name": "expirationTime",
                  "type": "uint64"
                },
                {
                  "internalType": "bool",
                  "name": "revocable",
                  "type": "bool"
                },
                {
                  "internalType": "bytes32",
                  "name": "refUID",
                  "type": "bytes32"
                },
                {
                  "internalType": "bytes",
                  "name": "data",
                  "type": "bytes"
                },
                {
                  "internalType": "uint256",
                  "name": "value",
                  "type": "uint256"
                }
              ],
              "internalType": "struct AttestationRequestData",
              "name": "data",
              "type": "tuple"
            }
          ],
          "internalType": "struct AttestationRequest",
          "name": "request",
          "type": "tuple"
        }
      ],
      "name": "attest",
      "outputs": [
        {
          "internalType": "bytes32",
          "name": "",
          "type": "bytes32"
        }
      ],
      "stateMutability": "payable",
      "type": "function"
    },
    {
      "inputs": [
        {
          "components": [
            {
              "internalType": "bytes32",
              "name": "schema",
              "type": "bytes32"
            },
            {
              "components": [
                {
                  "internalType": "address",
                  "name": "recipient",
                  "type": "address"
                },
                {
                  "internalType": "uint64",
                  "name": "expirationTime",
                  "type": "uint64"
                },
                {
                  "internalType": "bool",
                  "name": "revocable",
                  "type": "bool"
                },
                {
                  "internalType": "bytes32",
                  "name": "refUID",
                  "type": "bytes32"
                },
                {
                  "internalType": "bytes",
                  "name": "data",
                  "type": "bytes"
                },
                {
                  "internalType": "uint256",
                  "name": "value",
                  "type": "uint256"
                }
              ],
              "internalType": "struct AttestationRequestData",
              "name": "data",
              "type": "tuple"
            },
            {
              "components": [
                {
                  "internalType": "uint8",
                  "name": "v",
                  "type": "uint8"
                },
                {
                  "internalType": "bytes32",
                  "name": "r",
                  "type": "bytes32"
                },
                {
                  "internalType": "bytes32",
                  "name": "s",
                  "type": "bytes32"
                }
              ],
              "internalType": "struct Signature",
              "name": "signature",
              "type": "tuple"
            },
            {
              "internalType": "address",
              "name": "attester",
              "type": "address"
            },
            {
              "internalType": "uint64",
              "name": "deadline",
              "type": "uint64"
            }
          ],
          "internalType": "struct DelegatedAttestationRequest",
          "name": "delegatedRequest",
          "type": "tuple"
        }
      ],
      "name": "attestByDelegation",
      "outputs": [
        {
          "internalType": "bytes32",
          "name": "",
          "type": "bytes32"
        }
      ],
      "stateMutability": "payable",
      "type": "function"
    },
    {
      "inputs": [],
      "name": "getAttestTypeHash",
      "outputs": [
        {
          "internalType": "bytes32",
          "name": "",
          "type": "bytes32"
        }
      ],
      "stateMutability": "pure",
      "type": "function"
    },
    {
      "inputs": [
        {
          "internalType": "bytes32",
          "name": "uid",
          "type": "bytes32"
        }
      ],
      "name": "getAttestation",
      "outputs": [
        {
          "components": [
            {
              "internalType": "bytes32",
              "name": "uid",
              "type": "bytes32"
            },
            {
              "internalType": "bytes32",
              "name": "schema",
              "type": "bytes32"
            },
            {
              "internalType": "uint64",
              "name": "time",
              "type": "uint64"
            },
            {
              "internalType": "uint64",
              "name": "expirationTime",
              "type": "uint64"
            },
            {
              "internalType": "uint64",
              "name": "revocationTime",
              "type": "uint64"
            },
            {
              "internalType": "bytes32",
              "name": "refUID",
              "type": "bytes32"
            },
            {
              "internalType": "address",
              "name": "recipient",
              "type": "address"
            },
            {
              "internalType": "address",
              "name": "attester",
              "type": "address"
            },
            {
              "internalType": "bool",
              "name": "revocable",
              "type": "bool"
            },
            {
              "internalType": "bytes",
              "name": "data",
              "type": "bytes"
            }
          ],
          "internalType": "struct Attestation",
          "name": "",
          "type": "tuple"
        }
      ],
      "stateMutability": "view",
      "type": "function"
    },
    {
      "inputs": [],
      "name": "getDomainSeparator",
      "outputs": [
        {
          "internalType": "bytes32",
          "name": "",
          "type": "bytes32"
        }
      ],
      "stateMutability": "view",
      "type": "function"
    },
    {
      "inputs": [],
      "name": "getName",
      "outputs": [
        {
          "internalType": "string",
          "name": "",
          "type": "string"
        }
      ],
      "stateMutability": "view",
      "type": "function"
    },
    {
      "inputs": [
        {
          "internalType": "address",
          "name": "account",
          "type": "address"
        }
      ],
      "name": "getNonce",
      "outputs": [
        {
          "internalType": "uint256",
          "name": "",
          "type": "uint256"
        }
      ],
      "stateMutability": "view",
      "type": "function"
    },
    {
      "inputs": [
        {
          "internalType": "address",
          "name": "revoker",
          "type": "address"
        },
        {
          "internalType": "bytes32",
          "name": "data",
          "type": "bytes32"
        }
      ],
      "name": "getRevokeOffchain",
      "outputs": [
        {
          "internalType": "uint64",
          "name": "",
          "type": "uint64"
        }
      ],
      "stateMutability": "view",
      "type": "function"
    },
    {
      "inputs": [],
      "name": "getRevokeTypeHash",
      "outputs": [
        {
          "internalType": "bytes32",
          "name": "",
          "type": "bytes32"
        }
      ],
      "stateMutability": "pure",
      "type": "function"
    },
    {
      "inputs": [],
      "name": "getSchemaRegistry",
      "outputs": [
        {
          "internalType": "contract ISchemaRegistry",
          "name": "",
          "type": "address"
        }
      ],
      "stateMutability": "pure",
      "type": "function"
    },
    {
      "inputs": [
        {
          "internalType": "bytes32",
          "name": "data",
          "type": "bytes32"
        }
      ],
      "name": "getTimestamp",
      "outputs": [
        {
          "internalType": "uint64",
          "name": "",
          "type": "uint64"
        }
      ],
      "stateMutability": "view",
      "type": "function"
    },
    {
      "inputs": [
        {
          "internalType": "uint256",
          "name": "newNonce",
          "type": "uint256"
        }
      ],
      "name": "increaseNonce",
      "outputs": [],
      "stateMutability": "nonpayable",
      "type": "function"
    },
    {
      "inputs": [
        {
          "internalType": "bytes32",
          "name": "uid",
          "type": "bytes32"
        }
      ],
      "name": "isAttestationValid",
      "outputs": [
        {
          "internalType": "bool",
          "name": "",
          "type": "bool"
        }
      ],
      "stateMutability": "view",
      "type": "function"
    },
    {
      "inputs": [
        {
          "components": [
            {
              "internalType": "bytes32",
              "name": "schema",
              "type": "bytes32"
            },
            {
              "components": [
                {
                  "internalType": "address",
                  "name": "recipient",
                  "type": "address"
                },
                {
                  "internalType": "uint64",
                  "name": "expirationTime",
                  "type": "uint64"
                },
                {
                  "internalType": "bool",
                  "name": "revocable",
                  "type": "bool"
                },
                {
                  "internalType": "bytes32",
                  "name": "refUID",
                  "type": "bytes32"
                },
                {
                  "internalType": "bytes",
                  "name": "data",
                  "type": "bytes"
                },
                {
                  "internalType": "uint256",
                  "name": "value",
                  "type": "uint256"
                }
              ],
              "internalType": "struct AttestationRequestData[]",
              "name": "data",
              "type": "tuple[]"
            }
          ],
          "internalType": "struct MultiAttestationRequest[]",
          "name": "multiRequests",
          "type": "tuple[]"
        }
      ],
      "name": "multiAttest",
      "outputs": [
        {
          "internalType": "bytes32[]",
          "name": "",
          "type": "bytes32[]"
        }
      ],
      "stateMutability": "payable",
      "type": "function"
    },
    {
      "inputs": [
        {
          "components": [
            {
              "internalType": "bytes32",
              "name": "schema",
              "type": "bytes32"
            },
            {
              "components": [
                {
                  "internalType": "address",
                  "name": "recipient",
                  "type": "address"
                },
                {
                  "internalType": "uint64",
                  "name": "expirationTime",
                  "type": "uint64"
                },
                {
                  "internalType": "bool",
                  "name": "revocable",
                  "type": "bool"
                },
                {
                  "internalType": "bytes32",
                  "name": "refUID",
                  "type": "bytes32"
                },
                {
                  "internalType": "bytes",
                  "name": "data",
                  "type": "bytes"
                },
                {
                  "internalType": "uint256",
                  "name": "value",
                  "type": "uint256"
                }
              ],
              "internalType": "struct AttestationRequestData[]",
              "name": "data",
              "type": "tuple[]"
            },
            {
              "components": [
                {
                  "internalType": "uint8",
                  "name": "v",
                  "type": "uint8"
                },
                {
                  "internalType": "bytes32",
                  "name": "r",
                  "type": "bytes32"
                },
                {
                  "internalType": "bytes32",
                  "name": "s",
                  "type": "bytes32"
                }
              ],
              "internalType": "struct Signature[]",
              "name": "signatures",
              "type": "tuple[]"
            },
            {
              "internalType": "address",
              "name": "attester",
              "type": "address"
            },
            {
              "internalType": "uint64",
              "name": "deadline",
              "type": "uint64"
            }
          ],
          "internalType": "struct MultiDelegatedAttestationRequest[]",
          "name": "multiDelegatedRequests",
          "type": "tuple[]"
        }
      ],
      "name": "multiAttestByDelegation",
      "outputs": [
        {
          "internalType": "bytes32[]",
          "name": "",
          "type": "bytes32[]"
        }
      ],
      "stateMutability": "payable",
      "type": "function"
    },
    {
      "inputs": [
        {
          "components": [
            {
              "internalType": "bytes32",
              "name": "schema",
              "type": "bytes32"
            },
            {
              "components": [
                {
                  "internalType": "bytes32",
                  "name": "uid",
                  "type": "bytes32"
                },
                {
                  "internalType": "uint256",
                  "name": "value",
                  "type": "uint256"
                }
              ],
              "internalType": "struct RevocationRequestData[]",
              "name": "data",
              "type": "tuple[]"
            }
          ],
          "internalType": "struct MultiRevocationRequest[]",
          "name": "multiRequests",
          "type": "tuple[]"
        }
      ],
      "name": "multiRevoke",
      "outputs": [],
      "stateMutability": "payable",
      "type": "function"
    },
    {
      "inputs": [
        {
          "components": [
            {
              "internalType": "bytes32",
              "name": "schema",
              "type": "bytes32"
            },
            {
              "components": [
                {
                  "internalType": "bytes32",
                  "name": "uid",
                  "type": "bytes32"
                },
                {
                  "internalType": "uint256",
                  "name": "value",
                  "type": "uint256"
                }
              ],
              "internalType": "struct RevocationRequestData[]",
              "name": "data",
              "type": "tuple[]"
            },
            {
              "components": [
                {
                  "internalType": "uint8",
                  "name": "v",
                  "type": "uint8"
                },
                {
                  "internalType": "bytes32",
                  "name": "r",
                  "type": "bytes32"
                },
                {
                  "internalType": "bytes32",
                  "name": "s",
                  "type": "bytes32"
                }
              ],
              "internalType": "struct Signature[]",
              "name": "signatures",
              "type": "tuple[]"
            },
            {
              "internalType": "address",
              "name": "revoker",
              "type": "address"
            },
            {
              "internalType": "uint64",
              "name": "deadline",
              "type": "uint64"
            }
          ],
          "internalType": "struct MultiDelegatedRevocationRequest[]",
          "name": "multiDelegatedRequests",
          "type": "tuple[]"
        }
      ],
      "name": "multiRevokeByDelegation",
      "outputs": [],
      "stateMutability": "payable",
      "type": "function"
    },
    {
      "inputs": [
        {
          "internalType": "bytes32[]",
          "name": "data",
          "type": "bytes32[]"
        }
      ],
      "name": "multiRevokeOffchain",
      "outputs": [
        {
          "internalType": "uint64",
          "name": "",
          "type": "uint64"
        }
      ],
      "stateMutability": "nonpayable",
      "type": "function"
    },
    {
      "inputs": [
        {
          "internalType": "bytes32[]",
          "name": "data",
          "type": "bytes32[]"
        }
      ],
      "name": "multiTimestamp",
      "outputs": [
        {
          "internalType": "uint64",
          "name": "",
          "type": "uint64"
        }
      ],
      "stateMutability": "nonpayable",
      "type": "function"
    },
    {
      "inputs": [
        {
          "components": [
            {
              "internalType": "bytes32",
              "name": "schema",
              "type": "bytes32"
            },
            {
              "components": [
                {
                  "internalType": "bytes32",
                  "name": "uid",
                  "type": "bytes32"
                },
                {
                  "internalType": "uint256",
                  "name": "value",
                  "type": "uint256"
                }
              ],
              "internalType": "struct RevocationRequestData",
              "name": "data",
              "type": "tuple"
            }
          ],
          "internalType": "struct RevocationRequest",
          "name": "request",
          "type": "tuple"
        }
      ],
      "name": "revoke",
      "outputs": [],
      "stateMutability": "payable",
      "type": "function"
    },
    {
      "inputs": [
        {
          "components": [
            {
              "internalType": "bytes32",
              "name": "schema",
              "type": "bytes32"
            },
            {
              "components": [
                {
                  "internalType": "bytes32",
                  "name": "uid",
                  "type": "bytes32"
                },
                {
                  "internalType": "uint256",
                  "name": "value",
                  "type": "uint256"
                }
              ],
              "internalType": "struct RevocationRequestData",
              "name": "data",
              "type": "tuple"
            },
            {
              "components": [
                {
                  "internalType": "uint8",
                  "name": "v",
                  "type": "uint8"
                },
                {
                  "internalType": "bytes32",
                  "name": "r",
                  "type": "bytes32"
                },
                {
                  "internalType": "bytes32",
                  "name": "s",
                  "type": "bytes32"
                }
              ],
              "internalType": "struct Signature",
              "name": "signature",
              "type": "tuple"
            },
            {
              "internalType": "address",
              "name": "revoker",
              "type": "address"
            },
            {
              "internalType": "uint64",
              "name": "deadline",
              "type": "uint64"
            }
          ],
          "internalType": "struct DelegatedRevocationRequest",
          "name": "delegatedRequest",
          "type": "tuple"
        }
      ],
      "name": "revokeByDelegation",
      "outputs": [],
      "stateMutability": "payable",
      "type": "function"
    },
    {
      "inputs": [
        {
          "internalType": "bytes32",
          "name": "data",
          "type": "bytes32"
        }
      ],
      "name": "revokeOffchain",
      "outputs": [
        {
          "internalType": "uint64",
          "name": "",
          "type": "uint64"
        }
      ],
      "stateMutability": "nonpayable",
      "type": "function"
    },
    {
      "inputs": [
        {
          "internalType": "bytes32",
          "name": "data",
          "type": "bytes32"
        }
      ],
      "name": "timestamp",
      "outputs": [
        {
          "internalType": "uint64",
          "name": "",
          "type": "uint64"
        }
      ],
      "stateMutability": "nonpayable",
      "type": "function"
    },
    {
      "inputs": [],
      "name": "version",
      "outputs": [
        {
          "internalType": "string",
          "name": "",
          "type": "string"
        }
      ],
      "stateMutability": "view",
      "type": "function"
    }
  ],
  "bytecode": {
    "object": "0x61016060405234801561001157600080fd5b50604080518082018252600381526245415360e81b60208083019182528351808501855260058152640312e322e360dc1b908201529151812060e08190527fe374587661e69268352d25204d81b23ce801573f4b09f3545e69536dc085a37a6101008190524660a081815286517f8b73c3c69bb8fe3d512ecc4cf759cc79239f7b179b0ffacaa9a75d522b39400f818801819052818901959095526060810193909352608080840192909252308382018190528751808503909201825260c093840190975280519501949094209093529290915261012091909152516101405260805160a05160c05160e05161010051610120516101405161454d61014b600039600061073701526000612753015260006127a20152600061277d015260006126d6015260006127000152600061272a015261454d6000f3fe60806040526004361061018b5760003560e01c806395411525116100d6578063d45c44351161007f578063ed24911d11610059578063ed24911d146104fd578063f10b5cc814610512578063f17325e71461054157600080fd5b8063d45c443514610467578063e30bb5631461049e578063e71ff365146104dd57600080fd5b8063b469318d116100b0578063b469318d146103ba578063b83010d314610414578063cf190f341461044757600080fd5b80639541152514610367578063a3112a641461037a578063a6d4dbc7146103a757600080fd5b806344adc90e116101385780634d003070116101125780634d003070146102de57806354fd4d50146102fe57806379f7573a1461034757600080fd5b806344adc90e1461029857806346926267146102b85780634cb7e9e5146102cb57600080fd5b806317d7de7c1161016957806317d7de7c146102205780632d0335ab146102425780633c0427151461028557600080fd5b80630eabf6601461019057806312b11a17146101a557806313893f61146101e7575b600080fd5b6101a361019e366004613497565b610554565b005b3480156101b157600080fd5b507ff83bb2b0ede93a840239f7e701a54d9bc35f03701f51ae153d601c6947ff3d3f5b6040519081526020015b60405180910390f35b3480156101f357600080fd5b50610207610202366004613497565b6106eb565b60405167ffffffffffffffff90911681526020016101de565b34801561022c57600080fd5b50610235610730565b6040516101de9190613547565b34801561024e57600080fd5b506101d461025d36600461358c565b73ffffffffffffffffffffffffffffffffffffffff1660009081526020819052604090205490565b6101d46102933660046135a9565b610760565b6102ab6102a6366004613497565b610863565b6040516101de91906135e4565b6101a36102c6366004613628565b6109e4565b6101a36102d9366004613497565b610a68565b3480156102ea57600080fd5b506102076102f9366004613640565b610b4b565b34801561030a57600080fd5b506102356040518060400160405280600581526020017f312e332e3000000000000000000000000000000000000000000000000000000081525081565b34801561035357600080fd5b506101a3610362366004613640565b610b58565b6102ab610375366004613497565b610bef565b34801561038657600080fd5b5061039a610395366004613640565b610e62565b6040516101de9190613740565b6101a36103b5366004613753565b611025565b3480156103c657600080fd5b506102076103d5366004613766565b73ffffffffffffffffffffffffffffffffffffffff919091166000908152603460209081526040808320938352929052205467ffffffffffffffff1690565b34801561042057600080fd5b507f2d4116d8c9824e4c316453e5c2843a1885580374159ce8768603c49085ef424c6101d4565b34801561045357600080fd5b50610207610462366004613640565b6110ca565b34801561047357600080fd5b50610207610482366004613640565b60009081526033602052604090205467ffffffffffffffff1690565b3480156104aa57600080fd5b506104cd6104b9366004613640565b600090815260326020526040902054151590565b60405190151581526020016101de565b3480156104e957600080fd5b506102076104f8366004613497565b6110d8565b34801561050957600080fd5b506101d4611110565b34801561051e57600080fd5b5060405173420000000000000000000000000000000000002081526020016101de565b6101d461054f366004613792565b61111a565b348160005b818110156106e4577fffffffffffffffffffffffffffffffffffffffffffffffffffffffffffffffff82018114600086868481811061059a5761059a6137cd565b90506020028101906105ac91906137fc565b6105b590613a92565b60208101518051919250908015806105d257508260400151518114155b15610609576040517f947d5a8400000000000000000000000000000000000000000000000000000000815260040160405180910390fd5b60005b818110156106ad576106a56040518060a001604052808660000151815260200185848151811061063e5761063e6137cd565b6020026020010151815260200186604001518481518110610661576106616137cd565b60200260200101518152602001866060015173ffffffffffffffffffffffffffffffffffffffff168152602001866080015167ffffffffffffffff168152506111d8565b60010161060c565b506106c383600001518385606001518a886113c5565b6106cd9088613bbc565b9650505050506106dd8160010190565b9050610559565b5050505050565b60004282825b818110156107245761071c3387878481811061070f5761070f6137cd565b90506020020135856119f4565b6001016106f1565b50909150505b92915050565b606061075b7f0000000000000000000000000000000000000000000000000000000000000000611af3565b905090565b600061077361076e83613cf1565b611c81565b604080516001808252818301909252600091816020015b6040805160c081018252600080825260208083018290529282018190526060808301829052608083015260a082015282527fffffffffffffffffffffffffffffffffffffffffffffffffffffffffffffffff90920191018161078a5790505090506107f86020840184613d6c565b61080190613da0565b81600081518110610814576108146137cd565b602090810291909101015261083d83358261083560c0870160a0880161358c565b346001611dfe565b60200151600081518110610853576108536137cd565b6020026020010151915050919050565b60608160008167ffffffffffffffff8111156108815761088161383a565b6040519080825280602002602001820160405280156108b457816020015b606081526020019060019003908161089f5790505b509050600034815b848110156109ce577fffffffffffffffffffffffffffffffffffffffffffffffffffffffffffffffff85018114368989848181106108fc576108fc6137cd565b905060200281019061090e9190613dac565b905061091d6020820182613de0565b9050600003610958576040517f947d5a8400000000000000000000000000000000000000000000000000000000815260040160405180910390fd5b600061097d823561096c6020850185613de0565b61097591613e48565b338887611dfe565b805190915061098c9086613bbc565b945080602001518785815181106109a5576109a56137cd565b6020026020010181905250806020015151860195505050506109c78160010190565b90506108bc565b506109d98383612510565b979650505050505050565b604080516001808252818301909252600091816020015b60408051808201909152600080825260208201528152602001906001900390816109fb579050509050610a3636839003830160208401613ebc565b81600081518110610a4957610a496137cd565b6020908102919091010152610a63823582333460016113c5565b505050565b348160005b818110156106e4577fffffffffffffffffffffffffffffffffffffffffffffffffffffffffffffffff8201811436868684818110610aad57610aad6137cd565b9050602002810190610abf9190613dac565b9050610b2c8135610ad36020840184613ed8565b808060200260200160405190810160405280939291908181526020016000905b82821015610b1f57610b1060408302860136819003810190613ebc565b81526020019060010190610af3565b50505050503388866113c5565b610b369086613bbc565b94505050610b448160010190565b9050610a6d565b60004261072a83826125fa565b33600090815260208190526040902054808211610ba1576040517f756688fe00000000000000000000000000000000000000000000000000000000815260040160405180910390fd5b336000908152602081815260409182902084905581518381529081018490527f57b09af877df9068fd60a69d7b21f5576b8b38955812d6ae4ac52942f1e38fb7910160405180910390a15050565b60608160008167ffffffffffffffff811115610c0d57610c0d61383a565b604051908082528060200260200182016040528015610c4057816020015b6060815260200190600190039081610c2b5790505b509050600034815b848110156109ce577fffffffffffffffffffffffffffffffffffffffffffffffffffffffffffffffff8501811436898984818110610c8857610c886137cd565b9050602002810190610c9a91906137fc565b9050366000610cac6020840184613de0565b909250905080801580610ccd5750610cc76040850185613f40565b90508114155b15610d04576040517f947d5a8400000000000000000000000000000000000000000000000000000000815260040160405180910390fd5b60005b81811015610de557610ddd6040518060a0016040528087600001358152602001868685818110610d3957610d396137cd565b9050602002810190610d4b9190613d6c565b610d5490613da0565b8152602001610d666040890189613f40565b85818110610d7657610d766137cd565b905060600201803603810190610d8c9190613fa7565b8152602001610da16080890160608a0161358c565b73ffffffffffffffffffffffffffffffffffffffff168152602001610dcc60a0890160808a01613fc3565b67ffffffffffffffff169052611c81565b600101610d07565b506000610e0e8535610df78587613e48565b610e076080890160608a0161358c565b8b8a611dfe565b8051909150610e1d9089613bbc565b975080602001518a8881518110610e3657610e366137cd565b602002602001018190525080602001515189019850505050505050610e5b8160010190565b9050610c48565b604080516101408101825260008082526020820181905291810182905260608082018390526080820183905260a0820183905260c0820183905260e0820183905261010082019290925261012081019190915260008281526032602090815260409182902082516101408101845281548152600182015492810192909252600281015467ffffffffffffffff808216948401949094526801000000000000000081048416606084015270010000000000000000000000000000000090049092166080820152600382015460a0820152600482015473ffffffffffffffffffffffffffffffffffffffff90811660c0830152600583015490811660e083015274010000000000000000000000000000000000000000900460ff16151561010082015260068201805491929161012084019190610f9c90613fde565b80601f0160208091040260200160405190810160405280929190818152602001828054610fc890613fde565b80156110155780601f10610fea57610100808354040283529160200191611015565b820191906000526020600020905b815481529060010190602001808311610ff857829003601f168201915b5050505050815250509050919050565b61103c6110373683900383018361402b565b6111d8565b604080516001808252818301909252600091816020015b604080518082019091526000808252602082015281526020019060019003908161105357905050905061108e36839003830160208401613ebc565b816000815181106110a1576110a16137cd565b6020908102919091010152610a638235826110c260e0860160c0870161358c565b3460016113c5565b60004261072a3384836119f4565b60004282825b81811015610724576111088686838181106110fb576110fb6137cd565b90506020020135846125fa565b6001016110de565b600061075b6126bc565b604080516001808252818301909252600091829190816020015b6040805160c081018252600080825260208083018290529282018190526060808301829052608083015260a082015282527fffffffffffffffffffffffffffffffffffffffffffffffffffffffffffffffff9092019101816111345790505090506111a26020840184613d6c565b6111ab90613da0565b816000815181106111be576111be6137cd565b602090810291909101015261083d83358233346001611dfe565b608081015167ffffffffffffffff161580159061120c57504267ffffffffffffffff16816080015167ffffffffffffffff16105b15611243576040517f1ab7da6b00000000000000000000000000000000000000000000000000000000815260040160405180910390fd5b6020808201516040808401518451835184860151606088015173ffffffffffffffffffffffffffffffffffffffff166000908152968790529386208054959693959394611313947f2d4116d8c9824e4c316453e5c2843a1885580374159ce8768603c49085ef424c949392876112b883614099565b909155506080808b015160408051602081019890985287019590955260608601939093529184015260a083015267ffffffffffffffff1660c082015260e0015b604051602081830303815290604052805190602001206127f0565b905061138984606001518284602001518560400151866000015160405160200161137593929190928352602083019190915260f81b7fff0000000000000000000000000000000000000000000000000000000000000016604082015260410190565b604051602081830303815290604052612803565b6113bf576040517f8baa579f00000000000000000000000000000000000000000000000000000000815260040160405180910390fd5b50505050565b6040517fa2ea7c6e0000000000000000000000000000000000000000000000000000000081526004810186905260009081907342000000000000000000000000000000000000209063a2ea7c6e90602401600060405180830381865afa158015611433573d6000803e3d6000fd5b505050506040513d6000823e601f3d9081017fffffffffffffffffffffffffffffffffffffffffffffffffffffffffffffffe016820160405261147991908101906140d1565b80519091506114b4576040517fbf37b20e00000000000000000000000000000000000000000000000000000000815260040160405180910390fd5b855160008167ffffffffffffffff8111156114d1576114d161383a565b60405190808252806020026020018201604052801561157057816020015b60408051610140810182526000808252602080830182905292820181905260608083018290526080830182905260a0830182905260c0830182905260e0830182905261010083019190915261012082015282527fffffffffffffffffffffffffffffffffffffffffffffffffffffffffffffffff9092019101816114ef5790505b50905060008267ffffffffffffffff81111561158e5761158e61383a565b6040519080825280602002602001820160405280156115b7578160200160208202803683370190505b50905060005b838110156119d65760008a82815181106115d9576115d96137cd565b6020908102919091018101518051600090815260329092526040909120805491925090611632576040517fc5723b5100000000000000000000000000000000000000000000000000000000815260040160405180910390fd5b8c81600101541461166f576040517fbf37b20e00000000000000000000000000000000000000000000000000000000815260040160405180910390fd5b600581015473ffffffffffffffffffffffffffffffffffffffff8c81169116146116c5576040517f4ca8886700000000000000000000000000000000000000000000000000000000815260040160405180910390fd5b600581015474010000000000000000000000000000000000000000900460ff1661171b576040517f157bd4c300000000000000000000000000000000000000000000000000000000815260040160405180910390fd5b6002810154700100000000000000000000000000000000900467ffffffffffffffff1615611775576040517f905e710700000000000000000000000000000000000000000000000000000000815260040160405180910390fd5b426002820180547fffffffffffffffff0000000000000000ffffffffffffffffffffffffffffffff811670010000000000000000000000000000000067ffffffffffffffff948516810291821793849055604080516101408101825287548152600188015460208201529386169286169290921791830191909152680100000000000000008304841660608301529091049091166080820152600382015460a0820152600482015473ffffffffffffffffffffffffffffffffffffffff90811660c0830152600583015490811660e083015274010000000000000000000000000000000000000000900460ff161515610100820152600682018054839161012084019161188190613fde565b80601f01602080910402602001604051908101604052809291908181526020018280546118ad90613fde565b80156118fa5780601f106118cf576101008083540402835291602001916118fa565b820191906000526020600020905b8154815290600101906020018083116118dd57829003601f168201915b505050505081525050858481518110611915576119156137cd565b60200260200101819052508160200151848481518110611937576119376137cd565b6020026020010181815250508c8b73ffffffffffffffffffffffffffffffffffffffff1686858151811061196d5761196d6137cd565b602002602001015160c0015173ffffffffffffffffffffffffffffffffffffffff167ff930a6e2523c9cc298691873087a740550b8fc85a0680830414c148ed927f61585600001516040516119c491815260200190565b60405180910390a450506001016115bd565b506119e684838360018b8b6129d2565b9a9950505050505050505050565b73ffffffffffffffffffffffffffffffffffffffff83166000908152603460209081526040808320858452918290529091205467ffffffffffffffff1615611a68576040517fec9d6eeb00000000000000000000000000000000000000000000000000000000815260040160405180910390fd5b60008381526020829052604080822080547fffffffffffffffffffffffffffffffffffffffffffffffff00000000000000001667ffffffffffffffff861690811790915590519091859173ffffffffffffffffffffffffffffffffffffffff8816917f92a1f7a41a7c585a8b09e25b195e225b1d43248daca46b0faf9e0792777a222991a450505050565b604080516020808252818301909252606091600091906020820181803683370190505090506000805b6020811015611bbe576000858260208110611b3957611b396137cd565b1a60f81b90507fff000000000000000000000000000000000000000000000000000000000000008116600003611b6f5750611bbe565b80848481518110611b8257611b826137cd565b60200101907effffffffffffffffffffffffffffffffffffffffffffffffffffffffffffff1916908160001a9053505060019182019101611b1c565b5060008167ffffffffffffffff811115611bda57611bda61383a565b6040519080825280601f01601f191660200182016040528015611c04576020820181803683370190505b50905060005b82811015611c7857838181518110611c2457611c246137cd565b602001015160f81c60f81b828281518110611c4157611c416137cd565b60200101907effffffffffffffffffffffffffffffffffffffffffffffffffffffffffffff1916908160001a905350600101611c0a565b50949350505050565b608081015167ffffffffffffffff1615801590611cb557504267ffffffffffffffff16816080015167ffffffffffffffff16105b15611cec576040517f1ab7da6b00000000000000000000000000000000000000000000000000000000815260040160405180910390fd5b60208082015160408084015184518351848601518486015160608088015160808901518051908b012060a08a0151928c015173ffffffffffffffffffffffffffffffffffffffff1660009081529a8b9052978a208054999a97999798611313987ff83bb2b0ede93a840239f7e701a54d9bc35f03701f51ae153d601c6947ff3d3f989796959491928b611d7e83614099565b909155506080808f015160408051602081019c909c528b019990995273ffffffffffffffffffffffffffffffffffffffff90971660608a015267ffffffffffffffff9586169689019690965292151560a088015260c087019190915260e086015261010085015261012084019190915216610140820152610160016112f8565b60408051808201909152600081526060602082015284516040805180820190915260008152606060208201528167ffffffffffffffff811115611e4357611e4361383a565b604051908082528060200260200182016040528015611e6c578160200160208202803683370190505b5060208201526040517fa2ea7c6e000000000000000000000000000000000000000000000000000000008152600481018990526000907342000000000000000000000000000000000000209063a2ea7c6e90602401600060405180830381865afa158015611ede573d6000803e3d6000fd5b505050506040513d6000823e601f3d9081017fffffffffffffffffffffffffffffffffffffffffffffffffffffffffffffffe0168201604052611f2491908101906140d1565b8051909150611f5f576040517fbf37b20e00000000000000000000000000000000000000000000000000000000815260040160405180910390fd5b60008367ffffffffffffffff811115611f7a57611f7a61383a565b60405190808252806020026020018201604052801561201957816020015b60408051610140810182526000808252602080830182905292820181905260608083018290526080830182905260a0830182905260c0830182905260e0830182905261010083019190915261012082015282527fffffffffffffffffffffffffffffffffffffffffffffffffffffffffffffffff909201910181611f985790505b50905060008467ffffffffffffffff8111156120375761203761383a565b604051908082528060200260200182016040528015612060578160200160208202803683370190505b50905060005b858110156124ef5760008b8281518110612082576120826137cd565b60200260200101519050600067ffffffffffffffff16816020015167ffffffffffffffff16141580156120cd57504267ffffffffffffffff16816020015167ffffffffffffffff1611155b15612104576040517f08e8b93700000000000000000000000000000000000000000000000000000000815260040160405180910390fd5b8460400151158015612117575080604001515b1561214e576040517f157bd4c300000000000000000000000000000000000000000000000000000000815260040160405180910390fd5b60006040518061014001604052806000801b81526020018f81526020016121724290565b67ffffffffffffffff168152602001836020015167ffffffffffffffff168152602001600067ffffffffffffffff16815260200183606001518152602001836000015173ffffffffffffffffffffffffffffffffffffffff1681526020018d73ffffffffffffffffffffffffffffffffffffffff16815260200183604001511515815260200183608001518152509050600080600090505b6122148382612dc3565b600081815260326020526040902054909250156122335760010161220a565b81835260008281526032602090815260409182902085518155908501516001820155908401516002820180546060870151608088015167ffffffffffffffff908116700100000000000000000000000000000000027fffffffffffffffff0000000000000000ffffffffffffffffffffffffffffffff92821668010000000000000000027fffffffffffffffffffffffffffffffff000000000000000000000000000000009094169190951617919091171691909117905560a0840151600382015560c084015160048201805473ffffffffffffffffffffffffffffffffffffffff9283167fffffffffffffffffffffffff000000000000000000000000000000000000000090911617905560e0850151600583018054610100880151151574010000000000000000000000000000000000000000027fffffffffffffffffffffff000000000000000000000000000000000000000000909116929093169190911791909117905561012084015184919060068201906123b390826141f7565b50505060608401511561240a57606084015160009081526032602052604090205461240a576040517fc5723b5100000000000000000000000000000000000000000000000000000000815260040160405180910390fd5b8287868151811061241d5761241d6137cd565b60200260200101819052508360a0015186868151811061243f5761243f6137cd565b6020026020010181815250508189602001518681518110612462576124626137cd565b6020026020010181815250508f8e73ffffffffffffffffffffffffffffffffffffffff16856000015173ffffffffffffffffffffffffffffffffffffffff167f8bf46bf4cfd674fa735a3d63ec1c9ad4153f033c290341f3a588b75685141b35856040516124d291815260200190565b60405180910390a4505050506124e88160010190565b9050612066565b506124ff83838360008c8c6129d2565b845250919998505050505050505050565b606060008267ffffffffffffffff81111561252d5761252d61383a565b604051908082528060200260200182016040528015612556578160200160208202803683370190505b508451909150600090815b818110156125ef57600087828151811061257d5761257d6137cd565b6020026020010151905060008151905060005b818110156125db578281815181106125aa576125aa6137cd565b60200260200101518787815181106125c4576125c46137cd565b602090810291909101015260019586019501612590565b5050506125e88160010190565b9050612561565b509195945050505050565b60008281526033602052604090205467ffffffffffffffff161561264a576040517f2e26794600000000000000000000000000000000000000000000000000000000815260040160405180910390fd5b60008281526033602052604080822080547fffffffffffffffffffffffffffffffffffffffffffffffff00000000000000001667ffffffffffffffff85169081179091559051909184917f5aafceeb1c7ad58e4a84898bdee37c02c0fc46e7d24e6b60e8209449f183459f9190a35050565b60003073ffffffffffffffffffffffffffffffffffffffff7f00000000000000000000000000000000000000000000000000000000000000001614801561272257507f000000000000000000000000000000000000000000000000000000000000000046145b1561274c57507f000000000000000000000000000000000000000000000000000000000000000090565b50604080517f00000000000000000000000000000000000000000000000000000000000000006020808301919091527f0000000000000000000000000000000000000000000000000000000000000000828401527f000000000000000000000000000000000000000000000000000000000000000060608301524660808301523060a0808401919091528351808403909101815260c0909201909252805191012090565b600061072a6127fd6126bc565b83612e22565b60008060006128128585612e64565b9092509050600081600481111561282b5761282b614311565b14801561286357508573ffffffffffffffffffffffffffffffffffffffff168273ffffffffffffffffffffffffffffffffffffffff16145b15612873576001925050506129cb565b6000808773ffffffffffffffffffffffffffffffffffffffff16631626ba7e60e01b88886040516024016128a8929190614340565b604080517fffffffffffffffffffffffffffffffffffffffffffffffffffffffffffffffe08184030181529181526020820180517bffffffffffffffffffffffffffffffffffffffffffffffffffffffff167fffffffff000000000000000000000000000000000000000000000000000000009094169390931790925290516129319190614361565b600060405180830381855afa9150503d806000811461296c576040519150601f19603f3d011682016040523d82523d6000602084013e612971565b606091505b5091509150818015612984575080516020145b80156129c4575080517f1626ba7e00000000000000000000000000000000000000000000000000000000906129c29083016020908101908401614373565b145b9450505050505b9392505050565b84516000906001819003612a2a57612a2288886000815181106129f7576129f76137cd565b602002602001015188600081518110612a1257612a126137cd565b6020026020010151888888612ea9565b915050612db9565b602088015173ffffffffffffffffffffffffffffffffffffffff8116612acb5760005b82811015612ab057878181518110612a6757612a676137cd565b6020026020010151600014612aa8576040517f1574f9f300000000000000000000000000000000000000000000000000000000815260040160405180910390fd5b600101612a4d565b508315612ac057612ac0856131c8565b600092505050612db9565b6000808273ffffffffffffffffffffffffffffffffffffffff1663ce46e0466040518163ffffffff1660e01b8152600401602060405180830381865afa158015612b19573d6000803e3d6000fd5b505050506040513d601f19601f82011682018060405250810190612b3d919061438c565b905060005b84811015612bfa5760008a8281518110612b5e57612b5e6137cd565b6020026020010151905080600003612b765750612bf2565b82612bad576040517f1574f9f300000000000000000000000000000000000000000000000000000000815260040160405180910390fd5b88811115612be7576040517f1101129400000000000000000000000000000000000000000000000000000000815260040160405180910390fd5b978890039792909201915b600101612b42565b508715612cd5576040517f88e5b2d900000000000000000000000000000000000000000000000000000000815273ffffffffffffffffffffffffffffffffffffffff8416906388e5b2d9908490612c57908e908e906004016143a9565b60206040518083038185885af1158015612c75573d6000803e3d6000fd5b50505050506040513d601f19601f82011682018060405250810190612c9a919061438c565b612cd0576040517fbf2f3a8b00000000000000000000000000000000000000000000000000000000815260040160405180910390fd5b612da4565b6040517f91db0b7e00000000000000000000000000000000000000000000000000000000815273ffffffffffffffffffffffffffffffffffffffff8416906391db0b7e908490612d2b908e908e906004016143a9565b60206040518083038185885af1158015612d49573d6000803e3d6000fd5b50505050506040513d601f19601f82011682018060405250810190612d6e919061438c565b612da4576040517fe8bee83900000000000000000000000000000000000000000000000000000000815260040160405180910390fd5b8515612db357612db3876131c8565b50925050505b9695505050505050565b60208083015160c084015160e0850151604080870151606088015161010089015160a08a01516101208b01519451600099612e0499989796918c9101614462565b60405160208183030381529060405280519060200120905092915050565b6040517f190100000000000000000000000000000000000000000000000000000000000060208201526022810183905260428101829052600090606201612e04565b6000808251604103612e9a5760208301516040840151606085015160001a612e8e878285856131db565b94509450505050612ea2565b506000905060025b9250929050565b602086015160009073ffffffffffffffffffffffffffffffffffffffff8116612f1d578515612f04576040517f1574f9f300000000000000000000000000000000000000000000000000000000815260040160405180910390fd5b8215612f1357612f13846131c8565b6000915050612db9565b8515613008578073ffffffffffffffffffffffffffffffffffffffff1663ce46e0466040518163ffffffff1660e01b8152600401602060405180830381865afa158015612f6e573d6000803e3d6000fd5b505050506040513d601f19601f82011682018060405250810190612f92919061438c565b612fc8576040517f1574f9f300000000000000000000000000000000000000000000000000000000815260040160405180910390fd5b83861115613002576040517f1101129400000000000000000000000000000000000000000000000000000000815260040160405180910390fd5b85840393505b84156130e0576040517fe49617e100000000000000000000000000000000000000000000000000000000815273ffffffffffffffffffffffffffffffffffffffff82169063e49617e1908890613062908b90600401613740565b60206040518083038185885af1158015613080573d6000803e3d6000fd5b50505050506040513d601f19601f820116820180604052508101906130a5919061438c565b6130db576040517fccf3bb2700000000000000000000000000000000000000000000000000000000815260040160405180910390fd5b6131ad565b6040517fe60c350500000000000000000000000000000000000000000000000000000000815273ffffffffffffffffffffffffffffffffffffffff82169063e60c3505908890613134908b90600401613740565b60206040518083038185885af1158015613152573d6000803e3d6000fd5b50505050506040513d601f19601f82011682018060405250810190613177919061438c565b6131ad576040517fbd8ba84d00000000000000000000000000000000000000000000000000000000815260040160405180910390fd5b82156131bc576131bc846131c8565b50939695505050505050565b80156131d8576131d833826132f3565b50565b6000807f7fffffffffffffffffffffffffffffff5d576e7357a4501ddfe92f46681b20a083111561321257506000905060036132ea565b8460ff16601b1415801561322a57508460ff16601c14155b1561323b57506000905060046132ea565b6040805160008082526020820180845289905260ff881692820192909252606081018690526080810185905260019060a0016020604051602081039080840390855afa15801561328f573d6000803e3d6000fd5b50506040517fffffffffffffffffffffffffffffffffffffffffffffffffffffffffffffffe0015191505073ffffffffffffffffffffffffffffffffffffffff81166132e3576000600192509250506132ea565b9150600090505b94509492505050565b80471015613362576040517f08c379a000000000000000000000000000000000000000000000000000000000815260206004820152601d60248201527f416464726573733a20696e73756666696369656e742062616c616e636500000060448201526064015b60405180910390fd5b60008273ffffffffffffffffffffffffffffffffffffffff168260405160006040518083038185875af1925050503d80600081146133bc576040519150601f19603f3d011682016040523d82523d6000602084013e6133c1565b606091505b5050905080610a63576040517f08c379a000000000000000000000000000000000000000000000000000000000815260206004820152603a60248201527f416464726573733a20756e61626c6520746f2073656e642076616c75652c207260448201527f6563697069656e74206d617920686176652072657665727465640000000000006064820152608401613359565b60008083601f84011261346457600080fd5b50813567ffffffffffffffff81111561347c57600080fd5b6020830191508360208260051b8501011115612ea257600080fd5b600080602083850312156134aa57600080fd5b823567ffffffffffffffff8111156134c157600080fd5b6134cd85828601613452565b90969095509350505050565b60005b838110156134f45781810151838201526020016134dc565b50506000910152565b600081518084526135158160208601602086016134d9565b601f017fffffffffffffffffffffffffffffffffffffffffffffffffffffffffffffffe0169290920160200192915050565b6020815260006129cb60208301846134fd565b73ffffffffffffffffffffffffffffffffffffffff811681146131d857600080fd5b80356135878161355a565b919050565b60006020828403121561359e57600080fd5b81356129cb8161355a565b6000602082840312156135bb57600080fd5b813567ffffffffffffffff8111156135d257600080fd5b820160e081850312156129cb57600080fd5b6020808252825182820181905260009190848201906040850190845b8181101561361c57835183529284019291840191600101613600565b50909695505050505050565b60006060828403121561363a57600080fd5b50919050565b60006020828403121561365257600080fd5b5035919050565b600061014082518452602083015160208501526040830151613687604086018267ffffffffffffffff169052565b5060608301516136a3606086018267ffffffffffffffff169052565b5060808301516136bf608086018267ffffffffffffffff169052565b5060a083015160a085015260c08301516136f160c086018273ffffffffffffffffffffffffffffffffffffffff169052565b5060e083015161371960e086018273ffffffffffffffffffffffffffffffffffffffff169052565b506101008381015115159085015261012080840151818601839052612db9838701826134fd565b6020815260006129cb6020830184613659565b6000610100828403121561363a57600080fd5b6000806040838503121561377957600080fd5b82356137848161355a565b946020939093013593505050565b6000602082840312156137a457600080fd5b813567ffffffffffffffff8111156137bb57600080fd5b8201604081850312156129cb57600080fd5b7f4e487b7100000000000000000000000000000000000000000000000000000000600052603260045260246000fd5b600082357fffffffffffffffffffffffffffffffffffffffffffffffffffffffffffffff6183360301811261383057600080fd5b9190910192915050565b7f4e487b7100000000000000000000000000000000000000000000000000000000600052604160045260246000fd5b60405160a0810167ffffffffffffffff8111828210171561388c5761388c61383a565b60405290565b60405160c0810167ffffffffffffffff8111828210171561388c5761388c61383a565b6040516080810167ffffffffffffffff8111828210171561388c5761388c61383a565b604051601f82017fffffffffffffffffffffffffffffffffffffffffffffffffffffffffffffffe016810167ffffffffffffffff8111828210171561391f5761391f61383a565b604052919050565b600067ffffffffffffffff8211156139415761394161383a565b5060051b60200190565b60006040828403121561395d57600080fd5b6040516040810181811067ffffffffffffffff821117156139805761398061383a565b604052823581526020928301359281019290925250919050565b6000606082840312156139ac57600080fd5b6040516060810181811067ffffffffffffffff821117156139cf576139cf61383a565b604052905080823560ff811681146139e657600080fd5b8082525060208301356020820152604083013560408201525092915050565b600082601f830112613a1657600080fd5b81356020613a2b613a2683613927565b6138d8565b82815260609283028501820192828201919087851115613a4a57600080fd5b8387015b85811015613a6d57613a60898261399a565b8452928401928101613a4e565b5090979650505050505050565b803567ffffffffffffffff8116811461358757600080fd5b600060a08236031215613aa457600080fd5b613aac613869565b8235815260208084013567ffffffffffffffff80821115613acc57600080fd5b9085019036601f830112613adf57600080fd5b8135613aed613a2682613927565b81815260069190911b83018401908481019036831115613b0c57600080fd5b938501935b82851015613b3557613b23368661394b565b82528582019150604085019450613b11565b80868801525050506040860135925080831115613b5157600080fd5b5050613b5f36828601613a05565b604083015250613b716060840161357c565b6060820152613b8260808401613a7a565b608082015292915050565b7f4e487b7100000000000000000000000000000000000000000000000000000000600052601160045260246000fd5b8181038181111561072a5761072a613b8d565b80151581146131d857600080fd5b600067ffffffffffffffff821115613bf757613bf761383a565b50601f017fffffffffffffffffffffffffffffffffffffffffffffffffffffffffffffffe01660200190565b600060c08284031215613c3557600080fd5b613c3d613892565b90508135613c4a8161355a565b81526020613c59838201613a7a565b818301526040830135613c6b81613bcf565b604083015260608381013590830152608083013567ffffffffffffffff811115613c9457600080fd5b8301601f81018513613ca557600080fd5b8035613cb3613a2682613bdd565b8181528684838501011115613cc757600080fd5b818484018583013760008483830101528060808601525050505060a082013560a082015292915050565b600060e08236031215613d0357600080fd5b613d0b613869565b82358152602083013567ffffffffffffffff811115613d2957600080fd5b613d3536828601613c23565b602083015250613d48366040850161399a565b604082015260a0830135613d5b8161355a565b6060820152613b8260c08401613a7a565b600082357fffffffffffffffffffffffffffffffffffffffffffffffffffffffffffffff4183360301811261383057600080fd5b600061072a3683613c23565b600082357fffffffffffffffffffffffffffffffffffffffffffffffffffffffffffffffc183360301811261383057600080fd5b60008083357fffffffffffffffffffffffffffffffffffffffffffffffffffffffffffffffe1843603018112613e1557600080fd5b83018035915067ffffffffffffffff821115613e3057600080fd5b6020019150600581901b3603821315612ea257600080fd5b6000613e56613a2684613927565b80848252602080830192508560051b850136811115613e7457600080fd5b855b81811015613eb057803567ffffffffffffffff811115613e965760008081fd5b613ea236828a01613c23565b865250938201938201613e76565b50919695505050505050565b600060408284031215613ece57600080fd5b6129cb838361394b565b60008083357fffffffffffffffffffffffffffffffffffffffffffffffffffffffffffffffe1843603018112613f0d57600080fd5b83018035915067ffffffffffffffff821115613f2857600080fd5b6020019150600681901b3603821315612ea257600080fd5b60008083357fffffffffffffffffffffffffffffffffffffffffffffffffffffffffffffffe1843603018112613f7557600080fd5b83018035915067ffffffffffffffff821115613f9057600080fd5b6020019150606081023603821315612ea257600080fd5b600060608284031215613fb957600080fd5b6129cb838361399a565b600060208284031215613fd557600080fd5b6129cb82613a7a565b600181811c90821680613ff257607f821691505b60208210810361363a577f4e487b7100000000000000000000000000000000000000000000000000000000600052602260045260246000fd5b6000610100828403121561403e57600080fd5b614046613869565b82358152614057846020850161394b565b6020820152614069846060850161399a565b604082015260c083013561407c8161355a565b606082015261408d60e08401613a7a565b60808201529392505050565b60007fffffffffffffffffffffffffffffffffffffffffffffffffffffffffffffffff82036140ca576140ca613b8d565b5060010190565b600060208083850312156140e457600080fd5b825167ffffffffffffffff808211156140fc57600080fd5b908401906080828703121561411057600080fd5b6141186138b5565b82518152838301516141298161355a565b81850152604083015161413b81613bcf565b604082015260608301518281111561415257600080fd5b80840193505086601f84011261416757600080fd5b82519150614177613a2683613bdd565b828152878584860101111561418b57600080fd5b61419a838683018787016134d9565b60608201529695505050505050565b601f821115610a6357600081815260208120601f850160051c810160208610156141d05750805b601f850160051c820191505b818110156141ef578281556001016141dc565b505050505050565b815167ffffffffffffffff8111156142115761421161383a565b6142258161421f8454613fde565b846141a9565b602080601f83116001811461427857600084156142425750858301515b7fffffffffffffffffffffffffffffffffffffffffffffffffffffffffffffffff600386901b1c1916600185901b1785556141ef565b6000858152602081207fffffffffffffffffffffffffffffffffffffffffffffffffffffffffffffffe08616915b828110156142c5578886015182559484019460019091019084016142a6565b508582101561430157878501517fffffffffffffffffffffffffffffffffffffffffffffffffffffffffffffffff600388901b60f8161c191681555b5050505050600190811b01905550565b7f4e487b7100000000000000000000000000000000000000000000000000000000600052602160045260246000fd5b82815260406020820152600061435960408301846134fd565b949350505050565b600082516138308184602087016134d9565b60006020828403121561438557600080fd5b5051919050565b60006020828403121561439e57600080fd5b81516129cb81613bcf565b6000604082016040835280855180835260608501915060608160051b8601019250602080880160005b8381101561441e577fffffffffffffffffffffffffffffffffffffffffffffffffffffffffffffffa088870301855261440c868351613659565b955093820193908201906001016143d2565b50508584038187015286518085528782019482019350915060005b8281101561445557845184529381019392810192600101614439565b5091979650505050505050565b89815260007fffffffffffffffffffffffffffffffffffffffff000000000000000000000000808b60601b166020840152808a60601b166034840152507fffffffffffffffff000000000000000000000000000000000000000000000000808960c01b166048840152808860c01b1660508401525085151560f81b605883015284605983015283516144fb8160798501602088016134d9565b80830190507fffffffff000000000000000000000000000000000000000000000000000000008460e01b166079820152607d81019150509a995050505050505050505056fea164736f6c6343000813000a",
    "linkReferences": {}
  },
  "methodIdentifiers": {
    "attest((bytes32,(address,uint64,bool,bytes32,bytes,uint256)))": "f17325e7",
    "attestByDelegation((bytes32,(address,uint64,bool,bytes32,bytes,uint256),(uint8,bytes32,bytes32),address,uint64))": "3c042715",
    "getAttestTypeHash()": "12b11a17",
    "getAttestation(bytes32)": "a3112a64",
    "getDomainSeparator()": "ed24911d",
    "getName()": "17d7de7c",
    "getNonce(address)": "2d0335ab",
    "getRevokeOffchain(address,bytes32)": "b469318d",
    "getRevokeTypeHash()": "b83010d3",
    "getSchemaRegistry()": "f10b5cc8",
    "getTimestamp(bytes32)": "d45c4435",
    "increaseNonce(uint256)": "79f7573a",
    "isAttestationValid(bytes32)": "e30bb563",
    "multiAttest((bytes32,(address,uint64,bool,bytes32,bytes,uint256)[])[])": "44adc90e",
    "multiAttestByDelegation((bytes32,(address,uint64,bool,bytes32,bytes,uint256)[],(uint8,bytes32,bytes32)[],address,uint64)[])": "95411525",
    "multiRevoke((bytes32,(bytes32,uint256)[])[])": "4cb7e9e5",
    "multiRevokeByDelegation((bytes32,(bytes32,uint256)[],(uint8,bytes32,bytes32)[],address,uint64)[])": "0eabf660",
    "multiRevokeOffchain(bytes32[])": "13893f61",
    "multiTimestamp(bytes32[])": "e71ff365",
    "revoke((bytes32,(bytes32,uint256)))": "46926267",
    "revokeByDelegation((bytes32,(bytes32,uint256),(uint8,bytes32,bytes32),address,uint64))": "a6d4dbc7",
    "revokeOffchain(bytes32)": "cf190f34",
    "timestamp(bytes32)": "4d003070",
    "version()": "54fd4d50"
  },
  "storageLayout": {
    "storage": [
      {
        "astId": 30904,
        "contract": "src/EAS/EAS.sol:EAS",
        "label": "_nonces",
        "offset": 0,
        "slot": "0",
        "type": "t_mapping(t_address,t_uint256)"
      },
      {
        "astId": 30910,
        "contract": "src/EAS/EAS.sol:EAS",
        "label": "__gap",
        "offset": 0,
        "slot": "1",
        "type": "t_array(t_uint256)49_storage"
      },
      {
        "astId": 28541,
        "contract": "src/EAS/EAS.sol:EAS",
        "label": "_db",
        "offset": 0,
        "slot": "50",
        "type": "t_mapping(t_bytes32,t_struct(Attestation)28316_storage)"
      },
      {
        "astId": 28545,
        "contract": "src/EAS/EAS.sol:EAS",
        "label": "_timestamps",
        "offset": 0,
        "slot": "51",
        "type": "t_mapping(t_bytes32,t_uint64)"
      },
      {
        "astId": 28551,
        "contract": "src/EAS/EAS.sol:EAS",
        "label": "_revocationsOffchain",
        "offset": 0,
        "slot": "52",
        "type": "t_mapping(t_address,t_mapping(t_bytes32,t_uint64))"
      },
      {
        "astId": 28557,
        "contract": "src/EAS/EAS.sol:EAS",
        "label": "__gap",
        "offset": 0,
        "slot": "53",
        "type": "t_array(t_uint256)47_storage"
      }
    ],
    "types": {
      "t_address": {
        "encoding": "inplace",
        "label": "address",
        "numberOfBytes": "20"
      },
      "t_array(t_uint256)47_storage": {
        "encoding": "inplace",
        "label": "uint256[47]",
        "numberOfBytes": "1504",
        "base": "t_uint256"
      },
      "t_array(t_uint256)49_storage": {
        "encoding": "inplace",
        "label": "uint256[49]",
        "numberOfBytes": "1568",
        "base": "t_uint256"
      },
      "t_bool": {
        "encoding": "inplace",
        "label": "bool",
        "numberOfBytes": "1"
      },
      "t_bytes32": {
        "encoding": "inplace",
        "label": "bytes32",
        "numberOfBytes": "32"
      },
      "t_bytes_storage": {
        "encoding": "bytes",
        "label": "bytes",
        "numberOfBytes": "32"
      },
      "t_mapping(t_address,t_mapping(t_bytes32,t_uint64))": {
        "encoding": "mapping",
        "key": "t_address",
        "label": "mapping(address => mapping(bytes32 => uint64))",
        "numberOfBytes": "32",
        "value": "t_mapping(t_bytes32,t_uint64)"
      },
      "t_mapping(t_address,t_uint256)": {
        "encoding": "mapping",
        "key": "t_address",
        "label": "mapping(address => uint256)",
        "numberOfBytes": "32",
        "value": "t_uint256"
      },
      "t_mapping(t_bytes32,t_struct(Attestation)28316_storage)": {
        "encoding": "mapping",
        "key": "t_bytes32",
        "label": "mapping(bytes32 => struct Attestation)",
        "numberOfBytes": "32",
        "value": "t_struct(Attestation)28316_storage"
      },
      "t_mapping(t_bytes32,t_uint64)": {
        "encoding": "mapping",
        "key": "t_bytes32",
        "label": "mapping(bytes32 => uint64)",
        "numberOfBytes": "32",
        "value": "t_uint64"
      },
      "t_struct(Attestation)28316_storage": {
        "encoding": "inplace",
        "label": "struct Attestation",
        "numberOfBytes": "224",
        "members": [
          {
            "astId": 28297,
            "contract": "src/EAS/EAS.sol:EAS",
            "label": "uid",
            "offset": 0,
            "slot": "0",
            "type": "t_bytes32"
          },
          {
            "astId": 28299,
            "contract": "src/EAS/EAS.sol:EAS",
            "label": "schema",
            "offset": 0,
            "slot": "1",
            "type": "t_bytes32"
          },
          {
            "astId": 28301,
            "contract": "src/EAS/EAS.sol:EAS",
            "label": "time",
            "offset": 0,
            "slot": "2",
            "type": "t_uint64"
          },
          {
            "astId": 28303,
            "contract": "src/EAS/EAS.sol:EAS",
            "label": "expirationTime",
            "offset": 8,
            "slot": "2",
            "type": "t_uint64"
          },
          {
            "astId": 28305,
            "contract": "src/EAS/EAS.sol:EAS",
            "label": "revocationTime",
            "offset": 16,
            "slot": "2",
            "type": "t_uint64"
          },
          {
            "astId": 28307,
            "contract": "src/EAS/EAS.sol:EAS",
            "label": "refUID",
            "offset": 0,
            "slot": "3",
            "type": "t_bytes32"
          },
          {
            "astId": 28309,
            "contract": "src/EAS/EAS.sol:EAS",
            "label": "recipient",
            "offset": 0,
            "slot": "4",
            "type": "t_address"
          },
          {
            "astId": 28311,
            "contract": "src/EAS/EAS.sol:EAS",
            "label": "attester",
            "offset": 0,
            "slot": "5",
            "type": "t_address"
          },
          {
            "astId": 28313,
            "contract": "src/EAS/EAS.sol:EAS",
            "label": "revocable",
            "offset": 20,
            "slot": "5",
            "type": "t_bool"
          },
          {
            "astId": 28315,
            "contract": "src/EAS/EAS.sol:EAS",
            "label": "data",
            "offset": 0,
            "slot": "6",
            "type": "t_bytes_storage"
          }
        ]
      },
      "t_uint256": {
        "encoding": "inplace",
        "label": "uint256",
        "numberOfBytes": "32"
      },
      "t_uint64": {
        "encoding": "inplace",
        "label": "uint64",
        "numberOfBytes": "8"
      }
    }
  },
  "userdoc": {
    "version": 1,
    "kind": "user",
    "methods": {
      "attest((bytes32,(address,uint64,bool,bytes32,bytes,uint256)))": {
        "notice": "Attests to a specific schema.      Example:      attest({         schema: \"0facc36681cbe2456019c1b0d1e7bedd6d1d40f6f324bf3dd3a4cef2999200a0\",         data: {             recipient: \"0xdEADBeAFdeAdbEafdeadbeafDeAdbEAFdeadbeaf\",             expirationTime: 0,             revocable: true,             refUID: \"0x0000000000000000000000000000000000000000000000000000000000000000\",             data: \"0xF00D\",             value: 0         }      })"
      },
      "attestByDelegation((bytes32,(address,uint64,bool,bytes32,bytes,uint256),(uint8,bytes32,bytes32),address,uint64))": {
        "notice": "Attests to a specific schema via the provided EIP712 signature.         Example:         attestByDelegation({             schema: '0x8e72f5bc0a8d4be6aa98360baa889040c50a0e51f32dbf0baa5199bd93472ebc',             data: {                 recipient: '0xf39Fd6e51aad88F6F4ce6aB8827279cffFb92266',                 expirationTime: 1673891048,                 revocable: true,                 refUID: '0x0000000000000000000000000000000000000000000000000000000000000000',                 data: '0x1234',                 value: 0             },             signature: {                 v: 28,                 r: '0x148c...b25b',                 s: '0x5a72...be22'             },             attester: '0xc5E8740aD971409492b1A63Db8d83025e0Fc427e',             deadline: 1673891048         })"
      },
      "getAttestTypeHash()": {
        "notice": "Returns the EIP712 type hash for the attest function."
      },
      "getAttestation(bytes32)": {
        "notice": "Returns an existing attestation by UID."
      },
      "getDomainSeparator()": {
        "notice": "Returns the domain separator used in the encoding of the signatures for attest, and revoke."
      },
      "getName()": {
        "notice": "Returns the EIP712 name."
      },
      "getNonce(address)": {
        "notice": "Returns the current nonce per-account."
      },
      "getRevokeOffchain(address,bytes32)": {
        "notice": "Returns the timestamp that the specified data was timestamped with."
      },
      "getRevokeTypeHash()": {
        "notice": "Returns the EIP712 type hash for the revoke function."
      },
      "getSchemaRegistry()": {
        "notice": "Returns the address of the global schema registry."
      },
      "getTimestamp(bytes32)": {
        "notice": "Returns the timestamp that the specified data was timestamped with."
      },
      "increaseNonce(uint256)": {
        "notice": "Provides users an option to invalidate nonces by increasing their nonces to (higher) new values."
      },
      "isAttestationValid(bytes32)": {
        "notice": "Checks whether an attestation exists."
      },
      "multiAttest((bytes32,(address,uint64,bool,bytes32,bytes,uint256)[])[])": {
        "notice": "Attests to multiple schemas.         Example:         multiAttest([{             schema: '0x33e9094830a5cba5554d1954310e4fbed2ef5f859ec1404619adea4207f391fd',             data: [{                 recipient: '0xdEADBeAFdeAdbEafdeadbeafDeAdbEAFdeadbeaf',                 expirationTime: 1673891048,                 revocable: true,                 refUID: '0x0000000000000000000000000000000000000000000000000000000000000000',                 data: '0x1234',                 value: 1000             },             {                 recipient: '0xf39Fd6e51aad88F6F4ce6aB8827279cffFb92266',                 expirationTime: 0,                 revocable: false,                 refUID: '0x480df4a039efc31b11bfdf491b383ca138b6bde160988222a2a3509c02cee174',                 data: '0x00',                 value: 0             }],         },         {             schema: '0x5ac273ce41e3c8bfa383efe7c03e54c5f0bff29c9f11ef6ffa930fc84ca32425',             data: [{                 recipient: '0xdEADBeAFdeAdbEafdeadbeafDeAdbEAFdeadbeaf',                 expirationTime: 0,                 revocable: true,                 refUID: '0x75bf2ed8dca25a8190c50c52db136664de25b2449535839008ccfdab469b214f',                 data: '0x12345678',                 value: 0             },         }])"
      },
      "multiAttestByDelegation((bytes32,(address,uint64,bool,bytes32,bytes,uint256)[],(uint8,bytes32,bytes32)[],address,uint64)[])": {
        "notice": "Attests to multiple schemas using via provided EIP712 signatures.         Example:         multiAttestByDelegation([{             schema: '0x8e72f5bc0a8d4be6aa98360baa889040c50a0e51f32dbf0baa5199bd93472ebc',             data: [{                 recipient: '0xf39Fd6e51aad88F6F4ce6aB8827279cffFb92266',                 expirationTime: 1673891048,                 revocable: true,                 refUID: '0x0000000000000000000000000000000000000000000000000000000000000000',                 data: '0x1234',                 value: 0             },             {                 recipient: '0xdEADBeAFdeAdbEafdeadbeafDeAdbEAFdeadbeaf',                 expirationTime: 0,                 revocable: false,                 refUID: '0x0000000000000000000000000000000000000000000000000000000000000000',                 data: '0x00',                 value: 0             }],             signatures: [{                 v: 28,                 r: '0x148c...b25b',                 s: '0x5a72...be22'             },             {                 v: 28,                 r: '0x487s...67bb',                 s: '0x12ad...2366'             }],             attester: '0x1D86495b2A7B524D747d2839b3C645Bed32e8CF4',             deadline: 1673891048         }])"
      },
      "multiRevoke((bytes32,(bytes32,uint256)[])[])": {
        "notice": "Revokes existing attestations to multiple schemas.         Example:         multiRevoke([{             schema: '0x8e72f5bc0a8d4be6aa98360baa889040c50a0e51f32dbf0baa5199bd93472ebc',             data: [{                 uid: '0x211296a1ca0d7f9f2cfebf0daaa575bea9b20e968d81aef4e743d699c6ac4b25',                 value: 1000             },             {                 uid: '0xe160ac1bd3606a287b4d53d5d1d6da5895f65b4b4bab6d93aaf5046e48167ade',                 value: 0             }],         },         {             schema: '0x5ac273ce41e3c8bfa383efe7c03e54c5f0bff29c9f11ef6ffa930fc84ca32425',             data: [{                 uid: '0x053d42abce1fd7c8fcddfae21845ad34dae287b2c326220b03ba241bc5a8f019',                 value: 0             },         }])"
      },
      "multiRevokeByDelegation((bytes32,(bytes32,uint256)[],(uint8,bytes32,bytes32)[],address,uint64)[])": {
        "notice": "Revokes existing attestations to multiple schemas via provided EIP712 signatures.         Example:         multiRevokeByDelegation([{             schema: '0x8e72f5bc0a8d4be6aa98360baa889040c50a0e51f32dbf0baa5199bd93472ebc',             data: [{                 uid: '0x211296a1ca0d7f9f2cfebf0daaa575bea9b20e968d81aef4e743d699c6ac4b25',                 value: 1000             },             {                 uid: '0xe160ac1bd3606a287b4d53d5d1d6da5895f65b4b4bab6d93aaf5046e48167ade',                 value: 0             }],             signatures: [{                 v: 28,                 r: '0x148c...b25b',                 s: '0x5a72...be22'             },             {                 v: 28,                 r: '0x487s...67bb',                 s: '0x12ad...2366'             }],             revoker: '0x244934dd3e31bE2c81f84ECf0b3E6329F5381992',             deadline: 1673891048         }])"
      },
      "multiRevokeOffchain(bytes32[])": {
        "notice": "Revokes the specified multiple bytes32 data."
      },
      "multiTimestamp(bytes32[])": {
        "notice": "Timestamps the specified multiple bytes32 data."
      },
      "revoke((bytes32,(bytes32,uint256)))": {
        "notice": "Revokes an existing attestation to a specific schema.         Example:         revoke({             schema: '0x8e72f5bc0a8d4be6aa98360baa889040c50a0e51f32dbf0baa5199bd93472ebc',             data: {                 uid: '0x101032e487642ee04ee17049f99a70590c735b8614079fc9275f9dd57c00966d',                 value: 0             }         })"
      },
      "revokeByDelegation((bytes32,(bytes32,uint256),(uint8,bytes32,bytes32),address,uint64))": {
        "notice": "Revokes an existing attestation to a specific schema via the provided EIP712 signature.         Example:         revokeByDelegation({             schema: '0x8e72f5bc0a8d4be6aa98360baa889040c50a0e51f32dbf0baa5199bd93472ebc',             data: {                 uid: '0xcbbc12102578c642a0f7b34fe7111e41afa25683b6cd7b5a14caf90fa14d24ba',                 value: 0             },             signature: {                 v: 27,                 r: '0xb593...7142',                 s: '0x0f5b...2cce'             },             revoker: '0x244934dd3e31bE2c81f84ECf0b3E6329F5381992',             deadline: 1673891048         })"
      },
      "revokeOffchain(bytes32)": {
        "notice": "Revokes the specified bytes32 data."
      },
      "timestamp(bytes32)": {
        "notice": "Timestamps the specified bytes32 data."
      },
      "version()": {
        "notice": "Semantic version."
      }
    },
    "notice": "The Ethereum Attestation Service protocol."
  },
  "devdoc": {
    "version": 1,
    "kind": "dev",
    "methods": {
      "attest((bytes32,(address,uint64,bool,bytes32,bytes,uint256)))": {
        "params": {
          "request": "The arguments of the attestation request."
        },
        "returns": {
          "_0": "The UID of the new attestation."
        }
      },
      "attestByDelegation((bytes32,(address,uint64,bool,bytes32,bytes,uint256),(uint8,bytes32,bytes32),address,uint64))": {
        "params": {
          "delegatedRequest": "The arguments of the delegated attestation request."
        },
        "returns": {
          "_0": "The UID of the new attestation."
        }
      },
      "constructor": {
        "details": "Creates a new EAS instance."
      },
      "getAttestTypeHash()": {
        "returns": {
          "_0": "The EIP712 type hash for the attest function."
        }
      },
      "getAttestation(bytes32)": {
        "params": {
          "uid": "The UID of the attestation to retrieve."
        },
        "returns": {
          "_0": "The attestation data members."
        }
      },
      "getDomainSeparator()": {
        "returns": {
          "_0": "The domain separator used in the encoding of the signatures for attest, and revoke."
        }
      },
      "getName()": {
        "returns": {
          "_0": "The EIP712 name."
        }
      },
      "getNonce(address)": {
        "params": {
          "account": "The requested account."
        },
        "returns": {
          "_0": "The current nonce."
        }
      },
      "getRevokeOffchain(address,bytes32)": {
        "params": {
          "data": "The data to query."
        },
        "returns": {
          "_0": "The timestamp the data was timestamped with."
        }
      },
      "getRevokeTypeHash()": {
        "returns": {
          "_0": "The EIP712 type hash for the revoke function."
        }
      },
      "getSchemaRegistry()": {
        "returns": {
          "_0": "The address of the global schema registry."
        }
      },
      "getTimestamp(bytes32)": {
        "params": {
          "data": "The data to query."
        },
        "returns": {
          "_0": "The timestamp the data was timestamped with."
        }
      },
      "increaseNonce(uint256)": {
        "params": {
          "newNonce": "The (higher) new value."
        }
      },
      "isAttestationValid(bytes32)": {
        "params": {
          "uid": "The UID of the attestation to retrieve."
        },
        "returns": {
          "_0": "Whether an attestation exists."
        }
      },
      "multiAttest((bytes32,(address,uint64,bool,bytes32,bytes,uint256)[])[])": {
        "params": {
          "multiRequests": "The arguments of the multi attestation requests. The requests should be grouped by distinct        schema ids to benefit from the best batching optimization."
        },
        "returns": {
          "_0": "The UIDs of the new attestations."
        }
      },
      "multiAttestByDelegation((bytes32,(address,uint64,bool,bytes32,bytes,uint256)[],(uint8,bytes32,bytes32)[],address,uint64)[])": {
        "params": {
          "multiDelegatedRequests": "The arguments of the delegated multi attestation requests. The requests should be        grouped by distinct schema ids to benefit from the best batching optimization."
        },
        "returns": {
          "_0": "The UIDs of the new attestations."
        }
      },
      "multiRevoke((bytes32,(bytes32,uint256)[])[])": {
        "params": {
          "multiRequests": "The arguments of the multi revocation requests. The requests should be grouped by distinct        schema ids to benefit from the best batching optimization."
        }
      },
      "multiRevokeByDelegation((bytes32,(bytes32,uint256)[],(uint8,bytes32,bytes32)[],address,uint64)[])": {
        "params": {
          "multiDelegatedRequests": "The arguments of the delegated multi revocation attestation requests. The requests should be        grouped by distinct schema ids to benefit from the best batching optimization."
        }
      },
      "multiRevokeOffchain(bytes32[])": {
        "params": {
          "data": "The data to timestamp."
        },
        "returns": {
          "_0": "The timestamp the data was revoked with."
        }
      },
      "multiTimestamp(bytes32[])": {
        "params": {
          "data": "The data to timestamp."
        },
        "returns": {
          "_0": "The timestamp the data was timestamped with."
        }
      },
      "revoke((bytes32,(bytes32,uint256)))": {
        "params": {
          "request": "The arguments of the revocation request."
        }
      },
      "revokeByDelegation((bytes32,(bytes32,uint256),(uint8,bytes32,bytes32),address,uint64))": {
        "params": {
          "delegatedRequest": "The arguments of the delegated revocation request."
        }
      },
      "revokeOffchain(bytes32)": {
        "params": {
          "data": "The data to timestamp."
        },
        "returns": {
          "_0": "The timestamp the data was revoked with."
        }
      },
      "timestamp(bytes32)": {
        "params": {
          "data": "The data to timestamp."
        },
        "returns": {
          "_0": "The timestamp the data was timestamped with."
        }
      }
    },
    "events": {
      "Attested(address,address,bytes32,bytes32)": {
        "details": "Emitted when an attestation has been made.",
        "params": {
          "attester": "The attesting account.",
          "recipient": "The recipient of the attestation.",
          "schemaUID": "The UID of the schema.",
          "uid": "The UID the revoked attestation."
        }
      },
      "NonceIncreased(uint256,uint256)": {
        "details": "Emitted when users invalidate nonces by increasing their nonces to (higher) new values.",
        "params": {
          "newNonce": "The new value.",
          "oldNonce": "The previous nonce."
        }
      },
      "Revoked(address,address,bytes32,bytes32)": {
        "details": "Emitted when an attestation has been revoked.",
        "params": {
          "attester": "The attesting account.",
          "recipient": "The recipient of the attestation.",
          "schemaUID": "The UID of the schema.",
          "uid": "The UID the revoked attestation."
        }
      },
      "RevokedOffchain(address,bytes32,uint64)": {
        "details": "Emitted when a data has been revoked.",
        "params": {
          "data": "The data.",
          "revoker": "The address of the revoker.",
          "timestamp": "The timestamp."
        }
      },
      "Timestamped(bytes32,uint64)": {
        "details": "Emitted when a data has been timestamped.",
        "params": {
          "data": "The data.",
          "timestamp": "The timestamp."
        }
      }
    },
    "title": "EAS"
  },
  "id": 24
}