{
  "abi": [
    {
      "inputs": [
        {
          "internalType": "contract Safe",
          "name": "_safe",
          "type": "address"
        },
        {
          "internalType": "contract LivenessGuard",
          "name": "_livenessGuard",
          "type": "address"
        },
        {
          "internalType": "uint256",
          "name": "_livenessInterval",
          "type": "uint256"
        },
        {
          "internalType": "uint256",
          "name": "_minOwners",
          "type": "uint256"
        },
        {
          "internalType": "address",
          "name": "_fallbackOwner",
          "type": "address"
        }
      ],
      "stateMutability": "nonpayable",
      "type": "constructor"
    },
    {
      "inputs": [
        {
          "internalType": "address",
          "name": "_owner",
          "type": "address"
        }
      ],
      "name": "canRemove",
      "outputs": [
        {
          "internalType": "bool",
          "name": "canRemove_",
          "type": "bool"
        }
      ],
      "stateMutability": "view",
      "type": "function"
    },
    {
      "inputs": [],
      "name": "fallbackOwner",
      "outputs": [
        {
          "internalType": "address",
          "name": "fallbackOwner_",
          "type": "address"
        }
      ],
      "stateMutability": "view",
      "type": "function"
    },
    {
      "inputs": [
        {
          "internalType": "uint256",
          "name": "_numOwners",
          "type": "uint256"
        }
      ],
      "name": "get75PercentThreshold",
      "outputs": [
        {
          "internalType": "uint256",
          "name": "threshold_",
          "type": "uint256"
        }
      ],
      "stateMutability": "pure",
      "type": "function"
    },
    {
      "inputs": [],
      "name": "livenessGuard",
      "outputs": [
        {
          "internalType": "contract LivenessGuard",
          "name": "livenessGuard_",
          "type": "address"
        }
      ],
      "stateMutability": "view",
      "type": "function"
    },
    {
      "inputs": [],
      "name": "livenessInterval",
      "outputs": [
        {
          "internalType": "uint256",
          "name": "livenessInterval_",
          "type": "uint256"
        }
      ],
      "stateMutability": "view",
      "type": "function"
    },
    {
      "inputs": [],
      "name": "minOwners",
      "outputs": [
        {
          "internalType": "uint256",
          "name": "minOwners_",
          "type": "uint256"
        }
      ],
      "stateMutability": "view",
      "type": "function"
    },
    {
      "inputs": [
        {
          "internalType": "address[]",
          "name": "_previousOwners",
          "type": "address[]"
        },
        {
          "internalType": "address[]",
          "name": "_ownersToRemove",
          "type": "address[]"
        }
      ],
      "name": "removeOwners",
      "outputs": [],
      "stateMutability": "nonpayable",
      "type": "function"
    },
    {
      "inputs": [],
      "name": "safe",
      "outputs": [
        {
          "internalType": "contract Safe",
          "name": "safe_",
          "type": "address"
        }
      ],
      "stateMutability": "view",
      "type": "function"
    },
    {
      "inputs": [],
      "name": "version",
      "outputs": [
        {
          "internalType": "string",
          "name": "",
          "type": "string"
        }
      ],
      "stateMutability": "view",
      "type": "function"
    }
  ],
  "bytecode": {
    "object": "0x6101206040523480156200001257600080fd5b5060405162001c1238038062001c128339810160408190526200003591620002af565b6001600160a01b03808616608081905285821660a05260c08590529082166101005260e08390526040805163a0e67e2b60e01b815290516000929163a0e67e2b91600480830192869291908290030181865afa1580156200009a573d6000803e3d6000fd5b505050506040513d6000823e601f3d908101601f19168201604052620000c491908101906200032e565b9050805183111562000145576040805162461bcd60e51b81526020600482015260248101919091527f4c6976656e6573734d6f64756c653a206d696e4f776e657273206d757374206260448201527f65206c657373207468616e20746865206e756d626572206f66206f776e65727360648201526084015b60405180910390fd5b8051620001529062000254565b866001600160a01b031663e75235b86040518163ffffffff1660e01b8152600401602060405180830381865afa15801562000191573d6000803e3d6000fd5b505050506040513d601f19601f82011682018060405250810190620001b7919062000400565b1015620002485760405162461bcd60e51b815260206004820152605260248201527f4c6976656e6573734d6f64756c653a2053616665206d7573742068617665206160448201527f207468726573686f6c64206f66206174206c6561737420373525206f6620746860648201527165206e756d626572206f66206f776e65727360701b608482015260a4016200013c565b50505050505062000490565b600060646200026583604b62000430565b6200027290606362000452565b6200027e91906200046d565b92915050565b6001600160a01b03811681146200029a57600080fd5b50565b8051620002aa8162000284565b919050565b600080600080600060a08688031215620002c857600080fd5b8551620002d58162000284565b6020870151909550620002e88162000284565b80945050604086015192506060860151915060808601516200030a8162000284565b809150509295509295909350565b634e487b7160e01b600052604160045260246000fd5b600060208083850312156200034257600080fd5b82516001600160401b03808211156200035a57600080fd5b818501915085601f8301126200036f57600080fd5b81518181111562000384576200038462000318565b8060051b604051601f19603f83011681018181108582111715620003ac57620003ac62000318565b604052918252848201925083810185019188831115620003cb57600080fd5b938501935b82851015620003f457620003e4856200029d565b84529385019392850192620003d0565b98975050505050505050565b6000602082840312156200041357600080fd5b5051919050565b634e487b7160e01b600052601160045260246000fd5b60008160001904831182151516156200044d576200044d6200041a565b500290565b600082198211156200046857620004686200041a565b500190565b6000826200048b57634e487b7160e01b600052601260045260246000fd5b500490565b60805160a05160c05160e051610100516116dd62000535600039600081816101950152818161080a0152610eea015260008181610126015281816105ac015261090401526000818160f601526103b90152600081816101bb015281816103db0152610c4301526000818160aa01528181610272015281816104ec0152818161074b015281816109dc01528181610b7d01528181610db60152610f1201526116dd6000f3fe608060405234801561001057600080fd5b50600436106100a35760003560e01c8063602b263b11610076578063d45996f11161005b578063d45996f1146101df578063f6ac15c414610202578063ffa6c7a21461021757600080fd5b8063602b263b14610193578063be81c694146101b957600080fd5b8063186f0354146100a857806338af7c5c146100f45780634b810d3e1461012457806354fd4d501461014a575b600080fd5b7f00000000000000000000000000000000000000000000000000000000000000005b60405173ffffffffffffffffffffffffffffffffffffffff90911681526020015b60405180910390f35b7f00000000000000000000000000000000000000000000000000000000000000005b6040519081526020016100eb565b7f0000000000000000000000000000000000000000000000000000000000000000610116565b6101866040518060400160405280600581526020017f312e302e3000000000000000000000000000000000000000000000000000000081525081565b6040516100eb919061113d565b7f00000000000000000000000000000000000000000000000000000000000000006100ca565b7f00000000000000000000000000000000000000000000000000000000000000006100ca565b6101f26101ed36600461117c565b61022a565b60405190151581526020016100eb565b6102156102103660046112af565b610457565b005b610116610225366004611313565b6106ef565b6040517f2f54bf6e00000000000000000000000000000000000000000000000000000000815273ffffffffffffffffffffffffffffffffffffffff82811660048301526000917f000000000000000000000000000000000000000000000000000000000000000090911690632f54bf6e90602401602060405180830381865afa1580156102bb573d6000803e3d6000fd5b505050506040513d601f19601f820116820180604052508101906102df919061132c565b61037257604080517f08c379a00000000000000000000000000000000000000000000000000000000081526020600482015260248101919091527f4c6976656e6573734d6f64756c653a20746865206f776e657220746f2072656d60448201527f6f7665206d75737420626520616e206f776e6572206f6620746865205361666560648201526084015b60405180910390fd5b6040517fe458779b00000000000000000000000000000000000000000000000000000000815273ffffffffffffffffffffffffffffffffffffffff838116600483015242917f0000000000000000000000000000000000000000000000000000000000000000917f0000000000000000000000000000000000000000000000000000000000000000169063e458779b90602401602060405180830381865afa158015610422573d6000803e3d6000fd5b505050506040513d601f19601f82011682018060405250810190610446919061134e565b6104509190611396565b1092915050565b80518251146104e8576040517f08c379a000000000000000000000000000000000000000000000000000000000815260206004820152602e60248201527f4c6976656e6573734d6f64756c653a20617272617973206d757374206265207460448201527f68652073616d65206c656e6774680000000000000000000000000000000000006064820152608401610369565b60007f000000000000000000000000000000000000000000000000000000000000000073ffffffffffffffffffffffffffffffffffffffff1663a0e67e2b6040518163ffffffff1660e01b8152600401600060405180830381865afa158015610555573d6000803e3d6000fd5b505050506040513d6000823e601f3d9081017fffffffffffffffffffffffffffffffffffffffffffffffffffffffffffffffe016820160405261059b91908101906113ae565b51905060005b83518110156106e1577f0000000000000000000000000000000000000000000000000000000000000000821061067f576105f38382815181106105e6576105e6611448565b602002602001015161022a565b61067f576040517f08c379a000000000000000000000000000000000000000000000000000000000815260206004820152603760248201527f4c6976656e6573734d6f64756c653a20746865206f776e657220746f2072656d60448201527f6f766520686173207369676e656420726563656e746c790000000000000000006064820152608401610369565b8161068981611477565b9250506106c98482815181106106a1576106a1611448565b60200260200101518483815181106106bb576106bb611448565b602002602001015184610719565b81156106e157806106d9816114ac565b9150506105a1565b506106ea610747565b505050565b600060646106fe83604b6114e4565b610709906063611396565b6107139190611521565b92915050565b801561073d57600061072a826106ef565b9050610737848483610d05565b50505050565b6106ea8383610ec0565b60007f000000000000000000000000000000000000000000000000000000000000000073ffffffffffffffffffffffffffffffffffffffff1663a0e67e2b6040518163ffffffff1660e01b8152600401600060405180830381865afa1580156107b4573d6000803e3d6000fd5b505050506040513d6000823e601f3d9081017fffffffffffffffffffffffffffffffffffffffffffffffffffffffffffffffe01682016040526107fa91908101906113ae565b80519091506001819003610902577f000000000000000000000000000000000000000000000000000000000000000073ffffffffffffffffffffffffffffffffffffffff168260008151811061085257610852611448565b602002602001015173ffffffffffffffffffffffffffffffffffffffff16146108fd576040517f08c379a000000000000000000000000000000000000000000000000000000000815260206004820152603960248201527f4c6976656e6573734d6f64756c653a206d757374207472616e73666572206f7760448201527f6e65727368697020746f2066616c6c6261636b206f776e6572000000000000006064820152608401610369565b6109d8565b7f00000000000000000000000000000000000000000000000000000000000000008110156109d8576040517f08c379a000000000000000000000000000000000000000000000000000000000815260206004820152605e60248201527f4c6976656e6573734d6f64756c653a206d7573742072656d6f766520616c6c2060448201527f6f776e65727320616e64207472616e7366657220746f2066616c6c6261636b2060648201527f6f776e6572206966206e756d4f776e657273203c206d696e4f776e6572730000608482015260a401610369565b60007f000000000000000000000000000000000000000000000000000000000000000073ffffffffffffffffffffffffffffffffffffffff1663e75235b86040518163ffffffff1660e01b8152600401602060405180830381865afa158015610a45573d6000803e3d6000fd5b505050506040513d601f19601f82011682018060405250810190610a69919061134e565b9050610a74826106ef565b8114610b28576040517f08c379a000000000000000000000000000000000000000000000000000000000815260206004820152604960248201527f4c6976656e6573734d6f64756c653a2053616665206d7573742068617665206160448201527f207468726573686f6c64206f6620373525206f6620746865206e756d6265722060648201527f6f66206f776e6572730000000000000000000000000000000000000000000000608482015260a401610369565b6040517f5624b25b0000000000000000000000000000000000000000000000000000000081527f4a204f620c8c5ccdca3fd54d003badd85ba500436a431f0cbda4f558c93c34c86004820152600160248201527f000000000000000000000000000000000000000000000000000000000000000073ffffffffffffffffffffffffffffffffffffffff1690635624b25b90604401600060405180830381865afa158015610bd9573d6000803e3d6000fd5b505050506040513d6000823e601f3d9081017fffffffffffffffffffffffffffffffffffffffffffffffffffffffffffffffe0168201604052610c1f919081019061155c565b610c289061160e565b60001c73ffffffffffffffffffffffffffffffffffffffff167f000000000000000000000000000000000000000000000000000000000000000073ffffffffffffffffffffffffffffffffffffffff16146106ea576040517f08c379a000000000000000000000000000000000000000000000000000000000815260206004820152602660248201527f4c6976656e6573734d6f64756c653a20677561726420686173206265656e206360448201527f68616e67656400000000000000000000000000000000000000000000000000006064820152608401610369565b6040805173ffffffffffffffffffffffffffffffffffffffff85811660248301528481166044830152606480830185905283518084039091018152608490920183526020820180517bffffffffffffffffffffffffffffffffffffffffffffffffffffffff167ff8dc5dd90000000000000000000000000000000000000000000000000000000017905291517f468721a70000000000000000000000000000000000000000000000000000000081527f00000000000000000000000000000000000000000000000000000000000000009283169263468721a792610df192600091908290600401611653565b6020604051808303816000875af1158015610e10573d6000803e3d6000fd5b505050506040513d601f19601f82011682018060405250810190610e34919061132c565b6106ea576040517f08c379a000000000000000000000000000000000000000000000000000000000815260206004820152602660248201527f4c6976656e6573734d6f64756c653a206661696c656420746f2072656d6f766560448201527f206f776e657200000000000000000000000000000000000000000000000000006064820152608401610369565b60405173ffffffffffffffffffffffffffffffffffffffff838116602483015282811660448301527f0000000000000000000000000000000000000000000000000000000000000000811660648301527f00000000000000000000000000000000000000000000000000000000000000009081169163468721a79190600090608401604080517fffffffffffffffffffffffffffffffffffffffffffffffffffffffffffffffe08184030181529181526020820180517bffffffffffffffffffffffffffffffffffffffffffffffffffffffff167fe318b52b00000000000000000000000000000000000000000000000000000000179052517fffffffff0000000000000000000000000000000000000000000000000000000060e086901b168152610ff493929190600090600401611653565b6020604051808303816000875af1158015611013573d6000803e3d6000fd5b505050506040513d601f19601f82011682018060405250810190611037919061132c565b6110c3576040517f08c379a000000000000000000000000000000000000000000000000000000000815260206004820152603060248201527f4c6976656e6573734d6f64756c653a206661696c656420746f2073776170207460448201527f6f2066616c6c6261636b206f776e6572000000000000000000000000000000006064820152608401610369565b5050565b60005b838110156110e25781810151838201526020016110ca565b838111156107375750506000910152565b6000815180845261110b8160208601602086016110c7565b601f017fffffffffffffffffffffffffffffffffffffffffffffffffffffffffffffffe0169290920160200192915050565b60208152600061115060208301846110f3565b9392505050565b73ffffffffffffffffffffffffffffffffffffffff8116811461117957600080fd5b50565b60006020828403121561118e57600080fd5b813561115081611157565b7f4e487b7100000000000000000000000000000000000000000000000000000000600052604160045260246000fd5b604051601f82017fffffffffffffffffffffffffffffffffffffffffffffffffffffffffffffffe016810167ffffffffffffffff8111828210171561120f5761120f611199565b604052919050565b600067ffffffffffffffff82111561123157611231611199565b5060051b60200190565b600082601f83011261124c57600080fd5b8135602061126161125c83611217565b6111c8565b82815260059290921b8401810191818101908684111561128057600080fd5b8286015b848110156112a457803561129781611157565b8352918301918301611284565b509695505050505050565b600080604083850312156112c257600080fd5b823567ffffffffffffffff808211156112da57600080fd5b6112e68683870161123b565b935060208501359150808211156112fc57600080fd5b506113098582860161123b565b9150509250929050565b60006020828403121561132557600080fd5b5035919050565b60006020828403121561133e57600080fd5b8151801515811461115057600080fd5b60006020828403121561136057600080fd5b5051919050565b7f4e487b7100000000000000000000000000000000000000000000000000000000600052601160045260246000fd5b600082198211156113a9576113a9611367565b500190565b600060208083850312156113c157600080fd5b825167ffffffffffffffff8111156113d857600080fd5b8301601f810185136113e957600080fd5b80516113f761125c82611217565b81815260059190911b8201830190838101908783111561141657600080fd5b928401925b8284101561143d57835161142e81611157565b8252928401929084019061141b565b979650505050505050565b7f4e487b7100000000000000000000000000000000000000000000000000000000600052603260045260246000fd5b60008161148657611486611367565b507fffffffffffffffffffffffffffffffffffffffffffffffffffffffffffffffff0190565b60007fffffffffffffffffffffffffffffffffffffffffffffffffffffffffffffffff82036114dd576114dd611367565b5060010190565b6000817fffffffffffffffffffffffffffffffffffffffffffffffffffffffffffffffff048311821515161561151c5761151c611367565b500290565b600082611557577f4e487b7100000000000000000000000000000000000000000000000000000000600052601260045260246000fd5b500490565b60006020828403121561156e57600080fd5b815167ffffffffffffffff8082111561158657600080fd5b818401915084601f83011261159a57600080fd5b8151818111156115ac576115ac611199565b6115dd60207fffffffffffffffffffffffffffffffffffffffffffffffffffffffffffffffe0601f840116016111c8565b91508082528560208285010111156115f457600080fd5b6116058160208401602086016110c7565b50949350505050565b8051602080830151919081101561164d577fffffffffffffffffffffffffffffffffffffffffffffffffffffffffffffffff8160200360031b1b821691505b50919050565b73ffffffffffffffffffffffffffffffffffffffff8516815283602082015260806040820152600061168860808301856110f3565b9050600283106116c1577f4e487b7100000000000000000000000000000000000000000000000000000000600052602160045260246000fd5b8260608301529594505050505056fea164736f6c634300080f000a",
    "linkReferences": {}
  },
  "methodIdentifiers": {
    "canRemove(address)": "d45996f1",
    "fallbackOwner()": "602b263b",
    "get75PercentThreshold(uint256)": "ffa6c7a2",
    "livenessGuard()": "be81c694",
    "livenessInterval()": "38af7c5c",
    "minOwners()": "4b810d3e",
    "removeOwners(address[],address[])": "f6ac15c4",
    "safe()": "186f0354",
    "version()": "54fd4d50"
  },
  "storageLayout": {
    "storage": [],
    "types": {}
  },
  "userdoc": {
    "version": 1,
    "kind": "user",
    "methods": {
      "canRemove(address)": {
        "notice": "Checks if the owner can be removed"
      },
      "fallbackOwner()": {
        "notice": "Getter function for the fallback owner"
      },
      "get75PercentThreshold(uint256)": {
        "notice": "For a given number of owners, return the lowest threshold which is greater than 75.         Note: this function returns 1 for numOwners == 1."
      },
      "livenessGuard()": {
        "notice": "Getter function for the LivenessGuard contract instance"
      },
      "livenessInterval()": {
        "notice": "Getter function for the liveness interval"
      },
      "minOwners()": {
        "notice": "Getter function for the minimum number of owners"
      },
      "removeOwners(address[],address[])": {
        "notice": "This function can be called by anyone to remove a set of owners that have not signed a transaction         during the liveness interval. If the number of owners drops below the minimum, then all owners         must be removed."
      },
      "safe()": {
        "notice": "Getter function for the Safe contract instance"
      },
      "version()": {
        "notice": "Semantic version."
      }
    },
    "notice": "This module is intended to be used in conjunction with the LivenessGuard. In the event         that an owner of the safe is not recorded by the guard during the liveness interval,         the owner will be considered inactive and will be removed from the list of owners.         If the number of owners falls below the minimum number of owners, the ownership of the         safe will be transferred to the fallback owner."
  },
  "devdoc": {
    "version": 1,
    "kind": "dev",
    "methods": {
      "canRemove(address)": {
        "params": {
          "_owner": "The owner to be removed"
        },
        "returns": {
          "canRemove_": "bool indicating if the owner can be removed"
        }
      },
      "fallbackOwner()": {
        "returns": {
          "fallbackOwner_": "The fallback owner of the Safe"
        }
      },
      "livenessGuard()": {
        "returns": {
          "livenessGuard_": "The LivenessGuard contract instance"
        }
      },
      "livenessInterval()": {
        "returns": {
          "livenessInterval_": "The liveness interval, in seconds"
        }
      },
      "minOwners()": {
        "returns": {
          "minOwners_": "The minimum number of owners"
        }
      },
      "removeOwners(address[],address[])": {
        "params": {
          "_ownersToRemove": "The owners to remove",
          "_previousOwners": "The previous owners in the linked list of owners"
        }
      },
      "safe()": {
        "returns": {
          "safe_": "The Safe contract instance"
        }
      }
    },
    "title": "LivenessModule"
  },
  "id": 145
}