{
  "abi": [
    {
      "anonymous": false,
      "inputs": [
        {
          "indexed": true,
          "internalType": "bytes32",
          "name": "role",
          "type": "bytes32"
        },
        {
          "indexed": true,
          "internalType": "bytes32",
          "name": "previousAdminRole",
          "type": "bytes32"
        },
        {
          "indexed": true,
          "internalType": "bytes32",
          "name": "newAdminRole",
          "type": "bytes32"
        }
      ],
      "name": "RoleAdminChanged",
      "type": "event"
    },
    {
      "anonymous": false,
      "inputs": [
        {
          "indexed": true,
          "internalType": "bytes32",
          "name": "role",
          "type": "bytes32"
        },
        {
          "indexed": true,
          "internalType": "address",
          "name": "account",
          "type": "address"
        },
        {
          "indexed": true,
          "internalType": "address",
          "name": "sender",
          "type": "address"
        }
      ],
      "name": "RoleGranted",
      "type": "event"
    },
    {
      "anonymous": false,
      "inputs": [
        {
          "indexed": true,
          "internalType": "bytes32",
          "name": "role",
          "type": "bytes32"
        },
        {
          "indexed": true,
          "internalType": "address",
          "name": "account",
          "type": "address"
        },
        {
          "indexed": true,
          "internalType": "address",
          "name": "sender",
          "type": "address"
        }
      ],
      "name": "RoleRevoked",
      "type": "event"
    },
    {
      "anonymous": false,
      "inputs": [
        {
          "indexed": true,
          "internalType": "address",
          "name": "impl",
          "type": "address"
        },
        {
          "indexed": false,
          "internalType": "bool",
          "name": "alive",
          "type": "bool"
        }
      ],
      "name": "SetAliveImplementation",
      "type": "event"
    },
    {
      "anonymous": false,
      "inputs": [
        {
          "indexed": true,
          "internalType": "bytes4",
          "name": "selector",
          "type": "bytes4"
        },
        {
          "indexed": true,
          "internalType": "address",
          "name": "impl",
          "type": "address"
        }
      ],
      "name": "SetSelectorImplementation",
      "type": "event"
    },
    {
      "anonymous": false,
      "inputs": [
        {
          "indexed": true,
          "internalType": "address",
          "name": "implementation",
          "type": "address"
        }
      ],
      "name": "Upgraded",
      "type": "event"
    },
    {
      "stateMutability": "payable",
      "type": "fallback"
    },
    {
      "inputs": [],
      "name": "ADMIN_ROLE",
      "outputs": [
        {
          "internalType": "bytes32",
          "name": "",
          "type": "bytes32"
        }
      ],
      "stateMutability": "view",
      "type": "function"
    },
    {
      "inputs": [],
      "name": "DEFAULT_ADMIN_ROLE",
      "outputs": [
        {
          "internalType": "bytes32",
          "name": "",
          "type": "bytes32"
        }
      ],
      "stateMutability": "view",
      "type": "function"
    },
    {
      "inputs": [],
      "name": "LEGACY_ERC20_ETH",
      "outputs": [
        {
          "internalType": "address",
          "name": "",
          "type": "address"
        }
      ],
      "stateMutability": "view",
      "type": "function"
    },
    {
      "inputs": [],
      "name": "LEGACY_l1token",
      "outputs": [
        {
          "internalType": "address",
          "name": "",
          "type": "address"
        }
      ],
      "stateMutability": "view",
      "type": "function"
    },
    {
      "inputs": [],
      "name": "POLICY_ROLE",
      "outputs": [
        {
          "internalType": "bytes32",
          "name": "",
          "type": "bytes32"
        }
      ],
      "stateMutability": "view",
      "type": "function"
    },
    {
      "inputs": [
        {
          "internalType": "address",
          "name": "account",
          "type": "address"
        }
      ],
      "name": "addAdmin",
      "outputs": [],
      "stateMutability": "nonpayable",
      "type": "function"
    },
    {
      "inputs": [
        {
          "internalType": "address",
          "name": "",
          "type": "address"
        }
      ],
      "name": "aliveImplementation",
      "outputs": [
        {
          "internalType": "bool",
          "name": "",
          "type": "bool"
        }
      ],
      "stateMutability": "view",
      "type": "function"
    },
    {
      "inputs": [],
      "name": "crossDomainMessenger",
      "outputs": [
        {
          "internalType": "address",
          "name": "",
          "type": "address"
        }
      ],
      "stateMutability": "view",
      "type": "function"
    },
    {
      "inputs": [
        {
          "internalType": "uint256",
          "name": "",
          "type": "uint256"
        }
      ],
      "name": "dealData",
      "outputs": [
        {
          "internalType": "address",
          "name": "l2token",
          "type": "address"
        },
        {
          "internalType": "address",
          "name": "requester",
          "type": "address"
        },
        {
          "internalType": "address",
          "name": "provider",
          "type": "address"
        },
        {
          "internalType": "uint256",
          "name": "totalAmount",
          "type": "uint256"
        },
        {
          "internalType": "uint256",
          "name": "fwAmount",
          "type": "uint256"
        }
      ],
      "stateMutability": "view",
      "type": "function"
    },
    {
      "inputs": [
        {
          "internalType": "bytes32",
          "name": "role",
          "type": "bytes32"
        }
      ],
      "name": "getRoleAdmin",
      "outputs": [
        {
          "internalType": "bytes32",
          "name": "",
          "type": "bytes32"
        }
      ],
      "stateMutability": "view",
      "type": "function"
    },
    {
      "inputs": [
        {
          "internalType": "bytes4",
          "name": "_selector",
          "type": "bytes4"
        }
      ],
      "name": "getSelectorImplementation2",
      "outputs": [
        {
          "internalType": "address",
          "name": "impl",
          "type": "address"
        }
      ],
      "stateMutability": "view",
      "type": "function"
    },
    {
      "inputs": [
        {
          "internalType": "bytes32",
          "name": "role",
          "type": "bytes32"
        },
        {
          "internalType": "address",
          "name": "account",
          "type": "address"
        }
      ],
      "name": "grantRole",
      "outputs": [],
      "stateMutability": "nonpayable",
      "type": "function"
    },
    {
      "inputs": [
        {
          "internalType": "bytes32",
          "name": "role",
          "type": "bytes32"
        },
        {
          "internalType": "address",
          "name": "account",
          "type": "address"
        }
      ],
      "name": "hasRole",
      "outputs": [
        {
          "internalType": "bool",
          "name": "",
          "type": "bool"
        }
      ],
      "stateMutability": "view",
      "type": "function"
    },
    {
      "inputs": [],
      "name": "implementation",
      "outputs": [
        {
          "internalType": "address",
          "name": "",
          "type": "address"
        }
      ],
      "stateMutability": "view",
      "type": "function"
    },
    {
      "inputs": [
        {
          "internalType": "uint256",
          "name": "_index",
          "type": "uint256"
        }
      ],
      "name": "implementation2",
      "outputs": [
        {
          "internalType": "address",
          "name": "",
          "type": "address"
        }
      ],
      "stateMutability": "view",
      "type": "function"
    },
    {
      "inputs": [
        {
          "internalType": "address",
          "name": "_crossDomainMessenger",
          "type": "address"
        },
        {
          "internalType": "address",
          "name": "_l1fastWithdraw",
          "type": "address"
        },
        {
          "internalType": "address",
          "name": "_legacyERC20",
          "type": "address"
        },
        {
          "internalType": "address",
          "name": "_l1legacyERC20",
          "type": "address"
        }
      ],
      "name": "initialize",
      "outputs": [],
      "stateMutability": "nonpayable",
      "type": "function"
    },
    {
      "inputs": [
        {
          "internalType": "address",
          "name": "account",
          "type": "address"
        }
      ],
      "name": "isAdmin",
      "outputs": [
        {
          "internalType": "bool",
          "name": "",
          "type": "bool"
        }
      ],
      "stateMutability": "view",
      "type": "function"
    },
    {
      "inputs": [],
      "name": "l1fastWithdrawContract",
      "outputs": [
        {
          "internalType": "address",
          "name": "",
          "type": "address"
        }
      ],
      "stateMutability": "view",
      "type": "function"
    },
    {
      "inputs": [],
      "name": "pauseProxy",
      "outputs": [
        {
          "internalType": "bool",
          "name": "",
          "type": "bool"
        }
      ],
      "stateMutability": "view",
      "type": "function"
    },
    {
      "inputs": [
        {
          "internalType": "uint256",
          "name": "",
          "type": "uint256"
        }
      ],
      "name": "proxyImplementation",
      "outputs": [
        {
          "internalType": "address",
          "name": "",
          "type": "address"
        }
      ],
      "stateMutability": "view",
      "type": "function"
    },
    {
      "inputs": [
        {
          "internalType": "address",
          "name": "account",
          "type": "address"
        }
      ],
      "name": "removeAdmin",
      "outputs": [],
      "stateMutability": "nonpayable",
      "type": "function"
    },
    {
      "inputs": [
        {
          "internalType": "bytes32",
          "name": "role",
          "type": "bytes32"
        },
        {
          "internalType": "address",
          "name": "account",
          "type": "address"
        }
      ],
      "name": "renounceRole",
      "outputs": [],
      "stateMutability": "nonpayable",
      "type": "function"
    },
    {
      "inputs": [
        {
          "internalType": "bytes32",
          "name": "role",
          "type": "bytes32"
        },
        {
          "internalType": "address",
          "name": "account",
          "type": "address"
        }
      ],
      "name": "revokeRole",
      "outputs": [],
      "stateMutability": "nonpayable",
      "type": "function"
    },
    {
      "inputs": [],
      "name": "salecount",
      "outputs": [
        {
          "internalType": "uint256",
          "name": "",
          "type": "uint256"
        }
      ],
      "stateMutability": "view",
      "type": "function"
    },
    {
      "inputs": [
        {
          "internalType": "bytes4",
          "name": "",
          "type": "bytes4"
        }
      ],
      "name": "selectorImplementation",
      "outputs": [
        {
          "internalType": "address",
          "name": "",
          "type": "address"
        }
      ],
      "stateMutability": "view",
      "type": "function"
    },
    {
      "inputs": [
        {
          "internalType": "address",
          "name": "newImplementation",
          "type": "address"
        },
        {
          "internalType": "bool",
          "name": "_alive",
          "type": "bool"
        }
      ],
      "name": "setAliveImplementation2",
      "outputs": [],
      "stateMutability": "nonpayable",
      "type": "function"
    },
    {
      "inputs": [
        {
          "internalType": "address",
          "name": "newImplementation",
          "type": "address"
        },
        {
          "internalType": "uint256",
          "name": "_index",
          "type": "uint256"
        },
        {
          "internalType": "bool",
          "name": "_alive",
          "type": "bool"
        }
      ],
      "name": "setImplementation2",
      "outputs": [],
      "stateMutability": "nonpayable",
      "type": "function"
    },
    {
      "inputs": [
        {
          "internalType": "bool",
          "name": "_pause",
          "type": "bool"
        }
      ],
      "name": "setProxyPause",
      "outputs": [],
      "stateMutability": "nonpayable",
      "type": "function"
    },
    {
      "inputs": [
        {
          "internalType": "bytes4[]",
          "name": "_selectors",
          "type": "bytes4[]"
        },
        {
          "internalType": "address",
          "name": "_imp",
          "type": "address"
        }
      ],
      "name": "setSelectorImplementations2",
      "outputs": [],
      "stateMutability": "nonpayable",
      "type": "function"
    },
    {
      "inputs": [
        {
          "internalType": "bytes4",
          "name": "interfaceId",
          "type": "bytes4"
        }
      ],
      "name": "supportsInterface",
      "outputs": [
        {
          "internalType": "bool",
          "name": "",
          "type": "bool"
        }
      ],
      "stateMutability": "view",
      "type": "function"
    },
    {
      "inputs": [
        {
          "internalType": "address",
          "name": "newAdmin",
          "type": "address"
        }
      ],
      "name": "transferAdmin",
      "outputs": [],
      "stateMutability": "nonpayable",
      "type": "function"
    },
    {
      "inputs": [
        {
          "internalType": "address",
          "name": "impl",
          "type": "address"
        }
      ],
      "name": "upgradeTo",
      "outputs": [],
      "stateMutability": "nonpayable",
      "type": "function"
    },
    {
      "stateMutability": "payable",
      "type": "receive"
    }
  ],
  "bytecode": {
    "object": "0x60806040523480156200001157600080fd5b506200002d60008051602062002412833981519152806200004e565b62000048600080516020620024128339815191523362000099565b6200013e565b600082815260046020526040808220600101805490849055905190918391839186917fbd79b86ffe0ab8e8776151514217cd7cacd52c909f66475c3af44e129f0b00ff9190a4505050565b60008281526004602090815260408083206001600160a01b038516845290915290205460ff166200013a5760008281526004602090815260408083206001600160a01b03851684529091529020805460ff19166001179055620000f93390565b6001600160a01b0316816001600160a01b0316837f2f8788117e7eff1d82e926ec794901d17c78024a50270940304540a733656f0d60405160405180910390a45b5050565b6122c4806200014e6000396000f3fe6080604052600436106101e75760003560e01c806363a8fd891161010257806391d1485411610095578063e338e65511610064578063e338e655146106ca578063f43b3613146106e0578063f5869c2f1461070d578063f8c8765e146107b8576101ee565b806391d14854146105ff578063a217fddf14610652578063b911135f14610667578063d547741f146106aa576101ee565b80637cb00d25116100d15780637cb00d251461057f5780637cd5f6631461059f5780638b8f4a65146105bf5780638d4fdb40146105df576101ee565b806363a8fd89146104f1578063704802751461050b57806375829def1461052b57806375b238fc1461054b576101ee565b806342c66a881161017a578063550d01a311610149578063550d01a3146104215780635c60da1b146104515780635cc797d8146104a4578063609cd1fa146104c4576101ee565b806342c66a881461033f57806342e51d74146103915780634a5df50f146103be57806350d2a276146103de576101ee565b806324d7806c116101b657806324d7806c146102bf5780632f2ff15d146102df57806336568abe146102ff5780633659cfe61461031f576101ee565b806301ffc9a7146101f85780631785f53c1461022d578063229852461461024d578063248a9ca31461028f576101ee565b366101ee57005b6101f66107d8565b005b34801561020457600080fd5b50610218610213366004611e44565b6108c5565b60405190151581526020015b60405180910390f35b34801561023957600080fd5b506101f6610248366004611eaa565b61095e565b34801561025957600080fd5b506102817ffb5864e8ff833c3cb2d2d08505e82ff02a43554c74a35d4f5a64e8526127831181565b604051908152602001610224565b34801561029b57600080fd5b506102816102aa366004611ec5565b60009081526004602052604090206001015490565b3480156102cb57600080fd5b506102186102da366004611eaa565b610a20565b3480156102eb57600080fd5b506101f66102fa366004611ede565b610a6d565b34801561030b57600080fd5b506101f661031a366004611ede565b610a92565b34801561032b57600080fd5b506101f661033a366004611eaa565b610b45565b34801561034b57600080fd5b5060085461036c9073ffffffffffffffffffffffffffffffffffffffff1681565b60405173ffffffffffffffffffffffffffffffffffffffff9091168152602001610224565b34801561039d57600080fd5b5060065461036c9073ffffffffffffffffffffffffffffffffffffffff1681565b3480156103ca57600080fd5b506101f66103d9366004611f0a565b610d54565b3480156103ea57600080fd5b5061036c6103f9366004611e44565b60036020526000908152604090205473ffffffffffffffffffffffffffffffffffffffff1681565b34801561042d57600080fd5b5061021861043c366004611eaa565b60026020526000908152604090205460ff1681565b34801561045d57600080fd5b506000805260016020527fa6eef7e35abe7026729641147f7915573c7e97b47efa546f5f6e3230263bcb495473ffffffffffffffffffffffffffffffffffffffff1661036c565b3480156104b057600080fd5b506101f66104bf366004611f9e565b611105565b3480156104d057600080fd5b5060075461036c9073ffffffffffffffffffffffffffffffffffffffff1681565b3480156104fd57600080fd5b506000546102189060ff1681565b34801561051757600080fd5b506101f6610526366004611eaa565b6111a4565b34801561053757600080fd5b506101f6610546366004611eaa565b611263565b34801561055757600080fd5b506102817fdf8b4c520ffe197c5343c6f5aec59570151ef9a492f2c624fd45ddde6135ec4281565b34801561058b57600080fd5b506101f661059a366004611fc8565b611448565b3480156105ab57600080fd5b506101f66105ba366004611fe3565b61150e565b3480156105cb57600080fd5b5061036c6105da366004611ec5565b6115ae565b3480156105eb57600080fd5b5061036c6105fa366004611e44565b6115d8565b34801561060b57600080fd5b5061021861061a366004611ede565b600091825260046020908152604080842073ffffffffffffffffffffffffffffffffffffffff93909316845291905290205460ff1690565b34801561065e57600080fd5b50610281600081565b34801561067357600080fd5b5061036c610682366004611ec5565b60016020526000908152604090205473ffffffffffffffffffffffffffffffffffffffff1681565b3480156106b657600080fd5b506101f66106c5366004611ede565b61175d565b3480156106d657600080fd5b5061028160095481565b3480156106ec57600080fd5b5060055461036c9073ffffffffffffffffffffffffffffffffffffffff1681565b34801561071957600080fd5b50610772610728366004611ec5565b600a602052600090815260409020805460018201546002830154600384015460049094015473ffffffffffffffffffffffffffffffffffffffff9384169492841693909116919085565b6040805173ffffffffffffffffffffffffffffffffffffffff9687168152948616602086015292909416918301919091526060820152608081019190915260a001610224565b3480156107c457600080fd5b506101f66107d3366004612016565b611782565b60006108076000357fffffffff00000000000000000000000000000000000000000000000000000000166115d8565b905073ffffffffffffffffffffffffffffffffffffffff811615801590610831575060005460ff16155b61089c576040517f08c379a000000000000000000000000000000000000000000000000000000000815260206004820152601d60248201527f50726f78793a20696d706c204f522070726f78792069732066616c736500000060448201526064015b60405180910390fd5b3660008037600080366000845af43d6000803e8080156108bb573d6000f35b3d6000fd5b505050565b60007fffffffff0000000000000000000000000000000000000000000000000000000082167f7965db0b00000000000000000000000000000000000000000000000000000000148061095857507f01ffc9a7000000000000000000000000000000000000000000000000000000007fffffffff000000000000000000000000000000000000000000000000000000008316145b92915050565b61096733610a20565b6109f3576040517f08c379a000000000000000000000000000000000000000000000000000000000815260206004820152602260248201527f41636365737369626c653a2043616c6c6572206973206e6f7420616e2061646d60448201527f696e0000000000000000000000000000000000000000000000000000000000006064820152608401610893565b610a1d7fdf8b4c520ffe197c5343c6f5aec59570151ef9a492f2c624fd45ddde6135ec4282610a92565b50565b73ffffffffffffffffffffffffffffffffffffffff811660009081527f2fb794d17134dfdec181ddbac1babb5ab1eb140204ef4d982f294e7fc8b69022602052604081205460ff16610958565b600082815260046020526040902060010154610a888161188c565b6108c08383611896565b73ffffffffffffffffffffffffffffffffffffffff81163314610b37576040517f08c379a000000000000000000000000000000000000000000000000000000000815260206004820152602f60248201527f416363657373436f6e74726f6c3a2063616e206f6e6c792072656e6f756e636560448201527f20726f6c657320666f722073656c6600000000000000000000000000000000006064820152608401610893565b610b41828261198a565b5050565b610b4e33610a20565b610bda576040517f08c379a000000000000000000000000000000000000000000000000000000000815260206004820152602260248201527f41636365737369626c653a2043616c6c6572206973206e6f7420616e2061646d60448201527f696e0000000000000000000000000000000000000000000000000000000000006064820152608401610893565b73ffffffffffffffffffffffffffffffffffffffff8116610c57576040517f08c379a000000000000000000000000000000000000000000000000000000000815260206004820152600d60248201527f696e707574206973207a65726f000000000000000000000000000000000000006044820152606401610893565b6000805260016020527fa6eef7e35abe7026729641147f7915573c7e97b47efa546f5f6e3230263bcb495473ffffffffffffffffffffffffffffffffffffffff828116911603610d03576040517f08c379a000000000000000000000000000000000000000000000000000000000815260206004820152600960248201527f73616d65206164647200000000000000000000000000000000000000000000006044820152606401610893565b610d108160006001611a45565b60405173ffffffffffffffffffffffffffffffffffffffff8216907fbc7cd75a20ee27fd9adebab32041f755214dbc6bffa90cc0225b39da2e5c2d3b90600090a250565b610d5d33610a20565b610de9576040517f08c379a000000000000000000000000000000000000000000000000000000000815260206004820152602260248201527f41636365737369626c653a2043616c6c6572206973206e6f7420616e2061646d60448201527f696e0000000000000000000000000000000000000000000000000000000000006064820152608401610893565b81610e50576040517f08c379a000000000000000000000000000000000000000000000000000000000815260206004820181905260248201527f50726f78793a205f73656c6563746f727327732073697a65206973207a65726f6044820152606401610893565b73ffffffffffffffffffffffffffffffffffffffff811660009081526002602052604090205460ff16610edf576040517f08c379a000000000000000000000000000000000000000000000000000000000815260206004820152601860248201527f50726f78793a205f696d70206973206e6f7420616c69766500000000000000006044820152606401610893565b60005b828110156110ff578173ffffffffffffffffffffffffffffffffffffffff1660036000868685818110610f1757610f1761206a565b9050602002016020810190610f2c9190611e44565b7fffffffff0000000000000000000000000000000000000000000000000000000016815260208101919091526040016000205473ffffffffffffffffffffffffffffffffffffffff1603610fdc576040517f08c379a000000000000000000000000000000000000000000000000000000000815260206004820152601d60248201527f4c69717569646974795661756c7450726f78793a2073616d6520696d700000006044820152606401610893565b8160036000868685818110610ff357610ff361206a565b90506020020160208101906110089190611e44565b7fffffffff00000000000000000000000000000000000000000000000000000000168152602081019190915260400160002080547fffffffffffffffffffffffff00000000000000000000000000000000000000001673ffffffffffffffffffffffffffffffffffffffff928316179055821684848381811061108d5761108d61206a565b90506020020160208101906110a29190611e44565b7bffffffffffffffffffffffffffffffffffffffffffffffffffffffff19167f14ebc1c32aa68f4d766e89f3e546cee249f7df25183fc10ab1568d91c2ce9b7b60405160405180910390a3806110f7816120c8565b915050610ee2565b50505050565b61110e33610a20565b61119a576040517f08c379a000000000000000000000000000000000000000000000000000000000815260206004820152602260248201527f41636365737369626c653a2043616c6c6572206973206e6f7420616e2061646d60448201527f696e0000000000000000000000000000000000000000000000000000000000006064820152608401610893565b610b418282611a9e565b6111ad33610a20565b611239576040517f08c379a000000000000000000000000000000000000000000000000000000000815260206004820152602260248201527f41636365737369626c653a2043616c6c6572206973206e6f7420616e2061646d60448201527f696e0000000000000000000000000000000000000000000000000000000000006064820152608401610893565b610a1d7fdf8b4c520ffe197c5343c6f5aec59570151ef9a492f2c624fd45ddde6135ec4282610a6d565b61126c33610a20565b6112f8576040517f08c379a000000000000000000000000000000000000000000000000000000000815260206004820152602260248201527f41636365737369626c653a2043616c6c6572206973206e6f7420616e2061646d60448201527f696e0000000000000000000000000000000000000000000000000000000000006064820152608401610893565b73ffffffffffffffffffffffffffffffffffffffff8116611375576040517f08c379a000000000000000000000000000000000000000000000000000000000815260206004820152601860248201527f41636365737369626c653a207a65726f206164647265737300000000000000006044820152606401610893565b73ffffffffffffffffffffffffffffffffffffffff811633036113f4576040517f08c379a000000000000000000000000000000000000000000000000000000000815260206004820152601660248201527f41636365737369626c653a2073616d652061646d696e000000000000000000006044820152606401610893565b61141e7fdf8b4c520ffe197c5343c6f5aec59570151ef9a492f2c624fd45ddde6135ec4282610a6d565b610a1d7fdf8b4c520ffe197c5343c6f5aec59570151ef9a492f2c624fd45ddde6135ec4233610a92565b61145133610a20565b6114dd576040517f08c379a000000000000000000000000000000000000000000000000000000000815260206004820152602260248201527f41636365737369626c653a2043616c6c6572206973206e6f7420616e2061646d60448201527f696e0000000000000000000000000000000000000000000000000000000000006064820152608401610893565b600080547fffffffffffffffffffffffffffffffffffffffffffffffffffffffffffffff0016911515919091179055565b61151733610a20565b6115a3576040517f08c379a000000000000000000000000000000000000000000000000000000000815260206004820152602260248201527f41636365737369626c653a2043616c6c6572206973206e6f7420616e2061646d60448201527f696e0000000000000000000000000000000000000000000000000000000000006064820152608401610893565b6108c0838383611a45565b60008181526001602052604081205473ffffffffffffffffffffffffffffffffffffffff16610958565b7fffffffff00000000000000000000000000000000000000000000000000000000811660009081526003602052604081205473ffffffffffffffffffffffffffffffffffffffff1661166a5750506000805260016020527fa6eef7e35abe7026729641147f7915573c7e97b47efa546f5f6e3230263bcb495473ffffffffffffffffffffffffffffffffffffffff1690565b7fffffffff00000000000000000000000000000000000000000000000000000000821660009081526003602090815260408083205473ffffffffffffffffffffffffffffffffffffffff168352600290915290205460ff161561171257507fffffffff000000000000000000000000000000000000000000000000000000001660009081526003602052604090205473ffffffffffffffffffffffffffffffffffffffff1690565b50506000805260016020527fa6eef7e35abe7026729641147f7915573c7e97b47efa546f5f6e3230263bcb495473ffffffffffffffffffffffffffffffffffffffff1690565b919050565b6000828152600460205260409020600101546117788161188c565b6108c0838361198a565b61178b33610a20565b611817576040517f08c379a000000000000000000000000000000000000000000000000000000000815260206004820152602260248201527f41636365737369626c653a2043616c6c6572206973206e6f7420616e2061646d60448201527f696e0000000000000000000000000000000000000000000000000000000000006064820152608401610893565b6005805473ffffffffffffffffffffffffffffffffffffffff9586167fffffffffffffffffffffffff0000000000000000000000000000000000000000918216179091556006805494861694821694909417909355600780549285169284169290921790915560088054919093169116179055565b610a1d8133611b28565b600082815260046020908152604080832073ffffffffffffffffffffffffffffffffffffffff8516845290915290205460ff16610b4157600082815260046020908152604080832073ffffffffffffffffffffffffffffffffffffffff85168452909152902080547fffffffffffffffffffffffffffffffffffffffffffffffffffffffffffffff0016600117905561192c3390565b73ffffffffffffffffffffffffffffffffffffffff168173ffffffffffffffffffffffffffffffffffffffff16837f2f8788117e7eff1d82e926ec794901d17c78024a50270940304540a733656f0d60405160405180910390a45050565b600082815260046020908152604080832073ffffffffffffffffffffffffffffffffffffffff8516845290915290205460ff1615610b4157600082815260046020908152604080832073ffffffffffffffffffffffffffffffffffffffff8516808552925280832080547fffffffffffffffffffffffffffffffffffffffffffffffffffffffffffffff0016905551339285917ff6391f5c32d9c69d2a47ea670b442974b53935d1edc7fd64eb21e047a839171b9190a45050565b8015611a9857600082815260016020526040902080547fffffffffffffffffffffffff00000000000000000000000000000000000000001673ffffffffffffffffffffffffffffffffffffffff85161790555b6108c083825b73ffffffffffffffffffffffffffffffffffffffff821660008181526002602090815260409182902080547fffffffffffffffffffffffffffffffffffffffffffffffffffffffffffffff001685151590811790915591519182527f72558d9bfba4210f9ef095c782589484151f6d90f7a81bb3cb9b33efc695d324910160405180910390a25050565b600082815260046020908152604080832073ffffffffffffffffffffffffffffffffffffffff8516845290915290205460ff16610b4157611b808173ffffffffffffffffffffffffffffffffffffffff166014611bfa565b611b8b836020611bfa565b604051602001611b9c92919061212c565b604080517fffffffffffffffffffffffffffffffffffffffffffffffffffffffffffffffe0818403018152908290527f08c379a0000000000000000000000000000000000000000000000000000000008252610893916004016121ad565b60606000611c098360026121fe565b611c1490600261223b565b67ffffffffffffffff811115611c2c57611c2c612253565b6040519080825280601f01601f191660200182016040528015611c56576020820181803683370190505b5090507f300000000000000000000000000000000000000000000000000000000000000081600081518110611c8d57611c8d61206a565b60200101907effffffffffffffffffffffffffffffffffffffffffffffffffffffffffffff1916908160001a9053507f780000000000000000000000000000000000000000000000000000000000000081600181518110611cf057611cf061206a565b60200101907effffffffffffffffffffffffffffffffffffffffffffffffffffffffffffff1916908160001a9053506000611d2c8460026121fe565b611d3790600161223b565b90505b6001811115611dd4577f303132333435363738396162636465660000000000000000000000000000000085600f1660108110611d7857611d7861206a565b1a60f81b828281518110611d8e57611d8e61206a565b60200101907effffffffffffffffffffffffffffffffffffffffffffffffffffffffffffff1916908160001a90535060049490941c93611dcd81612282565b9050611d3a565b508315611e3d576040517f08c379a000000000000000000000000000000000000000000000000000000000815260206004820181905260248201527f537472696e67733a20686578206c656e67746820696e73756666696369656e746044820152606401610893565b9392505050565b600060208284031215611e5657600080fd5b81357fffffffff0000000000000000000000000000000000000000000000000000000081168114611e3d57600080fd5b803573ffffffffffffffffffffffffffffffffffffffff8116811461175857600080fd5b600060208284031215611ebc57600080fd5b611e3d82611e86565b600060208284031215611ed757600080fd5b5035919050565b60008060408385031215611ef157600080fd5b82359150611f0160208401611e86565b90509250929050565b600080600060408486031215611f1f57600080fd5b833567ffffffffffffffff80821115611f3757600080fd5b818601915086601f830112611f4b57600080fd5b813581811115611f5a57600080fd5b8760208260051b8501011115611f6f57600080fd5b602092830195509350611f859186019050611e86565b90509250925092565b8035801515811461175857600080fd5b60008060408385031215611fb157600080fd5b611fba83611e86565b9150611f0160208401611f8e565b600060208284031215611fda57600080fd5b611e3d82611f8e565b600080600060608486031215611ff857600080fd5b61200184611e86565b925060208401359150611f8560408501611f8e565b6000806000806080858703121561202c57600080fd5b61203585611e86565b935061204360208601611e86565b925061205160408601611e86565b915061205f60608601611e86565b905092959194509250565b7f4e487b7100000000000000000000000000000000000000000000000000000000600052603260045260246000fd5b7f4e487b7100000000000000000000000000000000000000000000000000000000600052601160045260246000fd5b60007fffffffffffffffffffffffffffffffffffffffffffffffffffffffffffffffff82036120f9576120f9612099565b5060010190565b60005b8381101561211b578181015183820152602001612103565b838111156110ff5750506000910152565b7f416363657373436f6e74726f6c3a206163636f756e7420000000000000000000815260008351612164816017850160208801612100565b7f206973206d697373696e6720726f6c652000000000000000000000000000000060179184019182015283516121a1816028840160208801612100565b01602801949350505050565b60208152600082518060208401526121cc816040850160208701612100565b601f017fffffffffffffffffffffffffffffffffffffffffffffffffffffffffffffffe0169190910160400192915050565b6000817fffffffffffffffffffffffffffffffffffffffffffffffffffffffffffffffff048311821515161561223657612236612099565b500290565b6000821982111561224e5761224e612099565b500190565b7f4e487b7100000000000000000000000000000000000000000000000000000000600052604160045260246000fd5b60008161229157612291612099565b507fffffffffffffffffffffffffffffffffffffffffffffffffffffffffffffffff019056fea164736f6c634300080f000adf8b4c520ffe197c5343c6f5aec59570151ef9a492f2c624fd45ddde6135ec42",
    "linkReferences": {}
  },
  "methodIdentifiers": {
    "ADMIN_ROLE()": "75b238fc",
    "DEFAULT_ADMIN_ROLE()": "a217fddf",
    "LEGACY_ERC20_ETH()": "609cd1fa",
    "LEGACY_l1token()": "42c66a88",
    "POLICY_ROLE()": "22985246",
    "addAdmin(address)": "70480275",
    "aliveImplementation(address)": "550d01a3",
    "crossDomainMessenger()": "f43b3613",
    "dealData(uint256)": "f5869c2f",
    "getRoleAdmin(bytes32)": "248a9ca3",
    "getSelectorImplementation2(bytes4)": "8d4fdb40",
    "grantRole(bytes32,address)": "2f2ff15d",
    "hasRole(bytes32,address)": "91d14854",
    "implementation()": "5c60da1b",
    "implementation2(uint256)": "8b8f4a65",
    "initialize(address,address,address,address)": "f8c8765e",
    "isAdmin(address)": "24d7806c",
    "l1fastWithdrawContract()": "42e51d74",
    "pauseProxy()": "63a8fd89",
    "proxyImplementation(uint256)": "b911135f",
    "removeAdmin(address)": "1785f53c",
    "renounceRole(bytes32,address)": "36568abe",
    "revokeRole(bytes32,address)": "d547741f",
    "salecount()": "e338e655",
    "selectorImplementation(bytes4)": "50d2a276",
    "setAliveImplementation2(address,bool)": "5cc797d8",
    "setImplementation2(address,uint256,bool)": "7cd5f663",
    "setProxyPause(bool)": "7cb00d25",
    "setSelectorImplementations2(bytes4[],address)": "4a5df50f",
    "supportsInterface(bytes4)": "01ffc9a7",
    "transferAdmin(address)": "75829def",
    "upgradeTo(address)": "3659cfe6"
  },
  "storageLayout": {
    "storage": [
      {
        "astId": 1348,
        "contract": "src/L2/L2FastWithdrawProxy.sol:L2FastWithdrawProxy",
        "label": "pauseProxy",
        "offset": 0,
        "slot": "0",
        "type": "t_bool"
      },
      {
        "astId": 1352,
        "contract": "src/L2/L2FastWithdrawProxy.sol:L2FastWithdrawProxy",
        "label": "proxyImplementation",
        "offset": 0,
        "slot": "1",
        "type": "t_mapping(t_uint256,t_address)"
      },
      {
        "astId": 1356,
        "contract": "src/L2/L2FastWithdrawProxy.sol:L2FastWithdrawProxy",
        "label": "aliveImplementation",
        "offset": 0,
        "slot": "2",
        "type": "t_mapping(t_address,t_bool)"
      },
      {
        "astId": 1360,
        "contract": "src/L2/L2FastWithdrawProxy.sol:L2FastWithdrawProxy",
        "label": "selectorImplementation",
        "offset": 0,
        "slot": "3",
        "type": "t_mapping(t_bytes4,t_address)"
      },
      {
        "astId": 24,
        "contract": "src/L2/L2FastWithdrawProxy.sol:L2FastWithdrawProxy",
        "label": "_roles",
        "offset": 0,
        "slot": "4",
        "type": "t_mapping(t_bytes32,t_struct(RoleData)19_storage)"
      },
      {
        "astId": 784,
        "contract": "src/L2/L2FastWithdrawProxy.sol:L2FastWithdrawProxy",
        "label": "crossDomainMessenger",
        "offset": 0,
        "slot": "5",
        "type": "t_address"
      },
      {
        "astId": 786,
        "contract": "src/L2/L2FastWithdrawProxy.sol:L2FastWithdrawProxy",
        "label": "l1fastWithdrawContract",
        "offset": 0,
        "slot": "6",
        "type": "t_address"
      },
      {
        "astId": 788,
        "contract": "src/L2/L2FastWithdrawProxy.sol:L2FastWithdrawProxy",
        "label": "LEGACY_ERC20_ETH",
        "offset": 0,
        "slot": "7",
        "type": "t_address"
      },
      {
        "astId": 790,
        "contract": "src/L2/L2FastWithdrawProxy.sol:L2FastWithdrawProxy",
        "label": "LEGACY_l1token",
        "offset": 0,
        "slot": "8",
        "type": "t_address"
      },
      {
        "astId": 792,
        "contract": "src/L2/L2FastWithdrawProxy.sol:L2FastWithdrawProxy",
        "label": "salecount",
        "offset": 0,
        "slot": "9",
        "type": "t_uint256"
      },
      {
        "astId": 797,
        "contract": "src/L2/L2FastWithdrawProxy.sol:L2FastWithdrawProxy",
        "label": "dealData",
        "offset": 0,
        "slot": "10",
        "type": "t_mapping(t_uint256,t_struct(RequestData)782_storage)"
      }
    ],
    "types": {
      "t_address": {
        "encoding": "inplace",
        "label": "address",
        "numberOfBytes": "20"
      },
      "t_bool": {
        "encoding": "inplace",
        "label": "bool",
        "numberOfBytes": "1"
      },
      "t_bytes32": {
        "encoding": "inplace",
        "label": "bytes32",
        "numberOfBytes": "32"
      },
      "t_bytes4": {
        "encoding": "inplace",
        "label": "bytes4",
        "numberOfBytes": "4"
      },
      "t_mapping(t_address,t_bool)": {
        "encoding": "mapping",
        "key": "t_address",
        "label": "mapping(address => bool)",
        "numberOfBytes": "32",
        "value": "t_bool"
      },
      "t_mapping(t_bytes32,t_struct(RoleData)19_storage)": {
        "encoding": "mapping",
        "key": "t_bytes32",
        "label": "mapping(bytes32 => struct AccessControl.RoleData)",
        "numberOfBytes": "32",
        "value": "t_struct(RoleData)19_storage"
      },
      "t_mapping(t_bytes4,t_address)": {
        "encoding": "mapping",
        "key": "t_bytes4",
        "label": "mapping(bytes4 => address)",
        "numberOfBytes": "32",
        "value": "t_address"
      },
      "t_mapping(t_uint256,t_address)": {
        "encoding": "mapping",
        "key": "t_uint256",
        "label": "mapping(uint256 => address)",
        "numberOfBytes": "32",
        "value": "t_address"
      },
      "t_mapping(t_uint256,t_struct(RequestData)782_storage)": {
        "encoding": "mapping",
        "key": "t_uint256",
        "label": "mapping(uint256 => struct L2FastWithdrawStorage.RequestData)",
        "numberOfBytes": "32",
        "value": "t_struct(RequestData)782_storage"
      },
      "t_struct(RequestData)782_storage": {
        "encoding": "inplace",
        "label": "struct L2FastWithdrawStorage.RequestData",
        "numberOfBytes": "160",
        "members": [
          {
            "astId": 773,
            "contract": "src/L2/L2FastWithdrawProxy.sol:L2FastWithdrawProxy",
            "label": "l2token",
            "offset": 0,
            "slot": "0",
            "type": "t_address"
          },
          {
            "astId": 775,
            "contract": "src/L2/L2FastWithdrawProxy.sol:L2FastWithdrawProxy",
            "label": "requester",
            "offset": 0,
            "slot": "1",
            "type": "t_address"
          },
          {
            "astId": 777,
            "contract": "src/L2/L2FastWithdrawProxy.sol:L2FastWithdrawProxy",
            "label": "provider",
            "offset": 0,
            "slot": "2",
            "type": "t_address"
          },
          {
            "astId": 779,
            "contract": "src/L2/L2FastWithdrawProxy.sol:L2FastWithdrawProxy",
            "label": "totalAmount",
            "offset": 0,
            "slot": "3",
            "type": "t_uint256"
          },
          {
            "astId": 781,
            "contract": "src/L2/L2FastWithdrawProxy.sol:L2FastWithdrawProxy",
            "label": "fwAmount",
            "offset": 0,
            "slot": "4",
            "type": "t_uint256"
          }
        ]
      },
      "t_struct(RoleData)19_storage": {
        "encoding": "inplace",
        "label": "struct AccessControl.RoleData",
        "numberOfBytes": "64",
        "members": [
          {
            "astId": 16,
            "contract": "src/L2/L2FastWithdrawProxy.sol:L2FastWithdrawProxy",
            "label": "members",
            "offset": 0,
            "slot": "0",
            "type": "t_mapping(t_address,t_bool)"
          },
          {
            "astId": 18,
            "contract": "src/L2/L2FastWithdrawProxy.sol:L2FastWithdrawProxy",
            "label": "adminRole",
            "offset": 0,
            "slot": "1",
            "type": "t_bytes32"
          }
        ]
      },
      "t_uint256": {
        "encoding": "inplace",
        "label": "uint256",
        "numberOfBytes": "32"
      }
    }
  },
  "userdoc": {
    "version": 1,
    "kind": "user",
    "methods": {
      "setProxyPause(bool)": {
        "notice": "Set pause state"
      },
      "upgradeTo(address)": {
        "notice": "Set implementation contract"
      }
    }
  },
  "devdoc": {
    "version": 1,
    "kind": "dev",
    "methods": {
      "addAdmin(address)": {
        "details": "add admin",
        "params": {
          "account": "address to add"
        }
      },
      "getRoleAdmin(bytes32)": {
        "details": "Returns the admin role that controls `role`. See {grantRole} and {revokeRole}. To change a role's admin, use {_setRoleAdmin}."
      },
      "getSelectorImplementation2(bytes4)": {
        "details": "view implementation address of selector of function",
        "params": {
          "_selector": "selector of function"
        },
        "returns": {
          "impl": "address of the implementation"
        }
      },
      "grantRole(bytes32,address)": {
        "details": "Grants `role` to `account`. If `account` had not been already granted `role`, emits a {RoleGranted} event. Requirements: - the caller must have ``role``'s admin role. May emit a {RoleGranted} event."
      },
      "hasRole(bytes32,address)": {
        "details": "Returns `true` if `account` has been granted `role`."
      },
      "implementation()": {
        "details": "returns the implementation"
      },
      "implementation2(uint256)": {
        "details": "view implementation address of the proxy[index]",
        "params": {
          "_index": "index of proxy"
        },
        "returns": {
          "_0": "address of the implementation"
        }
      },
      "isAdmin(address)": {
        "details": "whether admin",
        "params": {
          "account": "address to check"
        }
      },
      "removeAdmin(address)": {
        "details": "remove admin",
        "params": {
          "account": "address to remove"
        }
      },
      "renounceRole(bytes32,address)": {
        "details": "Revokes `role` from the calling account. Roles are often managed via {grantRole} and {revokeRole}: this function's purpose is to provide a mechanism for accounts to lose their privileges if they are compromised (such as when a trusted device is misplaced). If the calling account had been revoked `role`, emits a {RoleRevoked} event. Requirements: - the caller must be `account`. May emit a {RoleRevoked} event."
      },
      "revokeRole(bytes32,address)": {
        "details": "Revokes `role` from `account`. If `account` had been granted `role`, emits a {RoleRevoked} event. Requirements: - the caller must have ``role``'s admin role. May emit a {RoleRevoked} event."
      },
      "setAliveImplementation2(address,bool)": {
        "details": "set alive status of implementation",
        "params": {
          "_alive": "alive status",
          "newImplementation": "Address of the new implementation."
        }
      },
      "setImplementation2(address,uint256,bool)": {
        "details": "set the implementation address and status of the proxy[index]",
        "params": {
          "_alive": "_alive",
          "_index": "index",
          "newImplementation": "Address of the new implementation."
        }
      },
      "setProxyPause(bool)": {
        "params": {
          "_pause": "true:pause or false:resume"
        }
      },
      "setSelectorImplementations2(bytes4[],address)": {
        "details": "set selectors of Implementation",
        "params": {
          "_imp": "implementation address",
          "_selectors": "being added selectors"
        }
      },
      "supportsInterface(bytes4)": {
        "details": "See {IERC165-supportsInterface}."
      },
      "transferAdmin(address)": {
        "details": "transfer admin",
        "params": {
          "newAdmin": "new admin address"
        }
      },
      "upgradeTo(address)": {
        "params": {
          "impl": "New implementation contract address"
        }
      }
    }
  },
  "id": 8
}