{
  "abi": [
    {
      "inputs": [],
      "name": "LEGACY_ERC20_ETH",
      "outputs": [
        {
          "internalType": "address",
          "name": "",
          "type": "address"
        }
      ],
      "stateMutability": "view",
      "type": "function"
    },
    {
      "inputs": [],
      "name": "LEGACY_l1token",
      "outputs": [
        {
          "internalType": "address",
          "name": "",
          "type": "address"
        }
      ],
      "stateMutability": "view",
      "type": "function"
    },
    {
      "inputs": [],
      "name": "crossDomainMessenger",
      "outputs": [
        {
          "internalType": "address",
          "name": "",
          "type": "address"
        }
      ],
      "stateMutability": "view",
      "type": "function"
    },
    {
      "inputs": [],
      "name": "l2fastWithdrawContract",
      "outputs": [
        {
          "internalType": "address",
          "name": "",
          "type": "address"
        }
      ],
      "stateMutability": "view",
      "type": "function"
    }
  ],
  "bytecode": {
    "object": "0x608060405234801561001057600080fd5b5060fd8061001f6000396000f3fe6080604052348015600f57600080fd5b506004361060465760003560e01c80633fbe7fa414604b57806342c66a88146093578063609cd1fa1460b2578063f43b36131460d1575b600080fd5b600154606a9073ffffffffffffffffffffffffffffffffffffffff1681565b60405173ffffffffffffffffffffffffffffffffffffffff909116815260200160405180910390f35b600354606a9073ffffffffffffffffffffffffffffffffffffffff1681565b600254606a9073ffffffffffffffffffffffffffffffffffffffff1681565b600054606a9073ffffffffffffffffffffffffffffffffffffffff168156fea164736f6c634300080f000a",
    "linkReferences": {}
  },
  "methodIdentifiers": {
    "LEGACY_ERC20_ETH()": "609cd1fa",
    "LEGACY_l1token()": "42c66a88",
    "crossDomainMessenger()": "f43b3613",
    "l2fastWithdrawContract()": "3fbe7fa4"
  },
  "storageLayout": {
    "storage": [
      {
        "astId": 858,
        "contract": "src/L1/L1FastWithdrawStorage.sol:L1FastWithdrawStorage",
        "label": "crossDomainMessenger",
        "offset": 0,
        "slot": "0",
        "type": "t_address"
      },
      {
        "astId": 860,
        "contract": "src/L1/L1FastWithdrawStorage.sol:L1FastWithdrawStorage",
        "label": "l2fastWithdrawContract",
        "offset": 0,
        "slot": "1",
        "type": "t_address"
      },
      {
        "astId": 862,
        "contract": "src/L1/L1FastWithdrawStorage.sol:L1FastWithdrawStorage",
        "label": "LEGACY_ERC20_ETH",
        "offset": 0,
        "slot": "2",
        "type": "t_address"
      },
      {
        "astId": 864,
        "contract": "src/L1/L1FastWithdrawStorage.sol:L1FastWithdrawStorage",
        "label": "LEGACY_l1token",
        "offset": 0,
        "slot": "3",
        "type": "t_address"
      }
    ],
    "types": {
      "t_address": {
        "encoding": "inplace",
        "label": "address",
        "numberOfBytes": "20"
      }
    }
  },
  "userdoc": {
    "version": 1,
    "kind": "user"
  },
  "devdoc": {
    "version": 1,
    "kind": "dev"
  },
  "id": 7
}