{
  "abi": [
    {
      "inputs": [],
      "stateMutability": "nonpayable",
      "type": "constructor"
    },
    {
      "anonymous": false,
      "inputs": [
        {
          "indexed": true,
          "internalType": "uint256",
          "name": "version",
          "type": "uint256"
        },
        {
          "indexed": true,
          "internalType": "enum SystemConfig.UpdateType",
          "name": "updateType",
          "type": "uint8"
        },
        {
          "indexed": false,
          "internalType": "bytes",
          "name": "data",
          "type": "bytes"
        }
      ],
      "name": "ConfigUpdate",
      "type": "event"
    },
    {
      "anonymous": false,
      "inputs": [
        {
          "indexed": false,
          "internalType": "uint8",
          "name": "version",
          "type": "uint8"
        }
      ],
      "name": "Initialized",
      "type": "event"
    },
    {
      "anonymous": false,
      "inputs": [
        {
          "indexed": true,
          "internalType": "address",
          "name": "previousOwner",
          "type": "address"
        },
        {
          "indexed": true,
          "internalType": "address",
          "name": "newOwner",
          "type": "address"
        }
      ],
      "name": "OwnershipTransferred",
      "type": "event"
    },
    {
      "inputs": [],
      "name": "BATCH_INBOX_SLOT",
      "outputs": [
        {
          "internalType": "bytes32",
          "name": "",
          "type": "bytes32"
        }
      ],
      "stateMutability": "view",
      "type": "function"
    },
    {
      "inputs": [],
      "name": "L1_CROSS_DOMAIN_MESSENGER_SLOT",
      "outputs": [
        {
          "internalType": "bytes32",
          "name": "",
          "type": "bytes32"
        }
      ],
      "stateMutability": "view",
      "type": "function"
    },
    {
      "inputs": [],
      "name": "L1_ERC_721_BRIDGE_SLOT",
      "outputs": [
        {
          "internalType": "bytes32",
          "name": "",
          "type": "bytes32"
        }
      ],
      "stateMutability": "view",
      "type": "function"
    },
    {
      "inputs": [],
      "name": "L1_STANDARD_BRIDGE_SLOT",
      "outputs": [
        {
          "internalType": "bytes32",
          "name": "",
          "type": "bytes32"
        }
      ],
      "stateMutability": "view",
      "type": "function"
    },
    {
      "inputs": [],
      "name": "L2_OUTPUT_ORACLE_SLOT",
      "outputs": [
        {
          "internalType": "bytes32",
          "name": "",
          "type": "bytes32"
        }
      ],
      "stateMutability": "view",
      "type": "function"
    },
    {
      "inputs": [],
      "name": "OPTIMISM_MINTABLE_ERC20_FACTORY_SLOT",
      "outputs": [
        {
          "internalType": "bytes32",
          "name": "",
          "type": "bytes32"
        }
      ],
      "stateMutability": "view",
      "type": "function"
    },
    {
      "inputs": [],
      "name": "OPTIMISM_PORTAL_SLOT",
      "outputs": [
        {
          "internalType": "bytes32",
          "name": "",
          "type": "bytes32"
        }
      ],
      "stateMutability": "view",
      "type": "function"
    },
    {
      "inputs": [],
      "name": "UNSAFE_BLOCK_SIGNER_SLOT",
      "outputs": [
        {
          "internalType": "bytes32",
          "name": "",
          "type": "bytes32"
        }
      ],
      "stateMutability": "view",
      "type": "function"
    },
    {
      "inputs": [],
      "name": "VERSION",
      "outputs": [
        {
          "internalType": "uint256",
          "name": "",
          "type": "uint256"
        }
      ],
      "stateMutability": "view",
      "type": "function"
    },
    {
      "inputs": [],
      "name": "batchInbox",
      "outputs": [
        {
          "internalType": "address",
          "name": "addr_",
          "type": "address"
        }
      ],
      "stateMutability": "view",
      "type": "function"
    },
    {
      "inputs": [],
      "name": "batcherHash",
      "outputs": [
        {
          "internalType": "bytes32",
          "name": "",
          "type": "bytes32"
        }
      ],
      "stateMutability": "view",
      "type": "function"
    },
    {
      "inputs": [],
      "name": "gasLimit",
      "outputs": [
        {
          "internalType": "uint64",
          "name": "",
          "type": "uint64"
        }
      ],
      "stateMutability": "view",
      "type": "function"
    },
    {
      "inputs": [
        {
          "internalType": "address",
          "name": "_owner",
          "type": "address"
        },
        {
          "internalType": "uint256",
          "name": "_overhead",
          "type": "uint256"
        },
        {
          "internalType": "uint256",
          "name": "_scalar",
          "type": "uint256"
        },
        {
          "internalType": "bytes32",
          "name": "_batcherHash",
          "type": "bytes32"
        },
        {
          "internalType": "uint64",
          "name": "_gasLimit",
          "type": "uint64"
        },
        {
          "internalType": "address",
          "name": "_unsafeBlockSigner",
          "type": "address"
        },
        {
          "components": [
            {
              "internalType": "uint32",
              "name": "maxResourceLimit",
              "type": "uint32"
            },
            {
              "internalType": "uint8",
              "name": "elasticityMultiplier",
              "type": "uint8"
            },
            {
              "internalType": "uint8",
              "name": "baseFeeMaxChangeDenominator",
              "type": "uint8"
            },
            {
              "internalType": "uint32",
              "name": "minimumBaseFee",
              "type": "uint32"
            },
            {
              "internalType": "uint32",
              "name": "systemTxMaxGas",
              "type": "uint32"
            },
            {
              "internalType": "uint128",
              "name": "maximumBaseFee",
              "type": "uint128"
            }
          ],
          "internalType": "struct ResourceMetering.ResourceConfig",
          "name": "_config",
          "type": "tuple"
        },
        {
          "internalType": "uint256",
          "name": "_startBlock",
          "type": "uint256"
        },
        {
          "internalType": "address",
          "name": "_batchInbox",
          "type": "address"
        },
        {
          "components": [
            {
              "internalType": "address",
              "name": "l1CrossDomainMessenger",
              "type": "address"
            },
            {
              "internalType": "address",
              "name": "l1ERC721Bridge",
              "type": "address"
            },
            {
              "internalType": "address",
              "name": "l1StandardBridge",
              "type": "address"
            },
            {
              "internalType": "address",
              "name": "l2OutputOracle",
              "type": "address"
            },
            {
              "internalType": "address",
              "name": "optimismPortal",
              "type": "address"
            },
            {
              "internalType": "address",
              "name": "optimismMintableERC20Factory",
              "type": "address"
            }
          ],
          "internalType": "struct SystemConfig.Addresses",
          "name": "_addresses",
          "type": "tuple"
        }
      ],
      "name": "initialize",
      "outputs": [],
      "stateMutability": "nonpayable",
      "type": "function"
    },
    {
      "inputs": [],
      "name": "l1CrossDomainMessenger",
      "outputs": [
        {
          "internalType": "address",
          "name": "addr_",
          "type": "address"
        }
      ],
      "stateMutability": "view",
      "type": "function"
    },
    {
      "inputs": [],
      "name": "l1ERC721Bridge",
      "outputs": [
        {
          "internalType": "address",
          "name": "addr_",
          "type": "address"
        }
      ],
      "stateMutability": "view",
      "type": "function"
    },
    {
      "inputs": [],
      "name": "l1StandardBridge",
      "outputs": [
        {
          "internalType": "address",
          "name": "addr_",
          "type": "address"
        }
      ],
      "stateMutability": "view",
      "type": "function"
    },
    {
      "inputs": [],
      "name": "l2OutputOracle",
      "outputs": [
        {
          "internalType": "address",
          "name": "addr_",
          "type": "address"
        }
      ],
      "stateMutability": "view",
      "type": "function"
    },
    {
      "inputs": [],
      "name": "minimumGasLimit",
      "outputs": [
        {
          "internalType": "uint64",
          "name": "",
          "type": "uint64"
        }
      ],
      "stateMutability": "view",
      "type": "function"
    },
    {
      "inputs": [],
      "name": "optimismMintableERC20Factory",
      "outputs": [
        {
          "internalType": "address",
          "name": "addr_",
          "type": "address"
        }
      ],
      "stateMutability": "view",
      "type": "function"
    },
    {
      "inputs": [],
      "name": "optimismPortal",
      "outputs": [
        {
          "internalType": "address",
          "name": "addr_",
          "type": "address"
        }
      ],
      "stateMutability": "view",
      "type": "function"
    },
    {
      "inputs": [],
      "name": "overhead",
      "outputs": [
        {
          "internalType": "uint256",
          "name": "",
          "type": "uint256"
        }
      ],
      "stateMutability": "view",
      "type": "function"
    },
    {
      "inputs": [],
      "name": "owner",
      "outputs": [
        {
          "internalType": "address",
          "name": "",
          "type": "address"
        }
      ],
      "stateMutability": "view",
      "type": "function"
    },
    {
      "inputs": [],
      "name": "renounceOwnership",
      "outputs": [],
      "stateMutability": "nonpayable",
      "type": "function"
    },
    {
      "inputs": [],
      "name": "resourceConfig",
      "outputs": [
        {
          "components": [
            {
              "internalType": "uint32",
              "name": "maxResourceLimit",
              "type": "uint32"
            },
            {
              "internalType": "uint8",
              "name": "elasticityMultiplier",
              "type": "uint8"
            },
            {
              "internalType": "uint8",
              "name": "baseFeeMaxChangeDenominator",
              "type": "uint8"
            },
            {
              "internalType": "uint32",
              "name": "minimumBaseFee",
              "type": "uint32"
            },
            {
              "internalType": "uint32",
              "name": "systemTxMaxGas",
              "type": "uint32"
            },
            {
              "internalType": "uint128",
              "name": "maximumBaseFee",
              "type": "uint128"
            }
          ],
          "internalType": "struct ResourceMetering.ResourceConfig",
          "name": "",
          "type": "tuple"
        }
      ],
      "stateMutability": "view",
      "type": "function"
    },
    {
      "inputs": [],
      "name": "scalar",
      "outputs": [
        {
          "internalType": "uint256",
          "name": "",
          "type": "uint256"
        }
      ],
      "stateMutability": "view",
      "type": "function"
    },
    {
      "inputs": [
        {
          "internalType": "bytes32",
          "name": "_batcherHash",
          "type": "bytes32"
        }
      ],
      "name": "setBatcherHash",
      "outputs": [],
      "stateMutability": "nonpayable",
      "type": "function"
    },
    {
      "inputs": [
        {
          "internalType": "uint256",
          "name": "_overhead",
          "type": "uint256"
        },
        {
          "internalType": "uint256",
          "name": "_scalar",
          "type": "uint256"
        }
      ],
      "name": "setGasConfig",
      "outputs": [],
      "stateMutability": "nonpayable",
      "type": "function"
    },
    {
      "inputs": [
        {
          "internalType": "uint64",
          "name": "_gasLimit",
          "type": "uint64"
        }
      ],
      "name": "setGasLimit",
      "outputs": [],
      "stateMutability": "nonpayable",
      "type": "function"
    },
    {
      "inputs": [
        {
          "components": [
            {
              "internalType": "uint32",
              "name": "maxResourceLimit",
              "type": "uint32"
            },
            {
              "internalType": "uint8",
              "name": "elasticityMultiplier",
              "type": "uint8"
            },
            {
              "internalType": "uint8",
              "name": "baseFeeMaxChangeDenominator",
              "type": "uint8"
            },
            {
              "internalType": "uint32",
              "name": "minimumBaseFee",
              "type": "uint32"
            },
            {
              "internalType": "uint32",
              "name": "systemTxMaxGas",
              "type": "uint32"
            },
            {
              "internalType": "uint128",
              "name": "maximumBaseFee",
              "type": "uint128"
            }
          ],
          "internalType": "struct ResourceMetering.ResourceConfig",
          "name": "_config",
          "type": "tuple"
        }
      ],
      "name": "setResourceConfig",
      "outputs": [],
      "stateMutability": "nonpayable",
      "type": "function"
    },
    {
      "inputs": [
        {
          "internalType": "address",
          "name": "_unsafeBlockSigner",
          "type": "address"
        }
      ],
      "name": "setUnsafeBlockSigner",
      "outputs": [],
      "stateMutability": "nonpayable",
      "type": "function"
    },
    {
      "inputs": [],
      "name": "startBlock",
      "outputs": [
        {
          "internalType": "uint256",
          "name": "",
          "type": "uint256"
        }
      ],
      "stateMutability": "view",
      "type": "function"
    },
    {
      "inputs": [
        {
          "internalType": "address",
          "name": "newOwner",
          "type": "address"
        }
      ],
      "name": "transferOwnership",
      "outputs": [],
      "stateMutability": "nonpayable",
      "type": "function"
    },
    {
      "inputs": [],
      "name": "unsafeBlockSigner",
      "outputs": [
        {
          "internalType": "address",
          "name": "addr_",
          "type": "address"
        }
      ],
      "stateMutability": "view",
      "type": "function"
    },
    {
      "inputs": [],
      "name": "version",
      "outputs": [
        {
          "internalType": "string",
          "name": "",
          "type": "string"
        }
      ],
      "stateMutability": "view",
      "type": "function"
    }
  ],
  "bytecode": {
    "object": "0x60806040523480156200001157600080fd5b506040805160c080820183526001808352602080840182905260028486015260006060808601829052608080870183905260a08088018490528851968701895283875293860183905296850182905284018190529483018590528201849052620000909361dead93909283928392909183919060001990839062000096565b62000ccc565b600054600390610100900460ff16158015620000b9575060005460ff8083169116105b620001225760405162461bcd60e51b815260206004820152602e60248201527f496e697469616c697a61626c653a20636f6e747261637420697320616c72656160448201526d191e481a5b9a5d1a585b1a5e995960921b60648201526084015b60405180910390fd5b6000805461ffff191660ff831617610100179055620001406200043a565b6200014b8b620004a2565b620001568862000521565b620001628a8a62000573565b6200016d87620005d7565b620001788662000674565b620001be620001a960017f71ac12829d66ee73d8d95bff50b3589745ce57edae70a3fb111a2342464dc59862000ba9565b60001b84620006dc60201b62000d211760201c565b62000208620001ef60017f383f291819e6d54073bc9a648251d97421076bdd101933c0c022219ce958063762000ba9565b60001b8360000151620006dc60201b62000d211760201c565b620002526200023960017f46adcbebc6be8ce551740c29c47c8798210f23f7f4086c41752944352568d5a862000ba9565b60001b8360200151620006dc60201b62000d211760201c565b6200029c6200028360017f9904ba90dde5696cda05c9e0dab5cbaa0fea005ace4d11218a02ac668dad637762000ba9565b60001b8360400151620006dc60201b62000d211760201c565b620002e6620002cd60017fe52a667f71ec761b9b381c7b76ca9b852adf7e8905da0e0ad49986a0a687181662000ba9565b60001b8360600151620006dc60201b62000d211760201c565b620003306200031760017f4b6c74f9e688cb39801f2112c14a8c57232a3fc5202e1444126d4bce86eb19ad62000ba9565b60001b8360800151620006dc60201b62000d211760201c565b6200037a6200036160017fa04c5bb938ca6fc46d95553abf0a76345ce3e722a30bf4f74928b8e7d852320d62000ba9565b60001b8360a00151620006dc60201b62000d211760201c565b6200038584620006e0565b62000390856200070d565b6200039a62000a51565b6001600160401b0316876001600160401b03161015620003ec5760405162461bcd60e51b815260206004820152601f60248201526000805160206200281f833981519152604482015260640162000119565b6000805461ff001916905560405160ff821681527f7f26b83ff96e1f2b6a682f133852f6798a09c465da95921460cefb38474024989060200160405180910390a15050505050505050505050565b600054610100900460ff16620004965760405162461bcd60e51b815260206004820152602b60248201526000805160206200285f83398151915260448201526a6e697469616c697a696e6760a81b606482015260840162000119565b620004a062000a7e565b565b620004ac62000ae5565b6001600160a01b038116620005135760405162461bcd60e51b815260206004820152602660248201527f4f776e61626c653a206e6577206f776e657220697320746865207a65726f206160448201526564647265737360d01b606482015260840162000119565b6200051e8162000b41565b50565b60678190556040805160208082018490528251808303909101815290820190915260005b60006000805160206200283f8339815191528360405162000567919062000bc3565b60405180910390a35050565b60658290556066819055604080516020810184905290810182905260009060600160408051601f198184030181529190529050600160006000805160206200283f83398151915283604051620005ca919062000bc3565b60405180910390a3505050565b620005e162000a51565b6001600160401b0316816001600160401b03161015620006335760405162461bcd60e51b815260206004820152601f60248201526000805160206200281f833981519152604482015260640162000119565b606880546001600160401b0319166001600160401b038316908117909155604080516020808201939093528151808203909301835281019052600262000545565b620006ab7f65a7ed542fb37fe237fdfbdd70b31598523fe5b32879e307bae27a0bd9581c0882620006dc60201b62000d211760201c565b604080516001600160a01b03831660208201526000910160408051601f198184030181529190529050600362000545565b9055565b8015801590620006f05750606a54155b15620006fb57606a55565b606a546000036200051e5743606a5550565b8060a001516001600160801b0316816060015163ffffffff1611156200079c5760405162461bcd60e51b815260206004820152603560248201527f53797374656d436f6e6669673a206d696e206261736520666565206d7573742060448201527f6265206c657373207468616e206d617820626173650000000000000000000000606482015260840162000119565b6001816040015160ff16116200080d5760405162461bcd60e51b815260206004820152602f60248201527f53797374656d436f6e6669673a2064656e6f6d696e61746f72206d757374206260448201526e65206c6172676572207468616e203160881b606482015260840162000119565b606854608082015182516001600160401b03909216916200082f919062000c1b565b63ffffffff161115620008745760405162461bcd60e51b815260206004820152601f60248201526000805160206200281f833981519152604482015260640162000119565b6000816020015160ff1611620008e55760405162461bcd60e51b815260206004820152602f60248201527f53797374656d436f6e6669673a20656c6173746963697479206d756c7469706c60448201526e06965722063616e6e6f74206265203608c1b606482015260840162000119565b8051602082015163ffffffff82169160ff909116906200090790829062000c46565b62000913919062000c78565b63ffffffff16146200098e5760405162461bcd60e51b815260206004820152603760248201527f53797374656d436f6e6669673a20707265636973696f6e206c6f73732077697460448201527f6820746172676574207265736f75726365206c696d6974000000000000000000606482015260840162000119565b805160698054602084015160408501516060860151608087015160a09097015163ffffffff96871664ffffffffff199095169490941764010000000060ff948516021764ffffffffff60281b191665010000000000939092169290920263ffffffff60301b19161766010000000000009185169190910217600160501b600160f01b0319166a01000000000000000000009390941692909202600160701b600160f01b03191692909217600160701b6001600160801b0390921691909102179055565b60695460009062000a799063ffffffff6a010000000000000000000082048116911662000ca7565b905090565b600054610100900460ff1662000ada5760405162461bcd60e51b815260206004820152602b60248201526000805160206200285f83398151915260448201526a6e697469616c697a696e6760a81b606482015260840162000119565b620004a03362000b41565b6033546001600160a01b03163314620004a05760405162461bcd60e51b815260206004820181905260248201527f4f776e61626c653a2063616c6c6572206973206e6f7420746865206f776e6572604482015260640162000119565b603380546001600160a01b038381166001600160a01b0319831681179093556040519116919082907f8be0079c531659141344cd1fd0a4f28419497f9722a3daafe3b4186f6b6457e090600090a35050565b634e487b7160e01b600052601160045260246000fd5b60008282101562000bbe5762000bbe62000b93565b500390565b600060208083528351808285015260005b8181101562000bf25785810183015185820160400152820162000bd4565b8181111562000c05576000604083870101525b50601f01601f1916929092016040019392505050565b600063ffffffff80831681851680830382111562000c3d5762000c3d62000b93565b01949350505050565b600063ffffffff8084168062000c6c57634e487b7160e01b600052601260045260246000fd5b92169190910492915050565b600063ffffffff8083168185168183048111821515161562000c9e5762000c9e62000b93565b02949350505050565b60006001600160401b0382811684821680830382111562000c3d5762000c3d62000b93565b611b438062000cdc6000396000f3fe608060405234801561001057600080fd5b50600436106102265760003560e01c8063935f029e1161012a578063cc731b02116100bd578063f45e65d81161008c578063f8c68de011610071578063f8c68de014610575578063fd32aa0f1461057d578063ffa1ad741461058557600080fd5b8063f45e65d814610558578063f68016b71461056157600080fd5b8063cc731b0214610400578063dac6e63a14610534578063e81b2c6d1461053c578063f2fde38b1461054557600080fd5b8063bc49ce5f116100f9578063bc49ce5f146103ca578063c4e8ddfa146103d2578063c71973f6146103da578063c9b26f61146103ed57600080fd5b8063935f029e146103945780639b7d7f0a146103a7578063a7119869146103af578063b40a817c146103b757600080fd5b80634add321d116101bd57806354fd4d501161018c57806361d157681161017157806361d1576814610366578063715018a61461036e5780638da5cb5b1461037657600080fd5b806354fd4d50146103155780635d73369c1461035e57600080fd5b80634add321d146102b25780634d9f1559146102d35780634f16540b146102db5780635228a6ac1461030257600080fd5b806318d13918116101f957806318d139181461028457806319f5cea8146102995780631fd19ee1146102a157806348cd4cb1146102a957600080fd5b806306c926571461022b578063078f29cf146102465780630a49cb03146102735780630c18c1621461027b575b600080fd5b61023361058d565b6040519081526020015b60405180910390f35b61024e6105bb565b60405173ffffffffffffffffffffffffffffffffffffffff909116815260200161023d565b61024e6105f4565b61023360655481565b610297610292366004611677565b610624565b005b610233610638565b61024e610663565b610233606a5481565b6102ba61068d565b60405167ffffffffffffffff909116815260200161023d565b61024e6106b3565b6102337f65a7ed542fb37fe237fdfbdd70b31598523fe5b32879e307bae27a0bd9581c0881565b610297610310366004611807565b6106e3565b6103516040518060400160405280600681526020017f312e31302e30000000000000000000000000000000000000000000000000000081525081565b60405161023d91906119aa565b610233610a79565b610233610aa4565b610297610acf565b60335473ffffffffffffffffffffffffffffffffffffffff1661024e565b6102976103a23660046119bd565b610ae3565b61024e610af9565b61024e610b29565b6102976103c53660046119df565b610b59565b610233610b6a565b61024e610b95565b6102976103e83660046119fa565b610bc5565b6102976103fb366004611a16565b610bd6565b6104c46040805160c081018252600080825260208201819052918101829052606081018290526080810182905260a0810191909152506040805160c08101825260695463ffffffff8082168352640100000000820460ff9081166020850152650100000000008304169383019390935266010000000000008104831660608301526a0100000000000000000000810490921660808201526e0100000000000000000000000000009091046fffffffffffffffffffffffffffffffff1660a082015290565b60405161023d9190600060c08201905063ffffffff80845116835260ff602085015116602084015260ff6040850151166040840152806060850151166060840152806080850151166080840152506fffffffffffffffffffffffffffffffff60a08401511660a083015292915050565b61024e610be7565b61023360675481565b610297610553366004611677565b610c17565b61023360665481565b6068546102ba9067ffffffffffffffff1681565b610233610ccb565b610233610cf6565b610233600081565b6105b860017fa04c5bb938ca6fc46d95553abf0a76345ce3e722a30bf4f74928b8e7d852320d611a5e565b81565b60006105ef6105eb60017f9904ba90dde5696cda05c9e0dab5cbaa0fea005ace4d11218a02ac668dad6377611a5e565b5490565b905090565b60006105ef6105eb60017f4b6c74f9e688cb39801f2112c14a8c57232a3fc5202e1444126d4bce86eb19ad611a5e565b61062c610d25565b61063581610da6565b50565b6105b860017f46adcbebc6be8ce551740c29c47c8798210f23f7f4086c41752944352568d5a8611a5e565b60006105ef7f65a7ed542fb37fe237fdfbdd70b31598523fe5b32879e307bae27a0bd9581c085490565b6069546000906105ef9063ffffffff6a0100000000000000000000820481169116611a75565b60006105ef6105eb60017fe52a667f71ec761b9b381c7b76ca9b852adf7e8905da0e0ad49986a0a6871816611a5e565b600054600390610100900460ff16158015610705575060005460ff8083169116105b610796576040517f08c379a000000000000000000000000000000000000000000000000000000000815260206004820152602e60248201527f496e697469616c697a61626c653a20636f6e747261637420697320616c72656160448201527f647920696e697469616c697a656400000000000000000000000000000000000060648201526084015b60405180910390fd5b600080547fffffffffffffffffffffffffffffffffffffffffffffffffffffffffffff00001660ff8316176101001790556107cf610e63565b6107d88b610c17565b6107e188610f02565b6107eb8a8a610f2a565b6107f487610fbb565b6107fd86610da6565b61083061082b60017f71ac12829d66ee73d8d95bff50b3589745ce57edae70a3fb111a2342464dc598611a5e565b849055565b61086461085e60017f383f291819e6d54073bc9a648251d97421076bdd101933c0c022219ce9580637611a5e565b83519055565b61089b61089260017f46adcbebc6be8ce551740c29c47c8798210f23f7f4086c41752944352568d5a8611a5e565b60208401519055565b6108d26108c960017f9904ba90dde5696cda05c9e0dab5cbaa0fea005ace4d11218a02ac668dad6377611a5e565b60408401519055565b61090961090060017fe52a667f71ec761b9b381c7b76ca9b852adf7e8905da0e0ad49986a0a6871816611a5e565b60608401519055565b61094061093760017f4b6c74f9e688cb39801f2112c14a8c57232a3fc5202e1444126d4bce86eb19ad611a5e565b60808401519055565b61097761096e60017fa04c5bb938ca6fc46d95553abf0a76345ce3e722a30bf4f74928b8e7d852320d611a5e565b60a08401519055565b61098084611099565b610989856110c3565b61099161068d565b67ffffffffffffffff168767ffffffffffffffff161015610a0e576040517f08c379a000000000000000000000000000000000000000000000000000000000815260206004820152601f60248201527f53797374656d436f6e6669673a20676173206c696d697420746f6f206c6f7700604482015260640161078d565b600080547fffffffffffffffffffffffffffffffffffffffffffffffffffffffffffff00ff16905560405160ff821681527f7f26b83ff96e1f2b6a682f133852f6798a09c465da95921460cefb38474024989060200160405180910390a15050505050505050505050565b6105b860017f383f291819e6d54073bc9a648251d97421076bdd101933c0c022219ce9580637611a5e565b6105b860017fe52a667f71ec761b9b381c7b76ca9b852adf7e8905da0e0ad49986a0a6871816611a5e565b610ad7610d25565b610ae16000611537565b565b610aeb610d25565b610af58282610f2a565b5050565b60006105ef6105eb60017fa04c5bb938ca6fc46d95553abf0a76345ce3e722a30bf4f74928b8e7d852320d611a5e565b60006105ef6105eb60017f383f291819e6d54073bc9a648251d97421076bdd101933c0c022219ce9580637611a5e565b610b61610d25565b61063581610fbb565b6105b860017f71ac12829d66ee73d8d95bff50b3589745ce57edae70a3fb111a2342464dc598611a5e565b60006105ef6105eb60017f46adcbebc6be8ce551740c29c47c8798210f23f7f4086c41752944352568d5a8611a5e565b610bcd610d25565b610635816110c3565b610bde610d25565b61063581610f02565b60006105ef6105eb60017f71ac12829d66ee73d8d95bff50b3589745ce57edae70a3fb111a2342464dc598611a5e565b610c1f610d25565b73ffffffffffffffffffffffffffffffffffffffff8116610cc2576040517f08c379a000000000000000000000000000000000000000000000000000000000815260206004820152602660248201527f4f776e61626c653a206e6577206f776e657220697320746865207a65726f206160448201527f6464726573730000000000000000000000000000000000000000000000000000606482015260840161078d565b61063581611537565b6105b860017f9904ba90dde5696cda05c9e0dab5cbaa0fea005ace4d11218a02ac668dad6377611a5e565b6105b860017f4b6c74f9e688cb39801f2112c14a8c57232a3fc5202e1444126d4bce86eb19ad611a5e565b9055565b60335473ffffffffffffffffffffffffffffffffffffffff163314610ae1576040517f08c379a000000000000000000000000000000000000000000000000000000000815260206004820181905260248201527f4f776e61626c653a2063616c6c6572206973206e6f7420746865206f776e6572604482015260640161078d565b610dcf7f65a7ed542fb37fe237fdfbdd70b31598523fe5b32879e307bae27a0bd9581c08829055565b6040805173ffffffffffffffffffffffffffffffffffffffff8316602082015260009101604080517fffffffffffffffffffffffffffffffffffffffffffffffffffffffffffffffe0818403018152919052905060035b60007f1d2b0bda21d56b8bd12d4f94ebacffdfb35f5e226f84b461103bb8beab6353be83604051610e5791906119aa565b60405180910390a35050565b600054610100900460ff16610efa576040517f08c379a000000000000000000000000000000000000000000000000000000000815260206004820152602b60248201527f496e697469616c697a61626c653a20636f6e7472616374206973206e6f74206960448201527f6e697469616c697a696e67000000000000000000000000000000000000000000606482015260840161078d565b610ae16115ae565b6067819055604080516020808201849052825180830390910181529082019091526000610e26565b606582905560668190556040805160208101849052908101829052600090606001604080517fffffffffffffffffffffffffffffffffffffffffffffffffffffffffffffffe08184030181529190529050600160007f1d2b0bda21d56b8bd12d4f94ebacffdfb35f5e226f84b461103bb8beab6353be83604051610fae91906119aa565b60405180910390a3505050565b610fc361068d565b67ffffffffffffffff168167ffffffffffffffff161015611040576040517f08c379a000000000000000000000000000000000000000000000000000000000815260206004820152601f60248201527f53797374656d436f6e6669673a20676173206c696d697420746f6f206c6f7700604482015260640161078d565b606880547fffffffffffffffffffffffffffffffffffffffffffffffff00000000000000001667ffffffffffffffff83169081179091556040805160208082019390935281518082039093018352810190526002610e26565b80158015906110a85750606a54155b156110b257606a55565b606a546000036106355743606a5550565b8060a001516fffffffffffffffffffffffffffffffff16816060015163ffffffff161115611173576040517f08c379a000000000000000000000000000000000000000000000000000000000815260206004820152603560248201527f53797374656d436f6e6669673a206d696e206261736520666565206d7573742060448201527f6265206c657373207468616e206d617820626173650000000000000000000000606482015260840161078d565b6001816040015160ff161161120a576040517f08c379a000000000000000000000000000000000000000000000000000000000815260206004820152602f60248201527f53797374656d436f6e6669673a2064656e6f6d696e61746f72206d757374206260448201527f65206c6172676572207468616e20310000000000000000000000000000000000606482015260840161078d565b6068546080820151825167ffffffffffffffff9092169161122b9190611aa1565b63ffffffff161115611299576040517f08c379a000000000000000000000000000000000000000000000000000000000815260206004820152601f60248201527f53797374656d436f6e6669673a20676173206c696d697420746f6f206c6f7700604482015260640161078d565b6000816020015160ff1611611330576040517f08c379a000000000000000000000000000000000000000000000000000000000815260206004820152602f60248201527f53797374656d436f6e6669673a20656c6173746963697479206d756c7469706c60448201527f6965722063616e6e6f7420626520300000000000000000000000000000000000606482015260840161078d565b8051602082015163ffffffff82169160ff90911690611350908290611ac0565b61135a9190611b0a565b63ffffffff16146113ed576040517f08c379a000000000000000000000000000000000000000000000000000000000815260206004820152603760248201527f53797374656d436f6e6669673a20707265636973696f6e206c6f73732077697460448201527f6820746172676574207265736f75726365206c696d6974000000000000000000606482015260840161078d565b805160698054602084015160408501516060860151608087015160a09097015163ffffffff9687167fffffffffffffffffffffffffffffffffffffffffffffffffffffff00000000009095169490941764010000000060ff94851602177fffffffffffffffffffffffffffffffffffffffffffff0000000000ffffffffff166501000000000093909216929092027fffffffffffffffffffffffffffffffffffffffffffff00000000ffffffffffff1617660100000000000091851691909102177fffff0000000000000000000000000000000000000000ffffffffffffffffffff166a010000000000000000000093909416929092027fffff00000000000000000000000000000000ffffffffffffffffffffffffffff16929092176e0100000000000000000000000000006fffffffffffffffffffffffffffffffff90921691909102179055565b6033805473ffffffffffffffffffffffffffffffffffffffff8381167fffffffffffffffffffffffff0000000000000000000000000000000000000000831681179093556040519116919082907f8be0079c531659141344cd1fd0a4f28419497f9722a3daafe3b4186f6b6457e090600090a35050565b600054610100900460ff16611645576040517f08c379a000000000000000000000000000000000000000000000000000000000815260206004820152602b60248201527f496e697469616c697a61626c653a20636f6e7472616374206973206e6f74206960448201527f6e697469616c697a696e67000000000000000000000000000000000000000000606482015260840161078d565b610ae133611537565b803573ffffffffffffffffffffffffffffffffffffffff8116811461167257600080fd5b919050565b60006020828403121561168957600080fd5b6116928261164e565b9392505050565b803567ffffffffffffffff8116811461167257600080fd5b60405160c0810167ffffffffffffffff811182821017156116fb577f4e487b7100000000000000000000000000000000000000000000000000000000600052604160045260246000fd5b60405290565b803563ffffffff8116811461167257600080fd5b803560ff8116811461167257600080fd5b600060c0828403121561173857600080fd5b60405160c0810181811067ffffffffffffffff82111715611782577f4e487b7100000000000000000000000000000000000000000000000000000000600052604160045260246000fd5b60405290508061179183611701565b815261179f60208401611715565b60208201526117b060408401611715565b60408201526117c160608401611701565b60608201526117d260808401611701565b608082015260a08301356fffffffffffffffffffffffffffffffff811681146117fa57600080fd5b60a0919091015292915050565b6000806000806000806000806000808a8c0361028081121561182857600080fd5b6118318c61164e565b9a5060208c0135995060408c0135985060608c0135975061185460808d01611699565b965061186260a08d0161164e565b95506118718d60c08e01611726565b94506101808c013593506118886101a08d0161164e565b925060c07ffffffffffffffffffffffffffffffffffffffffffffffffffffffffffffffe40820112156118ba57600080fd5b506118c36116b1565b6118d06101c08d0161164e565b81526118df6101e08d0161164e565b60208201526118f16102008d0161164e565b60408201526119036102208d0161164e565b60608201526119156102408d0161164e565b60808201526119276102608d0161164e565b60a0820152809150509295989b9194979a5092959850565b6000815180845260005b8181101561196557602081850181015186830182015201611949565b81811115611977576000602083870101525b50601f017fffffffffffffffffffffffffffffffffffffffffffffffffffffffffffffffe0169290920160200192915050565b602081526000611692602083018461193f565b600080604083850312156119d057600080fd5b50508035926020909101359150565b6000602082840312156119f157600080fd5b61169282611699565b600060c08284031215611a0c57600080fd5b6116928383611726565b600060208284031215611a2857600080fd5b5035919050565b7f4e487b7100000000000000000000000000000000000000000000000000000000600052601160045260246000fd5b600082821015611a7057611a70611a2f565b500390565b600067ffffffffffffffff808316818516808303821115611a9857611a98611a2f565b01949350505050565b600063ffffffff808316818516808303821115611a9857611a98611a2f565b600063ffffffff80841680611afe577f4e487b7100000000000000000000000000000000000000000000000000000000600052601260045260246000fd5b92169190910492915050565b600063ffffffff80831681851681830481118215151615611b2d57611b2d611a2f565b0294935050505056fea164736f6c634300080f000a53797374656d436f6e6669673a20676173206c696d697420746f6f206c6f77001d2b0bda21d56b8bd12d4f94ebacffdfb35f5e226f84b461103bb8beab6353be496e697469616c697a61626c653a20636f6e7472616374206973206e6f742069",
    "linkReferences": {}
  },
  "methodIdentifiers": {
    "BATCH_INBOX_SLOT()": "bc49ce5f",
    "L1_CROSS_DOMAIN_MESSENGER_SLOT()": "5d73369c",
    "L1_ERC_721_BRIDGE_SLOT()": "19f5cea8",
    "L1_STANDARD_BRIDGE_SLOT()": "f8c68de0",
    "L2_OUTPUT_ORACLE_SLOT()": "61d15768",
    "OPTIMISM_MINTABLE_ERC20_FACTORY_SLOT()": "06c92657",
    "OPTIMISM_PORTAL_SLOT()": "fd32aa0f",
    "UNSAFE_BLOCK_SIGNER_SLOT()": "4f16540b",
    "VERSION()": "ffa1ad74",
    "batchInbox()": "dac6e63a",
    "batcherHash()": "e81b2c6d",
    "gasLimit()": "f68016b7",
    "initialize(address,uint256,uint256,bytes32,uint64,address,(uint32,uint8,uint8,uint32,uint32,uint128),uint256,address,(address,address,address,address,address,address))": "5228a6ac",
    "l1CrossDomainMessenger()": "a7119869",
    "l1ERC721Bridge()": "c4e8ddfa",
    "l1StandardBridge()": "078f29cf",
    "l2OutputOracle()": "4d9f1559",
    "minimumGasLimit()": "4add321d",
    "optimismMintableERC20Factory()": "9b7d7f0a",
    "optimismPortal()": "0a49cb03",
    "overhead()": "0c18c162",
    "owner()": "8da5cb5b",
    "renounceOwnership()": "715018a6",
    "resourceConfig()": "cc731b02",
    "scalar()": "f45e65d8",
    "setBatcherHash(bytes32)": "c9b26f61",
    "setGasConfig(uint256,uint256)": "935f029e",
    "setGasLimit(uint64)": "b40a817c",
    "setResourceConfig((uint32,uint8,uint8,uint32,uint32,uint128))": "c71973f6",
    "setUnsafeBlockSigner(address)": "18d13918",
    "startBlock()": "48cd4cb1",
    "transferOwnership(address)": "f2fde38b",
    "unsafeBlockSigner()": "1fd19ee1",
    "version()": "54fd4d50"
  },
  "storageLayout": {
    "storage": [
      {
        "astId": 29536,
        "contract": "src/L1/SystemConfig.sol:SystemConfig",
        "label": "_initialized",
        "offset": 0,
        "slot": "0",
        "type": "t_uint8"
      },
      {
        "astId": 29539,
        "contract": "src/L1/SystemConfig.sol:SystemConfig",
        "label": "_initializing",
        "offset": 1,
        "slot": "0",
        "type": "t_bool"
      },
      {
        "astId": 29964,
        "contract": "src/L1/SystemConfig.sol:SystemConfig",
        "label": "__gap",
        "offset": 0,
        "slot": "1",
        "type": "t_array(t_uint256)50_storage"
      },
      {
        "astId": 29408,
        "contract": "src/L1/SystemConfig.sol:SystemConfig",
        "label": "_owner",
        "offset": 0,
        "slot": "51",
        "type": "t_address"
      },
      {
        "astId": 29528,
        "contract": "src/L1/SystemConfig.sol:SystemConfig",
        "label": "__gap",
        "offset": 0,
        "slot": "52",
        "type": "t_array(t_uint256)49_storage"
      },
      {
        "astId": 59173,
        "contract": "src/L1/SystemConfig.sol:SystemConfig",
        "label": "overhead",
        "offset": 0,
        "slot": "101",
        "type": "t_uint256"
      },
      {
        "astId": 59176,
        "contract": "src/L1/SystemConfig.sol:SystemConfig",
        "label": "scalar",
        "offset": 0,
        "slot": "102",
        "type": "t_uint256"
      },
      {
        "astId": 59179,
        "contract": "src/L1/SystemConfig.sol:SystemConfig",
        "label": "batcherHash",
        "offset": 0,
        "slot": "103",
        "type": "t_bytes32"
      },
      {
        "astId": 59182,
        "contract": "src/L1/SystemConfig.sol:SystemConfig",
        "label": "gasLimit",
        "offset": 0,
        "slot": "104",
        "type": "t_uint64"
      },
      {
        "astId": 59186,
        "contract": "src/L1/SystemConfig.sol:SystemConfig",
        "label": "_resourceConfig",
        "offset": 0,
        "slot": "105",
        "type": "t_struct(ResourceConfig)58711_storage"
      },
      {
        "astId": 59199,
        "contract": "src/L1/SystemConfig.sol:SystemConfig",
        "label": "startBlock",
        "offset": 0,
        "slot": "106",
        "type": "t_uint256"
      }
    ],
    "types": {
      "t_address": {
        "encoding": "inplace",
        "label": "address",
        "numberOfBytes": "20"
      },
      "t_array(t_uint256)49_storage": {
        "encoding": "inplace",
        "label": "uint256[49]",
        "numberOfBytes": "1568",
        "base": "t_uint256"
      },
      "t_array(t_uint256)50_storage": {
        "encoding": "inplace",
        "label": "uint256[50]",
        "numberOfBytes": "1600",
        "base": "t_uint256"
      },
      "t_bool": {
        "encoding": "inplace",
        "label": "bool",
        "numberOfBytes": "1"
      },
      "t_bytes32": {
        "encoding": "inplace",
        "label": "bytes32",
        "numberOfBytes": "32"
      },
      "t_struct(ResourceConfig)58711_storage": {
        "encoding": "inplace",
        "label": "struct ResourceMetering.ResourceConfig",
        "numberOfBytes": "32",
        "members": [
          {
            "astId": 58700,
            "contract": "src/L1/SystemConfig.sol:SystemConfig",
            "label": "maxResourceLimit",
            "offset": 0,
            "slot": "0",
            "type": "t_uint32"
          },
          {
            "astId": 58702,
            "contract": "src/L1/SystemConfig.sol:SystemConfig",
            "label": "elasticityMultiplier",
            "offset": 4,
            "slot": "0",
            "type": "t_uint8"
          },
          {
            "astId": 58704,
            "contract": "src/L1/SystemConfig.sol:SystemConfig",
            "label": "baseFeeMaxChangeDenominator",
            "offset": 5,
            "slot": "0",
            "type": "t_uint8"
          },
          {
            "astId": 58706,
            "contract": "src/L1/SystemConfig.sol:SystemConfig",
            "label": "minimumBaseFee",
            "offset": 6,
            "slot": "0",
            "type": "t_uint32"
          },
          {
            "astId": 58708,
            "contract": "src/L1/SystemConfig.sol:SystemConfig",
            "label": "systemTxMaxGas",
            "offset": 10,
            "slot": "0",
            "type": "t_uint32"
          },
          {
            "astId": 58710,
            "contract": "src/L1/SystemConfig.sol:SystemConfig",
            "label": "maximumBaseFee",
            "offset": 14,
            "slot": "0",
            "type": "t_uint128"
          }
        ]
      },
      "t_uint128": {
        "encoding": "inplace",
        "label": "uint128",
        "numberOfBytes": "16"
      },
      "t_uint256": {
        "encoding": "inplace",
        "label": "uint256",
        "numberOfBytes": "32"
      },
      "t_uint32": {
        "encoding": "inplace",
        "label": "uint32",
        "numberOfBytes": "4"
      },
      "t_uint64": {
        "encoding": "inplace",
        "label": "uint64",
        "numberOfBytes": "8"
      },
      "t_uint8": {
        "encoding": "inplace",
        "label": "uint8",
        "numberOfBytes": "1"
      }
    }
  },
  "userdoc": {
    "version": 1,
    "kind": "user",
    "methods": {
      "BATCH_INBOX_SLOT()": {
        "notice": "Storage slot that the batch inbox address is stored at."
      },
      "L1_CROSS_DOMAIN_MESSENGER_SLOT()": {
        "notice": "Storage slot that the L1CrossDomainMessenger address is stored at."
      },
      "L1_ERC_721_BRIDGE_SLOT()": {
        "notice": "Storage slot that the L1ERC721Bridge address is stored at."
      },
      "L1_STANDARD_BRIDGE_SLOT()": {
        "notice": "Storage slot that the L1StandardBridge address is stored at."
      },
      "L2_OUTPUT_ORACLE_SLOT()": {
        "notice": "Storage slot that the L2OutputOracle address is stored at."
      },
      "OPTIMISM_MINTABLE_ERC20_FACTORY_SLOT()": {
        "notice": "Storage slot that the OptimismMintableERC20Factory address is stored at."
      },
      "OPTIMISM_PORTAL_SLOT()": {
        "notice": "Storage slot that the OptimismPortal address is stored at."
      },
      "UNSAFE_BLOCK_SIGNER_SLOT()": {
        "notice": "Storage slot that the unsafe block signer is stored at.         Storing it at this deterministic storage slot allows for decoupling the storage         layout from the way that `solc` lays out storage. The `op-node` uses a storage         proof to fetch this value."
      },
      "VERSION()": {
        "notice": "Version identifier, used for upgrades."
      },
      "batchInbox()": {
        "notice": "Getter for the BatchInbox address."
      },
      "batcherHash()": {
        "notice": "Identifier for the batcher.         For version 1 of this configuration, this is represented as an address left-padded         with zeros to 32 bytes."
      },
      "constructor": {
        "notice": "Constructs the SystemConfig contract. Cannot set         the owner to `address(0)` due to the Ownable contract's         implementation, so set it to `address(0xdEaD)`"
      },
      "gasLimit()": {
        "notice": "L2 block gas limit."
      },
      "initialize(address,uint256,uint256,bytes32,uint64,address,(uint32,uint8,uint8,uint32,uint32,uint128),uint256,address,(address,address,address,address,address,address))": {
        "notice": "Initializer.         The resource config must be set before the require check."
      },
      "l1CrossDomainMessenger()": {
        "notice": "Getter for the L1CrossDomainMessenger address."
      },
      "l1ERC721Bridge()": {
        "notice": "Getter for the L1ERC721Bridge address."
      },
      "l1StandardBridge()": {
        "notice": "Getter for the L1StandardBridge address."
      },
      "l2OutputOracle()": {
        "notice": "Getter for the L2OutputOracle address."
      },
      "minimumGasLimit()": {
        "notice": "Returns the minimum L2 gas limit that can be safely set for the system to         operate. The L2 gas limit must be larger than or equal to the amount of         gas that is allocated for deposits per block plus the amount of gas that         is allocated for the system transaction.         This function is used to determine if changes to parameters are safe."
      },
      "optimismMintableERC20Factory()": {
        "notice": "Getter for the OptimismMintableERC20Factory address."
      },
      "optimismPortal()": {
        "notice": "Getter for the OptimismPortal address."
      },
      "overhead()": {
        "notice": "Fixed L2 gas overhead. Used as part of the L2 fee calculation."
      },
      "resourceConfig()": {
        "notice": "A getter for the resource config.         Ensures that the struct is returned instead of a tuple."
      },
      "scalar()": {
        "notice": "Dynamic L2 gas overhead. Used as part of the L2 fee calculation."
      },
      "setBatcherHash(bytes32)": {
        "notice": "Updates the batcher hash. Can only be called by the owner."
      },
      "setGasConfig(uint256,uint256)": {
        "notice": "Updates gas config. Can only be called by the owner."
      },
      "setGasLimit(uint64)": {
        "notice": "Updates the L2 gas limit. Can only be called by the owner."
      },
      "setResourceConfig((uint32,uint8,uint8,uint32,uint32,uint128))": {
        "notice": "An external setter for the resource config.         In the future, this method may emit an event that the `op-node` picks up         for when the resource config is changed."
      },
      "setUnsafeBlockSigner(address)": {
        "notice": "Updates the unsafe block signer address. Can only be called by the owner."
      },
      "startBlock()": {
        "notice": "The block at which the op-node can start searching for logs from."
      },
      "unsafeBlockSigner()": {
        "notice": "High level getter for the unsafe block signer address.         Unsafe blocks can be propagated across the p2p network if they are signed by the         key corresponding to this address."
      },
      "version()": {
        "notice": "Semantic version."
      }
    },
    "events": {
      "ConfigUpdate(uint256,uint8,bytes)": {
        "notice": "Emitted when configuration is updated."
      }
    },
    "notice": "The SystemConfig contract is used to manage configuration of an Optimism network.         All configuration is stored on L1 and picked up by L2 as part of the derviation of         the L2 chain."
  },
  "devdoc": {
    "version": 1,
    "kind": "dev",
    "methods": {
      "initialize(address,uint256,uint256,bytes32,uint64,address,(uint32,uint8,uint8,uint32,uint32,uint128),uint256,address,(address,address,address,address,address,address))": {
        "params": {
          "_addresses": "Set of L1 contract addresses. These should be the proxies.",
          "_batchInbox": "Batch inbox address. An identifier for the op-node to find                           canonical data.",
          "_batcherHash": "Initial batcher hash.",
          "_config": "Initial ResourceConfig.",
          "_gasLimit": "Initial gas limit.",
          "_overhead": "Initial overhead value.",
          "_owner": "Initial owner of the contract.",
          "_scalar": "Initial scalar value.",
          "_startBlock": "Starting block for the op-node to search for logs from.                           Contracts that were deployed before this field existed                           need to have this field set manually via an override.                           Newly deployed contracts should set this value to uint256(0).",
          "_unsafeBlockSigner": "Initial unsafe block signer address."
        }
      },
      "minimumGasLimit()": {
        "returns": {
          "_0": "uint64 Minimum gas limit."
        }
      },
      "owner()": {
        "details": "Returns the address of the current owner."
      },
      "renounceOwnership()": {
        "details": "Leaves the contract without owner. It will not be possible to call `onlyOwner` functions anymore. Can only be called by the current owner. NOTE: Renouncing ownership will leave the contract without an owner, thereby removing any functionality that is only available to the owner."
      },
      "resourceConfig()": {
        "returns": {
          "_0": "ResourceConfig"
        }
      },
      "setBatcherHash(bytes32)": {
        "params": {
          "_batcherHash": "New batcher hash."
        }
      },
      "setGasConfig(uint256,uint256)": {
        "params": {
          "_overhead": "New overhead value.",
          "_scalar": "New scalar value."
        }
      },
      "setGasLimit(uint64)": {
        "params": {
          "_gasLimit": "New gas limit."
        }
      },
      "setResourceConfig((uint32,uint8,uint8,uint32,uint32,uint128))": {
        "params": {
          "_config": "The new resource config values."
        }
      },
      "setUnsafeBlockSigner(address)": {
        "params": {
          "_unsafeBlockSigner": "New unsafe block signer address."
        }
      },
      "transferOwnership(address)": {
        "details": "Transfers ownership of the contract to a new account (`newOwner`). Can only be called by the current owner."
      },
      "unsafeBlockSigner()": {
        "returns": {
          "addr_": "Address of the unsafe block signer."
        }
      }
    },
    "events": {
      "ConfigUpdate(uint256,uint8,bytes)": {
        "params": {
          "data": "Encoded update data.",
          "updateType": "Type of update.",
          "version": "SystemConfig version."
        }
      }
    },
    "title": "SystemConfig"
  },
  "id": 96
}