{
  "abi": [
    {
      "inputs": [
        {
          "internalType": "address[]",
          "name": "_owners",
          "type": "address[]"
        },
        {
          "internalType": "uint256",
          "name": "_threshold",
          "type": "uint256"
        }
      ],
      "stateMutability": "nonpayable",
      "type": "constructor"
    },
    {
      "anonymous": false,
      "inputs": [
        {
          "indexed": true,
          "internalType": "address",
          "name": "owner",
          "type": "address"
        }
      ],
      "name": "AddedOwner",
      "type": "event"
    },
    {
      "anonymous": false,
      "inputs": [
        {
          "indexed": false,
          "internalType": "uint256",
          "name": "threshold",
          "type": "uint256"
        }
      ],
      "name": "ChangedThreshold",
      "type": "event"
    },
    {
      "anonymous": false,
      "inputs": [
        {
          "indexed": true,
          "internalType": "address",
          "name": "owner",
          "type": "address"
        }
      ],
      "name": "RemovedOwner",
      "type": "event"
    },
    {
      "inputs": [
        {
          "internalType": "address",
          "name": "owner",
          "type": "address"
        },
        {
          "internalType": "uint256",
          "name": "_threshold",
          "type": "uint256"
        }
      ],
      "name": "addOwnerWithThreshold",
      "outputs": [],
      "stateMutability": "nonpayable",
      "type": "function"
    },
    {
      "inputs": [
        {
          "internalType": "uint256",
          "name": "_threshold",
          "type": "uint256"
        }
      ],
      "name": "changeThreshold",
      "outputs": [],
      "stateMutability": "nonpayable",
      "type": "function"
    },
    {
      "inputs": [],
      "name": "getOwners",
      "outputs": [
        {
          "internalType": "address[]",
          "name": "",
          "type": "address[]"
        }
      ],
      "stateMutability": "view",
      "type": "function"
    },
    {
      "inputs": [],
      "name": "getThreshold",
      "outputs": [
        {
          "internalType": "uint256",
          "name": "",
          "type": "uint256"
        }
      ],
      "stateMutability": "view",
      "type": "function"
    },
    {
      "inputs": [
        {
          "internalType": "address",
          "name": "owner",
          "type": "address"
        }
      ],
      "name": "isOwner",
      "outputs": [
        {
          "internalType": "bool",
          "name": "",
          "type": "bool"
        }
      ],
      "stateMutability": "view",
      "type": "function"
    },
    {
      "inputs": [
        {
          "internalType": "address",
          "name": "prevOwner",
          "type": "address"
        },
        {
          "internalType": "address",
          "name": "owner",
          "type": "address"
        },
        {
          "internalType": "uint256",
          "name": "_threshold",
          "type": "uint256"
        }
      ],
      "name": "removeOwner",
      "outputs": [],
      "stateMutability": "nonpayable",
      "type": "function"
    },
    {
      "inputs": [
        {
          "internalType": "address",
          "name": "prevOwner",
          "type": "address"
        },
        {
          "internalType": "address",
          "name": "owner",
          "type": "address"
        },
        {
          "internalType": "uint256",
          "name": "_threshold",
          "type": "uint256"
        }
      ],
      "name": "removeOwnerWrapped",
      "outputs": [],
      "stateMutability": "nonpayable",
      "type": "function"
    },
    {
      "inputs": [
        {
          "internalType": "address",
          "name": "prevOwner",
          "type": "address"
        },
        {
          "internalType": "address",
          "name": "oldOwner",
          "type": "address"
        },
        {
          "internalType": "address",
          "name": "newOwner",
          "type": "address"
        }
      ],
      "name": "swapOwner",
      "outputs": [],
      "stateMutability": "nonpayable",
      "type": "function"
    }
  ],
  "bytecode": {
    "object": "0x60806040523480156200001157600080fd5b5060405162001349380380620013498339810160408190526200003491620002b8565b62000040828262000048565b5050620003a8565b60025415620000865760405162461bcd60e51b8152602060048201526005602482015264047533230360dc1b60448201526064015b60405180910390fd5b8151811115620000c15760405162461bcd60e51b8152602060048201526005602482015264475332303160d81b60448201526064016200007d565b6001811015620000fc5760405162461bcd60e51b815260206004820152600560248201526423a999181960d91b60448201526064016200007d565b600160005b83518110156200024f57600084828151811062000122576200012262000392565b6020026020010151905060006001600160a01b0316816001600160a01b0316141580156200015a57506001600160a01b038116600114155b80156200017057506001600160a01b0381163014155b80156200018f5750806001600160a01b0316836001600160a01b031614155b620001c55760405162461bcd60e51b8152602060048201526005602482015264475332303360d81b60448201526064016200007d565b6001600160a01b038181166000908152602081905260409020541615620002175760405162461bcd60e51b815260206004820152600560248201526411d4cc8c0d60da1b60448201526064016200007d565b6001600160a01b03928316600090815260208190526040902080546001600160a01b0319169382169390931790925560010162000101565b506001600160a01b0316600090815260208190526040902080546001600160a01b03191660019081179091559151909155600255565b634e487b7160e01b600052604160045260246000fd5b80516001600160a01b0381168114620002b357600080fd5b919050565b60008060408385031215620002cc57600080fd5b82516001600160401b0380821115620002e457600080fd5b818501915085601f830112620002f957600080fd5b815160208282111562000310576200031062000285565b8160051b604051601f19603f8301168101818110868211171562000338576200033862000285565b6040529283528183019350848101820192898411156200035757600080fd5b948201945b83861015620003805762000370866200029b565b855294820194938201936200035c565b97909101519698969750505050505050565b634e487b7160e01b600052603260045260246000fd5b610f9180620003b86000396000f3fe608060405234801561001057600080fd5b50600436106100885760003560e01c8063e318b52b1161005b578063e318b52b146100f2578063e75235b814610105578063f8dc5dd914610116578063fcb7a4951461012957600080fd5b80630d582f131461008d5780632f54bf6e146100a2578063694e80c3146100ca578063a0e67e2b146100dd575b600080fd5b6100a061009b366004610d39565b61013c565b005b6100b56100b0366004610d63565b61038b565b60405190151581526020015b60405180910390f35b6100a06100d8366004610d85565b6103e0565b6100e56104fa565b6040516100c19190610d9e565b6100a0610100366004610df8565b610611565b6002546040519081526020016100c1565b6100a0610124366004610e3b565b610989565b6100a0610137366004610e3b565b610c12565b610144610ca5565b73ffffffffffffffffffffffffffffffffffffffff821615801590610180575073ffffffffffffffffffffffffffffffffffffffff8216600114155b80156101a2575073ffffffffffffffffffffffffffffffffffffffff82163014155b61020d576040517f08c379a000000000000000000000000000000000000000000000000000000000815260206004820152600560248201527f475332303300000000000000000000000000000000000000000000000000000060448201526064015b60405180910390fd5b73ffffffffffffffffffffffffffffffffffffffff828116600090815260208190526040902054161561029c576040517f08c379a000000000000000000000000000000000000000000000000000000000815260206004820152600560248201527f47533230340000000000000000000000000000000000000000000000000000006044820152606401610204565b600060208190527fada5013122d395ba3c54772283fb069b10426056ef8ca54750cb9bb552a59e7d805473ffffffffffffffffffffffffffffffffffffffff858116808552604085208054929093167fffffffffffffffffffffffff0000000000000000000000000000000000000000928316179092556001808552835490911690911790915580549161032f83610ea6565b909155505060405173ffffffffffffffffffffffffffffffffffffffff8316907f9465fa0c962cc76958e6373a993326400c1c94f8be2fe3a952adfa7f60b2ea2690600090a2806002541461038757610387816103e0565b5050565b600073ffffffffffffffffffffffffffffffffffffffff82166001148015906103da575073ffffffffffffffffffffffffffffffffffffffff8281166000908152602081905260409020541615155b92915050565b6103e8610ca5565b600154811115610454576040517f08c379a000000000000000000000000000000000000000000000000000000000815260206004820152600560248201527f47533230310000000000000000000000000000000000000000000000000000006044820152606401610204565b60018110156104bf576040517f08c379a000000000000000000000000000000000000000000000000000000000815260206004820152600560248201527f47533230320000000000000000000000000000000000000000000000000000006044820152606401610204565b60028190556040518181527f610f7ff2b304ae8903c3de74c60c6ab1f7d6226b3f52c5161905bb5ad4039c939060200160405180910390a150565b6060600060015467ffffffffffffffff81111561051957610519610ede565b604051908082528060200260200182016040528015610542578160200160208202803683370190505b506001600090815260208190527fada5013122d395ba3c54772283fb069b10426056ef8ca54750cb9bb552a59e7d549192509073ffffffffffffffffffffffffffffffffffffffff165b73ffffffffffffffffffffffffffffffffffffffff811660011461060957808383815181106105bd576105bd610f0d565b73ffffffffffffffffffffffffffffffffffffffff928316602091820292909201810191909152918116600090815291829052604090912054168161060181610ea6565b92505061058c565b509092915050565b610619610ca5565b73ffffffffffffffffffffffffffffffffffffffff811615801590610655575073ffffffffffffffffffffffffffffffffffffffff8116600114155b8015610677575073ffffffffffffffffffffffffffffffffffffffff81163014155b6106dd576040517f08c379a000000000000000000000000000000000000000000000000000000000815260206004820152600560248201527f47533230330000000000000000000000000000000000000000000000000000006044820152606401610204565b73ffffffffffffffffffffffffffffffffffffffff818116600090815260208190526040902054161561076c576040517f08c379a000000000000000000000000000000000000000000000000000000000815260206004820152600560248201527f47533230340000000000000000000000000000000000000000000000000000006044820152606401610204565b73ffffffffffffffffffffffffffffffffffffffff8216158015906107a8575073ffffffffffffffffffffffffffffffffffffffff8216600114155b61080e576040517f08c379a000000000000000000000000000000000000000000000000000000000815260206004820152600560248201527f47533230330000000000000000000000000000000000000000000000000000006044820152606401610204565b73ffffffffffffffffffffffffffffffffffffffff8381166000908152602081905260409020548116908316146108a1576040517f08c379a000000000000000000000000000000000000000000000000000000000815260206004820152600560248201527f47533230350000000000000000000000000000000000000000000000000000006044820152606401610204565b73ffffffffffffffffffffffffffffffffffffffff828116600081815260208190526040808220805486861680855283852080549288167fffffffffffffffffffffffff00000000000000000000000000000000000000009384161790559589168452828420805482169096179095558383528054909416909355915190917ff8d49fc529812e9a7c5c50e69c20f0dccc0db8fa95c98bc58cc9a4f1c1299eaf91a260405173ffffffffffffffffffffffffffffffffffffffff8216907f9465fa0c962cc76958e6373a993326400c1c94f8be2fe3a952adfa7f60b2ea2690600090a2505050565b610991610ca5565b80600180546109a09190610f3c565b1015610a08576040517f08c379a000000000000000000000000000000000000000000000000000000000815260206004820152600560248201527f47533230310000000000000000000000000000000000000000000000000000006044820152606401610204565b73ffffffffffffffffffffffffffffffffffffffff821615801590610a44575073ffffffffffffffffffffffffffffffffffffffff8216600114155b610aaa576040517f08c379a000000000000000000000000000000000000000000000000000000000815260206004820152600560248201527f47533230330000000000000000000000000000000000000000000000000000006044820152606401610204565b73ffffffffffffffffffffffffffffffffffffffff838116600090815260208190526040902054811690831614610b3d576040517f08c379a000000000000000000000000000000000000000000000000000000000815260206004820152600560248201527f47533230350000000000000000000000000000000000000000000000000000006044820152606401610204565b73ffffffffffffffffffffffffffffffffffffffff828116600081815260208190526040808220805488861684529183208054929095167fffffffffffffffffffffffff00000000000000000000000000000000000000009283161790945591815282549091169091556001805491610bb583610f4f565b909155505060405173ffffffffffffffffffffffffffffffffffffffff8316907ff8d49fc529812e9a7c5c50e69c20f0dccc0db8fa95c98bc58cc9a4f1c1299eaf90600090a28060025414610c0d57610c0d816103e0565b505050565b6040517ff8dc5dd900000000000000000000000000000000000000000000000000000000815273ffffffffffffffffffffffffffffffffffffffff80851660048301528316602482015260448101829052309063f8dc5dd990606401600060405180830381600087803b158015610c8857600080fd5b505af1158015610c9c573d6000803e3d6000fd5b50505050505050565b333014610d0e576040517f08c379a000000000000000000000000000000000000000000000000000000000815260206004820152600560248201527f47533033310000000000000000000000000000000000000000000000000000006044820152606401610204565b565b803573ffffffffffffffffffffffffffffffffffffffff81168114610d3457600080fd5b919050565b60008060408385031215610d4c57600080fd5b610d5583610d10565b946020939093013593505050565b600060208284031215610d7557600080fd5b610d7e82610d10565b9392505050565b600060208284031215610d9757600080fd5b5035919050565b6020808252825182820181905260009190848201906040850190845b81811015610dec57835173ffffffffffffffffffffffffffffffffffffffff1683529284019291840191600101610dba565b50909695505050505050565b600080600060608486031215610e0d57600080fd5b610e1684610d10565b9250610e2460208501610d10565b9150610e3260408501610d10565b90509250925092565b600080600060608486031215610e5057600080fd5b610e5984610d10565b9250610e6760208501610d10565b9150604084013590509250925092565b7f4e487b7100000000000000000000000000000000000000000000000000000000600052601160045260246000fd5b60007fffffffffffffffffffffffffffffffffffffffffffffffffffffffffffffffff8203610ed757610ed7610e77565b5060010190565b7f4e487b7100000000000000000000000000000000000000000000000000000000600052604160045260246000fd5b7f4e487b7100000000000000000000000000000000000000000000000000000000600052603260045260246000fd5b818103818111156103da576103da610e77565b600081610f5e57610f5e610e77565b507fffffffffffffffffffffffffffffffffffffffffffffffffffffffffffffffff019056fea164736f6c6343000818000a",
    "linkReferences": {}
  },
  "methodIdentifiers": {
    "addOwnerWithThreshold(address,uint256)": "0d582f13",
    "changeThreshold(uint256)": "694e80c3",
    "getOwners()": "a0e67e2b",
    "getThreshold()": "e75235b8",
    "isOwner(address)": "2f54bf6e",
    "removeOwner(address,address,uint256)": "f8dc5dd9",
    "removeOwnerWrapped(address,address,uint256)": "fcb7a495",
    "swapOwner(address,address,address)": "e318b52b"
  },
  "storageLayout": {
    "storage": [
      {
        "astId": 32075,
        "contract": "test/safe-tools/SafeTestTools.sol:OwnerSimulator",
        "label": "owners",
        "offset": 0,
        "slot": "0",
        "type": "t_mapping(t_address,t_address)"
      },
      {
        "astId": 32077,
        "contract": "test/safe-tools/SafeTestTools.sol:OwnerSimulator",
        "label": "ownerCount",
        "offset": 0,
        "slot": "1",
        "type": "t_uint256"
      },
      {
        "astId": 32079,
        "contract": "test/safe-tools/SafeTestTools.sol:OwnerSimulator",
        "label": "threshold",
        "offset": 0,
        "slot": "2",
        "type": "t_uint256"
      }
    ],
    "types": {
      "t_address": {
        "encoding": "inplace",
        "label": "address",
        "numberOfBytes": "20"
      },
      "t_mapping(t_address,t_address)": {
        "encoding": "mapping",
        "key": "t_address",
        "label": "mapping(address => address)",
        "numberOfBytes": "32",
        "value": "t_address"
      },
      "t_uint256": {
        "encoding": "inplace",
        "label": "uint256",
        "numberOfBytes": "32"
      }
    }
  },
  "userdoc": {
    "version": 1,
    "kind": "user",
    "methods": {
      "addOwnerWithThreshold(address,uint256)": {
        "notice": "Adds the owner `owner` to the Safe and updates the threshold to `_threshold`."
      },
      "changeThreshold(uint256)": {
        "notice": "Changes the threshold of the Safe to `_threshold`."
      },
      "getOwners()": {
        "notice": "Returns a list of Safe owners."
      },
      "getThreshold()": {
        "notice": "Returns the number of required confirmations for a Safe transaction aka the threshold."
      },
      "isOwner(address)": {
        "notice": "Returns if `owner` is an owner of the Safe."
      },
      "removeOwner(address,address,uint256)": {
        "notice": "Removes the owner `owner` from the Safe and updates the threshold to `_threshold`."
      },
      "swapOwner(address,address,address)": {
        "notice": "Replaces the owner `oldOwner` in the Safe with `newOwner`."
      }
    }
  },
  "devdoc": {
    "version": 1,
    "kind": "dev",
    "details": "A minimal wrapper around the OwnerManager contract. This contract is meant to be initialized with      the same owners as a Safe instance, and then used to simulate the resulting owners list      after an owner is removed.",
    "methods": {
      "addOwnerWithThreshold(address,uint256)": {
        "details": "This can only be done via a Safe transaction.",
        "params": {
          "_threshold": "New threshold.",
          "owner": "New owner address."
        }
      },
      "changeThreshold(uint256)": {
        "details": "This can only be done via a Safe transaction.",
        "params": {
          "_threshold": "New threshold."
        }
      },
      "getOwners()": {
        "returns": {
          "_0": "Array of Safe owners."
        }
      },
      "getThreshold()": {
        "returns": {
          "_0": "Threshold number."
        }
      },
      "isOwner(address)": {
        "returns": {
          "_0": "Boolean if owner is an owner of the Safe."
        }
      },
      "removeOwner(address,address,uint256)": {
        "details": "This can only be done via a Safe transaction.",
        "params": {
          "_threshold": "New threshold.",
          "owner": "Owner address to be removed.",
          "prevOwner": "Owner that pointed to the owner to be removed in the linked list"
        }
      },
      "removeOwnerWrapped(address,address,uint256)": {
        "details": "Exposes the OwnerManager's removeOwner function so that anyone may call without needing auth"
      },
      "swapOwner(address,address,address)": {
        "details": "This can only be done via a Safe transaction.",
        "params": {
          "newOwner": "New owner address.",
          "oldOwner": "Owner address to be replaced.",
          "prevOwner": "Owner that pointed to the owner to be replaced in the linked list"
        }
      }
    }
  },
  "id": 106
}