{
  "abi": [
    {
      "inputs": [
        {
          "internalType": "uint256[]",
          "name": "ownerPKs",
          "type": "uint256[]"
        },
        {
          "internalType": "uint256",
          "name": "threshold",
          "type": "uint256"
        }
      ],
      "name": "_setupSafe",
      "outputs": [
        {
          "components": [
            {
              "internalType": "uint256",
              "name": "instanceId",
              "type": "uint256"
            },
            {
              "internalType": "uint256[]",
              "name": "ownerPKs",
              "type": "uint256[]"
            },
            {
              "internalType": "address[]",
              "name": "owners",
              "type": "address[]"
            },
            {
              "internalType": "uint256",
              "name": "threshold",
              "type": "uint256"
            },
            {
              "internalType": "contract DeployedSafe",
              "name": "safe",
              "type": "address"
            }
          ],
          "internalType": "struct SafeInstance",
          "name": "",
          "type": "tuple"
        }
      ],
      "stateMutability": "nonpayable",
      "type": "function"
    },
    {
      "inputs": [
        {
          "internalType": "uint256[]",
          "name": "ownerPKs",
          "type": "uint256[]"
        },
        {
          "internalType": "uint256",
          "name": "threshold",
          "type": "uint256"
        },
        {
          "internalType": "uint256",
          "name": "initialBalance",
          "type": "uint256"
        },
        {
          "components": [
            {
              "internalType": "bool",
              "name": "includeFallbackHandler",
              "type": "bool"
            },
            {
              "internalType": "uint256",
              "name": "saltNonce",
              "type": "uint256"
            },
            {
              "internalType": "address",
              "name": "setupModulesCall_to",
              "type": "address"
            },
            {
              "internalType": "bytes",
              "name": "setupModulesCall_data",
              "type": "bytes"
            },
            {
              "internalType": "uint256",
              "name": "refundAmount",
              "type": "uint256"
            },
            {
              "internalType": "address",
              "name": "refundToken",
              "type": "address"
            },
            {
              "internalType": "address payable",
              "name": "refundReceiver",
              "type": "address"
            },
            {
              "internalType": "bytes",
              "name": "initData",
              "type": "bytes"
            }
          ],
          "internalType": "struct AdvancedSafeInitParams",
          "name": "advancedParams",
          "type": "tuple"
        }
      ],
      "name": "_setupSafe",
      "outputs": [
        {
          "components": [
            {
              "internalType": "uint256",
              "name": "instanceId",
              "type": "uint256"
            },
            {
              "internalType": "uint256[]",
              "name": "ownerPKs",
              "type": "uint256[]"
            },
            {
              "internalType": "address[]",
              "name": "owners",
              "type": "address[]"
            },
            {
              "internalType": "uint256",
              "name": "threshold",
              "type": "uint256"
            },
            {
              "internalType": "contract DeployedSafe",
              "name": "safe",
              "type": "address"
            }
          ],
          "internalType": "struct SafeInstance",
          "name": "",
          "type": "tuple"
        }
      ],
      "stateMutability": "nonpayable",
      "type": "function"
    },
    {
      "inputs": [
        {
          "internalType": "uint256[]",
          "name": "ownerPKs",
          "type": "uint256[]"
        },
        {
          "internalType": "uint256",
          "name": "threshold",
          "type": "uint256"
        },
        {
          "internalType": "uint256",
          "name": "initialBalance",
          "type": "uint256"
        }
      ],
      "name": "_setupSafe",
      "outputs": [
        {
          "components": [
            {
              "internalType": "uint256",
              "name": "instanceId",
              "type": "uint256"
            },
            {
              "internalType": "uint256[]",
              "name": "ownerPKs",
              "type": "uint256[]"
            },
            {
              "internalType": "address[]",
              "name": "owners",
              "type": "address[]"
            },
            {
              "internalType": "uint256",
              "name": "threshold",
              "type": "uint256"
            },
            {
              "internalType": "contract DeployedSafe",
              "name": "safe",
              "type": "address"
            }
          ],
          "internalType": "struct SafeInstance",
          "name": "",
          "type": "tuple"
        }
      ],
      "stateMutability": "nonpayable",
      "type": "function"
    },
    {
      "inputs": [],
      "name": "_setupSafe",
      "outputs": [
        {
          "components": [
            {
              "internalType": "uint256",
              "name": "instanceId",
              "type": "uint256"
            },
            {
              "internalType": "uint256[]",
              "name": "ownerPKs",
              "type": "uint256[]"
            },
            {
              "internalType": "address[]",
              "name": "owners",
              "type": "address[]"
            },
            {
              "internalType": "uint256",
              "name": "threshold",
              "type": "uint256"
            },
            {
              "internalType": "contract DeployedSafe",
              "name": "safe",
              "type": "address"
            }
          ],
          "internalType": "struct SafeInstance",
          "name": "",
          "type": "tuple"
        }
      ],
      "stateMutability": "nonpayable",
      "type": "function"
    },
    {
      "inputs": [],
      "name": "getSafe",
      "outputs": [
        {
          "components": [
            {
              "internalType": "uint256",
              "name": "instanceId",
              "type": "uint256"
            },
            {
              "internalType": "uint256[]",
              "name": "ownerPKs",
              "type": "uint256[]"
            },
            {
              "internalType": "address[]",
              "name": "owners",
              "type": "address[]"
            },
            {
              "internalType": "uint256",
              "name": "threshold",
              "type": "uint256"
            },
            {
              "internalType": "contract DeployedSafe",
              "name": "safe",
              "type": "address"
            }
          ],
          "internalType": "struct SafeInstance",
          "name": "",
          "type": "tuple"
        }
      ],
      "stateMutability": "view",
      "type": "function"
    },
    {
      "inputs": [
        {
          "internalType": "address",
          "name": "_safe",
          "type": "address"
        }
      ],
      "name": "getSafe",
      "outputs": [
        {
          "components": [
            {
              "internalType": "uint256",
              "name": "instanceId",
              "type": "uint256"
            },
            {
              "internalType": "uint256[]",
              "name": "ownerPKs",
              "type": "uint256[]"
            },
            {
              "internalType": "address[]",
              "name": "owners",
              "type": "address[]"
            },
            {
              "internalType": "uint256",
              "name": "threshold",
              "type": "uint256"
            },
            {
              "internalType": "contract DeployedSafe",
              "name": "safe",
              "type": "address"
            }
          ],
          "internalType": "struct SafeInstance",
          "name": "",
          "type": "tuple"
        }
      ],
      "stateMutability": "view",
      "type": "function"
    }
  ],
  "bytecode": {
    "object": "0x60806040526040516200001290620000fc565b604051809103906000f0801580156200002f573d6000803e3d6000fd5b50600080546001600160a01b0319166001600160a01b03929092169190911790556040516200005e906200010a565b604051809103906000f0801580156200007b573d6000803e3d6000fd5b50600180546001600160a01b0319166001600160a01b0392909216919091179055604051620000aa9062000118565b604051809103906000f080158015620000c7573d6000803e3d6000fd5b50600280546001600160a01b0319166001600160a01b0392909216919091179055348015620000f557600080fd5b5062000126565b61422680620022ed83390190565b610933806200651383390190565b6111098062006e4683390190565b6121b780620001366000396000f3fe608060405234801561001057600080fd5b50600436106100725760003560e01c806368bc573e1161005057806368bc573e146100c6578063894adc65146100ce578063b38b4717146100e157600080fd5b8063080df7f114610077578063403b551a146100a05780634867cf9a146100b3575b600080fd5b61008a610085366004611974565b6100e9565b6040516100979190611a0a565b60405180910390f35b61008a6100ae366004611bae565b6101ef565b61008a6100c1366004611cd0565b610755565b61008a610852565b61008a6100dc366004611d1e565b610a85565b61008a610cfb565b6101316040518060a0016040528060008152602001606081526020016060815260200160008152602001600073ffffffffffffffffffffffffffffffffffffffff1681525090565b6101e8838369021e19e0c9bab240000060405180610100016040528060011515815260200160008152602001600073ffffffffffffffffffffffffffffffffffffffff16815260200160405180602001604052806000815250815260200160008152602001600073ffffffffffffffffffffffffffffffffffffffff168152602001600073ffffffffffffffffffffffffffffffffffffffff168152602001604051806020016040528060008152508152506101ef565b9392505050565b6102376040518060a0016040528060008152602001606081526020016060815260200160008152602001600073ffffffffffffffffffffffffffffffffffffffff1681525090565b600061024286610e4e565b90506000815167ffffffffffffffff8111156102605761026061183d565b604051908082528060200260200182016040528015610289578160200160208202803683370190505b50905060005b82518110156103d6576102c98382815181106102ad576102ad611d3b565b602002602001015160a01c6bffffffffffffffffffffffff1490565b15610355576103048382815181106102e3576102e3611d3b565b602002602001015173ffffffffffffffffffffffffffffffffffffffff1690565b82828151811061031657610316611d3b565b602002602001019073ffffffffffffffffffffffffffffffffffffffff16908173ffffffffffffffffffffffffffffffffffffffff16815250506103c4565b61037783828151811061036a5761036a611d3b565b6020026020010151611335565b82828151811061038957610389611d3b565b602002602001019073ffffffffffffffffffffffffffffffffffffffff16908173ffffffffffffffffffffffffffffffffffffffff16815250505b806103ce81611d6a565b91505061028f565b506000808560e0015151116104e4576040850151606086015186517fb63e800d000000000000000000000000000000000000000000000000000000009285928b9261042257600061043c565b60025473ffffffffffffffffffffffffffffffffffffffff165b8a60a001518b608001518c60c00151604051602401610462989796959493929190611e43565b604080517fffffffffffffffffffffffffffffffffffffffffffffffffffffffffffffffe08184030181529190526020810180517bffffffffffffffffffffffffffffffffffffffffffffffffffffffff167fffffffff00000000000000000000000000000000000000000000000000000000909316929092179091526104ea565b8460e001515b6001546000805460208901516040517f1688f0b9000000000000000000000000000000000000000000000000000000008152949550919373ffffffffffffffffffffffffffffffffffffffff93841693631688f0b9936105539390911691879190600401611f40565b6020604051808303816000875af1158015610572573d6000803e3d6000fd5b505050506040513d601f19601f820116820180604052508101906105969190611f7f565b6040805160a0810182526003805480835260208084018a8152948401899052606084018e905273ffffffffffffffffffffffffffffffffffffffff86166080850152600182018355600092909252825160059091027fc2575a0e9e593c00f959f8c92f12db2869c3395a3b0502d05e2516446f71f85b81019182559351805195965092948594919361064e937fc2575a0e9e593c00f959f8c92f12db2869c3395a3b0502d05e2516446f71f85c909301920190611745565b506040820151805161066a916002840191602090910190611790565b5060608201516003820155608090910151600491820180547fffffffffffffffffffffffff00000000000000000000000000000000000000001673ffffffffffffffffffffffffffffffffffffffff9283161790556040517fc88a5e6d0000000000000000000000000000000000000000000000000000000081529084169181019190915260248101899052737109709ecfa91a80626ff3989d68f67f5b1dd12d9063c88a5e6d90604401600060405180830381600087803b15801561072f57600080fd5b505af1158015610743573d6000803e3d6000fd5b50929c9b505050505050505050505050565b61079d6040518060a0016040528060008152602001606081526020016060815260200160008152602001600073ffffffffffffffffffffffffffffffffffffffff1681525090565b61084a84848460405180610100016040528060011515815260200160008152602001600073ffffffffffffffffffffffffffffffffffffffff16815260200160405180602001604052806000815250815260200160008152602001600073ffffffffffffffffffffffffffffffffffffffff168152602001600073ffffffffffffffffffffffffffffffffffffffff168152602001604051806020016040528060008152508152506101ef565b949350505050565b61089a6040518060a0016040528060008152602001606081526020016060815260200160008152602001600073ffffffffffffffffffffffffffffffffffffffff1681525090565b600354600003610957576040517f08c379a000000000000000000000000000000000000000000000000000000000815260206004820152604f60248201527f5341464554455354544f4f4c533a2054657374205361666520686173206e6f7460448201527f206265656e206465706c6f7965642c20757365205f736574757053616665282960648201527f2063616c6c696e67207361666528290000000000000000000000000000000000608482015260a4015b60405180910390fd5b600360008154811061096b5761096b611d3b565b90600052602060002090600502016040518060a001604052908160008201548152602001600182018054806020026020016040519081016040528092919081815260200182805480156109dd57602002820191906000526020600020905b8154815260200190600101908083116109c9575b5050505050815260200160028201805480602002602001604051908101604052809291908181526020018280548015610a4c57602002820191906000526020600020905b815473ffffffffffffffffffffffffffffffffffffffff168152600190910190602001808311610a21575b50505091835250506003820154602082015260049091015473ffffffffffffffffffffffffffffffffffffffff16604090910152919050565b610acd6040518060a0016040528060008152602001606081526020016060815260200160008152602001600073ffffffffffffffffffffffffffffffffffffffff1681525090565b60005b600354811015610c72578273ffffffffffffffffffffffffffffffffffffffff1660038281548110610b0457610b04611d3b565b600091825260209091206004600590920201015473ffffffffffffffffffffffffffffffffffffffff1603610c625760038181548110610b4657610b46611d3b565b90600052602060002090600502016040518060a00160405290816000820154815260200160018201805480602002602001604051908101604052809291908181526020018280548015610bb857602002820191906000526020600020905b815481526020019060010190808311610ba4575b5050505050815260200160028201805480602002602001604051908101604052809291908181526020018280548015610c2757602002820191906000526020600020905b815473ffffffffffffffffffffffffffffffffffffffff168152600190910190602001808311610bfc575b50505091835250506003820154602082015260049091015473ffffffffffffffffffffffffffffffffffffffff166040909101529392505050565b610c6b81611d6a565b9050610ad0565b506040517f08c379a000000000000000000000000000000000000000000000000000000000815260206004820152602660248201527f5341464554455354544f4f4c533a205361666520696e7374616e6365206e6f7460448201527f20666f756e640000000000000000000000000000000000000000000000000000606482015260840161094e565b610d436040518060a0016040528060008152602001606081526020016060815260200160008152602001600073ffffffffffffffffffffffffffffffffffffffff1681525090565b6000610d856040518060400160405280600781526020017f64656661756c740000000000000000000000000000000000000000000000000081525060036113cb565b60408051610100810182526001815281518083018352600981527f53414645205445535400000000000000000000000000000000000000000000006020918201527fbff0e1d6be3df3bedf05c892f554fbea3c6ca2bb9d224bc3f3d3fbc3ec267d1c8183015260008284018190528351808301855281815260608401526080830181905260a0830181905260c08301819052835191820190935291825260e0810191909152909250610e489150829060029069021e19e0c9bab2400000906101ef565b91505090565b60606000825167ffffffffffffffff811115610e6c57610e6c61183d565b604051908082528060200260200182016040528015610e95578160200160208202803683370190505b5090506000835167ffffffffffffffff811115610eb457610eb461183d565b604051908082528060200260200182016040528015610edd578160200160208202803683370190505b5090506000845167ffffffffffffffff811115610efc57610efc61183d565b604051908082528060200260200182016040528015610f3557816020015b610f2261180a565b815260200190600190039081610f1a5790505b50905060005b855181101561109a576000868281518110610f5857610f58611d3b565b602002602001015190506000610f6d82611335565b9050610f878260a01c6bffffffffffffffffffffffff1490565b15610fa5575073ffffffffffffffffffffffffffffffffffffffff81165b80858481518110610fb857610fb8611d3b565b73ffffffffffffffffffffffffffffffffffffffff9092166020928302919091018201526040516110079183910173ffffffffffffffffffffffffffffffffffffffff91909116815260200190565b60405160208183030381529060405261101f90611f9c565b84848151811061103157611031611d3b565b602002602001015160006002811061104b5761104b611d3b565b60200201528351829085908590811061106657611066611d3b565b602002602001015160016002811061108057611080611d3b565b60200201525081905061109281611d6a565b915050610f3b565b506040517f128424a700000000000000000000000000000000000000000000000000000000815273__$dfdc500774783d96746216ea464aa94b2d$__9063128424a7906110eb908590600401611fe1565b600060405180830381865af4158015611108573d6000803e3d6000fd5b505050506040513d6000823e601f3d9081017fffffffffffffffffffffffffffffffffffffffffffffffffffffffffffffffe016820160405261114e919081019061203b565b91506000805b835181101561127357600084828151811061117157611171611d3b565b602002602001015190506000805b855181101561123e578273ffffffffffffffffffffffffffffffffffffffff168682815181106111b1576111b1611d3b565b60200260200101516000600281106111cb576111cb611d3b565b602002015173ffffffffffffffffffffffffffffffffffffffff160361122c578581815181106111fd576111fd611d3b565b602002602001015160016002811061121757611217611d3b565b602002015191508461122881611d6a565b9550505b8061123681611d6a565b91505061117f565b508087848151811061125257611252611d3b565b6020026020010181815250505050808061126b90611d6a565b915050611154565b50855181101561132b576040517f08c379a000000000000000000000000000000000000000000000000000000000815260206004820152604d60248201527f5341464554455354544f4f4c533a20697373756520776974682070726976617460448201527f65206b657920736f7274696e672c20706c65617365206f70656e20612074696360648201527f6b6574206f6e2067697468756200000000000000000000000000000000000000608482015260a40161094e565b5091949350505050565b6040517fffa1864900000000000000000000000000000000000000000000000000000000815260048101829052600090737109709ecfa91a80626ff3989d68f67f5b1dd12d9063ffa1864990602401602060405180830381865afa1580156113a1573d6000803e3d6000fd5b505050506040513d601f19601f820116820180604052508101906113c59190611f7f565b92915050565b6060808267ffffffffffffffff8111156113e7576113e761183d565b604051908082528060200260200182016040528015611410578160200160208202803683370190505b5090508267ffffffffffffffff81111561142c5761142c61183d565b604051908082528060200260200182016040528015611455578160200160208202803683370190505b50915060005b838110156114c45760008160405160200161147891815260200190565b6040516020818303038152906040528051906020012060001c9050808383815181106114a6576114a6611d3b565b602090810291909101015250806114bc81611d6a565b91505061145b565b5060005b8381101561173d57737109709ecfa91a80626ff3989d68f67f5b1dd12d73ffffffffffffffffffffffffffffffffffffffff1663ffa1864983838151811061151257611512611d3b565b60200260200101516040518263ffffffff1660e01b815260040161153891815260200190565b602060405180830381865afa158015611555573d6000803e3d6000fd5b505050506040513d601f19601f820116820180604052508101906115799190611f7f565b83828151811061158b5761158b611d3b565b602002602001019073ffffffffffffffffffffffffffffffffffffffff16908173ffffffffffffffffffffffffffffffffffffffff1681525050737109709ecfa91a80626ff3989d68f67f5b1dd12d73ffffffffffffffffffffffffffffffffffffffff1663c657c71861160a84848151811061036a5761036a611d3b565b6040517f6900a3ae000000000000000000000000000000000000000000000000000000008152600481018590528890737109709ecfa91a80626ff3989d68f67f5b1dd12d90636900a3ae90602401600060405180830381865afa158015611675573d6000803e3d6000fd5b505050506040513d6000823e601f3d9081017fffffffffffffffffffffffffffffffffffffffffffffffffffffffffffffffe01682016040526116bb91908101906120d5565b6040516020016116cc92919061214c565b6040516020818303038152906040526040518363ffffffff1660e01b81526004016116f892919061217b565b600060405180830381600087803b15801561171257600080fd5b505af1158015611726573d6000803e3d6000fd5b50505050808061173590611d6a565b9150506114c8565b509250929050565b828054828255906000526020600020908101928215611780579160200282015b82811115611780578251825591602001919060010190611765565b5061178c929150611828565b5090565b828054828255906000526020600020908101928215611780579160200282015b8281111561178057825182547fffffffffffffffffffffffff00000000000000000000000000000000000000001673ffffffffffffffffffffffffffffffffffffffff9091161782556020909201916001909101906117b0565b60405180604001604052806002906020820280368337509192915050565b5b8082111561178c5760008155600101611829565b7f4e487b7100000000000000000000000000000000000000000000000000000000600052604160045260246000fd5b604051610100810167ffffffffffffffff811182821017156118905761189061183d565b60405290565b604051601f82017fffffffffffffffffffffffffffffffffffffffffffffffffffffffffffffffe016810167ffffffffffffffff811182821017156118dd576118dd61183d565b604052919050565b600067ffffffffffffffff8211156118ff576118ff61183d565b5060051b60200190565b600082601f83011261191a57600080fd5b8135602061192f61192a836118e5565b611896565b82815260059290921b8401810191818101908684111561194e57600080fd5b8286015b848110156119695780358352918301918301611952565b509695505050505050565b6000806040838503121561198757600080fd5b823567ffffffffffffffff81111561199e57600080fd5b6119aa85828601611909565b95602094909401359450505050565b600081518084526020808501945080840160005b838110156119ff57815173ffffffffffffffffffffffffffffffffffffffff16875295820195908201906001016119cd565b509495945050505050565b60208082528251828201528281015160a06040840152805160c0840181905260009291820190839060e08601905b80831015611a585783518252928401926001929092019190840190611a38565b50604087015193507fffffffffffffffffffffffffffffffffffffffffffffffffffffffffffffffe0868203016060870152611a9481856119b9565b9350505050606084015160808401526080840151611aca60a085018273ffffffffffffffffffffffffffffffffffffffff169052565b509392505050565b80358015158114611ae257600080fd5b919050565b73ffffffffffffffffffffffffffffffffffffffff81168114611b0957600080fd5b50565b8035611ae281611ae7565b600067ffffffffffffffff821115611b3157611b3161183d565b50601f017fffffffffffffffffffffffffffffffffffffffffffffffffffffffffffffffe01660200190565b600082601f830112611b6e57600080fd5b8135611b7c61192a82611b17565b818152846020838601011115611b9157600080fd5b816020850160208301376000918101602001919091529392505050565b60008060008060808587031215611bc457600080fd5b843567ffffffffffffffff80821115611bdc57600080fd5b611be888838901611909565b955060208701359450604087013593506060870135915080821115611c0c57600080fd5b908601906101008289031215611c2157600080fd5b611c2961186c565b611c3283611ad2565b815260208301356020820152611c4a60408401611b0c565b6040820152606083013582811115611c6157600080fd5b611c6d8a828601611b5d565b60608301525060808301356080820152611c8960a08401611b0c565b60a0820152611c9a60c08401611b0c565b60c082015260e083013582811115611cb157600080fd5b611cbd8a828601611b5d565b60e0830152509598949750929550505050565b600080600060608486031215611ce557600080fd5b833567ffffffffffffffff811115611cfc57600080fd5b611d0886828701611909565b9660208601359650604090950135949350505050565b600060208284031215611d3057600080fd5b81356101e881611ae7565b7f4e487b7100000000000000000000000000000000000000000000000000000000600052603260045260246000fd5b60007fffffffffffffffffffffffffffffffffffffffffffffffffffffffffffffffff8203611dc2577f4e487b7100000000000000000000000000000000000000000000000000000000600052601160045260246000fd5b5060010190565b60005b83811015611de4578181015183820152602001611dcc565b83811115611df3576000848401525b50505050565b60008151808452611e11816020860160208601611dc9565b601f017fffffffffffffffffffffffffffffffffffffffffffffffffffffffffffffffe0169290920160200192915050565b6101008082528951908201819052600090610120830190602090818d01845b82811015611e9457815173ffffffffffffffffffffffffffffffffffffffff1685529383019390830190600101611e62565b50505083018a905273ffffffffffffffffffffffffffffffffffffffff891660408401528281036060840152611eca8189611df9565b915050611eef608083018773ffffffffffffffffffffffffffffffffffffffff169052565b73ffffffffffffffffffffffffffffffffffffffff851660a08301528360c0830152611f3360e083018473ffffffffffffffffffffffffffffffffffffffff169052565b9998505050505050505050565b73ffffffffffffffffffffffffffffffffffffffff84168152606060208201526000611f6f6060830185611df9565b9050826040830152949350505050565b600060208284031215611f9157600080fd5b81516101e881611ae7565b80516020808301519190811015611fdb577fffffffffffffffffffffffffffffffffffffffffffffffffffffffffffffffff8160200360031b1b821691505b50919050565b6020808252825182820181905260009190848201906040850190845b8181101561202f57835173ffffffffffffffffffffffffffffffffffffffff1683529284019291840191600101611ffd565b50909695505050505050565b6000602080838503121561204e57600080fd5b825167ffffffffffffffff81111561206557600080fd5b8301601f8101851361207657600080fd5b805161208461192a826118e5565b81815260059190911b820183019083810190878311156120a357600080fd5b928401925b828410156120ca5783516120bb81611ae7565b825292840192908401906120a8565b979650505050505050565b6000602082840312156120e757600080fd5b815167ffffffffffffffff8111156120fe57600080fd5b8201601f8101841361210f57600080fd5b805161211d61192a82611b17565b81815285602083850101111561213257600080fd5b612143826020830160208601611dc9565b95945050505050565b6000835161215e818460208801611dc9565b835190830190612172818360208801611dc9565b01949350505050565b73ffffffffffffffffffffffffffffffffffffffff8316815260406020820152600061084a6040830184611df956fea164736f6c634300080f000a608060405234801561001057600080fd5b506001600455614201806100256000396000f3fe6080604052600436106101d15760003560e01c8063affed0e0116100f7578063e19a9dd911610095578063f08a032311610064578063f08a0323146105f5578063f698da2514610615578063f8dc5dd91461067c578063ffa1ad741461069c5761020d565b8063e19a9dd914610580578063e318b52b146105a0578063e75235b8146105c0578063e86637db146105d55761020d565b8063cc2f8452116100d1578063cc2f8452146104f2578063d4d9bdcd14610520578063d8d11f7814610540578063e009cfde146105605761020d565b8063affed0e01461049c578063b4faba09146104b2578063b63e800d146104d25761020d565b80635624b25b1161016f5780636a7612021161013e5780636a7612021461040f5780637d83297414610422578063934f3a111461045a578063a0e67e2b1461047a5761020d565b80635624b25b146103755780635ae6bd37146103a2578063610b5925146103cf578063694e80c3146103ef5761020d565b80632f54bf6e116101ab5780632f54bf6e146102ea5780633408e4701461030a578063468721a7146103275780635229073f146103475761020d565b80630d582f131461027357806312fb68e0146102955780632d9ad53d146102b55761020d565b3661020d5760405134815233907f3d0ce9bfc3ed7d6862dbb28b2dea94561fe714a1b4d019aa8af39730d1ad7c3d9060200160405180910390a2005b34801561021957600080fd5b507f6c9a6c4a39284e37ed1cf53d337577d14212a4870fb976a4366c693b939918d580548061024457005b36600080373360601b365260008060143601600080855af190503d6000803e8061026d573d6000fd5b503d6000f35b34801561027f57600080fd5b5061029361028e366004613568565b6106e5565b005b3480156102a157600080fd5b506102936102b036600461366e565b610933565b3480156102c157600080fd5b506102d56102d03660046136e3565b610ff7565b60405190151581526020015b60405180910390f35b3480156102f657600080fd5b506102d56103053660046136e3565b61104c565b34801561031657600080fd5b50465b6040519081526020016102e1565b34801561033357600080fd5b506102d561034236600461370f565b61109e565b34801561035357600080fd5b5061036761036236600461370f565b6111d4565b6040516102e19291906137e4565b34801561038157600080fd5b506103956103903660046137ff565b61120a565b6040516102e19190613821565b3480156103ae57600080fd5b506103196103bd366004613834565b60076020526000908152604090205481565b3480156103db57600080fd5b506102936103ea3660046136e3565b611290565b3480156103fb57600080fd5b5061029361040a366004613834565b611479565b6102d561041d366004613896565b611593565b34801561042e57600080fd5b5061031961043d366004613568565b600860209081526000928352604080842090915290825290205481565b34801561046657600080fd5b5061029361047536600461396f565b61198f565b34801561048657600080fd5b5061048f611a0b565b6040516102e19190613a2d565b3480156104a857600080fd5b5061031960055481565b3480156104be57600080fd5b506102936104cd366004613a40565b611b23565b3480156104de57600080fd5b506102936104ed366004613a90565b611b46565b3480156104fe57600080fd5b5061051261050d366004613568565b611c62565b6040516102e1929190613b85565b34801561052c57600080fd5b5061029361053b366004613834565b611ed0565b34801561054c57600080fd5b5061031961055b366004613bbd565b611fa4565b34801561056c57600080fd5b5061029361057b366004613c7e565b611fd1565b34801561058c57600080fd5b5061029361059b3660046136e3565b6121a3565b3480156105ac57600080fd5b506102936105bb366004613cb7565b612344565b3480156105cc57600080fd5b50600454610319565b3480156105e157600080fd5b506103956105f0366004613bbd565b6126bc565b34801561060157600080fd5b506102936106103660046136e3565b612855565b34801561062157600080fd5b5061031960007f47e79534a245952e8b16893a336b85a3d9ea9fa8c573f3d803afb92a794692184660408051602081019390935282015230606082015260800160405160208183030381529060405280519060200120905090565b34801561068857600080fd5b50610293610697366004613d02565b6128aa565b3480156106a857600080fd5b506103956040518060400160405280600581526020017f312e342e3000000000000000000000000000000000000000000000000000000081525081565b6106ed612b34565b73ffffffffffffffffffffffffffffffffffffffff821615801590610729575073ffffffffffffffffffffffffffffffffffffffff8216600114155b801561074b575073ffffffffffffffffffffffffffffffffffffffff82163014155b6107b6576040517f08c379a000000000000000000000000000000000000000000000000000000000815260206004820152600560248201527f475332303300000000000000000000000000000000000000000000000000000060448201526064015b60405180910390fd5b73ffffffffffffffffffffffffffffffffffffffff8281166000908152600260205260409020541615610845576040517f08c379a000000000000000000000000000000000000000000000000000000000815260206004820152600560248201527f475332303400000000000000000000000000000000000000000000000000000060448201526064016107ad565b60026020527fe90b7bceb6e7df5418fb78d8ee546e97c83a08bbccc01a0644d599ccd2a7c2e0805473ffffffffffffffffffffffffffffffffffffffff8481166000818152604081208054939094167fffffffffffffffffffffffff0000000000000000000000000000000000000000938416179093556001835283549091161790915560038054916108d783613d72565b909155505060405173ffffffffffffffffffffffffffffffffffffffff8316907f9465fa0c962cc76958e6373a993326400c1c94f8be2fe3a952adfa7f60b2ea2690600090a2806004541461092f5761092f81611479565b5050565b61093e816041612b9f565b825110156109a8576040517f08c379a000000000000000000000000000000000000000000000000000000000815260206004820152600560248201527f475330323000000000000000000000000000000000000000000000000000000060448201526064016107ad565b6000808060008060005b86811015610feb576041818102890160208101516040820151919092015160ff16955090935091506000849003610cf857885160208a01208a14610a52576040517f08c379a000000000000000000000000000000000000000000000000000000000815260206004820152600560248201527f475330323700000000000000000000000000000000000000000000000000000060448201526064016107ad565b9193508391610a62876041612b9f565b821015610acb576040517f08c379a000000000000000000000000000000000000000000000000000000000815260206004820152600560248201527f475330323100000000000000000000000000000000000000000000000000000060448201526064016107ad565b8751610ad8836020612bdb565b1115610b40576040517f08c379a000000000000000000000000000000000000000000000000000000000815260206004820152600560248201527f475330323200000000000000000000000000000000000000000000000000000060448201526064016107ad565b602082890181015189519091610b63908390610b5d908790612bdb565b90612bdb565b1115610bcb576040517f08c379a000000000000000000000000000000000000000000000000000000000815260206004820152600560248201527f475330323300000000000000000000000000000000000000000000000000000060448201526064016107ad565b6040517f20c13b0b000000000000000000000000000000000000000000000000000000008082528a85016020019173ffffffffffffffffffffffffffffffffffffffff8916906320c13b0b90610c27908f908690600401613daa565b602060405180830381865afa158015610c44573d6000803e3d6000fd5b505050506040513d601f19601f82011682018060405250810190610c689190613dcf565b7fffffffff000000000000000000000000000000000000000000000000000000001614610cf1576040517f08c379a000000000000000000000000000000000000000000000000000000000815260206004820152600560248201527f475330323400000000000000000000000000000000000000000000000000000060448201526064016107ad565b5050610eeb565b8360ff16600103610dc65791935083913373ffffffffffffffffffffffffffffffffffffffff84161480610d5b575073ffffffffffffffffffffffffffffffffffffffff851660009081526008602090815260408083208d845290915290205415155b610dc1576040517f08c379a000000000000000000000000000000000000000000000000000000000815260206004820152600560248201527f475330323500000000000000000000000000000000000000000000000000000060448201526064016107ad565b610eeb565b601e8460ff161115610e8b576040517f19457468657265756d205369676e6564204d6573736167653a0a3332000000006020820152603c81018b9052600190605c0160405160208183030381529060405280519060200120600486610e2b9190613e11565b6040805160008152602081018083529390935260ff90911690820152606081018590526080810184905260a0016020604051602081039080840390855afa158015610e7a573d6000803e3d6000fd5b505050602060405103519450610eeb565b6040805160008152602081018083528c905260ff861691810191909152606081018490526080810183905260019060a0016020604051602081039080840390855afa158015610ede573d6000803e3d6000fd5b5050506020604051035194505b8573ffffffffffffffffffffffffffffffffffffffff168573ffffffffffffffffffffffffffffffffffffffff16118015610f4c575073ffffffffffffffffffffffffffffffffffffffff8581166000908152600260205260409020541615155b8015610f6f575073ffffffffffffffffffffffffffffffffffffffff8516600114155b610fd5576040517f08c379a000000000000000000000000000000000000000000000000000000000815260206004820152600560248201527f475330323600000000000000000000000000000000000000000000000000000060448201526064016107ad565b8495508080610fe390613d72565b9150506109b2565b50505050505050505050565b6000600173ffffffffffffffffffffffffffffffffffffffff831614801590611046575073ffffffffffffffffffffffffffffffffffffffff8281166000908152600160205260409020541615155b92915050565b600073ffffffffffffffffffffffffffffffffffffffff821660011480159061104657505073ffffffffffffffffffffffffffffffffffffffff90811660009081526002602052604090205416151590565b6000336001148015906110d557503360009081526001602052604090205473ffffffffffffffffffffffffffffffffffffffff1615155b61113b576040517f08c379a000000000000000000000000000000000000000000000000000000000815260206004820152600560248201527f475331303400000000000000000000000000000000000000000000000000000060448201526064016107ad565b611168858585857fffffffffffffffffffffffffffffffffffffffffffffffffffffffffffffffff612bf7565b905080156111a05760405133907f6895c13664aa4f67288b25d7a21d7aaa34916e355fb9b6fae0a139a9085becb890600090a26111cc565b60405133907facd2c8702804128fdb0db2bb49f6d127dd0181c13fd45dbfe16de0930e2bd37590600090a25b949350505050565b600060606111e48686868661109e565b915060405160203d0181016040523d81523d6000602083013e8091505094509492505050565b60606000611219836020613e34565b67ffffffffffffffff81111561123157611231613594565b6040519080825280601f01601f19166020018201604052801561125b576020820181803683370190505b50905060005b8381101561128857848101546020808302840101528061128081613d72565b915050611261565b509392505050565b611298612b34565b73ffffffffffffffffffffffffffffffffffffffff8116158015906112d4575073ffffffffffffffffffffffffffffffffffffffff8116600114155b61133a576040517f08c379a000000000000000000000000000000000000000000000000000000000815260206004820152600560248201527f475331303100000000000000000000000000000000000000000000000000000060448201526064016107ad565b73ffffffffffffffffffffffffffffffffffffffff81811660009081526001602052604090205416156113c9576040517f08c379a000000000000000000000000000000000000000000000000000000000815260206004820152600560248201527f475331303200000000000000000000000000000000000000000000000000000060448201526064016107ad565b600160208190527fcc69885fda6bcc1a4ace058b4a62bf5e179ea78fd58a1ccd71c22cc9b688792f805473ffffffffffffffffffffffffffffffffffffffff848116600081815260408082208054949095167fffffffffffffffffffffffff000000000000000000000000000000000000000094851617909455948552835490911681179092555190917fecdf3a3effea5783a3c4c2140e677577666428d44ed9d474a0b3a4c9943f844091a250565b611481612b34565b6003548111156114ed576040517f08c379a000000000000000000000000000000000000000000000000000000000815260206004820152600560248201527f475332303100000000000000000000000000000000000000000000000000000060448201526064016107ad565b6001811015611558576040517f08c379a000000000000000000000000000000000000000000000000000000000815260206004820152600560248201527f475332303200000000000000000000000000000000000000000000000000000060448201526064016107ad565b60048190556040518181527f610f7ff2b304ae8903c3de74c60c6ab1f7d6226b3f52c5161905bb5ad4039c939060200160405180910390a150565b60008060006115ad8e8e8e8e8e8e8e8e8e8e6005546126bc565b6005805491925060006115bf83613d72565b90915550508051602082012091506115d882828661198f565b5060006116037f4a204f620c8c5ccdca3fd54d003badd85ba500436a431f0cbda4f558c93c34c85490565b905073ffffffffffffffffffffffffffffffffffffffff8116156116a3578073ffffffffffffffffffffffffffffffffffffffff166375f0bb528f8f8f8f8f8f8f8f8f8f8f336040518d63ffffffff1660e01b81526004016116709c9b9a99989796959493929190613edb565b600060405180830381600087803b15801561168a57600080fd5b505af115801561169e573d6000803e3d6000fd5b505050505b6116cf6116b28a6109c4613ff1565b603f6116bf8c6040613e34565b6116c99190614009565b90612c3e565b6116db906101f4613ff1565b5a1015611744576040517f08c379a000000000000000000000000000000000000000000000000000000000815260206004820152600560248201527f475330313000000000000000000000000000000000000000000000000000000060448201526064016107ad565b60005a90506117b58f8f8f8f8080601f016020809104026020016040519081016040528093929190818152602001838380828437600081840152601f19601f820116905080830192505050505050508e8c6000146117a2578e612bf7565b6109c45a6117b09190614044565b612bf7565b93506117c25a8290612c55565b905083806117cf57508915155b806117d957508715155b61183f576040517f08c379a000000000000000000000000000000000000000000000000000000000815260206004820152600560248201527f475330313300000000000000000000000000000000000000000000000000000060448201526064016107ad565b6000881561185757611854828b8b8b8b612c70565b90505b841561189c57837f442e715f626346e8c54381002da614f62bee8d27386535b2521ec8540898556e8260405161188f91815260200190565b60405180910390a26118d7565b837f23428b18acfb3ea64b08dc0c1d296ea9c09702c09083ca5272e64d115b687d23826040516118ce91815260200190565b60405180910390a25b505073ffffffffffffffffffffffffffffffffffffffff81161561197e576040517f9327136800000000000000000000000000000000000000000000000000000000815260048101839052831515602482015273ffffffffffffffffffffffffffffffffffffffff821690639327136890604401600060405180830381600087803b15801561196557600080fd5b505af1158015611979573d6000803e3d6000fd5b505050505b50509b9a5050505050505050505050565b600454806119f9576040517f08c379a000000000000000000000000000000000000000000000000000000000815260206004820152600560248201527f475330303100000000000000000000000000000000000000000000000000000060448201526064016107ad565b611a0584848484610933565b50505050565b6060600060035467ffffffffffffffff811115611a2a57611a2a613594565b604051908082528060200260200182016040528015611a53578160200160208202803683370190505b506001600090815260026020527fe90b7bceb6e7df5418fb78d8ee546e97c83a08bbccc01a0644d599ccd2a7c2e0549192509073ffffffffffffffffffffffffffffffffffffffff165b73ffffffffffffffffffffffffffffffffffffffff8116600114611b1b5780838381518110611ace57611ace61405b565b73ffffffffffffffffffffffffffffffffffffffff928316602091820292909201810191909152918116600090815260029092526040909120541681611b1381613d72565b925050611a9d565b509092915050565b600080825160208401855af480600052503d6020523d600060403e60403d016000fd5b611b848a8a808060200260200160405190810160405280939291908181526020018383602002808284376000920191909152508c9250612e01915050565b73ffffffffffffffffffffffffffffffffffffffff841615611ba957611ba9846131ce565b611be98787878080601f01602080910402602001604051908101604052809392919081815260200183838082843760009201919091525061327192505050565b8115611c0057611bfe82600060018685612c70565b505b3373ffffffffffffffffffffffffffffffffffffffff167f141df868a6331af528e38c83b7aa03edc19be66e37ae67f9285bf4f8e3c6a1a88b8b8b8b89604051611c4e95949392919061408a565b60405180910390a250505050505050505050565b6060600073ffffffffffffffffffffffffffffffffffffffff841660011480611c8f5750611c8f84610ff7565b611cf5576040517f08c379a000000000000000000000000000000000000000000000000000000000815260206004820152600560248201527f475331303500000000000000000000000000000000000000000000000000000060448201526064016107ad565b60008311611d5f576040517f08c379a000000000000000000000000000000000000000000000000000000000815260206004820152600560248201527f475331303600000000000000000000000000000000000000000000000000000060448201526064016107ad565b8267ffffffffffffffff811115611d7857611d78613594565b604051908082528060200260200182016040528015611da1578160200160208202803683370190505b5073ffffffffffffffffffffffffffffffffffffffff808616600090815260016020526040812054929450911691505b73ffffffffffffffffffffffffffffffffffffffff821615801590611e0d575073ffffffffffffffffffffffffffffffffffffffff8216600114155b8015611e1857508381105b15611e805781838281518110611e3057611e3061405b565b73ffffffffffffffffffffffffffffffffffffffff928316602091820292909201810191909152928116600090815260019093526040909220549091169080611e7881613d72565b915050611dd1565b73ffffffffffffffffffffffffffffffffffffffff8216600114611ec55782611eaa600183614044565b81518110611eba57611eba61405b565b602002602001015191505b808352509250929050565b3360009081526002602052604090205473ffffffffffffffffffffffffffffffffffffffff16611f5c576040517f08c379a000000000000000000000000000000000000000000000000000000000815260206004820152600560248201527f475330333000000000000000000000000000000000000000000000000000000060448201526064016107ad565b336000818152600860209081526040808320858452909152808220600190555183917ff2a0eb156472d1440255b0d7c1e19cc07115d1051fe605b0dce69acfec884d9c91a350565b6000611fb98c8c8c8c8c8c8c8c8c8c8c6126bc565b8051906020012090509b9a5050505050505050505050565b611fd9612b34565b73ffffffffffffffffffffffffffffffffffffffff811615801590612015575073ffffffffffffffffffffffffffffffffffffffff8116600114155b61207b576040517f08c379a000000000000000000000000000000000000000000000000000000000815260206004820152600560248201527f475331303100000000000000000000000000000000000000000000000000000060448201526064016107ad565b73ffffffffffffffffffffffffffffffffffffffff82811660009081526001602052604090205481169082161461210e576040517f08c379a000000000000000000000000000000000000000000000000000000000815260206004820152600560248201527f475331303300000000000000000000000000000000000000000000000000000060448201526064016107ad565b73ffffffffffffffffffffffffffffffffffffffff818116600081815260016020526040808220805487861684528284208054919096167fffffffffffffffffffffffff0000000000000000000000000000000000000000918216179095558383528054909416909355915190917faab4fa2b463f581b2b32cb3b7e3b704b9ce37cc209b5fb4d77e593ace405427691a25050565b6121ab612b34565b73ffffffffffffffffffffffffffffffffffffffff8116156122db576040517f01ffc9a70000000000000000000000000000000000000000000000000000000081527fe6d7a83a00000000000000000000000000000000000000000000000000000000600482015273ffffffffffffffffffffffffffffffffffffffff8216906301ffc9a790602401602060405180830381865afa158015612251573d6000803e3d6000fd5b505050506040513d601f19601f820116820180604052508101906122759190614110565b6122db576040517f08c379a000000000000000000000000000000000000000000000000000000000815260206004820152600560248201527f475333303000000000000000000000000000000000000000000000000000000060448201526064016107ad565b7f4a204f620c8c5ccdca3fd54d003badd85ba500436a431f0cbda4f558c93c34c881815560405173ffffffffffffffffffffffffffffffffffffffff8316907f1151116914515bc0891ff9047a6cb32cf902546f83066499bcf8ba33d2353fa290600090a25050565b61234c612b34565b73ffffffffffffffffffffffffffffffffffffffff811615801590612388575073ffffffffffffffffffffffffffffffffffffffff8116600114155b80156123aa575073ffffffffffffffffffffffffffffffffffffffff81163014155b612410576040517f08c379a000000000000000000000000000000000000000000000000000000000815260206004820152600560248201527f475332303300000000000000000000000000000000000000000000000000000060448201526064016107ad565b73ffffffffffffffffffffffffffffffffffffffff818116600090815260026020526040902054161561249f576040517f08c379a000000000000000000000000000000000000000000000000000000000815260206004820152600560248201527f475332303400000000000000000000000000000000000000000000000000000060448201526064016107ad565b73ffffffffffffffffffffffffffffffffffffffff8216158015906124db575073ffffffffffffffffffffffffffffffffffffffff8216600114155b612541576040517f08c379a000000000000000000000000000000000000000000000000000000000815260206004820152600560248201527f475332303300000000000000000000000000000000000000000000000000000060448201526064016107ad565b73ffffffffffffffffffffffffffffffffffffffff8381166000908152600260205260409020548116908316146125d4576040517f08c379a000000000000000000000000000000000000000000000000000000000815260206004820152600560248201527f475332303500000000000000000000000000000000000000000000000000000060448201526064016107ad565b73ffffffffffffffffffffffffffffffffffffffff828116600081815260026020526040808220805486861680855283852080549288167fffffffffffffffffffffffff00000000000000000000000000000000000000009384161790559589168452828420805482169096179095558383528054909416909355915190917ff8d49fc529812e9a7c5c50e69c20f0dccc0db8fa95c98bc58cc9a4f1c1299eaf91a260405173ffffffffffffffffffffffffffffffffffffffff8216907f9465fa0c962cc76958e6373a993326400c1c94f8be2fe3a952adfa7f60b2ea2690600090a2505050565b606060007fbb8310d486368db6bd6f849402fdd73ad53d316b5a4b2644ad6efe0f941286d860001b8d8d8d8d6040516126f6929190614132565b60405190819003812061271c949392918e908e908e908e908e908e908e90602001614142565b604080517fffffffffffffffffffffffffffffffffffffffffffffffffffffffffffffffe0818403018152919052805160209091012090507f19000000000000000000000000000000000000000000000000000000000000007f01000000000000000000000000000000000000000000000000000000000000006127f060007f47e79534a245952e8b16893a336b85a3d9ea9fa8c573f3d803afb92a794692184660408051602081019390935282015230606082015260800160405160208183030381529060405280519060200120905090565b6040517fff0000000000000000000000000000000000000000000000000000000000000093841660208201529290911660218301526022820152604281018290526062016040516020818303038152906040529150509b9a5050505050505050505050565b61285d612b34565b612866816131ce565b60405173ffffffffffffffffffffffffffffffffffffffff8216907f5ac6c46c93c8d0e53714ba3b53db3e7c046da994313d7ed0d192028bc7c228b090600090a250565b6128b2612b34565b8060016003546128c29190614044565b101561292a576040517f08c379a000000000000000000000000000000000000000000000000000000000815260206004820152600560248201527f475332303100000000000000000000000000000000000000000000000000000060448201526064016107ad565b73ffffffffffffffffffffffffffffffffffffffff821615801590612966575073ffffffffffffffffffffffffffffffffffffffff8216600114155b6129cc576040517f08c379a000000000000000000000000000000000000000000000000000000000815260206004820152600560248201527f475332303300000000000000000000000000000000000000000000000000000060448201526064016107ad565b73ffffffffffffffffffffffffffffffffffffffff838116600090815260026020526040902054811690831614612a5f576040517f08c379a000000000000000000000000000000000000000000000000000000000815260206004820152600560248201527f475332303500000000000000000000000000000000000000000000000000000060448201526064016107ad565b73ffffffffffffffffffffffffffffffffffffffff828116600081815260026020526040808220805488861684529183208054929095167fffffffffffffffffffffffff00000000000000000000000000000000000000009283161790945591815282549091169091556003805491612ad7836141bf565b909155505060405173ffffffffffffffffffffffffffffffffffffffff8316907ff8d49fc529812e9a7c5c50e69c20f0dccc0db8fa95c98bc58cc9a4f1c1299eaf90600090a28060045414612b2f57612b2f81611479565b505050565b333014612b9d576040517f08c379a000000000000000000000000000000000000000000000000000000000815260206004820152600560248201527f475330333100000000000000000000000000000000000000000000000000000060448201526064016107ad565b565b600082600003612bb157506000611046565b6000612bbd8385613e34565b905082612bca8583614009565b14612bd457600080fd5b9392505050565b600080612be88385613ff1565b905083811015612bd457600080fd5b60006001836001811115612c0d57612c0d613e71565b03612c25576000808551602087018986f49050612c35565b600080855160208701888a87f190505b95945050505050565b600081831015612c4e5781612bd4565b5090919050565b600082821115612c6457600080fd5b60006111cc8385614044565b60008073ffffffffffffffffffffffffffffffffffffffff831615612c955782612c97565b325b905073ffffffffffffffffffffffffffffffffffffffff8416612d7657612cd63a8610612cc4573a612cc6565b855b612cd08989612bdb565b90612b9f565b60405190925073ffffffffffffffffffffffffffffffffffffffff82169083156108fc029084906000818181858888f19350505050612d71576040517f08c379a000000000000000000000000000000000000000000000000000000000815260206004820152600560248201527f475330313100000000000000000000000000000000000000000000000000000060448201526064016107ad565b612df7565b612d8485612cd08989612bdb565b9150612d91848284613469565b612df7576040517f08c379a000000000000000000000000000000000000000000000000000000000815260206004820152600560248201527f475330313200000000000000000000000000000000000000000000000000000060448201526064016107ad565b5095945050505050565b60045415612e6b576040517f08c379a000000000000000000000000000000000000000000000000000000000815260206004820152600560248201527f475332303000000000000000000000000000000000000000000000000000000060448201526064016107ad565b8151811115612ed6576040517f08c379a000000000000000000000000000000000000000000000000000000000815260206004820152600560248201527f475332303100000000000000000000000000000000000000000000000000000060448201526064016107ad565b6001811015612f41576040517f08c379a000000000000000000000000000000000000000000000000000000000815260206004820152600560248201527f475332303200000000000000000000000000000000000000000000000000000060448201526064016107ad565b600160005b8351811015613176576000848281518110612f6357612f6361405b565b60200260200101519050600073ffffffffffffffffffffffffffffffffffffffff168173ffffffffffffffffffffffffffffffffffffffff1614158015612fc1575073ffffffffffffffffffffffffffffffffffffffff8116600114155b8015612fe3575073ffffffffffffffffffffffffffffffffffffffff81163014155b801561301b57508073ffffffffffffffffffffffffffffffffffffffff168373ffffffffffffffffffffffffffffffffffffffff1614155b613081576040517f08c379a000000000000000000000000000000000000000000000000000000000815260206004820152600560248201527f475332303300000000000000000000000000000000000000000000000000000060448201526064016107ad565b73ffffffffffffffffffffffffffffffffffffffff8181166000908152600260205260409020541615613110576040517f08c379a000000000000000000000000000000000000000000000000000000000815260206004820152600560248201527f475332303400000000000000000000000000000000000000000000000000000060448201526064016107ad565b73ffffffffffffffffffffffffffffffffffffffff928316600090815260026020526040902080547fffffffffffffffffffffffff000000000000000000000000000000000000000016938216939093179092558061316e81613d72565b915050612f46565b5073ffffffffffffffffffffffffffffffffffffffff16600090815260026020526040902080547fffffffffffffffffffffffff00000000000000000000000000000000000000001660011790559051600355600455565b3073ffffffffffffffffffffffffffffffffffffffff82160361324d576040517f08c379a000000000000000000000000000000000000000000000000000000000815260206004820152600560248201527f475334303000000000000000000000000000000000000000000000000000000060448201526064016107ad565b7f6c9a6c4a39284e37ed1cf53d337577d14212a4870fb976a4366c693b939918d555565b600160008190526020527fcc69885fda6bcc1a4ace058b4a62bf5e179ea78fd58a1ccd71c22cc9b688792f5473ffffffffffffffffffffffffffffffffffffffff161561331a576040517f08c379a000000000000000000000000000000000000000000000000000000000815260206004820152600560248201527f475331303000000000000000000000000000000000000000000000000000000060448201526064016107ad565b6001600081905260208190527fcc69885fda6bcc1a4ace058b4a62bf5e179ea78fd58a1ccd71c22cc9b688792f80547fffffffffffffffffffffffff000000000000000000000000000000000000000016909117905573ffffffffffffffffffffffffffffffffffffffff82161561092f57813b6133f4576040517f08c379a000000000000000000000000000000000000000000000000000000000815260206004820152600560248201527f475330303200000000000000000000000000000000000000000000000000000060448201526064016107ad565b6134038260008360015a612bf7565b61092f576040517f08c379a000000000000000000000000000000000000000000000000000000000815260206004820152600560248201527f475330303000000000000000000000000000000000000000000000000000000060448201526064016107ad565b6040805173ffffffffffffffffffffffffffffffffffffffff841660248201526044808201849052825180830390910181526064909101909152602080820180517bffffffffffffffffffffffffffffffffffffffffffffffffffffffff167fa9059cbb000000000000000000000000000000000000000000000000000000001781528251600093929184919082896127105a03f13d8015613516576020811461351e5760009350613529565b819350613529565b600051158215171593505b5050509392505050565b73ffffffffffffffffffffffffffffffffffffffff8116811461355557600080fd5b50565b803561356381613533565b919050565b6000806040838503121561357b57600080fd5b823561358681613533565b946020939093013593505050565b7f4e487b7100000000000000000000000000000000000000000000000000000000600052604160045260246000fd5b600082601f8301126135d457600080fd5b813567ffffffffffffffff808211156135ef576135ef613594565b604051601f83017fffffffffffffffffffffffffffffffffffffffffffffffffffffffffffffffe0908116603f0116810190828211818310171561363557613635613594565b8160405283815286602085880101111561364e57600080fd5b836020870160208301376000602085830101528094505050505092915050565b6000806000806080858703121561368457600080fd5b84359350602085013567ffffffffffffffff808211156136a357600080fd5b6136af888389016135c3565b945060408701359150808211156136c557600080fd5b506136d2878288016135c3565b949793965093946060013593505050565b6000602082840312156136f557600080fd5b8135612bd481613533565b80356002811061356357600080fd5b6000806000806080858703121561372557600080fd5b843561373081613533565b935060208501359250604085013567ffffffffffffffff81111561375357600080fd5b61375f878288016135c3565b92505061376e60608601613700565b905092959194509250565b6000815180845260005b8181101561379f57602081850181015186830182015201613783565b818111156137b1576000602083870101525b50601f017fffffffffffffffffffffffffffffffffffffffffffffffffffffffffffffffe0169290920160200192915050565b82151581526040602082015260006111cc6040830184613779565b6000806040838503121561381257600080fd5b50508035926020909101359150565b602081526000612bd46020830184613779565b60006020828403121561384657600080fd5b5035919050565b60008083601f84011261385f57600080fd5b50813567ffffffffffffffff81111561387757600080fd5b60208301915083602082850101111561388f57600080fd5b9250929050565b60008060008060008060008060008060006101408c8e0312156138b857600080fd5b6138c18c613558565b9a5060208c0135995067ffffffffffffffff8060408e013511156138e457600080fd5b6138f48e60408f01358f0161384d565b909a50985061390560608e01613700565b975060808d0135965060a08d0135955060c08d0135945061392860e08e01613558565b93506139376101008e01613558565b9250806101208e0135111561394b57600080fd5b5061395d8d6101208e01358e016135c3565b90509295989b509295989b9093969950565b60008060006060848603121561398457600080fd5b83359250602084013567ffffffffffffffff808211156139a357600080fd5b6139af878388016135c3565b935060408601359150808211156139c557600080fd5b506139d2868287016135c3565b9150509250925092565b600081518084526020808501945080840160005b83811015613a2257815173ffffffffffffffffffffffffffffffffffffffff16875295820195908201906001016139f0565b509495945050505050565b602081526000612bd460208301846139dc565b60008060408385031215613a5357600080fd5b8235613a5e81613533565b9150602083013567ffffffffffffffff811115613a7a57600080fd5b613a86858286016135c3565b9150509250929050565b6000806000806000806000806000806101008b8d031215613ab057600080fd5b8a3567ffffffffffffffff80821115613ac857600080fd5b818d0191508d601f830112613adc57600080fd5b813581811115613aeb57600080fd5b8e60208260051b8501011115613b0057600080fd5b60208381019d50909b508d01359950613b1b60408e01613558565b985060608d0135915080821115613b3157600080fd5b50613b3e8d828e0161384d565b9097509550613b51905060808c01613558565b9350613b5f60a08c01613558565b925060c08b01359150613b7460e08c01613558565b90509295989b9194979a5092959850565b604081526000613b9860408301856139dc565b905073ffffffffffffffffffffffffffffffffffffffff831660208301529392505050565b60008060008060008060008060008060006101408c8e031215613bdf57600080fd5b8b35613bea81613533565b9a5060208c0135995060408c013567ffffffffffffffff811115613c0d57600080fd5b613c198e828f0161384d565b909a509850613c2c905060608d01613700565b965060808c0135955060a08c0135945060c08c0135935060e08c0135613c5181613533565b92506101008c0135613c6281613533565b809250506101208c013590509295989b509295989b9093969950565b60008060408385031215613c9157600080fd5b8235613c9c81613533565b91506020830135613cac81613533565b809150509250929050565b600080600060608486031215613ccc57600080fd5b8335613cd781613533565b92506020840135613ce781613533565b91506040840135613cf781613533565b809150509250925092565b600080600060608486031215613d1757600080fd5b8335613d2281613533565b92506020840135613d3281613533565b929592945050506040919091013590565b7f4e487b7100000000000000000000000000000000000000000000000000000000600052601160045260246000fd5b60007fffffffffffffffffffffffffffffffffffffffffffffffffffffffffffffffff8203613da357613da3613d43565b5060010190565b604081526000613dbd6040830185613779565b8281036020840152612c358185613779565b600060208284031215613de157600080fd5b81517fffffffff0000000000000000000000000000000000000000000000000000000081168114612bd457600080fd5b600060ff821660ff841680821015613e2b57613e2b613d43565b90039392505050565b6000817fffffffffffffffffffffffffffffffffffffffffffffffffffffffffffffffff0483118215151615613e6c57613e6c613d43565b500290565b7f4e487b7100000000000000000000000000000000000000000000000000000000600052602160045260246000fd5b60028110613ed7577f4e487b7100000000000000000000000000000000000000000000000000000000600052602160045260246000fd5b9052565b600061016073ffffffffffffffffffffffffffffffffffffffff8f1683528d60208401528060408401528b81840152506101808b8d828501376000818d850101527fffffffffffffffffffffffffffffffffffffffffffffffffffffffffffffffe0601f8d01168301613f51606085018d613ea0565b8a60808501528960a08501528860c0850152613f8560e085018973ffffffffffffffffffffffffffffffffffffffff169052565b73ffffffffffffffffffffffffffffffffffffffff87166101008501528184820301610120850152613fb982820187613779565b92505050613fe061014083018473ffffffffffffffffffffffffffffffffffffffff169052565b9d9c50505050505050505050505050565b6000821982111561400457614004613d43565b500190565b60008261403f577f4e487b7100000000000000000000000000000000000000000000000000000000600052601260045260246000fd5b500490565b60008282101561405657614056613d43565b500390565b7f4e487b7100000000000000000000000000000000000000000000000000000000600052603260045260246000fd5b6080808252810185905260008660a08301825b888110156140da5782356140b081613533565b73ffffffffffffffffffffffffffffffffffffffff1682526020928301929091019060010161409d565b506020840196909652505073ffffffffffffffffffffffffffffffffffffffff9283166040820152911660609091015292915050565b60006020828403121561412257600080fd5b81518015158114612bd457600080fd5b8183823760009101908152919050565b6000610160820190508c825273ffffffffffffffffffffffffffffffffffffffff808d1660208401528b60408401528a6060840152614184608084018b613ea0565b60a083019890985260c082019690965260e0810194909452918516610100840152909316610120820152610140019190915295945050505050565b6000816141ce576141ce613d43565b507fffffffffffffffffffffffffffffffffffffffffffffffffffffffffffffffff019056fea164736f6c634300080f000a608060405234801561001057600080fd5b50610913806100206000396000f3fe608060405234801561001057600080fd5b50600436106100675760003560e01c806353e5d9351161005057806353e5d935146100b7578063d18af54d146100cc578063ec9e80bb146100df57600080fd5b80631688f0b91461006c5780633408e470146100a9575b600080fd5b61007f61007a3660046105d2565b6100f2565b60405173ffffffffffffffffffffffffffffffffffffffff90911681526020015b60405180910390f35b6040514681526020016100a0565b6100bf610194565b6040516100a091906106a5565b61007f6100da3660046106bf565b6101dc565b61007f6100ed3660046105d2565b6102f8565b600080838051906020012083604051602001610118929190918252602082015260400190565b60405160208183030381529060405280519060200120905061013b85858361032a565b60405173ffffffffffffffffffffffffffffffffffffffff8781168252919350908316907f4f51faf6c4561ff95f067657e43439f0f856d97c04d9ec9070a6199ad418e2359060200160405180910390a2509392505050565b6060604051806020016101a6906104c6565b7fffffffffffffffffffffffffffffffffffffffffffffffffffffffffffffffe082820381018352601f90910116604052919050565b600080838360405160200161022092919091825260601b7fffffffffffffffffffffffffffffffffffffffff00000000000000000000000016602082015260340190565b6040516020818303038152906040528051906020012060001c90506102468686836100f2565b915073ffffffffffffffffffffffffffffffffffffffff8316156102ef576040517f1e52b51800000000000000000000000000000000000000000000000000000000815273ffffffffffffffffffffffffffffffffffffffff841690631e52b518906102bc9085908a908a908a9060040161072b565b600060405180830381600087803b1580156102d657600080fd5b505af11580156102ea573d6000803e3d6000fd5b505050505b50949350505050565b60008083805190602001208361030b4690565b6040805160208101949094528301919091526060820152608001610118565b6000833b610399576040517f08c379a000000000000000000000000000000000000000000000000000000000815260206004820152601f60248201527f53696e676c65746f6e20636f6e7472616374206e6f74206465706c6f7965640060448201526064015b60405180910390fd5b6000604051806020016103ab906104c6565b7fffffffffffffffffffffffffffffffffffffffffffffffffffffffffffffffe082820381018352601f909101166040819052610403919073ffffffffffffffffffffffffffffffffffffffff881690602001610775565b6040516020818303038152906040529050828151826020016000f5915073ffffffffffffffffffffffffffffffffffffffff821661049d576040517f08c379a000000000000000000000000000000000000000000000000000000000815260206004820152601360248201527f437265617465322063616c6c206661696c6564000000000000000000000000006044820152606401610390565b8351156104be5760008060008651602088016000875af1036104be57600080fd5b509392505050565b61016f8061079883390190565b73ffffffffffffffffffffffffffffffffffffffff811681146104f557600080fd5b50565b7f4e487b7100000000000000000000000000000000000000000000000000000000600052604160045260246000fd5b600082601f83011261053857600080fd5b813567ffffffffffffffff80821115610553576105536104f8565b604051601f83017fffffffffffffffffffffffffffffffffffffffffffffffffffffffffffffffe0908116603f01168101908282118183101715610599576105996104f8565b816040528381528660208588010111156105b257600080fd5b836020870160208301376000602085830101528094505050505092915050565b6000806000606084860312156105e757600080fd5b83356105f2816104d3565b9250602084013567ffffffffffffffff81111561060e57600080fd5b61061a86828701610527565b925050604084013590509250925092565b60005b8381101561064657818101518382015260200161062e565b83811115610655576000848401525b50505050565b6000815180845261067381602086016020860161062b565b601f017fffffffffffffffffffffffffffffffffffffffffffffffffffffffffffffffe0169290920160200192915050565b6020815260006106b8602083018461065b565b9392505050565b600080600080608085870312156106d557600080fd5b84356106e0816104d3565b9350602085013567ffffffffffffffff8111156106fc57600080fd5b61070887828801610527565b935050604085013591506060850135610720816104d3565b939692955090935050565b600073ffffffffffffffffffffffffffffffffffffffff808716835280861660208401525060806040830152610764608083018561065b565b905082606083015295945050505050565b6000835161078781846020880161062b565b919091019182525060200191905056fe608060405234801561001057600080fd5b5060405161016f38038061016f83398101604081905261002f916100b9565b6001600160a01b0381166100945760405162461bcd60e51b815260206004820152602260248201527f496e76616c69642073696e676c65746f6e20616464726573732070726f766964604482015261195960f21b606482015260840160405180910390fd5b600080546001600160a01b0319166001600160a01b03929092169190911790556100e9565b6000602082840312156100cb57600080fd5b81516001600160a01b03811681146100e257600080fd5b9392505050565b6078806100f76000396000f3fe6080604052600073ffffffffffffffffffffffffffffffffffffffff8154167fa619486e00000000000000000000000000000000000000000000000000000000823503604d57808252602082f35b3682833781823684845af490503d82833e806066573d82fd5b503d81f3fea164736f6c634300080f000aa164736f6c634300080f000a608060405234801561001057600080fd5b506110e9806100206000396000f3fe608060405234801561001057600080fd5b50600436106100c85760003560e01c806320c13b0b11610081578063bc197c811161005b578063bc197c81146101e7578063bd61951d14610222578063f23a6e611461024257600080fd5b806320c13b0b146101ac5780636ac24784146101bf578063b2494df3146101d257600080fd5b80630a1028c4116100b25780630a1028c41461010f578063150b7a02146101305780631626ba7e1461019957600080fd5b806223de29146100cd57806301ffc9a7146100e7575b600080fd5b6100e56100db366004610918565b5050505050505050565b005b6100fa6100f53660046109f7565b61027b565b60405190151581526020015b60405180910390f35b61012261011d366004610b20565b610360565b604051908152602001610106565b61016861013e366004610b5d565b7f150b7a020000000000000000000000000000000000000000000000000000000095945050505050565b6040517fffffffff000000000000000000000000000000000000000000000000000000009091168152602001610106565b6101686101a7366004610bd0565b61036c565b6101686101ba366004610c1c565b61048d565b6101226101cd366004610c80565b610658565b6101da610795565b6040516101069190610cc6565b6101686101f5366004610d65565b7fbc197c810000000000000000000000000000000000000000000000000000000098975050505050505050565b610235610230366004610e03565b610847565b6040516101069190610eaa565b610168610250366004610ebd565b7ff23a6e61000000000000000000000000000000000000000000000000000000009695505050505050565b60007fffffffff0000000000000000000000000000000000000000000000000000000082167f4e2312e000000000000000000000000000000000000000000000000000000000148061030e57507fffffffff0000000000000000000000000000000000000000000000000000000082167f150b7a0200000000000000000000000000000000000000000000000000000000145b8061035a57507fffffffff0000000000000000000000000000000000000000000000000000000082167f01ffc9a700000000000000000000000000000000000000000000000000000000145b92915050565b600061035a3383610658565b60408051602080820186905282518083039091018152818301928390527f20c13b0b000000000000000000000000000000000000000000000000000000009092526000913391839183916320c13b0b916103cc9189908990604401610f39565b602060405180830381865afa1580156103e9573d6000803e3d6000fd5b505050506040513d601f19601f8201168201806040525081019061040d9190610f9d565b90507fffffffff0000000000000000000000000000000000000000000000000000000081167f20c13b0b000000000000000000000000000000000000000000000000000000001461045f576000610481565b7f1626ba7e000000000000000000000000000000000000000000000000000000005b925050505b9392505050565b6000338161049b8286610658565b905083516000036105a7576040517f5ae6bd370000000000000000000000000000000000000000000000000000000081526004810182905273ffffffffffffffffffffffffffffffffffffffff831690635ae6bd3790602401602060405180830381865afa158015610511573d6000803e3d6000fd5b505050506040513d601f19601f820116820180604052508101906105359190610fba565b6000036105a2576040517f08c379a000000000000000000000000000000000000000000000000000000000815260206004820152601160248201527f48617368206e6f7420617070726f766564000000000000000000000000000000604482015260640160405180910390fd5b61062e565b6040517f934f3a1100000000000000000000000000000000000000000000000000000000815273ffffffffffffffffffffffffffffffffffffffff83169063934f3a11906105fd90849089908990600401610fd3565b60006040518083038186803b15801561061557600080fd5b505afa158015610629573d6000803e3d6000fd5b505050505b507f20c13b0b00000000000000000000000000000000000000000000000000000000949350505050565b6000807f60b3cbf8b4a223d68d641b3b6ddf9a298e7f33710cf3d3a9d1146b5a6150fbca60001b83805190602001206040516020016106a1929190918252602082015260400190565b604051602081830303815290604052805190602001209050601960f81b600160f81b8573ffffffffffffffffffffffffffffffffffffffff1663f698da256040518163ffffffff1660e01b8152600401602060405180830381865afa15801561070e573d6000803e3d6000fd5b505050506040513d601f19601f820116820180604052508101906107329190610fba565b6040517fff0000000000000000000000000000000000000000000000000000000000000093841660208201529290911660218301526022820152604281018290526062016040516020818303038152906040528051906020012091505092915050565b6040517fcc2f845200000000000000000000000000000000000000000000000000000000815260016004820152600a60248201526060903390600090829063cc2f845290604401600060405180830381865afa1580156107f9573d6000803e3d6000fd5b505050506040513d6000823e601f3d9081017fffffffffffffffffffffffffffffffffffffffffffffffffffffffffffffffe016820160405261083f9190810190611018565b509392505050565b60606040517fb4faba09000000000000000000000000000000000000000000000000000000008152600436036004808301376020600036836000335af1505060203d036040519150808201604052806020833e5060005161048657805160208201fd5b73ffffffffffffffffffffffffffffffffffffffff811681146108cc57600080fd5b50565b60008083601f8401126108e157600080fd5b50813567ffffffffffffffff8111156108f957600080fd5b60208301915083602082850101111561091157600080fd5b9250929050565b60008060008060008060008060c0898b03121561093457600080fd5b883561093f816108aa565b9750602089013561094f816108aa565b9650604089013561095f816108aa565b955060608901359450608089013567ffffffffffffffff8082111561098357600080fd5b61098f8c838d016108cf565b909650945060a08b01359150808211156109a857600080fd5b506109b58b828c016108cf565b999c989b5096995094979396929594505050565b7fffffffff00000000000000000000000000000000000000000000000000000000811681146108cc57600080fd5b600060208284031215610a0957600080fd5b8135610486816109c9565b7f4e487b7100000000000000000000000000000000000000000000000000000000600052604160045260246000fd5b604051601f82017fffffffffffffffffffffffffffffffffffffffffffffffffffffffffffffffe016810167ffffffffffffffff81118282101715610a8a57610a8a610a14565b604052919050565b600082601f830112610aa357600080fd5b813567ffffffffffffffff811115610abd57610abd610a14565b610aee60207fffffffffffffffffffffffffffffffffffffffffffffffffffffffffffffffe0601f84011601610a43565b818152846020838601011115610b0357600080fd5b816020850160208301376000918101602001919091529392505050565b600060208284031215610b3257600080fd5b813567ffffffffffffffff811115610b4957600080fd5b610b5584828501610a92565b949350505050565b600080600080600060808688031215610b7557600080fd5b8535610b80816108aa565b94506020860135610b90816108aa565b935060408601359250606086013567ffffffffffffffff811115610bb357600080fd5b610bbf888289016108cf565b969995985093965092949392505050565b600080600060408486031215610be557600080fd5b83359250602084013567ffffffffffffffff811115610c0357600080fd5b610c0f868287016108cf565b9497909650939450505050565b60008060408385031215610c2f57600080fd5b823567ffffffffffffffff80821115610c4757600080fd5b610c5386838701610a92565b93506020850135915080821115610c6957600080fd5b50610c7685828601610a92565b9150509250929050565b60008060408385031215610c9357600080fd5b8235610c9e816108aa565b9150602083013567ffffffffffffffff811115610cba57600080fd5b610c7685828601610a92565b6020808252825182820181905260009190848201906040850190845b81811015610d1457835173ffffffffffffffffffffffffffffffffffffffff1683529284019291840191600101610ce2565b50909695505050505050565b60008083601f840112610d3257600080fd5b50813567ffffffffffffffff811115610d4a57600080fd5b6020830191508360208260051b850101111561091157600080fd5b60008060008060008060008060a0898b031215610d8157600080fd5b8835610d8c816108aa565b97506020890135610d9c816108aa565b9650604089013567ffffffffffffffff80821115610db957600080fd5b610dc58c838d01610d20565b909850965060608b0135915080821115610dde57600080fd5b610dea8c838d01610d20565b909650945060808b01359150808211156109a857600080fd5b600080600060408486031215610e1857600080fd5b8335610e23816108aa565b9250602084013567ffffffffffffffff811115610c0357600080fd5b6000815180845260005b81811015610e6557602081850181015186830182015201610e49565b81811115610e77576000602083870101525b50601f017fffffffffffffffffffffffffffffffffffffffffffffffffffffffffffffffe0169290920160200192915050565b6020815260006104866020830184610e3f565b60008060008060008060a08789031215610ed657600080fd5b8635610ee1816108aa565b95506020870135610ef1816108aa565b94506040870135935060608701359250608087013567ffffffffffffffff811115610f1b57600080fd5b610f2789828a016108cf565b979a9699509497509295939492505050565b604081526000610f4c6040830186610e3f565b82810360208401528381528385602083013760006020858301015260207fffffffffffffffffffffffffffffffffffffffffffffffffffffffffffffffe0601f860116820101915050949350505050565b600060208284031215610faf57600080fd5b8151610486816109c9565b600060208284031215610fcc57600080fd5b5051919050565b838152606060208201526000610fec6060830185610e3f565b8281036040840152610ffe8185610e3f565b9695505050505050565b8051611013816108aa565b919050565b6000806040838503121561102b57600080fd5b825167ffffffffffffffff8082111561104357600080fd5b818501915085601f83011261105757600080fd5b815160208282111561106b5761106b610a14565b8160051b925061107c818401610a43565b828152928401810192818101908985111561109657600080fd5b948201945b848610156110c057855193506110b0846108aa565b838252948201949082019061109b565b96506110cf9050878201611008565b945050505050925092905056fea164736f6c634300080f000a",
    "linkReferences": {
      "test/safe-tools/SafeTestTools.sol": {
        "Sort": [
          {
            "start": 4601,
            "length": 20
          }
        ]
      }
    }
  },
  "methodIdentifiers": {
    "_setupSafe()": "b38b4717",
    "_setupSafe(uint256[],uint256)": "080df7f1",
    "_setupSafe(uint256[],uint256,uint256)": "4867cf9a",
    "_setupSafe(uint256[],uint256,uint256,(bool,uint256,address,bytes,uint256,address,address,bytes))": "403b551a",
    "getSafe()": "68bc573e",
    "getSafe(address)": "894adc65"
  },
  "storageLayout": {
    "storage": [
      {
        "astId": 153412,
        "contract": "test/safe-tools/SafeTestTools.sol:SafeTestTools",
        "label": "singleton",
        "offset": 0,
        "slot": "0",
        "type": "t_contract(Safe)40986"
      },
      {
        "astId": 153419,
        "contract": "test/safe-tools/SafeTestTools.sol:SafeTestTools",
        "label": "proxyFactory",
        "offset": 0,
        "slot": "1",
        "type": "t_contract(SafeProxyFactory)42941"
      },
      {
        "astId": 153426,
        "contract": "test/safe-tools/SafeTestTools.sol:SafeTestTools",
        "label": "handler",
        "offset": 0,
        "slot": "2",
        "type": "t_contract(CompatibilityFallbackHandler)151969"
      },
      {
        "astId": 153430,
        "contract": "test/safe-tools/SafeTestTools.sol:SafeTestTools",
        "label": "instances",
        "offset": 0,
        "slot": "3",
        "type": "t_array(t_struct(SafeInstance)152063_storage)dyn_storage"
      }
    ],
    "types": {
      "t_address": {
        "encoding": "inplace",
        "label": "address",
        "numberOfBytes": "20"
      },
      "t_array(t_address)dyn_storage": {
        "encoding": "dynamic_array",
        "label": "address[]",
        "numberOfBytes": "32",
        "base": "t_address"
      },
      "t_array(t_struct(SafeInstance)152063_storage)dyn_storage": {
        "encoding": "dynamic_array",
        "label": "struct SafeInstance[]",
        "numberOfBytes": "32",
        "base": "t_struct(SafeInstance)152063_storage"
      },
      "t_array(t_uint256)dyn_storage": {
        "encoding": "dynamic_array",
        "label": "uint256[]",
        "numberOfBytes": "32",
        "base": "t_uint256"
      },
      "t_contract(CompatibilityFallbackHandler)151969": {
        "encoding": "inplace",
        "label": "contract CompatibilityFallbackHandler",
        "numberOfBytes": "20"
      },
      "t_contract(DeployedSafe)152032": {
        "encoding": "inplace",
        "label": "contract DeployedSafe",
        "numberOfBytes": "20"
      },
      "t_contract(Safe)40986": {
        "encoding": "inplace",
        "label": "contract Safe",
        "numberOfBytes": "20"
      },
      "t_contract(SafeProxyFactory)42941": {
        "encoding": "inplace",
        "label": "contract SafeProxyFactory",
        "numberOfBytes": "20"
      },
      "t_struct(SafeInstance)152063_storage": {
        "encoding": "inplace",
        "label": "struct SafeInstance",
        "numberOfBytes": "160",
        "members": [
          {
            "astId": 152051,
            "contract": "test/safe-tools/SafeTestTools.sol:SafeTestTools",
            "label": "instanceId",
            "offset": 0,
            "slot": "0",
            "type": "t_uint256"
          },
          {
            "astId": 152054,
            "contract": "test/safe-tools/SafeTestTools.sol:SafeTestTools",
            "label": "ownerPKs",
            "offset": 0,
            "slot": "1",
            "type": "t_array(t_uint256)dyn_storage"
          },
          {
            "astId": 152057,
            "contract": "test/safe-tools/SafeTestTools.sol:SafeTestTools",
            "label": "owners",
            "offset": 0,
            "slot": "2",
            "type": "t_array(t_address)dyn_storage"
          },
          {
            "astId": 152059,
            "contract": "test/safe-tools/SafeTestTools.sol:SafeTestTools",
            "label": "threshold",
            "offset": 0,
            "slot": "3",
            "type": "t_uint256"
          },
          {
            "astId": 152062,
            "contract": "test/safe-tools/SafeTestTools.sol:SafeTestTools",
            "label": "safe",
            "offset": 0,
            "slot": "4",
            "type": "t_contract(DeployedSafe)152032"
          }
        ]
      },
      "t_uint256": {
        "encoding": "inplace",
        "label": "uint256",
        "numberOfBytes": "32"
      }
    }
  },
  "userdoc": {
    "version": 1,
    "kind": "user"
  },
  "devdoc": {
    "version": 1,
    "kind": "dev",
    "details": "SafeTestTools implements a set of helper functions for testing Safe contracts."
  },
  "id": 301
}