{
  "abi": [
    {
      "inputs": [
        {
          "internalType": "uint256[]",
          "name": "ownerPKs",
          "type": "uint256[]"
        },
        {
          "internalType": "uint256",
          "name": "threshold",
          "type": "uint256"
        }
      ],
      "name": "_setupSafe",
      "outputs": [
        {
          "components": [
            {
              "internalType": "uint256",
              "name": "instanceId",
              "type": "uint256"
            },
            {
              "internalType": "uint256[]",
              "name": "ownerPKs",
              "type": "uint256[]"
            },
            {
              "internalType": "address[]",
              "name": "owners",
              "type": "address[]"
            },
            {
              "internalType": "uint256",
              "name": "threshold",
              "type": "uint256"
            },
            {
              "internalType": "contract DeployedSafe",
              "name": "safe",
              "type": "address"
            }
          ],
          "internalType": "struct SafeInstance",
          "name": "",
          "type": "tuple"
        }
      ],
      "stateMutability": "nonpayable",
      "type": "function"
    },
    {
      "inputs": [
        {
          "internalType": "uint256[]",
          "name": "ownerPKs",
          "type": "uint256[]"
        },
        {
          "internalType": "uint256",
          "name": "threshold",
          "type": "uint256"
        },
        {
          "internalType": "uint256",
          "name": "initialBalance",
          "type": "uint256"
        },
        {
          "components": [
            {
              "internalType": "bool",
              "name": "includeFallbackHandler",
              "type": "bool"
            },
            {
              "internalType": "uint256",
              "name": "saltNonce",
              "type": "uint256"
            },
            {
              "internalType": "address",
              "name": "setupModulesCall_to",
              "type": "address"
            },
            {
              "internalType": "bytes",
              "name": "setupModulesCall_data",
              "type": "bytes"
            },
            {
              "internalType": "uint256",
              "name": "refundAmount",
              "type": "uint256"
            },
            {
              "internalType": "address",
              "name": "refundToken",
              "type": "address"
            },
            {
              "internalType": "address payable",
              "name": "refundReceiver",
              "type": "address"
            },
            {
              "internalType": "bytes",
              "name": "initData",
              "type": "bytes"
            }
          ],
          "internalType": "struct AdvancedSafeInitParams",
          "name": "advancedParams",
          "type": "tuple"
        }
      ],
      "name": "_setupSafe",
      "outputs": [
        {
          "components": [
            {
              "internalType": "uint256",
              "name": "instanceId",
              "type": "uint256"
            },
            {
              "internalType": "uint256[]",
              "name": "ownerPKs",
              "type": "uint256[]"
            },
            {
              "internalType": "address[]",
              "name": "owners",
              "type": "address[]"
            },
            {
              "internalType": "uint256",
              "name": "threshold",
              "type": "uint256"
            },
            {
              "internalType": "contract DeployedSafe",
              "name": "safe",
              "type": "address"
            }
          ],
          "internalType": "struct SafeInstance",
          "name": "",
          "type": "tuple"
        }
      ],
      "stateMutability": "nonpayable",
      "type": "function"
    },
    {
      "inputs": [
        {
          "internalType": "uint256[]",
          "name": "ownerPKs",
          "type": "uint256[]"
        },
        {
          "internalType": "uint256",
          "name": "threshold",
          "type": "uint256"
        },
        {
          "internalType": "uint256",
          "name": "initialBalance",
          "type": "uint256"
        }
      ],
      "name": "_setupSafe",
      "outputs": [
        {
          "components": [
            {
              "internalType": "uint256",
              "name": "instanceId",
              "type": "uint256"
            },
            {
              "internalType": "uint256[]",
              "name": "ownerPKs",
              "type": "uint256[]"
            },
            {
              "internalType": "address[]",
              "name": "owners",
              "type": "address[]"
            },
            {
              "internalType": "uint256",
              "name": "threshold",
              "type": "uint256"
            },
            {
              "internalType": "contract DeployedSafe",
              "name": "safe",
              "type": "address"
            }
          ],
          "internalType": "struct SafeInstance",
          "name": "",
          "type": "tuple"
        }
      ],
      "stateMutability": "nonpayable",
      "type": "function"
    },
    {
      "inputs": [],
      "name": "_setupSafe",
      "outputs": [
        {
          "components": [
            {
              "internalType": "uint256",
              "name": "instanceId",
              "type": "uint256"
            },
            {
              "internalType": "uint256[]",
              "name": "ownerPKs",
              "type": "uint256[]"
            },
            {
              "internalType": "address[]",
              "name": "owners",
              "type": "address[]"
            },
            {
              "internalType": "uint256",
              "name": "threshold",
              "type": "uint256"
            },
            {
              "internalType": "contract DeployedSafe",
              "name": "safe",
              "type": "address"
            }
          ],
          "internalType": "struct SafeInstance",
          "name": "",
          "type": "tuple"
        }
      ],
      "stateMutability": "nonpayable",
      "type": "function"
    },
    {
      "inputs": [],
      "name": "getSafe",
      "outputs": [
        {
          "components": [
            {
              "internalType": "uint256",
              "name": "instanceId",
              "type": "uint256"
            },
            {
              "internalType": "uint256[]",
              "name": "ownerPKs",
              "type": "uint256[]"
            },
            {
              "internalType": "address[]",
              "name": "owners",
              "type": "address[]"
            },
            {
              "internalType": "uint256",
              "name": "threshold",
              "type": "uint256"
            },
            {
              "internalType": "contract DeployedSafe",
              "name": "safe",
              "type": "address"
            }
          ],
          "internalType": "struct SafeInstance",
          "name": "",
          "type": "tuple"
        }
      ],
      "stateMutability": "view",
      "type": "function"
    },
    {
      "inputs": [
        {
          "internalType": "address",
          "name": "_safe",
          "type": "address"
        }
      ],
      "name": "getSafe",
      "outputs": [
        {
          "components": [
            {
              "internalType": "uint256",
              "name": "instanceId",
              "type": "uint256"
            },
            {
              "internalType": "uint256[]",
              "name": "ownerPKs",
              "type": "uint256[]"
            },
            {
              "internalType": "address[]",
              "name": "owners",
              "type": "address[]"
            },
            {
              "internalType": "uint256",
              "name": "threshold",
              "type": "uint256"
            },
            {
              "internalType": "contract DeployedSafe",
              "name": "safe",
              "type": "address"
            }
          ],
          "internalType": "struct SafeInstance",
          "name": "",
          "type": "tuple"
        }
      ],
      "stateMutability": "view",
      "type": "function"
    }
  ],
  "bytecode": {
    "object": "0x60806040526040516200001290620000fc565b604051809103906000f0801580156200002f573d6000803e3d6000fd5b50600080546001600160a01b0319166001600160a01b03929092169190911790556040516200005e906200010a565b604051809103906000f0801580156200007b573d6000803e3d6000fd5b50600180546001600160a01b0319166001600160a01b0392909216919091179055604051620000aa9062000118565b604051809103906000f080158015620000c7573d6000803e3d6000fd5b50600280546001600160a01b0319166001600160a01b0392909216919091179055348015620000f557600080fd5b5062000126565b6141ca80620022aa83390190565b610927806200647483390190565b6111028062006d9b83390190565b61217480620001366000396000f3fe608060405234801561001057600080fd5b50600436106100725760003560e01c806368bc573e1161005057806368bc573e146100c6578063894adc65146100ce578063b38b4717146100e157600080fd5b8063080df7f114610077578063403b551a146100a05780634867cf9a146100b3575b600080fd5b61008a610085366004611934565b6100e9565b60405161009791906119cb565b60405180910390f35b61008a6100ae366004611b6f565b6101ef565b61008a6100c1366004611c91565b61074b565b61008a610848565b61008a6100dc366004611cdf565b610a7b565b61008a610ce9565b6101316040518060a0016040528060008152602001606081526020016060815260200160008152602001600073ffffffffffffffffffffffffffffffffffffffff1681525090565b6101e8838369021e19e0c9bab240000060405180610100016040528060011515815260200160008152602001600073ffffffffffffffffffffffffffffffffffffffff16815260200160405180602001604052806000815250815260200160008152602001600073ffffffffffffffffffffffffffffffffffffffff168152602001600073ffffffffffffffffffffffffffffffffffffffff168152602001604051806020016040528060008152508152506101ef565b9392505050565b6102376040518060a0016040528060008152602001606081526020016060815260200160008152602001600073ffffffffffffffffffffffffffffffffffffffff1681525090565b600061024286610e3c565b90506000815167ffffffffffffffff811115610260576102606117f9565b604051908082528060200260200182016040528015610289578160200160208202803683370190505b50905060005b82518110156103cc576102c98382815181106102ad576102ad611cfc565b602002602001015160a01c6bffffffffffffffffffffffff1490565b15610355576103048382815181106102e3576102e3611cfc565b602002602001015173ffffffffffffffffffffffffffffffffffffffff1690565b82828151811061031657610316611cfc565b602002602001019073ffffffffffffffffffffffffffffffffffffffff16908173ffffffffffffffffffffffffffffffffffffffff16815250506103c4565b61037783828151811061036a5761036a611cfc565b6020026020010151611302565b82828151811061038957610389611cfc565b602002602001019073ffffffffffffffffffffffffffffffffffffffff16908173ffffffffffffffffffffffffffffffffffffffff16815250505b60010161028f565b506000808560e0015151116104da576040850151606086015186517fb63e800d000000000000000000000000000000000000000000000000000000009285928b92610418576000610432565b60025473ffffffffffffffffffffffffffffffffffffffff165b8a60a001518b608001518c60c00151604051602401610458989796959493929190611d99565b604080517fffffffffffffffffffffffffffffffffffffffffffffffffffffffffffffffe08184030181529190526020810180517bffffffffffffffffffffffffffffffffffffffffffffffffffffffff167fffffffff00000000000000000000000000000000000000000000000000000000909316929092179091526104e0565b8460e001515b6001546000805460208901516040517f1688f0b9000000000000000000000000000000000000000000000000000000008152949550919373ffffffffffffffffffffffffffffffffffffffff93841693631688f0b9936105499390911691879190600401611e9e565b6020604051808303816000875af1158015610568573d6000803e3d6000fd5b505050506040513d601f19601f8201168201806040525081019061058c9190611edd565b6040805160a0810182526003805480835260208084018a8152948401899052606084018e905273ffffffffffffffffffffffffffffffffffffffff86166080850152600182018355600092909252825160059091027fc2575a0e9e593c00f959f8c92f12db2869c3395a3b0502d05e2516446f71f85b810191825593518051959650929485949193610644937fc2575a0e9e593c00f959f8c92f12db2869c3395a3b0502d05e2516446f71f85c909301920190611701565b506040820151805161066091600284019160209091019061174c565b5060608201516003820155608090910151600491820180547fffffffffffffffffffffffff00000000000000000000000000000000000000001673ffffffffffffffffffffffffffffffffffffffff9283161790556040517fc88a5e6d0000000000000000000000000000000000000000000000000000000081529084169181019190915260248101899052737109709ecfa91a80626ff3989d68f67f5b1dd12d9063c88a5e6d90604401600060405180830381600087803b15801561072557600080fd5b505af1158015610739573d6000803e3d6000fd5b50929c9b505050505050505050505050565b6107936040518060a0016040528060008152602001606081526020016060815260200160008152602001600073ffffffffffffffffffffffffffffffffffffffff1681525090565b61084084848460405180610100016040528060011515815260200160008152602001600073ffffffffffffffffffffffffffffffffffffffff16815260200160405180602001604052806000815250815260200160008152602001600073ffffffffffffffffffffffffffffffffffffffff168152602001600073ffffffffffffffffffffffffffffffffffffffff168152602001604051806020016040528060008152508152506101ef565b949350505050565b6108906040518060a0016040528060008152602001606081526020016060815260200160008152602001600073ffffffffffffffffffffffffffffffffffffffff1681525090565b60035460000361094d576040517f08c379a000000000000000000000000000000000000000000000000000000000815260206004820152604f60248201527f5341464554455354544f4f4c533a2054657374205361666520686173206e6f7460448201527f206265656e206465706c6f7965642c20757365205f736574757053616665282960648201527f2063616c6c696e67207361666528290000000000000000000000000000000000608482015260a4015b60405180910390fd5b600360008154811061096157610961611cfc565b90600052602060002090600502016040518060a001604052908160008201548152602001600182018054806020026020016040519081016040528092919081815260200182805480156109d357602002820191906000526020600020905b8154815260200190600101908083116109bf575b5050505050815260200160028201805480602002602001604051908101604052809291908181526020018280548015610a4257602002820191906000526020600020905b815473ffffffffffffffffffffffffffffffffffffffff168152600190910190602001808311610a17575b50505091835250506003820154602082015260049091015473ffffffffffffffffffffffffffffffffffffffff16604090910152919050565b610ac36040518060a0016040528060008152602001606081526020016060815260200160008152602001600073ffffffffffffffffffffffffffffffffffffffff1681525090565b60005b600354811015610c60578273ffffffffffffffffffffffffffffffffffffffff1660038281548110610afa57610afa611cfc565b600091825260209091206004600590920201015473ffffffffffffffffffffffffffffffffffffffff1603610c585760038181548110610b3c57610b3c611cfc565b90600052602060002090600502016040518060a00160405290816000820154815260200160018201805480602002602001604051908101604052809291908181526020018280548015610bae57602002820191906000526020600020905b815481526020019060010190808311610b9a575b5050505050815260200160028201805480602002602001604051908101604052809291908181526020018280548015610c1d57602002820191906000526020600020905b815473ffffffffffffffffffffffffffffffffffffffff168152600190910190602001808311610bf2575b50505091835250506003820154602082015260049091015473ffffffffffffffffffffffffffffffffffffffff166040909101529392505050565b600101610ac6565b506040517f08c379a000000000000000000000000000000000000000000000000000000000815260206004820152602660248201527f5341464554455354544f4f4c533a205361666520696e7374616e6365206e6f7460448201527f20666f756e6400000000000000000000000000000000000000000000000000006064820152608401610944565b610d316040518060a0016040528060008152602001606081526020016060815260200160008152602001600073ffffffffffffffffffffffffffffffffffffffff1681525090565b6000610d736040518060400160405280600781526020017f64656661756c74000000000000000000000000000000000000000000000000008152506003611398565b60408051610100810182526001815281518083018352600981527f53414645205445535400000000000000000000000000000000000000000000006020918201527fbff0e1d6be3df3bedf05c892f554fbea3c6ca2bb9d224bc3f3d3fbc3ec267d1c8183015260008284018190528351808301855281815260608401526080830181905260a0830181905260c08301819052835191820190935291825260e0810191909152909250610e369150829060029069021e19e0c9bab2400000906101ef565b91505090565b60606000825167ffffffffffffffff811115610e5a57610e5a6117f9565b604051908082528060200260200182016040528015610e83578160200160208202803683370190505b5090506000835167ffffffffffffffff811115610ea257610ea26117f9565b604051908082528060200260200182016040528015610ecb578160200160208202803683370190505b5090506000845167ffffffffffffffff811115610eea57610eea6117f9565b604051908082528060200260200182016040528015610f2357816020015b610f106117c6565b815260200190600190039081610f085790505b50905060005b855181101561107d576000868281518110610f4657610f46611cfc565b602002602001015190506000610f5b82611302565b9050610f758260a01c6bffffffffffffffffffffffff1490565b15610f93575073ffffffffffffffffffffffffffffffffffffffff81165b80858481518110610fa657610fa6611cfc565b73ffffffffffffffffffffffffffffffffffffffff909216602092830291909101820152604051610ff59183910173ffffffffffffffffffffffffffffffffffffffff91909116815260200190565b60405160208183030381529060405261100d90611efa565b84848151811061101f5761101f611cfc565b602002602001015160006002811061103957611039611cfc565b60200201528351829085908590811061105457611054611cfc565b602002602001015160016002811061106e5761106e611cfc565b60200201525050600101610f29565b506040517f128424a700000000000000000000000000000000000000000000000000000000815273__$dfdc500774783d96746216ea464aa94b2d$__9063128424a7906110ce908590600401611f3f565b600060405180830381865af41580156110eb573d6000803e3d6000fd5b505050506040513d6000823e601f3d9081017fffffffffffffffffffffffffffffffffffffffffffffffffffffffffffffffe01682016040526111319190810190611f99565b91506000805b835181101561124057600084828151811061115457611154611cfc565b602002602001015190506000805b8551811015611217578273ffffffffffffffffffffffffffffffffffffffff1686828151811061119457611194611cfc565b60200260200101516000600281106111ae576111ae611cfc565b602002015173ffffffffffffffffffffffffffffffffffffffff160361120f578581815181106111e0576111e0611cfc565b60200260200101516001600281106111fa576111fa611cfc565b602002015191508461120b81612033565b9550505b600101611162565b508087848151811061122b5761122b611cfc565b60209081029190910101525050600101611137565b5085518110156112f8576040517f08c379a000000000000000000000000000000000000000000000000000000000815260206004820152604d60248201527f5341464554455354544f4f4c533a20697373756520776974682070726976617460448201527f65206b657920736f7274696e672c20706c65617365206f70656e20612074696360648201527f6b6574206f6e2067697468756200000000000000000000000000000000000000608482015260a401610944565b5091949350505050565b6040517fffa1864900000000000000000000000000000000000000000000000000000000815260048101829052600090737109709ecfa91a80626ff3989d68f67f5b1dd12d9063ffa1864990602401602060405180830381865afa15801561136e573d6000803e3d6000fd5b505050506040513d601f19601f820116820180604052508101906113929190611edd565b92915050565b6060808267ffffffffffffffff8111156113b4576113b46117f9565b6040519080825280602002602001820160405280156113dd578160200160208202803683370190505b5090508267ffffffffffffffff8111156113f9576113f96117f9565b604051908082528060200260200182016040528015611422578160200160208202803683370190505b50915060005b838110156114875760008160405160200161144591815260200190565b6040516020818303038152906040528051906020012060001c90508083838151811061147357611473611cfc565b602090810291909101015250600101611428565b5060005b838110156116f957737109709ecfa91a80626ff3989d68f67f5b1dd12d73ffffffffffffffffffffffffffffffffffffffff1663ffa186498383815181106114d5576114d5611cfc565b60200260200101516040518263ffffffff1660e01b81526004016114fb91815260200190565b602060405180830381865afa158015611518573d6000803e3d6000fd5b505050506040513d601f19601f8201168201806040525081019061153c9190611edd565b83828151811061154e5761154e611cfc565b602002602001019073ffffffffffffffffffffffffffffffffffffffff16908173ffffffffffffffffffffffffffffffffffffffff1681525050737109709ecfa91a80626ff3989d68f67f5b1dd12d73ffffffffffffffffffffffffffffffffffffffff1663c657c7186115cd84848151811061036a5761036a611cfc565b6040517f6900a3ae000000000000000000000000000000000000000000000000000000008152600481018590528890737109709ecfa91a80626ff3989d68f67f5b1dd12d90636900a3ae90602401600060405180830381865afa158015611638573d6000803e3d6000fd5b505050506040513d6000823e601f3d9081017fffffffffffffffffffffffffffffffffffffffffffffffffffffffffffffffe016820160405261167e9190810190612092565b60405160200161168f929190612109565b6040516020818303038152906040526040518363ffffffff1660e01b81526004016116bb929190612138565b600060405180830381600087803b1580156116d557600080fd5b505af11580156116e9573d6000803e3d6000fd5b50506001909201915061148b9050565b509250929050565b82805482825590600052602060002090810192821561173c579160200282015b8281111561173c578251825591602001919060010190611721565b506117489291506117e4565b5090565b82805482825590600052602060002090810192821561173c579160200282015b8281111561173c57825182547fffffffffffffffffffffffff00000000000000000000000000000000000000001673ffffffffffffffffffffffffffffffffffffffff90911617825560209092019160019091019061176c565b60405180604001604052806002906020820280368337509192915050565b5b8082111561174857600081556001016117e5565b7f4e487b7100000000000000000000000000000000000000000000000000000000600052604160045260246000fd5b604051610100810167ffffffffffffffff8111828210171561184c5761184c6117f9565b60405290565b604051601f82017fffffffffffffffffffffffffffffffffffffffffffffffffffffffffffffffe016810167ffffffffffffffff81118282101715611899576118996117f9565b604052919050565b600067ffffffffffffffff8211156118bb576118bb6117f9565b5060051b60200190565b600082601f8301126118d657600080fd5b813560206118eb6118e6836118a1565b611852565b8083825260208201915060208460051b87010193508684111561190d57600080fd5b602086015b848110156119295780358352918301918301611912565b509695505050505050565b6000806040838503121561194757600080fd5b823567ffffffffffffffff81111561195e57600080fd5b61196a858286016118c5565b95602094909401359450505050565b60008151808452602080850194506020840160005b838110156119c057815173ffffffffffffffffffffffffffffffffffffffff168752958201959082019060010161198e565b509495945050505050565b60208082528251828201528281015160a06040840152805160c0840181905260009291820190839060e08601905b80831015611a1957835182529284019260019290920191908401906119f9565b50604087015193507fffffffffffffffffffffffffffffffffffffffffffffffffffffffffffffffe0868203016060870152611a558185611979565b9350505050606084015160808401526080840151611a8b60a085018273ffffffffffffffffffffffffffffffffffffffff169052565b509392505050565b80358015158114611aa357600080fd5b919050565b73ffffffffffffffffffffffffffffffffffffffff81168114611aca57600080fd5b50565b8035611aa381611aa8565b600067ffffffffffffffff821115611af257611af26117f9565b50601f017fffffffffffffffffffffffffffffffffffffffffffffffffffffffffffffffe01660200190565b600082601f830112611b2f57600080fd5b8135611b3d6118e682611ad8565b818152846020838601011115611b5257600080fd5b816020850160208301376000918101602001919091529392505050565b60008060008060808587031215611b8557600080fd5b843567ffffffffffffffff80821115611b9d57600080fd5b611ba9888389016118c5565b955060208701359450604087013593506060870135915080821115611bcd57600080fd5b908601906101008289031215611be257600080fd5b611bea611828565b611bf383611a93565b815260208301356020820152611c0b60408401611acd565b6040820152606083013582811115611c2257600080fd5b611c2e8a828601611b1e565b60608301525060808301356080820152611c4a60a08401611acd565b60a0820152611c5b60c08401611acd565b60c082015260e083013582811115611c7257600080fd5b611c7e8a828601611b1e565b60e0830152509598949750929550505050565b600080600060608486031215611ca657600080fd5b833567ffffffffffffffff811115611cbd57600080fd5b611cc9868287016118c5565b9660208601359650604090950135949350505050565b600060208284031215611cf157600080fd5b81356101e881611aa8565b7f4e487b7100000000000000000000000000000000000000000000000000000000600052603260045260246000fd5b60005b83811015611d46578181015183820152602001611d2e565b50506000910152565b60008151808452611d67816020860160208601611d2b565b601f017fffffffffffffffffffffffffffffffffffffffffffffffffffffffffffffffe0169290920160200192915050565b6101008082528951908201819052600090610120830190602090818d01845b82811015611dea57815173ffffffffffffffffffffffffffffffffffffffff1685529383019390830190600101611db8565b50505050896020840152611e16604084018a73ffffffffffffffffffffffffffffffffffffffff169052565b8281036060840152611e288189611d4f565b915050611e4d608083018773ffffffffffffffffffffffffffffffffffffffff169052565b73ffffffffffffffffffffffffffffffffffffffff851660a08301528360c0830152611e9160e083018473ffffffffffffffffffffffffffffffffffffffff169052565b9998505050505050505050565b73ffffffffffffffffffffffffffffffffffffffff84168152606060208201526000611ecd6060830185611d4f565b9050826040830152949350505050565b600060208284031215611eef57600080fd5b81516101e881611aa8565b80516020808301519190811015611f39577fffffffffffffffffffffffffffffffffffffffffffffffffffffffffffffffff8160200360031b1b821691505b50919050565b6020808252825182820181905260009190848201906040850190845b81811015611f8d57835173ffffffffffffffffffffffffffffffffffffffff1683529284019291840191600101611f5b565b50909695505050505050565b60006020808385031215611fac57600080fd5b825167ffffffffffffffff811115611fc357600080fd5b8301601f81018513611fd457600080fd5b8051611fe26118e6826118a1565b81815260059190911b8201830190838101908783111561200157600080fd5b928401925b8284101561202857835161201981611aa8565b82529284019290840190612006565b979650505050505050565b60007fffffffffffffffffffffffffffffffffffffffffffffffffffffffffffffffff820361208b577f4e487b7100000000000000000000000000000000000000000000000000000000600052601160045260246000fd5b5060010190565b6000602082840312156120a457600080fd5b815167ffffffffffffffff8111156120bb57600080fd5b8201601f810184136120cc57600080fd5b80516120da6118e682611ad8565b8181528560208385010111156120ef57600080fd5b612100826020830160208601611d2b565b95945050505050565b6000835161211b818460208801611d2b565b83519083019061212f818360208801611d2b565b01949350505050565b73ffffffffffffffffffffffffffffffffffffffff831681526040602082015260006108406040830184611d4f56fea164736f6c6343000818000a608060405234801561001057600080fd5b5060016004556141a5806100256000396000f3fe6080604052600436106101d15760003560e01c8063affed0e0116100f7578063e19a9dd911610095578063f08a032311610064578063f08a0323146105f5578063f698da2514610615578063f8dc5dd91461067c578063ffa1ad741461069c5761020d565b8063e19a9dd914610580578063e318b52b146105a0578063e75235b8146105c0578063e86637db146105d55761020d565b8063cc2f8452116100d1578063cc2f8452146104f2578063d4d9bdcd14610520578063d8d11f7814610540578063e009cfde146105605761020d565b8063affed0e01461049c578063b4faba09146104b2578063b63e800d146104d25761020d565b80635624b25b1161016f5780636a7612021161013e5780636a7612021461040f5780637d83297414610422578063934f3a111461045a578063a0e67e2b1461047a5761020d565b80635624b25b146103755780635ae6bd37146103a2578063610b5925146103cf578063694e80c3146103ef5761020d565b80632f54bf6e116101ab5780632f54bf6e146102ea5780633408e4701461030a578063468721a7146103275780635229073f146103475761020d565b80630d582f131461027357806312fb68e0146102955780632d9ad53d146102b55761020d565b3661020d5760405134815233907f3d0ce9bfc3ed7d6862dbb28b2dea94561fe714a1b4d019aa8af39730d1ad7c3d9060200160405180910390a2005b34801561021957600080fd5b507f6c9a6c4a39284e37ed1cf53d337577d14212a4870fb976a4366c693b939918d580548061024457005b36600080373360601b365260008060143601600080855af190503d6000803e8061026d573d6000fd5b503d6000f35b34801561027f57600080fd5b5061029361028e36600461354b565b6106e5565b005b3480156102a157600080fd5b506102936102b0366004613651565b610933565b3480156102c157600080fd5b506102d56102d03660046136c6565b610fee565b60405190151581526020015b60405180910390f35b3480156102f657600080fd5b506102d56103053660046136c6565b611043565b34801561031657600080fd5b50465b6040519081526020016102e1565b34801561033357600080fd5b506102d56103423660046136f2565b611095565b34801561035357600080fd5b506103676103623660046136f2565b6111cb565b6040516102e19291906137c0565b34801561038157600080fd5b506103956103903660046137db565b611201565b6040516102e191906137fd565b3480156103ae57600080fd5b506103196103bd366004613810565b60076020526000908152604090205481565b3480156103db57600080fd5b506102936103ea3660046136c6565b61127d565b3480156103fb57600080fd5b5061029361040a366004613810565b611466565b6102d561041d366004613872565b611580565b34801561042e57600080fd5b5061031961043d36600461354b565b600860209081526000928352604080842090915290825290205481565b34801561046657600080fd5b5061029361047536600461394b565b61197c565b34801561048657600080fd5b5061048f6119f8565b6040516102e19190613a0a565b3480156104a857600080fd5b5061031960055481565b3480156104be57600080fd5b506102936104cd366004613a1d565b611b10565b3480156104de57600080fd5b506102936104ed366004613a6d565b611b33565b3480156104fe57600080fd5b5061051261050d36600461354b565b611c4f565b6040516102e1929190613b62565b34801561052c57600080fd5b5061029361053b366004613810565b611ebd565b34801561054c57600080fd5b5061031961055b366004613b9a565b611f91565b34801561056c57600080fd5b5061029361057b366004613c5b565b611fbe565b34801561058c57600080fd5b5061029361059b3660046136c6565b612190565b3480156105ac57600080fd5b506102936105bb366004613c94565b612331565b3480156105cc57600080fd5b50600454610319565b3480156105e157600080fd5b506103956105f0366004613b9a565b6126a9565b34801561060157600080fd5b506102936106103660046136c6565b612842565b34801561062157600080fd5b5061031960007f47e79534a245952e8b16893a336b85a3d9ea9fa8c573f3d803afb92a794692184660408051602081019390935282015230606082015260800160405160208183030381529060405280519060200120905090565b34801561068857600080fd5b50610293610697366004613cdf565b612897565b3480156106a857600080fd5b506103956040518060400160405280600581526020017f312e342e3000000000000000000000000000000000000000000000000000000081525081565b6106ed612b21565b73ffffffffffffffffffffffffffffffffffffffff821615801590610729575073ffffffffffffffffffffffffffffffffffffffff8216600114155b801561074b575073ffffffffffffffffffffffffffffffffffffffff82163014155b6107b6576040517f08c379a000000000000000000000000000000000000000000000000000000000815260206004820152600560248201527f475332303300000000000000000000000000000000000000000000000000000060448201526064015b60405180910390fd5b73ffffffffffffffffffffffffffffffffffffffff8281166000908152600260205260409020541615610845576040517f08c379a000000000000000000000000000000000000000000000000000000000815260206004820152600560248201527f475332303400000000000000000000000000000000000000000000000000000060448201526064016107ad565b60026020527fe90b7bceb6e7df5418fb78d8ee546e97c83a08bbccc01a0644d599ccd2a7c2e0805473ffffffffffffffffffffffffffffffffffffffff8481166000818152604081208054939094167fffffffffffffffffffffffff0000000000000000000000000000000000000000938416179093556001835283549091161790915560038054916108d783613d4f565b909155505060405173ffffffffffffffffffffffffffffffffffffffff8316907f9465fa0c962cc76958e6373a993326400c1c94f8be2fe3a952adfa7f60b2ea2690600090a2806004541461092f5761092f81611466565b5050565b61093e816041612b8c565b825110156109a8576040517f08c379a000000000000000000000000000000000000000000000000000000000815260206004820152600560248201527f475330323000000000000000000000000000000000000000000000000000000060448201526064016107ad565b6000808060008060005b86811015610fe2576041818102890160208101516040820151919092015160ff16955090935091506000849003610cf857885160208a01208a14610a52576040517f08c379a000000000000000000000000000000000000000000000000000000000815260206004820152600560248201527f475330323700000000000000000000000000000000000000000000000000000060448201526064016107ad565b9193508391610a62876041612b8c565b821015610acb576040517f08c379a000000000000000000000000000000000000000000000000000000000815260206004820152600560248201527f475330323100000000000000000000000000000000000000000000000000000060448201526064016107ad565b8751610ad8836020612bc8565b1115610b40576040517f08c379a000000000000000000000000000000000000000000000000000000000815260206004820152600560248201527f475330323200000000000000000000000000000000000000000000000000000060448201526064016107ad565b602082890181015189519091610b63908390610b5d908790612bc8565b90612bc8565b1115610bcb576040517f08c379a000000000000000000000000000000000000000000000000000000000815260206004820152600560248201527f475330323300000000000000000000000000000000000000000000000000000060448201526064016107ad565b6040517f20c13b0b000000000000000000000000000000000000000000000000000000008082528a85016020019173ffffffffffffffffffffffffffffffffffffffff8916906320c13b0b90610c27908f908690600401613d87565b602060405180830381865afa158015610c44573d6000803e3d6000fd5b505050506040513d601f19601f82011682018060405250810190610c689190613dac565b7fffffffff000000000000000000000000000000000000000000000000000000001614610cf1576040517f08c379a000000000000000000000000000000000000000000000000000000000815260206004820152600560248201527f475330323400000000000000000000000000000000000000000000000000000060448201526064016107ad565b5050610eeb565b8360ff16600103610dc65791935083913373ffffffffffffffffffffffffffffffffffffffff84161480610d5b575073ffffffffffffffffffffffffffffffffffffffff851660009081526008602090815260408083208d845290915290205415155b610dc1576040517f08c379a000000000000000000000000000000000000000000000000000000000815260206004820152600560248201527f475330323500000000000000000000000000000000000000000000000000000060448201526064016107ad565b610eeb565b601e8460ff161115610e8b576040517f19457468657265756d205369676e6564204d6573736167653a0a3332000000006020820152603c81018b9052600190605c0160405160208183030381529060405280519060200120600486610e2b9190613dee565b6040805160008152602081018083529390935260ff90911690820152606081018590526080810184905260a0016020604051602081039080840390855afa158015610e7a573d6000803e3d6000fd5b505050602060405103519450610eeb565b6040805160008152602081018083528c905260ff861691810191909152606081018490526080810183905260019060a0016020604051602081039080840390855afa158015610ede573d6000803e3d6000fd5b5050506020604051035194505b8573ffffffffffffffffffffffffffffffffffffffff168573ffffffffffffffffffffffffffffffffffffffff16118015610f4c575073ffffffffffffffffffffffffffffffffffffffff8581166000908152600260205260409020541615155b8015610f6f575073ffffffffffffffffffffffffffffffffffffffff8516600114155b610fd5576040517f08c379a000000000000000000000000000000000000000000000000000000000815260206004820152600560248201527f475330323600000000000000000000000000000000000000000000000000000060448201526064016107ad565b93945084936001016109b2565b50505050505050505050565b6000600173ffffffffffffffffffffffffffffffffffffffff83161480159061103d575073ffffffffffffffffffffffffffffffffffffffff8281166000908152600160205260409020541615155b92915050565b600073ffffffffffffffffffffffffffffffffffffffff821660011480159061103d57505073ffffffffffffffffffffffffffffffffffffffff90811660009081526002602052604090205416151590565b6000336001148015906110cc57503360009081526001602052604090205473ffffffffffffffffffffffffffffffffffffffff1615155b611132576040517f08c379a000000000000000000000000000000000000000000000000000000000815260206004820152600560248201527f475331303400000000000000000000000000000000000000000000000000000060448201526064016107ad565b61115f858585857fffffffffffffffffffffffffffffffffffffffffffffffffffffffffffffffff612be4565b905080156111975760405133907f6895c13664aa4f67288b25d7a21d7aaa34916e355fb9b6fae0a139a9085becb890600090a26111c3565b60405133907facd2c8702804128fdb0db2bb49f6d127dd0181c13fd45dbfe16de0930e2bd37590600090a25b949350505050565b600060606111db86868686611095565b915060405160203d0181016040523d81523d6000602083013e8091505094509492505050565b60606000611210836020613e07565b67ffffffffffffffff81111561122857611228613577565b6040519080825280601f01601f191660200182016040528015611252576020820181803683370190505b50905060005b838110156112755784810154602080830284010152600101611258565b509392505050565b611285612b21565b73ffffffffffffffffffffffffffffffffffffffff8116158015906112c1575073ffffffffffffffffffffffffffffffffffffffff8116600114155b611327576040517f08c379a000000000000000000000000000000000000000000000000000000000815260206004820152600560248201527f475331303100000000000000000000000000000000000000000000000000000060448201526064016107ad565b73ffffffffffffffffffffffffffffffffffffffff81811660009081526001602052604090205416156113b6576040517f08c379a000000000000000000000000000000000000000000000000000000000815260206004820152600560248201527f475331303200000000000000000000000000000000000000000000000000000060448201526064016107ad565b600160208190527fcc69885fda6bcc1a4ace058b4a62bf5e179ea78fd58a1ccd71c22cc9b688792f805473ffffffffffffffffffffffffffffffffffffffff848116600081815260408082208054949095167fffffffffffffffffffffffff000000000000000000000000000000000000000094851617909455948552835490911681179092555190917fecdf3a3effea5783a3c4c2140e677577666428d44ed9d474a0b3a4c9943f844091a250565b61146e612b21565b6003548111156114da576040517f08c379a000000000000000000000000000000000000000000000000000000000815260206004820152600560248201527f475332303100000000000000000000000000000000000000000000000000000060448201526064016107ad565b6001811015611545576040517f08c379a000000000000000000000000000000000000000000000000000000000815260206004820152600560248201527f475332303200000000000000000000000000000000000000000000000000000060448201526064016107ad565b60048190556040518181527f610f7ff2b304ae8903c3de74c60c6ab1f7d6226b3f52c5161905bb5ad4039c939060200160405180910390a150565b600080600061159a8e8e8e8e8e8e8e8e8e8e6005546126a9565b6005805491925060006115ac83613d4f565b90915550508051602082012091506115c582828661197c565b5060006115f07f4a204f620c8c5ccdca3fd54d003badd85ba500436a431f0cbda4f558c93c34c85490565b905073ffffffffffffffffffffffffffffffffffffffff811615611690578073ffffffffffffffffffffffffffffffffffffffff166375f0bb528f8f8f8f8f8f8f8f8f8f8f336040518d63ffffffff1660e01b815260040161165d9c9b9a99989796959493929190613e88565b600060405180830381600087803b15801561167757600080fd5b505af115801561168b573d6000803e3d6000fd5b505050505b6116bc61169f8a6109c4613f9e565b603f6116ac8c6040613e07565b6116b69190613fb1565b90612c2b565b6116c8906101f4613f9e565b5a1015611731576040517f08c379a000000000000000000000000000000000000000000000000000000000815260206004820152600560248201527f475330313000000000000000000000000000000000000000000000000000000060448201526064016107ad565b60005a90506117a28f8f8f8f8080601f016020809104026020016040519081016040528093929190818152602001838380828437600081840152601f19601f820116905080830192505050505050508e8c60001461178f578e612be4565b6109c45a61179d9190613fec565b612be4565b93506117af5a8290612c42565b905083806117bc57508915155b806117c657508715155b61182c576040517f08c379a000000000000000000000000000000000000000000000000000000000815260206004820152600560248201527f475330313300000000000000000000000000000000000000000000000000000060448201526064016107ad565b6000881561184457611841828b8b8b8b612c5d565b90505b841561188957837f442e715f626346e8c54381002da614f62bee8d27386535b2521ec8540898556e8260405161187c91815260200190565b60405180910390a26118c4565b837f23428b18acfb3ea64b08dc0c1d296ea9c09702c09083ca5272e64d115b687d23826040516118bb91815260200190565b60405180910390a25b505073ffffffffffffffffffffffffffffffffffffffff81161561196b576040517f9327136800000000000000000000000000000000000000000000000000000000815260048101839052831515602482015273ffffffffffffffffffffffffffffffffffffffff821690639327136890604401600060405180830381600087803b15801561195257600080fd5b505af1158015611966573d6000803e3d6000fd5b505050505b50509b9a5050505050505050505050565b600454806119e6576040517f08c379a000000000000000000000000000000000000000000000000000000000815260206004820152600560248201527f475330303100000000000000000000000000000000000000000000000000000060448201526064016107ad565b6119f284848484610933565b50505050565b6060600060035467ffffffffffffffff811115611a1757611a17613577565b604051908082528060200260200182016040528015611a40578160200160208202803683370190505b506001600090815260026020527fe90b7bceb6e7df5418fb78d8ee546e97c83a08bbccc01a0644d599ccd2a7c2e0549192509073ffffffffffffffffffffffffffffffffffffffff165b73ffffffffffffffffffffffffffffffffffffffff8116600114611b085780838381518110611abb57611abb613fff565b73ffffffffffffffffffffffffffffffffffffffff928316602091820292909201810191909152918116600090815260029092526040909120541681611b0081613d4f565b925050611a8a565b509092915050565b600080825160208401855af480600052503d6020523d600060403e60403d016000fd5b611b718a8a808060200260200160405190810160405280939291908181526020018383602002808284376000920191909152508c9250612dee915050565b73ffffffffffffffffffffffffffffffffffffffff841615611b9657611b96846131b1565b611bd68787878080601f01602080910402602001604051908101604052809392919081815260200183838082843760009201919091525061325492505050565b8115611bed57611beb82600060018685612c5d565b505b3373ffffffffffffffffffffffffffffffffffffffff167f141df868a6331af528e38c83b7aa03edc19be66e37ae67f9285bf4f8e3c6a1a88b8b8b8b89604051611c3b95949392919061402e565b60405180910390a250505050505050505050565b6060600073ffffffffffffffffffffffffffffffffffffffff841660011480611c7c5750611c7c84610fee565b611ce2576040517f08c379a000000000000000000000000000000000000000000000000000000000815260206004820152600560248201527f475331303500000000000000000000000000000000000000000000000000000060448201526064016107ad565b60008311611d4c576040517f08c379a000000000000000000000000000000000000000000000000000000000815260206004820152600560248201527f475331303600000000000000000000000000000000000000000000000000000060448201526064016107ad565b8267ffffffffffffffff811115611d6557611d65613577565b604051908082528060200260200182016040528015611d8e578160200160208202803683370190505b5073ffffffffffffffffffffffffffffffffffffffff808616600090815260016020526040812054929450911691505b73ffffffffffffffffffffffffffffffffffffffff821615801590611dfa575073ffffffffffffffffffffffffffffffffffffffff8216600114155b8015611e0557508381105b15611e6d5781838281518110611e1d57611e1d613fff565b73ffffffffffffffffffffffffffffffffffffffff928316602091820292909201810191909152928116600090815260019093526040909220549091169080611e6581613d4f565b915050611dbe565b73ffffffffffffffffffffffffffffffffffffffff8216600114611eb25782611e97600183613fec565b81518110611ea757611ea7613fff565b602002602001015191505b808352509250929050565b3360009081526002602052604090205473ffffffffffffffffffffffffffffffffffffffff16611f49576040517f08c379a000000000000000000000000000000000000000000000000000000000815260206004820152600560248201527f475330333000000000000000000000000000000000000000000000000000000060448201526064016107ad565b336000818152600860209081526040808320858452909152808220600190555183917ff2a0eb156472d1440255b0d7c1e19cc07115d1051fe605b0dce69acfec884d9c91a350565b6000611fa68c8c8c8c8c8c8c8c8c8c8c6126a9565b8051906020012090509b9a5050505050505050505050565b611fc6612b21565b73ffffffffffffffffffffffffffffffffffffffff811615801590612002575073ffffffffffffffffffffffffffffffffffffffff8116600114155b612068576040517f08c379a000000000000000000000000000000000000000000000000000000000815260206004820152600560248201527f475331303100000000000000000000000000000000000000000000000000000060448201526064016107ad565b73ffffffffffffffffffffffffffffffffffffffff8281166000908152600160205260409020548116908216146120fb576040517f08c379a000000000000000000000000000000000000000000000000000000000815260206004820152600560248201527f475331303300000000000000000000000000000000000000000000000000000060448201526064016107ad565b73ffffffffffffffffffffffffffffffffffffffff818116600081815260016020526040808220805487861684528284208054919096167fffffffffffffffffffffffff0000000000000000000000000000000000000000918216179095558383528054909416909355915190917faab4fa2b463f581b2b32cb3b7e3b704b9ce37cc209b5fb4d77e593ace405427691a25050565b612198612b21565b73ffffffffffffffffffffffffffffffffffffffff8116156122c8576040517f01ffc9a70000000000000000000000000000000000000000000000000000000081527fe6d7a83a00000000000000000000000000000000000000000000000000000000600482015273ffffffffffffffffffffffffffffffffffffffff8216906301ffc9a790602401602060405180830381865afa15801561223e573d6000803e3d6000fd5b505050506040513d601f19601f8201168201806040525081019061226291906140b4565b6122c8576040517f08c379a000000000000000000000000000000000000000000000000000000000815260206004820152600560248201527f475333303000000000000000000000000000000000000000000000000000000060448201526064016107ad565b7f4a204f620c8c5ccdca3fd54d003badd85ba500436a431f0cbda4f558c93c34c881815560405173ffffffffffffffffffffffffffffffffffffffff8316907f1151116914515bc0891ff9047a6cb32cf902546f83066499bcf8ba33d2353fa290600090a25050565b612339612b21565b73ffffffffffffffffffffffffffffffffffffffff811615801590612375575073ffffffffffffffffffffffffffffffffffffffff8116600114155b8015612397575073ffffffffffffffffffffffffffffffffffffffff81163014155b6123fd576040517f08c379a000000000000000000000000000000000000000000000000000000000815260206004820152600560248201527f475332303300000000000000000000000000000000000000000000000000000060448201526064016107ad565b73ffffffffffffffffffffffffffffffffffffffff818116600090815260026020526040902054161561248c576040517f08c379a000000000000000000000000000000000000000000000000000000000815260206004820152600560248201527f475332303400000000000000000000000000000000000000000000000000000060448201526064016107ad565b73ffffffffffffffffffffffffffffffffffffffff8216158015906124c8575073ffffffffffffffffffffffffffffffffffffffff8216600114155b61252e576040517f08c379a000000000000000000000000000000000000000000000000000000000815260206004820152600560248201527f475332303300000000000000000000000000000000000000000000000000000060448201526064016107ad565b73ffffffffffffffffffffffffffffffffffffffff8381166000908152600260205260409020548116908316146125c1576040517f08c379a000000000000000000000000000000000000000000000000000000000815260206004820152600560248201527f475332303500000000000000000000000000000000000000000000000000000060448201526064016107ad565b73ffffffffffffffffffffffffffffffffffffffff828116600081815260026020526040808220805486861680855283852080549288167fffffffffffffffffffffffff00000000000000000000000000000000000000009384161790559589168452828420805482169096179095558383528054909416909355915190917ff8d49fc529812e9a7c5c50e69c20f0dccc0db8fa95c98bc58cc9a4f1c1299eaf91a260405173ffffffffffffffffffffffffffffffffffffffff8216907f9465fa0c962cc76958e6373a993326400c1c94f8be2fe3a952adfa7f60b2ea2690600090a2505050565b606060007fbb8310d486368db6bd6f849402fdd73ad53d316b5a4b2644ad6efe0f941286d860001b8d8d8d8d6040516126e39291906140d6565b604051908190038120612709949392918e908e908e908e908e908e908e906020016140e6565b604080517fffffffffffffffffffffffffffffffffffffffffffffffffffffffffffffffe0818403018152919052805160209091012090507f19000000000000000000000000000000000000000000000000000000000000007f01000000000000000000000000000000000000000000000000000000000000006127dd60007f47e79534a245952e8b16893a336b85a3d9ea9fa8c573f3d803afb92a794692184660408051602081019390935282015230606082015260800160405160208183030381529060405280519060200120905090565b6040517fff0000000000000000000000000000000000000000000000000000000000000093841660208201529290911660218301526022820152604281018290526062016040516020818303038152906040529150509b9a5050505050505050505050565b61284a612b21565b612853816131b1565b60405173ffffffffffffffffffffffffffffffffffffffff8216907f5ac6c46c93c8d0e53714ba3b53db3e7c046da994313d7ed0d192028bc7c228b090600090a250565b61289f612b21565b8060016003546128af9190613fec565b1015612917576040517f08c379a000000000000000000000000000000000000000000000000000000000815260206004820152600560248201527f475332303100000000000000000000000000000000000000000000000000000060448201526064016107ad565b73ffffffffffffffffffffffffffffffffffffffff821615801590612953575073ffffffffffffffffffffffffffffffffffffffff8216600114155b6129b9576040517f08c379a000000000000000000000000000000000000000000000000000000000815260206004820152600560248201527f475332303300000000000000000000000000000000000000000000000000000060448201526064016107ad565b73ffffffffffffffffffffffffffffffffffffffff838116600090815260026020526040902054811690831614612a4c576040517f08c379a000000000000000000000000000000000000000000000000000000000815260206004820152600560248201527f475332303500000000000000000000000000000000000000000000000000000060448201526064016107ad565b73ffffffffffffffffffffffffffffffffffffffff828116600081815260026020526040808220805488861684529183208054929095167fffffffffffffffffffffffff00000000000000000000000000000000000000009283161790945591815282549091169091556003805491612ac483614163565b909155505060405173ffffffffffffffffffffffffffffffffffffffff8316907ff8d49fc529812e9a7c5c50e69c20f0dccc0db8fa95c98bc58cc9a4f1c1299eaf90600090a28060045414612b1c57612b1c81611466565b505050565b333014612b8a576040517f08c379a000000000000000000000000000000000000000000000000000000000815260206004820152600560248201527f475330333100000000000000000000000000000000000000000000000000000060448201526064016107ad565b565b600082600003612b9e5750600061103d565b6000612baa8385613e07565b905082612bb78583613fb1565b14612bc157600080fd5b9392505050565b600080612bd58385613f9e565b905083811015612bc157600080fd5b60006001836001811115612bfa57612bfa613e1e565b03612c12576000808551602087018986f49050612c22565b600080855160208701888a87f190505b95945050505050565b600081831015612c3b5781612bc1565b5090919050565b600082821115612c5157600080fd5b60006111c38385613fec565b60008073ffffffffffffffffffffffffffffffffffffffff831615612c825782612c84565b325b905073ffffffffffffffffffffffffffffffffffffffff8416612d6357612cc33a8610612cb1573a612cb3565b855b612cbd8989612bc8565b90612b8c565b60405190925073ffffffffffffffffffffffffffffffffffffffff82169083156108fc029084906000818181858888f19350505050612d5e576040517f08c379a000000000000000000000000000000000000000000000000000000000815260206004820152600560248201527f475330313100000000000000000000000000000000000000000000000000000060448201526064016107ad565b612de4565b612d7185612cbd8989612bc8565b9150612d7e84828461344c565b612de4576040517f08c379a000000000000000000000000000000000000000000000000000000000815260206004820152600560248201527f475330313200000000000000000000000000000000000000000000000000000060448201526064016107ad565b5095945050505050565b60045415612e58576040517f08c379a000000000000000000000000000000000000000000000000000000000815260206004820152600560248201527f475332303000000000000000000000000000000000000000000000000000000060448201526064016107ad565b8151811115612ec3576040517f08c379a000000000000000000000000000000000000000000000000000000000815260206004820152600560248201527f475332303100000000000000000000000000000000000000000000000000000060448201526064016107ad565b6001811015612f2e576040517f08c379a000000000000000000000000000000000000000000000000000000000815260206004820152600560248201527f475332303200000000000000000000000000000000000000000000000000000060448201526064016107ad565b600160005b8351811015613159576000848281518110612f5057612f50613fff565b60200260200101519050600073ffffffffffffffffffffffffffffffffffffffff168173ffffffffffffffffffffffffffffffffffffffff1614158015612fae575073ffffffffffffffffffffffffffffffffffffffff8116600114155b8015612fd0575073ffffffffffffffffffffffffffffffffffffffff81163014155b801561300857508073ffffffffffffffffffffffffffffffffffffffff168373ffffffffffffffffffffffffffffffffffffffff1614155b61306e576040517f08c379a000000000000000000000000000000000000000000000000000000000815260206004820152600560248201527f475332303300000000000000000000000000000000000000000000000000000060448201526064016107ad565b73ffffffffffffffffffffffffffffffffffffffff81811660009081526002602052604090205416156130fd576040517f08c379a000000000000000000000000000000000000000000000000000000000815260206004820152600560248201527f475332303400000000000000000000000000000000000000000000000000000060448201526064016107ad565b73ffffffffffffffffffffffffffffffffffffffff928316600090815260026020526040902080547fffffffffffffffffffffffff00000000000000000000000000000000000000001693821693909317909255600101612f33565b5073ffffffffffffffffffffffffffffffffffffffff16600090815260026020526040902080547fffffffffffffffffffffffff00000000000000000000000000000000000000001660011790559051600355600455565b3073ffffffffffffffffffffffffffffffffffffffff821603613230576040517f08c379a000000000000000000000000000000000000000000000000000000000815260206004820152600560248201527f475334303000000000000000000000000000000000000000000000000000000060448201526064016107ad565b7f6c9a6c4a39284e37ed1cf53d337577d14212a4870fb976a4366c693b939918d555565b600160008190526020527fcc69885fda6bcc1a4ace058b4a62bf5e179ea78fd58a1ccd71c22cc9b688792f5473ffffffffffffffffffffffffffffffffffffffff16156132fd576040517f08c379a000000000000000000000000000000000000000000000000000000000815260206004820152600560248201527f475331303000000000000000000000000000000000000000000000000000000060448201526064016107ad565b6001600081905260208190527fcc69885fda6bcc1a4ace058b4a62bf5e179ea78fd58a1ccd71c22cc9b688792f80547fffffffffffffffffffffffff000000000000000000000000000000000000000016909117905573ffffffffffffffffffffffffffffffffffffffff82161561092f57813b6133d7576040517f08c379a000000000000000000000000000000000000000000000000000000000815260206004820152600560248201527f475330303200000000000000000000000000000000000000000000000000000060448201526064016107ad565b6133e68260008360015a612be4565b61092f576040517f08c379a000000000000000000000000000000000000000000000000000000000815260206004820152600560248201527f475330303000000000000000000000000000000000000000000000000000000060448201526064016107ad565b6040805173ffffffffffffffffffffffffffffffffffffffff841660248201526044808201849052825180830390910181526064909101909152602080820180517bffffffffffffffffffffffffffffffffffffffffffffffffffffffff167fa9059cbb000000000000000000000000000000000000000000000000000000001781528251600093929184919082896127105a03f13d80156134f95760208114613501576000935061350c565b81935061350c565b600051158215171593505b5050509392505050565b73ffffffffffffffffffffffffffffffffffffffff8116811461353857600080fd5b50565b803561354681613516565b919050565b6000806040838503121561355e57600080fd5b823561356981613516565b946020939093013593505050565b7f4e487b7100000000000000000000000000000000000000000000000000000000600052604160045260246000fd5b600082601f8301126135b757600080fd5b813567ffffffffffffffff808211156135d2576135d2613577565b604051601f83017fffffffffffffffffffffffffffffffffffffffffffffffffffffffffffffffe0908116603f0116810190828211818310171561361857613618613577565b8160405283815286602085880101111561363157600080fd5b836020870160208301376000602085830101528094505050505092915050565b6000806000806080858703121561366757600080fd5b84359350602085013567ffffffffffffffff8082111561368657600080fd5b613692888389016135a6565b945060408701359150808211156136a857600080fd5b506136b5878288016135a6565b949793965093946060013593505050565b6000602082840312156136d857600080fd5b8135612bc181613516565b80356002811061354657600080fd5b6000806000806080858703121561370857600080fd5b843561371381613516565b935060208501359250604085013567ffffffffffffffff81111561373657600080fd5b613742878288016135a6565b925050613751606086016136e3565b905092959194509250565b6000815180845260005b8181101561378257602081850181015186830182015201613766565b5060006020828601015260207fffffffffffffffffffffffffffffffffffffffffffffffffffffffffffffffe0601f83011685010191505092915050565b82151581526040602082015260006111c3604083018461375c565b600080604083850312156137ee57600080fd5b50508035926020909101359150565b602081526000612bc1602083018461375c565b60006020828403121561382257600080fd5b5035919050565b60008083601f84011261383b57600080fd5b50813567ffffffffffffffff81111561385357600080fd5b60208301915083602082850101111561386b57600080fd5b9250929050565b60008060008060008060008060008060006101408c8e03121561389457600080fd5b61389d8c61353b565b9a5060208c0135995067ffffffffffffffff8060408e013511156138c057600080fd5b6138d08e60408f01358f01613829565b909a5098506138e160608e016136e3565b975060808d0135965060a08d0135955060c08d0135945061390460e08e0161353b565b93506139136101008e0161353b565b9250806101208e0135111561392757600080fd5b506139398d6101208e01358e016135a6565b90509295989b509295989b9093969950565b60008060006060848603121561396057600080fd5b83359250602084013567ffffffffffffffff8082111561397f57600080fd5b61398b878388016135a6565b935060408601359150808211156139a157600080fd5b506139ae868287016135a6565b9150509250925092565b60008151808452602080850194506020840160005b838110156139ff57815173ffffffffffffffffffffffffffffffffffffffff16875295820195908201906001016139cd565b509495945050505050565b602081526000612bc160208301846139b8565b60008060408385031215613a3057600080fd5b8235613a3b81613516565b9150602083013567ffffffffffffffff811115613a5757600080fd5b613a63858286016135a6565b9150509250929050565b6000806000806000806000806000806101008b8d031215613a8d57600080fd5b8a3567ffffffffffffffff80821115613aa557600080fd5b818d0191508d601f830112613ab957600080fd5b813581811115613ac857600080fd5b8e60208260051b8501011115613add57600080fd5b60208381019d50909b508d01359950613af860408e0161353b565b985060608d0135915080821115613b0e57600080fd5b50613b1b8d828e01613829565b9097509550613b2e905060808c0161353b565b9350613b3c60a08c0161353b565b925060c08b01359150613b5160e08c0161353b565b90509295989b9194979a5092959850565b604081526000613b7560408301856139b8565b905073ffffffffffffffffffffffffffffffffffffffff831660208301529392505050565b60008060008060008060008060008060006101408c8e031215613bbc57600080fd5b8b35613bc781613516565b9a5060208c0135995060408c013567ffffffffffffffff811115613bea57600080fd5b613bf68e828f01613829565b909a509850613c09905060608d016136e3565b965060808c0135955060a08c0135945060c08c0135935060e08c0135613c2e81613516565b92506101008c0135613c3f81613516565b809250506101208c013590509295989b509295989b9093969950565b60008060408385031215613c6e57600080fd5b8235613c7981613516565b91506020830135613c8981613516565b809150509250929050565b600080600060608486031215613ca957600080fd5b8335613cb481613516565b92506020840135613cc481613516565b91506040840135613cd481613516565b809150509250925092565b600080600060608486031215613cf457600080fd5b8335613cff81613516565b92506020840135613d0f81613516565b929592945050506040919091013590565b7f4e487b7100000000000000000000000000000000000000000000000000000000600052601160045260246000fd5b60007fffffffffffffffffffffffffffffffffffffffffffffffffffffffffffffffff8203613d8057613d80613d20565b5060010190565b604081526000613d9a604083018561375c565b8281036020840152612c22818561375c565b600060208284031215613dbe57600080fd5b81517fffffffff0000000000000000000000000000000000000000000000000000000081168114612bc157600080fd5b60ff828116828216039081111561103d5761103d613d20565b808202811582820484141761103d5761103d613d20565b7f4e487b7100000000000000000000000000000000000000000000000000000000600052602160045260246000fd5b60028110613e84577f4e487b7100000000000000000000000000000000000000000000000000000000600052602160045260246000fd5b9052565b600061016073ffffffffffffffffffffffffffffffffffffffff8f1683528d60208401528060408401528b81840152506101808b8d828501376000818d850101527fffffffffffffffffffffffffffffffffffffffffffffffffffffffffffffffe0601f8d01168301613efe606085018d613e4d565b8a60808501528960a08501528860c0850152613f3260e085018973ffffffffffffffffffffffffffffffffffffffff169052565b73ffffffffffffffffffffffffffffffffffffffff87166101008501528184820301610120850152613f668282018761375c565b92505050613f8d61014083018473ffffffffffffffffffffffffffffffffffffffff169052565b9d9c50505050505050505050505050565b8082018082111561103d5761103d613d20565b600082613fe7577f4e487b7100000000000000000000000000000000000000000000000000000000600052601260045260246000fd5b500490565b8181038181111561103d5761103d613d20565b7f4e487b7100000000000000000000000000000000000000000000000000000000600052603260045260246000fd5b6080808252810185905260008660a08301825b8881101561407e57823561405481613516565b73ffffffffffffffffffffffffffffffffffffffff16825260209283019290910190600101614041565b506020840196909652505073ffffffffffffffffffffffffffffffffffffffff9283166040820152911660609091015292915050565b6000602082840312156140c657600080fd5b81518015158114612bc157600080fd5b8183823760009101908152919050565b6000610160820190508c825273ffffffffffffffffffffffffffffffffffffffff808d1660208401528b60408401528a6060840152614128608084018b613e4d565b60a083019890985260c082019690965260e0810194909452918516610100840152909316610120820152610140019190915295945050505050565b60008161417257614172613d20565b507fffffffffffffffffffffffffffffffffffffffffffffffffffffffffffffffff019056fea164736f6c6343000818000a608060405234801561001057600080fd5b50610907806100206000396000f3fe608060405234801561001057600080fd5b50600436106100675760003560e01c806353e5d9351161005057806353e5d935146100b7578063d18af54d146100cc578063ec9e80bb146100df57600080fd5b80631688f0b91461006c5780633408e470146100a9575b600080fd5b61007f61007a3660046105d2565b6100f2565b60405173ffffffffffffffffffffffffffffffffffffffff90911681526020015b60405180910390f35b6040514681526020016100a0565b6100bf610194565b6040516100a09190610699565b61007f6100da3660046106b3565b6101dc565b61007f6100ed3660046105d2565b6102f8565b600080838051906020012083604051602001610118929190918252602082015260400190565b60405160208183030381529060405280519060200120905061013b85858361032a565b60405173ffffffffffffffffffffffffffffffffffffffff8781168252919350908316907f4f51faf6c4561ff95f067657e43439f0f856d97c04d9ec9070a6199ad418e2359060200160405180910390a2509392505050565b6060604051806020016101a6906104c6565b7fffffffffffffffffffffffffffffffffffffffffffffffffffffffffffffffe082820381018352601f90910116604052919050565b600080838360405160200161022092919091825260601b7fffffffffffffffffffffffffffffffffffffffff00000000000000000000000016602082015260340190565b6040516020818303038152906040528051906020012060001c90506102468686836100f2565b915073ffffffffffffffffffffffffffffffffffffffff8316156102ef576040517f1e52b51800000000000000000000000000000000000000000000000000000000815273ffffffffffffffffffffffffffffffffffffffff841690631e52b518906102bc9085908a908a908a9060040161071f565b600060405180830381600087803b1580156102d657600080fd5b505af11580156102ea573d6000803e3d6000fd5b505050505b50949350505050565b60008083805190602001208361030b4690565b6040805160208101949094528301919091526060820152608001610118565b6000833b610399576040517f08c379a000000000000000000000000000000000000000000000000000000000815260206004820152601f60248201527f53696e676c65746f6e20636f6e7472616374206e6f74206465706c6f7965640060448201526064015b60405180910390fd5b6000604051806020016103ab906104c6565b7fffffffffffffffffffffffffffffffffffffffffffffffffffffffffffffffe082820381018352601f909101166040819052610403919073ffffffffffffffffffffffffffffffffffffffff881690602001610769565b6040516020818303038152906040529050828151826020016000f5915073ffffffffffffffffffffffffffffffffffffffff821661049d576040517f08c379a000000000000000000000000000000000000000000000000000000000815260206004820152601360248201527f437265617465322063616c6c206661696c6564000000000000000000000000006044820152606401610390565b8351156104be5760008060008651602088016000875af1036104be57600080fd5b509392505050565b61016f8061078c83390190565b73ffffffffffffffffffffffffffffffffffffffff811681146104f557600080fd5b50565b7f4e487b7100000000000000000000000000000000000000000000000000000000600052604160045260246000fd5b600082601f83011261053857600080fd5b813567ffffffffffffffff80821115610553576105536104f8565b604051601f83017fffffffffffffffffffffffffffffffffffffffffffffffffffffffffffffffe0908116603f01168101908282118183101715610599576105996104f8565b816040528381528660208588010111156105b257600080fd5b836020870160208301376000602085830101528094505050505092915050565b6000806000606084860312156105e757600080fd5b83356105f2816104d3565b9250602084013567ffffffffffffffff81111561060e57600080fd5b61061a86828701610527565b925050604084013590509250925092565b60005b8381101561064657818101518382015260200161062e565b50506000910152565b6000815180845261066781602086016020860161062b565b601f017fffffffffffffffffffffffffffffffffffffffffffffffffffffffffffffffe0169290920160200192915050565b6020815260006106ac602083018461064f565b9392505050565b600080600080608085870312156106c957600080fd5b84356106d4816104d3565b9350602085013567ffffffffffffffff8111156106f057600080fd5b6106fc87828801610527565b935050604085013591506060850135610714816104d3565b939692955090935050565b600073ffffffffffffffffffffffffffffffffffffffff808716835280861660208401525060806040830152610758608083018561064f565b905082606083015295945050505050565b6000835161077b81846020880161062b565b919091019182525060200191905056fe608060405234801561001057600080fd5b5060405161016f38038061016f83398101604081905261002f916100b9565b6001600160a01b0381166100945760405162461bcd60e51b815260206004820152602260248201527f496e76616c69642073696e676c65746f6e20616464726573732070726f766964604482015261195960f21b606482015260840160405180910390fd5b600080546001600160a01b0319166001600160a01b03929092169190911790556100e9565b6000602082840312156100cb57600080fd5b81516001600160a01b03811681146100e257600080fd5b9392505050565b6078806100f76000396000f3fe6080604052600073ffffffffffffffffffffffffffffffffffffffff8154167fa619486e00000000000000000000000000000000000000000000000000000000823503604d57808252602082f35b3682833781823684845af490503d82833e806066573d82fd5b503d81f3fea164736f6c6343000818000aa164736f6c6343000818000a608060405234801561001057600080fd5b506110e2806100206000396000f3fe608060405234801561001057600080fd5b50600436106100c85760003560e01c806320c13b0b11610081578063bc197c811161005b578063bc197c81146101e7578063bd61951d14610222578063f23a6e611461024257600080fd5b806320c13b0b146101ac5780636ac24784146101bf578063b2494df3146101d257600080fd5b80630a1028c4116100b25780630a1028c41461010f578063150b7a02146101305780631626ba7e1461019957600080fd5b806223de29146100cd57806301ffc9a7146100e7575b600080fd5b6100e56100db366004610918565b5050505050505050565b005b6100fa6100f53660046109f7565b61027b565b60405190151581526020015b60405180910390f35b61012261011d366004610b20565b610360565b604051908152602001610106565b61016861013e366004610b5d565b7f150b7a020000000000000000000000000000000000000000000000000000000095945050505050565b6040517fffffffff000000000000000000000000000000000000000000000000000000009091168152602001610106565b6101686101a7366004610bd0565b61036c565b6101686101ba366004610c1c565b61048d565b6101226101cd366004610c80565b610658565b6101da610795565b6040516101069190610cc6565b6101686101f5366004610d65565b7fbc197c810000000000000000000000000000000000000000000000000000000098975050505050505050565b610235610230366004610e03565b610847565b6040516101069190610ea3565b610168610250366004610eb6565b7ff23a6e61000000000000000000000000000000000000000000000000000000009695505050505050565b60007fffffffff0000000000000000000000000000000000000000000000000000000082167f4e2312e000000000000000000000000000000000000000000000000000000000148061030e57507fffffffff0000000000000000000000000000000000000000000000000000000082167f150b7a0200000000000000000000000000000000000000000000000000000000145b8061035a57507fffffffff0000000000000000000000000000000000000000000000000000000082167f01ffc9a700000000000000000000000000000000000000000000000000000000145b92915050565b600061035a3383610658565b60408051602080820186905282518083039091018152818301928390527f20c13b0b000000000000000000000000000000000000000000000000000000009092526000913391839183916320c13b0b916103cc9189908990604401610f32565b602060405180830381865afa1580156103e9573d6000803e3d6000fd5b505050506040513d601f19601f8201168201806040525081019061040d9190610f96565b90507fffffffff0000000000000000000000000000000000000000000000000000000081167f20c13b0b000000000000000000000000000000000000000000000000000000001461045f576000610481565b7f1626ba7e000000000000000000000000000000000000000000000000000000005b925050505b9392505050565b6000338161049b8286610658565b905083516000036105a7576040517f5ae6bd370000000000000000000000000000000000000000000000000000000081526004810182905273ffffffffffffffffffffffffffffffffffffffff831690635ae6bd3790602401602060405180830381865afa158015610511573d6000803e3d6000fd5b505050506040513d601f19601f820116820180604052508101906105359190610fb3565b6000036105a2576040517f08c379a000000000000000000000000000000000000000000000000000000000815260206004820152601160248201527f48617368206e6f7420617070726f766564000000000000000000000000000000604482015260640160405180910390fd5b61062e565b6040517f934f3a1100000000000000000000000000000000000000000000000000000000815273ffffffffffffffffffffffffffffffffffffffff83169063934f3a11906105fd90849089908990600401610fcc565b60006040518083038186803b15801561061557600080fd5b505afa158015610629573d6000803e3d6000fd5b505050505b507f20c13b0b00000000000000000000000000000000000000000000000000000000949350505050565b6000807f60b3cbf8b4a223d68d641b3b6ddf9a298e7f33710cf3d3a9d1146b5a6150fbca60001b83805190602001206040516020016106a1929190918252602082015260400190565b604051602081830303815290604052805190602001209050601960f81b600160f81b8573ffffffffffffffffffffffffffffffffffffffff1663f698da256040518163ffffffff1660e01b8152600401602060405180830381865afa15801561070e573d6000803e3d6000fd5b505050506040513d601f19601f820116820180604052508101906107329190610fb3565b6040517fff0000000000000000000000000000000000000000000000000000000000000093841660208201529290911660218301526022820152604281018290526062016040516020818303038152906040528051906020012091505092915050565b6040517fcc2f845200000000000000000000000000000000000000000000000000000000815260016004820152600a60248201526060903390600090829063cc2f845290604401600060405180830381865afa1580156107f9573d6000803e3d6000fd5b505050506040513d6000823e601f3d9081017fffffffffffffffffffffffffffffffffffffffffffffffffffffffffffffffe016820160405261083f9190810190611011565b509392505050565b60606040517fb4faba09000000000000000000000000000000000000000000000000000000008152600436036004808301376020600036836000335af1505060203d036040519150808201604052806020833e5060005161048657805160208201fd5b73ffffffffffffffffffffffffffffffffffffffff811681146108cc57600080fd5b50565b60008083601f8401126108e157600080fd5b50813567ffffffffffffffff8111156108f957600080fd5b60208301915083602082850101111561091157600080fd5b9250929050565b60008060008060008060008060c0898b03121561093457600080fd5b883561093f816108aa565b9750602089013561094f816108aa565b9650604089013561095f816108aa565b955060608901359450608089013567ffffffffffffffff8082111561098357600080fd5b61098f8c838d016108cf565b909650945060a08b01359150808211156109a857600080fd5b506109b58b828c016108cf565b999c989b5096995094979396929594505050565b7fffffffff00000000000000000000000000000000000000000000000000000000811681146108cc57600080fd5b600060208284031215610a0957600080fd5b8135610486816109c9565b7f4e487b7100000000000000000000000000000000000000000000000000000000600052604160045260246000fd5b604051601f82017fffffffffffffffffffffffffffffffffffffffffffffffffffffffffffffffe016810167ffffffffffffffff81118282101715610a8a57610a8a610a14565b604052919050565b600082601f830112610aa357600080fd5b813567ffffffffffffffff811115610abd57610abd610a14565b610aee60207fffffffffffffffffffffffffffffffffffffffffffffffffffffffffffffffe0601f84011601610a43565b818152846020838601011115610b0357600080fd5b816020850160208301376000918101602001919091529392505050565b600060208284031215610b3257600080fd5b813567ffffffffffffffff811115610b4957600080fd5b610b5584828501610a92565b949350505050565b600080600080600060808688031215610b7557600080fd5b8535610b80816108aa565b94506020860135610b90816108aa565b935060408601359250606086013567ffffffffffffffff811115610bb357600080fd5b610bbf888289016108cf565b969995985093965092949392505050565b600080600060408486031215610be557600080fd5b83359250602084013567ffffffffffffffff811115610c0357600080fd5b610c0f868287016108cf565b9497909650939450505050565b60008060408385031215610c2f57600080fd5b823567ffffffffffffffff80821115610c4757600080fd5b610c5386838701610a92565b93506020850135915080821115610c6957600080fd5b50610c7685828601610a92565b9150509250929050565b60008060408385031215610c9357600080fd5b8235610c9e816108aa565b9150602083013567ffffffffffffffff811115610cba57600080fd5b610c7685828601610a92565b6020808252825182820181905260009190848201906040850190845b81811015610d1457835173ffffffffffffffffffffffffffffffffffffffff1683529284019291840191600101610ce2565b50909695505050505050565b60008083601f840112610d3257600080fd5b50813567ffffffffffffffff811115610d4a57600080fd5b6020830191508360208260051b850101111561091157600080fd5b60008060008060008060008060a0898b031215610d8157600080fd5b8835610d8c816108aa565b97506020890135610d9c816108aa565b9650604089013567ffffffffffffffff80821115610db957600080fd5b610dc58c838d01610d20565b909850965060608b0135915080821115610dde57600080fd5b610dea8c838d01610d20565b909650945060808b01359150808211156109a857600080fd5b600080600060408486031215610e1857600080fd5b8335610e23816108aa565b9250602084013567ffffffffffffffff811115610c0357600080fd5b6000815180845260005b81811015610e6557602081850181015186830182015201610e49565b5060006020828601015260207fffffffffffffffffffffffffffffffffffffffffffffffffffffffffffffffe0601f83011685010191505092915050565b6020815260006104866020830184610e3f565b60008060008060008060a08789031215610ecf57600080fd5b8635610eda816108aa565b95506020870135610eea816108aa565b94506040870135935060608701359250608087013567ffffffffffffffff811115610f1457600080fd5b610f2089828a016108cf565b979a9699509497509295939492505050565b604081526000610f456040830186610e3f565b82810360208401528381528385602083013760006020858301015260207fffffffffffffffffffffffffffffffffffffffffffffffffffffffffffffffe0601f860116820101915050949350505050565b600060208284031215610fa857600080fd5b8151610486816109c9565b600060208284031215610fc557600080fd5b5051919050565b838152606060208201526000610fe56060830185610e3f565b8281036040840152610ff78185610e3f565b9695505050505050565b805161100c816108aa565b919050565b6000806040838503121561102457600080fd5b825167ffffffffffffffff8082111561103c57600080fd5b818501915085601f83011261105057600080fd5b815160208282111561106457611064610a14565b8160051b9250611075818401610a43565b828152928401810192818101908985111561108f57600080fd5b948201945b848610156110b957855193506110a9846108aa565b8382529482019490820190611094565b96506110c89050878201611001565b945050505050925092905056fea164736f6c6343000818000a",
    "linkReferences": {
      "test/safe-tools/SafeTestTools.sol": {
        "Sort": [
          {
            "start": 4572,
            "length": 20
          }
        ]
      }
    }
  },
  "methodIdentifiers": {
    "_setupSafe()": "b38b4717",
    "_setupSafe(uint256[],uint256)": "080df7f1",
    "_setupSafe(uint256[],uint256,uint256)": "4867cf9a",
    "_setupSafe(uint256[],uint256,uint256,(bool,uint256,address,bytes,uint256,address,address,bytes))": "403b551a",
    "getSafe()": "68bc573e",
    "getSafe(address)": "894adc65"
  },
  "storageLayout": {
    "storage": [
      {
        "astId": 48550,
        "contract": "test/safe-tools/SafeTestTools.sol:SafeTestTools",
        "label": "singleton",
        "offset": 0,
        "slot": "0",
        "type": "t_contract(Safe)31400"
      },
      {
        "astId": 48557,
        "contract": "test/safe-tools/SafeTestTools.sol:SafeTestTools",
        "label": "proxyFactory",
        "offset": 0,
        "slot": "1",
        "type": "t_contract(SafeProxyFactory)33355"
      },
      {
        "astId": 48564,
        "contract": "test/safe-tools/SafeTestTools.sol:SafeTestTools",
        "label": "handler",
        "offset": 0,
        "slot": "2",
        "type": "t_contract(CompatibilityFallbackHandler)47107"
      },
      {
        "astId": 48568,
        "contract": "test/safe-tools/SafeTestTools.sol:SafeTestTools",
        "label": "instances",
        "offset": 0,
        "slot": "3",
        "type": "t_array(t_struct(SafeInstance)47201_storage)dyn_storage"
      }
    ],
    "types": {
      "t_address": {
        "encoding": "inplace",
        "label": "address",
        "numberOfBytes": "20"
      },
      "t_array(t_address)dyn_storage": {
        "encoding": "dynamic_array",
        "label": "address[]",
        "numberOfBytes": "32",
        "base": "t_address"
      },
      "t_array(t_struct(SafeInstance)47201_storage)dyn_storage": {
        "encoding": "dynamic_array",
        "label": "struct SafeInstance[]",
        "numberOfBytes": "32",
        "base": "t_struct(SafeInstance)47201_storage"
      },
      "t_array(t_uint256)dyn_storage": {
        "encoding": "dynamic_array",
        "label": "uint256[]",
        "numberOfBytes": "32",
        "base": "t_uint256"
      },
      "t_contract(CompatibilityFallbackHandler)47107": {
        "encoding": "inplace",
        "label": "contract CompatibilityFallbackHandler",
        "numberOfBytes": "20"
      },
      "t_contract(DeployedSafe)47170": {
        "encoding": "inplace",
        "label": "contract DeployedSafe",
        "numberOfBytes": "20"
      },
      "t_contract(Safe)31400": {
        "encoding": "inplace",
        "label": "contract Safe",
        "numberOfBytes": "20"
      },
      "t_contract(SafeProxyFactory)33355": {
        "encoding": "inplace",
        "label": "contract SafeProxyFactory",
        "numberOfBytes": "20"
      },
      "t_struct(SafeInstance)47201_storage": {
        "encoding": "inplace",
        "label": "struct SafeInstance",
        "numberOfBytes": "160",
        "members": [
          {
            "astId": 47189,
            "contract": "test/safe-tools/SafeTestTools.sol:SafeTestTools",
            "label": "instanceId",
            "offset": 0,
            "slot": "0",
            "type": "t_uint256"
          },
          {
            "astId": 47192,
            "contract": "test/safe-tools/SafeTestTools.sol:SafeTestTools",
            "label": "ownerPKs",
            "offset": 0,
            "slot": "1",
            "type": "t_array(t_uint256)dyn_storage"
          },
          {
            "astId": 47195,
            "contract": "test/safe-tools/SafeTestTools.sol:SafeTestTools",
            "label": "owners",
            "offset": 0,
            "slot": "2",
            "type": "t_array(t_address)dyn_storage"
          },
          {
            "astId": 47197,
            "contract": "test/safe-tools/SafeTestTools.sol:SafeTestTools",
            "label": "threshold",
            "offset": 0,
            "slot": "3",
            "type": "t_uint256"
          },
          {
            "astId": 47200,
            "contract": "test/safe-tools/SafeTestTools.sol:SafeTestTools",
            "label": "safe",
            "offset": 0,
            "slot": "4",
            "type": "t_contract(DeployedSafe)47170"
          }
        ]
      },
      "t_uint256": {
        "encoding": "inplace",
        "label": "uint256",
        "numberOfBytes": "32"
      }
    }
  },
  "userdoc": {
    "version": 1,
    "kind": "user"
  },
  "devdoc": {
    "version": 1,
    "kind": "dev",
    "details": "SafeTestTools implements a set of helper functions for testing Safe contracts."
  },
  "id": 106
}