{
  "abi": [
    {
      "inputs": [
        {
          "internalType": "address[]",
          "name": "arr",
          "type": "address[]"
        }
      ],
      "name": "sort",
      "outputs": [
        {
          "internalType": "address[]",
          "name": "",
          "type": "address[]"
        }
      ],
      "stateMutability": "pure",
      "type": "function"
    }
  ],
  "bytecode": {
    "object": "0x6103c661003a600b82828239805160001a60731461002d57634e487b7160e01b600052600060045260246000fd5b30600052607381538281f3fe73000000000000000000000000000000000000000030146080604052600436106100355760003560e01c8063128424a71461003a575b600080fd5b61004d61004836600461027c565b610063565b60405161005a919061035f565b60405180910390f35b606061006e82610072565b5090565b61007b8161007e565b50565b601f1960208251600084526040516002821061010c578285018260051b8601815b85810151815111828214176100b557850161009f565b8181036100c45750505061010c565b50805b868101518151116100d95786016100c7565b828103610100575b825182518452825291850191908601908183106100e15750505061010c565b50908252838201526040015b6040515b80821461021b57604082039150815184830151610180828203116101845785820180518351106101435780518351825283525b5b860181811161017c578051888201805182811161016357505050610144565b5b818a0152890180518281116101645750880152610144565b505050610110565b81601f1681830160061c60051b018251825182518083106101a157915b8183106101ac579091905b8181106101b557905b835283528352518190835b5b8801805182116101c157825b8a01805183106101cd579250828110156101ee5780518351825283526101c0565b50508681018552818782011060061b85019450828552808786015282811160061b85019450505050610110565b50509092525050565b7f4e487b7100000000000000000000000000000000000000000000000000000000600052604160045260246000fd5b803573ffffffffffffffffffffffffffffffffffffffff8116811461027757600080fd5b919050565b6000602080838503121561028f57600080fd5b823567ffffffffffffffff808211156102a757600080fd5b818501915085601f8301126102bb57600080fd5b8135818111156102cd576102cd610224565b8060051b6040517fffffffffffffffffffffffffffffffffffffffffffffffffffffffffffffffe0603f8301168101818110858211171561031057610310610224565b60405291825284820192508381018501918883111561032e57600080fd5b938501935b828510156103535761034485610253565b84529385019392850192610333565b98975050505050505050565b6020808252825182820181905260009190848201906040850190845b818110156103ad57835173ffffffffffffffffffffffffffffffffffffffff168352928401929184019160010161037b565b5090969550505050505056fea164736f6c634300080f000a",
    "linkReferences": {}
  },
  "methodIdentifiers": {
    "sort(address[])": "128424a7"
  },
  "storageLayout": {
    "storage": [],
    "types": {}
  },
  "userdoc": {
    "version": 1,
    "kind": "user"
  },
  "devdoc": {
    "version": 1,
    "kind": "dev",
    "methods": {
      "sort(address[])": {
        "details": "Sorts an array of addresses in place"
      }
    }
  },
  "id": 301
}