{
  "abi": [
    {
      "inputs": [
        {
          "internalType": "GameType",
          "name": "_gameType",
          "type": "uint8"
        },
        {
          "internalType": "Claim",
          "name": "_absolutePrestate",
          "type": "bytes32"
        },
        {
          "internalType": "uint256",
          "name": "_maxGameDepth",
          "type": "uint256"
        },
        {
          "internalType": "Duration",
          "name": "_gameDuration",
          "type": "uint64"
        },
        {
          "internalType": "contract IBigStepper",
          "name": "_vm",
          "type": "address"
        },
        {
          "internalType": "contract L2OutputOracle",
          "name": "_l2oo",
          "type": "address"
        },
        {
          "internalType": "contract BlockOracle",
          "name": "_blockOracle",
          "type": "address"
        }
      ],
      "stateMutability": "nonpayable",
      "type": "constructor"
    },
    {
      "inputs": [],
      "name": "CannotDefendRootClaim",
      "type": "error"
    },
    {
      "inputs": [],
      "name": "ClaimAlreadyExists",
      "type": "error"
    },
    {
      "inputs": [],
      "name": "ClaimAlreadyResolved",
      "type": "error"
    },
    {
      "inputs": [],
      "name": "ClockNotExpired",
      "type": "error"
    },
    {
      "inputs": [],
      "name": "ClockTimeExceeded",
      "type": "error"
    },
    {
      "inputs": [],
      "name": "GameDepthExceeded",
      "type": "error"
    },
    {
      "inputs": [],
      "name": "GameNotInProgress",
      "type": "error"
    },
    {
      "inputs": [],
      "name": "InvalidParent",
      "type": "error"
    },
    {
      "inputs": [],
      "name": "InvalidPrestate",
      "type": "error"
    },
    {
      "inputs": [],
      "name": "L1HeadTooOld",
      "type": "error"
    },
    {
      "inputs": [],
      "name": "OutOfOrderResolution",
      "type": "error"
    },
    {
      "inputs": [
        {
          "internalType": "Claim",
          "name": "rootClaim",
          "type": "bytes32"
        }
      ],
      "name": "UnexpectedRootClaim",
      "type": "error"
    },
    {
      "inputs": [],
      "name": "ValidStep",
      "type": "error"
    },
    {
      "anonymous": false,
      "inputs": [
        {
          "indexed": true,
          "internalType": "uint256",
          "name": "parentIndex",
          "type": "uint256"
        },
        {
          "indexed": true,
          "internalType": "Claim",
          "name": "claim",
          "type": "bytes32"
        },
        {
          "indexed": true,
          "internalType": "address",
          "name": "claimant",
          "type": "address"
        }
      ],
      "name": "Move",
      "type": "event"
    },
    {
      "anonymous": false,
      "inputs": [
        {
          "indexed": true,
          "internalType": "enum GameStatus",
          "name": "status",
          "type": "uint8"
        }
      ],
      "name": "Resolved",
      "type": "event"
    },
    {
      "inputs": [],
      "name": "ABSOLUTE_PRESTATE",
      "outputs": [
        {
          "internalType": "Claim",
          "name": "",
          "type": "bytes32"
        }
      ],
      "stateMutability": "view",
      "type": "function"
    },
    {
      "inputs": [],
      "name": "BLOCK_ORACLE",
      "outputs": [
        {
          "internalType": "contract BlockOracle",
          "name": "",
          "type": "address"
        }
      ],
      "stateMutability": "view",
      "type": "function"
    },
    {
      "inputs": [],
      "name": "GAME_DURATION",
      "outputs": [
        {
          "internalType": "Duration",
          "name": "",
          "type": "uint64"
        }
      ],
      "stateMutability": "view",
      "type": "function"
    },
    {
      "inputs": [],
      "name": "L2_OUTPUT_ORACLE",
      "outputs": [
        {
          "internalType": "contract L2OutputOracle",
          "name": "",
          "type": "address"
        }
      ],
      "stateMutability": "view",
      "type": "function"
    },
    {
      "inputs": [],
      "name": "MAX_GAME_DEPTH",
      "outputs": [
        {
          "internalType": "uint256",
          "name": "",
          "type": "uint256"
        }
      ],
      "stateMutability": "view",
      "type": "function"
    },
    {
      "inputs": [],
      "name": "VM",
      "outputs": [
        {
          "internalType": "contract IBigStepper",
          "name": "",
          "type": "address"
        }
      ],
      "stateMutability": "view",
      "type": "function"
    },
    {
      "inputs": [
        {
          "internalType": "uint256",
          "name": "_ident",
          "type": "uint256"
        },
        {
          "internalType": "uint256",
          "name": "_l2BlockNumber",
          "type": "uint256"
        },
        {
          "internalType": "uint256",
          "name": "_partOffset",
          "type": "uint256"
        }
      ],
      "name": "addLocalData",
      "outputs": [],
      "stateMutability": "nonpayable",
      "type": "function"
    },
    {
      "inputs": [
        {
          "internalType": "uint256",
          "name": "_parentIndex",
          "type": "uint256"
        },
        {
          "internalType": "Claim",
          "name": "_claim",
          "type": "bytes32"
        }
      ],
      "name": "attack",
      "outputs": [],
      "stateMutability": "payable",
      "type": "function"
    },
    {
      "inputs": [],
      "name": "bondManager",
      "outputs": [
        {
          "internalType": "contract IBondManager",
          "name": "",
          "type": "address"
        }
      ],
      "stateMutability": "view",
      "type": "function"
    },
    {
      "inputs": [
        {
          "internalType": "uint256",
          "name": "",
          "type": "uint256"
        }
      ],
      "name": "claimData",
      "outputs": [
        {
          "internalType": "uint32",
          "name": "parentIndex",
          "type": "uint32"
        },
        {
          "internalType": "bool",
          "name": "countered",
          "type": "bool"
        },
        {
          "internalType": "Claim",
          "name": "claim",
          "type": "bytes32"
        },
        {
          "internalType": "Position",
          "name": "position",
          "type": "uint128"
        },
        {
          "internalType": "Clock",
          "name": "clock",
          "type": "uint128"
        }
      ],
      "stateMutability": "view",
      "type": "function"
    },
    {
      "inputs": [],
      "name": "claimDataLen",
      "outputs": [
        {
          "internalType": "uint256",
          "name": "len_",
          "type": "uint256"
        }
      ],
      "stateMutability": "view",
      "type": "function"
    },
    {
      "inputs": [],
      "name": "createdAt",
      "outputs": [
        {
          "internalType": "Timestamp",
          "name": "",
          "type": "uint64"
        }
      ],
      "stateMutability": "view",
      "type": "function"
    },
    {
      "inputs": [
        {
          "internalType": "uint256",
          "name": "_parentIndex",
          "type": "uint256"
        },
        {
          "internalType": "Claim",
          "name": "_claim",
          "type": "bytes32"
        }
      ],
      "name": "defend",
      "outputs": [],
      "stateMutability": "payable",
      "type": "function"
    },
    {
      "inputs": [],
      "name": "extraData",
      "outputs": [
        {
          "internalType": "bytes",
          "name": "extraData_",
          "type": "bytes"
        }
      ],
      "stateMutability": "pure",
      "type": "function"
    },
    {
      "inputs": [],
      "name": "gameData",
      "outputs": [
        {
          "internalType": "GameType",
          "name": "gameType_",
          "type": "uint8"
        },
        {
          "internalType": "Claim",
          "name": "rootClaim_",
          "type": "bytes32"
        },
        {
          "internalType": "bytes",
          "name": "extraData_",
          "type": "bytes"
        }
      ],
      "stateMutability": "view",
      "type": "function"
    },
    {
      "inputs": [],
      "name": "gameType",
      "outputs": [
        {
          "internalType": "GameType",
          "name": "gameType_",
          "type": "uint8"
        }
      ],
      "stateMutability": "view",
      "type": "function"
    },
    {
      "inputs": [],
      "name": "initialize",
      "outputs": [],
      "stateMutability": "nonpayable",
      "type": "function"
    },
    {
      "inputs": [],
      "name": "l1BlockNumber",
      "outputs": [
        {
          "internalType": "uint256",
          "name": "l1BlockNumber_",
          "type": "uint256"
        }
      ],
      "stateMutability": "pure",
      "type": "function"
    },
    {
      "inputs": [],
      "name": "l1Head",
      "outputs": [
        {
          "internalType": "Hash",
          "name": "",
          "type": "bytes32"
        }
      ],
      "stateMutability": "view",
      "type": "function"
    },
    {
      "inputs": [],
      "name": "l2BlockNumber",
      "outputs": [
        {
          "internalType": "uint256",
          "name": "l2BlockNumber_",
          "type": "uint256"
        }
      ],
      "stateMutability": "pure",
      "type": "function"
    },
    {
      "inputs": [
        {
          "internalType": "uint256",
          "name": "_challengeIndex",
          "type": "uint256"
        },
        {
          "internalType": "Claim",
          "name": "_claim",
          "type": "bytes32"
        },
        {
          "internalType": "bool",
          "name": "_isAttack",
          "type": "bool"
        }
      ],
      "name": "move",
      "outputs": [],
      "stateMutability": "payable",
      "type": "function"
    },
    {
      "inputs": [],
      "name": "proposals",
      "outputs": [
        {
          "components": [
            {
              "internalType": "uint128",
              "name": "index",
              "type": "uint128"
            },
            {
              "internalType": "uint128",
              "name": "l2BlockNumber",
              "type": "uint128"
            },
            {
              "internalType": "Hash",
              "name": "outputRoot",
              "type": "bytes32"
            }
          ],
          "internalType": "struct IFaultDisputeGame.OutputProposal",
          "name": "starting",
          "type": "tuple"
        },
        {
          "components": [
            {
              "internalType": "uint128",
              "name": "index",
              "type": "uint128"
            },
            {
              "internalType": "uint128",
              "name": "l2BlockNumber",
              "type": "uint128"
            },
            {
              "internalType": "Hash",
              "name": "outputRoot",
              "type": "bytes32"
            }
          ],
          "internalType": "struct IFaultDisputeGame.OutputProposal",
          "name": "disputed",
          "type": "tuple"
        }
      ],
      "stateMutability": "view",
      "type": "function"
    },
    {
      "inputs": [],
      "name": "resolve",
      "outputs": [
        {
          "internalType": "enum GameStatus",
          "name": "status_",
          "type": "uint8"
        }
      ],
      "stateMutability": "nonpayable",
      "type": "function"
    },
    {
      "inputs": [
        {
          "internalType": "uint256",
          "name": "_claimIndex",
          "type": "uint256"
        }
      ],
      "name": "resolveClaim",
      "outputs": [],
      "stateMutability": "payable",
      "type": "function"
    },
    {
      "inputs": [],
      "name": "rootClaim",
      "outputs": [
        {
          "internalType": "Claim",
          "name": "rootClaim_",
          "type": "bytes32"
        }
      ],
      "stateMutability": "pure",
      "type": "function"
    },
    {
      "inputs": [],
      "name": "status",
      "outputs": [
        {
          "internalType": "enum GameStatus",
          "name": "",
          "type": "uint8"
        }
      ],
      "stateMutability": "view",
      "type": "function"
    },
    {
      "inputs": [
        {
          "internalType": "uint256",
          "name": "_claimIndex",
          "type": "uint256"
        },
        {
          "internalType": "bool",
          "name": "_isAttack",
          "type": "bool"
        },
        {
          "internalType": "bytes",
          "name": "_stateData",
          "type": "bytes"
        },
        {
          "internalType": "bytes",
          "name": "_proof",
          "type": "bytes"
        }
      ],
      "name": "step",
      "outputs": [],
      "stateMutability": "nonpayable",
      "type": "function"
    },
    {
      "inputs": [],
      "name": "version",
      "outputs": [
        {
          "internalType": "string",
          "name": "",
          "type": "string"
        }
      ],
      "stateMutability": "view",
      "type": "function"
    }
  ],
  "bytecode": {
    "object": "0x6101606040523480156200001257600080fd5b5060405162002b5d38038062002b5d83398101604081905262000035916200008f565b60ff9096166101405260809490945260a0929092526001600160401b031660c0526001600160a01b0390811660e05290811661010052166101205262000133565b6001600160a01b03811681146200008c57600080fd5b50565b600080600080600080600060e0888a031215620000ab57600080fd5b875160ff81168114620000bd57600080fd5b602089015160408a015160608b015192995090975095506001600160401b0381168114620000ea57600080fd5b6080890151909450620000fd8162000076565b60a0890151909350620001108162000076565b60c0890151909250620001238162000076565b8091505092959891949750929550565b60805160a05160c05160e05161010051610120516101405161297b620001e2600039600081816105410152611c4401526000818161034901526112fd0152600081816105ba015281816110ca0152818161119e015261127701526000818161050b015281816117fb0152611adc0152600081816105ee01528181610bc60152611d3301526000818161031501528181610a0501526115fa01526000818161020a0152611756015261297b6000f3fe6080604052600436106101b75760003560e01c80638980e0cc116100ec578063c55cd0c71161008a578063d8cc1a3c11610064578063d8cc1a3c146106c1578063f8f43ff6146106e1578063fa24f74314610701578063fdffbb281461072557600080fd5b8063c55cd0c714610629578063c6f0308c1461063c578063cf09e0d0146106a057600080fd5b8063bbdc02db116100c6578063bbdc02db1461052d578063bcef3b551461056b578063c0c3a092146105a8578063c31b29ce146105dc57600080fd5b80638980e0cc146104a45780638b85902b146104b957806392931298146104f957600080fd5b8063529184c911610159578063609d333411610133578063609d333414610451578063632247ea146104665780636361506d146104795780638129fc1c1461048f57600080fd5b8063529184c91461033757806354fd4d501461036b57806355ef20e6146103c157600080fd5b8063298c900511610195578063298c90051461024f57806335fef5671461028f578063363cc427146102a45780634778efe81461030357600080fd5b8063200d2ed2146101bc578063266198f9146101f85780632810e1d61461023a575b600080fd5b3480156101c857600080fd5b506000546101e29068010000000000000000900460ff1681565b6040516101ef91906122c8565b60405180910390f35b34801561020457600080fd5b5061022c7f000000000000000000000000000000000000000000000000000000000000000081565b6040519081526020016101ef565b34801561024657600080fd5b506101e2610738565b34801561025b57600080fd5b50367ffffffffffffffffffffffffffffffffffffffffffffffffffffffffffffffffe81013560f01c90036040013561022c565b6102a261029d366004612309565b61089c565b005b3480156102b057600080fd5b506000546102de906901000000000000000000900473ffffffffffffffffffffffffffffffffffffffff1681565b60405173ffffffffffffffffffffffffffffffffffffffff90911681526020016101ef565b34801561030f57600080fd5b5061022c7f000000000000000000000000000000000000000000000000000000000000000081565b34801561034357600080fd5b506102de7f000000000000000000000000000000000000000000000000000000000000000081565b34801561037757600080fd5b506103b46040518060400160405280600681526020017f302e302e3131000000000000000000000000000000000000000000000000000081525081565b6040516101ef9190612396565b3480156103cd57600080fd5b5060408051606080820183526003546fffffffffffffffffffffffffffffffff808216845270010000000000000000000000000000000091829004811660208086019190915260045485870152855193840186526005548083168552929092041690820152600654928101929092526104439182565b6040516101ef9291906123b0565b34801561045d57600080fd5b506103b46108ac565b6102a2610474366004612419565b6108ba565b34801561048557600080fd5b5061022c60015481565b34801561049b57600080fd5b506102a2610ed0565b3480156104b057600080fd5b5060025461022c565b3480156104c557600080fd5b50367ffffffffffffffffffffffffffffffffffffffffffffffffffffffffffffffffe81013560f01c90036020013561022c565b34801561050557600080fd5b506102de7f000000000000000000000000000000000000000000000000000000000000000081565b34801561053957600080fd5b5060405160ff7f00000000000000000000000000000000000000000000000000000000000000001681526020016101ef565b34801561057757600080fd5b50367ffffffffffffffffffffffffffffffffffffffffffffffffffffffffffffffffe81013560f01c90033561022c565b3480156105b457600080fd5b506102de7f000000000000000000000000000000000000000000000000000000000000000081565b3480156105e857600080fd5b506106107f000000000000000000000000000000000000000000000000000000000000000081565b60405167ffffffffffffffff90911681526020016101ef565b6102a2610637366004612309565b6114d4565b34801561064857600080fd5b5061065c61065736600461244e565b6114e0565b6040805163ffffffff90961686529315156020860152928401919091526fffffffffffffffffffffffffffffffff908116606084015216608082015260a0016101ef565b3480156106ac57600080fd5b506000546106109067ffffffffffffffff1681565b3480156106cd57600080fd5b506102a26106dc3660046124b0565b611551565b3480156106ed57600080fd5b506102a26106fc36600461253a565b611a7d565b34801561070d57600080fd5b50610716611c42565b6040516101ef93929190612566565b6102a261073336600461244e565b611c9f565b60008060005468010000000000000000900460ff16600281111561075e5761075e612299565b14610795576040517f67fe195000000000000000000000000000000000000000000000000000000000815260040160405180910390fd5b60095460ff166107d1576040517f9a07664600000000000000000000000000000000000000000000000000000000815260040160405180910390fd5b60026000815481106107e5576107e5612591565b6000918252602090912060039091020154640100000000900460ff1661080c57600261080f565b60015b6000805491925082917fffffffffffffffffffffffffffffffffffffffffffffff00ffffffffffffffff166801000000000000000083600281111561085657610856612299565b02179055600281111561086b5761086b612299565b6040517f5e186f09b9c93491f14e277eea7faa5de6a2d4bda75a79af7a3684fbfb42da6090600090a290565b905090565b6108a8828260006108ba565b5050565b606061089760206040611fd1565b6000805468010000000000000000900460ff1660028111156108de576108de612299565b14610915576040517f67fe195000000000000000000000000000000000000000000000000000000000815260040160405180910390fd5b82158015610921575080155b15610958576040517fa42637bc00000000000000000000000000000000000000000000000000000000815260040160405180910390fd5b60006002848154811061096d5761096d612591565b600091825260208083206040805160a081018252600394909402909101805463ffffffff808216865264010000000090910460ff16151593850193909352600181015491840191909152600201546fffffffffffffffffffffffffffffffff80821660608501819052700100000000000000000000000000000000909204166080840152919350610a019190859061206816565b90507f0000000000000000000000000000000000000000000000000000000000000000610ac0826fffffffffffffffffffffffffffffffff167e09010a0d15021d0b0e10121619031e080c141c0f111807131b17061a05041f7f07c4acdd0000000000000000000000000000000000000000000000000000000067ffffffffffffffff831160061b83811c63ffffffff1060051b1792831c600181901c17600281901c17600481901c17600881901c17601081901c170260fb1c1a1790565b67ffffffffffffffff161115610b02576040517f56f57b2b00000000000000000000000000000000000000000000000000000000815260040160405180910390fd5b815160009063ffffffff90811614610b62576002836000015163ffffffff1681548110610b3157610b31612591565b906000526020600020906003020160020160109054906101000a90046fffffffffffffffffffffffffffffffff1690505b608083015160009067ffffffffffffffff1667ffffffffffffffff1642610b9b846fffffffffffffffffffffffffffffffff1660401c90565b67ffffffffffffffff16610baf91906125ef565b610bb99190612607565b9050677fffffffffffffff7f000000000000000000000000000000000000000000000000000000000000000060011c1667ffffffffffffffff82161115610c2c576040517f3381d11400000000000000000000000000000000000000000000000000000000815260040160405180910390fd5b6000604082901b42176000888152608086901b6fffffffffffffffffffffffffffffffff8b1617602052604081209192509060008181526007602052604090205490915060ff1615610caa576040517f80497e3b00000000000000000000000000000000000000000000000000000000815260040160405180910390fd5b600081815260076020908152604080832080547fffffffffffffffffffffffffffffffffffffffffffffffffffffffffffffff00166001908117909155815160a08101835263ffffffff808f1682529381018581529281018d81526fffffffffffffffffffffffffffffffff808c16606084019081528982166080850190815260028054808801825599819052945160039099027f405787fa12a823e0f2b7631cc41b3ba8828b3321ca811111fa75cd3aa3bb5ace8101805498511515640100000000027fffffffffffffffffffffffffffffffffffffffffffffffffffffff00000000009099169a909916999099179690961790965590517f405787fa12a823e0f2b7631cc41b3ba8828b3321ca811111fa75cd3aa3bb5acf8701559351925184167001000000000000000000000000000000000292909316919091177f405787fa12a823e0f2b7631cc41b3ba8828b3321ca811111fa75cd3aa3bb5ad09093019290925580548b908110610e2257610e22612591565b6000918252602080832060039092029091018054931515640100000000027fffffffffffffffffffffffffffffffffffffffffffffffffffffff00ffffffff909416939093179092558a8152600890915260409020600254610e8690600190612607565b8154600181018355600092835260208320015560405133918a918c917f9b3245740ec3b155098a55be84957a4da13eaf7f14a8bc6f53126c0b9350f2be91a4505050505050505050565b367ffffffffffffffffffffffffffffffffffffffffffffffffffffffffffffffffe81013560f01c90033560001a6001811480610f10575060ff81166002145b610f76576040517ff40239db000000000000000000000000000000000000000000000000000000008152367ffffffffffffffffffffffffffffffffffffffffffffffffffffffffffffffffe81013560f01c900335600482015260240160405180910390fd5b600080547fffffffffffffffffffffffffffffffffffffffffffffffff0000000000000000164267ffffffffffffffff161781556040805160a08101825263ffffffff81526020810192909252600291908101610ffb7ffffffffffffffffffffffffffffffffffffffffffffffffffffffffffffffffe369081013560f01c90033590565b815260016020820152604001426fffffffffffffffffffffffffffffffff9081169091528254600181810185556000948552602080862085516003909402018054918601511515640100000000027fffffffffffffffffffffffffffffffffffffffffffffffffffffff000000000090921663ffffffff909416939093171782556040840151908201556060830151608090930151821670010000000000000000000000000000000002929091169190911760029091015573ffffffffffffffffffffffffffffffffffffffff7f000000000000000000000000000000000000000000000000000000000000000016637f00642061112460207ffffffffffffffffffffffffffffffffffffffffffffffffffffffffffffffffe369081013560f01c9003013590565b6040518263ffffffff1660e01b815260040161114291815260200190565b602060405180830381865afa15801561115f573d6000803e3d6000fd5b505050506040513d601f19601f82011682018060405250810190611183919061261e565b9050600073ffffffffffffffffffffffffffffffffffffffff7f00000000000000000000000000000000000000000000000000000000000000001663a25ae5576111ce600185612607565b6040518263ffffffff1660e01b81526004016111ec91815260200190565b606060405180830381865afa158015611209573d6000803e3d6000fd5b505050506040513d601f19601f8201168201806040525081019061122d9190612686565b6040517fa25ae5570000000000000000000000000000000000000000000000000000000081526004810184905290915060009073ffffffffffffffffffffffffffffffffffffffff7f0000000000000000000000000000000000000000000000000000000000000000169063a25ae55790602401606060405180830381865afa1580156112be573d6000803e3d6000fd5b505050506040513d601f19601f820116820180604052508101906112e29190612686565b9050600073ffffffffffffffffffffffffffffffffffffffff7f0000000000000000000000000000000000000000000000000000000000000000166399d548aa367ffffffffffffffffffffffffffffffffffffffffffffffffffffffffffffffffe81013560f01c9003604001356040518263ffffffff1660e01b815260040161136e91815260200190565b6040805180830381865afa15801561138a573d6000803e3d6000fd5b505050506040513d601f19601f820116820180604052508101906113ae9190612712565b905081602001516fffffffffffffffffffffffffffffffff16816020015167ffffffffffffffff161161140d576040517f13809ba500000000000000000000000000000000000000000000000000000000815260040160405180910390fd5b6040805160a081018252908190810180611428600189612607565b6fffffffffffffffffffffffffffffffff908116825260408881015182166020808501919091529851928101929092529183528051606081018252978216885285810151821688880152945187860152908501959095528051805181860151908716700100000000000000000000000000000000918816820217600355908401516004559084015180519481015194861694909516029290921760055591909101516006555160015550565b6108a8828260016108ba565b600281815481106114f057600080fd5b600091825260209091206003909102018054600182015460029092015463ffffffff8216935064010000000090910460ff1691906fffffffffffffffffffffffffffffffff8082169170010000000000000000000000000000000090041685565b6000805468010000000000000000900460ff16600281111561157557611575612299565b146115ac576040517f67fe195000000000000000000000000000000000000000000000000000000000815260040160405180910390fd5b6000600287815481106115c1576115c1612591565b6000918252602082206003919091020160028101549092506fffffffffffffffffffffffffffffffff16908715821760011b90506116207f000000000000000000000000000000000000000000000000000000000000000060016125ef565b6116bc826fffffffffffffffffffffffffffffffff167e09010a0d15021d0b0e10121619031e080c141c0f111807131b17061a05041f7f07c4acdd0000000000000000000000000000000000000000000000000000000067ffffffffffffffff831160061b83811c63ffffffff1060051b1792831c600181901c17600281901c17600481901c17600881901c17601081901c170260fb1c1a1790565b67ffffffffffffffff16146116fd576040517f5f53dd9800000000000000000000000000000000000000000000000000000000815260040160405180910390fd5b600080891561178057611721836fffffffffffffffffffffffffffffffff16612070565b67ffffffffffffffff16156117545761174b61173e600186612799565b865463ffffffff16612116565b60010154611776565b7f00000000000000000000000000000000000000000000000000000000000000005b915084905061179a565b8460010154915061179784600161173e91906127ca565b90505b600882901b60088a8a6040516117b19291906127fe565b6040518091039020901b146117f2576040517f696550ff00000000000000000000000000000000000000000000000000000000815260040160405180910390fd5b600081600101547f000000000000000000000000000000000000000000000000000000000000000073ffffffffffffffffffffffffffffffffffffffff1663836e7b328c8c8c8c60006040518663ffffffff1660e01b815260040161185b959493929190612857565b6020604051808303816000875af115801561187a573d6000803e3d6000fd5b505050506040513d601f19601f8201168201806040525081019061189e919061261e565b600284810154929091149250600091611949906fffffffffffffffffffffffffffffffff167e09010a0d15021d0b0e10121619031e080c141c0f111807131b17061a05041f7f07c4acdd0000000000000000000000000000000000000000000000000000000067ffffffffffffffff831160061b83811c63ffffffff1060051b1792831c600181901c17600281901c17600481901c17600881901c17601081901c170260fb1c1a1790565b6119e5886fffffffffffffffffffffffffffffffff167e09010a0d15021d0b0e10121619031e080c141c0f111807131b17061a05041f7f07c4acdd0000000000000000000000000000000000000000000000000000000067ffffffffffffffff831160061b83811c63ffffffff1060051b1792831c600181901c17600281901c17600481901c17600881901c17601081901c170260fb1c1a1790565b6119ef9190612891565b6119f991906128b2565b67ffffffffffffffff161590508115158103611a41576040517ffb4e40dd00000000000000000000000000000000000000000000000000000000815260040160405180910390fd5b505084547fffffffffffffffffffffffffffffffffffffffffffffffffffffff00ffffffff166401000000001790945550505050505050505050565b6000805468010000000000000000900460ff166002811115611aa157611aa1612299565b14611ad8576040517f67fe195000000000000000000000000000000000000000000000000000000000815260040160405180910390fd5b60007f000000000000000000000000000000000000000000000000000000000000000073ffffffffffffffffffffffffffffffffffffffff16637dc0d1d06040518163ffffffff1660e01b8152600401602060405180830381865afa158015611b45573d6000803e3d6000fd5b505050506040513d601f19601f82011682018060405250810190611b699190612900565b7fc0c220c900000000000000000000000000000000000000000000000000000000601c8190526020869052604085905290915060008560018114611bd55760028114611bdf5760038114611be95760048114611bf35760058114611c035763ff137e656000526004601cfd5b6001549150611c0a565b6004549150611c0a565b6006549150611c0a565b60035460801c60c01b9150611c0a565b4660c01b91505b50606052600160038611811b6005031b60805260a083905260008060a4601c82865af1611c3b573d6000803e3d6000fd5b5050505050565b7f0000000000000000000000000000000000000000000000000000000000000000367ffffffffffffffffffffffffffffffffffffffffffffffffffffffffffffffffe81013560f01c9003356060611c986108ac565b9050909192565b6000805468010000000000000000900460ff166002811115611cc357611cc3612299565b14611cfa576040517f67fe195000000000000000000000000000000000000000000000000000000000815260040160405180910390fd5b600060028281548110611d0f57611d0f612591565b60009182526020909120600260039092020190810154909150677fffffffffffffff7f000000000000000000000000000000000000000000000000000000000000000060011c1690611d7f90700100000000000000000000000000000000900467ffffffffffffffff1642612607565b6002830154611daf9190700100000000000000000000000000000000900460401c67ffffffffffffffff166125ef565b11611de6576040517ff2440b5300000000000000000000000000000000000000000000000000000000815260040160405180910390fd5b600082815260086020526040902082158015611e04575060095460ff165b15611e3b576040517ff1a9458100000000000000000000000000000000000000000000000000000000815260040160405180910390fd5b8054158015611e4957508215155b15611e80576040517ff1a9458100000000000000000000000000000000000000000000000000000000815260040160405180910390fd5b6000805b8254811015611f4e576000838281548110611ea157611ea1612591565b6000918252602080832090910154808352600890915260409091205490915015611ef7576040517f9a07664600000000000000000000000000000000000000000000000000000000815260040160405180910390fd5b600060028281548110611f0c57611f0c612591565b600091825260209091206003909102018054909150640100000000900460ff16611f3b57600193505050611f4e565b505080611f4790612936565b9050611e84565b5082547fffffffffffffffffffffffffffffffffffffffffffffffffffffff00ffffffff16640100000000821515021783556000848152600860205260408120611f979161225f565b83600003611fcb57600980547fffffffffffffffffffffffffffffffffffffffffffffffffffffffffffffff001660011790555b50505050565b6060600061200884367ffffffffffffffffffffffffffffffffffffffffffffffffffffffffffffffffe81013560f01c90036125ef565b90508267ffffffffffffffff1667ffffffffffffffff81111561202d5761202d612637565b6040519080825280601f01601f191660200182016040528015612057576020820181803683370190505b509150828160208401375092915050565b151760011b90565b6000806120fd837e09010a0d15021d0b0e10121619031e080c141c0f111807131b17061a05041f7f07c4acdd0000000000000000000000000000000000000000000000000000000067ffffffffffffffff831160061b83811c63ffffffff1060051b1792831c600181901c17600281901c17600481901c17600881901c17601081901c170260fb1c1a1790565b600167ffffffffffffffff919091161b90920392915050565b600080612134846fffffffffffffffffffffffffffffffff166121b3565b90506002838154811061214957612149612591565b906000526020600020906003020191505b60028201546fffffffffffffffffffffffffffffffff8281169116146121ac57815460028054909163ffffffff1690811061219757612197612591565b9060005260206000209060030201915061215a565b5092915050565b60008119600183011681612247827e09010a0d15021d0b0e10121619031e080c141c0f111807131b17061a05041f7f07c4acdd0000000000000000000000000000000000000000000000000000000067ffffffffffffffff831160061b83811c63ffffffff1060051b1792831c600181901c17600281901c17600481901c17600881901c17601081901c170260fb1c1a1790565b67ffffffffffffffff169390931c8015179392505050565b508054600082559060005260206000209081019061227d9190612280565b50565b5b808211156122955760008155600101612281565b5090565b7f4e487b7100000000000000000000000000000000000000000000000000000000600052602160045260246000fd5b6020810160038310612303577f4e487b7100000000000000000000000000000000000000000000000000000000600052602160045260246000fd5b91905290565b6000806040838503121561231c57600080fd5b50508035926020909101359150565b6000815180845260005b8181101561235157602081850181015186830182015201612335565b81811115612363576000602083870101525b50601f017fffffffffffffffffffffffffffffffffffffffffffffffffffffffffffffffe0169290920160200192915050565b6020815260006123a9602083018461232b565b9392505050565b82516fffffffffffffffffffffffffffffffff90811682526020808501518216818401526040808601518185015284518316606085015290840151909116608083015282015160a082015260c081016123a9565b8035801515811461241457600080fd5b919050565b60008060006060848603121561242e57600080fd5b833592506020840135915061244560408501612404565b90509250925092565b60006020828403121561246057600080fd5b5035919050565b60008083601f84011261247957600080fd5b50813567ffffffffffffffff81111561249157600080fd5b6020830191508360208285010111156124a957600080fd5b9250929050565b600080600080600080608087890312156124c957600080fd5b863595506124d960208801612404565b9450604087013567ffffffffffffffff808211156124f657600080fd5b6125028a838b01612467565b9096509450606089013591508082111561251b57600080fd5b5061252889828a01612467565b979a9699509497509295939492505050565b60008060006060848603121561254f57600080fd5b505081359360208301359350604090920135919050565b60ff84168152826020820152606060408201526000612588606083018461232b565b95945050505050565b7f4e487b7100000000000000000000000000000000000000000000000000000000600052603260045260246000fd5b7f4e487b7100000000000000000000000000000000000000000000000000000000600052601160045260246000fd5b60008219821115612602576126026125c0565b500190565b600082821015612619576126196125c0565b500390565b60006020828403121561263057600080fd5b5051919050565b7f4e487b7100000000000000000000000000000000000000000000000000000000600052604160045260246000fd5b80516fffffffffffffffffffffffffffffffff8116811461241457600080fd5b60006060828403121561269857600080fd5b6040516060810181811067ffffffffffffffff821117156126e2577f4e487b7100000000000000000000000000000000000000000000000000000000600052604160045260246000fd5b604052825181526126f560208401612666565b602082015261270660408401612666565b60408201529392505050565b60006040828403121561272457600080fd5b6040516040810167ffffffffffffffff828210818311171561276f577f4e487b7100000000000000000000000000000000000000000000000000000000600052604160045260246000fd5b816040528451835260208501519150808216821461278c57600080fd5b5060208201529392505050565b60006fffffffffffffffffffffffffffffffff838116908316818110156127c2576127c26125c0565b039392505050565b60006fffffffffffffffffffffffffffffffff8083168185168083038211156127f5576127f56125c0565b01949350505050565b8183823760009101908152919050565b8183528181602085013750600060208284010152600060207fffffffffffffffffffffffffffffffffffffffffffffffffffffffffffffffe0601f840116840101905092915050565b60608152600061286b60608301878961280e565b828103602084015261287e81868861280e565b9150508260408301529695505050505050565b600067ffffffffffffffff838116908316818110156127c2576127c26125c0565b600067ffffffffffffffff808416806128f4577f4e487b7100000000000000000000000000000000000000000000000000000000600052601260045260246000fd5b92169190910692915050565b60006020828403121561291257600080fd5b815173ffffffffffffffffffffffffffffffffffffffff811681146123a957600080fd5b60007fffffffffffffffffffffffffffffffffffffffffffffffffffffffffffffffff8203612967576129676125c0565b506001019056fea164736f6c634300080f000a",
    "linkReferences": {}
  },
  "methodIdentifiers": {
    "ABSOLUTE_PRESTATE()": "266198f9",
    "BLOCK_ORACLE()": "529184c9",
    "GAME_DURATION()": "c31b29ce",
    "L2_OUTPUT_ORACLE()": "c0c3a092",
    "MAX_GAME_DEPTH()": "4778efe8",
    "VM()": "92931298",
    "addLocalData(uint256,uint256,uint256)": "f8f43ff6",
    "attack(uint256,bytes32)": "c55cd0c7",
    "bondManager()": "363cc427",
    "claimData(uint256)": "c6f0308c",
    "claimDataLen()": "8980e0cc",
    "createdAt()": "cf09e0d0",
    "defend(uint256,bytes32)": "35fef567",
    "extraData()": "609d3334",
    "gameData()": "fa24f743",
    "gameType()": "bbdc02db",
    "initialize()": "8129fc1c",
    "l1BlockNumber()": "298c9005",
    "l1Head()": "6361506d",
    "l2BlockNumber()": "8b85902b",
    "move(uint256,bytes32,bool)": "632247ea",
    "proposals()": "55ef20e6",
    "resolve()": "2810e1d6",
    "resolveClaim(uint256)": "fdffbb28",
    "rootClaim()": "bcef3b55",
    "status()": "200d2ed2",
    "step(uint256,bool,bytes,bytes)": "d8cc1a3c",
    "version()": "54fd4d50"
  },
  "storageLayout": {
    "storage": [
      {
        "astId": 64647,
        "contract": "src/dispute/FaultDisputeGame.sol:FaultDisputeGame",
        "label": "createdAt",
        "offset": 0,
        "slot": "0",
        "type": "t_userDefinedValueType(Timestamp)68189"
      },
      {
        "astId": 64651,
        "contract": "src/dispute/FaultDisputeGame.sol:FaultDisputeGame",
        "label": "status",
        "offset": 8,
        "slot": "0",
        "type": "t_enum(GameStatus)68205"
      },
      {
        "astId": 64655,
        "contract": "src/dispute/FaultDisputeGame.sol:FaultDisputeGame",
        "label": "bondManager",
        "offset": 9,
        "slot": "0",
        "type": "t_contract(IBondManager)65792"
      },
      {
        "astId": 64659,
        "contract": "src/dispute/FaultDisputeGame.sol:FaultDisputeGame",
        "label": "l1Head",
        "offset": 0,
        "slot": "1",
        "type": "t_userDefinedValueType(Hash)68181"
      },
      {
        "astId": 64664,
        "contract": "src/dispute/FaultDisputeGame.sol:FaultDisputeGame",
        "label": "claimData",
        "offset": 0,
        "slot": "2",
        "type": "t_array(t_struct(ClaimData)66006_storage)dyn_storage"
      },
      {
        "astId": 64668,
        "contract": "src/dispute/FaultDisputeGame.sol:FaultDisputeGame",
        "label": "proposals",
        "offset": 0,
        "slot": "3",
        "type": "t_struct(OutputProposals)66021_storage"
      },
      {
        "astId": 64674,
        "contract": "src/dispute/FaultDisputeGame.sol:FaultDisputeGame",
        "label": "claims",
        "offset": 0,
        "slot": "7",
        "type": "t_mapping(t_userDefinedValueType(ClaimHash)68185,t_bool)"
      },
      {
        "astId": 64680,
        "contract": "src/dispute/FaultDisputeGame.sol:FaultDisputeGame",
        "label": "subgames",
        "offset": 0,
        "slot": "8",
        "type": "t_mapping(t_uint256,t_array(t_uint256)dyn_storage)"
      },
      {
        "astId": 64683,
        "contract": "src/dispute/FaultDisputeGame.sol:FaultDisputeGame",
        "label": "subgameAtRootResolved",
        "offset": 0,
        "slot": "9",
        "type": "t_bool"
      }
    ],
    "types": {
      "t_array(t_struct(ClaimData)66006_storage)dyn_storage": {
        "encoding": "dynamic_array",
        "label": "struct IFaultDisputeGame.ClaimData[]",
        "numberOfBytes": "32",
        "base": "t_struct(ClaimData)66006_storage"
      },
      "t_array(t_uint256)dyn_storage": {
        "encoding": "dynamic_array",
        "label": "uint256[]",
        "numberOfBytes": "32",
        "base": "t_uint256"
      },
      "t_bool": {
        "encoding": "inplace",
        "label": "bool",
        "numberOfBytes": "1"
      },
      "t_contract(IBondManager)65792": {
        "encoding": "inplace",
        "label": "contract IBondManager",
        "numberOfBytes": "20"
      },
      "t_enum(GameStatus)68205": {
        "encoding": "inplace",
        "label": "enum GameStatus",
        "numberOfBytes": "1"
      },
      "t_mapping(t_uint256,t_array(t_uint256)dyn_storage)": {
        "encoding": "mapping",
        "key": "t_uint256",
        "label": "mapping(uint256 => uint256[])",
        "numberOfBytes": "32",
        "value": "t_array(t_uint256)dyn_storage"
      },
      "t_mapping(t_userDefinedValueType(ClaimHash)68185,t_bool)": {
        "encoding": "mapping",
        "key": "t_userDefinedValueType(ClaimHash)68185",
        "label": "mapping(ClaimHash => bool)",
        "numberOfBytes": "32",
        "value": "t_bool"
      },
      "t_struct(ClaimData)66006_storage": {
        "encoding": "inplace",
        "label": "struct IFaultDisputeGame.ClaimData",
        "numberOfBytes": "96",
        "members": [
          {
            "astId": 65994,
            "contract": "src/dispute/FaultDisputeGame.sol:FaultDisputeGame",
            "label": "parentIndex",
            "offset": 0,
            "slot": "0",
            "type": "t_uint32"
          },
          {
            "astId": 65996,
            "contract": "src/dispute/FaultDisputeGame.sol:FaultDisputeGame",
            "label": "countered",
            "offset": 4,
            "slot": "0",
            "type": "t_bool"
          },
          {
            "astId": 65999,
            "contract": "src/dispute/FaultDisputeGame.sol:FaultDisputeGame",
            "label": "claim",
            "offset": 0,
            "slot": "1",
            "type": "t_userDefinedValueType(Claim)68183"
          },
          {
            "astId": 66002,
            "contract": "src/dispute/FaultDisputeGame.sol:FaultDisputeGame",
            "label": "position",
            "offset": 0,
            "slot": "2",
            "type": "t_userDefinedValueType(Position)68197"
          },
          {
            "astId": 66005,
            "contract": "src/dispute/FaultDisputeGame.sol:FaultDisputeGame",
            "label": "clock",
            "offset": 16,
            "slot": "2",
            "type": "t_userDefinedValueType(Clock)68195"
          }
        ]
      },
      "t_struct(OutputProposal)66014_storage": {
        "encoding": "inplace",
        "label": "struct IFaultDisputeGame.OutputProposal",
        "numberOfBytes": "64",
        "members": [
          {
            "astId": 66008,
            "contract": "src/dispute/FaultDisputeGame.sol:FaultDisputeGame",
            "label": "index",
            "offset": 0,
            "slot": "0",
            "type": "t_uint128"
          },
          {
            "astId": 66010,
            "contract": "src/dispute/FaultDisputeGame.sol:FaultDisputeGame",
            "label": "l2BlockNumber",
            "offset": 16,
            "slot": "0",
            "type": "t_uint128"
          },
          {
            "astId": 66013,
            "contract": "src/dispute/FaultDisputeGame.sol:FaultDisputeGame",
            "label": "outputRoot",
            "offset": 0,
            "slot": "1",
            "type": "t_userDefinedValueType(Hash)68181"
          }
        ]
      },
      "t_struct(OutputProposals)66021_storage": {
        "encoding": "inplace",
        "label": "struct IFaultDisputeGame.OutputProposals",
        "numberOfBytes": "128",
        "members": [
          {
            "astId": 66017,
            "contract": "src/dispute/FaultDisputeGame.sol:FaultDisputeGame",
            "label": "starting",
            "offset": 0,
            "slot": "0",
            "type": "t_struct(OutputProposal)66014_storage"
          },
          {
            "astId": 66020,
            "contract": "src/dispute/FaultDisputeGame.sol:FaultDisputeGame",
            "label": "disputed",
            "offset": 0,
            "slot": "2",
            "type": "t_struct(OutputProposal)66014_storage"
          }
        ]
      },
      "t_uint128": {
        "encoding": "inplace",
        "label": "uint128",
        "numberOfBytes": "16"
      },
      "t_uint256": {
        "encoding": "inplace",
        "label": "uint256",
        "numberOfBytes": "32"
      },
      "t_uint32": {
        "encoding": "inplace",
        "label": "uint32",
        "numberOfBytes": "4"
      },
      "t_userDefinedValueType(Claim)68183": {
        "encoding": "inplace",
        "label": "Claim",
        "numberOfBytes": "32"
      },
      "t_userDefinedValueType(ClaimHash)68185": {
        "encoding": "inplace",
        "label": "ClaimHash",
        "numberOfBytes": "32"
      },
      "t_userDefinedValueType(Clock)68195": {
        "encoding": "inplace",
        "label": "Clock",
        "numberOfBytes": "16"
      },
      "t_userDefinedValueType(Hash)68181": {
        "encoding": "inplace",
        "label": "Hash",
        "numberOfBytes": "32"
      },
      "t_userDefinedValueType(Position)68197": {
        "encoding": "inplace",
        "label": "Position",
        "numberOfBytes": "16"
      },
      "t_userDefinedValueType(Timestamp)68189": {
        "encoding": "inplace",
        "label": "Timestamp",
        "numberOfBytes": "8"
      }
    }
  },
  "userdoc": {
    "version": 1,
    "kind": "user",
    "methods": {
      "ABSOLUTE_PRESTATE()": {
        "notice": "The absolute prestate of the instruction trace. This is a constant that is defined         by the program that is being used to execute the trace."
      },
      "BLOCK_ORACLE()": {
        "notice": "The block hash oracle, used for loading block hashes further back         than the `BLOCKHASH` opcode allows as well as their child's timestamp."
      },
      "GAME_DURATION()": {
        "notice": "The duration of the game."
      },
      "L2_OUTPUT_ORACLE()": {
        "notice": "The trusted L2OutputOracle contract."
      },
      "MAX_GAME_DEPTH()": {
        "notice": "The max depth of the game."
      },
      "VM()": {
        "notice": "An onchain VM that performs single instruction steps on a fault proof program trace."
      },
      "addLocalData(uint256,uint256,uint256)": {
        "notice": "Posts the requested local data to the VM's `PreimageOralce`."
      },
      "attack(uint256,bytes32)": {
        "notice": "Attack a disagreed upon `Claim`."
      },
      "bondManager()": {
        "notice": "Returns the address of the `BondManager` used."
      },
      "claimData(uint256)": {
        "notice": "An append-only array of all claims made during the dispute game."
      },
      "claimDataLen()": {
        "notice": "Returns the length of the `claimData` array."
      },
      "createdAt()": {
        "notice": "The starting timestamp of the game"
      },
      "defend(uint256,bytes32)": {
        "notice": "Defend an agreed upon `Claim`."
      },
      "extraData()": {
        "notice": "Getter for the extra data."
      },
      "gameData()": {
        "notice": "A compliant implementation of this interface should return the components of the         game UUID's preimage provided in the cwia payload. The preimage of the UUID is         constructed as `keccak256(gameType . rootClaim . extraData)` where `.` denotes         concatenation."
      },
      "gameType()": {
        "notice": "Getter for the game type."
      },
      "initialize()": {
        "notice": "Initializes the contract."
      },
      "l1BlockNumber()": {
        "notice": "The l1BlockNumber that Cannon was ran from to generate the root claim."
      },
      "l1Head()": {
        "notice": "An L1 block hash that contains the disputed output root, fetched from the         `BlockOracle` and verified by referencing the timestamp associated with the         first L2 Output Proposal in the `L2OutputOracle` that contains the disputed         L2 block number."
      },
      "l2BlockNumber()": {
        "notice": "The l2BlockNumber of the disputed output root in the `L2OutputOracle`."
      },
      "move(uint256,bytes32,bool)": {
        "notice": "Internal move function, used by both `attack` and `defend`."
      },
      "proposals()": {
        "notice": "The starting and disputed output proposal for the game. Includes information about         the output indexes in the `L2OutputOracle` and the output roots at the time of         game creation."
      },
      "resolve()": {
        "notice": "If all necessary information has been gathered, this function should mark the game         status as either `CHALLENGER_WINS` or `DEFENDER_WINS` and return the status of         the resolved game. It is at this stage that the bonds should be awarded to the         necessary parties."
      },
      "resolveClaim(uint256)": {
        "notice": "Resolves the subgame rooted at the given claim index."
      },
      "rootClaim()": {
        "notice": "Getter for the root claim."
      },
      "status()": {
        "notice": "Returns the current status of the game."
      },
      "step(uint256,bool,bytes,bytes)": {
        "notice": "Perform an instruction step via an on-chain fault proof processor."
      },
      "version()": {
        "notice": "Semantic version."
      }
    },
    "events": {
      "Move(uint256,bytes32,address)": {
        "notice": "Emitted when a new claim is added to the DAG by `claimant`"
      },
      "Resolved(uint8)": {
        "notice": "Emitted when the game is resolved."
      }
    },
    "errors": {
      "CannotDefendRootClaim()": [
        {
          "notice": "Thrown when a defense against the root claim is attempted."
        }
      ],
      "ClaimAlreadyExists()": [
        {
          "notice": "Thrown when a claim is attempting to be made that already exists."
        }
      ],
      "ClaimAlreadyResolved()": [
        {
          "notice": "Thrown when resolving a claim that has already been resolved."
        }
      ],
      "ClockNotExpired()": [
        {
          "notice": "Thrown when the game is attempted to be resolved too early."
        }
      ],
      "ClockTimeExceeded()": [
        {
          "notice": "Thrown when a move is attempted to be made after the clock has timed out."
        }
      ],
      "GameDepthExceeded()": [
        {
          "notice": "Thrown when a move is attempted to be made at or greater than the max depth of the game."
        }
      ],
      "GameNotInProgress()": [
        {
          "notice": "Thrown when an action that requires the game to be `IN_PROGRESS` is invoked when         the game is not in progress."
        }
      ],
      "InvalidParent()": [
        {
          "notice": "Thrown when a step is attempted above the maximum game depth."
        }
      ],
      "InvalidPrestate()": [
        {
          "notice": "Thrown when an invalid prestate is supplied to `step`."
        }
      ],
      "L1HeadTooOld()": [
        {
          "notice": "Thrown when a game is attempted to be initialized with an L1 head that does         not contain the disputed output root."
        }
      ],
      "OutOfOrderResolution()": [
        {
          "notice": "Thrown when resolving claims out of order."
        }
      ],
      "UnexpectedRootClaim(bytes32)": [
        {
          "notice": "Thrown when the root claim has an unexpected VM status.         Some games can only start with a root-claim with a specific status."
        }
      ],
      "ValidStep()": [
        {
          "notice": "Thrown when a step is made that computes the expected post state correctly."
        }
      ]
    },
    "notice": "An implementation of the `IFaultDisputeGame` interface."
  },
  "devdoc": {
    "version": 1,
    "kind": "dev",
    "methods": {
      "addLocalData(uint256,uint256,uint256)": {
        "params": {
          "_ident": "The local identifier of the data to post.",
          "_l2BlockNumber": "The L2 block number being disputed. This serves as the local context for the                       `PreimageOracle` key.",
          "_partOffset": "The offset of the data to post."
        }
      },
      "attack(uint256,bytes32)": {
        "params": {
          "_claim": "The `Claim` at the relative attack position.",
          "_parentIndex": "Index of the `Claim` to attack in the `claimData` array."
        }
      },
      "constructor": {
        "params": {
          "_absolutePrestate": "The absolute prestate of the instruction trace.",
          "_blockOracle": "The block oracle, used for loading block hashes further back                     than the `BLOCKHASH` opcode allows as well as their estimated                     timestamps.",
          "_gameDuration": "The duration of the game.",
          "_gameType": "The type ID of the game.",
          "_l2oo": "The trusted L2OutputOracle contract.",
          "_maxGameDepth": "The maximum depth of bisection.",
          "_vm": "An onchain VM that performs single instruction steps on a fault proof program            trace."
        }
      },
      "defend(uint256,bytes32)": {
        "params": {
          "_claim": "The `Claim` at the relative defense position.",
          "_parentIndex": "Index of the claim to defend in the `claimData` array."
        }
      },
      "extraData()": {
        "details": "`clones-with-immutable-args` argument #2",
        "returns": {
          "extraData_": "Any extra data supplied to the dispute game contract by the creator."
        }
      },
      "gameData()": {
        "returns": {
          "extraData_": "Any extra data supplied to the dispute game contract by the creator.",
          "gameType_": "The type of proof system being used.",
          "rootClaim_": "The root claim of the DisputeGame."
        }
      },
      "gameType()": {
        "details": "The reference impl should be entirely different depending on the type (fault, validity)      i.e. The game type should indicate the security model.",
        "returns": {
          "gameType_": "The type of proof system being used."
        }
      },
      "initialize()": {
        "details": "This function may only be called once."
      },
      "move(uint256,bytes32,bool)": {
        "params": {
          "_challengeIndex": "The index of the claim being moved against.",
          "_claim": "The claim at the next logical position in the game.",
          "_isAttack": "Whether or not the move is an attack or defense."
        }
      },
      "resolve()": {
        "details": "May only be called if the `status` is `IN_PROGRESS`.",
        "returns": {
          "status_": "The status of the game after resolution."
        }
      },
      "resolveClaim(uint256)": {
        "details": "This function must be called bottom-up in the DAG      A subgame is a tree of claims that has a maximum depth of 1.      A subgame root claims is valid if, and only if, all of its child claims are invalid.      At the deepest level in the DAG, a claim is invalid if there's a successful step against it.",
        "params": {
          "_claimIndex": "The index of the subgame root claim to resolve."
        }
      },
      "rootClaim()": {
        "details": "`clones-with-immutable-args` argument #1",
        "returns": {
          "rootClaim_": "The root claim of the DisputeGame."
        }
      },
      "step(uint256,bool,bytes,bytes)": {
        "details": "This function should point to a fault proof processor in order to execute      a step in the fault proof program on-chain. The interface of the fault proof      processor contract should adhere to the `IBigStepper` interface.",
        "params": {
          "_claimIndex": "The index of the challenged claim within `claimData`.",
          "_isAttack": "Whether or not the step is an attack or a defense.",
          "_proof": "Proof to access memory nodes in the VM's merkle state tree.",
          "_stateData": "The stateData of the step is the preimage of the claim at the given        prestate, which is at `_stateIndex` if the move is an attack and `_claimIndex` if        the move is a defense. If the step is an attack on the first instruction, it is        the absolute prestate of the fault proof VM."
        }
      }
    },
    "errors": {
      "UnexpectedRootClaim(bytes32)": [
        {
          "params": {
            "rootClaim": "is the claim that was unexpected."
          }
        }
      ]
    },
    "title": "FaultDisputeGame"
  },
  "id": 117
}