{
	"contracts/proxy/ProxyStorage.sol": {
		"ProxyStorage": {
			"abi": [
				{
					"inputs": [
						{
							"internalType": "address",
							"name": "",
							"type": "address"
						}
					],
					"name": "aliveImplementation",
					"outputs": [
						{
							"internalType": "bool",
							"name": "",
							"type": "bool"
						}
					],
					"stateMutability": "view",
					"type": "function"
				},
				{
					"inputs": [],
					"name": "pauseProxy",
					"outputs": [
						{
							"internalType": "bool",
							"name": "",
							"type": "bool"
						}
					],
					"stateMutability": "view",
					"type": "function"
				},
				{
					"inputs": [
						{
							"internalType": "uint256",
							"name": "",
							"type": "uint256"
						}
					],
					"name": "proxyImplementation",
					"outputs": [
						{
							"internalType": "address",
							"name": "",
							"type": "address"
						}
					],
					"stateMutability": "view",
					"type": "function"
				},
				{
					"inputs": [
						{
							"internalType": "bytes4",
							"name": "",
							"type": "bytes4"
						}
					],
					"name": "selectorImplementation",
					"outputs": [
						{
							"internalType": "address",
							"name": "",
							"type": "address"
						}
					],
					"stateMutability": "view",
					"type": "function"
				}
			],
			"devdoc": {
				"kind": "dev",
				"methods": {},
				"version": 1
			},
			"evm": {
				"assembly": "    /* \"contracts/proxy/ProxyStorage.sol\":63:299  contract ProxyStorage  {... */\n  mstore(0x40, 0x80)\n  callvalue\n  dup1\n  iszero\n  tag_1\n  jumpi\n  0x00\n  dup1\n  revert\ntag_1:\n  pop\n  dataSize(sub_0)\n  dup1\n  dataOffset(sub_0)\n  0x00\n  codecopy\n  0x00\n  return\nstop\n\nsub_0: assembly {\n        /* \"contracts/proxy/ProxyStorage.sol\":63:299  contract ProxyStorage  {... */\n      mstore(0x40, 0x80)\n      callvalue\n      dup1\n      iszero\n      tag_1\n      jumpi\n      0x00\n      dup1\n      revert\n    tag_1:\n      pop\n      jumpi(tag_2, lt(calldatasize, 0x04))\n      shr(0xe0, calldataload(0x00))\n      dup1\n      0x50d2a276\n      eq\n      tag_3\n      jumpi\n      dup1\n      0x550d01a3\n      eq\n      tag_4\n      jumpi\n      dup1\n      0x63a8fd89\n      eq\n      tag_5\n      jumpi\n      dup1\n      0xb911135f\n      eq\n      tag_6\n      jumpi\n    tag_2:\n      0x00\n      dup1\n      revert\n        /* \"contracts/proxy/ProxyStorage.sol\":239:295  mapping(bytes4 => address) public selectorImplementation */\n    tag_3:\n      tag_7\n      tag_8\n      calldatasize\n      0x04\n      tag_9\n      jump\t// in\n    tag_8:\n      mstore(0x20, 0x03)\n      0x00\n      swap1\n      dup2\n      mstore\n      0x40\n      swap1\n      keccak256\n      sload\n      sub(shl(0xa0, 0x01), 0x01)\n      and\n      dup2\n      jump\n    tag_7:\n      mload(0x40)\n      sub(shl(0xa0, 0x01), 0x01)\n        /* \"#utility.yul\":469:501   */\n      swap1\n      swap2\n      and\n        /* \"#utility.yul\":451:502   */\n      dup2\n      mstore\n        /* \"#utility.yul\":439:441   */\n      0x20\n        /* \"#utility.yul\":424:442   */\n      add\n        /* \"contracts/proxy/ProxyStorage.sol\":239:295  mapping(bytes4 => address) public selectorImplementation */\n    tag_11:\n      mload(0x40)\n      dup1\n      swap2\n      sub\n      swap1\n      return\n        /* \"contracts/proxy/ProxyStorage.sol\":182:233  mapping(address => bool) public aliveImplementation */\n    tag_4:\n      tag_13\n      tag_14\n      calldatasize\n      0x04\n      tag_15\n      jump\t// in\n    tag_14:\n      mstore(0x20, 0x02)\n      0x00\n      swap1\n      dup2\n      mstore\n      0x40\n      swap1\n      keccak256\n      sload\n      0xff\n      and\n      dup2\n      jump\n    tag_13:\n      mload(0x40)\n        /* \"#utility.yul\":969:983   */\n      swap1\n      iszero\n        /* \"#utility.yul\":962:984   */\n      iszero\n        /* \"#utility.yul\":944:985   */\n      dup2\n      mstore\n        /* \"#utility.yul\":932:934   */\n      0x20\n        /* \"#utility.yul\":917:935   */\n      add\n        /* \"contracts/proxy/ProxyStorage.sol\":182:233  mapping(address => bool) public aliveImplementation */\n      tag_11\n        /* \"#utility.yul\":804:991   */\n      jump\n        /* \"contracts/proxy/ProxyStorage.sol\":93:115  bool public pauseProxy */\n    tag_5:\n      sload(0x00)\n      tag_13\n      swap1\n      0xff\n      and\n      dup2\n      jump\n        /* \"contracts/proxy/ProxyStorage.sol\":122:176  mapping(uint256 => address) public proxyImplementation */\n    tag_6:\n      tag_7\n      tag_23\n      calldatasize\n      0x04\n      tag_24\n      jump\t// in\n    tag_23:\n      mstore(0x20, 0x01)\n      0x00\n      swap1\n      dup2\n      mstore\n      0x40\n      swap1\n      keccak256\n      sload\n      sub(shl(0xa0, 0x01), 0x01)\n      and\n      dup2\n      jump\n        /* \"#utility.yul\":14:300   */\n    tag_9:\n        /* \"#utility.yul\":72:78   */\n      0x00\n        /* \"#utility.yul\":125:127   */\n      0x20\n        /* \"#utility.yul\":113:122   */\n      dup3\n        /* \"#utility.yul\":104:111   */\n      dup5\n        /* \"#utility.yul\":100:123   */\n      sub\n        /* \"#utility.yul\":96:128   */\n      slt\n        /* \"#utility.yul\":93:145   */\n      iszero\n      tag_29\n      jumpi\n        /* \"#utility.yul\":141:142   */\n      0x00\n        /* \"#utility.yul\":138:139   */\n      dup1\n        /* \"#utility.yul\":131:143   */\n      revert\n        /* \"#utility.yul\":93:145   */\n    tag_29:\n        /* \"#utility.yul\":167:190   */\n      dup2\n      calldataload\n      not(sub(shl(0xe0, 0x01), 0x01))\n        /* \"#utility.yul\":219:251   */\n      dup2\n      and\n        /* \"#utility.yul\":209:252   */\n      dup2\n      eq\n        /* \"#utility.yul\":199:270   */\n      tag_30\n      jumpi\n        /* \"#utility.yul\":266:267   */\n      0x00\n        /* \"#utility.yul\":263:264   */\n      dup1\n        /* \"#utility.yul\":256:268   */\n      revert\n        /* \"#utility.yul\":199:270   */\n    tag_30:\n        /* \"#utility.yul\":289:294   */\n      swap4\n        /* \"#utility.yul\":14:300   */\n      swap3\n      pop\n      pop\n      pop\n      jump\t// out\n        /* \"#utility.yul\":513:799   */\n    tag_15:\n        /* \"#utility.yul\":572:578   */\n      0x00\n        /* \"#utility.yul\":625:627   */\n      0x20\n        /* \"#utility.yul\":613:622   */\n      dup3\n        /* \"#utility.yul\":604:611   */\n      dup5\n        /* \"#utility.yul\":600:623   */\n      sub\n        /* \"#utility.yul\":596:628   */\n      slt\n        /* \"#utility.yul\":593:645   */\n      iszero\n      tag_33\n      jumpi\n        /* \"#utility.yul\":641:642   */\n      0x00\n        /* \"#utility.yul\":638:639   */\n      dup1\n        /* \"#utility.yul\":631:643   */\n      revert\n        /* \"#utility.yul\":593:645   */\n    tag_33:\n        /* \"#utility.yul\":667:690   */\n      dup2\n      calldataload\n      sub(shl(0xa0, 0x01), 0x01)\n        /* \"#utility.yul\":719:750   */\n      dup2\n      and\n        /* \"#utility.yul\":709:751   */\n      dup2\n      eq\n        /* \"#utility.yul\":699:769   */\n      tag_30\n      jumpi\n        /* \"#utility.yul\":765:766   */\n      0x00\n        /* \"#utility.yul\":762:763   */\n      dup1\n        /* \"#utility.yul\":755:767   */\n      revert\n        /* \"#utility.yul\":996:1176   */\n    tag_24:\n        /* \"#utility.yul\":1055:1061   */\n      0x00\n        /* \"#utility.yul\":1108:1110   */\n      0x20\n        /* \"#utility.yul\":1096:1105   */\n      dup3\n        /* \"#utility.yul\":1087:1094   */\n      dup5\n        /* \"#utility.yul\":1083:1106   */\n      sub\n        /* \"#utility.yul\":1079:1111   */\n      slt\n        /* \"#utility.yul\":1076:1128   */\n      iszero\n      tag_37\n      jumpi\n        /* \"#utility.yul\":1124:1125   */\n      0x00\n        /* \"#utility.yul\":1121:1122   */\n      dup1\n        /* \"#utility.yul\":1114:1126   */\n      revert\n        /* \"#utility.yul\":1076:1128   */\n    tag_37:\n      pop\n        /* \"#utility.yul\":1147:1170   */\n      calldataload\n      swap2\n        /* \"#utility.yul\":996:1176   */\n      swap1\n      pop\n      jump\t// out\n\n    auxdata: 0xa26469706673582212208f743ec3955709c075b392ef5b4f10db10af03774eeb7eba0c320f544cbec18864736f6c63430008180033\n}\n",
				"bytecode": {
					"linkReferences": {},
					"object": "608060405234801561000f575f80fd5b5061019a8061001d5f395ff3fe608060405234801561000f575f80fd5b506004361061004a575f3560e01c806350d2a2761461004e578063550d01a31461009357806363a8fd89146100c5578063b911135f146100d1575b5f80fd5b61007661005c3660046100f9565b60036020525f90815260409020546001600160a01b031681565b6040516001600160a01b0390911681526020015b60405180910390f35b6100b56100a1366004610127565b60026020525f908152604090205460ff1681565b604051901515815260200161008a565b5f546100b59060ff1681565b6100766100df36600461014d565b60016020525f90815260409020546001600160a01b031681565b5f60208284031215610109575f80fd5b81356001600160e01b031981168114610120575f80fd5b9392505050565b5f60208284031215610137575f80fd5b81356001600160a01b0381168114610120575f80fd5b5f6020828403121561015d575f80fd5b503591905056fea26469706673582212208f743ec3955709c075b392ef5b4f10db10af03774eeb7eba0c320f544cbec18864736f6c63430008180033",
					"opcodes": "PUSH1 0x80 PUSH1 0x40 MSTORE CALLVALUE DUP1 ISZERO PUSH2 0xF JUMPI PUSH0 DUP1 REVERT JUMPDEST POP PUSH2 0x19A DUP1 PUSH2 0x1D PUSH0 CODECOPY PUSH0 RETURN INVALID PUSH1 0x80 PUSH1 0x40 MSTORE CALLVALUE DUP1 ISZERO PUSH2 0xF JUMPI PUSH0 DUP1 REVERT JUMPDEST POP PUSH1 0x4 CALLDATASIZE LT PUSH2 0x4A JUMPI PUSH0 CALLDATALOAD PUSH1 0xE0 SHR DUP1 PUSH4 0x50D2A276 EQ PUSH2 0x4E JUMPI DUP1 PUSH4 0x550D01A3 EQ PUSH2 0x93 JUMPI DUP1 PUSH4 0x63A8FD89 EQ PUSH2 0xC5 JUMPI DUP1 PUSH4 0xB911135F EQ PUSH2 0xD1 JUMPI JUMPDEST PUSH0 DUP1 REVERT JUMPDEST PUSH2 0x76 PUSH2 0x5C CALLDATASIZE PUSH1 0x4 PUSH2 0xF9 JUMP JUMPDEST PUSH1 0x3 PUSH1 0x20 MSTORE PUSH0 SWAP1 DUP2 MSTORE PUSH1 0x40 SWAP1 KECCAK256 SLOAD PUSH1 0x1 PUSH1 0x1 PUSH1 0xA0 SHL SUB AND DUP2 JUMP JUMPDEST PUSH1 0x40 MLOAD PUSH1 0x1 PUSH1 0x1 PUSH1 0xA0 SHL SUB SWAP1 SWAP2 AND DUP2 MSTORE PUSH1 0x20 ADD JUMPDEST PUSH1 0x40 MLOAD DUP1 SWAP2 SUB SWAP1 RETURN JUMPDEST PUSH2 0xB5 PUSH2 0xA1 CALLDATASIZE PUSH1 0x4 PUSH2 0x127 JUMP JUMPDEST PUSH1 0x2 PUSH1 0x20 MSTORE PUSH0 SWAP1 DUP2 MSTORE PUSH1 0x40 SWAP1 KECCAK256 SLOAD PUSH1 0xFF AND DUP2 JUMP JUMPDEST PUSH1 0x40 MLOAD SWAP1 ISZERO ISZERO DUP2 MSTORE PUSH1 0x20 ADD PUSH2 0x8A JUMP JUMPDEST PUSH0 SLOAD PUSH2 0xB5 SWAP1 PUSH1 0xFF AND DUP2 JUMP JUMPDEST PUSH2 0x76 PUSH2 0xDF CALLDATASIZE PUSH1 0x4 PUSH2 0x14D JUMP JUMPDEST PUSH1 0x1 PUSH1 0x20 MSTORE PUSH0 SWAP1 DUP2 MSTORE PUSH1 0x40 SWAP1 KECCAK256 SLOAD PUSH1 0x1 PUSH1 0x1 PUSH1 0xA0 SHL SUB AND DUP2 JUMP JUMPDEST PUSH0 PUSH1 0x20 DUP3 DUP5 SUB SLT ISZERO PUSH2 0x109 JUMPI PUSH0 DUP1 REVERT JUMPDEST DUP2 CALLDATALOAD PUSH1 0x1 PUSH1 0x1 PUSH1 0xE0 SHL SUB NOT DUP2 AND DUP2 EQ PUSH2 0x120 JUMPI PUSH0 DUP1 REVERT JUMPDEST SWAP4 SWAP3 POP POP POP JUMP JUMPDEST PUSH0 PUSH1 0x20 DUP3 DUP5 SUB SLT ISZERO PUSH2 0x137 JUMPI PUSH0 DUP1 REVERT JUMPDEST DUP2 CALLDATALOAD PUSH1 0x1 PUSH1 0x1 PUSH1 0xA0 SHL SUB DUP2 AND DUP2 EQ PUSH2 0x120 JUMPI PUSH0 DUP1 REVERT JUMPDEST PUSH0 PUSH1 0x20 DUP3 DUP5 SUB SLT ISZERO PUSH2 0x15D JUMPI PUSH0 DUP1 REVERT JUMPDEST POP CALLDATALOAD SWAP2 SWAP1 POP JUMP INVALID LOG2 PUSH5 0x6970667358 0x22 SLT KECCAK256 DUP16 PUSH21 0x3EC3955709C075B392EF5B4F10DB10AF03774EEB7E 0xBA 0xC ORIGIN 0xF SLOAD 0x4C 0xBE 0xC1 DUP9 PUSH5 0x736F6C6343 STOP ADDMOD XOR STOP CALLER "
				},
				"gasEstimates": {
					"creation": {
						"codeDepositCost": "82000",
						"executionCost": "127",
						"totalCost": "82127"
					},
					"external": {
						"aliveImplementation(address)": "2493",
						"pauseProxy()": "2330",
						"proxyImplementation(uint256)": "2507",
						"selectorImplementation(bytes4)": "2490"
					}
				},
				"methodIdentifiers": {
					"aliveImplementation(address)": "550d01a3",
					"pauseProxy()": "63a8fd89",
					"proxyImplementation(uint256)": "b911135f",
					"selectorImplementation(bytes4)": "50d2a276"
				}
			},
			"storageLayout": {
				"storage": [
					{
						"astId": 1102,
						"contract": "contracts/proxy/ProxyStorage.sol:ProxyStorage",
						"label": "pauseProxy",
						"offset": 0,
						"slot": "0",
						"type": "t_bool"
					},
					{
						"astId": 1106,
						"contract": "contracts/proxy/ProxyStorage.sol:ProxyStorage",
						"label": "proxyImplementation",
						"offset": 0,
						"slot": "1",
						"type": "t_mapping(t_uint256,t_address)"
					},
					{
						"astId": 1110,
						"contract": "contracts/proxy/ProxyStorage.sol:ProxyStorage",
						"label": "aliveImplementation",
						"offset": 0,
						"slot": "2",
						"type": "t_mapping(t_address,t_bool)"
					},
					{
						"astId": 1114,
						"contract": "contracts/proxy/ProxyStorage.sol:ProxyStorage",
						"label": "selectorImplementation",
						"offset": 0,
						"slot": "3",
						"type": "t_mapping(t_bytes4,t_address)"
					}
				],
				"types": {
					"t_address": {
						"encoding": "inplace",
						"label": "address",
						"numberOfBytes": "20"
					},
					"t_bool": {
						"encoding": "inplace",
						"label": "bool",
						"numberOfBytes": "1"
					},
					"t_bytes4": {
						"encoding": "inplace",
						"label": "bytes4",
						"numberOfBytes": "4"
					},
					"t_mapping(t_address,t_bool)": {
						"encoding": "mapping",
						"key": "t_address",
						"label": "mapping(address => bool)",
						"numberOfBytes": "32",
						"value": "t_bool"
					},
					"t_mapping(t_bytes4,t_address)": {
						"encoding": "mapping",
						"key": "t_bytes4",
						"label": "mapping(bytes4 => address)",
						"numberOfBytes": "32",
						"value": "t_address"
					},
					"t_mapping(t_uint256,t_address)": {
						"encoding": "mapping",
						"key": "t_uint256",
						"label": "mapping(uint256 => address)",
						"numberOfBytes": "32",
						"value": "t_address"
					},
					"t_uint256": {
						"encoding": "inplace",
						"label": "uint256",
						"numberOfBytes": "32"
					}
				}
			},
			"userdoc": {
				"kind": "user",
				"methods": {},
				"version": 1
			}
		}
	}
}