{
	"contracts/common/AccessRoleCommon.sol": {
		"AccessRoleCommon": {
			"abi": [
				{
					"inputs": [],
					"name": "ADMIN_ROLE",
					"outputs": [
						{
							"internalType": "bytes32",
							"name": "",
							"type": "bytes32"
						}
					],
					"stateMutability": "view",
					"type": "function"
				},
				{
					"inputs": [],
					"name": "POLICY_ROLE",
					"outputs": [
						{
							"internalType": "bytes32",
							"name": "",
							"type": "bytes32"
						}
					],
					"stateMutability": "view",
					"type": "function"
				}
			],
			"devdoc": {
				"kind": "dev",
				"methods": {},
				"version": 1
			},
			"evm": {
				"assembly": "    /* \"contracts/common/AccessRoleCommon.sol\":58:216  contract AccessRoleCommon {... */\n  mstore(0x40, 0x80)\n  callvalue\n  dup1\n  iszero\n  tag_1\n  jumpi\n  0x00\n  dup1\n  revert\ntag_1:\n  pop\n  dataSize(sub_0)\n  dup1\n  dataOffset(sub_0)\n  0x00\n  codecopy\n  0x00\n  return\nstop\n\nsub_0: assembly {\n        /* \"contracts/common/AccessRoleCommon.sol\":58:216  contract AccessRoleCommon {... */\n      mstore(0x40, 0x80)\n      callvalue\n      dup1\n      iszero\n      tag_1\n      jumpi\n      0x00\n      dup1\n      revert\n    tag_1:\n      pop\n      jumpi(tag_2, lt(calldatasize, 0x04))\n      shr(0xe0, calldataload(0x00))\n      dup1\n      0x22985246\n      eq\n      tag_3\n      jumpi\n      dup1\n      0x75b238fc\n      eq\n      tag_4\n      jumpi\n    tag_2:\n      0x00\n      dup1\n      revert\n        /* \"contracts/common/AccessRoleCommon.sol\":151:213  bytes32 public constant POLICY_ROLE = keccak256(\"POLICY_ROLE\") */\n    tag_3:\n      tag_5\n        /* \"contracts/common/AccessRoleCommon.sol\":189:213  keccak256(\"POLICY_ROLE\") */\n      0xfb5864e8ff833c3cb2d2d08505e82ff02a43554c74a35d4f5a64e85261278311\n        /* \"contracts/common/AccessRoleCommon.sol\":151:213  bytes32 public constant POLICY_ROLE = keccak256(\"POLICY_ROLE\") */\n      dup2\n      jump\n    tag_5:\n      mload(0x40)\n        /* \"#utility.yul\":160:185   */\n      swap1\n      dup2\n      mstore\n        /* \"#utility.yul\":148:150   */\n      0x20\n        /* \"#utility.yul\":133:151   */\n      add\n        /* \"contracts/common/AccessRoleCommon.sol\":151:213  bytes32 public constant POLICY_ROLE = keccak256(\"POLICY_ROLE\") */\n      mload(0x40)\n      dup1\n      swap2\n      sub\n      swap1\n      return\n        /* \"contracts/common/AccessRoleCommon.sol\":90:145  bytes32 public constant ADMIN_ROLE = keccak256(\"ADMIN\") */\n    tag_4:\n      tag_5\n        /* \"contracts/common/AccessRoleCommon.sol\":127:145  keccak256(\"ADMIN\") */\n      0xdf8b4c520ffe197c5343c6f5aec59570151ef9a492f2c624fd45ddde6135ec42\n        /* \"contracts/common/AccessRoleCommon.sol\":90:145  bytes32 public constant ADMIN_ROLE = keccak256(\"ADMIN\") */\n      dup2\n      jump\n\n    auxdata: 0xa2646970667358221220019d7cc1bd189a937901bcce4b0e92e83652b88252de3480d44eee9a248685a964736f6c63430008180033\n}\n",
				"bytecode": {
					"linkReferences": {},
					"object": "6080604052348015600e575f80fd5b5060c88061001b5f395ff3fe6080604052348015600e575f80fd5b50600436106030575f3560e01c80632298524614603457806375b238fc14606c575b5f80fd5b605a7ffb5864e8ff833c3cb2d2d08505e82ff02a43554c74a35d4f5a64e8526127831181565b60405190815260200160405180910390f35b605a7fdf8b4c520ffe197c5343c6f5aec59570151ef9a492f2c624fd45ddde6135ec428156fea2646970667358221220019d7cc1bd189a937901bcce4b0e92e83652b88252de3480d44eee9a248685a964736f6c63430008180033",
					"opcodes": "PUSH1 0x80 PUSH1 0x40 MSTORE CALLVALUE DUP1 ISZERO PUSH1 0xE JUMPI PUSH0 DUP1 REVERT JUMPDEST POP PUSH1 0xC8 DUP1 PUSH2 0x1B PUSH0 CODECOPY PUSH0 RETURN INVALID PUSH1 0x80 PUSH1 0x40 MSTORE CALLVALUE DUP1 ISZERO PUSH1 0xE JUMPI PUSH0 DUP1 REVERT JUMPDEST POP PUSH1 0x4 CALLDATASIZE LT PUSH1 0x30 JUMPI PUSH0 CALLDATALOAD PUSH1 0xE0 SHR DUP1 PUSH4 0x22985246 EQ PUSH1 0x34 JUMPI DUP1 PUSH4 0x75B238FC EQ PUSH1 0x6C JUMPI JUMPDEST PUSH0 DUP1 REVERT JUMPDEST PUSH1 0x5A PUSH32 0xFB5864E8FF833C3CB2D2D08505E82FF02A43554C74A35D4F5A64E85261278311 DUP2 JUMP JUMPDEST PUSH1 0x40 MLOAD SWAP1 DUP2 MSTORE PUSH1 0x20 ADD PUSH1 0x40 MLOAD DUP1 SWAP2 SUB SWAP1 RETURN JUMPDEST PUSH1 0x5A PUSH32 0xDF8B4C520FFE197C5343C6F5AEC59570151EF9A492F2C624FD45DDDE6135EC42 DUP2 JUMP INVALID LOG2 PUSH5 0x6970667358 0x22 SLT KECCAK256 ADD SWAP14 PUSH29 0xC1BD189A937901BCCE4B0E92E83652B88252DE3480D44EEE9A248685A9 PUSH5 0x736F6C6343 STOP ADDMOD XOR STOP CALLER "
				},
				"gasEstimates": {
					"creation": {
						"codeDepositCost": "40000",
						"executionCost": "91",
						"totalCost": "40091"
					},
					"external": {
						"ADMIN_ROLE()": "182",
						"POLICY_ROLE()": "160"
					}
				},
				"methodIdentifiers": {
					"ADMIN_ROLE()": "75b238fc",
					"POLICY_ROLE()": "22985246"
				}
			},
			"storageLayout": {
				"storage": [],
				"types": null
			},
			"userdoc": {
				"kind": "user",
				"methods": {},
				"version": 1
			}
		}
	}
}