{
	"contracts/L2/L2toL2CrossTradeStorage.sol": {
		"L2toL2CrossTradeStorage": {
			"abi": [
				{
					"inputs": [
						{
							"internalType": "uint256",
							"name": "",
							"type": "uint256"
						}
					],
					"name": "chainData",
					"outputs": [
						{
							"internalType": "address",
							"name": "l1CrossTradeContract",
							"type": "address"
						},
						{
							"internalType": "address",
							"name": "l1TON",
							"type": "address"
						}
					],
					"stateMutability": "view",
					"type": "function"
				},
				{
					"inputs": [],
					"name": "crossDomainMessenger",
					"outputs": [
						{
							"internalType": "address",
							"name": "",
							"type": "address"
						}
					],
					"stateMutability": "view",
					"type": "function"
				},
				{
					"inputs": [
						{
							"internalType": "uint256",
							"name": "",
							"type": "uint256"
						}
					],
					"name": "dealData",
					"outputs": [
						{
							"internalType": "address",
							"name": "l1token",
							"type": "address"
						},
						{
							"internalType": "address",
							"name": "l2SourceToken",
							"type": "address"
						},
						{
							"internalType": "address",
							"name": "l2TargetToken",
							"type": "address"
						},
						{
							"internalType": "address",
							"name": "requester",
							"type": "address"
						},
						{
							"internalType": "address",
							"name": "provider",
							"type": "address"
						},
						{
							"internalType": "uint256",
							"name": "totalAmount",
							"type": "uint256"
						},
						{
							"internalType": "uint256",
							"name": "ctAmount",
							"type": "uint256"
						},
						{
							"internalType": "uint256",
							"name": "l1ChainId",
							"type": "uint256"
						},
						{
							"internalType": "uint256",
							"name": "l2TargetChainId",
							"type": "uint256"
						},
						{
							"internalType": "bytes32",
							"name": "hashValue",
							"type": "bytes32"
						}
					],
					"stateMutability": "view",
					"type": "function"
				},
				{
					"inputs": [],
					"name": "legacyERC20ETH",
					"outputs": [
						{
							"internalType": "address",
							"name": "",
							"type": "address"
						}
					],
					"stateMutability": "view",
					"type": "function"
				},
				{
					"inputs": [],
					"name": "saleCount",
					"outputs": [
						{
							"internalType": "uint256",
							"name": "",
							"type": "uint256"
						}
					],
					"stateMutability": "view",
					"type": "function"
				}
			],
			"devdoc": {
				"kind": "dev",
				"methods": {},
				"version": 1
			},
			"evm": {
				"assembly": "    /* \"contracts/L2/L2toL2CrossTradeStorage.sol\":63:919  contract L2toL2CrossTradeStorage {... */\n  mstore(0x40, 0x80)\n  callvalue\n  dup1\n  iszero\n  tag_1\n  jumpi\n  0x00\n  dup1\n  revert\ntag_1:\n  pop\n  dataSize(sub_0)\n  dup1\n  dataOffset(sub_0)\n  0x00\n  codecopy\n  0x00\n  return\nstop\n\nsub_0: assembly {\n        /* \"contracts/L2/L2toL2CrossTradeStorage.sol\":63:919  contract L2toL2CrossTradeStorage {... */\n      mstore(0x40, 0x80)\n      callvalue\n      dup1\n      iszero\n      tag_1\n      jumpi\n      0x00\n      dup1\n      revert\n    tag_1:\n      pop\n      jumpi(tag_2, lt(calldatasize, 0x04))\n      shr(0xe0, calldataload(0x00))\n      dup1\n      0x16e01724\n      eq\n      tag_3\n      jumpi\n      dup1\n      0xa1e89aec\n      eq\n      tag_4\n      jumpi\n      dup1\n      0xe59f69c2\n      eq\n      tag_5\n      jumpi\n      dup1\n      0xf43b3613\n      eq\n      tag_6\n      jumpi\n      dup1\n      0xf5869c2f\n      eq\n      tag_7\n      jumpi\n    tag_2:\n      0x00\n      dup1\n      revert\n        /* \"contracts/L2/L2toL2CrossTradeStorage.sol\":551:580  address public legacyERC20ETH */\n    tag_3:\n      sload(0x01)\n      tag_8\n      swap1\n      sub(shl(0xa0, 0x01), 0x01)\n      and\n      dup2\n      jump\n    tag_8:\n      mload(0x40)\n      sub(shl(0xa0, 0x01), 0x01)\n        /* \"#utility.yul\":178:210   */\n      swap1\n      swap2\n      and\n        /* \"#utility.yul\":160:211   */\n      dup2\n      mstore\n        /* \"#utility.yul\":148:150   */\n      0x20\n        /* \"#utility.yul\":133:151   */\n      add\n        /* \"contracts/L2/L2toL2CrossTradeStorage.sol\":551:580  address public legacyERC20ETH */\n    tag_10:\n      mload(0x40)\n      dup1\n      swap2\n      sub\n      swap1\n      return\n        /* \"contracts/L2/L2toL2CrossTradeStorage.sol\":587:611  uint256 public saleCount */\n    tag_4:\n      tag_12\n      sload(0x02)\n      dup2\n      jump\n    tag_12:\n      mload(0x40)\n        /* \"#utility.yul\":368:393   */\n      swap1\n      dup2\n      mstore\n        /* \"#utility.yul\":356:358   */\n      0x20\n        /* \"#utility.yul\":341:359   */\n      add\n        /* \"contracts/L2/L2toL2CrossTradeStorage.sol\":587:611  uint256 public saleCount */\n      tag_10\n        /* \"#utility.yul\":222:399   */\n      jump\n        /* \"contracts/L2/L2toL2CrossTradeStorage.sol\":867:915  mapping(uint256 => ChainIdData) public chainData */\n    tag_5:\n      tag_16\n      tag_17\n      calldatasize\n      0x04\n      tag_18\n      jump\t// in\n    tag_17:\n      mstore(0x20, 0x05)\n      0x00\n      swap1\n      dup2\n      mstore\n      0x40\n      swap1\n      keccak256\n      dup1\n      sload\n      0x01\n      swap1\n      swap2\n      add\n      sload\n      sub(shl(0xa0, 0x01), 0x01)\n      swap2\n      dup3\n      and\n      swap2\n      and\n      dup3\n      jump\n    tag_16:\n      0x40\n      dup1\n      mload\n      sub(shl(0xa0, 0x01), 0x01)\n        /* \"#utility.yul\":819:834   */\n      swap4\n      dup5\n      and\n        /* \"#utility.yul\":801:835   */\n      dup2\n      mstore\n        /* \"#utility.yul\":871:886   */\n      swap3\n      swap1\n      swap2\n      and\n        /* \"#utility.yul\":866:868   */\n      0x20\n        /* \"#utility.yul\":851:869   */\n      dup4\n      add\n        /* \"#utility.yul\":844:887   */\n      mstore\n        /* \"#utility.yul\":736:754   */\n      add\n        /* \"contracts/L2/L2toL2CrossTradeStorage.sol\":867:915  mapping(uint256 => ChainIdData) public chainData */\n      tag_10\n        /* \"#utility.yul\":589:893   */\n      jump\n        /* \"contracts/L2/L2toL2CrossTradeStorage.sol\":510:545  address public crossDomainMessenger */\n    tag_6:\n      sload(0x00)\n      tag_8\n      swap1\n      sub(shl(0xa0, 0x01), 0x01)\n      and\n      dup2\n      jump\n        /* \"contracts/L2/L2toL2CrossTradeStorage.sol\":647:694  mapping(uint256 => RequestData) public dealData */\n    tag_7:\n      tag_25\n      tag_26\n      calldatasize\n      0x04\n      tag_18\n      jump\t// in\n    tag_26:\n      0x03\n      0x20\n      dup2\n      swap1\n      mstore\n      0x00\n      swap2\n      dup3\n      mstore\n      0x40\n      swap1\n      swap2\n      keccak256\n      dup1\n      sload\n      0x01\n      dup3\n      add\n      sload\n      0x02\n      dup4\n      add\n      sload\n      swap4\n      dup4\n      add\n      sload\n      0x04\n      dup5\n      add\n      sload\n      0x05\n      dup6\n      add\n      sload\n      0x06\n      dup7\n      add\n      sload\n      0x07\n      dup8\n      add\n      sload\n      0x08\n      dup9\n      add\n      sload\n      0x09\n      swap1\n      swap9\n      add\n      sload\n      sub(shl(0xa0, 0x01), 0x01)\n      swap8\n      dup9\n      and\n      swap10\n      swap7\n      dup9\n      and\n      swap9\n      swap7\n      dup9\n      and\n      swap8\n      swap6\n      dup7\n      and\n      swap7\n      swap6\n      swap1\n      swap5\n      and\n      swap5\n      swap3\n      swap4\n      swap2\n      swap3\n      swap1\n      swap2\n      dup11\n      jump\n    tag_25:\n      0x40\n      dup1\n      mload\n      sub(shl(0xa0, 0x01), 0x01)\n        /* \"#utility.yul\":1353:1368   */\n      swap12\n      dup13\n      and\n        /* \"#utility.yul\":1335:1369   */\n      dup2\n      mstore\n        /* \"#utility.yul\":1405:1420   */\n      swap10\n      dup12\n      and\n        /* \"#utility.yul\":1400:1402   */\n      0x20\n        /* \"#utility.yul\":1385:1403   */\n      dup12\n      add\n        /* \"#utility.yul\":1378:1421   */\n      mstore\n        /* \"#utility.yul\":1457:1472   */\n      swap8\n      dup11\n      and\n        /* \"#utility.yul\":1437:1455   */\n      swap8\n      dup10\n      add\n        /* \"#utility.yul\":1430:1473   */\n      swap8\n      swap1\n      swap8\n      mstore\n        /* \"#utility.yul\":1509:1524   */\n      swap5\n      dup9\n      and\n        /* \"#utility.yul\":1504:1506   */\n      0x60\n        /* \"#utility.yul\":1489:1507   */\n      dup9\n      add\n        /* \"#utility.yul\":1482:1525   */\n      mstore\n        /* \"#utility.yul\":1562:1577   */\n      swap7\n      swap1\n      swap3\n      and\n        /* \"#utility.yul\":1556:1559   */\n      0x80\n        /* \"#utility.yul\":1541:1560   */\n      dup7\n      add\n        /* \"#utility.yul\":1534:1578   */\n      mstore\n        /* \"#utility.yul\":1315:1318   */\n      0xa0\n        /* \"#utility.yul\":1594:1613   */\n      dup6\n      add\n        /* \"#utility.yul\":1587:1622   */\n      mstore\n        /* \"#utility.yul\":1653:1656   */\n      0xc0\n        /* \"#utility.yul\":1638:1657   */\n      dup5\n      add\n        /* \"#utility.yul\":1631:1666   */\n      mstore\n        /* \"#utility.yul\":1697:1700   */\n      0xe0\n        /* \"#utility.yul\":1682:1701   */\n      dup4\n      add\n        /* \"#utility.yul\":1675:1710   */\n      swap4\n      swap1\n      swap4\n      mstore\n        /* \"#utility.yul\":1741:1744   */\n      0x0100\n        /* \"#utility.yul\":1726:1745   */\n      dup3\n      add\n        /* \"#utility.yul\":1719:1754   */\n      swap3\n      swap1\n      swap3\n      mstore\n        /* \"#utility.yul\":1785:1788   */\n      0x0120\n        /* \"#utility.yul\":1770:1789   */\n      dup2\n      add\n        /* \"#utility.yul\":1763:1798   */\n      swap2\n      swap1\n      swap2\n      mstore\n        /* \"#utility.yul\":1284:1287   */\n      0x0140\n        /* \"#utility.yul\":1269:1288   */\n      add\n        /* \"contracts/L2/L2toL2CrossTradeStorage.sol\":647:694  mapping(uint256 => RequestData) public dealData */\n      tag_10\n        /* \"#utility.yul\":898:1804   */\n      jump\n        /* \"#utility.yul\":404:584   */\n    tag_18:\n        /* \"#utility.yul\":463:469   */\n      0x00\n        /* \"#utility.yul\":516:518   */\n      0x20\n        /* \"#utility.yul\":504:513   */\n      dup3\n        /* \"#utility.yul\":495:502   */\n      dup5\n        /* \"#utility.yul\":491:514   */\n      sub\n        /* \"#utility.yul\":487:519   */\n      slt\n        /* \"#utility.yul\":484:536   */\n      iszero\n      tag_34\n      jumpi\n        /* \"#utility.yul\":532:533   */\n      0x00\n        /* \"#utility.yul\":529:530   */\n      dup1\n        /* \"#utility.yul\":522:534   */\n      revert\n        /* \"#utility.yul\":484:536   */\n    tag_34:\n      pop\n        /* \"#utility.yul\":555:578   */\n      calldataload\n      swap2\n        /* \"#utility.yul\":404:584   */\n      swap1\n      pop\n      jump\t// out\n\n    auxdata: 0xa264697066735822122032e69c2ee77c3e8471a11826aec39c3b5bd8bd3acd193793178a291ac583998164736f6c63430008180033\n}\n",
				"bytecode": {
					"linkReferences": {},
					"object": "608060405234801561000f575f80fd5b506102268061001d5f395ff3fe608060405234801561000f575f80fd5b5060043610610055575f3560e01c806316e0172414610059578063a1e89aec14610089578063e59f69c2146100a0578063f43b3613146100f3578063f5869c2f14610105575b5f80fd5b60015461006c906001600160a01b031681565b6040516001600160a01b0390911681526020015b60405180910390f35b61009260025481565b604051908152602001610080565b6100d36100ae3660046101d9565b60056020525f9081526040902080546001909101546001600160a01b03918216911682565b604080516001600160a01b03938416815292909116602083015201610080565b5f5461006c906001600160a01b031681565b6101786101133660046101d9565b600360208190525f918252604090912080546001820154600283015493830154600484015460058501546006860154600787015460088801546009909801546001600160a01b039788169996881698968816979586169695909416949293919290918a565b604080516001600160a01b039b8c168152998b1660208b0152978a1697890197909752948816606088015296909216608086015260a085015260c084015260e083019390935261010082019290925261012081019190915261014001610080565b5f602082840312156101e9575f80fd5b503591905056fea264697066735822122032e69c2ee77c3e8471a11826aec39c3b5bd8bd3acd193793178a291ac583998164736f6c63430008180033",
					"opcodes": "PUSH1 0x80 PUSH1 0x40 MSTORE CALLVALUE DUP1 ISZERO PUSH2 0xF JUMPI PUSH0 DUP1 REVERT JUMPDEST POP PUSH2 0x226 DUP1 PUSH2 0x1D PUSH0 CODECOPY PUSH0 RETURN INVALID PUSH1 0x80 PUSH1 0x40 MSTORE CALLVALUE DUP1 ISZERO PUSH2 0xF JUMPI PUSH0 DUP1 REVERT JUMPDEST POP PUSH1 0x4 CALLDATASIZE LT PUSH2 0x55 JUMPI PUSH0 CALLDATALOAD PUSH1 0xE0 SHR DUP1 PUSH4 0x16E01724 EQ PUSH2 0x59 JUMPI DUP1 PUSH4 0xA1E89AEC EQ PUSH2 0x89 JUMPI DUP1 PUSH4 0xE59F69C2 EQ PUSH2 0xA0 JUMPI DUP1 PUSH4 0xF43B3613 EQ PUSH2 0xF3 JUMPI DUP1 PUSH4 0xF5869C2F EQ PUSH2 0x105 JUMPI JUMPDEST PUSH0 DUP1 REVERT JUMPDEST PUSH1 0x1 SLOAD PUSH2 0x6C SWAP1 PUSH1 0x1 PUSH1 0x1 PUSH1 0xA0 SHL SUB AND DUP2 JUMP JUMPDEST PUSH1 0x40 MLOAD PUSH1 0x1 PUSH1 0x1 PUSH1 0xA0 SHL SUB SWAP1 SWAP2 AND DUP2 MSTORE PUSH1 0x20 ADD JUMPDEST PUSH1 0x40 MLOAD DUP1 SWAP2 SUB SWAP1 RETURN JUMPDEST PUSH2 0x92 PUSH1 0x2 SLOAD DUP2 JUMP JUMPDEST PUSH1 0x40 MLOAD SWAP1 DUP2 MSTORE PUSH1 0x20 ADD PUSH2 0x80 JUMP JUMPDEST PUSH2 0xD3 PUSH2 0xAE CALLDATASIZE PUSH1 0x4 PUSH2 0x1D9 JUMP JUMPDEST PUSH1 0x5 PUSH1 0x20 MSTORE PUSH0 SWAP1 DUP2 MSTORE PUSH1 0x40 SWAP1 KECCAK256 DUP1 SLOAD PUSH1 0x1 SWAP1 SWAP2 ADD SLOAD PUSH1 0x1 PUSH1 0x1 PUSH1 0xA0 SHL SUB SWAP2 DUP3 AND SWAP2 AND DUP3 JUMP JUMPDEST PUSH1 0x40 DUP1 MLOAD PUSH1 0x1 PUSH1 0x1 PUSH1 0xA0 SHL SUB SWAP4 DUP5 AND DUP2 MSTORE SWAP3 SWAP1 SWAP2 AND PUSH1 0x20 DUP4 ADD MSTORE ADD PUSH2 0x80 JUMP JUMPDEST PUSH0 SLOAD PUSH2 0x6C SWAP1 PUSH1 0x1 PUSH1 0x1 PUSH1 0xA0 SHL SUB AND DUP2 JUMP JUMPDEST PUSH2 0x178 PUSH2 0x113 CALLDATASIZE PUSH1 0x4 PUSH2 0x1D9 JUMP JUMPDEST PUSH1 0x3 PUSH1 0x20 DUP2 SWAP1 MSTORE PUSH0 SWAP2 DUP3 MSTORE PUSH1 0x40 SWAP1 SWAP2 KECCAK256 DUP1 SLOAD PUSH1 0x1 DUP3 ADD SLOAD PUSH1 0x2 DUP4 ADD SLOAD SWAP4 DUP4 ADD SLOAD PUSH1 0x4 DUP5 ADD SLOAD PUSH1 0x5 DUP6 ADD SLOAD PUSH1 0x6 DUP7 ADD SLOAD PUSH1 0x7 DUP8 ADD SLOAD PUSH1 0x8 DUP9 ADD SLOAD PUSH1 0x9 SWAP1 SWAP9 ADD SLOAD PUSH1 0x1 PUSH1 0x1 PUSH1 0xA0 SHL SUB SWAP8 DUP9 AND SWAP10 SWAP7 DUP9 AND SWAP9 SWAP7 DUP9 AND SWAP8 SWAP6 DUP7 AND SWAP7 SWAP6 SWAP1 SWAP5 AND SWAP5 SWAP3 SWAP4 SWAP2 SWAP3 SWAP1 SWAP2 DUP11 JUMP JUMPDEST PUSH1 0x40 DUP1 MLOAD PUSH1 0x1 PUSH1 0x1 PUSH1 0xA0 SHL SUB SWAP12 DUP13 AND DUP2 MSTORE SWAP10 DUP12 AND PUSH1 0x20 DUP12 ADD MSTORE SWAP8 DUP11 AND SWAP8 DUP10 ADD SWAP8 SWAP1 SWAP8 MSTORE SWAP5 DUP9 AND PUSH1 0x60 DUP9 ADD MSTORE SWAP7 SWAP1 SWAP3 AND PUSH1 0x80 DUP7 ADD MSTORE PUSH1 0xA0 DUP6 ADD MSTORE PUSH1 0xC0 DUP5 ADD MSTORE PUSH1 0xE0 DUP4 ADD SWAP4 SWAP1 SWAP4 MSTORE PUSH2 0x100 DUP3 ADD SWAP3 SWAP1 SWAP3 MSTORE PUSH2 0x120 DUP2 ADD SWAP2 SWAP1 SWAP2 MSTORE PUSH2 0x140 ADD PUSH2 0x80 JUMP JUMPDEST PUSH0 PUSH1 0x20 DUP3 DUP5 SUB SLT ISZERO PUSH2 0x1E9 JUMPI PUSH0 DUP1 REVERT JUMPDEST POP CALLDATALOAD SWAP2 SWAP1 POP JUMP INVALID LOG2 PUSH5 0x6970667358 0x22 SLT KECCAK256 ORIGIN 0xE6 SWAP13 0x2E 0xE7 PUSH29 0x3E8471A11826AEC39C3B5BD8BD3ACD193793178A291AC583998164736F PUSH13 0x63430008180033000000000000 "
				},
				"gasEstimates": {
					"creation": {
						"codeDepositCost": "110000",
						"executionCost": "157",
						"totalCost": "110157"
					},
					"external": {
						"chainData(uint256)": "4650",
						"crossDomainMessenger()": "2368",
						"dealData(uint256)": "21827",
						"legacyERC20ETH()": "2303",
						"saleCount()": "2294"
					}
				},
				"methodIdentifiers": {
					"chainData(uint256)": "e59f69c2",
					"crossDomainMessenger()": "f43b3613",
					"dealData(uint256)": "f5869c2f",
					"legacyERC20ETH()": "16e01724",
					"saleCount()": "a1e89aec"
				}
			},
			"storageLayout": {
				"storage": [
					{
						"astId": 526,
						"contract": "contracts/L2/L2toL2CrossTradeStorage.sol:L2toL2CrossTradeStorage",
						"label": "crossDomainMessenger",
						"offset": 0,
						"slot": "0",
						"type": "t_address"
					},
					{
						"astId": 528,
						"contract": "contracts/L2/L2toL2CrossTradeStorage.sol:L2toL2CrossTradeStorage",
						"label": "legacyERC20ETH",
						"offset": 0,
						"slot": "1",
						"type": "t_address"
					},
					{
						"astId": 530,
						"contract": "contracts/L2/L2toL2CrossTradeStorage.sol:L2toL2CrossTradeStorage",
						"label": "saleCount",
						"offset": 0,
						"slot": "2",
						"type": "t_uint256"
					},
					{
						"astId": 535,
						"contract": "contracts/L2/L2toL2CrossTradeStorage.sol:L2toL2CrossTradeStorage",
						"label": "dealData",
						"offset": 0,
						"slot": "3",
						"type": "t_mapping(t_uint256,t_struct(RequestData)519_storage)"
					},
					{
						"astId": 539,
						"contract": "contracts/L2/L2toL2CrossTradeStorage.sol:L2toL2CrossTradeStorage",
						"label": "registerCheck",
						"offset": 0,
						"slot": "4",
						"type": "t_mapping(t_bytes32,t_bool)"
					},
					{
						"astId": 544,
						"contract": "contracts/L2/L2toL2CrossTradeStorage.sol:L2toL2CrossTradeStorage",
						"label": "chainData",
						"offset": 0,
						"slot": "5",
						"type": "t_mapping(t_uint256,t_struct(ChainIdData)524_storage)"
					}
				],
				"types": {
					"t_address": {
						"encoding": "inplace",
						"label": "address",
						"numberOfBytes": "20"
					},
					"t_bool": {
						"encoding": "inplace",
						"label": "bool",
						"numberOfBytes": "1"
					},
					"t_bytes32": {
						"encoding": "inplace",
						"label": "bytes32",
						"numberOfBytes": "32"
					},
					"t_mapping(t_bytes32,t_bool)": {
						"encoding": "mapping",
						"key": "t_bytes32",
						"label": "mapping(bytes32 => bool)",
						"numberOfBytes": "32",
						"value": "t_bool"
					},
					"t_mapping(t_uint256,t_struct(ChainIdData)524_storage)": {
						"encoding": "mapping",
						"key": "t_uint256",
						"label": "mapping(uint256 => struct L2toL2CrossTradeStorage.ChainIdData)",
						"numberOfBytes": "32",
						"value": "t_struct(ChainIdData)524_storage"
					},
					"t_mapping(t_uint256,t_struct(RequestData)519_storage)": {
						"encoding": "mapping",
						"key": "t_uint256",
						"label": "mapping(uint256 => struct L2toL2CrossTradeStorage.RequestData)",
						"numberOfBytes": "32",
						"value": "t_struct(RequestData)519_storage"
					},
					"t_struct(ChainIdData)524_storage": {
						"encoding": "inplace",
						"label": "struct L2toL2CrossTradeStorage.ChainIdData",
						"members": [
							{
								"astId": 521,
								"contract": "contracts/L2/L2toL2CrossTradeStorage.sol:L2toL2CrossTradeStorage",
								"label": "l1CrossTradeContract",
								"offset": 0,
								"slot": "0",
								"type": "t_address"
							},
							{
								"astId": 523,
								"contract": "contracts/L2/L2toL2CrossTradeStorage.sol:L2toL2CrossTradeStorage",
								"label": "l1TON",
								"offset": 0,
								"slot": "1",
								"type": "t_address"
							}
						],
						"numberOfBytes": "64"
					},
					"t_struct(RequestData)519_storage": {
						"encoding": "inplace",
						"label": "struct L2toL2CrossTradeStorage.RequestData",
						"members": [
							{
								"astId": 500,
								"contract": "contracts/L2/L2toL2CrossTradeStorage.sol:L2toL2CrossTradeStorage",
								"label": "l1token",
								"offset": 0,
								"slot": "0",
								"type": "t_address"
							},
							{
								"astId": 502,
								"contract": "contracts/L2/L2toL2CrossTradeStorage.sol:L2toL2CrossTradeStorage",
								"label": "l2SourceToken",
								"offset": 0,
								"slot": "1",
								"type": "t_address"
							},
							{
								"astId": 504,
								"contract": "contracts/L2/L2toL2CrossTradeStorage.sol:L2toL2CrossTradeStorage",
								"label": "l2TargetToken",
								"offset": 0,
								"slot": "2",
								"type": "t_address"
							},
							{
								"astId": 506,
								"contract": "contracts/L2/L2toL2CrossTradeStorage.sol:L2toL2CrossTradeStorage",
								"label": "requester",
								"offset": 0,
								"slot": "3",
								"type": "t_address"
							},
							{
								"astId": 508,
								"contract": "contracts/L2/L2toL2CrossTradeStorage.sol:L2toL2CrossTradeStorage",
								"label": "provider",
								"offset": 0,
								"slot": "4",
								"type": "t_address"
							},
							{
								"astId": 510,
								"contract": "contracts/L2/L2toL2CrossTradeStorage.sol:L2toL2CrossTradeStorage",
								"label": "totalAmount",
								"offset": 0,
								"slot": "5",
								"type": "t_uint256"
							},
							{
								"astId": 512,
								"contract": "contracts/L2/L2toL2CrossTradeStorage.sol:L2toL2CrossTradeStorage",
								"label": "ctAmount",
								"offset": 0,
								"slot": "6",
								"type": "t_uint256"
							},
							{
								"astId": 514,
								"contract": "contracts/L2/L2toL2CrossTradeStorage.sol:L2toL2CrossTradeStorage",
								"label": "l1ChainId",
								"offset": 0,
								"slot": "7",
								"type": "t_uint256"
							},
							{
								"astId": 516,
								"contract": "contracts/L2/L2toL2CrossTradeStorage.sol:L2toL2CrossTradeStorage",
								"label": "l2TargetChainId",
								"offset": 0,
								"slot": "8",
								"type": "t_uint256"
							},
							{
								"astId": 518,
								"contract": "contracts/L2/L2toL2CrossTradeStorage.sol:L2toL2CrossTradeStorage",
								"label": "hashValue",
								"offset": 0,
								"slot": "9",
								"type": "t_bytes32"
							}
						],
						"numberOfBytes": "320"
					},
					"t_uint256": {
						"encoding": "inplace",
						"label": "uint256",
						"numberOfBytes": "32"
					}
				}
			},
			"userdoc": {
				"kind": "user",
				"methods": {},
				"version": 1
			}
		}
	}
}