{
	"contracts/L2/L2toL2CrossTradeProxy.sol": {
		"L2toL2CrossTradeProxy": {
			"abi": [
				{
					"inputs": [],
					"name": "AccessControlBadConfirmation",
					"type": "error"
				},
				{
					"inputs": [
						{
							"internalType": "address",
							"name": "account",
							"type": "address"
						},
						{
							"internalType": "bytes32",
							"name": "neededRole",
							"type": "bytes32"
						}
					],
					"name": "AccessControlUnauthorizedAccount",
					"type": "error"
				},
				{
					"anonymous": false,
					"inputs": [
						{
							"indexed": true,
							"internalType": "bytes32",
							"name": "role",
							"type": "bytes32"
						},
						{
							"indexed": true,
							"internalType": "bytes32",
							"name": "previousAdminRole",
							"type": "bytes32"
						},
						{
							"indexed": true,
							"internalType": "bytes32",
							"name": "newAdminRole",
							"type": "bytes32"
						}
					],
					"name": "RoleAdminChanged",
					"type": "event"
				},
				{
					"anonymous": false,
					"inputs": [
						{
							"indexed": true,
							"internalType": "bytes32",
							"name": "role",
							"type": "bytes32"
						},
						{
							"indexed": true,
							"internalType": "address",
							"name": "account",
							"type": "address"
						},
						{
							"indexed": true,
							"internalType": "address",
							"name": "sender",
							"type": "address"
						}
					],
					"name": "RoleGranted",
					"type": "event"
				},
				{
					"anonymous": false,
					"inputs": [
						{
							"indexed": true,
							"internalType": "bytes32",
							"name": "role",
							"type": "bytes32"
						},
						{
							"indexed": true,
							"internalType": "address",
							"name": "account",
							"type": "address"
						},
						{
							"indexed": true,
							"internalType": "address",
							"name": "sender",
							"type": "address"
						}
					],
					"name": "RoleRevoked",
					"type": "event"
				},
				{
					"anonymous": false,
					"inputs": [
						{
							"indexed": true,
							"internalType": "address",
							"name": "impl",
							"type": "address"
						},
						{
							"indexed": false,
							"internalType": "bool",
							"name": "alive",
							"type": "bool"
						}
					],
					"name": "SetAliveImplementation",
					"type": "event"
				},
				{
					"anonymous": false,
					"inputs": [
						{
							"indexed": true,
							"internalType": "bytes4",
							"name": "selector",
							"type": "bytes4"
						},
						{
							"indexed": true,
							"internalType": "address",
							"name": "impl",
							"type": "address"
						}
					],
					"name": "SetSelectorImplementation",
					"type": "event"
				},
				{
					"anonymous": false,
					"inputs": [
						{
							"indexed": true,
							"internalType": "address",
							"name": "implementation",
							"type": "address"
						}
					],
					"name": "Upgraded",
					"type": "event"
				},
				{
					"stateMutability": "payable",
					"type": "fallback"
				},
				{
					"inputs": [],
					"name": "ADMIN_ROLE",
					"outputs": [
						{
							"internalType": "bytes32",
							"name": "",
							"type": "bytes32"
						}
					],
					"stateMutability": "view",
					"type": "function"
				},
				{
					"inputs": [],
					"name": "DEFAULT_ADMIN_ROLE",
					"outputs": [
						{
							"internalType": "bytes32",
							"name": "",
							"type": "bytes32"
						}
					],
					"stateMutability": "view",
					"type": "function"
				},
				{
					"inputs": [],
					"name": "POLICY_ROLE",
					"outputs": [
						{
							"internalType": "bytes32",
							"name": "",
							"type": "bytes32"
						}
					],
					"stateMutability": "view",
					"type": "function"
				},
				{
					"inputs": [
						{
							"internalType": "address",
							"name": "account",
							"type": "address"
						}
					],
					"name": "addAdmin",
					"outputs": [],
					"stateMutability": "nonpayable",
					"type": "function"
				},
				{
					"inputs": [
						{
							"internalType": "address",
							"name": "",
							"type": "address"
						}
					],
					"name": "aliveImplementation",
					"outputs": [
						{
							"internalType": "bool",
							"name": "",
							"type": "bool"
						}
					],
					"stateMutability": "view",
					"type": "function"
				},
				{
					"inputs": [
						{
							"internalType": "uint256",
							"name": "",
							"type": "uint256"
						}
					],
					"name": "chainData",
					"outputs": [
						{
							"internalType": "address",
							"name": "l1CrossTradeContract",
							"type": "address"
						},
						{
							"internalType": "address",
							"name": "l1TON",
							"type": "address"
						}
					],
					"stateMutability": "view",
					"type": "function"
				},
				{
					"inputs": [],
					"name": "crossDomainMessenger",
					"outputs": [
						{
							"internalType": "address",
							"name": "",
							"type": "address"
						}
					],
					"stateMutability": "view",
					"type": "function"
				},
				{
					"inputs": [
						{
							"internalType": "uint256",
							"name": "",
							"type": "uint256"
						}
					],
					"name": "dealData",
					"outputs": [
						{
							"internalType": "address",
							"name": "l1token",
							"type": "address"
						},
						{
							"internalType": "address",
							"name": "l2SourceToken",
							"type": "address"
						},
						{
							"internalType": "address",
							"name": "l2TargetToken",
							"type": "address"
						},
						{
							"internalType": "address",
							"name": "requester",
							"type": "address"
						},
						{
							"internalType": "address",
							"name": "provider",
							"type": "address"
						},
						{
							"internalType": "uint256",
							"name": "totalAmount",
							"type": "uint256"
						},
						{
							"internalType": "uint256",
							"name": "ctAmount",
							"type": "uint256"
						},
						{
							"internalType": "uint256",
							"name": "l1ChainId",
							"type": "uint256"
						},
						{
							"internalType": "uint256",
							"name": "l2TargetChainId",
							"type": "uint256"
						},
						{
							"internalType": "bytes32",
							"name": "hashValue",
							"type": "bytes32"
						}
					],
					"stateMutability": "view",
					"type": "function"
				},
				{
					"inputs": [
						{
							"internalType": "bytes32",
							"name": "role",
							"type": "bytes32"
						}
					],
					"name": "getRoleAdmin",
					"outputs": [
						{
							"internalType": "bytes32",
							"name": "",
							"type": "bytes32"
						}
					],
					"stateMutability": "view",
					"type": "function"
				},
				{
					"inputs": [
						{
							"internalType": "bytes4",
							"name": "_selector",
							"type": "bytes4"
						}
					],
					"name": "getSelectorImplementation2",
					"outputs": [
						{
							"internalType": "address",
							"name": "impl",
							"type": "address"
						}
					],
					"stateMutability": "view",
					"type": "function"
				},
				{
					"inputs": [
						{
							"internalType": "bytes32",
							"name": "role",
							"type": "bytes32"
						},
						{
							"internalType": "address",
							"name": "account",
							"type": "address"
						}
					],
					"name": "grantRole",
					"outputs": [],
					"stateMutability": "nonpayable",
					"type": "function"
				},
				{
					"inputs": [
						{
							"internalType": "bytes32",
							"name": "role",
							"type": "bytes32"
						},
						{
							"internalType": "address",
							"name": "account",
							"type": "address"
						}
					],
					"name": "hasRole",
					"outputs": [
						{
							"internalType": "bool",
							"name": "",
							"type": "bool"
						}
					],
					"stateMutability": "view",
					"type": "function"
				},
				{
					"inputs": [],
					"name": "implementation",
					"outputs": [
						{
							"internalType": "address",
							"name": "",
							"type": "address"
						}
					],
					"stateMutability": "view",
					"type": "function"
				},
				{
					"inputs": [
						{
							"internalType": "uint256",
							"name": "_index",
							"type": "uint256"
						}
					],
					"name": "implementation2",
					"outputs": [
						{
							"internalType": "address",
							"name": "",
							"type": "address"
						}
					],
					"stateMutability": "view",
					"type": "function"
				},
				{
					"inputs": [
						{
							"internalType": "address",
							"name": "_crossDomainMessenger",
							"type": "address"
						},
						{
							"internalType": "address",
							"name": "_legacyERC20",
							"type": "address"
						}
					],
					"name": "initialize",
					"outputs": [],
					"stateMutability": "nonpayable",
					"type": "function"
				},
				{
					"inputs": [
						{
							"internalType": "address",
							"name": "account",
							"type": "address"
						}
					],
					"name": "isAdmin",
					"outputs": [
						{
							"internalType": "bool",
							"name": "",
							"type": "bool"
						}
					],
					"stateMutability": "view",
					"type": "function"
				},
				{
					"inputs": [],
					"name": "legacyERC20ETH",
					"outputs": [
						{
							"internalType": "address",
							"name": "",
							"type": "address"
						}
					],
					"stateMutability": "view",
					"type": "function"
				},
				{
					"inputs": [],
					"name": "pauseProxy",
					"outputs": [
						{
							"internalType": "bool",
							"name": "",
							"type": "bool"
						}
					],
					"stateMutability": "view",
					"type": "function"
				},
				{
					"inputs": [
						{
							"internalType": "uint256",
							"name": "",
							"type": "uint256"
						}
					],
					"name": "proxyImplementation",
					"outputs": [
						{
							"internalType": "address",
							"name": "",
							"type": "address"
						}
					],
					"stateMutability": "view",
					"type": "function"
				},
				{
					"inputs": [
						{
							"internalType": "address",
							"name": "account",
							"type": "address"
						}
					],
					"name": "removeAdmin",
					"outputs": [],
					"stateMutability": "nonpayable",
					"type": "function"
				},
				{
					"inputs": [
						{
							"internalType": "bytes32",
							"name": "role",
							"type": "bytes32"
						},
						{
							"internalType": "address",
							"name": "callerConfirmation",
							"type": "address"
						}
					],
					"name": "renounceRole",
					"outputs": [],
					"stateMutability": "nonpayable",
					"type": "function"
				},
				{
					"inputs": [
						{
							"internalType": "bytes32",
							"name": "role",
							"type": "bytes32"
						},
						{
							"internalType": "address",
							"name": "account",
							"type": "address"
						}
					],
					"name": "revokeRole",
					"outputs": [],
					"stateMutability": "nonpayable",
					"type": "function"
				},
				{
					"inputs": [],
					"name": "saleCount",
					"outputs": [
						{
							"internalType": "uint256",
							"name": "",
							"type": "uint256"
						}
					],
					"stateMutability": "view",
					"type": "function"
				},
				{
					"inputs": [
						{
							"internalType": "bytes4",
							"name": "",
							"type": "bytes4"
						}
					],
					"name": "selectorImplementation",
					"outputs": [
						{
							"internalType": "address",
							"name": "",
							"type": "address"
						}
					],
					"stateMutability": "view",
					"type": "function"
				},
				{
					"inputs": [
						{
							"internalType": "address",
							"name": "newImplementation",
							"type": "address"
						},
						{
							"internalType": "bool",
							"name": "_alive",
							"type": "bool"
						}
					],
					"name": "setAliveImplementation2",
					"outputs": [],
					"stateMutability": "nonpayable",
					"type": "function"
				},
				{
					"inputs": [
						{
							"internalType": "address",
							"name": "_l1CrossTrade",
							"type": "address"
						},
						{
							"internalType": "address",
							"name": "_l1legacyERC20",
							"type": "address"
						},
						{
							"internalType": "uint256",
							"name": "_chainId",
							"type": "uint256"
						}
					],
					"name": "setChainInfo",
					"outputs": [],
					"stateMutability": "nonpayable",
					"type": "function"
				},
				{
					"inputs": [
						{
							"internalType": "address",
							"name": "newImplementation",
							"type": "address"
						},
						{
							"internalType": "uint256",
							"name": "_index",
							"type": "uint256"
						},
						{
							"internalType": "bool",
							"name": "_alive",
							"type": "bool"
						}
					],
					"name": "setImplementation2",
					"outputs": [],
					"stateMutability": "nonpayable",
					"type": "function"
				},
				{
					"inputs": [
						{
							"internalType": "bool",
							"name": "_pause",
							"type": "bool"
						}
					],
					"name": "setProxyPause",
					"outputs": [],
					"stateMutability": "nonpayable",
					"type": "function"
				},
				{
					"inputs": [
						{
							"internalType": "bytes4[]",
							"name": "_selectors",
							"type": "bytes4[]"
						},
						{
							"internalType": "address",
							"name": "_imp",
							"type": "address"
						}
					],
					"name": "setSelectorImplementations2",
					"outputs": [],
					"stateMutability": "nonpayable",
					"type": "function"
				},
				{
					"inputs": [
						{
							"internalType": "bytes4",
							"name": "interfaceId",
							"type": "bytes4"
						}
					],
					"name": "supportsInterface",
					"outputs": [
						{
							"internalType": "bool",
							"name": "",
							"type": "bool"
						}
					],
					"stateMutability": "view",
					"type": "function"
				},
				{
					"inputs": [
						{
							"internalType": "address",
							"name": "newAdmin",
							"type": "address"
						}
					],
					"name": "transferAdmin",
					"outputs": [],
					"stateMutability": "nonpayable",
					"type": "function"
				},
				{
					"inputs": [
						{
							"internalType": "address",
							"name": "impl",
							"type": "address"
						}
					],
					"name": "upgradeTo",
					"outputs": [],
					"stateMutability": "nonpayable",
					"type": "function"
				},
				{
					"stateMutability": "payable",
					"type": "receive"
				}
			],
			"devdoc": {
				"errors": {
					"AccessControlBadConfirmation()": [
						{
							"details": "The caller of a function is not the expected one. NOTE: Don't confuse with {AccessControlUnauthorizedAccount}."
						}
					],
					"AccessControlUnauthorizedAccount(address,bytes32)": [
						{
							"details": "The `account` is missing a role."
						}
					]
				},
				"events": {
					"RoleAdminChanged(bytes32,bytes32,bytes32)": {
						"details": "Emitted when `newAdminRole` is set as ``role``'s admin role, replacing `previousAdminRole` `DEFAULT_ADMIN_ROLE` is the starting admin for all roles, despite {RoleAdminChanged} not being emitted signaling this."
					},
					"RoleGranted(bytes32,address,address)": {
						"details": "Emitted when `account` is granted `role`. `sender` is the account that originated the contract call, an admin role bearer except when using {AccessControl-_setupRole}."
					},
					"RoleRevoked(bytes32,address,address)": {
						"details": "Emitted when `account` is revoked `role`. `sender` is the account that originated the contract call:   - if using `revokeRole`, it is the admin role bearer   - if using `renounceRole`, it is the role bearer (i.e. `account`)"
					}
				},
				"kind": "dev",
				"methods": {
					"addAdmin(address)": {
						"details": "add admin",
						"params": {
							"account": "address to add"
						}
					},
					"getRoleAdmin(bytes32)": {
						"details": "Returns the admin role that controls `role`. See {grantRole} and {revokeRole}. To change a role's admin, use {_setRoleAdmin}."
					},
					"getSelectorImplementation2(bytes4)": {
						"details": "view implementation address of selector of function",
						"params": {
							"_selector": "selector of function"
						},
						"returns": {
							"impl": "address of the implementation"
						}
					},
					"grantRole(bytes32,address)": {
						"details": "Grants `role` to `account`. If `account` had not been already granted `role`, emits a {RoleGranted} event. Requirements: - the caller must have ``role``'s admin role. May emit a {RoleGranted} event."
					},
					"hasRole(bytes32,address)": {
						"details": "Returns `true` if `account` has been granted `role`."
					},
					"implementation()": {
						"details": "returns the implementation"
					},
					"implementation2(uint256)": {
						"details": "view implementation address of the proxy[index]",
						"params": {
							"_index": "index of proxy"
						},
						"returns": {
							"_0": "address of the implementation"
						}
					},
					"initialize(address,address)": {
						"params": {
							"_crossDomainMessenger": "crossDomainMessenger address",
							"_legacyERC20": "legacyERC20 address "
						}
					},
					"isAdmin(address)": {
						"details": "whether admin",
						"params": {
							"account": "address to check"
						}
					},
					"removeAdmin(address)": {
						"details": "remove admin",
						"params": {
							"account": "address to remove"
						}
					},
					"renounceRole(bytes32,address)": {
						"details": "Revokes `role` from the calling account. Roles are often managed via {grantRole} and {revokeRole}: this function's purpose is to provide a mechanism for accounts to lose their privileges if they are compromised (such as when a trusted device is misplaced). If the calling account had been revoked `role`, emits a {RoleRevoked} event. Requirements: - the caller must be `callerConfirmation`. May emit a {RoleRevoked} event."
					},
					"revokeRole(bytes32,address)": {
						"details": "Revokes `role` from `account`. If `account` had been granted `role`, emits a {RoleRevoked} event. Requirements: - the caller must have ``role``'s admin role. May emit a {RoleRevoked} event."
					},
					"setAliveImplementation2(address,bool)": {
						"details": "set alive status of implementation",
						"params": {
							"_alive": "alive status",
							"newImplementation": "Address of the new implementation."
						}
					},
					"setChainInfo(address,address,uint256)": {
						"params": {
							"_chainId": "store chainId",
							"_l1CrossTrade": "L1CrossTradeProxy address for chainId",
							"_l1legacyERC20": "l1legacyERC20 address for chainId"
						}
					},
					"setImplementation2(address,uint256,bool)": {
						"details": "set the implementation address and status of the proxy[index]",
						"params": {
							"_alive": "_alive",
							"_index": "index",
							"newImplementation": "Address of the new implementation."
						}
					},
					"setProxyPause(bool)": {
						"params": {
							"_pause": "true:pause or false:resume"
						}
					},
					"setSelectorImplementations2(bytes4[],address)": {
						"details": "set selectors of Implementation",
						"params": {
							"_imp": "implementation address",
							"_selectors": "being added selectors"
						}
					},
					"supportsInterface(bytes4)": {
						"details": "See {IERC165-supportsInterface}."
					},
					"transferAdmin(address)": {
						"details": "transfer admin",
						"params": {
							"newAdmin": "new admin address"
						}
					},
					"upgradeTo(address)": {
						"params": {
							"impl": "New implementation contract address"
						}
					}
				},
				"version": 1
			},
			"evm": {
				"assembly": "    /* \"contracts/L2/L2toL2CrossTradeProxy.sol\":181:1172  contract L2toL2CrossTradeProxy is Proxy, L2toL2CrossTradeStorage {... */\n  mstore(0x40, 0x80)\n  callvalue\n  dup1\n  iszero\n  tag_1\n  jumpi\n  0x00\n  dup1\n  revert\ntag_1:\n  pop\n    /* \"contracts/proxy/Proxy.sol\":548:585  _setRoleAdmin(ADMIN_ROLE, ADMIN_ROLE) */\n  tag_4\n  0x00\n  dup1\n  mload\n  0x20\n  data_a29c3f0504a76c686875ea2f0fc314af702d3407223f14a34325f35a1858bd3b\n  dup4\n  codecopy\n  dup2\n  mload\n  swap2\n  mstore\n    /* \"contracts/common/AccessRoleCommon.sol\":127:145  keccak256(\"ADMIN\") */\n  dup1\n    /* \"contracts/proxy/Proxy.sol\":548:561  _setRoleAdmin */\n  tag_5\n    /* \"contracts/proxy/Proxy.sol\":548:585  _setRoleAdmin(ADMIN_ROLE, ADMIN_ROLE) */\n  jump\t// in\ntag_4:\n    /* \"contracts/proxy/Proxy.sol\":595:629  _grantRole(ADMIN_ROLE, msg.sender) */\n  tag_6\n  0x00\n  dup1\n  mload\n  0x20\n  data_a29c3f0504a76c686875ea2f0fc314af702d3407223f14a34325f35a1858bd3b\n  dup4\n  codecopy\n  dup2\n  mload\n  swap2\n  mstore\n    /* \"contracts/proxy/Proxy.sol\":618:628  msg.sender */\n  caller\n    /* \"contracts/proxy/Proxy.sol\":595:605  _grantRole */\n  tag_7\n    /* \"contracts/proxy/Proxy.sol\":595:629  _grantRole(ADMIN_ROLE, msg.sender) */\n  jump\t// in\ntag_6:\n  pop\n    /* \"contracts/L2/L2toL2CrossTradeProxy.sol\":181:1172  contract L2toL2CrossTradeProxy is Proxy, L2toL2CrossTradeStorage {... */\n  jump(tag_8)\n    /* \"@openzeppelin/contracts/access/AccessControl.sol\":5698:5945  function _setRoleAdmin(bytes32 role, bytes32 adminRole) internal virtual {... */\ntag_5:\n    /* \"@openzeppelin/contracts/access/AccessControl.sol\":5781:5806  bytes32 previousAdminRole */\n  0x00\n    /* \"@openzeppelin/contracts/access/AccessControl.sol\":3901:3913  _roles[role] */\n  dup3\n  dup2\n  mstore\n    /* \"@openzeppelin/contracts/access/AccessControl.sol\":3901:3907  _roles */\n  0x04\n    /* \"@openzeppelin/contracts/access/AccessControl.sol\":3901:3913  _roles[role] */\n  0x20\n  mstore\n  0x40\n  dup1\n  dup3\n  keccak256\n    /* \"@openzeppelin/contracts/access/AccessControl.sol\":3901:3923  _roles[role].adminRole */\n  0x01\n  add\n  dup1\n  sload\n    /* \"@openzeppelin/contracts/access/AccessControl.sol\":5837:5871  _roles[role].adminRole = adminRole */\n  swap1\n  dup5\n  swap1\n  sstore\n    /* \"@openzeppelin/contracts/access/AccessControl.sol\":5886:5938  RoleAdminChanged(role, previousAdminRole, adminRole) */\n  swap1\n  mload\n    /* \"@openzeppelin/contracts/access/AccessControl.sol\":3901:3923  _roles[role].adminRole */\n  swap1\n  swap2\n    /* \"@openzeppelin/contracts/access/AccessControl.sol\":5837:5871  _roles[role].adminRole = adminRole */\n  dup4\n  swap2\n    /* \"@openzeppelin/contracts/access/AccessControl.sol\":3901:3923  _roles[role].adminRole */\n  dup4\n  swap2\n    /* \"@openzeppelin/contracts/access/AccessControl.sol\":3901:3913  _roles[role] */\n  dup7\n  swap2\n    /* \"@openzeppelin/contracts/access/AccessControl.sol\":5886:5938  RoleAdminChanged(role, previousAdminRole, adminRole) */\n  0xbd79b86ffe0ab8e8776151514217cd7cacd52c909f66475c3af44e129f0b00ff\n  swap2\n    /* \"@openzeppelin/contracts/access/AccessControl.sol\":5781:5806  bytes32 previousAdminRole */\n  swap1\n    /* \"@openzeppelin/contracts/access/AccessControl.sol\":5886:5938  RoleAdminChanged(role, previousAdminRole, adminRole) */\n  log4\n    /* \"@openzeppelin/contracts/access/AccessControl.sol\":5771:5945  {... */\n  pop\n    /* \"@openzeppelin/contracts/access/AccessControl.sol\":5698:5945  function _setRoleAdmin(bytes32 role, bytes32 adminRole) internal virtual {... */\n  pop\n  pop\n  jump\t// out\n    /* \"@openzeppelin/contracts/access/AccessControl.sol\":6179:6495  function _grantRole(bytes32 role, address account) internal virtual returns (bool) {... */\ntag_7:\n    /* \"@openzeppelin/contracts/access/AccessControl.sol\":6256:6260  bool */\n  0x00\n    /* \"@openzeppelin/contracts/access/AccessControl.sol\":2954:2966  _roles[role] */\n  dup3\n  dup2\n  mstore\n    /* \"@openzeppelin/contracts/access/AccessControl.sol\":2954:2960  _roles */\n  0x04\n    /* \"@openzeppelin/contracts/access/AccessControl.sol\":2954:2966  _roles[role] */\n  0x20\n  swap1\n  dup2\n  mstore\n  0x40\n  dup1\n  dup4\n  keccak256\n  sub(shl(0xa0, 0x01), 0x01)\n    /* \"@openzeppelin/contracts/access/AccessControl.sol\":2954:2983  _roles[role].hasRole[account] */\n  dup6\n  and\n  dup5\n  mstore\n  swap1\n  swap2\n  mstore\n  dup2\n  keccak256\n  sload\n  0xff\n  and\n    /* \"@openzeppelin/contracts/access/AccessControl.sol\":6272:6489  if (!hasRole(role, account)) {... */\n  tag_15\n  jumpi\n    /* \"@openzeppelin/contracts/access/AccessControl.sol\":6315:6327  _roles[role] */\n  0x00\n  dup4\n  dup2\n  mstore\n    /* \"@openzeppelin/contracts/access/AccessControl.sol\":6315:6321  _roles */\n  0x04\n    /* \"@openzeppelin/contracts/access/AccessControl.sol\":6315:6327  _roles[role] */\n  0x20\n  swap1\n  dup2\n  mstore\n  0x40\n  dup1\n  dup4\n  keccak256\n  sub(shl(0xa0, 0x01), 0x01)\n    /* \"@openzeppelin/contracts/access/AccessControl.sol\":6315:6344  _roles[role].hasRole[account] */\n  dup7\n  and\n  dup5\n  mstore\n  swap1\n  swap2\n  mstore\n  swap1\n  keccak256\n    /* \"@openzeppelin/contracts/access/AccessControl.sol\":6315:6351  _roles[role].hasRole[account] = true */\n  dup1\n  sload\n  not(0xff)\n  and\n    /* \"@openzeppelin/contracts/access/AccessControl.sol\":6347:6351  true */\n  0x01\n    /* \"@openzeppelin/contracts/access/AccessControl.sol\":6315:6351  _roles[role].hasRole[account] = true */\n  or\n  swap1\n  sstore\n    /* \"@openzeppelin/contracts/access/AccessControl.sol\":6397:6409  _msgSender() */\n  tag_16\n    /* \"@openzeppelin/contracts/utils/Context.sol\":735:745  msg.sender */\n  caller\n  swap1\n    /* \"@openzeppelin/contracts/utils/Context.sol\":656:752  function _msgSender() internal view virtual returns (address) {... */\n  jump\n    /* \"@openzeppelin/contracts/access/AccessControl.sol\":6397:6409  _msgSender() */\ntag_16:\n  sub(shl(0xa0, 0x01), 0x01)\n    /* \"@openzeppelin/contracts/access/AccessControl.sol\":6370:6410  RoleGranted(role, account, _msgSender()) */\n  and\n    /* \"@openzeppelin/contracts/access/AccessControl.sol\":6388:6395  account */\n  dup3\n  sub(shl(0xa0, 0x01), 0x01)\n    /* \"@openzeppelin/contracts/access/AccessControl.sol\":6370:6410  RoleGranted(role, account, _msgSender()) */\n  and\n    /* \"@openzeppelin/contracts/access/AccessControl.sol\":6382:6386  role */\n  dup5\n    /* \"@openzeppelin/contracts/access/AccessControl.sol\":6370:6410  RoleGranted(role, account, _msgSender()) */\n  0x2f8788117e7eff1d82e926ec794901d17c78024a50270940304540a733656f0d\n  mload(0x40)\n  mload(0x40)\n  dup1\n  swap2\n  sub\n  swap1\n  log4\n  pop\n    /* \"@openzeppelin/contracts/access/AccessControl.sol\":6431:6435  true */\n  0x01\n    /* \"@openzeppelin/contracts/access/AccessControl.sol\":6424:6435  return true */\n  jump(tag_18)\n    /* \"@openzeppelin/contracts/access/AccessControl.sol\":6272:6489  if (!hasRole(role, account)) {... */\ntag_15:\n  pop\n    /* \"@openzeppelin/contracts/access/AccessControl.sol\":6473:6478  false */\n  0x00\n    /* \"@openzeppelin/contracts/access/AccessControl.sol\":6272:6489  if (!hasRole(role, account)) {... */\ntag_18:\n    /* \"@openzeppelin/contracts/access/AccessControl.sol\":6179:6495  function _grantRole(bytes32 role, address account) internal virtual returns (bool) {... */\n  swap3\n  swap2\n  pop\n  pop\n  jump\t// out\n    /* \"contracts/L2/L2toL2CrossTradeProxy.sol\":181:1172  contract L2toL2CrossTradeProxy is Proxy, L2toL2CrossTradeStorage {... */\ntag_8:\n  dataSize(sub_0)\n  dup1\n  dataOffset(sub_0)\n  0x00\n  codecopy\n  0x00\n  return\nstop\ndata_a29c3f0504a76c686875ea2f0fc314af702d3407223f14a34325f35a1858bd3b df8b4c520ffe197c5343c6f5aec59570151ef9a492f2c624fd45ddde6135ec42\n\nsub_0: assembly {\n        /* \"contracts/L2/L2toL2CrossTradeProxy.sol\":181:1172  contract L2toL2CrossTradeProxy is Proxy, L2toL2CrossTradeStorage {... */\n      mstore(0x40, 0x80)\n      jumpi(tag_1, lt(calldatasize, 0x04))\n      shr(0xe0, calldataload(0x00))\n      dup1\n      0x63a8fd89\n      gt\n      tag_35\n      jumpi\n      dup1\n      0x91d14854\n      gt\n      tag_36\n      jumpi\n      dup1\n      0xd547741f\n      gt\n      tag_37\n      jumpi\n      dup1\n      0xd547741f\n      eq\n      tag_31\n      jumpi\n      dup1\n      0xe59f69c2\n      eq\n      tag_32\n      jumpi\n      dup1\n      0xf43b3613\n      eq\n      tag_33\n      jumpi\n      dup1\n      0xf5869c2f\n      eq\n      tag_34\n      jumpi\n      jump(tag_2)\n    tag_37:\n      dup1\n      0x91d14854\n      eq\n      tag_27\n      jumpi\n      dup1\n      0xa1e89aec\n      eq\n      tag_28\n      jumpi\n      dup1\n      0xa217fddf\n      eq\n      tag_29\n      jumpi\n      dup1\n      0xb911135f\n      eq\n      tag_30\n      jumpi\n      jump(tag_2)\n    tag_36:\n      dup1\n      0x7cb00d25\n      gt\n      tag_38\n      jumpi\n      dup1\n      0x7cb00d25\n      eq\n      tag_23\n      jumpi\n      dup1\n      0x7cd5f663\n      eq\n      tag_24\n      jumpi\n      dup1\n      0x8b8f4a65\n      eq\n      tag_25\n      jumpi\n      dup1\n      0x8d4fdb40\n      eq\n      tag_26\n      jumpi\n      jump(tag_2)\n    tag_38:\n      dup1\n      0x63a8fd89\n      eq\n      tag_19\n      jumpi\n      dup1\n      0x70480275\n      eq\n      tag_20\n      jumpi\n      dup1\n      0x75829def\n      eq\n      tag_21\n      jumpi\n      dup1\n      0x75b238fc\n      eq\n      tag_22\n      jumpi\n      jump(tag_2)\n    tag_35:\n      dup1\n      0x36568abe\n      gt\n      tag_39\n      jumpi\n      dup1\n      0x50d2a276\n      gt\n      tag_40\n      jumpi\n      dup1\n      0x50d2a276\n      eq\n      tag_15\n      jumpi\n      dup1\n      0x550d01a3\n      eq\n      tag_16\n      jumpi\n      dup1\n      0x5c60da1b\n      eq\n      tag_17\n      jumpi\n      dup1\n      0x5cc797d8\n      eq\n      tag_18\n      jumpi\n      jump(tag_2)\n    tag_40:\n      dup1\n      0x36568abe\n      eq\n      tag_11\n      jumpi\n      dup1\n      0x3659cfe6\n      eq\n      tag_12\n      jumpi\n      dup1\n      0x485cc955\n      eq\n      tag_13\n      jumpi\n      dup1\n      0x4a5df50f\n      eq\n      tag_14\n      jumpi\n      jump(tag_2)\n    tag_39:\n      dup1\n      0x22985246\n      gt\n      tag_41\n      jumpi\n      dup1\n      0x22985246\n      eq\n      tag_7\n      jumpi\n      dup1\n      0x248a9ca3\n      eq\n      tag_8\n      jumpi\n      dup1\n      0x24d7806c\n      eq\n      tag_9\n      jumpi\n      dup1\n      0x2f2ff15d\n      eq\n      tag_10\n      jumpi\n      jump(tag_2)\n    tag_41:\n      dup1\n      0x01ffc9a7\n      eq\n      tag_3\n      jumpi\n      dup1\n      0x1230b14c\n      eq\n      tag_4\n      jumpi\n      dup1\n      0x16e01724\n      eq\n      tag_5\n      jumpi\n      dup1\n      0x1785f53c\n      eq\n      tag_6\n      jumpi\n      jump(tag_2)\n    tag_1:\n      jumpi(tag_2, calldatasize)\n      stop\n    tag_2:\n        /* \"contracts/proxy/Proxy.sol\":3404:3415  _fallback() */\n      tag_46\n        /* \"contracts/proxy/Proxy.sol\":3404:3413  _fallback */\n      tag_47\n        /* \"contracts/proxy/Proxy.sol\":3404:3415  _fallback() */\n      jump\t// in\n    tag_46:\n        /* \"contracts/L2/L2toL2CrossTradeProxy.sol\":181:1172  contract L2toL2CrossTradeProxy is Proxy, L2toL2CrossTradeStorage {... */\n      stop\n        /* \"@openzeppelin/contracts/access/AccessControl.sol\":2565:2767  function supportsInterface(bytes4 interfaceId) public view virtual override returns (bool) {... */\n    tag_3:\n      callvalue\n      dup1\n      iszero\n      tag_48\n      jumpi\n      0x00\n      dup1\n      revert\n    tag_48:\n      pop\n      tag_49\n      tag_50\n      calldatasize\n      0x04\n      tag_51\n      jump\t// in\n    tag_50:\n      tag_52\n      jump\t// in\n    tag_49:\n      mload(0x40)\n        /* \"#utility.yul\":470:484   */\n      swap1\n      iszero\n        /* \"#utility.yul\":463:485   */\n      iszero\n        /* \"#utility.yul\":445:486   */\n      dup2\n      mstore\n        /* \"#utility.yul\":433:435   */\n      0x20\n        /* \"#utility.yul\":418:436   */\n      add\n        /* \"@openzeppelin/contracts/access/AccessControl.sol\":2565:2767  function supportsInterface(bytes4 interfaceId) public view virtual override returns (bool) {... */\n    tag_53:\n      mload(0x40)\n      dup1\n      swap2\n      sub\n      swap1\n      return\n        /* \"contracts/L2/L2toL2CrossTradeProxy.sol\":868:1170  function setChainInfo(... */\n    tag_4:\n      callvalue\n      dup1\n      iszero\n      tag_55\n      jumpi\n      0x00\n      dup1\n      revert\n    tag_55:\n      pop\n      tag_46\n      tag_57\n      calldatasize\n      0x04\n      tag_58\n      jump\t// in\n    tag_57:\n      tag_59\n      jump\t// in\n        /* \"contracts/L2/L2toL2CrossTradeStorage.sol\":551:580  address public legacyERC20ETH */\n    tag_5:\n      callvalue\n      dup1\n      iszero\n      tag_60\n      jumpi\n      0x00\n      dup1\n      revert\n    tag_60:\n      pop\n      sload(0x06)\n      tag_61\n      swap1\n      sub(shl(0xa0, 0x01), 0x01)\n      and\n      dup2\n      jump\n    tag_61:\n      mload(0x40)\n      sub(shl(0xa0, 0x01), 0x01)\n        /* \"#utility.yul\":1172:1204   */\n      swap1\n      swap2\n      and\n        /* \"#utility.yul\":1154:1205   */\n      dup2\n      mstore\n        /* \"#utility.yul\":1142:1144   */\n      0x20\n        /* \"#utility.yul\":1127:1145   */\n      add\n        /* \"contracts/L2/L2toL2CrossTradeStorage.sol\":551:580  address public legacyERC20ETH */\n      tag_53\n        /* \"#utility.yul\":1008:1211   */\n      jump\n        /* \"contracts/common/AccessibleCommon.sol\":582:695  function removeAdmin(address account) public virtual onlyOwner {... */\n    tag_6:\n      callvalue\n      dup1\n      iszero\n      tag_65\n      jumpi\n      0x00\n      dup1\n      revert\n    tag_65:\n      pop\n      tag_46\n      tag_67\n      calldatasize\n      0x04\n      tag_68\n      jump\t// in\n    tag_67:\n      tag_69\n      jump\t// in\n        /* \"contracts/common/AccessRoleCommon.sol\":151:213  bytes32 public constant POLICY_ROLE = keccak256(\"POLICY_ROLE\") */\n    tag_7:\n      callvalue\n      dup1\n      iszero\n      tag_70\n      jumpi\n      0x00\n      dup1\n      revert\n    tag_70:\n      pop\n      tag_71\n        /* \"contracts/common/AccessRoleCommon.sol\":189:213  keccak256(\"POLICY_ROLE\") */\n      0xfb5864e8ff833c3cb2d2d08505e82ff02a43554c74a35d4f5a64e85261278311\n        /* \"contracts/common/AccessRoleCommon.sol\":151:213  bytes32 public constant POLICY_ROLE = keccak256(\"POLICY_ROLE\") */\n      dup2\n      jump\n    tag_71:\n      mload(0x40)\n        /* \"#utility.yul\":1553:1578   */\n      swap1\n      dup2\n      mstore\n        /* \"#utility.yul\":1541:1543   */\n      0x20\n        /* \"#utility.yul\":1526:1544   */\n      add\n        /* \"contracts/common/AccessRoleCommon.sol\":151:213  bytes32 public constant POLICY_ROLE = keccak256(\"POLICY_ROLE\") */\n      tag_53\n        /* \"#utility.yul\":1407:1584   */\n      jump\n        /* \"@openzeppelin/contracts/access/AccessControl.sol\":3810:3930  function getRoleAdmin(bytes32 role) public view virtual returns (bytes32) {... */\n    tag_8:\n      callvalue\n      dup1\n      iszero\n      tag_75\n      jumpi\n      0x00\n      dup1\n      revert\n    tag_75:\n      pop\n      tag_71\n      tag_77\n      calldatasize\n      0x04\n      tag_78\n      jump\t// in\n    tag_77:\n        /* \"@openzeppelin/contracts/access/AccessControl.sol\":3875:3882  bytes32 */\n      0x00\n        /* \"@openzeppelin/contracts/access/AccessControl.sol\":3901:3913  _roles[role] */\n      swap1\n      dup2\n      mstore\n        /* \"@openzeppelin/contracts/access/AccessControl.sol\":3901:3907  _roles */\n      0x04\n        /* \"@openzeppelin/contracts/access/AccessControl.sol\":3901:3913  _roles[role] */\n      0x20\n      mstore\n      0x40\n      swap1\n      keccak256\n        /* \"@openzeppelin/contracts/access/AccessControl.sol\":3901:3923  _roles[role].adminRole */\n      0x01\n      add\n      sload\n      swap1\n        /* \"@openzeppelin/contracts/access/AccessControl.sol\":3810:3930  function getRoleAdmin(bytes32 role) public view virtual returns (bytes32) {... */\n      jump\n        /* \"contracts/common/AccessibleCommon.sol\":1144:1265  function isAdmin(address account) public view virtual returns (bool) {... */\n    tag_9:\n      callvalue\n      dup1\n      iszero\n      tag_81\n      jumpi\n      0x00\n      dup1\n      revert\n    tag_81:\n      pop\n      tag_49\n      tag_83\n      calldatasize\n      0x04\n      tag_68\n      jump\t// in\n    tag_83:\n      tag_84\n      jump\t// in\n        /* \"@openzeppelin/contracts/access/AccessControl.sol\":4226:4362  function grantRole(bytes32 role, address account) public virtual onlyRole(getRoleAdmin(role)) {... */\n    tag_10:\n      callvalue\n      dup1\n      iszero\n      tag_86\n      jumpi\n      0x00\n      dup1\n      revert\n    tag_86:\n      pop\n      tag_46\n      tag_88\n      calldatasize\n      0x04\n      tag_89\n      jump\t// in\n    tag_88:\n      tag_90\n      jump\t// in\n        /* \"@openzeppelin/contracts/access/AccessControl.sol\":5328:5573  function renounceRole(bytes32 role, address callerConfirmation) public virtual {... */\n    tag_11:\n      callvalue\n      dup1\n      iszero\n      tag_91\n      jumpi\n      0x00\n      dup1\n      revert\n    tag_91:\n      pop\n      tag_46\n      tag_93\n      calldatasize\n      0x04\n      tag_89\n      jump\t// in\n    tag_93:\n      tag_94\n      jump\t// in\n        /* \"contracts/proxy/Proxy.sol\":916:1195  function upgradeTo(address impl) external onlyOwner {... */\n    tag_12:\n      callvalue\n      dup1\n      iszero\n      tag_95\n      jumpi\n      0x00\n      dup1\n      revert\n    tag_95:\n      pop\n      tag_46\n      tag_97\n      calldatasize\n      0x04\n      tag_68\n      jump\t// in\n    tag_97:\n      tag_98\n      jump\t// in\n        /* \"contracts/L2/L2toL2CrossTradeProxy.sol\":414:649  function initialize(... */\n    tag_13:\n      callvalue\n      dup1\n      iszero\n      tag_99\n      jumpi\n      0x00\n      dup1\n      revert\n    tag_99:\n      pop\n      tag_46\n      tag_101\n      calldatasize\n      0x04\n      tag_102\n      jump\t// in\n    tag_101:\n      tag_103\n      jump\t// in\n        /* \"contracts/proxy/Proxy.sol\":1705:2362  function setSelectorImplementations2(... */\n    tag_14:\n      callvalue\n      dup1\n      iszero\n      tag_104\n      jumpi\n      0x00\n      dup1\n      revert\n    tag_104:\n      pop\n      tag_46\n      tag_106\n      calldatasize\n      0x04\n      tag_107\n      jump\t// in\n    tag_106:\n      tag_108\n      jump\t// in\n        /* \"contracts/proxy/ProxyStorage.sol\":239:295  mapping(bytes4 => address) public selectorImplementation */\n    tag_15:\n      callvalue\n      dup1\n      iszero\n      tag_109\n      jumpi\n      0x00\n      dup1\n      revert\n    tag_109:\n      pop\n      tag_61\n      tag_111\n      calldatasize\n      0x04\n      tag_51\n      jump\t// in\n    tag_111:\n      mstore(0x20, 0x03)\n      0x00\n      swap1\n      dup2\n      mstore\n      0x40\n      swap1\n      keccak256\n      sload\n      sub(shl(0xa0, 0x01), 0x01)\n      and\n      dup2\n      jump\n        /* \"contracts/proxy/ProxyStorage.sol\":182:233  mapping(address => bool) public aliveImplementation */\n    tag_16:\n      callvalue\n      dup1\n      iszero\n      tag_114\n      jumpi\n      0x00\n      dup1\n      revert\n    tag_114:\n      pop\n      tag_49\n      tag_116\n      calldatasize\n      0x04\n      tag_68\n      jump\t// in\n    tag_116:\n      mstore(0x20, 0x02)\n      0x00\n      swap1\n      dup2\n      mstore\n      0x40\n      swap1\n      keccak256\n      sload\n      0xff\n      and\n      dup2\n      jump\n        /* \"contracts/proxy/Proxy.sol\":2494:2595  function implementation() external view returns (address) {... */\n    tag_17:\n      callvalue\n      dup1\n      iszero\n      tag_119\n      jumpi\n      0x00\n      dup1\n      revert\n    tag_119:\n      pop\n        /* \"contracts/proxy/Proxy.sol\":2543:2550  address */\n      0x00\n        /* \"contracts/proxy/Proxy.sol\":3744:3771  proxyImplementation[_index] */\n      dup1\n      mstore\n        /* \"contracts/proxy/Proxy.sol\":3744:3763  proxyImplementation */\n      0x01\n        /* \"contracts/proxy/Proxy.sol\":3744:3771  proxyImplementation[_index] */\n      0x20\n      mstore\n      0x00\n      dup1\n      mload\n      0x20\n      data_0eb5be412f275a18f6e4d622aee4ff40b21467c926224771b782d4c095d1444b\n      dup4\n      codecopy\n      dup2\n      mload\n      swap2\n      mstore\n      sload\n      sub(shl(0xa0, 0x01), 0x01)\n      and\n        /* \"contracts/proxy/Proxy.sol\":2494:2595  function implementation() external view returns (address) {... */\n      jump(tag_61)\n        /* \"contracts/proxy/Proxy.sol\":1487:1666  function setAliveImplementation2(address newImplementation, bool _alive)... */\n    tag_18:\n      callvalue\n      dup1\n      iszero\n      tag_123\n      jumpi\n      0x00\n      dup1\n      revert\n    tag_123:\n      pop\n      tag_46\n      tag_125\n      calldatasize\n      0x04\n      tag_126\n      jump\t// in\n    tag_125:\n      tag_127\n      jump\t// in\n        /* \"contracts/proxy/ProxyStorage.sol\":93:115  bool public pauseProxy */\n    tag_19:\n      callvalue\n      dup1\n      iszero\n      tag_128\n      jumpi\n      0x00\n      dup1\n      revert\n    tag_128:\n      pop\n      sload(0x00)\n      tag_49\n      swap1\n      0xff\n      and\n      dup2\n      jump\n        /* \"contracts/common/AccessibleCommon.sol\":401:508  function addAdmin(address account) public virtual onlyOwner {... */\n    tag_20:\n      callvalue\n      dup1\n      iszero\n      tag_132\n      jumpi\n      0x00\n      dup1\n      revert\n    tag_132:\n      pop\n      tag_46\n      tag_134\n      calldatasize\n      0x04\n      tag_68\n      jump\t// in\n    tag_134:\n      tag_135\n      jump\t// in\n        /* \"contracts/common/AccessibleCommon.sol\":771:1070  function transferAdmin(address newAdmin) external virtual onlyOwner {... */\n    tag_21:\n      callvalue\n      dup1\n      iszero\n      tag_136\n      jumpi\n      0x00\n      dup1\n      revert\n    tag_136:\n      pop\n      tag_46\n      tag_138\n      calldatasize\n      0x04\n      tag_68\n      jump\t// in\n    tag_138:\n      tag_139\n      jump\t// in\n        /* \"contracts/common/AccessRoleCommon.sol\":90:145  bytes32 public constant ADMIN_ROLE = keccak256(\"ADMIN\") */\n    tag_22:\n      callvalue\n      dup1\n      iszero\n      tag_140\n      jumpi\n      0x00\n      dup1\n      revert\n    tag_140:\n      pop\n      tag_71\n      0x00\n      dup1\n      mload\n      0x20\n      data_a29c3f0504a76c686875ea2f0fc314af702d3407223f14a34325f35a1858bd3b\n      dup4\n      codecopy\n      dup2\n      mload\n      swap2\n      mstore\n      dup2\n      jump\n        /* \"contracts/proxy/Proxy.sol\":719:810  function setProxyPause(bool _pause) external onlyOwner {... */\n    tag_23:\n      callvalue\n      dup1\n      iszero\n      tag_144\n      jumpi\n      0x00\n      dup1\n      revert\n    tag_144:\n      pop\n      tag_46\n      tag_146\n      calldatasize\n      0x04\n      tag_147\n      jump\t// in\n    tag_146:\n      tag_148\n      jump\t// in\n        /* \"contracts/proxy/Proxy.sol\":1235:1448  function setImplementation2(... */\n    tag_24:\n      callvalue\n      dup1\n      iszero\n      tag_149\n      jumpi\n      0x00\n      dup1\n      revert\n    tag_149:\n      pop\n      tag_46\n      tag_151\n      calldatasize\n      0x04\n      tag_152\n      jump\t// in\n    tag_151:\n      tag_153\n      jump\t// in\n        /* \"contracts/proxy/Proxy.sol\":2634:2764  function implementation2(uint256 _index) external override view returns (address) {... */\n    tag_25:\n      callvalue\n      dup1\n      iszero\n      tag_154\n      jumpi\n      0x00\n      dup1\n      revert\n    tag_154:\n      pop\n      tag_61\n      tag_156\n      calldatasize\n      0x04\n      tag_78\n      jump\t// in\n    tag_156:\n      tag_158\n      jump\t// in\n        /* \"contracts/proxy/Proxy.sol\":2804:3223  function getSelectorImplementation2(bytes4 _selector)... */\n    tag_26:\n      callvalue\n      dup1\n      iszero\n      tag_160\n      jumpi\n      0x00\n      dup1\n      revert\n    tag_160:\n      pop\n      tag_61\n      tag_162\n      calldatasize\n      0x04\n      tag_51\n      jump\t// in\n    tag_162:\n      tag_163\n      jump\t// in\n        /* \"@openzeppelin/contracts/access/AccessControl.sol\":2854:2990  function hasRole(bytes32 role, address account) public view virtual returns (bool) {... */\n    tag_27:\n      callvalue\n      dup1\n      iszero\n      tag_165\n      jumpi\n      0x00\n      dup1\n      revert\n    tag_165:\n      pop\n      tag_49\n      tag_167\n      calldatasize\n      0x04\n      tag_89\n      jump\t// in\n    tag_167:\n      tag_168\n      jump\t// in\n        /* \"contracts/L2/L2toL2CrossTradeStorage.sol\":587:611  uint256 public saleCount */\n    tag_28:\n      callvalue\n      dup1\n      iszero\n      tag_170\n      jumpi\n      0x00\n      dup1\n      revert\n    tag_170:\n      pop\n      tag_71\n      sload(0x07)\n      dup2\n      jump\n        /* \"@openzeppelin/contracts/access/AccessControl.sol\":2187:2236  bytes32 public constant DEFAULT_ADMIN_ROLE = 0x00 */\n    tag_29:\n      callvalue\n      dup1\n      iszero\n      tag_175\n      jumpi\n      0x00\n      dup1\n      revert\n    tag_175:\n      pop\n      tag_71\n        /* \"@openzeppelin/contracts/access/AccessControl.sol\":2232:2236  0x00 */\n      0x00\n        /* \"@openzeppelin/contracts/access/AccessControl.sol\":2187:2236  bytes32 public constant DEFAULT_ADMIN_ROLE = 0x00 */\n      dup2\n      jump\n        /* \"contracts/proxy/ProxyStorage.sol\":122:176  mapping(uint256 => address) public proxyImplementation */\n    tag_30:\n      callvalue\n      dup1\n      iszero\n      tag_179\n      jumpi\n      0x00\n      dup1\n      revert\n    tag_179:\n      pop\n      tag_61\n      tag_181\n      calldatasize\n      0x04\n      tag_78\n      jump\t// in\n    tag_181:\n      mstore(0x20, 0x01)\n      0x00\n      swap1\n      dup2\n      mstore\n      0x40\n      swap1\n      keccak256\n      sload\n      sub(shl(0xa0, 0x01), 0x01)\n      and\n      dup2\n      jump\n        /* \"@openzeppelin/contracts/access/AccessControl.sol\":4642:4780  function revokeRole(bytes32 role, address account) public virtual onlyRole(getRoleAdmin(role)) {... */\n    tag_31:\n      callvalue\n      dup1\n      iszero\n      tag_184\n      jumpi\n      0x00\n      dup1\n      revert\n    tag_184:\n      pop\n      tag_46\n      tag_186\n      calldatasize\n      0x04\n      tag_89\n      jump\t// in\n    tag_186:\n      tag_187\n      jump\t// in\n        /* \"contracts/L2/L2toL2CrossTradeStorage.sol\":867:915  mapping(uint256 => ChainIdData) public chainData */\n    tag_32:\n      callvalue\n      dup1\n      iszero\n      tag_188\n      jumpi\n      0x00\n      dup1\n      revert\n    tag_188:\n      pop\n      tag_189\n      tag_190\n      calldatasize\n      0x04\n      tag_78\n      jump\t// in\n    tag_190:\n      mstore(0x20, 0x0a)\n      0x00\n      swap1\n      dup2\n      mstore\n      0x40\n      swap1\n      keccak256\n      dup1\n      sload\n      0x01\n      swap1\n      swap2\n      add\n      sload\n      sub(shl(0xa0, 0x01), 0x01)\n      swap2\n      dup3\n      and\n      swap2\n      and\n      dup3\n      jump\n    tag_189:\n      0x40\n      dup1\n      mload\n      sub(shl(0xa0, 0x01), 0x01)\n        /* \"#utility.yul\":4530:4545   */\n      swap4\n      dup5\n      and\n        /* \"#utility.yul\":4512:4546   */\n      dup2\n      mstore\n        /* \"#utility.yul\":4582:4597   */\n      swap3\n      swap1\n      swap2\n      and\n        /* \"#utility.yul\":4577:4579   */\n      0x20\n        /* \"#utility.yul\":4562:4580   */\n      dup4\n      add\n        /* \"#utility.yul\":4555:4598   */\n      mstore\n        /* \"#utility.yul\":4447:4465   */\n      add\n        /* \"contracts/L2/L2toL2CrossTradeStorage.sol\":867:915  mapping(uint256 => ChainIdData) public chainData */\n      tag_53\n        /* \"#utility.yul\":4300:4604   */\n      jump\n        /* \"contracts/L2/L2toL2CrossTradeStorage.sol\":510:545  address public crossDomainMessenger */\n    tag_33:\n      callvalue\n      dup1\n      iszero\n      tag_194\n      jumpi\n      0x00\n      dup1\n      revert\n    tag_194:\n      pop\n      sload(0x05)\n      tag_61\n      swap1\n      sub(shl(0xa0, 0x01), 0x01)\n      and\n      dup2\n      jump\n        /* \"contracts/L2/L2toL2CrossTradeStorage.sol\":647:694  mapping(uint256 => RequestData) public dealData */\n    tag_34:\n      callvalue\n      dup1\n      iszero\n      tag_198\n      jumpi\n      0x00\n      dup1\n      revert\n    tag_198:\n      pop\n      tag_199\n      tag_200\n      calldatasize\n      0x04\n      tag_78\n      jump\t// in\n    tag_200:\n      0x08\n      0x20\n      dup2\n      swap1\n      mstore\n      0x00\n      swap2\n      dup3\n      mstore\n      0x40\n      swap1\n      swap2\n      keccak256\n      dup1\n      sload\n      0x01\n      dup3\n      add\n      sload\n      0x02\n      dup4\n      add\n      sload\n      0x03\n      dup5\n      add\n      sload\n      0x04\n      dup6\n      add\n      sload\n      0x05\n      dup7\n      add\n      sload\n      0x06\n      dup8\n      add\n      sload\n      0x07\n      dup9\n      add\n      sload\n      swap9\n      dup9\n      add\n      sload\n      0x09\n      swap1\n      swap9\n      add\n      sload\n      sub(shl(0xa0, 0x01), 0x01)\n      swap8\n      dup9\n      and\n      swap10\n      swap7\n      dup9\n      and\n      swap9\n      swap6\n      dup9\n      and\n      swap8\n      swap5\n      dup6\n      and\n      swap7\n      swap4\n      swap1\n      swap5\n      and\n      swap5\n      swap2\n      swap4\n      swap1\n      swap3\n      swap2\n      swap1\n      dup11\n      jump\n    tag_199:\n      0x40\n      dup1\n      mload\n      sub(shl(0xa0, 0x01), 0x01)\n        /* \"#utility.yul\":5064:5079   */\n      swap12\n      dup13\n      and\n        /* \"#utility.yul\":5046:5080   */\n      dup2\n      mstore\n        /* \"#utility.yul\":5116:5131   */\n      swap10\n      dup12\n      and\n        /* \"#utility.yul\":5111:5113   */\n      0x20\n        /* \"#utility.yul\":5096:5114   */\n      dup12\n      add\n        /* \"#utility.yul\":5089:5132   */\n      mstore\n        /* \"#utility.yul\":5168:5183   */\n      swap8\n      dup11\n      and\n        /* \"#utility.yul\":5148:5166   */\n      swap8\n      dup10\n      add\n        /* \"#utility.yul\":5141:5184   */\n      swap8\n      swap1\n      swap8\n      mstore\n        /* \"#utility.yul\":5220:5235   */\n      swap5\n      dup9\n      and\n        /* \"#utility.yul\":5215:5217   */\n      0x60\n        /* \"#utility.yul\":5200:5218   */\n      dup9\n      add\n        /* \"#utility.yul\":5193:5236   */\n      mstore\n        /* \"#utility.yul\":5273:5288   */\n      swap7\n      swap1\n      swap3\n      and\n        /* \"#utility.yul\":5267:5270   */\n      0x80\n        /* \"#utility.yul\":5252:5271   */\n      dup7\n      add\n        /* \"#utility.yul\":5245:5289   */\n      mstore\n        /* \"#utility.yul\":5026:5029   */\n      0xa0\n        /* \"#utility.yul\":5305:5324   */\n      dup6\n      add\n        /* \"#utility.yul\":5298:5333   */\n      mstore\n        /* \"#utility.yul\":5364:5367   */\n      0xc0\n        /* \"#utility.yul\":5349:5368   */\n      dup5\n      add\n        /* \"#utility.yul\":5342:5377   */\n      mstore\n        /* \"#utility.yul\":5408:5411   */\n      0xe0\n        /* \"#utility.yul\":5393:5412   */\n      dup4\n      add\n        /* \"#utility.yul\":5386:5421   */\n      swap4\n      swap1\n      swap4\n      mstore\n        /* \"#utility.yul\":5452:5455   */\n      0x0100\n        /* \"#utility.yul\":5437:5456   */\n      dup3\n      add\n        /* \"#utility.yul\":5430:5465   */\n      swap3\n      swap1\n      swap3\n      mstore\n        /* \"#utility.yul\":5496:5499   */\n      0x0120\n        /* \"#utility.yul\":5481:5500   */\n      dup2\n      add\n        /* \"#utility.yul\":5474:5509   */\n      swap2\n      swap1\n      swap2\n      mstore\n        /* \"#utility.yul\":4995:4998   */\n      0x0140\n        /* \"#utility.yul\":4980:4999   */\n      add\n        /* \"contracts/L2/L2toL2CrossTradeStorage.sol\":647:694  mapping(uint256 => RequestData) public dealData */\n      tag_53\n        /* \"#utility.yul\":4609:5515   */\n      jump\n        /* \"contracts/proxy/Proxy.sol\":3852:4919  function _fallback() internal {... */\n    tag_47:\n        /* \"contracts/proxy/Proxy.sol\":3892:3905  address _impl */\n      0x00\n        /* \"contracts/proxy/Proxy.sol\":3908:3943  getSelectorImplementation2(msg.sig) */\n      tag_205\n        /* \"contracts/proxy/Proxy.sol\":3935:3942  msg.sig */\n      and(not(sub(shl(0xe0, 0x01), 0x01)), calldataload(0x00))\n        /* \"contracts/proxy/Proxy.sol\":3908:3934  getSelectorImplementation2 */\n      tag_163\n        /* \"contracts/proxy/Proxy.sol\":3908:3943  getSelectorImplementation2(msg.sig) */\n      jump\t// in\n    tag_205:\n        /* \"contracts/proxy/Proxy.sol\":3892:3943  address _impl = getSelectorImplementation2(msg.sig) */\n      swap1\n      pop\n      sub(shl(0xa0, 0x01), 0x01)\n        /* \"contracts/proxy/Proxy.sol\":3975:3994  _impl != address(0) */\n      dup2\n      and\n      iszero\n      dup1\n      iszero\n      swap1\n        /* \"contracts/proxy/Proxy.sol\":3975:4009  _impl != address(0) && !pauseProxy */\n      tag_206\n      jumpi\n      pop\n        /* \"contracts/proxy/Proxy.sol\":3999:4009  pauseProxy */\n      and(0xff, sload(0x00))\n        /* \"contracts/proxy/Proxy.sol\":3998:4009  !pauseProxy */\n      iszero\n        /* \"contracts/proxy/Proxy.sol\":3975:4009  _impl != address(0) && !pauseProxy */\n    tag_206:\n        /* \"contracts/proxy/Proxy.sol\":3954:4064  require(... */\n      tag_207\n      jumpi\n      mload(0x40)\n      shl(0xe5, 0x461bcd)\n      dup2\n      mstore\n        /* \"#utility.yul\":5722:5724   */\n      0x20\n        /* \"contracts/proxy/Proxy.sol\":3954:4064  require(... */\n      0x04\n      dup3\n      add\n        /* \"#utility.yul\":5704:5725   */\n      mstore\n        /* \"#utility.yul\":5761:5763   */\n      0x1d\n        /* \"#utility.yul\":5741:5759   */\n      0x24\n      dup3\n      add\n        /* \"#utility.yul\":5734:5764   */\n      mstore\n        /* \"#utility.yul\":5800:5831   */\n      0x50726f78793a20696d706c204f522070726f78792069732066616c7365000000\n        /* \"#utility.yul\":5780:5798   */\n      0x44\n      dup3\n      add\n        /* \"#utility.yul\":5773:5832   */\n      mstore\n        /* \"#utility.yul\":5849:5867   */\n      0x64\n      add\n        /* \"contracts/proxy/Proxy.sol\":3954:4064  require(... */\n    tag_208:\n      mload(0x40)\n      dup1\n      swap2\n      sub\n      swap1\n      revert\n    tag_207:\n        /* \"contracts/proxy/Proxy.sol\":4343:4357  calldatasize() */\n      calldatasize\n        /* \"contracts/proxy/Proxy.sol\":4340:4341  0 */\n      0x00\n        /* \"contracts/proxy/Proxy.sol\":4337:4338  0 */\n      dup1\n        /* \"contracts/proxy/Proxy.sol\":4324:4358  calldatacopy(0, 0, calldatasize()) */\n      calldatacopy\n        /* \"contracts/proxy/Proxy.sol\":4548:4549  0 */\n      0x00\n        /* \"contracts/proxy/Proxy.sol\":4545:4546  0 */\n      dup1\n        /* \"contracts/proxy/Proxy.sol\":4529:4543  calldatasize() */\n      calldatasize\n        /* \"contracts/proxy/Proxy.sol\":4526:4527  0 */\n      0x00\n        /* \"contracts/proxy/Proxy.sol\":4519:4524  _impl */\n      dup5\n        /* \"contracts/proxy/Proxy.sol\":4512:4517  gas() */\n      gas\n        /* \"contracts/proxy/Proxy.sol\":4499:4550  delegatecall(gas(), _impl, 0, calldatasize(), 0, 0) */\n      delegatecall\n        /* \"contracts/proxy/Proxy.sol\":4624:4640  returndatasize() */\n      returndatasize\n        /* \"contracts/proxy/Proxy.sol\":4621:4622  0 */\n      0x00\n        /* \"contracts/proxy/Proxy.sol\":4618:4619  0 */\n      dup1\n        /* \"contracts/proxy/Proxy.sol\":4603:4641  returndatacopy(0, 0, returndatasize()) */\n      returndatacopy\n        /* \"contracts/proxy/Proxy.sol\":4662:4668  result */\n      dup1\n        /* \"contracts/proxy/Proxy.sol\":4737:4811  case 0 {... */\n      dup1\n      iszero\n      tag_211\n      jumpi\n        /* \"contracts/proxy/Proxy.sol\":4868:4884  returndatasize() */\n      returndatasize\n        /* \"contracts/proxy/Proxy.sol\":4865:4866  0 */\n      0x00\n        /* \"contracts/proxy/Proxy.sol\":4858:4885  return(0, returndatasize()) */\n      return\n        /* \"contracts/proxy/Proxy.sol\":4737:4811  case 0 {... */\n    tag_211:\n        /* \"contracts/proxy/Proxy.sol\":4776:4792  returndatasize() */\n      returndatasize\n        /* \"contracts/proxy/Proxy.sol\":4773:4774  0 */\n      0x00\n        /* \"contracts/proxy/Proxy.sol\":4766:4793  revert(0, returndatasize()) */\n      revert\n        /* \"contracts/proxy/Proxy.sol\":4655:4903  switch result... */\n    tag_210:\n      pop\n      pop\n        /* \"contracts/proxy/Proxy.sol\":4084:4913  {... */\n      pop\n        /* \"contracts/proxy/Proxy.sol\":3852:4919  function _fallback() internal {... */\n      jump\t// out\n        /* \"@openzeppelin/contracts/access/AccessControl.sol\":2565:2767  function supportsInterface(bytes4 interfaceId) public view virtual override returns (bool) {... */\n    tag_52:\n        /* \"@openzeppelin/contracts/access/AccessControl.sol\":2650:2654  bool */\n      0x00\n      not(sub(shl(0xe0, 0x01), 0x01))\n        /* \"@openzeppelin/contracts/access/AccessControl.sol\":2673:2720  interfaceId == type(IAccessControl).interfaceId */\n      dup3\n      and\n      shl(0xe0, 0x7965db0b)\n      eq\n      dup1\n        /* \"@openzeppelin/contracts/access/AccessControl.sol\":2673:2760  interfaceId == type(IAccessControl).interfaceId || super.supportsInterface(interfaceId) */\n      tag_214\n      jumpi\n      pop\n      shl(0xe0, 0x01ffc9a7)\n      not(sub(shl(0xe0, 0x01), 0x01))\n        /* \"@openzeppelin/contracts/utils/introspection/ERC165.sol\":861:901  interfaceId == type(IERC165).interfaceId */\n      dup4\n      and\n      eq\n        /* \"@openzeppelin/contracts/access/AccessControl.sol\":2724:2760  super.supportsInterface(interfaceId) */\n    tag_214:\n        /* \"@openzeppelin/contracts/access/AccessControl.sol\":2666:2760  return interfaceId == type(IAccessControl).interfaceId || super.supportsInterface(interfaceId) */\n      swap3\n        /* \"@openzeppelin/contracts/access/AccessControl.sol\":2565:2767  function supportsInterface(bytes4 interfaceId) public view virtual override returns (bool) {... */\n      swap2\n      pop\n      pop\n      jump\t// out\n        /* \"contracts/L2/L2toL2CrossTradeProxy.sol\":868:1170  function setChainInfo(... */\n    tag_59:\n        /* \"contracts/common/AccessibleCommon.sol\":257:276  isAdmin(msg.sender) */\n      tag_217\n        /* \"contracts/common/AccessibleCommon.sol\":265:275  msg.sender */\n      caller\n        /* \"contracts/common/AccessibleCommon.sol\":257:264  isAdmin */\n      tag_84\n        /* \"contracts/common/AccessibleCommon.sol\":257:276  isAdmin(msg.sender) */\n      jump\t// in\n    tag_217:\n        /* \"contracts/common/AccessibleCommon.sol\":249:315  require(isAdmin(msg.sender), \"Accessible: Caller is not an admin\") */\n      tag_218\n      jumpi\n      mload(0x40)\n      shl(0xe5, 0x461bcd)\n      dup2\n      mstore\n      0x04\n      add\n      tag_208\n      swap1\n      tag_220\n      jump\t// in\n    tag_218:\n        /* \"contracts/L2/L2toL2CrossTradeProxy.sol\":1056:1163  ChainIdData({... */\n      0x40\n      dup1\n      mload\n      dup1\n      dup3\n      add\n      dup3\n      mstore\n      sub(shl(0xa0, 0x01), 0x01)\n      swap5\n      dup6\n      and\n      dup2\n      mstore\n      swap3\n      dup5\n      and\n      0x20\n      dup1\n      dup6\n      add\n      swap2\n      dup3\n      mstore\n      0x00\n        /* \"contracts/L2/L2toL2CrossTradeProxy.sol\":1034:1053  chainData[_chainId] */\n      swap4\n      dup5\n      mstore\n        /* \"contracts/L2/L2toL2CrossTradeProxy.sol\":1034:1043  chainData */\n      0x0a\n        /* \"contracts/L2/L2toL2CrossTradeProxy.sol\":1034:1053  chainData[_chainId] */\n      swap1\n      mstore\n      swap2\n      keccak256\n        /* \"contracts/L2/L2toL2CrossTradeProxy.sol\":1034:1163  chainData[_chainId] = ChainIdData({... */\n      swap2\n      mload\n      dup3\n      sload\n      swap1\n      dup5\n      and\n      not(sub(shl(0xa0, 0x01), 0x01))\n      swap2\n      dup3\n      and\n      or\n      dup4\n      sstore\n      swap1\n      mload\n      0x01\n      swap1\n      swap3\n      add\n      dup1\n      sload\n      swap3\n      swap1\n      swap4\n      and\n      swap2\n      and\n      or\n      swap1\n      sstore\n        /* \"contracts/L2/L2toL2CrossTradeProxy.sol\":868:1170  function setChainInfo(... */\n      jump\t// out\n        /* \"contracts/common/AccessibleCommon.sol\":582:695  function removeAdmin(address account) public virtual onlyOwner {... */\n    tag_69:\n        /* \"contracts/common/AccessibleCommon.sol\":257:276  isAdmin(msg.sender) */\n      tag_223\n        /* \"contracts/common/AccessibleCommon.sol\":265:275  msg.sender */\n      caller\n        /* \"contracts/common/AccessibleCommon.sol\":257:264  isAdmin */\n      tag_84\n        /* \"contracts/common/AccessibleCommon.sol\":257:276  isAdmin(msg.sender) */\n      jump\t// in\n    tag_223:\n        /* \"contracts/common/AccessibleCommon.sol\":249:315  require(isAdmin(msg.sender), \"Accessible: Caller is not an admin\") */\n      tag_224\n      jumpi\n      mload(0x40)\n      shl(0xe5, 0x461bcd)\n      dup2\n      mstore\n      0x04\n      add\n      tag_208\n      swap1\n      tag_220\n      jump\t// in\n    tag_224:\n        /* \"contracts/common/AccessibleCommon.sol\":655:688  renounceRole(ADMIN_ROLE, account) */\n      tag_227\n      0x00\n      dup1\n      mload\n      0x20\n      data_a29c3f0504a76c686875ea2f0fc314af702d3407223f14a34325f35a1858bd3b\n      dup4\n      codecopy\n      dup2\n      mload\n      swap2\n      mstore\n        /* \"contracts/common/AccessibleCommon.sol\":680:687  account */\n      dup3\n        /* \"contracts/common/AccessibleCommon.sol\":655:667  renounceRole */\n      tag_94\n        /* \"contracts/common/AccessibleCommon.sol\":655:688  renounceRole(ADMIN_ROLE, account) */\n      jump\t// in\n    tag_227:\n        /* \"contracts/common/AccessibleCommon.sol\":582:695  function removeAdmin(address account) public virtual onlyOwner {... */\n      pop\n      jump\t// out\n        /* \"contracts/common/AccessibleCommon.sol\":1144:1265  function isAdmin(address account) public view virtual returns (bool) {... */\n    tag_84:\n        /* \"contracts/common/AccessibleCommon.sol\":1207:1211  bool */\n      0x00\n        /* \"contracts/common/AccessibleCommon.sol\":1230:1258  hasRole(ADMIN_ROLE, account) */\n      tag_214\n      0x00\n      dup1\n      mload\n      0x20\n      data_a29c3f0504a76c686875ea2f0fc314af702d3407223f14a34325f35a1858bd3b\n      dup4\n      codecopy\n      dup2\n      mload\n      swap2\n      mstore\n        /* \"contracts/common/AccessibleCommon.sol\":1250:1257  account */\n      dup4\n        /* \"contracts/common/AccessibleCommon.sol\":1230:1237  hasRole */\n      tag_168\n        /* \"contracts/common/AccessibleCommon.sol\":1230:1258  hasRole(ADMIN_ROLE, account) */\n      jump\t// in\n        /* \"@openzeppelin/contracts/access/AccessControl.sol\":4226:4362  function grantRole(bytes32 role, address account) public virtual onlyRole(getRoleAdmin(role)) {... */\n    tag_90:\n        /* \"@openzeppelin/contracts/access/AccessControl.sol\":3875:3882  bytes32 */\n      0x00\n        /* \"@openzeppelin/contracts/access/AccessControl.sol\":3901:3913  _roles[role] */\n      dup3\n      dup2\n      mstore\n        /* \"@openzeppelin/contracts/access/AccessControl.sol\":3901:3907  _roles */\n      0x04\n        /* \"@openzeppelin/contracts/access/AccessControl.sol\":3901:3913  _roles[role] */\n      0x20\n      mstore\n      0x40\n      swap1\n      keccak256\n        /* \"@openzeppelin/contracts/access/AccessControl.sol\":3901:3923  _roles[role].adminRole */\n      0x01\n      add\n      sload\n        /* \"@openzeppelin/contracts/access/AccessControl.sol\":2464:2480  _checkRole(role) */\n      tag_233\n        /* \"@openzeppelin/contracts/access/AccessControl.sol\":2475:2479  role */\n      dup2\n        /* \"@openzeppelin/contracts/access/AccessControl.sol\":2464:2474  _checkRole */\n      tag_234\n        /* \"@openzeppelin/contracts/access/AccessControl.sol\":2464:2480  _checkRole(role) */\n      jump\t// in\n    tag_233:\n        /* \"@openzeppelin/contracts/access/AccessControl.sol\":4330:4355  _grantRole(role, account) */\n      tag_236\n        /* \"@openzeppelin/contracts/access/AccessControl.sol\":4341:4345  role */\n      dup4\n        /* \"@openzeppelin/contracts/access/AccessControl.sol\":4347:4354  account */\n      dup4\n        /* \"@openzeppelin/contracts/access/AccessControl.sol\":4330:4340  _grantRole */\n      tag_237\n        /* \"@openzeppelin/contracts/access/AccessControl.sol\":4330:4355  _grantRole(role, account) */\n      jump\t// in\n    tag_236:\n      pop\n        /* \"@openzeppelin/contracts/access/AccessControl.sol\":4226:4362  function grantRole(bytes32 role, address account) public virtual onlyRole(getRoleAdmin(role)) {... */\n      pop\n      pop\n      pop\n      jump\t// out\n        /* \"@openzeppelin/contracts/access/AccessControl.sol\":5328:5573  function renounceRole(bytes32 role, address callerConfirmation) public virtual {... */\n    tag_94:\n      sub(shl(0xa0, 0x01), 0x01)\n        /* \"@openzeppelin/contracts/access/AccessControl.sol\":5421:5455  callerConfirmation != _msgSender() */\n      dup2\n      and\n        /* \"@openzeppelin/contracts/utils/Context.sol\":735:745  msg.sender */\n      caller\n        /* \"@openzeppelin/contracts/access/AccessControl.sol\":5421:5455  callerConfirmation != _msgSender() */\n      eq\n        /* \"@openzeppelin/contracts/access/AccessControl.sol\":5417:5519  if (callerConfirmation != _msgSender()) {... */\n      tag_241\n      jumpi\n        /* \"@openzeppelin/contracts/access/AccessControl.sol\":5478:5508  AccessControlBadConfirmation() */\n      mload(0x40)\n      shl(0xe1, 0x334bd919)\n      dup2\n      mstore\n      0x04\n      add\n      mload(0x40)\n      dup1\n      swap2\n      sub\n      swap1\n      revert\n        /* \"@openzeppelin/contracts/access/AccessControl.sol\":5417:5519  if (callerConfirmation != _msgSender()) {... */\n    tag_241:\n        /* \"@openzeppelin/contracts/access/AccessControl.sol\":5529:5566  _revokeRole(role, callerConfirmation) */\n      tag_210\n        /* \"@openzeppelin/contracts/access/AccessControl.sol\":5541:5545  role */\n      dup3\n        /* \"@openzeppelin/contracts/access/AccessControl.sol\":5547:5565  callerConfirmation */\n      dup3\n        /* \"@openzeppelin/contracts/access/AccessControl.sol\":5529:5540  _revokeRole */\n      tag_243\n        /* \"@openzeppelin/contracts/access/AccessControl.sol\":5529:5566  _revokeRole(role, callerConfirmation) */\n      jump\t// in\n        /* \"contracts/proxy/Proxy.sol\":916:1195  function upgradeTo(address impl) external onlyOwner {... */\n    tag_98:\n        /* \"contracts/common/AccessibleCommon.sol\":257:276  isAdmin(msg.sender) */\n      tag_245\n        /* \"contracts/common/AccessibleCommon.sol\":265:275  msg.sender */\n      caller\n        /* \"contracts/common/AccessibleCommon.sol\":257:264  isAdmin */\n      tag_84\n        /* \"contracts/common/AccessibleCommon.sol\":257:276  isAdmin(msg.sender) */\n      jump\t// in\n    tag_245:\n        /* \"contracts/common/AccessibleCommon.sol\":249:315  require(isAdmin(msg.sender), \"Accessible: Caller is not an admin\") */\n      tag_246\n      jumpi\n      mload(0x40)\n      shl(0xe5, 0x461bcd)\n      dup2\n      mstore\n      0x04\n      add\n      tag_208\n      swap1\n      tag_220\n      jump\t// in\n    tag_246:\n      sub(shl(0xa0, 0x01), 0x01)\n        /* \"contracts/proxy/Proxy.sol\":986:1004  impl != address(0) */\n      dup2\n      and\n        /* \"contracts/proxy/Proxy.sol\":978:1022  require(impl != address(0), \"input is zero\") */\n      tag_249\n      jumpi\n      mload(0x40)\n      shl(0xe5, 0x461bcd)\n      dup2\n      mstore\n        /* \"#utility.yul\":6483:6485   */\n      0x20\n        /* \"contracts/proxy/Proxy.sol\":978:1022  require(impl != address(0), \"input is zero\") */\n      0x04\n      dup3\n      add\n        /* \"#utility.yul\":6465:6486   */\n      mstore\n        /* \"#utility.yul\":6522:6524   */\n      0x0d\n        /* \"#utility.yul\":6502:6520   */\n      0x24\n      dup3\n      add\n        /* \"#utility.yul\":6495:6525   */\n      mstore\n      shl(0x98, 0x696e707574206973207a65726f)\n        /* \"#utility.yul\":6541:6559   */\n      0x44\n      dup3\n      add\n        /* \"#utility.yul\":6534:6577   */\n      mstore\n        /* \"#utility.yul\":6594:6612   */\n      0x64\n      add\n        /* \"contracts/proxy/Proxy.sol\":978:1022  require(impl != address(0), \"input is zero\") */\n      tag_208\n        /* \"#utility.yul\":6281:6618   */\n      jump\n        /* \"contracts/proxy/Proxy.sol\":978:1022  require(impl != address(0), \"input is zero\") */\n    tag_249:\n        /* \"contracts/proxy/Proxy.sol\":1070:1071  0 */\n      0x00\n        /* \"contracts/proxy/Proxy.sol\":3744:3771  proxyImplementation[_index] */\n      dup1\n      mstore\n        /* \"contracts/proxy/Proxy.sol\":3744:3763  proxyImplementation */\n      0x01\n        /* \"contracts/proxy/Proxy.sol\":3744:3771  proxyImplementation[_index] */\n      0x20\n      mstore\n      0x00\n      dup1\n      mload\n      0x20\n      data_0eb5be412f275a18f6e4d622aee4ff40b21467c926224771b782d4c095d1444b\n      dup4\n      codecopy\n      dup2\n      mload\n      swap2\n      mstore\n      sload\n      sub(shl(0xa0, 0x01), 0x01)\n        /* \"contracts/proxy/Proxy.sol\":1053:1080  _implementation2(0) != impl */\n      dup3\n      dup2\n      and\n        /* \"contracts/proxy/Proxy.sol\":3744:3771  proxyImplementation[_index] */\n      swap2\n      and\n        /* \"contracts/proxy/Proxy.sol\":1053:1080  _implementation2(0) != impl */\n      sub\n        /* \"contracts/proxy/Proxy.sol\":1032:1115  require(... */\n      tag_254\n      jumpi\n      mload(0x40)\n      shl(0xe5, 0x461bcd)\n      dup2\n      mstore\n        /* \"#utility.yul\":6825:6827   */\n      0x20\n        /* \"contracts/proxy/Proxy.sol\":1032:1115  require(... */\n      0x04\n      dup3\n      add\n        /* \"#utility.yul\":6807:6828   */\n      mstore\n        /* \"#utility.yul\":6864:6865   */\n      0x09\n        /* \"#utility.yul\":6844:6862   */\n      0x24\n      dup3\n      add\n        /* \"#utility.yul\":6837:6866   */\n      mstore\n      shl(0xb9, 0x39b0b6b29030b23239)\n        /* \"#utility.yul\":6882:6900   */\n      0x44\n      dup3\n      add\n        /* \"#utility.yul\":6875:6914   */\n      mstore\n        /* \"#utility.yul\":6931:6949   */\n      0x64\n      add\n        /* \"contracts/proxy/Proxy.sol\":1032:1115  require(... */\n      tag_208\n        /* \"#utility.yul\":6623:6955   */\n      jump\n        /* \"contracts/proxy/Proxy.sol\":1032:1115  require(... */\n    tag_254:\n        /* \"contracts/proxy/Proxy.sol\":1125:1159  _setImplementation2(impl, 0, true) */\n      tag_257\n        /* \"contracts/proxy/Proxy.sol\":1145:1149  impl */\n      dup2\n        /* \"contracts/proxy/Proxy.sol\":1151:1152  0 */\n      0x00\n        /* \"contracts/proxy/Proxy.sol\":1154:1158  true */\n      0x01\n        /* \"contracts/proxy/Proxy.sol\":1125:1144  _setImplementation2 */\n      tag_258\n        /* \"contracts/proxy/Proxy.sol\":1125:1159  _setImplementation2(impl, 0, true) */\n      jump\t// in\n    tag_257:\n        /* \"contracts/proxy/Proxy.sol\":1174:1188  Upgraded(impl) */\n      mload(0x40)\n      sub(shl(0xa0, 0x01), 0x01)\n      dup3\n      and\n      swap1\n      0xbc7cd75a20ee27fd9adebab32041f755214dbc6bffa90cc0225b39da2e5c2d3b\n      swap1\n      0x00\n      swap1\n      log2\n        /* \"contracts/proxy/Proxy.sol\":916:1195  function upgradeTo(address impl) external onlyOwner {... */\n      pop\n      jump\t// out\n        /* \"contracts/L2/L2toL2CrossTradeProxy.sol\":414:649  function initialize(... */\n    tag_103:\n        /* \"contracts/common/AccessibleCommon.sol\":257:276  isAdmin(msg.sender) */\n      tag_260\n        /* \"contracts/common/AccessibleCommon.sol\":265:275  msg.sender */\n      caller\n        /* \"contracts/common/AccessibleCommon.sol\":257:264  isAdmin */\n      tag_84\n        /* \"contracts/common/AccessibleCommon.sol\":257:276  isAdmin(msg.sender) */\n      jump\t// in\n    tag_260:\n        /* \"contracts/common/AccessibleCommon.sol\":249:315  require(isAdmin(msg.sender), \"Accessible: Caller is not an admin\") */\n      tag_261\n      jumpi\n      mload(0x40)\n      shl(0xe5, 0x461bcd)\n      dup2\n      mstore\n      0x04\n      add\n      tag_208\n      swap1\n      tag_220\n      jump\t// in\n    tag_261:\n        /* \"contracts/L2/L2toL2CrossTradeProxy.sol\":559:579  crossDomainMessenger */\n      0x05\n        /* \"contracts/L2/L2toL2CrossTradeProxy.sol\":559:603  crossDomainMessenger = _crossDomainMessenger */\n      dup1\n      sload\n      sub(shl(0xa0, 0x01), 0x01)\n      swap4\n      dup5\n      and\n      not(sub(shl(0xa0, 0x01), 0x01))\n      swap2\n      dup3\n      and\n      or\n      swap1\n      swap2\n      sstore\n        /* \"contracts/L2/L2toL2CrossTradeProxy.sol\":613:627  legacyERC20ETH */\n      0x06\n        /* \"contracts/L2/L2toL2CrossTradeProxy.sol\":613:642  legacyERC20ETH = _legacyERC20 */\n      dup1\n      sload\n      swap3\n      swap1\n      swap4\n      and\n      swap2\n      and\n      or\n      swap1\n      sstore\n        /* \"contracts/L2/L2toL2CrossTradeProxy.sol\":414:649  function initialize(... */\n      jump\t// out\n        /* \"contracts/proxy/Proxy.sol\":1705:2362  function setSelectorImplementations2(... */\n    tag_108:\n        /* \"contracts/common/AccessibleCommon.sol\":257:276  isAdmin(msg.sender) */\n      tag_265\n        /* \"contracts/common/AccessibleCommon.sol\":265:275  msg.sender */\n      caller\n        /* \"contracts/common/AccessibleCommon.sol\":257:264  isAdmin */\n      tag_84\n        /* \"contracts/common/AccessibleCommon.sol\":257:276  isAdmin(msg.sender) */\n      jump\t// in\n    tag_265:\n        /* \"contracts/common/AccessibleCommon.sol\":249:315  require(isAdmin(msg.sender), \"Accessible: Caller is not an admin\") */\n      tag_266\n      jumpi\n      mload(0x40)\n      shl(0xe5, 0x461bcd)\n      dup2\n      mstore\n      0x04\n      add\n      tag_208\n      swap1\n      tag_220\n      jump\t// in\n    tag_266:\n        /* \"contracts/proxy/Proxy.sol\":1865:1886  _selectors.length > 0 */\n      dup2\n        /* \"contracts/proxy/Proxy.sol\":1844:1944  require(... */\n      tag_269\n      jumpi\n      mload(0x40)\n      shl(0xe5, 0x461bcd)\n      dup2\n      mstore\n        /* \"#utility.yul\":7162:7164   */\n      0x20\n        /* \"contracts/proxy/Proxy.sol\":1844:1944  require(... */\n      0x04\n      dup3\n      add\n        /* \"#utility.yul\":7144:7165   */\n      dup2\n      swap1\n      mstore\n        /* \"#utility.yul\":7181:7199   */\n      0x24\n      dup3\n      add\n        /* \"#utility.yul\":7174:7204   */\n      mstore\n        /* \"#utility.yul\":7240:7274   */\n      0x50726f78793a205f73656c6563746f727327732073697a65206973207a65726f\n        /* \"#utility.yul\":7220:7238   */\n      0x44\n      dup3\n      add\n        /* \"#utility.yul\":7213:7275   */\n      mstore\n        /* \"#utility.yul\":7292:7310   */\n      0x64\n      add\n        /* \"contracts/proxy/Proxy.sol\":1844:1944  require(... */\n      tag_208\n        /* \"#utility.yul\":6960:7316   */\n      jump\n        /* \"contracts/proxy/Proxy.sol\":1844:1944  require(... */\n    tag_269:\n      sub(shl(0xa0, 0x01), 0x01)\n        /* \"contracts/proxy/Proxy.sol\":1962:1987  aliveImplementation[_imp] */\n      dup2\n      and\n      0x00\n      swap1\n      dup2\n      mstore\n        /* \"contracts/proxy/Proxy.sol\":1962:1981  aliveImplementation */\n      0x02\n        /* \"contracts/proxy/Proxy.sol\":1962:1987  aliveImplementation[_imp] */\n      0x20\n      mstore\n      0x40\n      swap1\n      keccak256\n      sload\n      0xff\n      and\n        /* \"contracts/proxy/Proxy.sol\":1954:2016  require(aliveImplementation[_imp], \"Proxy: _imp is not alive\") */\n      tag_272\n      jumpi\n      mload(0x40)\n      shl(0xe5, 0x461bcd)\n      dup2\n      mstore\n        /* \"#utility.yul\":7523:7525   */\n      0x20\n        /* \"contracts/proxy/Proxy.sol\":1954:2016  require(aliveImplementation[_imp], \"Proxy: _imp is not alive\") */\n      0x04\n      dup3\n      add\n        /* \"#utility.yul\":7505:7526   */\n      mstore\n        /* \"#utility.yul\":7562:7564   */\n      0x18\n        /* \"#utility.yul\":7542:7560   */\n      0x24\n      dup3\n      add\n        /* \"#utility.yul\":7535:7565   */\n      mstore\n        /* \"#utility.yul\":7601:7627   */\n      0x50726f78793a205f696d70206973206e6f7420616c6976650000000000000000\n        /* \"#utility.yul\":7581:7599   */\n      0x44\n      dup3\n      add\n        /* \"#utility.yul\":7574:7628   */\n      mstore\n        /* \"#utility.yul\":7645:7663   */\n      0x64\n      add\n        /* \"contracts/proxy/Proxy.sol\":1954:2016  require(aliveImplementation[_imp], \"Proxy: _imp is not alive\") */\n      tag_208\n        /* \"#utility.yul\":7321:7669   */\n      jump\n        /* \"contracts/proxy/Proxy.sol\":1954:2016  require(aliveImplementation[_imp], \"Proxy: _imp is not alive\") */\n    tag_272:\n        /* \"contracts/proxy/Proxy.sol\":2032:2041  uint256 i */\n      0x00\n        /* \"contracts/proxy/Proxy.sol\":2027:2356  for (uint256 i = 0; i < _selectors.length; i++) {... */\n    tag_275:\n        /* \"contracts/proxy/Proxy.sol\":2047:2068  i < _selectors.length */\n      dup3\n      dup2\n      lt\n        /* \"contracts/proxy/Proxy.sol\":2027:2356  for (uint256 i = 0; i < _selectors.length; i++) {... */\n      iszero\n      tag_236\n      jumpi\n        /* \"contracts/proxy/Proxy.sol\":2155:2159  _imp */\n      dup2\n      sub(shl(0xa0, 0x01), 0x01)\n        /* \"contracts/proxy/Proxy.sol\":2114:2159  selectorImplementation[_selectors[i]] != _imp */\n      and\n        /* \"contracts/proxy/Proxy.sol\":2114:2136  selectorImplementation */\n      0x03\n        /* \"contracts/proxy/Proxy.sol\":2114:2151  selectorImplementation[_selectors[i]] */\n      0x00\n        /* \"contracts/proxy/Proxy.sol\":2137:2147  _selectors */\n      dup7\n      dup7\n        /* \"contracts/proxy/Proxy.sol\":2148:2149  i */\n      dup6\n        /* \"contracts/proxy/Proxy.sol\":2137:2150  _selectors[i] */\n      dup2\n      dup2\n      lt\n      tag_279\n      jumpi\n      tag_279\n      tag_280\n      jump\t// in\n    tag_279:\n      swap1\n      pop\n      0x20\n      mul\n      add\n      0x20\n      dup2\n      add\n      swap1\n      tag_281\n      swap2\n      swap1\n      tag_51\n      jump\t// in\n    tag_281:\n      not(sub(shl(0xe0, 0x01), 0x01))\n        /* \"contracts/proxy/Proxy.sol\":2114:2151  selectorImplementation[_selectors[i]] */\n      and\n      dup2\n      mstore\n      0x20\n      dup2\n      add\n      swap2\n      swap1\n      swap2\n      mstore\n      0x40\n      add\n      0x00\n      keccak256\n      sload\n      sub(shl(0xa0, 0x01), 0x01)\n      and\n        /* \"contracts/proxy/Proxy.sol\":2114:2159  selectorImplementation[_selectors[i]] != _imp */\n      sub\n        /* \"contracts/proxy/Proxy.sol\":2089:2222  require(... */\n      tag_282\n      jumpi\n      mload(0x40)\n      shl(0xe5, 0x461bcd)\n      dup2\n      mstore\n        /* \"#utility.yul\":8008:8010   */\n      0x20\n        /* \"contracts/proxy/Proxy.sol\":2089:2222  require(... */\n      0x04\n      dup3\n      add\n        /* \"#utility.yul\":7990:8011   */\n      mstore\n        /* \"#utility.yul\":8047:8049   */\n      0x1d\n        /* \"#utility.yul\":8027:8045   */\n      0x24\n      dup3\n      add\n        /* \"#utility.yul\":8020:8050   */\n      mstore\n        /* \"#utility.yul\":8086:8117   */\n      0x4c69717569646974795661756c7450726f78793a2073616d6520696d70000000\n        /* \"#utility.yul\":8066:8084   */\n      0x44\n      dup3\n      add\n        /* \"#utility.yul\":8059:8118   */\n      mstore\n        /* \"#utility.yul\":8135:8153   */\n      0x64\n      add\n        /* \"contracts/proxy/Proxy.sol\":2089:2222  require(... */\n      tag_208\n        /* \"#utility.yul\":7806:8159   */\n      jump\n        /* \"contracts/proxy/Proxy.sol\":2089:2222  require(... */\n    tag_282:\n        /* \"contracts/proxy/Proxy.sol\":2276:2280  _imp */\n      dup2\n        /* \"contracts/proxy/Proxy.sol\":2236:2258  selectorImplementation */\n      0x03\n        /* \"contracts/proxy/Proxy.sol\":2236:2273  selectorImplementation[_selectors[i]] */\n      0x00\n        /* \"contracts/proxy/Proxy.sol\":2259:2269  _selectors */\n      dup7\n      dup7\n        /* \"contracts/proxy/Proxy.sol\":2270:2271  i */\n      dup6\n        /* \"contracts/proxy/Proxy.sol\":2259:2272  _selectors[i] */\n      dup2\n      dup2\n      lt\n      tag_286\n      jumpi\n      tag_286\n      tag_280\n      jump\t// in\n    tag_286:\n      swap1\n      pop\n      0x20\n      mul\n      add\n      0x20\n      dup2\n      add\n      swap1\n      tag_287\n      swap2\n      swap1\n      tag_51\n      jump\t// in\n    tag_287:\n      not(sub(shl(0xe0, 0x01), 0x01))\n        /* \"contracts/proxy/Proxy.sol\":2236:2273  selectorImplementation[_selectors[i]] */\n      and\n      dup2\n      mstore\n      0x20\n      dup2\n      add\n      swap2\n      swap1\n      swap2\n      mstore\n      0x40\n      add\n      0x00\n      keccak256\n        /* \"contracts/proxy/Proxy.sol\":2236:2280  selectorImplementation[_selectors[i]] = _imp */\n      dup1\n      sload\n      not(sub(shl(0xa0, 0x01), 0x01))\n      and\n      sub(shl(0xa0, 0x01), 0x01)\n      swap3\n      dup4\n      and\n      or\n      swap1\n      sstore\n        /* \"contracts/proxy/Proxy.sol\":2299:2345  SetSelectorImplementation(_selectors[i], _imp) */\n      dup3\n      and\n        /* \"contracts/proxy/Proxy.sol\":2325:2335  _selectors */\n      dup5\n      dup5\n        /* \"contracts/proxy/Proxy.sol\":2336:2337  i */\n      dup4\n        /* \"contracts/proxy/Proxy.sol\":2325:2338  _selectors[i] */\n      dup2\n      dup2\n      lt\n      tag_289\n      jumpi\n      tag_289\n      tag_280\n      jump\t// in\n    tag_289:\n      swap1\n      pop\n      0x20\n      mul\n      add\n      0x20\n      dup2\n      add\n      swap1\n      tag_290\n      swap2\n      swap1\n      tag_51\n      jump\t// in\n    tag_290:\n      sub(shl(0xe0, 0x01), 0x01)\n        /* \"contracts/proxy/Proxy.sol\":2299:2345  SetSelectorImplementation(_selectors[i], _imp) */\n      not\n      and\n      0x14ebc1c32aa68f4d766e89f3e546cee249f7df25183fc10ab1568d91c2ce9b7b\n      mload(0x40)\n      mload(0x40)\n      dup1\n      swap2\n      sub\n      swap1\n      log3\n        /* \"contracts/proxy/Proxy.sol\":2070:2073  i++ */\n      0x01\n      add\n        /* \"contracts/proxy/Proxy.sol\":2027:2356  for (uint256 i = 0; i < _selectors.length; i++) {... */\n      jump(tag_275)\n        /* \"contracts/proxy/Proxy.sol\":1487:1666  function setAliveImplementation2(address newImplementation, bool _alive)... */\n    tag_127:\n        /* \"contracts/common/AccessibleCommon.sol\":257:276  isAdmin(msg.sender) */\n      tag_294\n        /* \"contracts/common/AccessibleCommon.sol\":265:275  msg.sender */\n      caller\n        /* \"contracts/common/AccessibleCommon.sol\":257:264  isAdmin */\n      tag_84\n        /* \"contracts/common/AccessibleCommon.sol\":257:276  isAdmin(msg.sender) */\n      jump\t// in\n    tag_294:\n        /* \"contracts/common/AccessibleCommon.sol\":249:315  require(isAdmin(msg.sender), \"Accessible: Caller is not an admin\") */\n      tag_295\n      jumpi\n      mload(0x40)\n      shl(0xe5, 0x461bcd)\n      dup2\n      mstore\n      0x04\n      add\n      tag_208\n      swap1\n      tag_220\n      jump\t// in\n    tag_295:\n        /* \"contracts/proxy/Proxy.sol\":1608:1659  _setAliveImplementation2(newImplementation, _alive) */\n      tag_298\n        /* \"contracts/proxy/Proxy.sol\":1633:1650  newImplementation */\n      dup3\n        /* \"contracts/proxy/Proxy.sol\":1652:1658  _alive */\n      dup3\n        /* \"contracts/proxy/Proxy.sol\":1608:1632  _setAliveImplementation2 */\n      tag_299\n        /* \"contracts/proxy/Proxy.sol\":1608:1659  _setAliveImplementation2(newImplementation, _alive) */\n      jump\t// in\n    tag_298:\n        /* \"contracts/proxy/Proxy.sol\":1487:1666  function setAliveImplementation2(address newImplementation, bool _alive)... */\n      pop\n      pop\n      jump\t// out\n        /* \"contracts/common/AccessibleCommon.sol\":401:508  function addAdmin(address account) public virtual onlyOwner {... */\n    tag_135:\n        /* \"contracts/common/AccessibleCommon.sol\":257:276  isAdmin(msg.sender) */\n      tag_301\n        /* \"contracts/common/AccessibleCommon.sol\":265:275  msg.sender */\n      caller\n        /* \"contracts/common/AccessibleCommon.sol\":257:264  isAdmin */\n      tag_84\n        /* \"contracts/common/AccessibleCommon.sol\":257:276  isAdmin(msg.sender) */\n      jump\t// in\n    tag_301:\n        /* \"contracts/common/AccessibleCommon.sol\":249:315  require(isAdmin(msg.sender), \"Accessible: Caller is not an admin\") */\n      tag_302\n      jumpi\n      mload(0x40)\n      shl(0xe5, 0x461bcd)\n      dup2\n      mstore\n      0x04\n      add\n      tag_208\n      swap1\n      tag_220\n      jump\t// in\n    tag_302:\n        /* \"contracts/common/AccessibleCommon.sol\":471:501  grantRole(ADMIN_ROLE, account) */\n      tag_227\n      0x00\n      dup1\n      mload\n      0x20\n      data_a29c3f0504a76c686875ea2f0fc314af702d3407223f14a34325f35a1858bd3b\n      dup4\n      codecopy\n      dup2\n      mload\n      swap2\n      mstore\n        /* \"contracts/common/AccessibleCommon.sol\":493:500  account */\n      dup3\n        /* \"contracts/common/AccessibleCommon.sol\":471:480  grantRole */\n      tag_90\n        /* \"contracts/common/AccessibleCommon.sol\":471:501  grantRole(ADMIN_ROLE, account) */\n      jump\t// in\n        /* \"contracts/common/AccessibleCommon.sol\":771:1070  function transferAdmin(address newAdmin) external virtual onlyOwner {... */\n    tag_139:\n        /* \"contracts/common/AccessibleCommon.sol\":257:276  isAdmin(msg.sender) */\n      tag_307\n        /* \"contracts/common/AccessibleCommon.sol\":265:275  msg.sender */\n      caller\n        /* \"contracts/common/AccessibleCommon.sol\":257:264  isAdmin */\n      tag_84\n        /* \"contracts/common/AccessibleCommon.sol\":257:276  isAdmin(msg.sender) */\n      jump\t// in\n    tag_307:\n        /* \"contracts/common/AccessibleCommon.sol\":249:315  require(isAdmin(msg.sender), \"Accessible: Caller is not an admin\") */\n      tag_308\n      jumpi\n      mload(0x40)\n      shl(0xe5, 0x461bcd)\n      dup2\n      mstore\n      0x04\n      add\n      tag_208\n      swap1\n      tag_220\n      jump\t// in\n    tag_308:\n      sub(shl(0xa0, 0x01), 0x01)\n        /* \"contracts/common/AccessibleCommon.sol\":857:879  newAdmin != address(0) */\n      dup2\n      and\n        /* \"contracts/common/AccessibleCommon.sol\":849:908  require(newAdmin != address(0), \"Accessible: zero address\") */\n      tag_311\n      jumpi\n      mload(0x40)\n      shl(0xe5, 0x461bcd)\n      dup2\n      mstore\n        /* \"#utility.yul\":8366:8368   */\n      0x20\n        /* \"contracts/common/AccessibleCommon.sol\":849:908  require(newAdmin != address(0), \"Accessible: zero address\") */\n      0x04\n      dup3\n      add\n        /* \"#utility.yul\":8348:8369   */\n      mstore\n        /* \"#utility.yul\":8405:8407   */\n      0x18\n        /* \"#utility.yul\":8385:8403   */\n      0x24\n      dup3\n      add\n        /* \"#utility.yul\":8378:8408   */\n      mstore\n        /* \"#utility.yul\":8444:8470   */\n      0x41636365737369626c653a207a65726f20616464726573730000000000000000\n        /* \"#utility.yul\":8424:8442   */\n      0x44\n      dup3\n      add\n        /* \"#utility.yul\":8417:8471   */\n      mstore\n        /* \"#utility.yul\":8488:8506   */\n      0x64\n      add\n        /* \"contracts/common/AccessibleCommon.sol\":849:908  require(newAdmin != address(0), \"Accessible: zero address\") */\n      tag_208\n        /* \"#utility.yul\":8164:8512   */\n      jump\n        /* \"contracts/common/AccessibleCommon.sol\":849:908  require(newAdmin != address(0), \"Accessible: zero address\") */\n    tag_311:\n      sub(shl(0xa0, 0x01), 0x01)\n        /* \"contracts/common/AccessibleCommon.sol\":926:948  msg.sender != newAdmin */\n      dup2\n      and\n        /* \"contracts/common/AccessibleCommon.sol\":926:936  msg.sender */\n      caller\n        /* \"contracts/common/AccessibleCommon.sol\":926:948  msg.sender != newAdmin */\n      sub\n        /* \"contracts/common/AccessibleCommon.sol\":918:975  require(msg.sender != newAdmin, \"Accessible: same admin\") */\n      tag_314\n      jumpi\n      mload(0x40)\n      shl(0xe5, 0x461bcd)\n      dup2\n      mstore\n        /* \"#utility.yul\":8719:8721   */\n      0x20\n        /* \"contracts/common/AccessibleCommon.sol\":918:975  require(msg.sender != newAdmin, \"Accessible: same admin\") */\n      0x04\n      dup3\n      add\n        /* \"#utility.yul\":8701:8722   */\n      mstore\n        /* \"#utility.yul\":8758:8760   */\n      0x16\n        /* \"#utility.yul\":8738:8756   */\n      0x24\n      dup3\n      add\n        /* \"#utility.yul\":8731:8761   */\n      mstore\n      shl(0x51, 0x20b1b1b2b9b9b4b136329d1039b0b6b29030b236b4b7)\n        /* \"#utility.yul\":8777:8795   */\n      0x44\n      dup3\n      add\n        /* \"#utility.yul\":8770:8822   */\n      mstore\n        /* \"#utility.yul\":8839:8857   */\n      0x64\n      add\n        /* \"contracts/common/AccessibleCommon.sol\":918:975  require(msg.sender != newAdmin, \"Accessible: same admin\") */\n      tag_208\n        /* \"#utility.yul\":8517:8863   */\n      jump\n        /* \"contracts/common/AccessibleCommon.sol\":918:975  require(msg.sender != newAdmin, \"Accessible: same admin\") */\n    tag_314:\n        /* \"contracts/common/AccessibleCommon.sol\":986:1017  grantRole(ADMIN_ROLE, newAdmin) */\n      tag_317\n      0x00\n      dup1\n      mload\n      0x20\n      data_a29c3f0504a76c686875ea2f0fc314af702d3407223f14a34325f35a1858bd3b\n      dup4\n      codecopy\n      dup2\n      mload\n      swap2\n      mstore\n        /* \"contracts/common/AccessibleCommon.sol\":1008:1016  newAdmin */\n      dup3\n        /* \"contracts/common/AccessibleCommon.sol\":986:995  grantRole */\n      tag_90\n        /* \"contracts/common/AccessibleCommon.sol\":986:1017  grantRole(ADMIN_ROLE, newAdmin) */\n      jump\t// in\n    tag_317:\n        /* \"contracts/common/AccessibleCommon.sol\":1027:1063  renounceRole(ADMIN_ROLE, msg.sender) */\n      tag_227\n      0x00\n      dup1\n      mload\n      0x20\n      data_a29c3f0504a76c686875ea2f0fc314af702d3407223f14a34325f35a1858bd3b\n      dup4\n      codecopy\n      dup2\n      mload\n      swap2\n      mstore\n        /* \"contracts/common/AccessibleCommon.sol\":1052:1062  msg.sender */\n      caller\n        /* \"contracts/common/AccessibleCommon.sol\":1027:1039  renounceRole */\n      tag_94\n        /* \"contracts/common/AccessibleCommon.sol\":1027:1063  renounceRole(ADMIN_ROLE, msg.sender) */\n      jump\t// in\n        /* \"contracts/proxy/Proxy.sol\":719:810  function setProxyPause(bool _pause) external onlyOwner {... */\n    tag_148:\n        /* \"contracts/common/AccessibleCommon.sol\":257:276  isAdmin(msg.sender) */\n      tag_320\n        /* \"contracts/common/AccessibleCommon.sol\":265:275  msg.sender */\n      caller\n        /* \"contracts/common/AccessibleCommon.sol\":257:264  isAdmin */\n      tag_84\n        /* \"contracts/common/AccessibleCommon.sol\":257:276  isAdmin(msg.sender) */\n      jump\t// in\n    tag_320:\n        /* \"contracts/common/AccessibleCommon.sol\":249:315  require(isAdmin(msg.sender), \"Accessible: Caller is not an admin\") */\n      tag_321\n      jumpi\n      mload(0x40)\n      shl(0xe5, 0x461bcd)\n      dup2\n      mstore\n      0x04\n      add\n      tag_208\n      swap1\n      tag_220\n      jump\t// in\n    tag_321:\n        /* \"contracts/proxy/Proxy.sol\":784:794  pauseProxy */\n      0x00\n        /* \"contracts/proxy/Proxy.sol\":784:803  pauseProxy = _pause */\n      dup1\n      sload\n      not(0xff)\n      and\n      swap2\n      iszero\n      iszero\n      swap2\n      swap1\n      swap2\n      or\n      swap1\n      sstore\n        /* \"contracts/proxy/Proxy.sol\":719:810  function setProxyPause(bool _pause) external onlyOwner {... */\n      jump\t// out\n        /* \"contracts/proxy/Proxy.sol\":1235:1448  function setImplementation2(... */\n    tag_153:\n        /* \"contracts/common/AccessibleCommon.sol\":257:276  isAdmin(msg.sender) */\n      tag_325\n        /* \"contracts/common/AccessibleCommon.sol\":265:275  msg.sender */\n      caller\n        /* \"contracts/common/AccessibleCommon.sol\":257:264  isAdmin */\n      tag_84\n        /* \"contracts/common/AccessibleCommon.sol\":257:276  isAdmin(msg.sender) */\n      jump\t// in\n    tag_325:\n        /* \"contracts/common/AccessibleCommon.sol\":249:315  require(isAdmin(msg.sender), \"Accessible: Caller is not an admin\") */\n      tag_326\n      jumpi\n      mload(0x40)\n      shl(0xe5, 0x461bcd)\n      dup2\n      mstore\n      0x04\n      add\n      tag_208\n      swap1\n      tag_220\n      jump\t// in\n    tag_326:\n        /* \"contracts/proxy/Proxy.sol\":1387:1441  _setImplementation2(newImplementation, _index, _alive) */\n      tag_210\n        /* \"contracts/proxy/Proxy.sol\":1407:1424  newImplementation */\n      dup4\n        /* \"contracts/proxy/Proxy.sol\":1426:1432  _index */\n      dup4\n        /* \"contracts/proxy/Proxy.sol\":1434:1440  _alive */\n      dup4\n        /* \"contracts/proxy/Proxy.sol\":1387:1406  _setImplementation2 */\n      tag_258\n        /* \"contracts/proxy/Proxy.sol\":1387:1441  _setImplementation2(newImplementation, _index, _alive) */\n      jump\t// in\n        /* \"contracts/proxy/Proxy.sol\":2634:2764  function implementation2(uint256 _index) external override view returns (address) {... */\n    tag_158:\n        /* \"contracts/proxy/Proxy.sol\":2707:2714  address */\n      0x00\n        /* \"contracts/proxy/Proxy.sol\":3744:3771  proxyImplementation[_index] */\n      dup2\n      dup2\n      mstore\n        /* \"contracts/proxy/Proxy.sol\":3744:3763  proxyImplementation */\n      0x01\n        /* \"contracts/proxy/Proxy.sol\":3744:3771  proxyImplementation[_index] */\n      0x20\n      mstore\n      0x40\n      dup2\n      keccak256\n      sload\n      sub(shl(0xa0, 0x01), 0x01)\n      and\n        /* \"contracts/proxy/Proxy.sol\":2733:2757  _implementation2(_index) */\n      tag_214\n        /* \"contracts/proxy/Proxy.sol\":3620:3778  function _implementation2(uint256 _index)... */\n      jump\n        /* \"contracts/proxy/Proxy.sol\":2804:3223  function getSelectorImplementation2(bytes4 _selector)... */\n    tag_163:\n      not(sub(shl(0xe0, 0x01), 0x01))\n        /* \"contracts/proxy/Proxy.sol\":2944:2977  selectorImplementation[_selector] */\n      dup2\n      and\n        /* \"contracts/proxy/Proxy.sol\":2912:2924  address impl */\n      0x00\n        /* \"contracts/proxy/Proxy.sol\":2944:2977  selectorImplementation[_selector] */\n      swap1\n      dup2\n      mstore\n        /* \"contracts/proxy/Proxy.sol\":2944:2966  selectorImplementation */\n      0x03\n        /* \"contracts/proxy/Proxy.sol\":2944:2977  selectorImplementation[_selector] */\n      0x20\n      mstore\n      0x40\n      dup2\n      keccak256\n      sload\n      sub(shl(0xa0, 0x01), 0x01)\n      and\n        /* \"contracts/proxy/Proxy.sol\":2940:3216  if (selectorImplementation[_selector] == address(0))... */\n      tag_333\n      jumpi\n      pop\n      pop\n        /* \"contracts/proxy/Proxy.sol\":3012:3034  proxyImplementation[0] */\n      0x00\n      dup1\n      mstore\n        /* \"contracts/proxy/Proxy.sol\":3012:3031  proxyImplementation */\n      0x01\n        /* \"contracts/proxy/Proxy.sol\":3012:3034  proxyImplementation[0] */\n      0x20\n      mstore\n      0x00\n      dup1\n      mload\n      0x20\n      data_0eb5be412f275a18f6e4d622aee4ff40b21467c926224771b782d4c095d1444b\n      dup4\n      codecopy\n      dup2\n      mload\n      swap2\n      mstore\n      sload\n      sub(shl(0xa0, 0x01), 0x01)\n      and\n      swap1\n        /* \"contracts/proxy/Proxy.sol\":2804:3223  function getSelectorImplementation2(bytes4 _selector)... */\n      jump\t// out\n        /* \"contracts/proxy/Proxy.sol\":2940:3216  if (selectorImplementation[_selector] == address(0))... */\n    tag_333:\n      not(sub(shl(0xe0, 0x01), 0x01))\n        /* \"contracts/proxy/Proxy.sol\":3073:3106  selectorImplementation[_selector] */\n      dup3\n      and\n        /* \"contracts/proxy/Proxy.sol\":3053:3107  aliveImplementation[selectorImplementation[_selector]] */\n      0x00\n        /* \"contracts/proxy/Proxy.sol\":3073:3106  selectorImplementation[_selector] */\n      swap1\n      dup2\n      mstore\n        /* \"contracts/proxy/Proxy.sol\":3073:3095  selectorImplementation */\n      0x03\n        /* \"contracts/proxy/Proxy.sol\":3073:3106  selectorImplementation[_selector] */\n      0x20\n      swap1\n      dup2\n      mstore\n      0x40\n      dup1\n      dup4\n      keccak256\n      sload\n      sub(shl(0xa0, 0x01), 0x01)\n      and\n        /* \"contracts/proxy/Proxy.sol\":3053:3107  aliveImplementation[selectorImplementation[_selector]] */\n      dup4\n      mstore\n        /* \"contracts/proxy/Proxy.sol\":3053:3072  aliveImplementation */\n      0x02\n        /* \"contracts/proxy/Proxy.sol\":3053:3107  aliveImplementation[selectorImplementation[_selector]] */\n      swap1\n      swap2\n      mstore\n      swap1\n      keccak256\n      sload\n      0xff\n      and\n        /* \"contracts/proxy/Proxy.sol\":3049:3216  if (aliveImplementation[selectorImplementation[_selector]]){... */\n      iszero\n      tag_335\n      jumpi\n      pop\n      not(sub(shl(0xe0, 0x01), 0x01))\n        /* \"contracts/proxy/Proxy.sol\":3129:3162  selectorImplementation[_selector] */\n      and\n      0x00\n      swap1\n      dup2\n      mstore\n        /* \"contracts/proxy/Proxy.sol\":3129:3151  selectorImplementation */\n      0x03\n        /* \"contracts/proxy/Proxy.sol\":3129:3162  selectorImplementation[_selector] */\n      0x20\n      mstore\n      0x40\n      swap1\n      keccak256\n      sload\n      sub(shl(0xa0, 0x01), 0x01)\n      and\n      swap1\n        /* \"contracts/proxy/Proxy.sol\":2804:3223  function getSelectorImplementation2(bytes4 _selector)... */\n      jump\t// out\n        /* \"contracts/proxy/Proxy.sol\":3049:3216  if (aliveImplementation[selectorImplementation[_selector]]){... */\n    tag_335:\n      pop\n      pop\n        /* \"contracts/proxy/Proxy.sol\":3194:3216  proxyImplementation[0] */\n      0x00\n      dup1\n      mstore\n        /* \"contracts/proxy/Proxy.sol\":3194:3213  proxyImplementation */\n      0x01\n        /* \"contracts/proxy/Proxy.sol\":3194:3216  proxyImplementation[0] */\n      0x20\n      mstore\n      0x00\n      dup1\n      mload\n      0x20\n      data_0eb5be412f275a18f6e4d622aee4ff40b21467c926224771b782d4c095d1444b\n      dup4\n      codecopy\n      dup2\n      mload\n      swap2\n      mstore\n      sload\n      sub(shl(0xa0, 0x01), 0x01)\n      and\n      swap1\n        /* \"contracts/proxy/Proxy.sol\":2804:3223  function getSelectorImplementation2(bytes4 _selector)... */\n      jump\t// out\n        /* \"contracts/proxy/Proxy.sol\":3049:3216  if (aliveImplementation[selectorImplementation[_selector]]){... */\n    tag_336:\n        /* \"contracts/proxy/Proxy.sol\":2804:3223  function getSelectorImplementation2(bytes4 _selector)... */\n      swap2\n      swap1\n      pop\n      jump\t// out\n        /* \"@openzeppelin/contracts/access/AccessControl.sol\":2854:2990  function hasRole(bytes32 role, address account) public view virtual returns (bool) {... */\n    tag_168:\n        /* \"@openzeppelin/contracts/access/AccessControl.sol\":2931:2935  bool */\n      0x00\n        /* \"@openzeppelin/contracts/access/AccessControl.sol\":2954:2966  _roles[role] */\n      swap2\n      dup3\n      mstore\n        /* \"@openzeppelin/contracts/access/AccessControl.sol\":2954:2960  _roles */\n      0x04\n        /* \"@openzeppelin/contracts/access/AccessControl.sol\":2954:2966  _roles[role] */\n      0x20\n      swap1\n      dup2\n      mstore\n      0x40\n      dup1\n      dup5\n      keccak256\n      sub(shl(0xa0, 0x01), 0x01)\n        /* \"@openzeppelin/contracts/access/AccessControl.sol\":2954:2983  _roles[role].hasRole[account] */\n      swap4\n      swap1\n      swap4\n      and\n      dup5\n      mstore\n      swap2\n      swap1\n      mstore\n      swap1\n      keccak256\n      sload\n      0xff\n      and\n      swap1\n        /* \"@openzeppelin/contracts/access/AccessControl.sol\":2854:2990  function hasRole(bytes32 role, address account) public view virtual returns (bool) {... */\n      jump\t// out\n        /* \"@openzeppelin/contracts/access/AccessControl.sol\":4642:4780  function revokeRole(bytes32 role, address account) public virtual onlyRole(getRoleAdmin(role)) {... */\n    tag_187:\n        /* \"@openzeppelin/contracts/access/AccessControl.sol\":3875:3882  bytes32 */\n      0x00\n        /* \"@openzeppelin/contracts/access/AccessControl.sol\":3901:3913  _roles[role] */\n      dup3\n      dup2\n      mstore\n        /* \"@openzeppelin/contracts/access/AccessControl.sol\":3901:3907  _roles */\n      0x04\n        /* \"@openzeppelin/contracts/access/AccessControl.sol\":3901:3913  _roles[role] */\n      0x20\n      mstore\n      0x40\n      swap1\n      keccak256\n        /* \"@openzeppelin/contracts/access/AccessControl.sol\":3901:3923  _roles[role].adminRole */\n      0x01\n      add\n      sload\n        /* \"@openzeppelin/contracts/access/AccessControl.sol\":2464:2480  _checkRole(role) */\n      tag_340\n        /* \"@openzeppelin/contracts/access/AccessControl.sol\":2475:2479  role */\n      dup2\n        /* \"@openzeppelin/contracts/access/AccessControl.sol\":2464:2474  _checkRole */\n      tag_234\n        /* \"@openzeppelin/contracts/access/AccessControl.sol\":2464:2480  _checkRole(role) */\n      jump\t// in\n    tag_340:\n        /* \"@openzeppelin/contracts/access/AccessControl.sol\":4747:4773  _revokeRole(role, account) */\n      tag_236\n        /* \"@openzeppelin/contracts/access/AccessControl.sol\":4759:4763  role */\n      dup4\n        /* \"@openzeppelin/contracts/access/AccessControl.sol\":4765:4772  account */\n      dup4\n        /* \"@openzeppelin/contracts/access/AccessControl.sol\":4747:4758  _revokeRole */\n      tag_243\n        /* \"@openzeppelin/contracts/access/AccessControl.sol\":4747:4773  _revokeRole(role, account) */\n      jump\t// in\n        /* \"@openzeppelin/contracts/access/AccessControl.sol\":3199:3302  function _checkRole(bytes32 role) internal view virtual {... */\n    tag_234:\n        /* \"@openzeppelin/contracts/access/AccessControl.sol\":3265:3295  _checkRole(role, _msgSender()) */\n      tag_227\n        /* \"@openzeppelin/contracts/access/AccessControl.sol\":3276:3280  role */\n      dup2\n        /* \"@openzeppelin/contracts/utils/Context.sol\":735:745  msg.sender */\n      caller\n        /* \"@openzeppelin/contracts/access/AccessControl.sol\":3265:3275  _checkRole */\n      tag_347\n        /* \"@openzeppelin/contracts/access/AccessControl.sol\":3265:3295  _checkRole(role, _msgSender()) */\n      jump\t// in\n        /* \"@openzeppelin/contracts/access/AccessControl.sol\":6179:6495  function _grantRole(bytes32 role, address account) internal virtual returns (bool) {... */\n    tag_237:\n        /* \"@openzeppelin/contracts/access/AccessControl.sol\":6256:6260  bool */\n      0x00\n        /* \"@openzeppelin/contracts/access/AccessControl.sol\":6277:6299  hasRole(role, account) */\n      tag_349\n        /* \"@openzeppelin/contracts/access/AccessControl.sol\":6285:6289  role */\n      dup4\n        /* \"@openzeppelin/contracts/access/AccessControl.sol\":6291:6298  account */\n      dup4\n        /* \"@openzeppelin/contracts/access/AccessControl.sol\":6277:6284  hasRole */\n      tag_168\n        /* \"@openzeppelin/contracts/access/AccessControl.sol\":6277:6299  hasRole(role, account) */\n      jump\t// in\n    tag_349:\n        /* \"@openzeppelin/contracts/access/AccessControl.sol\":6272:6489  if (!hasRole(role, account)) {... */\n      tag_350\n      jumpi\n        /* \"@openzeppelin/contracts/access/AccessControl.sol\":6315:6327  _roles[role] */\n      0x00\n      dup4\n      dup2\n      mstore\n        /* \"@openzeppelin/contracts/access/AccessControl.sol\":6315:6321  _roles */\n      0x04\n        /* \"@openzeppelin/contracts/access/AccessControl.sol\":6315:6327  _roles[role] */\n      0x20\n      swap1\n      dup2\n      mstore\n      0x40\n      dup1\n      dup4\n      keccak256\n      sub(shl(0xa0, 0x01), 0x01)\n        /* \"@openzeppelin/contracts/access/AccessControl.sol\":6315:6344  _roles[role].hasRole[account] */\n      dup7\n      and\n      dup5\n      mstore\n      swap1\n      swap2\n      mstore\n      swap1\n      keccak256\n        /* \"@openzeppelin/contracts/access/AccessControl.sol\":6315:6351  _roles[role].hasRole[account] = true */\n      dup1\n      sload\n      not(0xff)\n      and\n        /* \"@openzeppelin/contracts/access/AccessControl.sol\":6347:6351  true */\n      0x01\n        /* \"@openzeppelin/contracts/access/AccessControl.sol\":6315:6351  _roles[role].hasRole[account] = true */\n      or\n      swap1\n      sstore\n        /* \"@openzeppelin/contracts/access/AccessControl.sol\":6397:6409  _msgSender() */\n      tag_351\n        /* \"@openzeppelin/contracts/utils/Context.sol\":735:745  msg.sender */\n      caller\n      swap1\n        /* \"@openzeppelin/contracts/utils/Context.sol\":656:752  function _msgSender() internal view virtual returns (address) {... */\n      jump\n        /* \"@openzeppelin/contracts/access/AccessControl.sol\":6397:6409  _msgSender() */\n    tag_351:\n      sub(shl(0xa0, 0x01), 0x01)\n        /* \"@openzeppelin/contracts/access/AccessControl.sol\":6370:6410  RoleGranted(role, account, _msgSender()) */\n      and\n        /* \"@openzeppelin/contracts/access/AccessControl.sol\":6388:6395  account */\n      dup3\n      sub(shl(0xa0, 0x01), 0x01)\n        /* \"@openzeppelin/contracts/access/AccessControl.sol\":6370:6410  RoleGranted(role, account, _msgSender()) */\n      and\n        /* \"@openzeppelin/contracts/access/AccessControl.sol\":6382:6386  role */\n      dup5\n        /* \"@openzeppelin/contracts/access/AccessControl.sol\":6370:6410  RoleGranted(role, account, _msgSender()) */\n      0x2f8788117e7eff1d82e926ec794901d17c78024a50270940304540a733656f0d\n      mload(0x40)\n      mload(0x40)\n      dup1\n      swap2\n      sub\n      swap1\n      log4\n      pop\n        /* \"@openzeppelin/contracts/access/AccessControl.sol\":6431:6435  true */\n      0x01\n        /* \"@openzeppelin/contracts/access/AccessControl.sol\":6424:6435  return true */\n      jump(tag_214)\n        /* \"@openzeppelin/contracts/access/AccessControl.sol\":6272:6489  if (!hasRole(role, account)) {... */\n    tag_350:\n      pop\n        /* \"@openzeppelin/contracts/access/AccessControl.sol\":6473:6478  false */\n      0x00\n        /* \"@openzeppelin/contracts/access/AccessControl.sol\":6466:6478  return false */\n      jump(tag_214)\n        /* \"@openzeppelin/contracts/access/AccessControl.sol\":6730:7047  function _revokeRole(bytes32 role, address account) internal virtual returns (bool) {... */\n    tag_243:\n        /* \"@openzeppelin/contracts/access/AccessControl.sol\":6808:6812  bool */\n      0x00\n        /* \"@openzeppelin/contracts/access/AccessControl.sol\":6828:6850  hasRole(role, account) */\n      tag_355\n        /* \"@openzeppelin/contracts/access/AccessControl.sol\":6836:6840  role */\n      dup4\n        /* \"@openzeppelin/contracts/access/AccessControl.sol\":6842:6849  account */\n      dup4\n        /* \"@openzeppelin/contracts/access/AccessControl.sol\":6828:6835  hasRole */\n      tag_168\n        /* \"@openzeppelin/contracts/access/AccessControl.sol\":6828:6850  hasRole(role, account) */\n      jump\t// in\n    tag_355:\n        /* \"@openzeppelin/contracts/access/AccessControl.sol\":6824:7041  if (hasRole(role, account)) {... */\n      iszero\n      tag_350\n      jumpi\n        /* \"@openzeppelin/contracts/access/AccessControl.sol\":6898:6903  false */\n      0x00\n        /* \"@openzeppelin/contracts/access/AccessControl.sol\":6866:6878  _roles[role] */\n      dup4\n      dup2\n      mstore\n        /* \"@openzeppelin/contracts/access/AccessControl.sol\":6866:6872  _roles */\n      0x04\n        /* \"@openzeppelin/contracts/access/AccessControl.sol\":6866:6878  _roles[role] */\n      0x20\n      swap1\n      dup2\n      mstore\n      0x40\n      dup1\n      dup4\n      keccak256\n      sub(shl(0xa0, 0x01), 0x01)\n        /* \"@openzeppelin/contracts/access/AccessControl.sol\":6866:6895  _roles[role].hasRole[account] */\n      dup7\n      and\n      dup1\n      dup6\n      mstore\n      swap3\n      mstore\n      dup1\n      dup4\n      keccak256\n        /* \"@openzeppelin/contracts/access/AccessControl.sol\":6866:6903  _roles[role].hasRole[account] = false */\n      dup1\n      sload\n      not(0xff)\n      and\n      swap1\n      sstore\n        /* \"@openzeppelin/contracts/access/AccessControl.sol\":6922:6962  RoleRevoked(role, account, _msgSender()) */\n      mload\n        /* \"@openzeppelin/contracts/utils/Context.sol\":735:745  msg.sender */\n      caller\n      swap3\n        /* \"@openzeppelin/contracts/access/AccessControl.sol\":6866:6878  _roles[role] */\n      dup7\n      swap2\n        /* \"@openzeppelin/contracts/access/AccessControl.sol\":6922:6962  RoleRevoked(role, account, _msgSender()) */\n      0xf6391f5c32d9c69d2a47ea670b442974b53935d1edc7fd64eb21e047a839171b\n      swap2\n        /* \"@openzeppelin/contracts/access/AccessControl.sol\":6898:6903  false */\n      swap1\n        /* \"@openzeppelin/contracts/access/AccessControl.sol\":6922:6962  RoleRevoked(role, account, _msgSender()) */\n      log4\n      pop\n        /* \"@openzeppelin/contracts/access/AccessControl.sol\":6983:6987  true */\n      0x01\n        /* \"@openzeppelin/contracts/access/AccessControl.sol\":6976:6987  return true */\n      jump(tag_214)\n        /* \"contracts/proxy/Proxy.sol\":5140:5515  function _setImplementation2(... */\n    tag_258:\n      sub(shl(0xa0, 0x01), 0x01)\n        /* \"contracts/proxy/Proxy.sol\":5985:6004  account.code.length */\n      dup4\n      and\n      extcodesize\n        /* \"contracts/proxy/Proxy.sol\":5274:5378  require(... */\n      tag_363\n      jumpi\n      mload(0x40)\n      shl(0xe5, 0x461bcd)\n      dup2\n      mstore\n        /* \"#utility.yul\":9070:9072   */\n      0x20\n        /* \"contracts/proxy/Proxy.sol\":5274:5378  require(... */\n      0x04\n      dup3\n      add\n        /* \"#utility.yul\":9052:9073   */\n      mstore\n        /* \"#utility.yul\":9109:9111   */\n      0x1b\n        /* \"#utility.yul\":9089:9107   */\n      0x24\n      dup3\n      add\n        /* \"#utility.yul\":9082:9112   */\n      mstore\n        /* \"#utility.yul\":9148:9177   */\n      0x50726f78793a206e6f7420636f6e747261637420616464726573730000000000\n        /* \"#utility.yul\":9128:9146   */\n      0x44\n      dup3\n      add\n        /* \"#utility.yul\":9121:9178   */\n      mstore\n        /* \"#utility.yul\":9195:9213   */\n      0x64\n      add\n        /* \"contracts/proxy/Proxy.sol\":5274:5378  require(... */\n      tag_208\n        /* \"#utility.yul\":8868:9219   */\n      jump\n        /* \"contracts/proxy/Proxy.sol\":5274:5378  require(... */\n    tag_363:\n        /* \"contracts/proxy/Proxy.sol\":5392:5398  _alive */\n      dup1\n        /* \"contracts/proxy/Proxy.sol\":5388:5447  if (_alive) proxyImplementation[_index] = newImplementation */\n      iszero\n      tag_366\n      jumpi\n        /* \"contracts/proxy/Proxy.sol\":5400:5427  proxyImplementation[_index] */\n      0x00\n      dup3\n      dup2\n      mstore\n        /* \"contracts/proxy/Proxy.sol\":5400:5419  proxyImplementation */\n      0x01\n        /* \"contracts/proxy/Proxy.sol\":5400:5427  proxyImplementation[_index] */\n      0x20\n      mstore\n      0x40\n      swap1\n      keccak256\n        /* \"contracts/proxy/Proxy.sol\":5400:5447  proxyImplementation[_index] = newImplementation */\n      dup1\n      sload\n      not(sub(shl(0xa0, 0x01), 0x01))\n      and\n      sub(shl(0xa0, 0x01), 0x01)\n      dup6\n      and\n      or\n      swap1\n      sstore\n        /* \"contracts/proxy/Proxy.sol\":5388:5447  if (_alive) proxyImplementation[_index] = newImplementation */\n    tag_366:\n        /* \"contracts/proxy/Proxy.sol\":5457:5508  _setAliveImplementation2(newImplementation, _alive) */\n      tag_210\n        /* \"contracts/proxy/Proxy.sol\":5482:5499  newImplementation */\n      dup4\n        /* \"contracts/proxy/Proxy.sol\":5501:5507  _alive */\n      dup3\n        /* \"contracts/proxy/Proxy.sol\":5672:5895  function _setAliveImplementation2(address newImplementation, bool _alive)... */\n    tag_299:\n      sub(shl(0xa0, 0x01), 0x01)\n        /* \"contracts/proxy/Proxy.sol\":5777:5815  aliveImplementation[newImplementation] */\n      dup3\n      and\n      0x00\n      dup2\n      dup2\n      mstore\n        /* \"contracts/proxy/Proxy.sol\":5777:5796  aliveImplementation */\n      0x02\n        /* \"contracts/proxy/Proxy.sol\":5777:5815  aliveImplementation[newImplementation] */\n      0x20\n      swap1\n      dup2\n      mstore\n      0x40\n      swap2\n      dup3\n      swap1\n      keccak256\n        /* \"contracts/proxy/Proxy.sol\":5777:5824  aliveImplementation[newImplementation] = _alive */\n      dup1\n      sload\n      not(0xff)\n      and\n      dup6\n      iszero\n      iszero\n      swap1\n      dup2\n      or\n      swap1\n      swap2\n      sstore\n        /* \"contracts/proxy/Proxy.sol\":5839:5888  SetAliveImplementation(newImplementation, _alive) */\n      swap2\n      mload\n        /* \"#utility.yul\":445:486   */\n      swap2\n      dup3\n      mstore\n        /* \"contracts/proxy/Proxy.sol\":5839:5888  SetAliveImplementation(newImplementation, _alive) */\n      0x72558d9bfba4210f9ef095c782589484151f6d90f7a81bb3cb9b33efc695d324\n      swap2\n        /* \"#utility.yul\":418:436   */\n      add\n        /* \"contracts/proxy/Proxy.sol\":5839:5888  SetAliveImplementation(newImplementation, _alive) */\n      mload(0x40)\n      dup1\n      swap2\n      sub\n      swap1\n      log2\n        /* \"contracts/proxy/Proxy.sol\":5672:5895  function _setAliveImplementation2(address newImplementation, bool _alive)... */\n      pop\n      pop\n      jump\t// out\n        /* \"@openzeppelin/contracts/access/AccessControl.sol\":3432:3629  function _checkRole(bytes32 role, address account) internal view virtual {... */\n    tag_347:\n        /* \"@openzeppelin/contracts/access/AccessControl.sol\":3520:3542  hasRole(role, account) */\n      tag_371\n        /* \"@openzeppelin/contracts/access/AccessControl.sol\":3528:3532  role */\n      dup3\n        /* \"@openzeppelin/contracts/access/AccessControl.sol\":3534:3541  account */\n      dup3\n        /* \"@openzeppelin/contracts/access/AccessControl.sol\":3520:3527  hasRole */\n      tag_168\n        /* \"@openzeppelin/contracts/access/AccessControl.sol\":3520:3542  hasRole(role, account) */\n      jump\t// in\n    tag_371:\n        /* \"@openzeppelin/contracts/access/AccessControl.sol\":3515:3623  if (!hasRole(role, account)) {... */\n      tag_298\n      jumpi\n        /* \"@openzeppelin/contracts/access/AccessControl.sol\":3565:3612  AccessControlUnauthorizedAccount(account, role) */\n      mload(0x40)\n      shl(0xe0, 0xe2517d3f)\n      dup2\n      mstore\n      sub(shl(0xa0, 0x01), 0x01)\n        /* \"#utility.yul\":9416:9448   */\n      dup3\n      and\n        /* \"@openzeppelin/contracts/access/AccessControl.sol\":3565:3612  AccessControlUnauthorizedAccount(account, role) */\n      0x04\n      dup3\n      add\n        /* \"#utility.yul\":9398:9449   */\n      mstore\n        /* \"#utility.yul\":9465:9483   */\n      0x24\n      dup2\n      add\n        /* \"#utility.yul\":9458:9492   */\n      dup4\n      swap1\n      mstore\n        /* \"#utility.yul\":9371:9389   */\n      0x44\n      add\n        /* \"@openzeppelin/contracts/access/AccessControl.sol\":3565:3612  AccessControlUnauthorizedAccount(account, role) */\n      tag_208\n        /* \"#utility.yul\":9224:9498   */\n      jump\n        /* \"#utility.yul\":14:300   */\n    tag_51:\n        /* \"#utility.yul\":72:78   */\n      0x00\n        /* \"#utility.yul\":125:127   */\n      0x20\n        /* \"#utility.yul\":113:122   */\n      dup3\n        /* \"#utility.yul\":104:111   */\n      dup5\n        /* \"#utility.yul\":100:123   */\n      sub\n        /* \"#utility.yul\":96:128   */\n      slt\n        /* \"#utility.yul\":93:145   */\n      iszero\n      tag_380\n      jumpi\n        /* \"#utility.yul\":141:142   */\n      0x00\n        /* \"#utility.yul\":138:139   */\n      dup1\n        /* \"#utility.yul\":131:143   */\n      revert\n        /* \"#utility.yul\":93:145   */\n    tag_380:\n        /* \"#utility.yul\":167:190   */\n      dup2\n      calldataload\n      not(sub(shl(0xe0, 0x01), 0x01))\n        /* \"#utility.yul\":219:251   */\n      dup2\n      and\n        /* \"#utility.yul\":209:252   */\n      dup2\n      eq\n        /* \"#utility.yul\":199:270   */\n      tag_381\n      jumpi\n        /* \"#utility.yul\":266:267   */\n      0x00\n        /* \"#utility.yul\":263:264   */\n      dup1\n        /* \"#utility.yul\":256:268   */\n      revert\n        /* \"#utility.yul\":199:270   */\n    tag_381:\n        /* \"#utility.yul\":289:294   */\n      swap4\n        /* \"#utility.yul\":14:300   */\n      swap3\n      pop\n      pop\n      pop\n      jump\t// out\n        /* \"#utility.yul\":497:670   */\n    tag_376:\n        /* \"#utility.yul\":565:585   */\n      dup1\n      calldataload\n      sub(shl(0xa0, 0x01), 0x01)\n        /* \"#utility.yul\":614:645   */\n      dup2\n      and\n        /* \"#utility.yul\":604:646   */\n      dup2\n      eq\n        /* \"#utility.yul\":594:664   */\n      tag_336\n      jumpi\n        /* \"#utility.yul\":660:661   */\n      0x00\n        /* \"#utility.yul\":657:658   */\n      dup1\n        /* \"#utility.yul\":650:662   */\n      revert\n        /* \"#utility.yul\":675:1003   */\n    tag_58:\n        /* \"#utility.yul\":752:758   */\n      0x00\n        /* \"#utility.yul\":760:766   */\n      dup1\n        /* \"#utility.yul\":768:774   */\n      0x00\n        /* \"#utility.yul\":821:823   */\n      0x60\n        /* \"#utility.yul\":809:818   */\n      dup5\n        /* \"#utility.yul\":800:807   */\n      dup7\n        /* \"#utility.yul\":796:819   */\n      sub\n        /* \"#utility.yul\":792:824   */\n      slt\n        /* \"#utility.yul\":789:841   */\n      iszero\n      tag_386\n      jumpi\n        /* \"#utility.yul\":837:838   */\n      0x00\n        /* \"#utility.yul\":834:835   */\n      dup1\n        /* \"#utility.yul\":827:839   */\n      revert\n        /* \"#utility.yul\":789:841   */\n    tag_386:\n        /* \"#utility.yul\":860:889   */\n      tag_387\n        /* \"#utility.yul\":879:888   */\n      dup5\n        /* \"#utility.yul\":860:889   */\n      tag_376\n      jump\t// in\n    tag_387:\n        /* \"#utility.yul\":850:889   */\n      swap3\n      pop\n        /* \"#utility.yul\":908:946   */\n      tag_388\n        /* \"#utility.yul\":942:944   */\n      0x20\n        /* \"#utility.yul\":931:940   */\n      dup6\n        /* \"#utility.yul\":927:945   */\n      add\n        /* \"#utility.yul\":908:946   */\n      tag_376\n      jump\t// in\n    tag_388:\n        /* \"#utility.yul\":898:946   */\n      swap2\n      pop\n        /* \"#utility.yul\":993:995   */\n      0x40\n        /* \"#utility.yul\":982:991   */\n      dup5\n        /* \"#utility.yul\":978:996   */\n      add\n        /* \"#utility.yul\":965:997   */\n      calldataload\n        /* \"#utility.yul\":955:997   */\n      swap1\n      pop\n        /* \"#utility.yul\":675:1003   */\n      swap3\n      pop\n      swap3\n      pop\n      swap3\n      jump\t// out\n        /* \"#utility.yul\":1216:1402   */\n    tag_68:\n        /* \"#utility.yul\":1275:1281   */\n      0x00\n        /* \"#utility.yul\":1328:1330   */\n      0x20\n        /* \"#utility.yul\":1316:1325   */\n      dup3\n        /* \"#utility.yul\":1307:1314   */\n      dup5\n        /* \"#utility.yul\":1303:1326   */\n      sub\n        /* \"#utility.yul\":1299:1331   */\n      slt\n        /* \"#utility.yul\":1296:1348   */\n      iszero\n      tag_391\n      jumpi\n        /* \"#utility.yul\":1344:1345   */\n      0x00\n        /* \"#utility.yul\":1341:1342   */\n      dup1\n        /* \"#utility.yul\":1334:1346   */\n      revert\n        /* \"#utility.yul\":1296:1348   */\n    tag_391:\n        /* \"#utility.yul\":1367:1396   */\n      tag_381\n        /* \"#utility.yul\":1386:1395   */\n      dup3\n        /* \"#utility.yul\":1367:1396   */\n      tag_376\n      jump\t// in\n        /* \"#utility.yul\":1589:1769   */\n    tag_78:\n        /* \"#utility.yul\":1648:1654   */\n      0x00\n        /* \"#utility.yul\":1701:1703   */\n      0x20\n        /* \"#utility.yul\":1689:1698   */\n      dup3\n        /* \"#utility.yul\":1680:1687   */\n      dup5\n        /* \"#utility.yul\":1676:1699   */\n      sub\n        /* \"#utility.yul\":1672:1704   */\n      slt\n        /* \"#utility.yul\":1669:1721   */\n      iszero\n      tag_395\n      jumpi\n        /* \"#utility.yul\":1717:1718   */\n      0x00\n        /* \"#utility.yul\":1714:1715   */\n      dup1\n        /* \"#utility.yul\":1707:1719   */\n      revert\n        /* \"#utility.yul\":1669:1721   */\n    tag_395:\n      pop\n        /* \"#utility.yul\":1740:1763   */\n      calldataload\n      swap2\n        /* \"#utility.yul\":1589:1769   */\n      swap1\n      pop\n      jump\t// out\n        /* \"#utility.yul\":1774:2028   */\n    tag_89:\n        /* \"#utility.yul\":1842:1848   */\n      0x00\n        /* \"#utility.yul\":1850:1856   */\n      dup1\n        /* \"#utility.yul\":1903:1905   */\n      0x40\n        /* \"#utility.yul\":1891:1900   */\n      dup4\n        /* \"#utility.yul\":1882:1889   */\n      dup6\n        /* \"#utility.yul\":1878:1901   */\n      sub\n        /* \"#utility.yul\":1874:1906   */\n      slt\n        /* \"#utility.yul\":1871:1923   */\n      iszero\n      tag_397\n      jumpi\n        /* \"#utility.yul\":1919:1920   */\n      0x00\n        /* \"#utility.yul\":1916:1917   */\n      dup1\n        /* \"#utility.yul\":1909:1921   */\n      revert\n        /* \"#utility.yul\":1871:1923   */\n    tag_397:\n        /* \"#utility.yul\":1955:1964   */\n      dup3\n        /* \"#utility.yul\":1942:1965   */\n      calldataload\n        /* \"#utility.yul\":1932:1965   */\n      swap2\n      pop\n        /* \"#utility.yul\":1984:2022   */\n      tag_398\n        /* \"#utility.yul\":2018:2020   */\n      0x20\n        /* \"#utility.yul\":2007:2016   */\n      dup5\n        /* \"#utility.yul\":2003:2021   */\n      add\n        /* \"#utility.yul\":1984:2022   */\n      tag_376\n      jump\t// in\n    tag_398:\n        /* \"#utility.yul\":1974:2022   */\n      swap1\n      pop\n        /* \"#utility.yul\":1774:2028   */\n      swap3\n      pop\n      swap3\n      swap1\n      pop\n      jump\t// out\n        /* \"#utility.yul\":2033:2293   */\n    tag_102:\n        /* \"#utility.yul\":2101:2107   */\n      0x00\n        /* \"#utility.yul\":2109:2115   */\n      dup1\n        /* \"#utility.yul\":2162:2164   */\n      0x40\n        /* \"#utility.yul\":2150:2159   */\n      dup4\n        /* \"#utility.yul\":2141:2148   */\n      dup6\n        /* \"#utility.yul\":2137:2160   */\n      sub\n        /* \"#utility.yul\":2133:2165   */\n      slt\n        /* \"#utility.yul\":2130:2182   */\n      iszero\n      tag_400\n      jumpi\n        /* \"#utility.yul\":2178:2179   */\n      0x00\n        /* \"#utility.yul\":2175:2176   */\n      dup1\n        /* \"#utility.yul\":2168:2180   */\n      revert\n        /* \"#utility.yul\":2130:2182   */\n    tag_400:\n        /* \"#utility.yul\":2201:2230   */\n      tag_401\n        /* \"#utility.yul\":2220:2229   */\n      dup4\n        /* \"#utility.yul\":2201:2230   */\n      tag_376\n      jump\t// in\n    tag_401:\n        /* \"#utility.yul\":2191:2230   */\n      swap2\n      pop\n        /* \"#utility.yul\":2249:2287   */\n      tag_398\n        /* \"#utility.yul\":2283:2285   */\n      0x20\n        /* \"#utility.yul\":2272:2281   */\n      dup5\n        /* \"#utility.yul\":2268:2286   */\n      add\n        /* \"#utility.yul\":2249:2287   */\n      tag_376\n      jump\t// in\n        /* \"#utility.yul\":2298:2992   */\n    tag_107:\n        /* \"#utility.yul\":2392:2398   */\n      0x00\n        /* \"#utility.yul\":2400:2406   */\n      dup1\n        /* \"#utility.yul\":2408:2414   */\n      0x00\n        /* \"#utility.yul\":2461:2463   */\n      0x40\n        /* \"#utility.yul\":2449:2458   */\n      dup5\n        /* \"#utility.yul\":2440:2447   */\n      dup7\n        /* \"#utility.yul\":2436:2459   */\n      sub\n        /* \"#utility.yul\":2432:2464   */\n      slt\n        /* \"#utility.yul\":2429:2481   */\n      iszero\n      tag_404\n      jumpi\n        /* \"#utility.yul\":2477:2478   */\n      0x00\n        /* \"#utility.yul\":2474:2475   */\n      dup1\n        /* \"#utility.yul\":2467:2479   */\n      revert\n        /* \"#utility.yul\":2429:2481   */\n    tag_404:\n        /* \"#utility.yul\":2517:2526   */\n      dup4\n        /* \"#utility.yul\":2504:2527   */\n      calldataload\n        /* \"#utility.yul\":2546:2564   */\n      0xffffffffffffffff\n        /* \"#utility.yul\":2587:2589   */\n      dup1\n        /* \"#utility.yul\":2579:2585   */\n      dup3\n        /* \"#utility.yul\":2576:2590   */\n      gt\n        /* \"#utility.yul\":2573:2607   */\n      iszero\n      tag_405\n      jumpi\n        /* \"#utility.yul\":2603:2604   */\n      0x00\n        /* \"#utility.yul\":2600:2601   */\n      dup1\n        /* \"#utility.yul\":2593:2605   */\n      revert\n        /* \"#utility.yul\":2573:2607   */\n    tag_405:\n        /* \"#utility.yul\":2641:2647   */\n      dup2\n        /* \"#utility.yul\":2630:2639   */\n      dup7\n        /* \"#utility.yul\":2626:2648   */\n      add\n        /* \"#utility.yul\":2616:2648   */\n      swap2\n      pop\n        /* \"#utility.yul\":2686:2693   */\n      dup7\n        /* \"#utility.yul\":2679:2683   */\n      0x1f\n        /* \"#utility.yul\":2675:2677   */\n      dup4\n        /* \"#utility.yul\":2671:2684   */\n      add\n        /* \"#utility.yul\":2667:2694   */\n      slt\n        /* \"#utility.yul\":2657:2712   */\n      tag_406\n      jumpi\n        /* \"#utility.yul\":2708:2709   */\n      0x00\n        /* \"#utility.yul\":2705:2706   */\n      dup1\n        /* \"#utility.yul\":2698:2710   */\n      revert\n        /* \"#utility.yul\":2657:2712   */\n    tag_406:\n        /* \"#utility.yul\":2748:2750   */\n      dup2\n        /* \"#utility.yul\":2735:2751   */\n      calldataload\n        /* \"#utility.yul\":2774:2776   */\n      dup2\n        /* \"#utility.yul\":2766:2772   */\n      dup2\n        /* \"#utility.yul\":2763:2777   */\n      gt\n        /* \"#utility.yul\":2760:2794   */\n      iszero\n      tag_407\n      jumpi\n        /* \"#utility.yul\":2790:2791   */\n      0x00\n        /* \"#utility.yul\":2787:2788   */\n      dup1\n        /* \"#utility.yul\":2780:2792   */\n      revert\n        /* \"#utility.yul\":2760:2794   */\n    tag_407:\n        /* \"#utility.yul\":2845:2852   */\n      dup8\n        /* \"#utility.yul\":2838:2842   */\n      0x20\n        /* \"#utility.yul\":2828:2834   */\n      dup3\n        /* \"#utility.yul\":2825:2826   */\n      0x05\n        /* \"#utility.yul\":2821:2835   */\n      shl\n        /* \"#utility.yul\":2817:2819   */\n      dup6\n        /* \"#utility.yul\":2813:2836   */\n      add\n        /* \"#utility.yul\":2809:2843   */\n      add\n        /* \"#utility.yul\":2806:2853   */\n      gt\n        /* \"#utility.yul\":2803:2870   */\n      iszero\n      tag_408\n      jumpi\n        /* \"#utility.yul\":2866:2867   */\n      0x00\n        /* \"#utility.yul\":2863:2864   */\n      dup1\n        /* \"#utility.yul\":2856:2868   */\n      revert\n        /* \"#utility.yul\":2803:2870   */\n    tag_408:\n        /* \"#utility.yul\":2897:2901   */\n      0x20\n        /* \"#utility.yul\":2889:2902   */\n      swap3\n      dup4\n      add\n      swap6\n      pop\n        /* \"#utility.yul\":2921:2927   */\n      swap4\n      pop\n        /* \"#utility.yul\":2946:2986   */\n      tag_409\n      swap2\n        /* \"#utility.yul\":2965:2985   */\n      dup7\n      add\n      swap1\n      pop\n        /* \"#utility.yul\":2946:2986   */\n      tag_376\n      jump\t// in\n    tag_409:\n        /* \"#utility.yul\":2936:2986   */\n      swap1\n      pop\n        /* \"#utility.yul\":2298:2992   */\n      swap3\n      pop\n      swap3\n      pop\n      swap3\n      jump\t// out\n        /* \"#utility.yul\":2997:3157   */\n    tag_377:\n        /* \"#utility.yul\":3062:3082   */\n      dup1\n      calldataload\n        /* \"#utility.yul\":3118:3131   */\n      dup1\n      iszero\n        /* \"#utility.yul\":3111:3132   */\n      iszero\n        /* \"#utility.yul\":3101:3133   */\n      dup2\n      eq\n        /* \"#utility.yul\":3091:3151   */\n      tag_336\n      jumpi\n        /* \"#utility.yul\":3147:3148   */\n      0x00\n        /* \"#utility.yul\":3144:3145   */\n      dup1\n        /* \"#utility.yul\":3137:3149   */\n      revert\n        /* \"#utility.yul\":3162:3416   */\n    tag_126:\n        /* \"#utility.yul\":3227:3233   */\n      0x00\n        /* \"#utility.yul\":3235:3241   */\n      dup1\n        /* \"#utility.yul\":3288:3290   */\n      0x40\n        /* \"#utility.yul\":3276:3285   */\n      dup4\n        /* \"#utility.yul\":3267:3274   */\n      dup6\n        /* \"#utility.yul\":3263:3286   */\n      sub\n        /* \"#utility.yul\":3259:3291   */\n      slt\n        /* \"#utility.yul\":3256:3308   */\n      iszero\n      tag_413\n      jumpi\n        /* \"#utility.yul\":3304:3305   */\n      0x00\n        /* \"#utility.yul\":3301:3302   */\n      dup1\n        /* \"#utility.yul\":3294:3306   */\n      revert\n        /* \"#utility.yul\":3256:3308   */\n    tag_413:\n        /* \"#utility.yul\":3327:3356   */\n      tag_414\n        /* \"#utility.yul\":3346:3355   */\n      dup4\n        /* \"#utility.yul\":3327:3356   */\n      tag_376\n      jump\t// in\n    tag_414:\n        /* \"#utility.yul\":3317:3356   */\n      swap2\n      pop\n        /* \"#utility.yul\":3375:3410   */\n      tag_398\n        /* \"#utility.yul\":3406:3408   */\n      0x20\n        /* \"#utility.yul\":3395:3404   */\n      dup5\n        /* \"#utility.yul\":3391:3409   */\n      add\n        /* \"#utility.yul\":3375:3410   */\n      tag_377\n      jump\t// in\n        /* \"#utility.yul\":3421:3601   */\n    tag_147:\n        /* \"#utility.yul\":3477:3483   */\n      0x00\n        /* \"#utility.yul\":3530:3532   */\n      0x20\n        /* \"#utility.yul\":3518:3527   */\n      dup3\n        /* \"#utility.yul\":3509:3516   */\n      dup5\n        /* \"#utility.yul\":3505:3528   */\n      sub\n        /* \"#utility.yul\":3501:3533   */\n      slt\n        /* \"#utility.yul\":3498:3550   */\n      iszero\n      tag_417\n      jumpi\n        /* \"#utility.yul\":3546:3547   */\n      0x00\n        /* \"#utility.yul\":3543:3544   */\n      dup1\n        /* \"#utility.yul\":3536:3548   */\n      revert\n        /* \"#utility.yul\":3498:3550   */\n    tag_417:\n        /* \"#utility.yul\":3569:3595   */\n      tag_381\n        /* \"#utility.yul\":3585:3594   */\n      dup3\n        /* \"#utility.yul\":3569:3595   */\n      tag_377\n      jump\t// in\n        /* \"#utility.yul\":3606:3928   */\n    tag_152:\n        /* \"#utility.yul\":3680:3686   */\n      0x00\n        /* \"#utility.yul\":3688:3694   */\n      dup1\n        /* \"#utility.yul\":3696:3702   */\n      0x00\n        /* \"#utility.yul\":3749:3751   */\n      0x60\n        /* \"#utility.yul\":3737:3746   */\n      dup5\n        /* \"#utility.yul\":3728:3735   */\n      dup7\n        /* \"#utility.yul\":3724:3747   */\n      sub\n        /* \"#utility.yul\":3720:3752   */\n      slt\n        /* \"#utility.yul\":3717:3769   */\n      iszero\n      tag_420\n      jumpi\n        /* \"#utility.yul\":3765:3766   */\n      0x00\n        /* \"#utility.yul\":3762:3763   */\n      dup1\n        /* \"#utility.yul\":3755:3767   */\n      revert\n        /* \"#utility.yul\":3717:3769   */\n    tag_420:\n        /* \"#utility.yul\":3788:3817   */\n      tag_421\n        /* \"#utility.yul\":3807:3816   */\n      dup5\n        /* \"#utility.yul\":3788:3817   */\n      tag_376\n      jump\t// in\n    tag_421:\n        /* \"#utility.yul\":3778:3817   */\n      swap3\n      pop\n        /* \"#utility.yul\":3864:3866   */\n      0x20\n        /* \"#utility.yul\":3853:3862   */\n      dup5\n        /* \"#utility.yul\":3849:3867   */\n      add\n        /* \"#utility.yul\":3836:3868   */\n      calldataload\n        /* \"#utility.yul\":3826:3868   */\n      swap2\n      pop\n        /* \"#utility.yul\":3887:3922   */\n      tag_409\n        /* \"#utility.yul\":3918:3920   */\n      0x40\n        /* \"#utility.yul\":3907:3916   */\n      dup6\n        /* \"#utility.yul\":3903:3921   */\n      add\n        /* \"#utility.yul\":3887:3922   */\n      tag_377\n      jump\t// in\n        /* \"#utility.yul\":5878:6276   */\n    tag_220:\n        /* \"#utility.yul\":6080:6082   */\n      0x20\n        /* \"#utility.yul\":6062:6083   */\n      dup1\n      dup3\n      mstore\n        /* \"#utility.yul\":6119:6121   */\n      0x22\n        /* \"#utility.yul\":6099:6117   */\n      swap1\n      dup3\n      add\n        /* \"#utility.yul\":6092:6122   */\n      mstore\n        /* \"#utility.yul\":6158:6192   */\n      0x41636365737369626c653a2043616c6c6572206973206e6f7420616e2061646d\n        /* \"#utility.yul\":6153:6155   */\n      0x40\n        /* \"#utility.yul\":6138:6156   */\n      dup3\n      add\n        /* \"#utility.yul\":6131:6193   */\n      mstore\n      shl(0xf1, 0x34b7)\n        /* \"#utility.yul\":6224:6226   */\n      0x60\n        /* \"#utility.yul\":6209:6227   */\n      dup3\n      add\n        /* \"#utility.yul\":6202:6234   */\n      mstore\n        /* \"#utility.yul\":6266:6269   */\n      0x80\n        /* \"#utility.yul\":6251:6270   */\n      add\n      swap1\n        /* \"#utility.yul\":5878:6276   */\n      jump\t// out\n        /* \"#utility.yul\":7674:7801   */\n    tag_280:\n        /* \"#utility.yul\":7735:7745   */\n      0x4e487b71\n        /* \"#utility.yul\":7730:7733   */\n      0xe0\n        /* \"#utility.yul\":7726:7746   */\n      shl\n        /* \"#utility.yul\":7723:7724   */\n      0x00\n        /* \"#utility.yul\":7716:7747   */\n      mstore\n        /* \"#utility.yul\":7766:7770   */\n      0x32\n        /* \"#utility.yul\":7763:7764   */\n      0x04\n        /* \"#utility.yul\":7756:7771   */\n      mstore\n        /* \"#utility.yul\":7790:7794   */\n      0x24\n        /* \"#utility.yul\":7787:7788   */\n      0x00\n        /* \"#utility.yul\":7780:7795   */\n      revert\n    stop\n    data_0eb5be412f275a18f6e4d622aee4ff40b21467c926224771b782d4c095d1444b a6eef7e35abe7026729641147f7915573c7e97b47efa546f5f6e3230263bcb49\n    data_a29c3f0504a76c686875ea2f0fc314af702d3407223f14a34325f35a1858bd3b df8b4c520ffe197c5343c6f5aec59570151ef9a492f2c624fd45ddde6135ec42\n\n    auxdata: 0xa2646970667358221220b27fa63a75634b09dd5c1cac5d6cc39becae59a1a5d0086bbd5ab53a428db1a164736f6c63430008180033\n}\n",
				"bytecode": {
					"linkReferences": {},
					"object": "608060405234801561000f575f80fd5b506100285f805160206200165c83398151915280610046565b6100405f805160206200165c83398151915233610090565b5061013d565b5f82815260046020526040808220600101805490849055905190918391839186917fbd79b86ffe0ab8e8776151514217cd7cacd52c909f66475c3af44e129f0b00ff9190a4505050565b5f8281526004602090815260408083206001600160a01b038516845290915281205460ff16610134575f8381526004602090815260408083206001600160a01b03861684529091529020805460ff191660011790556100ec3390565b6001600160a01b0316826001600160a01b0316847f2f8788117e7eff1d82e926ec794901d17c78024a50270940304540a733656f0d60405160405180910390a4506001610137565b505f5b92915050565b611511806200014b5f395ff3fe6080604052600436106101e6575f3560e01c806363a8fd891161010157806391d1485411610094578063d547741f11610063578063d547741f146105e8578063e59f69c214610607578063f43b361314610666578063f5869c2f14610685576101ed565b806391d148541461056d578063a1e89aec1461058c578063a217fddf146105a1578063b911135f146105b4576101ed565b80637cb00d25116100d05780637cb00d25146104f15780637cd5f663146105105780638b8f4a651461052f5780638d4fdb401461054e576101ed565b806363a8fd891461047b578063704802751461049357806375829def146104b257806375b238fc146104d1576101ed565b806336568abe1161017957806350d2a2761161014857806350d2a276146103c9578063550d01a3146103fd5780635c60da1b1461042b5780635cc797d81461045c576101ed565b806336568abe1461034d5780633659cfe61461036c578063485cc9551461038b5780634a5df50f146103aa576101ed565b806322985246116101b557806322985246146102a0578063248a9ca3146102e157806324d7806c1461030f5780632f2ff15d1461032e576101ed565b806301ffc9a7146101f75780631230b14c1461022b57806316e017241461024a5780631785f53c14610281576101ed565b366101ed57005b6101f5610765565b005b348015610202575f80fd5b50610216610211366004611249565b61080a565b60405190151581526020015b60405180910390f35b348015610236575f80fd5b506101f561024536600461128d565b610840565b348015610255575f80fd5b50600654610269906001600160a01b031681565b6040516001600160a01b039091168152602001610222565b34801561028c575f80fd5b506101f561029b3660046112c6565b6108ba565b3480156102ab575f80fd5b506102d37ffb5864e8ff833c3cb2d2d08505e82ff02a43554c74a35d4f5a64e8526127831181565b604051908152602001610222565b3480156102ec575f80fd5b506102d36102fb3660046112df565b5f9081526004602052604090206001015490565b34801561031a575f80fd5b506102166103293660046112c6565b6108f9565b348015610339575f80fd5b506101f56103483660046112f6565b610911565b348015610358575f80fd5b506101f56103673660046112f6565b61093b565b348015610377575f80fd5b506101f56103863660046112c6565b61096e565b348015610396575f80fd5b506101f56103a5366004611320565b610a78565b3480156103b5575f80fd5b506101f56103c4366004611348565b610acb565b3480156103d4575f80fd5b506102696103e3366004611249565b60036020525f90815260409020546001600160a01b031681565b348015610408575f80fd5b506102166104173660046112c6565b60026020525f908152604090205460ff1681565b348015610436575f80fd5b505f805260016020525f8051602061149c833981519152546001600160a01b0316610269565b348015610467575f80fd5b506101f56104763660046113d4565b610d17565b348015610486575f80fd5b505f546102169060ff1681565b34801561049e575f80fd5b506101f56104ad3660046112c6565b610d4a565b3480156104bd575f80fd5b506101f56104cc3660046112c6565b610d86565b3480156104dc575f80fd5b506102d35f805160206114bc83398151915281565b3480156104fc575f80fd5b506101f561050b3660046113fc565b610e80565b34801561051b575f80fd5b506101f561052a366004611415565b610eb7565b34801561053a575f80fd5b506102696105493660046112df565b610ee7565b348015610559575f80fd5b50610269610568366004611249565b610f03565b348015610578575f80fd5b506102166105873660046112f6565b610fd4565b348015610597575f80fd5b506102d360075481565b3480156105ac575f80fd5b506102d35f81565b3480156105bf575f80fd5b506102696105ce3660046112df565b60016020525f90815260409020546001600160a01b031681565b3480156105f3575f80fd5b506101f56106023660046112f6565b610ffe565b348015610612575f80fd5b506106466106213660046112df565b600a6020525f9081526040902080546001909101546001600160a01b03918216911682565b604080516001600160a01b03938416815292909116602083015201610222565b348015610671575f80fd5b50600554610269906001600160a01b031681565b348015610690575f80fd5b5061070461069f3660046112df565b600860208190525f918252604090912080546001820154600283015460038401546004850154600586015460068701546007880154988801546009909801546001600160a01b039788169996881698958816979485169693909416949193909291908a565b604080516001600160a01b039b8c168152998b1660208b0152978a1697890197909752948816606088015296909216608086015260a085015260c084015260e083019390935261010082019290925261012081019190915261014001610222565b5f61077a5f356001600160e01b031916610f03565b90506001600160a01b0381161580159061079657505f5460ff16155b6107e75760405162461bcd60e51b815260206004820152601d60248201527f50726f78793a20696d706c204f522070726f78792069732066616c736500000060448201526064015b60405180910390fd5b365f80375f80365f845af43d5f803e808015610801573d5ff35b3d5ffd5b505050565b5f6001600160e01b03198216637965db0b60e01b148061083a57506301ffc9a760e01b6001600160e01b03198316145b92915050565b610849336108f9565b6108655760405162461bcd60e51b81526004016107de90611445565b6040805180820182526001600160a01b03948516815292841660208085019182525f938452600a90529120915182549084166001600160a01b0319918216178355905160019092018054929093169116179055565b6108c3336108f9565b6108df5760405162461bcd60e51b81526004016107de90611445565b6108f65f805160206114bc8339815191528261093b565b50565b5f61083a5f805160206114bc83398151915283610fd4565b5f8281526004602052604090206001015461092b81611022565b610935838361102c565b50505050565b6001600160a01b03811633146109645760405163334bd91960e11b815260040160405180910390fd5b61080582826110bd565b610977336108f9565b6109935760405162461bcd60e51b81526004016107de90611445565b6001600160a01b0381166109d95760405162461bcd60e51b815260206004820152600d60248201526c696e707574206973207a65726f60981b60448201526064016107de565b5f805260016020525f8051602061149c833981519152546001600160a01b03828116911603610a365760405162461bcd60e51b815260206004820152600960248201526839b0b6b29030b2323960b91b60448201526064016107de565b610a42815f6001611128565b6040516001600160a01b038216907fbc7cd75a20ee27fd9adebab32041f755214dbc6bffa90cc0225b39da2e5c2d3b905f90a250565b610a81336108f9565b610a9d5760405162461bcd60e51b81526004016107de90611445565b600580546001600160a01b039384166001600160a01b03199182161790915560068054929093169116179055565b610ad4336108f9565b610af05760405162461bcd60e51b81526004016107de90611445565b81610b3d5760405162461bcd60e51b815260206004820181905260248201527f50726f78793a205f73656c6563746f727327732073697a65206973207a65726f60448201526064016107de565b6001600160a01b0381165f9081526002602052604090205460ff16610ba45760405162461bcd60e51b815260206004820152601860248201527f50726f78793a205f696d70206973206e6f7420616c697665000000000000000060448201526064016107de565b5f5b8281101561093557816001600160a01b031660035f868685818110610bcd57610bcd611487565b9050602002016020810190610be29190611249565b6001600160e01b031916815260208101919091526040015f20546001600160a01b031603610c525760405162461bcd60e51b815260206004820152601d60248201527f4c69717569646974795661756c7450726f78793a2073616d6520696d7000000060448201526064016107de565b8160035f868685818110610c6857610c68611487565b9050602002016020810190610c7d9190611249565b6001600160e01b031916815260208101919091526040015f2080546001600160a01b0319166001600160a01b039283161790558216848483818110610cc457610cc4611487565b9050602002016020810190610cd99190611249565b6001600160e01b0319167f14ebc1c32aa68f4d766e89f3e546cee249f7df25183fc10ab1568d91c2ce9b7b60405160405180910390a3600101610ba6565b610d20336108f9565b610d3c5760405162461bcd60e51b81526004016107de90611445565b610d4682826111b2565b5050565b610d53336108f9565b610d6f5760405162461bcd60e51b81526004016107de90611445565b6108f65f805160206114bc83398151915282610911565b610d8f336108f9565b610dab5760405162461bcd60e51b81526004016107de90611445565b6001600160a01b038116610e015760405162461bcd60e51b815260206004820152601860248201527f41636365737369626c653a207a65726f2061646472657373000000000000000060448201526064016107de565b6001600160a01b0381163303610e525760405162461bcd60e51b815260206004820152601660248201527520b1b1b2b9b9b4b136329d1039b0b6b29030b236b4b760511b60448201526064016107de565b610e695f805160206114bc83398151915282610911565b6108f65f805160206114bc8339815191523361093b565b610e89336108f9565b610ea55760405162461bcd60e51b81526004016107de90611445565b5f805460ff1916911515919091179055565b610ec0336108f9565b610edc5760405162461bcd60e51b81526004016107de90611445565b610805838383611128565b5f818152600160205260408120546001600160a01b031661083a565b6001600160e01b031981165f908152600360205260408120546001600160a01b0316610f4e5750505f805260016020525f8051602061149c833981519152546001600160a01b031690565b6001600160e01b031982165f908152600360209081526040808320546001600160a01b03168352600290915290205460ff1615610faa57506001600160e01b0319165f908152600360205260409020546001600160a01b031690565b50505f805260016020525f8051602061149c833981519152546001600160a01b031690565b919050565b5f9182526004602090815260408084206001600160a01b0393909316845291905290205460ff1690565b5f8281526004602052604090206001015461101881611022565b61093583836110bd565b6108f68133611210565b5f6110378383610fd4565b6110b6575f8381526004602090815260408083206001600160a01b03861684529091529020805460ff1916600117905561106e3390565b6001600160a01b0316826001600160a01b0316847f2f8788117e7eff1d82e926ec794901d17c78024a50270940304540a733656f0d60405160405180910390a450600161083a565b505f61083a565b5f6110c88383610fd4565b156110b6575f8381526004602090815260408083206001600160a01b0386168085529252808320805460ff1916905551339286917ff6391f5c32d9c69d2a47ea670b442974b53935d1edc7fd64eb21e047a839171b9190a450600161083a565b6001600160a01b0383163b61117f5760405162461bcd60e51b815260206004820152601b60248201527f50726f78793a206e6f7420636f6e74726163742061646472657373000000000060448201526064016107de565b80156111ac575f82815260016020526040902080546001600160a01b0319166001600160a01b0385161790555b61080583825b6001600160a01b0382165f81815260026020908152604091829020805460ff191685151590811790915591519182527f72558d9bfba4210f9ef095c782589484151f6d90f7a81bb3cb9b33efc695d324910160405180910390a25050565b61121a8282610fd4565b610d465760405163e2517d3f60e01b81526001600160a01b0382166004820152602481018390526044016107de565b5f60208284031215611259575f80fd5b81356001600160e01b031981168114611270575f80fd5b9392505050565b80356001600160a01b0381168114610fcf575f80fd5b5f805f6060848603121561129f575f80fd5b6112a884611277565b92506112b660208501611277565b9150604084013590509250925092565b5f602082840312156112d6575f80fd5b61127082611277565b5f602082840312156112ef575f80fd5b5035919050565b5f8060408385031215611307575f80fd5b8235915061131760208401611277565b90509250929050565b5f8060408385031215611331575f80fd5b61133a83611277565b915061131760208401611277565b5f805f6040848603121561135a575f80fd5b833567ffffffffffffffff80821115611371575f80fd5b818601915086601f830112611384575f80fd5b813581811115611392575f80fd5b8760208260051b85010111156113a6575f80fd5b6020928301955093506113bc9186019050611277565b90509250925092565b80358015158114610fcf575f80fd5b5f80604083850312156113e5575f80fd5b6113ee83611277565b9150611317602084016113c5565b5f6020828403121561140c575f80fd5b611270826113c5565b5f805f60608486031215611427575f80fd5b61143084611277565b9250602084013591506113bc604085016113c5565b60208082526022908201527f41636365737369626c653a2043616c6c6572206973206e6f7420616e2061646d60408201526134b760f11b606082015260800190565b634e487b7160e01b5f52603260045260245ffdfea6eef7e35abe7026729641147f7915573c7e97b47efa546f5f6e3230263bcb49df8b4c520ffe197c5343c6f5aec59570151ef9a492f2c624fd45ddde6135ec42a2646970667358221220b27fa63a75634b09dd5c1cac5d6cc39becae59a1a5d0086bbd5ab53a428db1a164736f6c63430008180033df8b4c520ffe197c5343c6f5aec59570151ef9a492f2c624fd45ddde6135ec42",
					"opcodes": "PUSH1 0x80 PUSH1 0x40 MSTORE CALLVALUE DUP1 ISZERO PUSH2 0xF JUMPI PUSH0 DUP1 REVERT JUMPDEST POP PUSH2 0x28 PUSH0 DUP1 MLOAD PUSH1 0x20 PUSH3 0x165C DUP4 CODECOPY DUP2 MLOAD SWAP2 MSTORE DUP1 PUSH2 0x46 JUMP JUMPDEST PUSH2 0x40 PUSH0 DUP1 MLOAD PUSH1 0x20 PUSH3 0x165C DUP4 CODECOPY DUP2 MLOAD SWAP2 MSTORE CALLER PUSH2 0x90 JUMP JUMPDEST POP PUSH2 0x13D JUMP JUMPDEST PUSH0 DUP3 DUP2 MSTORE PUSH1 0x4 PUSH1 0x20 MSTORE PUSH1 0x40 DUP1 DUP3 KECCAK256 PUSH1 0x1 ADD DUP1 SLOAD SWAP1 DUP5 SWAP1 SSTORE SWAP1 MLOAD SWAP1 SWAP2 DUP4 SWAP2 DUP4 SWAP2 DUP7 SWAP2 PUSH32 0xBD79B86FFE0AB8E8776151514217CD7CACD52C909F66475C3AF44E129F0B00FF SWAP2 SWAP1 LOG4 POP POP POP JUMP JUMPDEST PUSH0 DUP3 DUP2 MSTORE PUSH1 0x4 PUSH1 0x20 SWAP1 DUP2 MSTORE PUSH1 0x40 DUP1 DUP4 KECCAK256 PUSH1 0x1 PUSH1 0x1 PUSH1 0xA0 SHL SUB DUP6 AND DUP5 MSTORE SWAP1 SWAP2 MSTORE DUP2 KECCAK256 SLOAD PUSH1 0xFF AND PUSH2 0x134 JUMPI PUSH0 DUP4 DUP2 MSTORE PUSH1 0x4 PUSH1 0x20 SWAP1 DUP2 MSTORE PUSH1 0x40 DUP1 DUP4 KECCAK256 PUSH1 0x1 PUSH1 0x1 PUSH1 0xA0 SHL SUB DUP7 AND DUP5 MSTORE SWAP1 SWAP2 MSTORE SWAP1 KECCAK256 DUP1 SLOAD PUSH1 0xFF NOT AND PUSH1 0x1 OR SWAP1 SSTORE PUSH2 0xEC CALLER SWAP1 JUMP JUMPDEST PUSH1 0x1 PUSH1 0x1 PUSH1 0xA0 SHL SUB AND DUP3 PUSH1 0x1 PUSH1 0x1 PUSH1 0xA0 SHL SUB AND DUP5 PUSH32 0x2F8788117E7EFF1D82E926EC794901D17C78024A50270940304540A733656F0D PUSH1 0x40 MLOAD PUSH1 0x40 MLOAD DUP1 SWAP2 SUB SWAP1 LOG4 POP PUSH1 0x1 PUSH2 0x137 JUMP JUMPDEST POP PUSH0 JUMPDEST SWAP3 SWAP2 POP POP JUMP JUMPDEST PUSH2 0x1511 DUP1 PUSH3 0x14B PUSH0 CODECOPY PUSH0 RETURN INVALID PUSH1 0x80 PUSH1 0x40 MSTORE PUSH1 0x4 CALLDATASIZE LT PUSH2 0x1E6 JUMPI PUSH0 CALLDATALOAD PUSH1 0xE0 SHR DUP1 PUSH4 0x63A8FD89 GT PUSH2 0x101 JUMPI DUP1 PUSH4 0x91D14854 GT PUSH2 0x94 JUMPI DUP1 PUSH4 0xD547741F GT PUSH2 0x63 JUMPI DUP1 PUSH4 0xD547741F EQ PUSH2 0x5E8 JUMPI DUP1 PUSH4 0xE59F69C2 EQ PUSH2 0x607 JUMPI DUP1 PUSH4 0xF43B3613 EQ PUSH2 0x666 JUMPI DUP1 PUSH4 0xF5869C2F EQ PUSH2 0x685 JUMPI PUSH2 0x1ED JUMP JUMPDEST DUP1 PUSH4 0x91D14854 EQ PUSH2 0x56D JUMPI DUP1 PUSH4 0xA1E89AEC EQ PUSH2 0x58C JUMPI DUP1 PUSH4 0xA217FDDF EQ PUSH2 0x5A1 JUMPI DUP1 PUSH4 0xB911135F EQ PUSH2 0x5B4 JUMPI PUSH2 0x1ED JUMP JUMPDEST DUP1 PUSH4 0x7CB00D25 GT PUSH2 0xD0 JUMPI DUP1 PUSH4 0x7CB00D25 EQ PUSH2 0x4F1 JUMPI DUP1 PUSH4 0x7CD5F663 EQ PUSH2 0x510 JUMPI DUP1 PUSH4 0x8B8F4A65 EQ PUSH2 0x52F JUMPI DUP1 PUSH4 0x8D4FDB40 EQ PUSH2 0x54E JUMPI PUSH2 0x1ED JUMP JUMPDEST DUP1 PUSH4 0x63A8FD89 EQ PUSH2 0x47B JUMPI DUP1 PUSH4 0x70480275 EQ PUSH2 0x493 JUMPI DUP1 PUSH4 0x75829DEF EQ PUSH2 0x4B2 JUMPI DUP1 PUSH4 0x75B238FC EQ PUSH2 0x4D1 JUMPI PUSH2 0x1ED JUMP JUMPDEST DUP1 PUSH4 0x36568ABE GT PUSH2 0x179 JUMPI DUP1 PUSH4 0x50D2A276 GT PUSH2 0x148 JUMPI DUP1 PUSH4 0x50D2A276 EQ PUSH2 0x3C9 JUMPI DUP1 PUSH4 0x550D01A3 EQ PUSH2 0x3FD JUMPI DUP1 PUSH4 0x5C60DA1B EQ PUSH2 0x42B JUMPI DUP1 PUSH4 0x5CC797D8 EQ PUSH2 0x45C JUMPI PUSH2 0x1ED JUMP JUMPDEST DUP1 PUSH4 0x36568ABE EQ PUSH2 0x34D JUMPI DUP1 PUSH4 0x3659CFE6 EQ PUSH2 0x36C JUMPI DUP1 PUSH4 0x485CC955 EQ PUSH2 0x38B JUMPI DUP1 PUSH4 0x4A5DF50F EQ PUSH2 0x3AA JUMPI PUSH2 0x1ED JUMP JUMPDEST DUP1 PUSH4 0x22985246 GT PUSH2 0x1B5 JUMPI DUP1 PUSH4 0x22985246 EQ PUSH2 0x2A0 JUMPI DUP1 PUSH4 0x248A9CA3 EQ PUSH2 0x2E1 JUMPI DUP1 PUSH4 0x24D7806C EQ PUSH2 0x30F JUMPI DUP1 PUSH4 0x2F2FF15D EQ PUSH2 0x32E JUMPI PUSH2 0x1ED JUMP JUMPDEST DUP1 PUSH4 0x1FFC9A7 EQ PUSH2 0x1F7 JUMPI DUP1 PUSH4 0x1230B14C EQ PUSH2 0x22B JUMPI DUP1 PUSH4 0x16E01724 EQ PUSH2 0x24A JUMPI DUP1 PUSH4 0x1785F53C EQ PUSH2 0x281 JUMPI PUSH2 0x1ED JUMP JUMPDEST CALLDATASIZE PUSH2 0x1ED JUMPI STOP JUMPDEST PUSH2 0x1F5 PUSH2 0x765 JUMP JUMPDEST STOP JUMPDEST CALLVALUE DUP1 ISZERO PUSH2 0x202 JUMPI PUSH0 DUP1 REVERT JUMPDEST POP PUSH2 0x216 PUSH2 0x211 CALLDATASIZE PUSH1 0x4 PUSH2 0x1249 JUMP JUMPDEST PUSH2 0x80A JUMP JUMPDEST PUSH1 0x40 MLOAD SWAP1 ISZERO ISZERO DUP2 MSTORE PUSH1 0x20 ADD JUMPDEST PUSH1 0x40 MLOAD DUP1 SWAP2 SUB SWAP1 RETURN JUMPDEST CALLVALUE DUP1 ISZERO PUSH2 0x236 JUMPI PUSH0 DUP1 REVERT JUMPDEST POP PUSH2 0x1F5 PUSH2 0x245 CALLDATASIZE PUSH1 0x4 PUSH2 0x128D JUMP JUMPDEST PUSH2 0x840 JUMP JUMPDEST CALLVALUE DUP1 ISZERO PUSH2 0x255 JUMPI PUSH0 DUP1 REVERT JUMPDEST POP PUSH1 0x6 SLOAD PUSH2 0x269 SWAP1 PUSH1 0x1 PUSH1 0x1 PUSH1 0xA0 SHL SUB AND DUP2 JUMP JUMPDEST PUSH1 0x40 MLOAD PUSH1 0x1 PUSH1 0x1 PUSH1 0xA0 SHL SUB SWAP1 SWAP2 AND DUP2 MSTORE PUSH1 0x20 ADD PUSH2 0x222 JUMP JUMPDEST CALLVALUE DUP1 ISZERO PUSH2 0x28C JUMPI PUSH0 DUP1 REVERT JUMPDEST POP PUSH2 0x1F5 PUSH2 0x29B CALLDATASIZE PUSH1 0x4 PUSH2 0x12C6 JUMP JUMPDEST PUSH2 0x8BA JUMP JUMPDEST CALLVALUE DUP1 ISZERO PUSH2 0x2AB JUMPI PUSH0 DUP1 REVERT JUMPDEST POP PUSH2 0x2D3 PUSH32 0xFB5864E8FF833C3CB2D2D08505E82FF02A43554C74A35D4F5A64E85261278311 DUP2 JUMP JUMPDEST PUSH1 0x40 MLOAD SWAP1 DUP2 MSTORE PUSH1 0x20 ADD PUSH2 0x222 JUMP JUMPDEST CALLVALUE DUP1 ISZERO PUSH2 0x2EC JUMPI PUSH0 DUP1 REVERT JUMPDEST POP PUSH2 0x2D3 PUSH2 0x2FB CALLDATASIZE PUSH1 0x4 PUSH2 0x12DF JUMP JUMPDEST PUSH0 SWAP1 DUP2 MSTORE PUSH1 0x4 PUSH1 0x20 MSTORE PUSH1 0x40 SWAP1 KECCAK256 PUSH1 0x1 ADD SLOAD SWAP1 JUMP JUMPDEST CALLVALUE DUP1 ISZERO PUSH2 0x31A JUMPI PUSH0 DUP1 REVERT JUMPDEST POP PUSH2 0x216 PUSH2 0x329 CALLDATASIZE PUSH1 0x4 PUSH2 0x12C6 JUMP JUMPDEST PUSH2 0x8F9 JUMP JUMPDEST CALLVALUE DUP1 ISZERO PUSH2 0x339 JUMPI PUSH0 DUP1 REVERT JUMPDEST POP PUSH2 0x1F5 PUSH2 0x348 CALLDATASIZE PUSH1 0x4 PUSH2 0x12F6 JUMP JUMPDEST PUSH2 0x911 JUMP JUMPDEST CALLVALUE DUP1 ISZERO PUSH2 0x358 JUMPI PUSH0 DUP1 REVERT JUMPDEST POP PUSH2 0x1F5 PUSH2 0x367 CALLDATASIZE PUSH1 0x4 PUSH2 0x12F6 JUMP JUMPDEST PUSH2 0x93B JUMP JUMPDEST CALLVALUE DUP1 ISZERO PUSH2 0x377 JUMPI PUSH0 DUP1 REVERT JUMPDEST POP PUSH2 0x1F5 PUSH2 0x386 CALLDATASIZE PUSH1 0x4 PUSH2 0x12C6 JUMP JUMPDEST PUSH2 0x96E JUMP JUMPDEST CALLVALUE DUP1 ISZERO PUSH2 0x396 JUMPI PUSH0 DUP1 REVERT JUMPDEST POP PUSH2 0x1F5 PUSH2 0x3A5 CALLDATASIZE PUSH1 0x4 PUSH2 0x1320 JUMP JUMPDEST PUSH2 0xA78 JUMP JUMPDEST CALLVALUE DUP1 ISZERO PUSH2 0x3B5 JUMPI PUSH0 DUP1 REVERT JUMPDEST POP PUSH2 0x1F5 PUSH2 0x3C4 CALLDATASIZE PUSH1 0x4 PUSH2 0x1348 JUMP JUMPDEST PUSH2 0xACB JUMP JUMPDEST CALLVALUE DUP1 ISZERO PUSH2 0x3D4 JUMPI PUSH0 DUP1 REVERT JUMPDEST POP PUSH2 0x269 PUSH2 0x3E3 CALLDATASIZE PUSH1 0x4 PUSH2 0x1249 JUMP JUMPDEST PUSH1 0x3 PUSH1 0x20 MSTORE PUSH0 SWAP1 DUP2 MSTORE PUSH1 0x40 SWAP1 KECCAK256 SLOAD PUSH1 0x1 PUSH1 0x1 PUSH1 0xA0 SHL SUB AND DUP2 JUMP JUMPDEST CALLVALUE DUP1 ISZERO PUSH2 0x408 JUMPI PUSH0 DUP1 REVERT JUMPDEST POP PUSH2 0x216 PUSH2 0x417 CALLDATASIZE PUSH1 0x4 PUSH2 0x12C6 JUMP JUMPDEST PUSH1 0x2 PUSH1 0x20 MSTORE PUSH0 SWAP1 DUP2 MSTORE PUSH1 0x40 SWAP1 KECCAK256 SLOAD PUSH1 0xFF AND DUP2 JUMP JUMPDEST CALLVALUE DUP1 ISZERO PUSH2 0x436 JUMPI PUSH0 DUP1 REVERT JUMPDEST POP PUSH0 DUP1 MSTORE PUSH1 0x1 PUSH1 0x20 MSTORE PUSH0 DUP1 MLOAD PUSH1 0x20 PUSH2 0x149C DUP4 CODECOPY DUP2 MLOAD SWAP2 MSTORE SLOAD PUSH1 0x1 PUSH1 0x1 PUSH1 0xA0 SHL SUB AND PUSH2 0x269 JUMP JUMPDEST CALLVALUE DUP1 ISZERO PUSH2 0x467 JUMPI PUSH0 DUP1 REVERT JUMPDEST POP PUSH2 0x1F5 PUSH2 0x476 CALLDATASIZE PUSH1 0x4 PUSH2 0x13D4 JUMP JUMPDEST PUSH2 0xD17 JUMP JUMPDEST CALLVALUE DUP1 ISZERO PUSH2 0x486 JUMPI PUSH0 DUP1 REVERT JUMPDEST POP PUSH0 SLOAD PUSH2 0x216 SWAP1 PUSH1 0xFF AND DUP2 JUMP JUMPDEST CALLVALUE DUP1 ISZERO PUSH2 0x49E JUMPI PUSH0 DUP1 REVERT JUMPDEST POP PUSH2 0x1F5 PUSH2 0x4AD CALLDATASIZE PUSH1 0x4 PUSH2 0x12C6 JUMP JUMPDEST PUSH2 0xD4A JUMP JUMPDEST CALLVALUE DUP1 ISZERO PUSH2 0x4BD JUMPI PUSH0 DUP1 REVERT JUMPDEST POP PUSH2 0x1F5 PUSH2 0x4CC CALLDATASIZE PUSH1 0x4 PUSH2 0x12C6 JUMP JUMPDEST PUSH2 0xD86 JUMP JUMPDEST CALLVALUE DUP1 ISZERO PUSH2 0x4DC JUMPI PUSH0 DUP1 REVERT JUMPDEST POP PUSH2 0x2D3 PUSH0 DUP1 MLOAD PUSH1 0x20 PUSH2 0x14BC DUP4 CODECOPY DUP2 MLOAD SWAP2 MSTORE DUP2 JUMP JUMPDEST CALLVALUE DUP1 ISZERO PUSH2 0x4FC JUMPI PUSH0 DUP1 REVERT JUMPDEST POP PUSH2 0x1F5 PUSH2 0x50B CALLDATASIZE PUSH1 0x4 PUSH2 0x13FC JUMP JUMPDEST PUSH2 0xE80 JUMP JUMPDEST CALLVALUE DUP1 ISZERO PUSH2 0x51B JUMPI PUSH0 DUP1 REVERT JUMPDEST POP PUSH2 0x1F5 PUSH2 0x52A CALLDATASIZE PUSH1 0x4 PUSH2 0x1415 JUMP JUMPDEST PUSH2 0xEB7 JUMP JUMPDEST CALLVALUE DUP1 ISZERO PUSH2 0x53A JUMPI PUSH0 DUP1 REVERT JUMPDEST POP PUSH2 0x269 PUSH2 0x549 CALLDATASIZE PUSH1 0x4 PUSH2 0x12DF JUMP JUMPDEST PUSH2 0xEE7 JUMP JUMPDEST CALLVALUE DUP1 ISZERO PUSH2 0x559 JUMPI PUSH0 DUP1 REVERT JUMPDEST POP PUSH2 0x269 PUSH2 0x568 CALLDATASIZE PUSH1 0x4 PUSH2 0x1249 JUMP JUMPDEST PUSH2 0xF03 JUMP JUMPDEST CALLVALUE DUP1 ISZERO PUSH2 0x578 JUMPI PUSH0 DUP1 REVERT JUMPDEST POP PUSH2 0x216 PUSH2 0x587 CALLDATASIZE PUSH1 0x4 PUSH2 0x12F6 JUMP JUMPDEST PUSH2 0xFD4 JUMP JUMPDEST CALLVALUE DUP1 ISZERO PUSH2 0x597 JUMPI PUSH0 DUP1 REVERT JUMPDEST POP PUSH2 0x2D3 PUSH1 0x7 SLOAD DUP2 JUMP JUMPDEST CALLVALUE DUP1 ISZERO PUSH2 0x5AC JUMPI PUSH0 DUP1 REVERT JUMPDEST POP PUSH2 0x2D3 PUSH0 DUP2 JUMP JUMPDEST CALLVALUE DUP1 ISZERO PUSH2 0x5BF JUMPI PUSH0 DUP1 REVERT JUMPDEST POP PUSH2 0x269 PUSH2 0x5CE CALLDATASIZE PUSH1 0x4 PUSH2 0x12DF JUMP JUMPDEST PUSH1 0x1 PUSH1 0x20 MSTORE PUSH0 SWAP1 DUP2 MSTORE PUSH1 0x40 SWAP1 KECCAK256 SLOAD PUSH1 0x1 PUSH1 0x1 PUSH1 0xA0 SHL SUB AND DUP2 JUMP JUMPDEST CALLVALUE DUP1 ISZERO PUSH2 0x5F3 JUMPI PUSH0 DUP1 REVERT JUMPDEST POP PUSH2 0x1F5 PUSH2 0x602 CALLDATASIZE PUSH1 0x4 PUSH2 0x12F6 JUMP JUMPDEST PUSH2 0xFFE JUMP JUMPDEST CALLVALUE DUP1 ISZERO PUSH2 0x612 JUMPI PUSH0 DUP1 REVERT JUMPDEST POP PUSH2 0x646 PUSH2 0x621 CALLDATASIZE PUSH1 0x4 PUSH2 0x12DF JUMP JUMPDEST PUSH1 0xA PUSH1 0x20 MSTORE PUSH0 SWAP1 DUP2 MSTORE PUSH1 0x40 SWAP1 KECCAK256 DUP1 SLOAD PUSH1 0x1 SWAP1 SWAP2 ADD SLOAD PUSH1 0x1 PUSH1 0x1 PUSH1 0xA0 SHL SUB SWAP2 DUP3 AND SWAP2 AND DUP3 JUMP JUMPDEST PUSH1 0x40 DUP1 MLOAD PUSH1 0x1 PUSH1 0x1 PUSH1 0xA0 SHL SUB SWAP4 DUP5 AND DUP2 MSTORE SWAP3 SWAP1 SWAP2 AND PUSH1 0x20 DUP4 ADD MSTORE ADD PUSH2 0x222 JUMP JUMPDEST CALLVALUE DUP1 ISZERO PUSH2 0x671 JUMPI PUSH0 DUP1 REVERT JUMPDEST POP PUSH1 0x5 SLOAD PUSH2 0x269 SWAP1 PUSH1 0x1 PUSH1 0x1 PUSH1 0xA0 SHL SUB AND DUP2 JUMP JUMPDEST CALLVALUE DUP1 ISZERO PUSH2 0x690 JUMPI PUSH0 DUP1 REVERT JUMPDEST POP PUSH2 0x704 PUSH2 0x69F CALLDATASIZE PUSH1 0x4 PUSH2 0x12DF JUMP JUMPDEST PUSH1 0x8 PUSH1 0x20 DUP2 SWAP1 MSTORE PUSH0 SWAP2 DUP3 MSTORE PUSH1 0x40 SWAP1 SWAP2 KECCAK256 DUP1 SLOAD PUSH1 0x1 DUP3 ADD SLOAD PUSH1 0x2 DUP4 ADD SLOAD PUSH1 0x3 DUP5 ADD SLOAD PUSH1 0x4 DUP6 ADD SLOAD PUSH1 0x5 DUP7 ADD SLOAD PUSH1 0x6 DUP8 ADD SLOAD PUSH1 0x7 DUP9 ADD SLOAD SWAP9 DUP9 ADD SLOAD PUSH1 0x9 SWAP1 SWAP9 ADD SLOAD PUSH1 0x1 PUSH1 0x1 PUSH1 0xA0 SHL SUB SWAP8 DUP9 AND SWAP10 SWAP7 DUP9 AND SWAP9 SWAP6 DUP9 AND SWAP8 SWAP5 DUP6 AND SWAP7 SWAP4 SWAP1 SWAP5 AND SWAP5 SWAP2 SWAP4 SWAP1 SWAP3 SWAP2 SWAP1 DUP11 JUMP JUMPDEST PUSH1 0x40 DUP1 MLOAD PUSH1 0x1 PUSH1 0x1 PUSH1 0xA0 SHL SUB SWAP12 DUP13 AND DUP2 MSTORE SWAP10 DUP12 AND PUSH1 0x20 DUP12 ADD MSTORE SWAP8 DUP11 AND SWAP8 DUP10 ADD SWAP8 SWAP1 SWAP8 MSTORE SWAP5 DUP9 AND PUSH1 0x60 DUP9 ADD MSTORE SWAP7 SWAP1 SWAP3 AND PUSH1 0x80 DUP7 ADD MSTORE PUSH1 0xA0 DUP6 ADD MSTORE PUSH1 0xC0 DUP5 ADD MSTORE PUSH1 0xE0 DUP4 ADD SWAP4 SWAP1 SWAP4 MSTORE PUSH2 0x100 DUP3 ADD SWAP3 SWAP1 SWAP3 MSTORE PUSH2 0x120 DUP2 ADD SWAP2 SWAP1 SWAP2 MSTORE PUSH2 0x140 ADD PUSH2 0x222 JUMP JUMPDEST PUSH0 PUSH2 0x77A PUSH0 CALLDATALOAD PUSH1 0x1 PUSH1 0x1 PUSH1 0xE0 SHL SUB NOT AND PUSH2 0xF03 JUMP JUMPDEST SWAP1 POP PUSH1 0x1 PUSH1 0x1 PUSH1 0xA0 SHL SUB DUP2 AND ISZERO DUP1 ISZERO SWAP1 PUSH2 0x796 JUMPI POP PUSH0 SLOAD PUSH1 0xFF AND ISZERO JUMPDEST PUSH2 0x7E7 JUMPI PUSH1 0x40 MLOAD PUSH3 0x461BCD PUSH1 0xE5 SHL DUP2 MSTORE PUSH1 0x20 PUSH1 0x4 DUP3 ADD MSTORE PUSH1 0x1D PUSH1 0x24 DUP3 ADD MSTORE PUSH32 0x50726F78793A20696D706C204F522070726F78792069732066616C7365000000 PUSH1 0x44 DUP3 ADD MSTORE PUSH1 0x64 ADD JUMPDEST PUSH1 0x40 MLOAD DUP1 SWAP2 SUB SWAP1 REVERT JUMPDEST CALLDATASIZE PUSH0 DUP1 CALLDATACOPY PUSH0 DUP1 CALLDATASIZE PUSH0 DUP5 GAS DELEGATECALL RETURNDATASIZE PUSH0 DUP1 RETURNDATACOPY DUP1 DUP1 ISZERO PUSH2 0x801 JUMPI RETURNDATASIZE PUSH0 RETURN JUMPDEST RETURNDATASIZE PUSH0 REVERT JUMPDEST POP POP POP JUMP JUMPDEST PUSH0 PUSH1 0x1 PUSH1 0x1 PUSH1 0xE0 SHL SUB NOT DUP3 AND PUSH4 0x7965DB0B PUSH1 0xE0 SHL EQ DUP1 PUSH2 0x83A JUMPI POP PUSH4 0x1FFC9A7 PUSH1 0xE0 SHL PUSH1 0x1 PUSH1 0x1 PUSH1 0xE0 SHL SUB NOT DUP4 AND EQ JUMPDEST SWAP3 SWAP2 POP POP JUMP JUMPDEST PUSH2 0x849 CALLER PUSH2 0x8F9 JUMP JUMPDEST PUSH2 0x865 JUMPI PUSH1 0x40 MLOAD PUSH3 0x461BCD PUSH1 0xE5 SHL DUP2 MSTORE PUSH1 0x4 ADD PUSH2 0x7DE SWAP1 PUSH2 0x1445 JUMP JUMPDEST PUSH1 0x40 DUP1 MLOAD DUP1 DUP3 ADD DUP3 MSTORE PUSH1 0x1 PUSH1 0x1 PUSH1 0xA0 SHL SUB SWAP5 DUP6 AND DUP2 MSTORE SWAP3 DUP5 AND PUSH1 0x20 DUP1 DUP6 ADD SWAP2 DUP3 MSTORE PUSH0 SWAP4 DUP5 MSTORE PUSH1 0xA SWAP1 MSTORE SWAP2 KECCAK256 SWAP2 MLOAD DUP3 SLOAD SWAP1 DUP5 AND PUSH1 0x1 PUSH1 0x1 PUSH1 0xA0 SHL SUB NOT SWAP2 DUP3 AND OR DUP4 SSTORE SWAP1 MLOAD PUSH1 0x1 SWAP1 SWAP3 ADD DUP1 SLOAD SWAP3 SWAP1 SWAP4 AND SWAP2 AND OR SWAP1 SSTORE JUMP JUMPDEST PUSH2 0x8C3 CALLER PUSH2 0x8F9 JUMP JUMPDEST PUSH2 0x8DF JUMPI PUSH1 0x40 MLOAD PUSH3 0x461BCD PUSH1 0xE5 SHL DUP2 MSTORE PUSH1 0x4 ADD PUSH2 0x7DE SWAP1 PUSH2 0x1445 JUMP JUMPDEST PUSH2 0x8F6 PUSH0 DUP1 MLOAD PUSH1 0x20 PUSH2 0x14BC DUP4 CODECOPY DUP2 MLOAD SWAP2 MSTORE DUP3 PUSH2 0x93B JUMP JUMPDEST POP JUMP JUMPDEST PUSH0 PUSH2 0x83A PUSH0 DUP1 MLOAD PUSH1 0x20 PUSH2 0x14BC DUP4 CODECOPY DUP2 MLOAD SWAP2 MSTORE DUP4 PUSH2 0xFD4 JUMP JUMPDEST PUSH0 DUP3 DUP2 MSTORE PUSH1 0x4 PUSH1 0x20 MSTORE PUSH1 0x40 SWAP1 KECCAK256 PUSH1 0x1 ADD SLOAD PUSH2 0x92B DUP2 PUSH2 0x1022 JUMP JUMPDEST PUSH2 0x935 DUP4 DUP4 PUSH2 0x102C JUMP JUMPDEST POP POP POP POP JUMP JUMPDEST PUSH1 0x1 PUSH1 0x1 PUSH1 0xA0 SHL SUB DUP2 AND CALLER EQ PUSH2 0x964 JUMPI PUSH1 0x40 MLOAD PUSH4 0x334BD919 PUSH1 0xE1 SHL DUP2 MSTORE PUSH1 0x4 ADD PUSH1 0x40 MLOAD DUP1 SWAP2 SUB SWAP1 REVERT JUMPDEST PUSH2 0x805 DUP3 DUP3 PUSH2 0x10BD JUMP JUMPDEST PUSH2 0x977 CALLER PUSH2 0x8F9 JUMP JUMPDEST PUSH2 0x993 JUMPI PUSH1 0x40 MLOAD PUSH3 0x461BCD PUSH1 0xE5 SHL DUP2 MSTORE PUSH1 0x4 ADD PUSH2 0x7DE SWAP1 PUSH2 0x1445 JUMP JUMPDEST PUSH1 0x1 PUSH1 0x1 PUSH1 0xA0 SHL SUB DUP2 AND PUSH2 0x9D9 JUMPI PUSH1 0x40 MLOAD PUSH3 0x461BCD PUSH1 0xE5 SHL DUP2 MSTORE PUSH1 0x20 PUSH1 0x4 DUP3 ADD MSTORE PUSH1 0xD PUSH1 0x24 DUP3 ADD MSTORE PUSH13 0x696E707574206973207A65726F PUSH1 0x98 SHL PUSH1 0x44 DUP3 ADD MSTORE PUSH1 0x64 ADD PUSH2 0x7DE JUMP JUMPDEST PUSH0 DUP1 MSTORE PUSH1 0x1 PUSH1 0x20 MSTORE PUSH0 DUP1 MLOAD PUSH1 0x20 PUSH2 0x149C DUP4 CODECOPY DUP2 MLOAD SWAP2 MSTORE SLOAD PUSH1 0x1 PUSH1 0x1 PUSH1 0xA0 SHL SUB DUP3 DUP2 AND SWAP2 AND SUB PUSH2 0xA36 JUMPI PUSH1 0x40 MLOAD PUSH3 0x461BCD PUSH1 0xE5 SHL DUP2 MSTORE PUSH1 0x20 PUSH1 0x4 DUP3 ADD MSTORE PUSH1 0x9 PUSH1 0x24 DUP3 ADD MSTORE PUSH9 0x39B0B6B29030B23239 PUSH1 0xB9 SHL PUSH1 0x44 DUP3 ADD MSTORE PUSH1 0x64 ADD PUSH2 0x7DE JUMP JUMPDEST PUSH2 0xA42 DUP2 PUSH0 PUSH1 0x1 PUSH2 0x1128 JUMP JUMPDEST PUSH1 0x40 MLOAD PUSH1 0x1 PUSH1 0x1 PUSH1 0xA0 SHL SUB DUP3 AND SWAP1 PUSH32 0xBC7CD75A20EE27FD9ADEBAB32041F755214DBC6BFFA90CC0225B39DA2E5C2D3B SWAP1 PUSH0 SWAP1 LOG2 POP JUMP JUMPDEST PUSH2 0xA81 CALLER PUSH2 0x8F9 JUMP JUMPDEST PUSH2 0xA9D JUMPI PUSH1 0x40 MLOAD PUSH3 0x461BCD PUSH1 0xE5 SHL DUP2 MSTORE PUSH1 0x4 ADD PUSH2 0x7DE SWAP1 PUSH2 0x1445 JUMP JUMPDEST PUSH1 0x5 DUP1 SLOAD PUSH1 0x1 PUSH1 0x1 PUSH1 0xA0 SHL SUB SWAP4 DUP5 AND PUSH1 0x1 PUSH1 0x1 PUSH1 0xA0 SHL SUB NOT SWAP2 DUP3 AND OR SWAP1 SWAP2 SSTORE PUSH1 0x6 DUP1 SLOAD SWAP3 SWAP1 SWAP4 AND SWAP2 AND OR SWAP1 SSTORE JUMP JUMPDEST PUSH2 0xAD4 CALLER PUSH2 0x8F9 JUMP JUMPDEST PUSH2 0xAF0 JUMPI PUSH1 0x40 MLOAD PUSH3 0x461BCD PUSH1 0xE5 SHL DUP2 MSTORE PUSH1 0x4 ADD PUSH2 0x7DE SWAP1 PUSH2 0x1445 JUMP JUMPDEST DUP2 PUSH2 0xB3D JUMPI PUSH1 0x40 MLOAD PUSH3 0x461BCD PUSH1 0xE5 SHL DUP2 MSTORE PUSH1 0x20 PUSH1 0x4 DUP3 ADD DUP2 SWAP1 MSTORE PUSH1 0x24 DUP3 ADD MSTORE PUSH32 0x50726F78793A205F73656C6563746F727327732073697A65206973207A65726F PUSH1 0x44 DUP3 ADD MSTORE PUSH1 0x64 ADD PUSH2 0x7DE JUMP JUMPDEST PUSH1 0x1 PUSH1 0x1 PUSH1 0xA0 SHL SUB DUP2 AND PUSH0 SWAP1 DUP2 MSTORE PUSH1 0x2 PUSH1 0x20 MSTORE PUSH1 0x40 SWAP1 KECCAK256 SLOAD PUSH1 0xFF AND PUSH2 0xBA4 JUMPI PUSH1 0x40 MLOAD PUSH3 0x461BCD PUSH1 0xE5 SHL DUP2 MSTORE PUSH1 0x20 PUSH1 0x4 DUP3 ADD MSTORE PUSH1 0x18 PUSH1 0x24 DUP3 ADD MSTORE PUSH32 0x50726F78793A205F696D70206973206E6F7420616C6976650000000000000000 PUSH1 0x44 DUP3 ADD MSTORE PUSH1 0x64 ADD PUSH2 0x7DE JUMP JUMPDEST PUSH0 JUMPDEST DUP3 DUP2 LT ISZERO PUSH2 0x935 JUMPI DUP2 PUSH1 0x1 PUSH1 0x1 PUSH1 0xA0 SHL SUB AND PUSH1 0x3 PUSH0 DUP7 DUP7 DUP6 DUP2 DUP2 LT PUSH2 0xBCD JUMPI PUSH2 0xBCD PUSH2 0x1487 JUMP JUMPDEST SWAP1 POP PUSH1 0x20 MUL ADD PUSH1 0x20 DUP2 ADD SWAP1 PUSH2 0xBE2 SWAP2 SWAP1 PUSH2 0x1249 JUMP JUMPDEST PUSH1 0x1 PUSH1 0x1 PUSH1 0xE0 SHL SUB NOT AND DUP2 MSTORE PUSH1 0x20 DUP2 ADD SWAP2 SWAP1 SWAP2 MSTORE PUSH1 0x40 ADD PUSH0 KECCAK256 SLOAD PUSH1 0x1 PUSH1 0x1 PUSH1 0xA0 SHL SUB AND SUB PUSH2 0xC52 JUMPI PUSH1 0x40 MLOAD PUSH3 0x461BCD PUSH1 0xE5 SHL DUP2 MSTORE PUSH1 0x20 PUSH1 0x4 DUP3 ADD MSTORE PUSH1 0x1D PUSH1 0x24 DUP3 ADD MSTORE PUSH32 0x4C69717569646974795661756C7450726F78793A2073616D6520696D70000000 PUSH1 0x44 DUP3 ADD MSTORE PUSH1 0x64 ADD PUSH2 0x7DE JUMP JUMPDEST DUP2 PUSH1 0x3 PUSH0 DUP7 DUP7 DUP6 DUP2 DUP2 LT PUSH2 0xC68 JUMPI PUSH2 0xC68 PUSH2 0x1487 JUMP JUMPDEST SWAP1 POP PUSH1 0x20 MUL ADD PUSH1 0x20 DUP2 ADD SWAP1 PUSH2 0xC7D SWAP2 SWAP1 PUSH2 0x1249 JUMP JUMPDEST PUSH1 0x1 PUSH1 0x1 PUSH1 0xE0 SHL SUB NOT AND DUP2 MSTORE PUSH1 0x20 DUP2 ADD SWAP2 SWAP1 SWAP2 MSTORE PUSH1 0x40 ADD PUSH0 KECCAK256 DUP1 SLOAD PUSH1 0x1 PUSH1 0x1 PUSH1 0xA0 SHL SUB NOT AND PUSH1 0x1 PUSH1 0x1 PUSH1 0xA0 SHL SUB SWAP3 DUP4 AND OR SWAP1 SSTORE DUP3 AND DUP5 DUP5 DUP4 DUP2 DUP2 LT PUSH2 0xCC4 JUMPI PUSH2 0xCC4 PUSH2 0x1487 JUMP JUMPDEST SWAP1 POP PUSH1 0x20 MUL ADD PUSH1 0x20 DUP2 ADD SWAP1 PUSH2 0xCD9 SWAP2 SWAP1 PUSH2 0x1249 JUMP JUMPDEST PUSH1 0x1 PUSH1 0x1 PUSH1 0xE0 SHL SUB NOT AND PUSH32 0x14EBC1C32AA68F4D766E89F3E546CEE249F7DF25183FC10AB1568D91C2CE9B7B PUSH1 0x40 MLOAD PUSH1 0x40 MLOAD DUP1 SWAP2 SUB SWAP1 LOG3 PUSH1 0x1 ADD PUSH2 0xBA6 JUMP JUMPDEST PUSH2 0xD20 CALLER PUSH2 0x8F9 JUMP JUMPDEST PUSH2 0xD3C JUMPI PUSH1 0x40 MLOAD PUSH3 0x461BCD PUSH1 0xE5 SHL DUP2 MSTORE PUSH1 0x4 ADD PUSH2 0x7DE SWAP1 PUSH2 0x1445 JUMP JUMPDEST PUSH2 0xD46 DUP3 DUP3 PUSH2 0x11B2 JUMP JUMPDEST POP POP JUMP JUMPDEST PUSH2 0xD53 CALLER PUSH2 0x8F9 JUMP JUMPDEST PUSH2 0xD6F JUMPI PUSH1 0x40 MLOAD PUSH3 0x461BCD PUSH1 0xE5 SHL DUP2 MSTORE PUSH1 0x4 ADD PUSH2 0x7DE SWAP1 PUSH2 0x1445 JUMP JUMPDEST PUSH2 0x8F6 PUSH0 DUP1 MLOAD PUSH1 0x20 PUSH2 0x14BC DUP4 CODECOPY DUP2 MLOAD SWAP2 MSTORE DUP3 PUSH2 0x911 JUMP JUMPDEST PUSH2 0xD8F CALLER PUSH2 0x8F9 JUMP JUMPDEST PUSH2 0xDAB JUMPI PUSH1 0x40 MLOAD PUSH3 0x461BCD PUSH1 0xE5 SHL DUP2 MSTORE PUSH1 0x4 ADD PUSH2 0x7DE SWAP1 PUSH2 0x1445 JUMP JUMPDEST PUSH1 0x1 PUSH1 0x1 PUSH1 0xA0 SHL SUB DUP2 AND PUSH2 0xE01 JUMPI PUSH1 0x40 MLOAD PUSH3 0x461BCD PUSH1 0xE5 SHL DUP2 MSTORE PUSH1 0x20 PUSH1 0x4 DUP3 ADD MSTORE PUSH1 0x18 PUSH1 0x24 DUP3 ADD MSTORE PUSH32 0x41636365737369626C653A207A65726F20616464726573730000000000000000 PUSH1 0x44 DUP3 ADD MSTORE PUSH1 0x64 ADD PUSH2 0x7DE JUMP JUMPDEST PUSH1 0x1 PUSH1 0x1 PUSH1 0xA0 SHL SUB DUP2 AND CALLER SUB PUSH2 0xE52 JUMPI PUSH1 0x40 MLOAD PUSH3 0x461BCD PUSH1 0xE5 SHL DUP2 MSTORE PUSH1 0x20 PUSH1 0x4 DUP3 ADD MSTORE PUSH1 0x16 PUSH1 0x24 DUP3 ADD MSTORE PUSH22 0x20B1B1B2B9B9B4B136329D1039B0B6B29030B236B4B7 PUSH1 0x51 SHL PUSH1 0x44 DUP3 ADD MSTORE PUSH1 0x64 ADD PUSH2 0x7DE JUMP JUMPDEST PUSH2 0xE69 PUSH0 DUP1 MLOAD PUSH1 0x20 PUSH2 0x14BC DUP4 CODECOPY DUP2 MLOAD SWAP2 MSTORE DUP3 PUSH2 0x911 JUMP JUMPDEST PUSH2 0x8F6 PUSH0 DUP1 MLOAD PUSH1 0x20 PUSH2 0x14BC DUP4 CODECOPY DUP2 MLOAD SWAP2 MSTORE CALLER PUSH2 0x93B JUMP JUMPDEST PUSH2 0xE89 CALLER PUSH2 0x8F9 JUMP JUMPDEST PUSH2 0xEA5 JUMPI PUSH1 0x40 MLOAD PUSH3 0x461BCD PUSH1 0xE5 SHL DUP2 MSTORE PUSH1 0x4 ADD PUSH2 0x7DE SWAP1 PUSH2 0x1445 JUMP JUMPDEST PUSH0 DUP1 SLOAD PUSH1 0xFF NOT AND SWAP2 ISZERO ISZERO SWAP2 SWAP1 SWAP2 OR SWAP1 SSTORE JUMP JUMPDEST PUSH2 0xEC0 CALLER PUSH2 0x8F9 JUMP JUMPDEST PUSH2 0xEDC JUMPI PUSH1 0x40 MLOAD PUSH3 0x461BCD PUSH1 0xE5 SHL DUP2 MSTORE PUSH1 0x4 ADD PUSH2 0x7DE SWAP1 PUSH2 0x1445 JUMP JUMPDEST PUSH2 0x805 DUP4 DUP4 DUP4 PUSH2 0x1128 JUMP JUMPDEST PUSH0 DUP2 DUP2 MSTORE PUSH1 0x1 PUSH1 0x20 MSTORE PUSH1 0x40 DUP2 KECCAK256 SLOAD PUSH1 0x1 PUSH1 0x1 PUSH1 0xA0 SHL SUB AND PUSH2 0x83A JUMP JUMPDEST PUSH1 0x1 PUSH1 0x1 PUSH1 0xE0 SHL SUB NOT DUP2 AND PUSH0 SWAP1 DUP2 MSTORE PUSH1 0x3 PUSH1 0x20 MSTORE PUSH1 0x40 DUP2 KECCAK256 SLOAD PUSH1 0x1 PUSH1 0x1 PUSH1 0xA0 SHL SUB AND PUSH2 0xF4E JUMPI POP POP PUSH0 DUP1 MSTORE PUSH1 0x1 PUSH1 0x20 MSTORE PUSH0 DUP1 MLOAD PUSH1 0x20 PUSH2 0x149C DUP4 CODECOPY DUP2 MLOAD SWAP2 MSTORE SLOAD PUSH1 0x1 PUSH1 0x1 PUSH1 0xA0 SHL SUB AND SWAP1 JUMP JUMPDEST PUSH1 0x1 PUSH1 0x1 PUSH1 0xE0 SHL SUB NOT DUP3 AND PUSH0 SWAP1 DUP2 MSTORE PUSH1 0x3 PUSH1 0x20 SWAP1 DUP2 MSTORE PUSH1 0x40 DUP1 DUP4 KECCAK256 SLOAD PUSH1 0x1 PUSH1 0x1 PUSH1 0xA0 SHL SUB AND DUP4 MSTORE PUSH1 0x2 SWAP1 SWAP2 MSTORE SWAP1 KECCAK256 SLOAD PUSH1 0xFF AND ISZERO PUSH2 0xFAA JUMPI POP PUSH1 0x1 PUSH1 0x1 PUSH1 0xE0 SHL SUB NOT AND PUSH0 SWAP1 DUP2 MSTORE PUSH1 0x3 PUSH1 0x20 MSTORE PUSH1 0x40 SWAP1 KECCAK256 SLOAD PUSH1 0x1 PUSH1 0x1 PUSH1 0xA0 SHL SUB AND SWAP1 JUMP JUMPDEST POP POP PUSH0 DUP1 MSTORE PUSH1 0x1 PUSH1 0x20 MSTORE PUSH0 DUP1 MLOAD PUSH1 0x20 PUSH2 0x149C DUP4 CODECOPY DUP2 MLOAD SWAP2 MSTORE SLOAD PUSH1 0x1 PUSH1 0x1 PUSH1 0xA0 SHL SUB AND SWAP1 JUMP JUMPDEST SWAP2 SWAP1 POP JUMP JUMPDEST PUSH0 SWAP2 DUP3 MSTORE PUSH1 0x4 PUSH1 0x20 SWAP1 DUP2 MSTORE PUSH1 0x40 DUP1 DUP5 KECCAK256 PUSH1 0x1 PUSH1 0x1 PUSH1 0xA0 SHL SUB SWAP4 SWAP1 SWAP4 AND DUP5 MSTORE SWAP2 SWAP1 MSTORE SWAP1 KECCAK256 SLOAD PUSH1 0xFF AND SWAP1 JUMP JUMPDEST PUSH0 DUP3 DUP2 MSTORE PUSH1 0x4 PUSH1 0x20 MSTORE PUSH1 0x40 SWAP1 KECCAK256 PUSH1 0x1 ADD SLOAD PUSH2 0x1018 DUP2 PUSH2 0x1022 JUMP JUMPDEST PUSH2 0x935 DUP4 DUP4 PUSH2 0x10BD JUMP JUMPDEST PUSH2 0x8F6 DUP2 CALLER PUSH2 0x1210 JUMP JUMPDEST PUSH0 PUSH2 0x1037 DUP4 DUP4 PUSH2 0xFD4 JUMP JUMPDEST PUSH2 0x10B6 JUMPI PUSH0 DUP4 DUP2 MSTORE PUSH1 0x4 PUSH1 0x20 SWAP1 DUP2 MSTORE PUSH1 0x40 DUP1 DUP4 KECCAK256 PUSH1 0x1 PUSH1 0x1 PUSH1 0xA0 SHL SUB DUP7 AND DUP5 MSTORE SWAP1 SWAP2 MSTORE SWAP1 KECCAK256 DUP1 SLOAD PUSH1 0xFF NOT AND PUSH1 0x1 OR SWAP1 SSTORE PUSH2 0x106E CALLER SWAP1 JUMP JUMPDEST PUSH1 0x1 PUSH1 0x1 PUSH1 0xA0 SHL SUB AND DUP3 PUSH1 0x1 PUSH1 0x1 PUSH1 0xA0 SHL SUB AND DUP5 PUSH32 0x2F8788117E7EFF1D82E926EC794901D17C78024A50270940304540A733656F0D PUSH1 0x40 MLOAD PUSH1 0x40 MLOAD DUP1 SWAP2 SUB SWAP1 LOG4 POP PUSH1 0x1 PUSH2 0x83A JUMP JUMPDEST POP PUSH0 PUSH2 0x83A JUMP JUMPDEST PUSH0 PUSH2 0x10C8 DUP4 DUP4 PUSH2 0xFD4 JUMP JUMPDEST ISZERO PUSH2 0x10B6 JUMPI PUSH0 DUP4 DUP2 MSTORE PUSH1 0x4 PUSH1 0x20 SWAP1 DUP2 MSTORE PUSH1 0x40 DUP1 DUP4 KECCAK256 PUSH1 0x1 PUSH1 0x1 PUSH1 0xA0 SHL SUB DUP7 AND DUP1 DUP6 MSTORE SWAP3 MSTORE DUP1 DUP4 KECCAK256 DUP1 SLOAD PUSH1 0xFF NOT AND SWAP1 SSTORE MLOAD CALLER SWAP3 DUP7 SWAP2 PUSH32 0xF6391F5C32D9C69D2A47EA670B442974B53935D1EDC7FD64EB21E047A839171B SWAP2 SWAP1 LOG4 POP PUSH1 0x1 PUSH2 0x83A JUMP JUMPDEST PUSH1 0x1 PUSH1 0x1 PUSH1 0xA0 SHL SUB DUP4 AND EXTCODESIZE PUSH2 0x117F JUMPI PUSH1 0x40 MLOAD PUSH3 0x461BCD PUSH1 0xE5 SHL DUP2 MSTORE PUSH1 0x20 PUSH1 0x4 DUP3 ADD MSTORE PUSH1 0x1B PUSH1 0x24 DUP3 ADD MSTORE PUSH32 0x50726F78793A206E6F7420636F6E747261637420616464726573730000000000 PUSH1 0x44 DUP3 ADD MSTORE PUSH1 0x64 ADD PUSH2 0x7DE JUMP JUMPDEST DUP1 ISZERO PUSH2 0x11AC JUMPI PUSH0 DUP3 DUP2 MSTORE PUSH1 0x1 PUSH1 0x20 MSTORE PUSH1 0x40 SWAP1 KECCAK256 DUP1 SLOAD PUSH1 0x1 PUSH1 0x1 PUSH1 0xA0 SHL SUB NOT AND PUSH1 0x1 PUSH1 0x1 PUSH1 0xA0 SHL SUB DUP6 AND OR SWAP1 SSTORE JUMPDEST PUSH2 0x805 DUP4 DUP3 JUMPDEST PUSH1 0x1 PUSH1 0x1 PUSH1 0xA0 SHL SUB DUP3 AND PUSH0 DUP2 DUP2 MSTORE PUSH1 0x2 PUSH1 0x20 SWAP1 DUP2 MSTORE PUSH1 0x40 SWAP2 DUP3 SWAP1 KECCAK256 DUP1 SLOAD PUSH1 0xFF NOT AND DUP6 ISZERO ISZERO SWAP1 DUP2 OR SWAP1 SWAP2 SSTORE SWAP2 MLOAD SWAP2 DUP3 MSTORE PUSH32 0x72558D9BFBA4210F9EF095C782589484151F6D90F7A81BB3CB9B33EFC695D324 SWAP2 ADD PUSH1 0x40 MLOAD DUP1 SWAP2 SUB SWAP1 LOG2 POP POP JUMP JUMPDEST PUSH2 0x121A DUP3 DUP3 PUSH2 0xFD4 JUMP JUMPDEST PUSH2 0xD46 JUMPI PUSH1 0x40 MLOAD PUSH4 0xE2517D3F PUSH1 0xE0 SHL DUP2 MSTORE PUSH1 0x1 PUSH1 0x1 PUSH1 0xA0 SHL SUB DUP3 AND PUSH1 0x4 DUP3 ADD MSTORE PUSH1 0x24 DUP2 ADD DUP4 SWAP1 MSTORE PUSH1 0x44 ADD PUSH2 0x7DE JUMP JUMPDEST PUSH0 PUSH1 0x20 DUP3 DUP5 SUB SLT ISZERO PUSH2 0x1259 JUMPI PUSH0 DUP1 REVERT JUMPDEST DUP2 CALLDATALOAD PUSH1 0x1 PUSH1 0x1 PUSH1 0xE0 SHL SUB NOT DUP2 AND DUP2 EQ PUSH2 0x1270 JUMPI PUSH0 DUP1 REVERT JUMPDEST SWAP4 SWAP3 POP POP POP JUMP JUMPDEST DUP1 CALLDATALOAD PUSH1 0x1 PUSH1 0x1 PUSH1 0xA0 SHL SUB DUP2 AND DUP2 EQ PUSH2 0xFCF JUMPI PUSH0 DUP1 REVERT JUMPDEST PUSH0 DUP1 PUSH0 PUSH1 0x60 DUP5 DUP7 SUB SLT ISZERO PUSH2 0x129F JUMPI PUSH0 DUP1 REVERT JUMPDEST PUSH2 0x12A8 DUP5 PUSH2 0x1277 JUMP JUMPDEST SWAP3 POP PUSH2 0x12B6 PUSH1 0x20 DUP6 ADD PUSH2 0x1277 JUMP JUMPDEST SWAP2 POP PUSH1 0x40 DUP5 ADD CALLDATALOAD SWAP1 POP SWAP3 POP SWAP3 POP SWAP3 JUMP JUMPDEST PUSH0 PUSH1 0x20 DUP3 DUP5 SUB SLT ISZERO PUSH2 0x12D6 JUMPI PUSH0 DUP1 REVERT JUMPDEST PUSH2 0x1270 DUP3 PUSH2 0x1277 JUMP JUMPDEST PUSH0 PUSH1 0x20 DUP3 DUP5 SUB SLT ISZERO PUSH2 0x12EF JUMPI PUSH0 DUP1 REVERT JUMPDEST POP CALLDATALOAD SWAP2 SWAP1 POP JUMP JUMPDEST PUSH0 DUP1 PUSH1 0x40 DUP4 DUP6 SUB SLT ISZERO PUSH2 0x1307 JUMPI PUSH0 DUP1 REVERT JUMPDEST DUP3 CALLDATALOAD SWAP2 POP PUSH2 0x1317 PUSH1 0x20 DUP5 ADD PUSH2 0x1277 JUMP JUMPDEST SWAP1 POP SWAP3 POP SWAP3 SWAP1 POP JUMP JUMPDEST PUSH0 DUP1 PUSH1 0x40 DUP4 DUP6 SUB SLT ISZERO PUSH2 0x1331 JUMPI PUSH0 DUP1 REVERT JUMPDEST PUSH2 0x133A DUP4 PUSH2 0x1277 JUMP JUMPDEST SWAP2 POP PUSH2 0x1317 PUSH1 0x20 DUP5 ADD PUSH2 0x1277 JUMP JUMPDEST PUSH0 DUP1 PUSH0 PUSH1 0x40 DUP5 DUP7 SUB SLT ISZERO PUSH2 0x135A JUMPI PUSH0 DUP1 REVERT JUMPDEST DUP4 CALLDATALOAD PUSH8 0xFFFFFFFFFFFFFFFF DUP1 DUP3 GT ISZERO PUSH2 0x1371 JUMPI PUSH0 DUP1 REVERT JUMPDEST DUP2 DUP7 ADD SWAP2 POP DUP7 PUSH1 0x1F DUP4 ADD SLT PUSH2 0x1384 JUMPI PUSH0 DUP1 REVERT JUMPDEST DUP2 CALLDATALOAD DUP2 DUP2 GT ISZERO PUSH2 0x1392 JUMPI PUSH0 DUP1 REVERT JUMPDEST DUP8 PUSH1 0x20 DUP3 PUSH1 0x5 SHL DUP6 ADD ADD GT ISZERO PUSH2 0x13A6 JUMPI PUSH0 DUP1 REVERT JUMPDEST PUSH1 0x20 SWAP3 DUP4 ADD SWAP6 POP SWAP4 POP PUSH2 0x13BC SWAP2 DUP7 ADD SWAP1 POP PUSH2 0x1277 JUMP JUMPDEST SWAP1 POP SWAP3 POP SWAP3 POP SWAP3 JUMP JUMPDEST DUP1 CALLDATALOAD DUP1 ISZERO ISZERO DUP2 EQ PUSH2 0xFCF JUMPI PUSH0 DUP1 REVERT JUMPDEST PUSH0 DUP1 PUSH1 0x40 DUP4 DUP6 SUB SLT ISZERO PUSH2 0x13E5 JUMPI PUSH0 DUP1 REVERT JUMPDEST PUSH2 0x13EE DUP4 PUSH2 0x1277 JUMP JUMPDEST SWAP2 POP PUSH2 0x1317 PUSH1 0x20 DUP5 ADD PUSH2 0x13C5 JUMP JUMPDEST PUSH0 PUSH1 0x20 DUP3 DUP5 SUB SLT ISZERO PUSH2 0x140C JUMPI PUSH0 DUP1 REVERT JUMPDEST PUSH2 0x1270 DUP3 PUSH2 0x13C5 JUMP JUMPDEST PUSH0 DUP1 PUSH0 PUSH1 0x60 DUP5 DUP7 SUB SLT ISZERO PUSH2 0x1427 JUMPI PUSH0 DUP1 REVERT JUMPDEST PUSH2 0x1430 DUP5 PUSH2 0x1277 JUMP JUMPDEST SWAP3 POP PUSH1 0x20 DUP5 ADD CALLDATALOAD SWAP2 POP PUSH2 0x13BC PUSH1 0x40 DUP6 ADD PUSH2 0x13C5 JUMP JUMPDEST PUSH1 0x20 DUP1 DUP3 MSTORE PUSH1 0x22 SWAP1 DUP3 ADD MSTORE PUSH32 0x41636365737369626C653A2043616C6C6572206973206E6F7420616E2061646D PUSH1 0x40 DUP3 ADD MSTORE PUSH2 0x34B7 PUSH1 0xF1 SHL PUSH1 0x60 DUP3 ADD MSTORE PUSH1 0x80 ADD SWAP1 JUMP JUMPDEST PUSH4 0x4E487B71 PUSH1 0xE0 SHL PUSH0 MSTORE PUSH1 0x32 PUSH1 0x4 MSTORE PUSH1 0x24 PUSH0 REVERT INVALID 0xA6 0xEE 0xF7 0xE3 GAS 0xBE PUSH17 0x26729641147F7915573C7E97B47EFA546F PUSH0 PUSH15 0x3230263BCB49DF8B4C520FFE197C53 NUMBER 0xC6 CREATE2 0xAE 0xC5 SWAP6 PUSH17 0x151EF9A492F2C624FD45DDDE6135EC42A2 PUSH5 0x6970667358 0x22 SLT KECCAK256 0xB2 PUSH32 0xA63A75634B09DD5C1CAC5D6CC39BECAE59A1A5D0086BBD5AB53A428DB1A16473 PUSH16 0x6C63430008180033DF8B4C520FFE197C MSTORE8 NUMBER 0xC6 CREATE2 0xAE 0xC5 SWAP6 PUSH17 0x151EF9A492F2C624FD45DDDE6135EC4200 "
				},
				"gasEstimates": {
					"creation": {
						"codeDepositCost": "1078600",
						"executionCost": "56108",
						"totalCost": "1134708"
					},
					"external": {
						"": "infinite",
						"ADMIN_ROLE()": "infinite",
						"DEFAULT_ADMIN_ROLE()": "282",
						"POLICY_ROLE()": "240",
						"addAdmin(address)": "infinite",
						"aliveImplementation(address)": "2584",
						"chainData(uint256)": "4694",
						"crossDomainMessenger()": "2424",
						"dealData(uint256)": "21871",
						"getRoleAdmin(bytes32)": "2509",
						"getSelectorImplementation2(bytes4)": "9297",
						"grantRole(bytes32,address)": "infinite",
						"hasRole(bytes32,address)": "2696",
						"implementation()": "infinite",
						"implementation2(uint256)": "2594",
						"initialize(address,address)": "infinite",
						"isAdmin(address)": "infinite",
						"legacyERC20ETH()": "2427",
						"pauseProxy()": "2343",
						"proxyImplementation(uint256)": "2585",
						"removeAdmin(address)": "infinite",
						"renounceRole(bytes32,address)": "29070",
						"revokeRole(bytes32,address)": "infinite",
						"saleCount()": "2361",
						"selectorImplementation(bytes4)": "2568",
						"setAliveImplementation2(address,bool)": "infinite",
						"setChainInfo(address,address,uint256)": "infinite",
						"setImplementation2(address,uint256,bool)": "infinite",
						"setProxyPause(bool)": "infinite",
						"setSelectorImplementations2(bytes4[],address)": "infinite",
						"supportsInterface(bytes4)": "470",
						"transferAdmin(address)": "infinite",
						"upgradeTo(address)": "infinite"
					}
				},
				"methodIdentifiers": {
					"ADMIN_ROLE()": "75b238fc",
					"DEFAULT_ADMIN_ROLE()": "a217fddf",
					"POLICY_ROLE()": "22985246",
					"addAdmin(address)": "70480275",
					"aliveImplementation(address)": "550d01a3",
					"chainData(uint256)": "e59f69c2",
					"crossDomainMessenger()": "f43b3613",
					"dealData(uint256)": "f5869c2f",
					"getRoleAdmin(bytes32)": "248a9ca3",
					"getSelectorImplementation2(bytes4)": "8d4fdb40",
					"grantRole(bytes32,address)": "2f2ff15d",
					"hasRole(bytes32,address)": "91d14854",
					"implementation()": "5c60da1b",
					"implementation2(uint256)": "8b8f4a65",
					"initialize(address,address)": "485cc955",
					"isAdmin(address)": "24d7806c",
					"legacyERC20ETH()": "16e01724",
					"pauseProxy()": "63a8fd89",
					"proxyImplementation(uint256)": "b911135f",
					"removeAdmin(address)": "1785f53c",
					"renounceRole(bytes32,address)": "36568abe",
					"revokeRole(bytes32,address)": "d547741f",
					"saleCount()": "a1e89aec",
					"selectorImplementation(bytes4)": "50d2a276",
					"setAliveImplementation2(address,bool)": "5cc797d8",
					"setChainInfo(address,address,uint256)": "1230b14c",
					"setImplementation2(address,uint256,bool)": "7cd5f663",
					"setProxyPause(bool)": "7cb00d25",
					"setSelectorImplementations2(bytes4[],address)": "4a5df50f",
					"supportsInterface(bytes4)": "01ffc9a7",
					"transferAdmin(address)": "75829def",
					"upgradeTo(address)": "3659cfe6"
				}
			},
			"storageLayout": {
				"storage": [
					{
						"astId": 1102,
						"contract": "contracts/L2/L2toL2CrossTradeProxy.sol:L2toL2CrossTradeProxy",
						"label": "pauseProxy",
						"offset": 0,
						"slot": "0",
						"type": "t_bool"
					},
					{
						"astId": 1106,
						"contract": "contracts/L2/L2toL2CrossTradeProxy.sol:L2toL2CrossTradeProxy",
						"label": "proxyImplementation",
						"offset": 0,
						"slot": "1",
						"type": "t_mapping(t_uint256,t_address)"
					},
					{
						"astId": 1110,
						"contract": "contracts/L2/L2toL2CrossTradeProxy.sol:L2toL2CrossTradeProxy",
						"label": "aliveImplementation",
						"offset": 0,
						"slot": "2",
						"type": "t_mapping(t_address,t_bool)"
					},
					{
						"astId": 1114,
						"contract": "contracts/L2/L2toL2CrossTradeProxy.sol:L2toL2CrossTradeProxy",
						"label": "selectorImplementation",
						"offset": 0,
						"slot": "3",
						"type": "t_mapping(t_bytes4,t_address)"
					},
					{
						"astId": 26,
						"contract": "contracts/L2/L2toL2CrossTradeProxy.sol:L2toL2CrossTradeProxy",
						"label": "_roles",
						"offset": 0,
						"slot": "4",
						"type": "t_mapping(t_bytes32,t_struct(RoleData)21_storage)"
					},
					{
						"astId": 526,
						"contract": "contracts/L2/L2toL2CrossTradeProxy.sol:L2toL2CrossTradeProxy",
						"label": "crossDomainMessenger",
						"offset": 0,
						"slot": "5",
						"type": "t_address"
					},
					{
						"astId": 528,
						"contract": "contracts/L2/L2toL2CrossTradeProxy.sol:L2toL2CrossTradeProxy",
						"label": "legacyERC20ETH",
						"offset": 0,
						"slot": "6",
						"type": "t_address"
					},
					{
						"astId": 530,
						"contract": "contracts/L2/L2toL2CrossTradeProxy.sol:L2toL2CrossTradeProxy",
						"label": "saleCount",
						"offset": 0,
						"slot": "7",
						"type": "t_uint256"
					},
					{
						"astId": 535,
						"contract": "contracts/L2/L2toL2CrossTradeProxy.sol:L2toL2CrossTradeProxy",
						"label": "dealData",
						"offset": 0,
						"slot": "8",
						"type": "t_mapping(t_uint256,t_struct(RequestData)519_storage)"
					},
					{
						"astId": 539,
						"contract": "contracts/L2/L2toL2CrossTradeProxy.sol:L2toL2CrossTradeProxy",
						"label": "registerCheck",
						"offset": 0,
						"slot": "9",
						"type": "t_mapping(t_bytes32,t_bool)"
					},
					{
						"astId": 544,
						"contract": "contracts/L2/L2toL2CrossTradeProxy.sol:L2toL2CrossTradeProxy",
						"label": "chainData",
						"offset": 0,
						"slot": "10",
						"type": "t_mapping(t_uint256,t_struct(ChainIdData)524_storage)"
					}
				],
				"types": {
					"t_address": {
						"encoding": "inplace",
						"label": "address",
						"numberOfBytes": "20"
					},
					"t_bool": {
						"encoding": "inplace",
						"label": "bool",
						"numberOfBytes": "1"
					},
					"t_bytes32": {
						"encoding": "inplace",
						"label": "bytes32",
						"numberOfBytes": "32"
					},
					"t_bytes4": {
						"encoding": "inplace",
						"label": "bytes4",
						"numberOfBytes": "4"
					},
					"t_mapping(t_address,t_bool)": {
						"encoding": "mapping",
						"key": "t_address",
						"label": "mapping(address => bool)",
						"numberOfBytes": "32",
						"value": "t_bool"
					},
					"t_mapping(t_bytes32,t_bool)": {
						"encoding": "mapping",
						"key": "t_bytes32",
						"label": "mapping(bytes32 => bool)",
						"numberOfBytes": "32",
						"value": "t_bool"
					},
					"t_mapping(t_bytes32,t_struct(RoleData)21_storage)": {
						"encoding": "mapping",
						"key": "t_bytes32",
						"label": "mapping(bytes32 => struct AccessControl.RoleData)",
						"numberOfBytes": "32",
						"value": "t_struct(RoleData)21_storage"
					},
					"t_mapping(t_bytes4,t_address)": {
						"encoding": "mapping",
						"key": "t_bytes4",
						"label": "mapping(bytes4 => address)",
						"numberOfBytes": "32",
						"value": "t_address"
					},
					"t_mapping(t_uint256,t_address)": {
						"encoding": "mapping",
						"key": "t_uint256",
						"label": "mapping(uint256 => address)",
						"numberOfBytes": "32",
						"value": "t_address"
					},
					"t_mapping(t_uint256,t_struct(ChainIdData)524_storage)": {
						"encoding": "mapping",
						"key": "t_uint256",
						"label": "mapping(uint256 => struct L2toL2CrossTradeStorage.ChainIdData)",
						"numberOfBytes": "32",
						"value": "t_struct(ChainIdData)524_storage"
					},
					"t_mapping(t_uint256,t_struct(RequestData)519_storage)": {
						"encoding": "mapping",
						"key": "t_uint256",
						"label": "mapping(uint256 => struct L2toL2CrossTradeStorage.RequestData)",
						"numberOfBytes": "32",
						"value": "t_struct(RequestData)519_storage"
					},
					"t_struct(ChainIdData)524_storage": {
						"encoding": "inplace",
						"label": "struct L2toL2CrossTradeStorage.ChainIdData",
						"members": [
							{
								"astId": 521,
								"contract": "contracts/L2/L2toL2CrossTradeProxy.sol:L2toL2CrossTradeProxy",
								"label": "l1CrossTradeContract",
								"offset": 0,
								"slot": "0",
								"type": "t_address"
							},
							{
								"astId": 523,
								"contract": "contracts/L2/L2toL2CrossTradeProxy.sol:L2toL2CrossTradeProxy",
								"label": "l1TON",
								"offset": 0,
								"slot": "1",
								"type": "t_address"
							}
						],
						"numberOfBytes": "64"
					},
					"t_struct(RequestData)519_storage": {
						"encoding": "inplace",
						"label": "struct L2toL2CrossTradeStorage.RequestData",
						"members": [
							{
								"astId": 500,
								"contract": "contracts/L2/L2toL2CrossTradeProxy.sol:L2toL2CrossTradeProxy",
								"label": "l1token",
								"offset": 0,
								"slot": "0",
								"type": "t_address"
							},
							{
								"astId": 502,
								"contract": "contracts/L2/L2toL2CrossTradeProxy.sol:L2toL2CrossTradeProxy",
								"label": "l2SourceToken",
								"offset": 0,
								"slot": "1",
								"type": "t_address"
							},
							{
								"astId": 504,
								"contract": "contracts/L2/L2toL2CrossTradeProxy.sol:L2toL2CrossTradeProxy",
								"label": "l2TargetToken",
								"offset": 0,
								"slot": "2",
								"type": "t_address"
							},
							{
								"astId": 506,
								"contract": "contracts/L2/L2toL2CrossTradeProxy.sol:L2toL2CrossTradeProxy",
								"label": "requester",
								"offset": 0,
								"slot": "3",
								"type": "t_address"
							},
							{
								"astId": 508,
								"contract": "contracts/L2/L2toL2CrossTradeProxy.sol:L2toL2CrossTradeProxy",
								"label": "provider",
								"offset": 0,
								"slot": "4",
								"type": "t_address"
							},
							{
								"astId": 510,
								"contract": "contracts/L2/L2toL2CrossTradeProxy.sol:L2toL2CrossTradeProxy",
								"label": "totalAmount",
								"offset": 0,
								"slot": "5",
								"type": "t_uint256"
							},
							{
								"astId": 512,
								"contract": "contracts/L2/L2toL2CrossTradeProxy.sol:L2toL2CrossTradeProxy",
								"label": "ctAmount",
								"offset": 0,
								"slot": "6",
								"type": "t_uint256"
							},
							{
								"astId": 514,
								"contract": "contracts/L2/L2toL2CrossTradeProxy.sol:L2toL2CrossTradeProxy",
								"label": "l1ChainId",
								"offset": 0,
								"slot": "7",
								"type": "t_uint256"
							},
							{
								"astId": 516,
								"contract": "contracts/L2/L2toL2CrossTradeProxy.sol:L2toL2CrossTradeProxy",
								"label": "l2TargetChainId",
								"offset": 0,
								"slot": "8",
								"type": "t_uint256"
							},
							{
								"astId": 518,
								"contract": "contracts/L2/L2toL2CrossTradeProxy.sol:L2toL2CrossTradeProxy",
								"label": "hashValue",
								"offset": 0,
								"slot": "9",
								"type": "t_bytes32"
							}
						],
						"numberOfBytes": "320"
					},
					"t_struct(RoleData)21_storage": {
						"encoding": "inplace",
						"label": "struct AccessControl.RoleData",
						"members": [
							{
								"astId": 18,
								"contract": "contracts/L2/L2toL2CrossTradeProxy.sol:L2toL2CrossTradeProxy",
								"label": "hasRole",
								"offset": 0,
								"slot": "0",
								"type": "t_mapping(t_address,t_bool)"
							},
							{
								"astId": 20,
								"contract": "contracts/L2/L2toL2CrossTradeProxy.sol:L2toL2CrossTradeProxy",
								"label": "adminRole",
								"offset": 0,
								"slot": "1",
								"type": "t_bytes32"
							}
						],
						"numberOfBytes": "64"
					},
					"t_uint256": {
						"encoding": "inplace",
						"label": "uint256",
						"numberOfBytes": "32"
					}
				}
			},
			"userdoc": {
				"kind": "user",
				"methods": {
					"initialize(address,address)": {
						"notice": "L2CrossTrade initial settings"
					},
					"setChainInfo(address,address,uint256)": {
						"notice": "Store addresses for chainId"
					},
					"setProxyPause(bool)": {
						"notice": "Set pause state"
					},
					"upgradeTo(address)": {
						"notice": "Set implementation contract"
					}
				},
				"version": 1
			}
		}
	}
}