{
	"contracts/L2/L2toL2CrossTradeL21Mock.sol": {
		"L2toL2CrossTradeL2": {
			"abi": [
				{
					"inputs": [],
					"name": "AccessControlBadConfirmation",
					"type": "error"
				},
				{
					"inputs": [
						{
							"internalType": "address",
							"name": "account",
							"type": "address"
						},
						{
							"internalType": "bytes32",
							"name": "neededRole",
							"type": "bytes32"
						}
					],
					"name": "AccessControlUnauthorizedAccount",
					"type": "error"
				},
				{
					"inputs": [],
					"name": "ReentrancyGuardReentrantCall",
					"type": "error"
				},
				{
					"anonymous": false,
					"inputs": [
						{
							"indexed": false,
							"internalType": "address",
							"name": "_requester",
							"type": "address"
						},
						{
							"indexed": false,
							"internalType": "uint256",
							"name": "_totalAmount",
							"type": "uint256"
						},
						{
							"indexed": true,
							"internalType": "uint256",
							"name": "_saleCount",
							"type": "uint256"
						},
						{
							"indexed": false,
							"internalType": "uint256",
							"name": "_l1ChainId",
							"type": "uint256"
						},
						{
							"indexed": false,
							"internalType": "uint256",
							"name": "_l2SourceChainId",
							"type": "uint256"
						},
						{
							"indexed": false,
							"internalType": "uint256",
							"name": "_l2TargetChainId",
							"type": "uint256"
						},
						{
							"indexed": false,
							"internalType": "bytes32",
							"name": "_hash",
							"type": "bytes32"
						}
					],
					"name": "CancelCT",
					"type": "event"
				},
				{
					"anonymous": false,
					"inputs": [
						{
							"indexed": false,
							"internalType": "address",
							"name": "_l1token",
							"type": "address"
						},
						{
							"indexed": false,
							"internalType": "address",
							"name": "_l2SourceToken",
							"type": "address"
						},
						{
							"indexed": false,
							"internalType": "address",
							"name": "_l2TargetToken",
							"type": "address"
						},
						{
							"indexed": false,
							"internalType": "address",
							"name": "_requester",
							"type": "address"
						},
						{
							"indexed": false,
							"internalType": "uint256",
							"name": "_totalAmount",
							"type": "uint256"
						},
						{
							"indexed": false,
							"internalType": "uint256",
							"name": "_ctAmount",
							"type": "uint256"
						},
						{
							"indexed": true,
							"internalType": "uint256",
							"name": "_saleCount",
							"type": "uint256"
						},
						{
							"indexed": false,
							"internalType": "uint256",
							"name": "_l1ChainId",
							"type": "uint256"
						},
						{
							"indexed": false,
							"internalType": "uint256",
							"name": "_l2SourceChainId",
							"type": "uint256"
						},
						{
							"indexed": false,
							"internalType": "uint256",
							"name": "_l2TargetChainId",
							"type": "uint256"
						},
						{
							"indexed": false,
							"internalType": "bytes32",
							"name": "_hashValue",
							"type": "bytes32"
						}
					],
					"name": "NonRequestCT",
					"type": "event"
				},
				{
					"anonymous": false,
					"inputs": [
						{
							"indexed": false,
							"internalType": "address",
							"name": "_l1token",
							"type": "address"
						},
						{
							"indexed": false,
							"internalType": "address",
							"name": "_l2SourceToken",
							"type": "address"
						},
						{
							"indexed": false,
							"internalType": "address",
							"name": "_l2TargetToken",
							"type": "address"
						},
						{
							"indexed": false,
							"internalType": "address",
							"name": "_requester",
							"type": "address"
						},
						{
							"indexed": false,
							"internalType": "address",
							"name": "_provider",
							"type": "address"
						},
						{
							"indexed": false,
							"internalType": "uint256",
							"name": "_totalAmount",
							"type": "uint256"
						},
						{
							"indexed": false,
							"internalType": "uint256",
							"name": "_ctAmount",
							"type": "uint256"
						},
						{
							"indexed": true,
							"internalType": "uint256",
							"name": "_saleCount",
							"type": "uint256"
						},
						{
							"indexed": false,
							"internalType": "uint256",
							"name": "_l1ChainId",
							"type": "uint256"
						},
						{
							"indexed": false,
							"internalType": "uint256",
							"name": "_l2SourceChainId",
							"type": "uint256"
						},
						{
							"indexed": false,
							"internalType": "uint256",
							"name": "_l2TargetChainId",
							"type": "uint256"
						},
						{
							"indexed": false,
							"internalType": "bytes32",
							"name": "_hash",
							"type": "bytes32"
						}
					],
					"name": "ProviderClaimCT",
					"type": "event"
				},
				{
					"anonymous": false,
					"inputs": [
						{
							"indexed": false,
							"internalType": "address",
							"name": "_l1token",
							"type": "address"
						},
						{
							"indexed": false,
							"internalType": "address",
							"name": "_l2SourceToken",
							"type": "address"
						},
						{
							"indexed": false,
							"internalType": "address",
							"name": "_l2TargetToken",
							"type": "address"
						},
						{
							"indexed": false,
							"internalType": "address",
							"name": "_requester",
							"type": "address"
						},
						{
							"indexed": false,
							"internalType": "uint256",
							"name": "_totalAmount",
							"type": "uint256"
						},
						{
							"indexed": false,
							"internalType": "uint256",
							"name": "_ctAmount",
							"type": "uint256"
						},
						{
							"indexed": true,
							"internalType": "uint256",
							"name": "_saleCount",
							"type": "uint256"
						},
						{
							"indexed": false,
							"internalType": "uint256",
							"name": "_l1ChainId",
							"type": "uint256"
						},
						{
							"indexed": false,
							"internalType": "uint256",
							"name": "_l2SourceChainId",
							"type": "uint256"
						},
						{
							"indexed": false,
							"internalType": "uint256",
							"name": "_l2TargetChainId",
							"type": "uint256"
						},
						{
							"indexed": false,
							"internalType": "bytes32",
							"name": "_hashValue",
							"type": "bytes32"
						}
					],
					"name": "RequestCT",
					"type": "event"
				},
				{
					"anonymous": false,
					"inputs": [
						{
							"indexed": true,
							"internalType": "bytes32",
							"name": "role",
							"type": "bytes32"
						},
						{
							"indexed": true,
							"internalType": "bytes32",
							"name": "previousAdminRole",
							"type": "bytes32"
						},
						{
							"indexed": true,
							"internalType": "bytes32",
							"name": "newAdminRole",
							"type": "bytes32"
						}
					],
					"name": "RoleAdminChanged",
					"type": "event"
				},
				{
					"anonymous": false,
					"inputs": [
						{
							"indexed": true,
							"internalType": "bytes32",
							"name": "role",
							"type": "bytes32"
						},
						{
							"indexed": true,
							"internalType": "address",
							"name": "account",
							"type": "address"
						},
						{
							"indexed": true,
							"internalType": "address",
							"name": "sender",
							"type": "address"
						}
					],
					"name": "RoleGranted",
					"type": "event"
				},
				{
					"anonymous": false,
					"inputs": [
						{
							"indexed": true,
							"internalType": "bytes32",
							"name": "role",
							"type": "bytes32"
						},
						{
							"indexed": true,
							"internalType": "address",
							"name": "account",
							"type": "address"
						},
						{
							"indexed": true,
							"internalType": "address",
							"name": "sender",
							"type": "address"
						}
					],
					"name": "RoleRevoked",
					"type": "event"
				},
				{
					"inputs": [],
					"name": "ADMIN_ROLE",
					"outputs": [
						{
							"internalType": "bytes32",
							"name": "",
							"type": "bytes32"
						}
					],
					"stateMutability": "view",
					"type": "function"
				},
				{
					"inputs": [],
					"name": "DEFAULT_ADMIN_ROLE",
					"outputs": [
						{
							"internalType": "bytes32",
							"name": "",
							"type": "bytes32"
						}
					],
					"stateMutability": "view",
					"type": "function"
				},
				{
					"inputs": [],
					"name": "POLICY_ROLE",
					"outputs": [
						{
							"internalType": "bytes32",
							"name": "",
							"type": "bytes32"
						}
					],
					"stateMutability": "view",
					"type": "function"
				},
				{
					"inputs": [
						{
							"internalType": "address",
							"name": "account",
							"type": "address"
						}
					],
					"name": "addAdmin",
					"outputs": [],
					"stateMutability": "nonpayable",
					"type": "function"
				},
				{
					"inputs": [
						{
							"internalType": "address",
							"name": "",
							"type": "address"
						}
					],
					"name": "aliveImplementation",
					"outputs": [
						{
							"internalType": "bool",
							"name": "",
							"type": "bool"
						}
					],
					"stateMutability": "view",
					"type": "function"
				},
				{
					"inputs": [
						{
							"internalType": "address",
							"name": "_msgSender",
							"type": "address"
						},
						{
							"internalType": "uint256",
							"name": "_salecount",
							"type": "uint256"
						},
						{
							"internalType": "uint256",
							"name": "_l1ChainId",
							"type": "uint256"
						},
						{
							"internalType": "uint256",
							"name": "_l2TargetChainId",
							"type": "uint256"
						},
						{
							"internalType": "bytes32",
							"name": "_hash",
							"type": "bytes32"
						}
					],
					"name": "cancelCT",
					"outputs": [],
					"stateMutability": "nonpayable",
					"type": "function"
				},
				{
					"inputs": [
						{
							"internalType": "uint256",
							"name": "",
							"type": "uint256"
						}
					],
					"name": "chainData",
					"outputs": [
						{
							"internalType": "address",
							"name": "l1CrossTradeContract",
							"type": "address"
						},
						{
							"internalType": "address",
							"name": "l1TON",
							"type": "address"
						}
					],
					"stateMutability": "view",
					"type": "function"
				},
				{
					"inputs": [
						{
							"internalType": "address",
							"name": "_from",
							"type": "address"
						},
						{
							"internalType": "uint256",
							"name": "_ctAmount",
							"type": "uint256"
						},
						{
							"internalType": "uint256",
							"name": "_saleCount",
							"type": "uint256"
						},
						{
							"internalType": "uint256",
							"name": "_l1ChainId",
							"type": "uint256"
						},
						{
							"internalType": "uint256",
							"name": "_l2TargetChainId",
							"type": "uint256"
						},
						{
							"internalType": "bytes32",
							"name": "_hash",
							"type": "bytes32"
						}
					],
					"name": "claimCT",
					"outputs": [],
					"stateMutability": "nonpayable",
					"type": "function"
				},
				{
					"inputs": [],
					"name": "crossDomainMessenger",
					"outputs": [
						{
							"internalType": "address",
							"name": "",
							"type": "address"
						}
					],
					"stateMutability": "view",
					"type": "function"
				},
				{
					"inputs": [
						{
							"internalType": "uint256",
							"name": "",
							"type": "uint256"
						}
					],
					"name": "dealData",
					"outputs": [
						{
							"internalType": "address",
							"name": "l1token",
							"type": "address"
						},
						{
							"internalType": "address",
							"name": "l2SourceToken",
							"type": "address"
						},
						{
							"internalType": "address",
							"name": "l2TargetToken",
							"type": "address"
						},
						{
							"internalType": "address",
							"name": "requester",
							"type": "address"
						},
						{
							"internalType": "address",
							"name": "provider",
							"type": "address"
						},
						{
							"internalType": "uint256",
							"name": "totalAmount",
							"type": "uint256"
						},
						{
							"internalType": "uint256",
							"name": "ctAmount",
							"type": "uint256"
						},
						{
							"internalType": "uint256",
							"name": "l1ChainId",
							"type": "uint256"
						},
						{
							"internalType": "uint256",
							"name": "l2TargetChainId",
							"type": "uint256"
						},
						{
							"internalType": "bytes32",
							"name": "hashValue",
							"type": "bytes32"
						}
					],
					"stateMutability": "view",
					"type": "function"
				},
				{
					"inputs": [
						{
							"internalType": "address",
							"name": "_l1token",
							"type": "address"
						},
						{
							"internalType": "address",
							"name": "_l2SourceToken",
							"type": "address"
						},
						{
							"internalType": "address",
							"name": "_l2TargetToken",
							"type": "address"
						},
						{
							"internalType": "uint256",
							"name": "_l1ChainId",
							"type": "uint256"
						},
						{
							"internalType": "uint256",
							"name": "_l2SourceChainId",
							"type": "uint256"
						},
						{
							"internalType": "uint256",
							"name": "_l2TargetChainId",
							"type": "uint256"
						}
					],
					"name": "deleteToken",
					"outputs": [],
					"stateMutability": "nonpayable",
					"type": "function"
				},
				{
					"inputs": [
						{
							"internalType": "address",
							"name": "_l1token",
							"type": "address"
						},
						{
							"internalType": "address",
							"name": "_l2SourceToken",
							"type": "address"
						},
						{
							"internalType": "address",
							"name": "_l2TargetToken",
							"type": "address"
						},
						{
							"internalType": "address",
							"name": "_requestor",
							"type": "address"
						},
						{
							"internalType": "uint256",
							"name": "_totalAmount",
							"type": "uint256"
						},
						{
							"internalType": "uint256",
							"name": "_ctAmount",
							"type": "uint256"
						},
						{
							"internalType": "uint256",
							"name": "_saleCount",
							"type": "uint256"
						},
						{
							"internalType": "uint256",
							"name": "_l1ChainId",
							"type": "uint256"
						},
						{
							"internalType": "uint256",
							"name": "_l2SourceChainId",
							"type": "uint256"
						},
						{
							"internalType": "uint256",
							"name": "_l2TargetChainId",
							"type": "uint256"
						}
					],
					"name": "getHash",
					"outputs": [
						{
							"internalType": "bytes32",
							"name": "",
							"type": "bytes32"
						}
					],
					"stateMutability": "pure",
					"type": "function"
				},
				{
					"inputs": [
						{
							"internalType": "bytes32",
							"name": "role",
							"type": "bytes32"
						}
					],
					"name": "getRoleAdmin",
					"outputs": [
						{
							"internalType": "bytes32",
							"name": "",
							"type": "bytes32"
						}
					],
					"stateMutability": "view",
					"type": "function"
				},
				{
					"inputs": [
						{
							"internalType": "bytes32",
							"name": "role",
							"type": "bytes32"
						},
						{
							"internalType": "address",
							"name": "account",
							"type": "address"
						}
					],
					"name": "grantRole",
					"outputs": [],
					"stateMutability": "nonpayable",
					"type": "function"
				},
				{
					"inputs": [
						{
							"internalType": "bytes32",
							"name": "role",
							"type": "bytes32"
						},
						{
							"internalType": "address",
							"name": "account",
							"type": "address"
						}
					],
					"name": "hasRole",
					"outputs": [
						{
							"internalType": "bool",
							"name": "",
							"type": "bool"
						}
					],
					"stateMutability": "view",
					"type": "function"
				},
				{
					"inputs": [
						{
							"internalType": "address",
							"name": "account",
							"type": "address"
						}
					],
					"name": "isAdmin",
					"outputs": [
						{
							"internalType": "bool",
							"name": "",
							"type": "bool"
						}
					],
					"stateMutability": "view",
					"type": "function"
				},
				{
					"inputs": [],
					"name": "legacyERC20ETH",
					"outputs": [
						{
							"internalType": "address",
							"name": "",
							"type": "address"
						}
					],
					"stateMutability": "view",
					"type": "function"
				},
				{
					"inputs": [],
					"name": "pauseProxy",
					"outputs": [
						{
							"internalType": "bool",
							"name": "",
							"type": "bool"
						}
					],
					"stateMutability": "view",
					"type": "function"
				},
				{
					"inputs": [
						{
							"internalType": "uint256",
							"name": "",
							"type": "uint256"
						}
					],
					"name": "proxyImplementation",
					"outputs": [
						{
							"internalType": "address",
							"name": "",
							"type": "address"
						}
					],
					"stateMutability": "view",
					"type": "function"
				},
				{
					"inputs": [
						{
							"internalType": "address",
							"name": "_l1token",
							"type": "address"
						},
						{
							"internalType": "address",
							"name": "_l2SourceToken",
							"type": "address"
						},
						{
							"internalType": "address",
							"name": "_l2TargetToken",
							"type": "address"
						},
						{
							"internalType": "uint256",
							"name": "_l1ChainId",
							"type": "uint256"
						},
						{
							"internalType": "uint256",
							"name": "_l2SourceChainId",
							"type": "uint256"
						},
						{
							"internalType": "uint256",
							"name": "_l2TargetChainId",
							"type": "uint256"
						}
					],
					"name": "registerToken",
					"outputs": [],
					"stateMutability": "nonpayable",
					"type": "function"
				},
				{
					"inputs": [
						{
							"internalType": "address",
							"name": "account",
							"type": "address"
						}
					],
					"name": "removeAdmin",
					"outputs": [],
					"stateMutability": "nonpayable",
					"type": "function"
				},
				{
					"inputs": [
						{
							"internalType": "bytes32",
							"name": "role",
							"type": "bytes32"
						},
						{
							"internalType": "address",
							"name": "callerConfirmation",
							"type": "address"
						}
					],
					"name": "renounceRole",
					"outputs": [],
					"stateMutability": "nonpayable",
					"type": "function"
				},
				{
					"inputs": [
						{
							"internalType": "address",
							"name": "_l1token",
							"type": "address"
						},
						{
							"internalType": "address",
							"name": "_l2SourceToken",
							"type": "address"
						},
						{
							"internalType": "address",
							"name": "_l2TargetToken",
							"type": "address"
						},
						{
							"internalType": "uint256",
							"name": "_totalAmount",
							"type": "uint256"
						},
						{
							"internalType": "uint256",
							"name": "_ctAmount",
							"type": "uint256"
						},
						{
							"internalType": "uint256",
							"name": "_l1ChainId",
							"type": "uint256"
						},
						{
							"internalType": "uint256",
							"name": "_l2TargetChainId",
							"type": "uint256"
						}
					],
					"name": "requestNonRegisteredToken",
					"outputs": [],
					"stateMutability": "payable",
					"type": "function"
				},
				{
					"inputs": [
						{
							"internalType": "address",
							"name": "_l1token",
							"type": "address"
						},
						{
							"internalType": "address",
							"name": "_l2SourceToken",
							"type": "address"
						},
						{
							"internalType": "address",
							"name": "_l2TargetToken",
							"type": "address"
						},
						{
							"internalType": "uint256",
							"name": "_totalAmount",
							"type": "uint256"
						},
						{
							"internalType": "uint256",
							"name": "_ctAmount",
							"type": "uint256"
						},
						{
							"internalType": "uint256",
							"name": "_l1ChainId",
							"type": "uint256"
						},
						{
							"internalType": "uint256",
							"name": "_l2TargetChainId",
							"type": "uint256"
						}
					],
					"name": "requestRegisteredToken",
					"outputs": [],
					"stateMutability": "payable",
					"type": "function"
				},
				{
					"inputs": [
						{
							"internalType": "bytes32",
							"name": "role",
							"type": "bytes32"
						},
						{
							"internalType": "address",
							"name": "account",
							"type": "address"
						}
					],
					"name": "revokeRole",
					"outputs": [],
					"stateMutability": "nonpayable",
					"type": "function"
				},
				{
					"inputs": [],
					"name": "saleCount",
					"outputs": [
						{
							"internalType": "uint256",
							"name": "",
							"type": "uint256"
						}
					],
					"stateMutability": "view",
					"type": "function"
				},
				{
					"inputs": [
						{
							"internalType": "bytes4",
							"name": "",
							"type": "bytes4"
						}
					],
					"name": "selectorImplementation",
					"outputs": [
						{
							"internalType": "address",
							"name": "",
							"type": "address"
						}
					],
					"stateMutability": "view",
					"type": "function"
				},
				{
					"inputs": [
						{
							"internalType": "bytes4",
							"name": "interfaceId",
							"type": "bytes4"
						}
					],
					"name": "supportsInterface",
					"outputs": [
						{
							"internalType": "bool",
							"name": "",
							"type": "bool"
						}
					],
					"stateMutability": "view",
					"type": "function"
				},
				{
					"inputs": [
						{
							"internalType": "address",
							"name": "newAdmin",
							"type": "address"
						}
					],
					"name": "transferAdmin",
					"outputs": [],
					"stateMutability": "nonpayable",
					"type": "function"
				}
			],
			"devdoc": {
				"errors": {
					"AccessControlBadConfirmation()": [
						{
							"details": "The caller of a function is not the expected one. NOTE: Don't confuse with {AccessControlUnauthorizedAccount}."
						}
					],
					"AccessControlUnauthorizedAccount(address,bytes32)": [
						{
							"details": "The `account` is missing a role."
						}
					],
					"ReentrancyGuardReentrantCall()": [
						{
							"details": "Unauthorized reentrant call."
						}
					]
				},
				"events": {
					"RoleAdminChanged(bytes32,bytes32,bytes32)": {
						"details": "Emitted when `newAdminRole` is set as ``role``'s admin role, replacing `previousAdminRole` `DEFAULT_ADMIN_ROLE` is the starting admin for all roles, despite {RoleAdminChanged} not being emitted signaling this."
					},
					"RoleGranted(bytes32,address,address)": {
						"details": "Emitted when `account` is granted `role`. `sender` is the account that originated the contract call, an admin role bearer except when using {AccessControl-_setupRole}."
					},
					"RoleRevoked(bytes32,address,address)": {
						"details": "Emitted when `account` is revoked `role`. `sender` is the account that originated the contract call:   - if using `revokeRole`, it is the admin role bearer   - if using `renounceRole`, it is the role bearer (i.e. `account`)"
					}
				},
				"kind": "dev",
				"methods": {
					"addAdmin(address)": {
						"details": "add admin",
						"params": {
							"account": "address to add"
						}
					},
					"cancelCT(address,uint256,uint256,uint256,bytes32)": {
						"params": {
							"_hash": "Hash value generated upon request",
							"_l1ChainId": "chainId of l1token",
							"_l2TargetChainId": "chainId of l2Target",
							"_msgSender": "Address where cancellation was requested",
							"_salecount": "Number generated upon request"
						}
					},
					"claimCT(address,uint256,uint256,uint256,uint256,bytes32)": {
						"params": {
							"_ctAmount": "Amount paid by L1",
							"_from": "provider Address",
							"_hash": "Hash value generated upon request",
							"_l1ChainId": "chainId of l1token",
							"_l2TargetChainId": "chainId of l2Target",
							"_saleCount": "Number generated upon request"
						}
					},
					"deleteToken(address,address,address,uint256,uint256,uint256)": {
						"params": {
							"_l1ChainId": "chainId of l1token",
							"_l1token": "l1token Address",
							"_l2SourceChainId": "chainId of l2Source",
							"_l2SourceToken": "_l2SourceToken Address",
							"_l2TargetChainId": "chainId of l2Target",
							"_l2TargetToken": "_l2TargetToken Address"
						}
					},
					"getHash(address,address,address,address,uint256,uint256,uint256,uint256,uint256,uint256)": {
						"params": {
							"_ctAmount": "Amount provided to L2",
							"_l1ChainId": "Destination chainID",
							"_l1token": "l1token Address",
							"_l2SourceChainId": "The chainId where this contract was deployed",
							"_l2SourceToken": "l2SourceToken Address",
							"_l2TargetChainId": "The chainId where this contract was deployed",
							"_l2TargetToken": "l2TargetToken Address",
							"_requestor": "requester's address",
							"_saleCount": "Number generated upon request",
							"_totalAmount": "Amount provided to L2"
						}
					},
					"getRoleAdmin(bytes32)": {
						"details": "Returns the admin role that controls `role`. See {grantRole} and {revokeRole}. To change a role's admin, use {_setRoleAdmin}."
					},
					"grantRole(bytes32,address)": {
						"details": "Grants `role` to `account`. If `account` had not been already granted `role`, emits a {RoleGranted} event. Requirements: - the caller must have ``role``'s admin role. May emit a {RoleGranted} event."
					},
					"hasRole(bytes32,address)": {
						"details": "Returns `true` if `account` has been granted `role`."
					},
					"isAdmin(address)": {
						"details": "whether admin",
						"params": {
							"account": "address to check"
						}
					},
					"registerToken(address,address,address,uint256,uint256,uint256)": {
						"params": {
							"_l1ChainId": "chainId of l1token",
							"_l1token": "l1token Address",
							"_l2SourceChainId": "chainId of l2Source",
							"_l2SourceToken": "_l2SourceToken Address",
							"_l2TargetChainId": "chainId of l2Target",
							"_l2TargetToken": "_l2TargetToken Address"
						}
					},
					"removeAdmin(address)": {
						"details": "remove admin",
						"params": {
							"account": "address to remove"
						}
					},
					"renounceRole(bytes32,address)": {
						"details": "Revokes `role` from the calling account. Roles are often managed via {grantRole} and {revokeRole}: this function's purpose is to provide a mechanism for accounts to lose their privileges if they are compromised (such as when a trusted device is misplaced). If the calling account had been revoked `role`, emits a {RoleRevoked} event. Requirements: - the caller must be `callerConfirmation`. May emit a {RoleRevoked} event."
					},
					"requestNonRegisteredToken(address,address,address,uint256,uint256,uint256,uint256)": {
						"params": {
							"_ctAmount": "Amount to be received from L1",
							"_l1ChainId": "chainId of l1token",
							"_l1token": "l1token Address",
							"_l2SourceToken": "_l2SourceToken Address",
							"_l2TargetChainId": "chainId of l2TargetToken",
							"_l2TargetToken": "_l2TargetToken Address",
							"_totalAmount": "Amount provided to L2"
						}
					},
					"requestRegisteredToken(address,address,address,uint256,uint256,uint256,uint256)": {
						"params": {
							"_ctAmount": "Amount to be received from L1",
							"_l1ChainId": "chainId of l1token",
							"_l1token": "l1token Address",
							"_l2SourceToken": "_l2SourceToken Address",
							"_l2TargetChainId": "chainId of l2TargetToken",
							"_l2TargetToken": "_l2TargetToken Address",
							"_totalAmount": "Amount provided to L2"
						}
					},
					"revokeRole(bytes32,address)": {
						"details": "Revokes `role` from `account`. If `account` had been granted `role`, emits a {RoleRevoked} event. Requirements: - the caller must have ``role``'s admin role. May emit a {RoleRevoked} event."
					},
					"supportsInterface(bytes4)": {
						"details": "See {IERC165-supportsInterface}."
					},
					"transferAdmin(address)": {
						"details": "transfer admin",
						"params": {
							"newAdmin": "new admin address"
						}
					}
				},
				"version": 1
			},
			"evm": {
				"assembly": "    /* \"contracts/L2/L2toL2CrossTradeL21Mock.sol\":567:15463  contract L2toL2CrossTradeL2 is ProxyStorage, AccessibleCommon, L2toL2CrossTradeStorage, ReentrancyGuard {... */\n  mstore(0x40, 0x80)\n  callvalue\n  dup1\n  iszero\n  tag_1\n  jumpi\n  0x00\n  dup1\n  revert\ntag_1:\n  pop\n    /* \"contracts/utils/ReentrancyGuard.sol\":1857:1858  1 */\n  0x01\n    /* \"contracts/utils/ReentrancyGuard.sol\":2061:2068  _status */\n  0x0b\n    /* \"contracts/utils/ReentrancyGuard.sol\":2061:2082  _status = NOT_ENTERED */\n  sstore\n    /* \"contracts/L2/L2toL2CrossTradeL21Mock.sol\":567:15463  contract L2toL2CrossTradeL2 is ProxyStorage, AccessibleCommon, L2toL2CrossTradeStorage, ReentrancyGuard {... */\n  dataSize(sub_0)\n  dup1\n  dataOffset(sub_0)\n  0x00\n  codecopy\n  0x00\n  return\nstop\n\nsub_0: assembly {\n        /* \"contracts/L2/L2toL2CrossTradeL21Mock.sol\":567:15463  contract L2toL2CrossTradeL2 is ProxyStorage, AccessibleCommon, L2toL2CrossTradeStorage, ReentrancyGuard {... */\n      mstore(0x40, 0x80)\n      jumpi(tag_1, lt(calldatasize, 0x04))\n      shr(0xe0, calldataload(0x00))\n      dup1\n      0x70480275\n      gt\n      tag_31\n      jumpi\n      dup1\n      0xb911135f\n      gt\n      tag_32\n      jumpi\n      dup1\n      0xe59f69c2\n      gt\n      tag_33\n      jumpi\n      dup1\n      0xe59f69c2\n      eq\n      tag_27\n      jumpi\n      dup1\n      0xee976ab4\n      eq\n      tag_28\n      jumpi\n      dup1\n      0xf43b3613\n      eq\n      tag_29\n      jumpi\n      dup1\n      0xf5869c2f\n      eq\n      tag_30\n      jumpi\n      0x00\n      dup1\n      revert\n    tag_33:\n      dup1\n      0xb911135f\n      eq\n      tag_23\n      jumpi\n      dup1\n      0xc8b8e35e\n      eq\n      tag_24\n      jumpi\n      dup1\n      0xd547741f\n      eq\n      tag_25\n      jumpi\n      dup1\n      0xdf2ccdbf\n      eq\n      tag_26\n      jumpi\n      0x00\n      dup1\n      revert\n    tag_32:\n      dup1\n      0x7f02944f\n      gt\n      tag_34\n      jumpi\n      dup1\n      0x7f02944f\n      eq\n      tag_19\n      jumpi\n      dup1\n      0x91d14854\n      eq\n      tag_20\n      jumpi\n      dup1\n      0xa1e89aec\n      eq\n      tag_21\n      jumpi\n      dup1\n      0xa217fddf\n      eq\n      tag_22\n      jumpi\n      0x00\n      dup1\n      revert\n    tag_34:\n      dup1\n      0x70480275\n      eq\n      tag_16\n      jumpi\n      dup1\n      0x75829def\n      eq\n      tag_17\n      jumpi\n      dup1\n      0x75b238fc\n      eq\n      tag_18\n      jumpi\n      0x00\n      dup1\n      revert\n    tag_31:\n      dup1\n      0x2f2ff15d\n      gt\n      tag_35\n      jumpi\n      dup1\n      0x550d01a3\n      gt\n      tag_36\n      jumpi\n      dup1\n      0x550d01a3\n      eq\n      tag_12\n      jumpi\n      dup1\n      0x63a8fd89\n      eq\n      tag_13\n      jumpi\n      dup1\n      0x6c790d54\n      eq\n      tag_14\n      jumpi\n      dup1\n      0x6dd897c7\n      eq\n      tag_15\n      jumpi\n      0x00\n      dup1\n      revert\n    tag_36:\n      dup1\n      0x2f2ff15d\n      eq\n      tag_9\n      jumpi\n      dup1\n      0x36568abe\n      eq\n      tag_10\n      jumpi\n      dup1\n      0x50d2a276\n      eq\n      tag_11\n      jumpi\n      0x00\n      dup1\n      revert\n    tag_35:\n      dup1\n      0x1785f53c\n      gt\n      tag_37\n      jumpi\n      dup1\n      0x1785f53c\n      eq\n      tag_5\n      jumpi\n      dup1\n      0x22985246\n      eq\n      tag_6\n      jumpi\n      dup1\n      0x248a9ca3\n      eq\n      tag_7\n      jumpi\n      dup1\n      0x24d7806c\n      eq\n      tag_8\n      jumpi\n      0x00\n      dup1\n      revert\n    tag_37:\n      dup1\n      0x01ffc9a7\n      eq\n      tag_2\n      jumpi\n      dup1\n      0x1037be21\n      eq\n      tag_3\n      jumpi\n      dup1\n      0x16e01724\n      eq\n      tag_4\n      jumpi\n    tag_1:\n      0x00\n      dup1\n      revert\n        /* \"@openzeppelin/contracts/access/AccessControl.sol\":2565:2767  function supportsInterface(bytes4 interfaceId) public view virtual override returns (bool) {... */\n    tag_2:\n      callvalue\n      dup1\n      iszero\n      tag_38\n      jumpi\n      0x00\n      dup1\n      revert\n    tag_38:\n      pop\n      tag_39\n      tag_40\n      calldatasize\n      0x04\n      tag_41\n      jump\t// in\n    tag_40:\n      tag_42\n      jump\t// in\n    tag_39:\n      mload(0x40)\n        /* \"#utility.yul\":470:484   */\n      swap1\n      iszero\n        /* \"#utility.yul\":463:485   */\n      iszero\n        /* \"#utility.yul\":445:486   */\n      dup2\n      mstore\n        /* \"#utility.yul\":433:435   */\n      0x20\n        /* \"#utility.yul\":418:436   */\n      add\n        /* \"@openzeppelin/contracts/access/AccessControl.sol\":2565:2767  function supportsInterface(bytes4 interfaceId) public view virtual override returns (bool) {... */\n    tag_43:\n      mload(0x40)\n      dup1\n      swap2\n      sub\n      swap1\n      return\n        /* \"contracts/L2/L2toL2CrossTradeL21Mock.sol\":5443:6895  function requestRegisteredToken(... */\n    tag_3:\n      tag_45\n      tag_46\n      calldatasize\n      0x04\n      tag_47\n      jump\t// in\n    tag_46:\n      tag_48\n      jump\t// in\n    tag_45:\n      stop\n        /* \"contracts/L2/L2toL2CrossTradeStorage.sol\":551:580  address public legacyERC20ETH */\n    tag_4:\n      callvalue\n      dup1\n      iszero\n      tag_49\n      jumpi\n      0x00\n      dup1\n      revert\n    tag_49:\n      pop\n      sload(0x06)\n      tag_50\n      swap1\n      sub(shl(0xa0, 0x01), 0x01)\n      and\n      dup2\n      jump\n    tag_50:\n      mload(0x40)\n      sub(shl(0xa0, 0x01), 0x01)\n        /* \"#utility.yul\":1607:1639   */\n      swap1\n      swap2\n      and\n        /* \"#utility.yul\":1589:1640   */\n      dup2\n      mstore\n        /* \"#utility.yul\":1577:1579   */\n      0x20\n        /* \"#utility.yul\":1562:1580   */\n      add\n        /* \"contracts/L2/L2toL2CrossTradeStorage.sol\":551:580  address public legacyERC20ETH */\n      tag_43\n        /* \"#utility.yul\":1443:1646   */\n      jump\n        /* \"contracts/common/AccessibleCommon.sol\":582:695  function removeAdmin(address account) public virtual onlyOwner {... */\n    tag_5:\n      callvalue\n      dup1\n      iszero\n      tag_54\n      jumpi\n      0x00\n      dup1\n      revert\n    tag_54:\n      pop\n      tag_45\n      tag_56\n      calldatasize\n      0x04\n      tag_57\n      jump\t// in\n    tag_56:\n      tag_58\n      jump\t// in\n        /* \"contracts/common/AccessRoleCommon.sol\":151:213  bytes32 public constant POLICY_ROLE = keccak256(\"POLICY_ROLE\") */\n    tag_6:\n      callvalue\n      dup1\n      iszero\n      tag_59\n      jumpi\n      0x00\n      dup1\n      revert\n    tag_59:\n      pop\n      tag_60\n        /* \"contracts/common/AccessRoleCommon.sol\":189:213  keccak256(\"POLICY_ROLE\") */\n      0xfb5864e8ff833c3cb2d2d08505e82ff02a43554c74a35d4f5a64e85261278311\n        /* \"contracts/common/AccessRoleCommon.sol\":151:213  bytes32 public constant POLICY_ROLE = keccak256(\"POLICY_ROLE\") */\n      dup2\n      jump\n    tag_60:\n      mload(0x40)\n        /* \"#utility.yul\":2049:2074   */\n      swap1\n      dup2\n      mstore\n        /* \"#utility.yul\":2037:2039   */\n      0x20\n        /* \"#utility.yul\":2022:2040   */\n      add\n        /* \"contracts/common/AccessRoleCommon.sol\":151:213  bytes32 public constant POLICY_ROLE = keccak256(\"POLICY_ROLE\") */\n      tag_43\n        /* \"#utility.yul\":1903:2080   */\n      jump\n        /* \"@openzeppelin/contracts/access/AccessControl.sol\":3810:3930  function getRoleAdmin(bytes32 role) public view virtual returns (bytes32) {... */\n    tag_7:\n      callvalue\n      dup1\n      iszero\n      tag_64\n      jumpi\n      0x00\n      dup1\n      revert\n    tag_64:\n      pop\n      tag_60\n      tag_66\n      calldatasize\n      0x04\n      tag_67\n      jump\t// in\n    tag_66:\n        /* \"@openzeppelin/contracts/access/AccessControl.sol\":3875:3882  bytes32 */\n      0x00\n        /* \"@openzeppelin/contracts/access/AccessControl.sol\":3901:3913  _roles[role] */\n      swap1\n      dup2\n      mstore\n        /* \"@openzeppelin/contracts/access/AccessControl.sol\":3901:3907  _roles */\n      0x04\n        /* \"@openzeppelin/contracts/access/AccessControl.sol\":3901:3913  _roles[role] */\n      0x20\n      mstore\n      0x40\n      swap1\n      keccak256\n        /* \"@openzeppelin/contracts/access/AccessControl.sol\":3901:3923  _roles[role].adminRole */\n      0x01\n      add\n      sload\n      swap1\n        /* \"@openzeppelin/contracts/access/AccessControl.sol\":3810:3930  function getRoleAdmin(bytes32 role) public view virtual returns (bytes32) {... */\n      jump\n        /* \"contracts/common/AccessibleCommon.sol\":1144:1265  function isAdmin(address account) public view virtual returns (bool) {... */\n    tag_8:\n      callvalue\n      dup1\n      iszero\n      tag_70\n      jumpi\n      0x00\n      dup1\n      revert\n    tag_70:\n      pop\n      tag_39\n      tag_72\n      calldatasize\n      0x04\n      tag_57\n      jump\t// in\n    tag_72:\n      tag_73\n      jump\t// in\n        /* \"@openzeppelin/contracts/access/AccessControl.sol\":4226:4362  function grantRole(bytes32 role, address account) public virtual onlyRole(getRoleAdmin(role)) {... */\n    tag_9:\n      callvalue\n      dup1\n      iszero\n      tag_75\n      jumpi\n      0x00\n      dup1\n      revert\n    tag_75:\n      pop\n      tag_45\n      tag_77\n      calldatasize\n      0x04\n      tag_78\n      jump\t// in\n    tag_77:\n      tag_79\n      jump\t// in\n        /* \"@openzeppelin/contracts/access/AccessControl.sol\":5328:5573  function renounceRole(bytes32 role, address callerConfirmation) public virtual {... */\n    tag_10:\n      callvalue\n      dup1\n      iszero\n      tag_80\n      jumpi\n      0x00\n      dup1\n      revert\n    tag_80:\n      pop\n      tag_45\n      tag_82\n      calldatasize\n      0x04\n      tag_78\n      jump\t// in\n    tag_82:\n      tag_83\n      jump\t// in\n        /* \"contracts/proxy/ProxyStorage.sol\":239:295  mapping(bytes4 => address) public selectorImplementation */\n    tag_11:\n      callvalue\n      dup1\n      iszero\n      tag_84\n      jumpi\n      0x00\n      dup1\n      revert\n    tag_84:\n      pop\n      tag_50\n      tag_86\n      calldatasize\n      0x04\n      tag_41\n      jump\t// in\n    tag_86:\n      mstore(0x20, 0x03)\n      0x00\n      swap1\n      dup2\n      mstore\n      0x40\n      swap1\n      keccak256\n      sload\n      sub(shl(0xa0, 0x01), 0x01)\n      and\n      dup2\n      jump\n        /* \"contracts/proxy/ProxyStorage.sol\":182:233  mapping(address => bool) public aliveImplementation */\n    tag_12:\n      callvalue\n      dup1\n      iszero\n      tag_89\n      jumpi\n      0x00\n      dup1\n      revert\n    tag_89:\n      pop\n      tag_39\n      tag_91\n      calldatasize\n      0x04\n      tag_57\n      jump\t// in\n    tag_91:\n      mstore(0x20, 0x02)\n      0x00\n      swap1\n      dup2\n      mstore\n      0x40\n      swap1\n      keccak256\n      sload\n      0xff\n      and\n      dup2\n      jump\n        /* \"contracts/proxy/ProxyStorage.sol\":93:115  bool public pauseProxy */\n    tag_13:\n      callvalue\n      dup1\n      iszero\n      tag_94\n      jumpi\n      0x00\n      dup1\n      revert\n    tag_94:\n      pop\n      sload(0x00)\n      tag_39\n      swap1\n      0xff\n      and\n      dup2\n      jump\n        /* \"contracts/L2/L2toL2CrossTradeL21Mock.sol\":10700:11849  function cancelCT(... */\n    tag_14:\n      callvalue\n      dup1\n      iszero\n      tag_98\n      jumpi\n      0x00\n      dup1\n      revert\n    tag_98:\n      pop\n      tag_45\n      tag_100\n      calldatasize\n      0x04\n      tag_101\n      jump\t// in\n    tag_100:\n      tag_102\n      jump\t// in\n        /* \"contracts/L2/L2toL2CrossTradeL21Mock.sol\":4441:5019  function deleteToken(... */\n    tag_15:\n      callvalue\n      dup1\n      iszero\n      tag_103\n      jumpi\n      0x00\n      dup1\n      revert\n    tag_103:\n      pop\n      tag_45\n      tag_105\n      calldatasize\n      0x04\n      tag_106\n      jump\t// in\n    tag_105:\n      tag_107\n      jump\t// in\n        /* \"contracts/common/AccessibleCommon.sol\":401:508  function addAdmin(address account) public virtual onlyOwner {... */\n    tag_16:\n      callvalue\n      dup1\n      iszero\n      tag_108\n      jumpi\n      0x00\n      dup1\n      revert\n    tag_108:\n      pop\n      tag_45\n      tag_110\n      calldatasize\n      0x04\n      tag_57\n      jump\t// in\n    tag_110:\n      tag_111\n      jump\t// in\n        /* \"contracts/common/AccessibleCommon.sol\":771:1070  function transferAdmin(address newAdmin) external virtual onlyOwner {... */\n    tag_17:\n      callvalue\n      dup1\n      iszero\n      tag_112\n      jumpi\n      0x00\n      dup1\n      revert\n    tag_112:\n      pop\n      tag_45\n      tag_114\n      calldatasize\n      0x04\n      tag_57\n      jump\t// in\n    tag_114:\n      tag_115\n      jump\t// in\n        /* \"contracts/common/AccessRoleCommon.sol\":90:145  bytes32 public constant ADMIN_ROLE = keccak256(\"ADMIN\") */\n    tag_18:\n      callvalue\n      dup1\n      iszero\n      tag_116\n      jumpi\n      0x00\n      dup1\n      revert\n    tag_116:\n      pop\n      tag_60\n      0x00\n      dup1\n      mload\n      0x20\n      data_a29c3f0504a76c686875ea2f0fc314af702d3407223f14a34325f35a1858bd3b\n      dup4\n      codecopy\n      dup2\n      mload\n      swap2\n      mstore\n      dup2\n      jump\n        /* \"contracts/L2/L2toL2CrossTradeL21Mock.sol\":12475:13240  function getHash(... */\n    tag_19:\n      callvalue\n      dup1\n      iszero\n      tag_120\n      jumpi\n      0x00\n      dup1\n      revert\n    tag_120:\n      pop\n      tag_60\n      tag_122\n      calldatasize\n      0x04\n      tag_123\n      jump\t// in\n    tag_122:\n      tag_124\n      jump\t// in\n        /* \"@openzeppelin/contracts/access/AccessControl.sol\":2854:2990  function hasRole(bytes32 role, address account) public view virtual returns (bool) {... */\n    tag_20:\n      callvalue\n      dup1\n      iszero\n      tag_126\n      jumpi\n      0x00\n      dup1\n      revert\n    tag_126:\n      pop\n      tag_39\n      tag_128\n      calldatasize\n      0x04\n      tag_78\n      jump\t// in\n    tag_128:\n      tag_129\n      jump\t// in\n        /* \"contracts/L2/L2toL2CrossTradeStorage.sol\":587:611  uint256 public saleCount */\n    tag_21:\n      callvalue\n      dup1\n      iszero\n      tag_131\n      jumpi\n      0x00\n      dup1\n      revert\n    tag_131:\n      pop\n      tag_60\n      sload(0x07)\n      dup2\n      jump\n        /* \"@openzeppelin/contracts/access/AccessControl.sol\":2187:2236  bytes32 public constant DEFAULT_ADMIN_ROLE = 0x00 */\n    tag_22:\n      callvalue\n      dup1\n      iszero\n      tag_136\n      jumpi\n      0x00\n      dup1\n      revert\n    tag_136:\n      pop\n      tag_60\n        /* \"@openzeppelin/contracts/access/AccessControl.sol\":2232:2236  0x00 */\n      0x00\n        /* \"@openzeppelin/contracts/access/AccessControl.sol\":2187:2236  bytes32 public constant DEFAULT_ADMIN_ROLE = 0x00 */\n      dup2\n      jump\n        /* \"contracts/proxy/ProxyStorage.sol\":122:176  mapping(uint256 => address) public proxyImplementation */\n    tag_23:\n      callvalue\n      dup1\n      iszero\n      tag_140\n      jumpi\n      0x00\n      dup1\n      revert\n    tag_140:\n      pop\n      tag_50\n      tag_142\n      calldatasize\n      0x04\n      tag_67\n      jump\t// in\n    tag_142:\n      mstore(0x20, 0x01)\n      0x00\n      swap1\n      dup2\n      mstore\n      0x40\n      swap1\n      keccak256\n      sload\n      sub(shl(0xa0, 0x01), 0x01)\n      and\n      dup2\n      jump\n        /* \"contracts/L2/L2toL2CrossTradeL21Mock.sol\":9311:10323  function claimCT(... */\n    tag_24:\n      callvalue\n      dup1\n      iszero\n      tag_146\n      jumpi\n      0x00\n      dup1\n      revert\n    tag_146:\n      pop\n      tag_45\n      tag_148\n      calldatasize\n      0x04\n      tag_149\n      jump\t// in\n    tag_148:\n      tag_150\n      jump\t// in\n        /* \"@openzeppelin/contracts/access/AccessControl.sol\":4642:4780  function revokeRole(bytes32 role, address account) public virtual onlyRole(getRoleAdmin(role)) {... */\n    tag_25:\n      callvalue\n      dup1\n      iszero\n      tag_151\n      jumpi\n      0x00\n      dup1\n      revert\n    tag_151:\n      pop\n      tag_45\n      tag_153\n      calldatasize\n      0x04\n      tag_78\n      jump\t// in\n    tag_153:\n      tag_154\n      jump\t// in\n        /* \"contracts/L2/L2toL2CrossTradeL21Mock.sol\":3470:4052  function registerToken(... */\n    tag_26:\n      callvalue\n      dup1\n      iszero\n      tag_155\n      jumpi\n      0x00\n      dup1\n      revert\n    tag_155:\n      pop\n      tag_45\n      tag_157\n      calldatasize\n      0x04\n      tag_106\n      jump\t// in\n    tag_157:\n      tag_158\n      jump\t// in\n        /* \"contracts/L2/L2toL2CrossTradeStorage.sol\":867:915  mapping(uint256 => ChainIdData) public chainData */\n    tag_27:\n      callvalue\n      dup1\n      iszero\n      tag_159\n      jumpi\n      0x00\n      dup1\n      revert\n    tag_159:\n      pop\n      tag_160\n      tag_161\n      calldatasize\n      0x04\n      tag_67\n      jump\t// in\n    tag_161:\n      mstore(0x20, 0x0a)\n      0x00\n      swap1\n      dup2\n      mstore\n      0x40\n      swap1\n      keccak256\n      dup1\n      sload\n      0x01\n      swap1\n      swap2\n      add\n      sload\n      sub(shl(0xa0, 0x01), 0x01)\n      swap2\n      dup3\n      and\n      swap2\n      and\n      dup3\n      jump\n    tag_160:\n      0x40\n      dup1\n      mload\n      sub(shl(0xa0, 0x01), 0x01)\n        /* \"#utility.yul\":6139:6154   */\n      swap4\n      dup5\n      and\n        /* \"#utility.yul\":6121:6155   */\n      dup2\n      mstore\n        /* \"#utility.yul\":6191:6206   */\n      swap3\n      swap1\n      swap2\n      and\n        /* \"#utility.yul\":6186:6188   */\n      0x20\n        /* \"#utility.yul\":6171:6189   */\n      dup4\n      add\n        /* \"#utility.yul\":6164:6207   */\n      mstore\n        /* \"#utility.yul\":6056:6074   */\n      add\n        /* \"contracts/L2/L2toL2CrossTradeStorage.sol\":867:915  mapping(uint256 => ChainIdData) public chainData */\n      tag_43\n        /* \"#utility.yul\":5909:6213   */\n      jump\n        /* \"contracts/L2/L2toL2CrossTradeL21Mock.sol\":7323:8395  function requestNonRegisteredToken(... */\n    tag_28:\n      tag_45\n      tag_166\n      calldatasize\n      0x04\n      tag_47\n      jump\t// in\n    tag_166:\n      tag_167\n      jump\t// in\n        /* \"contracts/L2/L2toL2CrossTradeStorage.sol\":510:545  address public crossDomainMessenger */\n    tag_29:\n      callvalue\n      dup1\n      iszero\n      tag_168\n      jumpi\n      0x00\n      dup1\n      revert\n    tag_168:\n      pop\n      sload(0x05)\n      tag_50\n      swap1\n      sub(shl(0xa0, 0x01), 0x01)\n      and\n      dup2\n      jump\n        /* \"contracts/L2/L2toL2CrossTradeStorage.sol\":647:694  mapping(uint256 => RequestData) public dealData */\n    tag_30:\n      callvalue\n      dup1\n      iszero\n      tag_172\n      jumpi\n      0x00\n      dup1\n      revert\n    tag_172:\n      pop\n      tag_173\n      tag_174\n      calldatasize\n      0x04\n      tag_67\n      jump\t// in\n    tag_174:\n      0x08\n      0x20\n      dup2\n      swap1\n      mstore\n      0x00\n      swap2\n      dup3\n      mstore\n      0x40\n      swap1\n      swap2\n      keccak256\n      dup1\n      sload\n      0x01\n      dup3\n      add\n      sload\n      0x02\n      dup4\n      add\n      sload\n      0x03\n      dup5\n      add\n      sload\n      0x04\n      dup6\n      add\n      sload\n      0x05\n      dup7\n      add\n      sload\n      0x06\n      dup8\n      add\n      sload\n      0x07\n      dup9\n      add\n      sload\n      swap9\n      dup9\n      add\n      sload\n      0x09\n      swap1\n      swap9\n      add\n      sload\n      sub(shl(0xa0, 0x01), 0x01)\n      swap8\n      dup9\n      and\n      swap10\n      swap7\n      dup9\n      and\n      swap9\n      swap6\n      dup9\n      and\n      swap8\n      swap5\n      dup6\n      and\n      swap7\n      swap4\n      swap1\n      swap5\n      and\n      swap5\n      swap2\n      swap4\n      swap1\n      swap3\n      swap2\n      swap1\n      dup11\n      jump\n    tag_173:\n      0x40\n      dup1\n      mload\n      sub(shl(0xa0, 0x01), 0x01)\n        /* \"#utility.yul\":6673:6688   */\n      swap12\n      dup13\n      and\n        /* \"#utility.yul\":6655:6689   */\n      dup2\n      mstore\n        /* \"#utility.yul\":6725:6740   */\n      swap10\n      dup12\n      and\n        /* \"#utility.yul\":6720:6722   */\n      0x20\n        /* \"#utility.yul\":6705:6723   */\n      dup12\n      add\n        /* \"#utility.yul\":6698:6741   */\n      mstore\n        /* \"#utility.yul\":6777:6792   */\n      swap8\n      dup11\n      and\n        /* \"#utility.yul\":6757:6775   */\n      swap8\n      dup10\n      add\n        /* \"#utility.yul\":6750:6793   */\n      swap8\n      swap1\n      swap8\n      mstore\n        /* \"#utility.yul\":6829:6844   */\n      swap5\n      dup9\n      and\n        /* \"#utility.yul\":6824:6826   */\n      0x60\n        /* \"#utility.yul\":6809:6827   */\n      dup9\n      add\n        /* \"#utility.yul\":6802:6845   */\n      mstore\n        /* \"#utility.yul\":6882:6897   */\n      swap7\n      swap1\n      swap3\n      and\n        /* \"#utility.yul\":6876:6879   */\n      0x80\n        /* \"#utility.yul\":6861:6880   */\n      dup7\n      add\n        /* \"#utility.yul\":6854:6898   */\n      mstore\n        /* \"#utility.yul\":6635:6638   */\n      0xa0\n        /* \"#utility.yul\":6914:6933   */\n      dup6\n      add\n        /* \"#utility.yul\":6907:6942   */\n      mstore\n        /* \"#utility.yul\":6973:6976   */\n      0xc0\n        /* \"#utility.yul\":6958:6977   */\n      dup5\n      add\n        /* \"#utility.yul\":6951:6986   */\n      mstore\n        /* \"#utility.yul\":7017:7020   */\n      0xe0\n        /* \"#utility.yul\":7002:7021   */\n      dup4\n      add\n        /* \"#utility.yul\":6995:7030   */\n      swap4\n      swap1\n      swap4\n      mstore\n        /* \"#utility.yul\":7061:7064   */\n      0x0100\n        /* \"#utility.yul\":7046:7065   */\n      dup3\n      add\n        /* \"#utility.yul\":7039:7074   */\n      swap3\n      swap1\n      swap3\n      mstore\n        /* \"#utility.yul\":7105:7108   */\n      0x0120\n        /* \"#utility.yul\":7090:7109   */\n      dup2\n      add\n        /* \"#utility.yul\":7083:7118   */\n      swap2\n      swap1\n      swap2\n      mstore\n        /* \"#utility.yul\":6604:6607   */\n      0x0140\n        /* \"#utility.yul\":6589:6608   */\n      add\n        /* \"contracts/L2/L2toL2CrossTradeStorage.sol\":647:694  mapping(uint256 => RequestData) public dealData */\n      tag_43\n        /* \"#utility.yul\":6218:7124   */\n      jump\n        /* \"@openzeppelin/contracts/access/AccessControl.sol\":2565:2767  function supportsInterface(bytes4 interfaceId) public view virtual override returns (bool) {... */\n    tag_42:\n        /* \"@openzeppelin/contracts/access/AccessControl.sol\":2650:2654  bool */\n      0x00\n      not(sub(shl(0xe0, 0x01), 0x01))\n        /* \"@openzeppelin/contracts/access/AccessControl.sol\":2673:2720  interfaceId == type(IAccessControl).interfaceId */\n      dup3\n      and\n      shl(0xe0, 0x7965db0b)\n      eq\n      dup1\n        /* \"@openzeppelin/contracts/access/AccessControl.sol\":2673:2760  interfaceId == type(IAccessControl).interfaceId || super.supportsInterface(interfaceId) */\n      tag_180\n      jumpi\n      pop\n      shl(0xe0, 0x01ffc9a7)\n      not(sub(shl(0xe0, 0x01), 0x01))\n        /* \"@openzeppelin/contracts/utils/introspection/ERC165.sol\":861:901  interfaceId == type(IERC165).interfaceId */\n      dup4\n      and\n      eq\n        /* \"@openzeppelin/contracts/access/AccessControl.sol\":2724:2760  super.supportsInterface(interfaceId) */\n    tag_180:\n        /* \"@openzeppelin/contracts/access/AccessControl.sol\":2666:2760  return interfaceId == type(IAccessControl).interfaceId || super.supportsInterface(interfaceId) */\n      swap3\n        /* \"@openzeppelin/contracts/access/AccessControl.sol\":2565:2767  function supportsInterface(bytes4 interfaceId) public view virtual override returns (bool) {... */\n      swap2\n      pop\n      pop\n      jump\t// out\n        /* \"contracts/L2/L2toL2CrossTradeL21Mock.sol\":5443:6895  function requestRegisteredToken(... */\n    tag_48:\n        /* \"contracts/L2/L2toL2CrossTradeL21Mock.sol\":2274:2284  msg.sender */\n      caller\n        /* \"contracts/L2/L2toL2CrossTradeL21Mock.sol\":2288:2297  tx.origin */\n      origin\n        /* \"contracts/L2/L2toL2CrossTradeL21Mock.sol\":2274:2297  msg.sender == tx.origin */\n      eq\n        /* \"contracts/L2/L2toL2CrossTradeL21Mock.sol\":2266:2347  require(msg.sender == tx.origin, \"L2FW: function can only be called from an EOA\") */\n      tag_183\n      jumpi\n      mload(0x40)\n      shl(0xe5, 0x461bcd)\n      dup2\n      mstore\n      0x04\n      add\n      tag_184\n      swap1\n      tag_185\n      jump\t// in\n    tag_184:\n      mload(0x40)\n      dup1\n      swap2\n      sub\n      swap1\n      revert\n    tag_183:\n        /* \"contracts/L2/L2toL2CrossTradeL21Mock.sol\":5755:5767  _totalAmount */\n      dup4\n        /* \"contracts/L2/L2toL2CrossTradeL21Mock.sol\":2878:2879  0 */\n      0x00\n        /* \"contracts/L2/L2toL2CrossTradeL21Mock.sol\":2868:2875  _amount */\n      dup2\n        /* \"contracts/L2/L2toL2CrossTradeL21Mock.sol\":2868:2879  _amount > 0 */\n      gt\n        /* \"contracts/L2/L2toL2CrossTradeL21Mock.sol\":2860:2910  require(_amount > 0 , \"input amount need nonZero\") */\n      tag_187\n      jumpi\n      mload(0x40)\n      shl(0xe5, 0x461bcd)\n      dup2\n      mstore\n      0x04\n      add\n      tag_184\n      swap1\n      tag_189\n      jump\t// in\n    tag_187:\n        /* \"contracts/L2/L2toL2CrossTradeL21Mock.sol\":5785:5794  _ctAmount */\n      dup4\n        /* \"contracts/L2/L2toL2CrossTradeL21Mock.sol\":2878:2879  0 */\n      0x00\n        /* \"contracts/L2/L2toL2CrossTradeL21Mock.sol\":2868:2875  _amount */\n      dup2\n        /* \"contracts/L2/L2toL2CrossTradeL21Mock.sol\":2868:2879  _amount > 0 */\n      gt\n        /* \"contracts/L2/L2toL2CrossTradeL21Mock.sol\":2860:2910  require(_amount > 0 , \"input amount need nonZero\") */\n      tag_191\n      jumpi\n      mload(0x40)\n      shl(0xe5, 0x461bcd)\n      dup2\n      mstore\n      0x04\n      add\n      tag_184\n      swap1\n      tag_189\n      jump\t// in\n    tag_191:\n        /* \"contracts/utils/ReentrancyGuard.sol\":2500:2521  _nonReentrantBefore() */\n      tag_194\n        /* \"contracts/utils/ReentrancyGuard.sol\":2500:2519  _nonReentrantBefore */\n      tag_195\n        /* \"contracts/utils/ReentrancyGuard.sol\":2500:2521  _nonReentrantBefore() */\n      jump\t// in\n    tag_194:\n        /* \"contracts/L2/L2toL2CrossTradeL21Mock.sol\":5905:6087  abi.encode(... */\n      mload(0x40)\n        /* \"contracts/L2/L2toL2CrossTradeL21Mock.sol\":13640:13649  chainid() */\n      chainid\n      swap1\n        /* \"contracts/L2/L2toL2CrossTradeL21Mock.sol\":5832:5856  uint256 _l2SourceChainId */\n      0x00\n      swap1\n        /* \"contracts/L2/L2toL2CrossTradeL21Mock.sol\":5905:6087  abi.encode(... */\n      tag_199\n      swap1\n        /* \"contracts/L2/L2toL2CrossTradeL21Mock.sol\":5929:5939  _l1ChainId */\n      dup8\n      swap1\n        /* \"contracts/L2/L2toL2CrossTradeL21Mock.sol\":13640:13649  chainid() */\n      dup5\n      swap1\n        /* \"contracts/L2/L2toL2CrossTradeL21Mock.sol\":5983:5999  _l2TargetChainId */\n      dup9\n      swap1\n        /* \"contracts/L2/L2toL2CrossTradeL21Mock.sol\":6013:6021  _l1token */\n      dup16\n      swap1\n        /* \"contracts/L2/L2toL2CrossTradeL21Mock.sol\":6035:6049  _l2SourceToken */\n      dup16\n      swap1\n        /* \"contracts/L2/L2toL2CrossTradeL21Mock.sol\":6063:6077  _l2TargetToken */\n      dup16\n      swap1\n        /* \"contracts/L2/L2toL2CrossTradeL21Mock.sol\":5905:6087  abi.encode(... */\n      0x20\n      add\n      tag_200\n      jump\t// in\n    tag_199:\n      0x40\n      dup1\n      mload\n      not(0x1f)\n      dup2\n      dup5\n      sub\n      add\n      dup2\n      mstore\n      swap2\n      dup2\n      mstore\n        /* \"contracts/L2/L2toL2CrossTradeL21Mock.sol\":5895:6088  keccak256(abi.encode(... */\n      dup2\n      mload\n        /* \"contracts/L2/L2toL2CrossTradeL21Mock.sol\":5905:6087  abi.encode(... */\n      0x20\n        /* \"contracts/L2/L2toL2CrossTradeL21Mock.sol\":5895:6088  keccak256(abi.encode(... */\n      swap3\n      dup4\n      add\n      keccak256\n        /* \"contracts/L2/L2toL2CrossTradeL21Mock.sol\":6107:6124  registerCheck[id] */\n      0x00\n      dup2\n      dup2\n      mstore\n        /* \"contracts/L2/L2toL2CrossTradeL21Mock.sol\":6107:6120  registerCheck */\n      0x09\n        /* \"contracts/L2/L2toL2CrossTradeL21Mock.sol\":6107:6124  registerCheck[id] */\n      swap1\n      swap4\n      mstore\n      swap2\n      keccak256\n      sload\n        /* \"contracts/L2/L2toL2CrossTradeL21Mock.sol\":5895:6088  keccak256(abi.encode(... */\n      swap1\n      swap2\n      pop\n        /* \"contracts/L2/L2toL2CrossTradeL21Mock.sol\":6107:6124  registerCheck[id] */\n      0xff\n      and\n        /* \"contracts/L2/L2toL2CrossTradeL21Mock.sol\":6107:6132  registerCheck[id] == true */\n      iszero\n      iszero\n        /* \"contracts/L2/L2toL2CrossTradeL21Mock.sol\":6107:6124  registerCheck[id] */\n      0x01\n        /* \"contracts/L2/L2toL2CrossTradeL21Mock.sol\":6107:6132  registerCheck[id] == true */\n      eq\n        /* \"contracts/L2/L2toL2CrossTradeL21Mock.sol\":6099:6155  require(registerCheck[id] == true, \"not register token\") */\n      tag_201\n      jumpi\n      mload(0x40)\n      shl(0xe5, 0x461bcd)\n      dup2\n      mstore\n        /* \"#utility.yul\":8704:8706   */\n      0x20\n        /* \"contracts/L2/L2toL2CrossTradeL21Mock.sol\":6099:6155  require(registerCheck[id] == true, \"not register token\") */\n      0x04\n      dup3\n      add\n        /* \"#utility.yul\":8686:8707   */\n      mstore\n        /* \"#utility.yul\":8743:8745   */\n      0x12\n        /* \"#utility.yul\":8723:8741   */\n      0x24\n      dup3\n      add\n        /* \"#utility.yul\":8716:8746   */\n      mstore\n      shl(0x71, 0x3737ba103932b3b4b9ba32b9103a37b5b2b7)\n        /* \"#utility.yul\":8762:8780   */\n      0x44\n      dup3\n      add\n        /* \"#utility.yul\":8755:8803   */\n      mstore\n        /* \"#utility.yul\":8820:8838   */\n      0x64\n      add\n        /* \"contracts/L2/L2toL2CrossTradeL21Mock.sol\":6099:6155  require(registerCheck[id] == true, \"not register token\") */\n      tag_184\n        /* \"#utility.yul\":8502:8844   */\n      jump\n        /* \"contracts/L2/L2toL2CrossTradeL21Mock.sol\":6099:6155  require(registerCheck[id] == true, \"not register token\") */\n    tag_201:\n        /* \"contracts/L2/L2toL2CrossTradeL21Mock.sol\":6189:6198  _ctAmount */\n      dup7\n        /* \"contracts/L2/L2toL2CrossTradeL21Mock.sol\":6173:6185  _totalAmount */\n      dup9\n        /* \"contracts/L2/L2toL2CrossTradeL21Mock.sol\":6173:6198  _totalAmount >= _ctAmount */\n      lt\n      iszero\n        /* \"contracts/L2/L2toL2CrossTradeL21Mock.sol\":6165:6254  require(_totalAmount >= _ctAmount, \"The totalAmount value must be greater than ctAmount\") */\n      tag_204\n      jumpi\n      mload(0x40)\n      shl(0xe5, 0x461bcd)\n      dup2\n      mstore\n        /* \"#utility.yul\":9051:9053   */\n      0x20\n        /* \"contracts/L2/L2toL2CrossTradeL21Mock.sol\":6165:6254  require(_totalAmount >= _ctAmount, \"The totalAmount value must be greater than ctAmount\") */\n      0x04\n      dup3\n      add\n        /* \"#utility.yul\":9033:9054   */\n      mstore\n        /* \"#utility.yul\":9090:9092   */\n      0x33\n        /* \"#utility.yul\":9070:9088   */\n      0x24\n      dup3\n      add\n        /* \"#utility.yul\":9063:9093   */\n      mstore\n        /* \"#utility.yul\":9129:9163   */\n      0x54686520746f74616c416d6f756e742076616c7565206d757374206265206772\n        /* \"#utility.yul\":9109:9127   */\n      0x44\n      dup3\n      add\n        /* \"#utility.yul\":9102:9164   */\n      mstore\n      shl(0x6a, 0x19585d195c881d1a185b8818dd105b5bdd5b9d)\n        /* \"#utility.yul\":9180:9198   */\n      0x64\n      dup3\n      add\n        /* \"#utility.yul\":9173:9222   */\n      mstore\n        /* \"#utility.yul\":9239:9258   */\n      0x84\n      add\n        /* \"contracts/L2/L2toL2CrossTradeL21Mock.sol\":6165:6254  require(_totalAmount >= _ctAmount, \"The totalAmount value must be greater than ctAmount\") */\n      tag_184\n        /* \"#utility.yul\":8849:9264   */\n      jump\n        /* \"contracts/L2/L2toL2CrossTradeL21Mock.sol\":6165:6254  require(_totalAmount >= _ctAmount, \"The totalAmount value must be greater than ctAmount\") */\n    tag_204:\n        /* \"contracts/L2/L2toL2CrossTradeL21Mock.sol\":6299:6308  saleCount */\n      0x07\n      0x00\n        /* \"contracts/L2/L2toL2CrossTradeL21Mock.sol\":6297:6308  ++saleCount */\n      dup2\n      sload\n      0x01\n      add\n      swap2\n      swap1\n      pop\n      dup2\n      swap1\n      sstore\n      pop\n        /* \"contracts/L2/L2toL2CrossTradeL21Mock.sol\":6329:6346  bytes32 hashValue */\n      0x00\n        /* \"contracts/L2/L2toL2CrossTradeL21Mock.sol\":6349:6571  _request(... */\n      tag_207\n        /* \"contracts/L2/L2toL2CrossTradeL21Mock.sol\":6371:6379  _l1token */\n      dup13\n        /* \"contracts/L2/L2toL2CrossTradeL21Mock.sol\":6393:6407  _l2SourceToken */\n      dup13\n        /* \"contracts/L2/L2toL2CrossTradeL21Mock.sol\":6421:6435  _l2TargetToken */\n      dup13\n        /* \"contracts/L2/L2toL2CrossTradeL21Mock.sol\":6449:6461  _totalAmount */\n      dup13\n        /* \"contracts/L2/L2toL2CrossTradeL21Mock.sol\":6475:6484  _ctAmount */\n      dup13\n        /* \"contracts/L2/L2toL2CrossTradeL21Mock.sol\":6498:6507  saleCount */\n      sload(0x07)\n        /* \"contracts/L2/L2toL2CrossTradeL21Mock.sol\":6521:6531  _l1ChainId */\n      dup14\n        /* \"contracts/L2/L2toL2CrossTradeL21Mock.sol\":6545:6561  _l2TargetChainId */\n      dup14\n        /* \"contracts/L2/L2toL2CrossTradeL21Mock.sol\":6349:6357  _request */\n      tag_208\n        /* \"contracts/L2/L2toL2CrossTradeL21Mock.sol\":6349:6571  _request(... */\n      jump\t// in\n    tag_207:\n        /* \"contracts/L2/L2toL2CrossTradeL21Mock.sol\":6329:6571  bytes32 hashValue = _request(... */\n      swap1\n      pop\n        /* \"contracts/L2/L2toL2CrossTradeL21Mock.sol\":6762:6771  saleCount */\n      sload(0x07)\n        /* \"contracts/L2/L2toL2CrossTradeL21Mock.sol\":6588:6888  RequestCT(... */\n      0xf58a3eb43ce8649bc1cfb2014001a2bf5a73ab4e3df0f0f76ce5f2d1b390d3d9\n        /* \"contracts/L2/L2toL2CrossTradeL21Mock.sol\":6611:6619  _l1token */\n      dup14\n        /* \"contracts/L2/L2toL2CrossTradeL21Mock.sol\":6633:6647  _l2SourceToken */\n      dup14\n        /* \"contracts/L2/L2toL2CrossTradeL21Mock.sol\":6661:6675  _l2TargetToken */\n      dup14\n        /* \"contracts/L2/L2toL2CrossTradeL21Mock.sol\":6689:6699  msg.sender */\n      caller\n        /* \"contracts/L2/L2toL2CrossTradeL21Mock.sol\":6713:6725  _totalAmount */\n      dup15\n        /* \"contracts/L2/L2toL2CrossTradeL21Mock.sol\":6739:6748  _ctAmount */\n      dup15\n        /* \"contracts/L2/L2toL2CrossTradeL21Mock.sol\":6785:6795  _l1ChainId */\n      dup15\n        /* \"contracts/L2/L2toL2CrossTradeL21Mock.sol\":6809:6825  _l2SourceChainId */\n      dup12\n        /* \"contracts/L2/L2toL2CrossTradeL21Mock.sol\":6839:6855  _l2TargetChainId */\n      dup16\n        /* \"contracts/L2/L2toL2CrossTradeL21Mock.sol\":6869:6878  hashValue */\n      dup12\n        /* \"contracts/L2/L2toL2CrossTradeL21Mock.sol\":6588:6888  RequestCT(... */\n      mload(0x40)\n      tag_209\n      swap11\n      swap10\n      swap9\n      swap8\n      swap7\n      swap6\n      swap5\n      swap4\n      swap3\n      swap2\n      swap1\n      tag_210\n      jump\t// in\n    tag_209:\n      mload(0x40)\n      dup1\n      swap2\n      sub\n      swap1\n      log2\n        /* \"contracts/L2/L2toL2CrossTradeL21Mock.sol\":5821:6895  {... */\n      pop\n      pop\n      pop\n        /* \"contracts/utils/ReentrancyGuard.sol\":2542:2562  _nonReentrantAfter() */\n      tag_211\n        /* \"contracts/utils/ReentrancyGuard.sol\":1857:1858  1 */\n      0x01\n        /* \"contracts/utils/ReentrancyGuard.sol\":3068:3075  _status */\n      0x0b\n        /* \"contracts/utils/ReentrancyGuard.sol\":3068:3089  _status = NOT_ENTERED */\n      sstore\n        /* \"contracts/utils/ReentrancyGuard.sol\":2888:3096  function _nonReentrantAfter() private {... */\n      jump\n        /* \"contracts/utils/ReentrancyGuard.sol\":2542:2562  _nonReentrantAfter() */\n    tag_211:\n        /* \"contracts/L2/L2toL2CrossTradeL21Mock.sol\":2920:2921  _ */\n      pop\n        /* \"contracts/L2/L2toL2CrossTradeL21Mock.sol\":2357:2358  _ */\n      pop\n        /* \"contracts/L2/L2toL2CrossTradeL21Mock.sol\":5443:6895  function requestRegisteredToken(... */\n      pop\n      pop\n      pop\n      pop\n      pop\n      pop\n      pop\n      jump\t// out\n        /* \"contracts/common/AccessibleCommon.sol\":582:695  function removeAdmin(address account) public virtual onlyOwner {... */\n    tag_58:\n        /* \"contracts/common/AccessibleCommon.sol\":257:276  isAdmin(msg.sender) */\n      tag_214\n        /* \"contracts/common/AccessibleCommon.sol\":265:275  msg.sender */\n      caller\n        /* \"contracts/common/AccessibleCommon.sol\":257:264  isAdmin */\n      tag_73\n        /* \"contracts/common/AccessibleCommon.sol\":257:276  isAdmin(msg.sender) */\n      jump\t// in\n    tag_214:\n        /* \"contracts/common/AccessibleCommon.sol\":249:315  require(isAdmin(msg.sender), \"Accessible: Caller is not an admin\") */\n      tag_215\n      jumpi\n      mload(0x40)\n      shl(0xe5, 0x461bcd)\n      dup2\n      mstore\n      0x04\n      add\n      tag_184\n      swap1\n      tag_217\n      jump\t// in\n    tag_215:\n        /* \"contracts/common/AccessibleCommon.sol\":655:688  renounceRole(ADMIN_ROLE, account) */\n      tag_219\n      0x00\n      dup1\n      mload\n      0x20\n      data_a29c3f0504a76c686875ea2f0fc314af702d3407223f14a34325f35a1858bd3b\n      dup4\n      codecopy\n      dup2\n      mload\n      swap2\n      mstore\n        /* \"contracts/common/AccessibleCommon.sol\":680:687  account */\n      dup3\n        /* \"contracts/common/AccessibleCommon.sol\":655:667  renounceRole */\n      tag_83\n        /* \"contracts/common/AccessibleCommon.sol\":655:688  renounceRole(ADMIN_ROLE, account) */\n      jump\t// in\n    tag_219:\n        /* \"contracts/common/AccessibleCommon.sol\":582:695  function removeAdmin(address account) public virtual onlyOwner {... */\n      pop\n      jump\t// out\n        /* \"contracts/common/AccessibleCommon.sol\":1144:1265  function isAdmin(address account) public view virtual returns (bool) {... */\n    tag_73:\n        /* \"contracts/common/AccessibleCommon.sol\":1207:1211  bool */\n      0x00\n        /* \"contracts/common/AccessibleCommon.sol\":1230:1258  hasRole(ADMIN_ROLE, account) */\n      tag_180\n      0x00\n      dup1\n      mload\n      0x20\n      data_a29c3f0504a76c686875ea2f0fc314af702d3407223f14a34325f35a1858bd3b\n      dup4\n      codecopy\n      dup2\n      mload\n      swap2\n      mstore\n        /* \"contracts/common/AccessibleCommon.sol\":1250:1257  account */\n      dup4\n        /* \"contracts/common/AccessibleCommon.sol\":1230:1237  hasRole */\n      tag_129\n        /* \"contracts/common/AccessibleCommon.sol\":1230:1258  hasRole(ADMIN_ROLE, account) */\n      jump\t// in\n        /* \"@openzeppelin/contracts/access/AccessControl.sol\":4226:4362  function grantRole(bytes32 role, address account) public virtual onlyRole(getRoleAdmin(role)) {... */\n    tag_79:\n        /* \"@openzeppelin/contracts/access/AccessControl.sol\":3875:3882  bytes32 */\n      0x00\n        /* \"@openzeppelin/contracts/access/AccessControl.sol\":3901:3913  _roles[role] */\n      dup3\n      dup2\n      mstore\n        /* \"@openzeppelin/contracts/access/AccessControl.sol\":3901:3907  _roles */\n      0x04\n        /* \"@openzeppelin/contracts/access/AccessControl.sol\":3901:3913  _roles[role] */\n      0x20\n      mstore\n      0x40\n      swap1\n      keccak256\n        /* \"@openzeppelin/contracts/access/AccessControl.sol\":3901:3923  _roles[role].adminRole */\n      0x01\n      add\n      sload\n        /* \"@openzeppelin/contracts/access/AccessControl.sol\":2464:2480  _checkRole(role) */\n      tag_225\n        /* \"@openzeppelin/contracts/access/AccessControl.sol\":2475:2479  role */\n      dup2\n        /* \"@openzeppelin/contracts/access/AccessControl.sol\":2464:2474  _checkRole */\n      tag_226\n        /* \"@openzeppelin/contracts/access/AccessControl.sol\":2464:2480  _checkRole(role) */\n      jump\t// in\n    tag_225:\n        /* \"@openzeppelin/contracts/access/AccessControl.sol\":4330:4355  _grantRole(role, account) */\n      tag_228\n        /* \"@openzeppelin/contracts/access/AccessControl.sol\":4341:4345  role */\n      dup4\n        /* \"@openzeppelin/contracts/access/AccessControl.sol\":4347:4354  account */\n      dup4\n        /* \"@openzeppelin/contracts/access/AccessControl.sol\":4330:4340  _grantRole */\n      tag_229\n        /* \"@openzeppelin/contracts/access/AccessControl.sol\":4330:4355  _grantRole(role, account) */\n      jump\t// in\n    tag_228:\n      pop\n        /* \"@openzeppelin/contracts/access/AccessControl.sol\":4226:4362  function grantRole(bytes32 role, address account) public virtual onlyRole(getRoleAdmin(role)) {... */\n      pop\n      pop\n      pop\n      jump\t// out\n        /* \"@openzeppelin/contracts/access/AccessControl.sol\":5328:5573  function renounceRole(bytes32 role, address callerConfirmation) public virtual {... */\n    tag_83:\n      sub(shl(0xa0, 0x01), 0x01)\n        /* \"@openzeppelin/contracts/access/AccessControl.sol\":5421:5455  callerConfirmation != _msgSender() */\n      dup2\n      and\n        /* \"@openzeppelin/contracts/utils/Context.sol\":735:745  msg.sender */\n      caller\n        /* \"@openzeppelin/contracts/access/AccessControl.sol\":5421:5455  callerConfirmation != _msgSender() */\n      eq\n        /* \"@openzeppelin/contracts/access/AccessControl.sol\":5417:5519  if (callerConfirmation != _msgSender()) {... */\n      tag_233\n      jumpi\n        /* \"@openzeppelin/contracts/access/AccessControl.sol\":5478:5508  AccessControlBadConfirmation() */\n      mload(0x40)\n      shl(0xe1, 0x334bd919)\n      dup2\n      mstore\n      0x04\n      add\n      mload(0x40)\n      dup1\n      swap2\n      sub\n      swap1\n      revert\n        /* \"@openzeppelin/contracts/access/AccessControl.sol\":5417:5519  if (callerConfirmation != _msgSender()) {... */\n    tag_233:\n        /* \"@openzeppelin/contracts/access/AccessControl.sol\":5529:5566  _revokeRole(role, callerConfirmation) */\n      tag_234\n        /* \"@openzeppelin/contracts/access/AccessControl.sol\":5541:5545  role */\n      dup3\n        /* \"@openzeppelin/contracts/access/AccessControl.sol\":5547:5565  callerConfirmation */\n      dup3\n        /* \"@openzeppelin/contracts/access/AccessControl.sol\":5529:5540  _revokeRole */\n      tag_235\n        /* \"@openzeppelin/contracts/access/AccessControl.sol\":5529:5566  _revokeRole(role, callerConfirmation) */\n      jump\t// in\n    tag_234:\n      pop\n        /* \"@openzeppelin/contracts/access/AccessControl.sol\":5328:5573  function renounceRole(bytes32 role, address callerConfirmation) public virtual {... */\n      pop\n      pop\n      jump\t// out\n        /* \"contracts/L2/L2toL2CrossTradeL21Mock.sol\":10700:11849  function cancelCT(... */\n    tag_102:\n        /* \"contracts/utils/ReentrancyGuard.sol\":2500:2521  _nonReentrantBefore() */\n      tag_237\n        /* \"contracts/utils/ReentrancyGuard.sol\":2500:2519  _nonReentrantBefore */\n      tag_195\n        /* \"contracts/utils/ReentrancyGuard.sol\":2500:2521  _nonReentrantBefore() */\n      jump\t// in\n    tag_237:\n        /* \"contracts/L2/L2toL2CrossTradeL21Mock.sol\":2459:2479  crossDomainMessenger */\n      sload(0x05)\n        /* \"contracts/L2/L2toL2CrossTradeL21Mock.sol\":10919:10929  _l1ChainId */\n      dup4\n      swap1\n      sub(shl(0xa0, 0x01), 0x01)\n        /* \"contracts/L2/L2toL2CrossTradeL21Mock.sol\":2459:2479  crossDomainMessenger */\n      and\n        /* \"contracts/L2/L2toL2CrossTradeL21Mock.sol\":2437:2447  msg.sender */\n      caller\n        /* \"contracts/L2/L2toL2CrossTradeL21Mock.sol\":2437:2480  msg.sender == address(crossDomainMessenger) */\n      eq\n        /* \"contracts/L2/L2toL2CrossTradeL21Mock.sol\":2437:2596  msg.sender == address(crossDomainMessenger) && IL2CrossDomainMessenger(crossDomainMessenger).xDomainMessageSender() == chainData[_chainId].l1CrossTradeContract */\n      dup1\n      iszero\n      tag_239\n      jumpi\n      pop\n        /* \"contracts/L2/L2toL2CrossTradeL21Mock.sol\":2556:2575  chainData[_chainId] */\n      0x00\n      dup2\n      dup2\n      mstore\n        /* \"contracts/L2/L2toL2CrossTradeL21Mock.sol\":2556:2565  chainData */\n      0x0a\n        /* \"contracts/L2/L2toL2CrossTradeL21Mock.sol\":2556:2575  chainData[_chainId] */\n      0x20\n      swap1\n      dup2\n      mstore\n      0x40\n      swap2\n      dup3\n      swap1\n      keccak256\n        /* \"contracts/L2/L2toL2CrossTradeL21Mock.sol\":2556:2596  chainData[_chainId].l1CrossTradeContract */\n      sload\n        /* \"contracts/L2/L2toL2CrossTradeL21Mock.sol\":2508:2528  crossDomainMessenger */\n      sload(0x05)\n        /* \"contracts/L2/L2toL2CrossTradeL21Mock.sol\":2484:2552  IL2CrossDomainMessenger(crossDomainMessenger).xDomainMessageSender() */\n      dup4\n      mload\n      shl(0xe0, 0x6e296e45)\n      dup2\n      mstore\n      swap4\n      mload\n      sub(shl(0xa0, 0x01), 0x01)\n        /* \"contracts/L2/L2toL2CrossTradeL21Mock.sol\":2556:2596  chainData[_chainId].l1CrossTradeContract */\n      swap3\n      dup4\n      and\n      swap5\n        /* \"contracts/L2/L2toL2CrossTradeL21Mock.sol\":2508:2528  crossDomainMessenger */\n      swap2\n      swap1\n      swap3\n      and\n      swap3\n        /* \"contracts/L2/L2toL2CrossTradeL21Mock.sol\":2484:2550  IL2CrossDomainMessenger(crossDomainMessenger).xDomainMessageSender */\n      0x6e296e45\n      swap3\n        /* \"contracts/L2/L2toL2CrossTradeL21Mock.sol\":2484:2552  IL2CrossDomainMessenger(crossDomainMessenger).xDomainMessageSender() */\n      0x04\n      dup1\n      dup5\n      add\n      swap4\n      dup3\n      swap1\n      sub\n      add\n      dup2\n        /* \"contracts/L2/L2toL2CrossTradeL21Mock.sol\":2508:2528  crossDomainMessenger */\n      dup7\n        /* \"contracts/L2/L2toL2CrossTradeL21Mock.sol\":2484:2552  IL2CrossDomainMessenger(crossDomainMessenger).xDomainMessageSender() */\n      gas\n      staticcall\n      iszero\n      dup1\n      iszero\n      tag_241\n      jumpi\n      returndatasize\n      0x00\n      dup1\n      returndatacopy\n      revert(0x00, returndatasize)\n    tag_241:\n      pop\n      pop\n      pop\n      pop\n      mload(0x40)\n      returndatasize\n      not(0x1f)\n      0x1f\n      dup3\n      add\n      and\n      dup3\n      add\n      dup1\n      0x40\n      mstore\n      pop\n      dup2\n      add\n      swap1\n      tag_242\n      swap2\n      swap1\n      tag_243\n      jump\t// in\n    tag_242:\n      sub(shl(0xa0, 0x01), 0x01)\n        /* \"contracts/L2/L2toL2CrossTradeL21Mock.sol\":2484:2596  IL2CrossDomainMessenger(crossDomainMessenger).xDomainMessageSender() == chainData[_chainId].l1CrossTradeContract */\n      and\n      eq\n        /* \"contracts/L2/L2toL2CrossTradeL21Mock.sol\":2437:2596  msg.sender == address(crossDomainMessenger) && IL2CrossDomainMessenger(crossDomainMessenger).xDomainMessageSender() == chainData[_chainId].l1CrossTradeContract */\n    tag_239:\n        /* \"contracts/L2/L2toL2CrossTradeL21Mock.sol\":2416:2647  require(... */\n      tag_244\n      jumpi\n      mload(0x40)\n      shl(0xe5, 0x461bcd)\n      dup2\n      mstore\n        /* \"#utility.yul\":11032:11034   */\n      0x20\n        /* \"contracts/L2/L2toL2CrossTradeL21Mock.sol\":2416:2647  require(... */\n      0x04\n      dup3\n      add\n        /* \"#utility.yul\":11014:11035   */\n      mstore\n        /* \"#utility.yul\":11071:11073   */\n      0x18\n        /* \"#utility.yul\":11051:11069   */\n      0x24\n      dup3\n      add\n        /* \"#utility.yul\":11044:11074   */\n      mstore\n      shl(0x40, 0x6f6e6c792063616c6c206c31466173745769746864726177)\n        /* \"#utility.yul\":11090:11108   */\n      0x44\n      dup3\n      add\n        /* \"#utility.yul\":11083:11137   */\n      mstore\n        /* \"#utility.yul\":11154:11172   */\n      0x64\n      add\n        /* \"contracts/L2/L2toL2CrossTradeL21Mock.sol\":2416:2647  require(... */\n      tag_184\n        /* \"#utility.yul\":10830:11178   */\n      jump\n        /* \"contracts/L2/L2toL2CrossTradeL21Mock.sol\":2416:2647  require(... */\n    tag_244:\n        /* \"contracts/L2/L2toL2CrossTradeL21Mock.sol\":2773:2774  0 */\n      0x00\n        /* \"contracts/L2/L2toL2CrossTradeL21Mock.sol\":2732:2752  dealData[_saleCount] */\n      dup6\n      dup2\n      mstore\n        /* \"contracts/L2/L2toL2CrossTradeL21Mock.sol\":2732:2740  dealData */\n      0x08\n        /* \"contracts/L2/L2toL2CrossTradeL21Mock.sol\":2732:2752  dealData[_saleCount] */\n      0x20\n      mstore\n      0x40\n      swap1\n      keccak256\n        /* \"contracts/L2/L2toL2CrossTradeL21Mock.sol\":2732:2761  dealData[_saleCount].provider */\n      0x04\n      add\n      sload\n        /* \"contracts/L2/L2toL2CrossTradeL21Mock.sol\":10953:10963  _salecount */\n      dup6\n      swap1\n      sub(shl(0xa0, 0x01), 0x01)\n        /* \"contracts/L2/L2toL2CrossTradeL21Mock.sol\":2732:2761  dealData[_saleCount].provider */\n      and\n        /* \"contracts/L2/L2toL2CrossTradeL21Mock.sol\":2732:2775  dealData[_saleCount].provider == address(0) */\n      iszero\n        /* \"contracts/L2/L2toL2CrossTradeL21Mock.sol\":2724:2792  require(dealData[_saleCount].provider == address(0), \"already sold\") */\n      tag_248\n      jumpi\n      mload(0x40)\n      shl(0xe5, 0x461bcd)\n      dup2\n      mstore\n        /* \"#utility.yul\":11385:11387   */\n      0x20\n        /* \"contracts/L2/L2toL2CrossTradeL21Mock.sol\":2724:2792  require(dealData[_saleCount].provider == address(0), \"already sold\") */\n      0x04\n      dup3\n      add\n        /* \"#utility.yul\":11367:11388   */\n      mstore\n        /* \"#utility.yul\":11424:11426   */\n      0x0c\n        /* \"#utility.yul\":11404:11422   */\n      0x24\n      dup3\n      add\n        /* \"#utility.yul\":11397:11427   */\n      mstore\n      shl(0xa2, 0x185b1c9958591e481cdbdb19)\n        /* \"#utility.yul\":11443:11461   */\n      0x44\n      dup3\n      add\n        /* \"#utility.yul\":11436:11478   */\n      mstore\n        /* \"#utility.yul\":11495:11513   */\n      0x64\n      add\n        /* \"contracts/L2/L2toL2CrossTradeL21Mock.sol\":2724:2792  require(dealData[_saleCount].provider == address(0), \"already sold\") */\n      tag_184\n        /* \"#utility.yul\":11183:11519   */\n      jump\n        /* \"contracts/L2/L2toL2CrossTradeL21Mock.sol\":2724:2792  require(dealData[_saleCount].provider == address(0), \"already sold\") */\n    tag_248:\n        /* \"contracts/L2/L2toL2CrossTradeL21Mock.sol\":10987:11007  dealData[_salecount] */\n      0x00\n      dup7\n      dup2\n      mstore\n        /* \"contracts/L2/L2toL2CrossTradeL21Mock.sol\":10987:10995  dealData */\n      0x08\n        /* \"contracts/L2/L2toL2CrossTradeL21Mock.sol\":10987:11007  dealData[_salecount] */\n      0x20\n      mstore\n      0x40\n      swap1\n      keccak256\n        /* \"contracts/L2/L2toL2CrossTradeL21Mock.sol\":10987:11017  dealData[_salecount].requester */\n      0x03\n      add\n      sload\n      sub(shl(0xa0, 0x01), 0x01)\n        /* \"contracts/L2/L2toL2CrossTradeL21Mock.sol\":10987:11031  dealData[_salecount].requester == _msgSender */\n      dup9\n      dup2\n      and\n        /* \"contracts/L2/L2toL2CrossTradeL21Mock.sol\":10987:11017  dealData[_salecount].requester */\n      swap2\n      and\n        /* \"contracts/L2/L2toL2CrossTradeL21Mock.sol\":10987:11031  dealData[_salecount].requester == _msgSender */\n      eq\n        /* \"contracts/L2/L2toL2CrossTradeL21Mock.sol\":10979:11051  require(dealData[_salecount].requester == _msgSender, \"your not seller\") */\n      tag_252\n      jumpi\n      mload(0x40)\n      shl(0xe5, 0x461bcd)\n      dup2\n      mstore\n        /* \"#utility.yul\":11726:11728   */\n      0x20\n        /* \"contracts/L2/L2toL2CrossTradeL21Mock.sol\":10979:11051  require(dealData[_salecount].requester == _msgSender, \"your not seller\") */\n      0x04\n      dup3\n      add\n        /* \"#utility.yul\":11708:11729   */\n      mstore\n        /* \"#utility.yul\":11765:11767   */\n      0x0f\n        /* \"#utility.yul\":11745:11763   */\n      0x24\n      dup3\n      add\n        /* \"#utility.yul\":11738:11768   */\n      mstore\n      shl(0x89, 0x3cb7bab9103737ba1039b2b63632b9)\n        /* \"#utility.yul\":11784:11802   */\n      0x44\n      dup3\n      add\n        /* \"#utility.yul\":11777:11822   */\n      mstore\n        /* \"#utility.yul\":11839:11857   */\n      0x64\n      add\n        /* \"contracts/L2/L2toL2CrossTradeL21Mock.sol\":10979:11051  require(dealData[_salecount].requester == _msgSender, \"your not seller\") */\n      tag_184\n        /* \"#utility.yul\":11524:11863   */\n      jump\n        /* \"contracts/L2/L2toL2CrossTradeL21Mock.sol\":10979:11051  require(dealData[_salecount].requester == _msgSender, \"your not seller\") */\n    tag_252:\n        /* \"contracts/L2/L2toL2CrossTradeL21Mock.sol\":11069:11089  dealData[_salecount] */\n      0x00\n      dup7\n      dup2\n      mstore\n        /* \"contracts/L2/L2toL2CrossTradeL21Mock.sol\":11069:11077  dealData */\n      0x08\n        /* \"contracts/L2/L2toL2CrossTradeL21Mock.sol\":11069:11089  dealData[_salecount] */\n      0x20\n      mstore\n      0x40\n      swap1\n      keccak256\n        /* \"contracts/L2/L2toL2CrossTradeL21Mock.sol\":11069:11099  dealData[_salecount].hashValue */\n      0x09\n      add\n      sload\n        /* \"contracts/L2/L2toL2CrossTradeL21Mock.sol\":11069:11108  dealData[_salecount].hashValue == _hash */\n      dup4\n      eq\n        /* \"contracts/L2/L2toL2CrossTradeL21Mock.sol\":11061:11137  require(dealData[_salecount].hashValue == _hash, \"Hash values do not match\") */\n      tag_255\n      jumpi\n      mload(0x40)\n      shl(0xe5, 0x461bcd)\n      dup2\n      mstore\n        /* \"#utility.yul\":12070:12072   */\n      0x20\n        /* \"contracts/L2/L2toL2CrossTradeL21Mock.sol\":11061:11137  require(dealData[_salecount].hashValue == _hash, \"Hash values do not match\") */\n      0x04\n      dup3\n      add\n        /* \"#utility.yul\":12052:12073   */\n      mstore\n        /* \"#utility.yul\":12109:12111   */\n      0x18\n        /* \"#utility.yul\":12089:12107   */\n      0x24\n      dup3\n      add\n        /* \"#utility.yul\":12082:12112   */\n      mstore\n      shl(0x43, 0x090c2e6d040ecc2d8eacae640c8de40dcdee840dac2e8c6d)\n        /* \"#utility.yul\":12128:12146   */\n      0x44\n      dup3\n      add\n        /* \"#utility.yul\":12121:12175   */\n      mstore\n        /* \"#utility.yul\":12192:12210   */\n      0x64\n      add\n        /* \"contracts/L2/L2toL2CrossTradeL21Mock.sol\":11061:11137  require(dealData[_salecount].hashValue == _hash, \"Hash values do not match\") */\n      tag_184\n        /* \"#utility.yul\":11868:12216   */\n      jump\n        /* \"contracts/L2/L2toL2CrossTradeL21Mock.sol\":11061:11137  require(dealData[_salecount].hashValue == _hash, \"Hash values do not match\") */\n    tag_255:\n        /* \"contracts/L2/L2toL2CrossTradeL21Mock.sol\":11148:11168  dealData[_salecount] */\n      0x00\n      dup7\n      dup2\n      mstore\n        /* \"contracts/L2/L2toL2CrossTradeL21Mock.sol\":11148:11156  dealData */\n      0x08\n        /* \"contracts/L2/L2toL2CrossTradeL21Mock.sol\":11148:11168  dealData[_salecount] */\n      0x20\n      mstore\n      0x40\n      swap1\n      keccak256\n        /* \"contracts/L2/L2toL2CrossTradeL21Mock.sol\":11148:11177  dealData[_salecount].provider */\n      0x04\n      dup2\n      add\n        /* \"contracts/L2/L2toL2CrossTradeL21Mock.sol\":11148:11190  dealData[_salecount].provider = _msgSender */\n      dup1\n      sload\n      not(sub(shl(0xa0, 0x01), 0x01))\n      and\n      sub(shl(0xa0, 0x01), 0x01)\n      dup11\n      dup2\n      and\n      swap2\n      swap1\n      swap2\n      or\n      swap1\n      swap2\n      sstore\n        /* \"contracts/L2/L2toL2CrossTradeL21Mock.sol\":11222:11254  dealData[_salecount].totalAmount */\n      0x05\n      dup3\n      add\n      sload\n        /* \"contracts/L2/L2toL2CrossTradeL21Mock.sol\":11315:11329  legacyERC20ETH */\n      sload(0x06)\n      0x01\n        /* \"contracts/L2/L2toL2CrossTradeL21Mock.sol\":11277:11311  dealData[_salecount].l2SourceToken */\n      swap1\n      swap4\n      add\n      sload\n        /* \"contracts/L2/L2toL2CrossTradeL21Mock.sol\":11222:11254  dealData[_salecount].totalAmount */\n      swap1\n      swap3\n        /* \"contracts/L2/L2toL2CrossTradeL21Mock.sol\":11315:11329  legacyERC20ETH */\n      dup3\n      and\n        /* \"contracts/L2/L2toL2CrossTradeL21Mock.sol\":11277:11311  dealData[_salecount].l2SourceToken */\n      swap2\n      and\n        /* \"contracts/L2/L2toL2CrossTradeL21Mock.sol\":11277:11329  dealData[_salecount].l2SourceToken == legacyERC20ETH */\n      sub\n        /* \"contracts/L2/L2toL2CrossTradeL21Mock.sol\":11273:11579  if (dealData[_salecount].l2SourceToken == legacyERC20ETH) {... */\n      tag_258\n      jumpi\n        /* \"contracts/L2/L2toL2CrossTradeL21Mock.sol\":11346:11355  bool sent */\n      0x00\n        /* \"contracts/L2/L2toL2CrossTradeL21Mock.sol\":11369:11379  _msgSender */\n      dup9\n      sub(shl(0xa0, 0x01), 0x01)\n        /* \"contracts/L2/L2toL2CrossTradeL21Mock.sol\":11361:11385  payable(_msgSender).call */\n      and\n        /* \"contracts/L2/L2toL2CrossTradeL21Mock.sol\":11393:11404  totalAmount */\n      dup3\n        /* \"contracts/L2/L2toL2CrossTradeL21Mock.sol\":11361:11409  payable(_msgSender).call{value: totalAmount}(\"\") */\n      mload(0x40)\n      0x00\n      mload(0x40)\n      dup1\n      dup4\n      sub\n      dup2\n      dup6\n      dup8\n      gas\n      call\n      swap3\n      pop\n      pop\n      pop\n      returndatasize\n      dup1\n      0x00\n      dup2\n      eq\n      tag_263\n      jumpi\n      mload(0x40)\n      swap2\n      pop\n      and(add(returndatasize, 0x3f), not(0x1f))\n      dup3\n      add\n      0x40\n      mstore\n      returndatasize\n      dup3\n      mstore\n      returndatasize\n      0x00\n      0x20\n      dup5\n      add\n      returndatacopy\n      jump(tag_262)\n    tag_263:\n      0x60\n      swap2\n      pop\n    tag_262:\n      pop\n        /* \"contracts/L2/L2toL2CrossTradeL21Mock.sol\":11345:11409  (bool sent, ) = payable(_msgSender).call{value: totalAmount}(\"\") */\n      pop\n      swap1\n      pop\n        /* \"contracts/L2/L2toL2CrossTradeL21Mock.sol\":11431:11435  sent */\n      dup1\n        /* \"contracts/L2/L2toL2CrossTradeL21Mock.sol\":11423:11458  require(sent, \"cancel refund fail\") */\n      tag_264\n      jumpi\n      mload(0x40)\n      shl(0xe5, 0x461bcd)\n      dup2\n      mstore\n        /* \"#utility.yul\":12633:12635   */\n      0x20\n        /* \"contracts/L2/L2toL2CrossTradeL21Mock.sol\":11423:11458  require(sent, \"cancel refund fail\") */\n      0x04\n      dup3\n      add\n        /* \"#utility.yul\":12615:12636   */\n      mstore\n        /* \"#utility.yul\":12672:12674   */\n      0x12\n        /* \"#utility.yul\":12652:12670   */\n      0x24\n      dup3\n      add\n        /* \"#utility.yul\":12645:12675   */\n      mstore\n      shl(0x72, 0x18d85b98d95b081c99599d5b990819985a5b)\n        /* \"#utility.yul\":12691:12709   */\n      0x44\n      dup3\n      add\n        /* \"#utility.yul\":12684:12732   */\n      mstore\n        /* \"#utility.yul\":12749:12767   */\n      0x64\n      add\n        /* \"contracts/L2/L2toL2CrossTradeL21Mock.sol\":11423:11458  require(sent, \"cancel refund fail\") */\n      tag_184\n        /* \"#utility.yul\":12431:12773   */\n      jump\n        /* \"contracts/L2/L2toL2CrossTradeL21Mock.sol\":11423:11458  require(sent, \"cancel refund fail\") */\n    tag_264:\n        /* \"contracts/L2/L2toL2CrossTradeL21Mock.sol\":11331:11469  {... */\n      pop\n        /* \"contracts/L2/L2toL2CrossTradeL21Mock.sol\":11273:11579  if (dealData[_salecount].l2SourceToken == legacyERC20ETH) {... */\n      jump(tag_268)\n    tag_258:\n        /* \"contracts/L2/L2toL2CrossTradeL21Mock.sol\":11496:11516  dealData[_salecount] */\n      0x00\n      dup8\n      dup2\n      mstore\n        /* \"contracts/L2/L2toL2CrossTradeL21Mock.sol\":11496:11504  dealData */\n      0x08\n        /* \"contracts/L2/L2toL2CrossTradeL21Mock.sol\":11496:11516  dealData[_salecount] */\n      0x20\n      mstore\n      0x40\n      swap1\n      keccak256\n        /* \"contracts/L2/L2toL2CrossTradeL21Mock.sol\":11496:11530  dealData[_salecount].l2SourceToken */\n      0x01\n      add\n      sload\n        /* \"contracts/L2/L2toL2CrossTradeL21Mock.sol\":11489:11568  IERC20(dealData[_salecount].l2SourceToken).safeTransfer(_msgSender,totalAmount) */\n      tag_268\n      swap1\n      sub(shl(0xa0, 0x01), 0x01)\n        /* \"contracts/L2/L2toL2CrossTradeL21Mock.sol\":11496:11530  dealData[_salecount].l2SourceToken */\n      and\n        /* \"contracts/L2/L2toL2CrossTradeL21Mock.sol\":11545:11555  _msgSender */\n      dup10\n        /* \"contracts/L2/L2toL2CrossTradeL21Mock.sol\":11556:11567  totalAmount */\n      dup4\n        /* \"contracts/L2/L2toL2CrossTradeL21Mock.sol\":11489:11544  IERC20(dealData[_salecount].l2SourceToken).safeTransfer */\n      tag_269\n        /* \"contracts/L2/L2toL2CrossTradeL21Mock.sol\":11489:11568  IERC20(dealData[_salecount].l2SourceToken).safeTransfer(_msgSender,totalAmount) */\n      jump\t// in\n    tag_268:\n        /* \"contracts/L2/L2toL2CrossTradeL21Mock.sol\":11645:11841  CancelCT(... */\n      0x40\n      dup1\n      mload\n      sub(shl(0xa0, 0x01), 0x01)\n        /* \"#utility.yul\":13083:13115   */\n      dup11\n      and\n        /* \"#utility.yul\":13065:13116   */\n      dup2\n      mstore\n        /* \"#utility.yul\":13147:13149   */\n      0x20\n        /* \"#utility.yul\":13132:13150   */\n      dup2\n      add\n        /* \"#utility.yul\":13125:13159   */\n      dup4\n      swap1\n      mstore\n        /* \"#utility.yul\":13175:13193   */\n      dup1\n      dup3\n      add\n        /* \"#utility.yul\":13168:13202   */\n      dup9\n      swap1\n      mstore\n        /* \"contracts/L2/L2toL2CrossTradeL21Mock.sol\":13640:13649  chainid() */\n      chainid\n        /* \"#utility.yul\":13233:13235   */\n      0x60\n        /* \"#utility.yul\":13218:13236   */\n      dup3\n      add\n        /* \"#utility.yul\":13211:13245   */\n      dup2\n      swap1\n      mstore\n        /* \"#utility.yul\":13276:13279   */\n      0x80\n        /* \"#utility.yul\":13261:13280   */\n      dup3\n      add\n        /* \"#utility.yul\":13254:13289   */\n      dup9\n      swap1\n      mstore\n        /* \"#utility.yul\":13103:13106   */\n      0xa0\n        /* \"#utility.yul\":13305:13324   */\n      dup3\n      add\n        /* \"#utility.yul\":13298:13333   */\n      dup8\n      swap1\n      mstore\n        /* \"contracts/L2/L2toL2CrossTradeL21Mock.sol\":11645:11841  CancelCT(... */\n      swap2\n      mload\n        /* \"contracts/L2/L2toL2CrossTradeL21Mock.sol\":11718:11728  _salecount */\n      dup10\n      swap2\n        /* \"contracts/L2/L2toL2CrossTradeL21Mock.sol\":11645:11841  CancelCT(... */\n      0xff2934c52f646a47cac1f95449dfda335ed35c7d2296fd4a988a2227fa0378aa\n      swap2\n      swap1\n      dup2\n      swap1\n      sub\n        /* \"#utility.yul\":13052:13055   */\n      0xc0\n        /* \"contracts/L2/L2toL2CrossTradeL21Mock.sol\":11645:11841  CancelCT(... */\n      add\n      swap1\n      log2\n        /* \"contracts/L2/L2toL2CrossTradeL21Mock.sol\":10969:11849  {... */\n      pop\n      pop\n        /* \"contracts/L2/L2toL2CrossTradeL21Mock.sol\":2657:2658  _ */\n      pop\n        /* \"contracts/utils/ReentrancyGuard.sol\":2531:2532  _ */\n      pop\n        /* \"contracts/utils/ReentrancyGuard.sol\":2542:2562  _nonReentrantAfter() */\n      tag_273\n        /* \"contracts/utils/ReentrancyGuard.sol\":1857:1858  1 */\n      0x01\n        /* \"contracts/utils/ReentrancyGuard.sol\":3068:3075  _status */\n      0x0b\n        /* \"contracts/utils/ReentrancyGuard.sol\":3068:3089  _status = NOT_ENTERED */\n      sstore\n        /* \"contracts/utils/ReentrancyGuard.sol\":2888:3096  function _nonReentrantAfter() private {... */\n      jump\n        /* \"contracts/utils/ReentrancyGuard.sol\":2542:2562  _nonReentrantAfter() */\n    tag_273:\n        /* \"contracts/L2/L2toL2CrossTradeL21Mock.sol\":10700:11849  function cancelCT(... */\n      pop\n      pop\n      pop\n      pop\n      pop\n      jump\t// out\n        /* \"contracts/L2/L2toL2CrossTradeL21Mock.sol\":4441:5019  function deleteToken(... */\n    tag_107:\n        /* \"contracts/common/AccessibleCommon.sol\":257:276  isAdmin(msg.sender) */\n      tag_275\n        /* \"contracts/common/AccessibleCommon.sol\":265:275  msg.sender */\n      caller\n        /* \"contracts/common/AccessibleCommon.sol\":257:264  isAdmin */\n      tag_73\n        /* \"contracts/common/AccessibleCommon.sol\":257:276  isAdmin(msg.sender) */\n      jump\t// in\n    tag_275:\n        /* \"contracts/common/AccessibleCommon.sol\":249:315  require(isAdmin(msg.sender), \"Accessible: Caller is not an admin\") */\n      tag_276\n      jumpi\n      mload(0x40)\n      shl(0xe5, 0x461bcd)\n      dup2\n      mstore\n      0x04\n      add\n      tag_184\n      swap1\n      tag_217\n      jump\t// in\n    tag_276:\n        /* \"contracts/L2/L2toL2CrossTradeL21Mock.sol\":4703:4713  bytes32 id */\n      0x00\n        /* \"contracts/L2/L2toL2CrossTradeL21Mock.sol\":4750:4760  _l1ChainId */\n      dup4\n        /* \"contracts/L2/L2toL2CrossTradeL21Mock.sol\":4774:4790  _l2SourceChainId */\n      dup4\n        /* \"contracts/L2/L2toL2CrossTradeL21Mock.sol\":4804:4820  _l2TargetChainId */\n      dup4\n        /* \"contracts/L2/L2toL2CrossTradeL21Mock.sol\":4834:4842  _l1token */\n      dup10\n        /* \"contracts/L2/L2toL2CrossTradeL21Mock.sol\":4856:4870  _l2SourceToken */\n      dup10\n        /* \"contracts/L2/L2toL2CrossTradeL21Mock.sol\":4884:4898  _l2TargetToken */\n      dup10\n        /* \"contracts/L2/L2toL2CrossTradeL21Mock.sol\":4726:4908  abi.encode(... */\n      add(0x20, mload(0x40))\n      tag_279\n      swap7\n      swap6\n      swap5\n      swap4\n      swap3\n      swap2\n      swap1\n      tag_200\n      jump\t// in\n    tag_279:\n      0x40\n      dup1\n      mload\n      not(0x1f)\n      dup2\n      dup5\n      sub\n      add\n      dup2\n      mstore\n      swap2\n      dup2\n      mstore\n        /* \"contracts/L2/L2toL2CrossTradeL21Mock.sol\":4716:4909  keccak256(abi.encode(... */\n      dup2\n      mload\n        /* \"contracts/L2/L2toL2CrossTradeL21Mock.sol\":4726:4908  abi.encode(... */\n      0x20\n        /* \"contracts/L2/L2toL2CrossTradeL21Mock.sol\":4716:4909  keccak256(abi.encode(... */\n      swap3\n      dup4\n      add\n      keccak256\n        /* \"contracts/L2/L2toL2CrossTradeL21Mock.sol\":4927:4944  registerCheck[id] */\n      0x00\n      dup2\n      dup2\n      mstore\n        /* \"contracts/L2/L2toL2CrossTradeL21Mock.sol\":4927:4940  registerCheck */\n      0x09\n        /* \"contracts/L2/L2toL2CrossTradeL21Mock.sol\":4927:4944  registerCheck[id] */\n      swap1\n      swap4\n      mstore\n      swap1\n      dup3\n      keccak256\n      sload\n        /* \"contracts/L2/L2toL2CrossTradeL21Mock.sol\":4716:4909  keccak256(abi.encode(... */\n      swap1\n      swap3\n      pop\n        /* \"contracts/L2/L2toL2CrossTradeL21Mock.sol\":4927:4944  registerCheck[id] */\n      0xff\n      and\n        /* \"contracts/L2/L2toL2CrossTradeL21Mock.sol\":4927:4953  registerCheck[id] != false */\n      iszero\n      iszero\n      swap1\n      sub\n        /* \"contracts/L2/L2toL2CrossTradeL21Mock.sol\":4919:4977  require(registerCheck[id] != false, \"already deleteToken\") */\n      tag_280\n      jumpi\n      mload(0x40)\n      shl(0xe5, 0x461bcd)\n      dup2\n      mstore\n        /* \"#utility.yul\":13546:13548   */\n      0x20\n        /* \"contracts/L2/L2toL2CrossTradeL21Mock.sol\":4919:4977  require(registerCheck[id] != false, \"already deleteToken\") */\n      0x04\n      dup3\n      add\n        /* \"#utility.yul\":13528:13549   */\n      mstore\n        /* \"#utility.yul\":13585:13587   */\n      0x13\n        /* \"#utility.yul\":13565:13583   */\n      0x24\n      dup3\n      add\n        /* \"#utility.yul\":13558:13588   */\n      mstore\n      shl(0x69, 0x30b63932b0b23c903232b632ba32aa37b5b2b7)\n        /* \"#utility.yul\":13604:13622   */\n      0x44\n      dup3\n      add\n        /* \"#utility.yul\":13597:13646   */\n      mstore\n        /* \"#utility.yul\":13663:13681   */\n      0x64\n      add\n        /* \"contracts/L2/L2toL2CrossTradeL21Mock.sol\":4919:4977  require(registerCheck[id] != false, \"already deleteToken\") */\n      tag_184\n        /* \"#utility.yul\":13344:13687   */\n      jump\n        /* \"contracts/L2/L2toL2CrossTradeL21Mock.sol\":4919:4977  require(registerCheck[id] != false, \"already deleteToken\") */\n    tag_280:\n        /* \"contracts/L2/L2toL2CrossTradeL21Mock.sol\":5007:5012  false */\n      0x00\n        /* \"contracts/L2/L2toL2CrossTradeL21Mock.sol\":4987:5004  registerCheck[id] */\n      swap1\n      dup2\n      mstore\n        /* \"contracts/L2/L2toL2CrossTradeL21Mock.sol\":4987:5000  registerCheck */\n      0x09\n        /* \"contracts/L2/L2toL2CrossTradeL21Mock.sol\":4987:5004  registerCheck[id] */\n      0x20\n      mstore\n      0x40\n      swap1\n      keccak256\n        /* \"contracts/L2/L2toL2CrossTradeL21Mock.sol\":4987:5012  registerCheck[id] = false */\n      dup1\n      sload\n      not(0xff)\n      and\n      swap1\n      sstore\n      pop\n      pop\n      pop\n      pop\n      pop\n      pop\n        /* \"contracts/L2/L2toL2CrossTradeL21Mock.sol\":4441:5019  function deleteToken(... */\n      jump\t// out\n        /* \"contracts/common/AccessibleCommon.sol\":401:508  function addAdmin(address account) public virtual onlyOwner {... */\n    tag_111:\n        /* \"contracts/common/AccessibleCommon.sol\":257:276  isAdmin(msg.sender) */\n      tag_284\n        /* \"contracts/common/AccessibleCommon.sol\":265:275  msg.sender */\n      caller\n        /* \"contracts/common/AccessibleCommon.sol\":257:264  isAdmin */\n      tag_73\n        /* \"contracts/common/AccessibleCommon.sol\":257:276  isAdmin(msg.sender) */\n      jump\t// in\n    tag_284:\n        /* \"contracts/common/AccessibleCommon.sol\":249:315  require(isAdmin(msg.sender), \"Accessible: Caller is not an admin\") */\n      tag_285\n      jumpi\n      mload(0x40)\n      shl(0xe5, 0x461bcd)\n      dup2\n      mstore\n      0x04\n      add\n      tag_184\n      swap1\n      tag_217\n      jump\t// in\n    tag_285:\n        /* \"contracts/common/AccessibleCommon.sol\":471:501  grantRole(ADMIN_ROLE, account) */\n      tag_219\n      0x00\n      dup1\n      mload\n      0x20\n      data_a29c3f0504a76c686875ea2f0fc314af702d3407223f14a34325f35a1858bd3b\n      dup4\n      codecopy\n      dup2\n      mload\n      swap2\n      mstore\n        /* \"contracts/common/AccessibleCommon.sol\":493:500  account */\n      dup3\n        /* \"contracts/common/AccessibleCommon.sol\":471:480  grantRole */\n      tag_79\n        /* \"contracts/common/AccessibleCommon.sol\":471:501  grantRole(ADMIN_ROLE, account) */\n      jump\t// in\n        /* \"contracts/common/AccessibleCommon.sol\":771:1070  function transferAdmin(address newAdmin) external virtual onlyOwner {... */\n    tag_115:\n        /* \"contracts/common/AccessibleCommon.sol\":257:276  isAdmin(msg.sender) */\n      tag_290\n        /* \"contracts/common/AccessibleCommon.sol\":265:275  msg.sender */\n      caller\n        /* \"contracts/common/AccessibleCommon.sol\":257:264  isAdmin */\n      tag_73\n        /* \"contracts/common/AccessibleCommon.sol\":257:276  isAdmin(msg.sender) */\n      jump\t// in\n    tag_290:\n        /* \"contracts/common/AccessibleCommon.sol\":249:315  require(isAdmin(msg.sender), \"Accessible: Caller is not an admin\") */\n      tag_291\n      jumpi\n      mload(0x40)\n      shl(0xe5, 0x461bcd)\n      dup2\n      mstore\n      0x04\n      add\n      tag_184\n      swap1\n      tag_217\n      jump\t// in\n    tag_291:\n      sub(shl(0xa0, 0x01), 0x01)\n        /* \"contracts/common/AccessibleCommon.sol\":857:879  newAdmin != address(0) */\n      dup2\n      and\n        /* \"contracts/common/AccessibleCommon.sol\":849:908  require(newAdmin != address(0), \"Accessible: zero address\") */\n      tag_294\n      jumpi\n      mload(0x40)\n      shl(0xe5, 0x461bcd)\n      dup2\n      mstore\n        /* \"#utility.yul\":13894:13896   */\n      0x20\n        /* \"contracts/common/AccessibleCommon.sol\":849:908  require(newAdmin != address(0), \"Accessible: zero address\") */\n      0x04\n      dup3\n      add\n        /* \"#utility.yul\":13876:13897   */\n      mstore\n        /* \"#utility.yul\":13933:13935   */\n      0x18\n        /* \"#utility.yul\":13913:13931   */\n      0x24\n      dup3\n      add\n        /* \"#utility.yul\":13906:13936   */\n      mstore\n        /* \"#utility.yul\":13972:13998   */\n      0x41636365737369626c653a207a65726f20616464726573730000000000000000\n        /* \"#utility.yul\":13952:13970   */\n      0x44\n      dup3\n      add\n        /* \"#utility.yul\":13945:13999   */\n      mstore\n        /* \"#utility.yul\":14016:14034   */\n      0x64\n      add\n        /* \"contracts/common/AccessibleCommon.sol\":849:908  require(newAdmin != address(0), \"Accessible: zero address\") */\n      tag_184\n        /* \"#utility.yul\":13692:14040   */\n      jump\n        /* \"contracts/common/AccessibleCommon.sol\":849:908  require(newAdmin != address(0), \"Accessible: zero address\") */\n    tag_294:\n      sub(shl(0xa0, 0x01), 0x01)\n        /* \"contracts/common/AccessibleCommon.sol\":926:948  msg.sender != newAdmin */\n      dup2\n      and\n        /* \"contracts/common/AccessibleCommon.sol\":926:936  msg.sender */\n      caller\n        /* \"contracts/common/AccessibleCommon.sol\":926:948  msg.sender != newAdmin */\n      sub\n        /* \"contracts/common/AccessibleCommon.sol\":918:975  require(msg.sender != newAdmin, \"Accessible: same admin\") */\n      tag_297\n      jumpi\n      mload(0x40)\n      shl(0xe5, 0x461bcd)\n      dup2\n      mstore\n        /* \"#utility.yul\":14247:14249   */\n      0x20\n        /* \"contracts/common/AccessibleCommon.sol\":918:975  require(msg.sender != newAdmin, \"Accessible: same admin\") */\n      0x04\n      dup3\n      add\n        /* \"#utility.yul\":14229:14250   */\n      mstore\n        /* \"#utility.yul\":14286:14288   */\n      0x16\n        /* \"#utility.yul\":14266:14284   */\n      0x24\n      dup3\n      add\n        /* \"#utility.yul\":14259:14289   */\n      mstore\n      shl(0x51, 0x20b1b1b2b9b9b4b136329d1039b0b6b29030b236b4b7)\n        /* \"#utility.yul\":14305:14323   */\n      0x44\n      dup3\n      add\n        /* \"#utility.yul\":14298:14350   */\n      mstore\n        /* \"#utility.yul\":14367:14385   */\n      0x64\n      add\n        /* \"contracts/common/AccessibleCommon.sol\":918:975  require(msg.sender != newAdmin, \"Accessible: same admin\") */\n      tag_184\n        /* \"#utility.yul\":14045:14391   */\n      jump\n        /* \"contracts/common/AccessibleCommon.sol\":918:975  require(msg.sender != newAdmin, \"Accessible: same admin\") */\n    tag_297:\n        /* \"contracts/common/AccessibleCommon.sol\":986:1017  grantRole(ADMIN_ROLE, newAdmin) */\n      tag_300\n      0x00\n      dup1\n      mload\n      0x20\n      data_a29c3f0504a76c686875ea2f0fc314af702d3407223f14a34325f35a1858bd3b\n      dup4\n      codecopy\n      dup2\n      mload\n      swap2\n      mstore\n        /* \"contracts/common/AccessibleCommon.sol\":1008:1016  newAdmin */\n      dup3\n        /* \"contracts/common/AccessibleCommon.sol\":986:995  grantRole */\n      tag_79\n        /* \"contracts/common/AccessibleCommon.sol\":986:1017  grantRole(ADMIN_ROLE, newAdmin) */\n      jump\t// in\n    tag_300:\n        /* \"contracts/common/AccessibleCommon.sol\":1027:1063  renounceRole(ADMIN_ROLE, msg.sender) */\n      tag_219\n      0x00\n      dup1\n      mload\n      0x20\n      data_a29c3f0504a76c686875ea2f0fc314af702d3407223f14a34325f35a1858bd3b\n      dup4\n      codecopy\n      dup2\n      mload\n      swap2\n      mstore\n        /* \"contracts/common/AccessibleCommon.sol\":1052:1062  msg.sender */\n      caller\n        /* \"contracts/common/AccessibleCommon.sol\":1027:1039  renounceRole */\n      tag_83\n        /* \"contracts/common/AccessibleCommon.sol\":1027:1063  renounceRole(ADMIN_ROLE, msg.sender) */\n      jump\t// in\n        /* \"contracts/L2/L2toL2CrossTradeL21Mock.sol\":12475:13240  function getHash(... */\n    tag_124:\n        /* \"contracts/L2/L2toL2CrossTradeL21Mock.sol\":12842:12849  bytes32 */\n      0x00\n        /* \"contracts/L2/L2toL2CrossTradeL21Mock.sol\":12923:12931  _l1token */\n      dup11\n        /* \"contracts/L2/L2toL2CrossTradeL21Mock.sol\":12950:12964  _l2SourceToken */\n      dup11\n        /* \"contracts/L2/L2toL2CrossTradeL21Mock.sol\":12982:12996  _l2TargetToken */\n      dup11\n        /* \"contracts/L2/L2toL2CrossTradeL21Mock.sol\":13014:13024  _requestor */\n      dup11\n        /* \"contracts/L2/L2toL2CrossTradeL21Mock.sol\":13043:13055  _totalAmount */\n      dup11\n        /* \"contracts/L2/L2toL2CrossTradeL21Mock.sol\":13074:13083  _ctAmount */\n      dup11\n        /* \"contracts/L2/L2toL2CrossTradeL21Mock.sol\":13102:13112  _saleCount */\n      dup11\n        /* \"contracts/L2/L2toL2CrossTradeL21Mock.sol\":13131:13141  _l1ChainId */\n      dup11\n        /* \"contracts/L2/L2toL2CrossTradeL21Mock.sol\":13159:13175  _l2SourceChainId */\n      dup11\n        /* \"contracts/L2/L2toL2CrossTradeL21Mock.sol\":13193:13209  _l2TargetChainId */\n      dup11\n        /* \"contracts/L2/L2toL2CrossTradeL21Mock.sol\":12895:13223  abi.encode(... */\n      add(0x20, mload(0x40))\n      tag_303\n      swap11\n      swap10\n      swap9\n      swap8\n      swap7\n      swap6\n      swap5\n      swap4\n      swap3\n      swap2\n      swap1\n      tag_210\n      jump\t// in\n    tag_303:\n      mload(0x40)\n      0x20\n      dup2\n      dup4\n      sub\n      sub\n      dup2\n      mstore\n      swap1\n      0x40\n      mstore\n        /* \"contracts/L2/L2toL2CrossTradeL21Mock.sol\":12872:13233  keccak256(... */\n      dup1\n      mload\n      swap1\n      0x20\n      add\n      keccak256\n        /* \"contracts/L2/L2toL2CrossTradeL21Mock.sol\":12865:13233  return keccak256(... */\n      swap1\n      pop\n        /* \"contracts/L2/L2toL2CrossTradeL21Mock.sol\":12475:13240  function getHash(... */\n      swap11\n      swap10\n      pop\n      pop\n      pop\n      pop\n      pop\n      pop\n      pop\n      pop\n      pop\n      pop\n      jump\t// out\n        /* \"@openzeppelin/contracts/access/AccessControl.sol\":2854:2990  function hasRole(bytes32 role, address account) public view virtual returns (bool) {... */\n    tag_129:\n        /* \"@openzeppelin/contracts/access/AccessControl.sol\":2931:2935  bool */\n      0x00\n        /* \"@openzeppelin/contracts/access/AccessControl.sol\":2954:2966  _roles[role] */\n      swap2\n      dup3\n      mstore\n        /* \"@openzeppelin/contracts/access/AccessControl.sol\":2954:2960  _roles */\n      0x04\n        /* \"@openzeppelin/contracts/access/AccessControl.sol\":2954:2966  _roles[role] */\n      0x20\n      swap1\n      dup2\n      mstore\n      0x40\n      dup1\n      dup5\n      keccak256\n      sub(shl(0xa0, 0x01), 0x01)\n        /* \"@openzeppelin/contracts/access/AccessControl.sol\":2954:2983  _roles[role].hasRole[account] */\n      swap4\n      swap1\n      swap4\n      and\n      dup5\n      mstore\n      swap2\n      swap1\n      mstore\n      swap1\n      keccak256\n      sload\n      0xff\n      and\n      swap1\n        /* \"@openzeppelin/contracts/access/AccessControl.sol\":2854:2990  function hasRole(bytes32 role, address account) public view virtual returns (bool) {... */\n      jump\t// out\n        /* \"contracts/L2/L2toL2CrossTradeL21Mock.sol\":9311:10323  function claimCT(... */\n    tag_150:\n        /* \"contracts/utils/ReentrancyGuard.sol\":2500:2521  _nonReentrantBefore() */\n      tag_307\n        /* \"contracts/utils/ReentrancyGuard.sol\":2500:2519  _nonReentrantBefore */\n      tag_195\n        /* \"contracts/utils/ReentrancyGuard.sol\":2500:2521  _nonReentrantBefore() */\n      jump\t// in\n    tag_307:\n        /* \"contracts/L2/L2toL2CrossTradeL21Mock.sol\":2459:2479  crossDomainMessenger */\n      sload(0x05)\n        /* \"contracts/L2/L2toL2CrossTradeL21Mock.sol\":9551:9561  _l1ChainId */\n      dup4\n      swap1\n      sub(shl(0xa0, 0x01), 0x01)\n        /* \"contracts/L2/L2toL2CrossTradeL21Mock.sol\":2459:2479  crossDomainMessenger */\n      and\n        /* \"contracts/L2/L2toL2CrossTradeL21Mock.sol\":2437:2447  msg.sender */\n      caller\n        /* \"contracts/L2/L2toL2CrossTradeL21Mock.sol\":2437:2480  msg.sender == address(crossDomainMessenger) */\n      eq\n        /* \"contracts/L2/L2toL2CrossTradeL21Mock.sol\":2437:2596  msg.sender == address(crossDomainMessenger) && IL2CrossDomainMessenger(crossDomainMessenger).xDomainMessageSender() == chainData[_chainId].l1CrossTradeContract */\n      dup1\n      iszero\n      tag_309\n      jumpi\n      pop\n        /* \"contracts/L2/L2toL2CrossTradeL21Mock.sol\":2556:2575  chainData[_chainId] */\n      0x00\n      dup2\n      dup2\n      mstore\n        /* \"contracts/L2/L2toL2CrossTradeL21Mock.sol\":2556:2565  chainData */\n      0x0a\n        /* \"contracts/L2/L2toL2CrossTradeL21Mock.sol\":2556:2575  chainData[_chainId] */\n      0x20\n      swap1\n      dup2\n      mstore\n      0x40\n      swap2\n      dup3\n      swap1\n      keccak256\n        /* \"contracts/L2/L2toL2CrossTradeL21Mock.sol\":2556:2596  chainData[_chainId].l1CrossTradeContract */\n      sload\n        /* \"contracts/L2/L2toL2CrossTradeL21Mock.sol\":2508:2528  crossDomainMessenger */\n      sload(0x05)\n        /* \"contracts/L2/L2toL2CrossTradeL21Mock.sol\":2484:2552  IL2CrossDomainMessenger(crossDomainMessenger).xDomainMessageSender() */\n      dup4\n      mload\n      shl(0xe0, 0x6e296e45)\n      dup2\n      mstore\n      swap4\n      mload\n      sub(shl(0xa0, 0x01), 0x01)\n        /* \"contracts/L2/L2toL2CrossTradeL21Mock.sol\":2556:2596  chainData[_chainId].l1CrossTradeContract */\n      swap3\n      dup4\n      and\n      swap5\n        /* \"contracts/L2/L2toL2CrossTradeL21Mock.sol\":2508:2528  crossDomainMessenger */\n      swap2\n      swap1\n      swap3\n      and\n      swap3\n        /* \"contracts/L2/L2toL2CrossTradeL21Mock.sol\":2484:2550  IL2CrossDomainMessenger(crossDomainMessenger).xDomainMessageSender */\n      0x6e296e45\n      swap3\n        /* \"contracts/L2/L2toL2CrossTradeL21Mock.sol\":2484:2552  IL2CrossDomainMessenger(crossDomainMessenger).xDomainMessageSender() */\n      0x04\n      dup1\n      dup5\n      add\n      swap4\n      dup3\n      swap1\n      sub\n      add\n      dup2\n        /* \"contracts/L2/L2toL2CrossTradeL21Mock.sol\":2508:2528  crossDomainMessenger */\n      dup7\n        /* \"contracts/L2/L2toL2CrossTradeL21Mock.sol\":2484:2552  IL2CrossDomainMessenger(crossDomainMessenger).xDomainMessageSender() */\n      gas\n      staticcall\n      iszero\n      dup1\n      iszero\n      tag_311\n      jumpi\n      returndatasize\n      0x00\n      dup1\n      returndatacopy\n      revert(0x00, returndatasize)\n    tag_311:\n      pop\n      pop\n      pop\n      pop\n      mload(0x40)\n      returndatasize\n      not(0x1f)\n      0x1f\n      dup3\n      add\n      and\n      dup3\n      add\n      dup1\n      0x40\n      mstore\n      pop\n      dup2\n      add\n      swap1\n      tag_312\n      swap2\n      swap1\n      tag_243\n      jump\t// in\n    tag_312:\n      sub(shl(0xa0, 0x01), 0x01)\n        /* \"contracts/L2/L2toL2CrossTradeL21Mock.sol\":2484:2596  IL2CrossDomainMessenger(crossDomainMessenger).xDomainMessageSender() == chainData[_chainId].l1CrossTradeContract */\n      and\n      eq\n        /* \"contracts/L2/L2toL2CrossTradeL21Mock.sol\":2437:2596  msg.sender == address(crossDomainMessenger) && IL2CrossDomainMessenger(crossDomainMessenger).xDomainMessageSender() == chainData[_chainId].l1CrossTradeContract */\n    tag_309:\n        /* \"contracts/L2/L2toL2CrossTradeL21Mock.sol\":2416:2647  require(... */\n      tag_313\n      jumpi\n      mload(0x40)\n      shl(0xe5, 0x461bcd)\n      dup2\n      mstore\n        /* \"#utility.yul\":11032:11034   */\n      0x20\n        /* \"contracts/L2/L2toL2CrossTradeL21Mock.sol\":2416:2647  require(... */\n      0x04\n      dup3\n      add\n        /* \"#utility.yul\":11014:11035   */\n      mstore\n        /* \"#utility.yul\":11071:11073   */\n      0x18\n        /* \"#utility.yul\":11051:11069   */\n      0x24\n      dup3\n      add\n        /* \"#utility.yul\":11044:11074   */\n      mstore\n      shl(0x40, 0x6f6e6c792063616c6c206c31466173745769746864726177)\n        /* \"#utility.yul\":11090:11108   */\n      0x44\n      dup3\n      add\n        /* \"#utility.yul\":11083:11137   */\n      mstore\n        /* \"#utility.yul\":11154:11172   */\n      0x64\n      add\n        /* \"contracts/L2/L2toL2CrossTradeL21Mock.sol\":2416:2647  require(... */\n      tag_184\n        /* \"#utility.yul\":10830:11178   */\n      jump\n        /* \"contracts/L2/L2toL2CrossTradeL21Mock.sol\":2416:2647  require(... */\n    tag_313:\n        /* \"contracts/L2/L2toL2CrossTradeL21Mock.sol\":2773:2774  0 */\n      0x00\n        /* \"contracts/L2/L2toL2CrossTradeL21Mock.sol\":2732:2752  dealData[_saleCount] */\n      dup6\n      dup2\n      mstore\n        /* \"contracts/L2/L2toL2CrossTradeL21Mock.sol\":2732:2740  dealData */\n      0x08\n        /* \"contracts/L2/L2toL2CrossTradeL21Mock.sol\":2732:2752  dealData[_saleCount] */\n      0x20\n      mstore\n      0x40\n      swap1\n      keccak256\n        /* \"contracts/L2/L2toL2CrossTradeL21Mock.sol\":2732:2761  dealData[_saleCount].provider */\n      0x04\n      add\n      sload\n        /* \"contracts/L2/L2toL2CrossTradeL21Mock.sol\":9585:9595  _saleCount */\n      dup6\n      swap1\n      sub(shl(0xa0, 0x01), 0x01)\n        /* \"contracts/L2/L2toL2CrossTradeL21Mock.sol\":2732:2761  dealData[_saleCount].provider */\n      and\n        /* \"contracts/L2/L2toL2CrossTradeL21Mock.sol\":2732:2775  dealData[_saleCount].provider == address(0) */\n      iszero\n        /* \"contracts/L2/L2toL2CrossTradeL21Mock.sol\":2724:2792  require(dealData[_saleCount].provider == address(0), \"already sold\") */\n      tag_316\n      jumpi\n      mload(0x40)\n      shl(0xe5, 0x461bcd)\n      dup2\n      mstore\n        /* \"#utility.yul\":11385:11387   */\n      0x20\n        /* \"contracts/L2/L2toL2CrossTradeL21Mock.sol\":2724:2792  require(dealData[_saleCount].provider == address(0), \"already sold\") */\n      0x04\n      dup3\n      add\n        /* \"#utility.yul\":11367:11388   */\n      mstore\n        /* \"#utility.yul\":11424:11426   */\n      0x0c\n        /* \"#utility.yul\":11404:11422   */\n      0x24\n      dup3\n      add\n        /* \"#utility.yul\":11397:11427   */\n      mstore\n      shl(0xa2, 0x185b1c9958591e481cdbdb19)\n        /* \"#utility.yul\":11443:11461   */\n      0x44\n      dup3\n      add\n        /* \"#utility.yul\":11436:11478   */\n      mstore\n        /* \"#utility.yul\":11495:11513   */\n      0x64\n      add\n        /* \"contracts/L2/L2toL2CrossTradeL21Mock.sol\":2724:2792  require(dealData[_saleCount].provider == address(0), \"already sold\") */\n      tag_184\n        /* \"#utility.yul\":11183:11519   */\n      jump\n        /* \"contracts/L2/L2toL2CrossTradeL21Mock.sol\":2724:2792  require(dealData[_saleCount].provider == address(0), \"already sold\") */\n    tag_316:\n        /* \"contracts/L2/L2toL2CrossTradeL21Mock.sol\":9619:9639  dealData[_saleCount] */\n      0x00\n      dup7\n      dup2\n      mstore\n        /* \"contracts/L2/L2toL2CrossTradeL21Mock.sol\":9619:9627  dealData */\n      0x08\n        /* \"contracts/L2/L2toL2CrossTradeL21Mock.sol\":9619:9639  dealData[_saleCount] */\n      0x20\n      mstore\n      0x40\n      swap1\n      keccak256\n        /* \"contracts/L2/L2toL2CrossTradeL21Mock.sol\":9619:9649  dealData[_saleCount].hashValue */\n      0x09\n      add\n      sload\n        /* \"contracts/L2/L2toL2CrossTradeL21Mock.sol\":9619:9658  dealData[_saleCount].hashValue == _hash */\n      dup4\n      eq\n        /* \"contracts/L2/L2toL2CrossTradeL21Mock.sol\":9611:9687  require(dealData[_saleCount].hashValue == _hash, \"Hash values do not match\") */\n      tag_319\n      jumpi\n      mload(0x40)\n      shl(0xe5, 0x461bcd)\n      dup2\n      mstore\n        /* \"#utility.yul\":12070:12072   */\n      0x20\n        /* \"contracts/L2/L2toL2CrossTradeL21Mock.sol\":9611:9687  require(dealData[_saleCount].hashValue == _hash, \"Hash values do not match\") */\n      0x04\n      dup3\n      add\n        /* \"#utility.yul\":12052:12073   */\n      mstore\n        /* \"#utility.yul\":12109:12111   */\n      0x18\n        /* \"#utility.yul\":12089:12107   */\n      0x24\n      dup3\n      add\n        /* \"#utility.yul\":12082:12112   */\n      mstore\n      shl(0x43, 0x090c2e6d040ecc2d8eacae640c8de40dcdee840dac2e8c6d)\n        /* \"#utility.yul\":12128:12146   */\n      0x44\n      dup3\n      add\n        /* \"#utility.yul\":12121:12175   */\n      mstore\n        /* \"#utility.yul\":12192:12210   */\n      0x64\n      add\n        /* \"contracts/L2/L2toL2CrossTradeL21Mock.sol\":9611:9687  require(dealData[_saleCount].hashValue == _hash, \"Hash values do not match\") */\n      tag_184\n        /* \"#utility.yul\":11868:12216   */\n      jump\n        /* \"contracts/L2/L2toL2CrossTradeL21Mock.sol\":9611:9687  require(dealData[_saleCount].hashValue == _hash, \"Hash values do not match\") */\n    tag_319:\n        /* \"contracts/L2/L2toL2CrossTradeL21Mock.sol\":9717:9726  _ctAmount */\n      dup7\n        /* \"contracts/L2/L2toL2CrossTradeL21Mock.sol\":9698:9714  uint256 ctAmount */\n      0x00\n        /* \"contracts/L2/L2toL2CrossTradeL21Mock.sol\":9739:9753  _ctAmount == 0 */\n      dup2\n      swap1\n      sub\n        /* \"contracts/L2/L2toL2CrossTradeL21Mock.sol\":9736:9820  if(_ctAmount == 0) {... */\n      tag_321\n      jumpi\n      pop\n        /* \"contracts/L2/L2toL2CrossTradeL21Mock.sol\":9780:9800  dealData[_saleCount] */\n      0x00\n      dup7\n      dup2\n      mstore\n        /* \"contracts/L2/L2toL2CrossTradeL21Mock.sol\":9780:9788  dealData */\n      0x08\n        /* \"contracts/L2/L2toL2CrossTradeL21Mock.sol\":9780:9800  dealData[_saleCount] */\n      0x20\n      mstore\n      0x40\n      swap1\n      keccak256\n        /* \"contracts/L2/L2toL2CrossTradeL21Mock.sol\":9780:9809  dealData[_saleCount].ctAmount */\n      0x06\n      add\n      sload\n        /* \"contracts/L2/L2toL2CrossTradeL21Mock.sol\":9736:9820  if(_ctAmount == 0) {... */\n    tag_321:\n        /* \"contracts/L2/L2toL2CrossTradeL21Mock.sol\":9831:9851  dealData[_saleCount] */\n      0x00\n      dup8\n      dup2\n      mstore\n        /* \"contracts/L2/L2toL2CrossTradeL21Mock.sol\":9831:9839  dealData */\n      0x08\n        /* \"contracts/L2/L2toL2CrossTradeL21Mock.sol\":9831:9851  dealData[_saleCount] */\n      0x20\n      mstore\n      0x40\n      swap1\n      keccak256\n        /* \"contracts/L2/L2toL2CrossTradeL21Mock.sol\":9831:9860  dealData[_saleCount].provider */\n      0x04\n      dup2\n      add\n        /* \"contracts/L2/L2toL2CrossTradeL21Mock.sol\":9831:9868  dealData[_saleCount].provider = _from */\n      dup1\n      sload\n      not(sub(shl(0xa0, 0x01), 0x01))\n      and\n      sub(shl(0xa0, 0x01), 0x01)\n      dup13\n      dup2\n      and\n      swap2\n      swap1\n      swap2\n      or\n      swap1\n      swap2\n      sstore\n      0x01\n        /* \"contracts/L2/L2toL2CrossTradeL21Mock.sol\":9902:9936  dealData[_saleCount].l2SourceToken */\n      dup3\n      add\n      sload\n        /* \"contracts/L2/L2toL2CrossTradeL21Mock.sol\":9968:10000  dealData[_saleCount].totalAmount */\n      0x05\n      swap1\n      swap3\n      add\n      sload\n        /* \"contracts/L2/L2toL2CrossTradeL21Mock.sol\":10031:10045  legacyERC20ETH */\n      sload(0x06)\n        /* \"contracts/L2/L2toL2CrossTradeL21Mock.sol\":9902:9936  dealData[_saleCount].l2SourceToken */\n      swap3\n      dup3\n      and\n      swap3\n        /* \"contracts/L2/L2toL2CrossTradeL21Mock.sol\":9968:10000  dealData[_saleCount].totalAmount */\n      swap1\n      swap2\n        /* \"contracts/L2/L2toL2CrossTradeL21Mock.sol\":10031:10045  legacyERC20ETH */\n      and\n        /* \"contracts/L2/L2toL2CrossTradeL21Mock.sol\":10014:10045  l2SourceToken == legacyERC20ETH */\n      dup3\n      sub\n        /* \"contracts/L2/L2toL2CrossTradeL21Mock.sol\":10011:10256  if(l2SourceToken == legacyERC20ETH) {... */\n      tag_322\n      jumpi\n        /* \"contracts/L2/L2toL2CrossTradeL21Mock.sol\":10062:10071  bool sent */\n      0x00\n        /* \"contracts/L2/L2toL2CrossTradeL21Mock.sol\":10085:10090  _from */\n      dup12\n      sub(shl(0xa0, 0x01), 0x01)\n        /* \"contracts/L2/L2toL2CrossTradeL21Mock.sol\":10077:10096  payable(_from).call */\n      and\n        /* \"contracts/L2/L2toL2CrossTradeL21Mock.sol\":10104:10115  totalAmount */\n      dup3\n        /* \"contracts/L2/L2toL2CrossTradeL21Mock.sol\":10077:10120  payable(_from).call{value: totalAmount}(\"\") */\n      mload(0x40)\n      0x00\n      mload(0x40)\n      dup1\n      dup4\n      sub\n      dup2\n      dup6\n      dup8\n      gas\n      call\n      swap3\n      pop\n      pop\n      pop\n      returndatasize\n      dup1\n      0x00\n      dup2\n      eq\n      tag_326\n      jumpi\n      mload(0x40)\n      swap2\n      pop\n      and(add(returndatasize, 0x3f), not(0x1f))\n      dup3\n      add\n      0x40\n      mstore\n      returndatasize\n      dup3\n      mstore\n      returndatasize\n      0x00\n      0x20\n      dup5\n      add\n      returndatacopy\n      jump(tag_325)\n    tag_326:\n      0x60\n      swap2\n      pop\n    tag_325:\n      pop\n        /* \"contracts/L2/L2toL2CrossTradeL21Mock.sol\":10061:10120  (bool sent, ) = payable(_from).call{value: totalAmount}(\"\") */\n      pop\n      swap1\n      pop\n        /* \"contracts/L2/L2toL2CrossTradeL21Mock.sol\":10142:10146  sent */\n      dup1\n        /* \"contracts/L2/L2toL2CrossTradeL21Mock.sol\":10134:10161  require(sent, \"claim fail\") */\n      tag_327\n      jumpi\n      mload(0x40)\n      shl(0xe5, 0x461bcd)\n      dup2\n      mstore\n        /* \"#utility.yul\":15500:15502   */\n      0x20\n        /* \"contracts/L2/L2toL2CrossTradeL21Mock.sol\":10134:10161  require(sent, \"claim fail\") */\n      0x04\n      dup3\n      add\n        /* \"#utility.yul\":15482:15503   */\n      mstore\n        /* \"#utility.yul\":15539:15541   */\n      0x0a\n        /* \"#utility.yul\":15519:15537   */\n      0x24\n      dup3\n      add\n        /* \"#utility.yul\":15512:15542   */\n      mstore\n      shl(0xb2, 0x18db185a5b4819985a5b)\n        /* \"#utility.yul\":15558:15576   */\n      0x44\n      dup3\n      add\n        /* \"#utility.yul\":15551:15591   */\n      mstore\n        /* \"#utility.yul\":15608:15626   */\n      0x64\n      add\n        /* \"contracts/L2/L2toL2CrossTradeL21Mock.sol\":10134:10161  require(sent, \"claim fail\") */\n      tag_184\n        /* \"#utility.yul\":15298:15632   */\n      jump\n        /* \"contracts/L2/L2toL2CrossTradeL21Mock.sol\":10134:10161  require(sent, \"claim fail\") */\n    tag_327:\n        /* \"contracts/L2/L2toL2CrossTradeL21Mock.sol\":10047:10172  {... */\n      pop\n        /* \"contracts/L2/L2toL2CrossTradeL21Mock.sol\":10011:10256  if(l2SourceToken == legacyERC20ETH) {... */\n      jump(tag_331)\n    tag_322:\n        /* \"contracts/L2/L2toL2CrossTradeL21Mock.sol\":10192:10245  IERC20(l2SourceToken).safeTransfer(_from,totalAmount) */\n      tag_331\n      sub(shl(0xa0, 0x01), 0x01)\n        /* \"contracts/L2/L2toL2CrossTradeL21Mock.sol\":10192:10226  IERC20(l2SourceToken).safeTransfer */\n      dup4\n      and\n        /* \"contracts/L2/L2toL2CrossTradeL21Mock.sol\":10227:10232  _from */\n      dup13\n        /* \"contracts/L2/L2toL2CrossTradeL21Mock.sol\":10233:10244  totalAmount */\n      dup4\n        /* \"contracts/L2/L2toL2CrossTradeL21Mock.sol\":10192:10226  IERC20(l2SourceToken).safeTransfer */\n      tag_269\n        /* \"contracts/L2/L2toL2CrossTradeL21Mock.sol\":10192:10245  IERC20(l2SourceToken).safeTransfer(_from,totalAmount) */\n      jump\t// in\n    tag_331:\n      pop\n      pop\n        /* \"contracts/utils/ReentrancyGuard.sol\":1857:1858  1 */\n      0x01\n        /* \"contracts/utils/ReentrancyGuard.sol\":3068:3075  _status */\n      0x0b\n        /* \"contracts/utils/ReentrancyGuard.sol\":3068:3089  _status = NOT_ENTERED */\n      sstore\n      pop\n        /* \"contracts/utils/ReentrancyGuard.sol\":2542:2562  _nonReentrantAfter() */\n      tag_333\n      swap2\n      pop\n      pop\n        /* \"contracts/utils/ReentrancyGuard.sol\":2888:3096  function _nonReentrantAfter() private {... */\n      jump\n        /* \"contracts/utils/ReentrancyGuard.sol\":2542:2562  _nonReentrantAfter() */\n    tag_333:\n        /* \"contracts/L2/L2toL2CrossTradeL21Mock.sol\":9311:10323  function claimCT(... */\n      pop\n      pop\n      pop\n      pop\n      pop\n      pop\n      jump\t// out\n        /* \"@openzeppelin/contracts/access/AccessControl.sol\":4642:4780  function revokeRole(bytes32 role, address account) public virtual onlyRole(getRoleAdmin(role)) {... */\n    tag_154:\n        /* \"@openzeppelin/contracts/access/AccessControl.sol\":3875:3882  bytes32 */\n      0x00\n        /* \"@openzeppelin/contracts/access/AccessControl.sol\":3901:3913  _roles[role] */\n      dup3\n      dup2\n      mstore\n        /* \"@openzeppelin/contracts/access/AccessControl.sol\":3901:3907  _roles */\n      0x04\n        /* \"@openzeppelin/contracts/access/AccessControl.sol\":3901:3913  _roles[role] */\n      0x20\n      mstore\n      0x40\n      swap1\n      keccak256\n        /* \"@openzeppelin/contracts/access/AccessControl.sol\":3901:3923  _roles[role].adminRole */\n      0x01\n      add\n      sload\n        /* \"@openzeppelin/contracts/access/AccessControl.sol\":2464:2480  _checkRole(role) */\n      tag_336\n        /* \"@openzeppelin/contracts/access/AccessControl.sol\":2475:2479  role */\n      dup2\n        /* \"@openzeppelin/contracts/access/AccessControl.sol\":2464:2474  _checkRole */\n      tag_226\n        /* \"@openzeppelin/contracts/access/AccessControl.sol\":2464:2480  _checkRole(role) */\n      jump\t// in\n    tag_336:\n        /* \"@openzeppelin/contracts/access/AccessControl.sol\":4747:4773  _revokeRole(role, account) */\n      tag_228\n        /* \"@openzeppelin/contracts/access/AccessControl.sol\":4759:4763  role */\n      dup4\n        /* \"@openzeppelin/contracts/access/AccessControl.sol\":4765:4772  account */\n      dup4\n        /* \"@openzeppelin/contracts/access/AccessControl.sol\":4747:4758  _revokeRole */\n      tag_235\n        /* \"@openzeppelin/contracts/access/AccessControl.sol\":4747:4773  _revokeRole(role, account) */\n      jump\t// in\n        /* \"contracts/L2/L2toL2CrossTradeL21Mock.sol\":3470:4052  function registerToken(... */\n    tag_158:\n        /* \"contracts/common/AccessibleCommon.sol\":257:276  isAdmin(msg.sender) */\n      tag_340\n        /* \"contracts/common/AccessibleCommon.sol\":265:275  msg.sender */\n      caller\n        /* \"contracts/common/AccessibleCommon.sol\":257:264  isAdmin */\n      tag_73\n        /* \"contracts/common/AccessibleCommon.sol\":257:276  isAdmin(msg.sender) */\n      jump\t// in\n    tag_340:\n        /* \"contracts/common/AccessibleCommon.sol\":249:315  require(isAdmin(msg.sender), \"Accessible: Caller is not an admin\") */\n      tag_341\n      jumpi\n      mload(0x40)\n      shl(0xe5, 0x461bcd)\n      dup2\n      mstore\n      0x04\n      add\n      tag_184\n      swap1\n      tag_217\n      jump\t// in\n    tag_341:\n        /* \"contracts/L2/L2toL2CrossTradeL21Mock.sol\":3735:3745  bytes32 id */\n      0x00\n        /* \"contracts/L2/L2toL2CrossTradeL21Mock.sol\":3782:3792  _l1ChainId */\n      dup4\n        /* \"contracts/L2/L2toL2CrossTradeL21Mock.sol\":3806:3822  _l2SourceChainId */\n      dup4\n        /* \"contracts/L2/L2toL2CrossTradeL21Mock.sol\":3836:3852  _l2TargetChainId */\n      dup4\n        /* \"contracts/L2/L2toL2CrossTradeL21Mock.sol\":3866:3874  _l1token */\n      dup10\n        /* \"contracts/L2/L2toL2CrossTradeL21Mock.sol\":3888:3902  _l2SourceToken */\n      dup10\n        /* \"contracts/L2/L2toL2CrossTradeL21Mock.sol\":3916:3930  _l2TargetToken */\n      dup10\n        /* \"contracts/L2/L2toL2CrossTradeL21Mock.sol\":3758:3940  abi.encode(... */\n      add(0x20, mload(0x40))\n      tag_344\n      swap7\n      swap6\n      swap5\n      swap4\n      swap3\n      swap2\n      swap1\n      tag_200\n      jump\t// in\n    tag_344:\n      0x40\n      dup1\n      mload\n      not(0x1f)\n      dup2\n      dup5\n      sub\n      add\n      dup2\n      mstore\n      swap2\n      dup2\n      mstore\n        /* \"contracts/L2/L2toL2CrossTradeL21Mock.sol\":3748:3941  keccak256(abi.encode(... */\n      dup2\n      mload\n        /* \"contracts/L2/L2toL2CrossTradeL21Mock.sol\":3758:3940  abi.encode(... */\n      0x20\n        /* \"contracts/L2/L2toL2CrossTradeL21Mock.sol\":3748:3941  keccak256(abi.encode(... */\n      swap3\n      dup4\n      add\n      keccak256\n        /* \"contracts/L2/L2toL2CrossTradeL21Mock.sol\":3959:3976  registerCheck[id] */\n      0x00\n      dup2\n      dup2\n      mstore\n        /* \"contracts/L2/L2toL2CrossTradeL21Mock.sol\":3959:3972  registerCheck */\n      0x09\n        /* \"contracts/L2/L2toL2CrossTradeL21Mock.sol\":3959:3976  registerCheck[id] */\n      swap1\n      swap4\n      mstore\n      swap2\n      keccak256\n      sload\n        /* \"contracts/L2/L2toL2CrossTradeL21Mock.sol\":3748:3941  keccak256(abi.encode(... */\n      swap1\n      swap2\n      pop\n        /* \"contracts/L2/L2toL2CrossTradeL21Mock.sol\":3959:3976  registerCheck[id] */\n      0xff\n      and\n        /* \"contracts/L2/L2toL2CrossTradeL21Mock.sol\":3959:3985  registerCheck[id] == false */\n      iszero\n        /* \"contracts/L2/L2toL2CrossTradeL21Mock.sol\":3951:4011  require(registerCheck[id] == false, \"already registerToken\") */\n      tag_345\n      jumpi\n      mload(0x40)\n      shl(0xe5, 0x461bcd)\n      dup2\n      mstore\n        /* \"#utility.yul\":15839:15841   */\n      0x20\n        /* \"contracts/L2/L2toL2CrossTradeL21Mock.sol\":3951:4011  require(registerCheck[id] == false, \"already registerToken\") */\n      0x04\n      dup3\n      add\n        /* \"#utility.yul\":15821:15842   */\n      mstore\n        /* \"#utility.yul\":15878:15880   */\n      0x15\n        /* \"#utility.yul\":15858:15876   */\n      0x24\n      dup3\n      add\n        /* \"#utility.yul\":15851:15881   */\n      mstore\n      shl(0x59, 0x30b63932b0b23c903932b3b4b9ba32b92a37b5b2b7)\n        /* \"#utility.yul\":15897:15915   */\n      0x44\n      dup3\n      add\n        /* \"#utility.yul\":15890:15941   */\n      mstore\n        /* \"#utility.yul\":15958:15976   */\n      0x64\n      add\n        /* \"contracts/L2/L2toL2CrossTradeL21Mock.sol\":3951:4011  require(registerCheck[id] == false, \"already registerToken\") */\n      tag_184\n        /* \"#utility.yul\":15637:15982   */\n      jump\n        /* \"contracts/L2/L2toL2CrossTradeL21Mock.sol\":3951:4011  require(registerCheck[id] == false, \"already registerToken\") */\n    tag_345:\n        /* \"contracts/L2/L2toL2CrossTradeL21Mock.sol\":4021:4038  registerCheck[id] */\n      0x00\n      swap1\n      dup2\n      mstore\n        /* \"contracts/L2/L2toL2CrossTradeL21Mock.sol\":4021:4034  registerCheck */\n      0x09\n        /* \"contracts/L2/L2toL2CrossTradeL21Mock.sol\":4021:4038  registerCheck[id] */\n      0x20\n      mstore\n      0x40\n      swap1\n      keccak256\n        /* \"contracts/L2/L2toL2CrossTradeL21Mock.sol\":4021:4045  registerCheck[id] = true */\n      dup1\n      sload\n      not(0xff)\n      and\n        /* \"contracts/L2/L2toL2CrossTradeL21Mock.sol\":4041:4045  true */\n      0x01\n        /* \"contracts/L2/L2toL2CrossTradeL21Mock.sol\":4021:4045  registerCheck[id] = true */\n      or\n      swap1\n      sstore\n      pop\n      pop\n      pop\n      pop\n      pop\n      pop\n        /* \"contracts/L2/L2toL2CrossTradeL21Mock.sol\":3470:4052  function registerToken(... */\n      jump\t// out\n        /* \"contracts/L2/L2toL2CrossTradeL21Mock.sol\":7323:8395  function requestNonRegisteredToken(... */\n    tag_167:\n        /* \"contracts/L2/L2toL2CrossTradeL21Mock.sol\":2274:2284  msg.sender */\n      caller\n        /* \"contracts/L2/L2toL2CrossTradeL21Mock.sol\":2288:2297  tx.origin */\n      origin\n        /* \"contracts/L2/L2toL2CrossTradeL21Mock.sol\":2274:2297  msg.sender == tx.origin */\n      eq\n        /* \"contracts/L2/L2toL2CrossTradeL21Mock.sol\":2266:2347  require(msg.sender == tx.origin, \"L2FW: function can only be called from an EOA\") */\n      tag_349\n      jumpi\n      mload(0x40)\n      shl(0xe5, 0x461bcd)\n      dup2\n      mstore\n      0x04\n      add\n      tag_184\n      swap1\n      tag_185\n      jump\t// in\n    tag_349:\n        /* \"contracts/L2/L2toL2CrossTradeL21Mock.sol\":7638:7650  _totalAmount */\n      dup4\n        /* \"contracts/L2/L2toL2CrossTradeL21Mock.sol\":2878:2879  0 */\n      0x00\n        /* \"contracts/L2/L2toL2CrossTradeL21Mock.sol\":2868:2875  _amount */\n      dup2\n        /* \"contracts/L2/L2toL2CrossTradeL21Mock.sol\":2868:2879  _amount > 0 */\n      gt\n        /* \"contracts/L2/L2toL2CrossTradeL21Mock.sol\":2860:2910  require(_amount > 0 , \"input amount need nonZero\") */\n      tag_352\n      jumpi\n      mload(0x40)\n      shl(0xe5, 0x461bcd)\n      dup2\n      mstore\n      0x04\n      add\n      tag_184\n      swap1\n      tag_189\n      jump\t// in\n    tag_352:\n        /* \"contracts/L2/L2toL2CrossTradeL21Mock.sol\":7668:7677  _ctAmount */\n      dup4\n        /* \"contracts/L2/L2toL2CrossTradeL21Mock.sol\":2878:2879  0 */\n      0x00\n        /* \"contracts/L2/L2toL2CrossTradeL21Mock.sol\":2868:2875  _amount */\n      dup2\n        /* \"contracts/L2/L2toL2CrossTradeL21Mock.sol\":2868:2879  _amount > 0 */\n      gt\n        /* \"contracts/L2/L2toL2CrossTradeL21Mock.sol\":2860:2910  require(_amount > 0 , \"input amount need nonZero\") */\n      tag_355\n      jumpi\n      mload(0x40)\n      shl(0xe5, 0x461bcd)\n      dup2\n      mstore\n      0x04\n      add\n      tag_184\n      swap1\n      tag_189\n      jump\t// in\n    tag_355:\n        /* \"contracts/utils/ReentrancyGuard.sol\":2500:2521  _nonReentrantBefore() */\n      tag_358\n        /* \"contracts/utils/ReentrancyGuard.sol\":2500:2519  _nonReentrantBefore */\n      tag_195\n        /* \"contracts/utils/ReentrancyGuard.sol\":2500:2521  _nonReentrantBefore() */\n      jump\t// in\n    tag_358:\n        /* \"contracts/L2/L2toL2CrossTradeL21Mock.sol\":7796:7805  saleCount */\n      0x07\n        /* \"contracts/L2/L2toL2CrossTradeL21Mock.sol\":7794:7805  ++saleCount */\n      dup1\n      sload\n      0x01\n      add\n      swap1\n      dup2\n      swap1\n      sstore\n        /* \"contracts/L2/L2toL2CrossTradeL21Mock.sol\":13640:13649  chainid() */\n      chainid\n      swap1\n        /* \"contracts/L2/L2toL2CrossTradeL21Mock.sol\":7720:7744  uint256 _l2SourceChainId */\n      0x00\n      swap1\n        /* \"contracts/L2/L2toL2CrossTradeL21Mock.sol\":7846:8068  _request(... */\n      tag_361\n      swap1\n        /* \"contracts/L2/L2toL2CrossTradeL21Mock.sol\":7868:7876  _l1token */\n      dup13\n      swap1\n        /* \"contracts/L2/L2toL2CrossTradeL21Mock.sol\":7890:7904  _l2SourceToken */\n      dup13\n      swap1\n        /* \"contracts/L2/L2toL2CrossTradeL21Mock.sol\":7918:7932  _l2TargetToken */\n      dup13\n      swap1\n        /* \"contracts/L2/L2toL2CrossTradeL21Mock.sol\":7946:7958  _totalAmount */\n      dup13\n      swap1\n        /* \"contracts/L2/L2toL2CrossTradeL21Mock.sol\":7972:7981  _ctAmount */\n      dup13\n      swap1\n        /* \"contracts/L2/L2toL2CrossTradeL21Mock.sol\":8018:8028  _l1ChainId */\n      dup13\n        /* \"contracts/L2/L2toL2CrossTradeL21Mock.sol\":8042:8058  _l2TargetChainId */\n      dup13\n        /* \"contracts/L2/L2toL2CrossTradeL21Mock.sol\":7846:7854  _request */\n      tag_208\n        /* \"contracts/L2/L2toL2CrossTradeL21Mock.sol\":7846:8068  _request(... */\n      jump\t// in\n    tag_361:\n        /* \"contracts/L2/L2toL2CrossTradeL21Mock.sol\":7826:8068  bytes32 hashValue = _request(... */\n      swap1\n      pop\n        /* \"contracts/L2/L2toL2CrossTradeL21Mock.sol\":8261:8270  saleCount */\n      sload(0x07)\n        /* \"contracts/L2/L2toL2CrossTradeL21Mock.sol\":8084:8387  NonRequestCT(... */\n      0xbdada440ba6a1aee247cdac6cf66343ea063ea610a86100acdee8496b90351e5\n        /* \"contracts/L2/L2toL2CrossTradeL21Mock.sol\":8110:8118  _l1token */\n      dup13\n        /* \"contracts/L2/L2toL2CrossTradeL21Mock.sol\":8132:8146  _l2SourceToken */\n      dup13\n        /* \"contracts/L2/L2toL2CrossTradeL21Mock.sol\":8160:8174  _l2TargetToken */\n      dup13\n        /* \"contracts/L2/L2toL2CrossTradeL21Mock.sol\":8188:8198  msg.sender */\n      caller\n        /* \"contracts/L2/L2toL2CrossTradeL21Mock.sol\":8212:8224  _totalAmount */\n      dup14\n        /* \"contracts/L2/L2toL2CrossTradeL21Mock.sol\":8238:8247  _ctAmount */\n      dup14\n        /* \"contracts/L2/L2toL2CrossTradeL21Mock.sol\":8284:8294  _l1ChainId */\n      dup14\n        /* \"contracts/L2/L2toL2CrossTradeL21Mock.sol\":8308:8324  _l2SourceChainId */\n      dup11\n        /* \"contracts/L2/L2toL2CrossTradeL21Mock.sol\":8338:8354  _l2TargetChainId */\n      dup15\n        /* \"contracts/L2/L2toL2CrossTradeL21Mock.sol\":8368:8377  hashValue */\n      dup12\n        /* \"contracts/L2/L2toL2CrossTradeL21Mock.sol\":8084:8387  NonRequestCT(... */\n      mload(0x40)\n      tag_362\n      swap11\n      swap10\n      swap9\n      swap8\n      swap7\n      swap6\n      swap5\n      swap4\n      swap3\n      swap2\n      swap1\n      tag_210\n      jump\t// in\n    tag_362:\n      mload(0x40)\n      dup1\n      swap2\n      sub\n      swap1\n      log2\n        /* \"contracts/L2/L2toL2CrossTradeL21Mock.sol\":7704:8395  {     ... */\n      pop\n      pop\n        /* \"contracts/utils/ReentrancyGuard.sol\":2542:2562  _nonReentrantAfter() */\n      tag_211\n        /* \"contracts/utils/ReentrancyGuard.sol\":1857:1858  1 */\n      0x01\n        /* \"contracts/utils/ReentrancyGuard.sol\":3068:3075  _status */\n      0x0b\n        /* \"contracts/utils/ReentrancyGuard.sol\":3068:3089  _status = NOT_ENTERED */\n      sstore\n        /* \"contracts/utils/ReentrancyGuard.sol\":2888:3096  function _nonReentrantAfter() private {... */\n      jump\n        /* \"contracts/utils/ReentrancyGuard.sol\":2575:2882  function _nonReentrantBefore() private {... */\n    tag_195:\n        /* \"contracts/utils/ReentrancyGuard.sol\":1899:1900  2 */\n      0x02\n        /* \"contracts/utils/ReentrancyGuard.sol\":2702:2709  _status */\n      sload(0x0b)\n        /* \"contracts/utils/ReentrancyGuard.sol\":2702:2720  _status == ENTERED */\n      sub\n        /* \"contracts/utils/ReentrancyGuard.sol\":2698:2784  if (_status == ENTERED) {... */\n      tag_366\n      jumpi\n        /* \"contracts/utils/ReentrancyGuard.sol\":2743:2773  ReentrancyGuardReentrantCall() */\n      mload(0x40)\n      shl(0xe0, 0x3ee5aeb5)\n      dup2\n      mstore\n      0x04\n      add\n      mload(0x40)\n      dup1\n      swap2\n      sub\n      swap1\n      revert\n        /* \"contracts/utils/ReentrancyGuard.sol\":2698:2784  if (_status == ENTERED) {... */\n    tag_366:\n        /* \"contracts/utils/ReentrancyGuard.sol\":1899:1900  2 */\n      0x02\n        /* \"contracts/utils/ReentrancyGuard.sol\":2858:2865  _status */\n      0x0b\n        /* \"contracts/utils/ReentrancyGuard.sol\":2858:2875  _status = ENTERED */\n      sstore\n        /* \"contracts/utils/ReentrancyGuard.sol\":2575:2882  function _nonReentrantBefore() private {... */\n      jump\t// out\n        /* \"contracts/L2/L2toL2CrossTradeL21Mock.sol\":14119:15461  function _request(... */\n    tag_208:\n        /* \"contracts/L2/L2toL2CrossTradeL21Mock.sol\":14466:14480  legacyERC20ETH */\n      sload(0x06)\n        /* \"contracts/L2/L2toL2CrossTradeL21Mock.sol\":14411:14428  bytes32 hashValue */\n      0x00\n      swap1\n      sub(shl(0xa0, 0x01), 0x01)\n        /* \"contracts/L2/L2toL2CrossTradeL21Mock.sol\":14466:14480  legacyERC20ETH */\n      swap1\n      dup2\n      and\n        /* \"contracts/L2/L2toL2CrossTradeL21Mock.sol\":14448:14480  _l2SourceToken == legacyERC20ETH */\n      swap1\n      dup10\n      and\n      sub\n        /* \"contracts/L2/L2toL2CrossTradeL21Mock.sol\":14444:14679  if (_l2SourceToken == legacyERC20ETH) {... */\n      tag_369\n      jumpi\n        /* \"contracts/L2/L2toL2CrossTradeL21Mock.sol\":14517:14529  _totalAmount */\n      dup6\n        /* \"contracts/L2/L2toL2CrossTradeL21Mock.sol\":14504:14513  msg.value */\n      callvalue\n        /* \"contracts/L2/L2toL2CrossTradeL21Mock.sol\":14504:14529  msg.value == _totalAmount */\n      eq\n        /* \"contracts/L2/L2toL2CrossTradeL21Mock.sol\":14496:14559  require(msg.value == _totalAmount, \"CT: nativeTON need amount\") */\n      tag_370\n      jumpi\n      mload(0x40)\n      shl(0xe5, 0x461bcd)\n      dup2\n      mstore\n        /* \"#utility.yul\":16189:16191   */\n      0x20\n        /* \"contracts/L2/L2toL2CrossTradeL21Mock.sol\":14496:14559  require(msg.value == _totalAmount, \"CT: nativeTON need amount\") */\n      0x04\n      dup3\n      add\n        /* \"#utility.yul\":16171:16192   */\n      mstore\n        /* \"#utility.yul\":16228:16230   */\n      0x19\n        /* \"#utility.yul\":16208:16226   */\n      0x24\n      dup3\n      add\n        /* \"#utility.yul\":16201:16231   */\n      mstore\n        /* \"#utility.yul\":16267:16294   */\n      0x43543a206e6174697665544f4e206e65656420616d6f756e7400000000000000\n        /* \"#utility.yul\":16247:16265   */\n      0x44\n      dup3\n      add\n        /* \"#utility.yul\":16240:16295   */\n      mstore\n        /* \"#utility.yul\":16312:16330   */\n      0x64\n      add\n        /* \"contracts/L2/L2toL2CrossTradeL21Mock.sol\":14496:14559  require(msg.value == _totalAmount, \"CT: nativeTON need amount\") */\n      tag_184\n        /* \"#utility.yul\":15987:16336   */\n      jump\n        /* \"contracts/L2/L2toL2CrossTradeL21Mock.sol\":14496:14559  require(msg.value == _totalAmount, \"CT: nativeTON need amount\") */\n    tag_370:\n        /* \"contracts/L2/L2toL2CrossTradeL21Mock.sol\":14444:14679  if (_l2SourceToken == legacyERC20ETH) {... */\n      jump(tag_374)\n    tag_369:\n        /* \"contracts/L2/L2toL2CrossTradeL21Mock.sol\":14590:14668  IERC20(_l2SourceToken).safeTransferFrom(msg.sender,address(this),_totalAmount) */\n      tag_374\n      sub(shl(0xa0, 0x01), 0x01)\n        /* \"contracts/L2/L2toL2CrossTradeL21Mock.sol\":14590:14629  IERC20(_l2SourceToken).safeTransferFrom */\n      dup10\n      and\n        /* \"contracts/L2/L2toL2CrossTradeL21Mock.sol\":14630:14640  msg.sender */\n      caller\n        /* \"contracts/L2/L2toL2CrossTradeL21Mock.sol\":14649:14653  this */\n      address\n        /* \"contracts/L2/L2toL2CrossTradeL21Mock.sol\":14655:14667  _totalAmount */\n      dup10\n        /* \"contracts/L2/L2toL2CrossTradeL21Mock.sol\":14590:14629  IERC20(_l2SourceToken).safeTransferFrom */\n      tag_375\n        /* \"contracts/L2/L2toL2CrossTradeL21Mock.sol\":14590:14668  IERC20(_l2SourceToken).safeTransferFrom(msg.sender,address(this),_totalAmount) */\n      jump\t// in\n    tag_374:\n        /* \"contracts/L2/L2toL2CrossTradeL21Mock.sol\":13640:13649  chainid() */\n      chainid\n        /* \"contracts/L2/L2toL2CrossTradeL21Mock.sol\":14751:15024  getHash(... */\n      tag_377\n        /* \"contracts/L2/L2toL2CrossTradeL21Mock.sol\":14772:14780  _l1token */\n      dup11\n        /* \"contracts/L2/L2toL2CrossTradeL21Mock.sol\":14794:14808  _l2SourceToken */\n      dup11\n        /* \"contracts/L2/L2toL2CrossTradeL21Mock.sol\":14822:14836  _l2TargetToken */\n      dup11\n        /* \"contracts/L2/L2toL2CrossTradeL21Mock.sol\":14850:14860  msg.sender */\n      caller\n        /* \"contracts/L2/L2toL2CrossTradeL21Mock.sol\":14874:14886  _totalAmount */\n      dup12\n        /* \"contracts/L2/L2toL2CrossTradeL21Mock.sol\":14900:14909  _ctAmount */\n      dup12\n        /* \"contracts/L2/L2toL2CrossTradeL21Mock.sol\":14923:14933  _saleCount */\n      dup12\n        /* \"contracts/L2/L2toL2CrossTradeL21Mock.sol\":13640:13649  chainid() */\n      dup9\n        /* \"contracts/L2/L2toL2CrossTradeL21Mock.sol\":14976:14991  l2TargetChainId */\n      dup12\n        /* \"contracts/L2/L2toL2CrossTradeL21Mock.sol\":15005:15014  l1ChainId */\n      dup14\n        /* \"contracts/L2/L2toL2CrossTradeL21Mock.sol\":14751:14758  getHash */\n      tag_124\n        /* \"contracts/L2/L2toL2CrossTradeL21Mock.sol\":14751:15024  getHash(... */\n      jump\t// in\n    tag_377:\n        /* \"contracts/L2/L2toL2CrossTradeL21Mock.sol\":14739:15024  hashValue = getHash(... */\n      swap2\n      pop\n        /* \"contracts/L2/L2toL2CrossTradeL21Mock.sol\":15058:15453  RequestData({... */\n      mload(0x40)\n      dup1\n      0x0140\n      add\n      0x40\n      mstore\n      dup1\n        /* \"contracts/L2/L2toL2CrossTradeL21Mock.sol\":15093:15101  _l1token */\n      dup12\n      sub(shl(0xa0, 0x01), 0x01)\n        /* \"contracts/L2/L2toL2CrossTradeL21Mock.sol\":15058:15453  RequestData({... */\n      and\n      dup2\n      mstore\n      0x20\n      add\n        /* \"contracts/L2/L2toL2CrossTradeL21Mock.sol\":15130:15144  _l2SourceToken */\n      dup11\n      sub(shl(0xa0, 0x01), 0x01)\n        /* \"contracts/L2/L2toL2CrossTradeL21Mock.sol\":15058:15453  RequestData({... */\n      and\n      dup2\n      mstore\n      0x20\n      add\n        /* \"contracts/L2/L2toL2CrossTradeL21Mock.sol\":15173:15187  _l2TargetToken */\n      dup10\n      sub(shl(0xa0, 0x01), 0x01)\n        /* \"contracts/L2/L2toL2CrossTradeL21Mock.sol\":15058:15453  RequestData({... */\n      and\n      dup2\n      mstore\n      0x20\n      add\n        /* \"contracts/L2/L2toL2CrossTradeL21Mock.sol\":15212:15222  msg.sender */\n      caller\n      sub(shl(0xa0, 0x01), 0x01)\n        /* \"contracts/L2/L2toL2CrossTradeL21Mock.sol\":15058:15453  RequestData({... */\n      and\n      dup2\n      mstore\n      0x20\n      add\n        /* \"contracts/L2/L2toL2CrossTradeL21Mock.sol\":15254:15255  0 */\n      0x00\n      sub(shl(0xa0, 0x01), 0x01)\n        /* \"contracts/L2/L2toL2CrossTradeL21Mock.sol\":15058:15453  RequestData({... */\n      and\n      dup2\n      mstore\n      0x20\n      add\n        /* \"contracts/L2/L2toL2CrossTradeL21Mock.sol\":15283:15295  _totalAmount */\n      dup9\n        /* \"contracts/L2/L2toL2CrossTradeL21Mock.sol\":15058:15453  RequestData({... */\n      dup2\n      mstore\n      0x20\n      add\n        /* \"contracts/L2/L2toL2CrossTradeL21Mock.sol\":15319:15328  _ctAmount */\n      dup8\n        /* \"contracts/L2/L2toL2CrossTradeL21Mock.sol\":15058:15453  RequestData({... */\n      dup2\n      mstore\n      0x20\n      add\n        /* \"contracts/L2/L2toL2CrossTradeL21Mock.sol\":15353:15362  l1ChainId */\n      dup6\n        /* \"contracts/L2/L2toL2CrossTradeL21Mock.sol\":15058:15453  RequestData({... */\n      dup2\n      mstore\n      0x20\n      add\n        /* \"contracts/L2/L2toL2CrossTradeL21Mock.sol\":15393:15408  l2TargetChainId */\n      dup5\n        /* \"contracts/L2/L2toL2CrossTradeL21Mock.sol\":15058:15453  RequestData({... */\n      dup2\n      mstore\n      0x20\n      add\n        /* \"contracts/L2/L2toL2CrossTradeL21Mock.sol\":15433:15442  hashValue */\n      dup4\n        /* \"contracts/L2/L2toL2CrossTradeL21Mock.sol\":15058:15453  RequestData({... */\n      dup2\n      mstore\n      pop\n        /* \"contracts/L2/L2toL2CrossTradeL21Mock.sol\":15035:15043  dealData */\n      0x08\n        /* \"contracts/L2/L2toL2CrossTradeL21Mock.sol\":15035:15055  dealData[_saleCount] */\n      0x00\n        /* \"contracts/L2/L2toL2CrossTradeL21Mock.sol\":15044:15054  _saleCount */\n      dup8\n        /* \"contracts/L2/L2toL2CrossTradeL21Mock.sol\":15035:15055  dealData[_saleCount] */\n      dup2\n      mstore\n      0x20\n      add\n      swap1\n      dup2\n      mstore\n      0x20\n      add\n      0x00\n      keccak256\n        /* \"contracts/L2/L2toL2CrossTradeL21Mock.sol\":15035:15453  dealData[_saleCount] = RequestData({... */\n      0x00\n      dup3\n      add\n      mload\n      dup2\n      0x00\n      add\n      exp(0x0100, 0x00)\n      dup2\n      sload\n      dup2\n      sub(shl(0xa0, 0x01), 0x01)\n      mul\n      not\n      and\n      swap1\n      dup4\n      sub(shl(0xa0, 0x01), 0x01)\n      and\n      mul\n      or\n      swap1\n      sstore\n      pop\n      0x20\n      dup3\n      add\n      mload\n      dup2\n      0x01\n      add\n      exp(0x0100, 0x00)\n      dup2\n      sload\n      dup2\n      sub(shl(0xa0, 0x01), 0x01)\n      mul\n      not\n      and\n      swap1\n      dup4\n      sub(shl(0xa0, 0x01), 0x01)\n      and\n      mul\n      or\n      swap1\n      sstore\n      pop\n      0x40\n      dup3\n      add\n      mload\n      dup2\n      0x02\n      add\n      exp(0x0100, 0x00)\n      dup2\n      sload\n      dup2\n      sub(shl(0xa0, 0x01), 0x01)\n      mul\n      not\n      and\n      swap1\n      dup4\n      sub(shl(0xa0, 0x01), 0x01)\n      and\n      mul\n      or\n      swap1\n      sstore\n      pop\n      0x60\n      dup3\n      add\n      mload\n      dup2\n      0x03\n      add\n      exp(0x0100, 0x00)\n      dup2\n      sload\n      dup2\n      sub(shl(0xa0, 0x01), 0x01)\n      mul\n      not\n      and\n      swap1\n      dup4\n      sub(shl(0xa0, 0x01), 0x01)\n      and\n      mul\n      or\n      swap1\n      sstore\n      pop\n      0x80\n      dup3\n      add\n      mload\n      dup2\n      0x04\n      add\n      exp(0x0100, 0x00)\n      dup2\n      sload\n      dup2\n      sub(shl(0xa0, 0x01), 0x01)\n      mul\n      not\n      and\n      swap1\n      dup4\n      sub(shl(0xa0, 0x01), 0x01)\n      and\n      mul\n      or\n      swap1\n      sstore\n      pop\n      0xa0\n      dup3\n      add\n      mload\n      dup2\n      0x05\n      add\n      sstore\n      0xc0\n      dup3\n      add\n      mload\n      dup2\n      0x06\n      add\n      sstore\n      0xe0\n      dup3\n      add\n      mload\n      dup2\n      0x07\n      add\n      sstore\n      0x0100\n      dup3\n      add\n      mload\n      dup2\n      0x08\n      add\n      sstore\n      0x0120\n      dup3\n      add\n      mload\n      dup2\n      0x09\n      add\n      sstore\n      swap1\n      pop\n      pop\n        /* \"contracts/L2/L2toL2CrossTradeL21Mock.sol\":14434:15461  {... */\n      pop\n        /* \"contracts/L2/L2toL2CrossTradeL21Mock.sol\":14119:15461  function _request(... */\n      swap9\n      swap8\n      pop\n      pop\n      pop\n      pop\n      pop\n      pop\n      pop\n      pop\n      jump\t// out\n        /* \"@openzeppelin/contracts/access/AccessControl.sol\":3199:3302  function _checkRole(bytes32 role) internal view virtual {... */\n    tag_226:\n        /* \"@openzeppelin/contracts/access/AccessControl.sol\":3265:3295  _checkRole(role, _msgSender()) */\n      tag_219\n        /* \"@openzeppelin/contracts/access/AccessControl.sol\":3276:3280  role */\n      dup2\n        /* \"@openzeppelin/contracts/utils/Context.sol\":735:745  msg.sender */\n      caller\n        /* \"@openzeppelin/contracts/access/AccessControl.sol\":3265:3275  _checkRole */\n      tag_382\n        /* \"@openzeppelin/contracts/access/AccessControl.sol\":3265:3295  _checkRole(role, _msgSender()) */\n      jump\t// in\n        /* \"@openzeppelin/contracts/access/AccessControl.sol\":6179:6495  function _grantRole(bytes32 role, address account) internal virtual returns (bool) {... */\n    tag_229:\n        /* \"@openzeppelin/contracts/access/AccessControl.sol\":6256:6260  bool */\n      0x00\n        /* \"@openzeppelin/contracts/access/AccessControl.sol\":6277:6299  hasRole(role, account) */\n      tag_384\n        /* \"@openzeppelin/contracts/access/AccessControl.sol\":6285:6289  role */\n      dup4\n        /* \"@openzeppelin/contracts/access/AccessControl.sol\":6291:6298  account */\n      dup4\n        /* \"@openzeppelin/contracts/access/AccessControl.sol\":6277:6284  hasRole */\n      tag_129\n        /* \"@openzeppelin/contracts/access/AccessControl.sol\":6277:6299  hasRole(role, account) */\n      jump\t// in\n    tag_384:\n        /* \"@openzeppelin/contracts/access/AccessControl.sol\":6272:6489  if (!hasRole(role, account)) {... */\n      tag_385\n      jumpi\n        /* \"@openzeppelin/contracts/access/AccessControl.sol\":6315:6327  _roles[role] */\n      0x00\n      dup4\n      dup2\n      mstore\n        /* \"@openzeppelin/contracts/access/AccessControl.sol\":6315:6321  _roles */\n      0x04\n        /* \"@openzeppelin/contracts/access/AccessControl.sol\":6315:6327  _roles[role] */\n      0x20\n      swap1\n      dup2\n      mstore\n      0x40\n      dup1\n      dup4\n      keccak256\n      sub(shl(0xa0, 0x01), 0x01)\n        /* \"@openzeppelin/contracts/access/AccessControl.sol\":6315:6344  _roles[role].hasRole[account] */\n      dup7\n      and\n      dup5\n      mstore\n      swap1\n      swap2\n      mstore\n      swap1\n      keccak256\n        /* \"@openzeppelin/contracts/access/AccessControl.sol\":6315:6351  _roles[role].hasRole[account] = true */\n      dup1\n      sload\n      not(0xff)\n      and\n        /* \"@openzeppelin/contracts/access/AccessControl.sol\":6347:6351  true */\n      0x01\n        /* \"@openzeppelin/contracts/access/AccessControl.sol\":6315:6351  _roles[role].hasRole[account] = true */\n      or\n      swap1\n      sstore\n        /* \"@openzeppelin/contracts/access/AccessControl.sol\":6397:6409  _msgSender() */\n      tag_386\n        /* \"@openzeppelin/contracts/utils/Context.sol\":735:745  msg.sender */\n      caller\n      swap1\n        /* \"@openzeppelin/contracts/utils/Context.sol\":656:752  function _msgSender() internal view virtual returns (address) {... */\n      jump\n        /* \"@openzeppelin/contracts/access/AccessControl.sol\":6397:6409  _msgSender() */\n    tag_386:\n      sub(shl(0xa0, 0x01), 0x01)\n        /* \"@openzeppelin/contracts/access/AccessControl.sol\":6370:6410  RoleGranted(role, account, _msgSender()) */\n      and\n        /* \"@openzeppelin/contracts/access/AccessControl.sol\":6388:6395  account */\n      dup3\n      sub(shl(0xa0, 0x01), 0x01)\n        /* \"@openzeppelin/contracts/access/AccessControl.sol\":6370:6410  RoleGranted(role, account, _msgSender()) */\n      and\n        /* \"@openzeppelin/contracts/access/AccessControl.sol\":6382:6386  role */\n      dup5\n        /* \"@openzeppelin/contracts/access/AccessControl.sol\":6370:6410  RoleGranted(role, account, _msgSender()) */\n      0x2f8788117e7eff1d82e926ec794901d17c78024a50270940304540a733656f0d\n      mload(0x40)\n      mload(0x40)\n      dup1\n      swap2\n      sub\n      swap1\n      log4\n      pop\n        /* \"@openzeppelin/contracts/access/AccessControl.sol\":6431:6435  true */\n      0x01\n        /* \"@openzeppelin/contracts/access/AccessControl.sol\":6424:6435  return true */\n      jump(tag_180)\n        /* \"@openzeppelin/contracts/access/AccessControl.sol\":6272:6489  if (!hasRole(role, account)) {... */\n    tag_385:\n      pop\n        /* \"@openzeppelin/contracts/access/AccessControl.sol\":6473:6478  false */\n      0x00\n        /* \"@openzeppelin/contracts/access/AccessControl.sol\":6466:6478  return false */\n      jump(tag_180)\n        /* \"@openzeppelin/contracts/access/AccessControl.sol\":6730:7047  function _revokeRole(bytes32 role, address account) internal virtual returns (bool) {... */\n    tag_235:\n        /* \"@openzeppelin/contracts/access/AccessControl.sol\":6808:6812  bool */\n      0x00\n        /* \"@openzeppelin/contracts/access/AccessControl.sol\":6828:6850  hasRole(role, account) */\n      tag_390\n        /* \"@openzeppelin/contracts/access/AccessControl.sol\":6836:6840  role */\n      dup4\n        /* \"@openzeppelin/contracts/access/AccessControl.sol\":6842:6849  account */\n      dup4\n        /* \"@openzeppelin/contracts/access/AccessControl.sol\":6828:6835  hasRole */\n      tag_129\n        /* \"@openzeppelin/contracts/access/AccessControl.sol\":6828:6850  hasRole(role, account) */\n      jump\t// in\n    tag_390:\n        /* \"@openzeppelin/contracts/access/AccessControl.sol\":6824:7041  if (hasRole(role, account)) {... */\n      iszero\n      tag_385\n      jumpi\n        /* \"@openzeppelin/contracts/access/AccessControl.sol\":6898:6903  false */\n      0x00\n        /* \"@openzeppelin/contracts/access/AccessControl.sol\":6866:6878  _roles[role] */\n      dup4\n      dup2\n      mstore\n        /* \"@openzeppelin/contracts/access/AccessControl.sol\":6866:6872  _roles */\n      0x04\n        /* \"@openzeppelin/contracts/access/AccessControl.sol\":6866:6878  _roles[role] */\n      0x20\n      swap1\n      dup2\n      mstore\n      0x40\n      dup1\n      dup4\n      keccak256\n      sub(shl(0xa0, 0x01), 0x01)\n        /* \"@openzeppelin/contracts/access/AccessControl.sol\":6866:6895  _roles[role].hasRole[account] */\n      dup7\n      and\n      dup1\n      dup6\n      mstore\n      swap3\n      mstore\n      dup1\n      dup4\n      keccak256\n        /* \"@openzeppelin/contracts/access/AccessControl.sol\":6866:6903  _roles[role].hasRole[account] = false */\n      dup1\n      sload\n      not(0xff)\n      and\n      swap1\n      sstore\n        /* \"@openzeppelin/contracts/access/AccessControl.sol\":6922:6962  RoleRevoked(role, account, _msgSender()) */\n      mload\n        /* \"@openzeppelin/contracts/utils/Context.sol\":735:745  msg.sender */\n      caller\n      swap3\n        /* \"@openzeppelin/contracts/access/AccessControl.sol\":6866:6878  _roles[role] */\n      dup7\n      swap2\n        /* \"@openzeppelin/contracts/access/AccessControl.sol\":6922:6962  RoleRevoked(role, account, _msgSender()) */\n      0xf6391f5c32d9c69d2a47ea670b442974b53935d1edc7fd64eb21e047a839171b\n      swap2\n        /* \"@openzeppelin/contracts/access/AccessControl.sol\":6898:6903  false */\n      swap1\n        /* \"@openzeppelin/contracts/access/AccessControl.sol\":6922:6962  RoleRevoked(role, account, _msgSender()) */\n      log4\n      pop\n        /* \"@openzeppelin/contracts/access/AccessControl.sol\":6983:6987  true */\n      0x01\n        /* \"@openzeppelin/contracts/access/AccessControl.sol\":6976:6987  return true */\n      jump(tag_180)\n        /* \"contracts/libraries/SafeERC20.sol\":792:1147  function safeTransfer(... */\n    tag_269:\n        /* \"contracts/libraries/SafeERC20.sol\":974:1034  abi.encodeWithSelector(IERC20.transfer.selector, to, amount) */\n      0x40\n      dup1\n      mload\n      sub(shl(0xa0, 0x01), 0x01)\n        /* \"#utility.yul\":16533:16565   */\n      dup5\n      dup2\n      and\n        /* \"contracts/libraries/SafeERC20.sol\":974:1034  abi.encodeWithSelector(IERC20.transfer.selector, to, amount) */\n      0x24\n      dup4\n      add\n        /* \"#utility.yul\":16515:16566   */\n      mstore\n        /* \"#utility.yul\":16582:16600   */\n      0x44\n      dup1\n      dup4\n      add\n        /* \"#utility.yul\":16575:16609   */\n      dup6\n      swap1\n      mstore\n        /* \"contracts/libraries/SafeERC20.sol\":974:1034  abi.encodeWithSelector(IERC20.transfer.selector, to, amount) */\n      dup4\n      mload\n      dup1\n      dup5\n      sub\n      swap1\n      swap2\n      add\n      dup2\n      mstore\n        /* \"#utility.yul\":16488:16506   */\n      0x64\n      swap1\n      swap3\n      add\n        /* \"contracts/libraries/SafeERC20.sol\":974:1034  abi.encodeWithSelector(IERC20.transfer.selector, to, amount) */\n      dup4\n      mstore\n      0x20\n      dup3\n      add\n      dup1\n      mload\n      sub(shl(0xe0, 0x01), 0x01)\n      and\n      shl(0xe0, 0xa9059cbb)\n      or\n      swap1\n      mstore\n        /* \"contracts/libraries/SafeERC20.sol\":941:1044  address(token).call(... */\n      swap2\n      mload\n      0x00\n      swap3\n      dup4\n      swap3\n        /* \"contracts/libraries/SafeERC20.sol\":941:960  address(token).call */\n      swap1\n      dup8\n      and\n      swap2\n        /* \"contracts/libraries/SafeERC20.sol\":941:1044  address(token).call(... */\n      tag_397\n      swap2\n        /* \"contracts/libraries/SafeERC20.sol\":974:1034  abi.encodeWithSelector(IERC20.transfer.selector, to, amount) */\n      swap1\n        /* \"contracts/libraries/SafeERC20.sol\":941:1044  address(token).call(... */\n      tag_398\n      jump\t// in\n    tag_397:\n      0x00\n      mload(0x40)\n      dup1\n      dup4\n      sub\n      dup2\n      0x00\n      dup7\n      gas\n      call\n      swap2\n      pop\n      pop\n      returndatasize\n      dup1\n      0x00\n      dup2\n      eq\n      tag_401\n      jumpi\n      mload(0x40)\n      swap2\n      pop\n      and(add(returndatasize, 0x3f), not(0x1f))\n      dup3\n      add\n      0x40\n      mstore\n      returndatasize\n      dup3\n      mstore\n      returndatasize\n      0x00\n      0x20\n      dup5\n      add\n      returndatacopy\n      jump(tag_400)\n    tag_401:\n      0x60\n      swap2\n      pop\n    tag_400:\n      pop\n        /* \"contracts/libraries/SafeERC20.sol\":905:1044  (bool success, bytes memory data) = address(token).call(... */\n      swap2\n      pop\n      swap2\n      pop\n        /* \"contracts/libraries/SafeERC20.sol\":1063:1070  success */\n      dup2\n        /* \"contracts/libraries/SafeERC20.sol\":1063:1120  success && (data.length == 0 || abi.decode(data, (bool))) */\n      dup1\n      iszero\n      tag_404\n      jumpi\n      pop\n        /* \"contracts/libraries/SafeERC20.sol\":1075:1086  data.length */\n      dup1\n      mload\n        /* \"contracts/libraries/SafeERC20.sol\":1075:1091  data.length == 0 */\n      iszero\n      dup1\n        /* \"contracts/libraries/SafeERC20.sol\":1075:1119  data.length == 0 || abi.decode(data, (bool)) */\n      tag_404\n      jumpi\n      pop\n        /* \"contracts/libraries/SafeERC20.sol\":1106:1110  data */\n      dup1\n        /* \"contracts/libraries/SafeERC20.sol\":1095:1119  abi.decode(data, (bool)) */\n      dup1\n      0x20\n      add\n      swap1\n      mload\n      dup2\n      add\n      swap1\n      tag_404\n      swap2\n      swap1\n      tag_405\n      jump\t// in\n    tag_404:\n        /* \"contracts/libraries/SafeERC20.sol\":1055:1140  require(success && (data.length == 0 || abi.decode(data, (bool))), \"TRANSFER_FAILED\") */\n      tag_273\n      jumpi\n      mload(0x40)\n      shl(0xe5, 0x461bcd)\n      dup2\n      mstore\n        /* \"#utility.yul\":17521:17523   */\n      0x20\n        /* \"contracts/libraries/SafeERC20.sol\":1055:1140  require(success && (data.length == 0 || abi.decode(data, (bool))), \"TRANSFER_FAILED\") */\n      0x04\n      dup3\n      add\n        /* \"#utility.yul\":17503:17524   */\n      mstore\n        /* \"#utility.yul\":17560:17562   */\n      0x0f\n        /* \"#utility.yul\":17540:17558   */\n      0x24\n      dup3\n      add\n        /* \"#utility.yul\":17533:17563   */\n      mstore\n      shl(0x8a, 0x1514905394d1915497d19052531151)\n        /* \"#utility.yul\":17579:17597   */\n      0x44\n      dup3\n      add\n        /* \"#utility.yul\":17572:17617   */\n      mstore\n        /* \"#utility.yul\":17634:17652   */\n      0x64\n      add\n        /* \"contracts/libraries/SafeERC20.sol\":1055:1140  require(success && (data.length == 0 || abi.decode(data, (bool))), \"TRANSFER_FAILED\") */\n      tag_184\n        /* \"#utility.yul\":17319:17658   */\n      jump\n        /* \"contracts/libraries/SafeERC20.sol\":390:786  function safeTransferFrom(... */\n    tag_375:\n        /* \"contracts/libraries/SafeERC20.sol\":598:668  abi.encodeWithSelector(IERC20.transferFrom.selector, from, to, amount) */\n      0x40\n      dup1\n      mload\n      sub(shl(0xa0, 0x01), 0x01)\n        /* \"#utility.yul\":17921:17936   */\n      dup6\n      dup2\n      and\n        /* \"contracts/libraries/SafeERC20.sol\":598:668  abi.encodeWithSelector(IERC20.transferFrom.selector, from, to, amount) */\n      0x24\n      dup4\n      add\n        /* \"#utility.yul\":17903:17937   */\n      mstore\n        /* \"#utility.yul\":17973:17988   */\n      dup5\n      dup2\n      and\n        /* \"#utility.yul\":17953:17971   */\n      0x44\n      dup4\n      add\n        /* \"#utility.yul\":17946:17989   */\n      mstore\n        /* \"#utility.yul\":18005:18023   */\n      0x64\n      dup1\n      dup4\n      add\n        /* \"#utility.yul\":17998:18032   */\n      dup6\n      swap1\n      mstore\n        /* \"contracts/libraries/SafeERC20.sol\":598:668  abi.encodeWithSelector(IERC20.transferFrom.selector, from, to, amount) */\n      dup4\n      mload\n      dup1\n      dup5\n      sub\n      swap1\n      swap2\n      add\n      dup2\n      mstore\n        /* \"#utility.yul\":17838:17856   */\n      0x84\n      swap1\n      swap3\n      add\n        /* \"contracts/libraries/SafeERC20.sol\":598:668  abi.encodeWithSelector(IERC20.transferFrom.selector, from, to, amount) */\n      dup4\n      mstore\n      0x20\n      dup3\n      add\n      dup1\n      mload\n      sub(shl(0xe0, 0x01), 0x01)\n      and\n      shl(0xe0, 0x23b872dd)\n      or\n      swap1\n      mstore\n        /* \"contracts/libraries/SafeERC20.sol\":565:678  address(token).call(... */\n      swap2\n      mload\n      0x00\n      swap3\n      dup4\n      swap3\n        /* \"contracts/libraries/SafeERC20.sol\":565:584  address(token).call */\n      swap1\n      dup9\n      and\n      swap2\n        /* \"contracts/libraries/SafeERC20.sol\":565:678  address(token).call(... */\n      tag_412\n      swap2\n        /* \"contracts/libraries/SafeERC20.sol\":598:668  abi.encodeWithSelector(IERC20.transferFrom.selector, from, to, amount) */\n      swap1\n        /* \"contracts/libraries/SafeERC20.sol\":565:678  address(token).call(... */\n      tag_398\n      jump\t// in\n    tag_412:\n      0x00\n      mload(0x40)\n      dup1\n      dup4\n      sub\n      dup2\n      0x00\n      dup7\n      gas\n      call\n      swap2\n      pop\n      pop\n      returndatasize\n      dup1\n      0x00\n      dup2\n      eq\n      tag_415\n      jumpi\n      mload(0x40)\n      swap2\n      pop\n      and(add(returndatasize, 0x3f), not(0x1f))\n      dup3\n      add\n      0x40\n      mstore\n      returndatasize\n      dup3\n      mstore\n      returndatasize\n      0x00\n      0x20\n      dup5\n      add\n      returndatacopy\n      jump(tag_414)\n    tag_415:\n      0x60\n      swap2\n      pop\n    tag_414:\n      pop\n        /* \"contracts/libraries/SafeERC20.sol\":529:678  (bool success, bytes memory data) = address(token).call(... */\n      swap2\n      pop\n      swap2\n      pop\n        /* \"contracts/libraries/SafeERC20.sol\":697:704  success */\n      dup2\n        /* \"contracts/libraries/SafeERC20.sol\":697:754  success && (data.length == 0 || abi.decode(data, (bool))) */\n      dup1\n      iszero\n      tag_418\n      jumpi\n      pop\n        /* \"contracts/libraries/SafeERC20.sol\":709:720  data.length */\n      dup1\n      mload\n        /* \"contracts/libraries/SafeERC20.sol\":709:725  data.length == 0 */\n      iszero\n      dup1\n        /* \"contracts/libraries/SafeERC20.sol\":709:753  data.length == 0 || abi.decode(data, (bool)) */\n      tag_418\n      jumpi\n      pop\n        /* \"contracts/libraries/SafeERC20.sol\":740:744  data */\n      dup1\n        /* \"contracts/libraries/SafeERC20.sol\":729:753  abi.decode(data, (bool)) */\n      dup1\n      0x20\n      add\n      swap1\n      mload\n      dup2\n      add\n      swap1\n      tag_418\n      swap2\n      swap1\n      tag_405\n      jump\t// in\n    tag_418:\n        /* \"contracts/libraries/SafeERC20.sol\":689:779  require(success && (data.length == 0 || abi.decode(data, (bool))), \"TRANSFER_FROM_FAILED\") */\n      tag_333\n      jumpi\n      mload(0x40)\n      shl(0xe5, 0x461bcd)\n      dup2\n      mstore\n        /* \"#utility.yul\":18245:18247   */\n      0x20\n        /* \"contracts/libraries/SafeERC20.sol\":689:779  require(success && (data.length == 0 || abi.decode(data, (bool))), \"TRANSFER_FROM_FAILED\") */\n      0x04\n      dup3\n      add\n        /* \"#utility.yul\":18227:18248   */\n      mstore\n        /* \"#utility.yul\":18284:18286   */\n      0x14\n        /* \"#utility.yul\":18264:18282   */\n      0x24\n      dup3\n      add\n        /* \"#utility.yul\":18257:18287   */\n      mstore\n      shl(0x62, 0x1514905394d1915497d19493d357d19052531151)\n        /* \"#utility.yul\":18303:18321   */\n      0x44\n      dup3\n      add\n        /* \"#utility.yul\":18296:18346   */\n      mstore\n        /* \"#utility.yul\":18363:18381   */\n      0x64\n      add\n        /* \"contracts/libraries/SafeERC20.sol\":689:779  require(success && (data.length == 0 || abi.decode(data, (bool))), \"TRANSFER_FROM_FAILED\") */\n      tag_184\n        /* \"#utility.yul\":18043:18387   */\n      jump\n        /* \"@openzeppelin/contracts/access/AccessControl.sol\":3432:3629  function _checkRole(bytes32 role, address account) internal view virtual {... */\n    tag_382:\n        /* \"@openzeppelin/contracts/access/AccessControl.sol\":3520:3542  hasRole(role, account) */\n      tag_423\n        /* \"@openzeppelin/contracts/access/AccessControl.sol\":3528:3532  role */\n      dup3\n        /* \"@openzeppelin/contracts/access/AccessControl.sol\":3534:3541  account */\n      dup3\n        /* \"@openzeppelin/contracts/access/AccessControl.sol\":3520:3527  hasRole */\n      tag_129\n        /* \"@openzeppelin/contracts/access/AccessControl.sol\":3520:3542  hasRole(role, account) */\n      jump\t// in\n    tag_423:\n        /* \"@openzeppelin/contracts/access/AccessControl.sol\":3515:3623  if (!hasRole(role, account)) {... */\n      tag_424\n      jumpi\n        /* \"@openzeppelin/contracts/access/AccessControl.sol\":3565:3612  AccessControlUnauthorizedAccount(account, role) */\n      mload(0x40)\n      shl(0xe0, 0xe2517d3f)\n      dup2\n      mstore\n      sub(shl(0xa0, 0x01), 0x01)\n        /* \"#utility.yul\":16533:16565   */\n      dup3\n      and\n        /* \"@openzeppelin/contracts/access/AccessControl.sol\":3565:3612  AccessControlUnauthorizedAccount(account, role) */\n      0x04\n      dup3\n      add\n        /* \"#utility.yul\":16515:16566   */\n      mstore\n        /* \"#utility.yul\":16582:16600   */\n      0x24\n      dup2\n      add\n        /* \"#utility.yul\":16575:16609   */\n      dup4\n      swap1\n      mstore\n        /* \"#utility.yul\":16488:16506   */\n      0x44\n      add\n        /* \"@openzeppelin/contracts/access/AccessControl.sol\":3565:3612  AccessControlUnauthorizedAccount(account, role) */\n      tag_184\n        /* \"#utility.yul\":16341:16615   */\n      jump\n        /* \"@openzeppelin/contracts/access/AccessControl.sol\":3515:3623  if (!hasRole(role, account)) {... */\n    tag_424:\n        /* \"@openzeppelin/contracts/access/AccessControl.sol\":3432:3629  function _checkRole(bytes32 role, address account) internal view virtual {... */\n      pop\n      pop\n      jump\t// out\n        /* \"#utility.yul\":14:300   */\n    tag_41:\n        /* \"#utility.yul\":72:78   */\n      0x00\n        /* \"#utility.yul\":125:127   */\n      0x20\n        /* \"#utility.yul\":113:122   */\n      dup3\n        /* \"#utility.yul\":104:111   */\n      dup5\n        /* \"#utility.yul\":100:123   */\n      sub\n        /* \"#utility.yul\":96:128   */\n      slt\n        /* \"#utility.yul\":93:145   */\n      iszero\n      tag_430\n      jumpi\n        /* \"#utility.yul\":141:142   */\n      0x00\n        /* \"#utility.yul\":138:139   */\n      dup1\n        /* \"#utility.yul\":131:143   */\n      revert\n        /* \"#utility.yul\":93:145   */\n    tag_430:\n        /* \"#utility.yul\":167:190   */\n      dup2\n      calldataload\n      not(sub(shl(0xe0, 0x01), 0x01))\n        /* \"#utility.yul\":219:251   */\n      dup2\n      and\n        /* \"#utility.yul\":209:252   */\n      dup2\n      eq\n        /* \"#utility.yul\":199:270   */\n      tag_431\n      jumpi\n        /* \"#utility.yul\":266:267   */\n      0x00\n        /* \"#utility.yul\":263:264   */\n      dup1\n        /* \"#utility.yul\":256:268   */\n      revert\n        /* \"#utility.yul\":199:270   */\n    tag_431:\n        /* \"#utility.yul\":289:294   */\n      swap4\n        /* \"#utility.yul\":14:300   */\n      swap3\n      pop\n      pop\n      pop\n      jump\t// out\n        /* \"#utility.yul\":497:628   */\n    tag_427:\n      sub(shl(0xa0, 0x01), 0x01)\n        /* \"#utility.yul\":572:603   */\n      dup2\n      and\n        /* \"#utility.yul\":562:604   */\n      dup2\n      eq\n        /* \"#utility.yul\":552:622   */\n      tag_219\n      jumpi\n        /* \"#utility.yul\":618:619   */\n      0x00\n        /* \"#utility.yul\":615:616   */\n      dup1\n        /* \"#utility.yul\":608:620   */\n      revert\n        /* \"#utility.yul\":633:1438   */\n    tag_47:\n        /* \"#utility.yul\":746:752   */\n      0x00\n        /* \"#utility.yul\":754:760   */\n      dup1\n        /* \"#utility.yul\":762:768   */\n      0x00\n        /* \"#utility.yul\":770:776   */\n      dup1\n        /* \"#utility.yul\":778:784   */\n      0x00\n        /* \"#utility.yul\":786:792   */\n      dup1\n        /* \"#utility.yul\":794:800   */\n      0x00\n        /* \"#utility.yul\":847:850   */\n      0xe0\n        /* \"#utility.yul\":835:844   */\n      dup9\n        /* \"#utility.yul\":826:833   */\n      dup11\n        /* \"#utility.yul\":822:845   */\n      sub\n        /* \"#utility.yul\":818:851   */\n      slt\n        /* \"#utility.yul\":815:868   */\n      iszero\n      tag_436\n      jumpi\n        /* \"#utility.yul\":864:865   */\n      0x00\n        /* \"#utility.yul\":861:862   */\n      dup1\n        /* \"#utility.yul\":854:866   */\n      revert\n        /* \"#utility.yul\":815:868   */\n    tag_436:\n        /* \"#utility.yul\":903:912   */\n      dup8\n        /* \"#utility.yul\":890:913   */\n      calldataload\n        /* \"#utility.yul\":922:953   */\n      tag_437\n        /* \"#utility.yul\":947:952   */\n      dup2\n        /* \"#utility.yul\":922:953   */\n      tag_427\n      jump\t// in\n    tag_437:\n        /* \"#utility.yul\":972:977   */\n      swap7\n      pop\n        /* \"#utility.yul\":1029:1031   */\n      0x20\n        /* \"#utility.yul\":1014:1032   */\n      dup9\n      add\n        /* \"#utility.yul\":1001:1033   */\n      calldataload\n        /* \"#utility.yul\":1042:1075   */\n      tag_438\n        /* \"#utility.yul\":1001:1033   */\n      dup2\n        /* \"#utility.yul\":1042:1075   */\n      tag_427\n      jump\t// in\n    tag_438:\n        /* \"#utility.yul\":1094:1101   */\n      swap6\n      pop\n        /* \"#utility.yul\":1153:1155   */\n      0x40\n        /* \"#utility.yul\":1138:1156   */\n      dup9\n      add\n        /* \"#utility.yul\":1125:1157   */\n      calldataload\n        /* \"#utility.yul\":1166:1199   */\n      tag_439\n        /* \"#utility.yul\":1125:1157   */\n      dup2\n        /* \"#utility.yul\":1166:1199   */\n      tag_427\n      jump\t// in\n    tag_439:\n        /* \"#utility.yul\":633:1438   */\n      swap7\n      swap10\n      swap6\n      swap9\n      pop\n        /* \"#utility.yul\":1218:1225   */\n      swap6\n      swap7\n        /* \"#utility.yul\":1272:1274   */\n      0x60\n        /* \"#utility.yul\":1257:1275   */\n      dup2\n      add\n        /* \"#utility.yul\":1244:1276   */\n      calldataload\n      swap7\n      pop\n        /* \"#utility.yul\":1323:1326   */\n      0x80\n        /* \"#utility.yul\":1308:1327   */\n      dup2\n      add\n        /* \"#utility.yul\":1295:1328   */\n      calldataload\n      swap6\n        /* \"#utility.yul\":1375:1378   */\n      0xa0\n        /* \"#utility.yul\":1360:1379   */\n      dup3\n      add\n        /* \"#utility.yul\":1347:1380   */\n      calldataload\n      swap6\n      pop\n        /* \"#utility.yul\":1427:1430   */\n      0xc0\n        /* \"#utility.yul\":1412:1431   */\n      swap1\n      swap2\n      add\n        /* \"#utility.yul\":1399:1432   */\n      calldataload\n      swap4\n      pop\n        /* \"#utility.yul\":633:1438   */\n      swap2\n      pop\n      pop\n      jump\t// out\n        /* \"#utility.yul\":1651:1898   */\n    tag_57:\n        /* \"#utility.yul\":1710:1716   */\n      0x00\n        /* \"#utility.yul\":1763:1765   */\n      0x20\n        /* \"#utility.yul\":1751:1760   */\n      dup3\n        /* \"#utility.yul\":1742:1749   */\n      dup5\n        /* \"#utility.yul\":1738:1761   */\n      sub\n        /* \"#utility.yul\":1734:1766   */\n      slt\n        /* \"#utility.yul\":1731:1783   */\n      iszero\n      tag_442\n      jumpi\n        /* \"#utility.yul\":1779:1780   */\n      0x00\n        /* \"#utility.yul\":1776:1777   */\n      dup1\n        /* \"#utility.yul\":1769:1781   */\n      revert\n        /* \"#utility.yul\":1731:1783   */\n    tag_442:\n        /* \"#utility.yul\":1818:1827   */\n      dup2\n        /* \"#utility.yul\":1805:1828   */\n      calldataload\n        /* \"#utility.yul\":1837:1868   */\n      tag_431\n        /* \"#utility.yul\":1862:1867   */\n      dup2\n        /* \"#utility.yul\":1837:1868   */\n      tag_427\n      jump\t// in\n        /* \"#utility.yul\":2085:2265   */\n    tag_67:\n        /* \"#utility.yul\":2144:2150   */\n      0x00\n        /* \"#utility.yul\":2197:2199   */\n      0x20\n        /* \"#utility.yul\":2185:2194   */\n      dup3\n        /* \"#utility.yul\":2176:2183   */\n      dup5\n        /* \"#utility.yul\":2172:2195   */\n      sub\n        /* \"#utility.yul\":2168:2200   */\n      slt\n        /* \"#utility.yul\":2165:2217   */\n      iszero\n      tag_446\n      jumpi\n        /* \"#utility.yul\":2213:2214   */\n      0x00\n        /* \"#utility.yul\":2210:2211   */\n      dup1\n        /* \"#utility.yul\":2203:2215   */\n      revert\n        /* \"#utility.yul\":2165:2217   */\n    tag_446:\n      pop\n        /* \"#utility.yul\":2236:2259   */\n      calldataload\n      swap2\n        /* \"#utility.yul\":2085:2265   */\n      swap1\n      pop\n      jump\t// out\n        /* \"#utility.yul\":2270:2585   */\n    tag_78:\n        /* \"#utility.yul\":2338:2344   */\n      0x00\n        /* \"#utility.yul\":2346:2352   */\n      dup1\n        /* \"#utility.yul\":2399:2401   */\n      0x40\n        /* \"#utility.yul\":2387:2396   */\n      dup4\n        /* \"#utility.yul\":2378:2385   */\n      dup6\n        /* \"#utility.yul\":2374:2397   */\n      sub\n        /* \"#utility.yul\":2370:2402   */\n      slt\n        /* \"#utility.yul\":2367:2419   */\n      iszero\n      tag_448\n      jumpi\n        /* \"#utility.yul\":2415:2416   */\n      0x00\n        /* \"#utility.yul\":2412:2413   */\n      dup1\n        /* \"#utility.yul\":2405:2417   */\n      revert\n        /* \"#utility.yul\":2367:2419   */\n    tag_448:\n        /* \"#utility.yul\":2451:2460   */\n      dup3\n        /* \"#utility.yul\":2438:2461   */\n      calldataload\n        /* \"#utility.yul\":2428:2461   */\n      swap2\n      pop\n        /* \"#utility.yul\":2511:2513   */\n      0x20\n        /* \"#utility.yul\":2500:2509   */\n      dup4\n        /* \"#utility.yul\":2496:2514   */\n      add\n        /* \"#utility.yul\":2483:2515   */\n      calldataload\n        /* \"#utility.yul\":2524:2555   */\n      tag_449\n        /* \"#utility.yul\":2549:2554   */\n      dup2\n        /* \"#utility.yul\":2524:2555   */\n      tag_427\n      jump\t// in\n    tag_449:\n        /* \"#utility.yul\":2574:2579   */\n      dup1\n        /* \"#utility.yul\":2564:2579   */\n      swap2\n      pop\n      pop\n        /* \"#utility.yul\":2270:2585   */\n      swap3\n      pop\n      swap3\n      swap1\n      pop\n      jump\t// out\n        /* \"#utility.yul\":2590:3111   */\n    tag_101:\n        /* \"#utility.yul\":2685:2691   */\n      0x00\n        /* \"#utility.yul\":2693:2699   */\n      dup1\n        /* \"#utility.yul\":2701:2707   */\n      0x00\n        /* \"#utility.yul\":2709:2715   */\n      dup1\n        /* \"#utility.yul\":2717:2723   */\n      0x00\n        /* \"#utility.yul\":2770:2773   */\n      0xa0\n        /* \"#utility.yul\":2758:2767   */\n      dup7\n        /* \"#utility.yul\":2749:2756   */\n      dup9\n        /* \"#utility.yul\":2745:2768   */\n      sub\n        /* \"#utility.yul\":2741:2774   */\n      slt\n        /* \"#utility.yul\":2738:2791   */\n      iszero\n      tag_451\n      jumpi\n        /* \"#utility.yul\":2787:2788   */\n      0x00\n        /* \"#utility.yul\":2784:2785   */\n      dup1\n        /* \"#utility.yul\":2777:2789   */\n      revert\n        /* \"#utility.yul\":2738:2791   */\n    tag_451:\n        /* \"#utility.yul\":2826:2835   */\n      dup6\n        /* \"#utility.yul\":2813:2836   */\n      calldataload\n        /* \"#utility.yul\":2845:2876   */\n      tag_452\n        /* \"#utility.yul\":2870:2875   */\n      dup2\n        /* \"#utility.yul\":2845:2876   */\n      tag_427\n      jump\t// in\n    tag_452:\n        /* \"#utility.yul\":2895:2900   */\n      swap8\n        /* \"#utility.yul\":2947:2949   */\n      0x20\n        /* \"#utility.yul\":2932:2950   */\n      dup8\n      add\n        /* \"#utility.yul\":2919:2951   */\n      calldataload\n      swap8\n      pop\n        /* \"#utility.yul\":2998:3000   */\n      0x40\n        /* \"#utility.yul\":2983:3001   */\n      dup8\n      add\n        /* \"#utility.yul\":2970:3002   */\n      calldataload\n      swap7\n        /* \"#utility.yul\":3049:3051   */\n      0x60\n        /* \"#utility.yul\":3034:3052   */\n      dup2\n      add\n        /* \"#utility.yul\":3021:3053   */\n      calldataload\n      swap7\n      pop\n        /* \"#utility.yul\":3100:3103   */\n      0x80\n        /* \"#utility.yul\":3085:3104   */\n      add\n        /* \"#utility.yul\":3072:3105   */\n      calldataload\n      swap5\n      pop\n        /* \"#utility.yul\":2590:3111   */\n      swap3\n      pop\n      pop\n      pop\n      jump\t// out\n        /* \"#utility.yul\":3116:3852   */\n    tag_106:\n        /* \"#utility.yul\":3220:3226   */\n      0x00\n        /* \"#utility.yul\":3228:3234   */\n      dup1\n        /* \"#utility.yul\":3236:3242   */\n      0x00\n        /* \"#utility.yul\":3244:3250   */\n      dup1\n        /* \"#utility.yul\":3252:3258   */\n      0x00\n        /* \"#utility.yul\":3260:3266   */\n      dup1\n        /* \"#utility.yul\":3313:3316   */\n      0xc0\n        /* \"#utility.yul\":3301:3310   */\n      dup8\n        /* \"#utility.yul\":3292:3299   */\n      dup10\n        /* \"#utility.yul\":3288:3311   */\n      sub\n        /* \"#utility.yul\":3284:3317   */\n      slt\n        /* \"#utility.yul\":3281:3334   */\n      iszero\n      tag_454\n      jumpi\n        /* \"#utility.yul\":3330:3331   */\n      0x00\n        /* \"#utility.yul\":3327:3328   */\n      dup1\n        /* \"#utility.yul\":3320:3332   */\n      revert\n        /* \"#utility.yul\":3281:3334   */\n    tag_454:\n        /* \"#utility.yul\":3369:3378   */\n      dup7\n        /* \"#utility.yul\":3356:3379   */\n      calldataload\n        /* \"#utility.yul\":3388:3419   */\n      tag_455\n        /* \"#utility.yul\":3413:3418   */\n      dup2\n        /* \"#utility.yul\":3388:3419   */\n      tag_427\n      jump\t// in\n    tag_455:\n        /* \"#utility.yul\":3438:3443   */\n      swap6\n      pop\n        /* \"#utility.yul\":3495:3497   */\n      0x20\n        /* \"#utility.yul\":3480:3498   */\n      dup8\n      add\n        /* \"#utility.yul\":3467:3499   */\n      calldataload\n        /* \"#utility.yul\":3508:3541   */\n      tag_456\n        /* \"#utility.yul\":3467:3499   */\n      dup2\n        /* \"#utility.yul\":3508:3541   */\n      tag_427\n      jump\t// in\n    tag_456:\n        /* \"#utility.yul\":3560:3567   */\n      swap5\n      pop\n        /* \"#utility.yul\":3619:3621   */\n      0x40\n        /* \"#utility.yul\":3604:3622   */\n      dup8\n      add\n        /* \"#utility.yul\":3591:3623   */\n      calldataload\n        /* \"#utility.yul\":3632:3665   */\n      tag_457\n        /* \"#utility.yul\":3591:3623   */\n      dup2\n        /* \"#utility.yul\":3632:3665   */\n      tag_427\n      jump\t// in\n    tag_457:\n        /* \"#utility.yul\":3116:3852   */\n      swap6\n      swap9\n      swap5\n      swap8\n      pop\n        /* \"#utility.yul\":3684:3691   */\n      swap5\n      swap6\n        /* \"#utility.yul\":3738:3740   */\n      0x60\n        /* \"#utility.yul\":3723:3741   */\n      dup2\n      add\n        /* \"#utility.yul\":3710:3742   */\n      calldataload\n      swap6\n      pop\n        /* \"#utility.yul\":3789:3792   */\n      0x80\n        /* \"#utility.yul\":3774:3793   */\n      dup2\n      add\n        /* \"#utility.yul\":3761:3794   */\n      calldataload\n      swap5\n        /* \"#utility.yul\":3841:3844   */\n      0xa0\n        /* \"#utility.yul\":3826:3845   */\n      swap1\n      swap2\n      add\n        /* \"#utility.yul\":3813:3846   */\n      calldataload\n      swap4\n      pop\n        /* \"#utility.yul\":3116:3852   */\n      swap2\n      pop\n      pop\n      jump\t// out\n        /* \"#utility.yul\":3857:4942   */\n    tag_123:\n        /* \"#utility.yul\":3997:4003   */\n      0x00\n        /* \"#utility.yul\":4005:4011   */\n      dup1\n        /* \"#utility.yul\":4013:4019   */\n      0x00\n        /* \"#utility.yul\":4021:4027   */\n      dup1\n        /* \"#utility.yul\":4029:4035   */\n      0x00\n        /* \"#utility.yul\":4037:4043   */\n      dup1\n        /* \"#utility.yul\":4045:4051   */\n      0x00\n        /* \"#utility.yul\":4053:4059   */\n      dup1\n        /* \"#utility.yul\":4061:4067   */\n      0x00\n        /* \"#utility.yul\":4069:4075   */\n      dup1\n        /* \"#utility.yul\":4122:4125   */\n      0x0140\n        /* \"#utility.yul\":4110:4119   */\n      dup12\n        /* \"#utility.yul\":4101:4108   */\n      dup14\n        /* \"#utility.yul\":4097:4120   */\n      sub\n        /* \"#utility.yul\":4093:4126   */\n      slt\n        /* \"#utility.yul\":4090:4143   */\n      iszero\n      tag_459\n      jumpi\n        /* \"#utility.yul\":4139:4140   */\n      0x00\n        /* \"#utility.yul\":4136:4137   */\n      dup1\n        /* \"#utility.yul\":4129:4141   */\n      revert\n        /* \"#utility.yul\":4090:4143   */\n    tag_459:\n        /* \"#utility.yul\":4178:4187   */\n      dup11\n        /* \"#utility.yul\":4165:4188   */\n      calldataload\n        /* \"#utility.yul\":4197:4228   */\n      tag_460\n        /* \"#utility.yul\":4222:4227   */\n      dup2\n        /* \"#utility.yul\":4197:4228   */\n      tag_427\n      jump\t// in\n    tag_460:\n        /* \"#utility.yul\":4247:4252   */\n      swap10\n      pop\n        /* \"#utility.yul\":4304:4306   */\n      0x20\n        /* \"#utility.yul\":4289:4307   */\n      dup12\n      add\n        /* \"#utility.yul\":4276:4308   */\n      calldataload\n        /* \"#utility.yul\":4317:4350   */\n      tag_461\n        /* \"#utility.yul\":4276:4308   */\n      dup2\n        /* \"#utility.yul\":4317:4350   */\n      tag_427\n      jump\t// in\n    tag_461:\n        /* \"#utility.yul\":4369:4376   */\n      swap9\n      pop\n        /* \"#utility.yul\":4428:4430   */\n      0x40\n        /* \"#utility.yul\":4413:4431   */\n      dup12\n      add\n        /* \"#utility.yul\":4400:4432   */\n      calldataload\n        /* \"#utility.yul\":4441:4474   */\n      tag_462\n        /* \"#utility.yul\":4400:4432   */\n      dup2\n        /* \"#utility.yul\":4441:4474   */\n      tag_427\n      jump\t// in\n    tag_462:\n        /* \"#utility.yul\":4493:4500   */\n      swap8\n      pop\n        /* \"#utility.yul\":4552:4554   */\n      0x60\n        /* \"#utility.yul\":4537:4555   */\n      dup12\n      add\n        /* \"#utility.yul\":4524:4556   */\n      calldataload\n        /* \"#utility.yul\":4565:4598   */\n      tag_463\n        /* \"#utility.yul\":4524:4556   */\n      dup2\n        /* \"#utility.yul\":4565:4598   */\n      tag_427\n      jump\t// in\n    tag_463:\n        /* \"#utility.yul\":3857:4942   */\n      swap10\n      swap13\n      swap9\n      swap12\n      pop\n      swap7\n      swap10\n        /* \"#utility.yul\":4671:4674   */\n      0x80\n        /* \"#utility.yul\":4656:4675   */\n      dup2\n      add\n        /* \"#utility.yul\":4643:4676   */\n      calldataload\n      swap9\n        /* \"#utility.yul\":4723:4726   */\n      0xa0\n        /* \"#utility.yul\":4708:4727   */\n      dup3\n      add\n        /* \"#utility.yul\":4695:4728   */\n      calldataload\n      swap9\n      pop\n        /* \"#utility.yul\":4775:4778   */\n      0xc0\n        /* \"#utility.yul\":4760:4779   */\n      dup3\n      add\n        /* \"#utility.yul\":4747:4780   */\n      calldataload\n      swap8\n      pop\n        /* \"#utility.yul\":4827:4830   */\n      0xe0\n        /* \"#utility.yul\":4812:4831   */\n      dup3\n      add\n        /* \"#utility.yul\":4799:4832   */\n      calldataload\n      swap7\n      pop\n        /* \"#utility.yul\":4879:4882   */\n      0x0100\n        /* \"#utility.yul\":4864:4883   */\n      dup3\n      add\n        /* \"#utility.yul\":4851:4884   */\n      calldataload\n      swap6\n      pop\n        /* \"#utility.yul\":4931:4934   */\n      0x0120\n        /* \"#utility.yul\":4916:4935   */\n      swap1\n      swap2\n      add\n        /* \"#utility.yul\":4903:4936   */\n      calldataload\n      swap4\n      pop\n        /* \"#utility.yul\":3857:4942   */\n      swap2\n      pop\n      pop\n      jump\t// out\n        /* \"#utility.yul\":5314:5904   */\n    tag_149:\n        /* \"#utility.yul\":5418:5424   */\n      0x00\n        /* \"#utility.yul\":5426:5432   */\n      dup1\n        /* \"#utility.yul\":5434:5440   */\n      0x00\n        /* \"#utility.yul\":5442:5448   */\n      dup1\n        /* \"#utility.yul\":5450:5456   */\n      0x00\n        /* \"#utility.yul\":5458:5464   */\n      dup1\n        /* \"#utility.yul\":5511:5514   */\n      0xc0\n        /* \"#utility.yul\":5499:5508   */\n      dup8\n        /* \"#utility.yul\":5490:5497   */\n      dup10\n        /* \"#utility.yul\":5486:5509   */\n      sub\n        /* \"#utility.yul\":5482:5515   */\n      slt\n        /* \"#utility.yul\":5479:5532   */\n      iszero\n      tag_468\n      jumpi\n        /* \"#utility.yul\":5528:5529   */\n      0x00\n        /* \"#utility.yul\":5525:5526   */\n      dup1\n        /* \"#utility.yul\":5518:5530   */\n      revert\n        /* \"#utility.yul\":5479:5532   */\n    tag_468:\n        /* \"#utility.yul\":5567:5576   */\n      dup7\n        /* \"#utility.yul\":5554:5577   */\n      calldataload\n        /* \"#utility.yul\":5586:5617   */\n      tag_469\n        /* \"#utility.yul\":5611:5616   */\n      dup2\n        /* \"#utility.yul\":5586:5617   */\n      tag_427\n      jump\t// in\n    tag_469:\n        /* \"#utility.yul\":5636:5641   */\n      swap9\n        /* \"#utility.yul\":5688:5690   */\n      0x20\n        /* \"#utility.yul\":5673:5691   */\n      dup9\n      add\n        /* \"#utility.yul\":5660:5692   */\n      calldataload\n      swap9\n      pop\n        /* \"#utility.yul\":5739:5741   */\n      0x40\n        /* \"#utility.yul\":5724:5742   */\n      dup9\n      add\n        /* \"#utility.yul\":5711:5743   */\n      calldataload\n      swap8\n        /* \"#utility.yul\":5790:5792   */\n      0x60\n        /* \"#utility.yul\":5775:5793   */\n      dup2\n      add\n        /* \"#utility.yul\":5762:5794   */\n      calldataload\n      swap8\n      pop\n        /* \"#utility.yul\":5841:5844   */\n      0x80\n        /* \"#utility.yul\":5826:5845   */\n      dup2\n      add\n        /* \"#utility.yul\":5813:5846   */\n      calldataload\n      swap7\n      pop\n        /* \"#utility.yul\":5893:5896   */\n      0xa0\n        /* \"#utility.yul\":5878:5897   */\n      add\n        /* \"#utility.yul\":5865:5898   */\n      calldataload\n      swap5\n      pop\n        /* \"#utility.yul\":5314:5904   */\n      swap3\n      pop\n      pop\n      pop\n      jump\t// out\n        /* \"#utility.yul\":7129:7538   */\n    tag_185:\n        /* \"#utility.yul\":7331:7333   */\n      0x20\n        /* \"#utility.yul\":7313:7334   */\n      dup1\n      dup3\n      mstore\n        /* \"#utility.yul\":7370:7372   */\n      0x2d\n        /* \"#utility.yul\":7350:7368   */\n      swap1\n      dup3\n      add\n        /* \"#utility.yul\":7343:7373   */\n      mstore\n        /* \"#utility.yul\":7409:7443   */\n      0x4c3246573a2066756e6374696f6e2063616e206f6e6c792062652063616c6c65\n        /* \"#utility.yul\":7404:7406   */\n      0x40\n        /* \"#utility.yul\":7389:7407   */\n      dup3\n      add\n        /* \"#utility.yul\":7382:7444   */\n      mstore\n      shl(0x98, 0x642066726f6d20616e20454f41)\n        /* \"#utility.yul\":7475:7477   */\n      0x60\n        /* \"#utility.yul\":7460:7478   */\n      dup3\n      add\n        /* \"#utility.yul\":7453:7496   */\n      mstore\n        /* \"#utility.yul\":7528:7531   */\n      0x80\n        /* \"#utility.yul\":7513:7532   */\n      add\n      swap1\n        /* \"#utility.yul\":7129:7538   */\n      jump\t// out\n        /* \"#utility.yul\":7543:7892   */\n    tag_189:\n        /* \"#utility.yul\":7745:7747   */\n      0x20\n        /* \"#utility.yul\":7727:7748   */\n      dup1\n      dup3\n      mstore\n        /* \"#utility.yul\":7784:7786   */\n      0x19\n        /* \"#utility.yul\":7764:7782   */\n      swap1\n      dup3\n      add\n        /* \"#utility.yul\":7757:7787   */\n      mstore\n        /* \"#utility.yul\":7823:7850   */\n      0x696e70757420616d6f756e74206e656564206e6f6e5a65726f00000000000000\n        /* \"#utility.yul\":7818:7820   */\n      0x40\n        /* \"#utility.yul\":7803:7821   */\n      dup3\n      add\n        /* \"#utility.yul\":7796:7851   */\n      mstore\n        /* \"#utility.yul\":7883:7885   */\n      0x60\n        /* \"#utility.yul\":7868:7886   */\n      add\n      swap1\n        /* \"#utility.yul\":7543:7892   */\n      jump\t// out\n        /* \"#utility.yul\":7897:8497   */\n    tag_200:\n        /* \"#utility.yul\":8184:8209   */\n      swap6\n      dup7\n      mstore\n        /* \"#utility.yul\":8240:8242   */\n      0x20\n        /* \"#utility.yul\":8225:8243   */\n      dup7\n      add\n        /* \"#utility.yul\":8218:8252   */\n      swap5\n      swap1\n      swap5\n      mstore\n        /* \"#utility.yul\":8283:8285   */\n      0x40\n        /* \"#utility.yul\":8268:8286   */\n      dup6\n      add\n        /* \"#utility.yul\":8261:8295   */\n      swap3\n      swap1\n      swap3\n      mstore\n      sub(shl(0xa0, 0x01), 0x01)\n        /* \"#utility.yul\":8369:8384   */\n      swap1\n      dup2\n      and\n        /* \"#utility.yul\":8364:8366   */\n      0x60\n        /* \"#utility.yul\":8349:8367   */\n      dup6\n      add\n        /* \"#utility.yul\":8342:8385   */\n      mstore\n        /* \"#utility.yul\":8422:8437   */\n      swap1\n      dup2\n      and\n        /* \"#utility.yul\":8416:8419   */\n      0x80\n        /* \"#utility.yul\":8401:8420   */\n      dup5\n      add\n        /* \"#utility.yul\":8394:8438   */\n      mstore\n        /* \"#utility.yul\":8475:8490   */\n      and\n        /* \"#utility.yul\":8322:8325   */\n      0xa0\n        /* \"#utility.yul\":8454:8473   */\n      dup3\n      add\n        /* \"#utility.yul\":8447:8491   */\n      mstore\n        /* \"#utility.yul\":8171:8174   */\n      0xc0\n        /* \"#utility.yul\":8156:8175   */\n      add\n      swap1\n        /* \"#utility.yul\":7897:8497   */\n      jump\t// out\n        /* \"#utility.yul\":9269:10166   */\n    tag_210:\n      sub(shl(0xa0, 0x01), 0x01)\n        /* \"#utility.yul\":9724:9739   */\n      swap11\n      dup12\n      and\n        /* \"#utility.yul\":9706:9740   */\n      dup2\n      mstore\n        /* \"#utility.yul\":9776:9791   */\n      swap9\n      dup11\n      and\n        /* \"#utility.yul\":9771:9773   */\n      0x20\n        /* \"#utility.yul\":9756:9774   */\n      dup11\n      add\n        /* \"#utility.yul\":9749:9792   */\n      mstore\n        /* \"#utility.yul\":9828:9843   */\n      swap7\n      dup10\n      and\n        /* \"#utility.yul\":9823:9825   */\n      0x40\n        /* \"#utility.yul\":9808:9826   */\n      dup10\n      add\n        /* \"#utility.yul\":9801:9844   */\n      mstore\n        /* \"#utility.yul\":9880:9895   */\n      swap5\n      swap1\n      swap8\n      and\n        /* \"#utility.yul\":9875:9877   */\n      0x60\n        /* \"#utility.yul\":9860:9878   */\n      dup8\n      add\n        /* \"#utility.yul\":9853:9896   */\n      mstore\n        /* \"#utility.yul\":9927:9930   */\n      0x80\n        /* \"#utility.yul\":9912:9931   */\n      dup7\n      add\n        /* \"#utility.yul\":9905:9940   */\n      swap3\n      swap1\n      swap3\n      mstore\n        /* \"#utility.yul\":9686:9689   */\n      0xa0\n        /* \"#utility.yul\":9956:9975   */\n      dup6\n      add\n        /* \"#utility.yul\":9949:9984   */\n      mstore\n        /* \"#utility.yul\":10015:10018   */\n      0xc0\n        /* \"#utility.yul\":10000:10019   */\n      dup5\n      add\n        /* \"#utility.yul\":9993:10028   */\n      mstore\n        /* \"#utility.yul\":10059:10062   */\n      0xe0\n        /* \"#utility.yul\":10044:10063   */\n      dup4\n      add\n        /* \"#utility.yul\":10037:10072   */\n      swap4\n      swap1\n      swap4\n      mstore\n        /* \"#utility.yul\":10103:10106   */\n      0x0100\n        /* \"#utility.yul\":10088:10107   */\n      dup3\n      add\n        /* \"#utility.yul\":10081:10116   */\n      swap3\n      swap1\n      swap3\n      mstore\n        /* \"#utility.yul\":10147:10150   */\n      0x0120\n        /* \"#utility.yul\":10132:10151   */\n      dup2\n      add\n        /* \"#utility.yul\":10125:10160   */\n      swap2\n      swap1\n      swap2\n      mstore\n        /* \"#utility.yul\":9655:9658   */\n      0x0140\n        /* \"#utility.yul\":9640:9659   */\n      add\n      swap1\n        /* \"#utility.yul\":9269:10166   */\n      jump\t// out\n        /* \"#utility.yul\":10171:10569   */\n    tag_217:\n        /* \"#utility.yul\":10373:10375   */\n      0x20\n        /* \"#utility.yul\":10355:10376   */\n      dup1\n      dup3\n      mstore\n        /* \"#utility.yul\":10412:10414   */\n      0x22\n        /* \"#utility.yul\":10392:10410   */\n      swap1\n      dup3\n      add\n        /* \"#utility.yul\":10385:10415   */\n      mstore\n        /* \"#utility.yul\":10451:10485   */\n      0x41636365737369626c653a2043616c6c6572206973206e6f7420616e2061646d\n        /* \"#utility.yul\":10446:10448   */\n      0x40\n        /* \"#utility.yul\":10431:10449   */\n      dup3\n      add\n        /* \"#utility.yul\":10424:10486   */\n      mstore\n      shl(0xf1, 0x34b7)\n        /* \"#utility.yul\":10517:10519   */\n      0x60\n        /* \"#utility.yul\":10502:10520   */\n      dup3\n      add\n        /* \"#utility.yul\":10495:10527   */\n      mstore\n        /* \"#utility.yul\":10559:10562   */\n      0x80\n        /* \"#utility.yul\":10544:10563   */\n      add\n      swap1\n        /* \"#utility.yul\":10171:10569   */\n      jump\t// out\n        /* \"#utility.yul\":10574:10825   */\n    tag_243:\n        /* \"#utility.yul\":10644:10650   */\n      0x00\n        /* \"#utility.yul\":10697:10699   */\n      0x20\n        /* \"#utility.yul\":10685:10694   */\n      dup3\n        /* \"#utility.yul\":10676:10683   */\n      dup5\n        /* \"#utility.yul\":10672:10695   */\n      sub\n        /* \"#utility.yul\":10668:10700   */\n      slt\n        /* \"#utility.yul\":10665:10717   */\n      iszero\n      tag_480\n      jumpi\n        /* \"#utility.yul\":10713:10714   */\n      0x00\n        /* \"#utility.yul\":10710:10711   */\n      dup1\n        /* \"#utility.yul\":10703:10715   */\n      revert\n        /* \"#utility.yul\":10665:10717   */\n    tag_480:\n        /* \"#utility.yul\":10745:10754   */\n      dup2\n        /* \"#utility.yul\":10739:10755   */\n      mload\n        /* \"#utility.yul\":10764:10795   */\n      tag_431\n        /* \"#utility.yul\":10789:10794   */\n      dup2\n        /* \"#utility.yul\":10764:10795   */\n      tag_427\n      jump\t// in\n        /* \"#utility.yul\":16620:17032   */\n    tag_398:\n        /* \"#utility.yul\":16749:16752   */\n      0x00\n        /* \"#utility.yul\":16787:16793   */\n      dup3\n        /* \"#utility.yul\":16781:16794   */\n      mload\n        /* \"#utility.yul\":16812:16813   */\n      0x00\n        /* \"#utility.yul\":16822:16951   */\n    tag_498:\n        /* \"#utility.yul\":16836:16842   */\n      dup2\n        /* \"#utility.yul\":16833:16834   */\n      dup2\n        /* \"#utility.yul\":16830:16843   */\n      lt\n        /* \"#utility.yul\":16822:16951   */\n      iszero\n      tag_500\n      jumpi\n        /* \"#utility.yul\":16934:16938   */\n      0x20\n        /* \"#utility.yul\":16918:16932   */\n      dup2\n      dup7\n      add\n        /* \"#utility.yul\":16914:16939   */\n      dup2\n      add\n        /* \"#utility.yul\":16908:16940   */\n      mload\n        /* \"#utility.yul\":16895:16906   */\n      dup6\n      dup4\n      add\n        /* \"#utility.yul\":16888:16941   */\n      mstore\n        /* \"#utility.yul\":16851:16863   */\n      add\n        /* \"#utility.yul\":16822:16951   */\n      jump(tag_498)\n    tag_500:\n      pop\n        /* \"#utility.yul\":17006:17007   */\n      0x00\n        /* \"#utility.yul\":16970:16986   */\n      swap3\n      add\n        /* \"#utility.yul\":16995:17008   */\n      swap2\n      dup3\n      mstore\n      pop\n        /* \"#utility.yul\":16970:16986   */\n      swap2\n        /* \"#utility.yul\":16620:17032   */\n      swap1\n      pop\n      jump\t// out\n        /* \"#utility.yul\":17037:17314   */\n    tag_405:\n        /* \"#utility.yul\":17104:17110   */\n      0x00\n        /* \"#utility.yul\":17157:17159   */\n      0x20\n        /* \"#utility.yul\":17145:17154   */\n      dup3\n        /* \"#utility.yul\":17136:17143   */\n      dup5\n        /* \"#utility.yul\":17132:17155   */\n      sub\n        /* \"#utility.yul\":17128:17160   */\n      slt\n        /* \"#utility.yul\":17125:17177   */\n      iszero\n      tag_502\n      jumpi\n        /* \"#utility.yul\":17173:17174   */\n      0x00\n        /* \"#utility.yul\":17170:17171   */\n      dup1\n        /* \"#utility.yul\":17163:17175   */\n      revert\n        /* \"#utility.yul\":17125:17177   */\n    tag_502:\n        /* \"#utility.yul\":17205:17214   */\n      dup2\n        /* \"#utility.yul\":17199:17215   */\n      mload\n        /* \"#utility.yul\":17258:17263   */\n      dup1\n        /* \"#utility.yul\":17251:17264   */\n      iszero\n        /* \"#utility.yul\":17244:17265   */\n      iszero\n        /* \"#utility.yul\":17237:17242   */\n      dup2\n        /* \"#utility.yul\":17234:17266   */\n      eq\n        /* \"#utility.yul\":17224:17284   */\n      tag_431\n      jumpi\n        /* \"#utility.yul\":17280:17281   */\n      0x00\n        /* \"#utility.yul\":17277:17278   */\n      dup1\n        /* \"#utility.yul\":17270:17282   */\n      revert\n    stop\n    data_a29c3f0504a76c686875ea2f0fc314af702d3407223f14a34325f35a1858bd3b df8b4c520ffe197c5343c6f5aec59570151ef9a492f2c624fd45ddde6135ec42\n\n    auxdata: 0xa2646970667358221220261b732418c75bfb722a2565de30c63dc73532e84290f457603a637731c5778864736f6c63430008180033\n}\n",
				"bytecode": {
					"linkReferences": {},
					"object": "608060405234801561000f575f80fd5b506001600b55611e5d806100225f395ff3fe6080604052600436106101ba575f3560e01c806370480275116100f2578063b911135f11610092578063e59f69c211610062578063e59f69c214610536578063ee976ab414610595578063f43b3613146105a8578063f5869c2f146105c7575f80fd5b8063b911135f146104a5578063c8b8e35e146104d9578063d547741f146104f8578063df2ccdbf14610517575f80fd5b80637f02944f116100cd5780637f02944f1461043f57806391d148541461045e578063a1e89aec1461047d578063a217fddf14610492575f80fd5b806370480275146103e157806375829def1461040057806375b238fc1461041f575f80fd5b80632f2ff15d1161015d578063550d01a311610138578063550d01a31461035d57806363a8fd891461038b5780636c790d54146103a35780636dd897c7146103c2575f80fd5b80632f2ff15d146102eb57806336568abe1461030a57806350d2a27614610329575f80fd5b80631785f53c116101985780631785f53c1461023e578063229852461461025d578063248a9ca31461029e57806324d7806c146102cc575f80fd5b806301ffc9a7146101be5780631037be21146101f257806316e0172414610207575b5f80fd5b3480156101c9575f80fd5b506101dd6101d83660046119ca565b6106a7565b60405190151581526020015b60405180910390f35b610205610200366004611a0c565b6106dd565b005b348015610212575f80fd5b50600654610226906001600160a01b031681565b6040516001600160a01b0390911681526020016101e9565b348015610249575f80fd5b50610205610258366004611a75565b6108d0565b348015610268575f80fd5b506102907ffb5864e8ff833c3cb2d2d08505e82ff02a43554c74a35d4f5a64e8526127831181565b6040519081526020016101e9565b3480156102a9575f80fd5b506102906102b8366004611a90565b5f9081526004602052604090206001015490565b3480156102d7575f80fd5b506101dd6102e6366004611a75565b61090f565b3480156102f6575f80fd5b50610205610305366004611aa7565b610927565b348015610315575f80fd5b50610205610324366004611aa7565b610951565b348015610334575f80fd5b506102266103433660046119ca565b60036020525f90815260409020546001600160a01b031681565b348015610368575f80fd5b506101dd610377366004611a75565b60026020525f908152604090205460ff1681565b348015610396575f80fd5b505f546101dd9060ff1681565b3480156103ae575f80fd5b506102056103bd366004611ad5565b610989565b3480156103cd575f80fd5b506102056103dc366004611b15565b610d02565b3480156103ec575f80fd5b506102056103fb366004611a75565b610dd1565b34801561040b575f80fd5b5061020561041a366004611a75565b610e0d565b34801561042a575f80fd5b506102905f80516020611e0883398151915281565b34801561044a575f80fd5b50610290610459366004611b76565b610f07565b348015610469575f80fd5b506101dd610478366004611aa7565b610f51565b348015610488575f80fd5b5061029060075481565b34801561049d575f80fd5b506102905f81565b3480156104b0575f80fd5b506102266104bf366004611a90565b60016020525f90815260409020546001600160a01b031681565b3480156104e4575f80fd5b506102056104f3366004611c03565b610f7b565b348015610503575f80fd5b50610205610512366004611aa7565b61123d565b348015610522575f80fd5b50610205610531366004611b15565b611261565b348015610541575f80fd5b50610575610550366004611a90565b600a6020525f9081526040902080546001909101546001600160a01b03918216911682565b604080516001600160a01b039384168152929091166020830152016101e9565b6102056105a3366004611a0c565b611331565b3480156105b3575f80fd5b50600554610226906001600160a01b031681565b3480156105d2575f80fd5b506106466105e1366004611a90565b600860208190525f918252604090912080546001820154600283015460038401546004850154600586015460068701546007880154988801546009909801546001600160a01b039788169996881698958816979485169693909416949193909291908a565b604080516001600160a01b039b8c168152998b1660208b0152978a1697890197909752948816606088015296909216608086015260a085015260c084015260e0830193909352610100820192909252610120810191909152610140016101e9565b5f6001600160e01b03198216637965db0b60e01b14806106d757506301ffc9a760e01b6001600160e01b03198316145b92915050565b3332146107055760405162461bcd60e51b81526004016106fc90611c4b565b60405180910390fd5b835f81116107255760405162461bcd60e51b81526004016106fc90611c98565b835f81116107455760405162461bcd60e51b81526004016106fc90611c98565b61074d611416565b60405146905f9061076c908790849088908f908f908f90602001611ccf565b60408051601f1981840301815291815281516020928301205f818152600990935291205490915060ff1615156001146107dc5760405162461bcd60e51b81526020600482015260126024820152713737ba103932b3b4b9ba32b9103a37b5b2b760711b60448201526064016106fc565b868810156108485760405162461bcd60e51b815260206004820152603360248201527f54686520746f74616c416d6f756e742076616c7565206d75737420626520677260448201527219585d195c881d1a185b8818dd105b5bdd5b9d606a1b60648201526084016106fc565b60075f8154600101919050819055505f61086a8c8c8c8c8c6007548d8d611440565b90506007547ff58a3eb43ce8649bc1cfb2014001a2bf5a73ab4e3df0f0f76ce5f2d1b390d3d98d8d8d338e8e8e8b8f8b6040516108b09a99989796959493929190611d06565b60405180910390a25050506108c56001600b55565b505050505050505050565b6108d93361090f565b6108f55760405162461bcd60e51b81526004016106fc90611d5f565b61090c5f80516020611e0883398151915282610951565b50565b5f6106d75f80516020611e0883398151915283610f51565b5f8281526004602052604090206001015461094181611678565b61094b8383611682565b50505050565b6001600160a01b038116331461097a5760405163334bd91960e11b815260040160405180910390fd5b6109848282611713565b505050565b610991611416565b60055483906001600160a01b031633148015610a2e57505f818152600a6020908152604091829020546005548351636e296e4560e01b815293516001600160a01b03928316949190921692636e296e45926004808401938290030181865afa1580156109ff573d5f803e3d5ffd5b505050506040513d601f19601f82011682018060405250810190610a239190611da1565b6001600160a01b0316145b610a755760405162461bcd60e51b81526020600482015260186024820152776f6e6c792063616c6c206c3146617374576974686472617760401b60448201526064016106fc565b5f8581526008602052604090206004015485906001600160a01b031615610acd5760405162461bcd60e51b815260206004820152600c60248201526b185b1c9958591e481cdbdb1960a21b60448201526064016106fc565b5f868152600860205260409020600301546001600160a01b03888116911614610b2a5760405162461bcd60e51b815260206004820152600f60248201526e3cb7bab9103737ba1039b2b63632b960891b60448201526064016106fc565b5f868152600860205260409020600901548314610b845760405162461bcd60e51b8152602060048201526018602482015277090c2e6d040ecc2d8eacae640c8de40dcdee840dac2e8c6d60431b60448201526064016106fc565b5f8681526008602052604090206004810180546001600160a01b0319166001600160a01b038a811691909117909155600582015460065460019093015490928216911603610c66575f886001600160a01b0316826040515f6040518083038185875af1925050503d805f8114610c15576040519150601f19603f3d011682016040523d82523d5f602084013e610c1a565b606091505b5050905080610c605760405162461bcd60e51b815260206004820152601260248201527118d85b98d95b081c99599d5b990819985a5b60721b60448201526064016106fc565b50610c8b565b5f87815260086020526040902060010154610c8b906001600160a01b0316898361177e565b604080516001600160a01b038a1681526020810183905280820188905246606082018190526080820188905260a08201879052915189917fff2934c52f646a47cac1f95449dfda335ed35c7d2296fd4a988a2227fa0378aa919081900360c00190a250505050610cfb6001600b55565b5050505050565b610d0b3361090f565b610d275760405162461bcd60e51b81526004016106fc90611d5f565b5f838383898989604051602001610d4396959493929190611ccf565b60408051601f1981840301815291815281516020928301205f81815260099093529082205490925060ff1615159003610db45760405162461bcd60e51b815260206004820152601360248201527230b63932b0b23c903232b632ba32aa37b5b2b760691b60448201526064016106fc565b5f908152600960205260409020805460ff19169055505050505050565b610dda3361090f565b610df65760405162461bcd60e51b81526004016106fc90611d5f565b61090c5f80516020611e0883398151915282610927565b610e163361090f565b610e325760405162461bcd60e51b81526004016106fc90611d5f565b6001600160a01b038116610e885760405162461bcd60e51b815260206004820152601860248201527f41636365737369626c653a207a65726f2061646472657373000000000000000060448201526064016106fc565b6001600160a01b0381163303610ed95760405162461bcd60e51b815260206004820152601660248201527520b1b1b2b9b9b4b136329d1039b0b6b29030b236b4b760511b60448201526064016106fc565b610ef05f80516020611e0883398151915282610927565b61090c5f80516020611e0883398151915233610951565b5f8a8a8a8a8a8a8a8a8a8a604051602001610f2b9a99989796959493929190611d06565b6040516020818303038152906040528051906020012090509a9950505050505050505050565b5f9182526004602090815260408084206001600160a01b0393909316845291905290205460ff1690565b610f83611416565b60055483906001600160a01b03163314801561102057505f818152600a6020908152604091829020546005548351636e296e4560e01b815293516001600160a01b03928316949190921692636e296e45926004808401938290030181865afa158015610ff1573d5f803e3d5ffd5b505050506040513d601f19601f820116820180604052508101906110159190611da1565b6001600160a01b0316145b6110675760405162461bcd60e51b81526020600482015260186024820152776f6e6c792063616c6c206c3146617374576974686472617760401b60448201526064016106fc565b5f8581526008602052604090206004015485906001600160a01b0316156110bf5760405162461bcd60e51b815260206004820152600c60248201526b185b1c9958591e481cdbdb1960a21b60448201526064016106fc565b5f8681526008602052604090206009015483146111195760405162461bcd60e51b8152602060048201526018602482015277090c2e6d040ecc2d8eacae640c8de40dcdee840dac2e8c6d60431b60448201526064016106fc565b865f81900361113557505f868152600860205260409020600601545b5f8781526008602052604090206004810180546001600160a01b0319166001600160a01b038c8116919091179091556001820154600590920154600654928216929091168203611211575f8b6001600160a01b0316826040515f6040518083038185875af1925050503d805f81146111c8576040519150601f19603f3d011682016040523d82523d5f602084013e6111cd565b606091505b505090508061120b5760405162461bcd60e51b815260206004820152600a60248201526918db185a5b4819985a5b60b21b60448201526064016106fc565b50611225565b6112256001600160a01b0383168c8361177e565b50506001600b5550611235915050565b505050505050565b5f8281526004602052604090206001015461125781611678565b61094b8383611713565b61126a3361090f565b6112865760405162461bcd60e51b81526004016106fc90611d5f565b5f8383838989896040516020016112a296959493929190611ccf565b60408051601f1981840301815291815281516020928301205f818152600990935291205490915060ff16156113115760405162461bcd60e51b815260206004820152601560248201527430b63932b0b23c903932b3b4b9ba32b92a37b5b2b760591b60448201526064016106fc565b5f908152600960205260409020805460ff19166001179055505050505050565b3332146113505760405162461bcd60e51b81526004016106fc90611c4b565b835f81116113705760405162461bcd60e51b81526004016106fc90611c98565b835f81116113905760405162461bcd60e51b81526004016106fc90611c98565b611398611416565b600780546001019081905546905f906113bc908c908c908c908c908c908c8c611440565b90506007547fbdada440ba6a1aee247cdac6cf66343ea063ea610a86100acdee8496b90351e58c8c8c338d8d8d8a8e8b6040516114029a99989796959493929190611d06565b60405180910390a250506108c56001600b55565b6002600b540361143957604051633ee5aeb560e01b815260040160405180910390fd5b6002600b55565b6006545f906001600160a01b03908116908916036114ac578534146114a75760405162461bcd60e51b815260206004820152601960248201527f43543a206e6174697665544f4e206e65656420616d6f756e740000000000000060448201526064016106fc565b6114c1565b6114c16001600160a01b03891633308961187f565b466114d48a8a8a338b8b8b888b8d610f07565b91506040518061014001604052808b6001600160a01b031681526020018a6001600160a01b03168152602001896001600160a01b03168152602001336001600160a01b031681526020015f6001600160a01b031681526020018881526020018781526020018581526020018481526020018381525060085f8781526020019081526020015f205f820151815f015f6101000a8154816001600160a01b0302191690836001600160a01b031602179055506020820151816001015f6101000a8154816001600160a01b0302191690836001600160a01b031602179055506040820151816002015f6101000a8154816001600160a01b0302191690836001600160a01b031602179055506060820151816003015f6101000a8154816001600160a01b0302191690836001600160a01b031602179055506080820151816004015f6101000a8154816001600160a01b0302191690836001600160a01b0316021790555060a0820151816005015560c0820151816006015560e08201518160070155610100820151816008015561012082015181600901559050505098975050505050505050565b61090c813361198d565b5f61168d8383610f51565b61170c575f8381526004602090815260408083206001600160a01b03861684529091529020805460ff191660011790556116c43390565b6001600160a01b0316826001600160a01b0316847f2f8788117e7eff1d82e926ec794901d17c78024a50270940304540a733656f0d60405160405180910390a45060016106d7565b505f6106d7565b5f61171e8383610f51565b1561170c575f8381526004602090815260408083206001600160a01b0386168085529252808320805460ff1916905551339286917ff6391f5c32d9c69d2a47ea670b442974b53935d1edc7fd64eb21e047a839171b9190a45060016106d7565b604080516001600160a01b038481166024830152604480830185905283518084039091018152606490920183526020820180516001600160e01b031663a9059cbb60e01b17905291515f928392908716916117d99190611dbc565b5f604051808303815f865af19150503d805f8114611812576040519150601f19603f3d011682016040523d82523d5f602084013e611817565b606091505b50915091508180156118415750805115806118415750808060200190518101906118419190611de8565b610cfb5760405162461bcd60e51b815260206004820152600f60248201526e1514905394d1915497d19052531151608a1b60448201526064016106fc565b604080516001600160a01b0385811660248301528481166044830152606480830185905283518084039091018152608490920183526020820180516001600160e01b03166323b872dd60e01b17905291515f928392908816916118e29190611dbc565b5f604051808303815f865af19150503d805f811461191b576040519150601f19603f3d011682016040523d82523d5f602084013e611920565b606091505b509150915081801561194a57508051158061194a57508080602001905181019061194a9190611de8565b6112355760405162461bcd60e51b81526020600482015260146024820152731514905394d1915497d19493d357d1905253115160621b60448201526064016106fc565b6119978282610f51565b6119c65760405163e2517d3f60e01b81526001600160a01b0382166004820152602481018390526044016106fc565b5050565b5f602082840312156119da575f80fd5b81356001600160e01b0319811681146119f1575f80fd5b9392505050565b6001600160a01b038116811461090c575f80fd5b5f805f805f805f60e0888a031215611a22575f80fd5b8735611a2d816119f8565b96506020880135611a3d816119f8565b95506040880135611a4d816119f8565b969995985095966060810135965060808101359560a0820135955060c0909101359350915050565b5f60208284031215611a85575f80fd5b81356119f1816119f8565b5f60208284031215611aa0575f80fd5b5035919050565b5f8060408385031215611ab8575f80fd5b823591506020830135611aca816119f8565b809150509250929050565b5f805f805f60a08688031215611ae9575f80fd5b8535611af4816119f8565b97602087013597506040870135966060810135965060800135945092505050565b5f805f805f8060c08789031215611b2a575f80fd5b8635611b35816119f8565b95506020870135611b45816119f8565b94506040870135611b55816119f8565b959894975094956060810135955060808101359460a0909101359350915050565b5f805f805f805f805f806101408b8d031215611b90575f80fd5b8a35611b9b816119f8565b995060208b0135611bab816119f8565b985060408b0135611bbb816119f8565b975060608b0135611bcb816119f8565b999c989b50969960808101359860a0820135985060c0820135975060e082013596506101008201359550610120909101359350915050565b5f805f805f8060c08789031215611c18575f80fd5b8635611c23816119f8565b9860208801359850604088013597606081013597506080810135965060a00135945092505050565b6020808252602d908201527f4c3246573a2066756e6374696f6e2063616e206f6e6c792062652063616c6c6560408201526c642066726f6d20616e20454f4160981b606082015260800190565b60208082526019908201527f696e70757420616d6f756e74206e656564206e6f6e5a65726f00000000000000604082015260600190565b958652602086019490945260408501929092526001600160a01b03908116606085015290811660808401521660a082015260c00190565b6001600160a01b039a8b168152988a1660208a01529689166040890152949097166060870152608086019290925260a085015260c084015260e08301939093526101008201929092526101208101919091526101400190565b60208082526022908201527f41636365737369626c653a2043616c6c6572206973206e6f7420616e2061646d60408201526134b760f11b606082015260800190565b5f60208284031215611db1575f80fd5b81516119f1816119f8565b5f82515f5b81811015611ddb5760208186018101518583015201611dc1565b505f920191825250919050565b5f60208284031215611df8575f80fd5b815180151581146119f1575f80fdfedf8b4c520ffe197c5343c6f5aec59570151ef9a492f2c624fd45ddde6135ec42a2646970667358221220261b732418c75bfb722a2565de30c63dc73532e84290f457603a637731c5778864736f6c63430008180033",
					"opcodes": "PUSH1 0x80 PUSH1 0x40 MSTORE CALLVALUE DUP1 ISZERO PUSH2 0xF JUMPI PUSH0 DUP1 REVERT JUMPDEST POP PUSH1 0x1 PUSH1 0xB SSTORE PUSH2 0x1E5D DUP1 PUSH2 0x22 PUSH0 CODECOPY PUSH0 RETURN INVALID PUSH1 0x80 PUSH1 0x40 MSTORE PUSH1 0x4 CALLDATASIZE LT PUSH2 0x1BA JUMPI PUSH0 CALLDATALOAD PUSH1 0xE0 SHR DUP1 PUSH4 0x70480275 GT PUSH2 0xF2 JUMPI DUP1 PUSH4 0xB911135F GT PUSH2 0x92 JUMPI DUP1 PUSH4 0xE59F69C2 GT PUSH2 0x62 JUMPI DUP1 PUSH4 0xE59F69C2 EQ PUSH2 0x536 JUMPI DUP1 PUSH4 0xEE976AB4 EQ PUSH2 0x595 JUMPI DUP1 PUSH4 0xF43B3613 EQ PUSH2 0x5A8 JUMPI DUP1 PUSH4 0xF5869C2F EQ PUSH2 0x5C7 JUMPI PUSH0 DUP1 REVERT JUMPDEST DUP1 PUSH4 0xB911135F EQ PUSH2 0x4A5 JUMPI DUP1 PUSH4 0xC8B8E35E EQ PUSH2 0x4D9 JUMPI DUP1 PUSH4 0xD547741F EQ PUSH2 0x4F8 JUMPI DUP1 PUSH4 0xDF2CCDBF EQ PUSH2 0x517 JUMPI PUSH0 DUP1 REVERT JUMPDEST DUP1 PUSH4 0x7F02944F GT PUSH2 0xCD JUMPI DUP1 PUSH4 0x7F02944F EQ PUSH2 0x43F JUMPI DUP1 PUSH4 0x91D14854 EQ PUSH2 0x45E JUMPI DUP1 PUSH4 0xA1E89AEC EQ PUSH2 0x47D JUMPI DUP1 PUSH4 0xA217FDDF EQ PUSH2 0x492 JUMPI PUSH0 DUP1 REVERT JUMPDEST DUP1 PUSH4 0x70480275 EQ PUSH2 0x3E1 JUMPI DUP1 PUSH4 0x75829DEF EQ PUSH2 0x400 JUMPI DUP1 PUSH4 0x75B238FC EQ PUSH2 0x41F JUMPI PUSH0 DUP1 REVERT JUMPDEST DUP1 PUSH4 0x2F2FF15D GT PUSH2 0x15D JUMPI DUP1 PUSH4 0x550D01A3 GT PUSH2 0x138 JUMPI DUP1 PUSH4 0x550D01A3 EQ PUSH2 0x35D JUMPI DUP1 PUSH4 0x63A8FD89 EQ PUSH2 0x38B JUMPI DUP1 PUSH4 0x6C790D54 EQ PUSH2 0x3A3 JUMPI DUP1 PUSH4 0x6DD897C7 EQ PUSH2 0x3C2 JUMPI PUSH0 DUP1 REVERT JUMPDEST DUP1 PUSH4 0x2F2FF15D EQ PUSH2 0x2EB JUMPI DUP1 PUSH4 0x36568ABE EQ PUSH2 0x30A JUMPI DUP1 PUSH4 0x50D2A276 EQ PUSH2 0x329 JUMPI PUSH0 DUP1 REVERT JUMPDEST DUP1 PUSH4 0x1785F53C GT PUSH2 0x198 JUMPI DUP1 PUSH4 0x1785F53C EQ PUSH2 0x23E JUMPI DUP1 PUSH4 0x22985246 EQ PUSH2 0x25D JUMPI DUP1 PUSH4 0x248A9CA3 EQ PUSH2 0x29E JUMPI DUP1 PUSH4 0x24D7806C EQ PUSH2 0x2CC JUMPI PUSH0 DUP1 REVERT JUMPDEST DUP1 PUSH4 0x1FFC9A7 EQ PUSH2 0x1BE JUMPI DUP1 PUSH4 0x1037BE21 EQ PUSH2 0x1F2 JUMPI DUP1 PUSH4 0x16E01724 EQ PUSH2 0x207 JUMPI JUMPDEST PUSH0 DUP1 REVERT JUMPDEST CALLVALUE DUP1 ISZERO PUSH2 0x1C9 JUMPI PUSH0 DUP1 REVERT JUMPDEST POP PUSH2 0x1DD PUSH2 0x1D8 CALLDATASIZE PUSH1 0x4 PUSH2 0x19CA JUMP JUMPDEST PUSH2 0x6A7 JUMP JUMPDEST PUSH1 0x40 MLOAD SWAP1 ISZERO ISZERO DUP2 MSTORE PUSH1 0x20 ADD JUMPDEST PUSH1 0x40 MLOAD DUP1 SWAP2 SUB SWAP1 RETURN JUMPDEST PUSH2 0x205 PUSH2 0x200 CALLDATASIZE PUSH1 0x4 PUSH2 0x1A0C JUMP JUMPDEST PUSH2 0x6DD JUMP JUMPDEST STOP JUMPDEST CALLVALUE DUP1 ISZERO PUSH2 0x212 JUMPI PUSH0 DUP1 REVERT JUMPDEST POP PUSH1 0x6 SLOAD PUSH2 0x226 SWAP1 PUSH1 0x1 PUSH1 0x1 PUSH1 0xA0 SHL SUB AND DUP2 JUMP JUMPDEST PUSH1 0x40 MLOAD PUSH1 0x1 PUSH1 0x1 PUSH1 0xA0 SHL SUB SWAP1 SWAP2 AND DUP2 MSTORE PUSH1 0x20 ADD PUSH2 0x1E9 JUMP JUMPDEST CALLVALUE DUP1 ISZERO PUSH2 0x249 JUMPI PUSH0 DUP1 REVERT JUMPDEST POP PUSH2 0x205 PUSH2 0x258 CALLDATASIZE PUSH1 0x4 PUSH2 0x1A75 JUMP JUMPDEST PUSH2 0x8D0 JUMP JUMPDEST CALLVALUE DUP1 ISZERO PUSH2 0x268 JUMPI PUSH0 DUP1 REVERT JUMPDEST POP PUSH2 0x290 PUSH32 0xFB5864E8FF833C3CB2D2D08505E82FF02A43554C74A35D4F5A64E85261278311 DUP2 JUMP JUMPDEST PUSH1 0x40 MLOAD SWAP1 DUP2 MSTORE PUSH1 0x20 ADD PUSH2 0x1E9 JUMP JUMPDEST CALLVALUE DUP1 ISZERO PUSH2 0x2A9 JUMPI PUSH0 DUP1 REVERT JUMPDEST POP PUSH2 0x290 PUSH2 0x2B8 CALLDATASIZE PUSH1 0x4 PUSH2 0x1A90 JUMP JUMPDEST PUSH0 SWAP1 DUP2 MSTORE PUSH1 0x4 PUSH1 0x20 MSTORE PUSH1 0x40 SWAP1 KECCAK256 PUSH1 0x1 ADD SLOAD SWAP1 JUMP JUMPDEST CALLVALUE DUP1 ISZERO PUSH2 0x2D7 JUMPI PUSH0 DUP1 REVERT JUMPDEST POP PUSH2 0x1DD PUSH2 0x2E6 CALLDATASIZE PUSH1 0x4 PUSH2 0x1A75 JUMP JUMPDEST PUSH2 0x90F JUMP JUMPDEST CALLVALUE DUP1 ISZERO PUSH2 0x2F6 JUMPI PUSH0 DUP1 REVERT JUMPDEST POP PUSH2 0x205 PUSH2 0x305 CALLDATASIZE PUSH1 0x4 PUSH2 0x1AA7 JUMP JUMPDEST PUSH2 0x927 JUMP JUMPDEST CALLVALUE DUP1 ISZERO PUSH2 0x315 JUMPI PUSH0 DUP1 REVERT JUMPDEST POP PUSH2 0x205 PUSH2 0x324 CALLDATASIZE PUSH1 0x4 PUSH2 0x1AA7 JUMP JUMPDEST PUSH2 0x951 JUMP JUMPDEST CALLVALUE DUP1 ISZERO PUSH2 0x334 JUMPI PUSH0 DUP1 REVERT JUMPDEST POP PUSH2 0x226 PUSH2 0x343 CALLDATASIZE PUSH1 0x4 PUSH2 0x19CA JUMP JUMPDEST PUSH1 0x3 PUSH1 0x20 MSTORE PUSH0 SWAP1 DUP2 MSTORE PUSH1 0x40 SWAP1 KECCAK256 SLOAD PUSH1 0x1 PUSH1 0x1 PUSH1 0xA0 SHL SUB AND DUP2 JUMP JUMPDEST CALLVALUE DUP1 ISZERO PUSH2 0x368 JUMPI PUSH0 DUP1 REVERT JUMPDEST POP PUSH2 0x1DD PUSH2 0x377 CALLDATASIZE PUSH1 0x4 PUSH2 0x1A75 JUMP JUMPDEST PUSH1 0x2 PUSH1 0x20 MSTORE PUSH0 SWAP1 DUP2 MSTORE PUSH1 0x40 SWAP1 KECCAK256 SLOAD PUSH1 0xFF AND DUP2 JUMP JUMPDEST CALLVALUE DUP1 ISZERO PUSH2 0x396 JUMPI PUSH0 DUP1 REVERT JUMPDEST POP PUSH0 SLOAD PUSH2 0x1DD SWAP1 PUSH1 0xFF AND DUP2 JUMP JUMPDEST CALLVALUE DUP1 ISZERO PUSH2 0x3AE JUMPI PUSH0 DUP1 REVERT JUMPDEST POP PUSH2 0x205 PUSH2 0x3BD CALLDATASIZE PUSH1 0x4 PUSH2 0x1AD5 JUMP JUMPDEST PUSH2 0x989 JUMP JUMPDEST CALLVALUE DUP1 ISZERO PUSH2 0x3CD JUMPI PUSH0 DUP1 REVERT JUMPDEST POP PUSH2 0x205 PUSH2 0x3DC CALLDATASIZE PUSH1 0x4 PUSH2 0x1B15 JUMP JUMPDEST PUSH2 0xD02 JUMP JUMPDEST CALLVALUE DUP1 ISZERO PUSH2 0x3EC JUMPI PUSH0 DUP1 REVERT JUMPDEST POP PUSH2 0x205 PUSH2 0x3FB CALLDATASIZE PUSH1 0x4 PUSH2 0x1A75 JUMP JUMPDEST PUSH2 0xDD1 JUMP JUMPDEST CALLVALUE DUP1 ISZERO PUSH2 0x40B JUMPI PUSH0 DUP1 REVERT JUMPDEST POP PUSH2 0x205 PUSH2 0x41A CALLDATASIZE PUSH1 0x4 PUSH2 0x1A75 JUMP JUMPDEST PUSH2 0xE0D JUMP JUMPDEST CALLVALUE DUP1 ISZERO PUSH2 0x42A JUMPI PUSH0 DUP1 REVERT JUMPDEST POP PUSH2 0x290 PUSH0 DUP1 MLOAD PUSH1 0x20 PUSH2 0x1E08 DUP4 CODECOPY DUP2 MLOAD SWAP2 MSTORE DUP2 JUMP JUMPDEST CALLVALUE DUP1 ISZERO PUSH2 0x44A JUMPI PUSH0 DUP1 REVERT JUMPDEST POP PUSH2 0x290 PUSH2 0x459 CALLDATASIZE PUSH1 0x4 PUSH2 0x1B76 JUMP JUMPDEST PUSH2 0xF07 JUMP JUMPDEST CALLVALUE DUP1 ISZERO PUSH2 0x469 JUMPI PUSH0 DUP1 REVERT JUMPDEST POP PUSH2 0x1DD PUSH2 0x478 CALLDATASIZE PUSH1 0x4 PUSH2 0x1AA7 JUMP JUMPDEST PUSH2 0xF51 JUMP JUMPDEST CALLVALUE DUP1 ISZERO PUSH2 0x488 JUMPI PUSH0 DUP1 REVERT JUMPDEST POP PUSH2 0x290 PUSH1 0x7 SLOAD DUP2 JUMP JUMPDEST CALLVALUE DUP1 ISZERO PUSH2 0x49D JUMPI PUSH0 DUP1 REVERT JUMPDEST POP PUSH2 0x290 PUSH0 DUP2 JUMP JUMPDEST CALLVALUE DUP1 ISZERO PUSH2 0x4B0 JUMPI PUSH0 DUP1 REVERT JUMPDEST POP PUSH2 0x226 PUSH2 0x4BF CALLDATASIZE PUSH1 0x4 PUSH2 0x1A90 JUMP JUMPDEST PUSH1 0x1 PUSH1 0x20 MSTORE PUSH0 SWAP1 DUP2 MSTORE PUSH1 0x40 SWAP1 KECCAK256 SLOAD PUSH1 0x1 PUSH1 0x1 PUSH1 0xA0 SHL SUB AND DUP2 JUMP JUMPDEST CALLVALUE DUP1 ISZERO PUSH2 0x4E4 JUMPI PUSH0 DUP1 REVERT JUMPDEST POP PUSH2 0x205 PUSH2 0x4F3 CALLDATASIZE PUSH1 0x4 PUSH2 0x1C03 JUMP JUMPDEST PUSH2 0xF7B JUMP JUMPDEST CALLVALUE DUP1 ISZERO PUSH2 0x503 JUMPI PUSH0 DUP1 REVERT JUMPDEST POP PUSH2 0x205 PUSH2 0x512 CALLDATASIZE PUSH1 0x4 PUSH2 0x1AA7 JUMP JUMPDEST PUSH2 0x123D JUMP JUMPDEST CALLVALUE DUP1 ISZERO PUSH2 0x522 JUMPI PUSH0 DUP1 REVERT JUMPDEST POP PUSH2 0x205 PUSH2 0x531 CALLDATASIZE PUSH1 0x4 PUSH2 0x1B15 JUMP JUMPDEST PUSH2 0x1261 JUMP JUMPDEST CALLVALUE DUP1 ISZERO PUSH2 0x541 JUMPI PUSH0 DUP1 REVERT JUMPDEST POP PUSH2 0x575 PUSH2 0x550 CALLDATASIZE PUSH1 0x4 PUSH2 0x1A90 JUMP JUMPDEST PUSH1 0xA PUSH1 0x20 MSTORE PUSH0 SWAP1 DUP2 MSTORE PUSH1 0x40 SWAP1 KECCAK256 DUP1 SLOAD PUSH1 0x1 SWAP1 SWAP2 ADD SLOAD PUSH1 0x1 PUSH1 0x1 PUSH1 0xA0 SHL SUB SWAP2 DUP3 AND SWAP2 AND DUP3 JUMP JUMPDEST PUSH1 0x40 DUP1 MLOAD PUSH1 0x1 PUSH1 0x1 PUSH1 0xA0 SHL SUB SWAP4 DUP5 AND DUP2 MSTORE SWAP3 SWAP1 SWAP2 AND PUSH1 0x20 DUP4 ADD MSTORE ADD PUSH2 0x1E9 JUMP JUMPDEST PUSH2 0x205 PUSH2 0x5A3 CALLDATASIZE PUSH1 0x4 PUSH2 0x1A0C JUMP JUMPDEST PUSH2 0x1331 JUMP JUMPDEST CALLVALUE DUP1 ISZERO PUSH2 0x5B3 JUMPI PUSH0 DUP1 REVERT JUMPDEST POP PUSH1 0x5 SLOAD PUSH2 0x226 SWAP1 PUSH1 0x1 PUSH1 0x1 PUSH1 0xA0 SHL SUB AND DUP2 JUMP JUMPDEST CALLVALUE DUP1 ISZERO PUSH2 0x5D2 JUMPI PUSH0 DUP1 REVERT JUMPDEST POP PUSH2 0x646 PUSH2 0x5E1 CALLDATASIZE PUSH1 0x4 PUSH2 0x1A90 JUMP JUMPDEST PUSH1 0x8 PUSH1 0x20 DUP2 SWAP1 MSTORE PUSH0 SWAP2 DUP3 MSTORE PUSH1 0x40 SWAP1 SWAP2 KECCAK256 DUP1 SLOAD PUSH1 0x1 DUP3 ADD SLOAD PUSH1 0x2 DUP4 ADD SLOAD PUSH1 0x3 DUP5 ADD SLOAD PUSH1 0x4 DUP6 ADD SLOAD PUSH1 0x5 DUP7 ADD SLOAD PUSH1 0x6 DUP8 ADD SLOAD PUSH1 0x7 DUP9 ADD SLOAD SWAP9 DUP9 ADD SLOAD PUSH1 0x9 SWAP1 SWAP9 ADD SLOAD PUSH1 0x1 PUSH1 0x1 PUSH1 0xA0 SHL SUB SWAP8 DUP9 AND SWAP10 SWAP7 DUP9 AND SWAP9 SWAP6 DUP9 AND SWAP8 SWAP5 DUP6 AND SWAP7 SWAP4 SWAP1 SWAP5 AND SWAP5 SWAP2 SWAP4 SWAP1 SWAP3 SWAP2 SWAP1 DUP11 JUMP JUMPDEST PUSH1 0x40 DUP1 MLOAD PUSH1 0x1 PUSH1 0x1 PUSH1 0xA0 SHL SUB SWAP12 DUP13 AND DUP2 MSTORE SWAP10 DUP12 AND PUSH1 0x20 DUP12 ADD MSTORE SWAP8 DUP11 AND SWAP8 DUP10 ADD SWAP8 SWAP1 SWAP8 MSTORE SWAP5 DUP9 AND PUSH1 0x60 DUP9 ADD MSTORE SWAP7 SWAP1 SWAP3 AND PUSH1 0x80 DUP7 ADD MSTORE PUSH1 0xA0 DUP6 ADD MSTORE PUSH1 0xC0 DUP5 ADD MSTORE PUSH1 0xE0 DUP4 ADD SWAP4 SWAP1 SWAP4 MSTORE PUSH2 0x100 DUP3 ADD SWAP3 SWAP1 SWAP3 MSTORE PUSH2 0x120 DUP2 ADD SWAP2 SWAP1 SWAP2 MSTORE PUSH2 0x140 ADD PUSH2 0x1E9 JUMP JUMPDEST PUSH0 PUSH1 0x1 PUSH1 0x1 PUSH1 0xE0 SHL SUB NOT DUP3 AND PUSH4 0x7965DB0B PUSH1 0xE0 SHL EQ DUP1 PUSH2 0x6D7 JUMPI POP PUSH4 0x1FFC9A7 PUSH1 0xE0 SHL PUSH1 0x1 PUSH1 0x1 PUSH1 0xE0 SHL SUB NOT DUP4 AND EQ JUMPDEST SWAP3 SWAP2 POP POP JUMP JUMPDEST CALLER ORIGIN EQ PUSH2 0x705 JUMPI PUSH1 0x40 MLOAD PUSH3 0x461BCD PUSH1 0xE5 SHL DUP2 MSTORE PUSH1 0x4 ADD PUSH2 0x6FC SWAP1 PUSH2 0x1C4B JUMP JUMPDEST PUSH1 0x40 MLOAD DUP1 SWAP2 SUB SWAP1 REVERT JUMPDEST DUP4 PUSH0 DUP2 GT PUSH2 0x725 JUMPI PUSH1 0x40 MLOAD PUSH3 0x461BCD PUSH1 0xE5 SHL DUP2 MSTORE PUSH1 0x4 ADD PUSH2 0x6FC SWAP1 PUSH2 0x1C98 JUMP JUMPDEST DUP4 PUSH0 DUP2 GT PUSH2 0x745 JUMPI PUSH1 0x40 MLOAD PUSH3 0x461BCD PUSH1 0xE5 SHL DUP2 MSTORE PUSH1 0x4 ADD PUSH2 0x6FC SWAP1 PUSH2 0x1C98 JUMP JUMPDEST PUSH2 0x74D PUSH2 0x1416 JUMP JUMPDEST PUSH1 0x40 MLOAD CHAINID SWAP1 PUSH0 SWAP1 PUSH2 0x76C SWAP1 DUP8 SWAP1 DUP5 SWAP1 DUP9 SWAP1 DUP16 SWAP1 DUP16 SWAP1 DUP16 SWAP1 PUSH1 0x20 ADD PUSH2 0x1CCF JUMP JUMPDEST PUSH1 0x40 DUP1 MLOAD PUSH1 0x1F NOT DUP2 DUP5 SUB ADD DUP2 MSTORE SWAP2 DUP2 MSTORE DUP2 MLOAD PUSH1 0x20 SWAP3 DUP4 ADD KECCAK256 PUSH0 DUP2 DUP2 MSTORE PUSH1 0x9 SWAP1 SWAP4 MSTORE SWAP2 KECCAK256 SLOAD SWAP1 SWAP2 POP PUSH1 0xFF AND ISZERO ISZERO PUSH1 0x1 EQ PUSH2 0x7DC JUMPI PUSH1 0x40 MLOAD PUSH3 0x461BCD PUSH1 0xE5 SHL DUP2 MSTORE PUSH1 0x20 PUSH1 0x4 DUP3 ADD MSTORE PUSH1 0x12 PUSH1 0x24 DUP3 ADD MSTORE PUSH18 0x3737BA103932B3B4B9BA32B9103A37B5B2B7 PUSH1 0x71 SHL PUSH1 0x44 DUP3 ADD MSTORE PUSH1 0x64 ADD PUSH2 0x6FC JUMP JUMPDEST DUP7 DUP9 LT ISZERO PUSH2 0x848 JUMPI PUSH1 0x40 MLOAD PUSH3 0x461BCD PUSH1 0xE5 SHL DUP2 MSTORE PUSH1 0x20 PUSH1 0x4 DUP3 ADD MSTORE PUSH1 0x33 PUSH1 0x24 DUP3 ADD MSTORE PUSH32 0x54686520746F74616C416D6F756E742076616C7565206D757374206265206772 PUSH1 0x44 DUP3 ADD MSTORE PUSH19 0x19585D195C881D1A185B8818DD105B5BDD5B9D PUSH1 0x6A SHL PUSH1 0x64 DUP3 ADD MSTORE PUSH1 0x84 ADD PUSH2 0x6FC JUMP JUMPDEST PUSH1 0x7 PUSH0 DUP2 SLOAD PUSH1 0x1 ADD SWAP2 SWAP1 POP DUP2 SWAP1 SSTORE POP PUSH0 PUSH2 0x86A DUP13 DUP13 DUP13 DUP13 DUP13 PUSH1 0x7 SLOAD DUP14 DUP14 PUSH2 0x1440 JUMP JUMPDEST SWAP1 POP PUSH1 0x7 SLOAD PUSH32 0xF58A3EB43CE8649BC1CFB2014001A2BF5A73AB4E3DF0F0F76CE5F2D1B390D3D9 DUP14 DUP14 DUP14 CALLER DUP15 DUP15 DUP15 DUP12 DUP16 DUP12 PUSH1 0x40 MLOAD PUSH2 0x8B0 SWAP11 SWAP10 SWAP9 SWAP8 SWAP7 SWAP6 SWAP5 SWAP4 SWAP3 SWAP2 SWAP1 PUSH2 0x1D06 JUMP JUMPDEST PUSH1 0x40 MLOAD DUP1 SWAP2 SUB SWAP1 LOG2 POP POP POP PUSH2 0x8C5 PUSH1 0x1 PUSH1 0xB SSTORE JUMP JUMPDEST POP POP POP POP POP POP POP POP POP JUMP JUMPDEST PUSH2 0x8D9 CALLER PUSH2 0x90F JUMP JUMPDEST PUSH2 0x8F5 JUMPI PUSH1 0x40 MLOAD PUSH3 0x461BCD PUSH1 0xE5 SHL DUP2 MSTORE PUSH1 0x4 ADD PUSH2 0x6FC SWAP1 PUSH2 0x1D5F JUMP JUMPDEST PUSH2 0x90C PUSH0 DUP1 MLOAD PUSH1 0x20 PUSH2 0x1E08 DUP4 CODECOPY DUP2 MLOAD SWAP2 MSTORE DUP3 PUSH2 0x951 JUMP JUMPDEST POP JUMP JUMPDEST PUSH0 PUSH2 0x6D7 PUSH0 DUP1 MLOAD PUSH1 0x20 PUSH2 0x1E08 DUP4 CODECOPY DUP2 MLOAD SWAP2 MSTORE DUP4 PUSH2 0xF51 JUMP JUMPDEST PUSH0 DUP3 DUP2 MSTORE PUSH1 0x4 PUSH1 0x20 MSTORE PUSH1 0x40 SWAP1 KECCAK256 PUSH1 0x1 ADD SLOAD PUSH2 0x941 DUP2 PUSH2 0x1678 JUMP JUMPDEST PUSH2 0x94B DUP4 DUP4 PUSH2 0x1682 JUMP JUMPDEST POP POP POP POP JUMP JUMPDEST PUSH1 0x1 PUSH1 0x1 PUSH1 0xA0 SHL SUB DUP2 AND CALLER EQ PUSH2 0x97A JUMPI PUSH1 0x40 MLOAD PUSH4 0x334BD919 PUSH1 0xE1 SHL DUP2 MSTORE PUSH1 0x4 ADD PUSH1 0x40 MLOAD DUP1 SWAP2 SUB SWAP1 REVERT JUMPDEST PUSH2 0x984 DUP3 DUP3 PUSH2 0x1713 JUMP JUMPDEST POP POP POP JUMP JUMPDEST PUSH2 0x991 PUSH2 0x1416 JUMP JUMPDEST PUSH1 0x5 SLOAD DUP4 SWAP1 PUSH1 0x1 PUSH1 0x1 PUSH1 0xA0 SHL SUB AND CALLER EQ DUP1 ISZERO PUSH2 0xA2E JUMPI POP PUSH0 DUP2 DUP2 MSTORE PUSH1 0xA PUSH1 0x20 SWAP1 DUP2 MSTORE PUSH1 0x40 SWAP2 DUP3 SWAP1 KECCAK256 SLOAD PUSH1 0x5 SLOAD DUP4 MLOAD PUSH4 0x6E296E45 PUSH1 0xE0 SHL DUP2 MSTORE SWAP4 MLOAD PUSH1 0x1 PUSH1 0x1 PUSH1 0xA0 SHL SUB SWAP3 DUP4 AND SWAP5 SWAP2 SWAP1 SWAP3 AND SWAP3 PUSH4 0x6E296E45 SWAP3 PUSH1 0x4 DUP1 DUP5 ADD SWAP4 DUP3 SWAP1 SUB ADD DUP2 DUP7 GAS STATICCALL ISZERO DUP1 ISZERO PUSH2 0x9FF JUMPI RETURNDATASIZE PUSH0 DUP1 RETURNDATACOPY RETURNDATASIZE PUSH0 REVERT JUMPDEST POP POP POP POP PUSH1 0x40 MLOAD RETURNDATASIZE PUSH1 0x1F NOT PUSH1 0x1F DUP3 ADD AND DUP3 ADD DUP1 PUSH1 0x40 MSTORE POP DUP2 ADD SWAP1 PUSH2 0xA23 SWAP2 SWAP1 PUSH2 0x1DA1 JUMP JUMPDEST PUSH1 0x1 PUSH1 0x1 PUSH1 0xA0 SHL SUB AND EQ JUMPDEST PUSH2 0xA75 JUMPI PUSH1 0x40 MLOAD PUSH3 0x461BCD PUSH1 0xE5 SHL DUP2 MSTORE PUSH1 0x20 PUSH1 0x4 DUP3 ADD MSTORE PUSH1 0x18 PUSH1 0x24 DUP3 ADD MSTORE PUSH24 0x6F6E6C792063616C6C206C31466173745769746864726177 PUSH1 0x40 SHL PUSH1 0x44 DUP3 ADD MSTORE PUSH1 0x64 ADD PUSH2 0x6FC JUMP JUMPDEST PUSH0 DUP6 DUP2 MSTORE PUSH1 0x8 PUSH1 0x20 MSTORE PUSH1 0x40 SWAP1 KECCAK256 PUSH1 0x4 ADD SLOAD DUP6 SWAP1 PUSH1 0x1 PUSH1 0x1 PUSH1 0xA0 SHL SUB AND ISZERO PUSH2 0xACD JUMPI PUSH1 0x40 MLOAD PUSH3 0x461BCD PUSH1 0xE5 SHL DUP2 MSTORE PUSH1 0x20 PUSH1 0x4 DUP3 ADD MSTORE PUSH1 0xC PUSH1 0x24 DUP3 ADD MSTORE PUSH12 0x185B1C9958591E481CDBDB19 PUSH1 0xA2 SHL PUSH1 0x44 DUP3 ADD MSTORE PUSH1 0x64 ADD PUSH2 0x6FC JUMP JUMPDEST PUSH0 DUP7 DUP2 MSTORE PUSH1 0x8 PUSH1 0x20 MSTORE PUSH1 0x40 SWAP1 KECCAK256 PUSH1 0x3 ADD SLOAD PUSH1 0x1 PUSH1 0x1 PUSH1 0xA0 SHL SUB DUP9 DUP2 AND SWAP2 AND EQ PUSH2 0xB2A JUMPI PUSH1 0x40 MLOAD PUSH3 0x461BCD PUSH1 0xE5 SHL DUP2 MSTORE PUSH1 0x20 PUSH1 0x4 DUP3 ADD MSTORE PUSH1 0xF PUSH1 0x24 DUP3 ADD MSTORE PUSH15 0x3CB7BAB9103737BA1039B2B63632B9 PUSH1 0x89 SHL PUSH1 0x44 DUP3 ADD MSTORE PUSH1 0x64 ADD PUSH2 0x6FC JUMP JUMPDEST PUSH0 DUP7 DUP2 MSTORE PUSH1 0x8 PUSH1 0x20 MSTORE PUSH1 0x40 SWAP1 KECCAK256 PUSH1 0x9 ADD SLOAD DUP4 EQ PUSH2 0xB84 JUMPI PUSH1 0x40 MLOAD PUSH3 0x461BCD PUSH1 0xE5 SHL DUP2 MSTORE PUSH1 0x20 PUSH1 0x4 DUP3 ADD MSTORE PUSH1 0x18 PUSH1 0x24 DUP3 ADD MSTORE PUSH24 0x90C2E6D040ECC2D8EACAE640C8DE40DCDEE840DAC2E8C6D PUSH1 0x43 SHL PUSH1 0x44 DUP3 ADD MSTORE PUSH1 0x64 ADD PUSH2 0x6FC JUMP JUMPDEST PUSH0 DUP7 DUP2 MSTORE PUSH1 0x8 PUSH1 0x20 MSTORE PUSH1 0x40 SWAP1 KECCAK256 PUSH1 0x4 DUP2 ADD DUP1 SLOAD PUSH1 0x1 PUSH1 0x1 PUSH1 0xA0 SHL SUB NOT AND PUSH1 0x1 PUSH1 0x1 PUSH1 0xA0 SHL SUB DUP11 DUP2 AND SWAP2 SWAP1 SWAP2 OR SWAP1 SWAP2 SSTORE PUSH1 0x5 DUP3 ADD SLOAD PUSH1 0x6 SLOAD PUSH1 0x1 SWAP1 SWAP4 ADD SLOAD SWAP1 SWAP3 DUP3 AND SWAP2 AND SUB PUSH2 0xC66 JUMPI PUSH0 DUP9 PUSH1 0x1 PUSH1 0x1 PUSH1 0xA0 SHL SUB AND DUP3 PUSH1 0x40 MLOAD PUSH0 PUSH1 0x40 MLOAD DUP1 DUP4 SUB DUP2 DUP6 DUP8 GAS CALL SWAP3 POP POP POP RETURNDATASIZE DUP1 PUSH0 DUP2 EQ PUSH2 0xC15 JUMPI PUSH1 0x40 MLOAD SWAP2 POP PUSH1 0x1F NOT PUSH1 0x3F RETURNDATASIZE ADD AND DUP3 ADD PUSH1 0x40 MSTORE RETURNDATASIZE DUP3 MSTORE RETURNDATASIZE PUSH0 PUSH1 0x20 DUP5 ADD RETURNDATACOPY PUSH2 0xC1A JUMP JUMPDEST PUSH1 0x60 SWAP2 POP JUMPDEST POP POP SWAP1 POP DUP1 PUSH2 0xC60 JUMPI PUSH1 0x40 MLOAD PUSH3 0x461BCD PUSH1 0xE5 SHL DUP2 MSTORE PUSH1 0x20 PUSH1 0x4 DUP3 ADD MSTORE PUSH1 0x12 PUSH1 0x24 DUP3 ADD MSTORE PUSH18 0x18D85B98D95B081C99599D5B990819985A5B PUSH1 0x72 SHL PUSH1 0x44 DUP3 ADD MSTORE PUSH1 0x64 ADD PUSH2 0x6FC JUMP JUMPDEST POP PUSH2 0xC8B JUMP JUMPDEST PUSH0 DUP8 DUP2 MSTORE PUSH1 0x8 PUSH1 0x20 MSTORE PUSH1 0x40 SWAP1 KECCAK256 PUSH1 0x1 ADD SLOAD PUSH2 0xC8B SWAP1 PUSH1 0x1 PUSH1 0x1 PUSH1 0xA0 SHL SUB AND DUP10 DUP4 PUSH2 0x177E JUMP JUMPDEST PUSH1 0x40 DUP1 MLOAD PUSH1 0x1 PUSH1 0x1 PUSH1 0xA0 SHL SUB DUP11 AND DUP2 MSTORE PUSH1 0x20 DUP2 ADD DUP4 SWAP1 MSTORE DUP1 DUP3 ADD DUP9 SWAP1 MSTORE CHAINID PUSH1 0x60 DUP3 ADD DUP2 SWAP1 MSTORE PUSH1 0x80 DUP3 ADD DUP9 SWAP1 MSTORE PUSH1 0xA0 DUP3 ADD DUP8 SWAP1 MSTORE SWAP2 MLOAD DUP10 SWAP2 PUSH32 0xFF2934C52F646A47CAC1F95449DFDA335ED35C7D2296FD4A988A2227FA0378AA SWAP2 SWAP1 DUP2 SWAP1 SUB PUSH1 0xC0 ADD SWAP1 LOG2 POP POP POP POP PUSH2 0xCFB PUSH1 0x1 PUSH1 0xB SSTORE JUMP JUMPDEST POP POP POP POP POP JUMP JUMPDEST PUSH2 0xD0B CALLER PUSH2 0x90F JUMP JUMPDEST PUSH2 0xD27 JUMPI PUSH1 0x40 MLOAD PUSH3 0x461BCD PUSH1 0xE5 SHL DUP2 MSTORE PUSH1 0x4 ADD PUSH2 0x6FC SWAP1 PUSH2 0x1D5F JUMP JUMPDEST PUSH0 DUP4 DUP4 DUP4 DUP10 DUP10 DUP10 PUSH1 0x40 MLOAD PUSH1 0x20 ADD PUSH2 0xD43 SWAP7 SWAP6 SWAP5 SWAP4 SWAP3 SWAP2 SWAP1 PUSH2 0x1CCF JUMP JUMPDEST PUSH1 0x40 DUP1 MLOAD PUSH1 0x1F NOT DUP2 DUP5 SUB ADD DUP2 MSTORE SWAP2 DUP2 MSTORE DUP2 MLOAD PUSH1 0x20 SWAP3 DUP4 ADD KECCAK256 PUSH0 DUP2 DUP2 MSTORE PUSH1 0x9 SWAP1 SWAP4 MSTORE SWAP1 DUP3 KECCAK256 SLOAD SWAP1 SWAP3 POP PUSH1 0xFF AND ISZERO ISZERO SWAP1 SUB PUSH2 0xDB4 JUMPI PUSH1 0x40 MLOAD PUSH3 0x461BCD PUSH1 0xE5 SHL DUP2 MSTORE PUSH1 0x20 PUSH1 0x4 DUP3 ADD MSTORE PUSH1 0x13 PUSH1 0x24 DUP3 ADD MSTORE PUSH19 0x30B63932B0B23C903232B632BA32AA37B5B2B7 PUSH1 0x69 SHL PUSH1 0x44 DUP3 ADD MSTORE PUSH1 0x64 ADD PUSH2 0x6FC JUMP JUMPDEST PUSH0 SWAP1 DUP2 MSTORE PUSH1 0x9 PUSH1 0x20 MSTORE PUSH1 0x40 SWAP1 KECCAK256 DUP1 SLOAD PUSH1 0xFF NOT AND SWAP1 SSTORE POP POP POP POP POP POP JUMP JUMPDEST PUSH2 0xDDA CALLER PUSH2 0x90F JUMP JUMPDEST PUSH2 0xDF6 JUMPI PUSH1 0x40 MLOAD PUSH3 0x461BCD PUSH1 0xE5 SHL DUP2 MSTORE PUSH1 0x4 ADD PUSH2 0x6FC SWAP1 PUSH2 0x1D5F JUMP JUMPDEST PUSH2 0x90C PUSH0 DUP1 MLOAD PUSH1 0x20 PUSH2 0x1E08 DUP4 CODECOPY DUP2 MLOAD SWAP2 MSTORE DUP3 PUSH2 0x927 JUMP JUMPDEST PUSH2 0xE16 CALLER PUSH2 0x90F JUMP JUMPDEST PUSH2 0xE32 JUMPI PUSH1 0x40 MLOAD PUSH3 0x461BCD PUSH1 0xE5 SHL DUP2 MSTORE PUSH1 0x4 ADD PUSH2 0x6FC SWAP1 PUSH2 0x1D5F JUMP JUMPDEST PUSH1 0x1 PUSH1 0x1 PUSH1 0xA0 SHL SUB DUP2 AND PUSH2 0xE88 JUMPI PUSH1 0x40 MLOAD PUSH3 0x461BCD PUSH1 0xE5 SHL DUP2 MSTORE PUSH1 0x20 PUSH1 0x4 DUP3 ADD MSTORE PUSH1 0x18 PUSH1 0x24 DUP3 ADD MSTORE PUSH32 0x41636365737369626C653A207A65726F20616464726573730000000000000000 PUSH1 0x44 DUP3 ADD MSTORE PUSH1 0x64 ADD PUSH2 0x6FC JUMP JUMPDEST PUSH1 0x1 PUSH1 0x1 PUSH1 0xA0 SHL SUB DUP2 AND CALLER SUB PUSH2 0xED9 JUMPI PUSH1 0x40 MLOAD PUSH3 0x461BCD PUSH1 0xE5 SHL DUP2 MSTORE PUSH1 0x20 PUSH1 0x4 DUP3 ADD MSTORE PUSH1 0x16 PUSH1 0x24 DUP3 ADD MSTORE PUSH22 0x20B1B1B2B9B9B4B136329D1039B0B6B29030B236B4B7 PUSH1 0x51 SHL PUSH1 0x44 DUP3 ADD MSTORE PUSH1 0x64 ADD PUSH2 0x6FC JUMP JUMPDEST PUSH2 0xEF0 PUSH0 DUP1 MLOAD PUSH1 0x20 PUSH2 0x1E08 DUP4 CODECOPY DUP2 MLOAD SWAP2 MSTORE DUP3 PUSH2 0x927 JUMP JUMPDEST PUSH2 0x90C PUSH0 DUP1 MLOAD PUSH1 0x20 PUSH2 0x1E08 DUP4 CODECOPY DUP2 MLOAD SWAP2 MSTORE CALLER PUSH2 0x951 JUMP JUMPDEST PUSH0 DUP11 DUP11 DUP11 DUP11 DUP11 DUP11 DUP11 DUP11 DUP11 DUP11 PUSH1 0x40 MLOAD PUSH1 0x20 ADD PUSH2 0xF2B SWAP11 SWAP10 SWAP9 SWAP8 SWAP7 SWAP6 SWAP5 SWAP4 SWAP3 SWAP2 SWAP1 PUSH2 0x1D06 JUMP JUMPDEST PUSH1 0x40 MLOAD PUSH1 0x20 DUP2 DUP4 SUB SUB DUP2 MSTORE SWAP1 PUSH1 0x40 MSTORE DUP1 MLOAD SWAP1 PUSH1 0x20 ADD KECCAK256 SWAP1 POP SWAP11 SWAP10 POP POP POP POP POP POP POP POP POP POP JUMP JUMPDEST PUSH0 SWAP2 DUP3 MSTORE PUSH1 0x4 PUSH1 0x20 SWAP1 DUP2 MSTORE PUSH1 0x40 DUP1 DUP5 KECCAK256 PUSH1 0x1 PUSH1 0x1 PUSH1 0xA0 SHL SUB SWAP4 SWAP1 SWAP4 AND DUP5 MSTORE SWAP2 SWAP1 MSTORE SWAP1 KECCAK256 SLOAD PUSH1 0xFF AND SWAP1 JUMP JUMPDEST PUSH2 0xF83 PUSH2 0x1416 JUMP JUMPDEST PUSH1 0x5 SLOAD DUP4 SWAP1 PUSH1 0x1 PUSH1 0x1 PUSH1 0xA0 SHL SUB AND CALLER EQ DUP1 ISZERO PUSH2 0x1020 JUMPI POP PUSH0 DUP2 DUP2 MSTORE PUSH1 0xA PUSH1 0x20 SWAP1 DUP2 MSTORE PUSH1 0x40 SWAP2 DUP3 SWAP1 KECCAK256 SLOAD PUSH1 0x5 SLOAD DUP4 MLOAD PUSH4 0x6E296E45 PUSH1 0xE0 SHL DUP2 MSTORE SWAP4 MLOAD PUSH1 0x1 PUSH1 0x1 PUSH1 0xA0 SHL SUB SWAP3 DUP4 AND SWAP5 SWAP2 SWAP1 SWAP3 AND SWAP3 PUSH4 0x6E296E45 SWAP3 PUSH1 0x4 DUP1 DUP5 ADD SWAP4 DUP3 SWAP1 SUB ADD DUP2 DUP7 GAS STATICCALL ISZERO DUP1 ISZERO PUSH2 0xFF1 JUMPI RETURNDATASIZE PUSH0 DUP1 RETURNDATACOPY RETURNDATASIZE PUSH0 REVERT JUMPDEST POP POP POP POP PUSH1 0x40 MLOAD RETURNDATASIZE PUSH1 0x1F NOT PUSH1 0x1F DUP3 ADD AND DUP3 ADD DUP1 PUSH1 0x40 MSTORE POP DUP2 ADD SWAP1 PUSH2 0x1015 SWAP2 SWAP1 PUSH2 0x1DA1 JUMP JUMPDEST PUSH1 0x1 PUSH1 0x1 PUSH1 0xA0 SHL SUB AND EQ JUMPDEST PUSH2 0x1067 JUMPI PUSH1 0x40 MLOAD PUSH3 0x461BCD PUSH1 0xE5 SHL DUP2 MSTORE PUSH1 0x20 PUSH1 0x4 DUP3 ADD MSTORE PUSH1 0x18 PUSH1 0x24 DUP3 ADD MSTORE PUSH24 0x6F6E6C792063616C6C206C31466173745769746864726177 PUSH1 0x40 SHL PUSH1 0x44 DUP3 ADD MSTORE PUSH1 0x64 ADD PUSH2 0x6FC JUMP JUMPDEST PUSH0 DUP6 DUP2 MSTORE PUSH1 0x8 PUSH1 0x20 MSTORE PUSH1 0x40 SWAP1 KECCAK256 PUSH1 0x4 ADD SLOAD DUP6 SWAP1 PUSH1 0x1 PUSH1 0x1 PUSH1 0xA0 SHL SUB AND ISZERO PUSH2 0x10BF JUMPI PUSH1 0x40 MLOAD PUSH3 0x461BCD PUSH1 0xE5 SHL DUP2 MSTORE PUSH1 0x20 PUSH1 0x4 DUP3 ADD MSTORE PUSH1 0xC PUSH1 0x24 DUP3 ADD MSTORE PUSH12 0x185B1C9958591E481CDBDB19 PUSH1 0xA2 SHL PUSH1 0x44 DUP3 ADD MSTORE PUSH1 0x64 ADD PUSH2 0x6FC JUMP JUMPDEST PUSH0 DUP7 DUP2 MSTORE PUSH1 0x8 PUSH1 0x20 MSTORE PUSH1 0x40 SWAP1 KECCAK256 PUSH1 0x9 ADD SLOAD DUP4 EQ PUSH2 0x1119 JUMPI PUSH1 0x40 MLOAD PUSH3 0x461BCD PUSH1 0xE5 SHL DUP2 MSTORE PUSH1 0x20 PUSH1 0x4 DUP3 ADD MSTORE PUSH1 0x18 PUSH1 0x24 DUP3 ADD MSTORE PUSH24 0x90C2E6D040ECC2D8EACAE640C8DE40DCDEE840DAC2E8C6D PUSH1 0x43 SHL PUSH1 0x44 DUP3 ADD MSTORE PUSH1 0x64 ADD PUSH2 0x6FC JUMP JUMPDEST DUP7 PUSH0 DUP2 SWAP1 SUB PUSH2 0x1135 JUMPI POP PUSH0 DUP7 DUP2 MSTORE PUSH1 0x8 PUSH1 0x20 MSTORE PUSH1 0x40 SWAP1 KECCAK256 PUSH1 0x6 ADD SLOAD JUMPDEST PUSH0 DUP8 DUP2 MSTORE PUSH1 0x8 PUSH1 0x20 MSTORE PUSH1 0x40 SWAP1 KECCAK256 PUSH1 0x4 DUP2 ADD DUP1 SLOAD PUSH1 0x1 PUSH1 0x1 PUSH1 0xA0 SHL SUB NOT AND PUSH1 0x1 PUSH1 0x1 PUSH1 0xA0 SHL SUB DUP13 DUP2 AND SWAP2 SWAP1 SWAP2 OR SWAP1 SWAP2 SSTORE PUSH1 0x1 DUP3 ADD SLOAD PUSH1 0x5 SWAP1 SWAP3 ADD SLOAD PUSH1 0x6 SLOAD SWAP3 DUP3 AND SWAP3 SWAP1 SWAP2 AND DUP3 SUB PUSH2 0x1211 JUMPI PUSH0 DUP12 PUSH1 0x1 PUSH1 0x1 PUSH1 0xA0 SHL SUB AND DUP3 PUSH1 0x40 MLOAD PUSH0 PUSH1 0x40 MLOAD DUP1 DUP4 SUB DUP2 DUP6 DUP8 GAS CALL SWAP3 POP POP POP RETURNDATASIZE DUP1 PUSH0 DUP2 EQ PUSH2 0x11C8 JUMPI PUSH1 0x40 MLOAD SWAP2 POP PUSH1 0x1F NOT PUSH1 0x3F RETURNDATASIZE ADD AND DUP3 ADD PUSH1 0x40 MSTORE RETURNDATASIZE DUP3 MSTORE RETURNDATASIZE PUSH0 PUSH1 0x20 DUP5 ADD RETURNDATACOPY PUSH2 0x11CD JUMP JUMPDEST PUSH1 0x60 SWAP2 POP JUMPDEST POP POP SWAP1 POP DUP1 PUSH2 0x120B JUMPI PUSH1 0x40 MLOAD PUSH3 0x461BCD PUSH1 0xE5 SHL DUP2 MSTORE PUSH1 0x20 PUSH1 0x4 DUP3 ADD MSTORE PUSH1 0xA PUSH1 0x24 DUP3 ADD MSTORE PUSH10 0x18DB185A5B4819985A5B PUSH1 0xB2 SHL PUSH1 0x44 DUP3 ADD MSTORE PUSH1 0x64 ADD PUSH2 0x6FC JUMP JUMPDEST POP PUSH2 0x1225 JUMP JUMPDEST PUSH2 0x1225 PUSH1 0x1 PUSH1 0x1 PUSH1 0xA0 SHL SUB DUP4 AND DUP13 DUP4 PUSH2 0x177E JUMP JUMPDEST POP POP PUSH1 0x1 PUSH1 0xB SSTORE POP PUSH2 0x1235 SWAP2 POP POP JUMP JUMPDEST POP POP POP POP POP POP JUMP JUMPDEST PUSH0 DUP3 DUP2 MSTORE PUSH1 0x4 PUSH1 0x20 MSTORE PUSH1 0x40 SWAP1 KECCAK256 PUSH1 0x1 ADD SLOAD PUSH2 0x1257 DUP2 PUSH2 0x1678 JUMP JUMPDEST PUSH2 0x94B DUP4 DUP4 PUSH2 0x1713 JUMP JUMPDEST PUSH2 0x126A CALLER PUSH2 0x90F JUMP JUMPDEST PUSH2 0x1286 JUMPI PUSH1 0x40 MLOAD PUSH3 0x461BCD PUSH1 0xE5 SHL DUP2 MSTORE PUSH1 0x4 ADD PUSH2 0x6FC SWAP1 PUSH2 0x1D5F JUMP JUMPDEST PUSH0 DUP4 DUP4 DUP4 DUP10 DUP10 DUP10 PUSH1 0x40 MLOAD PUSH1 0x20 ADD PUSH2 0x12A2 SWAP7 SWAP6 SWAP5 SWAP4 SWAP3 SWAP2 SWAP1 PUSH2 0x1CCF JUMP JUMPDEST PUSH1 0x40 DUP1 MLOAD PUSH1 0x1F NOT DUP2 DUP5 SUB ADD DUP2 MSTORE SWAP2 DUP2 MSTORE DUP2 MLOAD PUSH1 0x20 SWAP3 DUP4 ADD KECCAK256 PUSH0 DUP2 DUP2 MSTORE PUSH1 0x9 SWAP1 SWAP4 MSTORE SWAP2 KECCAK256 SLOAD SWAP1 SWAP2 POP PUSH1 0xFF AND ISZERO PUSH2 0x1311 JUMPI PUSH1 0x40 MLOAD PUSH3 0x461BCD PUSH1 0xE5 SHL DUP2 MSTORE PUSH1 0x20 PUSH1 0x4 DUP3 ADD MSTORE PUSH1 0x15 PUSH1 0x24 DUP3 ADD MSTORE PUSH21 0x30B63932B0B23C903932B3B4B9BA32B92A37B5B2B7 PUSH1 0x59 SHL PUSH1 0x44 DUP3 ADD MSTORE PUSH1 0x64 ADD PUSH2 0x6FC JUMP JUMPDEST PUSH0 SWAP1 DUP2 MSTORE PUSH1 0x9 PUSH1 0x20 MSTORE PUSH1 0x40 SWAP1 KECCAK256 DUP1 SLOAD PUSH1 0xFF NOT AND PUSH1 0x1 OR SWAP1 SSTORE POP POP POP POP POP POP JUMP JUMPDEST CALLER ORIGIN EQ PUSH2 0x1350 JUMPI PUSH1 0x40 MLOAD PUSH3 0x461BCD PUSH1 0xE5 SHL DUP2 MSTORE PUSH1 0x4 ADD PUSH2 0x6FC SWAP1 PUSH2 0x1C4B JUMP JUMPDEST DUP4 PUSH0 DUP2 GT PUSH2 0x1370 JUMPI PUSH1 0x40 MLOAD PUSH3 0x461BCD PUSH1 0xE5 SHL DUP2 MSTORE PUSH1 0x4 ADD PUSH2 0x6FC SWAP1 PUSH2 0x1C98 JUMP JUMPDEST DUP4 PUSH0 DUP2 GT PUSH2 0x1390 JUMPI PUSH1 0x40 MLOAD PUSH3 0x461BCD PUSH1 0xE5 SHL DUP2 MSTORE PUSH1 0x4 ADD PUSH2 0x6FC SWAP1 PUSH2 0x1C98 JUMP JUMPDEST PUSH2 0x1398 PUSH2 0x1416 JUMP JUMPDEST PUSH1 0x7 DUP1 SLOAD PUSH1 0x1 ADD SWAP1 DUP2 SWAP1 SSTORE CHAINID SWAP1 PUSH0 SWAP1 PUSH2 0x13BC SWAP1 DUP13 SWAP1 DUP13 SWAP1 DUP13 SWAP1 DUP13 SWAP1 DUP13 SWAP1 DUP13 DUP13 PUSH2 0x1440 JUMP JUMPDEST SWAP1 POP PUSH1 0x7 SLOAD PUSH32 0xBDADA440BA6A1AEE247CDAC6CF66343EA063EA610A86100ACDEE8496B90351E5 DUP13 DUP13 DUP13 CALLER DUP14 DUP14 DUP14 DUP11 DUP15 DUP12 PUSH1 0x40 MLOAD PUSH2 0x1402 SWAP11 SWAP10 SWAP9 SWAP8 SWAP7 SWAP6 SWAP5 SWAP4 SWAP3 SWAP2 SWAP1 PUSH2 0x1D06 JUMP JUMPDEST PUSH1 0x40 MLOAD DUP1 SWAP2 SUB SWAP1 LOG2 POP POP PUSH2 0x8C5 PUSH1 0x1 PUSH1 0xB SSTORE JUMP JUMPDEST PUSH1 0x2 PUSH1 0xB SLOAD SUB PUSH2 0x1439 JUMPI PUSH1 0x40 MLOAD PUSH4 0x3EE5AEB5 PUSH1 0xE0 SHL DUP2 MSTORE PUSH1 0x4 ADD PUSH1 0x40 MLOAD DUP1 SWAP2 SUB SWAP1 REVERT JUMPDEST PUSH1 0x2 PUSH1 0xB SSTORE JUMP JUMPDEST PUSH1 0x6 SLOAD PUSH0 SWAP1 PUSH1 0x1 PUSH1 0x1 PUSH1 0xA0 SHL SUB SWAP1 DUP2 AND SWAP1 DUP10 AND SUB PUSH2 0x14AC JUMPI DUP6 CALLVALUE EQ PUSH2 0x14A7 JUMPI PUSH1 0x40 MLOAD PUSH3 0x461BCD PUSH1 0xE5 SHL DUP2 MSTORE PUSH1 0x20 PUSH1 0x4 DUP3 ADD MSTORE PUSH1 0x19 PUSH1 0x24 DUP3 ADD MSTORE PUSH32 0x43543A206E6174697665544F4E206E65656420616D6F756E7400000000000000 PUSH1 0x44 DUP3 ADD MSTORE PUSH1 0x64 ADD PUSH2 0x6FC JUMP JUMPDEST PUSH2 0x14C1 JUMP JUMPDEST PUSH2 0x14C1 PUSH1 0x1 PUSH1 0x1 PUSH1 0xA0 SHL SUB DUP10 AND CALLER ADDRESS DUP10 PUSH2 0x187F JUMP JUMPDEST CHAINID PUSH2 0x14D4 DUP11 DUP11 DUP11 CALLER DUP12 DUP12 DUP12 DUP9 DUP12 DUP14 PUSH2 0xF07 JUMP JUMPDEST SWAP2 POP PUSH1 0x40 MLOAD DUP1 PUSH2 0x140 ADD PUSH1 0x40 MSTORE DUP1 DUP12 PUSH1 0x1 PUSH1 0x1 PUSH1 0xA0 SHL SUB AND DUP2 MSTORE PUSH1 0x20 ADD DUP11 PUSH1 0x1 PUSH1 0x1 PUSH1 0xA0 SHL SUB AND DUP2 MSTORE PUSH1 0x20 ADD DUP10 PUSH1 0x1 PUSH1 0x1 PUSH1 0xA0 SHL SUB AND DUP2 MSTORE PUSH1 0x20 ADD CALLER PUSH1 0x1 PUSH1 0x1 PUSH1 0xA0 SHL SUB AND DUP2 MSTORE PUSH1 0x20 ADD PUSH0 PUSH1 0x1 PUSH1 0x1 PUSH1 0xA0 SHL SUB AND DUP2 MSTORE PUSH1 0x20 ADD DUP9 DUP2 MSTORE PUSH1 0x20 ADD DUP8 DUP2 MSTORE PUSH1 0x20 ADD DUP6 DUP2 MSTORE PUSH1 0x20 ADD DUP5 DUP2 MSTORE PUSH1 0x20 ADD DUP4 DUP2 MSTORE POP PUSH1 0x8 PUSH0 DUP8 DUP2 MSTORE PUSH1 0x20 ADD SWAP1 DUP2 MSTORE PUSH1 0x20 ADD PUSH0 KECCAK256 PUSH0 DUP3 ADD MLOAD DUP2 PUSH0 ADD PUSH0 PUSH2 0x100 EXP DUP2 SLOAD DUP2 PUSH1 0x1 PUSH1 0x1 PUSH1 0xA0 SHL SUB MUL NOT AND SWAP1 DUP4 PUSH1 0x1 PUSH1 0x1 PUSH1 0xA0 SHL SUB AND MUL OR SWAP1 SSTORE POP PUSH1 0x20 DUP3 ADD MLOAD DUP2 PUSH1 0x1 ADD PUSH0 PUSH2 0x100 EXP DUP2 SLOAD DUP2 PUSH1 0x1 PUSH1 0x1 PUSH1 0xA0 SHL SUB MUL NOT AND SWAP1 DUP4 PUSH1 0x1 PUSH1 0x1 PUSH1 0xA0 SHL SUB AND MUL OR SWAP1 SSTORE POP PUSH1 0x40 DUP3 ADD MLOAD DUP2 PUSH1 0x2 ADD PUSH0 PUSH2 0x100 EXP DUP2 SLOAD DUP2 PUSH1 0x1 PUSH1 0x1 PUSH1 0xA0 SHL SUB MUL NOT AND SWAP1 DUP4 PUSH1 0x1 PUSH1 0x1 PUSH1 0xA0 SHL SUB AND MUL OR SWAP1 SSTORE POP PUSH1 0x60 DUP3 ADD MLOAD DUP2 PUSH1 0x3 ADD PUSH0 PUSH2 0x100 EXP DUP2 SLOAD DUP2 PUSH1 0x1 PUSH1 0x1 PUSH1 0xA0 SHL SUB MUL NOT AND SWAP1 DUP4 PUSH1 0x1 PUSH1 0x1 PUSH1 0xA0 SHL SUB AND MUL OR SWAP1 SSTORE POP PUSH1 0x80 DUP3 ADD MLOAD DUP2 PUSH1 0x4 ADD PUSH0 PUSH2 0x100 EXP DUP2 SLOAD DUP2 PUSH1 0x1 PUSH1 0x1 PUSH1 0xA0 SHL SUB MUL NOT AND SWAP1 DUP4 PUSH1 0x1 PUSH1 0x1 PUSH1 0xA0 SHL SUB AND MUL OR SWAP1 SSTORE POP PUSH1 0xA0 DUP3 ADD MLOAD DUP2 PUSH1 0x5 ADD SSTORE PUSH1 0xC0 DUP3 ADD MLOAD DUP2 PUSH1 0x6 ADD SSTORE PUSH1 0xE0 DUP3 ADD MLOAD DUP2 PUSH1 0x7 ADD SSTORE PUSH2 0x100 DUP3 ADD MLOAD DUP2 PUSH1 0x8 ADD SSTORE PUSH2 0x120 DUP3 ADD MLOAD DUP2 PUSH1 0x9 ADD SSTORE SWAP1 POP POP POP SWAP9 SWAP8 POP POP POP POP POP POP POP POP JUMP JUMPDEST PUSH2 0x90C DUP2 CALLER PUSH2 0x198D JUMP JUMPDEST PUSH0 PUSH2 0x168D DUP4 DUP4 PUSH2 0xF51 JUMP JUMPDEST PUSH2 0x170C JUMPI PUSH0 DUP4 DUP2 MSTORE PUSH1 0x4 PUSH1 0x20 SWAP1 DUP2 MSTORE PUSH1 0x40 DUP1 DUP4 KECCAK256 PUSH1 0x1 PUSH1 0x1 PUSH1 0xA0 SHL SUB DUP7 AND DUP5 MSTORE SWAP1 SWAP2 MSTORE SWAP1 KECCAK256 DUP1 SLOAD PUSH1 0xFF NOT AND PUSH1 0x1 OR SWAP1 SSTORE PUSH2 0x16C4 CALLER SWAP1 JUMP JUMPDEST PUSH1 0x1 PUSH1 0x1 PUSH1 0xA0 SHL SUB AND DUP3 PUSH1 0x1 PUSH1 0x1 PUSH1 0xA0 SHL SUB AND DUP5 PUSH32 0x2F8788117E7EFF1D82E926EC794901D17C78024A50270940304540A733656F0D PUSH1 0x40 MLOAD PUSH1 0x40 MLOAD DUP1 SWAP2 SUB SWAP1 LOG4 POP PUSH1 0x1 PUSH2 0x6D7 JUMP JUMPDEST POP PUSH0 PUSH2 0x6D7 JUMP JUMPDEST PUSH0 PUSH2 0x171E DUP4 DUP4 PUSH2 0xF51 JUMP JUMPDEST ISZERO PUSH2 0x170C JUMPI PUSH0 DUP4 DUP2 MSTORE PUSH1 0x4 PUSH1 0x20 SWAP1 DUP2 MSTORE PUSH1 0x40 DUP1 DUP4 KECCAK256 PUSH1 0x1 PUSH1 0x1 PUSH1 0xA0 SHL SUB DUP7 AND DUP1 DUP6 MSTORE SWAP3 MSTORE DUP1 DUP4 KECCAK256 DUP1 SLOAD PUSH1 0xFF NOT AND SWAP1 SSTORE MLOAD CALLER SWAP3 DUP7 SWAP2 PUSH32 0xF6391F5C32D9C69D2A47EA670B442974B53935D1EDC7FD64EB21E047A839171B SWAP2 SWAP1 LOG4 POP PUSH1 0x1 PUSH2 0x6D7 JUMP JUMPDEST PUSH1 0x40 DUP1 MLOAD PUSH1 0x1 PUSH1 0x1 PUSH1 0xA0 SHL SUB DUP5 DUP2 AND PUSH1 0x24 DUP4 ADD MSTORE PUSH1 0x44 DUP1 DUP4 ADD DUP6 SWAP1 MSTORE DUP4 MLOAD DUP1 DUP5 SUB SWAP1 SWAP2 ADD DUP2 MSTORE PUSH1 0x64 SWAP1 SWAP3 ADD DUP4 MSTORE PUSH1 0x20 DUP3 ADD DUP1 MLOAD PUSH1 0x1 PUSH1 0x1 PUSH1 0xE0 SHL SUB AND PUSH4 0xA9059CBB PUSH1 0xE0 SHL OR SWAP1 MSTORE SWAP2 MLOAD PUSH0 SWAP3 DUP4 SWAP3 SWAP1 DUP8 AND SWAP2 PUSH2 0x17D9 SWAP2 SWAP1 PUSH2 0x1DBC JUMP JUMPDEST PUSH0 PUSH1 0x40 MLOAD DUP1 DUP4 SUB DUP2 PUSH0 DUP7 GAS CALL SWAP2 POP POP RETURNDATASIZE DUP1 PUSH0 DUP2 EQ PUSH2 0x1812 JUMPI PUSH1 0x40 MLOAD SWAP2 POP PUSH1 0x1F NOT PUSH1 0x3F RETURNDATASIZE ADD AND DUP3 ADD PUSH1 0x40 MSTORE RETURNDATASIZE DUP3 MSTORE RETURNDATASIZE PUSH0 PUSH1 0x20 DUP5 ADD RETURNDATACOPY PUSH2 0x1817 JUMP JUMPDEST PUSH1 0x60 SWAP2 POP JUMPDEST POP SWAP2 POP SWAP2 POP DUP2 DUP1 ISZERO PUSH2 0x1841 JUMPI POP DUP1 MLOAD ISZERO DUP1 PUSH2 0x1841 JUMPI POP DUP1 DUP1 PUSH1 0x20 ADD SWAP1 MLOAD DUP2 ADD SWAP1 PUSH2 0x1841 SWAP2 SWAP1 PUSH2 0x1DE8 JUMP JUMPDEST PUSH2 0xCFB JUMPI PUSH1 0x40 MLOAD PUSH3 0x461BCD PUSH1 0xE5 SHL DUP2 MSTORE PUSH1 0x20 PUSH1 0x4 DUP3 ADD MSTORE PUSH1 0xF PUSH1 0x24 DUP3 ADD MSTORE PUSH15 0x1514905394D1915497D19052531151 PUSH1 0x8A SHL PUSH1 0x44 DUP3 ADD MSTORE PUSH1 0x64 ADD PUSH2 0x6FC JUMP JUMPDEST PUSH1 0x40 DUP1 MLOAD PUSH1 0x1 PUSH1 0x1 PUSH1 0xA0 SHL SUB DUP6 DUP2 AND PUSH1 0x24 DUP4 ADD MSTORE DUP5 DUP2 AND PUSH1 0x44 DUP4 ADD MSTORE PUSH1 0x64 DUP1 DUP4 ADD DUP6 SWAP1 MSTORE DUP4 MLOAD DUP1 DUP5 SUB SWAP1 SWAP2 ADD DUP2 MSTORE PUSH1 0x84 SWAP1 SWAP3 ADD DUP4 MSTORE PUSH1 0x20 DUP3 ADD DUP1 MLOAD PUSH1 0x1 PUSH1 0x1 PUSH1 0xE0 SHL SUB AND PUSH4 0x23B872DD PUSH1 0xE0 SHL OR SWAP1 MSTORE SWAP2 MLOAD PUSH0 SWAP3 DUP4 SWAP3 SWAP1 DUP9 AND SWAP2 PUSH2 0x18E2 SWAP2 SWAP1 PUSH2 0x1DBC JUMP JUMPDEST PUSH0 PUSH1 0x40 MLOAD DUP1 DUP4 SUB DUP2 PUSH0 DUP7 GAS CALL SWAP2 POP POP RETURNDATASIZE DUP1 PUSH0 DUP2 EQ PUSH2 0x191B JUMPI PUSH1 0x40 MLOAD SWAP2 POP PUSH1 0x1F NOT PUSH1 0x3F RETURNDATASIZE ADD AND DUP3 ADD PUSH1 0x40 MSTORE RETURNDATASIZE DUP3 MSTORE RETURNDATASIZE PUSH0 PUSH1 0x20 DUP5 ADD RETURNDATACOPY PUSH2 0x1920 JUMP JUMPDEST PUSH1 0x60 SWAP2 POP JUMPDEST POP SWAP2 POP SWAP2 POP DUP2 DUP1 ISZERO PUSH2 0x194A JUMPI POP DUP1 MLOAD ISZERO DUP1 PUSH2 0x194A JUMPI POP DUP1 DUP1 PUSH1 0x20 ADD SWAP1 MLOAD DUP2 ADD SWAP1 PUSH2 0x194A SWAP2 SWAP1 PUSH2 0x1DE8 JUMP JUMPDEST PUSH2 0x1235 JUMPI PUSH1 0x40 MLOAD PUSH3 0x461BCD PUSH1 0xE5 SHL DUP2 MSTORE PUSH1 0x20 PUSH1 0x4 DUP3 ADD MSTORE PUSH1 0x14 PUSH1 0x24 DUP3 ADD MSTORE PUSH20 0x1514905394D1915497D19493D357D19052531151 PUSH1 0x62 SHL PUSH1 0x44 DUP3 ADD MSTORE PUSH1 0x64 ADD PUSH2 0x6FC JUMP JUMPDEST PUSH2 0x1997 DUP3 DUP3 PUSH2 0xF51 JUMP JUMPDEST PUSH2 0x19C6 JUMPI PUSH1 0x40 MLOAD PUSH4 0xE2517D3F PUSH1 0xE0 SHL DUP2 MSTORE PUSH1 0x1 PUSH1 0x1 PUSH1 0xA0 SHL SUB DUP3 AND PUSH1 0x4 DUP3 ADD MSTORE PUSH1 0x24 DUP2 ADD DUP4 SWAP1 MSTORE PUSH1 0x44 ADD PUSH2 0x6FC JUMP JUMPDEST POP POP JUMP JUMPDEST PUSH0 PUSH1 0x20 DUP3 DUP5 SUB SLT ISZERO PUSH2 0x19DA JUMPI PUSH0 DUP1 REVERT JUMPDEST DUP2 CALLDATALOAD PUSH1 0x1 PUSH1 0x1 PUSH1 0xE0 SHL SUB NOT DUP2 AND DUP2 EQ PUSH2 0x19F1 JUMPI PUSH0 DUP1 REVERT JUMPDEST SWAP4 SWAP3 POP POP POP JUMP JUMPDEST PUSH1 0x1 PUSH1 0x1 PUSH1 0xA0 SHL SUB DUP2 AND DUP2 EQ PUSH2 0x90C JUMPI PUSH0 DUP1 REVERT JUMPDEST PUSH0 DUP1 PUSH0 DUP1 PUSH0 DUP1 PUSH0 PUSH1 0xE0 DUP9 DUP11 SUB SLT ISZERO PUSH2 0x1A22 JUMPI PUSH0 DUP1 REVERT JUMPDEST DUP8 CALLDATALOAD PUSH2 0x1A2D DUP2 PUSH2 0x19F8 JUMP JUMPDEST SWAP7 POP PUSH1 0x20 DUP9 ADD CALLDATALOAD PUSH2 0x1A3D DUP2 PUSH2 0x19F8 JUMP JUMPDEST SWAP6 POP PUSH1 0x40 DUP9 ADD CALLDATALOAD PUSH2 0x1A4D DUP2 PUSH2 0x19F8 JUMP JUMPDEST SWAP7 SWAP10 SWAP6 SWAP9 POP SWAP6 SWAP7 PUSH1 0x60 DUP2 ADD CALLDATALOAD SWAP7 POP PUSH1 0x80 DUP2 ADD CALLDATALOAD SWAP6 PUSH1 0xA0 DUP3 ADD CALLDATALOAD SWAP6 POP PUSH1 0xC0 SWAP1 SWAP2 ADD CALLDATALOAD SWAP4 POP SWAP2 POP POP JUMP JUMPDEST PUSH0 PUSH1 0x20 DUP3 DUP5 SUB SLT ISZERO PUSH2 0x1A85 JUMPI PUSH0 DUP1 REVERT JUMPDEST DUP2 CALLDATALOAD PUSH2 0x19F1 DUP2 PUSH2 0x19F8 JUMP JUMPDEST PUSH0 PUSH1 0x20 DUP3 DUP5 SUB SLT ISZERO PUSH2 0x1AA0 JUMPI PUSH0 DUP1 REVERT JUMPDEST POP CALLDATALOAD SWAP2 SWAP1 POP JUMP JUMPDEST PUSH0 DUP1 PUSH1 0x40 DUP4 DUP6 SUB SLT ISZERO PUSH2 0x1AB8 JUMPI PUSH0 DUP1 REVERT JUMPDEST DUP3 CALLDATALOAD SWAP2 POP PUSH1 0x20 DUP4 ADD CALLDATALOAD PUSH2 0x1ACA DUP2 PUSH2 0x19F8 JUMP JUMPDEST DUP1 SWAP2 POP POP SWAP3 POP SWAP3 SWAP1 POP JUMP JUMPDEST PUSH0 DUP1 PUSH0 DUP1 PUSH0 PUSH1 0xA0 DUP7 DUP9 SUB SLT ISZERO PUSH2 0x1AE9 JUMPI PUSH0 DUP1 REVERT JUMPDEST DUP6 CALLDATALOAD PUSH2 0x1AF4 DUP2 PUSH2 0x19F8 JUMP JUMPDEST SWAP8 PUSH1 0x20 DUP8 ADD CALLDATALOAD SWAP8 POP PUSH1 0x40 DUP8 ADD CALLDATALOAD SWAP7 PUSH1 0x60 DUP2 ADD CALLDATALOAD SWAP7 POP PUSH1 0x80 ADD CALLDATALOAD SWAP5 POP SWAP3 POP POP POP JUMP JUMPDEST PUSH0 DUP1 PUSH0 DUP1 PUSH0 DUP1 PUSH1 0xC0 DUP8 DUP10 SUB SLT ISZERO PUSH2 0x1B2A JUMPI PUSH0 DUP1 REVERT JUMPDEST DUP7 CALLDATALOAD PUSH2 0x1B35 DUP2 PUSH2 0x19F8 JUMP JUMPDEST SWAP6 POP PUSH1 0x20 DUP8 ADD CALLDATALOAD PUSH2 0x1B45 DUP2 PUSH2 0x19F8 JUMP JUMPDEST SWAP5 POP PUSH1 0x40 DUP8 ADD CALLDATALOAD PUSH2 0x1B55 DUP2 PUSH2 0x19F8 JUMP JUMPDEST SWAP6 SWAP9 SWAP5 SWAP8 POP SWAP5 SWAP6 PUSH1 0x60 DUP2 ADD CALLDATALOAD SWAP6 POP PUSH1 0x80 DUP2 ADD CALLDATALOAD SWAP5 PUSH1 0xA0 SWAP1 SWAP2 ADD CALLDATALOAD SWAP4 POP SWAP2 POP POP JUMP JUMPDEST PUSH0 DUP1 PUSH0 DUP1 PUSH0 DUP1 PUSH0 DUP1 PUSH0 DUP1 PUSH2 0x140 DUP12 DUP14 SUB SLT ISZERO PUSH2 0x1B90 JUMPI PUSH0 DUP1 REVERT JUMPDEST DUP11 CALLDATALOAD PUSH2 0x1B9B DUP2 PUSH2 0x19F8 JUMP JUMPDEST SWAP10 POP PUSH1 0x20 DUP12 ADD CALLDATALOAD PUSH2 0x1BAB DUP2 PUSH2 0x19F8 JUMP JUMPDEST SWAP9 POP PUSH1 0x40 DUP12 ADD CALLDATALOAD PUSH2 0x1BBB DUP2 PUSH2 0x19F8 JUMP JUMPDEST SWAP8 POP PUSH1 0x60 DUP12 ADD CALLDATALOAD PUSH2 0x1BCB DUP2 PUSH2 0x19F8 JUMP JUMPDEST SWAP10 SWAP13 SWAP9 SWAP12 POP SWAP7 SWAP10 PUSH1 0x80 DUP2 ADD CALLDATALOAD SWAP9 PUSH1 0xA0 DUP3 ADD CALLDATALOAD SWAP9 POP PUSH1 0xC0 DUP3 ADD CALLDATALOAD SWAP8 POP PUSH1 0xE0 DUP3 ADD CALLDATALOAD SWAP7 POP PUSH2 0x100 DUP3 ADD CALLDATALOAD SWAP6 POP PUSH2 0x120 SWAP1 SWAP2 ADD CALLDATALOAD SWAP4 POP SWAP2 POP POP JUMP JUMPDEST PUSH0 DUP1 PUSH0 DUP1 PUSH0 DUP1 PUSH1 0xC0 DUP8 DUP10 SUB SLT ISZERO PUSH2 0x1C18 JUMPI PUSH0 DUP1 REVERT JUMPDEST DUP7 CALLDATALOAD PUSH2 0x1C23 DUP2 PUSH2 0x19F8 JUMP JUMPDEST SWAP9 PUSH1 0x20 DUP9 ADD CALLDATALOAD SWAP9 POP PUSH1 0x40 DUP9 ADD CALLDATALOAD SWAP8 PUSH1 0x60 DUP2 ADD CALLDATALOAD SWAP8 POP PUSH1 0x80 DUP2 ADD CALLDATALOAD SWAP7 POP PUSH1 0xA0 ADD CALLDATALOAD SWAP5 POP SWAP3 POP POP POP JUMP JUMPDEST PUSH1 0x20 DUP1 DUP3 MSTORE PUSH1 0x2D SWAP1 DUP3 ADD MSTORE PUSH32 0x4C3246573A2066756E6374696F6E2063616E206F6E6C792062652063616C6C65 PUSH1 0x40 DUP3 ADD MSTORE PUSH13 0x642066726F6D20616E20454F41 PUSH1 0x98 SHL PUSH1 0x60 DUP3 ADD MSTORE PUSH1 0x80 ADD SWAP1 JUMP JUMPDEST PUSH1 0x20 DUP1 DUP3 MSTORE PUSH1 0x19 SWAP1 DUP3 ADD MSTORE PUSH32 0x696E70757420616D6F756E74206E656564206E6F6E5A65726F00000000000000 PUSH1 0x40 DUP3 ADD MSTORE PUSH1 0x60 ADD SWAP1 JUMP JUMPDEST SWAP6 DUP7 MSTORE PUSH1 0x20 DUP7 ADD SWAP5 SWAP1 SWAP5 MSTORE PUSH1 0x40 DUP6 ADD SWAP3 SWAP1 SWAP3 MSTORE PUSH1 0x1 PUSH1 0x1 PUSH1 0xA0 SHL SUB SWAP1 DUP2 AND PUSH1 0x60 DUP6 ADD MSTORE SWAP1 DUP2 AND PUSH1 0x80 DUP5 ADD MSTORE AND PUSH1 0xA0 DUP3 ADD MSTORE PUSH1 0xC0 ADD SWAP1 JUMP JUMPDEST PUSH1 0x1 PUSH1 0x1 PUSH1 0xA0 SHL SUB SWAP11 DUP12 AND DUP2 MSTORE SWAP9 DUP11 AND PUSH1 0x20 DUP11 ADD MSTORE SWAP7 DUP10 AND PUSH1 0x40 DUP10 ADD MSTORE SWAP5 SWAP1 SWAP8 AND PUSH1 0x60 DUP8 ADD MSTORE PUSH1 0x80 DUP7 ADD SWAP3 SWAP1 SWAP3 MSTORE PUSH1 0xA0 DUP6 ADD MSTORE PUSH1 0xC0 DUP5 ADD MSTORE PUSH1 0xE0 DUP4 ADD SWAP4 SWAP1 SWAP4 MSTORE PUSH2 0x100 DUP3 ADD SWAP3 SWAP1 SWAP3 MSTORE PUSH2 0x120 DUP2 ADD SWAP2 SWAP1 SWAP2 MSTORE PUSH2 0x140 ADD SWAP1 JUMP JUMPDEST PUSH1 0x20 DUP1 DUP3 MSTORE PUSH1 0x22 SWAP1 DUP3 ADD MSTORE PUSH32 0x41636365737369626C653A2043616C6C6572206973206E6F7420616E2061646D PUSH1 0x40 DUP3 ADD MSTORE PUSH2 0x34B7 PUSH1 0xF1 SHL PUSH1 0x60 DUP3 ADD MSTORE PUSH1 0x80 ADD SWAP1 JUMP JUMPDEST PUSH0 PUSH1 0x20 DUP3 DUP5 SUB SLT ISZERO PUSH2 0x1DB1 JUMPI PUSH0 DUP1 REVERT JUMPDEST DUP2 MLOAD PUSH2 0x19F1 DUP2 PUSH2 0x19F8 JUMP JUMPDEST PUSH0 DUP3 MLOAD PUSH0 JUMPDEST DUP2 DUP2 LT ISZERO PUSH2 0x1DDB JUMPI PUSH1 0x20 DUP2 DUP7 ADD DUP2 ADD MLOAD DUP6 DUP4 ADD MSTORE ADD PUSH2 0x1DC1 JUMP JUMPDEST POP PUSH0 SWAP3 ADD SWAP2 DUP3 MSTORE POP SWAP2 SWAP1 POP JUMP JUMPDEST PUSH0 PUSH1 0x20 DUP3 DUP5 SUB SLT ISZERO PUSH2 0x1DF8 JUMPI PUSH0 DUP1 REVERT JUMPDEST DUP2 MLOAD DUP1 ISZERO ISZERO DUP2 EQ PUSH2 0x19F1 JUMPI PUSH0 DUP1 REVERT INVALID 0xDF DUP12 0x4C MSTORE 0xF INVALID NOT PUSH29 0x5343C6F5AEC59570151EF9A492F2C624FD45DDDE6135EC42A264697066 PUSH20 0x58221220261B732418C75BFB722A2565DE30C63D 0xC7 CALLDATALOAD ORIGIN 0xE8 TIMESTAMP SWAP1 DELEGATECALL JUMPI PUSH1 0x3A PUSH4 0x7731C577 DUP9 PUSH5 0x736F6C6343 STOP ADDMOD XOR STOP CALLER "
				},
				"gasEstimates": {
					"creation": {
						"codeDepositCost": "1554600",
						"executionCost": "23728",
						"totalCost": "1578328"
					},
					"external": {
						"ADMIN_ROLE()": "infinite",
						"DEFAULT_ADMIN_ROLE()": "304",
						"POLICY_ROLE()": "262",
						"addAdmin(address)": "infinite",
						"aliveImplementation(address)": "2556",
						"cancelCT(address,uint256,uint256,uint256,bytes32)": "infinite",
						"chainData(uint256)": "4672",
						"claimCT(address,uint256,uint256,uint256,uint256,bytes32)": "infinite",
						"crossDomainMessenger()": "2424",
						"dealData(uint256)": "21871",
						"deleteToken(address,address,address,uint256,uint256,uint256)": "infinite",
						"getHash(address,address,address,address,uint256,uint256,uint256,uint256,uint256,uint256)": "infinite",
						"getRoleAdmin(bytes32)": "2531",
						"grantRole(bytes32,address)": "infinite",
						"hasRole(bytes32,address)": "2717",
						"isAdmin(address)": "infinite",
						"legacyERC20ETH()": "2427",
						"pauseProxy()": "2364",
						"proxyImplementation(uint256)": "2519",
						"registerToken(address,address,address,uint256,uint256,uint256)": "infinite",
						"removeAdmin(address)": "infinite",
						"renounceRole(bytes32,address)": "29091",
						"requestNonRegisteredToken(address,address,address,uint256,uint256,uint256,uint256)": "infinite",
						"requestRegisteredToken(address,address,address,uint256,uint256,uint256,uint256)": "infinite",
						"revokeRole(bytes32,address)": "infinite",
						"saleCount()": "2383",
						"selectorImplementation(bytes4)": "2613",
						"supportsInterface(bytes4)": "470",
						"transferAdmin(address)": "infinite"
					},
					"internal": {
						"_getChainID()": "infinite",
						"_request(address,address,address,uint256,uint256,uint256,uint256,uint256)": "infinite"
					}
				},
				"methodIdentifiers": {
					"ADMIN_ROLE()": "75b238fc",
					"DEFAULT_ADMIN_ROLE()": "a217fddf",
					"POLICY_ROLE()": "22985246",
					"addAdmin(address)": "70480275",
					"aliveImplementation(address)": "550d01a3",
					"cancelCT(address,uint256,uint256,uint256,bytes32)": "6c790d54",
					"chainData(uint256)": "e59f69c2",
					"claimCT(address,uint256,uint256,uint256,uint256,bytes32)": "c8b8e35e",
					"crossDomainMessenger()": "f43b3613",
					"dealData(uint256)": "f5869c2f",
					"deleteToken(address,address,address,uint256,uint256,uint256)": "6dd897c7",
					"getHash(address,address,address,address,uint256,uint256,uint256,uint256,uint256,uint256)": "7f02944f",
					"getRoleAdmin(bytes32)": "248a9ca3",
					"grantRole(bytes32,address)": "2f2ff15d",
					"hasRole(bytes32,address)": "91d14854",
					"isAdmin(address)": "24d7806c",
					"legacyERC20ETH()": "16e01724",
					"pauseProxy()": "63a8fd89",
					"proxyImplementation(uint256)": "b911135f",
					"registerToken(address,address,address,uint256,uint256,uint256)": "df2ccdbf",
					"removeAdmin(address)": "1785f53c",
					"renounceRole(bytes32,address)": "36568abe",
					"requestNonRegisteredToken(address,address,address,uint256,uint256,uint256,uint256)": "ee976ab4",
					"requestRegisteredToken(address,address,address,uint256,uint256,uint256,uint256)": "1037be21",
					"revokeRole(bytes32,address)": "d547741f",
					"saleCount()": "a1e89aec",
					"selectorImplementation(bytes4)": "50d2a276",
					"supportsInterface(bytes4)": "01ffc9a7",
					"transferAdmin(address)": "75829def"
				}
			},
			"storageLayout": {
				"storage": [
					{
						"astId": 1751,
						"contract": "contracts/L2/L2toL2CrossTradeL21Mock.sol:L2toL2CrossTradeL2",
						"label": "pauseProxy",
						"offset": 0,
						"slot": "0",
						"type": "t_bool"
					},
					{
						"astId": 1755,
						"contract": "contracts/L2/L2toL2CrossTradeL21Mock.sol:L2toL2CrossTradeL2",
						"label": "proxyImplementation",
						"offset": 0,
						"slot": "1",
						"type": "t_mapping(t_uint256,t_address)"
					},
					{
						"astId": 1759,
						"contract": "contracts/L2/L2toL2CrossTradeL21Mock.sol:L2toL2CrossTradeL2",
						"label": "aliveImplementation",
						"offset": 0,
						"slot": "2",
						"type": "t_mapping(t_address,t_bool)"
					},
					{
						"astId": 1763,
						"contract": "contracts/L2/L2toL2CrossTradeL21Mock.sol:L2toL2CrossTradeL2",
						"label": "selectorImplementation",
						"offset": 0,
						"slot": "3",
						"type": "t_mapping(t_bytes4,t_address)"
					},
					{
						"astId": 26,
						"contract": "contracts/L2/L2toL2CrossTradeL21Mock.sol:L2toL2CrossTradeL2",
						"label": "_roles",
						"offset": 0,
						"slot": "4",
						"type": "t_mapping(t_bytes32,t_struct(RoleData)21_storage)"
					},
					{
						"astId": 1283,
						"contract": "contracts/L2/L2toL2CrossTradeL21Mock.sol:L2toL2CrossTradeL2",
						"label": "crossDomainMessenger",
						"offset": 0,
						"slot": "5",
						"type": "t_address"
					},
					{
						"astId": 1285,
						"contract": "contracts/L2/L2toL2CrossTradeL21Mock.sol:L2toL2CrossTradeL2",
						"label": "legacyERC20ETH",
						"offset": 0,
						"slot": "6",
						"type": "t_address"
					},
					{
						"astId": 1287,
						"contract": "contracts/L2/L2toL2CrossTradeL21Mock.sol:L2toL2CrossTradeL2",
						"label": "saleCount",
						"offset": 0,
						"slot": "7",
						"type": "t_uint256"
					},
					{
						"astId": 1292,
						"contract": "contracts/L2/L2toL2CrossTradeL21Mock.sol:L2toL2CrossTradeL2",
						"label": "dealData",
						"offset": 0,
						"slot": "8",
						"type": "t_mapping(t_uint256,t_struct(RequestData)1276_storage)"
					},
					{
						"astId": 1296,
						"contract": "contracts/L2/L2toL2CrossTradeL21Mock.sol:L2toL2CrossTradeL2",
						"label": "registerCheck",
						"offset": 0,
						"slot": "9",
						"type": "t_mapping(t_bytes32,t_bool)"
					},
					{
						"astId": 1301,
						"contract": "contracts/L2/L2toL2CrossTradeL21Mock.sol:L2toL2CrossTradeL2",
						"label": "chainData",
						"offset": 0,
						"slot": "10",
						"type": "t_mapping(t_uint256,t_struct(ChainIdData)1281_storage)"
					},
					{
						"astId": 1775,
						"contract": "contracts/L2/L2toL2CrossTradeL21Mock.sol:L2toL2CrossTradeL2",
						"label": "_status",
						"offset": 0,
						"slot": "11",
						"type": "t_uint256"
					}
				],
				"types": {
					"t_address": {
						"encoding": "inplace",
						"label": "address",
						"numberOfBytes": "20"
					},
					"t_bool": {
						"encoding": "inplace",
						"label": "bool",
						"numberOfBytes": "1"
					},
					"t_bytes32": {
						"encoding": "inplace",
						"label": "bytes32",
						"numberOfBytes": "32"
					},
					"t_bytes4": {
						"encoding": "inplace",
						"label": "bytes4",
						"numberOfBytes": "4"
					},
					"t_mapping(t_address,t_bool)": {
						"encoding": "mapping",
						"key": "t_address",
						"label": "mapping(address => bool)",
						"numberOfBytes": "32",
						"value": "t_bool"
					},
					"t_mapping(t_bytes32,t_bool)": {
						"encoding": "mapping",
						"key": "t_bytes32",
						"label": "mapping(bytes32 => bool)",
						"numberOfBytes": "32",
						"value": "t_bool"
					},
					"t_mapping(t_bytes32,t_struct(RoleData)21_storage)": {
						"encoding": "mapping",
						"key": "t_bytes32",
						"label": "mapping(bytes32 => struct AccessControl.RoleData)",
						"numberOfBytes": "32",
						"value": "t_struct(RoleData)21_storage"
					},
					"t_mapping(t_bytes4,t_address)": {
						"encoding": "mapping",
						"key": "t_bytes4",
						"label": "mapping(bytes4 => address)",
						"numberOfBytes": "32",
						"value": "t_address"
					},
					"t_mapping(t_uint256,t_address)": {
						"encoding": "mapping",
						"key": "t_uint256",
						"label": "mapping(uint256 => address)",
						"numberOfBytes": "32",
						"value": "t_address"
					},
					"t_mapping(t_uint256,t_struct(ChainIdData)1281_storage)": {
						"encoding": "mapping",
						"key": "t_uint256",
						"label": "mapping(uint256 => struct L2toL2CrossTradeStorage.ChainIdData)",
						"numberOfBytes": "32",
						"value": "t_struct(ChainIdData)1281_storage"
					},
					"t_mapping(t_uint256,t_struct(RequestData)1276_storage)": {
						"encoding": "mapping",
						"key": "t_uint256",
						"label": "mapping(uint256 => struct L2toL2CrossTradeStorage.RequestData)",
						"numberOfBytes": "32",
						"value": "t_struct(RequestData)1276_storage"
					},
					"t_struct(ChainIdData)1281_storage": {
						"encoding": "inplace",
						"label": "struct L2toL2CrossTradeStorage.ChainIdData",
						"members": [
							{
								"astId": 1278,
								"contract": "contracts/L2/L2toL2CrossTradeL21Mock.sol:L2toL2CrossTradeL2",
								"label": "l1CrossTradeContract",
								"offset": 0,
								"slot": "0",
								"type": "t_address"
							},
							{
								"astId": 1280,
								"contract": "contracts/L2/L2toL2CrossTradeL21Mock.sol:L2toL2CrossTradeL2",
								"label": "l1TON",
								"offset": 0,
								"slot": "1",
								"type": "t_address"
							}
						],
						"numberOfBytes": "64"
					},
					"t_struct(RequestData)1276_storage": {
						"encoding": "inplace",
						"label": "struct L2toL2CrossTradeStorage.RequestData",
						"members": [
							{
								"astId": 1257,
								"contract": "contracts/L2/L2toL2CrossTradeL21Mock.sol:L2toL2CrossTradeL2",
								"label": "l1token",
								"offset": 0,
								"slot": "0",
								"type": "t_address"
							},
							{
								"astId": 1259,
								"contract": "contracts/L2/L2toL2CrossTradeL21Mock.sol:L2toL2CrossTradeL2",
								"label": "l2SourceToken",
								"offset": 0,
								"slot": "1",
								"type": "t_address"
							},
							{
								"astId": 1261,
								"contract": "contracts/L2/L2toL2CrossTradeL21Mock.sol:L2toL2CrossTradeL2",
								"label": "l2TargetToken",
								"offset": 0,
								"slot": "2",
								"type": "t_address"
							},
							{
								"astId": 1263,
								"contract": "contracts/L2/L2toL2CrossTradeL21Mock.sol:L2toL2CrossTradeL2",
								"label": "requester",
								"offset": 0,
								"slot": "3",
								"type": "t_address"
							},
							{
								"astId": 1265,
								"contract": "contracts/L2/L2toL2CrossTradeL21Mock.sol:L2toL2CrossTradeL2",
								"label": "provider",
								"offset": 0,
								"slot": "4",
								"type": "t_address"
							},
							{
								"astId": 1267,
								"contract": "contracts/L2/L2toL2CrossTradeL21Mock.sol:L2toL2CrossTradeL2",
								"label": "totalAmount",
								"offset": 0,
								"slot": "5",
								"type": "t_uint256"
							},
							{
								"astId": 1269,
								"contract": "contracts/L2/L2toL2CrossTradeL21Mock.sol:L2toL2CrossTradeL2",
								"label": "ctAmount",
								"offset": 0,
								"slot": "6",
								"type": "t_uint256"
							},
							{
								"astId": 1271,
								"contract": "contracts/L2/L2toL2CrossTradeL21Mock.sol:L2toL2CrossTradeL2",
								"label": "l1ChainId",
								"offset": 0,
								"slot": "7",
								"type": "t_uint256"
							},
							{
								"astId": 1273,
								"contract": "contracts/L2/L2toL2CrossTradeL21Mock.sol:L2toL2CrossTradeL2",
								"label": "l2TargetChainId",
								"offset": 0,
								"slot": "8",
								"type": "t_uint256"
							},
							{
								"astId": 1275,
								"contract": "contracts/L2/L2toL2CrossTradeL21Mock.sol:L2toL2CrossTradeL2",
								"label": "hashValue",
								"offset": 0,
								"slot": "9",
								"type": "t_bytes32"
							}
						],
						"numberOfBytes": "320"
					},
					"t_struct(RoleData)21_storage": {
						"encoding": "inplace",
						"label": "struct AccessControl.RoleData",
						"members": [
							{
								"astId": 18,
								"contract": "contracts/L2/L2toL2CrossTradeL21Mock.sol:L2toL2CrossTradeL2",
								"label": "hasRole",
								"offset": 0,
								"slot": "0",
								"type": "t_mapping(t_address,t_bool)"
							},
							{
								"astId": 20,
								"contract": "contracts/L2/L2toL2CrossTradeL21Mock.sol:L2toL2CrossTradeL2",
								"label": "adminRole",
								"offset": 0,
								"slot": "1",
								"type": "t_bytes32"
							}
						],
						"numberOfBytes": "64"
					},
					"t_uint256": {
						"encoding": "inplace",
						"label": "uint256",
						"numberOfBytes": "32"
					}
				}
			},
			"userdoc": {
				"kind": "user",
				"methods": {
					"cancelCT(address,uint256,uint256,uint256,bytes32)": {
						"notice": "When canceling a function called from L1, the amount is given to the requester."
					},
					"claimCT(address,uint256,uint256,uint256,uint256,bytes32)": {
						"notice": "When providing a function called from L1, the amount is given to the provider."
					},
					"deleteToken(address,address,address,uint256,uint256,uint256)": {
						"notice": "Register L1token and L2token and use them in requestRegisteredToken"
					},
					"getHash(address,address,address,address,uint256,uint256,uint256,uint256,uint256,uint256)": {
						"notice": "Function that calculates hash value in L2CrossTradeContract"
					},
					"registerToken(address,address,address,uint256,uint256,uint256)": {
						"notice": "Register L1token and L2token and use them in requestRegisteredToken"
					},
					"requestNonRegisteredToken(address,address,address,uint256,uint256,uint256,uint256)": {
						"notice": "Token transaction request not registered in register"
					},
					"requestRegisteredToken(address,address,address,uint256,uint256,uint256,uint256)": {
						"notice": "Token transaction request registered in register"
					}
				},
				"version": 1
			}
		}
	}
}