{
	"contracts/proxy/ProxyStorage.sol": {
		"ProxyStorage": {
			"abi": [
				{
					"inputs": [
						{
							"internalType": "address",
							"name": "",
							"type": "address"
						}
					],
					"name": "aliveImplementation",
					"outputs": [
						{
							"internalType": "bool",
							"name": "",
							"type": "bool"
						}
					],
					"stateMutability": "view",
					"type": "function"
				},
				{
					"inputs": [],
					"name": "pauseProxy",
					"outputs": [
						{
							"internalType": "bool",
							"name": "",
							"type": "bool"
						}
					],
					"stateMutability": "view",
					"type": "function"
				},
				{
					"inputs": [
						{
							"internalType": "uint256",
							"name": "",
							"type": "uint256"
						}
					],
					"name": "proxyImplementation",
					"outputs": [
						{
							"internalType": "address",
							"name": "",
							"type": "address"
						}
					],
					"stateMutability": "view",
					"type": "function"
				},
				{
					"inputs": [
						{
							"internalType": "bytes4",
							"name": "",
							"type": "bytes4"
						}
					],
					"name": "selectorImplementation",
					"outputs": [
						{
							"internalType": "address",
							"name": "",
							"type": "address"
						}
					],
					"stateMutability": "view",
					"type": "function"
				}
			],
			"devdoc": {
				"kind": "dev",
				"methods": {},
				"version": 1
			},
			"evm": {
				"assembly": "    /* \"contracts/proxy/ProxyStorage.sol\":63:299  contract ProxyStorage  {... */\n  0x80\n  dup1\n  0x40\n  mstore\n  jumpi(tag_1, callvalue)\n  dataSize(sub_0)\n  swap1\n  dup2\n  dataOffset(sub_0)\n  dup3\n  codecopy\n  return\ntag_1:\n  0x00\n  dup1\n  revert\nstop\n\nsub_0: assembly {\n        /* \"contracts/proxy/ProxyStorage.sol\":63:299  contract ProxyStorage  {... */\n      0x80\n      0x40\n      swap1\n      dup1\n      dup3\n      mstore\n      jumpi(tag_1, iszero(lt(calldatasize, 0x04)))\n      0x00\n      dup1\n      revert\n    tag_1:\n      shr(0xe0, calldataload(0x00))\n      swap1\n      dup2\n      0x50d2a276\n      eq\n      tag_3\n      jumpi\n      pop\n      dup1\n      0x550d01a3\n      eq\n      tag_5\n      jumpi\n      dup1\n      0x63a8fd89\n      eq\n      tag_7\n      jumpi\n      0xb911135f\n      eq\n      tag_9\n      jumpi\n      0x00\n      dup1\n      revert\n    tag_9:\n      jumpi(tag_13, callvalue)\n      jumpi(tag_13, slt(add(calldatasize, 0xfffffffffffffffffffffffffffffffffffffffffffffffffffffffffffffffc), 0x20))\n      0x20\n      swap1\n      mstore(0x00, calldataload(0x04))\n      0x01\n      dup3\n      mstore\n      0xffffffffffffffffffffffffffffffffffffffff\n      dup2\n      0x00\n      keccak256\n      sload\n      and\n      swap1\n      mload\n      swap1\n      dup2\n      mstore\n      return\n    tag_13:\n      0x00\n      dup1\n      revert\n    tag_7:\n      pop\n      jumpi(tag_13, callvalue)\n      jumpi(tag_13, slt(add(calldatasize, 0xfffffffffffffffffffffffffffffffffffffffffffffffffffffffffffffffc), 0x00))\n      0x20\n      swap1\n      and(sload(0x00), 0xff)\n      swap1\n      mload\n      swap1\n      iszero\n      iszero\n      dup2\n      mstore\n      return\n    tag_5:\n      pop\n      jumpi(tag_13, callvalue)\n      jumpi(tag_13, slt(add(calldatasize, 0xfffffffffffffffffffffffffffffffffffffffffffffffffffffffffffffffc), 0x20))\n      calldataload(0x04)\n      swap1\n      0xffffffffffffffffffffffffffffffffffffffff\n      dup3\n      and\n      dup1\n      swap3\n      sub\n      tag_13\n      jumpi\n      0x20\n      swap2\n      0x00\n      mstore\n        /* \"contracts/proxy/ProxyStorage.sol\":182:233  mapping(address => bool) public aliveImplementation */\n      0x02\n        /* \"contracts/proxy/ProxyStorage.sol\":63:299  contract ProxyStorage  {... */\n      dup3\n      mstore\n      0xff\n      dup2\n      0x00\n      keccak256\n      sload\n      and\n      swap1\n      mload\n      swap1\n      iszero\n      iszero\n      dup2\n      mstore\n      return\n    tag_3:\n      swap1\n      pop\n      jumpi(tag_13, callvalue)\n      jumpi(tag_13, slt(add(calldatasize, 0xfffffffffffffffffffffffffffffffffffffffffffffffffffffffffffffffc), 0x20))\n      calldataload(0x04)\n      0xffffffff00000000000000000000000000000000000000000000000000000000\n      dup2\n      and\n      dup1\n      swap2\n      sub\n      tag_13\n      jumpi\n      0x20\n      swap3\n      0xffffffffffffffffffffffffffffffffffffffff\n      swap2\n      0x00\n      mstore\n        /* \"contracts/proxy/ProxyStorage.sol\":239:295  mapping(bytes4 => address) public selectorImplementation */\n      0x03\n        /* \"contracts/proxy/ProxyStorage.sol\":63:299  contract ProxyStorage  {... */\n      dup5\n      mstore\n      0x00\n      keccak256\n      sload\n      and\n      dup2\n      mstore\n      return\n\n    auxdata: 0xa26469706673582212204e1e62e357d27d57608a0c495d881bc54ef2096d60678c59d53925353b34a7ff64736f6c63430008180033\n}\n",
				"bytecode": {
					"linkReferences": {},
					"object": "6080806040523461001657610210908161001b8239f35b5f80fdfe60806040908082526004361015610014575f80fd5b5f3560e01c90816350d2a2761461015557508063550d01a3146100ea57806363a8fd89146100aa5763b911135f1461004a575f80fd5b346100a65760207ffffffffffffffffffffffffffffffffffffffffffffffffffffffffffffffffc3601126100a6576020906004355f526001825273ffffffffffffffffffffffffffffffffffffffff815f2054169051908152f35b5f80fd5b50346100a6575f7ffffffffffffffffffffffffffffffffffffffffffffffffffffffffffffffffc3601126100a65760209060ff5f541690519015158152f35b50346100a65760207ffffffffffffffffffffffffffffffffffffffffffffffffffffffffffffffffc3601126100a6576004359073ffffffffffffffffffffffffffffffffffffffff82168092036100a6576020915f526002825260ff815f20541690519015158152f35b9050346100a65760207ffffffffffffffffffffffffffffffffffffffffffffffffffffffffffffffffc3601126100a6576004357fffffffff0000000000000000000000000000000000000000000000000000000081168091036100a65760209273ffffffffffffffffffffffffffffffffffffffff915f52600384525f2054168152f3fea26469706673582212204e1e62e357d27d57608a0c495d881bc54ef2096d60678c59d53925353b34a7ff64736f6c63430008180033",
					"opcodes": "PUSH1 0x80 DUP1 PUSH1 0x40 MSTORE CALLVALUE PUSH2 0x16 JUMPI PUSH2 0x210 SWAP1 DUP2 PUSH2 0x1B DUP3 CODECOPY RETURN JUMPDEST PUSH0 DUP1 REVERT INVALID PUSH1 0x80 PUSH1 0x40 SWAP1 DUP1 DUP3 MSTORE PUSH1 0x4 CALLDATASIZE LT ISZERO PUSH2 0x14 JUMPI PUSH0 DUP1 REVERT JUMPDEST PUSH0 CALLDATALOAD PUSH1 0xE0 SHR SWAP1 DUP2 PUSH4 0x50D2A276 EQ PUSH2 0x155 JUMPI POP DUP1 PUSH4 0x550D01A3 EQ PUSH2 0xEA JUMPI DUP1 PUSH4 0x63A8FD89 EQ PUSH2 0xAA JUMPI PUSH4 0xB911135F EQ PUSH2 0x4A JUMPI PUSH0 DUP1 REVERT JUMPDEST CALLVALUE PUSH2 0xA6 JUMPI PUSH1 0x20 PUSH32 0xFFFFFFFFFFFFFFFFFFFFFFFFFFFFFFFFFFFFFFFFFFFFFFFFFFFFFFFFFFFFFFFC CALLDATASIZE ADD SLT PUSH2 0xA6 JUMPI PUSH1 0x20 SWAP1 PUSH1 0x4 CALLDATALOAD PUSH0 MSTORE PUSH1 0x1 DUP3 MSTORE PUSH20 0xFFFFFFFFFFFFFFFFFFFFFFFFFFFFFFFFFFFFFFFF DUP2 PUSH0 KECCAK256 SLOAD AND SWAP1 MLOAD SWAP1 DUP2 MSTORE RETURN JUMPDEST PUSH0 DUP1 REVERT JUMPDEST POP CALLVALUE PUSH2 0xA6 JUMPI PUSH0 PUSH32 0xFFFFFFFFFFFFFFFFFFFFFFFFFFFFFFFFFFFFFFFFFFFFFFFFFFFFFFFFFFFFFFFC CALLDATASIZE ADD SLT PUSH2 0xA6 JUMPI PUSH1 0x20 SWAP1 PUSH1 0xFF PUSH0 SLOAD AND SWAP1 MLOAD SWAP1 ISZERO ISZERO DUP2 MSTORE RETURN JUMPDEST POP CALLVALUE PUSH2 0xA6 JUMPI PUSH1 0x20 PUSH32 0xFFFFFFFFFFFFFFFFFFFFFFFFFFFFFFFFFFFFFFFFFFFFFFFFFFFFFFFFFFFFFFFC CALLDATASIZE ADD SLT PUSH2 0xA6 JUMPI PUSH1 0x4 CALLDATALOAD SWAP1 PUSH20 0xFFFFFFFFFFFFFFFFFFFFFFFFFFFFFFFFFFFFFFFF DUP3 AND DUP1 SWAP3 SUB PUSH2 0xA6 JUMPI PUSH1 0x20 SWAP2 PUSH0 MSTORE PUSH1 0x2 DUP3 MSTORE PUSH1 0xFF DUP2 PUSH0 KECCAK256 SLOAD AND SWAP1 MLOAD SWAP1 ISZERO ISZERO DUP2 MSTORE RETURN JUMPDEST SWAP1 POP CALLVALUE PUSH2 0xA6 JUMPI PUSH1 0x20 PUSH32 0xFFFFFFFFFFFFFFFFFFFFFFFFFFFFFFFFFFFFFFFFFFFFFFFFFFFFFFFFFFFFFFFC CALLDATASIZE ADD SLT PUSH2 0xA6 JUMPI PUSH1 0x4 CALLDATALOAD PUSH32 0xFFFFFFFF00000000000000000000000000000000000000000000000000000000 DUP2 AND DUP1 SWAP2 SUB PUSH2 0xA6 JUMPI PUSH1 0x20 SWAP3 PUSH20 0xFFFFFFFFFFFFFFFFFFFFFFFFFFFFFFFFFFFFFFFF SWAP2 PUSH0 MSTORE PUSH1 0x3 DUP5 MSTORE PUSH0 KECCAK256 SLOAD AND DUP2 MSTORE RETURN INVALID LOG2 PUSH5 0x6970667358 0x22 SLT KECCAK256 0x4E 0x1E PUSH3 0xE357D2 PUSH30 0x57608A0C495D881BC54EF2096D60678C59D53925353B34A7FF64736F6C63 NUMBER STOP ADDMOD XOR STOP CALLER "
				},
				"gasEstimates": {
					"creation": {
						"codeDepositCost": "105600",
						"executionCost": "159",
						"totalCost": "105759"
					},
					"external": {
						"aliveImplementation(address)": "2397",
						"pauseProxy()": "2319",
						"proxyImplementation(uint256)": "2396",
						"selectorImplementation(bytes4)": "2358"
					}
				},
				"methodIdentifiers": {
					"aliveImplementation(address)": "550d01a3",
					"pauseProxy()": "63a8fd89",
					"proxyImplementation(uint256)": "b911135f",
					"selectorImplementation(bytes4)": "50d2a276"
				}
			},
			"storageLayout": {
				"storage": [
					{
						"astId": 1102,
						"contract": "contracts/proxy/ProxyStorage.sol:ProxyStorage",
						"label": "pauseProxy",
						"offset": 0,
						"slot": "0",
						"type": "t_bool"
					},
					{
						"astId": 1106,
						"contract": "contracts/proxy/ProxyStorage.sol:ProxyStorage",
						"label": "proxyImplementation",
						"offset": 0,
						"slot": "1",
						"type": "t_mapping(t_uint256,t_address)"
					},
					{
						"astId": 1110,
						"contract": "contracts/proxy/ProxyStorage.sol:ProxyStorage",
						"label": "aliveImplementation",
						"offset": 0,
						"slot": "2",
						"type": "t_mapping(t_address,t_bool)"
					},
					{
						"astId": 1114,
						"contract": "contracts/proxy/ProxyStorage.sol:ProxyStorage",
						"label": "selectorImplementation",
						"offset": 0,
						"slot": "3",
						"type": "t_mapping(t_bytes4,t_address)"
					}
				],
				"types": {
					"t_address": {
						"encoding": "inplace",
						"label": "address",
						"numberOfBytes": "20"
					},
					"t_bool": {
						"encoding": "inplace",
						"label": "bool",
						"numberOfBytes": "1"
					},
					"t_bytes4": {
						"encoding": "inplace",
						"label": "bytes4",
						"numberOfBytes": "4"
					},
					"t_mapping(t_address,t_bool)": {
						"encoding": "mapping",
						"key": "t_address",
						"label": "mapping(address => bool)",
						"numberOfBytes": "32",
						"value": "t_bool"
					},
					"t_mapping(t_bytes4,t_address)": {
						"encoding": "mapping",
						"key": "t_bytes4",
						"label": "mapping(bytes4 => address)",
						"numberOfBytes": "32",
						"value": "t_address"
					},
					"t_mapping(t_uint256,t_address)": {
						"encoding": "mapping",
						"key": "t_uint256",
						"label": "mapping(uint256 => address)",
						"numberOfBytes": "32",
						"value": "t_address"
					},
					"t_uint256": {
						"encoding": "inplace",
						"label": "uint256",
						"numberOfBytes": "32"
					}
				}
			},
			"userdoc": {
				"kind": "user",
				"methods": {},
				"version": 1
			}
		}
	}
}