{
	"contracts/common/AccessRoleCommon.sol": {
		"AccessRoleCommon": {
			"abi": [
				{
					"inputs": [],
					"name": "ADMIN_ROLE",
					"outputs": [
						{
							"internalType": "bytes32",
							"name": "",
							"type": "bytes32"
						}
					],
					"stateMutability": "view",
					"type": "function"
				},
				{
					"inputs": [],
					"name": "POLICY_ROLE",
					"outputs": [
						{
							"internalType": "bytes32",
							"name": "",
							"type": "bytes32"
						}
					],
					"stateMutability": "view",
					"type": "function"
				}
			],
			"devdoc": {
				"kind": "dev",
				"methods": {},
				"version": 1
			},
			"evm": {
				"assembly": "    /* \"contracts/common/AccessRoleCommon.sol\":58:216  contract AccessRoleCommon {... */\n  0x80\n  dup1\n  0x40\n  mstore\n  jumpi(tag_1, callvalue)\n  dataSize(sub_0)\n  swap1\n  dup2\n  dataOffset(sub_0)\n  dup3\n  codecopy\n  return\ntag_1:\n  0x00\n  dup1\n  revert\nstop\n\nsub_0: assembly {\n        /* \"contracts/common/AccessRoleCommon.sol\":58:216  contract AccessRoleCommon {... */\n      0x80\n      dup1\n      0x40\n      mstore\n      jumpi(tag_1, iszero(lt(calldatasize, 0x04)))\n      0x00\n      dup1\n      revert\n    tag_1:\n      shr(0xe0, calldataload(0x00))\n      swap1\n      dup2\n      0x22985246\n      eq\n      tag_3\n      jumpi\n      pop\n      0x75b238fc\n      eq\n      tag_5\n      jumpi\n      0x00\n      dup1\n      revert\n    tag_5:\n      jumpi(tag_9, callvalue)\n      jumpi(tag_9, slt(add(calldatasize, 0xfffffffffffffffffffffffffffffffffffffffffffffffffffffffffffffffc), 0x00))\n      0x20\n      mload(0x40)\n        /* \"contracts/common/AccessRoleCommon.sol\":127:145  keccak256(\"ADMIN\") */\n      0xdf8b4c520ffe197c5343c6f5aec59570151ef9a492f2c624fd45ddde6135ec42\n        /* \"contracts/common/AccessRoleCommon.sol\":58:216  contract AccessRoleCommon {... */\n      dup2\n      mstore\n      return\n    tag_9:\n      0x00\n      dup1\n      revert\n    tag_3:\n      jumpi(tag_9, callvalue)\n      jumpi(tag_9, slt(add(calldatasize, 0xfffffffffffffffffffffffffffffffffffffffffffffffffffffffffffffffc), 0x00))\n      dup1\n        /* \"contracts/common/AccessRoleCommon.sol\":189:213  keccak256(\"POLICY_ROLE\") */\n      0xfb5864e8ff833c3cb2d2d08505e82ff02a43554c74a35d4f5a64e85261278311\n        /* \"contracts/common/AccessRoleCommon.sol\":58:216  contract AccessRoleCommon {... */\n      0x20\n      swap3\n      mstore\n      return\n\n    auxdata: 0xa26469706673582212200b8521188338e9bc0f453b75373e9c395ee20cef39ca1e16b2deb5b34a67a1b164736f6c63430008180033\n}\n",
				"bytecode": {
					"linkReferences": {},
					"object": "6080806040523461001657610113908161001b8239f35b5f80fdfe60808060405260043610156011575f80fd5b5f3560e01c9081632298524614608957506375b238fc14602f575f80fd5b346085575f7ffffffffffffffffffffffffffffffffffffffffffffffffffffffffffffffffc36011260855760206040517fdf8b4c520ffe197c5343c6f5aec59570151ef9a492f2c624fd45ddde6135ec428152f35b5f80fd5b346085575f7ffffffffffffffffffffffffffffffffffffffffffffffffffffffffffffffffc360112608557807ffb5864e8ff833c3cb2d2d08505e82ff02a43554c74a35d4f5a64e8526127831160209252f3fea26469706673582212200b8521188338e9bc0f453b75373e9c395ee20cef39ca1e16b2deb5b34a67a1b164736f6c63430008180033",
					"opcodes": "PUSH1 0x80 DUP1 PUSH1 0x40 MSTORE CALLVALUE PUSH2 0x16 JUMPI PUSH2 0x113 SWAP1 DUP2 PUSH2 0x1B DUP3 CODECOPY RETURN JUMPDEST PUSH0 DUP1 REVERT INVALID PUSH1 0x80 DUP1 PUSH1 0x40 MSTORE PUSH1 0x4 CALLDATASIZE LT ISZERO PUSH1 0x11 JUMPI PUSH0 DUP1 REVERT JUMPDEST PUSH0 CALLDATALOAD PUSH1 0xE0 SHR SWAP1 DUP2 PUSH4 0x22985246 EQ PUSH1 0x89 JUMPI POP PUSH4 0x75B238FC EQ PUSH1 0x2F JUMPI PUSH0 DUP1 REVERT JUMPDEST CALLVALUE PUSH1 0x85 JUMPI PUSH0 PUSH32 0xFFFFFFFFFFFFFFFFFFFFFFFFFFFFFFFFFFFFFFFFFFFFFFFFFFFFFFFFFFFFFFFC CALLDATASIZE ADD SLT PUSH1 0x85 JUMPI PUSH1 0x20 PUSH1 0x40 MLOAD PUSH32 0xDF8B4C520FFE197C5343C6F5AEC59570151EF9A492F2C624FD45DDDE6135EC42 DUP2 MSTORE RETURN JUMPDEST PUSH0 DUP1 REVERT JUMPDEST CALLVALUE PUSH1 0x85 JUMPI PUSH0 PUSH32 0xFFFFFFFFFFFFFFFFFFFFFFFFFFFFFFFFFFFFFFFFFFFFFFFFFFFFFFFFFFFFFFFC CALLDATASIZE ADD SLT PUSH1 0x85 JUMPI DUP1 PUSH32 0xFB5864E8FF833C3CB2D2D08505E82FF02A43554C74A35D4F5A64E85261278311 PUSH1 0x20 SWAP3 MSTORE RETURN INVALID LOG2 PUSH5 0x6970667358 0x22 SLT KECCAK256 SIGNEXTEND DUP6 0x21 XOR DUP4 CODESIZE 0xE9 0xBC 0xF GASLIMIT EXTCODESIZE PUSH22 0x373E9C395EE20CEF39CA1E16B2DEB5B34A67A1B16473 PUSH16 0x6C634300081800330000000000000000 "
				},
				"gasEstimates": {
					"creation": {
						"codeDepositCost": "55000",
						"executionCost": "111",
						"totalCost": "55111"
					},
					"external": {
						"ADMIN_ROLE()": "169",
						"POLICY_ROLE()": "145"
					}
				},
				"methodIdentifiers": {
					"ADMIN_ROLE()": "75b238fc",
					"POLICY_ROLE()": "22985246"
				}
			},
			"storageLayout": {
				"storage": [],
				"types": null
			},
			"userdoc": {
				"kind": "user",
				"methods": {},
				"version": 1
			}
		}
	}
}