{
	"contracts/L2/L2toL2CrossTradeStorage.sol": {
		"L2toL2CrossTradeStorage": {
			"abi": [
				{
					"inputs": [
						{
							"internalType": "uint256",
							"name": "",
							"type": "uint256"
						}
					],
					"name": "chainData",
					"outputs": [
						{
							"internalType": "address",
							"name": "l1CrossTradeContract",
							"type": "address"
						},
						{
							"internalType": "address",
							"name": "l1TON",
							"type": "address"
						}
					],
					"stateMutability": "view",
					"type": "function"
				},
				{
					"inputs": [],
					"name": "crossDomainMessenger",
					"outputs": [
						{
							"internalType": "address",
							"name": "",
							"type": "address"
						}
					],
					"stateMutability": "view",
					"type": "function"
				},
				{
					"inputs": [
						{
							"internalType": "uint256",
							"name": "",
							"type": "uint256"
						}
					],
					"name": "dealData",
					"outputs": [
						{
							"internalType": "address",
							"name": "l1token",
							"type": "address"
						},
						{
							"internalType": "address",
							"name": "l2SourceToken",
							"type": "address"
						},
						{
							"internalType": "address",
							"name": "l2TargetToken",
							"type": "address"
						},
						{
							"internalType": "address",
							"name": "requester",
							"type": "address"
						},
						{
							"internalType": "address",
							"name": "provider",
							"type": "address"
						},
						{
							"internalType": "uint256",
							"name": "totalAmount",
							"type": "uint256"
						},
						{
							"internalType": "uint256",
							"name": "ctAmount",
							"type": "uint256"
						},
						{
							"internalType": "uint256",
							"name": "l1ChainId",
							"type": "uint256"
						},
						{
							"internalType": "uint256",
							"name": "l2TargetChainId",
							"type": "uint256"
						},
						{
							"internalType": "bytes32",
							"name": "hashValue",
							"type": "bytes32"
						}
					],
					"stateMutability": "view",
					"type": "function"
				},
				{
					"inputs": [],
					"name": "legacyERC20ETH",
					"outputs": [
						{
							"internalType": "address",
							"name": "",
							"type": "address"
						}
					],
					"stateMutability": "view",
					"type": "function"
				},
				{
					"inputs": [],
					"name": "saleCount",
					"outputs": [
						{
							"internalType": "uint256",
							"name": "",
							"type": "uint256"
						}
					],
					"stateMutability": "view",
					"type": "function"
				}
			],
			"devdoc": {
				"kind": "dev",
				"methods": {},
				"version": 1
			},
			"evm": {
				"assembly": "    /* \"contracts/L2/L2toL2CrossTradeStorage.sol\":63:919  contract L2toL2CrossTradeStorage {... */\n  0x80\n  dup1\n  0x40\n  mstore\n  jumpi(tag_1, callvalue)\n  dataSize(sub_0)\n  swap1\n  dup2\n  dataOffset(sub_0)\n  dup3\n  codecopy\n  return\ntag_1:\n  0x00\n  dup1\n  revert\nstop\n\nsub_0: assembly {\n        /* \"contracts/L2/L2toL2CrossTradeStorage.sol\":63:919  contract L2toL2CrossTradeStorage {... */\n      0x80\n      0x40\n      swap1\n      dup1\n      dup3\n      mstore\n      jumpi(tag_1, iszero(lt(calldatasize, 0x04)))\n      0x00\n      dup1\n      revert\n    tag_1:\n      shr(0xe0, calldataload(0x00))\n      swap1\n      dup2\n      0x16e01724\n      eq\n      tag_3\n      jumpi\n      pop\n      dup1\n      0xa1e89aec\n      eq\n      tag_5\n      jumpi\n      dup1\n      0xe59f69c2\n      eq\n      tag_7\n      jumpi\n      dup1\n      0xf43b3613\n      eq\n      tag_9\n      jumpi\n      0xf5869c2f\n      eq\n      tag_11\n      jumpi\n      0x00\n      dup1\n      revert\n    tag_11:\n      jumpi(tag_15, callvalue)\n      jumpi(tag_15, slt(add(calldatasize, 0xfffffffffffffffffffffffffffffffffffffffffffffffffffffffffffffffc), 0x20))\n      0x0140\n      swap1\n      mstore(0x00, calldataload(0x04))\n        /* \"contracts/L2/L2toL2CrossTradeStorage.sol\":647:694  mapping(uint256 => RequestData) public dealData */\n      0x03\n        /* \"contracts/L2/L2toL2CrossTradeStorage.sol\":63:919  contract L2toL2CrossTradeStorage {... */\n      0x20\n      mstore\n      dup1\n      0x00\n      keccak256\n      0xffffffffffffffffffffffffffffffffffffffff\n      swap1\n      dup2\n      dup2\n      sload\n      and\n        /* \"contracts/L2/L2toL2CrossTradeStorage.sol\":647:694  mapping(uint256 => RequestData) public dealData */\n      swap3\n      dup3\n        /* \"contracts/L2/L2toL2CrossTradeStorage.sol\":63:919  contract L2toL2CrossTradeStorage {... */\n      0x01\n        /* \"contracts/L2/L2toL2CrossTradeStorage.sol\":647:694  mapping(uint256 => RequestData) public dealData */\n      dup4\n      add\n        /* \"contracts/L2/L2toL2CrossTradeStorage.sol\":63:919  contract L2toL2CrossTradeStorage {... */\n      sload\n      and\n        /* \"contracts/L2/L2toL2CrossTradeStorage.sol\":647:694  mapping(uint256 => RequestData) public dealData */\n      swap3\n      dup1\n      0x02\n      dup5\n      add\n        /* \"contracts/L2/L2toL2CrossTradeStorage.sol\":63:919  contract L2toL2CrossTradeStorage {... */\n      sload\n      and\n        /* \"contracts/L2/L2toL2CrossTradeStorage.sol\":647:694  mapping(uint256 => RequestData) public dealData */\n      swap1\n      dup1\n      0x03\n      dup6\n      add\n        /* \"contracts/L2/L2toL2CrossTradeStorage.sol\":63:919  contract L2toL2CrossTradeStorage {... */\n      sload\n      and\n        /* \"contracts/L2/L2toL2CrossTradeStorage.sol\":647:694  mapping(uint256 => RequestData) public dealData */\n      swap1\n        /* \"contracts/L2/L2toL2CrossTradeStorage.sol\":63:919  contract L2toL2CrossTradeStorage {... */\n      0x04\n        /* \"contracts/L2/L2toL2CrossTradeStorage.sol\":647:694  mapping(uint256 => RequestData) public dealData */\n      dup6\n      add\n        /* \"contracts/L2/L2toL2CrossTradeStorage.sol\":63:919  contract L2toL2CrossTradeStorage {... */\n      sload\n      and\n        /* \"contracts/L2/L2toL2CrossTradeStorage.sol\":647:694  mapping(uint256 => RequestData) public dealData */\n      0x05\n      dup6\n      add\n        /* \"contracts/L2/L2toL2CrossTradeStorage.sol\":63:919  contract L2toL2CrossTradeStorage {... */\n      sload\n        /* \"contracts/L2/L2toL2CrossTradeStorage.sol\":647:694  mapping(uint256 => RequestData) public dealData */\n      swap2\n      0x06\n      dup7\n      add\n        /* \"contracts/L2/L2toL2CrossTradeStorage.sol\":63:919  contract L2toL2CrossTradeStorage {... */\n      sload\n        /* \"contracts/L2/L2toL2CrossTradeStorage.sol\":647:694  mapping(uint256 => RequestData) public dealData */\n      swap4\n      0x07\n      dup8\n      add\n        /* \"contracts/L2/L2toL2CrossTradeStorage.sol\":63:919  contract L2toL2CrossTradeStorage {... */\n      sload\n        /* \"contracts/L2/L2toL2CrossTradeStorage.sol\":647:694  mapping(uint256 => RequestData) public dealData */\n      swap6\n      0x09\n      0x08\n      dup10\n      add\n        /* \"contracts/L2/L2toL2CrossTradeStorage.sol\":63:919  contract L2toL2CrossTradeStorage {... */\n      sload\n        /* \"contracts/L2/L2toL2CrossTradeStorage.sol\":647:694  mapping(uint256 => RequestData) public dealData */\n      swap9\n      add\n        /* \"contracts/L2/L2toL2CrossTradeStorage.sol\":63:919  contract L2toL2CrossTradeStorage {... */\n      sload\n      swap9\n      dup2\n      mload\n      swap11\n      dup12\n      mstore\n      0x20\n      dup12\n      add\n      mstore\n      dup10\n      add\n      mstore\n      0x60\n      dup9\n      add\n      mstore\n      0x80\n      dup8\n      add\n      mstore\n      0xa0\n      dup7\n      add\n      mstore\n      0xc0\n      dup6\n      add\n      mstore\n      0xe0\n      dup5\n      add\n      mstore\n      0x0100\n      dup4\n      add\n      mstore\n      0x0120\n      dup3\n      add\n      mstore\n      return\n    tag_15:\n      0x00\n      dup1\n      revert\n    tag_9:\n      pop\n      jumpi(tag_15, callvalue)\n      jumpi(tag_15, slt(add(calldatasize, 0xfffffffffffffffffffffffffffffffffffffffffffffffffffffffffffffffc), 0x00))\n      0x20\n      swap1\n      and(sload(0x00), 0xffffffffffffffffffffffffffffffffffffffff)\n      swap1\n      mload\n      swap1\n      dup2\n      mstore\n      return\n    tag_7:\n      pop\n      jumpi(tag_15, callvalue)\n      jumpi(tag_15, slt(add(calldatasize, 0xfffffffffffffffffffffffffffffffffffffffffffffffffffffffffffffffc), 0x20))\n      mstore(0x00, calldataload(0x04))\n        /* \"contracts/L2/L2toL2CrossTradeStorage.sol\":867:915  mapping(uint256 => ChainIdData) public chainData */\n      0x05\n        /* \"contracts/L2/L2toL2CrossTradeStorage.sol\":63:919  contract L2toL2CrossTradeStorage {... */\n      0x20\n      mstore\n      dup1\n      0x00\n      keccak256\n      0xffffffffffffffffffffffffffffffffffffffff\n      0x01\n      dup2\n      dup4\n      sload\n      and\n        /* \"contracts/L2/L2toL2CrossTradeStorage.sol\":867:915  mapping(uint256 => ChainIdData) public chainData */\n      swap3\n      add\n        /* \"contracts/L2/L2toL2CrossTradeStorage.sol\":63:919  contract L2toL2CrossTradeStorage {... */\n      sload\n      and\n      dup3\n      mload\n      swap2\n      dup3\n      mstore\n      0x20\n      dup3\n      add\n      mstore\n      return\n    tag_5:\n      pop\n      jumpi(tag_15, callvalue)\n      jumpi(tag_15, slt(add(calldatasize, 0xfffffffffffffffffffffffffffffffffffffffffffffffffffffffffffffffc), 0x00))\n      0x20\n      swap1\n        /* \"contracts/L2/L2toL2CrossTradeStorage.sol\":587:611  uint256 public saleCount */\n      0x02\n        /* \"contracts/L2/L2toL2CrossTradeStorage.sol\":63:919  contract L2toL2CrossTradeStorage {... */\n      sload\n      swap1\n      mload\n      swap1\n      dup2\n      mstore\n      return\n    tag_3:\n      jumpi(tag_15, callvalue)\n      jumpi(tag_15, slt(add(calldatasize, 0xfffffffffffffffffffffffffffffffffffffffffffffffffffffffffffffffc), 0x00))\n      0x20\n      swap1\n      0xffffffffffffffffffffffffffffffffffffffff\n        /* \"contracts/L2/L2toL2CrossTradeStorage.sol\":551:580  address public legacyERC20ETH */\n      0x01\n        /* \"contracts/L2/L2toL2CrossTradeStorage.sol\":63:919  contract L2toL2CrossTradeStorage {... */\n      sload\n      and\n      dup2\n      mstore\n      return\n\n    auxdata: 0xa2646970667358221220834fba0489962334a40fa6e2ffae621248585bc1fcfb0c292d8ee7ae69065fb064736f6c63430008180033\n}\n",
				"bytecode": {
					"linkReferences": {},
					"object": "608080604052346100165761029c908161001b8239f35b5f80fdfe60806040908082526004361015610014575f80fd5b5f3560e01c90816316e017241461021857508063a1e89aec146101dc578063e59f69c214610174578063f43b3613146101235763f5869c2f14610055575f80fd5b3461011f5760207ffffffffffffffffffffffffffffffffffffffffffffffffffffffffffffffffc36011261011f57610140906004355f526003602052805f2073ffffffffffffffffffffffffffffffffffffffff908181541692826001830154169280600284015416908060038501541690600485015416600585015491600686015493600787015495600960088901549801549881519a8b5260208b01528901526060880152608087015260a086015260c085015260e0840152610100830152610120820152f35b5f80fd5b503461011f575f7ffffffffffffffffffffffffffffffffffffffffffffffffffffffffffffffffc36011261011f5760209073ffffffffffffffffffffffffffffffffffffffff5f54169051908152f35b503461011f5760207ffffffffffffffffffffffffffffffffffffffffffffffffffffffffffffffffc36011261011f576004355f526005602052805f2073ffffffffffffffffffffffffffffffffffffffff6001818354169201541682519182526020820152f35b503461011f575f7ffffffffffffffffffffffffffffffffffffffffffffffffffffffffffffffffc36011261011f576020906002549051908152f35b3461011f575f7ffffffffffffffffffffffffffffffffffffffffffffffffffffffffffffffffc36011261011f5760209073ffffffffffffffffffffffffffffffffffffffff600154168152f3fea2646970667358221220834fba0489962334a40fa6e2ffae621248585bc1fcfb0c292d8ee7ae69065fb064736f6c63430008180033",
					"opcodes": "PUSH1 0x80 DUP1 PUSH1 0x40 MSTORE CALLVALUE PUSH2 0x16 JUMPI PUSH2 0x29C SWAP1 DUP2 PUSH2 0x1B DUP3 CODECOPY RETURN JUMPDEST PUSH0 DUP1 REVERT INVALID PUSH1 0x80 PUSH1 0x40 SWAP1 DUP1 DUP3 MSTORE PUSH1 0x4 CALLDATASIZE LT ISZERO PUSH2 0x14 JUMPI PUSH0 DUP1 REVERT JUMPDEST PUSH0 CALLDATALOAD PUSH1 0xE0 SHR SWAP1 DUP2 PUSH4 0x16E01724 EQ PUSH2 0x218 JUMPI POP DUP1 PUSH4 0xA1E89AEC EQ PUSH2 0x1DC JUMPI DUP1 PUSH4 0xE59F69C2 EQ PUSH2 0x174 JUMPI DUP1 PUSH4 0xF43B3613 EQ PUSH2 0x123 JUMPI PUSH4 0xF5869C2F EQ PUSH2 0x55 JUMPI PUSH0 DUP1 REVERT JUMPDEST CALLVALUE PUSH2 0x11F JUMPI PUSH1 0x20 PUSH32 0xFFFFFFFFFFFFFFFFFFFFFFFFFFFFFFFFFFFFFFFFFFFFFFFFFFFFFFFFFFFFFFFC CALLDATASIZE ADD SLT PUSH2 0x11F JUMPI PUSH2 0x140 SWAP1 PUSH1 0x4 CALLDATALOAD PUSH0 MSTORE PUSH1 0x3 PUSH1 0x20 MSTORE DUP1 PUSH0 KECCAK256 PUSH20 0xFFFFFFFFFFFFFFFFFFFFFFFFFFFFFFFFFFFFFFFF SWAP1 DUP2 DUP2 SLOAD AND SWAP3 DUP3 PUSH1 0x1 DUP4 ADD SLOAD AND SWAP3 DUP1 PUSH1 0x2 DUP5 ADD SLOAD AND SWAP1 DUP1 PUSH1 0x3 DUP6 ADD SLOAD AND SWAP1 PUSH1 0x4 DUP6 ADD SLOAD AND PUSH1 0x5 DUP6 ADD SLOAD SWAP2 PUSH1 0x6 DUP7 ADD SLOAD SWAP4 PUSH1 0x7 DUP8 ADD SLOAD SWAP6 PUSH1 0x9 PUSH1 0x8 DUP10 ADD SLOAD SWAP9 ADD SLOAD SWAP9 DUP2 MLOAD SWAP11 DUP12 MSTORE PUSH1 0x20 DUP12 ADD MSTORE DUP10 ADD MSTORE PUSH1 0x60 DUP9 ADD MSTORE PUSH1 0x80 DUP8 ADD MSTORE PUSH1 0xA0 DUP7 ADD MSTORE PUSH1 0xC0 DUP6 ADD MSTORE PUSH1 0xE0 DUP5 ADD MSTORE PUSH2 0x100 DUP4 ADD MSTORE PUSH2 0x120 DUP3 ADD MSTORE RETURN JUMPDEST PUSH0 DUP1 REVERT JUMPDEST POP CALLVALUE PUSH2 0x11F JUMPI PUSH0 PUSH32 0xFFFFFFFFFFFFFFFFFFFFFFFFFFFFFFFFFFFFFFFFFFFFFFFFFFFFFFFFFFFFFFFC CALLDATASIZE ADD SLT PUSH2 0x11F JUMPI PUSH1 0x20 SWAP1 PUSH20 0xFFFFFFFFFFFFFFFFFFFFFFFFFFFFFFFFFFFFFFFF PUSH0 SLOAD AND SWAP1 MLOAD SWAP1 DUP2 MSTORE RETURN JUMPDEST POP CALLVALUE PUSH2 0x11F JUMPI PUSH1 0x20 PUSH32 0xFFFFFFFFFFFFFFFFFFFFFFFFFFFFFFFFFFFFFFFFFFFFFFFFFFFFFFFFFFFFFFFC CALLDATASIZE ADD SLT PUSH2 0x11F JUMPI PUSH1 0x4 CALLDATALOAD PUSH0 MSTORE PUSH1 0x5 PUSH1 0x20 MSTORE DUP1 PUSH0 KECCAK256 PUSH20 0xFFFFFFFFFFFFFFFFFFFFFFFFFFFFFFFFFFFFFFFF PUSH1 0x1 DUP2 DUP4 SLOAD AND SWAP3 ADD SLOAD AND DUP3 MLOAD SWAP2 DUP3 MSTORE PUSH1 0x20 DUP3 ADD MSTORE RETURN JUMPDEST POP CALLVALUE PUSH2 0x11F JUMPI PUSH0 PUSH32 0xFFFFFFFFFFFFFFFFFFFFFFFFFFFFFFFFFFFFFFFFFFFFFFFFFFFFFFFFFFFFFFFC CALLDATASIZE ADD SLT PUSH2 0x11F JUMPI PUSH1 0x20 SWAP1 PUSH1 0x2 SLOAD SWAP1 MLOAD SWAP1 DUP2 MSTORE RETURN JUMPDEST CALLVALUE PUSH2 0x11F JUMPI PUSH0 PUSH32 0xFFFFFFFFFFFFFFFFFFFFFFFFFFFFFFFFFFFFFFFFFFFFFFFFFFFFFFFFFFFFFFFC CALLDATASIZE ADD SLT PUSH2 0x11F JUMPI PUSH1 0x20 SWAP1 PUSH20 0xFFFFFFFFFFFFFFFFFFFFFFFFFFFFFFFFFFFFFFFF PUSH1 0x1 SLOAD AND DUP2 MSTORE RETURN INVALID LOG2 PUSH5 0x6970667358 0x22 SLT KECCAK256 DUP4 0x4F 0xBA DIV DUP10 SWAP7 0x23 CALLVALUE LOG4 0xF 0xA6 0xE2 SELFDESTRUCT 0xAE PUSH3 0x124858 JUMPDEST 0xC1 0xFC 0xFB 0xC 0x29 0x2D DUP15 0xE7 0xAE PUSH10 0x65FB064736F6C634300 ADDMOD XOR STOP CALLER "
				},
				"gasEstimates": {
					"creation": {
						"codeDepositCost": "133600",
						"executionCost": "184",
						"totalCost": "133784"
					},
					"external": {
						"chainData(uint256)": "4506",
						"crossDomainMessenger()": "2335",
						"dealData(uint256)": "21585",
						"legacyERC20ETH()": "2257",
						"saleCount()": "2286"
					}
				},
				"methodIdentifiers": {
					"chainData(uint256)": "e59f69c2",
					"crossDomainMessenger()": "f43b3613",
					"dealData(uint256)": "f5869c2f",
					"legacyERC20ETH()": "16e01724",
					"saleCount()": "a1e89aec"
				}
			},
			"storageLayout": {
				"storage": [
					{
						"astId": 526,
						"contract": "contracts/L2/L2toL2CrossTradeStorage.sol:L2toL2CrossTradeStorage",
						"label": "crossDomainMessenger",
						"offset": 0,
						"slot": "0",
						"type": "t_address"
					},
					{
						"astId": 528,
						"contract": "contracts/L2/L2toL2CrossTradeStorage.sol:L2toL2CrossTradeStorage",
						"label": "legacyERC20ETH",
						"offset": 0,
						"slot": "1",
						"type": "t_address"
					},
					{
						"astId": 530,
						"contract": "contracts/L2/L2toL2CrossTradeStorage.sol:L2toL2CrossTradeStorage",
						"label": "saleCount",
						"offset": 0,
						"slot": "2",
						"type": "t_uint256"
					},
					{
						"astId": 535,
						"contract": "contracts/L2/L2toL2CrossTradeStorage.sol:L2toL2CrossTradeStorage",
						"label": "dealData",
						"offset": 0,
						"slot": "3",
						"type": "t_mapping(t_uint256,t_struct(RequestData)519_storage)"
					},
					{
						"astId": 539,
						"contract": "contracts/L2/L2toL2CrossTradeStorage.sol:L2toL2CrossTradeStorage",
						"label": "registerCheck",
						"offset": 0,
						"slot": "4",
						"type": "t_mapping(t_bytes32,t_bool)"
					},
					{
						"astId": 544,
						"contract": "contracts/L2/L2toL2CrossTradeStorage.sol:L2toL2CrossTradeStorage",
						"label": "chainData",
						"offset": 0,
						"slot": "5",
						"type": "t_mapping(t_uint256,t_struct(ChainIdData)524_storage)"
					}
				],
				"types": {
					"t_address": {
						"encoding": "inplace",
						"label": "address",
						"numberOfBytes": "20"
					},
					"t_bool": {
						"encoding": "inplace",
						"label": "bool",
						"numberOfBytes": "1"
					},
					"t_bytes32": {
						"encoding": "inplace",
						"label": "bytes32",
						"numberOfBytes": "32"
					},
					"t_mapping(t_bytes32,t_bool)": {
						"encoding": "mapping",
						"key": "t_bytes32",
						"label": "mapping(bytes32 => bool)",
						"numberOfBytes": "32",
						"value": "t_bool"
					},
					"t_mapping(t_uint256,t_struct(ChainIdData)524_storage)": {
						"encoding": "mapping",
						"key": "t_uint256",
						"label": "mapping(uint256 => struct L2toL2CrossTradeStorage.ChainIdData)",
						"numberOfBytes": "32",
						"value": "t_struct(ChainIdData)524_storage"
					},
					"t_mapping(t_uint256,t_struct(RequestData)519_storage)": {
						"encoding": "mapping",
						"key": "t_uint256",
						"label": "mapping(uint256 => struct L2toL2CrossTradeStorage.RequestData)",
						"numberOfBytes": "32",
						"value": "t_struct(RequestData)519_storage"
					},
					"t_struct(ChainIdData)524_storage": {
						"encoding": "inplace",
						"label": "struct L2toL2CrossTradeStorage.ChainIdData",
						"members": [
							{
								"astId": 521,
								"contract": "contracts/L2/L2toL2CrossTradeStorage.sol:L2toL2CrossTradeStorage",
								"label": "l1CrossTradeContract",
								"offset": 0,
								"slot": "0",
								"type": "t_address"
							},
							{
								"astId": 523,
								"contract": "contracts/L2/L2toL2CrossTradeStorage.sol:L2toL2CrossTradeStorage",
								"label": "l1TON",
								"offset": 0,
								"slot": "1",
								"type": "t_address"
							}
						],
						"numberOfBytes": "64"
					},
					"t_struct(RequestData)519_storage": {
						"encoding": "inplace",
						"label": "struct L2toL2CrossTradeStorage.RequestData",
						"members": [
							{
								"astId": 500,
								"contract": "contracts/L2/L2toL2CrossTradeStorage.sol:L2toL2CrossTradeStorage",
								"label": "l1token",
								"offset": 0,
								"slot": "0",
								"type": "t_address"
							},
							{
								"astId": 502,
								"contract": "contracts/L2/L2toL2CrossTradeStorage.sol:L2toL2CrossTradeStorage",
								"label": "l2SourceToken",
								"offset": 0,
								"slot": "1",
								"type": "t_address"
							},
							{
								"astId": 504,
								"contract": "contracts/L2/L2toL2CrossTradeStorage.sol:L2toL2CrossTradeStorage",
								"label": "l2TargetToken",
								"offset": 0,
								"slot": "2",
								"type": "t_address"
							},
							{
								"astId": 506,
								"contract": "contracts/L2/L2toL2CrossTradeStorage.sol:L2toL2CrossTradeStorage",
								"label": "requester",
								"offset": 0,
								"slot": "3",
								"type": "t_address"
							},
							{
								"astId": 508,
								"contract": "contracts/L2/L2toL2CrossTradeStorage.sol:L2toL2CrossTradeStorage",
								"label": "provider",
								"offset": 0,
								"slot": "4",
								"type": "t_address"
							},
							{
								"astId": 510,
								"contract": "contracts/L2/L2toL2CrossTradeStorage.sol:L2toL2CrossTradeStorage",
								"label": "totalAmount",
								"offset": 0,
								"slot": "5",
								"type": "t_uint256"
							},
							{
								"astId": 512,
								"contract": "contracts/L2/L2toL2CrossTradeStorage.sol:L2toL2CrossTradeStorage",
								"label": "ctAmount",
								"offset": 0,
								"slot": "6",
								"type": "t_uint256"
							},
							{
								"astId": 514,
								"contract": "contracts/L2/L2toL2CrossTradeStorage.sol:L2toL2CrossTradeStorage",
								"label": "l1ChainId",
								"offset": 0,
								"slot": "7",
								"type": "t_uint256"
							},
							{
								"astId": 516,
								"contract": "contracts/L2/L2toL2CrossTradeStorage.sol:L2toL2CrossTradeStorage",
								"label": "l2TargetChainId",
								"offset": 0,
								"slot": "8",
								"type": "t_uint256"
							},
							{
								"astId": 518,
								"contract": "contracts/L2/L2toL2CrossTradeStorage.sol:L2toL2CrossTradeStorage",
								"label": "hashValue",
								"offset": 0,
								"slot": "9",
								"type": "t_bytes32"
							}
						],
						"numberOfBytes": "320"
					},
					"t_uint256": {
						"encoding": "inplace",
						"label": "uint256",
						"numberOfBytes": "32"
					}
				}
			},
			"userdoc": {
				"kind": "user",
				"methods": {},
				"version": 1
			}
		}
	}
}