{
	"contracts/L2/L2toL2CrossTradeProxy.sol": {
		"L2toL2CrossTradeProxy": {
			"abi": [
				{
					"inputs": [],
					"name": "AccessControlBadConfirmation",
					"type": "error"
				},
				{
					"inputs": [
						{
							"internalType": "address",
							"name": "account",
							"type": "address"
						},
						{
							"internalType": "bytes32",
							"name": "neededRole",
							"type": "bytes32"
						}
					],
					"name": "AccessControlUnauthorizedAccount",
					"type": "error"
				},
				{
					"anonymous": false,
					"inputs": [
						{
							"indexed": true,
							"internalType": "bytes32",
							"name": "role",
							"type": "bytes32"
						},
						{
							"indexed": true,
							"internalType": "bytes32",
							"name": "previousAdminRole",
							"type": "bytes32"
						},
						{
							"indexed": true,
							"internalType": "bytes32",
							"name": "newAdminRole",
							"type": "bytes32"
						}
					],
					"name": "RoleAdminChanged",
					"type": "event"
				},
				{
					"anonymous": false,
					"inputs": [
						{
							"indexed": true,
							"internalType": "bytes32",
							"name": "role",
							"type": "bytes32"
						},
						{
							"indexed": true,
							"internalType": "address",
							"name": "account",
							"type": "address"
						},
						{
							"indexed": true,
							"internalType": "address",
							"name": "sender",
							"type": "address"
						}
					],
					"name": "RoleGranted",
					"type": "event"
				},
				{
					"anonymous": false,
					"inputs": [
						{
							"indexed": true,
							"internalType": "bytes32",
							"name": "role",
							"type": "bytes32"
						},
						{
							"indexed": true,
							"internalType": "address",
							"name": "account",
							"type": "address"
						},
						{
							"indexed": true,
							"internalType": "address",
							"name": "sender",
							"type": "address"
						}
					],
					"name": "RoleRevoked",
					"type": "event"
				},
				{
					"anonymous": false,
					"inputs": [
						{
							"indexed": true,
							"internalType": "address",
							"name": "impl",
							"type": "address"
						},
						{
							"indexed": false,
							"internalType": "bool",
							"name": "alive",
							"type": "bool"
						}
					],
					"name": "SetAliveImplementation",
					"type": "event"
				},
				{
					"anonymous": false,
					"inputs": [
						{
							"indexed": true,
							"internalType": "bytes4",
							"name": "selector",
							"type": "bytes4"
						},
						{
							"indexed": true,
							"internalType": "address",
							"name": "impl",
							"type": "address"
						}
					],
					"name": "SetSelectorImplementation",
					"type": "event"
				},
				{
					"anonymous": false,
					"inputs": [
						{
							"indexed": true,
							"internalType": "address",
							"name": "implementation",
							"type": "address"
						}
					],
					"name": "Upgraded",
					"type": "event"
				},
				{
					"stateMutability": "payable",
					"type": "fallback"
				},
				{
					"inputs": [],
					"name": "ADMIN_ROLE",
					"outputs": [
						{
							"internalType": "bytes32",
							"name": "",
							"type": "bytes32"
						}
					],
					"stateMutability": "view",
					"type": "function"
				},
				{
					"inputs": [],
					"name": "DEFAULT_ADMIN_ROLE",
					"outputs": [
						{
							"internalType": "bytes32",
							"name": "",
							"type": "bytes32"
						}
					],
					"stateMutability": "view",
					"type": "function"
				},
				{
					"inputs": [],
					"name": "POLICY_ROLE",
					"outputs": [
						{
							"internalType": "bytes32",
							"name": "",
							"type": "bytes32"
						}
					],
					"stateMutability": "view",
					"type": "function"
				},
				{
					"inputs": [
						{
							"internalType": "address",
							"name": "account",
							"type": "address"
						}
					],
					"name": "addAdmin",
					"outputs": [],
					"stateMutability": "nonpayable",
					"type": "function"
				},
				{
					"inputs": [
						{
							"internalType": "address",
							"name": "",
							"type": "address"
						}
					],
					"name": "aliveImplementation",
					"outputs": [
						{
							"internalType": "bool",
							"name": "",
							"type": "bool"
						}
					],
					"stateMutability": "view",
					"type": "function"
				},
				{
					"inputs": [
						{
							"internalType": "uint256",
							"name": "",
							"type": "uint256"
						}
					],
					"name": "chainData",
					"outputs": [
						{
							"internalType": "address",
							"name": "l1CrossTradeContract",
							"type": "address"
						},
						{
							"internalType": "address",
							"name": "l1TON",
							"type": "address"
						}
					],
					"stateMutability": "view",
					"type": "function"
				},
				{
					"inputs": [],
					"name": "crossDomainMessenger",
					"outputs": [
						{
							"internalType": "address",
							"name": "",
							"type": "address"
						}
					],
					"stateMutability": "view",
					"type": "function"
				},
				{
					"inputs": [
						{
							"internalType": "uint256",
							"name": "",
							"type": "uint256"
						}
					],
					"name": "dealData",
					"outputs": [
						{
							"internalType": "address",
							"name": "l1token",
							"type": "address"
						},
						{
							"internalType": "address",
							"name": "l2SourceToken",
							"type": "address"
						},
						{
							"internalType": "address",
							"name": "l2TargetToken",
							"type": "address"
						},
						{
							"internalType": "address",
							"name": "requester",
							"type": "address"
						},
						{
							"internalType": "address",
							"name": "provider",
							"type": "address"
						},
						{
							"internalType": "uint256",
							"name": "totalAmount",
							"type": "uint256"
						},
						{
							"internalType": "uint256",
							"name": "ctAmount",
							"type": "uint256"
						},
						{
							"internalType": "uint256",
							"name": "l1ChainId",
							"type": "uint256"
						},
						{
							"internalType": "uint256",
							"name": "l2TargetChainId",
							"type": "uint256"
						},
						{
							"internalType": "bytes32",
							"name": "hashValue",
							"type": "bytes32"
						}
					],
					"stateMutability": "view",
					"type": "function"
				},
				{
					"inputs": [
						{
							"internalType": "bytes32",
							"name": "role",
							"type": "bytes32"
						}
					],
					"name": "getRoleAdmin",
					"outputs": [
						{
							"internalType": "bytes32",
							"name": "",
							"type": "bytes32"
						}
					],
					"stateMutability": "view",
					"type": "function"
				},
				{
					"inputs": [
						{
							"internalType": "bytes4",
							"name": "_selector",
							"type": "bytes4"
						}
					],
					"name": "getSelectorImplementation2",
					"outputs": [
						{
							"internalType": "address",
							"name": "impl",
							"type": "address"
						}
					],
					"stateMutability": "view",
					"type": "function"
				},
				{
					"inputs": [
						{
							"internalType": "bytes32",
							"name": "role",
							"type": "bytes32"
						},
						{
							"internalType": "address",
							"name": "account",
							"type": "address"
						}
					],
					"name": "grantRole",
					"outputs": [],
					"stateMutability": "nonpayable",
					"type": "function"
				},
				{
					"inputs": [
						{
							"internalType": "bytes32",
							"name": "role",
							"type": "bytes32"
						},
						{
							"internalType": "address",
							"name": "account",
							"type": "address"
						}
					],
					"name": "hasRole",
					"outputs": [
						{
							"internalType": "bool",
							"name": "",
							"type": "bool"
						}
					],
					"stateMutability": "view",
					"type": "function"
				},
				{
					"inputs": [],
					"name": "implementation",
					"outputs": [
						{
							"internalType": "address",
							"name": "",
							"type": "address"
						}
					],
					"stateMutability": "view",
					"type": "function"
				},
				{
					"inputs": [
						{
							"internalType": "uint256",
							"name": "_index",
							"type": "uint256"
						}
					],
					"name": "implementation2",
					"outputs": [
						{
							"internalType": "address",
							"name": "",
							"type": "address"
						}
					],
					"stateMutability": "view",
					"type": "function"
				},
				{
					"inputs": [
						{
							"internalType": "address",
							"name": "_crossDomainMessenger",
							"type": "address"
						},
						{
							"internalType": "address",
							"name": "_legacyERC20",
							"type": "address"
						}
					],
					"name": "initialize",
					"outputs": [],
					"stateMutability": "nonpayable",
					"type": "function"
				},
				{
					"inputs": [
						{
							"internalType": "address",
							"name": "account",
							"type": "address"
						}
					],
					"name": "isAdmin",
					"outputs": [
						{
							"internalType": "bool",
							"name": "",
							"type": "bool"
						}
					],
					"stateMutability": "view",
					"type": "function"
				},
				{
					"inputs": [],
					"name": "legacyERC20ETH",
					"outputs": [
						{
							"internalType": "address",
							"name": "",
							"type": "address"
						}
					],
					"stateMutability": "view",
					"type": "function"
				},
				{
					"inputs": [],
					"name": "pauseProxy",
					"outputs": [
						{
							"internalType": "bool",
							"name": "",
							"type": "bool"
						}
					],
					"stateMutability": "view",
					"type": "function"
				},
				{
					"inputs": [
						{
							"internalType": "uint256",
							"name": "",
							"type": "uint256"
						}
					],
					"name": "proxyImplementation",
					"outputs": [
						{
							"internalType": "address",
							"name": "",
							"type": "address"
						}
					],
					"stateMutability": "view",
					"type": "function"
				},
				{
					"inputs": [
						{
							"internalType": "address",
							"name": "account",
							"type": "address"
						}
					],
					"name": "removeAdmin",
					"outputs": [],
					"stateMutability": "nonpayable",
					"type": "function"
				},
				{
					"inputs": [
						{
							"internalType": "bytes32",
							"name": "role",
							"type": "bytes32"
						},
						{
							"internalType": "address",
							"name": "callerConfirmation",
							"type": "address"
						}
					],
					"name": "renounceRole",
					"outputs": [],
					"stateMutability": "nonpayable",
					"type": "function"
				},
				{
					"inputs": [
						{
							"internalType": "bytes32",
							"name": "role",
							"type": "bytes32"
						},
						{
							"internalType": "address",
							"name": "account",
							"type": "address"
						}
					],
					"name": "revokeRole",
					"outputs": [],
					"stateMutability": "nonpayable",
					"type": "function"
				},
				{
					"inputs": [],
					"name": "saleCount",
					"outputs": [
						{
							"internalType": "uint256",
							"name": "",
							"type": "uint256"
						}
					],
					"stateMutability": "view",
					"type": "function"
				},
				{
					"inputs": [
						{
							"internalType": "bytes4",
							"name": "",
							"type": "bytes4"
						}
					],
					"name": "selectorImplementation",
					"outputs": [
						{
							"internalType": "address",
							"name": "",
							"type": "address"
						}
					],
					"stateMutability": "view",
					"type": "function"
				},
				{
					"inputs": [
						{
							"internalType": "address",
							"name": "newImplementation",
							"type": "address"
						},
						{
							"internalType": "bool",
							"name": "_alive",
							"type": "bool"
						}
					],
					"name": "setAliveImplementation2",
					"outputs": [],
					"stateMutability": "nonpayable",
					"type": "function"
				},
				{
					"inputs": [
						{
							"internalType": "address",
							"name": "_l1CrossTrade",
							"type": "address"
						},
						{
							"internalType": "address",
							"name": "_l1legacyERC20",
							"type": "address"
						},
						{
							"internalType": "uint256",
							"name": "_chainId",
							"type": "uint256"
						}
					],
					"name": "setChainInfo",
					"outputs": [],
					"stateMutability": "nonpayable",
					"type": "function"
				},
				{
					"inputs": [
						{
							"internalType": "address",
							"name": "newImplementation",
							"type": "address"
						},
						{
							"internalType": "uint256",
							"name": "_index",
							"type": "uint256"
						},
						{
							"internalType": "bool",
							"name": "_alive",
							"type": "bool"
						}
					],
					"name": "setImplementation2",
					"outputs": [],
					"stateMutability": "nonpayable",
					"type": "function"
				},
				{
					"inputs": [
						{
							"internalType": "bool",
							"name": "_pause",
							"type": "bool"
						}
					],
					"name": "setProxyPause",
					"outputs": [],
					"stateMutability": "nonpayable",
					"type": "function"
				},
				{
					"inputs": [
						{
							"internalType": "bytes4[]",
							"name": "_selectors",
							"type": "bytes4[]"
						},
						{
							"internalType": "address",
							"name": "_imp",
							"type": "address"
						}
					],
					"name": "setSelectorImplementations2",
					"outputs": [],
					"stateMutability": "nonpayable",
					"type": "function"
				},
				{
					"inputs": [
						{
							"internalType": "bytes4",
							"name": "interfaceId",
							"type": "bytes4"
						}
					],
					"name": "supportsInterface",
					"outputs": [
						{
							"internalType": "bool",
							"name": "",
							"type": "bool"
						}
					],
					"stateMutability": "view",
					"type": "function"
				},
				{
					"inputs": [
						{
							"internalType": "address",
							"name": "newAdmin",
							"type": "address"
						}
					],
					"name": "transferAdmin",
					"outputs": [],
					"stateMutability": "nonpayable",
					"type": "function"
				},
				{
					"inputs": [
						{
							"internalType": "address",
							"name": "impl",
							"type": "address"
						}
					],
					"name": "upgradeTo",
					"outputs": [],
					"stateMutability": "nonpayable",
					"type": "function"
				},
				{
					"stateMutability": "payable",
					"type": "receive"
				}
			],
			"devdoc": {
				"errors": {
					"AccessControlBadConfirmation()": [
						{
							"details": "The caller of a function is not the expected one. NOTE: Don't confuse with {AccessControlUnauthorizedAccount}."
						}
					],
					"AccessControlUnauthorizedAccount(address,bytes32)": [
						{
							"details": "The `account` is missing a role."
						}
					]
				},
				"events": {
					"RoleAdminChanged(bytes32,bytes32,bytes32)": {
						"details": "Emitted when `newAdminRole` is set as ``role``'s admin role, replacing `previousAdminRole` `DEFAULT_ADMIN_ROLE` is the starting admin for all roles, despite {RoleAdminChanged} not being emitted signaling this."
					},
					"RoleGranted(bytes32,address,address)": {
						"details": "Emitted when `account` is granted `role`. `sender` is the account that originated the contract call, an admin role bearer except when using {AccessControl-_setupRole}."
					},
					"RoleRevoked(bytes32,address,address)": {
						"details": "Emitted when `account` is revoked `role`. `sender` is the account that originated the contract call:   - if using `revokeRole`, it is the admin role bearer   - if using `renounceRole`, it is the role bearer (i.e. `account`)"
					}
				},
				"kind": "dev",
				"methods": {
					"addAdmin(address)": {
						"details": "add admin",
						"params": {
							"account": "address to add"
						}
					},
					"getRoleAdmin(bytes32)": {
						"details": "Returns the admin role that controls `role`. See {grantRole} and {revokeRole}. To change a role's admin, use {_setRoleAdmin}."
					},
					"getSelectorImplementation2(bytes4)": {
						"details": "view implementation address of selector of function",
						"params": {
							"_selector": "selector of function"
						},
						"returns": {
							"impl": "address of the implementation"
						}
					},
					"grantRole(bytes32,address)": {
						"details": "Grants `role` to `account`. If `account` had not been already granted `role`, emits a {RoleGranted} event. Requirements: - the caller must have ``role``'s admin role. May emit a {RoleGranted} event."
					},
					"hasRole(bytes32,address)": {
						"details": "Returns `true` if `account` has been granted `role`."
					},
					"implementation()": {
						"details": "returns the implementation"
					},
					"implementation2(uint256)": {
						"details": "view implementation address of the proxy[index]",
						"params": {
							"_index": "index of proxy"
						},
						"returns": {
							"_0": "address of the implementation"
						}
					},
					"initialize(address,address)": {
						"params": {
							"_crossDomainMessenger": "crossDomainMessenger address",
							"_legacyERC20": "legacyERC20 address "
						}
					},
					"isAdmin(address)": {
						"details": "whether admin",
						"params": {
							"account": "address to check"
						}
					},
					"removeAdmin(address)": {
						"details": "remove admin",
						"params": {
							"account": "address to remove"
						}
					},
					"renounceRole(bytes32,address)": {
						"details": "Revokes `role` from the calling account. Roles are often managed via {grantRole} and {revokeRole}: this function's purpose is to provide a mechanism for accounts to lose their privileges if they are compromised (such as when a trusted device is misplaced). If the calling account had been revoked `role`, emits a {RoleRevoked} event. Requirements: - the caller must be `callerConfirmation`. May emit a {RoleRevoked} event."
					},
					"revokeRole(bytes32,address)": {
						"details": "Revokes `role` from `account`. If `account` had been granted `role`, emits a {RoleRevoked} event. Requirements: - the caller must have ``role``'s admin role. May emit a {RoleRevoked} event."
					},
					"setAliveImplementation2(address,bool)": {
						"details": "set alive status of implementation",
						"params": {
							"_alive": "alive status",
							"newImplementation": "Address of the new implementation."
						}
					},
					"setChainInfo(address,address,uint256)": {
						"params": {
							"_chainId": "store chainId",
							"_l1CrossTrade": "L1CrossTradeProxy address for chainId",
							"_l1legacyERC20": "l1legacyERC20 address for chainId"
						}
					},
					"setImplementation2(address,uint256,bool)": {
						"details": "set the implementation address and status of the proxy[index]",
						"params": {
							"_alive": "_alive",
							"_index": "index",
							"newImplementation": "Address of the new implementation."
						}
					},
					"setProxyPause(bool)": {
						"params": {
							"_pause": "true:pause or false:resume"
						}
					},
					"setSelectorImplementations2(bytes4[],address)": {
						"details": "set selectors of Implementation",
						"params": {
							"_imp": "implementation address",
							"_selectors": "being added selectors"
						}
					},
					"supportsInterface(bytes4)": {
						"details": "See {IERC165-supportsInterface}."
					},
					"transferAdmin(address)": {
						"details": "transfer admin",
						"params": {
							"newAdmin": "new admin address"
						}
					},
					"upgradeTo(address)": {
						"params": {
							"impl": "New implementation contract address"
						}
					}
				},
				"version": 1
			},
			"evm": {
				"assembly": "    /* \"contracts/L2/L2toL2CrossTradeProxy.sol\":181:1172  contract L2toL2CrossTradeProxy is Proxy, L2toL2CrossTradeStorage {... */\n  mstore(0x40, 0x80)\n  jumpi(tag_2, callvalue)\n  0x00\n  dup1\n  mload\n  0x20\n  data_a29c3f0504a76c686875ea2f0fc314af702d3407223f14a34325f35a1858bd3b\n  dup4\n  codecopy\n  dup2\n  mload\n  swap2\n  mstore\n  dup1\n  0x00\n  mstore\n    /* \"@openzeppelin/contracts/access/AccessControl.sol\":3901:3907  _roles */\n  0x04\n    /* \"contracts/L2/L2toL2CrossTradeProxy.sol\":181:1172  contract L2toL2CrossTradeProxy is Proxy, L2toL2CrossTradeStorage {... */\n  0x20\n  mstore\n    /* \"@openzeppelin/contracts/access/AccessControl.sol\":3901:3923  _roles[role].adminRole */\n  0x01\n    /* \"contracts/L2/L2toL2CrossTradeProxy.sol\":181:1172  contract L2toL2CrossTradeProxy is Proxy, L2toL2CrossTradeStorage {... */\n  keccak256(0x00, 0x40)\n    /* \"@openzeppelin/contracts/access/AccessControl.sol\":3901:3923  _roles[role].adminRole */\n  add\n    /* \"contracts/L2/L2toL2CrossTradeProxy.sol\":181:1172  contract L2toL2CrossTradeProxy is Proxy, L2toL2CrossTradeStorage {... */\n  dup2\n  dup2\n  sload\n  swap2\n  sstore\n    /* \"@openzeppelin/contracts/access/AccessControl.sol\":5886:5938  RoleAdminChanged(role, previousAdminRole, adminRole) */\n  dup2\n  0xbd79b86ffe0ab8e8776151514217cd7cacd52c909f66475c3af44e129f0b00ff\n  0x00\n  dup1\n  log4\n    /* \"contracts/proxy/Proxy.sol\":595:629  _grantRole(ADMIN_ROLE, msg.sender) */\n  tag_4\n    /* \"contracts/proxy/Proxy.sol\":618:628  msg.sender */\n  caller\n    /* \"contracts/proxy/Proxy.sol\":595:629  _grantRole(ADMIN_ROLE, msg.sender) */\n  tag_1\n  jump\t// in\ntag_4:\n  pop\n    /* \"contracts/L2/L2toL2CrossTradeProxy.sol\":181:1172  contract L2toL2CrossTradeProxy is Proxy, L2toL2CrossTradeStorage {... */\n  mload(0x40)\n  dataSize(sub_0)\n  swap1\n  dup2\n  dataOffset(sub_0)\n  dup3\n  codecopy\n  return\ntag_2:\n  0x00\n  dup1\n  revert\n    /* \"@openzeppelin/contracts/access/AccessControl.sol\":6179:6495  function _grantRole(bytes32 role, address account) internal virtual returns (bool) {... */\ntag_1:\n  sub(shl(0xa0, 0x01), 0x01)\n    /* \"contracts/L2/L2toL2CrossTradeProxy.sol\":181:1172  contract L2toL2CrossTradeProxy is Proxy, L2toL2CrossTradeStorage {... */\n  and\n  0x00\n  dup2\n  dup2\n  mstore\n  mstore(0x20, 0x2fb794d17134dfdec181ddbac1babb5ab1eb140204ef4d982f294e7fc8b69022)\n  0x40\n  swap1\n  keccak256\n  sload\n  0x00\n  dup1\n  mload\n  0x20\n  data_a29c3f0504a76c686875ea2f0fc314af702d3407223f14a34325f35a1858bd3b\n  dup4\n  codecopy\n  dup2\n  mload\n  swap2\n  mstore\n    /* \"contracts/common/AccessRoleCommon.sol\":127:145  keccak256(\"ADMIN\") */\n  swap2\n    /* \"contracts/L2/L2toL2CrossTradeProxy.sol\":181:1172  contract L2toL2CrossTradeProxy is Proxy, L2toL2CrossTradeStorage {... */\n  swap1\n  0xff\n  and\n  tag_5\n  jumpi\n  dup2\n  0x00\n  mstore\n    /* \"@openzeppelin/contracts/access/AccessControl.sol\":2954:2960  _roles */\n  0x04\n    /* \"contracts/L2/L2toL2CrossTradeProxy.sol\":181:1172  contract L2toL2CrossTradeProxy is Proxy, L2toL2CrossTradeStorage {... */\n  0x20\n  mstore\n  keccak256(0x00, 0x40)\n  dup2\n  0x00\n  mstore\n  0x20\n  mstore\n  keccak256(0x00, 0x40)\n    /* \"@openzeppelin/contracts/access/AccessControl.sol\":6347:6351  true */\n  0x01\n    /* \"contracts/L2/L2toL2CrossTradeProxy.sol\":181:1172  contract L2toL2CrossTradeProxy is Proxy, L2toL2CrossTradeStorage {... */\n  not(0xff)\n  dup3\n  sload\n  and\n  or\n  swap1\n  sstore\n    /* \"@openzeppelin/contracts/utils/Context.sol\":735:745  msg.sender */\n  caller\n    /* \"@openzeppelin/contracts/access/AccessControl.sol\":6370:6410  RoleGranted(role, account, _msgSender()) */\n  swap2\n  0x2f8788117e7eff1d82e926ec794901d17c78024a50270940304540a733656f0d\n  0x00\n  dup1\n  log4\n    /* \"@openzeppelin/contracts/access/AccessControl.sol\":6347:6351  true */\n  0x01\n    /* \"@openzeppelin/contracts/access/AccessControl.sol\":6424:6435  return true */\n  swap1\n  jump\t// out\n    /* \"@openzeppelin/contracts/access/AccessControl.sol\":6272:6489  if (!hasRole(role, account)) {... */\ntag_5:\n    /* \"@openzeppelin/contracts/access/AccessControl.sol\":6466:6478  return false */\n  pop\n  pop\n  0x00\n  swap1\n  jump\t// out\nstop\ndata_a29c3f0504a76c686875ea2f0fc314af702d3407223f14a34325f35a1858bd3b df8b4c520ffe197c5343c6f5aec59570151ef9a492f2c624fd45ddde6135ec42\n\nsub_0: assembly {\n        /* \"contracts/L2/L2toL2CrossTradeProxy.sol\":181:1172  contract L2toL2CrossTradeProxy is Proxy, L2toL2CrossTradeStorage {... */\n      mstore(0x40, 0x80)\n      jumpi(tag_63, iszero(lt(calldatasize, 0x04)))\n    tag_64:\n      calldatasize\n        /* \"contracts/proxy/Proxy.sol\":3366:3422  fallback() external payable {... */\n      tag_62\n        /* \"contracts/L2/L2toL2CrossTradeProxy.sol\":181:1172  contract L2toL2CrossTradeProxy is Proxy, L2toL2CrossTradeStorage {... */\n      jumpi\n      stop\n    tag_63:\n      shr(0xe0, calldataload(0x00))\n      dup1\n      0x01ffc9a7\n      eq\n      tag_67\n      jumpi\n      dup1\n      0x1230b14c\n      eq\n      tag_69\n      jumpi\n      dup1\n      0x16e01724\n      eq\n      tag_71\n      jumpi\n      dup1\n      0x1785f53c\n      eq\n      tag_73\n      jumpi\n      dup1\n      0x22985246\n      eq\n      tag_75\n      jumpi\n      dup1\n      0x248a9ca3\n      eq\n      tag_77\n      jumpi\n      dup1\n      0x24d7806c\n      eq\n      tag_79\n      jumpi\n      dup1\n      0x2f2ff15d\n      eq\n      tag_81\n      jumpi\n      dup1\n      0x36568abe\n      eq\n      tag_83\n      jumpi\n      dup1\n      0x3659cfe6\n      eq\n      tag_85\n      jumpi\n      dup1\n      0x485cc955\n      eq\n      tag_87\n      jumpi\n      dup1\n      0x4a5df50f\n      eq\n      tag_89\n      jumpi\n      dup1\n      0x50d2a276\n      eq\n      tag_91\n      jumpi\n      dup1\n      0x550d01a3\n      eq\n      tag_93\n      jumpi\n      dup1\n      0x5c60da1b\n      eq\n      tag_95\n      jumpi\n      dup1\n      0x5cc797d8\n      eq\n      tag_97\n      jumpi\n      dup1\n      0x63a8fd89\n      eq\n      tag_99\n      jumpi\n      dup1\n      0x70480275\n      eq\n      tag_101\n      jumpi\n      dup1\n      0x75829def\n      eq\n      tag_103\n      jumpi\n      dup1\n      0x75b238fc\n      eq\n      tag_105\n      jumpi\n      dup1\n      0x7cb00d25\n      eq\n      tag_107\n      jumpi\n      dup1\n      0x7cd5f663\n      eq\n      tag_109\n      jumpi\n      dup1\n      0x8b8f4a65\n      eq\n      tag_121\n      jumpi\n      dup1\n      0x8d4fdb40\n      eq\n      tag_113\n      jumpi\n      dup1\n      0x91d14854\n      eq\n      tag_115\n      jumpi\n      dup1\n      0xa1e89aec\n      eq\n      tag_117\n      jumpi\n      dup1\n      0xa217fddf\n      eq\n      tag_119\n      jumpi\n      dup1\n      0xb911135f\n      eq\n      tag_121\n      jumpi\n      dup1\n      0xd547741f\n      eq\n      tag_123\n      jumpi\n      dup1\n      0xe59f69c2\n      eq\n      tag_125\n      jumpi\n      dup1\n      0xf43b3613\n      eq\n      tag_127\n      jumpi\n      0xf5869c2f\n      sub\n      tag_64\n      jumpi\n      tag_42\n      jump\t// in\n    tag_127:\n      tag_40\n      jump\t// in\n    tag_125:\n      tag_39\n      jump\t// in\n    tag_123:\n      tag_37\n      jump\t// in\n    tag_121:\n      tag_31\n      jump\t// in\n    tag_119:\n      tag_35\n      jump\t// in\n    tag_117:\n      tag_34\n      jump\t// in\n    tag_115:\n      tag_33\n      jump\t// in\n    tag_113:\n      tag_32\n      jump\t// in\n    tag_109:\n      tag_30\n      jump\t// in\n    tag_107:\n      tag_29\n      jump\t// in\n    tag_105:\n      tag_28\n      jump\t// in\n    tag_103:\n      tag_27\n      jump\t// in\n    tag_101:\n      tag_26\n      jump\t// in\n    tag_99:\n      tag_25\n      jump\t// in\n    tag_97:\n      tag_24\n      jump\t// in\n    tag_95:\n      tag_23\n      jump\t// in\n    tag_93:\n      tag_22\n      jump\t// in\n    tag_91:\n      tag_19\n      jump\t// in\n    tag_89:\n      tag_17\n      jump\t// in\n    tag_87:\n      tag_16\n      jump\t// in\n    tag_85:\n      tag_15\n      jump\t// in\n    tag_83:\n      tag_14\n      jump\t// in\n    tag_81:\n      tag_13\n      jump\t// in\n    tag_79:\n      tag_12\n      jump\t// in\n    tag_77:\n      tag_11\n      jump\t// in\n    tag_75:\n      tag_10\n      jump\t// in\n    tag_73:\n      tag_9\n      jump\t// in\n    tag_71:\n      tag_8\n      jump\t// in\n    tag_69:\n      tag_7\n      jump\t// in\n    tag_67:\n      tag_3\n      jump\t// in\n    tag_2:\n      0xffffffff00000000000000000000000000000000000000000000000000000000\n      dup2\n      and\n      sub\n      tag_131\n      jumpi\n      jump\t// out\n    tag_131:\n      0x00\n      dup1\n      revert\n    tag_3:\n      jumpi(tag_131, callvalue)\n      jumpi(tag_131, slt(add(calldatasize, 0xfffffffffffffffffffffffffffffffffffffffffffffffffffffffffffffffc), 0x20))\n      0x20\n      0xffffffff00000000000000000000000000000000000000000000000000000000\n      calldataload(0x04)\n      tag_137\n      dup2\n      tag_2\n      jump\t// in\n    tag_137:\n      and\n        /* \"@openzeppelin/contracts/access/AccessControl.sol\":2688:2720  type(IAccessControl).interfaceId */\n      0x7965db0b00000000000000000000000000000000000000000000000000000000\n        /* \"@openzeppelin/contracts/access/AccessControl.sol\":2673:2720  interfaceId == type(IAccessControl).interfaceId */\n      dup2\n      eq\n        /* \"@openzeppelin/contracts/access/AccessControl.sol\":2673:2760  interfaceId == type(IAccessControl).interfaceId || super.supportsInterface(interfaceId) */\n      swap1\n      dup2\n      iszero\n      tag_138\n      jumpi\n        /* \"contracts/L2/L2toL2CrossTradeProxy.sol\":181:1172  contract L2toL2CrossTradeProxy is Proxy, L2toL2CrossTradeStorage {... */\n    tag_139:\n      pop\n      mload(0x40)\n      swap1\n      iszero\n      iszero\n      dup2\n      mstore\n      return\n        /* \"@openzeppelin/contracts/access/AccessControl.sol\":2673:2760  interfaceId == type(IAccessControl).interfaceId || super.supportsInterface(interfaceId) */\n    tag_138:\n        /* \"@openzeppelin/contracts/utils/introspection/ERC165.sol\":876:901  type(IERC165).interfaceId */\n      0x01ffc9a700000000000000000000000000000000000000000000000000000000\n        /* \"@openzeppelin/contracts/utils/introspection/ERC165.sol\":861:901  interfaceId == type(IERC165).interfaceId */\n      swap2\n      pop\n      eq\n        /* \"@openzeppelin/contracts/access/AccessControl.sol\":2673:2760  interfaceId == type(IAccessControl).interfaceId || super.supportsInterface(interfaceId) */\n      0x00\n      jump(tag_139)\n        /* \"contracts/L2/L2toL2CrossTradeProxy.sol\":181:1172  contract L2toL2CrossTradeProxy is Proxy, L2toL2CrossTradeStorage {... */\n    tag_5:\n      calldataload(0x04)\n      swap1\n      0xffffffffffffffffffffffffffffffffffffffff\n      dup3\n      and\n      dup3\n      sub\n      tag_131\n      jumpi\n      jump\t// out\n    tag_6:\n      calldataload(0x24)\n      swap1\n      0xffffffffffffffffffffffffffffffffffffffff\n      dup3\n      and\n      dup3\n      sub\n      tag_131\n      jumpi\n      jump\t// out\n    tag_7:\n      jumpi(tag_131, callvalue)\n      jumpi(tag_131, slt(add(calldatasize, 0xfffffffffffffffffffffffffffffffffffffffffffffffffffffffffffffffc), 0x60))\n      tag_148\n      tag_5\n      jump\t// in\n    tag_148:\n      tag_149\n      tag_6\n      jump\t// in\n    tag_149:\n        /* \"contracts/common/AccessibleCommon.sol\":265:275  msg.sender */\n      swap1\n        /* \"contracts/common/AccessibleCommon.sol\":249:315  require(isAdmin(msg.sender), \"Accessible: Caller is not an admin\") */\n      tag_150\n        /* \"contracts/common/AccessibleCommon.sol\":1230:1258  hasRole(ADMIN_ROLE, account) */\n      tag_151\n        /* \"contracts/common/AccessibleCommon.sol\":265:275  msg.sender */\n      caller\n        /* \"contracts/L2/L2toL2CrossTradeProxy.sol\":181:1172  contract L2toL2CrossTradeProxy is Proxy, L2toL2CrossTradeStorage {... */\n      0xffffffffffffffffffffffffffffffffffffffff\n      and\n      0x00\n      swap1\n      dup2\n      mstore\n      mstore(0x20, 0x2fb794d17134dfdec181ddbac1babb5ab1eb140204ef4d982f294e7fc8b69022)\n      0x40\n      swap1\n      keccak256\n      sload\n      0xff\n      and\n      swap1\n        /* \"contracts/proxy/Proxy.sol\":3005:3034  return proxyImplementation[0] */\n      jump\n        /* \"contracts/common/AccessibleCommon.sol\":1230:1258  hasRole(ADMIN_ROLE, account) */\n    tag_151:\n        /* \"contracts/common/AccessibleCommon.sol\":249:315  require(isAdmin(msg.sender), \"Accessible: Caller is not an admin\") */\n      tag_43\n      jump\t// in\n    tag_150:\n        /* \"contracts/L2/L2toL2CrossTradeProxy.sol\":181:1172  contract L2toL2CrossTradeProxy is Proxy, L2toL2CrossTradeStorage {... */\n      mload(0x40)\n      swap1\n      0x40\n      dup3\n      add\n      swap1\n      dup3\n      dup3\n      lt\n      0xffffffffffffffff\n      dup4\n      gt\n      or\n      tag_152\n      jumpi\n      tag_154\n      swap4\n      0x01\n      swap3\n      0x40\n      mstore\n      0xffffffffffffffffffffffffffffffffffffffff\n      dup1\n      swap3\n      and\n      dup5\n      mstore\n        /* \"contracts/L2/L2toL2CrossTradeProxy.sol\":1056:1163  ChainIdData({... */\n      dup2\n        /* \"contracts/L2/L2toL2CrossTradeProxy.sol\":181:1172  contract L2toL2CrossTradeProxy is Proxy, L2toL2CrossTradeStorage {... */\n      0x20\n        /* \"contracts/L2/L2toL2CrossTradeProxy.sol\":1056:1163  ChainIdData({... */\n      dup6\n      add\n        /* \"contracts/L2/L2toL2CrossTradeProxy.sol\":181:1172  contract L2toL2CrossTradeProxy is Proxy, L2toL2CrossTradeStorage {... */\n      swap2\n      and\n      dup2\n      mstore\n      mstore(0x00, calldataload(0x44))\n        /* \"contracts/L2/L2toL2CrossTradeProxy.sol\":1034:1043  chainData */\n      0x0a\n        /* \"contracts/L2/L2toL2CrossTradeProxy.sol\":181:1172  contract L2toL2CrossTradeProxy is Proxy, L2toL2CrossTradeStorage {... */\n      0x20\n      mstore\n      tag_155\n      dup3\n      keccak256(0x00, 0x40)\n      swap6\n      mload\n      and\n      dup6\n      swap1\n      0xffffffffffffffffffffffffffffffffffffffff\n      and\n      0xffffffffffffffffffffffff0000000000000000000000000000000000000000\n      dup3\n      sload\n      and\n      or\n      swap1\n      sstore\n      jump\n    tag_155:\n      mload\n      and\n      swap2\n      add\n      swap1\n      0xffffffffffffffffffffffffffffffffffffffff\n      and\n      0xffffffffffffffffffffffff0000000000000000000000000000000000000000\n      dup3\n      sload\n      and\n      or\n      swap1\n      sstore\n      jump\n    tag_154:\n      stop\n    tag_152:\n      mstore(0x00, 0x4e487b7100000000000000000000000000000000000000000000000000000000)\n      mstore(0x04, 0x41)\n      revert(0x00, 0x24)\n    tag_8:\n      jumpi(tag_131, callvalue)\n      jumpi(tag_131, slt(add(calldatasize, 0xfffffffffffffffffffffffffffffffffffffffffffffffffffffffffffffffc), 0x00))\n      0x20\n      0xffffffffffffffffffffffffffffffffffffffff\n        /* \"contracts/L2/L2toL2CrossTradeStorage.sol\":551:580  address public legacyERC20ETH */\n      0x06\n        /* \"contracts/L2/L2toL2CrossTradeProxy.sol\":181:1172  contract L2toL2CrossTradeProxy is Proxy, L2toL2CrossTradeStorage {... */\n      sload\n      and\n      mload(0x40)\n      swap1\n      dup2\n      mstore\n      return\n    tag_9:\n      jumpi(tag_131, callvalue)\n      jumpi(tag_131, slt(add(calldatasize, 0xfffffffffffffffffffffffffffffffffffffffffffffffffffffffffffffffc), 0x20))\n        /* \"contracts/common/AccessibleCommon.sol\":680:687  account */\n      tag_154\n        /* \"contracts/L2/L2toL2CrossTradeProxy.sol\":181:1172  contract L2toL2CrossTradeProxy is Proxy, L2toL2CrossTradeStorage {... */\n      tag_165\n      tag_5\n      jump\t// in\n    tag_165:\n        /* \"contracts/common/AccessibleCommon.sol\":265:275  msg.sender */\n      caller\n      0x00\n        /* \"contracts/L2/L2toL2CrossTradeProxy.sol\":181:1172  contract L2toL2CrossTradeProxy is Proxy, L2toL2CrossTradeStorage {... */\n      swap1\n      dup2\n      mstore\n      mstore(0x20, 0x2fb794d17134dfdec181ddbac1babb5ab1eb140204ef4d982f294e7fc8b69022)\n      0x40\n      swap1\n      keccak256\n      sload\n        /* \"contracts/common/AccessibleCommon.sol\":249:315  require(isAdmin(msg.sender), \"Accessible: Caller is not an admin\") */\n      tag_166\n      swap1\n        /* \"contracts/L2/L2toL2CrossTradeProxy.sol\":181:1172  contract L2toL2CrossTradeProxy is Proxy, L2toL2CrossTradeStorage {... */\n      0xff\n      and\n        /* \"contracts/common/AccessibleCommon.sol\":249:315  require(isAdmin(msg.sender), \"Accessible: Caller is not an admin\") */\n      tag_43\n      jump\t// in\n    tag_166:\n        /* \"contracts/common/AccessibleCommon.sol\":680:687  account */\n      tag_46\n      jump\t// in\n        /* \"contracts/L2/L2toL2CrossTradeProxy.sol\":181:1172  contract L2toL2CrossTradeProxy is Proxy, L2toL2CrossTradeStorage {... */\n    tag_10:\n      jumpi(tag_131, callvalue)\n      jumpi(tag_131, slt(add(calldatasize, 0xfffffffffffffffffffffffffffffffffffffffffffffffffffffffffffffffc), 0x00))\n      0x20\n      mload(0x40)\n        /* \"contracts/common/AccessRoleCommon.sol\":189:213  keccak256(\"POLICY_ROLE\") */\n      0xfb5864e8ff833c3cb2d2d08505e82ff02a43554c74a35d4f5a64e85261278311\n        /* \"contracts/L2/L2toL2CrossTradeProxy.sol\":181:1172  contract L2toL2CrossTradeProxy is Proxy, L2toL2CrossTradeStorage {... */\n      dup2\n      mstore\n      return\n    tag_11:\n      jumpi(tag_131, callvalue)\n      jumpi(tag_131, slt(add(calldatasize, 0xfffffffffffffffffffffffffffffffffffffffffffffffffffffffffffffffc), 0x20))\n      mstore(0x00, calldataload(0x04))\n      mstore(0x20, 0x04)\n      0x20\n        /* \"@openzeppelin/contracts/access/AccessControl.sol\":3901:3923  _roles[role].adminRole */\n      0x01\n        /* \"contracts/L2/L2toL2CrossTradeProxy.sol\":181:1172  contract L2toL2CrossTradeProxy is Proxy, L2toL2CrossTradeStorage {... */\n      keccak256(0x00, 0x40)\n        /* \"@openzeppelin/contracts/access/AccessControl.sol\":3901:3923  _roles[role].adminRole */\n      add\n        /* \"contracts/L2/L2toL2CrossTradeProxy.sol\":181:1172  contract L2toL2CrossTradeProxy is Proxy, L2toL2CrossTradeStorage {... */\n      sload\n      mload(0x40)\n      swap1\n      dup2\n      mstore\n      return\n    tag_12:\n      jumpi(tag_131, callvalue)\n      jumpi(tag_131, slt(add(calldatasize, 0xfffffffffffffffffffffffffffffffffffffffffffffffffffffffffffffffc), 0x20))\n      0x20\n      0xff\n        /* \"@openzeppelin/contracts/access/AccessControl.sol\":2954:2983  _roles[role].hasRole[account] */\n      tag_180\n        /* \"contracts/L2/L2toL2CrossTradeProxy.sol\":181:1172  contract L2toL2CrossTradeProxy is Proxy, L2toL2CrossTradeStorage {... */\n      tag_181\n      tag_5\n      jump\t// in\n    tag_181:\n        /* \"contracts/common/AccessRoleCommon.sol\":127:145  keccak256(\"ADMIN\") */\n      0xdf8b4c520ffe197c5343c6f5aec59570151ef9a492f2c624fd45ddde6135ec42\n      0x00\n        /* \"contracts/L2/L2toL2CrossTradeProxy.sol\":181:1172  contract L2toL2CrossTradeProxy is Proxy, L2toL2CrossTradeStorage {... */\n      mstore\n      0x04\n      dup5\n      mstore\n      keccak256(0x00, 0x40)\n      swap1\n      0xffffffffffffffffffffffffffffffffffffffff\n      and\n      0x00\n      mstore\n      0x20\n      mstore\n      keccak256(0x00, 0x40)\n      swap1\n      jump\n        /* \"@openzeppelin/contracts/access/AccessControl.sol\":2954:2983  _roles[role].hasRole[account] */\n    tag_180:\n        /* \"contracts/L2/L2toL2CrossTradeProxy.sol\":181:1172  contract L2toL2CrossTradeProxy is Proxy, L2toL2CrossTradeStorage {... */\n      sload\n      and\n      mload(0x40)\n      swap1\n      iszero\n      iszero\n      dup2\n      mstore\n      return\n    tag_13:\n      jumpi(tag_131, callvalue)\n      jumpi(tag_131, slt(add(calldatasize, 0xfffffffffffffffffffffffffffffffffffffffffffffffffffffffffffffffc), 0x40))\n        /* \"@openzeppelin/contracts/access/AccessControl.sol\":4330:4355  _grantRole(role, account) */\n      tag_154\n        /* \"contracts/L2/L2toL2CrossTradeProxy.sol\":181:1172  contract L2toL2CrossTradeProxy is Proxy, L2toL2CrossTradeStorage {... */\n      calldataload(0x04)\n      tag_187\n      tag_6\n      jump\t// in\n    tag_187:\n      swap1\n      dup1\n      0x00\n      mstore\n      mstore(0x20, 0x04)\n        /* \"@openzeppelin/contracts/access/AccessControl.sol\":2475:2479  role */\n      tag_188\n        /* \"@openzeppelin/contracts/access/AccessControl.sol\":3901:3923  _roles[role].adminRole */\n      0x01\n        /* \"contracts/L2/L2toL2CrossTradeProxy.sol\":181:1172  contract L2toL2CrossTradeProxy is Proxy, L2toL2CrossTradeStorage {... */\n      keccak256(0x00, 0x40)\n        /* \"@openzeppelin/contracts/access/AccessControl.sol\":3901:3923  _roles[role].adminRole */\n      add\n        /* \"contracts/L2/L2toL2CrossTradeProxy.sol\":181:1172  contract L2toL2CrossTradeProxy is Proxy, L2toL2CrossTradeStorage {... */\n      sload\n        /* \"@openzeppelin/contracts/access/AccessControl.sol\":2475:2479  role */\n      tag_55\n      jump\t// in\n    tag_188:\n        /* \"@openzeppelin/contracts/access/AccessControl.sol\":4330:4355  _grantRole(role, account) */\n      tag_57\n      jump\t// in\n        /* \"contracts/L2/L2toL2CrossTradeProxy.sol\":181:1172  contract L2toL2CrossTradeProxy is Proxy, L2toL2CrossTradeStorage {... */\n    tag_14:\n      jumpi(tag_131, callvalue)\n      jumpi(tag_131, slt(add(calldatasize, 0xfffffffffffffffffffffffffffffffffffffffffffffffffffffffffffffffc), 0x40))\n      tag_193\n      tag_6\n      jump\t// in\n    tag_193:\n        /* \"@openzeppelin/contracts/utils/Context.sol\":735:745  msg.sender */\n      caller\n        /* \"contracts/L2/L2toL2CrossTradeProxy.sol\":181:1172  contract L2toL2CrossTradeProxy is Proxy, L2toL2CrossTradeStorage {... */\n      0xffffffffffffffffffffffffffffffffffffffff\n      dup3\n      and\n        /* \"@openzeppelin/contracts/access/AccessControl.sol\":5421:5455  callerConfirmation != _msgSender() */\n      sub\n        /* \"@openzeppelin/contracts/access/AccessControl.sol\":5417:5519  if (callerConfirmation != _msgSender()) {... */\n      tag_194\n      jumpi\n        /* \"@openzeppelin/contracts/access/AccessControl.sol\":5529:5566  _revokeRole(role, callerConfirmation) */\n      tag_154\n        /* \"contracts/L2/L2toL2CrossTradeProxy.sol\":181:1172  contract L2toL2CrossTradeProxy is Proxy, L2toL2CrossTradeStorage {... */\n      swap1\n      calldataload(0x04)\n        /* \"@openzeppelin/contracts/access/AccessControl.sol\":5529:5566  _revokeRole(role, callerConfirmation) */\n      tag_59\n      jump\t// in\n        /* \"@openzeppelin/contracts/access/AccessControl.sol\":5417:5519  if (callerConfirmation != _msgSender()) {... */\n    tag_194:\n        /* \"contracts/L2/L2toL2CrossTradeProxy.sol\":181:1172  contract L2toL2CrossTradeProxy is Proxy, L2toL2CrossTradeStorage {... */\n      0x04\n      mload(0x40)\n        /* \"@openzeppelin/contracts/access/AccessControl.sol\":5478:5508  AccessControlBadConfirmation() */\n      0x6697b23200000000000000000000000000000000000000000000000000000000\n      dup2\n      mstore\n      revert\n        /* \"contracts/L2/L2toL2CrossTradeProxy.sol\":181:1172  contract L2toL2CrossTradeProxy is Proxy, L2toL2CrossTradeStorage {... */\n    tag_15:\n      jumpi(tag_131, callvalue)\n      jumpi(tag_131, slt(add(calldatasize, 0xfffffffffffffffffffffffffffffffffffffffffffffffffffffffffffffffc), 0x20))\n      tag_201\n      tag_5\n      jump\t// in\n    tag_201:\n        /* \"contracts/common/AccessibleCommon.sol\":265:275  msg.sender */\n      caller\n      0x00\n        /* \"contracts/L2/L2toL2CrossTradeProxy.sol\":181:1172  contract L2toL2CrossTradeProxy is Proxy, L2toL2CrossTradeStorage {... */\n      swap1\n      dup2\n      mstore\n      mstore(0x20, 0x2fb794d17134dfdec181ddbac1babb5ab1eb140204ef4d982f294e7fc8b69022)\n      0x40\n      swap1\n      keccak256\n        /* \"contracts/common/AccessibleCommon.sol\":249:315  require(isAdmin(msg.sender), \"Accessible: Caller is not an admin\") */\n      tag_202\n      swap1\n        /* \"contracts/L2/L2toL2CrossTradeProxy.sol\":181:1172  contract L2toL2CrossTradeProxy is Proxy, L2toL2CrossTradeStorage {... */\n      0xff\n      swap1\n        /* \"@openzeppelin/contracts/access/AccessControl.sol\":2954:2983  _roles[role].hasRole[account] */\n    tag_203:\n        /* \"contracts/L2/L2toL2CrossTradeProxy.sol\":181:1172  contract L2toL2CrossTradeProxy is Proxy, L2toL2CrossTradeStorage {... */\n      sload\n      and\n        /* \"contracts/common/AccessibleCommon.sol\":249:315  require(isAdmin(msg.sender), \"Accessible: Caller is not an admin\") */\n      tag_43\n      jump\t// in\n    tag_202:\n        /* \"contracts/L2/L2toL2CrossTradeProxy.sol\":181:1172  contract L2toL2CrossTradeProxy is Proxy, L2toL2CrossTradeStorage {... */\n      0xffffffffffffffffffffffffffffffffffffffff\n      dup2\n      and\n        /* \"contracts/proxy/Proxy.sol\":986:1004  impl != address(0) */\n      swap1\n      dup2\n      iszero\n        /* \"contracts/L2/L2toL2CrossTradeProxy.sol\":181:1172  contract L2toL2CrossTradeProxy is Proxy, L2toL2CrossTradeStorage {... */\n      tag_204\n      jumpi\n        /* \"contracts/proxy/Proxy.sol\":1125:1159  _setImplementation2(impl, 0, true) */\n      tag_206\n        /* \"contracts/L2/L2toL2CrossTradeProxy.sol\":181:1172  contract L2toL2CrossTradeProxy is Proxy, L2toL2CrossTradeStorage {... */\n      swap1\n      0x00\n      dup1\n      mstore\n        /* \"contracts/proxy/Proxy.sol\":3744:3763  proxyImplementation */\n      0x01\n        /* \"contracts/L2/L2toL2CrossTradeProxy.sol\":181:1172  contract L2toL2CrossTradeProxy is Proxy, L2toL2CrossTradeStorage {... */\n      0x20\n      mstore\n        /* \"contracts/proxy/Proxy.sol\":1032:1115  require(... */\n      tag_207\n        /* \"contracts/L2/L2toL2CrossTradeProxy.sol\":181:1172  contract L2toL2CrossTradeProxy is Proxy, L2toL2CrossTradeStorage {... */\n      dup4\n        /* \"contracts/proxy/Proxy.sol\":1053:1080  _implementation2(0) != impl */\n      tag_208\n        /* \"contracts/proxy/Proxy.sol\":3744:3771  proxyImplementation[_index] */\n      tag_209\n        /* \"contracts/L2/L2toL2CrossTradeProxy.sol\":181:1172  contract L2toL2CrossTradeProxy is Proxy, L2toL2CrossTradeStorage {... */\n      keccak256(0x00, 0x40)\n      0xffffffffffffffffffffffffffffffffffffffff\n      swap1\n      sload\n      and\n      swap1\n      jump\n        /* \"contracts/proxy/Proxy.sol\":3744:3771  proxyImplementation[_index] */\n    tag_209:\n        /* \"contracts/L2/L2toL2CrossTradeProxy.sol\":181:1172  contract L2toL2CrossTradeProxy is Proxy, L2toL2CrossTradeStorage {... */\n      0xffffffffffffffffffffffffffffffffffffffff\n      and\n      swap1\n      jump\n        /* \"contracts/proxy/Proxy.sol\":1053:1080  _implementation2(0) != impl */\n    tag_208:\n      eq\n      iszero\n        /* \"contracts/proxy/Proxy.sol\":1032:1115  require(... */\n      tag_47\n      jump\t// in\n    tag_207:\n        /* \"contracts/proxy/Proxy.sol\":1125:1159  _setImplementation2(impl, 0, true) */\n      tag_60\n      jump\t// in\n    tag_206:\n        /* \"contracts/proxy/Proxy.sol\":1174:1188  Upgraded(impl) */\n      0xbc7cd75a20ee27fd9adebab32041f755214dbc6bffa90cc0225b39da2e5c2d3b\n      0x00\n      dup1\n      log2\n        /* \"contracts/L2/L2toL2CrossTradeProxy.sol\":181:1172  contract L2toL2CrossTradeProxy is Proxy, L2toL2CrossTradeStorage {... */\n      stop\n    tag_204:\n      0x64\n      mload(0x40)\n      0x08c379a000000000000000000000000000000000000000000000000000000000\n      dup2\n      mstore\n      0x20\n      0x04\n      dup3\n      add\n      mstore\n      0x0d\n      0x24\n      dup3\n      add\n      mstore\n      0x696e707574206973207a65726f00000000000000000000000000000000000000\n      0x44\n      dup3\n      add\n      mstore\n      revert\n    tag_16:\n      jumpi(tag_131, callvalue)\n      jumpi(tag_131, slt(add(calldatasize, 0xfffffffffffffffffffffffffffffffffffffffffffffffffffffffffffffffc), 0x40))\n      tag_214\n      tag_5\n      jump\t// in\n    tag_214:\n      tag_215\n      tag_6\n      jump\t// in\n    tag_215:\n        /* \"contracts/common/AccessibleCommon.sol\":265:275  msg.sender */\n      caller\n      0x00\n        /* \"contracts/L2/L2toL2CrossTradeProxy.sol\":181:1172  contract L2toL2CrossTradeProxy is Proxy, L2toL2CrossTradeStorage {... */\n      swap1\n      dup2\n      mstore\n      mstore(0x20, 0x2fb794d17134dfdec181ddbac1babb5ab1eb140204ef4d982f294e7fc8b69022)\n      0x40\n      swap1\n      keccak256\n        /* \"contracts/common/AccessibleCommon.sol\":249:315  require(isAdmin(msg.sender), \"Accessible: Caller is not an admin\") */\n      tag_216\n      swap1\n        /* \"contracts/L2/L2toL2CrossTradeProxy.sol\":181:1172  contract L2toL2CrossTradeProxy is Proxy, L2toL2CrossTradeStorage {... */\n      0xff\n      swap1\n        /* \"@openzeppelin/contracts/access/AccessControl.sol\":2954:2983  _roles[role].hasRole[account] */\n      tag_203\n        /* \"contracts/L2/L2toL2CrossTradeProxy.sol\":181:1172  contract L2toL2CrossTradeProxy is Proxy, L2toL2CrossTradeStorage {... */\n      jump\n        /* \"contracts/common/AccessibleCommon.sol\":249:315  require(isAdmin(msg.sender), \"Accessible: Caller is not an admin\") */\n    tag_216:\n        /* \"contracts/L2/L2toL2CrossTradeProxy.sol\":181:1172  contract L2toL2CrossTradeProxy is Proxy, L2toL2CrossTradeStorage {... */\n      0xffffffffffffffffffffffffffffffffffffffff\n      swap1\n      dup2\n      0xffffffffffffffffffffffff0000000000000000000000000000000000000000\n      swap4\n      and\n      dup4\n        /* \"contracts/L2/L2toL2CrossTradeProxy.sol\":559:603  crossDomainMessenger = _crossDomainMessenger */\n      0x05\n        /* \"contracts/L2/L2toL2CrossTradeProxy.sol\":181:1172  contract L2toL2CrossTradeProxy is Proxy, L2toL2CrossTradeStorage {... */\n      sload\n      and\n      or\n        /* \"contracts/L2/L2toL2CrossTradeProxy.sol\":559:603  crossDomainMessenger = _crossDomainMessenger */\n      0x05\n        /* \"contracts/L2/L2toL2CrossTradeProxy.sol\":181:1172  contract L2toL2CrossTradeProxy is Proxy, L2toL2CrossTradeStorage {... */\n      sstore\n      and\n      swap1\n        /* \"contracts/L2/L2toL2CrossTradeProxy.sol\":613:642  legacyERC20ETH = _legacyERC20 */\n      0x06\n        /* \"contracts/L2/L2toL2CrossTradeProxy.sol\":181:1172  contract L2toL2CrossTradeProxy is Proxy, L2toL2CrossTradeStorage {... */\n      sload\n      and\n      or\n        /* \"contracts/L2/L2toL2CrossTradeProxy.sol\":613:642  legacyERC20ETH = _legacyERC20 */\n      0x06\n        /* \"contracts/L2/L2toL2CrossTradeProxy.sol\":181:1172  contract L2toL2CrossTradeProxy is Proxy, L2toL2CrossTradeStorage {... */\n      sstore\n      0x00\n      dup1\n      return\n    tag_17:\n      jumpi(tag_131, callvalue)\n      jumpi(tag_131, slt(add(calldatasize, 0xfffffffffffffffffffffffffffffffffffffffffffffffffffffffffffffffc), 0x40))\n      calldataload(0x04)\n      0xffffffffffffffff\n      dup1\n      dup3\n      gt\n      tag_131\n      jumpi\n      calldatasize\n      0x23\n      dup4\n      add\n      slt\n      iszero\n      tag_131\n      jumpi\n      dup2\n      0x04\n      add\n      calldataload\n      swap1\n      dup2\n      gt\n      tag_131\n      jumpi\n      0x24\n      dup3\n      add\n      swap2\n      0x24\n      calldatasize\n      swap2\n      dup4\n      0x05\n      shl\n      add\n      add\n      gt\n      tag_131\n      jumpi\n      tag_230\n      tag_6\n      jump\t// in\n    tag_230:\n        /* \"contracts/common/AccessibleCommon.sol\":265:275  msg.sender */\n      caller\n      0x00\n        /* \"contracts/L2/L2toL2CrossTradeProxy.sol\":181:1172  contract L2toL2CrossTradeProxy is Proxy, L2toL2CrossTradeStorage {... */\n      swap1\n      dup2\n      mstore\n      mstore(0x20, 0x2fb794d17134dfdec181ddbac1babb5ab1eb140204ef4d982f294e7fc8b69022)\n      0x40\n      swap1\n      keccak256\n      swap1\n      swap3\n      swap1\n        /* \"contracts/common/AccessibleCommon.sol\":249:315  require(isAdmin(msg.sender), \"Accessible: Caller is not an admin\") */\n      tag_231\n      swap1\n        /* \"contracts/L2/L2toL2CrossTradeProxy.sol\":181:1172  contract L2toL2CrossTradeProxy is Proxy, L2toL2CrossTradeStorage {... */\n      0xff\n      swap1\n        /* \"@openzeppelin/contracts/access/AccessControl.sol\":2954:2983  _roles[role].hasRole[account] */\n      tag_203\n        /* \"contracts/L2/L2toL2CrossTradeProxy.sol\":181:1172  contract L2toL2CrossTradeProxy is Proxy, L2toL2CrossTradeStorage {... */\n      jump\n        /* \"contracts/common/AccessibleCommon.sol\":249:315  require(isAdmin(msg.sender), \"Accessible: Caller is not an admin\") */\n    tag_231:\n        /* \"contracts/proxy/Proxy.sol\":1865:1886  _selectors.length > 0 */\n      dup2\n      iszero\n        /* \"contracts/L2/L2toL2CrossTradeProxy.sol\":181:1172  contract L2toL2CrossTradeProxy is Proxy, L2toL2CrossTradeStorage {... */\n      tag_233\n      jumpi\n        /* \"contracts/proxy/Proxy.sol\":1962:1987  aliveImplementation[_imp] */\n      swap1\n        /* \"contracts/proxy/Proxy.sol\":1954:2016  require(aliveImplementation[_imp], \"Proxy: _imp is not alive\") */\n      tag_235\n        /* \"contracts/proxy/Proxy.sol\":1962:1987  aliveImplementation[_imp] */\n      tag_236\n      tag_237\n      dup6\n        /* \"contracts/L2/L2toL2CrossTradeProxy.sol\":181:1172  contract L2toL2CrossTradeProxy is Proxy, L2toL2CrossTradeStorage {... */\n      0xffffffffffffffffffffffffffffffffffffffff\n      and\n      0x00\n      mstore\n        /* \"contracts/proxy/Proxy.sol\":1962:1981  aliveImplementation */\n      0x02\n        /* \"contracts/L2/L2toL2CrossTradeProxy.sol\":181:1172  contract L2toL2CrossTradeProxy is Proxy, L2toL2CrossTradeStorage {... */\n      0x20\n      mstore\n      keccak256(0x00, 0x40)\n      swap1\n      jump\n        /* \"contracts/proxy/Proxy.sol\":1962:1987  aliveImplementation[_imp] */\n    tag_237:\n        /* \"contracts/L2/L2toL2CrossTradeProxy.sol\":181:1172  contract L2toL2CrossTradeProxy is Proxy, L2toL2CrossTradeStorage {... */\n      sload\n      0xff\n      and\n      swap1\n      jump\n        /* \"contracts/proxy/Proxy.sol\":1962:1987  aliveImplementation[_imp] */\n    tag_236:\n        /* \"contracts/proxy/Proxy.sol\":1954:2016  require(aliveImplementation[_imp], \"Proxy: _imp is not alive\") */\n      tag_49\n      jump\t// in\n    tag_235:\n      0x00\n        /* \"contracts/L2/L2toL2CrossTradeProxy.sol\":181:1172  contract L2toL2CrossTradeProxy is Proxy, L2toL2CrossTradeStorage {... */\n      swap1\n      0xffffffffffffffffffffffffffffffffffffffff\n      swap3\n      dup4\n      dup6\n      and\n        /* \"contracts/proxy/Proxy.sol\":2027:2356  for (uint256 i = 0; i < _selectors.length; i++) {... */\n      swap3\n        /* \"contracts/proxy/Proxy.sol\":2047:2068  i < _selectors.length */\n    tag_238:\n      dup3\n      dup2\n      lt\n      tag_239\n      jumpi\n        /* \"contracts/L2/L2toL2CrossTradeProxy.sol\":181:1172  contract L2toL2CrossTradeProxy is Proxy, L2toL2CrossTradeStorage {... */\n      stop\n        /* \"contracts/proxy/Proxy.sol\":2070:2073  i++ */\n    tag_239:\n        /* \"contracts/proxy/Proxy.sol\":2137:2150  _selectors[i] */\n      dup1\n        /* \"contracts/proxy/Proxy.sol\":2089:2222  require(... */\n      tag_241\n        /* \"contracts/proxy/Proxy.sol\":2137:2150  _selectors[i] */\n      dup6\n      dup8\n        /* \"contracts/proxy/Proxy.sol\":2114:2151  selectorImplementation[_selectors[i]] */\n      tag_242\n      tag_243\n        /* \"contracts/proxy/Proxy.sol\":2137:2150  _selectors[i] */\n      tag_244\n      tag_245\n        /* \"contracts/L2/L2toL2CrossTradeProxy.sol\":181:1172  contract L2toL2CrossTradeProxy is Proxy, L2toL2CrossTradeStorage {... */\n      0x01\n        /* \"contracts/proxy/Proxy.sol\":2137:2150  _selectors[i] */\n      swap9\n      dup12\n      dup12\n      tag_50\n      jump\t// in\n    tag_245:\n      tag_51\n      jump\t// in\n    tag_244:\n        /* \"contracts/L2/L2toL2CrossTradeProxy.sol\":181:1172  contract L2toL2CrossTradeProxy is Proxy, L2toL2CrossTradeStorage {... */\n      0xffffffff00000000000000000000000000000000000000000000000000000000\n      and\n      0x00\n      mstore\n        /* \"contracts/proxy/Proxy.sol\":2114:2136  selectorImplementation */\n      0x03\n        /* \"contracts/L2/L2toL2CrossTradeProxy.sol\":181:1172  contract L2toL2CrossTradeProxy is Proxy, L2toL2CrossTradeStorage {... */\n      0x20\n      mstore\n      keccak256(0x00, 0x40)\n      swap1\n      jump\n        /* \"contracts/proxy/Proxy.sol\":2114:2151  selectorImplementation[_selectors[i]] */\n    tag_243:\n        /* \"contracts/L2/L2toL2CrossTradeProxy.sol\":181:1172  contract L2toL2CrossTradeProxy is Proxy, L2toL2CrossTradeStorage {... */\n      sload\n      0xffffffffffffffffffffffffffffffffffffffff\n      and\n      swap1\n      jump\n        /* \"contracts/proxy/Proxy.sol\":2114:2151  selectorImplementation[_selectors[i]] */\n    tag_242:\n        /* \"contracts/L2/L2toL2CrossTradeProxy.sol\":181:1172  contract L2toL2CrossTradeProxy is Proxy, L2toL2CrossTradeStorage {... */\n      and\n        /* \"contracts/proxy/Proxy.sol\":2114:2159  selectorImplementation[_selectors[i]] != _imp */\n      eq\n      iszero\n        /* \"contracts/proxy/Proxy.sol\":2089:2222  require(... */\n      tag_52\n      jump\t// in\n    tag_241:\n        /* \"contracts/proxy/Proxy.sol\":2236:2280  selectorImplementation[_selectors[i]] = _imp */\n      tag_246\n        /* \"contracts/proxy/Proxy.sol\":2259:2272  _selectors[i] */\n      dup8\n        /* \"contracts/proxy/Proxy.sol\":2236:2273  selectorImplementation[_selectors[i]] */\n      tag_247\n        /* \"contracts/proxy/Proxy.sol\":2259:2272  _selectors[i] */\n      tag_244\n      tag_245\n      dup6\n      dup10\n      dup10\n      tag_50\n      jump\t// in\n        /* \"contracts/proxy/Proxy.sol\":2236:2273  selectorImplementation[_selectors[i]] */\n    tag_247:\n        /* \"contracts/L2/L2toL2CrossTradeProxy.sol\":181:1172  contract L2toL2CrossTradeProxy is Proxy, L2toL2CrossTradeStorage {... */\n      swap1\n      0xffffffffffffffffffffffffffffffffffffffff\n      and\n      0xffffffffffffffffffffffff0000000000000000000000000000000000000000\n      dup3\n      sload\n      and\n      or\n      swap1\n      sstore\n      jump\n        /* \"contracts/proxy/Proxy.sol\":2236:2280  selectorImplementation[_selectors[i]] = _imp */\n    tag_246:\n        /* \"contracts/proxy/Proxy.sol\":2325:2338  _selectors[i] */\n      dup5\n        /* \"contracts/proxy/Proxy.sol\":2299:2345  SetSelectorImplementation(_selectors[i], _imp) */\n      tag_250\n        /* \"contracts/proxy/Proxy.sol\":2325:2338  _selectors[i] */\n      tag_251\n      tag_245\n      dup5\n      dup9\n      dup9\n      tag_50\n      jump\t// in\n    tag_251:\n        /* \"contracts/L2/L2toL2CrossTradeProxy.sol\":181:1172  contract L2toL2CrossTradeProxy is Proxy, L2toL2CrossTradeStorage {... */\n      0xffffffff00000000000000000000000000000000000000000000000000000000\n      and\n      swap1\n      jump\n        /* \"contracts/proxy/Proxy.sol\":2299:2345  SetSelectorImplementation(_selectors[i], _imp) */\n    tag_250:\n      0x14ebc1c32aa68f4d766e89f3e546cee249f7df25183fc10ab1568d91c2ce9b7b\n      0x00\n      dup1\n      log3\n        /* \"contracts/L2/L2toL2CrossTradeProxy.sol\":181:1172  contract L2toL2CrossTradeProxy is Proxy, L2toL2CrossTradeStorage {... */\n      add\n        /* \"contracts/proxy/Proxy.sol\":2032:2045  uint256 i = 0 */\n      jump(tag_238)\n        /* \"contracts/L2/L2toL2CrossTradeProxy.sol\":181:1172  contract L2toL2CrossTradeProxy is Proxy, L2toL2CrossTradeStorage {... */\n    tag_233:\n      0x64\n      mload(0x40)\n      0x08c379a000000000000000000000000000000000000000000000000000000000\n      dup2\n      mstore\n      0x20\n      0x04\n      dup3\n      add\n      mstore\n      0x20\n      0x24\n      dup3\n      add\n      mstore\n      0x50726f78793a205f73656c6563746f727327732073697a65206973207a65726f\n      0x44\n      dup3\n      add\n      mstore\n      revert\n    tag_19:\n      jumpi(tag_131, callvalue)\n      jumpi(tag_131, slt(add(calldatasize, 0xfffffffffffffffffffffffffffffffffffffffffffffffffffffffffffffffc), 0x20))\n      0xffffffff00000000000000000000000000000000000000000000000000000000\n      calldataload(0x04)\n      tag_257\n      dup2\n      tag_2\n      jump\t// in\n    tag_257:\n      and\n      0x00\n      mstore\n        /* \"contracts/proxy/ProxyStorage.sol\":239:295  mapping(bytes4 => address) public selectorImplementation */\n      0x03\n        /* \"contracts/L2/L2toL2CrossTradeProxy.sol\":181:1172  contract L2toL2CrossTradeProxy is Proxy, L2toL2CrossTradeStorage {... */\n      0x20\n      mstore\n      0x20\n      and(sload(keccak256(0x00, 0x40)), 0xffffffffffffffffffffffffffffffffffffffff)\n      mload(0x40)\n      swap1\n      dup2\n      mstore\n      return\n    tag_22:\n      jumpi(tag_131, callvalue)\n      jumpi(tag_131, slt(add(calldatasize, 0xfffffffffffffffffffffffffffffffffffffffffffffffffffffffffffffffc), 0x20))\n      0xffffffffffffffffffffffffffffffffffffffff\n      tag_262\n      tag_5\n      jump\t// in\n    tag_262:\n      and\n      0x00\n      mstore\n        /* \"contracts/proxy/ProxyStorage.sol\":182:233  mapping(address => bool) public aliveImplementation */\n      0x02\n        /* \"contracts/L2/L2toL2CrossTradeProxy.sol\":181:1172  contract L2toL2CrossTradeProxy is Proxy, L2toL2CrossTradeStorage {... */\n      0x20\n      mstore\n      0x20\n      and(sload(keccak256(0x00, 0x40)), 0xff)\n      mload(0x40)\n      swap1\n      iszero\n      iszero\n      dup2\n      mstore\n      return\n    tag_23:\n      jumpi(tag_131, callvalue)\n      jumpi(tag_131, slt(add(calldatasize, 0xfffffffffffffffffffffffffffffffffffffffffffffffffffffffffffffffc), 0x00))\n      0x00\n      dup1\n      mstore\n        /* \"contracts/proxy/Proxy.sol\":3744:3763  proxyImplementation */\n      0x01\n        /* \"contracts/L2/L2toL2CrossTradeProxy.sol\":181:1172  contract L2toL2CrossTradeProxy is Proxy, L2toL2CrossTradeStorage {... */\n      0x20\n      mstore\n      0x20\n      and(sload(keccak256(0x00, 0x40)), 0xffffffffffffffffffffffffffffffffffffffff)\n      mload(0x40)\n      swap1\n      dup2\n      mstore\n      return\n    tag_24:\n      jumpi(tag_131, callvalue)\n      jumpi(tag_131, slt(add(calldatasize, 0xfffffffffffffffffffffffffffffffffffffffffffffffffffffffffffffffc), 0x40))\n      tag_271\n      tag_5\n      jump\t// in\n    tag_271:\n      calldataload(0x24)\n      dup1\n      iszero\n      iszero\n      dup2\n      sub\n      tag_131\n      jumpi\n        /* \"contracts/common/AccessibleCommon.sol\":265:275  msg.sender */\n      caller\n      0x00\n        /* \"contracts/L2/L2toL2CrossTradeProxy.sol\":181:1172  contract L2toL2CrossTradeProxy is Proxy, L2toL2CrossTradeStorage {... */\n      swap1\n      dup2\n      mstore\n      mstore(0x20, 0x2fb794d17134dfdec181ddbac1babb5ab1eb140204ef4d982f294e7fc8b69022)\n      0x40\n      swap1\n      keccak256\n        /* \"contracts/proxy/Proxy.sol\":1652:1658  _alive */\n      tag_154\n      swap3\n        /* \"contracts/L2/L2toL2CrossTradeProxy.sol\":181:1172  contract L2toL2CrossTradeProxy is Proxy, L2toL2CrossTradeStorage {... */\n      swap1\n        /* \"contracts/common/AccessibleCommon.sol\":249:315  require(isAdmin(msg.sender), \"Accessible: Caller is not an admin\") */\n      tag_275\n      swap1\n        /* \"contracts/L2/L2toL2CrossTradeProxy.sol\":181:1172  contract L2toL2CrossTradeProxy is Proxy, L2toL2CrossTradeStorage {... */\n      0xff\n      swap1\n        /* \"@openzeppelin/contracts/access/AccessControl.sol\":2954:2983  _roles[role].hasRole[account] */\n      tag_203\n        /* \"contracts/L2/L2toL2CrossTradeProxy.sol\":181:1172  contract L2toL2CrossTradeProxy is Proxy, L2toL2CrossTradeStorage {... */\n      jump\n        /* \"contracts/common/AccessibleCommon.sol\":249:315  require(isAdmin(msg.sender), \"Accessible: Caller is not an admin\") */\n    tag_275:\n        /* \"contracts/proxy/Proxy.sol\":1652:1658  _alive */\n      tag_61\n      jump\t// in\n        /* \"contracts/L2/L2toL2CrossTradeProxy.sol\":181:1172  contract L2toL2CrossTradeProxy is Proxy, L2toL2CrossTradeStorage {... */\n    tag_25:\n      jumpi(tag_131, callvalue)\n      jumpi(tag_131, slt(add(calldatasize, 0xfffffffffffffffffffffffffffffffffffffffffffffffffffffffffffffffc), 0x00))\n      0x20\n      and(sload(0x00), 0xff)\n      mload(0x40)\n      swap1\n      iszero\n      iszero\n      dup2\n      mstore\n      return\n    tag_26:\n      jumpi(tag_131, callvalue)\n      jumpi(tag_131, slt(add(calldatasize, 0xfffffffffffffffffffffffffffffffffffffffffffffffffffffffffffffffc), 0x20))\n        /* \"@openzeppelin/contracts/access/AccessControl.sol\":4330:4355  _grantRole(role, account) */\n      tag_154\n        /* \"contracts/L2/L2toL2CrossTradeProxy.sol\":181:1172  contract L2toL2CrossTradeProxy is Proxy, L2toL2CrossTradeStorage {... */\n      tag_286\n      tag_5\n      jump\t// in\n    tag_286:\n        /* \"contracts/common/AccessibleCommon.sol\":265:275  msg.sender */\n      caller\n      0x00\n        /* \"contracts/L2/L2toL2CrossTradeProxy.sol\":181:1172  contract L2toL2CrossTradeProxy is Proxy, L2toL2CrossTradeStorage {... */\n      swap1\n      dup2\n      mstore\n      mstore(0x20, 0x2fb794d17134dfdec181ddbac1babb5ab1eb140204ef4d982f294e7fc8b69022)\n      0x40\n      swap1\n      keccak256\n        /* \"contracts/common/AccessRoleCommon.sol\":127:145  keccak256(\"ADMIN\") */\n      0xdf8b4c520ffe197c5343c6f5aec59570151ef9a492f2c624fd45ddde6135ec42\n      swap1\n        /* \"contracts/common/AccessibleCommon.sol\":249:315  require(isAdmin(msg.sender), \"Accessible: Caller is not an admin\") */\n      tag_287\n      swap1\n        /* \"contracts/L2/L2toL2CrossTradeProxy.sol\":181:1172  contract L2toL2CrossTradeProxy is Proxy, L2toL2CrossTradeStorage {... */\n      0xff\n      swap1\n        /* \"@openzeppelin/contracts/access/AccessControl.sol\":2954:2983  _roles[role].hasRole[account] */\n      tag_203\n        /* \"contracts/L2/L2toL2CrossTradeProxy.sol\":181:1172  contract L2toL2CrossTradeProxy is Proxy, L2toL2CrossTradeStorage {... */\n      jump\n        /* \"contracts/common/AccessibleCommon.sol\":249:315  require(isAdmin(msg.sender), \"Accessible: Caller is not an admin\") */\n    tag_287:\n      0x00\n        /* \"contracts/L2/L2toL2CrossTradeProxy.sol\":181:1172  contract L2toL2CrossTradeProxy is Proxy, L2toL2CrossTradeStorage {... */\n      mstore\n      mstore(0x20, 0x04)\n        /* \"@openzeppelin/contracts/access/AccessControl.sol\":2475:2479  role */\n      tag_289\n        /* \"@openzeppelin/contracts/access/AccessControl.sol\":3901:3923  _roles[role].adminRole */\n      0x01\n        /* \"contracts/L2/L2toL2CrossTradeProxy.sol\":181:1172  contract L2toL2CrossTradeProxy is Proxy, L2toL2CrossTradeStorage {... */\n      keccak256(0x00, 0x40)\n        /* \"@openzeppelin/contracts/access/AccessControl.sol\":3901:3923  _roles[role].adminRole */\n      add\n        /* \"contracts/L2/L2toL2CrossTradeProxy.sol\":181:1172  contract L2toL2CrossTradeProxy is Proxy, L2toL2CrossTradeStorage {... */\n      sload\n        /* \"@openzeppelin/contracts/access/AccessControl.sol\":2475:2479  role */\n      tag_55\n      jump\t// in\n    tag_289:\n        /* \"@openzeppelin/contracts/access/AccessControl.sol\":4330:4355  _grantRole(role, account) */\n      tag_56\n      jump\t// in\n        /* \"contracts/L2/L2toL2CrossTradeProxy.sol\":181:1172  contract L2toL2CrossTradeProxy is Proxy, L2toL2CrossTradeStorage {... */\n    tag_27:\n      jumpi(tag_131, callvalue)\n      jumpi(tag_131, slt(add(calldatasize, 0xfffffffffffffffffffffffffffffffffffffffffffffffffffffffffffffffc), 0x20))\n      tag_294\n      tag_5\n      jump\t// in\n    tag_294:\n        /* \"contracts/common/AccessibleCommon.sol\":265:275  msg.sender */\n      caller\n      0x00\n        /* \"contracts/L2/L2toL2CrossTradeProxy.sol\":181:1172  contract L2toL2CrossTradeProxy is Proxy, L2toL2CrossTradeStorage {... */\n      swap1\n      dup2\n      mstore\n      mstore(0x20, 0x2fb794d17134dfdec181ddbac1babb5ab1eb140204ef4d982f294e7fc8b69022)\n      0x40\n      swap1\n      keccak256\n        /* \"contracts/common/AccessibleCommon.sol\":249:315  require(isAdmin(msg.sender), \"Accessible: Caller is not an admin\") */\n      tag_295\n      swap1\n        /* \"contracts/L2/L2toL2CrossTradeProxy.sol\":181:1172  contract L2toL2CrossTradeProxy is Proxy, L2toL2CrossTradeStorage {... */\n      0xff\n      swap1\n        /* \"@openzeppelin/contracts/access/AccessControl.sol\":2954:2983  _roles[role].hasRole[account] */\n      tag_203\n        /* \"contracts/L2/L2toL2CrossTradeProxy.sol\":181:1172  contract L2toL2CrossTradeProxy is Proxy, L2toL2CrossTradeStorage {... */\n      jump\n        /* \"contracts/common/AccessibleCommon.sol\":249:315  require(isAdmin(msg.sender), \"Accessible: Caller is not an admin\") */\n    tag_295:\n        /* \"contracts/L2/L2toL2CrossTradeProxy.sol\":181:1172  contract L2toL2CrossTradeProxy is Proxy, L2toL2CrossTradeStorage {... */\n      0xffffffffffffffffffffffffffffffffffffffff\n      dup2\n      and\n        /* \"contracts/common/AccessibleCommon.sol\":857:879  newAdmin != address(0) */\n      dup1\n      iszero\n        /* \"contracts/L2/L2toL2CrossTradeProxy.sol\":181:1172  contract L2toL2CrossTradeProxy is Proxy, L2toL2CrossTradeStorage {... */\n      tag_297\n      jumpi\n        /* \"contracts/common/AccessibleCommon.sol\":265:275  msg.sender */\n      caller\n        /* \"contracts/common/AccessibleCommon.sol\":926:948  msg.sender != newAdmin */\n      eq\n        /* \"contracts/L2/L2toL2CrossTradeProxy.sol\":181:1172  contract L2toL2CrossTradeProxy is Proxy, L2toL2CrossTradeStorage {... */\n      tag_299\n      jumpi\n        /* \"@openzeppelin/contracts/access/AccessControl.sol\":4226:4362  function grantRole(bytes32 role, address account) public virtual onlyRole(getRoleAdmin(role)) {... */\n      tag_301\n      swap1\n      tag_45\n      jump\t// in\n    tag_301:\n        /* \"contracts/common/AccessibleCommon.sol\":1052:1062  msg.sender */\n      tag_154\n        /* \"contracts/common/AccessibleCommon.sol\":265:275  msg.sender */\n      caller\n        /* \"contracts/common/AccessibleCommon.sol\":1052:1062  msg.sender */\n      tag_46\n      jump\t// in\n        /* \"contracts/L2/L2toL2CrossTradeProxy.sol\":181:1172  contract L2toL2CrossTradeProxy is Proxy, L2toL2CrossTradeStorage {... */\n    tag_299:\n      0x64\n      mload(0x40)\n      0x08c379a000000000000000000000000000000000000000000000000000000000\n      dup2\n      mstore\n      0x20\n      0x04\n      dup3\n      add\n      mstore\n      0x16\n      0x24\n      dup3\n      add\n      mstore\n      0x41636365737369626c653a2073616d652061646d696e00000000000000000000\n      0x44\n      dup3\n      add\n      mstore\n      revert\n    tag_297:\n      0x64\n      mload(0x40)\n      0x08c379a000000000000000000000000000000000000000000000000000000000\n      dup2\n      mstore\n      0x20\n      0x04\n      dup3\n      add\n      mstore\n      0x18\n      0x24\n      dup3\n      add\n      mstore\n      0x41636365737369626c653a207a65726f20616464726573730000000000000000\n      0x44\n      dup3\n      add\n      mstore\n      revert\n    tag_28:\n      jumpi(tag_131, callvalue)\n      jumpi(tag_131, slt(add(calldatasize, 0xfffffffffffffffffffffffffffffffffffffffffffffffffffffffffffffffc), 0x00))\n      0x20\n      mload(0x40)\n        /* \"contracts/common/AccessRoleCommon.sol\":127:145  keccak256(\"ADMIN\") */\n      0xdf8b4c520ffe197c5343c6f5aec59570151ef9a492f2c624fd45ddde6135ec42\n        /* \"contracts/L2/L2toL2CrossTradeProxy.sol\":181:1172  contract L2toL2CrossTradeProxy is Proxy, L2toL2CrossTradeStorage {... */\n      dup2\n      mstore\n      return\n    tag_29:\n      jumpi(tag_131, callvalue)\n      jumpi(tag_131, slt(add(calldatasize, 0xfffffffffffffffffffffffffffffffffffffffffffffffffffffffffffffffc), 0x20))\n      calldataload(0x04)\n      dup1\n      iszero\n      iszero\n      dup1\n      swap2\n      sub\n      tag_131\n      jumpi\n        /* \"contracts/common/AccessibleCommon.sol\":265:275  msg.sender */\n      caller\n      0x00\n        /* \"contracts/L2/L2toL2CrossTradeProxy.sol\":181:1172  contract L2toL2CrossTradeProxy is Proxy, L2toL2CrossTradeStorage {... */\n      swap1\n      dup2\n      mstore\n      mstore(0x20, 0x2fb794d17134dfdec181ddbac1babb5ab1eb140204ef4d982f294e7fc8b69022)\n      0x40\n      swap1\n      keccak256\n        /* \"contracts/common/AccessibleCommon.sol\":249:315  require(isAdmin(msg.sender), \"Accessible: Caller is not an admin\") */\n      tag_313\n      swap1\n        /* \"contracts/L2/L2toL2CrossTradeProxy.sol\":181:1172  contract L2toL2CrossTradeProxy is Proxy, L2toL2CrossTradeStorage {... */\n      0xff\n      swap1\n        /* \"@openzeppelin/contracts/access/AccessControl.sol\":2954:2983  _roles[role].hasRole[account] */\n      tag_203\n        /* \"contracts/L2/L2toL2CrossTradeProxy.sol\":181:1172  contract L2toL2CrossTradeProxy is Proxy, L2toL2CrossTradeStorage {... */\n      jump\n        /* \"contracts/common/AccessibleCommon.sol\":249:315  require(isAdmin(msg.sender), \"Accessible: Caller is not an admin\") */\n    tag_313:\n        /* \"contracts/L2/L2toL2CrossTradeProxy.sol\":181:1172  contract L2toL2CrossTradeProxy is Proxy, L2toL2CrossTradeStorage {... */\n      0xff\n      and(sload(0x00), 0xffffffffffffffffffffffffffffffffffffffffffffffffffffffffffffff00)\n      swap2\n      and\n      or\n      0x00\n      sstore\n      0x00\n      dup1\n      return\n    tag_30:\n      jumpi(tag_131, callvalue)\n      jumpi(tag_131, slt(add(calldatasize, 0xfffffffffffffffffffffffffffffffffffffffffffffffffffffffffffffffc), 0x60))\n      tag_319\n      tag_5\n      jump\t// in\n    tag_319:\n      calldataload(0x44)\n      dup1\n      iszero\n      iszero\n      dup2\n      sub\n      tag_131\n      jumpi\n        /* \"contracts/common/AccessibleCommon.sol\":265:275  msg.sender */\n      caller\n      0x00\n        /* \"contracts/L2/L2toL2CrossTradeProxy.sol\":181:1172  contract L2toL2CrossTradeProxy is Proxy, L2toL2CrossTradeStorage {... */\n      swap1\n      dup2\n      mstore\n      mstore(0x20, 0x2fb794d17134dfdec181ddbac1babb5ab1eb140204ef4d982f294e7fc8b69022)\n      0x40\n      swap1\n      keccak256\n        /* \"contracts/common/AccessibleCommon.sol\":249:315  require(isAdmin(msg.sender), \"Accessible: Caller is not an admin\") */\n      tag_322\n      swap1\n        /* \"contracts/L2/L2toL2CrossTradeProxy.sol\":181:1172  contract L2toL2CrossTradeProxy is Proxy, L2toL2CrossTradeStorage {... */\n      0xff\n      swap1\n        /* \"@openzeppelin/contracts/access/AccessControl.sol\":2954:2983  _roles[role].hasRole[account] */\n      tag_203\n        /* \"contracts/L2/L2toL2CrossTradeProxy.sol\":181:1172  contract L2toL2CrossTradeProxy is Proxy, L2toL2CrossTradeStorage {... */\n      jump\n        /* \"contracts/common/AccessibleCommon.sol\":249:315  require(isAdmin(msg.sender), \"Accessible: Caller is not an admin\") */\n    tag_322:\n        /* \"contracts/proxy/Proxy.sol\":5985:6004  account.code.length */\n      dup2\n      extcodesize\n        /* \"contracts/proxy/Proxy.sol\":5985:6008  account.code.length > 0 */\n      iszero\n        /* \"contracts/L2/L2toL2CrossTradeProxy.sol\":181:1172  contract L2toL2CrossTradeProxy is Proxy, L2toL2CrossTradeStorage {... */\n      tag_324\n      jumpi\n        /* \"contracts/proxy/Proxy.sol\":5501:5507  _alive */\n      tag_154\n        /* \"contracts/proxy/Proxy.sol\":5388:5447  if (_alive) proxyImplementation[_index] = newImplementation */\n      swap2\n      dup2\n      iszero\n        /* \"contracts/proxy/Proxy.sol\":5501:5507  _alive */\n      tag_61\n        /* \"contracts/proxy/Proxy.sol\":5388:5447  if (_alive) proxyImplementation[_index] = newImplementation */\n      jumpi\n        /* \"contracts/L2/L2toL2CrossTradeProxy.sol\":181:1172  contract L2toL2CrossTradeProxy is Proxy, L2toL2CrossTradeStorage {... */\n      mstore(0x00, calldataload(0x24))\n        /* \"contracts/proxy/Proxy.sol\":5400:5419  proxyImplementation */\n      0x01\n        /* \"contracts/L2/L2toL2CrossTradeProxy.sol\":181:1172  contract L2toL2CrossTradeProxy is Proxy, L2toL2CrossTradeStorage {... */\n      0x20\n      mstore\n        /* \"contracts/proxy/Proxy.sol\":5400:5447  proxyImplementation[_index] = newImplementation */\n      tag_275\n        /* \"contracts/L2/L2toL2CrossTradeProxy.sol\":181:1172  contract L2toL2CrossTradeProxy is Proxy, L2toL2CrossTradeStorage {... */\n      dup2\n      keccak256(0x00, 0x40)\n      swap1\n      0xffffffffffffffffffffffffffffffffffffffff\n      and\n      0xffffffffffffffffffffffff0000000000000000000000000000000000000000\n      dup3\n      sload\n      and\n      or\n      swap1\n      sstore\n      jump\n    tag_324:\n      0x64\n      mload(0x40)\n      0x08c379a000000000000000000000000000000000000000000000000000000000\n      dup2\n      mstore\n      0x20\n      0x04\n      dup3\n      add\n      mstore\n      0x1b\n      0x24\n      dup3\n      add\n      mstore\n      0x50726f78793a206e6f7420636f6e747261637420616464726573730000000000\n      0x44\n      dup3\n      add\n      mstore\n      revert\n    tag_31:\n      jumpi(tag_131, callvalue)\n      jumpi(tag_131, slt(add(calldatasize, 0xfffffffffffffffffffffffffffffffffffffffffffffffffffffffffffffffc), 0x20))\n      mstore(0x00, calldataload(0x04))\n        /* \"contracts/proxy/Proxy.sol\":3744:3763  proxyImplementation */\n      0x01\n        /* \"contracts/L2/L2toL2CrossTradeProxy.sol\":181:1172  contract L2toL2CrossTradeProxy is Proxy, L2toL2CrossTradeStorage {... */\n      0x20\n      mstore\n      0x20\n      and(sload(keccak256(0x00, 0x40)), 0xffffffffffffffffffffffffffffffffffffffff)\n      mload(0x40)\n      swap1\n      dup2\n      mstore\n      return\n    tag_32:\n      jumpi(tag_131, callvalue)\n      jumpi(tag_131, slt(add(calldatasize, 0xfffffffffffffffffffffffffffffffffffffffffffffffffffffffffffffffc), 0x20))\n      0x20\n      tag_338\n      calldataload(0x04)\n      tag_339\n      dup2\n      tag_2\n      jump\t// in\n    tag_339:\n      tag_53\n      jump\t// in\n    tag_338:\n      0xffffffffffffffffffffffffffffffffffffffff\n      mload(0x40)\n      swap2\n      and\n      dup2\n      mstore\n      return\n    tag_33:\n      jumpi(tag_131, callvalue)\n      jumpi(tag_131, slt(add(calldatasize, 0xfffffffffffffffffffffffffffffffffffffffffffffffffffffffffffffffc), 0x40))\n      0x20\n      0xff\n        /* \"@openzeppelin/contracts/access/AccessControl.sol\":2954:2983  _roles[role].hasRole[account] */\n      tag_180\n        /* \"contracts/L2/L2toL2CrossTradeProxy.sol\":181:1172  contract L2toL2CrossTradeProxy is Proxy, L2toL2CrossTradeStorage {... */\n      tag_345\n      tag_6\n      jump\t// in\n    tag_345:\n      mstore(0x00, calldataload(0x04))\n      0x04\n      dup5\n      mstore\n      keccak256(0x00, 0x40)\n      swap1\n      0xffffffffffffffffffffffffffffffffffffffff\n      and\n      0x00\n      mstore\n      0x20\n      mstore\n      keccak256(0x00, 0x40)\n      swap1\n      jump\n    tag_34:\n      jumpi(tag_131, callvalue)\n      jumpi(tag_131, slt(add(calldatasize, 0xfffffffffffffffffffffffffffffffffffffffffffffffffffffffffffffffc), 0x00))\n      0x20\n        /* \"contracts/L2/L2toL2CrossTradeStorage.sol\":587:611  uint256 public saleCount */\n      0x07\n        /* \"contracts/L2/L2toL2CrossTradeProxy.sol\":181:1172  contract L2toL2CrossTradeProxy is Proxy, L2toL2CrossTradeStorage {... */\n      sload\n      mload(0x40)\n      swap1\n      dup2\n      mstore\n      return\n    tag_35:\n      jumpi(tag_131, callvalue)\n      jumpi(tag_131, slt(add(calldatasize, 0xfffffffffffffffffffffffffffffffffffffffffffffffffffffffffffffffc), 0x00))\n      0x20\n      mload(0x40)\n      0x00\n      dup2\n      mstore\n      return\n    tag_37:\n      jumpi(tag_131, callvalue)\n      jumpi(tag_131, slt(add(calldatasize, 0xfffffffffffffffffffffffffffffffffffffffffffffffffffffffffffffffc), 0x40))\n        /* \"@openzeppelin/contracts/access/AccessControl.sol\":4747:4773  _revokeRole(role, account) */\n      tag_154\n        /* \"contracts/L2/L2toL2CrossTradeProxy.sol\":181:1172  contract L2toL2CrossTradeProxy is Proxy, L2toL2CrossTradeStorage {... */\n      calldataload(0x04)\n      tag_359\n      tag_6\n      jump\t// in\n    tag_359:\n      swap1\n      dup1\n      0x00\n      mstore\n      mstore(0x20, 0x04)\n        /* \"@openzeppelin/contracts/access/AccessControl.sol\":2475:2479  role */\n      tag_360\n        /* \"@openzeppelin/contracts/access/AccessControl.sol\":3901:3923  _roles[role].adminRole */\n      0x01\n        /* \"contracts/L2/L2toL2CrossTradeProxy.sol\":181:1172  contract L2toL2CrossTradeProxy is Proxy, L2toL2CrossTradeStorage {... */\n      keccak256(0x00, 0x40)\n        /* \"@openzeppelin/contracts/access/AccessControl.sol\":3901:3923  _roles[role].adminRole */\n      add\n        /* \"contracts/L2/L2toL2CrossTradeProxy.sol\":181:1172  contract L2toL2CrossTradeProxy is Proxy, L2toL2CrossTradeStorage {... */\n      sload\n        /* \"@openzeppelin/contracts/access/AccessControl.sol\":2475:2479  role */\n      tag_55\n      jump\t// in\n    tag_360:\n        /* \"@openzeppelin/contracts/access/AccessControl.sol\":4747:4773  _revokeRole(role, account) */\n      tag_59\n      jump\t// in\n        /* \"contracts/L2/L2toL2CrossTradeProxy.sol\":181:1172  contract L2toL2CrossTradeProxy is Proxy, L2toL2CrossTradeStorage {... */\n    tag_39:\n      jumpi(tag_131, callvalue)\n      jumpi(tag_131, slt(add(calldatasize, 0xfffffffffffffffffffffffffffffffffffffffffffffffffffffffffffffffc), 0x20))\n      mstore(0x00, calldataload(0x04))\n        /* \"contracts/L2/L2toL2CrossTradeStorage.sol\":867:915  mapping(uint256 => ChainIdData) public chainData */\n      0x0a\n        /* \"contracts/L2/L2toL2CrossTradeProxy.sol\":181:1172  contract L2toL2CrossTradeProxy is Proxy, L2toL2CrossTradeStorage {... */\n      0x20\n      mstore\n      0x40\n      dup1\n      0x00\n      keccak256\n      0xffffffffffffffffffffffffffffffffffffffff\n        /* \"contracts/L2/L2toL2CrossTradeStorage.sol\":867:915  mapping(uint256 => ChainIdData) public chainData */\n      0x01\n        /* \"contracts/L2/L2toL2CrossTradeProxy.sol\":181:1172  contract L2toL2CrossTradeProxy is Proxy, L2toL2CrossTradeStorage {... */\n      dup2\n      dup4\n      sload\n      and\n        /* \"contracts/L2/L2toL2CrossTradeStorage.sol\":867:915  mapping(uint256 => ChainIdData) public chainData */\n      swap3\n      add\n        /* \"contracts/L2/L2toL2CrossTradeProxy.sol\":181:1172  contract L2toL2CrossTradeProxy is Proxy, L2toL2CrossTradeStorage {... */\n      sload\n      and\n      dup3\n      mload\n      swap2\n      dup3\n      mstore\n      0x20\n      dup3\n      add\n      mstore\n      return\n    tag_40:\n      jumpi(tag_131, callvalue)\n      jumpi(tag_131, slt(add(calldatasize, 0xfffffffffffffffffffffffffffffffffffffffffffffffffffffffffffffffc), 0x00))\n      0x20\n      0xffffffffffffffffffffffffffffffffffffffff\n        /* \"contracts/L2/L2toL2CrossTradeStorage.sol\":510:545  address public crossDomainMessenger */\n      0x05\n        /* \"contracts/L2/L2toL2CrossTradeProxy.sol\":181:1172  contract L2toL2CrossTradeProxy is Proxy, L2toL2CrossTradeStorage {... */\n      sload\n      and\n      mload(0x40)\n      swap1\n      dup2\n      mstore\n      return\n    tag_42:\n      jumpi(tag_131, callvalue)\n      jumpi(tag_131, slt(add(calldatasize, 0xfffffffffffffffffffffffffffffffffffffffffffffffffffffffffffffffc), 0x20))\n      mstore(0x00, calldataload(0x04))\n        /* \"contracts/L2/L2toL2CrossTradeStorage.sol\":647:694  mapping(uint256 => RequestData) public dealData */\n      0x08\n        /* \"contracts/L2/L2toL2CrossTradeProxy.sol\":181:1172  contract L2toL2CrossTradeProxy is Proxy, L2toL2CrossTradeStorage {... */\n      0x20\n      mstore\n      keccak256(0x00, 0x40)\n      0xffffffffffffffffffffffffffffffffffffffff\n      tag_373\n      dup2\n      dup4\n      sload\n      and\n        /* \"contracts/L2/L2toL2CrossTradeStorage.sol\":647:694  mapping(uint256 => RequestData) public dealData */\n      swap2\n      dup1\n      0x01\n      dup6\n      add\n        /* \"contracts/L2/L2toL2CrossTradeProxy.sol\":181:1172  contract L2toL2CrossTradeProxy is Proxy, L2toL2CrossTradeStorage {... */\n      sload\n      and\n        /* \"contracts/L2/L2toL2CrossTradeStorage.sol\":647:694  mapping(uint256 => RequestData) public dealData */\n      swap4\n      dup2\n      0x02\n      dup3\n      add\n        /* \"contracts/L2/L2toL2CrossTradeProxy.sol\":181:1172  contract L2toL2CrossTradeProxy is Proxy, L2toL2CrossTradeStorage {... */\n      sload\n      and\n        /* \"contracts/L2/L2toL2CrossTradeStorage.sol\":647:694  mapping(uint256 => RequestData) public dealData */\n      swap2\n      0x03\n      dup3\n      add\n        /* \"contracts/L2/L2toL2CrossTradeProxy.sol\":181:1172  contract L2toL2CrossTradeProxy is Proxy, L2toL2CrossTradeStorage {... */\n      sload\n      and\n      tag_374\n      0x04\n        /* \"contracts/L2/L2toL2CrossTradeStorage.sol\":647:694  mapping(uint256 => RequestData) public dealData */\n      dup4\n      add\n        /* \"contracts/L2/L2toL2CrossTradeProxy.sol\":181:1172  contract L2toL2CrossTradeProxy is Proxy, L2toL2CrossTradeStorage {... */\n      sload\n      0xffffffffffffffffffffffffffffffffffffffff\n      and\n      swap1\n      jump\n    tag_374:\n        /* \"contracts/L2/L2toL2CrossTradeStorage.sol\":647:694  mapping(uint256 => RequestData) public dealData */\n      0x05\n      dup4\n      add\n        /* \"contracts/L2/L2toL2CrossTradeProxy.sol\":181:1172  contract L2toL2CrossTradeProxy is Proxy, L2toL2CrossTradeStorage {... */\n      sload\n        /* \"contracts/L2/L2toL2CrossTradeStorage.sol\":647:694  mapping(uint256 => RequestData) public dealData */\n      0x06\n      dup5\n      add\n        /* \"contracts/L2/L2toL2CrossTradeProxy.sol\":181:1172  contract L2toL2CrossTradeProxy is Proxy, L2toL2CrossTradeStorage {... */\n      sload\n        /* \"contracts/L2/L2toL2CrossTradeStorage.sol\":647:694  mapping(uint256 => RequestData) public dealData */\n      swap2\n      0x07\n      dup6\n      add\n        /* \"contracts/L2/L2toL2CrossTradeProxy.sol\":181:1172  contract L2toL2CrossTradeProxy is Proxy, L2toL2CrossTradeStorage {... */\n      sload\n        /* \"contracts/L2/L2toL2CrossTradeStorage.sol\":647:694  mapping(uint256 => RequestData) public dealData */\n      swap4\n      0x09\n      0x08\n      dup8\n      add\n        /* \"contracts/L2/L2toL2CrossTradeProxy.sol\":181:1172  contract L2toL2CrossTradeProxy is Proxy, L2toL2CrossTradeStorage {... */\n      sload\n        /* \"contracts/L2/L2toL2CrossTradeStorage.sol\":647:694  mapping(uint256 => RequestData) public dealData */\n      swap7\n      add\n        /* \"contracts/L2/L2toL2CrossTradeProxy.sol\":181:1172  contract L2toL2CrossTradeProxy is Proxy, L2toL2CrossTradeStorage {... */\n      sload\n      swap7\n      mload(0x40)\n      swap11\n      dup12\n      swap11\n      dup12\n      swap7\n      swap4\n      swap2\n      0x0120\n      swap9\n      swap6\n      swap2\n      swap12\n      swap11\n      swap10\n      swap7\n      swap4\n      swap3\n      0x0140\n      dup10\n      add\n      swap13\n      0xffffffffffffffffffffffffffffffffffffffff\n      swap5\n      dup6\n      dup1\n      swap5\n      dup2\n      dup1\n      swap5\n      and\n      dup14\n      mstore\n      and\n      0x20\n      dup13\n      add\n      mstore\n      and\n      0x40\n      dup11\n      add\n      mstore\n      and\n      0x60\n      dup9\n      add\n      mstore\n      and\n      0x80\n      dup7\n      add\n      mstore\n      0xa0\n      dup6\n      add\n      mstore\n      0xc0\n      dup5\n      add\n      mstore\n      0xe0\n      dup4\n      add\n      mstore\n      0x0100\n      dup3\n      add\n      mstore\n      add\n      mstore\n      jump\n    tag_373:\n      sub\n      swap1\n      return\n    tag_43:\n      iszero\n      tag_375\n      jumpi\n      jump\t// out\n    tag_375:\n      0x84\n      mload(0x40)\n      0x08c379a000000000000000000000000000000000000000000000000000000000\n      dup2\n      mstore\n      0x20\n      0x04\n      dup3\n      add\n      mstore\n      0x22\n      0x24\n      dup3\n      add\n      mstore\n      0x41636365737369626c653a2043616c6c6572206973206e6f7420616e2061646d\n      0x44\n      dup3\n      add\n      mstore\n      0x696e000000000000000000000000000000000000000000000000000000000000\n      0x64\n      dup3\n      add\n      mstore\n      revert\n        /* \"@openzeppelin/contracts/access/AccessControl.sol\":2422:2498  modifier onlyRole(bytes32 role) {... */\n    tag_45:\n        /* \"contracts/common/AccessRoleCommon.sol\":127:145  keccak256(\"ADMIN\") */\n      0xdf8b4c520ffe197c5343c6f5aec59570151ef9a492f2c624fd45ddde6135ec42\n      0x00\n        /* \"contracts/L2/L2toL2CrossTradeProxy.sol\":181:1172  contract L2toL2CrossTradeProxy is Proxy, L2toL2CrossTradeStorage {... */\n      mstore\n        /* \"@openzeppelin/contracts/access/AccessControl.sol\":3901:3907  _roles */\n      0x04\n        /* \"contracts/L2/L2toL2CrossTradeProxy.sol\":181:1172  contract L2toL2CrossTradeProxy is Proxy, L2toL2CrossTradeStorage {... */\n      0x20\n      mstore\n        /* \"@openzeppelin/contracts/access/AccessControl.sol\":3901:3923  _roles[role].adminRole */\n      0x2fb794d17134dfdec181ddbac1babb5ab1eb140204ef4d982f294e7fc8b69023\n        /* \"contracts/L2/L2toL2CrossTradeProxy.sol\":181:1172  contract L2toL2CrossTradeProxy is Proxy, L2toL2CrossTradeStorage {... */\n      sload\n        /* \"@openzeppelin/contracts/access/AccessControl.sol\":4330:4355  _grantRole(role, account) */\n      tag_377\n      swap2\n        /* \"@openzeppelin/contracts/access/AccessControl.sol\":2422:2498  modifier onlyRole(bytes32 role) {... */\n      swap1\n        /* \"@openzeppelin/contracts/access/AccessControl.sol\":2475:2479  role */\n      tag_289\n      swap1\n      tag_55\n      jump\t// in\n        /* \"@openzeppelin/contracts/access/AccessControl.sol\":4330:4355  _grantRole(role, account) */\n    tag_377:\n      pop\n        /* \"@openzeppelin/contracts/access/AccessControl.sol\":2422:2498  modifier onlyRole(bytes32 role) {... */\n      jump\t// out\n        /* \"@openzeppelin/contracts/access/AccessControl.sol\":5328:5573  function renounceRole(bytes32 role, address callerConfirmation) public virtual {... */\n    tag_46:\n        /* \"@openzeppelin/contracts/utils/Context.sol\":735:745  msg.sender */\n      caller\n        /* \"contracts/L2/L2toL2CrossTradeProxy.sol\":181:1172  contract L2toL2CrossTradeProxy is Proxy, L2toL2CrossTradeStorage {... */\n      0xffffffffffffffffffffffffffffffffffffffff\n      dup3\n      and\n        /* \"@openzeppelin/contracts/access/AccessControl.sol\":5421:5455  callerConfirmation != _msgSender() */\n      sub\n        /* \"@openzeppelin/contracts/access/AccessControl.sol\":5417:5519  if (callerConfirmation != _msgSender()) {... */\n      tag_194\n      jumpi\n        /* \"@openzeppelin/contracts/access/AccessControl.sol\":5529:5566  _revokeRole(role, callerConfirmation) */\n      tag_377\n      swap1\n      tag_58\n      jump\t// in\n        /* \"contracts/L2/L2toL2CrossTradeProxy.sol\":181:1172  contract L2toL2CrossTradeProxy is Proxy, L2toL2CrossTradeStorage {... */\n    tag_47:\n      iszero\n      tag_382\n      jumpi\n      jump\t// out\n    tag_382:\n      0x64\n      mload(0x40)\n      0x08c379a000000000000000000000000000000000000000000000000000000000\n      dup2\n      mstore\n      0x20\n      0x04\n      dup3\n      add\n      mstore\n      0x09\n      0x24\n      dup3\n      add\n      mstore\n      0x73616d6520616464720000000000000000000000000000000000000000000000\n      0x44\n      dup3\n      add\n      mstore\n      revert\n    tag_49:\n      iszero\n      tag_384\n      jumpi\n      jump\t// out\n    tag_384:\n      0x64\n      mload(0x40)\n      0x08c379a000000000000000000000000000000000000000000000000000000000\n      dup2\n      mstore\n      0x20\n      0x04\n      dup3\n      add\n      mstore\n      0x18\n      0x24\n      dup3\n      add\n      mstore\n      0x50726f78793a205f696d70206973206e6f7420616c6976650000000000000000\n      0x44\n      dup3\n      add\n      mstore\n      revert\n    tag_50:\n      swap2\n      swap1\n      dup2\n      lt\n      iszero\n      tag_386\n      jumpi\n      0x05\n      shl\n      add\n      swap1\n      jump\t// out\n    tag_386:\n      mstore(0x00, 0x4e487b7100000000000000000000000000000000000000000000000000000000)\n      mstore(0x04, 0x32)\n      revert(0x00, 0x24)\n    tag_51:\n      calldataload\n      tag_388\n      dup2\n      tag_2\n      jump\t// in\n    tag_388:\n      swap1\n      jump\t// out\n    tag_52:\n      iszero\n      tag_389\n      jumpi\n      jump\t// out\n    tag_389:\n      0x64\n      mload(0x40)\n      0x08c379a000000000000000000000000000000000000000000000000000000000\n      dup2\n      mstore\n      0x20\n      0x04\n      dup3\n      add\n      mstore\n      0x1d\n      0x24\n      dup3\n      add\n      mstore\n      0x4c69717569646974795661756c7450726f78793a2073616d6520696d70000000\n      0x44\n      dup3\n      add\n      mstore\n      revert\n        /* \"contracts/proxy/Proxy.sol\":2804:3223  function getSelectorImplementation2(bytes4 _selector)... */\n    tag_53:\n        /* \"contracts/L2/L2toL2CrossTradeProxy.sol\":181:1172  contract L2toL2CrossTradeProxy is Proxy, L2toL2CrossTradeStorage {... */\n      0xffffffff00000000000000000000000000000000000000000000000000000000\n      dup2\n      and\n      0x00\n      mstore\n        /* \"contracts/proxy/Proxy.sol\":2944:2966  selectorImplementation */\n      0x03\n        /* \"contracts/L2/L2toL2CrossTradeProxy.sol\":181:1172  contract L2toL2CrossTradeProxy is Proxy, L2toL2CrossTradeStorage {... */\n      0x20\n      mstore\n      0xffffffffffffffffffffffffffffffffffffffff\n      swap1\n      dup2\n      sload(keccak256(0x00, 0x40))\n      and\n        /* \"contracts/proxy/Proxy.sol\":2944:2991  selectorImplementation[_selector] == address(0) */\n      iszero\n        /* \"contracts/proxy/Proxy.sol\":2940:3216  if (selectorImplementation[_selector] == address(0))... */\n      0x00\n        /* \"contracts/L2/L2toL2CrossTradeProxy.sol\":181:1172  contract L2toL2CrossTradeProxy is Proxy, L2toL2CrossTradeStorage {... */\n      eq\n      tag_391\n      jumpi\n      pop\n        /* \"contracts/proxy/Proxy.sol\":2989:2990  0 */\n      0x00\n        /* \"contracts/L2/L2toL2CrossTradeProxy.sol\":181:1172  contract L2toL2CrossTradeProxy is Proxy, L2toL2CrossTradeStorage {... */\n      dup1\n      mstore\n        /* \"contracts/proxy/Proxy.sol\":3194:3213  proxyImplementation */\n      0x01\n        /* \"contracts/L2/L2toL2CrossTradeProxy.sol\":181:1172  contract L2toL2CrossTradeProxy is Proxy, L2toL2CrossTradeStorage {... */\n      0x20\n      mstore\n      sload(0xa6eef7e35abe7026729641147f7915573c7e97b47efa546f5f6e3230263bcb49)\n      and\n        /* \"contracts/proxy/Proxy.sol\":3005:3034  return proxyImplementation[0] */\n      swap1\n      jump\t// out\n        /* \"contracts/proxy/Proxy.sol\":3012:3034  proxyImplementation[0] */\n    tag_393:\n        /* \"contracts/L2/L2toL2CrossTradeProxy.sol\":181:1172  contract L2toL2CrossTradeProxy is Proxy, L2toL2CrossTradeStorage {... */\n      sload\n      and\n        /* \"contracts/proxy/Proxy.sol\":3005:3034  return proxyImplementation[0] */\n      swap1\n      jump\t// out\n        /* \"contracts/proxy/Proxy.sol\":2940:3216  if (selectorImplementation[_selector] == address(0))... */\n    tag_391:\n        /* \"contracts/L2/L2toL2CrossTradeProxy.sol\":181:1172  contract L2toL2CrossTradeProxy is Proxy, L2toL2CrossTradeStorage {... */\n      0xff\n        /* \"contracts/proxy/Proxy.sol\":3053:3107  aliveImplementation[selectorImplementation[_selector]] */\n      tag_394\n        /* \"contracts/proxy/Proxy.sol\":3073:3106  selectorImplementation[_selector] */\n      dup4\n      tag_395\n      dup5\n        /* \"contracts/L2/L2toL2CrossTradeProxy.sol\":181:1172  contract L2toL2CrossTradeProxy is Proxy, L2toL2CrossTradeStorage {... */\n      0xffffffff00000000000000000000000000000000000000000000000000000000\n      and\n      0x00\n      mstore\n        /* \"contracts/proxy/Proxy.sol\":2114:2136  selectorImplementation */\n      0x03\n        /* \"contracts/L2/L2toL2CrossTradeProxy.sol\":181:1172  contract L2toL2CrossTradeProxy is Proxy, L2toL2CrossTradeStorage {... */\n      0x20\n      mstore\n      keccak256(0x00, 0x40)\n      swap1\n      jump\n        /* \"contracts/proxy/Proxy.sol\":3073:3106  selectorImplementation[_selector] */\n    tag_395:\n        /* \"contracts/L2/L2toL2CrossTradeProxy.sol\":181:1172  contract L2toL2CrossTradeProxy is Proxy, L2toL2CrossTradeStorage {... */\n      sload\n      and\n      0xffffffffffffffffffffffffffffffffffffffff\n      and\n      0x00\n      mstore\n        /* \"contracts/proxy/Proxy.sol\":1962:1981  aliveImplementation */\n      0x02\n        /* \"contracts/L2/L2toL2CrossTradeProxy.sol\":181:1172  contract L2toL2CrossTradeProxy is Proxy, L2toL2CrossTradeStorage {... */\n      0x20\n      mstore\n      keccak256(0x00, 0x40)\n      swap1\n      jump\n        /* \"contracts/proxy/Proxy.sol\":3053:3107  aliveImplementation[selectorImplementation[_selector]] */\n    tag_394:\n        /* \"contracts/L2/L2toL2CrossTradeProxy.sol\":181:1172  contract L2toL2CrossTradeProxy is Proxy, L2toL2CrossTradeStorage {... */\n      sload\n      and\n      iszero\n      tag_396\n      jumpi\n        /* \"contracts/proxy/Proxy.sol\":3129:3162  selectorImplementation[_selector] */\n      tag_393\n      swap1\n        /* \"contracts/L2/L2toL2CrossTradeProxy.sol\":181:1172  contract L2toL2CrossTradeProxy is Proxy, L2toL2CrossTradeStorage {... */\n      0xffffffff00000000000000000000000000000000000000000000000000000000\n      and\n      0x00\n      mstore\n        /* \"contracts/proxy/Proxy.sol\":2114:2136  selectorImplementation */\n      0x03\n        /* \"contracts/L2/L2toL2CrossTradeProxy.sol\":181:1172  contract L2toL2CrossTradeProxy is Proxy, L2toL2CrossTradeStorage {... */\n      0x20\n      mstore\n      keccak256(0x00, 0x40)\n      swap1\n      jump\n        /* \"contracts/proxy/Proxy.sol\":3049:3216  if (aliveImplementation[selectorImplementation[_selector]]){... */\n    tag_396:\n      pop\n        /* \"contracts/proxy/Proxy.sol\":2989:2990  0 */\n      0x00\n        /* \"contracts/L2/L2toL2CrossTradeProxy.sol\":181:1172  contract L2toL2CrossTradeProxy is Proxy, L2toL2CrossTradeStorage {... */\n      dup1\n      mstore\n        /* \"contracts/proxy/Proxy.sol\":3194:3213  proxyImplementation */\n      0x01\n        /* \"contracts/L2/L2toL2CrossTradeProxy.sol\":181:1172  contract L2toL2CrossTradeProxy is Proxy, L2toL2CrossTradeStorage {... */\n      0x20\n      mstore\n      sload(0xa6eef7e35abe7026729641147f7915573c7e97b47efa546f5f6e3230263bcb49)\n      and\n        /* \"contracts/proxy/Proxy.sol\":3005:3034  return proxyImplementation[0] */\n      swap1\n      jump\t// out\n        /* \"@openzeppelin/contracts/access/AccessControl.sol\":3199:3302  function _checkRole(bytes32 role) internal view virtual {... */\n    tag_55:\n        /* \"contracts/L2/L2toL2CrossTradeProxy.sol\":181:1172  contract L2toL2CrossTradeProxy is Proxy, L2toL2CrossTradeStorage {... */\n      dup1\n      0x00\n      mstore\n        /* \"@openzeppelin/contracts/access/AccessControl.sol\":2954:2960  _roles */\n      0x04\n        /* \"contracts/L2/L2toL2CrossTradeProxy.sol\":181:1172  contract L2toL2CrossTradeProxy is Proxy, L2toL2CrossTradeStorage {... */\n      0x20\n      mstore\n      0xff\n        /* \"@openzeppelin/contracts/access/AccessControl.sol\":2954:2983  _roles[role].hasRole[account] */\n      tag_401\n        /* \"@openzeppelin/contracts/utils/Context.sol\":735:745  msg.sender */\n      caller\n        /* \"contracts/L2/L2toL2CrossTradeProxy.sol\":181:1172  contract L2toL2CrossTradeProxy is Proxy, L2toL2CrossTradeStorage {... */\n      keccak256(0x00, 0x40)\n      swap1\n      0xffffffffffffffffffffffffffffffffffffffff\n      and\n      0x00\n      mstore\n      0x20\n      mstore\n      keccak256(0x00, 0x40)\n      swap1\n      jump\n        /* \"@openzeppelin/contracts/access/AccessControl.sol\":2954:2983  _roles[role].hasRole[account] */\n    tag_401:\n        /* \"contracts/L2/L2toL2CrossTradeProxy.sol\":181:1172  contract L2toL2CrossTradeProxy is Proxy, L2toL2CrossTradeStorage {... */\n      sload\n      and\n        /* \"@openzeppelin/contracts/access/AccessControl.sol\":3519:3542  !hasRole(role, account) */\n      iszero\n        /* \"@openzeppelin/contracts/access/AccessControl.sol\":3515:3623  if (!hasRole(role, account)) {... */\n      tag_402\n      jumpi\n        /* \"@openzeppelin/contracts/access/AccessControl.sol\":3199:3302  function _checkRole(bytes32 role) internal view virtual {... */\n      pop\n      jump\t// out\n        /* \"@openzeppelin/contracts/access/AccessControl.sol\":3515:3623  if (!hasRole(role, account)) {... */\n    tag_402:\n        /* \"contracts/L2/L2toL2CrossTradeProxy.sol\":181:1172  contract L2toL2CrossTradeProxy is Proxy, L2toL2CrossTradeStorage {... */\n      0x44\n      swap1\n      mload(0x40)\n        /* \"@openzeppelin/contracts/access/AccessControl.sol\":3565:3612  AccessControlUnauthorizedAccount(account, role) */\n      swap1\n      0xe2517d3f00000000000000000000000000000000000000000000000000000000\n      dup3\n      mstore\n        /* \"@openzeppelin/contracts/utils/Context.sol\":735:745  msg.sender */\n      caller\n        /* \"@openzeppelin/contracts/access/AccessControl.sol\":2954:2960  _roles */\n      0x04\n        /* \"@openzeppelin/contracts/access/AccessControl.sol\":3565:3612  AccessControlUnauthorizedAccount(account, role) */\n      dup4\n      add\n        /* \"contracts/L2/L2toL2CrossTradeProxy.sol\":181:1172  contract L2toL2CrossTradeProxy is Proxy, L2toL2CrossTradeStorage {... */\n      mstore\n      0x24\n      dup3\n      add\n      mstore\n        /* \"@openzeppelin/contracts/access/AccessControl.sol\":3565:3612  AccessControlUnauthorizedAccount(account, role) */\n      revert\n        /* \"@openzeppelin/contracts/access/AccessControl.sol\":6179:6495  function _grantRole(bytes32 role, address account) internal virtual returns (bool) {... */\n    tag_56:\n        /* \"contracts/L2/L2toL2CrossTradeProxy.sol\":181:1172  contract L2toL2CrossTradeProxy is Proxy, L2toL2CrossTradeStorage {... */\n      0xffffffffffffffffffffffffffffffffffffffff\n      dup2\n      and\n      0x00\n      swap1\n      dup2\n      mstore\n      mstore(0x20, 0x2fb794d17134dfdec181ddbac1babb5ab1eb140204ef4d982f294e7fc8b69022)\n      0x40\n      swap1\n      keccak256\n        /* \"contracts/common/AccessRoleCommon.sol\":127:145  keccak256(\"ADMIN\") */\n      0xdf8b4c520ffe197c5343c6f5aec59570151ef9a492f2c624fd45ddde6135ec42\n      swap1\n        /* \"contracts/L2/L2toL2CrossTradeProxy.sol\":181:1172  contract L2toL2CrossTradeProxy is Proxy, L2toL2CrossTradeStorage {... */\n      0xff\n      swap1\n        /* \"@openzeppelin/contracts/access/AccessControl.sol\":2954:2983  _roles[role].hasRole[account] */\n    tag_404:\n        /* \"contracts/L2/L2toL2CrossTradeProxy.sol\":181:1172  contract L2toL2CrossTradeProxy is Proxy, L2toL2CrossTradeStorage {... */\n      sload\n      and\n      tag_405\n      jumpi\n      dup1\n      0x00\n      mstore\n        /* \"@openzeppelin/contracts/access/AccessControl.sol\":2954:2960  _roles */\n      0x04\n        /* \"contracts/L2/L2toL2CrossTradeProxy.sol\":181:1172  contract L2toL2CrossTradeProxy is Proxy, L2toL2CrossTradeStorage {... */\n      0x20\n      mstore\n        /* \"@openzeppelin/contracts/access/AccessControl.sol\":6315:6344  _roles[role].hasRole[account] */\n      tag_407\n        /* \"contracts/L2/L2toL2CrossTradeProxy.sol\":181:1172  contract L2toL2CrossTradeProxy is Proxy, L2toL2CrossTradeStorage {... */\n      dup3\n      keccak256(0x00, 0x40)\n      swap1\n      0xffffffffffffffffffffffffffffffffffffffff\n      and\n      0x00\n      mstore\n      0x20\n      mstore\n      keccak256(0x00, 0x40)\n      swap1\n      jump\n        /* \"@openzeppelin/contracts/access/AccessControl.sol\":6315:6344  _roles[role].hasRole[account] */\n    tag_407:\n        /* \"@openzeppelin/contracts/access/AccessControl.sol\":6347:6351  true */\n      0x01\n        /* \"contracts/L2/L2toL2CrossTradeProxy.sol\":181:1172  contract L2toL2CrossTradeProxy is Proxy, L2toL2CrossTradeStorage {... */\n      0xffffffffffffffffffffffffffffffffffffffffffffffffffffffffffffff00\n      dup3\n      sload\n      and\n      or\n      swap1\n      sstore\n      0xffffffffffffffffffffffffffffffffffffffff\n        /* \"@openzeppelin/contracts/utils/Context.sol\":735:745  msg.sender */\n      caller\n        /* \"contracts/L2/L2toL2CrossTradeProxy.sol\":181:1172  contract L2toL2CrossTradeProxy is Proxy, L2toL2CrossTradeStorage {... */\n      swap3\n      and\n        /* \"@openzeppelin/contracts/access/AccessControl.sol\":6370:6410  RoleGranted(role, account, _msgSender()) */\n      swap1\n      0x2f8788117e7eff1d82e926ec794901d17c78024a50270940304540a733656f0d\n      0x00\n      dup1\n      log4\n        /* \"@openzeppelin/contracts/access/AccessControl.sol\":6347:6351  true */\n      0x01\n        /* \"@openzeppelin/contracts/access/AccessControl.sol\":6424:6435  return true */\n      swap1\n      jump\t// out\n        /* \"@openzeppelin/contracts/access/AccessControl.sol\":6272:6489  if (!hasRole(role, account)) {... */\n    tag_405:\n        /* \"@openzeppelin/contracts/access/AccessControl.sol\":6466:6478  return false */\n      pop\n      pop\n      0x00\n      swap1\n      jump\t// out\n        /* \"@openzeppelin/contracts/access/AccessControl.sol\":6179:6495  function _grantRole(bytes32 role, address account) internal virtual returns (bool) {... */\n    tag_57:\n        /* \"contracts/L2/L2toL2CrossTradeProxy.sol\":181:1172  contract L2toL2CrossTradeProxy is Proxy, L2toL2CrossTradeStorage {... */\n      dup1\n      0x00\n      mstore\n        /* \"@openzeppelin/contracts/access/AccessControl.sol\":2954:2960  _roles */\n      0x04\n        /* \"contracts/L2/L2toL2CrossTradeProxy.sol\":181:1172  contract L2toL2CrossTradeProxy is Proxy, L2toL2CrossTradeStorage {... */\n      0x20\n      mstore\n      0xff\n        /* \"@openzeppelin/contracts/access/AccessControl.sol\":2954:2983  _roles[role].hasRole[account] */\n      tag_404\n        /* \"contracts/L2/L2toL2CrossTradeProxy.sol\":181:1172  contract L2toL2CrossTradeProxy is Proxy, L2toL2CrossTradeStorage {... */\n      dup4\n      keccak256(0x00, 0x40)\n      swap1\n      0xffffffffffffffffffffffffffffffffffffffff\n      and\n      0x00\n      mstore\n      0x20\n      mstore\n      keccak256(0x00, 0x40)\n      swap1\n      jump\n        /* \"@openzeppelin/contracts/access/AccessControl.sol\":6730:7047  function _revokeRole(bytes32 role, address account) internal virtual returns (bool) {... */\n    tag_58:\n        /* \"contracts/L2/L2toL2CrossTradeProxy.sol\":181:1172  contract L2toL2CrossTradeProxy is Proxy, L2toL2CrossTradeStorage {... */\n      0xffffffffffffffffffffffffffffffffffffffff\n      dup2\n      and\n      0x00\n      swap1\n      dup2\n      mstore\n      mstore(0x20, 0x2fb794d17134dfdec181ddbac1babb5ab1eb140204ef4d982f294e7fc8b69022)\n      0x40\n      swap1\n      keccak256\n        /* \"contracts/common/AccessRoleCommon.sol\":127:145  keccak256(\"ADMIN\") */\n      0xdf8b4c520ffe197c5343c6f5aec59570151ef9a492f2c624fd45ddde6135ec42\n      swap1\n        /* \"contracts/L2/L2toL2CrossTradeProxy.sol\":181:1172  contract L2toL2CrossTradeProxy is Proxy, L2toL2CrossTradeStorage {... */\n      0xff\n      swap1\n        /* \"@openzeppelin/contracts/access/AccessControl.sol\":2954:2983  _roles[role].hasRole[account] */\n    tag_412:\n        /* \"contracts/L2/L2toL2CrossTradeProxy.sol\":181:1172  contract L2toL2CrossTradeProxy is Proxy, L2toL2CrossTradeStorage {... */\n      sload\n      and\n      iszero\n      tag_405\n      jumpi\n      dup1\n      0x00\n      mstore\n        /* \"@openzeppelin/contracts/access/AccessControl.sol\":2954:2960  _roles */\n      0x04\n        /* \"contracts/L2/L2toL2CrossTradeProxy.sol\":181:1172  contract L2toL2CrossTradeProxy is Proxy, L2toL2CrossTradeStorage {... */\n      0x20\n      mstore\n        /* \"@openzeppelin/contracts/access/AccessControl.sol\":6866:6895  _roles[role].hasRole[account] */\n      tag_415\n        /* \"contracts/L2/L2toL2CrossTradeProxy.sol\":181:1172  contract L2toL2CrossTradeProxy is Proxy, L2toL2CrossTradeStorage {... */\n      dup3\n      keccak256(0x00, 0x40)\n      swap1\n      0xffffffffffffffffffffffffffffffffffffffff\n      and\n      0x00\n      mstore\n      0x20\n      mstore\n      keccak256(0x00, 0x40)\n      swap1\n      jump\n        /* \"@openzeppelin/contracts/access/AccessControl.sol\":6866:6895  _roles[role].hasRole[account] */\n    tag_415:\n        /* \"contracts/L2/L2toL2CrossTradeProxy.sol\":181:1172  contract L2toL2CrossTradeProxy is Proxy, L2toL2CrossTradeStorage {... */\n      0xffffffffffffffffffffffffffffffffffffffffffffffffffffffffffffff00\n      dup2\n      sload\n      and\n      swap1\n      sstore\n      0xffffffffffffffffffffffffffffffffffffffff\n        /* \"@openzeppelin/contracts/utils/Context.sol\":735:745  msg.sender */\n      caller\n        /* \"contracts/L2/L2toL2CrossTradeProxy.sol\":181:1172  contract L2toL2CrossTradeProxy is Proxy, L2toL2CrossTradeStorage {... */\n      swap3\n      and\n        /* \"@openzeppelin/contracts/access/AccessControl.sol\":6922:6962  RoleRevoked(role, account, _msgSender()) */\n      swap1\n      0xf6391f5c32d9c69d2a47ea670b442974b53935d1edc7fd64eb21e047a839171b\n      0x00\n      dup1\n      log4\n        /* \"contracts/L2/L2toL2CrossTradeProxy.sol\":181:1172  contract L2toL2CrossTradeProxy is Proxy, L2toL2CrossTradeStorage {... */\n      0x01\n        /* \"@openzeppelin/contracts/access/AccessControl.sol\":6976:6987  return true */\n      swap1\n      jump\t// out\n        /* \"@openzeppelin/contracts/access/AccessControl.sol\":6730:7047  function _revokeRole(bytes32 role, address account) internal virtual returns (bool) {... */\n    tag_59:\n        /* \"contracts/L2/L2toL2CrossTradeProxy.sol\":181:1172  contract L2toL2CrossTradeProxy is Proxy, L2toL2CrossTradeStorage {... */\n      dup1\n      0x00\n      mstore\n        /* \"@openzeppelin/contracts/access/AccessControl.sol\":2954:2960  _roles */\n      0x04\n        /* \"contracts/L2/L2toL2CrossTradeProxy.sol\":181:1172  contract L2toL2CrossTradeProxy is Proxy, L2toL2CrossTradeStorage {... */\n      0x20\n      mstore\n      0xff\n        /* \"@openzeppelin/contracts/access/AccessControl.sol\":2954:2983  _roles[role].hasRole[account] */\n      tag_412\n        /* \"contracts/L2/L2toL2CrossTradeProxy.sol\":181:1172  contract L2toL2CrossTradeProxy is Proxy, L2toL2CrossTradeStorage {... */\n      dup4\n      keccak256(0x00, 0x40)\n      swap1\n      0xffffffffffffffffffffffffffffffffffffffff\n      and\n      0x00\n      mstore\n      0x20\n      mstore\n      keccak256(0x00, 0x40)\n      swap1\n      jump\n        /* \"contracts/proxy/Proxy.sol\":5140:5515  function _setImplementation2(... */\n    tag_60:\n        /* \"contracts/proxy/Proxy.sol\":5985:6004  account.code.length */\n      dup1\n      extcodesize\n        /* \"contracts/proxy/Proxy.sol\":5985:6008  account.code.length > 0 */\n      iszero\n        /* \"contracts/L2/L2toL2CrossTradeProxy.sol\":181:1172  contract L2toL2CrossTradeProxy is Proxy, L2toL2CrossTradeStorage {... */\n      tag_324\n      jumpi\n      0xffffffffffffffffffffffffffffffffffffffff\n      swap1\n        /* \"contracts/proxy/Proxy.sol\":1002:1003  0 */\n      0x00\n        /* \"contracts/L2/L2toL2CrossTradeProxy.sol\":181:1172  contract L2toL2CrossTradeProxy is Proxy, L2toL2CrossTradeStorage {... */\n      dup1\n      mstore\n        /* \"contracts/proxy/Proxy.sol\":3744:3763  proxyImplementation */\n      0x01\n        /* \"contracts/L2/L2toL2CrossTradeProxy.sol\":181:1172  contract L2toL2CrossTradeProxy is Proxy, L2toL2CrossTradeStorage {... */\n      0x20\n      mstore\n        /* \"contracts/proxy/Proxy.sol\":5400:5447  proxyImplementation[_index] = newImplementation */\n      tag_422\n        /* \"contracts/L2/L2toL2CrossTradeProxy.sol\":181:1172  contract L2toL2CrossTradeProxy is Proxy, L2toL2CrossTradeStorage {... */\n      dup2\n      0x40\n        /* \"contracts/proxy/Proxy.sol\":1002:1003  0 */\n      0x00\n        /* \"contracts/L2/L2toL2CrossTradeProxy.sol\":181:1172  contract L2toL2CrossTradeProxy is Proxy, L2toL2CrossTradeStorage {... */\n      keccak256\n      swap1\n      0xffffffffffffffffffffffffffffffffffffffff\n      and\n      0xffffffffffffffffffffffff0000000000000000000000000000000000000000\n      dup3\n      sload\n      and\n      or\n      swap1\n      sstore\n      jump\n        /* \"contracts/proxy/Proxy.sol\":5400:5447  proxyImplementation[_index] = newImplementation */\n    tag_422:\n        /* \"contracts/L2/L2toL2CrossTradeProxy.sol\":181:1172  contract L2toL2CrossTradeProxy is Proxy, L2toL2CrossTradeStorage {... */\n      and\n      dup1\n        /* \"contracts/proxy/Proxy.sol\":1002:1003  0 */\n      0x00\n        /* \"contracts/L2/L2toL2CrossTradeProxy.sol\":181:1172  contract L2toL2CrossTradeProxy is Proxy, L2toL2CrossTradeStorage {... */\n      mstore\n        /* \"contracts/proxy/Proxy.sol\":5777:5796  aliveImplementation */\n      0x02\n        /* \"contracts/L2/L2toL2CrossTradeProxy.sol\":181:1172  contract L2toL2CrossTradeProxy is Proxy, L2toL2CrossTradeStorage {... */\n      0x20\n      mstore\n      0x40\n        /* \"contracts/proxy/Proxy.sol\":1002:1003  0 */\n      0x00\n        /* \"contracts/L2/L2toL2CrossTradeProxy.sol\":181:1172  contract L2toL2CrossTradeProxy is Proxy, L2toL2CrossTradeStorage {... */\n      keccak256\n        /* \"contracts/proxy/Proxy.sol\":3744:3763  proxyImplementation */\n      0x01\n        /* \"contracts/L2/L2toL2CrossTradeProxy.sol\":181:1172  contract L2toL2CrossTradeProxy is Proxy, L2toL2CrossTradeStorage {... */\n      0xffffffffffffffffffffffffffffffffffffffffffffffffffffffffffffff00\n      dup3\n      sload\n      and\n      or\n      swap1\n      sstore\n        /* \"contracts/proxy/Proxy.sol\":5839:5888  SetAliveImplementation(newImplementation, _alive) */\n      0x72558d9bfba4210f9ef095c782589484151f6d90f7a81bb3cb9b33efc695d324\n        /* \"contracts/L2/L2toL2CrossTradeProxy.sol\":181:1172  contract L2toL2CrossTradeProxy is Proxy, L2toL2CrossTradeStorage {... */\n      0x20\n      mload(0x40)\n        /* \"contracts/proxy/Proxy.sol\":3744:3763  proxyImplementation */\n      0x01\n        /* \"contracts/L2/L2toL2CrossTradeProxy.sol\":181:1172  contract L2toL2CrossTradeProxy is Proxy, L2toL2CrossTradeStorage {... */\n      dup2\n      mstore\n        /* \"contracts/proxy/Proxy.sol\":5839:5888  SetAliveImplementation(newImplementation, _alive) */\n      log2\n        /* \"contracts/proxy/Proxy.sol\":5140:5515  function _setImplementation2(... */\n      jump\t// out\n        /* \"contracts/proxy/Proxy.sol\":5672:5895  function _setAliveImplementation2(address newImplementation, bool _alive)... */\n    tag_61:\n        /* \"contracts/L2/L2toL2CrossTradeProxy.sol\":181:1172  contract L2toL2CrossTradeProxy is Proxy, L2toL2CrossTradeStorage {... */\n      0x20\n      0xffffffffffffffffffffffffffffffffffffffff\n        /* \"contracts/proxy/Proxy.sol\":5839:5888  SetAliveImplementation(newImplementation, _alive) */\n      0x72558d9bfba4210f9ef095c782589484151f6d90f7a81bb3cb9b33efc695d324\n        /* \"contracts/proxy/Proxy.sol\":5672:5895  function _setAliveImplementation2(address newImplementation, bool _alive)... */\n      swap3\n        /* \"contracts/L2/L2toL2CrossTradeProxy.sol\":181:1172  contract L2toL2CrossTradeProxy is Proxy, L2toL2CrossTradeStorage {... */\n      and\n      swap3\n      dup4\n      0x00\n      mstore\n        /* \"contracts/proxy/Proxy.sol\":5777:5796  aliveImplementation */\n      0x02\n        /* \"contracts/L2/L2toL2CrossTradeProxy.sol\":181:1172  contract L2toL2CrossTradeProxy is Proxy, L2toL2CrossTradeStorage {... */\n      dup3\n      mstore\n      keccak256(0x00, 0x40)\n      swap1\n      iszero\n      iszero\n      swap1\n      0xffffffffffffffffffffffffffffffffffffffffffffffffffffffffffffff00\n      dup2\n      sload\n      and\n      0xff\n      dup4\n      and\n      or\n      swap1\n      sstore\n      mload(0x40)\n      swap1\n      dup2\n      mstore\n        /* \"contracts/proxy/Proxy.sol\":5839:5888  SetAliveImplementation(newImplementation, _alive) */\n      log2\n        /* \"contracts/proxy/Proxy.sol\":5672:5895  function _setAliveImplementation2(address newImplementation, bool _alive)... */\n      jump\t// out\n        /* \"contracts/proxy/Proxy.sol\":3852:4919  function _fallback() internal {... */\n    tag_62:\n        /* \"contracts/proxy/Proxy.sol\":3908:3943  getSelectorImplementation2(msg.sig) */\n      tag_423\n        /* \"contracts/proxy/Proxy.sol\":3935:3942  msg.sig */\n      and(calldataload(0x00), 0xffffffff00000000000000000000000000000000000000000000000000000000)\n        /* \"contracts/proxy/Proxy.sol\":3908:3943  getSelectorImplementation2(msg.sig) */\n      tag_53\n      jump\t// in\n    tag_423:\n        /* \"contracts/L2/L2toL2CrossTradeProxy.sol\":181:1172  contract L2toL2CrossTradeProxy is Proxy, L2toL2CrossTradeStorage {... */\n      0xffffffffffffffffffffffffffffffffffffffff\n      dup2\n      and\n        /* \"contracts/proxy/Proxy.sol\":3975:3994  _impl != address(0) */\n      iszero\n      iszero\n        /* \"contracts/proxy/Proxy.sol\":3975:4009  _impl != address(0) && !pauseProxy */\n      dup1\n      tag_424\n      jumpi\n        /* \"contracts/proxy/Proxy.sol\":3852:4919  function _fallback() internal {... */\n    tag_425:\n        /* \"contracts/L2/L2toL2CrossTradeProxy.sol\":181:1172  contract L2toL2CrossTradeProxy is Proxy, L2toL2CrossTradeStorage {... */\n      iszero\n      tag_426\n      jumpi\n        /* \"contracts/proxy/Proxy.sol\":3935:3942  msg.sig */\n      0x00\n        /* \"contracts/proxy/Proxy.sol\":4075:4913  assembly {... */\n      dup1\n      swap2\n      calldatasize\n      dup3\n      dup1\n      calldatacopy\n      dup2\n      calldatasize\n      swap2\n      gas\n      delegatecall\n      returndatasize\n        /* \"contracts/proxy/Proxy.sol\":3935:3942  msg.sig */\n      0x00\n        /* \"contracts/proxy/Proxy.sol\":4075:4913  assembly {... */\n      dup1\n      returndatacopy\n      iszero\n      tag_428\n      jumpi\n      returndatasize\n        /* \"contracts/proxy/Proxy.sol\":3935:3942  msg.sig */\n      0x00\n        /* \"contracts/proxy/Proxy.sol\":4075:4913  assembly {... */\n      return\n    tag_428:\n      returndatasize\n        /* \"contracts/proxy/Proxy.sol\":3935:3942  msg.sig */\n      0x00\n        /* \"contracts/proxy/Proxy.sol\":4075:4913  assembly {... */\n      revert\n        /* \"contracts/L2/L2toL2CrossTradeProxy.sol\":181:1172  contract L2toL2CrossTradeProxy is Proxy, L2toL2CrossTradeStorage {... */\n    tag_426:\n      0x64\n      mload(0x40)\n      0x08c379a000000000000000000000000000000000000000000000000000000000\n      dup2\n      mstore\n      0x20\n      0x04\n      dup3\n      add\n      mstore\n      0x1d\n      0x24\n      dup3\n      add\n      mstore\n      0x50726f78793a20696d706c204f522070726f78792069732066616c7365000000\n      0x44\n      dup3\n      add\n      mstore\n      revert\n        /* \"contracts/proxy/Proxy.sol\":3975:4009  _impl != address(0) && !pauseProxy */\n    tag_424:\n        /* \"contracts/L2/L2toL2CrossTradeProxy.sol\":181:1172  contract L2toL2CrossTradeProxy is Proxy, L2toL2CrossTradeStorage {... */\n      pop\n      0xff\n        /* \"contracts/proxy/Proxy.sol\":3935:3942  msg.sig */\n      0x00\n        /* \"contracts/L2/L2toL2CrossTradeProxy.sol\":181:1172  contract L2toL2CrossTradeProxy is Proxy, L2toL2CrossTradeStorage {... */\n      sload\n      and\n        /* \"contracts/proxy/Proxy.sol\":3998:4009  !pauseProxy */\n      iszero\n        /* \"contracts/proxy/Proxy.sol\":3975:4009  _impl != address(0) && !pauseProxy */\n      jump(tag_425)\n\n    auxdata: 0xa26469706673582212208231fd9851e4c4c4ff0c4458d38324710dc0c8f277938349c743a48c0721e83264736f6c63430008180033\n}\n",
				"bytecode": {
					"linkReferences": {},
					"object": "608060405234610069575f80516020612116833981519152805f526004602052600160405f20018181549155817fbd79b86ffe0ab8e8776151514217cd7cacd52c909f66475c3af44e129f0b00ff5f80a46100593361006d565b50604051612009908161010d8239f35b5f80fd5b6001600160a01b03165f8181527f2fb794d17134dfdec181ddbac1babb5ab1eb140204ef4d982f294e7fc8b6902260205260409020545f80516020612116833981519152919060ff1661010657815f52600460205260405f20815f5260205260405f20600160ff1982541617905533917f2f8788117e7eff1d82e926ec794901d17c78024a50270940304540a733656f0d5f80a4600190565b50505f9056fe60806040526004361015610015575b36611efc57005b5f3560e01c806301ffc9a71461020f5780631230b14c1461020a57806316e01724146102055780631785f53c1461020057806322985246146101fb578063248a9ca3146101f657806324d7806c146101f15780632f2ff15d146101ec57806336568abe146101e75780633659cfe6146101e2578063485cc955146101dd5780634a5df50f146101d857806350d2a276146101d3578063550d01a3146101ce5780635c60da1b146101c95780635cc797d8146101c457806363a8fd89146101bf57806370480275146101ba57806375829def146101b557806375b238fc146101b05780637cb00d25146101ab5780637cd5f663146101a65780638b8f4a651461018d5780638d4fdb40146101a157806391d148541461019c578063a1e89aec14610197578063a217fddf14610192578063b911135f1461018d578063d547741f14610188578063e59f69c214610183578063f43b36131461017e5763f5869c2f0361000e576115c2565b611571565b611508565b6114ad565b61130b565b611475565b61143a565b6113cc565b611369565b6111ce565b61112a565b6110d2565b610f71565b610ec0565b610e81565b610dfb565b610da0565b610d38565b610caf565b610a10565b610947565b6107d8565b61074e565b6106f3565b61065b565b610610565b6105b8565b61053f565b6104ee565b610347565b610242565b7fffffffff0000000000000000000000000000000000000000000000000000000081160361023e57565b5f80fd5b3461023e5760207ffffffffffffffffffffffffffffffffffffffffffffffffffffffffffffffffc36011261023e5760207fffffffff000000000000000000000000000000000000000000000000000000006004356102a081610214565b167f7965db0b0000000000000000000000000000000000000000000000000000000081149081156102d7575b506040519015158152f35b7f01ffc9a7000000000000000000000000000000000000000000000000000000009150145f6102cc565b6004359073ffffffffffffffffffffffffffffffffffffffff8216820361023e57565b6024359073ffffffffffffffffffffffffffffffffffffffff8216820361023e57565b3461023e5760607ffffffffffffffffffffffffffffffffffffffffffffffffffffffffffffffffc36011261023e5761037e610301565b610386610324565b906103dc6103d73373ffffffffffffffffffffffffffffffffffffffff165f9081527f2fb794d17134dfdec181ddbac1babb5ab1eb140204ef4d982f294e7fc8b69022602052604090205460ff1690565b6116df565b60405190604082019082821067ffffffffffffffff8311176104c1576104bf9360019260405273ffffffffffffffffffffffffffffffffffffffff80921684528160208501911681526044355f52600a60205261047b8260405f20955116859073ffffffffffffffffffffffffffffffffffffffff167fffffffffffffffffffffffff0000000000000000000000000000000000000000825416179055565b511691019073ffffffffffffffffffffffffffffffffffffffff167fffffffffffffffffffffffff0000000000000000000000000000000000000000825416179055565b005b7f4e487b71000000000000000000000000000000000000000000000000000000005f52604160045260245ffd5b3461023e575f7ffffffffffffffffffffffffffffffffffffffffffffffffffffffffffffffffc36011261023e57602073ffffffffffffffffffffffffffffffffffffffff60065416604051908152f35b3461023e5760207ffffffffffffffffffffffffffffffffffffffffffffffffffffffffffffffffc36011261023e576104bf610579610301565b335f9081527f2fb794d17134dfdec181ddbac1babb5ab1eb140204ef4d982f294e7fc8b6902260205260409020546105b39060ff166116df565b6117c5565b3461023e575f7ffffffffffffffffffffffffffffffffffffffffffffffffffffffffffffffffc36011261023e5760206040517ffb5864e8ff833c3cb2d2d08505e82ff02a43554c74a35d4f5a64e852612783118152f35b3461023e5760207ffffffffffffffffffffffffffffffffffffffffffffffffffffffffffffffffc36011261023e576004355f5260046020526020600160405f200154604051908152f35b3461023e5760207ffffffffffffffffffffffffffffffffffffffffffffffffffffffffffffffffc36011261023e57602060ff6106e7610699610301565b7fdf8b4c520ffe197c5343c6f5aec59570151ef9a492f2c624fd45ddde6135ec425f526004845260405f209073ffffffffffffffffffffffffffffffffffffffff165f5260205260405f2090565b54166040519015158152f35b3461023e5760407ffffffffffffffffffffffffffffffffffffffffffffffffffffffffffffffffc36011261023e576104bf600435610730610324565b90805f526004602052610749600160405f200154611ab0565b611c39565b3461023e5760407ffffffffffffffffffffffffffffffffffffffffffffffffffffffffffffffffc36011261023e57610785610324565b3373ffffffffffffffffffffffffffffffffffffffff8216036107ae576104bf90600435611d79565b60046040517f6697b232000000000000000000000000000000000000000000000000000000008152fd5b3461023e5760207ffffffffffffffffffffffffffffffffffffffffffffffffffffffffffffffffc36011261023e5761080f610301565b335f9081527f2fb794d17134dfdec181ddbac1babb5ab1eb140204ef4d982f294e7fc8b690226020526040902061084b9060ff905b54166116df565b73ffffffffffffffffffffffffffffffffffffffff81169081156108e9576108c3905f805260016020526108be836108b761089e60405f2073ffffffffffffffffffffffffffffffffffffffff90541690565b73ffffffffffffffffffffffffffffffffffffffff1690565b14156117eb565b611dae565b7fbc7cd75a20ee27fd9adebab32041f755214dbc6bffa90cc0225b39da2e5c2d3b5f80a2005b60646040517f08c379a000000000000000000000000000000000000000000000000000000000815260206004820152600d60248201527f696e707574206973207a65726f000000000000000000000000000000000000006044820152fd5b3461023e5760407ffffffffffffffffffffffffffffffffffffffffffffffffffffffffffffffffc36011261023e5761097e610301565b610986610324565b335f9081527f2fb794d17134dfdec181ddbac1babb5ab1eb140204ef4d982f294e7fc8b69022602052604090206109bf9060ff90610844565b73ffffffffffffffffffffffffffffffffffffffff90817fffffffffffffffffffffffff00000000000000000000000000000000000000009316836005541617600555169060065416176006555f80f35b3461023e5760407ffffffffffffffffffffffffffffffffffffffffffffffffffffffffffffffffc36011261023e5760043567ffffffffffffffff80821161023e573660238301121561023e57816004013590811161023e576024820191602436918360051b01011161023e57610a85610324565b335f9081527f2fb794d17134dfdec181ddbac1babb5ab1eb140204ef4d982f294e7fc8b6902260205260409020909290610ac19060ff90610844565b8115610c515790610b02610afd610af68573ffffffffffffffffffffffffffffffffffffffff165f52600260205260405f2090565b5460ff1690565b611850565b5f9073ffffffffffffffffffffffffffffffffffffffff92838516925b828110610b2857005b80610b9b8587610b93610b79610b49610b446001988b8b6118b5565b6118f2565b7fffffffff00000000000000000000000000000000000000000000000000000000165f52600360205260405f2090565b5473ffffffffffffffffffffffffffffffffffffffff1690565b1614156118ff565b610bf087610bb0610b49610b448589896118b5565b9073ffffffffffffffffffffffffffffffffffffffff167fffffffffffffffffffffffff0000000000000000000000000000000000000000825416179055565b84610c27610c02610b448488886118b5565b7fffffffff000000000000000000000000000000000000000000000000000000001690565b7f14ebc1c32aa68f4d766e89f3e546cee249f7df25183fc10ab1568d91c2ce9b7b5f80a301610b1f565b60646040517f08c379a000000000000000000000000000000000000000000000000000000000815260206004820152602060248201527f50726f78793a205f73656c6563746f727327732073697a65206973207a65726f6044820152fd5b3461023e5760207ffffffffffffffffffffffffffffffffffffffffffffffffffffffffffffffffc36011261023e577fffffffff00000000000000000000000000000000000000000000000000000000600435610d0b81610214565b165f526003602052602073ffffffffffffffffffffffffffffffffffffffff60405f205416604051908152f35b3461023e5760207ffffffffffffffffffffffffffffffffffffffffffffffffffffffffffffffffc36011261023e5773ffffffffffffffffffffffffffffffffffffffff610d84610301565b165f526002602052602060ff60405f2054166040519015158152f35b3461023e575f7ffffffffffffffffffffffffffffffffffffffffffffffffffffffffffffffffc36011261023e575f80526001602052602073ffffffffffffffffffffffffffffffffffffffff60405f205416604051908152f35b3461023e5760407ffffffffffffffffffffffffffffffffffffffffffffffffffffffffffffffffc36011261023e57610e32610301565b602435801515810361023e57335f9081527f2fb794d17134dfdec181ddbac1babb5ab1eb140204ef4d982f294e7fc8b69022602052604090206104bf9290610e7c9060ff90610844565b611e7e565b3461023e575f7ffffffffffffffffffffffffffffffffffffffffffffffffffffffffffffffffc36011261023e57602060ff5f54166040519015158152f35b3461023e5760207ffffffffffffffffffffffffffffffffffffffffffffffffffffffffffffffffc36011261023e576104bf610efa610301565b335f9081527f2fb794d17134dfdec181ddbac1babb5ab1eb140204ef4d982f294e7fc8b69022602052604090207fdf8b4c520ffe197c5343c6f5aec59570151ef9a492f2c624fd45ddde6135ec4290610f559060ff90610844565b5f526004602052610f6c600160405f200154611ab0565b611b26565b3461023e5760207ffffffffffffffffffffffffffffffffffffffffffffffffffffffffffffffffc36011261023e57610fa8610301565b335f9081527f2fb794d17134dfdec181ddbac1babb5ab1eb140204ef4d982f294e7fc8b6902260205260409020610fe19060ff90610844565b73ffffffffffffffffffffffffffffffffffffffff811680156110745733146110165761100d9061176a565b6104bf336117c5565b60646040517f08c379a000000000000000000000000000000000000000000000000000000000815260206004820152601660248201527f41636365737369626c653a2073616d652061646d696e000000000000000000006044820152fd5b60646040517f08c379a000000000000000000000000000000000000000000000000000000000815260206004820152601860248201527f41636365737369626c653a207a65726f206164647265737300000000000000006044820152fd5b3461023e575f7ffffffffffffffffffffffffffffffffffffffffffffffffffffffffffffffffc36011261023e5760206040517fdf8b4c520ffe197c5343c6f5aec59570151ef9a492f2c624fd45ddde6135ec428152f35b3461023e5760207ffffffffffffffffffffffffffffffffffffffffffffffffffffffffffffffffc36011261023e5760043580151580910361023e57335f9081527f2fb794d17134dfdec181ddbac1babb5ab1eb140204ef4d982f294e7fc8b690226020526040902061119f9060ff90610844565b60ff7fffffffffffffffffffffffffffffffffffffffffffffffffffffffffffffff005f54169116175f555f80f35b3461023e5760607ffffffffffffffffffffffffffffffffffffffffffffffffffffffffffffffffc36011261023e57611205610301565b604435801515810361023e57335f9081527f2fb794d17134dfdec181ddbac1babb5ab1eb140204ef4d982f294e7fc8b690226020526040902061124a9060ff90610844565b813b156112ad576104bf918115611e7e576024355f526001602052610e7c8160405f209073ffffffffffffffffffffffffffffffffffffffff167fffffffffffffffffffffffff0000000000000000000000000000000000000000825416179055565b60646040517f08c379a000000000000000000000000000000000000000000000000000000000815260206004820152601b60248201527f50726f78793a206e6f7420636f6e7472616374206164647265737300000000006044820152fd5b3461023e5760207ffffffffffffffffffffffffffffffffffffffffffffffffffffffffffffffffc36011261023e576004355f526001602052602073ffffffffffffffffffffffffffffffffffffffff60405f205416604051908152f35b3461023e5760207ffffffffffffffffffffffffffffffffffffffffffffffffffffffffffffffffc36011261023e5760206113ae6004356113a981610214565b611964565b73ffffffffffffffffffffffffffffffffffffffff60405191168152f35b3461023e5760407ffffffffffffffffffffffffffffffffffffffffffffffffffffffffffffffffc36011261023e57602060ff6106e761140a610324565b6004355f526004845260405f209073ffffffffffffffffffffffffffffffffffffffff165f5260205260405f2090565b3461023e575f7ffffffffffffffffffffffffffffffffffffffffffffffffffffffffffffffffc36011261023e576020600754604051908152f35b3461023e575f7ffffffffffffffffffffffffffffffffffffffffffffffffffffffffffffffffc36011261023e5760206040515f8152f35b3461023e5760407ffffffffffffffffffffffffffffffffffffffffffffffffffffffffffffffffc36011261023e576104bf6004356114ea610324565b90805f526004602052611503600160405f200154611ab0565b611d79565b3461023e5760207ffffffffffffffffffffffffffffffffffffffffffffffffffffffffffffffffc36011261023e576004355f52600a6020526040805f2073ffffffffffffffffffffffffffffffffffffffff6001818354169201541682519182526020820152f35b3461023e575f7ffffffffffffffffffffffffffffffffffffffffffffffffffffffffffffffffc36011261023e57602073ffffffffffffffffffffffffffffffffffffffff60055416604051908152f35b3461023e5760207ffffffffffffffffffffffffffffffffffffffffffffffffffffffffffffffffc36011261023e576004355f52600860205260405f2073ffffffffffffffffffffffffffffffffffffffff6116db818354169180600185015416938160028201541691600382015416611653600483015473ffffffffffffffffffffffffffffffffffffffff1690565b600583015460068401549160078501549360096008870154960154966040519a8b9a8b9693916101209895919b9a9996939261014089019c73ffffffffffffffffffffffffffffffffffffffff94858094818094168d521660208c01521660408a015216606088015216608086015260a085015260c084015260e08301526101008201520152565b0390f35b156116e657565b60846040517f08c379a000000000000000000000000000000000000000000000000000000000815260206004820152602260248201527f41636365737369626c653a2043616c6c6572206973206e6f7420616e2061646d60448201527f696e0000000000000000000000000000000000000000000000000000000000006064820152fd5b7fdf8b4c520ffe197c5343c6f5aec59570151ef9a492f2c624fd45ddde6135ec425f5260046020527f2fb794d17134dfdec181ddbac1babb5ab1eb140204ef4d982f294e7fc8b69023546117c29190610f6c90611ab0565b50565b3373ffffffffffffffffffffffffffffffffffffffff8216036107ae576117c290611c6e565b156117f257565b60646040517f08c379a000000000000000000000000000000000000000000000000000000000815260206004820152600960248201527f73616d65206164647200000000000000000000000000000000000000000000006044820152fd5b1561185757565b60646040517f08c379a000000000000000000000000000000000000000000000000000000000815260206004820152601860248201527f50726f78793a205f696d70206973206e6f7420616c69766500000000000000006044820152fd5b91908110156118c55760051b0190565b7f4e487b71000000000000000000000000000000000000000000000000000000005f52603260045260245ffd5b356118fc81610214565b90565b1561190657565b60646040517f08c379a000000000000000000000000000000000000000000000000000000000815260206004820152601d60248201527f4c69717569646974795661756c7450726f78793a2073616d6520696d700000006044820152fd5b7fffffffff0000000000000000000000000000000000000000000000000000000081165f52600360205273ffffffffffffffffffffffffffffffffffffffff908160405f205416155f146119e657505f805260016020527fa6eef7e35abe7026729641147f7915573c7e97b47efa546f5f6e3230263bcb49541690565b541690565b60ff611a4683611a20847fffffffff00000000000000000000000000000000000000000000000000000000165f52600360205260405f2090565b541673ffffffffffffffffffffffffffffffffffffffff165f52600260205260405f2090565b541615611a81576119e1907fffffffff00000000000000000000000000000000000000000000000000000000165f52600360205260405f2090565b505f805260016020527fa6eef7e35abe7026729641147f7915573c7e97b47efa546f5f6e3230263bcb49541690565b805f52600460205260ff611ae53360405f209073ffffffffffffffffffffffffffffffffffffffff165f5260205260405f2090565b541615611aef5750565b604490604051907fe2517d3f0000000000000000000000000000000000000000000000000000000082523360048301526024820152fd5b73ffffffffffffffffffffffffffffffffffffffff81165f9081527f2fb794d17134dfdec181ddbac1babb5ab1eb140204ef4d982f294e7fc8b69022602052604090207fdf8b4c520ffe197c5343c6f5aec59570151ef9a492f2c624fd45ddde6135ec429060ff905b5416611c3357805f526004602052611bc88260405f209073ffffffffffffffffffffffffffffffffffffffff165f5260205260405f2090565b60017fffffffffffffffffffffffffffffffffffffffffffffffffffffffffffffff0082541617905573ffffffffffffffffffffffffffffffffffffffff339216907f2f8788117e7eff1d82e926ec794901d17c78024a50270940304540a733656f0d5f80a4600190565b50505f90565b805f52600460205260ff611b8f8360405f209073ffffffffffffffffffffffffffffffffffffffff165f5260205260405f2090565b73ffffffffffffffffffffffffffffffffffffffff81165f9081527f2fb794d17134dfdec181ddbac1babb5ab1eb140204ef4d982f294e7fc8b69022602052604090207fdf8b4c520ffe197c5343c6f5aec59570151ef9a492f2c624fd45ddde6135ec429060ff905b541615611c3357805f526004602052611d118260405f209073ffffffffffffffffffffffffffffffffffffffff165f5260205260405f2090565b7fffffffffffffffffffffffffffffffffffffffffffffffffffffffffffffff00815416905573ffffffffffffffffffffffffffffffffffffffff339216907ff6391f5c32d9c69d2a47ea670b442974b53935d1edc7fd64eb21e047a839171b5f80a4600190565b805f52600460205260ff611cd78360405f209073ffffffffffffffffffffffffffffffffffffffff165f5260205260405f2090565b803b156112ad5773ffffffffffffffffffffffffffffffffffffffff905f80526001602052611e1b8160405f209073ffffffffffffffffffffffffffffffffffffffff167fffffffffffffffffffffffff0000000000000000000000000000000000000000825416179055565b16805f52600260205260405f2060017fffffffffffffffffffffffffffffffffffffffffffffffffffffffffffffff008254161790557f72558d9bfba4210f9ef095c782589484151f6d90f7a81bb3cb9b33efc695d324602060405160018152a2565b602073ffffffffffffffffffffffffffffffffffffffff7f72558d9bfba4210f9ef095c782589484151f6d90f7a81bb3cb9b33efc695d324921692835f526002825260405f20901515907fffffffffffffffffffffffffffffffffffffffffffffffffffffffffffffff0081541660ff8316179055604051908152a2565b611f287fffffffff000000000000000000000000000000000000000000000000000000005f3516611964565b73ffffffffffffffffffffffffffffffffffffffff8116151580611fc7575b15611f69575f8091368280378136915af43d5f803e15611f65573d5ff35b3d5ffd5b60646040517f08c379a000000000000000000000000000000000000000000000000000000000815260206004820152601d60248201527f50726f78793a20696d706c204f522070726f78792069732066616c73650000006044820152fd5b5060ff5f541615611f4756fea26469706673582212208231fd9851e4c4c4ff0c4458d38324710dc0c8f277938349c743a48c0721e83264736f6c63430008180033df8b4c520ffe197c5343c6f5aec59570151ef9a492f2c624fd45ddde6135ec42",
					"opcodes": "PUSH1 0x80 PUSH1 0x40 MSTORE CALLVALUE PUSH2 0x69 JUMPI PUSH0 DUP1 MLOAD PUSH1 0x20 PUSH2 0x2116 DUP4 CODECOPY DUP2 MLOAD SWAP2 MSTORE DUP1 PUSH0 MSTORE PUSH1 0x4 PUSH1 0x20 MSTORE PUSH1 0x1 PUSH1 0x40 PUSH0 KECCAK256 ADD DUP2 DUP2 SLOAD SWAP2 SSTORE DUP2 PUSH32 0xBD79B86FFE0AB8E8776151514217CD7CACD52C909F66475C3AF44E129F0B00FF PUSH0 DUP1 LOG4 PUSH2 0x59 CALLER PUSH2 0x6D JUMP JUMPDEST POP PUSH1 0x40 MLOAD PUSH2 0x2009 SWAP1 DUP2 PUSH2 0x10D DUP3 CODECOPY RETURN JUMPDEST PUSH0 DUP1 REVERT JUMPDEST PUSH1 0x1 PUSH1 0x1 PUSH1 0xA0 SHL SUB AND PUSH0 DUP2 DUP2 MSTORE PUSH32 0x2FB794D17134DFDEC181DDBAC1BABB5AB1EB140204EF4D982F294E7FC8B69022 PUSH1 0x20 MSTORE PUSH1 0x40 SWAP1 KECCAK256 SLOAD PUSH0 DUP1 MLOAD PUSH1 0x20 PUSH2 0x2116 DUP4 CODECOPY DUP2 MLOAD SWAP2 MSTORE SWAP2 SWAP1 PUSH1 0xFF AND PUSH2 0x106 JUMPI DUP2 PUSH0 MSTORE PUSH1 0x4 PUSH1 0x20 MSTORE PUSH1 0x40 PUSH0 KECCAK256 DUP2 PUSH0 MSTORE PUSH1 0x20 MSTORE PUSH1 0x40 PUSH0 KECCAK256 PUSH1 0x1 PUSH1 0xFF NOT DUP3 SLOAD AND OR SWAP1 SSTORE CALLER SWAP2 PUSH32 0x2F8788117E7EFF1D82E926EC794901D17C78024A50270940304540A733656F0D PUSH0 DUP1 LOG4 PUSH1 0x1 SWAP1 JUMP JUMPDEST POP POP PUSH0 SWAP1 JUMP INVALID PUSH1 0x80 PUSH1 0x40 MSTORE PUSH1 0x4 CALLDATASIZE LT ISZERO PUSH2 0x15 JUMPI JUMPDEST CALLDATASIZE PUSH2 0x1EFC JUMPI STOP JUMPDEST PUSH0 CALLDATALOAD PUSH1 0xE0 SHR DUP1 PUSH4 0x1FFC9A7 EQ PUSH2 0x20F JUMPI DUP1 PUSH4 0x1230B14C EQ PUSH2 0x20A JUMPI DUP1 PUSH4 0x16E01724 EQ PUSH2 0x205 JUMPI DUP1 PUSH4 0x1785F53C EQ PUSH2 0x200 JUMPI DUP1 PUSH4 0x22985246 EQ PUSH2 0x1FB JUMPI DUP1 PUSH4 0x248A9CA3 EQ PUSH2 0x1F6 JUMPI DUP1 PUSH4 0x24D7806C EQ PUSH2 0x1F1 JUMPI DUP1 PUSH4 0x2F2FF15D EQ PUSH2 0x1EC JUMPI DUP1 PUSH4 0x36568ABE EQ PUSH2 0x1E7 JUMPI DUP1 PUSH4 0x3659CFE6 EQ PUSH2 0x1E2 JUMPI DUP1 PUSH4 0x485CC955 EQ PUSH2 0x1DD JUMPI DUP1 PUSH4 0x4A5DF50F EQ PUSH2 0x1D8 JUMPI DUP1 PUSH4 0x50D2A276 EQ PUSH2 0x1D3 JUMPI DUP1 PUSH4 0x550D01A3 EQ PUSH2 0x1CE JUMPI DUP1 PUSH4 0x5C60DA1B EQ PUSH2 0x1C9 JUMPI DUP1 PUSH4 0x5CC797D8 EQ PUSH2 0x1C4 JUMPI DUP1 PUSH4 0x63A8FD89 EQ PUSH2 0x1BF JUMPI DUP1 PUSH4 0x70480275 EQ PUSH2 0x1BA JUMPI DUP1 PUSH4 0x75829DEF EQ PUSH2 0x1B5 JUMPI DUP1 PUSH4 0x75B238FC EQ PUSH2 0x1B0 JUMPI DUP1 PUSH4 0x7CB00D25 EQ PUSH2 0x1AB JUMPI DUP1 PUSH4 0x7CD5F663 EQ PUSH2 0x1A6 JUMPI DUP1 PUSH4 0x8B8F4A65 EQ PUSH2 0x18D JUMPI DUP1 PUSH4 0x8D4FDB40 EQ PUSH2 0x1A1 JUMPI DUP1 PUSH4 0x91D14854 EQ PUSH2 0x19C JUMPI DUP1 PUSH4 0xA1E89AEC EQ PUSH2 0x197 JUMPI DUP1 PUSH4 0xA217FDDF EQ PUSH2 0x192 JUMPI DUP1 PUSH4 0xB911135F EQ PUSH2 0x18D JUMPI DUP1 PUSH4 0xD547741F EQ PUSH2 0x188 JUMPI DUP1 PUSH4 0xE59F69C2 EQ PUSH2 0x183 JUMPI DUP1 PUSH4 0xF43B3613 EQ PUSH2 0x17E JUMPI PUSH4 0xF5869C2F SUB PUSH2 0xE JUMPI PUSH2 0x15C2 JUMP JUMPDEST PUSH2 0x1571 JUMP JUMPDEST PUSH2 0x1508 JUMP JUMPDEST PUSH2 0x14AD JUMP JUMPDEST PUSH2 0x130B JUMP JUMPDEST PUSH2 0x1475 JUMP JUMPDEST PUSH2 0x143A JUMP JUMPDEST PUSH2 0x13CC JUMP JUMPDEST PUSH2 0x1369 JUMP JUMPDEST PUSH2 0x11CE JUMP JUMPDEST PUSH2 0x112A JUMP JUMPDEST PUSH2 0x10D2 JUMP JUMPDEST PUSH2 0xF71 JUMP JUMPDEST PUSH2 0xEC0 JUMP JUMPDEST PUSH2 0xE81 JUMP JUMPDEST PUSH2 0xDFB JUMP JUMPDEST PUSH2 0xDA0 JUMP JUMPDEST PUSH2 0xD38 JUMP JUMPDEST PUSH2 0xCAF JUMP JUMPDEST PUSH2 0xA10 JUMP JUMPDEST PUSH2 0x947 JUMP JUMPDEST PUSH2 0x7D8 JUMP JUMPDEST PUSH2 0x74E JUMP JUMPDEST PUSH2 0x6F3 JUMP JUMPDEST PUSH2 0x65B JUMP JUMPDEST PUSH2 0x610 JUMP JUMPDEST PUSH2 0x5B8 JUMP JUMPDEST PUSH2 0x53F JUMP JUMPDEST PUSH2 0x4EE JUMP JUMPDEST PUSH2 0x347 JUMP JUMPDEST PUSH2 0x242 JUMP JUMPDEST PUSH32 0xFFFFFFFF00000000000000000000000000000000000000000000000000000000 DUP2 AND SUB PUSH2 0x23E JUMPI JUMP JUMPDEST PUSH0 DUP1 REVERT JUMPDEST CALLVALUE PUSH2 0x23E JUMPI PUSH1 0x20 PUSH32 0xFFFFFFFFFFFFFFFFFFFFFFFFFFFFFFFFFFFFFFFFFFFFFFFFFFFFFFFFFFFFFFFC CALLDATASIZE ADD SLT PUSH2 0x23E JUMPI PUSH1 0x20 PUSH32 0xFFFFFFFF00000000000000000000000000000000000000000000000000000000 PUSH1 0x4 CALLDATALOAD PUSH2 0x2A0 DUP2 PUSH2 0x214 JUMP JUMPDEST AND PUSH32 0x7965DB0B00000000000000000000000000000000000000000000000000000000 DUP2 EQ SWAP1 DUP2 ISZERO PUSH2 0x2D7 JUMPI JUMPDEST POP PUSH1 0x40 MLOAD SWAP1 ISZERO ISZERO DUP2 MSTORE RETURN JUMPDEST PUSH32 0x1FFC9A700000000000000000000000000000000000000000000000000000000 SWAP2 POP EQ PUSH0 PUSH2 0x2CC JUMP JUMPDEST PUSH1 0x4 CALLDATALOAD SWAP1 PUSH20 0xFFFFFFFFFFFFFFFFFFFFFFFFFFFFFFFFFFFFFFFF DUP3 AND DUP3 SUB PUSH2 0x23E JUMPI JUMP JUMPDEST PUSH1 0x24 CALLDATALOAD SWAP1 PUSH20 0xFFFFFFFFFFFFFFFFFFFFFFFFFFFFFFFFFFFFFFFF DUP3 AND DUP3 SUB PUSH2 0x23E JUMPI JUMP JUMPDEST CALLVALUE PUSH2 0x23E JUMPI PUSH1 0x60 PUSH32 0xFFFFFFFFFFFFFFFFFFFFFFFFFFFFFFFFFFFFFFFFFFFFFFFFFFFFFFFFFFFFFFFC CALLDATASIZE ADD SLT PUSH2 0x23E JUMPI PUSH2 0x37E PUSH2 0x301 JUMP JUMPDEST PUSH2 0x386 PUSH2 0x324 JUMP JUMPDEST SWAP1 PUSH2 0x3DC PUSH2 0x3D7 CALLER PUSH20 0xFFFFFFFFFFFFFFFFFFFFFFFFFFFFFFFFFFFFFFFF AND PUSH0 SWAP1 DUP2 MSTORE PUSH32 0x2FB794D17134DFDEC181DDBAC1BABB5AB1EB140204EF4D982F294E7FC8B69022 PUSH1 0x20 MSTORE PUSH1 0x40 SWAP1 KECCAK256 SLOAD PUSH1 0xFF AND SWAP1 JUMP JUMPDEST PUSH2 0x16DF JUMP JUMPDEST PUSH1 0x40 MLOAD SWAP1 PUSH1 0x40 DUP3 ADD SWAP1 DUP3 DUP3 LT PUSH8 0xFFFFFFFFFFFFFFFF DUP4 GT OR PUSH2 0x4C1 JUMPI PUSH2 0x4BF SWAP4 PUSH1 0x1 SWAP3 PUSH1 0x40 MSTORE PUSH20 0xFFFFFFFFFFFFFFFFFFFFFFFFFFFFFFFFFFFFFFFF DUP1 SWAP3 AND DUP5 MSTORE DUP2 PUSH1 0x20 DUP6 ADD SWAP2 AND DUP2 MSTORE PUSH1 0x44 CALLDATALOAD PUSH0 MSTORE PUSH1 0xA PUSH1 0x20 MSTORE PUSH2 0x47B DUP3 PUSH1 0x40 PUSH0 KECCAK256 SWAP6 MLOAD AND DUP6 SWAP1 PUSH20 0xFFFFFFFFFFFFFFFFFFFFFFFFFFFFFFFFFFFFFFFF AND PUSH32 0xFFFFFFFFFFFFFFFFFFFFFFFF0000000000000000000000000000000000000000 DUP3 SLOAD AND OR SWAP1 SSTORE JUMP JUMPDEST MLOAD AND SWAP2 ADD SWAP1 PUSH20 0xFFFFFFFFFFFFFFFFFFFFFFFFFFFFFFFFFFFFFFFF AND PUSH32 0xFFFFFFFFFFFFFFFFFFFFFFFF0000000000000000000000000000000000000000 DUP3 SLOAD AND OR SWAP1 SSTORE JUMP JUMPDEST STOP JUMPDEST PUSH32 0x4E487B7100000000000000000000000000000000000000000000000000000000 PUSH0 MSTORE PUSH1 0x41 PUSH1 0x4 MSTORE PUSH1 0x24 PUSH0 REVERT JUMPDEST CALLVALUE PUSH2 0x23E JUMPI PUSH0 PUSH32 0xFFFFFFFFFFFFFFFFFFFFFFFFFFFFFFFFFFFFFFFFFFFFFFFFFFFFFFFFFFFFFFFC CALLDATASIZE ADD SLT PUSH2 0x23E JUMPI PUSH1 0x20 PUSH20 0xFFFFFFFFFFFFFFFFFFFFFFFFFFFFFFFFFFFFFFFF PUSH1 0x6 SLOAD AND PUSH1 0x40 MLOAD SWAP1 DUP2 MSTORE RETURN JUMPDEST CALLVALUE PUSH2 0x23E JUMPI PUSH1 0x20 PUSH32 0xFFFFFFFFFFFFFFFFFFFFFFFFFFFFFFFFFFFFFFFFFFFFFFFFFFFFFFFFFFFFFFFC CALLDATASIZE ADD SLT PUSH2 0x23E JUMPI PUSH2 0x4BF PUSH2 0x579 PUSH2 0x301 JUMP JUMPDEST CALLER PUSH0 SWAP1 DUP2 MSTORE PUSH32 0x2FB794D17134DFDEC181DDBAC1BABB5AB1EB140204EF4D982F294E7FC8B69022 PUSH1 0x20 MSTORE PUSH1 0x40 SWAP1 KECCAK256 SLOAD PUSH2 0x5B3 SWAP1 PUSH1 0xFF AND PUSH2 0x16DF JUMP JUMPDEST PUSH2 0x17C5 JUMP JUMPDEST CALLVALUE PUSH2 0x23E JUMPI PUSH0 PUSH32 0xFFFFFFFFFFFFFFFFFFFFFFFFFFFFFFFFFFFFFFFFFFFFFFFFFFFFFFFFFFFFFFFC CALLDATASIZE ADD SLT PUSH2 0x23E JUMPI PUSH1 0x20 PUSH1 0x40 MLOAD PUSH32 0xFB5864E8FF833C3CB2D2D08505E82FF02A43554C74A35D4F5A64E85261278311 DUP2 MSTORE RETURN JUMPDEST CALLVALUE PUSH2 0x23E JUMPI PUSH1 0x20 PUSH32 0xFFFFFFFFFFFFFFFFFFFFFFFFFFFFFFFFFFFFFFFFFFFFFFFFFFFFFFFFFFFFFFFC CALLDATASIZE ADD SLT PUSH2 0x23E JUMPI PUSH1 0x4 CALLDATALOAD PUSH0 MSTORE PUSH1 0x4 PUSH1 0x20 MSTORE PUSH1 0x20 PUSH1 0x1 PUSH1 0x40 PUSH0 KECCAK256 ADD SLOAD PUSH1 0x40 MLOAD SWAP1 DUP2 MSTORE RETURN JUMPDEST CALLVALUE PUSH2 0x23E JUMPI PUSH1 0x20 PUSH32 0xFFFFFFFFFFFFFFFFFFFFFFFFFFFFFFFFFFFFFFFFFFFFFFFFFFFFFFFFFFFFFFFC CALLDATASIZE ADD SLT PUSH2 0x23E JUMPI PUSH1 0x20 PUSH1 0xFF PUSH2 0x6E7 PUSH2 0x699 PUSH2 0x301 JUMP JUMPDEST PUSH32 0xDF8B4C520FFE197C5343C6F5AEC59570151EF9A492F2C624FD45DDDE6135EC42 PUSH0 MSTORE PUSH1 0x4 DUP5 MSTORE PUSH1 0x40 PUSH0 KECCAK256 SWAP1 PUSH20 0xFFFFFFFFFFFFFFFFFFFFFFFFFFFFFFFFFFFFFFFF AND PUSH0 MSTORE PUSH1 0x20 MSTORE PUSH1 0x40 PUSH0 KECCAK256 SWAP1 JUMP JUMPDEST SLOAD AND PUSH1 0x40 MLOAD SWAP1 ISZERO ISZERO DUP2 MSTORE RETURN JUMPDEST CALLVALUE PUSH2 0x23E JUMPI PUSH1 0x40 PUSH32 0xFFFFFFFFFFFFFFFFFFFFFFFFFFFFFFFFFFFFFFFFFFFFFFFFFFFFFFFFFFFFFFFC CALLDATASIZE ADD SLT PUSH2 0x23E JUMPI PUSH2 0x4BF PUSH1 0x4 CALLDATALOAD PUSH2 0x730 PUSH2 0x324 JUMP JUMPDEST SWAP1 DUP1 PUSH0 MSTORE PUSH1 0x4 PUSH1 0x20 MSTORE PUSH2 0x749 PUSH1 0x1 PUSH1 0x40 PUSH0 KECCAK256 ADD SLOAD PUSH2 0x1AB0 JUMP JUMPDEST PUSH2 0x1C39 JUMP JUMPDEST CALLVALUE PUSH2 0x23E JUMPI PUSH1 0x40 PUSH32 0xFFFFFFFFFFFFFFFFFFFFFFFFFFFFFFFFFFFFFFFFFFFFFFFFFFFFFFFFFFFFFFFC CALLDATASIZE ADD SLT PUSH2 0x23E JUMPI PUSH2 0x785 PUSH2 0x324 JUMP JUMPDEST CALLER PUSH20 0xFFFFFFFFFFFFFFFFFFFFFFFFFFFFFFFFFFFFFFFF DUP3 AND SUB PUSH2 0x7AE JUMPI PUSH2 0x4BF SWAP1 PUSH1 0x4 CALLDATALOAD PUSH2 0x1D79 JUMP JUMPDEST PUSH1 0x4 PUSH1 0x40 MLOAD PUSH32 0x6697B23200000000000000000000000000000000000000000000000000000000 DUP2 MSTORE REVERT JUMPDEST CALLVALUE PUSH2 0x23E JUMPI PUSH1 0x20 PUSH32 0xFFFFFFFFFFFFFFFFFFFFFFFFFFFFFFFFFFFFFFFFFFFFFFFFFFFFFFFFFFFFFFFC CALLDATASIZE ADD SLT PUSH2 0x23E JUMPI PUSH2 0x80F PUSH2 0x301 JUMP JUMPDEST CALLER PUSH0 SWAP1 DUP2 MSTORE PUSH32 0x2FB794D17134DFDEC181DDBAC1BABB5AB1EB140204EF4D982F294E7FC8B69022 PUSH1 0x20 MSTORE PUSH1 0x40 SWAP1 KECCAK256 PUSH2 0x84B SWAP1 PUSH1 0xFF SWAP1 JUMPDEST SLOAD AND PUSH2 0x16DF JUMP JUMPDEST PUSH20 0xFFFFFFFFFFFFFFFFFFFFFFFFFFFFFFFFFFFFFFFF DUP2 AND SWAP1 DUP2 ISZERO PUSH2 0x8E9 JUMPI PUSH2 0x8C3 SWAP1 PUSH0 DUP1 MSTORE PUSH1 0x1 PUSH1 0x20 MSTORE PUSH2 0x8BE DUP4 PUSH2 0x8B7 PUSH2 0x89E PUSH1 0x40 PUSH0 KECCAK256 PUSH20 0xFFFFFFFFFFFFFFFFFFFFFFFFFFFFFFFFFFFFFFFF SWAP1 SLOAD AND SWAP1 JUMP JUMPDEST PUSH20 0xFFFFFFFFFFFFFFFFFFFFFFFFFFFFFFFFFFFFFFFF AND SWAP1 JUMP JUMPDEST EQ ISZERO PUSH2 0x17EB JUMP JUMPDEST PUSH2 0x1DAE JUMP JUMPDEST PUSH32 0xBC7CD75A20EE27FD9ADEBAB32041F755214DBC6BFFA90CC0225B39DA2E5C2D3B PUSH0 DUP1 LOG2 STOP JUMPDEST PUSH1 0x64 PUSH1 0x40 MLOAD PUSH32 0x8C379A000000000000000000000000000000000000000000000000000000000 DUP2 MSTORE PUSH1 0x20 PUSH1 0x4 DUP3 ADD MSTORE PUSH1 0xD PUSH1 0x24 DUP3 ADD MSTORE PUSH32 0x696E707574206973207A65726F00000000000000000000000000000000000000 PUSH1 0x44 DUP3 ADD MSTORE REVERT JUMPDEST CALLVALUE PUSH2 0x23E JUMPI PUSH1 0x40 PUSH32 0xFFFFFFFFFFFFFFFFFFFFFFFFFFFFFFFFFFFFFFFFFFFFFFFFFFFFFFFFFFFFFFFC CALLDATASIZE ADD SLT PUSH2 0x23E JUMPI PUSH2 0x97E PUSH2 0x301 JUMP JUMPDEST PUSH2 0x986 PUSH2 0x324 JUMP JUMPDEST CALLER PUSH0 SWAP1 DUP2 MSTORE PUSH32 0x2FB794D17134DFDEC181DDBAC1BABB5AB1EB140204EF4D982F294E7FC8B69022 PUSH1 0x20 MSTORE PUSH1 0x40 SWAP1 KECCAK256 PUSH2 0x9BF SWAP1 PUSH1 0xFF SWAP1 PUSH2 0x844 JUMP JUMPDEST PUSH20 0xFFFFFFFFFFFFFFFFFFFFFFFFFFFFFFFFFFFFFFFF SWAP1 DUP2 PUSH32 0xFFFFFFFFFFFFFFFFFFFFFFFF0000000000000000000000000000000000000000 SWAP4 AND DUP4 PUSH1 0x5 SLOAD AND OR PUSH1 0x5 SSTORE AND SWAP1 PUSH1 0x6 SLOAD AND OR PUSH1 0x6 SSTORE PUSH0 DUP1 RETURN JUMPDEST CALLVALUE PUSH2 0x23E JUMPI PUSH1 0x40 PUSH32 0xFFFFFFFFFFFFFFFFFFFFFFFFFFFFFFFFFFFFFFFFFFFFFFFFFFFFFFFFFFFFFFFC CALLDATASIZE ADD SLT PUSH2 0x23E JUMPI PUSH1 0x4 CALLDATALOAD PUSH8 0xFFFFFFFFFFFFFFFF DUP1 DUP3 GT PUSH2 0x23E JUMPI CALLDATASIZE PUSH1 0x23 DUP4 ADD SLT ISZERO PUSH2 0x23E JUMPI DUP2 PUSH1 0x4 ADD CALLDATALOAD SWAP1 DUP2 GT PUSH2 0x23E JUMPI PUSH1 0x24 DUP3 ADD SWAP2 PUSH1 0x24 CALLDATASIZE SWAP2 DUP4 PUSH1 0x5 SHL ADD ADD GT PUSH2 0x23E JUMPI PUSH2 0xA85 PUSH2 0x324 JUMP JUMPDEST CALLER PUSH0 SWAP1 DUP2 MSTORE PUSH32 0x2FB794D17134DFDEC181DDBAC1BABB5AB1EB140204EF4D982F294E7FC8B69022 PUSH1 0x20 MSTORE PUSH1 0x40 SWAP1 KECCAK256 SWAP1 SWAP3 SWAP1 PUSH2 0xAC1 SWAP1 PUSH1 0xFF SWAP1 PUSH2 0x844 JUMP JUMPDEST DUP2 ISZERO PUSH2 0xC51 JUMPI SWAP1 PUSH2 0xB02 PUSH2 0xAFD PUSH2 0xAF6 DUP6 PUSH20 0xFFFFFFFFFFFFFFFFFFFFFFFFFFFFFFFFFFFFFFFF AND PUSH0 MSTORE PUSH1 0x2 PUSH1 0x20 MSTORE PUSH1 0x40 PUSH0 KECCAK256 SWAP1 JUMP JUMPDEST SLOAD PUSH1 0xFF AND SWAP1 JUMP JUMPDEST PUSH2 0x1850 JUMP JUMPDEST PUSH0 SWAP1 PUSH20 0xFFFFFFFFFFFFFFFFFFFFFFFFFFFFFFFFFFFFFFFF SWAP3 DUP4 DUP6 AND SWAP3 JUMPDEST DUP3 DUP2 LT PUSH2 0xB28 JUMPI STOP JUMPDEST DUP1 PUSH2 0xB9B DUP6 DUP8 PUSH2 0xB93 PUSH2 0xB79 PUSH2 0xB49 PUSH2 0xB44 PUSH1 0x1 SWAP9 DUP12 DUP12 PUSH2 0x18B5 JUMP JUMPDEST PUSH2 0x18F2 JUMP JUMPDEST PUSH32 0xFFFFFFFF00000000000000000000000000000000000000000000000000000000 AND PUSH0 MSTORE PUSH1 0x3 PUSH1 0x20 MSTORE PUSH1 0x40 PUSH0 KECCAK256 SWAP1 JUMP JUMPDEST SLOAD PUSH20 0xFFFFFFFFFFFFFFFFFFFFFFFFFFFFFFFFFFFFFFFF AND SWAP1 JUMP JUMPDEST AND EQ ISZERO PUSH2 0x18FF JUMP JUMPDEST PUSH2 0xBF0 DUP8 PUSH2 0xBB0 PUSH2 0xB49 PUSH2 0xB44 DUP6 DUP10 DUP10 PUSH2 0x18B5 JUMP JUMPDEST SWAP1 PUSH20 0xFFFFFFFFFFFFFFFFFFFFFFFFFFFFFFFFFFFFFFFF AND PUSH32 0xFFFFFFFFFFFFFFFFFFFFFFFF0000000000000000000000000000000000000000 DUP3 SLOAD AND OR SWAP1 SSTORE JUMP JUMPDEST DUP5 PUSH2 0xC27 PUSH2 0xC02 PUSH2 0xB44 DUP5 DUP9 DUP9 PUSH2 0x18B5 JUMP JUMPDEST PUSH32 0xFFFFFFFF00000000000000000000000000000000000000000000000000000000 AND SWAP1 JUMP JUMPDEST PUSH32 0x14EBC1C32AA68F4D766E89F3E546CEE249F7DF25183FC10AB1568D91C2CE9B7B PUSH0 DUP1 LOG3 ADD PUSH2 0xB1F JUMP JUMPDEST PUSH1 0x64 PUSH1 0x40 MLOAD PUSH32 0x8C379A000000000000000000000000000000000000000000000000000000000 DUP2 MSTORE PUSH1 0x20 PUSH1 0x4 DUP3 ADD MSTORE PUSH1 0x20 PUSH1 0x24 DUP3 ADD MSTORE PUSH32 0x50726F78793A205F73656C6563746F727327732073697A65206973207A65726F PUSH1 0x44 DUP3 ADD MSTORE REVERT JUMPDEST CALLVALUE PUSH2 0x23E JUMPI PUSH1 0x20 PUSH32 0xFFFFFFFFFFFFFFFFFFFFFFFFFFFFFFFFFFFFFFFFFFFFFFFFFFFFFFFFFFFFFFFC CALLDATASIZE ADD SLT PUSH2 0x23E JUMPI PUSH32 0xFFFFFFFF00000000000000000000000000000000000000000000000000000000 PUSH1 0x4 CALLDATALOAD PUSH2 0xD0B DUP2 PUSH2 0x214 JUMP JUMPDEST AND PUSH0 MSTORE PUSH1 0x3 PUSH1 0x20 MSTORE PUSH1 0x20 PUSH20 0xFFFFFFFFFFFFFFFFFFFFFFFFFFFFFFFFFFFFFFFF PUSH1 0x40 PUSH0 KECCAK256 SLOAD AND PUSH1 0x40 MLOAD SWAP1 DUP2 MSTORE RETURN JUMPDEST CALLVALUE PUSH2 0x23E JUMPI PUSH1 0x20 PUSH32 0xFFFFFFFFFFFFFFFFFFFFFFFFFFFFFFFFFFFFFFFFFFFFFFFFFFFFFFFFFFFFFFFC CALLDATASIZE ADD SLT PUSH2 0x23E JUMPI PUSH20 0xFFFFFFFFFFFFFFFFFFFFFFFFFFFFFFFFFFFFFFFF PUSH2 0xD84 PUSH2 0x301 JUMP JUMPDEST AND PUSH0 MSTORE PUSH1 0x2 PUSH1 0x20 MSTORE PUSH1 0x20 PUSH1 0xFF PUSH1 0x40 PUSH0 KECCAK256 SLOAD AND PUSH1 0x40 MLOAD SWAP1 ISZERO ISZERO DUP2 MSTORE RETURN JUMPDEST CALLVALUE PUSH2 0x23E JUMPI PUSH0 PUSH32 0xFFFFFFFFFFFFFFFFFFFFFFFFFFFFFFFFFFFFFFFFFFFFFFFFFFFFFFFFFFFFFFFC CALLDATASIZE ADD SLT PUSH2 0x23E JUMPI PUSH0 DUP1 MSTORE PUSH1 0x1 PUSH1 0x20 MSTORE PUSH1 0x20 PUSH20 0xFFFFFFFFFFFFFFFFFFFFFFFFFFFFFFFFFFFFFFFF PUSH1 0x40 PUSH0 KECCAK256 SLOAD AND PUSH1 0x40 MLOAD SWAP1 DUP2 MSTORE RETURN JUMPDEST CALLVALUE PUSH2 0x23E JUMPI PUSH1 0x40 PUSH32 0xFFFFFFFFFFFFFFFFFFFFFFFFFFFFFFFFFFFFFFFFFFFFFFFFFFFFFFFFFFFFFFFC CALLDATASIZE ADD SLT PUSH2 0x23E JUMPI PUSH2 0xE32 PUSH2 0x301 JUMP JUMPDEST PUSH1 0x24 CALLDATALOAD DUP1 ISZERO ISZERO DUP2 SUB PUSH2 0x23E JUMPI CALLER PUSH0 SWAP1 DUP2 MSTORE PUSH32 0x2FB794D17134DFDEC181DDBAC1BABB5AB1EB140204EF4D982F294E7FC8B69022 PUSH1 0x20 MSTORE PUSH1 0x40 SWAP1 KECCAK256 PUSH2 0x4BF SWAP3 SWAP1 PUSH2 0xE7C SWAP1 PUSH1 0xFF SWAP1 PUSH2 0x844 JUMP JUMPDEST PUSH2 0x1E7E JUMP JUMPDEST CALLVALUE PUSH2 0x23E JUMPI PUSH0 PUSH32 0xFFFFFFFFFFFFFFFFFFFFFFFFFFFFFFFFFFFFFFFFFFFFFFFFFFFFFFFFFFFFFFFC CALLDATASIZE ADD SLT PUSH2 0x23E JUMPI PUSH1 0x20 PUSH1 0xFF PUSH0 SLOAD AND PUSH1 0x40 MLOAD SWAP1 ISZERO ISZERO DUP2 MSTORE RETURN JUMPDEST CALLVALUE PUSH2 0x23E JUMPI PUSH1 0x20 PUSH32 0xFFFFFFFFFFFFFFFFFFFFFFFFFFFFFFFFFFFFFFFFFFFFFFFFFFFFFFFFFFFFFFFC CALLDATASIZE ADD SLT PUSH2 0x23E JUMPI PUSH2 0x4BF PUSH2 0xEFA PUSH2 0x301 JUMP JUMPDEST CALLER PUSH0 SWAP1 DUP2 MSTORE PUSH32 0x2FB794D17134DFDEC181DDBAC1BABB5AB1EB140204EF4D982F294E7FC8B69022 PUSH1 0x20 MSTORE PUSH1 0x40 SWAP1 KECCAK256 PUSH32 0xDF8B4C520FFE197C5343C6F5AEC59570151EF9A492F2C624FD45DDDE6135EC42 SWAP1 PUSH2 0xF55 SWAP1 PUSH1 0xFF SWAP1 PUSH2 0x844 JUMP JUMPDEST PUSH0 MSTORE PUSH1 0x4 PUSH1 0x20 MSTORE PUSH2 0xF6C PUSH1 0x1 PUSH1 0x40 PUSH0 KECCAK256 ADD SLOAD PUSH2 0x1AB0 JUMP JUMPDEST PUSH2 0x1B26 JUMP JUMPDEST CALLVALUE PUSH2 0x23E JUMPI PUSH1 0x20 PUSH32 0xFFFFFFFFFFFFFFFFFFFFFFFFFFFFFFFFFFFFFFFFFFFFFFFFFFFFFFFFFFFFFFFC CALLDATASIZE ADD SLT PUSH2 0x23E JUMPI PUSH2 0xFA8 PUSH2 0x301 JUMP JUMPDEST CALLER PUSH0 SWAP1 DUP2 MSTORE PUSH32 0x2FB794D17134DFDEC181DDBAC1BABB5AB1EB140204EF4D982F294E7FC8B69022 PUSH1 0x20 MSTORE PUSH1 0x40 SWAP1 KECCAK256 PUSH2 0xFE1 SWAP1 PUSH1 0xFF SWAP1 PUSH2 0x844 JUMP JUMPDEST PUSH20 0xFFFFFFFFFFFFFFFFFFFFFFFFFFFFFFFFFFFFFFFF DUP2 AND DUP1 ISZERO PUSH2 0x1074 JUMPI CALLER EQ PUSH2 0x1016 JUMPI PUSH2 0x100D SWAP1 PUSH2 0x176A JUMP JUMPDEST PUSH2 0x4BF CALLER PUSH2 0x17C5 JUMP JUMPDEST PUSH1 0x64 PUSH1 0x40 MLOAD PUSH32 0x8C379A000000000000000000000000000000000000000000000000000000000 DUP2 MSTORE PUSH1 0x20 PUSH1 0x4 DUP3 ADD MSTORE PUSH1 0x16 PUSH1 0x24 DUP3 ADD MSTORE PUSH32 0x41636365737369626C653A2073616D652061646D696E00000000000000000000 PUSH1 0x44 DUP3 ADD MSTORE REVERT JUMPDEST PUSH1 0x64 PUSH1 0x40 MLOAD PUSH32 0x8C379A000000000000000000000000000000000000000000000000000000000 DUP2 MSTORE PUSH1 0x20 PUSH1 0x4 DUP3 ADD MSTORE PUSH1 0x18 PUSH1 0x24 DUP3 ADD MSTORE PUSH32 0x41636365737369626C653A207A65726F20616464726573730000000000000000 PUSH1 0x44 DUP3 ADD MSTORE REVERT JUMPDEST CALLVALUE PUSH2 0x23E JUMPI PUSH0 PUSH32 0xFFFFFFFFFFFFFFFFFFFFFFFFFFFFFFFFFFFFFFFFFFFFFFFFFFFFFFFFFFFFFFFC CALLDATASIZE ADD SLT PUSH2 0x23E JUMPI PUSH1 0x20 PUSH1 0x40 MLOAD PUSH32 0xDF8B4C520FFE197C5343C6F5AEC59570151EF9A492F2C624FD45DDDE6135EC42 DUP2 MSTORE RETURN JUMPDEST CALLVALUE PUSH2 0x23E JUMPI PUSH1 0x20 PUSH32 0xFFFFFFFFFFFFFFFFFFFFFFFFFFFFFFFFFFFFFFFFFFFFFFFFFFFFFFFFFFFFFFFC CALLDATASIZE ADD SLT PUSH2 0x23E JUMPI PUSH1 0x4 CALLDATALOAD DUP1 ISZERO ISZERO DUP1 SWAP2 SUB PUSH2 0x23E JUMPI CALLER PUSH0 SWAP1 DUP2 MSTORE PUSH32 0x2FB794D17134DFDEC181DDBAC1BABB5AB1EB140204EF4D982F294E7FC8B69022 PUSH1 0x20 MSTORE PUSH1 0x40 SWAP1 KECCAK256 PUSH2 0x119F SWAP1 PUSH1 0xFF SWAP1 PUSH2 0x844 JUMP JUMPDEST PUSH1 0xFF PUSH32 0xFFFFFFFFFFFFFFFFFFFFFFFFFFFFFFFFFFFFFFFFFFFFFFFFFFFFFFFFFFFFFF00 PUSH0 SLOAD AND SWAP2 AND OR PUSH0 SSTORE PUSH0 DUP1 RETURN JUMPDEST CALLVALUE PUSH2 0x23E JUMPI PUSH1 0x60 PUSH32 0xFFFFFFFFFFFFFFFFFFFFFFFFFFFFFFFFFFFFFFFFFFFFFFFFFFFFFFFFFFFFFFFC CALLDATASIZE ADD SLT PUSH2 0x23E JUMPI PUSH2 0x1205 PUSH2 0x301 JUMP JUMPDEST PUSH1 0x44 CALLDATALOAD DUP1 ISZERO ISZERO DUP2 SUB PUSH2 0x23E JUMPI CALLER PUSH0 SWAP1 DUP2 MSTORE PUSH32 0x2FB794D17134DFDEC181DDBAC1BABB5AB1EB140204EF4D982F294E7FC8B69022 PUSH1 0x20 MSTORE PUSH1 0x40 SWAP1 KECCAK256 PUSH2 0x124A SWAP1 PUSH1 0xFF SWAP1 PUSH2 0x844 JUMP JUMPDEST DUP2 EXTCODESIZE ISZERO PUSH2 0x12AD JUMPI PUSH2 0x4BF SWAP2 DUP2 ISZERO PUSH2 0x1E7E JUMPI PUSH1 0x24 CALLDATALOAD PUSH0 MSTORE PUSH1 0x1 PUSH1 0x20 MSTORE PUSH2 0xE7C DUP2 PUSH1 0x40 PUSH0 KECCAK256 SWAP1 PUSH20 0xFFFFFFFFFFFFFFFFFFFFFFFFFFFFFFFFFFFFFFFF AND PUSH32 0xFFFFFFFFFFFFFFFFFFFFFFFF0000000000000000000000000000000000000000 DUP3 SLOAD AND OR SWAP1 SSTORE JUMP JUMPDEST PUSH1 0x64 PUSH1 0x40 MLOAD PUSH32 0x8C379A000000000000000000000000000000000000000000000000000000000 DUP2 MSTORE PUSH1 0x20 PUSH1 0x4 DUP3 ADD MSTORE PUSH1 0x1B PUSH1 0x24 DUP3 ADD MSTORE PUSH32 0x50726F78793A206E6F7420636F6E747261637420616464726573730000000000 PUSH1 0x44 DUP3 ADD MSTORE REVERT JUMPDEST CALLVALUE PUSH2 0x23E JUMPI PUSH1 0x20 PUSH32 0xFFFFFFFFFFFFFFFFFFFFFFFFFFFFFFFFFFFFFFFFFFFFFFFFFFFFFFFFFFFFFFFC CALLDATASIZE ADD SLT PUSH2 0x23E JUMPI PUSH1 0x4 CALLDATALOAD PUSH0 MSTORE PUSH1 0x1 PUSH1 0x20 MSTORE PUSH1 0x20 PUSH20 0xFFFFFFFFFFFFFFFFFFFFFFFFFFFFFFFFFFFFFFFF PUSH1 0x40 PUSH0 KECCAK256 SLOAD AND PUSH1 0x40 MLOAD SWAP1 DUP2 MSTORE RETURN JUMPDEST CALLVALUE PUSH2 0x23E JUMPI PUSH1 0x20 PUSH32 0xFFFFFFFFFFFFFFFFFFFFFFFFFFFFFFFFFFFFFFFFFFFFFFFFFFFFFFFFFFFFFFFC CALLDATASIZE ADD SLT PUSH2 0x23E JUMPI PUSH1 0x20 PUSH2 0x13AE PUSH1 0x4 CALLDATALOAD PUSH2 0x13A9 DUP2 PUSH2 0x214 JUMP JUMPDEST PUSH2 0x1964 JUMP JUMPDEST PUSH20 0xFFFFFFFFFFFFFFFFFFFFFFFFFFFFFFFFFFFFFFFF PUSH1 0x40 MLOAD SWAP2 AND DUP2 MSTORE RETURN JUMPDEST CALLVALUE PUSH2 0x23E JUMPI PUSH1 0x40 PUSH32 0xFFFFFFFFFFFFFFFFFFFFFFFFFFFFFFFFFFFFFFFFFFFFFFFFFFFFFFFFFFFFFFFC CALLDATASIZE ADD SLT PUSH2 0x23E JUMPI PUSH1 0x20 PUSH1 0xFF PUSH2 0x6E7 PUSH2 0x140A PUSH2 0x324 JUMP JUMPDEST PUSH1 0x4 CALLDATALOAD PUSH0 MSTORE PUSH1 0x4 DUP5 MSTORE PUSH1 0x40 PUSH0 KECCAK256 SWAP1 PUSH20 0xFFFFFFFFFFFFFFFFFFFFFFFFFFFFFFFFFFFFFFFF AND PUSH0 MSTORE PUSH1 0x20 MSTORE PUSH1 0x40 PUSH0 KECCAK256 SWAP1 JUMP JUMPDEST CALLVALUE PUSH2 0x23E JUMPI PUSH0 PUSH32 0xFFFFFFFFFFFFFFFFFFFFFFFFFFFFFFFFFFFFFFFFFFFFFFFFFFFFFFFFFFFFFFFC CALLDATASIZE ADD SLT PUSH2 0x23E JUMPI PUSH1 0x20 PUSH1 0x7 SLOAD PUSH1 0x40 MLOAD SWAP1 DUP2 MSTORE RETURN JUMPDEST CALLVALUE PUSH2 0x23E JUMPI PUSH0 PUSH32 0xFFFFFFFFFFFFFFFFFFFFFFFFFFFFFFFFFFFFFFFFFFFFFFFFFFFFFFFFFFFFFFFC CALLDATASIZE ADD SLT PUSH2 0x23E JUMPI PUSH1 0x20 PUSH1 0x40 MLOAD PUSH0 DUP2 MSTORE RETURN JUMPDEST CALLVALUE PUSH2 0x23E JUMPI PUSH1 0x40 PUSH32 0xFFFFFFFFFFFFFFFFFFFFFFFFFFFFFFFFFFFFFFFFFFFFFFFFFFFFFFFFFFFFFFFC CALLDATASIZE ADD SLT PUSH2 0x23E JUMPI PUSH2 0x4BF PUSH1 0x4 CALLDATALOAD PUSH2 0x14EA PUSH2 0x324 JUMP JUMPDEST SWAP1 DUP1 PUSH0 MSTORE PUSH1 0x4 PUSH1 0x20 MSTORE PUSH2 0x1503 PUSH1 0x1 PUSH1 0x40 PUSH0 KECCAK256 ADD SLOAD PUSH2 0x1AB0 JUMP JUMPDEST PUSH2 0x1D79 JUMP JUMPDEST CALLVALUE PUSH2 0x23E JUMPI PUSH1 0x20 PUSH32 0xFFFFFFFFFFFFFFFFFFFFFFFFFFFFFFFFFFFFFFFFFFFFFFFFFFFFFFFFFFFFFFFC CALLDATASIZE ADD SLT PUSH2 0x23E JUMPI PUSH1 0x4 CALLDATALOAD PUSH0 MSTORE PUSH1 0xA PUSH1 0x20 MSTORE PUSH1 0x40 DUP1 PUSH0 KECCAK256 PUSH20 0xFFFFFFFFFFFFFFFFFFFFFFFFFFFFFFFFFFFFFFFF PUSH1 0x1 DUP2 DUP4 SLOAD AND SWAP3 ADD SLOAD AND DUP3 MLOAD SWAP2 DUP3 MSTORE PUSH1 0x20 DUP3 ADD MSTORE RETURN JUMPDEST CALLVALUE PUSH2 0x23E JUMPI PUSH0 PUSH32 0xFFFFFFFFFFFFFFFFFFFFFFFFFFFFFFFFFFFFFFFFFFFFFFFFFFFFFFFFFFFFFFFC CALLDATASIZE ADD SLT PUSH2 0x23E JUMPI PUSH1 0x20 PUSH20 0xFFFFFFFFFFFFFFFFFFFFFFFFFFFFFFFFFFFFFFFF PUSH1 0x5 SLOAD AND PUSH1 0x40 MLOAD SWAP1 DUP2 MSTORE RETURN JUMPDEST CALLVALUE PUSH2 0x23E JUMPI PUSH1 0x20 PUSH32 0xFFFFFFFFFFFFFFFFFFFFFFFFFFFFFFFFFFFFFFFFFFFFFFFFFFFFFFFFFFFFFFFC CALLDATASIZE ADD SLT PUSH2 0x23E JUMPI PUSH1 0x4 CALLDATALOAD PUSH0 MSTORE PUSH1 0x8 PUSH1 0x20 MSTORE PUSH1 0x40 PUSH0 KECCAK256 PUSH20 0xFFFFFFFFFFFFFFFFFFFFFFFFFFFFFFFFFFFFFFFF PUSH2 0x16DB DUP2 DUP4 SLOAD AND SWAP2 DUP1 PUSH1 0x1 DUP6 ADD SLOAD AND SWAP4 DUP2 PUSH1 0x2 DUP3 ADD SLOAD AND SWAP2 PUSH1 0x3 DUP3 ADD SLOAD AND PUSH2 0x1653 PUSH1 0x4 DUP4 ADD SLOAD PUSH20 0xFFFFFFFFFFFFFFFFFFFFFFFFFFFFFFFFFFFFFFFF AND SWAP1 JUMP JUMPDEST PUSH1 0x5 DUP4 ADD SLOAD PUSH1 0x6 DUP5 ADD SLOAD SWAP2 PUSH1 0x7 DUP6 ADD SLOAD SWAP4 PUSH1 0x9 PUSH1 0x8 DUP8 ADD SLOAD SWAP7 ADD SLOAD SWAP7 PUSH1 0x40 MLOAD SWAP11 DUP12 SWAP11 DUP12 SWAP7 SWAP4 SWAP2 PUSH2 0x120 SWAP9 SWAP6 SWAP2 SWAP12 SWAP11 SWAP10 SWAP7 SWAP4 SWAP3 PUSH2 0x140 DUP10 ADD SWAP13 PUSH20 0xFFFFFFFFFFFFFFFFFFFFFFFFFFFFFFFFFFFFFFFF SWAP5 DUP6 DUP1 SWAP5 DUP2 DUP1 SWAP5 AND DUP14 MSTORE AND PUSH1 0x20 DUP13 ADD MSTORE AND PUSH1 0x40 DUP11 ADD MSTORE AND PUSH1 0x60 DUP9 ADD MSTORE AND PUSH1 0x80 DUP7 ADD MSTORE PUSH1 0xA0 DUP6 ADD MSTORE PUSH1 0xC0 DUP5 ADD MSTORE PUSH1 0xE0 DUP4 ADD MSTORE PUSH2 0x100 DUP3 ADD MSTORE ADD MSTORE JUMP JUMPDEST SUB SWAP1 RETURN JUMPDEST ISZERO PUSH2 0x16E6 JUMPI JUMP JUMPDEST PUSH1 0x84 PUSH1 0x40 MLOAD PUSH32 0x8C379A000000000000000000000000000000000000000000000000000000000 DUP2 MSTORE PUSH1 0x20 PUSH1 0x4 DUP3 ADD MSTORE PUSH1 0x22 PUSH1 0x24 DUP3 ADD MSTORE PUSH32 0x41636365737369626C653A2043616C6C6572206973206E6F7420616E2061646D PUSH1 0x44 DUP3 ADD MSTORE PUSH32 0x696E000000000000000000000000000000000000000000000000000000000000 PUSH1 0x64 DUP3 ADD MSTORE REVERT JUMPDEST PUSH32 0xDF8B4C520FFE197C5343C6F5AEC59570151EF9A492F2C624FD45DDDE6135EC42 PUSH0 MSTORE PUSH1 0x4 PUSH1 0x20 MSTORE PUSH32 0x2FB794D17134DFDEC181DDBAC1BABB5AB1EB140204EF4D982F294E7FC8B69023 SLOAD PUSH2 0x17C2 SWAP2 SWAP1 PUSH2 0xF6C SWAP1 PUSH2 0x1AB0 JUMP JUMPDEST POP JUMP JUMPDEST CALLER PUSH20 0xFFFFFFFFFFFFFFFFFFFFFFFFFFFFFFFFFFFFFFFF DUP3 AND SUB PUSH2 0x7AE JUMPI PUSH2 0x17C2 SWAP1 PUSH2 0x1C6E JUMP JUMPDEST ISZERO PUSH2 0x17F2 JUMPI JUMP JUMPDEST PUSH1 0x64 PUSH1 0x40 MLOAD PUSH32 0x8C379A000000000000000000000000000000000000000000000000000000000 DUP2 MSTORE PUSH1 0x20 PUSH1 0x4 DUP3 ADD MSTORE PUSH1 0x9 PUSH1 0x24 DUP3 ADD MSTORE PUSH32 0x73616D6520616464720000000000000000000000000000000000000000000000 PUSH1 0x44 DUP3 ADD MSTORE REVERT JUMPDEST ISZERO PUSH2 0x1857 JUMPI JUMP JUMPDEST PUSH1 0x64 PUSH1 0x40 MLOAD PUSH32 0x8C379A000000000000000000000000000000000000000000000000000000000 DUP2 MSTORE PUSH1 0x20 PUSH1 0x4 DUP3 ADD MSTORE PUSH1 0x18 PUSH1 0x24 DUP3 ADD MSTORE PUSH32 0x50726F78793A205F696D70206973206E6F7420616C6976650000000000000000 PUSH1 0x44 DUP3 ADD MSTORE REVERT JUMPDEST SWAP2 SWAP1 DUP2 LT ISZERO PUSH2 0x18C5 JUMPI PUSH1 0x5 SHL ADD SWAP1 JUMP JUMPDEST PUSH32 0x4E487B7100000000000000000000000000000000000000000000000000000000 PUSH0 MSTORE PUSH1 0x32 PUSH1 0x4 MSTORE PUSH1 0x24 PUSH0 REVERT JUMPDEST CALLDATALOAD PUSH2 0x18FC DUP2 PUSH2 0x214 JUMP JUMPDEST SWAP1 JUMP JUMPDEST ISZERO PUSH2 0x1906 JUMPI JUMP JUMPDEST PUSH1 0x64 PUSH1 0x40 MLOAD PUSH32 0x8C379A000000000000000000000000000000000000000000000000000000000 DUP2 MSTORE PUSH1 0x20 PUSH1 0x4 DUP3 ADD MSTORE PUSH1 0x1D PUSH1 0x24 DUP3 ADD MSTORE PUSH32 0x4C69717569646974795661756C7450726F78793A2073616D6520696D70000000 PUSH1 0x44 DUP3 ADD MSTORE REVERT JUMPDEST PUSH32 0xFFFFFFFF00000000000000000000000000000000000000000000000000000000 DUP2 AND PUSH0 MSTORE PUSH1 0x3 PUSH1 0x20 MSTORE PUSH20 0xFFFFFFFFFFFFFFFFFFFFFFFFFFFFFFFFFFFFFFFF SWAP1 DUP2 PUSH1 0x40 PUSH0 KECCAK256 SLOAD AND ISZERO PUSH0 EQ PUSH2 0x19E6 JUMPI POP PUSH0 DUP1 MSTORE PUSH1 0x1 PUSH1 0x20 MSTORE PUSH32 0xA6EEF7E35ABE7026729641147F7915573C7E97B47EFA546F5F6E3230263BCB49 SLOAD AND SWAP1 JUMP JUMPDEST SLOAD AND SWAP1 JUMP JUMPDEST PUSH1 0xFF PUSH2 0x1A46 DUP4 PUSH2 0x1A20 DUP5 PUSH32 0xFFFFFFFF00000000000000000000000000000000000000000000000000000000 AND PUSH0 MSTORE PUSH1 0x3 PUSH1 0x20 MSTORE PUSH1 0x40 PUSH0 KECCAK256 SWAP1 JUMP JUMPDEST SLOAD AND PUSH20 0xFFFFFFFFFFFFFFFFFFFFFFFFFFFFFFFFFFFFFFFF AND PUSH0 MSTORE PUSH1 0x2 PUSH1 0x20 MSTORE PUSH1 0x40 PUSH0 KECCAK256 SWAP1 JUMP JUMPDEST SLOAD AND ISZERO PUSH2 0x1A81 JUMPI PUSH2 0x19E1 SWAP1 PUSH32 0xFFFFFFFF00000000000000000000000000000000000000000000000000000000 AND PUSH0 MSTORE PUSH1 0x3 PUSH1 0x20 MSTORE PUSH1 0x40 PUSH0 KECCAK256 SWAP1 JUMP JUMPDEST POP PUSH0 DUP1 MSTORE PUSH1 0x1 PUSH1 0x20 MSTORE PUSH32 0xA6EEF7E35ABE7026729641147F7915573C7E97B47EFA546F5F6E3230263BCB49 SLOAD AND SWAP1 JUMP JUMPDEST DUP1 PUSH0 MSTORE PUSH1 0x4 PUSH1 0x20 MSTORE PUSH1 0xFF PUSH2 0x1AE5 CALLER PUSH1 0x40 PUSH0 KECCAK256 SWAP1 PUSH20 0xFFFFFFFFFFFFFFFFFFFFFFFFFFFFFFFFFFFFFFFF AND PUSH0 MSTORE PUSH1 0x20 MSTORE PUSH1 0x40 PUSH0 KECCAK256 SWAP1 JUMP JUMPDEST SLOAD AND ISZERO PUSH2 0x1AEF JUMPI POP JUMP JUMPDEST PUSH1 0x44 SWAP1 PUSH1 0x40 MLOAD SWAP1 PUSH32 0xE2517D3F00000000000000000000000000000000000000000000000000000000 DUP3 MSTORE CALLER PUSH1 0x4 DUP4 ADD MSTORE PUSH1 0x24 DUP3 ADD MSTORE REVERT JUMPDEST PUSH20 0xFFFFFFFFFFFFFFFFFFFFFFFFFFFFFFFFFFFFFFFF DUP2 AND PUSH0 SWAP1 DUP2 MSTORE PUSH32 0x2FB794D17134DFDEC181DDBAC1BABB5AB1EB140204EF4D982F294E7FC8B69022 PUSH1 0x20 MSTORE PUSH1 0x40 SWAP1 KECCAK256 PUSH32 0xDF8B4C520FFE197C5343C6F5AEC59570151EF9A492F2C624FD45DDDE6135EC42 SWAP1 PUSH1 0xFF SWAP1 JUMPDEST SLOAD AND PUSH2 0x1C33 JUMPI DUP1 PUSH0 MSTORE PUSH1 0x4 PUSH1 0x20 MSTORE PUSH2 0x1BC8 DUP3 PUSH1 0x40 PUSH0 KECCAK256 SWAP1 PUSH20 0xFFFFFFFFFFFFFFFFFFFFFFFFFFFFFFFFFFFFFFFF AND PUSH0 MSTORE PUSH1 0x20 MSTORE PUSH1 0x40 PUSH0 KECCAK256 SWAP1 JUMP JUMPDEST PUSH1 0x1 PUSH32 0xFFFFFFFFFFFFFFFFFFFFFFFFFFFFFFFFFFFFFFFFFFFFFFFFFFFFFFFFFFFFFF00 DUP3 SLOAD AND OR SWAP1 SSTORE PUSH20 0xFFFFFFFFFFFFFFFFFFFFFFFFFFFFFFFFFFFFFFFF CALLER SWAP3 AND SWAP1 PUSH32 0x2F8788117E7EFF1D82E926EC794901D17C78024A50270940304540A733656F0D PUSH0 DUP1 LOG4 PUSH1 0x1 SWAP1 JUMP JUMPDEST POP POP PUSH0 SWAP1 JUMP JUMPDEST DUP1 PUSH0 MSTORE PUSH1 0x4 PUSH1 0x20 MSTORE PUSH1 0xFF PUSH2 0x1B8F DUP4 PUSH1 0x40 PUSH0 KECCAK256 SWAP1 PUSH20 0xFFFFFFFFFFFFFFFFFFFFFFFFFFFFFFFFFFFFFFFF AND PUSH0 MSTORE PUSH1 0x20 MSTORE PUSH1 0x40 PUSH0 KECCAK256 SWAP1 JUMP JUMPDEST PUSH20 0xFFFFFFFFFFFFFFFFFFFFFFFFFFFFFFFFFFFFFFFF DUP2 AND PUSH0 SWAP1 DUP2 MSTORE PUSH32 0x2FB794D17134DFDEC181DDBAC1BABB5AB1EB140204EF4D982F294E7FC8B69022 PUSH1 0x20 MSTORE PUSH1 0x40 SWAP1 KECCAK256 PUSH32 0xDF8B4C520FFE197C5343C6F5AEC59570151EF9A492F2C624FD45DDDE6135EC42 SWAP1 PUSH1 0xFF SWAP1 JUMPDEST SLOAD AND ISZERO PUSH2 0x1C33 JUMPI DUP1 PUSH0 MSTORE PUSH1 0x4 PUSH1 0x20 MSTORE PUSH2 0x1D11 DUP3 PUSH1 0x40 PUSH0 KECCAK256 SWAP1 PUSH20 0xFFFFFFFFFFFFFFFFFFFFFFFFFFFFFFFFFFFFFFFF AND PUSH0 MSTORE PUSH1 0x20 MSTORE PUSH1 0x40 PUSH0 KECCAK256 SWAP1 JUMP JUMPDEST PUSH32 0xFFFFFFFFFFFFFFFFFFFFFFFFFFFFFFFFFFFFFFFFFFFFFFFFFFFFFFFFFFFFFF00 DUP2 SLOAD AND SWAP1 SSTORE PUSH20 0xFFFFFFFFFFFFFFFFFFFFFFFFFFFFFFFFFFFFFFFF CALLER SWAP3 AND SWAP1 PUSH32 0xF6391F5C32D9C69D2A47EA670B442974B53935D1EDC7FD64EB21E047A839171B PUSH0 DUP1 LOG4 PUSH1 0x1 SWAP1 JUMP JUMPDEST DUP1 PUSH0 MSTORE PUSH1 0x4 PUSH1 0x20 MSTORE PUSH1 0xFF PUSH2 0x1CD7 DUP4 PUSH1 0x40 PUSH0 KECCAK256 SWAP1 PUSH20 0xFFFFFFFFFFFFFFFFFFFFFFFFFFFFFFFFFFFFFFFF AND PUSH0 MSTORE PUSH1 0x20 MSTORE PUSH1 0x40 PUSH0 KECCAK256 SWAP1 JUMP JUMPDEST DUP1 EXTCODESIZE ISZERO PUSH2 0x12AD JUMPI PUSH20 0xFFFFFFFFFFFFFFFFFFFFFFFFFFFFFFFFFFFFFFFF SWAP1 PUSH0 DUP1 MSTORE PUSH1 0x1 PUSH1 0x20 MSTORE PUSH2 0x1E1B DUP2 PUSH1 0x40 PUSH0 KECCAK256 SWAP1 PUSH20 0xFFFFFFFFFFFFFFFFFFFFFFFFFFFFFFFFFFFFFFFF AND PUSH32 0xFFFFFFFFFFFFFFFFFFFFFFFF0000000000000000000000000000000000000000 DUP3 SLOAD AND OR SWAP1 SSTORE JUMP JUMPDEST AND DUP1 PUSH0 MSTORE PUSH1 0x2 PUSH1 0x20 MSTORE PUSH1 0x40 PUSH0 KECCAK256 PUSH1 0x1 PUSH32 0xFFFFFFFFFFFFFFFFFFFFFFFFFFFFFFFFFFFFFFFFFFFFFFFFFFFFFFFFFFFFFF00 DUP3 SLOAD AND OR SWAP1 SSTORE PUSH32 0x72558D9BFBA4210F9EF095C782589484151F6D90F7A81BB3CB9B33EFC695D324 PUSH1 0x20 PUSH1 0x40 MLOAD PUSH1 0x1 DUP2 MSTORE LOG2 JUMP JUMPDEST PUSH1 0x20 PUSH20 0xFFFFFFFFFFFFFFFFFFFFFFFFFFFFFFFFFFFFFFFF PUSH32 0x72558D9BFBA4210F9EF095C782589484151F6D90F7A81BB3CB9B33EFC695D324 SWAP3 AND SWAP3 DUP4 PUSH0 MSTORE PUSH1 0x2 DUP3 MSTORE PUSH1 0x40 PUSH0 KECCAK256 SWAP1 ISZERO ISZERO SWAP1 PUSH32 0xFFFFFFFFFFFFFFFFFFFFFFFFFFFFFFFFFFFFFFFFFFFFFFFFFFFFFFFFFFFFFF00 DUP2 SLOAD AND PUSH1 0xFF DUP4 AND OR SWAP1 SSTORE PUSH1 0x40 MLOAD SWAP1 DUP2 MSTORE LOG2 JUMP JUMPDEST PUSH2 0x1F28 PUSH32 0xFFFFFFFF00000000000000000000000000000000000000000000000000000000 PUSH0 CALLDATALOAD AND PUSH2 0x1964 JUMP JUMPDEST PUSH20 0xFFFFFFFFFFFFFFFFFFFFFFFFFFFFFFFFFFFFFFFF DUP2 AND ISZERO ISZERO DUP1 PUSH2 0x1FC7 JUMPI JUMPDEST ISZERO PUSH2 0x1F69 JUMPI PUSH0 DUP1 SWAP2 CALLDATASIZE DUP3 DUP1 CALLDATACOPY DUP2 CALLDATASIZE SWAP2 GAS DELEGATECALL RETURNDATASIZE PUSH0 DUP1 RETURNDATACOPY ISZERO PUSH2 0x1F65 JUMPI RETURNDATASIZE PUSH0 RETURN JUMPDEST RETURNDATASIZE PUSH0 REVERT JUMPDEST PUSH1 0x64 PUSH1 0x40 MLOAD PUSH32 0x8C379A000000000000000000000000000000000000000000000000000000000 DUP2 MSTORE PUSH1 0x20 PUSH1 0x4 DUP3 ADD MSTORE PUSH1 0x1D PUSH1 0x24 DUP3 ADD MSTORE PUSH32 0x50726F78793A20696D706C204F522070726F78792069732066616C7365000000 PUSH1 0x44 DUP3 ADD MSTORE REVERT JUMPDEST POP PUSH1 0xFF PUSH0 SLOAD AND ISZERO PUSH2 0x1F47 JUMP INVALID LOG2 PUSH5 0x6970667358 0x22 SLT KECCAK256 DUP3 BALANCE REVERT SWAP9 MLOAD 0xE4 0xC4 0xC4 SELFDESTRUCT 0xC PREVRANDAO PC 0xD3 DUP4 0x24 PUSH18 0xDC0C8F277938349C743A48C0721E8326473 PUSH16 0x6C63430008180033DF8B4C520FFE197C MSTORE8 NUMBER 0xC6 CREATE2 0xAE 0xC5 SWAP6 PUSH17 0x151EF9A492F2C624FD45DDDE6135EC4200 "
				},
				"gasEstimates": {
					"creation": {
						"codeDepositCost": "1640200",
						"executionCost": "infinite",
						"totalCost": "infinite"
					},
					"external": {
						"": "infinite",
						"ADMIN_ROLE()": "572",
						"DEFAULT_ADMIN_ROLE()": "725",
						"POLICY_ROLE()": "242",
						"addAdmin(address)": "35769",
						"aliveImplementation(address)": "2681",
						"chainData(uint256)": "5099",
						"crossDomainMessenger()": "2923",
						"dealData(uint256)": "22290",
						"getRoleAdmin(bytes32)": "2438",
						"getSelectorImplementation2(bytes4)": "9539",
						"grantRole(bytes32,address)": "33383",
						"hasRole(bytes32,address)": "3005",
						"implementation()": "2632",
						"implementation2(uint256)": "2812",
						"initialize(address,address)": "51163",
						"isAdmin(address)": "2606",
						"legacyERC20ETH()": "2307",
						"pauseProxy()": "2620",
						"proxyImplementation(uint256)": "2922",
						"removeAdmin(address)": "31030",
						"renounceRole(bytes32,address)": "28963",
						"revokeRole(bytes32,address)": "33842",
						"saleCount()": "2807",
						"selectorImplementation(bytes4)": "2650",
						"setAliveImplementation2(address,bool)": "28540",
						"setChainInfo(address,address,uint256)": "51202",
						"setImplementation2(address,uint256,bool)": "55613",
						"setProxyPause(bool)": "27069",
						"setSelectorImplementations2(bytes4[],address)": "infinite",
						"supportsInterface(bytes4)": "284",
						"transferAdmin(address)": "infinite",
						"upgradeTo(address)": "58683"
					}
				},
				"methodIdentifiers": {
					"ADMIN_ROLE()": "75b238fc",
					"DEFAULT_ADMIN_ROLE()": "a217fddf",
					"POLICY_ROLE()": "22985246",
					"addAdmin(address)": "70480275",
					"aliveImplementation(address)": "550d01a3",
					"chainData(uint256)": "e59f69c2",
					"crossDomainMessenger()": "f43b3613",
					"dealData(uint256)": "f5869c2f",
					"getRoleAdmin(bytes32)": "248a9ca3",
					"getSelectorImplementation2(bytes4)": "8d4fdb40",
					"grantRole(bytes32,address)": "2f2ff15d",
					"hasRole(bytes32,address)": "91d14854",
					"implementation()": "5c60da1b",
					"implementation2(uint256)": "8b8f4a65",
					"initialize(address,address)": "485cc955",
					"isAdmin(address)": "24d7806c",
					"legacyERC20ETH()": "16e01724",
					"pauseProxy()": "63a8fd89",
					"proxyImplementation(uint256)": "b911135f",
					"removeAdmin(address)": "1785f53c",
					"renounceRole(bytes32,address)": "36568abe",
					"revokeRole(bytes32,address)": "d547741f",
					"saleCount()": "a1e89aec",
					"selectorImplementation(bytes4)": "50d2a276",
					"setAliveImplementation2(address,bool)": "5cc797d8",
					"setChainInfo(address,address,uint256)": "1230b14c",
					"setImplementation2(address,uint256,bool)": "7cd5f663",
					"setProxyPause(bool)": "7cb00d25",
					"setSelectorImplementations2(bytes4[],address)": "4a5df50f",
					"supportsInterface(bytes4)": "01ffc9a7",
					"transferAdmin(address)": "75829def",
					"upgradeTo(address)": "3659cfe6"
				}
			},
			"storageLayout": {
				"storage": [
					{
						"astId": 1102,
						"contract": "contracts/L2/L2toL2CrossTradeProxy.sol:L2toL2CrossTradeProxy",
						"label": "pauseProxy",
						"offset": 0,
						"slot": "0",
						"type": "t_bool"
					},
					{
						"astId": 1106,
						"contract": "contracts/L2/L2toL2CrossTradeProxy.sol:L2toL2CrossTradeProxy",
						"label": "proxyImplementation",
						"offset": 0,
						"slot": "1",
						"type": "t_mapping(t_uint256,t_address)"
					},
					{
						"astId": 1110,
						"contract": "contracts/L2/L2toL2CrossTradeProxy.sol:L2toL2CrossTradeProxy",
						"label": "aliveImplementation",
						"offset": 0,
						"slot": "2",
						"type": "t_mapping(t_address,t_bool)"
					},
					{
						"astId": 1114,
						"contract": "contracts/L2/L2toL2CrossTradeProxy.sol:L2toL2CrossTradeProxy",
						"label": "selectorImplementation",
						"offset": 0,
						"slot": "3",
						"type": "t_mapping(t_bytes4,t_address)"
					},
					{
						"astId": 26,
						"contract": "contracts/L2/L2toL2CrossTradeProxy.sol:L2toL2CrossTradeProxy",
						"label": "_roles",
						"offset": 0,
						"slot": "4",
						"type": "t_mapping(t_bytes32,t_struct(RoleData)21_storage)"
					},
					{
						"astId": 526,
						"contract": "contracts/L2/L2toL2CrossTradeProxy.sol:L2toL2CrossTradeProxy",
						"label": "crossDomainMessenger",
						"offset": 0,
						"slot": "5",
						"type": "t_address"
					},
					{
						"astId": 528,
						"contract": "contracts/L2/L2toL2CrossTradeProxy.sol:L2toL2CrossTradeProxy",
						"label": "legacyERC20ETH",
						"offset": 0,
						"slot": "6",
						"type": "t_address"
					},
					{
						"astId": 530,
						"contract": "contracts/L2/L2toL2CrossTradeProxy.sol:L2toL2CrossTradeProxy",
						"label": "saleCount",
						"offset": 0,
						"slot": "7",
						"type": "t_uint256"
					},
					{
						"astId": 535,
						"contract": "contracts/L2/L2toL2CrossTradeProxy.sol:L2toL2CrossTradeProxy",
						"label": "dealData",
						"offset": 0,
						"slot": "8",
						"type": "t_mapping(t_uint256,t_struct(RequestData)519_storage)"
					},
					{
						"astId": 539,
						"contract": "contracts/L2/L2toL2CrossTradeProxy.sol:L2toL2CrossTradeProxy",
						"label": "registerCheck",
						"offset": 0,
						"slot": "9",
						"type": "t_mapping(t_bytes32,t_bool)"
					},
					{
						"astId": 544,
						"contract": "contracts/L2/L2toL2CrossTradeProxy.sol:L2toL2CrossTradeProxy",
						"label": "chainData",
						"offset": 0,
						"slot": "10",
						"type": "t_mapping(t_uint256,t_struct(ChainIdData)524_storage)"
					}
				],
				"types": {
					"t_address": {
						"encoding": "inplace",
						"label": "address",
						"numberOfBytes": "20"
					},
					"t_bool": {
						"encoding": "inplace",
						"label": "bool",
						"numberOfBytes": "1"
					},
					"t_bytes32": {
						"encoding": "inplace",
						"label": "bytes32",
						"numberOfBytes": "32"
					},
					"t_bytes4": {
						"encoding": "inplace",
						"label": "bytes4",
						"numberOfBytes": "4"
					},
					"t_mapping(t_address,t_bool)": {
						"encoding": "mapping",
						"key": "t_address",
						"label": "mapping(address => bool)",
						"numberOfBytes": "32",
						"value": "t_bool"
					},
					"t_mapping(t_bytes32,t_bool)": {
						"encoding": "mapping",
						"key": "t_bytes32",
						"label": "mapping(bytes32 => bool)",
						"numberOfBytes": "32",
						"value": "t_bool"
					},
					"t_mapping(t_bytes32,t_struct(RoleData)21_storage)": {
						"encoding": "mapping",
						"key": "t_bytes32",
						"label": "mapping(bytes32 => struct AccessControl.RoleData)",
						"numberOfBytes": "32",
						"value": "t_struct(RoleData)21_storage"
					},
					"t_mapping(t_bytes4,t_address)": {
						"encoding": "mapping",
						"key": "t_bytes4",
						"label": "mapping(bytes4 => address)",
						"numberOfBytes": "32",
						"value": "t_address"
					},
					"t_mapping(t_uint256,t_address)": {
						"encoding": "mapping",
						"key": "t_uint256",
						"label": "mapping(uint256 => address)",
						"numberOfBytes": "32",
						"value": "t_address"
					},
					"t_mapping(t_uint256,t_struct(ChainIdData)524_storage)": {
						"encoding": "mapping",
						"key": "t_uint256",
						"label": "mapping(uint256 => struct L2toL2CrossTradeStorage.ChainIdData)",
						"numberOfBytes": "32",
						"value": "t_struct(ChainIdData)524_storage"
					},
					"t_mapping(t_uint256,t_struct(RequestData)519_storage)": {
						"encoding": "mapping",
						"key": "t_uint256",
						"label": "mapping(uint256 => struct L2toL2CrossTradeStorage.RequestData)",
						"numberOfBytes": "32",
						"value": "t_struct(RequestData)519_storage"
					},
					"t_struct(ChainIdData)524_storage": {
						"encoding": "inplace",
						"label": "struct L2toL2CrossTradeStorage.ChainIdData",
						"members": [
							{
								"astId": 521,
								"contract": "contracts/L2/L2toL2CrossTradeProxy.sol:L2toL2CrossTradeProxy",
								"label": "l1CrossTradeContract",
								"offset": 0,
								"slot": "0",
								"type": "t_address"
							},
							{
								"astId": 523,
								"contract": "contracts/L2/L2toL2CrossTradeProxy.sol:L2toL2CrossTradeProxy",
								"label": "l1TON",
								"offset": 0,
								"slot": "1",
								"type": "t_address"
							}
						],
						"numberOfBytes": "64"
					},
					"t_struct(RequestData)519_storage": {
						"encoding": "inplace",
						"label": "struct L2toL2CrossTradeStorage.RequestData",
						"members": [
							{
								"astId": 500,
								"contract": "contracts/L2/L2toL2CrossTradeProxy.sol:L2toL2CrossTradeProxy",
								"label": "l1token",
								"offset": 0,
								"slot": "0",
								"type": "t_address"
							},
							{
								"astId": 502,
								"contract": "contracts/L2/L2toL2CrossTradeProxy.sol:L2toL2CrossTradeProxy",
								"label": "l2SourceToken",
								"offset": 0,
								"slot": "1",
								"type": "t_address"
							},
							{
								"astId": 504,
								"contract": "contracts/L2/L2toL2CrossTradeProxy.sol:L2toL2CrossTradeProxy",
								"label": "l2TargetToken",
								"offset": 0,
								"slot": "2",
								"type": "t_address"
							},
							{
								"astId": 506,
								"contract": "contracts/L2/L2toL2CrossTradeProxy.sol:L2toL2CrossTradeProxy",
								"label": "requester",
								"offset": 0,
								"slot": "3",
								"type": "t_address"
							},
							{
								"astId": 508,
								"contract": "contracts/L2/L2toL2CrossTradeProxy.sol:L2toL2CrossTradeProxy",
								"label": "provider",
								"offset": 0,
								"slot": "4",
								"type": "t_address"
							},
							{
								"astId": 510,
								"contract": "contracts/L2/L2toL2CrossTradeProxy.sol:L2toL2CrossTradeProxy",
								"label": "totalAmount",
								"offset": 0,
								"slot": "5",
								"type": "t_uint256"
							},
							{
								"astId": 512,
								"contract": "contracts/L2/L2toL2CrossTradeProxy.sol:L2toL2CrossTradeProxy",
								"label": "ctAmount",
								"offset": 0,
								"slot": "6",
								"type": "t_uint256"
							},
							{
								"astId": 514,
								"contract": "contracts/L2/L2toL2CrossTradeProxy.sol:L2toL2CrossTradeProxy",
								"label": "l1ChainId",
								"offset": 0,
								"slot": "7",
								"type": "t_uint256"
							},
							{
								"astId": 516,
								"contract": "contracts/L2/L2toL2CrossTradeProxy.sol:L2toL2CrossTradeProxy",
								"label": "l2TargetChainId",
								"offset": 0,
								"slot": "8",
								"type": "t_uint256"
							},
							{
								"astId": 518,
								"contract": "contracts/L2/L2toL2CrossTradeProxy.sol:L2toL2CrossTradeProxy",
								"label": "hashValue",
								"offset": 0,
								"slot": "9",
								"type": "t_bytes32"
							}
						],
						"numberOfBytes": "320"
					},
					"t_struct(RoleData)21_storage": {
						"encoding": "inplace",
						"label": "struct AccessControl.RoleData",
						"members": [
							{
								"astId": 18,
								"contract": "contracts/L2/L2toL2CrossTradeProxy.sol:L2toL2CrossTradeProxy",
								"label": "hasRole",
								"offset": 0,
								"slot": "0",
								"type": "t_mapping(t_address,t_bool)"
							},
							{
								"astId": 20,
								"contract": "contracts/L2/L2toL2CrossTradeProxy.sol:L2toL2CrossTradeProxy",
								"label": "adminRole",
								"offset": 0,
								"slot": "1",
								"type": "t_bytes32"
							}
						],
						"numberOfBytes": "64"
					},
					"t_uint256": {
						"encoding": "inplace",
						"label": "uint256",
						"numberOfBytes": "32"
					}
				}
			},
			"userdoc": {
				"kind": "user",
				"methods": {
					"initialize(address,address)": {
						"notice": "L2CrossTrade initial settings"
					},
					"setChainInfo(address,address,uint256)": {
						"notice": "Store addresses for chainId"
					},
					"setProxyPause(bool)": {
						"notice": "Set pause state"
					},
					"upgradeTo(address)": {
						"notice": "Set implementation contract"
					}
				},
				"version": 1
			}
		}
	}
}