{
  "abi": [
    {
      "inputs": [],
      "name": "AlreadyExists",
      "type": "error"
    },
    {
      "anonymous": false,
      "inputs": [
        {
          "indexed": true,
          "internalType": "bytes32",
          "name": "uid",
          "type": "bytes32"
        },
        {
          "indexed": true,
          "internalType": "address",
          "name": "registerer",
          "type": "address"
        },
        {
          "components": [
            {
              "internalType": "bytes32",
              "name": "uid",
              "type": "bytes32"
            },
            {
              "internalType": "contract ISchemaResolver",
              "name": "resolver",
              "type": "address"
            },
            {
              "internalType": "bool",
              "name": "revocable",
              "type": "bool"
            },
            {
              "internalType": "string",
              "name": "schema",
              "type": "string"
            }
          ],
          "indexed": false,
          "internalType": "struct SchemaRecord",
          "name": "schema",
          "type": "tuple"
        }
      ],
      "name": "Registered",
      "type": "event"
    },
    {
      "inputs": [
        {
          "internalType": "bytes32",
          "name": "uid",
          "type": "bytes32"
        }
      ],
      "name": "getSchema",
      "outputs": [
        {
          "components": [
            {
              "internalType": "bytes32",
              "name": "uid",
              "type": "bytes32"
            },
            {
              "internalType": "contract ISchemaResolver",
              "name": "resolver",
              "type": "address"
            },
            {
              "internalType": "bool",
              "name": "revocable",
              "type": "bool"
            },
            {
              "internalType": "string",
              "name": "schema",
              "type": "string"
            }
          ],
          "internalType": "struct SchemaRecord",
          "name": "",
          "type": "tuple"
        }
      ],
      "stateMutability": "view",
      "type": "function"
    },
    {
      "inputs": [
        {
          "internalType": "string",
          "name": "schema",
          "type": "string"
        },
        {
          "internalType": "contract ISchemaResolver",
          "name": "resolver",
          "type": "address"
        },
        {
          "internalType": "bool",
          "name": "revocable",
          "type": "bool"
        }
      ],
      "name": "register",
      "outputs": [
        {
          "internalType": "bytes32",
          "name": "",
          "type": "bytes32"
        }
      ],
      "stateMutability": "nonpayable",
      "type": "function"
    },
    {
      "inputs": [],
      "name": "version",
      "outputs": [
        {
          "internalType": "string",
          "name": "",
          "type": "string"
        }
      ],
      "stateMutability": "view",
      "type": "function"
    }
  ],
  "bytecode": {
    "object": "0x608060405234801561001057600080fd5b506107fe806100206000396000f3fe608060405234801561001057600080fd5b50600436106100415760003560e01c806354fd4d501461004657806360d7a27814610098578063a2ea7c6e146100b9575b600080fd5b6100826040518060400160405280600581526020017f312e332e3000000000000000000000000000000000000000000000000000000081525081565b60405161008f9190610473565b60405180910390f35b6100ab6100a636600461048d565b6100d9565b60405190815260200161008f565b6100cc6100c736600461053f565b61029d565b60405161008f9190610558565b60008060405180608001604052806000801b81526020018573ffffffffffffffffffffffffffffffffffffffff168152602001841515815260200187878080601f01602080910402602001604051908101604052809392919081815260200183838082843760009201829052509390945250929350915061015b9050826103c5565b600081815260208190526040902054909150156101a4576040517f23369fa600000000000000000000000000000000000000000000000000000000815260040160405180910390fd5b80825260008181526020818152604091829020845181559084015160018201805493860151151574010000000000000000000000000000000000000000027fffffffffffffffffffffff00000000000000000000000000000000000000000090941673ffffffffffffffffffffffffffffffffffffffff9092169190911792909217909155606083015183919060028201906102409082610682565b509050503373ffffffffffffffffffffffffffffffffffffffff16817fd0b86852e21f9e5fa4bc3b0cff9757ffe243d50c4b43968a42202153d651ea5e8460405161028b9190610558565b60405180910390a39695505050505050565b604080516080810182526000808252602082018190529181019190915260608082015260008281526020818152604091829020825160808101845281548152600182015473ffffffffffffffffffffffffffffffffffffffff8116938201939093527401000000000000000000000000000000000000000090920460ff1615159282019290925260028201805491929160608401919061033c906105e0565b80601f0160208091040260200160405190810160405280929190818152602001828054610368906105e0565b80156103b55780601f1061038a576101008083540402835291602001916103b5565b820191906000526020600020905b81548152906001019060200180831161039857829003601f168201915b5050505050815250509050919050565b60008160600151826020015183604001516040516020016103e89392919061079c565b604051602081830303815290604052805190602001209050919050565b60005b83811015610420578181015183820152602001610408565b50506000910152565b60008151808452610441816020860160208601610405565b601f017fffffffffffffffffffffffffffffffffffffffffffffffffffffffffffffffe0169290920160200192915050565b6020815260006104866020830184610429565b9392505050565b600080600080606085870312156104a357600080fd5b843567ffffffffffffffff808211156104bb57600080fd5b818701915087601f8301126104cf57600080fd5b8135818111156104de57600080fd5b8860208285010111156104f057600080fd5b6020928301965094505085013573ffffffffffffffffffffffffffffffffffffffff8116811461051f57600080fd5b91506040850135801515811461053457600080fd5b939692955090935050565b60006020828403121561055157600080fd5b5035919050565b602081528151602082015273ffffffffffffffffffffffffffffffffffffffff6020830151166040820152604082015115156060820152600060608301516080808401526105a960a0840182610429565b949350505050565b7f4e487b7100000000000000000000000000000000000000000000000000000000600052604160045260246000fd5b600181811c908216806105f457607f821691505b60208210810361062d577f4e487b7100000000000000000000000000000000000000000000000000000000600052602260045260246000fd5b50919050565b601f82111561067d57600081815260208120601f850160051c8101602086101561065a5750805b601f850160051c820191505b8181101561067957828155600101610666565b5050505b505050565b815167ffffffffffffffff81111561069c5761069c6105b1565b6106b0816106aa84546105e0565b84610633565b602080601f83116001811461070357600084156106cd5750858301515b7fffffffffffffffffffffffffffffffffffffffffffffffffffffffffffffffff600386901b1c1916600185901b178555610679565b6000858152602081207fffffffffffffffffffffffffffffffffffffffffffffffffffffffffffffffe08616915b8281101561075057888601518255948401946001909101908401610731565b508582101561078c57878501517fffffffffffffffffffffffffffffffffffffffffffffffffffffffffffffffff600388901b60f8161c191681555b5050505050600190811b01905550565b600084516107ae818460208901610405565b60609490941b7fffffffffffffffffffffffffffffffffffffffff000000000000000000000000169190930190815290151560f81b60148201526015019291505056fea164736f6c6343000813000a",
    "linkReferences": {}
  },
  "methodIdentifiers": {
    "getSchema(bytes32)": "a2ea7c6e",
    "register(string,address,bool)": "60d7a278",
    "version()": "54fd4d50"
  },
  "storageLayout": {
    "storage": [
      {
        "astId": 30754,
        "contract": "src/EAS/SchemaRegistry.sol:SchemaRegistry",
        "label": "_registry",
        "offset": 0,
        "slot": "0",
        "type": "t_mapping(t_bytes32,t_struct(SchemaRecord)30696_storage)"
      },
      {
        "astId": 30760,
        "contract": "src/EAS/SchemaRegistry.sol:SchemaRegistry",
        "label": "__gap",
        "offset": 0,
        "slot": "1",
        "type": "t_array(t_uint256)49_storage"
      }
    ],
    "types": {
      "t_array(t_uint256)49_storage": {
        "encoding": "inplace",
        "label": "uint256[49]",
        "numberOfBytes": "1568",
        "base": "t_uint256"
      },
      "t_bool": {
        "encoding": "inplace",
        "label": "bool",
        "numberOfBytes": "1"
      },
      "t_bytes32": {
        "encoding": "inplace",
        "label": "bytes32",
        "numberOfBytes": "32"
      },
      "t_contract(ISchemaResolver)31262": {
        "encoding": "inplace",
        "label": "contract ISchemaResolver",
        "numberOfBytes": "20"
      },
      "t_mapping(t_bytes32,t_struct(SchemaRecord)30696_storage)": {
        "encoding": "mapping",
        "key": "t_bytes32",
        "label": "mapping(bytes32 => struct SchemaRecord)",
        "numberOfBytes": "32",
        "value": "t_struct(SchemaRecord)30696_storage"
      },
      "t_string_storage": {
        "encoding": "bytes",
        "label": "string",
        "numberOfBytes": "32"
      },
      "t_struct(SchemaRecord)30696_storage": {
        "encoding": "inplace",
        "label": "struct SchemaRecord",
        "numberOfBytes": "96",
        "members": [
          {
            "astId": 30688,
            "contract": "src/EAS/SchemaRegistry.sol:SchemaRegistry",
            "label": "uid",
            "offset": 0,
            "slot": "0",
            "type": "t_bytes32"
          },
          {
            "astId": 30691,
            "contract": "src/EAS/SchemaRegistry.sol:SchemaRegistry",
            "label": "resolver",
            "offset": 0,
            "slot": "1",
            "type": "t_contract(ISchemaResolver)31262"
          },
          {
            "astId": 30693,
            "contract": "src/EAS/SchemaRegistry.sol:SchemaRegistry",
            "label": "revocable",
            "offset": 20,
            "slot": "1",
            "type": "t_bool"
          },
          {
            "astId": 30695,
            "contract": "src/EAS/SchemaRegistry.sol:SchemaRegistry",
            "label": "schema",
            "offset": 0,
            "slot": "2",
            "type": "t_string_storage"
          }
        ]
      },
      "t_uint256": {
        "encoding": "inplace",
        "label": "uint256",
        "numberOfBytes": "32"
      }
    }
  },
  "userdoc": {
    "version": 1,
    "kind": "user",
    "methods": {
      "version()": {
        "notice": "Semantic version."
      }
    },
    "notice": "The global attestation schemas for the Ethereum Attestation Service protocol."
  },
  "devdoc": {
    "version": 1,
    "kind": "dev",
    "methods": {
      "getSchema(bytes32)": {
        "details": "Returns an existing schema by UID",
        "params": {
          "uid": "The UID of the schema to retrieve."
        },
        "returns": {
          "_0": "The schema data members."
        }
      },
      "register(string,address,bool)": {
        "details": "Submits and reserves a new schema",
        "params": {
          "resolver": "An optional schema resolver.",
          "revocable": "Whether the schema allows revocations explicitly.",
          "schema": "The schema data schema."
        },
        "returns": {
          "_0": "The UID of the new schema."
        }
      }
    },
    "events": {
      "Registered(bytes32,address,(bytes32,address,bool,string))": {
        "details": "Emitted when a new schema has been registered",
        "params": {
          "registerer": "The address of the account used to register the schema.",
          "schema": "The schema data.",
          "uid": "The schema UID."
        }
      }
    },
    "title": "SchemaRegistry"
  },
  "id": 27
}