{
  "abi": [
    {
      "inputs": [
        {
          "internalType": "address",
          "name": "_admin",
          "type": "address"
        }
      ],
      "stateMutability": "nonpayable",
      "type": "constructor"
    },
    {
      "anonymous": false,
      "inputs": [
        {
          "indexed": true,
          "internalType": "string",
          "name": "authModule",
          "type": "string"
        },
        {
          "indexed": true,
          "internalType": "bytes32",
          "name": "userId",
          "type": "bytes32"
        },
        {
          "indexed": false,
          "internalType": "uint256",
          "name": "amount",
          "type": "uint256"
        },
        {
          "indexed": true,
          "internalType": "address",
          "name": "recipient",
          "type": "address"
        }
      ],
      "name": "Drip",
      "type": "event"
    },
    {
      "inputs": [],
      "name": "ADMIN",
      "outputs": [
        {
          "internalType": "address",
          "name": "",
          "type": "address"
        }
      ],
      "stateMutability": "view",
      "type": "function"
    },
    {
      "inputs": [
        {
          "internalType": "contract IFaucetAuthModule",
          "name": "_module",
          "type": "address"
        },
        {
          "components": [
            {
              "internalType": "string",
              "name": "name",
              "type": "string"
            },
            {
              "internalType": "bool",
              "name": "enabled",
              "type": "bool"
            },
            {
              "internalType": "uint256",
              "name": "ttl",
              "type": "uint256"
            },
            {
              "internalType": "uint256",
              "name": "amount",
              "type": "uint256"
            }
          ],
          "internalType": "struct Faucet.ModuleConfig",
          "name": "_config",
          "type": "tuple"
        }
      ],
      "name": "configure",
      "outputs": [],
      "stateMutability": "nonpayable",
      "type": "function"
    },
    {
      "inputs": [
        {
          "components": [
            {
              "internalType": "address payable",
              "name": "recipient",
              "type": "address"
            },
            {
              "internalType": "bytes32",
              "name": "nonce",
              "type": "bytes32"
            }
          ],
          "internalType": "struct Faucet.DripParameters",
          "name": "_params",
          "type": "tuple"
        },
        {
          "components": [
            {
              "internalType": "contract IFaucetAuthModule",
              "name": "module",
              "type": "address"
            },
            {
              "internalType": "bytes32",
              "name": "id",
              "type": "bytes32"
            },
            {
              "internalType": "bytes",
              "name": "proof",
              "type": "bytes"
            }
          ],
          "internalType": "struct Faucet.AuthParameters",
          "name": "_auth",
          "type": "tuple"
        }
      ],
      "name": "drip",
      "outputs": [],
      "stateMutability": "nonpayable",
      "type": "function"
    },
    {
      "inputs": [
        {
          "internalType": "contract IFaucetAuthModule",
          "name": "_module",
          "type": "address"
        }
      ],
      "name": "isModuleEnabled",
      "outputs": [
        {
          "internalType": "bool",
          "name": "",
          "type": "bool"
        }
      ],
      "stateMutability": "view",
      "type": "function"
    },
    {
      "inputs": [
        {
          "internalType": "contract IFaucetAuthModule",
          "name": "",
          "type": "address"
        }
      ],
      "name": "modules",
      "outputs": [
        {
          "internalType": "string",
          "name": "name",
          "type": "string"
        },
        {
          "internalType": "bool",
          "name": "enabled",
          "type": "bool"
        },
        {
          "internalType": "uint256",
          "name": "ttl",
          "type": "uint256"
        },
        {
          "internalType": "uint256",
          "name": "amount",
          "type": "uint256"
        }
      ],
      "stateMutability": "view",
      "type": "function"
    },
    {
      "inputs": [
        {
          "internalType": "bytes32",
          "name": "",
          "type": "bytes32"
        },
        {
          "internalType": "bytes32",
          "name": "",
          "type": "bytes32"
        }
      ],
      "name": "nonces",
      "outputs": [
        {
          "internalType": "bool",
          "name": "",
          "type": "bool"
        }
      ],
      "stateMutability": "view",
      "type": "function"
    },
    {
      "inputs": [
        {
          "internalType": "contract IFaucetAuthModule",
          "name": "",
          "type": "address"
        },
        {
          "internalType": "bytes32",
          "name": "",
          "type": "bytes32"
        }
      ],
      "name": "timeouts",
      "outputs": [
        {
          "internalType": "uint256",
          "name": "",
          "type": "uint256"
        }
      ],
      "stateMutability": "view",
      "type": "function"
    },
    {
      "inputs": [
        {
          "internalType": "address payable",
          "name": "_recipient",
          "type": "address"
        },
        {
          "internalType": "uint256",
          "name": "_amount",
          "type": "uint256"
        }
      ],
      "name": "withdraw",
      "outputs": [],
      "stateMutability": "nonpayable",
      "type": "function"
    },
    {
      "stateMutability": "payable",
      "type": "receive"
    }
  ],
  "bytecode": {
    "object": "0x60a060405234801561001057600080fd5b5060405161127538038061127583398101604081905261002f91610040565b6001600160a01b0316608052610070565b60006020828403121561005257600080fd5b81516001600160a01b038116811461006957600080fd5b9392505050565b6080516111dc6100996000396000818161010f0152818161026d01526109db01526111dc6000f3fe60806040526004361061007f5760003560e01c806338757bfd1161004e57806338757bfd1461019f578063a8ee49fe146101e5578063b960bc2b14610215578063f3fef3a31461023557600080fd5b80631cb81b881461008b5780631d5d26bc146100ad5780632a0acc6a146100fd5780632d9ad53d1461015657600080fd5b3661008657005b600080fd5b34801561009757600080fd5b506100ab6100a6366004610c47565b610255565b005b3480156100b957600080fd5b506100e86100c8366004610d08565b600260209081526000928352604080842090915290825290205460ff1681565b60405190151581526020015b60405180910390f35b34801561010957600080fd5b506101317f000000000000000000000000000000000000000000000000000000000000000081565b60405173ffffffffffffffffffffffffffffffffffffffff90911681526020016100f4565b34801561016257600080fd5b506100e8610171366004610d2a565b73ffffffffffffffffffffffffffffffffffffffff1660009081526020819052604090206001015460ff1690565b3480156101ab57600080fd5b506101d76101ba366004610d4e565b600160209081526000928352604080842090915290825290205481565b6040519081526020016100f4565b3480156101f157600080fd5b50610205610200366004610d2a565b6103a6565b6040516100f49493929190610df0565b34801561022157600080fd5b506100ab610230366004610e1f565b61045c565b34801561024157600080fd5b506100ab610250366004610d4e565b6109c3565b3373ffffffffffffffffffffffffffffffffffffffff7f0000000000000000000000000000000000000000000000000000000000000000161461031f576040517f08c379a000000000000000000000000000000000000000000000000000000000815260206004820152602c60248201527f4661756365743a2066756e6374696f6e2063616e206f6e6c792062652063616c60448201527f6c65642062792061646d696e000000000000000000000000000000000000000060648201526084015b60405180910390fd5b73ffffffffffffffffffffffffffffffffffffffff82166000908152602081905260409020815182919081906103559082610f9b565b5060208201516001820180547fffffffffffffffffffffffffffffffffffffffffffffffffffffffffffffff0016911515919091179055604082015160028201556060909101516003909101555050565b6000602081905290815260409020805481906103c190610ef9565b80601f01602080910402602001604051908101604052809291908181526020018280546103ed90610ef9565b801561043a5780601f1061040f5761010080835404028352916020019161043a565b820191906000526020600020905b81548152906001019060200180831161041d57829003601f168201915b5050505060018301546002840154600390940154929360ff9091169290915084565b805173ffffffffffffffffffffffffffffffffffffffff1660009081526020819052604080822081516080810190925280548290829061049b90610ef9565b80601f01602080910402602001604051908101604052809291908181526020018280546104c790610ef9565b80156105145780601f106104e957610100808354040283529160200191610514565b820191906000526020600020905b8154815290600101906020018083116104f757829003601f168201915b5050509183525050600182015460ff161515602080830191909152600283015460408301526003909201546060909101528101519091506105d7576040517f08c379a000000000000000000000000000000000000000000000000000000000815260206004820152603c60248201527f4661756365743a2070726f76696465642061757468206d6f64756c652069732060448201527f6e6f7420737570706f72746564206279207468697320666175636574000000006064820152608401610316565b6020808301516000908152600282526040808220868401518352909252205460ff1615610686576040517f08c379a000000000000000000000000000000000000000000000000000000000815260206004820152602360248201527f4661756365743a206e6f6e63652068617320616c7265616479206265656e207560448201527f73656400000000000000000000000000000000000000000000000000000000006064820152608401610316565b815173ffffffffffffffffffffffffffffffffffffffff1660009081526001602090815260408083208286015184529091529020544211610749576040517f08c379a000000000000000000000000000000000000000000000000000000000815260206004820152603f60248201527f4661756365743a20617574682063616e6e6f742062652075736564207965742060448201527f626563617573652074696d656f757420686173206e6f7420656c6170736564006064820152608401610316565b8151602083015160408085015190517ff5431ffa00000000000000000000000000000000000000000000000000000000815273ffffffffffffffffffffffffffffffffffffffff9093169263f5431ffa926107a89288926004016110b5565b602060405180830381865afa1580156107c5573d6000803e3d6000fd5b505050506040513d601f19601f820116820180604052508101906107e991906110fe565b61087757604080517f08c379a00000000000000000000000000000000000000000000000000000000081526020600482015260248101919091527f4661756365743a206472697020706172616d657465727320636f756c64206e6f60448201527f74206265207665726966696564206279207365637572697479206d6f64756c656064820152608401610316565b6040810151610886904261111b565b825173ffffffffffffffffffffffffffffffffffffffff1660009081526001602081815260408084208288018051865290835281852095909555935183526002815283832087820151845290529082902080547fffffffffffffffffffffffffffffffffffffffffffffffffffffffffffffff0016909117905560608201518451915190919061091590610ad6565b73ffffffffffffffffffffffffffffffffffffffff90911681526020016040518091039082f090508015801561094f573d6000803e3d6000fd5b505082516020830151825160405173ffffffffffffffffffffffffffffffffffffffff90931692610980919061115a565b60405190819003812060608501518252907f2cebdf1cc706a50e1b28bf2fc5cfbd7204747a3b82439b85721a474df3a355a49060200160405180910390a4505050565b3373ffffffffffffffffffffffffffffffffffffffff7f00000000000000000000000000000000000000000000000000000000000000001614610a88576040517f08c379a000000000000000000000000000000000000000000000000000000000815260206004820152602c60248201527f4661756365743a2066756e6374696f6e2063616e206f6e6c792062652063616c60448201527f6c65642062792061646d696e00000000000000000000000000000000000000006064820152608401610316565b8082604051610a9690610ad6565b73ffffffffffffffffffffffffffffffffffffffff90911681526020016040518091039082f0905080158015610ad0573d6000803e3d6000fd5b50505050565b60598061117783390190565b73ffffffffffffffffffffffffffffffffffffffff81168114610b0457600080fd5b50565b7f4e487b7100000000000000000000000000000000000000000000000000000000600052604160045260246000fd5b6040516080810167ffffffffffffffff81118282101715610b5957610b59610b07565b60405290565b6040805190810167ffffffffffffffff81118282101715610b5957610b59610b07565b6040516060810167ffffffffffffffff81118282101715610b5957610b59610b07565b600067ffffffffffffffff80841115610bc057610bc0610b07565b604051601f85017fffffffffffffffffffffffffffffffffffffffffffffffffffffffffffffffe0908116603f01168101908282118183101715610c0657610c06610b07565b81604052809350858152868686011115610c1f57600080fd5b858560208301376000602087830101525050509392505050565b8015158114610b0457600080fd5b60008060408385031215610c5a57600080fd5b8235610c6581610ae2565b9150602083013567ffffffffffffffff80821115610c8257600080fd5b9084019060808287031215610c9657600080fd5b610c9e610b36565b823582811115610cad57600080fd5b83019150601f82018713610cc057600080fd5b610ccf87833560208501610ba5565b815260208301359150610ce182610c39565b81602082015260408301356040820152606083013560608201528093505050509250929050565b60008060408385031215610d1b57600080fd5b50508035926020909101359150565b600060208284031215610d3c57600080fd5b8135610d4781610ae2565b9392505050565b60008060408385031215610d6157600080fd5b8235610d6c81610ae2565b946020939093013593505050565b60005b83811015610d95578181015183820152602001610d7d565b83811115610ad05750506000910152565b60008151808452610dbe816020860160208601610d7a565b601f017fffffffffffffffffffffffffffffffffffffffffffffffffffffffffffffffe0169290920160200192915050565b608081526000610e036080830187610da6565b9415156020830152506040810192909252606090910152919050565b6000808284036060811215610e3357600080fd5b6040811215610e4157600080fd5b50610e4a610b5f565b8335610e5581610ae2565b8152602084810135908201529150604083013567ffffffffffffffff80821115610e7e57600080fd5b9084019060608287031215610e9257600080fd5b610e9a610b82565b8235610ea581610ae2565b815260208381013590820152604083013582811115610ec357600080fd5b80840193505086601f840112610ed857600080fd5b610ee787843560208601610ba5565b60408201528093505050509250929050565b600181811c90821680610f0d57607f821691505b602082108103610f46577f4e487b7100000000000000000000000000000000000000000000000000000000600052602260045260246000fd5b50919050565b601f821115610f9657600081815260208120601f850160051c81016020861015610f735750805b601f850160051c820191505b81811015610f9257828155600101610f7f565b5050505b505050565b815167ffffffffffffffff811115610fb557610fb5610b07565b610fc981610fc38454610ef9565b84610f4c565b602080601f83116001811461101c5760008415610fe65750858301515b7fffffffffffffffffffffffffffffffffffffffffffffffffffffffffffffffff600386901b1c1916600185901b178555610f92565b6000858152602081207fffffffffffffffffffffffffffffffffffffffffffffffffffffffffffffffe08616915b828110156110695788860151825594840194600190910190840161104a565b50858210156110a557878501517fffffffffffffffffffffffffffffffffffffffffffffffffffffffffffffffff600388901b60f8161c191681555b5050505050600190811b01905550565b73ffffffffffffffffffffffffffffffffffffffff8451168152602084015160208201528260408201526080606082015260006110f56080830184610da6565b95945050505050565b60006020828403121561111057600080fd5b8151610d4781610c39565b60008219821115611155577f4e487b7100000000000000000000000000000000000000000000000000000000600052601160045260246000fd5b500190565b6000825161116c818460208701610d7a565b919091019291505056fe608060405260405160593803806059833981016040819052601e91602a565b806001600160a01b0316ff5b600060208284031215603b57600080fd5b81516001600160a01b0381168114605157600080fd5b939250505056fea164736f6c634300080f000a",
    "linkReferences": {}
  },
  "methodIdentifiers": {
    "ADMIN()": "2a0acc6a",
    "configure(address,(string,bool,uint256,uint256))": "1cb81b88",
    "drip((address,bytes32),(address,bytes32,bytes))": "b960bc2b",
    "isModuleEnabled(address)": "2d9ad53d",
    "modules(address)": "a8ee49fe",
    "nonces(bytes32,bytes32)": "1d5d26bc",
    "timeouts(address,bytes32)": "38757bfd",
    "withdraw(address,uint256)": "f3fef3a3"
  },
  "storageLayout": {
    "storage": [
      {
        "astId": 80747,
        "contract": "src/periphery/faucet/Faucet.sol:Faucet",
        "label": "modules",
        "offset": 0,
        "slot": "0",
        "type": "t_mapping(t_contract(IFaucetAuthModule)81060,t_struct(ModuleConfig)80737_storage)"
      },
      {
        "astId": 80755,
        "contract": "src/periphery/faucet/Faucet.sol:Faucet",
        "label": "timeouts",
        "offset": 0,
        "slot": "1",
        "type": "t_mapping(t_contract(IFaucetAuthModule)81060,t_mapping(t_bytes32,t_uint256))"
      },
      {
        "astId": 80762,
        "contract": "src/periphery/faucet/Faucet.sol:Faucet",
        "label": "nonces",
        "offset": 0,
        "slot": "2",
        "type": "t_mapping(t_bytes32,t_mapping(t_bytes32,t_bool))"
      }
    ],
    "types": {
      "t_bool": {
        "encoding": "inplace",
        "label": "bool",
        "numberOfBytes": "1"
      },
      "t_bytes32": {
        "encoding": "inplace",
        "label": "bytes32",
        "numberOfBytes": "32"
      },
      "t_contract(IFaucetAuthModule)81060": {
        "encoding": "inplace",
        "label": "contract IFaucetAuthModule",
        "numberOfBytes": "20"
      },
      "t_mapping(t_bytes32,t_bool)": {
        "encoding": "mapping",
        "key": "t_bytes32",
        "label": "mapping(bytes32 => bool)",
        "numberOfBytes": "32",
        "value": "t_bool"
      },
      "t_mapping(t_bytes32,t_mapping(t_bytes32,t_bool))": {
        "encoding": "mapping",
        "key": "t_bytes32",
        "label": "mapping(bytes32 => mapping(bytes32 => bool))",
        "numberOfBytes": "32",
        "value": "t_mapping(t_bytes32,t_bool)"
      },
      "t_mapping(t_bytes32,t_uint256)": {
        "encoding": "mapping",
        "key": "t_bytes32",
        "label": "mapping(bytes32 => uint256)",
        "numberOfBytes": "32",
        "value": "t_uint256"
      },
      "t_mapping(t_contract(IFaucetAuthModule)81060,t_mapping(t_bytes32,t_uint256))": {
        "encoding": "mapping",
        "key": "t_contract(IFaucetAuthModule)81060",
        "label": "mapping(contract IFaucetAuthModule => mapping(bytes32 => uint256))",
        "numberOfBytes": "32",
        "value": "t_mapping(t_bytes32,t_uint256)"
      },
      "t_mapping(t_contract(IFaucetAuthModule)81060,t_struct(ModuleConfig)80737_storage)": {
        "encoding": "mapping",
        "key": "t_contract(IFaucetAuthModule)81060",
        "label": "mapping(contract IFaucetAuthModule => struct Faucet.ModuleConfig)",
        "numberOfBytes": "32",
        "value": "t_struct(ModuleConfig)80737_storage"
      },
      "t_string_storage": {
        "encoding": "bytes",
        "label": "string",
        "numberOfBytes": "32"
      },
      "t_struct(ModuleConfig)80737_storage": {
        "encoding": "inplace",
        "label": "struct Faucet.ModuleConfig",
        "numberOfBytes": "128",
        "members": [
          {
            "astId": 80730,
            "contract": "src/periphery/faucet/Faucet.sol:Faucet",
            "label": "name",
            "offset": 0,
            "slot": "0",
            "type": "t_string_storage"
          },
          {
            "astId": 80732,
            "contract": "src/periphery/faucet/Faucet.sol:Faucet",
            "label": "enabled",
            "offset": 0,
            "slot": "1",
            "type": "t_bool"
          },
          {
            "astId": 80734,
            "contract": "src/periphery/faucet/Faucet.sol:Faucet",
            "label": "ttl",
            "offset": 0,
            "slot": "2",
            "type": "t_uint256"
          },
          {
            "astId": 80736,
            "contract": "src/periphery/faucet/Faucet.sol:Faucet",
            "label": "amount",
            "offset": 0,
            "slot": "3",
            "type": "t_uint256"
          }
        ]
      },
      "t_uint256": {
        "encoding": "inplace",
        "label": "uint256",
        "numberOfBytes": "32"
      }
    }
  },
  "userdoc": {
    "version": 1,
    "kind": "user",
    "methods": {
      "ADMIN()": {
        "notice": "Admin address that can configure the faucet."
      },
      "configure(address,(string,bool,uint256,uint256))": {
        "notice": "Allows the admin to configure an authentication module."
      },
      "drip((address,bytes32),(address,bytes32,bytes))": {
        "notice": "Drips ETH to a recipient account."
      },
      "isModuleEnabled(address)": {
        "notice": "Returns the enable value of a given auth module."
      },
      "modules(address)": {
        "notice": "Mapping of authentication modules to their configurations."
      },
      "nonces(bytes32,bytes32)": {
        "notice": "Maps from id to nonces to whether or not they have been used."
      },
      "timeouts(address,bytes32)": {
        "notice": "Mapping of authentication IDs to the next timestamp at which they can be used."
      },
      "withdraw(address,uint256)": {
        "notice": "Allows the admin to withdraw funds."
      }
    },
    "events": {
      "Drip(string,bytes32,uint256,address)": {
        "notice": "Emitted on each drip."
      }
    },
    "notice": "Faucet contract that drips ETH to users."
  },
  "devdoc": {
    "version": 1,
    "kind": "dev",
    "methods": {
      "configure(address,(string,bool,uint256,uint256))": {
        "params": {
          "_config": "Configuration to set for the module.",
          "_module": "Authentication module to configure."
        }
      },
      "constructor": {
        "params": {
          "_admin": "Admin address that can configure the faucet."
        }
      },
      "drip((address,bytes32),(address,bytes32,bytes))": {
        "params": {
          "_auth": "Authentication parameters.",
          "_params": "Drip parameters."
        }
      },
      "isModuleEnabled(address)": {
        "params": {
          "_module": "module to check."
        },
        "returns": {
          "_0": "bool enabled status of auth modulew."
        }
      },
      "withdraw(address,uint256)": {
        "params": {
          "_amount": "Amount of ETH in wei to withdraw.",
          "_recipient": "Address to receive the funds."
        }
      }
    },
    "events": {
      "Drip(string,bytes32,uint256,address)": {
        "params": {
          "amount": "The amount of funds sent.",
          "authModule": "The type of authentication that was used for verifying the drip.",
          "recipient": "The recipient of the drip.",
          "userId": "The id of the user that requested the drip."
        }
      }
    },
    "title": "Faucet"
  },
  "id": 211
}