{
  "abi": [
    {
      "inputs": [
        {
          "internalType": "address",
          "name": "_l2Bridge",
          "type": "address"
        },
        {
          "internalType": "address",
          "name": "_l1Token",
          "type": "address"
        },
        {
          "internalType": "string",
          "name": "_name",
          "type": "string"
        },
        {
          "internalType": "string",
          "name": "_symbol",
          "type": "string"
        }
      ],
      "stateMutability": "nonpayable",
      "type": "constructor"
    },
    {
      "anonymous": false,
      "inputs": [
        {
          "indexed": true,
          "internalType": "address",
          "name": "owner",
          "type": "address"
        },
        {
          "indexed": true,
          "internalType": "address",
          "name": "spender",
          "type": "address"
        },
        {
          "indexed": false,
          "internalType": "uint256",
          "name": "value",
          "type": "uint256"
        }
      ],
      "name": "Approval",
      "type": "event"
    },
    {
      "anonymous": false,
      "inputs": [
        {
          "indexed": true,
          "internalType": "address",
          "name": "_account",
          "type": "address"
        },
        {
          "indexed": false,
          "internalType": "uint256",
          "name": "_amount",
          "type": "uint256"
        }
      ],
      "name": "Burn",
      "type": "event"
    },
    {
      "anonymous": false,
      "inputs": [
        {
          "indexed": true,
          "internalType": "address",
          "name": "_account",
          "type": "address"
        },
        {
          "indexed": false,
          "internalType": "uint256",
          "name": "_amount",
          "type": "uint256"
        }
      ],
      "name": "Mint",
      "type": "event"
    },
    {
      "anonymous": false,
      "inputs": [
        {
          "indexed": true,
          "internalType": "address",
          "name": "from",
          "type": "address"
        },
        {
          "indexed": true,
          "internalType": "address",
          "name": "to",
          "type": "address"
        },
        {
          "indexed": false,
          "internalType": "uint256",
          "name": "value",
          "type": "uint256"
        }
      ],
      "name": "Transfer",
      "type": "event"
    },
    {
      "inputs": [
        {
          "internalType": "address",
          "name": "owner",
          "type": "address"
        },
        {
          "internalType": "address",
          "name": "spender",
          "type": "address"
        }
      ],
      "name": "allowance",
      "outputs": [
        {
          "internalType": "uint256",
          "name": "",
          "type": "uint256"
        }
      ],
      "stateMutability": "view",
      "type": "function"
    },
    {
      "inputs": [
        {
          "internalType": "address",
          "name": "spender",
          "type": "address"
        },
        {
          "internalType": "uint256",
          "name": "amount",
          "type": "uint256"
        }
      ],
      "name": "approve",
      "outputs": [
        {
          "internalType": "bool",
          "name": "",
          "type": "bool"
        }
      ],
      "stateMutability": "nonpayable",
      "type": "function"
    },
    {
      "inputs": [
        {
          "internalType": "address",
          "name": "account",
          "type": "address"
        }
      ],
      "name": "balanceOf",
      "outputs": [
        {
          "internalType": "uint256",
          "name": "",
          "type": "uint256"
        }
      ],
      "stateMutability": "view",
      "type": "function"
    },
    {
      "inputs": [
        {
          "internalType": "address",
          "name": "_from",
          "type": "address"
        },
        {
          "internalType": "uint256",
          "name": "_amount",
          "type": "uint256"
        }
      ],
      "name": "burn",
      "outputs": [],
      "stateMutability": "nonpayable",
      "type": "function"
    },
    {
      "inputs": [],
      "name": "decimals",
      "outputs": [
        {
          "internalType": "uint8",
          "name": "",
          "type": "uint8"
        }
      ],
      "stateMutability": "view",
      "type": "function"
    },
    {
      "inputs": [
        {
          "internalType": "address",
          "name": "spender",
          "type": "address"
        },
        {
          "internalType": "uint256",
          "name": "subtractedValue",
          "type": "uint256"
        }
      ],
      "name": "decreaseAllowance",
      "outputs": [
        {
          "internalType": "bool",
          "name": "",
          "type": "bool"
        }
      ],
      "stateMutability": "nonpayable",
      "type": "function"
    },
    {
      "inputs": [
        {
          "internalType": "address",
          "name": "spender",
          "type": "address"
        },
        {
          "internalType": "uint256",
          "name": "addedValue",
          "type": "uint256"
        }
      ],
      "name": "increaseAllowance",
      "outputs": [
        {
          "internalType": "bool",
          "name": "",
          "type": "bool"
        }
      ],
      "stateMutability": "nonpayable",
      "type": "function"
    },
    {
      "inputs": [],
      "name": "l1Token",
      "outputs": [
        {
          "internalType": "address",
          "name": "",
          "type": "address"
        }
      ],
      "stateMutability": "view",
      "type": "function"
    },
    {
      "inputs": [],
      "name": "l2Bridge",
      "outputs": [
        {
          "internalType": "address",
          "name": "",
          "type": "address"
        }
      ],
      "stateMutability": "view",
      "type": "function"
    },
    {
      "inputs": [
        {
          "internalType": "address",
          "name": "_to",
          "type": "address"
        },
        {
          "internalType": "uint256",
          "name": "_amount",
          "type": "uint256"
        }
      ],
      "name": "mint",
      "outputs": [],
      "stateMutability": "nonpayable",
      "type": "function"
    },
    {
      "inputs": [],
      "name": "name",
      "outputs": [
        {
          "internalType": "string",
          "name": "",
          "type": "string"
        }
      ],
      "stateMutability": "view",
      "type": "function"
    },
    {
      "inputs": [
        {
          "internalType": "bytes4",
          "name": "_interfaceId",
          "type": "bytes4"
        }
      ],
      "name": "supportsInterface",
      "outputs": [
        {
          "internalType": "bool",
          "name": "",
          "type": "bool"
        }
      ],
      "stateMutability": "pure",
      "type": "function"
    },
    {
      "inputs": [],
      "name": "symbol",
      "outputs": [
        {
          "internalType": "string",
          "name": "",
          "type": "string"
        }
      ],
      "stateMutability": "view",
      "type": "function"
    },
    {
      "inputs": [],
      "name": "totalSupply",
      "outputs": [
        {
          "internalType": "uint256",
          "name": "",
          "type": "uint256"
        }
      ],
      "stateMutability": "view",
      "type": "function"
    },
    {
      "inputs": [
        {
          "internalType": "address",
          "name": "to",
          "type": "address"
        },
        {
          "internalType": "uint256",
          "name": "amount",
          "type": "uint256"
        }
      ],
      "name": "transfer",
      "outputs": [
        {
          "internalType": "bool",
          "name": "",
          "type": "bool"
        }
      ],
      "stateMutability": "nonpayable",
      "type": "function"
    },
    {
      "inputs": [
        {
          "internalType": "address",
          "name": "from",
          "type": "address"
        },
        {
          "internalType": "address",
          "name": "to",
          "type": "address"
        },
        {
          "internalType": "uint256",
          "name": "amount",
          "type": "uint256"
        }
      ],
      "name": "transferFrom",
      "outputs": [
        {
          "internalType": "bool",
          "name": "",
          "type": "bool"
        }
      ],
      "stateMutability": "nonpayable",
      "type": "function"
    }
  ],
  "bytecode": {
    "object": "0x60806040523480156200001157600080fd5b506040516200156038038062001560833981016040819052620000349162000179565b8181600362000044838262000298565b50600462000053828262000298565b5050600580546001600160a01b039586166001600160a01b03199182161790915560068054969095169516949094179092555062000364915050565b80516001600160a01b0381168114620000a757600080fd5b919050565b634e487b7160e01b600052604160045260246000fd5b600082601f830112620000d457600080fd5b81516001600160401b0380821115620000f157620000f1620000ac565b604051601f8301601f19908116603f011681019082821181831017156200011c576200011c620000ac565b816040528381526020925086838588010111156200013957600080fd5b600091505b838210156200015d57858201830151818301840152908201906200013e565b838211156200016f5760008385830101525b9695505050505050565b600080600080608085870312156200019057600080fd5b6200019b856200008f565b9350620001ab602086016200008f565b60408601519093506001600160401b0380821115620001c957600080fd5b620001d788838901620000c2565b93506060870151915080821115620001ee57600080fd5b50620001fd87828801620000c2565b91505092959194509250565b600181811c908216806200021e57607f821691505b6020821081036200023f57634e487b7160e01b600052602260045260246000fd5b50919050565b601f8211156200029357600081815260208120601f850160051c810160208610156200026e5750805b601f850160051c820191505b818110156200028f578281556001016200027a565b5050505b505050565b81516001600160401b03811115620002b457620002b4620000ac565b620002cc81620002c5845462000209565b8462000245565b602080601f831160018114620003045760008415620002eb5750858301515b600019600386901b1c1916600185901b1785556200028f565b600085815260208120601f198616915b82811015620003355788860151825594840194600190910190840162000314565b5085821015620003545787850151600019600388901b60f8161c191681555b5050505050600190811b01905550565b6111ec80620003746000396000f3fe608060405234801561001057600080fd5b50600436106101005760003560e01c806370a0823111610097578063a9059cbb11610066578063a9059cbb14610215578063ae1f6aaf14610228578063c01e1bd61461026d578063dd62ed3e1461028d57600080fd5b806370a08231146101b157806395d89b41146101e75780639dc29fac146101ef578063a457c2d71461020257600080fd5b806323b872dd116100d357806323b872dd14610167578063313ce5671461017a578063395093511461018957806340c10f191461019c57600080fd5b806301ffc9a71461010557806306fdde031461012d578063095ea7b31461014257806318160ddd14610155575b600080fd5b610118610113366004610f95565b6102d3565b60405190151581526020015b60405180910390f35b610135610393565b6040516101249190610fde565b61011861015036600461107a565b610425565b6002545b604051908152602001610124565b6101186101753660046110a4565b61043d565b60405160128152602001610124565b61011861019736600461107a565b610461565b6101af6101aa36600461107a565b6104ad565b005b6101596101bf3660046110e0565b73ffffffffffffffffffffffffffffffffffffffff1660009081526020819052604090205490565b610135610591565b6101af6101fd36600461107a565b6105a0565b61011861021036600461107a565b610673565b61011861022336600461107a565b610744565b6006546102489073ffffffffffffffffffffffffffffffffffffffff1681565b60405173ffffffffffffffffffffffffffffffffffffffff9091168152602001610124565b6005546102489073ffffffffffffffffffffffffffffffffffffffff1681565b61015961029b3660046110fb565b73ffffffffffffffffffffffffffffffffffffffff918216600090815260016020908152604080832093909416825291909152205490565b60007f01ffc9a7a5cef8baa21ed3c5c0d7e23accb804b619e9333b597f47a0d84076e27f1d1d8b63000000000000000000000000000000000000000000000000000000007fffffffff0000000000000000000000000000000000000000000000000000000084167f01ffc9a700000000000000000000000000000000000000000000000000000000148061038b57507fffffffff00000000000000000000000000000000000000000000000000000000848116908216145b949350505050565b6060600380546103a29061112e565b80601f01602080910402602001604051908101604052809291908181526020018280546103ce9061112e565b801561041b5780601f106103f05761010080835404028352916020019161041b565b820191906000526020600020905b8154815290600101906020018083116103fe57829003601f168201915b5050505050905090565b600033610433818585610752565b5060019392505050565b60003361044b858285610906565b6104568585856109dd565b506001949350505050565b33600081815260016020908152604080832073ffffffffffffffffffffffffffffffffffffffff8716845290915281205490919061043390829086906104a89087906111b0565b610752565b60065473ffffffffffffffffffffffffffffffffffffffff163314610533576040517f08c379a000000000000000000000000000000000000000000000000000000000815260206004820181905260248201527f4f6e6c79204c32204272696467652063616e206d696e7420616e64206275726e60448201526064015b60405180910390fd5b61053d8282610c90565b8173ffffffffffffffffffffffffffffffffffffffff167f0f6798a560793a54c3bcfe86a93cde1e73087d944c0ea20544137d41213968858260405161058591815260200190565b60405180910390a25050565b6060600480546103a29061112e565b60065473ffffffffffffffffffffffffffffffffffffffff163314610621576040517f08c379a000000000000000000000000000000000000000000000000000000000815260206004820181905260248201527f4f6e6c79204c32204272696467652063616e206d696e7420616e64206275726e604482015260640161052a565b61062b8282610db0565b8173ffffffffffffffffffffffffffffffffffffffff167fcc16f5dbb4873280815c1ee09dbd06736cffcc184412cf7a71a0fdb75d397ca58260405161058591815260200190565b33600081815260016020908152604080832073ffffffffffffffffffffffffffffffffffffffff8716845290915281205490919083811015610737576040517f08c379a000000000000000000000000000000000000000000000000000000000815260206004820152602560248201527f45524332303a2064656372656173656420616c6c6f77616e63652062656c6f7760448201527f207a65726f000000000000000000000000000000000000000000000000000000606482015260840161052a565b6104568286868403610752565b6000336104338185856109dd565b73ffffffffffffffffffffffffffffffffffffffff83166107f4576040517f08c379a0000000000000000000000000000000000000000000000000000000008152602060048201526024808201527f45524332303a20617070726f76652066726f6d20746865207a65726f2061646460448201527f7265737300000000000000000000000000000000000000000000000000000000606482015260840161052a565b73ffffffffffffffffffffffffffffffffffffffff8216610897576040517f08c379a000000000000000000000000000000000000000000000000000000000815260206004820152602260248201527f45524332303a20617070726f766520746f20746865207a65726f20616464726560448201527f7373000000000000000000000000000000000000000000000000000000000000606482015260840161052a565b73ffffffffffffffffffffffffffffffffffffffff83811660008181526001602090815260408083209487168084529482529182902085905590518481527f8c5be1e5ebec7d5bd14f71427d1e84f3dd0314c0f7b2291e5b200ac8c7c3b92591015b60405180910390a3505050565b73ffffffffffffffffffffffffffffffffffffffff8381166000908152600160209081526040808320938616835292905220547fffffffffffffffffffffffffffffffffffffffffffffffffffffffffffffffff81146109d757818110156109ca576040517f08c379a000000000000000000000000000000000000000000000000000000000815260206004820152601d60248201527f45524332303a20696e73756666696369656e7420616c6c6f77616e6365000000604482015260640161052a565b6109d78484848403610752565b50505050565b73ffffffffffffffffffffffffffffffffffffffff8316610a80576040517f08c379a000000000000000000000000000000000000000000000000000000000815260206004820152602560248201527f45524332303a207472616e736665722066726f6d20746865207a65726f20616460448201527f6472657373000000000000000000000000000000000000000000000000000000606482015260840161052a565b73ffffffffffffffffffffffffffffffffffffffff8216610b23576040517f08c379a000000000000000000000000000000000000000000000000000000000815260206004820152602360248201527f45524332303a207472616e7366657220746f20746865207a65726f206164647260448201527f6573730000000000000000000000000000000000000000000000000000000000606482015260840161052a565b73ffffffffffffffffffffffffffffffffffffffff831660009081526020819052604090205481811015610bd9576040517f08c379a000000000000000000000000000000000000000000000000000000000815260206004820152602660248201527f45524332303a207472616e7366657220616d6f756e742065786365656473206260448201527f616c616e63650000000000000000000000000000000000000000000000000000606482015260840161052a565b73ffffffffffffffffffffffffffffffffffffffff808516600090815260208190526040808220858503905591851681529081208054849290610c1d9084906111b0565b925050819055508273ffffffffffffffffffffffffffffffffffffffff168473ffffffffffffffffffffffffffffffffffffffff167fddf252ad1be2c89b69c2b068fc378daa952ba7f163c4a11628f55a4df523b3ef84604051610c8391815260200190565b60405180910390a36109d7565b73ffffffffffffffffffffffffffffffffffffffff8216610d0d576040517f08c379a000000000000000000000000000000000000000000000000000000000815260206004820152601f60248201527f45524332303a206d696e7420746f20746865207a65726f206164647265737300604482015260640161052a565b8060026000828254610d1f91906111b0565b909155505073ffffffffffffffffffffffffffffffffffffffff821660009081526020819052604081208054839290610d599084906111b0565b909155505060405181815273ffffffffffffffffffffffffffffffffffffffff8316906000907fddf252ad1be2c89b69c2b068fc378daa952ba7f163c4a11628f55a4df523b3ef9060200160405180910390a35050565b73ffffffffffffffffffffffffffffffffffffffff8216610e53576040517f08c379a000000000000000000000000000000000000000000000000000000000815260206004820152602160248201527f45524332303a206275726e2066726f6d20746865207a65726f2061646472657360448201527f7300000000000000000000000000000000000000000000000000000000000000606482015260840161052a565b73ffffffffffffffffffffffffffffffffffffffff821660009081526020819052604090205481811015610f09576040517f08c379a000000000000000000000000000000000000000000000000000000000815260206004820152602260248201527f45524332303a206275726e20616d6f756e7420657863656564732062616c616e60448201527f6365000000000000000000000000000000000000000000000000000000000000606482015260840161052a565b73ffffffffffffffffffffffffffffffffffffffff83166000908152602081905260408120838303905560028054849290610f459084906111c8565b909155505060405182815260009073ffffffffffffffffffffffffffffffffffffffff8516907fddf252ad1be2c89b69c2b068fc378daa952ba7f163c4a11628f55a4df523b3ef906020016108f9565b600060208284031215610fa757600080fd5b81357fffffffff0000000000000000000000000000000000000000000000000000000081168114610fd757600080fd5b9392505050565b600060208083528351808285015260005b8181101561100b57858101830151858201604001528201610fef565b8181111561101d576000604083870101525b50601f017fffffffffffffffffffffffffffffffffffffffffffffffffffffffffffffffe016929092016040019392505050565b803573ffffffffffffffffffffffffffffffffffffffff8116811461107557600080fd5b919050565b6000806040838503121561108d57600080fd5b61109683611051565b946020939093013593505050565b6000806000606084860312156110b957600080fd5b6110c284611051565b92506110d060208501611051565b9150604084013590509250925092565b6000602082840312156110f257600080fd5b610fd782611051565b6000806040838503121561110e57600080fd5b61111783611051565b915061112560208401611051565b90509250929050565b600181811c9082168061114257607f821691505b60208210810361117b577f4e487b7100000000000000000000000000000000000000000000000000000000600052602260045260246000fd5b50919050565b7f4e487b7100000000000000000000000000000000000000000000000000000000600052601160045260246000fd5b600082198211156111c3576111c3611181565b500190565b6000828210156111da576111da611181565b50039056fea164736f6c634300080f000a",
    "linkReferences": {}
  },
  "methodIdentifiers": {
    "allowance(address,address)": "dd62ed3e",
    "approve(address,uint256)": "095ea7b3",
    "balanceOf(address)": "70a08231",
    "burn(address,uint256)": "9dc29fac",
    "decimals()": "313ce567",
    "decreaseAllowance(address,uint256)": "a457c2d7",
    "increaseAllowance(address,uint256)": "39509351",
    "l1Token()": "c01e1bd6",
    "l2Bridge()": "ae1f6aaf",
    "mint(address,uint256)": "40c10f19",
    "name()": "06fdde03",
    "supportsInterface(bytes4)": "01ffc9a7",
    "symbol()": "95d89b41",
    "totalSupply()": "18160ddd",
    "transfer(address,uint256)": "a9059cbb",
    "transferFrom(address,address,uint256)": "23b872dd"
  },
  "storageLayout": {
    "storage": [
      {
        "astId": 30323,
        "contract": "src/legacy/LegacyMintableERC20.sol:LegacyMintableERC20",
        "label": "_balances",
        "offset": 0,
        "slot": "0",
        "type": "t_mapping(t_address,t_uint256)"
      },
      {
        "astId": 30329,
        "contract": "src/legacy/LegacyMintableERC20.sol:LegacyMintableERC20",
        "label": "_allowances",
        "offset": 0,
        "slot": "1",
        "type": "t_mapping(t_address,t_mapping(t_address,t_uint256))"
      },
      {
        "astId": 30331,
        "contract": "src/legacy/LegacyMintableERC20.sol:LegacyMintableERC20",
        "label": "_totalSupply",
        "offset": 0,
        "slot": "2",
        "type": "t_uint256"
      },
      {
        "astId": 30333,
        "contract": "src/legacy/LegacyMintableERC20.sol:LegacyMintableERC20",
        "label": "_name",
        "offset": 0,
        "slot": "3",
        "type": "t_string_storage"
      },
      {
        "astId": 30335,
        "contract": "src/legacy/LegacyMintableERC20.sol:LegacyMintableERC20",
        "label": "_symbol",
        "offset": 0,
        "slot": "4",
        "type": "t_string_storage"
      },
      {
        "astId": 67409,
        "contract": "src/legacy/LegacyMintableERC20.sol:LegacyMintableERC20",
        "label": "l1Token",
        "offset": 0,
        "slot": "5",
        "type": "t_address"
      },
      {
        "astId": 67412,
        "contract": "src/legacy/LegacyMintableERC20.sol:LegacyMintableERC20",
        "label": "l2Bridge",
        "offset": 0,
        "slot": "6",
        "type": "t_address"
      }
    ],
    "types": {
      "t_address": {
        "encoding": "inplace",
        "label": "address",
        "numberOfBytes": "20"
      },
      "t_mapping(t_address,t_mapping(t_address,t_uint256))": {
        "encoding": "mapping",
        "key": "t_address",
        "label": "mapping(address => mapping(address => uint256))",
        "numberOfBytes": "32",
        "value": "t_mapping(t_address,t_uint256)"
      },
      "t_mapping(t_address,t_uint256)": {
        "encoding": "mapping",
        "key": "t_address",
        "label": "mapping(address => uint256)",
        "numberOfBytes": "32",
        "value": "t_uint256"
      },
      "t_string_storage": {
        "encoding": "bytes",
        "label": "string",
        "numberOfBytes": "32"
      },
      "t_uint256": {
        "encoding": "inplace",
        "label": "uint256",
        "numberOfBytes": "32"
      }
    }
  },
  "userdoc": {
    "version": 1,
    "kind": "user",
    "methods": {
      "burn(address,uint256)": {
        "notice": "Only the bridge can burn tokens."
      },
      "l1Token()": {
        "notice": "The token on the remote domain."
      },
      "l2Bridge()": {
        "notice": "The local bridge."
      },
      "mint(address,uint256)": {
        "notice": "Only the bridge can mint tokens."
      },
      "supportsInterface(bytes4)": {
        "notice": "EIP165 implementation."
      }
    },
    "events": {
      "Burn(address,uint256)": {
        "notice": "Emitted when a token is burned by the bridge."
      },
      "Mint(address,uint256)": {
        "notice": "Emitted when the token is minted by the bridge."
      }
    },
    "notice": "The legacy implementation of the OptimismMintableERC20. This         contract is deprecated and should no longer be used."
  },
  "devdoc": {
    "version": 1,
    "kind": "dev",
    "methods": {
      "allowance(address,address)": {
        "details": "See {IERC20-allowance}."
      },
      "approve(address,uint256)": {
        "details": "See {IERC20-approve}. NOTE: If `amount` is the maximum `uint256`, the allowance is not updated on `transferFrom`. This is semantically equivalent to an infinite approval. Requirements: - `spender` cannot be the zero address."
      },
      "balanceOf(address)": {
        "details": "See {IERC20-balanceOf}."
      },
      "burn(address,uint256)": {
        "params": {
          "_amount": "The amount of tokens being burnt.",
          "_from": "The account having tokens burnt."
        }
      },
      "constructor": {
        "params": {
          "_l1Token": "Address of the corresponding L1 token.",
          "_l2Bridge": "Address of the L2 standard bridge.",
          "_name": "ERC20 name.",
          "_symbol": "ERC20 symbol."
        }
      },
      "decimals()": {
        "details": "Returns the number of decimals used to get its user representation. For example, if `decimals` equals `2`, a balance of `505` tokens should be displayed to a user as `5.05` (`505 / 10 ** 2`). Tokens usually opt for a value of 18, imitating the relationship between Ether and Wei. This is the value {ERC20} uses, unless this function is overridden; NOTE: This information is only used for _display_ purposes: it in no way affects any of the arithmetic of the contract, including {IERC20-balanceOf} and {IERC20-transfer}."
      },
      "decreaseAllowance(address,uint256)": {
        "details": "Atomically decreases the allowance granted to `spender` by the caller. This is an alternative to {approve} that can be used as a mitigation for problems described in {IERC20-approve}. Emits an {Approval} event indicating the updated allowance. Requirements: - `spender` cannot be the zero address. - `spender` must have allowance for the caller of at least `subtractedValue`."
      },
      "increaseAllowance(address,uint256)": {
        "details": "Atomically increases the allowance granted to `spender` by the caller. This is an alternative to {approve} that can be used as a mitigation for problems described in {IERC20-approve}. Emits an {Approval} event indicating the updated allowance. Requirements: - `spender` cannot be the zero address."
      },
      "mint(address,uint256)": {
        "params": {
          "_amount": "The amount of tokens to receive.",
          "_to": "The account receiving tokens."
        }
      },
      "name()": {
        "details": "Returns the name of the token."
      },
      "symbol()": {
        "details": "Returns the symbol of the token, usually a shorter version of the name."
      },
      "totalSupply()": {
        "details": "See {IERC20-totalSupply}."
      },
      "transfer(address,uint256)": {
        "details": "See {IERC20-transfer}. Requirements: - `to` cannot be the zero address. - the caller must have a balance of at least `amount`."
      },
      "transferFrom(address,address,uint256)": {
        "details": "See {IERC20-transferFrom}. Emits an {Approval} event indicating the updated allowance. This is not required by the EIP. See the note at the beginning of {ERC20}. NOTE: Does not update the allowance if the current allowance is the maximum `uint256`. Requirements: - `from` and `to` cannot be the zero address. - `from` must have a balance of at least `amount`. - the caller must have allowance for ``from``'s tokens of at least `amount`."
      }
    },
    "title": "LegacyMintableERC20"
  },
  "id": 136
}