{
  "abi": [
    {
      "inputs": [
        {
          "internalType": "bytes",
          "name": "message",
          "type": "bytes"
        }
      ],
      "name": "getMessageHash",
      "outputs": [
        {
          "internalType": "bytes32",
          "name": "",
          "type": "bytes32"
        }
      ],
      "stateMutability": "view",
      "type": "function"
    },
    {
      "inputs": [
        {
          "internalType": "contract Safe",
          "name": "safe",
          "type": "address"
        },
        {
          "internalType": "bytes",
          "name": "message",
          "type": "bytes"
        }
      ],
      "name": "getMessageHashForSafe",
      "outputs": [
        {
          "internalType": "bytes32",
          "name": "",
          "type": "bytes32"
        }
      ],
      "stateMutability": "view",
      "type": "function"
    },
    {
      "inputs": [],
      "name": "getModules",
      "outputs": [
        {
          "internalType": "address[]",
          "name": "",
          "type": "address[]"
        }
      ],
      "stateMutability": "view",
      "type": "function"
    },
    {
      "inputs": [
        {
          "internalType": "bytes32",
          "name": "_dataHash",
          "type": "bytes32"
        },
        {
          "internalType": "bytes",
          "name": "_signature",
          "type": "bytes"
        }
      ],
      "name": "isValidSignature",
      "outputs": [
        {
          "internalType": "bytes4",
          "name": "",
          "type": "bytes4"
        }
      ],
      "stateMutability": "view",
      "type": "function"
    },
    {
      "inputs": [
        {
          "internalType": "bytes",
          "name": "_data",
          "type": "bytes"
        },
        {
          "internalType": "bytes",
          "name": "_signature",
          "type": "bytes"
        }
      ],
      "name": "isValidSignature",
      "outputs": [
        {
          "internalType": "bytes4",
          "name": "",
          "type": "bytes4"
        }
      ],
      "stateMutability": "view",
      "type": "function"
    },
    {
      "inputs": [
        {
          "internalType": "address",
          "name": "",
          "type": "address"
        },
        {
          "internalType": "address",
          "name": "",
          "type": "address"
        },
        {
          "internalType": "uint256[]",
          "name": "",
          "type": "uint256[]"
        },
        {
          "internalType": "uint256[]",
          "name": "",
          "type": "uint256[]"
        },
        {
          "internalType": "bytes",
          "name": "",
          "type": "bytes"
        }
      ],
      "name": "onERC1155BatchReceived",
      "outputs": [
        {
          "internalType": "bytes4",
          "name": "",
          "type": "bytes4"
        }
      ],
      "stateMutability": "pure",
      "type": "function"
    },
    {
      "inputs": [
        {
          "internalType": "address",
          "name": "",
          "type": "address"
        },
        {
          "internalType": "address",
          "name": "",
          "type": "address"
        },
        {
          "internalType": "uint256",
          "name": "",
          "type": "uint256"
        },
        {
          "internalType": "uint256",
          "name": "",
          "type": "uint256"
        },
        {
          "internalType": "bytes",
          "name": "",
          "type": "bytes"
        }
      ],
      "name": "onERC1155Received",
      "outputs": [
        {
          "internalType": "bytes4",
          "name": "",
          "type": "bytes4"
        }
      ],
      "stateMutability": "pure",
      "type": "function"
    },
    {
      "inputs": [
        {
          "internalType": "address",
          "name": "",
          "type": "address"
        },
        {
          "internalType": "address",
          "name": "",
          "type": "address"
        },
        {
          "internalType": "uint256",
          "name": "",
          "type": "uint256"
        },
        {
          "internalType": "bytes",
          "name": "",
          "type": "bytes"
        }
      ],
      "name": "onERC721Received",
      "outputs": [
        {
          "internalType": "bytes4",
          "name": "",
          "type": "bytes4"
        }
      ],
      "stateMutability": "pure",
      "type": "function"
    },
    {
      "inputs": [
        {
          "internalType": "address",
          "name": "targetContract",
          "type": "address"
        },
        {
          "internalType": "bytes",
          "name": "calldataPayload",
          "type": "bytes"
        }
      ],
      "name": "simulate",
      "outputs": [
        {
          "internalType": "bytes",
          "name": "response",
          "type": "bytes"
        }
      ],
      "stateMutability": "nonpayable",
      "type": "function"
    },
    {
      "inputs": [
        {
          "internalType": "bytes4",
          "name": "interfaceId",
          "type": "bytes4"
        }
      ],
      "name": "supportsInterface",
      "outputs": [
        {
          "internalType": "bool",
          "name": "",
          "type": "bool"
        }
      ],
      "stateMutability": "view",
      "type": "function"
    },
    {
      "inputs": [
        {
          "internalType": "address",
          "name": "",
          "type": "address"
        },
        {
          "internalType": "address",
          "name": "",
          "type": "address"
        },
        {
          "internalType": "address",
          "name": "",
          "type": "address"
        },
        {
          "internalType": "uint256",
          "name": "",
          "type": "uint256"
        },
        {
          "internalType": "bytes",
          "name": "",
          "type": "bytes"
        },
        {
          "internalType": "bytes",
          "name": "",
          "type": "bytes"
        }
      ],
      "name": "tokensReceived",
      "outputs": [],
      "stateMutability": "pure",
      "type": "function"
    }
  ],
  "bytecode": {
    "object": "0x608060405234801561001057600080fd5b506110e2806100206000396000f3fe608060405234801561001057600080fd5b50600436106100c85760003560e01c806320c13b0b11610081578063bc197c811161005b578063bc197c81146101e7578063bd61951d14610222578063f23a6e611461024257600080fd5b806320c13b0b146101ac5780636ac24784146101bf578063b2494df3146101d257600080fd5b80630a1028c4116100b25780630a1028c41461010f578063150b7a02146101305780631626ba7e1461019957600080fd5b806223de29146100cd57806301ffc9a7146100e7575b600080fd5b6100e56100db366004610918565b5050505050505050565b005b6100fa6100f53660046109f7565b61027b565b60405190151581526020015b60405180910390f35b61012261011d366004610b20565b610360565b604051908152602001610106565b61016861013e366004610b5d565b7f150b7a020000000000000000000000000000000000000000000000000000000095945050505050565b6040517fffffffff000000000000000000000000000000000000000000000000000000009091168152602001610106565b6101686101a7366004610bd0565b61036c565b6101686101ba366004610c1c565b61048d565b6101226101cd366004610c80565b610658565b6101da610795565b6040516101069190610cc6565b6101686101f5366004610d65565b7fbc197c810000000000000000000000000000000000000000000000000000000098975050505050505050565b610235610230366004610e03565b610847565b6040516101069190610ea3565b610168610250366004610eb6565b7ff23a6e61000000000000000000000000000000000000000000000000000000009695505050505050565b60007fffffffff0000000000000000000000000000000000000000000000000000000082167f4e2312e000000000000000000000000000000000000000000000000000000000148061030e57507fffffffff0000000000000000000000000000000000000000000000000000000082167f150b7a0200000000000000000000000000000000000000000000000000000000145b8061035a57507fffffffff0000000000000000000000000000000000000000000000000000000082167f01ffc9a700000000000000000000000000000000000000000000000000000000145b92915050565b600061035a3383610658565b60408051602080820186905282518083039091018152818301928390527f20c13b0b000000000000000000000000000000000000000000000000000000009092526000913391839183916320c13b0b916103cc9189908990604401610f32565b602060405180830381865afa1580156103e9573d6000803e3d6000fd5b505050506040513d601f19601f8201168201806040525081019061040d9190610f96565b90507fffffffff0000000000000000000000000000000000000000000000000000000081167f20c13b0b000000000000000000000000000000000000000000000000000000001461045f576000610481565b7f1626ba7e000000000000000000000000000000000000000000000000000000005b925050505b9392505050565b6000338161049b8286610658565b905083516000036105a7576040517f5ae6bd370000000000000000000000000000000000000000000000000000000081526004810182905273ffffffffffffffffffffffffffffffffffffffff831690635ae6bd3790602401602060405180830381865afa158015610511573d6000803e3d6000fd5b505050506040513d601f19601f820116820180604052508101906105359190610fb3565b6000036105a2576040517f08c379a000000000000000000000000000000000000000000000000000000000815260206004820152601160248201527f48617368206e6f7420617070726f766564000000000000000000000000000000604482015260640160405180910390fd5b61062e565b6040517f934f3a1100000000000000000000000000000000000000000000000000000000815273ffffffffffffffffffffffffffffffffffffffff83169063934f3a11906105fd90849089908990600401610fcc565b60006040518083038186803b15801561061557600080fd5b505afa158015610629573d6000803e3d6000fd5b505050505b507f20c13b0b00000000000000000000000000000000000000000000000000000000949350505050565b6000807f60b3cbf8b4a223d68d641b3b6ddf9a298e7f33710cf3d3a9d1146b5a6150fbca60001b83805190602001206040516020016106a1929190918252602082015260400190565b604051602081830303815290604052805190602001209050601960f81b600160f81b8573ffffffffffffffffffffffffffffffffffffffff1663f698da256040518163ffffffff1660e01b8152600401602060405180830381865afa15801561070e573d6000803e3d6000fd5b505050506040513d601f19601f820116820180604052508101906107329190610fb3565b6040517fff0000000000000000000000000000000000000000000000000000000000000093841660208201529290911660218301526022820152604281018290526062016040516020818303038152906040528051906020012091505092915050565b6040517fcc2f845200000000000000000000000000000000000000000000000000000000815260016004820152600a60248201526060903390600090829063cc2f845290604401600060405180830381865afa1580156107f9573d6000803e3d6000fd5b505050506040513d6000823e601f3d9081017fffffffffffffffffffffffffffffffffffffffffffffffffffffffffffffffe016820160405261083f9190810190611011565b509392505050565b60606040517fb4faba09000000000000000000000000000000000000000000000000000000008152600436036004808301376020600036836000335af1505060203d036040519150808201604052806020833e5060005161048657805160208201fd5b73ffffffffffffffffffffffffffffffffffffffff811681146108cc57600080fd5b50565b60008083601f8401126108e157600080fd5b50813567ffffffffffffffff8111156108f957600080fd5b60208301915083602082850101111561091157600080fd5b9250929050565b60008060008060008060008060c0898b03121561093457600080fd5b883561093f816108aa565b9750602089013561094f816108aa565b9650604089013561095f816108aa565b955060608901359450608089013567ffffffffffffffff8082111561098357600080fd5b61098f8c838d016108cf565b909650945060a08b01359150808211156109a857600080fd5b506109b58b828c016108cf565b999c989b5096995094979396929594505050565b7fffffffff00000000000000000000000000000000000000000000000000000000811681146108cc57600080fd5b600060208284031215610a0957600080fd5b8135610486816109c9565b7f4e487b7100000000000000000000000000000000000000000000000000000000600052604160045260246000fd5b604051601f82017fffffffffffffffffffffffffffffffffffffffffffffffffffffffffffffffe016810167ffffffffffffffff81118282101715610a8a57610a8a610a14565b604052919050565b600082601f830112610aa357600080fd5b813567ffffffffffffffff811115610abd57610abd610a14565b610aee60207fffffffffffffffffffffffffffffffffffffffffffffffffffffffffffffffe0601f84011601610a43565b818152846020838601011115610b0357600080fd5b816020850160208301376000918101602001919091529392505050565b600060208284031215610b3257600080fd5b813567ffffffffffffffff811115610b4957600080fd5b610b5584828501610a92565b949350505050565b600080600080600060808688031215610b7557600080fd5b8535610b80816108aa565b94506020860135610b90816108aa565b935060408601359250606086013567ffffffffffffffff811115610bb357600080fd5b610bbf888289016108cf565b969995985093965092949392505050565b600080600060408486031215610be557600080fd5b83359250602084013567ffffffffffffffff811115610c0357600080fd5b610c0f868287016108cf565b9497909650939450505050565b60008060408385031215610c2f57600080fd5b823567ffffffffffffffff80821115610c4757600080fd5b610c5386838701610a92565b93506020850135915080821115610c6957600080fd5b50610c7685828601610a92565b9150509250929050565b60008060408385031215610c9357600080fd5b8235610c9e816108aa565b9150602083013567ffffffffffffffff811115610cba57600080fd5b610c7685828601610a92565b6020808252825182820181905260009190848201906040850190845b81811015610d1457835173ffffffffffffffffffffffffffffffffffffffff1683529284019291840191600101610ce2565b50909695505050505050565b60008083601f840112610d3257600080fd5b50813567ffffffffffffffff811115610d4a57600080fd5b6020830191508360208260051b850101111561091157600080fd5b60008060008060008060008060a0898b031215610d8157600080fd5b8835610d8c816108aa565b97506020890135610d9c816108aa565b9650604089013567ffffffffffffffff80821115610db957600080fd5b610dc58c838d01610d20565b909850965060608b0135915080821115610dde57600080fd5b610dea8c838d01610d20565b909650945060808b01359150808211156109a857600080fd5b600080600060408486031215610e1857600080fd5b8335610e23816108aa565b9250602084013567ffffffffffffffff811115610c0357600080fd5b6000815180845260005b81811015610e6557602081850181015186830182015201610e49565b5060006020828601015260207fffffffffffffffffffffffffffffffffffffffffffffffffffffffffffffffe0601f83011685010191505092915050565b6020815260006104866020830184610e3f565b60008060008060008060a08789031215610ecf57600080fd5b8635610eda816108aa565b95506020870135610eea816108aa565b94506040870135935060608701359250608087013567ffffffffffffffff811115610f1457600080fd5b610f2089828a016108cf565b979a9699509497509295939492505050565b604081526000610f456040830186610e3f565b82810360208401528381528385602083013760006020858301015260207fffffffffffffffffffffffffffffffffffffffffffffffffffffffffffffffe0601f860116820101915050949350505050565b600060208284031215610fa857600080fd5b8151610486816109c9565b600060208284031215610fc557600080fd5b5051919050565b838152606060208201526000610fe56060830185610e3f565b8281036040840152610ff78185610e3f565b9695505050505050565b805161100c816108aa565b919050565b6000806040838503121561102457600080fd5b825167ffffffffffffffff8082111561103c57600080fd5b818501915085601f83011261105057600080fd5b815160208282111561106457611064610a14565b8160051b9250611075818401610a43565b828152928401810192818101908985111561108f57600080fd5b948201945b848610156110b957855193506110a9846108aa565b8382529482019490820190611094565b96506110c89050878201611001565b945050505050925092905056fea164736f6c6343000818000a",
    "linkReferences": {}
  },
  "methodIdentifiers": {
    "getMessageHash(bytes)": "0a1028c4",
    "getMessageHashForSafe(address,bytes)": "6ac24784",
    "getModules()": "b2494df3",
    "isValidSignature(bytes,bytes)": "20c13b0b",
    "isValidSignature(bytes32,bytes)": "1626ba7e",
    "onERC1155BatchReceived(address,address,uint256[],uint256[],bytes)": "bc197c81",
    "onERC1155Received(address,address,uint256,uint256,bytes)": "f23a6e61",
    "onERC721Received(address,address,uint256,bytes)": "150b7a02",
    "simulate(address,bytes)": "bd61951d",
    "supportsInterface(bytes4)": "01ffc9a7",
    "tokensReceived(address,address,address,uint256,bytes,bytes)": "0023de29"
  },
  "storageLayout": {
    "storage": [],
    "types": {}
  },
  "userdoc": {
    "version": 1,
    "kind": "user",
    "methods": {
      "isValidSignature(bytes,bytes)": {
        "notice": "Implementation of ISignatureValidator (see `interfaces/ISignatureValidator.sol`)"
      },
      "isValidSignature(bytes32,bytes)": {
        "notice": "Implementation of updated EIP-1271See https://github.com/gnosis/util-contracts/blob/bb5fe5fb5df6d8400998094fb1b32a178a47c3a1/contracts/StorageAccessible.sol"
      }
    }
  },
  "devdoc": {
    "version": 1,
    "kind": "dev",
    "author": "Richard Meissner - <richard@gnosis.pm>",
    "methods": {
      "getMessageHash(bytes)": {
        "details": "Returns hash of a message that can be signed by owners.",
        "params": {
          "message": "Message that should be hashed"
        },
        "returns": {
          "_0": "Message hash."
        }
      },
      "getMessageHashForSafe(address,bytes)": {
        "details": "Returns hash of a message that can be signed by owners.",
        "params": {
          "message": "Message that should be hashed",
          "safe": "Safe to which the message is targeted"
        },
        "returns": {
          "_0": "Message hash."
        }
      },
      "getModules()": {
        "details": "Returns array of first 10 modules.",
        "returns": {
          "_0": "Array of modules."
        }
      },
      "isValidSignature(bytes,bytes)": {
        "details": "Should return whether the signature provided is valid for the provided data.",
        "params": {
          "_data": "Arbitrary length data signed on the behalf of address(msg.sender)",
          "_signature": "Signature byte array associated with _data"
        },
        "returns": {
          "_0": "a bool upon valid or invalid signature with corresponding _data"
        }
      },
      "isValidSignature(bytes32,bytes)": {
        "details": "Should return whether the signature provided is valid for the provided data.       The save does not implement the interface since `checkSignatures` is not a view method.       The method will not perform any state changes (see parameters of `checkSignatures`)",
        "params": {
          "_dataHash": "Hash of the data signed on the behalf of address(msg.sender)",
          "_signature": "Signature byte array associated with _dataHash"
        },
        "returns": {
          "_0": "a bool upon valid or invalid signature with corresponding _dataHash"
        }
      },
      "simulate(address,bytes)": {
        "details": "Performs a delegetecall on a targetContract in the context of self. Internally reverts execution to avoid side effects (making it static). Catches revert and returns encoded result as bytes.",
        "params": {
          "calldataPayload": "Calldata that should be sent to the target contract (encoded method name and arguments).",
          "targetContract": "Address of the contract containing the code to execute."
        }
      },
      "supportsInterface(bytes4)": {
        "details": "Returns true if this contract implements the interface defined by `interfaceId`. See the corresponding EIP section https://eips.ethereum.org/EIPS/eip-165#how-interfaces-are-identified to learn more about how these ids are created. This function call must use less than 30 000 gas."
      }
    },
    "title": "Compatibility Fallback Handler - fallback handler to provider compatibility between pre 1.3.0 and 1.3.0+ Safe contracts"
  },
  "id": 119
}