{
  "abi": [
    {
      "inputs": [
        {
          "internalType": "contract AttestationStation",
          "name": "_attestationStation",
          "type": "address"
        },
        {
          "internalType": "address",
          "name": "_allowlistAttestor",
          "type": "address"
        },
        {
          "internalType": "address",
          "name": "_coinbaseQuestAttestor",
          "type": "address"
        },
        {
          "internalType": "address",
          "name": "_optimistInviter",
          "type": "address"
        }
      ],
      "stateMutability": "nonpayable",
      "type": "constructor"
    },
    {
      "inputs": [],
      "name": "ALLOWLIST_ATTESTOR",
      "outputs": [
        {
          "internalType": "address",
          "name": "",
          "type": "address"
        }
      ],
      "stateMutability": "view",
      "type": "function"
    },
    {
      "inputs": [],
      "name": "ATTESTATION_STATION",
      "outputs": [
        {
          "internalType": "contract AttestationStation",
          "name": "",
          "type": "address"
        }
      ],
      "stateMutability": "view",
      "type": "function"
    },
    {
      "inputs": [],
      "name": "COINBASE_QUEST_ATTESTOR",
      "outputs": [
        {
          "internalType": "address",
          "name": "",
          "type": "address"
        }
      ],
      "stateMutability": "view",
      "type": "function"
    },
    {
      "inputs": [],
      "name": "COINBASE_QUEST_ELIGIBLE_ATTESTATION_KEY",
      "outputs": [
        {
          "internalType": "bytes32",
          "name": "",
          "type": "bytes32"
        }
      ],
      "stateMutability": "view",
      "type": "function"
    },
    {
      "inputs": [],
      "name": "OPTIMIST_CAN_MINT_ATTESTATION_KEY",
      "outputs": [
        {
          "internalType": "bytes32",
          "name": "",
          "type": "bytes32"
        }
      ],
      "stateMutability": "view",
      "type": "function"
    },
    {
      "inputs": [],
      "name": "OPTIMIST_INVITER",
      "outputs": [
        {
          "internalType": "address",
          "name": "",
          "type": "address"
        }
      ],
      "stateMutability": "view",
      "type": "function"
    },
    {
      "inputs": [
        {
          "internalType": "address",
          "name": "_claimer",
          "type": "address"
        }
      ],
      "name": "isAllowedToMint",
      "outputs": [
        {
          "internalType": "bool",
          "name": "allowed_",
          "type": "bool"
        }
      ],
      "stateMutability": "view",
      "type": "function"
    },
    {
      "inputs": [],
      "name": "version",
      "outputs": [
        {
          "internalType": "string",
          "name": "",
          "type": "string"
        }
      ],
      "stateMutability": "view",
      "type": "function"
    }
  ],
  "bytecode": {
    "object": "0x61016060405234801561001157600080fd5b50604051610a74380380610a748339810160408190526100309161007c565b6001608052600060a052600260c0526001600160a01b0393841660e0529183166101005282166101205216610140526100db565b6001600160a01b038116811461007957600080fd5b50565b6000806000806080858703121561009257600080fd5b845161009d81610064565b60208601519094506100ae81610064565b60408601519093506100bf81610064565b60608601519092506100d081610064565b939692955090935050565b60805160a05160c05160e0516101005161012051610140516109246101506000396000818161011b015261035a0152600081816092015261030d01526000818161019e01526102c001526000818161017701526105360152600061026f015260006102460152600061021d01526109246000f3fe608060405234801561001057600080fd5b50600436106100885760003560e01c8063819f7e841161005b578063819f7e841461013d578063db083d7114610172578063db3c316314610199578063e7bd804e146101c057600080fd5b80633ac52df71461008d5780634813d8a6146100de57806354fd4d50146101015780635e4f489a14610116575b600080fd5b6100b47f000000000000000000000000000000000000000000000000000000000000000081565b60405173ffffffffffffffffffffffffffffffffffffffff90911681526020015b60405180910390f35b6100f16100ec3660046105cd565b6101e7565b60405190151581526020016100d5565b610109610216565b6040516100d5919061063a565b6100b47f000000000000000000000000000000000000000000000000000000000000000081565b6101647f636f696e626173652e71756573742d656c696769626c6500000000000000000081565b6040519081526020016100d5565b6100b47f000000000000000000000000000000000000000000000000000000000000000081565b6100b47f000000000000000000000000000000000000000000000000000000000000000081565b6101647f6f7074696d6973742e63616e2d6d696e7400000000000000000000000000000081565b60006101f2826102b9565b80610201575061020182610306565b80610210575061021082610353565b92915050565b60606102417f00000000000000000000000000000000000000000000000000000000000000006103a0565b61026a7f00000000000000000000000000000000000000000000000000000000000000006103a0565b6102937f00000000000000000000000000000000000000000000000000000000000000006103a0565b6040516020016102a59392919061068b565b604051602081830303815290604052905090565b60006102107f0000000000000000000000000000000000000000000000000000000000000000837f6f7074696d6973742e63616e2d6d696e740000000000000000000000000000006104dd565b60006102107f0000000000000000000000000000000000000000000000000000000000000000837f636f696e626173652e71756573742d656c696769626c650000000000000000006104dd565b60006102107f0000000000000000000000000000000000000000000000000000000000000000837f6f7074696d6973742e63616e2d6d696e742d66726f6d2d696e766974650000006104dd565b6060816000036103e357505060408051808201909152600181527f3000000000000000000000000000000000000000000000000000000000000000602082015290565b8160005b811561040d57806103f781610730565b91506104069050600a83610797565b91506103e7565b60008167ffffffffffffffff811115610428576104286107ab565b6040519080825280601f01601f191660200182016040528015610452576020820181803683370190505b5090505b84156104d5576104676001836107da565b9150610474600a866107f1565b61047f906030610805565b60f81b8183815181106104945761049461081d565b60200101907effffffffffffffffffffffffffffffffffffffffffffffffffffffffffffff1916908160001a9053506104ce600a86610797565b9450610456565b949350505050565b6040517f29b42cb500000000000000000000000000000000000000000000000000000000815273ffffffffffffffffffffffffffffffffffffffff848116600483015283811660248301526044820183905260009182917f000000000000000000000000000000000000000000000000000000000000000016906329b42cb590606401600060405180830381865afa15801561057d573d6000803e3d6000fd5b505050506040513d6000823e601f3d9081017fffffffffffffffffffffffffffffffffffffffffffffffffffffffffffffffe01682016040526105c3919081019061084c565b5111949350505050565b6000602082840312156105df57600080fd5b813573ffffffffffffffffffffffffffffffffffffffff8116811461060357600080fd5b9392505050565b60005b8381101561062557818101518382015260200161060d565b83811115610634576000848401525b50505050565b602081526000825180602084015261065981604085016020870161060a565b601f017fffffffffffffffffffffffffffffffffffffffffffffffffffffffffffffffe0169190910160400192915050565b6000845161069d81846020890161060a565b80830190507f2e0000000000000000000000000000000000000000000000000000000000000080825285516106d9816001850160208a0161060a565b600192019182015283516106f481600284016020880161060a565b0160020195945050505050565b7f4e487b7100000000000000000000000000000000000000000000000000000000600052601160045260246000fd5b60007fffffffffffffffffffffffffffffffffffffffffffffffffffffffffffffffff820361076157610761610701565b5060010190565b7f4e487b7100000000000000000000000000000000000000000000000000000000600052601260045260246000fd5b6000826107a6576107a6610768565b500490565b7f4e487b7100000000000000000000000000000000000000000000000000000000600052604160045260246000fd5b6000828210156107ec576107ec610701565b500390565b60008261080057610800610768565b500690565b6000821982111561081857610818610701565b500190565b7f4e487b7100000000000000000000000000000000000000000000000000000000600052603260045260246000fd5b60006020828403121561085e57600080fd5b815167ffffffffffffffff8082111561087657600080fd5b818401915084601f83011261088a57600080fd5b81518181111561089c5761089c6107ab565b604051601f82017fffffffffffffffffffffffffffffffffffffffffffffffffffffffffffffffe0908116603f011681019083821181831017156108e2576108e26107ab565b816040528281528760208487010111156108fb57600080fd5b61090c83602083016020880161060a565b97965050505050505056fea164736f6c634300080f000a",
    "linkReferences": {}
  },
  "methodIdentifiers": {
    "ALLOWLIST_ATTESTOR()": "db3c3163",
    "ATTESTATION_STATION()": "db083d71",
    "COINBASE_QUEST_ATTESTOR()": "3ac52df7",
    "COINBASE_QUEST_ELIGIBLE_ATTESTATION_KEY()": "819f7e84",
    "OPTIMIST_CAN_MINT_ATTESTATION_KEY()": "e7bd804e",
    "OPTIMIST_INVITER()": "5e4f489a",
    "isAllowedToMint(address)": "4813d8a6",
    "version()": "54fd4d50"
  },
  "storageLayout": {
    "storage": [],
    "types": {}
  },
  "userdoc": {
    "version": 1,
    "kind": "user",
    "methods": {
      "ALLOWLIST_ATTESTOR()": {
        "notice": "Attestor that issues 'optimist.can-mint' attestations."
      },
      "ATTESTATION_STATION()": {
        "notice": "Address of the AttestationStation contract."
      },
      "COINBASE_QUEST_ATTESTOR()": {
        "notice": "Attestor that issues 'coinbase.quest-eligible' attestations."
      },
      "COINBASE_QUEST_ELIGIBLE_ATTESTATION_KEY()": {
        "notice": "Attestation key used by Coinbase to issue attestations for Quest participants."
      },
      "OPTIMIST_CAN_MINT_ATTESTATION_KEY()": {
        "notice": "Attestation key used by the AllowlistAttestor to manually add addresses to the         allowlist."
      },
      "OPTIMIST_INVITER()": {
        "notice": "Address of OptimistInviter contract that issues 'optimist.can-mint-from-invite'         attestations."
      },
      "isAllowedToMint(address)": {
        "notice": "Checks whether a given address is allowed to mint the Optimist NFT yet. Since the         Optimist NFT will also be used as part of the Citizens House, mints are currently         restricted. Eventually anyone will be able to mint.         Currently, address is allowed to mint if it satisfies any of the following:          1) Has a valid 'optimist.can-mint' attestation from the allowlist attestor.          2) Has a valid 'coinbase.quest-eligible' attestation from Coinbase Quest attestor          3) Has a valid 'optimist.can-mint-from-invite' attestation from the OptimistInviter             contract."
      },
      "version()": {
        "notice": "Returns the full semver contract version."
      }
    },
    "notice": "Source of truth for whether an address is able to mint an Optimist NFT.         isAllowedToMint function checks various signals to return boolean value         for whether an address is eligible or not."
  },
  "devdoc": {
    "version": 1,
    "kind": "dev",
    "methods": {
      "constructor": {
        "params": {
          "_allowlistAttestor": "Address of the allowlist attestor.",
          "_attestationStation": "Address of the AttestationStation contract.",
          "_coinbaseQuestAttestor": "Address of the Coinbase Quest attestor.",
          "_optimistInviter": "Address of the OptimistInviter contract."
        }
      },
      "isAllowedToMint(address)": {
        "params": {
          "_claimer": "Address to check."
        },
        "returns": {
          "allowed_": "Whether or not the address is allowed to mint yet."
        }
      },
      "version()": {
        "returns": {
          "_0": "Semver contract version as a string."
        }
      }
    },
    "title": "OptimistAllowlist"
  },
  "id": 198
}