{
  "abi": [
    {
      "inputs": [],
      "stateMutability": "nonpayable",
      "type": "constructor"
    },
    {
      "anonymous": false,
      "inputs": [
        {
          "indexed": true,
          "internalType": "address",
          "name": "owner",
          "type": "address"
        },
        {
          "indexed": true,
          "internalType": "address",
          "name": "spender",
          "type": "address"
        },
        {
          "indexed": false,
          "internalType": "uint256",
          "name": "value",
          "type": "uint256"
        }
      ],
      "name": "Approval",
      "type": "event"
    },
    {
      "anonymous": false,
      "inputs": [
        {
          "indexed": true,
          "internalType": "address",
          "name": "previousOwner",
          "type": "address"
        },
        {
          "indexed": true,
          "internalType": "address",
          "name": "newOwner",
          "type": "address"
        }
      ],
      "name": "OwnershipTransferred",
      "type": "event"
    },
    {
      "anonymous": false,
      "inputs": [
        {
          "indexed": true,
          "internalType": "address",
          "name": "from",
          "type": "address"
        },
        {
          "indexed": true,
          "internalType": "address",
          "name": "to",
          "type": "address"
        },
        {
          "indexed": false,
          "internalType": "uint256",
          "name": "value",
          "type": "uint256"
        }
      ],
      "name": "Transfer",
      "type": "event"
    },
    {
      "inputs": [
        {
          "internalType": "address",
          "name": "owner",
          "type": "address"
        },
        {
          "internalType": "address",
          "name": "spender",
          "type": "address"
        }
      ],
      "name": "allowance",
      "outputs": [
        {
          "internalType": "uint256",
          "name": "",
          "type": "uint256"
        }
      ],
      "stateMutability": "view",
      "type": "function"
    },
    {
      "inputs": [
        {
          "internalType": "address",
          "name": "spender",
          "type": "address"
        },
        {
          "internalType": "uint256",
          "name": "amount",
          "type": "uint256"
        }
      ],
      "name": "approve",
      "outputs": [
        {
          "internalType": "bool",
          "name": "",
          "type": "bool"
        }
      ],
      "stateMutability": "nonpayable",
      "type": "function"
    },
    {
      "inputs": [
        {
          "internalType": "address",
          "name": "spender",
          "type": "address"
        },
        {
          "internalType": "uint256",
          "name": "amount",
          "type": "uint256"
        },
        {
          "internalType": "bytes",
          "name": "data",
          "type": "bytes"
        }
      ],
      "name": "approveAndCall",
      "outputs": [
        {
          "internalType": "bool",
          "name": "",
          "type": "bool"
        }
      ],
      "stateMutability": "nonpayable",
      "type": "function"
    },
    {
      "inputs": [
        {
          "internalType": "address",
          "name": "account",
          "type": "address"
        }
      ],
      "name": "balanceOf",
      "outputs": [
        {
          "internalType": "uint256",
          "name": "",
          "type": "uint256"
        }
      ],
      "stateMutability": "view",
      "type": "function"
    },
    {
      "inputs": [],
      "name": "callbackEnabled",
      "outputs": [
        {
          "internalType": "bool",
          "name": "",
          "type": "bool"
        }
      ],
      "stateMutability": "view",
      "type": "function"
    },
    {
      "inputs": [],
      "name": "decimals",
      "outputs": [
        {
          "internalType": "uint8",
          "name": "",
          "type": "uint8"
        }
      ],
      "stateMutability": "view",
      "type": "function"
    },
    {
      "inputs": [
        {
          "internalType": "address",
          "name": "spender",
          "type": "address"
        },
        {
          "internalType": "uint256",
          "name": "subtractedValue",
          "type": "uint256"
        }
      ],
      "name": "decreaseAllowance",
      "outputs": [
        {
          "internalType": "bool",
          "name": "",
          "type": "bool"
        }
      ],
      "stateMutability": "nonpayable",
      "type": "function"
    },
    {
      "inputs": [
        {
          "internalType": "bool",
          "name": "_callbackEnabled",
          "type": "bool"
        }
      ],
      "name": "enableCallback",
      "outputs": [],
      "stateMutability": "nonpayable",
      "type": "function"
    },
    {
      "inputs": [
        {
          "internalType": "uint256",
          "name": "_amount",
          "type": "uint256"
        }
      ],
      "name": "faucet",
      "outputs": [],
      "stateMutability": "nonpayable",
      "type": "function"
    },
    {
      "inputs": [
        {
          "internalType": "address",
          "name": "spender",
          "type": "address"
        },
        {
          "internalType": "uint256",
          "name": "addedValue",
          "type": "uint256"
        }
      ],
      "name": "increaseAllowance",
      "outputs": [
        {
          "internalType": "bool",
          "name": "",
          "type": "bool"
        }
      ],
      "stateMutability": "nonpayable",
      "type": "function"
    },
    {
      "inputs": [],
      "name": "isOwner",
      "outputs": [
        {
          "internalType": "bool",
          "name": "",
          "type": "bool"
        }
      ],
      "stateMutability": "view",
      "type": "function"
    },
    {
      "inputs": [],
      "name": "name",
      "outputs": [
        {
          "internalType": "string",
          "name": "",
          "type": "string"
        }
      ],
      "stateMutability": "view",
      "type": "function"
    },
    {
      "inputs": [],
      "name": "owner",
      "outputs": [
        {
          "internalType": "address",
          "name": "",
          "type": "address"
        }
      ],
      "stateMutability": "view",
      "type": "function"
    },
    {
      "inputs": [
        {
          "internalType": "address",
          "name": "target",
          "type": "address"
        }
      ],
      "name": "renounceMinter",
      "outputs": [],
      "stateMutability": "nonpayable",
      "type": "function"
    },
    {
      "inputs": [
        {
          "internalType": "address",
          "name": "target",
          "type": "address"
        }
      ],
      "name": "renounceOwnership",
      "outputs": [],
      "stateMutability": "nonpayable",
      "type": "function"
    },
    {
      "inputs": [],
      "name": "renounceOwnership",
      "outputs": [],
      "stateMutability": "nonpayable",
      "type": "function"
    },
    {
      "inputs": [
        {
          "internalType": "address",
          "name": "target",
          "type": "address"
        }
      ],
      "name": "renouncePauser",
      "outputs": [],
      "stateMutability": "nonpayable",
      "type": "function"
    },
    {
      "inputs": [],
      "name": "seigManager",
      "outputs": [
        {
          "internalType": "contract SeigManagerI",
          "name": "",
          "type": "address"
        }
      ],
      "stateMutability": "view",
      "type": "function"
    },
    {
      "inputs": [
        {
          "internalType": "contract SeigManagerI",
          "name": "",
          "type": "address"
        }
      ],
      "name": "setSeigManager",
      "outputs": [],
      "stateMutability": "pure",
      "type": "function"
    },
    {
      "inputs": [],
      "name": "symbol",
      "outputs": [
        {
          "internalType": "string",
          "name": "",
          "type": "string"
        }
      ],
      "stateMutability": "view",
      "type": "function"
    },
    {
      "inputs": [],
      "name": "totalSupply",
      "outputs": [
        {
          "internalType": "uint256",
          "name": "",
          "type": "uint256"
        }
      ],
      "stateMutability": "view",
      "type": "function"
    },
    {
      "inputs": [
        {
          "internalType": "address",
          "name": "recipient",
          "type": "address"
        },
        {
          "internalType": "uint256",
          "name": "amount",
          "type": "uint256"
        }
      ],
      "name": "transfer",
      "outputs": [
        {
          "internalType": "bool",
          "name": "",
          "type": "bool"
        }
      ],
      "stateMutability": "nonpayable",
      "type": "function"
    },
    {
      "inputs": [
        {
          "internalType": "address",
          "name": "sender",
          "type": "address"
        },
        {
          "internalType": "address",
          "name": "recipient",
          "type": "address"
        },
        {
          "internalType": "uint256",
          "name": "amount",
          "type": "uint256"
        }
      ],
      "name": "transferFrom",
      "outputs": [
        {
          "internalType": "bool",
          "name": "",
          "type": "bool"
        }
      ],
      "stateMutability": "nonpayable",
      "type": "function"
    },
    {
      "inputs": [
        {
          "internalType": "address",
          "name": "target",
          "type": "address"
        },
        {
          "internalType": "address",
          "name": "newOwner",
          "type": "address"
        }
      ],
      "name": "transferOwnership",
      "outputs": [],
      "stateMutability": "nonpayable",
      "type": "function"
    },
    {
      "inputs": [
        {
          "internalType": "address",
          "name": "newOwner",
          "type": "address"
        }
      ],
      "name": "transferOwnership",
      "outputs": [],
      "stateMutability": "nonpayable",
      "type": "function"
    }
  ],
  "bytecode": {
    "object": "0x60806040523480156200001157600080fd5b506040518060400160405280601581526020017f546f6b616d616b204e6574776f726b20546f6b656e0000000000000000000000815250604051806040016040528060038152602001622a27a760e91b81525060126000620000786200010160201b60201c565b600380546001600160a01b0319166001600160a01b038316908117909155604051919250906000907f8be0079c531659141344cd1fd0a4f28419497f9722a3daafe3b4186f6b6457e0908290a3506004620000d48482620001aa565b506005620000e38382620001aa565b506006805460ff191660ff9290921691909117905550620002769050565b3390565b634e487b7160e01b600052604160045260246000fd5b600181811c908216806200013057607f821691505b6020821081036200015157634e487b7160e01b600052602260045260246000fd5b50919050565b601f821115620001a557600081815260208120601f850160051c81016020861015620001805750805b601f850160051c820191505b81811015620001a1578281556001016200018c565b5050505b505050565b81516001600160401b03811115620001c657620001c662000105565b620001de81620001d784546200011b565b8462000157565b602080601f831160018114620002165760008415620001fd5750858301515b600019600386901b1c1916600185901b178555620001a1565b600085815260208120601f198616915b82811015620002475788860151825594840194600190910190840162000226565b5085821015620002665787850151600019600388901b60f8161c191681555b5050505050600190811b01905550565b611f8380620002866000396000f3fe608060405234801561001057600080fd5b50600436106101a35760003560e01c80636d435421116100ee5780638f32d59b11610097578063a9059cbb11610071578063a9059cbb146103c4578063cae9ca51146103d7578063dd62ed3e146103ea578063f2fde38b1461043057600080fd5b80638f32d59b1461038957806395d89b41146103a9578063a457c2d7146103b157600080fd5b8063715018a6116100c8578063715018a6146103505780637657f20a146103585780638da5cb5b1461036b57600080fd5b80636d435421146102bd5780636fb7f558146102d057806370a082311461031a57600080fd5b806338bf3cfa11610150578063579158971161012a57806357915897146102715780635f112c6814610284578063633801131461029757600080fd5b806338bf3cfa14610238578063395093511461024b57806341eb24bb1461025e57600080fd5b806323b872dd1161018157806323b872dd146101fb5780633113ed5c1461020e578063313ce5671461022357600080fd5b806306fdde03146101a8578063095ea7b3146101c657806318160ddd146101e9575b600080fd5b6101b0610443565b6040516101bd9190611b7a565b60405180910390f35b6101d96101d4366004611baf565b6104d5565b60405190151581526020016101bd565b6002545b6040519081526020016101bd565b6101d9610209366004611bdb565b6104eb565b61022161021c366004611c2a565b6105ca565b005b60065460405160ff90911681526020016101bd565b610221610246366004611c47565b610696565b6101d9610259366004611baf565b61077a565b61022161026c366004611c47565b6107c2565b61022161027f366004611c64565b61088b565b610221610292366004611c47565b610898565b6006546101d9907501000000000000000000000000000000000000000000900460ff1681565b6102216102cb366004611c7d565b610961565b6006546102f590610100900473ffffffffffffffffffffffffffffffffffffffff1681565b60405173ffffffffffffffffffffffffffffffffffffffff90911681526020016101bd565b6101ed610328366004611c47565b73ffffffffffffffffffffffffffffffffffffffff1660009081526020819052604090205490565b610221610a67565b610221610366366004611c47565b610b57565b60035473ffffffffffffffffffffffffffffffffffffffff166102f5565b60035473ffffffffffffffffffffffffffffffffffffffff1633146101d9565b6101b0610bdf565b6101d96103bf366004611baf565b610bee565b6101d96103d2366004611baf565b610c4a565b6101d96103e5366004611ce5565b610c57565b6101ed6103f8366004611c7d565b73ffffffffffffffffffffffffffffffffffffffff918216600090815260016020908152604080832093909416825291909152205490565b61022161043e366004611c47565b610c82565b60606004805461045290611dd0565b80601f016020809104026020016040519081016040528092919081815260200182805461047e90611dd0565b80156104cb5780601f106104a0576101008083540402835291602001916104cb565b820191906000526020600020905b8154815290600101906020018083116104ae57829003601f168201915b5050505050905090565b60006104e2338484610d0c565b50600192915050565b60003373ffffffffffffffffffffffffffffffffffffffff8516148061052657503373ffffffffffffffffffffffffffffffffffffffff8416145b6105b7576040517f08c379a000000000000000000000000000000000000000000000000000000000815260206004820152603060248201527f53656967546f6b656e3a206f6e6c792073656e646572206f722072656369706960448201527f656e742063616e207472616e736665720000000000000000000000000000000060648201526084015b60405180910390fd5b6105c2848484610ec0565b949350505050565b60035473ffffffffffffffffffffffffffffffffffffffff16331461064b576040517f08c379a000000000000000000000000000000000000000000000000000000000815260206004820181905260248201527f4f776e61626c653a2063616c6c6572206973206e6f7420746865206f776e657260448201526064016105ae565b600680549115157501000000000000000000000000000000000000000000027fffffffffffffffffffff00ffffffffffffffffffffffffffffffffffffffffff909216919091179055565b60035473ffffffffffffffffffffffffffffffffffffffff163314610717576040517f08c379a000000000000000000000000000000000000000000000000000000000815260206004820181905260248201527f4f776e61626c653a2063616c6c6572206973206e6f7420746865206f776e657260448201526064016105ae565b8073ffffffffffffffffffffffffffffffffffffffff1663715018a66040518163ffffffff1660e01b8152600401600060405180830381600087803b15801561075f57600080fd5b505af1158015610773573d6000803e3d6000fd5b5050505050565b33600081815260016020908152604080832073ffffffffffffffffffffffffffffffffffffffff8716845290915281205490916104e29185906107bd9086610f27565b610d0c565b60035473ffffffffffffffffffffffffffffffffffffffff163314610843576040517f08c379a000000000000000000000000000000000000000000000000000000000815260206004820181905260248201527f4f776e61626c653a2063616c6c6572206973206e6f7420746865206f776e657260448201526064016105ae565b8073ffffffffffffffffffffffffffffffffffffffff16636ef8d66d6040518163ffffffff1660e01b8152600401600060405180830381600087803b15801561075f57600080fd5b6108953382610fa7565b50565b60035473ffffffffffffffffffffffffffffffffffffffff163314610919576040517f08c379a000000000000000000000000000000000000000000000000000000000815260206004820181905260248201527f4f776e61626c653a2063616c6c6572206973206e6f7420746865206f776e657260448201526064016105ae565b8073ffffffffffffffffffffffffffffffffffffffff1663986502756040518163ffffffff1660e01b8152600401600060405180830381600087803b15801561075f57600080fd5b60035473ffffffffffffffffffffffffffffffffffffffff1633146109e2576040517f08c379a000000000000000000000000000000000000000000000000000000000815260206004820181905260248201527f4f776e61626c653a2063616c6c6572206973206e6f7420746865206f776e657260448201526064016105ae565b6040517ff2fde38b00000000000000000000000000000000000000000000000000000000815273ffffffffffffffffffffffffffffffffffffffff828116600483015283169063f2fde38b90602401600060405180830381600087803b158015610a4b57600080fd5b505af1158015610a5f573d6000803e3d6000fd5b505050505050565b60035473ffffffffffffffffffffffffffffffffffffffff163314610ae8576040517f08c379a000000000000000000000000000000000000000000000000000000000815260206004820181905260248201527f4f776e61626c653a2063616c6c6572206973206e6f7420746865206f776e657260448201526064016105ae565b60035460405160009173ffffffffffffffffffffffffffffffffffffffff16907f8be0079c531659141344cd1fd0a4f28419497f9722a3daafe3b4186f6b6457e0908390a3600380547fffffffffffffffffffffffff0000000000000000000000000000000000000000169055565b6040517f08c379a000000000000000000000000000000000000000000000000000000000815260206004820152602560248201527f544f4e3a20544f4e20646f65736e277420616c6c6f7720736574536569674d6160448201527f6e6167657200000000000000000000000000000000000000000000000000000060648201526084016105ae565b60606005805461045290611dd0565b60006104e233846107bd85604051806060016040528060258152602001611f526025913933600090815260016020908152604080832073ffffffffffffffffffffffffffffffffffffffff8d16845290915290205491906110b4565b60006104e2338484611108565b6000610c6384846104d5565b610c6c57600080fd5b610c7833858585611218565b5060019392505050565b60035473ffffffffffffffffffffffffffffffffffffffff163314610d03576040517f08c379a000000000000000000000000000000000000000000000000000000000815260206004820181905260248201527f4f776e61626c653a2063616c6c6572206973206e6f7420746865206f776e657260448201526064016105ae565b610895816114a9565b73ffffffffffffffffffffffffffffffffffffffff8316610dae576040517f08c379a0000000000000000000000000000000000000000000000000000000008152602060048201526024808201527f45524332303a20617070726f76652066726f6d20746865207a65726f2061646460448201527f726573730000000000000000000000000000000000000000000000000000000060648201526084016105ae565b73ffffffffffffffffffffffffffffffffffffffff8216610e51576040517f08c379a000000000000000000000000000000000000000000000000000000000815260206004820152602260248201527f45524332303a20617070726f766520746f20746865207a65726f20616464726560448201527f737300000000000000000000000000000000000000000000000000000000000060648201526084016105ae565b73ffffffffffffffffffffffffffffffffffffffff83811660008181526001602090815260408083209487168084529482529182902085905590518481527f8c5be1e5ebec7d5bd14f71427d1e84f3dd0314c0f7b2291e5b200ac8c7c3b92591015b60405180910390a3505050565b6000610ecd848484611108565b610c7884336107bd85604051806060016040528060288152602001611f2a6028913973ffffffffffffffffffffffffffffffffffffffff8a16600090815260016020908152604080832033845290915290205491906110b4565b600080610f348385611e52565b905083811015610fa0576040517f08c379a000000000000000000000000000000000000000000000000000000000815260206004820152601b60248201527f536166654d6174683a206164646974696f6e206f766572666c6f77000000000060448201526064016105ae565b9392505050565b610fb182826115da565b6006547501000000000000000000000000000000000000000000900460ff168015610ff85750600654610100900473ffffffffffffffffffffffffffffffffffffffff1615155b156110b0576006546040517f4a3931490000000000000000000000000000000000000000000000000000000081526000600482015273ffffffffffffffffffffffffffffffffffffffff84811660248301526044820184905261010090920490911690634a393149906064016020604051808303816000875af1158015611083573d6000803e3d6000fd5b505050506040513d601f19601f820116820180604052508101906110a79190611e6a565b6110b057600080fd5b5050565b600081848411156110f2576040517f08c379a00000000000000000000000000000000000000000000000000000000081526004016105ae9190611b7a565b5060006110ff8486611e87565b95945050505050565b6111138383836116f9565b6006547501000000000000000000000000000000000000000000900460ff16801561115a5750600654610100900473ffffffffffffffffffffffffffffffffffffffff1615155b15611213576006546040517f4a39314900000000000000000000000000000000000000000000000000000000815273ffffffffffffffffffffffffffffffffffffffff858116600483015284811660248301526044820184905261010090920490911690634a393149906064016020604051808303816000875af11580156111e6573d6000803e3d6000fd5b505050506040513d601f19601f8201168201806040525081019061120a9190611e6a565b61121357600080fd5b505050565b7f4273ca16000000000000000000000000000000000000000000000000000000006112438482611923565b6112cf576040517f08c379a000000000000000000000000000000000000000000000000000000000815260206004820152603160248201527f45524332304f6e417070726f76653a207370656e64657220646f65736e27742060448201527f737570706f7274206f6e417070726f766500000000000000000000000000000060648201526084016105ae565b6000808573ffffffffffffffffffffffffffffffffffffffff1683888888886040516024016113019493929190611e9e565b604080517fffffffffffffffffffffffffffffffffffffffffffffffffffffffffffffffe08184030181529181526020820180517bffffffffffffffffffffffffffffffffffffffffffffffffffffffff167fffffffff0000000000000000000000000000000000000000000000000000000090941693909317909252905161138a9190611ee7565b6000604051808303816000865af19150503d80600081146113c7576040519150601f19603f3d011682016040523d82523d6000602084013e6113cc565b606091505b509150915081819061140b576040517f08c379a00000000000000000000000000000000000000000000000000000000081526004016105ae9190611b7a565b5060208101519150816114a0576040517f08c379a000000000000000000000000000000000000000000000000000000000815260206004820152602860248201527f45524332304f6e417070726f76653a206661696c656420746f2063616c6c206f60448201527f6e417070726f766500000000000000000000000000000000000000000000000060648201526084016105ae565b50505050505050565b73ffffffffffffffffffffffffffffffffffffffff811661154c576040517f08c379a000000000000000000000000000000000000000000000000000000000815260206004820152602660248201527f4f776e61626c653a206e6577206f776e657220697320746865207a65726f206160448201527f646472657373000000000000000000000000000000000000000000000000000060648201526084016105ae565b60035460405173ffffffffffffffffffffffffffffffffffffffff8084169216907f8be0079c531659141344cd1fd0a4f28419497f9722a3daafe3b4186f6b6457e090600090a3600380547fffffffffffffffffffffffff00000000000000000000000000000000000000001673ffffffffffffffffffffffffffffffffffffffff92909216919091179055565b73ffffffffffffffffffffffffffffffffffffffff8216611657576040517f08c379a000000000000000000000000000000000000000000000000000000000815260206004820152601f60248201527f45524332303a206d696e7420746f20746865207a65726f20616464726573730060448201526064016105ae565b6002546116649082610f27565b60025573ffffffffffffffffffffffffffffffffffffffff82166000908152602081905260409020546116979082610f27565b73ffffffffffffffffffffffffffffffffffffffff8316600081815260208181526040808320949094559251848152919290917fddf252ad1be2c89b69c2b068fc378daa952ba7f163c4a11628f55a4df523b3ef910160405180910390a35050565b73ffffffffffffffffffffffffffffffffffffffff831661179c576040517f08c379a000000000000000000000000000000000000000000000000000000000815260206004820152602560248201527f45524332303a207472616e736665722066726f6d20746865207a65726f20616460448201527f647265737300000000000000000000000000000000000000000000000000000060648201526084016105ae565b73ffffffffffffffffffffffffffffffffffffffff821661183f576040517f08c379a000000000000000000000000000000000000000000000000000000000815260206004820152602360248201527f45524332303a207472616e7366657220746f20746865207a65726f206164647260448201527f657373000000000000000000000000000000000000000000000000000000000060648201526084016105ae565b61188981604051806060016040528060268152602001611f046026913973ffffffffffffffffffffffffffffffffffffffff861660009081526020819052604090205491906110b4565b73ffffffffffffffffffffffffffffffffffffffff80851660009081526020819052604080822093909355908416815220546118c59082610f27565b73ffffffffffffffffffffffffffffffffffffffff8381166000818152602081815260409182902094909455518481529092918616917fddf252ad1be2c89b69c2b068fc378daa952ba7f163c4a11628f55a4df523b3ef9101610eb3565b600061192e8361193f565b8015610fa05750610fa083836119a4565b600061196b827f01ffc9a7000000000000000000000000000000000000000000000000000000006119a4565b801561199e575061199c827fffffffff000000000000000000000000000000000000000000000000000000006119a4565b155b92915050565b60008060006119b385856119c7565b915091508180156110ff5750949350505050565b604080517fffffffff00000000000000000000000000000000000000000000000000000000831660248083019190915282518083039091018152604490910182526020810180517bffffffffffffffffffffffffffffffffffffffffffffffffffffffff167f01ffc9a700000000000000000000000000000000000000000000000000000000179052905160009182918290819073ffffffffffffffffffffffffffffffffffffffff881690611a7e908590611ee7565b600060405180830381855afa9150503d8060008114611ab9576040519150601f19603f3d011682016040523d82523d6000602084013e611abe565b606091505b5091509150602081511015611adc5760008094509450505050611af9565b8181806020019051810190611af19190611e6a565b945094505050505b9250929050565b60005b83811015611b1b578181015183820152602001611b03565b83811115611b2a576000848401525b50505050565b60008151808452611b48816020860160208601611b00565b601f017fffffffffffffffffffffffffffffffffffffffffffffffffffffffffffffffe0169290920160200192915050565b602081526000610fa06020830184611b30565b73ffffffffffffffffffffffffffffffffffffffff8116811461089557600080fd5b60008060408385031215611bc257600080fd5b8235611bcd81611b8d565b946020939093013593505050565b600080600060608486031215611bf057600080fd5b8335611bfb81611b8d565b92506020840135611c0b81611b8d565b929592945050506040919091013590565b801515811461089557600080fd5b600060208284031215611c3c57600080fd5b8135610fa081611c1c565b600060208284031215611c5957600080fd5b8135610fa081611b8d565b600060208284031215611c7657600080fd5b5035919050565b60008060408385031215611c9057600080fd5b8235611c9b81611b8d565b91506020830135611cab81611b8d565b809150509250929050565b7f4e487b7100000000000000000000000000000000000000000000000000000000600052604160045260246000fd5b600080600060608486031215611cfa57600080fd5b8335611d0581611b8d565b925060208401359150604084013567ffffffffffffffff80821115611d2957600080fd5b818601915086601f830112611d3d57600080fd5b813581811115611d4f57611d4f611cb6565b604051601f82017fffffffffffffffffffffffffffffffffffffffffffffffffffffffffffffffe0908116603f01168101908382118183101715611d9557611d95611cb6565b81604052828152896020848701011115611dae57600080fd5b8260208601602083013760006020848301015280955050505050509250925092565b600181811c90821680611de457607f821691505b602082108103611e1d577f4e487b7100000000000000000000000000000000000000000000000000000000600052602260045260246000fd5b50919050565b7f4e487b7100000000000000000000000000000000000000000000000000000000600052601160045260246000fd5b60008219821115611e6557611e65611e23565b500190565b600060208284031215611e7c57600080fd5b8151610fa081611c1c565b600082821015611e9957611e99611e23565b500390565b600073ffffffffffffffffffffffffffffffffffffffff808716835280861660208401525083604083015260806060830152611edd6080830184611b30565b9695505050505050565b60008251611ef9818460208701611b00565b919091019291505056fe45524332303a207472616e7366657220616d6f756e7420657863656564732062616c616e636545524332303a207472616e7366657220616d6f756e74206578636565647320616c6c6f77616e636545524332303a2064656372656173656420616c6c6f77616e63652062656c6f77207a65726fa164736f6c634300080f000a",
    "linkReferences": {}
  },
  "methodIdentifiers": {
    "allowance(address,address)": "dd62ed3e",
    "approve(address,uint256)": "095ea7b3",
    "approveAndCall(address,uint256,bytes)": "cae9ca51",
    "balanceOf(address)": "70a08231",
    "callbackEnabled()": "63380113",
    "decimals()": "313ce567",
    "decreaseAllowance(address,uint256)": "a457c2d7",
    "enableCallback(bool)": "3113ed5c",
    "faucet(uint256)": "57915897",
    "increaseAllowance(address,uint256)": "39509351",
    "isOwner()": "8f32d59b",
    "name()": "06fdde03",
    "owner()": "8da5cb5b",
    "renounceMinter(address)": "5f112c68",
    "renounceOwnership()": "715018a6",
    "renounceOwnership(address)": "38bf3cfa",
    "renouncePauser(address)": "41eb24bb",
    "seigManager()": "6fb7f558",
    "setSeigManager(address)": "7657f20a",
    "symbol()": "95d89b41",
    "totalSupply()": "18160ddd",
    "transfer(address,uint256)": "a9059cbb",
    "transferFrom(address,address,uint256)": "23b872dd",
    "transferOwnership(address)": "f2fde38b",
    "transferOwnership(address,address)": "6d435421"
  },
  "storageLayout": {
    "storage": [
      {
        "astId": 55463,
        "contract": "src/L1/L2NativeToken.sol:L2NativeToken",
        "label": "_balances",
        "offset": 0,
        "slot": "0",
        "type": "t_mapping(t_address,t_uint256)"
      },
      {
        "astId": 55469,
        "contract": "src/L1/L2NativeToken.sol:L2NativeToken",
        "label": "_allowances",
        "offset": 0,
        "slot": "1",
        "type": "t_mapping(t_address,t_mapping(t_address,t_uint256))"
      },
      {
        "astId": 55471,
        "contract": "src/L1/L2NativeToken.sol:L2NativeToken",
        "label": "_totalSupply",
        "offset": 0,
        "slot": "2",
        "type": "t_uint256"
      },
      {
        "astId": 55059,
        "contract": "src/L1/L2NativeToken.sol:L2NativeToken",
        "label": "_owner",
        "offset": 0,
        "slot": "3",
        "type": "t_address"
      },
      {
        "astId": 56096,
        "contract": "src/L1/L2NativeToken.sol:L2NativeToken",
        "label": "_name",
        "offset": 0,
        "slot": "4",
        "type": "t_string_storage"
      },
      {
        "astId": 56098,
        "contract": "src/L1/L2NativeToken.sol:L2NativeToken",
        "label": "_symbol",
        "offset": 0,
        "slot": "5",
        "type": "t_string_storage"
      },
      {
        "astId": 56100,
        "contract": "src/L1/L2NativeToken.sol:L2NativeToken",
        "label": "_decimals",
        "offset": 0,
        "slot": "6",
        "type": "t_uint8"
      },
      {
        "astId": 56753,
        "contract": "src/L1/L2NativeToken.sol:L2NativeToken",
        "label": "seigManager",
        "offset": 1,
        "slot": "6",
        "type": "t_contract(SeigManagerI)56481"
      },
      {
        "astId": 56755,
        "contract": "src/L1/L2NativeToken.sol:L2NativeToken",
        "label": "callbackEnabled",
        "offset": 21,
        "slot": "6",
        "type": "t_bool"
      }
    ],
    "types": {
      "t_address": {
        "encoding": "inplace",
        "label": "address",
        "numberOfBytes": "20"
      },
      "t_bool": {
        "encoding": "inplace",
        "label": "bool",
        "numberOfBytes": "1"
      },
      "t_contract(SeigManagerI)56481": {
        "encoding": "inplace",
        "label": "contract SeigManagerI",
        "numberOfBytes": "20"
      },
      "t_mapping(t_address,t_mapping(t_address,t_uint256))": {
        "encoding": "mapping",
        "key": "t_address",
        "label": "mapping(address => mapping(address => uint256))",
        "numberOfBytes": "32",
        "value": "t_mapping(t_address,t_uint256)"
      },
      "t_mapping(t_address,t_uint256)": {
        "encoding": "mapping",
        "key": "t_address",
        "label": "mapping(address => uint256)",
        "numberOfBytes": "32",
        "value": "t_uint256"
      },
      "t_string_storage": {
        "encoding": "bytes",
        "label": "string",
        "numberOfBytes": "32"
      },
      "t_uint256": {
        "encoding": "inplace",
        "label": "uint256",
        "numberOfBytes": "32"
      },
      "t_uint8": {
        "encoding": "inplace",
        "label": "uint8",
        "numberOfBytes": "1"
      }
    }
  },
  "userdoc": {
    "version": 1,
    "kind": "user"
  },
  "devdoc": {
    "version": 1,
    "kind": "dev",
    "details": "Current implementations is just for testing seigniorage manager.",
    "methods": {
      "allowance(address,address)": {
        "details": "See {IERC20-allowance}."
      },
      "approve(address,uint256)": {
        "details": "See {IERC20-approve}. Requirements: - `spender` cannot be the zero address."
      },
      "balanceOf(address)": {
        "details": "See {IERC20-balanceOf}."
      },
      "decimals()": {
        "details": "Returns the number of decimals used to get its user representation. For example, if `decimals` equals `2`, a balance of `505` tokens should be displayed to a user as `5,05` (`505 / 10 ** 2`). Tokens usually opt for a value of 18, imitating the relationship between Ether and Wei. NOTE: This information is only used for _display_ purposes: it in no way affects any of the arithmetic of the contract, including {IERC20-balanceOf} and {IERC20-transfer}."
      },
      "decreaseAllowance(address,uint256)": {
        "details": "Atomically decreases the allowance granted to `spender` by the caller. This is an alternative to {approve} that can be used as a mitigation for problems described in {IERC20-approve}. Emits an {Approval} event indicating the updated allowance. Requirements: - `spender` cannot be the zero address. - `spender` must have allowance for the caller of at least `subtractedValue`."
      },
      "increaseAllowance(address,uint256)": {
        "details": "Atomically increases the allowance granted to `spender` by the caller. This is an alternative to {approve} that can be used as a mitigation for problems described in {IERC20-approve}. Emits an {Approval} event indicating the updated allowance. Requirements: - `spender` cannot be the zero address."
      },
      "isOwner()": {
        "details": "Returns true if the caller is the current owner."
      },
      "name()": {
        "details": "Returns the name of the token."
      },
      "owner()": {
        "details": "Returns the address of the current owner."
      },
      "renounceOwnership()": {
        "details": "Leaves the contract without owner. It will not be possible to call `onlyOwner` functions anymore. Can only be called by the current owner. NOTE: Renouncing ownership will leave the contract without an owner, thereby removing any functionality that is only available to the owner."
      },
      "symbol()": {
        "details": "Returns the symbol of the token, usually a shorter version of the name."
      },
      "totalSupply()": {
        "details": "See {IERC20-totalSupply}."
      },
      "transfer(address,uint256)": {
        "details": "See {IERC20-transfer}. Requirements: - `recipient` cannot be the zero address. - the caller must have a balance of at least `amount`."
      },
      "transferFrom(address,address,uint256)": {
        "details": "See {IERC20-transferFrom}. Emits an {Approval} event indicating the updated allowance. This is not required by the EIP. See the note at the beginning of {ERC20}; Requirements: - `sender` and `recipient` cannot be the zero address. - `sender` must have a balance of at least `amount`. - the caller must have allowance for `sender`'s tokens of at least `amount`."
      },
      "transferOwnership(address)": {
        "details": "Transfers ownership of the contract to a new account (`newOwner`). Can only be called by the current owner."
      }
    }
  },
  "id": 90
}