{
  "abi": [
    {
      "inputs": [
        {
          "internalType": "string",
          "name": "_name",
          "type": "string"
        },
        {
          "internalType": "string",
          "name": "_symbol",
          "type": "string"
        },
        {
          "internalType": "address",
          "name": "_baseURIAttestor",
          "type": "address"
        },
        {
          "internalType": "contract AttestationStation",
          "name": "_attestationStation",
          "type": "address"
        },
        {
          "internalType": "contract OptimistAllowlist",
          "name": "_optimistAllowlist",
          "type": "address"
        }
      ],
      "stateMutability": "nonpayable",
      "type": "constructor"
    },
    {
      "anonymous": false,
      "inputs": [
        {
          "indexed": true,
          "internalType": "address",
          "name": "owner",
          "type": "address"
        },
        {
          "indexed": true,
          "internalType": "address",
          "name": "approved",
          "type": "address"
        },
        {
          "indexed": true,
          "internalType": "uint256",
          "name": "tokenId",
          "type": "uint256"
        }
      ],
      "name": "Approval",
      "type": "event"
    },
    {
      "anonymous": false,
      "inputs": [
        {
          "indexed": true,
          "internalType": "address",
          "name": "owner",
          "type": "address"
        },
        {
          "indexed": true,
          "internalType": "address",
          "name": "operator",
          "type": "address"
        },
        {
          "indexed": false,
          "internalType": "bool",
          "name": "approved",
          "type": "bool"
        }
      ],
      "name": "ApprovalForAll",
      "type": "event"
    },
    {
      "anonymous": false,
      "inputs": [
        {
          "indexed": false,
          "internalType": "uint8",
          "name": "version",
          "type": "uint8"
        }
      ],
      "name": "Initialized",
      "type": "event"
    },
    {
      "anonymous": false,
      "inputs": [
        {
          "indexed": true,
          "internalType": "address",
          "name": "from",
          "type": "address"
        },
        {
          "indexed": true,
          "internalType": "address",
          "name": "to",
          "type": "address"
        },
        {
          "indexed": true,
          "internalType": "uint256",
          "name": "tokenId",
          "type": "uint256"
        }
      ],
      "name": "Transfer",
      "type": "event"
    },
    {
      "inputs": [],
      "name": "ATTESTATION_STATION",
      "outputs": [
        {
          "internalType": "contract AttestationStation",
          "name": "",
          "type": "address"
        }
      ],
      "stateMutability": "view",
      "type": "function"
    },
    {
      "inputs": [],
      "name": "BASE_URI_ATTESTATION_KEY",
      "outputs": [
        {
          "internalType": "bytes32",
          "name": "",
          "type": "bytes32"
        }
      ],
      "stateMutability": "view",
      "type": "function"
    },
    {
      "inputs": [],
      "name": "BASE_URI_ATTESTOR",
      "outputs": [
        {
          "internalType": "address",
          "name": "",
          "type": "address"
        }
      ],
      "stateMutability": "view",
      "type": "function"
    },
    {
      "inputs": [],
      "name": "OPTIMIST_ALLOWLIST",
      "outputs": [
        {
          "internalType": "contract OptimistAllowlist",
          "name": "",
          "type": "address"
        }
      ],
      "stateMutability": "view",
      "type": "function"
    },
    {
      "inputs": [
        {
          "internalType": "address",
          "name": "",
          "type": "address"
        },
        {
          "internalType": "uint256",
          "name": "",
          "type": "uint256"
        }
      ],
      "name": "approve",
      "outputs": [],
      "stateMutability": "pure",
      "type": "function"
    },
    {
      "inputs": [
        {
          "internalType": "address",
          "name": "owner",
          "type": "address"
        }
      ],
      "name": "balanceOf",
      "outputs": [
        {
          "internalType": "uint256",
          "name": "",
          "type": "uint256"
        }
      ],
      "stateMutability": "view",
      "type": "function"
    },
    {
      "inputs": [],
      "name": "baseURI",
      "outputs": [
        {
          "internalType": "string",
          "name": "uri_",
          "type": "string"
        }
      ],
      "stateMutability": "view",
      "type": "function"
    },
    {
      "inputs": [
        {
          "internalType": "uint256",
          "name": "tokenId",
          "type": "uint256"
        }
      ],
      "name": "burn",
      "outputs": [],
      "stateMutability": "nonpayable",
      "type": "function"
    },
    {
      "inputs": [
        {
          "internalType": "uint256",
          "name": "tokenId",
          "type": "uint256"
        }
      ],
      "name": "getApproved",
      "outputs": [
        {
          "internalType": "address",
          "name": "",
          "type": "address"
        }
      ],
      "stateMutability": "view",
      "type": "function"
    },
    {
      "inputs": [
        {
          "internalType": "string",
          "name": "_name",
          "type": "string"
        },
        {
          "internalType": "string",
          "name": "_symbol",
          "type": "string"
        }
      ],
      "name": "initialize",
      "outputs": [],
      "stateMutability": "nonpayable",
      "type": "function"
    },
    {
      "inputs": [
        {
          "internalType": "address",
          "name": "owner",
          "type": "address"
        },
        {
          "internalType": "address",
          "name": "operator",
          "type": "address"
        }
      ],
      "name": "isApprovedForAll",
      "outputs": [
        {
          "internalType": "bool",
          "name": "",
          "type": "bool"
        }
      ],
      "stateMutability": "view",
      "type": "function"
    },
    {
      "inputs": [
        {
          "internalType": "address",
          "name": "_recipient",
          "type": "address"
        }
      ],
      "name": "isOnAllowList",
      "outputs": [
        {
          "internalType": "bool",
          "name": "allowed_",
          "type": "bool"
        }
      ],
      "stateMutability": "view",
      "type": "function"
    },
    {
      "inputs": [
        {
          "internalType": "address",
          "name": "_recipient",
          "type": "address"
        }
      ],
      "name": "mint",
      "outputs": [],
      "stateMutability": "nonpayable",
      "type": "function"
    },
    {
      "inputs": [],
      "name": "name",
      "outputs": [
        {
          "internalType": "string",
          "name": "",
          "type": "string"
        }
      ],
      "stateMutability": "view",
      "type": "function"
    },
    {
      "inputs": [
        {
          "internalType": "uint256",
          "name": "tokenId",
          "type": "uint256"
        }
      ],
      "name": "ownerOf",
      "outputs": [
        {
          "internalType": "address",
          "name": "",
          "type": "address"
        }
      ],
      "stateMutability": "view",
      "type": "function"
    },
    {
      "inputs": [
        {
          "internalType": "address",
          "name": "from",
          "type": "address"
        },
        {
          "internalType": "address",
          "name": "to",
          "type": "address"
        },
        {
          "internalType": "uint256",
          "name": "tokenId",
          "type": "uint256"
        }
      ],
      "name": "safeTransferFrom",
      "outputs": [],
      "stateMutability": "nonpayable",
      "type": "function"
    },
    {
      "inputs": [
        {
          "internalType": "address",
          "name": "from",
          "type": "address"
        },
        {
          "internalType": "address",
          "name": "to",
          "type": "address"
        },
        {
          "internalType": "uint256",
          "name": "tokenId",
          "type": "uint256"
        },
        {
          "internalType": "bytes",
          "name": "data",
          "type": "bytes"
        }
      ],
      "name": "safeTransferFrom",
      "outputs": [],
      "stateMutability": "nonpayable",
      "type": "function"
    },
    {
      "inputs": [
        {
          "internalType": "address",
          "name": "",
          "type": "address"
        },
        {
          "internalType": "bool",
          "name": "",
          "type": "bool"
        }
      ],
      "name": "setApprovalForAll",
      "outputs": [],
      "stateMutability": "nonpayable",
      "type": "function"
    },
    {
      "inputs": [
        {
          "internalType": "bytes4",
          "name": "interfaceId",
          "type": "bytes4"
        }
      ],
      "name": "supportsInterface",
      "outputs": [
        {
          "internalType": "bool",
          "name": "",
          "type": "bool"
        }
      ],
      "stateMutability": "view",
      "type": "function"
    },
    {
      "inputs": [],
      "name": "symbol",
      "outputs": [
        {
          "internalType": "string",
          "name": "",
          "type": "string"
        }
      ],
      "stateMutability": "view",
      "type": "function"
    },
    {
      "inputs": [
        {
          "internalType": "address",
          "name": "_owner",
          "type": "address"
        }
      ],
      "name": "tokenIdOfAddress",
      "outputs": [
        {
          "internalType": "uint256",
          "name": "",
          "type": "uint256"
        }
      ],
      "stateMutability": "pure",
      "type": "function"
    },
    {
      "inputs": [
        {
          "internalType": "uint256",
          "name": "_tokenId",
          "type": "uint256"
        }
      ],
      "name": "tokenURI",
      "outputs": [
        {
          "internalType": "string",
          "name": "uri_",
          "type": "string"
        }
      ],
      "stateMutability": "view",
      "type": "function"
    },
    {
      "inputs": [
        {
          "internalType": "address",
          "name": "from",
          "type": "address"
        },
        {
          "internalType": "address",
          "name": "to",
          "type": "address"
        },
        {
          "internalType": "uint256",
          "name": "tokenId",
          "type": "uint256"
        }
      ],
      "name": "transferFrom",
      "outputs": [],
      "stateMutability": "nonpayable",
      "type": "function"
    },
    {
      "inputs": [],
      "name": "version",
      "outputs": [
        {
          "internalType": "string",
          "name": "",
          "type": "string"
        }
      ],
      "stateMutability": "view",
      "type": "function"
    }
  ],
  "bytecode": {
    "object": "0x6101406040523480156200001257600080fd5b5060405162002f2c38038062002f2c8339810160408190526200003591620003ee565b60026080819052600060a05260c0526001600160a01b0380841660e052828116610100528116610120526200006b858562000076565b5050505050620005f4565b600054610100900460ff1615808015620000975750600054600160ff909116105b80620000c75750620000b430620001b660201b62000ec41760201c565b158015620000c7575060005460ff166001145b620001305760405162461bcd60e51b815260206004820152602e60248201527f496e697469616c697a61626c653a20636f6e747261637420697320616c72656160448201526d191e481a5b9a5d1a585b1a5e995960921b60648201526084015b60405180910390fd5b6000805460ff19166001179055801562000154576000805461ff0019166101001790555b620001608383620001c5565b6200016a62000231565b8015620001b1576000805461ff0019169055604051600181527f7f26b83ff96e1f2b6a682f133852f6798a09c465da95921460cefb38474024989060200160405180910390a15b505050565b6001600160a01b03163b151590565b600054610100900460ff16620002215760405162461bcd60e51b815260206004820152602b602482015260008051602062002f0c83398151915260448201526a6e697469616c697a696e6760a81b606482015260840162000127565b6200022d82826200028f565b5050565b600054610100900460ff166200028d5760405162461bcd60e51b815260206004820152602b602482015260008051602062002f0c83398151915260448201526a6e697469616c697a696e6760a81b606482015260840162000127565b565b600054610100900460ff16620002eb5760405162461bcd60e51b815260206004820152602b602482015260008051602062002f0c83398151915260448201526a6e697469616c697a696e6760a81b606482015260840162000127565b6065620002f9838262000528565b506066620001b1828262000528565b634e487b7160e01b600052604160045260246000fd5b600082601f8301126200033057600080fd5b81516001600160401b03808211156200034d576200034d62000308565b604051601f8301601f19908116603f0116810190828211818310171562000378576200037862000308565b816040528381526020925086838588010111156200039557600080fd5b600091505b83821015620003b957858201830151818301840152908201906200039a565b83821115620003cb5760008385830101525b9695505050505050565b6001600160a01b0381168114620003eb57600080fd5b50565b600080600080600060a086880312156200040757600080fd5b85516001600160401b03808211156200041f57600080fd5b6200042d89838a016200031e565b965060208801519150808211156200044457600080fd5b5062000453888289016200031e565b94505060408601516200046681620003d5565b60608701519093506200047981620003d5565b60808701519092506200048c81620003d5565b809150509295509295909350565b600181811c90821680620004af57607f821691505b602082108103620004d057634e487b7160e01b600052602260045260246000fd5b50919050565b601f821115620001b157600081815260208120601f850160051c81016020861015620004ff5750805b601f850160051c820191505b8181101562000520578281556001016200050b565b505050505050565b81516001600160401b0381111562000544576200054462000308565b6200055c816200055584546200049a565b84620004d6565b602080601f8311600181146200059457600084156200057b5750858301515b600019600386901b1c1916600185901b17855562000520565b600085815260208120601f198616915b82811015620005c557888601518255948401946001909101908401620005a4565b5085821015620005e45787850151600019600388901b60f8161c191681555b5050505050600190811b01905550565b60805160a05160c05160e05161010051610120516128b362000659600039600081816103930152610d640152600081816103ba0152610baf01526000818161022c0152610b5801526000610990015260006109670152600061093e01526128b36000f3fe608060405234801561001057600080fd5b50600436106101985760003560e01c80636a627842116100e3578063a22cb4651161008c578063ce5dd1b511610066578063ce5dd1b51461038e578063db083d71146103b5578063e985e9c5146103dc57600080fd5b8063a22cb4651461035a578063b88d4fde14610368578063c87b56dd1461037b57600080fd5b80637c08652f116100bd5780637c08652f146103185780638f328a1f1461033f57806395d89b411461035257600080fd5b80636a627842146102ea5780636c0360eb146102fd57806370a082311461030557600080fd5b806323b872dd116101455780634cd88b761161011f5780634cd88b76146102bc57806354fd4d50146102cf5780636352211e146102d757600080fd5b806323b872dd1461028357806342842e0e1461029657806342966c68146102a957600080fd5b8063095ea7b311610176578063095ea7b31461021257806319f463f21461022757806321d3d5cf1461024e57600080fd5b806301ffc9a71461019d57806306fdde03146101c5578063081812fc146101da575b600080fd5b6101b06101ab366004611f6c565b610425565b60405190151581526020015b60405180910390f35b6101cd61050a565b6040516101bc9190611fff565b6101ed6101e8366004612012565b61059c565b60405173ffffffffffffffffffffffffffffffffffffffff90911681526020016101bc565b610225610220366004612054565b6105d0565b005b6101ed7f000000000000000000000000000000000000000000000000000000000000000081565b6102757f6f7074696d6973742e626173652d75726900000000000000000000000000000081565b6040519081526020016101bc565b61022561029136600461207e565b610637565b6102256102a436600461207e565b6106de565b6102256102b7366004612012565b6106f9565b6102256102ca3660046121dc565b61079a565b6101cd610937565b6101ed6102e5366004612012565b6109da565b6102256102f8366004612240565b610a66565b6101cd610b1b565b610275610313366004612240565b610c4e565b610275610326366004612240565b73ffffffffffffffffffffffffffffffffffffffff1690565b6101b061034d366004612240565b610d1c565b6101cd610dd1565b610225610220366004612269565b6102256103763660046122a0565b610de0565b6101cd610389366004612012565b610e88565b6101ed7f000000000000000000000000000000000000000000000000000000000000000081565b6101ed7f000000000000000000000000000000000000000000000000000000000000000081565b6101b06103ea36600461231c565b73ffffffffffffffffffffffffffffffffffffffff9182166000908152606a6020908152604080832093909416825291909152205460ff1690565b60007fffffffff0000000000000000000000000000000000000000000000000000000082167f80ac58cd0000000000000000000000000000000000000000000000000000000014806104b857507fffffffff0000000000000000000000000000000000000000000000000000000082167f5b5e139f00000000000000000000000000000000000000000000000000000000145b8061050457507f01ffc9a7000000000000000000000000000000000000000000000000000000007fffffffff000000000000000000000000000000000000000000000000000000008316145b92915050565b6060606580546105199061234f565b80601f01602080910402602001604051908101604052809291908181526020018280546105459061234f565b80156105925780601f1061056757610100808354040283529160200191610592565b820191906000526020600020905b81548152906001019060200180831161057557829003601f168201915b5050505050905090565b60006105a782610ee0565b5060009081526069602052604090205473ffffffffffffffffffffffffffffffffffffffff1690565b6040517f08c379a000000000000000000000000000000000000000000000000000000000815260206004820152601a60248201527f4f7074696d6973743a20736f756c20626f756e6420746f6b656e00000000000060448201526064015b60405180910390fd5b610642335b82610f6b565b6106ce576040517f08c379a000000000000000000000000000000000000000000000000000000000815260206004820152602e60248201527f4552433732313a2063616c6c6572206973206e6f7420746f6b656e206f776e6560448201527f72206e6f7220617070726f766564000000000000000000000000000000000000606482015260840161062e565b6106d983838361102b565b505050565b6106d983838360405180602001604052806000815250610de0565b6107023361063c565b61078e576040517f08c379a000000000000000000000000000000000000000000000000000000000815260206004820152602e60248201527f4552433732313a2063616c6c6572206973206e6f7420746f6b656e206f776e6560448201527f72206e6f7220617070726f766564000000000000000000000000000000000000606482015260840161062e565b6107978161129d565b50565b600054610100900460ff16158080156107ba5750600054600160ff909116105b806107d45750303b1580156107d4575060005460ff166001145b610860576040517f08c379a000000000000000000000000000000000000000000000000000000000815260206004820152602e60248201527f496e697469616c697a61626c653a20636f6e747261637420697320616c72656160448201527f647920696e697469616c697a6564000000000000000000000000000000000000606482015260840161062e565b600080547fffffffffffffffffffffffffffffffffffffffffffffffffffffffffffffff0016600117905580156108be57600080547fffffffffffffffffffffffffffffffffffffffffffffffffffffffffffff00ff166101001790555b6108c88383611377565b6108d0611418565b80156106d957600080547fffffffffffffffffffffffffffffffffffffffffffffffffffffffffffff00ff169055604051600181527f7f26b83ff96e1f2b6a682f133852f6798a09c465da95921460cefb38474024989060200160405180910390a1505050565b60606109627f00000000000000000000000000000000000000000000000000000000000000006114b1565b61098b7f00000000000000000000000000000000000000000000000000000000000000006114b1565b6109b47f00000000000000000000000000000000000000000000000000000000000000006114b1565b6040516020016109c6939291906123a2565b604051602081830303815290604052905090565b60008181526067602052604081205473ffffffffffffffffffffffffffffffffffffffff1680610504576040517f08c379a000000000000000000000000000000000000000000000000000000000815260206004820152601860248201527f4552433732313a20696e76616c696420746f6b656e2049440000000000000000604482015260640161062e565b610a6f81610d1c565b610afb576040517f08c379a000000000000000000000000000000000000000000000000000000000815260206004820152602560248201527f4f7074696d6973743a2061646472657373206973206e6f74206f6e20616c6c6f60448201527f774c697374000000000000000000000000000000000000000000000000000000606482015260840161062e565b6107978173ffffffffffffffffffffffffffffffffffffffff81166115e6565b6040517f29b42cb500000000000000000000000000000000000000000000000000000000815273ffffffffffffffffffffffffffffffffffffffff7f0000000000000000000000000000000000000000000000000000000000000000811660048301523060248301527f6f7074696d6973742e626173652d75726900000000000000000000000000000060448301526060917f0000000000000000000000000000000000000000000000000000000000000000909116906329b42cb590606401600060405180830381865afa158015610bf8573d6000803e3d6000fd5b505050506040513d6000823e601f3d9081017fffffffffffffffffffffffffffffffffffffffffffffffffffffffffffffffe0168201604052610c3e9190810190612418565b6040516020016109c6919061248f565b600073ffffffffffffffffffffffffffffffffffffffff8216610cf3576040517f08c379a000000000000000000000000000000000000000000000000000000000815260206004820152602960248201527f4552433732313a2061646472657373207a65726f206973206e6f74206120766160448201527f6c6964206f776e65720000000000000000000000000000000000000000000000606482015260840161062e565b5073ffffffffffffffffffffffffffffffffffffffff1660009081526068602052604090205490565b6040517f4813d8a600000000000000000000000000000000000000000000000000000000815273ffffffffffffffffffffffffffffffffffffffff82811660048301526000917f000000000000000000000000000000000000000000000000000000000000000090911690634813d8a690602401602060405180830381865afa158015610dad573d6000803e3d6000fd5b505050506040513d601f19601f8201168201806040525081019061050491906124ab565b6060606680546105199061234f565b610dea3383610f6b565b610e76576040517f08c379a000000000000000000000000000000000000000000000000000000000815260206004820152602e60248201527f4552433732313a2063616c6c6572206973206e6f7420746f6b656e206f776e6560448201527f72206e6f7220617070726f766564000000000000000000000000000000000000606482015260840161062e565b610e8284848484611600565b50505050565b6060610e92610b1b565b610e9d8360146116a3565b604051602001610eae9291906124c8565b6040516020818303038152906040529050919050565b73ffffffffffffffffffffffffffffffffffffffff163b151590565b60008181526067602052604090205473ffffffffffffffffffffffffffffffffffffffff16610797576040517f08c379a000000000000000000000000000000000000000000000000000000000815260206004820152601860248201527f4552433732313a20696e76616c696420746f6b656e2049440000000000000000604482015260640161062e565b600080610f77836109da565b90508073ffffffffffffffffffffffffffffffffffffffff168473ffffffffffffffffffffffffffffffffffffffff161480610fe5575073ffffffffffffffffffffffffffffffffffffffff8082166000908152606a602090815260408083209388168352929052205460ff165b8061102357508373ffffffffffffffffffffffffffffffffffffffff1661100b8461059c565b73ffffffffffffffffffffffffffffffffffffffff16145b949350505050565b8273ffffffffffffffffffffffffffffffffffffffff1661104b826109da565b73ffffffffffffffffffffffffffffffffffffffff16146110ee576040517f08c379a000000000000000000000000000000000000000000000000000000000815260206004820152602560248201527f4552433732313a207472616e736665722066726f6d20696e636f72726563742060448201527f6f776e6572000000000000000000000000000000000000000000000000000000606482015260840161062e565b73ffffffffffffffffffffffffffffffffffffffff8216611190576040517f08c379a0000000000000000000000000000000000000000000000000000000008152602060048201526024808201527f4552433732313a207472616e7366657220746f20746865207a65726f2061646460448201527f7265737300000000000000000000000000000000000000000000000000000000606482015260840161062e565b61119b8383836118ed565b6111a660008261198a565b73ffffffffffffffffffffffffffffffffffffffff831660009081526068602052604081208054600192906111dc908490612579565b909155505073ffffffffffffffffffffffffffffffffffffffff82166000908152606860205260408120805460019290611217908490612590565b909155505060008181526067602052604080822080547fffffffffffffffffffffffff00000000000000000000000000000000000000001673ffffffffffffffffffffffffffffffffffffffff86811691821790925591518493918716917fddf252ad1be2c89b69c2b068fc378daa952ba7f163c4a11628f55a4df523b3ef91a4505050565b60006112a8826109da565b90506112b6816000846118ed565b6112c160008361198a565b73ffffffffffffffffffffffffffffffffffffffff811660009081526068602052604081208054600192906112f7908490612579565b909155505060008281526067602052604080822080547fffffffffffffffffffffffff00000000000000000000000000000000000000001690555183919073ffffffffffffffffffffffffffffffffffffffff8416907fddf252ad1be2c89b69c2b068fc378daa952ba7f163c4a11628f55a4df523b3ef908390a45b5050565b600054610100900460ff1661140e576040517f08c379a000000000000000000000000000000000000000000000000000000000815260206004820152602b60248201527f496e697469616c697a61626c653a20636f6e7472616374206973206e6f74206960448201527f6e697469616c697a696e67000000000000000000000000000000000000000000606482015260840161062e565b6113738282611a2a565b600054610100900460ff166114af576040517f08c379a000000000000000000000000000000000000000000000000000000000815260206004820152602b60248201527f496e697469616c697a61626c653a20636f6e7472616374206973206e6f74206960448201527f6e697469616c697a696e67000000000000000000000000000000000000000000606482015260840161062e565b565b6060816000036114f457505060408051808201909152600181527f3000000000000000000000000000000000000000000000000000000000000000602082015290565b8160005b811561151e5780611508816125a8565b91506115179050600a8361260f565b91506114f8565b60008167ffffffffffffffff811115611539576115396120ba565b6040519080825280601f01601f191660200182016040528015611563576020820181803683370190505b5090505b841561102357611578600183612579565b9150611585600a86612623565b611590906030612590565b60f81b8183815181106115a5576115a5612637565b60200101907effffffffffffffffffffffffffffffffffffffffffffffffffffffffffffff1916908160001a9053506115df600a8661260f565b9450611567565b611373828260405180602001604052806000815250611ada565b61160b84848461102b565b61161784848484611b7d565b610e82576040517f08c379a000000000000000000000000000000000000000000000000000000000815260206004820152603260248201527f4552433732313a207472616e7366657220746f206e6f6e20455243373231526560448201527f63656976657220696d706c656d656e7465720000000000000000000000000000606482015260840161062e565b606060006116b2836002612666565b6116bd906002612590565b67ffffffffffffffff8111156116d5576116d56120ba565b6040519080825280601f01601f1916602001820160405280156116ff576020820181803683370190505b5090507f30000000000000000000000000000000000000000000000000000000000000008160008151811061173657611736612637565b60200101907effffffffffffffffffffffffffffffffffffffffffffffffffffffffffffff1916908160001a9053507f78000000000000000000000000000000000000000000000000000000000000008160018151811061179957611799612637565b60200101907effffffffffffffffffffffffffffffffffffffffffffffffffffffffffffff1916908160001a90535060006117d5846002612666565b6117e0906001612590565b90505b600181111561187d577f303132333435363738396162636465660000000000000000000000000000000085600f166010811061182157611821612637565b1a60f81b82828151811061183757611837612637565b60200101907effffffffffffffffffffffffffffffffffffffffffffffffffffffffffffff1916908160001a90535060049490941c93611876816126a3565b90506117e3565b5083156118e6576040517f08c379a000000000000000000000000000000000000000000000000000000000815260206004820181905260248201527f537472696e67733a20686578206c656e67746820696e73756666696369656e74604482015260640161062e565b9392505050565b73ffffffffffffffffffffffffffffffffffffffff83161580611924575073ffffffffffffffffffffffffffffffffffffffff8216155b6106d9576040517f08c379a000000000000000000000000000000000000000000000000000000000815260206004820152601a60248201527f4f7074696d6973743a20736f756c20626f756e6420746f6b656e000000000000604482015260640161062e565b600081815260696020526040902080547fffffffffffffffffffffffff00000000000000000000000000000000000000001673ffffffffffffffffffffffffffffffffffffffff841690811790915581906119e4826109da565b73ffffffffffffffffffffffffffffffffffffffff167f8c5be1e5ebec7d5bd14f71427d1e84f3dd0314c0f7b2291e5b200ac8c7c3b92560405160405180910390a45050565b600054610100900460ff16611ac1576040517f08c379a000000000000000000000000000000000000000000000000000000000815260206004820152602b60248201527f496e697469616c697a61626c653a20636f6e7472616374206973206e6f74206960448201527f6e697469616c697a696e67000000000000000000000000000000000000000000606482015260840161062e565b6065611acd8382612726565b5060666106d98282612726565b611ae48383611d70565b611af16000848484611b7d565b6106d9576040517f08c379a000000000000000000000000000000000000000000000000000000000815260206004820152603260248201527f4552433732313a207472616e7366657220746f206e6f6e20455243373231526560448201527f63656976657220696d706c656d656e7465720000000000000000000000000000606482015260840161062e565b600073ffffffffffffffffffffffffffffffffffffffff84163b15611d65576040517f150b7a0200000000000000000000000000000000000000000000000000000000815273ffffffffffffffffffffffffffffffffffffffff85169063150b7a0290611bf4903390899088908890600401612840565b6020604051808303816000875af1925050508015611c4d575060408051601f3d9081017fffffffffffffffffffffffffffffffffffffffffffffffffffffffffffffffe0168201909252611c4a91810190612889565b60015b611d1a573d808015611c7b576040519150601f19603f3d011682016040523d82523d6000602084013e611c80565b606091505b508051600003611d12576040517f08c379a000000000000000000000000000000000000000000000000000000000815260206004820152603260248201527f4552433732313a207472616e7366657220746f206e6f6e20455243373231526560448201527f63656976657220696d706c656d656e7465720000000000000000000000000000606482015260840161062e565b805181602001fd5b7fffffffff00000000000000000000000000000000000000000000000000000000167f150b7a0200000000000000000000000000000000000000000000000000000000149050611023565b506001949350505050565b73ffffffffffffffffffffffffffffffffffffffff8216611ded576040517f08c379a000000000000000000000000000000000000000000000000000000000815260206004820181905260248201527f4552433732313a206d696e7420746f20746865207a65726f2061646472657373604482015260640161062e565b60008181526067602052604090205473ffffffffffffffffffffffffffffffffffffffff1615611e79576040517f08c379a000000000000000000000000000000000000000000000000000000000815260206004820152601c60248201527f4552433732313a20746f6b656e20616c7265616479206d696e74656400000000604482015260640161062e565b611e85600083836118ed565b73ffffffffffffffffffffffffffffffffffffffff82166000908152606860205260408120805460019290611ebb908490612590565b909155505060008181526067602052604080822080547fffffffffffffffffffffffff00000000000000000000000000000000000000001673ffffffffffffffffffffffffffffffffffffffff861690811790915590518392907fddf252ad1be2c89b69c2b068fc378daa952ba7f163c4a11628f55a4df523b3ef908290a45050565b7fffffffff000000000000000000000000000000000000000000000000000000008116811461079757600080fd5b600060208284031215611f7e57600080fd5b81356118e681611f3e565b60005b83811015611fa4578181015183820152602001611f8c565b83811115610e825750506000910152565b60008151808452611fcd816020860160208601611f89565b601f017fffffffffffffffffffffffffffffffffffffffffffffffffffffffffffffffe0169290920160200192915050565b6020815260006118e66020830184611fb5565b60006020828403121561202457600080fd5b5035919050565b803573ffffffffffffffffffffffffffffffffffffffff8116811461204f57600080fd5b919050565b6000806040838503121561206757600080fd5b6120708361202b565b946020939093013593505050565b60008060006060848603121561209357600080fd5b61209c8461202b565b92506120aa6020850161202b565b9150604084013590509250925092565b7f4e487b7100000000000000000000000000000000000000000000000000000000600052604160045260246000fd5b604051601f82017fffffffffffffffffffffffffffffffffffffffffffffffffffffffffffffffe016810167ffffffffffffffff81118282101715612130576121306120ba565b604052919050565b600067ffffffffffffffff821115612152576121526120ba565b50601f017fffffffffffffffffffffffffffffffffffffffffffffffffffffffffffffffe01660200190565b600061219161218c84612138565b6120e9565b90508281528383830111156121a557600080fd5b828260208301376000602084830101529392505050565b600082601f8301126121cd57600080fd5b6118e68383356020850161217e565b600080604083850312156121ef57600080fd5b823567ffffffffffffffff8082111561220757600080fd5b612213868387016121bc565b9350602085013591508082111561222957600080fd5b50612236858286016121bc565b9150509250929050565b60006020828403121561225257600080fd5b6118e68261202b565b801515811461079757600080fd5b6000806040838503121561227c57600080fd5b6122858361202b565b915060208301356122958161225b565b809150509250929050565b600080600080608085870312156122b657600080fd5b6122bf8561202b565b93506122cd6020860161202b565b925060408501359150606085013567ffffffffffffffff8111156122f057600080fd5b8501601f8101871361230157600080fd5b6123108782356020840161217e565b91505092959194509250565b6000806040838503121561232f57600080fd5b6123388361202b565b91506123466020840161202b565b90509250929050565b600181811c9082168061236357607f821691505b60208210810361239c577f4e487b7100000000000000000000000000000000000000000000000000000000600052602260045260246000fd5b50919050565b600084516123b4818460208901611f89565b80830190507f2e0000000000000000000000000000000000000000000000000000000000000080825285516123f0816001850160208a01611f89565b6001920191820152835161240b816002840160208801611f89565b0160020195945050505050565b60006020828403121561242a57600080fd5b815167ffffffffffffffff81111561244157600080fd5b8201601f8101841361245257600080fd5b805161246061218c82612138565b81815285602083850101111561247557600080fd5b612486826020830160208601611f89565b95945050505050565b600082516124a1818460208701611f89565b9190910192915050565b6000602082840312156124bd57600080fd5b81516118e68161225b565b600083516124da818460208801611f89565b7f2f000000000000000000000000000000000000000000000000000000000000009083019081528351612514816001840160208801611f89565b7f2e6a736f6e00000000000000000000000000000000000000000000000000000060019290910191820152600601949350505050565b7f4e487b7100000000000000000000000000000000000000000000000000000000600052601160045260246000fd5b60008282101561258b5761258b61254a565b500390565b600082198211156125a3576125a361254a565b500190565b60007fffffffffffffffffffffffffffffffffffffffffffffffffffffffffffffffff82036125d9576125d961254a565b5060010190565b7f4e487b7100000000000000000000000000000000000000000000000000000000600052601260045260246000fd5b60008261261e5761261e6125e0565b500490565b600082612632576126326125e0565b500690565b7f4e487b7100000000000000000000000000000000000000000000000000000000600052603260045260246000fd5b6000817fffffffffffffffffffffffffffffffffffffffffffffffffffffffffffffffff048311821515161561269e5761269e61254a565b500290565b6000816126b2576126b261254a565b507fffffffffffffffffffffffffffffffffffffffffffffffffffffffffffffffff0190565b601f8211156106d957600081815260208120601f850160051c810160208610156126ff5750805b601f850160051c820191505b8181101561271e5782815560010161270b565b505050505050565b815167ffffffffffffffff811115612740576127406120ba565b6127548161274e845461234f565b846126d8565b602080601f8311600181146127a757600084156127715750858301515b7fffffffffffffffffffffffffffffffffffffffffffffffffffffffffffffffff600386901b1c1916600185901b17855561271e565b6000858152602081207fffffffffffffffffffffffffffffffffffffffffffffffffffffffffffffffe08616915b828110156127f4578886015182559484019460019091019084016127d5565b508582101561283057878501517fffffffffffffffffffffffffffffffffffffffffffffffffffffffffffffffff600388901b60f8161c191681555b5050505050600190811b01905550565b600073ffffffffffffffffffffffffffffffffffffffff80871683528086166020840152508360408301526080606083015261287f6080830184611fb5565b9695505050505050565b60006020828403121561289b57600080fd5b81516118e681611f3e56fea164736f6c634300080f000a496e697469616c697a61626c653a20636f6e7472616374206973206e6f742069",
    "linkReferences": {}
  },
  "methodIdentifiers": {
    "ATTESTATION_STATION()": "db083d71",
    "BASE_URI_ATTESTATION_KEY()": "21d3d5cf",
    "BASE_URI_ATTESTOR()": "19f463f2",
    "OPTIMIST_ALLOWLIST()": "ce5dd1b5",
    "approve(address,uint256)": "095ea7b3",
    "balanceOf(address)": "70a08231",
    "baseURI()": "6c0360eb",
    "burn(uint256)": "42966c68",
    "getApproved(uint256)": "081812fc",
    "initialize(string,string)": "4cd88b76",
    "isApprovedForAll(address,address)": "e985e9c5",
    "isOnAllowList(address)": "8f328a1f",
    "mint(address)": "6a627842",
    "name()": "06fdde03",
    "ownerOf(uint256)": "6352211e",
    "safeTransferFrom(address,address,uint256)": "42842e0e",
    "safeTransferFrom(address,address,uint256,bytes)": "b88d4fde",
    "setApprovalForAll(address,bool)": "a22cb465",
    "supportsInterface(bytes4)": "01ffc9a7",
    "symbol()": "95d89b41",
    "tokenIdOfAddress(address)": "7c08652f",
    "tokenURI(uint256)": "c87b56dd",
    "transferFrom(address,address,uint256)": "23b872dd",
    "version()": "54fd4d50"
  },
  "storageLayout": {
    "storage": [
      {
        "astId": 29536,
        "contract": "src/periphery/op-nft/Optimist.sol:Optimist",
        "label": "_initialized",
        "offset": 0,
        "slot": "0",
        "type": "t_uint8"
      },
      {
        "astId": 29539,
        "contract": "src/periphery/op-nft/Optimist.sol:Optimist",
        "label": "_initializing",
        "offset": 1,
        "slot": "0",
        "type": "t_bool"
      },
      {
        "astId": 31067,
        "contract": "src/periphery/op-nft/Optimist.sol:Optimist",
        "label": "__gap",
        "offset": 0,
        "slot": "1",
        "type": "t_array(t_uint256)50_storage"
      },
      {
        "astId": 31875,
        "contract": "src/periphery/op-nft/Optimist.sol:Optimist",
        "label": "__gap",
        "offset": 0,
        "slot": "51",
        "type": "t_array(t_uint256)50_storage"
      },
      {
        "astId": 29709,
        "contract": "src/periphery/op-nft/Optimist.sol:Optimist",
        "label": "_name",
        "offset": 0,
        "slot": "101",
        "type": "t_string_storage"
      },
      {
        "astId": 29711,
        "contract": "src/periphery/op-nft/Optimist.sol:Optimist",
        "label": "_symbol",
        "offset": 0,
        "slot": "102",
        "type": "t_string_storage"
      },
      {
        "astId": 29715,
        "contract": "src/periphery/op-nft/Optimist.sol:Optimist",
        "label": "_owners",
        "offset": 0,
        "slot": "103",
        "type": "t_mapping(t_uint256,t_address)"
      },
      {
        "astId": 29719,
        "contract": "src/periphery/op-nft/Optimist.sol:Optimist",
        "label": "_balances",
        "offset": 0,
        "slot": "104",
        "type": "t_mapping(t_address,t_uint256)"
      },
      {
        "astId": 29723,
        "contract": "src/periphery/op-nft/Optimist.sol:Optimist",
        "label": "_tokenApprovals",
        "offset": 0,
        "slot": "105",
        "type": "t_mapping(t_uint256,t_address)"
      },
      {
        "astId": 29729,
        "contract": "src/periphery/op-nft/Optimist.sol:Optimist",
        "label": "_operatorApprovals",
        "offset": 0,
        "slot": "106",
        "type": "t_mapping(t_address,t_mapping(t_address,t_bool))"
      },
      {
        "astId": 30571,
        "contract": "src/periphery/op-nft/Optimist.sol:Optimist",
        "label": "__gap",
        "offset": 0,
        "slot": "107",
        "type": "t_array(t_uint256)44_storage"
      },
      {
        "astId": 30755,
        "contract": "src/periphery/op-nft/Optimist.sol:Optimist",
        "label": "__gap",
        "offset": 0,
        "slot": "151",
        "type": "t_array(t_uint256)50_storage"
      }
    ],
    "types": {
      "t_address": {
        "encoding": "inplace",
        "label": "address",
        "numberOfBytes": "20"
      },
      "t_array(t_uint256)44_storage": {
        "encoding": "inplace",
        "label": "uint256[44]",
        "numberOfBytes": "1408",
        "base": "t_uint256"
      },
      "t_array(t_uint256)50_storage": {
        "encoding": "inplace",
        "label": "uint256[50]",
        "numberOfBytes": "1600",
        "base": "t_uint256"
      },
      "t_bool": {
        "encoding": "inplace",
        "label": "bool",
        "numberOfBytes": "1"
      },
      "t_mapping(t_address,t_bool)": {
        "encoding": "mapping",
        "key": "t_address",
        "label": "mapping(address => bool)",
        "numberOfBytes": "32",
        "value": "t_bool"
      },
      "t_mapping(t_address,t_mapping(t_address,t_bool))": {
        "encoding": "mapping",
        "key": "t_address",
        "label": "mapping(address => mapping(address => bool))",
        "numberOfBytes": "32",
        "value": "t_mapping(t_address,t_bool)"
      },
      "t_mapping(t_address,t_uint256)": {
        "encoding": "mapping",
        "key": "t_address",
        "label": "mapping(address => uint256)",
        "numberOfBytes": "32",
        "value": "t_uint256"
      },
      "t_mapping(t_uint256,t_address)": {
        "encoding": "mapping",
        "key": "t_uint256",
        "label": "mapping(uint256 => address)",
        "numberOfBytes": "32",
        "value": "t_address"
      },
      "t_string_storage": {
        "encoding": "bytes",
        "label": "string",
        "numberOfBytes": "32"
      },
      "t_uint256": {
        "encoding": "inplace",
        "label": "uint256",
        "numberOfBytes": "32"
      },
      "t_uint8": {
        "encoding": "inplace",
        "label": "uint8",
        "numberOfBytes": "1"
      }
    }
  },
  "userdoc": {
    "version": 1,
    "kind": "user",
    "methods": {
      "ATTESTATION_STATION()": {
        "notice": "Address of the AttestationStation contract."
      },
      "BASE_URI_ATTESTATION_KEY()": {
        "notice": "Attestation key used by the attestor to attest the baseURI."
      },
      "BASE_URI_ATTESTOR()": {
        "notice": "Attestor who attests to baseURI."
      },
      "OPTIMIST_ALLOWLIST()": {
        "notice": "Address of the OptimistAllowlist contract."
      },
      "approve(address,uint256)": {
        "notice": "Disabled for the Optimist NFT (Soul Bound Token)."
      },
      "baseURI()": {
        "notice": "Returns the baseURI for all tokens."
      },
      "initialize(string,string)": {
        "notice": "Initializes the Optimist contract."
      },
      "isOnAllowList(address)": {
        "notice": "Checks OptimistAllowlist to determine whether a given address is allowed to mint         the Optimist NFT. Since the Optimist NFT will also be used as part of the         Citizens House, mints are currently restricted. Eventually anyone will be able         to mint."
      },
      "mint(address)": {
        "notice": "Allows an address to mint an Optimist NFT. Token ID is the uint256 representation         of the recipient's address. Recipients must be permitted to mint, eventually anyone         will be able to mint. One token per address."
      },
      "setApprovalForAll(address,bool)": {
        "notice": "Disabled for the Optimist NFT (Soul Bound Token)."
      },
      "tokenIdOfAddress(address)": {
        "notice": "Returns the token ID for the token owned by a given address. This is the uint256         representation of the given address."
      },
      "tokenURI(uint256)": {
        "notice": "Returns the token URI for a given token by ID"
      },
      "version()": {
        "notice": "Returns the full semver contract version."
      }
    },
    "notice": "A Soul Bound Token for real humans only(tm)."
  },
  "devdoc": {
    "version": 1,
    "kind": "dev",
    "author": "Optimism CollectiveGitcoin",
    "methods": {
      "balanceOf(address)": {
        "details": "See {IERC721-balanceOf}."
      },
      "baseURI()": {
        "returns": {
          "uri_": "BaseURI for all tokens."
        }
      },
      "burn(uint256)": {
        "details": "Burns `tokenId`. See {ERC721-_burn}. Requirements: - The caller must own `tokenId` or be an approved operator."
      },
      "constructor": {
        "params": {
          "_attestationStation": "Address of the AttestationStation contract.",
          "_baseURIAttestor": "Address of the baseURI attestor.",
          "_name": "Token name.",
          "_optimistAllowlist": "Address of the OptimistAllowlist contract",
          "_symbol": "Token symbol."
        }
      },
      "getApproved(uint256)": {
        "details": "See {IERC721-getApproved}."
      },
      "initialize(string,string)": {
        "params": {
          "_name": "Token name.",
          "_symbol": "Token symbol."
        }
      },
      "isApprovedForAll(address,address)": {
        "details": "See {IERC721-isApprovedForAll}."
      },
      "isOnAllowList(address)": {
        "returns": {
          "allowed_": "Whether or not the address is allowed to mint yet."
        }
      },
      "mint(address)": {
        "params": {
          "_recipient": "Address of the token recipient."
        }
      },
      "name()": {
        "details": "See {IERC721Metadata-name}."
      },
      "ownerOf(uint256)": {
        "details": "See {IERC721-ownerOf}."
      },
      "safeTransferFrom(address,address,uint256)": {
        "details": "See {IERC721-safeTransferFrom}."
      },
      "safeTransferFrom(address,address,uint256,bytes)": {
        "details": "See {IERC721-safeTransferFrom}."
      },
      "supportsInterface(bytes4)": {
        "details": "See {IERC165-supportsInterface}."
      },
      "symbol()": {
        "details": "See {IERC721Metadata-symbol}."
      },
      "tokenIdOfAddress(address)": {
        "returns": {
          "_0": "Token ID for the token owned by the given address."
        }
      },
      "tokenURI(uint256)": {
        "params": {
          "_tokenId": "Token ID to query."
        },
        "returns": {
          "uri_": "Token URI for the given token by ID."
        }
      },
      "transferFrom(address,address,uint256)": {
        "details": "See {IERC721-transferFrom}."
      },
      "version()": {
        "returns": {
          "_0": "Semver contract version as a string."
        }
      }
    },
    "title": "Optimist"
  },
  "id": 215
}