{
  "abi": [
    {
      "anonymous": false,
      "inputs": [
        {
          "indexed": true,
          "internalType": "uint256",
          "name": "nonce",
          "type": "uint256"
        },
        {
          "indexed": true,
          "internalType": "address",
          "name": "sender",
          "type": "address"
        },
        {
          "indexed": true,
          "internalType": "address",
          "name": "target",
          "type": "address"
        },
        {
          "indexed": false,
          "internalType": "uint256",
          "name": "value",
          "type": "uint256"
        },
        {
          "indexed": false,
          "internalType": "uint256",
          "name": "gasLimit",
          "type": "uint256"
        },
        {
          "indexed": false,
          "internalType": "bytes",
          "name": "data",
          "type": "bytes"
        },
        {
          "indexed": false,
          "internalType": "bytes32",
          "name": "withdrawalHash",
          "type": "bytes32"
        }
      ],
      "name": "MessagePassed",
      "type": "event"
    },
    {
      "anonymous": false,
      "inputs": [
        {
          "indexed": true,
          "internalType": "uint256",
          "name": "amount",
          "type": "uint256"
        }
      ],
      "name": "WithdrawerBalanceBurnt",
      "type": "event"
    },
    {
      "inputs": [],
      "name": "MESSAGE_VERSION",
      "outputs": [
        {
          "internalType": "uint16",
          "name": "",
          "type": "uint16"
        }
      ],
      "stateMutability": "view",
      "type": "function"
    },
    {
      "inputs": [],
      "name": "burn",
      "outputs": [],
      "stateMutability": "nonpayable",
      "type": "function"
    },
    {
      "inputs": [
        {
          "internalType": "address",
          "name": "_target",
          "type": "address"
        },
        {
          "internalType": "uint256",
          "name": "_gasLimit",
          "type": "uint256"
        },
        {
          "internalType": "bytes",
          "name": "_data",
          "type": "bytes"
        }
      ],
      "name": "initiateWithdrawal",
      "outputs": [],
      "stateMutability": "payable",
      "type": "function"
    },
    {
      "inputs": [],
      "name": "messageNonce",
      "outputs": [
        {
          "internalType": "uint256",
          "name": "",
          "type": "uint256"
        }
      ],
      "stateMutability": "view",
      "type": "function"
    },
    {
      "inputs": [
        {
          "internalType": "bytes32",
          "name": "",
          "type": "bytes32"
        }
      ],
      "name": "sentMessages",
      "outputs": [
        {
          "internalType": "bool",
          "name": "",
          "type": "bool"
        }
      ],
      "stateMutability": "view",
      "type": "function"
    },
    {
      "inputs": [],
      "name": "version",
      "outputs": [
        {
          "internalType": "string",
          "name": "",
          "type": "string"
        }
      ],
      "stateMutability": "view",
      "type": "function"
    },
    {
      "stateMutability": "payable",
      "type": "receive"
    }
  ],
  "bytecode": {
    "object": "0x608060405234801561001057600080fd5b506106d3806100206000396000f3fe6080604052600436106100695760003560e01c806382e3702d1161004357806382e3702d1461012a578063c2b3e5ac1461016a578063ecc704281461017d57600080fd5b80633f827a5a1461009257806344df8e70146100bf57806354fd4d50146100d457600080fd5b3661008d5761008b33620186a0604051806020016040528060008152506101e2565b005b600080fd5b34801561009e57600080fd5b506100a7600181565b60405161ffff90911681526020015b60405180910390f35b3480156100cb57600080fd5b5061008b6103a6565b3480156100e057600080fd5b5061011d6040518060400160405280600581526020017f312e312e3000000000000000000000000000000000000000000000000000000081525081565b6040516100b691906104d1565b34801561013657600080fd5b5061015a6101453660046104eb565b60006020819052908152604090205460ff1681565b60405190151581526020016100b6565b61008b610178366004610533565b6101e2565b34801561018957600080fd5b506101d46001547dffffffffffffffffffffffffffffffffffffffffffffffffffffffffffff167e010000000000000000000000000000000000000000000000000000000000001790565b6040519081526020016100b6565b60006102786040518060c0016040528061023c6001547dffffffffffffffffffffffffffffffffffffffffffffffffffffffffffff167e010000000000000000000000000000000000000000000000000000000000001790565b815233602082015273ffffffffffffffffffffffffffffffffffffffff871660408201523460608201526080810186905260a0018490526103de565b600081815260208190526040902080547fffffffffffffffffffffffffffffffffffffffffffffffffffffffffffffff00166001179055905073ffffffffffffffffffffffffffffffffffffffff8416336103136001547dffffffffffffffffffffffffffffffffffffffffffffffffffffffffffff167e010000000000000000000000000000000000000000000000000000000000001790565b7f02a52367d10742d8032712c1bb8e0144ff1ec5ffda1ed7d70bb05a2744955054348787876040516103489493929190610637565b60405180910390a45050600180547dffffffffffffffffffffffffffffffffffffffffffffffffffffffffffff8082168301167fffff0000000000000000000000000000000000000000000000000000000000009091161790555050565b476103b08161042b565b60405181907f7967de617a5ac1cc7eba2d6f37570a0135afa950d8bb77cdd35f0d0b4e85a16f90600090a250565b80516020808301516040808501516060860151608087015160a0880151935160009761040e979096959101610667565b604051602081830303815290604052805190602001209050919050565b806040516104389061045a565b6040518091039082f0905080158015610455573d6000803e3d6000fd5b505050565b6008806106bf83390190565b6000815180845260005b8181101561048c57602081850181015186830182015201610470565b8181111561049e576000602083870101525b50601f017fffffffffffffffffffffffffffffffffffffffffffffffffffffffffffffffe0169290920160200192915050565b6020815260006104e46020830184610466565b9392505050565b6000602082840312156104fd57600080fd5b5035919050565b7f4e487b7100000000000000000000000000000000000000000000000000000000600052604160045260246000fd5b60008060006060848603121561054857600080fd5b833573ffffffffffffffffffffffffffffffffffffffff8116811461056c57600080fd5b925060208401359150604084013567ffffffffffffffff8082111561059057600080fd5b818601915086601f8301126105a457600080fd5b8135818111156105b6576105b6610504565b604051601f82017fffffffffffffffffffffffffffffffffffffffffffffffffffffffffffffffe0908116603f011681019083821181831017156105fc576105fc610504565b8160405282815289602084870101111561061557600080fd5b8260208601602083013760006020848301015280955050505050509250925092565b8481528360208201526080604082015260006106566080830185610466565b905082606083015295945050505050565b868152600073ffffffffffffffffffffffffffffffffffffffff808816602084015280871660408401525084606083015283608083015260c060a08301526106b260c0830184610466565b9897505050505050505056fe608060405230fffea164736f6c634300080f000a",
    "linkReferences": {}
  },
  "methodIdentifiers": {
    "MESSAGE_VERSION()": "3f827a5a",
    "burn()": "44df8e70",
    "initiateWithdrawal(address,uint256,bytes)": "c2b3e5ac",
    "messageNonce()": "ecc70428",
    "sentMessages(bytes32)": "82e3702d",
    "version()": "54fd4d50"
  },
  "storageLayout": {
    "storage": [
      {
        "astId": 53414,
        "contract": "src/L2/L2ToL1MessagePasser.sol:L2ToL1MessagePasser",
        "label": "sentMessages",
        "offset": 0,
        "slot": "0",
        "type": "t_mapping(t_bytes32,t_bool)"
      },
      {
        "astId": 53417,
        "contract": "src/L2/L2ToL1MessagePasser.sol:L2ToL1MessagePasser",
        "label": "msgNonce",
        "offset": 0,
        "slot": "1",
        "type": "t_uint240"
      }
    ],
    "types": {
      "t_bool": {
        "encoding": "inplace",
        "label": "bool",
        "numberOfBytes": "1"
      },
      "t_bytes32": {
        "encoding": "inplace",
        "label": "bytes32",
        "numberOfBytes": "32"
      },
      "t_mapping(t_bytes32,t_bool)": {
        "encoding": "mapping",
        "key": "t_bytes32",
        "label": "mapping(bytes32 => bool)",
        "numberOfBytes": "32",
        "value": "t_bool"
      },
      "t_uint240": {
        "encoding": "inplace",
        "label": "uint240",
        "numberOfBytes": "30"
      }
    }
  },
  "userdoc": {
    "version": 1,
    "kind": "user",
    "methods": {
      "MESSAGE_VERSION()": {
        "notice": "The current message version identifier."
      },
      "burn()": {
        "notice": "Removes all ETH held by this contract from the state. Used to prevent the amount of         ETH on L2 inflating when ETH is withdrawn. Currently only way to do this is to         create a contract and self-destruct it to itself. Anyone can call this function. Not         incentivized since this function is very cheap."
      },
      "initiateWithdrawal(address,uint256,bytes)": {
        "notice": "Sends a message from L2 to L1."
      },
      "messageNonce()": {
        "notice": "Retrieves the next message nonce. Message version will be added to the upper two         bytes of the message nonce. Message version allows us to treat messages as having         different structures."
      },
      "sentMessages(bytes32)": {
        "notice": "Includes the message hashes for all withdrawals"
      }
    },
    "events": {
      "MessagePassed(uint256,address,address,uint256,uint256,bytes,bytes32)": {
        "notice": "Emitted any time a withdrawal is initiated."
      },
      "WithdrawerBalanceBurnt(uint256)": {
        "notice": "Emitted when the balance of this contract is burned."
      }
    },
    "notice": "The L2ToL1MessagePasser is a dedicated contract where messages that are being sent from         L2 to L1 can be stored. The storage root of this contract is pulled up to the top level         of the L2 output to reduce the cost of proving the existence of sent messages."
  },
  "devdoc": {
    "version": 1,
    "kind": "dev",
    "methods": {
      "initiateWithdrawal(address,uint256,bytes)": {
        "params": {
          "_data": "Data to forward to L1 target.",
          "_gasLimit": "Minimum gas limit for executing the message on L1.",
          "_target": "Address to call on L1 execution."
        }
      },
      "messageNonce()": {
        "returns": {
          "_0": "Nonce of the next message to be sent, with added message version."
        }
      }
    },
    "events": {
      "MessagePassed(uint256,address,address,uint256,uint256,bytes,bytes32)": {
        "params": {
          "data": "The data to be forwarded to the target on L1.",
          "gasLimit": "The minimum amount of gas that must be provided when withdrawing.",
          "nonce": "Unique value corresponding to each withdrawal.",
          "sender": "The L2 account address which initiated the withdrawal.",
          "target": "The L1 account address the call will be send to.",
          "value": "The ETH value submitted for withdrawal, to be forwarded to the target.",
          "withdrawalHash": "The hash of the withdrawal."
        }
      },
      "WithdrawerBalanceBurnt(uint256)": {
        "params": {
          "amount": "Amount of ETh that was burned."
        }
      }
    },
    "title": "L2ToL1MessagePasser"
  },
  "id": 88
}