{
  "abi": [
    {
      "inputs": [],
      "name": "LEGACY_ERC20_ETH",
      "outputs": [
        {
          "internalType": "address",
          "name": "",
          "type": "address"
        }
      ],
      "stateMutability": "view",
      "type": "function"
    },
    {
      "inputs": [],
      "name": "LEGACY_l1token",
      "outputs": [
        {
          "internalType": "address",
          "name": "",
          "type": "address"
        }
      ],
      "stateMutability": "view",
      "type": "function"
    },
    {
      "inputs": [],
      "name": "crossDomainMessenger",
      "outputs": [
        {
          "internalType": "address",
          "name": "",
          "type": "address"
        }
      ],
      "stateMutability": "view",
      "type": "function"
    },
    {
      "inputs": [
        {
          "internalType": "uint256",
          "name": "",
          "type": "uint256"
        }
      ],
      "name": "dealData",
      "outputs": [
        {
          "internalType": "address",
          "name": "l2token",
          "type": "address"
        },
        {
          "internalType": "address",
          "name": "requester",
          "type": "address"
        },
        {
          "internalType": "address",
          "name": "provider",
          "type": "address"
        },
        {
          "internalType": "uint256",
          "name": "totalAmount",
          "type": "uint256"
        },
        {
          "internalType": "uint256",
          "name": "fwAmount",
          "type": "uint256"
        }
      ],
      "stateMutability": "view",
      "type": "function"
    },
    {
      "inputs": [],
      "name": "l1fastWithdrawContract",
      "outputs": [
        {
          "internalType": "address",
          "name": "",
          "type": "address"
        }
      ],
      "stateMutability": "view",
      "type": "function"
    },
    {
      "inputs": [],
      "name": "salecount",
      "outputs": [
        {
          "internalType": "uint256",
          "name": "",
          "type": "uint256"
        }
      ],
      "stateMutability": "view",
      "type": "function"
    }
  ],
  "bytecode": {
    "object": "0x608060405234801561001057600080fd5b506101fc806100206000396000f3fe608060405234801561001057600080fd5b50600436106100725760003560e01c8063e338e65511610050578063e338e65514610101578063f43b361314610118578063f5869c2f1461013857600080fd5b806342c66a881461007757806342e51d74146100c1578063609cd1fa146100e1575b600080fd5b6003546100979073ffffffffffffffffffffffffffffffffffffffff1681565b60405173ffffffffffffffffffffffffffffffffffffffff90911681526020015b60405180910390f35b6001546100979073ffffffffffffffffffffffffffffffffffffffff1681565b6002546100979073ffffffffffffffffffffffffffffffffffffffff1681565b61010a60045481565b6040519081526020016100b8565b6000546100979073ffffffffffffffffffffffffffffffffffffffff1681565b6101906101463660046101d6565b6005602052600090815260409020805460018201546002830154600384015460049094015473ffffffffffffffffffffffffffffffffffffffff9384169492841693909116919085565b6040805173ffffffffffffffffffffffffffffffffffffffff9687168152948616602086015292909416918301919091526060820152608081019190915260a0016100b8565b6000602082840312156101e857600080fd5b503591905056fea164736f6c634300080f000a",
    "linkReferences": {}
  },
  "methodIdentifiers": {
    "LEGACY_ERC20_ETH()": "609cd1fa",
    "LEGACY_l1token()": "42c66a88",
    "crossDomainMessenger()": "f43b3613",
    "dealData(uint256)": "f5869c2f",
    "l1fastWithdrawContract()": "42e51d74",
    "salecount()": "e338e655"
  },
  "storageLayout": {
    "storage": [
      {
        "astId": 1032,
        "contract": "src/L2/L2FastWithdrawStorage.sol:L2FastWithdrawStorage",
        "label": "crossDomainMessenger",
        "offset": 0,
        "slot": "0",
        "type": "t_address"
      },
      {
        "astId": 1034,
        "contract": "src/L2/L2FastWithdrawStorage.sol:L2FastWithdrawStorage",
        "label": "l1fastWithdrawContract",
        "offset": 0,
        "slot": "1",
        "type": "t_address"
      },
      {
        "astId": 1036,
        "contract": "src/L2/L2FastWithdrawStorage.sol:L2FastWithdrawStorage",
        "label": "LEGACY_ERC20_ETH",
        "offset": 0,
        "slot": "2",
        "type": "t_address"
      },
      {
        "astId": 1038,
        "contract": "src/L2/L2FastWithdrawStorage.sol:L2FastWithdrawStorage",
        "label": "LEGACY_l1token",
        "offset": 0,
        "slot": "3",
        "type": "t_address"
      },
      {
        "astId": 1040,
        "contract": "src/L2/L2FastWithdrawStorage.sol:L2FastWithdrawStorage",
        "label": "salecount",
        "offset": 0,
        "slot": "4",
        "type": "t_uint256"
      },
      {
        "astId": 1045,
        "contract": "src/L2/L2FastWithdrawStorage.sol:L2FastWithdrawStorage",
        "label": "dealData",
        "offset": 0,
        "slot": "5",
        "type": "t_mapping(t_uint256,t_struct(RequestData)1030_storage)"
      }
    ],
    "types": {
      "t_address": {
        "encoding": "inplace",
        "label": "address",
        "numberOfBytes": "20"
      },
      "t_mapping(t_uint256,t_struct(RequestData)1030_storage)": {
        "encoding": "mapping",
        "key": "t_uint256",
        "label": "mapping(uint256 => struct L2FastWithdrawStorage.RequestData)",
        "numberOfBytes": "32",
        "value": "t_struct(RequestData)1030_storage"
      },
      "t_struct(RequestData)1030_storage": {
        "encoding": "inplace",
        "label": "struct L2FastWithdrawStorage.RequestData",
        "numberOfBytes": "160",
        "members": [
          {
            "astId": 1021,
            "contract": "src/L2/L2FastWithdrawStorage.sol:L2FastWithdrawStorage",
            "label": "l2token",
            "offset": 0,
            "slot": "0",
            "type": "t_address"
          },
          {
            "astId": 1023,
            "contract": "src/L2/L2FastWithdrawStorage.sol:L2FastWithdrawStorage",
            "label": "requester",
            "offset": 0,
            "slot": "1",
            "type": "t_address"
          },
          {
            "astId": 1025,
            "contract": "src/L2/L2FastWithdrawStorage.sol:L2FastWithdrawStorage",
            "label": "provider",
            "offset": 0,
            "slot": "2",
            "type": "t_address"
          },
          {
            "astId": 1027,
            "contract": "src/L2/L2FastWithdrawStorage.sol:L2FastWithdrawStorage",
            "label": "totalAmount",
            "offset": 0,
            "slot": "3",
            "type": "t_uint256"
          },
          {
            "astId": 1029,
            "contract": "src/L2/L2FastWithdrawStorage.sol:L2FastWithdrawStorage",
            "label": "fwAmount",
            "offset": 0,
            "slot": "4",
            "type": "t_uint256"
          }
        ]
      },
      "t_uint256": {
        "encoding": "inplace",
        "label": "uint256",
        "numberOfBytes": "32"
      }
    }
  },
  "userdoc": {
    "version": 1,
    "kind": "user"
  },
  "devdoc": {
    "version": 1,
    "kind": "dev"
  },
  "id": 7
}