{
  "abi": [
    {
      "inputs": [],
      "stateMutability": "nonpayable",
      "type": "constructor"
    },
    {
      "anonymous": false,
      "inputs": [
        {
          "indexed": true,
          "internalType": "address",
          "name": "creator",
          "type": "address"
        },
        {
          "indexed": true,
          "internalType": "address",
          "name": "about",
          "type": "address"
        },
        {
          "indexed": true,
          "internalType": "bytes32",
          "name": "key",
          "type": "bytes32"
        },
        {
          "indexed": false,
          "internalType": "bytes",
          "name": "val",
          "type": "bytes"
        }
      ],
      "name": "AttestationCreated",
      "type": "event"
    },
    {
      "inputs": [
        {
          "components": [
            {
              "internalType": "address",
              "name": "about",
              "type": "address"
            },
            {
              "internalType": "bytes32",
              "name": "key",
              "type": "bytes32"
            },
            {
              "internalType": "bytes",
              "name": "val",
              "type": "bytes"
            }
          ],
          "internalType": "struct AttestationStation.AttestationData[]",
          "name": "_attestations",
          "type": "tuple[]"
        }
      ],
      "name": "attest",
      "outputs": [],
      "stateMutability": "nonpayable",
      "type": "function"
    },
    {
      "inputs": [
        {
          "internalType": "address",
          "name": "_about",
          "type": "address"
        },
        {
          "internalType": "bytes32",
          "name": "_key",
          "type": "bytes32"
        },
        {
          "internalType": "bytes",
          "name": "_val",
          "type": "bytes"
        }
      ],
      "name": "attest",
      "outputs": [],
      "stateMutability": "nonpayable",
      "type": "function"
    },
    {
      "inputs": [
        {
          "internalType": "address",
          "name": "",
          "type": "address"
        },
        {
          "internalType": "address",
          "name": "",
          "type": "address"
        },
        {
          "internalType": "bytes32",
          "name": "",
          "type": "bytes32"
        }
      ],
      "name": "attestations",
      "outputs": [
        {
          "internalType": "bytes",
          "name": "",
          "type": "bytes"
        }
      ],
      "stateMutability": "view",
      "type": "function"
    },
    {
      "inputs": [],
      "name": "version",
      "outputs": [
        {
          "internalType": "string",
          "name": "",
          "type": "string"
        }
      ],
      "stateMutability": "view",
      "type": "function"
    }
  ],
  "bytecode": {
    "object": "0x60e060405234801561001057600080fd5b506001608081905260a052600260c05260805160a05160c051610af361004f60003960006101ad015260006101840152600061015b0152610af36000f3fe608060405234801561001057600080fd5b506004361061004c5760003560e01c806329b42cb51461005157806354fd4d501461007a5780635eb5ea1014610082578063702b9dee14610097575b600080fd5b61006461005f36600461046c565b6100aa565b604051610071919061051e565b60405180910390f35b610064610154565b610095610090366004610538565b6101f7565b005b6100956100a5366004610687565b61025a565b60006020818152938152604080822085529281528281209093528252902080546100d3906106de565b80601f01602080910402602001604051908101604052809291908181526020018280546100ff906106de565b801561014c5780601f106101215761010080835404028352916020019161014c565b820191906000526020600020905b81548152906001019060200180831161012f57829003601f168201915b505050505081565b606061017f7f0000000000000000000000000000000000000000000000000000000000000000610306565b6101a87f0000000000000000000000000000000000000000000000000000000000000000610306565b6101d17f0000000000000000000000000000000000000000000000000000000000000000610306565b6040516020016101e393929190610731565b604051602081830303815290604052905090565b8060005b81811015610254576000848483818110610217576102176107a7565b905060200281019061022991906107d6565b61023290610814565b905061024b81600001518260200151836040015161025a565b506001016101fb565b50505050565b3360009081526020818152604080832073ffffffffffffffffffffffffffffffffffffffff871684528252808320858452909152902061029a82826108df565b50818373ffffffffffffffffffffffffffffffffffffffff163373ffffffffffffffffffffffffffffffffffffffff167f28710dfecab43d1e29e02aa56b2e1e610c0bae19135c9cf7a83a1adb6df96d85846040516102f9919061051e565b60405180910390a4505050565b60608160000361034957505060408051808201909152600181527f3000000000000000000000000000000000000000000000000000000000000000602082015290565b8160005b8115610373578061035d81610a28565b915061036c9050600a83610a8f565b915061034d565b60008167ffffffffffffffff81111561038e5761038e6105ad565b6040519080825280601f01601f1916602001820160405280156103b8576020820181803683370190505b5090505b841561043b576103cd600183610aa3565b91506103da600a86610aba565b6103e5906030610ace565b60f81b8183815181106103fa576103fa6107a7565b60200101907effffffffffffffffffffffffffffffffffffffffffffffffffffffffffffff1916908160001a905350610434600a86610a8f565b94506103bc565b949350505050565b803573ffffffffffffffffffffffffffffffffffffffff8116811461046757600080fd5b919050565b60008060006060848603121561048157600080fd5b61048a84610443565b925061049860208501610443565b9150604084013590509250925092565b60005b838110156104c35781810151838201526020016104ab565b838111156102545750506000910152565b600081518084526104ec8160208601602086016104a8565b601f017fffffffffffffffffffffffffffffffffffffffffffffffffffffffffffffffe0169290920160200192915050565b60208152600061053160208301846104d4565b9392505050565b6000806020838503121561054b57600080fd5b823567ffffffffffffffff8082111561056357600080fd5b818501915085601f83011261057757600080fd5b81358181111561058657600080fd5b8660208260051b850101111561059b57600080fd5b60209290920196919550909350505050565b7f4e487b7100000000000000000000000000000000000000000000000000000000600052604160045260246000fd5b600082601f8301126105ed57600080fd5b813567ffffffffffffffff80821115610608576106086105ad565b604051601f83017fffffffffffffffffffffffffffffffffffffffffffffffffffffffffffffffe0908116603f0116810190828211818310171561064e5761064e6105ad565b8160405283815286602085880101111561066757600080fd5b836020870160208301376000602085830101528094505050505092915050565b60008060006060848603121561069c57600080fd5b6106a584610443565b925060208401359150604084013567ffffffffffffffff8111156106c857600080fd5b6106d4868287016105dc565b9150509250925092565b600181811c908216806106f257607f821691505b60208210810361072b577f4e487b7100000000000000000000000000000000000000000000000000000000600052602260045260246000fd5b50919050565b600084516107438184602089016104a8565b80830190507f2e00000000000000000000000000000000000000000000000000000000000000808252855161077f816001850160208a016104a8565b6001920191820152835161079a8160028401602088016104a8565b0160020195945050505050565b7f4e487b7100000000000000000000000000000000000000000000000000000000600052603260045260246000fd5b600082357fffffffffffffffffffffffffffffffffffffffffffffffffffffffffffffffa183360301811261080a57600080fd5b9190910192915050565b60006060823603121561082657600080fd5b6040516060810167ffffffffffffffff828210818311171561084a5761084a6105ad565b8160405261085785610443565b835260208501356020840152604085013591508082111561087757600080fd5b50610884368286016105dc565b60408301525092915050565b601f8211156108da57600081815260208120601f850160051c810160208610156108b75750805b601f850160051c820191505b818110156108d6578281556001016108c3565b5050505b505050565b815167ffffffffffffffff8111156108f9576108f96105ad565b61090d8161090784546106de565b84610890565b602080601f831160018114610960576000841561092a5750858301515b7fffffffffffffffffffffffffffffffffffffffffffffffffffffffffffffffff600386901b1c1916600185901b1785556108d6565b6000858152602081207fffffffffffffffffffffffffffffffffffffffffffffffffffffffffffffffe08616915b828110156109ad5788860151825594840194600190910190840161098e565b50858210156109e957878501517fffffffffffffffffffffffffffffffffffffffffffffffffffffffffffffffff600388901b60f8161c191681555b5050505050600190811b01905550565b7f4e487b7100000000000000000000000000000000000000000000000000000000600052601160045260246000fd5b60007fffffffffffffffffffffffffffffffffffffffffffffffffffffffffffffffff8203610a5957610a596109f9565b5060010190565b7f4e487b7100000000000000000000000000000000000000000000000000000000600052601260045260246000fd5b600082610a9e57610a9e610a60565b500490565b600082821015610ab557610ab56109f9565b500390565b600082610ac957610ac9610a60565b500690565b60008219821115610ae157610ae16109f9565b50019056fea164736f6c634300080f000a",
    "linkReferences": {}
  },
  "methodIdentifiers": {
    "attest((address,bytes32,bytes)[])": "5eb5ea10",
    "attest(address,bytes32,bytes)": "702b9dee",
    "attestations(address,address,bytes32)": "29b42cb5",
    "version()": "54fd4d50"
  },
  "storageLayout": {
    "storage": [
      {
        "astId": 79457,
        "contract": "src/periphery/op-nft/AttestationStation.sol:AttestationStation",
        "label": "attestations",
        "offset": 0,
        "slot": "0",
        "type": "t_mapping(t_address,t_mapping(t_address,t_mapping(t_bytes32,t_bytes_storage)))"
      }
    ],
    "types": {
      "t_address": {
        "encoding": "inplace",
        "label": "address",
        "numberOfBytes": "20"
      },
      "t_bytes32": {
        "encoding": "inplace",
        "label": "bytes32",
        "numberOfBytes": "32"
      },
      "t_bytes_storage": {
        "encoding": "bytes",
        "label": "bytes",
        "numberOfBytes": "32"
      },
      "t_mapping(t_address,t_mapping(t_address,t_mapping(t_bytes32,t_bytes_storage)))": {
        "encoding": "mapping",
        "key": "t_address",
        "label": "mapping(address => mapping(address => mapping(bytes32 => bytes)))",
        "numberOfBytes": "32",
        "value": "t_mapping(t_address,t_mapping(t_bytes32,t_bytes_storage))"
      },
      "t_mapping(t_address,t_mapping(t_bytes32,t_bytes_storage))": {
        "encoding": "mapping",
        "key": "t_address",
        "label": "mapping(address => mapping(bytes32 => bytes))",
        "numberOfBytes": "32",
        "value": "t_mapping(t_bytes32,t_bytes_storage)"
      },
      "t_mapping(t_bytes32,t_bytes_storage)": {
        "encoding": "mapping",
        "key": "t_bytes32",
        "label": "mapping(bytes32 => bytes)",
        "numberOfBytes": "32",
        "value": "t_bytes_storage"
      }
    }
  },
  "userdoc": {
    "version": 1,
    "kind": "user",
    "methods": {
      "attest((address,bytes32,bytes)[])": {
        "notice": "Allows anyone to create attestations."
      },
      "attest(address,bytes32,bytes)": {
        "notice": "Allows anyone to create an attestation."
      },
      "attestations(address,address,bytes32)": {
        "notice": "Maps addresses to attestations. Creator => About => Key => Value."
      },
      "version()": {
        "notice": "Returns the full semver contract version."
      }
    },
    "events": {
      "AttestationCreated(address,address,bytes32,bytes)": {
        "notice": "Emitted when Attestation is created."
      }
    },
    "notice": "Where attestations live."
  },
  "devdoc": {
    "version": 1,
    "kind": "dev",
    "author": "Optimism CollectiveGitcoin",
    "methods": {
      "attest((address,bytes32,bytes)[])": {
        "params": {
          "_attestations": "An array of AttestationData structs."
        }
      },
      "attest(address,bytes32,bytes)": {
        "params": {
          "_about": "Address that the attestation is about.",
          "_key": "A key used to namespace the attestation.",
          "_val": "An arbitrary value stored as part of the attestation."
        }
      },
      "constructor": {},
      "version()": {
        "returns": {
          "_0": "Semver contract version as a string."
        }
      }
    },
    "events": {
      "AttestationCreated(address,address,bytes32,bytes)": {
        "params": {
          "about": "Address attestation is about.",
          "creator": "Address that made the attestation.",
          "key": "Key of the attestation.",
          "val": "Value of the attestation."
        }
      }
    },
    "title": "AttestationStation"
  },
  "id": 196
}