{
  "abi": [
    {
      "inputs": [
        {
          "internalType": "contract Safe",
          "name": "_safe",
          "type": "address"
        }
      ],
      "stateMutability": "nonpayable",
      "type": "constructor"
    },
    {
      "anonymous": false,
      "inputs": [
        {
          "indexed": false,
          "internalType": "address",
          "name": "owner",
          "type": "address"
        }
      ],
      "name": "OwnerRecorded",
      "type": "event"
    },
    {
      "inputs": [
        {
          "internalType": "bytes32",
          "name": "",
          "type": "bytes32"
        },
        {
          "internalType": "bool",
          "name": "",
          "type": "bool"
        }
      ],
      "name": "checkAfterExecution",
      "outputs": [],
      "stateMutability": "nonpayable",
      "type": "function"
    },
    {
      "inputs": [
        {
          "internalType": "address",
          "name": "to",
          "type": "address"
        },
        {
          "internalType": "uint256",
          "name": "value",
          "type": "uint256"
        },
        {
          "internalType": "bytes",
          "name": "data",
          "type": "bytes"
        },
        {
          "internalType": "enum Enum.Operation",
          "name": "operation",
          "type": "uint8"
        },
        {
          "internalType": "uint256",
          "name": "safeTxGas",
          "type": "uint256"
        },
        {
          "internalType": "uint256",
          "name": "baseGas",
          "type": "uint256"
        },
        {
          "internalType": "uint256",
          "name": "gasPrice",
          "type": "uint256"
        },
        {
          "internalType": "address",
          "name": "gasToken",
          "type": "address"
        },
        {
          "internalType": "address payable",
          "name": "refundReceiver",
          "type": "address"
        },
        {
          "internalType": "bytes",
          "name": "signatures",
          "type": "bytes"
        },
        {
          "internalType": "address",
          "name": "msgSender",
          "type": "address"
        }
      ],
      "name": "checkTransaction",
      "outputs": [],
      "stateMutability": "nonpayable",
      "type": "function"
    },
    {
      "inputs": [
        {
          "internalType": "address",
          "name": "",
          "type": "address"
        }
      ],
      "name": "lastLive",
      "outputs": [
        {
          "internalType": "uint256",
          "name": "",
          "type": "uint256"
        }
      ],
      "stateMutability": "view",
      "type": "function"
    },
    {
      "inputs": [],
      "name": "safe",
      "outputs": [
        {
          "internalType": "contract Safe",
          "name": "safe_",
          "type": "address"
        }
      ],
      "stateMutability": "view",
      "type": "function"
    },
    {
      "inputs": [],
      "name": "showLiveness",
      "outputs": [],
      "stateMutability": "nonpayable",
      "type": "function"
    },
    {
      "inputs": [
        {
          "internalType": "bytes4",
          "name": "interfaceId",
          "type": "bytes4"
        }
      ],
      "name": "supportsInterface",
      "outputs": [
        {
          "internalType": "bool",
          "name": "",
          "type": "bool"
        }
      ],
      "stateMutability": "view",
      "type": "function"
    },
    {
      "inputs": [],
      "name": "version",
      "outputs": [
        {
          "internalType": "string",
          "name": "",
          "type": "string"
        }
      ],
      "stateMutability": "view",
      "type": "function"
    }
  ],
  "bytecode": {
    "object": "0x60a06040523480156200001157600080fd5b506040516200177138038062001771833981016040819052620000349162000170565b806001600160a01b03166080816001600160a01b0316815250506000816001600160a01b031663a0e67e2b6040518163ffffffff1660e01b8152600401600060405180830381865afa1580156200008f573d6000803e3d6000fd5b505050506040513d6000823e601f3d908101601f19168201604052620000b99190810190620001bf565b905060005b81518110156200014e576000828281518110620000df57620000df62000291565b6020908102919091018101516001600160a01b0381166000818152808452604090819020429055519081529092507f833bc129023866d52116d61e94b791eb8be46f05709362e0bcf1fe7c1a8c225c910160405180910390a150806200014581620002a7565b915050620000be565b505050620002cf565b6001600160a01b03811681146200016d57600080fd5b50565b6000602082840312156200018357600080fd5b8151620001908162000157565b9392505050565b634e487b7160e01b600052604160045260246000fd5b8051620001ba8162000157565b919050565b60006020808385031215620001d357600080fd5b82516001600160401b0380821115620001eb57600080fd5b818501915085601f8301126200020057600080fd5b81518181111562000215576200021562000197565b8060051b604051601f19603f830116810181811085821117156200023d576200023d62000197565b6040529182528482019250838101850191888311156200025c57600080fd5b938501935b8285101562000285576200027585620001ad565b8452938501939285019262000261565b98975050505050505050565b634e487b7160e01b600052603260045260246000fd5b600060018201620002c857634e487b7160e01b600052601160045260246000fd5b5060010190565b6080516114566200031b6000396000818160c40152818161025c015281816103bf015281816104c1015281816105080152818161060b015281816107ad015261098501526114566000f3fe608060405234801561001057600080fd5b506004361061007d5760003560e01c806354fd4d501161005b57806354fd4d50146100f857806375f0bb52146101415780639327136814610154578063e458779b1461016757600080fd5b806301ffc9a714610082578063186f0354146100aa5780634c205d0d146100ee575b600080fd5b610095610090366004610e47565b610195565b60405190151581526020015b60405180910390f35b60405173ffffffffffffffffffffffffffffffffffffffff7f00000000000000000000000000000000000000000000000000000000000000001681526020016100a1565b6100f661022e565b005b6101346040518060400160405280600581526020017f312e302e3000000000000000000000000000000000000000000000000000000081525081565b6040516100a19190610ef4565b6100f661014f366004611057565b6103b3565b6100f661016236600461114a565b6107a1565b61018761017536600461117a565b60006020819052908152604090205481565b6040519081526020016100a1565b60007fffffffff0000000000000000000000000000000000000000000000000000000082167fe6d7a83a00000000000000000000000000000000000000000000000000000000148061022857507fffffffff0000000000000000000000000000000000000000000000000000000082167f01ffc9a700000000000000000000000000000000000000000000000000000000145b92915050565b6040517f2f54bf6e0000000000000000000000000000000000000000000000000000000081523360048201527f000000000000000000000000000000000000000000000000000000000000000073ffffffffffffffffffffffffffffffffffffffff1690632f54bf6e90602401602060405180830381865afa1580156102b8573d6000803e3d6000fd5b505050506040513d601f19601f820116820180604052508101906102dc9190611197565b61036d576040517f08c379a000000000000000000000000000000000000000000000000000000000815260206004820152603860248201527f4c6976656e65737347756172643a206f6e6c792053616665206f776e6572732060448201527f6d61792064656d6f6e737472617465206c6976656e657373000000000000000060648201526084015b60405180910390fd5b336000818152602081815260409182902042905590519182527f833bc129023866d52116d61e94b791eb8be46f05709362e0bcf1fe7c1a8c225c910160405180910390a1565b6103bb61096d565b60007f000000000000000000000000000000000000000000000000000000000000000073ffffffffffffffffffffffffffffffffffffffff1663a0e67e2b6040518163ffffffff1660e01b8152600401600060405180830381865afa158015610428573d6000803e3d6000fd5b505050506040513d6000823e601f3d9081017fffffffffffffffffffffffffffffffffffffffffffffffffffffffffffffffe016820160405261046e91908101906111b4565b905060005b81518110156104bc576104a982828151811061049157610491611266565b60200260200101516001610a3490919063ffffffff16565b50806104b4816112c4565b915050610473565b5060007f000000000000000000000000000000000000000000000000000000000000000073ffffffffffffffffffffffffffffffffffffffff1663d8d11f788e8e8e8e8e8e8e8e8e60017f000000000000000000000000000000000000000000000000000000000000000073ffffffffffffffffffffffffffffffffffffffff1663affed0e06040518163ffffffff1660e01b8152600401602060405180830381865afa158015610571573d6000803e3d6000fd5b505050506040513d601f19601f8201168201806040525081019061059591906112fc565b61059f9190611315565b6040518b63ffffffff1660e01b81526004016105c49a9998979695949392919061132c565b602060405180830381865afa1580156105e1573d6000803e3d6000fd5b505050506040513d601f19601f8201168201806040525081019061060591906112fc565b905060007f000000000000000000000000000000000000000000000000000000000000000073ffffffffffffffffffffffffffffffffffffffff1663e75235b86040518163ffffffff1660e01b8152600401602060405180830381865afa158015610674573d6000803e3d6000fd5b505050506040513d601f19601f8201168201806040525081019061069891906112fc565b905060006106a7838784610a5d565b905060005b815181101561078f57426000808484815181106106cb576106cb611266565b602002602001015173ffffffffffffffffffffffffffffffffffffffff1673ffffffffffffffffffffffffffffffffffffffff168152602001908152602001600020819055507f833bc129023866d52116d61e94b791eb8be46f05709362e0bcf1fe7c1a8c225c82828151811061074457610744611266565b6020026020010151604051610775919073ffffffffffffffffffffffffffffffffffffffff91909116815260200190565b60405180910390a180610787816112c4565b9150506106ac565b50505050505050505050505050505050565b6107a961096d565b60007f000000000000000000000000000000000000000000000000000000000000000073ffffffffffffffffffffffffffffffffffffffff1663a0e67e2b6040518163ffffffff1660e01b8152600401600060405180830381865afa158015610816573d6000803e3d6000fd5b505050506040513d6000823e601f3d9081017fffffffffffffffffffffffffffffffffffffffffffffffffffffffffffffffe016820160405261085c91908101906111b4565b905060005b81518110156108e157600082828151811061087e5761087e611266565b6020026020010151905061089c816001610c7a90919063ffffffff16565b15156000036108ce5773ffffffffffffffffffffffffffffffffffffffff811660009081526020819052604090204290555b50806108d9816112c4565b915050610861565b5060006108ee6001610c9c565b905060005b815181101561096657600082828151811061091057610910611266565b60209081029190910181015173ffffffffffffffffffffffffffffffffffffffff811660009081529182905260408220919091559050610951600182610c7a565b5050808061095e906112c4565b9150506108f3565b5050505050565b3373ffffffffffffffffffffffffffffffffffffffff7f00000000000000000000000000000000000000000000000000000000000000001614610a32576040517f08c379a000000000000000000000000000000000000000000000000000000000815260206004820152602f60248201527f4c6976656e65737347756172643a206f6e6c7920536166652063616e2063616c60448201527f6c20746869732066756e6374696f6e00000000000000000000000000000000006064820152608401610364565b565b6000610a568373ffffffffffffffffffffffffffffffffffffffff8416610ca9565b9392505050565b60608167ffffffffffffffff811115610a7857610a78610f3c565b604051908082528060200260200182016040528015610aa1578160200160208202803683370190505b50905060008060008060005b86811015610c6e576041818102890160208101516040820151919092015160ff16955090935091506000849003610ae9578260001c9450610c24565b8360ff16600103610aff578260001c9450610c24565b601e8460ff161115610bc4576040517f19457468657265756d205369676e6564204d6573736167653a0a3332000000006020820152603c81018a9052600190605c0160405160208183030381529060405280519060200120600486610b6491906113f7565b6040805160008152602081018083529390935260ff90911690820152606081018590526080810184905260a0016020604051602081039080840390855afa158015610bb3573d6000803e3d6000fd5b505050602060405103519450610c24565b6040805160008152602081018083528b905260ff861691810191909152606081018490526080810183905260019060a0016020604051602081039080840390855afa158015610c17573d6000803e3d6000fd5b5050506020604051035194505b84868281518110610c3757610c37611266565b73ffffffffffffffffffffffffffffffffffffffff9092166020928302919091019091015280610c66816112c4565b915050610aad565b50505050509392505050565b6000610a568373ffffffffffffffffffffffffffffffffffffffff8416610cf8565b60606000610a5683610deb565b6000818152600183016020526040812054610cf057508154600181810184556000848152602080822090930184905584548482528286019093526040902091909155610228565b506000610228565b60008181526001830160205260408120548015610de1576000610d1c600183611315565b8554909150600090610d3090600190611315565b9050818114610d95576000866000018281548110610d5057610d50611266565b9060005260206000200154905080876000018481548110610d7357610d73611266565b6000918252602080832090910192909255918252600188019052604090208390555b8554869080610da657610da661141a565b600190038181906000526020600020016000905590558560010160008681526020019081526020016000206000905560019350505050610228565b6000915050610228565b606081600001805480602002602001604051908101604052809291908181526020018280548015610e3b57602002820191906000526020600020905b815481526020019060010190808311610e27575b50505050509050919050565b600060208284031215610e5957600080fd5b81357fffffffff0000000000000000000000000000000000000000000000000000000081168114610a5657600080fd5b6000815180845260005b81811015610eaf57602081850181015186830182015201610e93565b81811115610ec1576000602083870101525b50601f017fffffffffffffffffffffffffffffffffffffffffffffffffffffffffffffffe0169290920160200192915050565b602081526000610a566020830184610e89565b73ffffffffffffffffffffffffffffffffffffffff81168114610f2957600080fd5b50565b8035610f3781610f07565b919050565b7f4e487b7100000000000000000000000000000000000000000000000000000000600052604160045260246000fd5b604051601f82017fffffffffffffffffffffffffffffffffffffffffffffffffffffffffffffffe016810167ffffffffffffffff81118282101715610fb257610fb2610f3c565b604052919050565b600082601f830112610fcb57600080fd5b813567ffffffffffffffff811115610fe557610fe5610f3c565b61101660207fffffffffffffffffffffffffffffffffffffffffffffffffffffffffffffffe0601f84011601610f6b565b81815284602083860101111561102b57600080fd5b816020850160208301376000918101602001919091529392505050565b803560028110610f3757600080fd5b60008060008060008060008060008060006101608c8e03121561107957600080fd5b6110828c610f2c565b9a5060208c0135995067ffffffffffffffff8060408e013511156110a557600080fd5b6110b58e60408f01358f01610fba565b99506110c360608e01611048565b985060808d0135975060a08d0135965060c08d013595506110e660e08e01610f2c565b94506110f56101008e01610f2c565b9350806101208e0135111561110957600080fd5b5061111b8d6101208e01358e01610fba565b915061112a6101408d01610f2c565b90509295989b509295989b9093969950565b8015158114610f2957600080fd5b6000806040838503121561115d57600080fd5b82359150602083013561116f8161113c565b809150509250929050565b60006020828403121561118c57600080fd5b8135610a5681610f07565b6000602082840312156111a957600080fd5b8151610a568161113c565b600060208083850312156111c757600080fd5b825167ffffffffffffffff808211156111df57600080fd5b818501915085601f8301126111f357600080fd5b81518181111561120557611205610f3c565b8060051b9150611216848301610f6b565b818152918301840191848101908884111561123057600080fd5b938501935b8385101561125a578451925061124a83610f07565b8282529385019390850190611235565b98975050505050505050565b7f4e487b7100000000000000000000000000000000000000000000000000000000600052603260045260246000fd5b7f4e487b7100000000000000000000000000000000000000000000000000000000600052601160045260246000fd5b60007fffffffffffffffffffffffffffffffffffffffffffffffffffffffffffffffff82036112f5576112f5611295565b5060010190565b60006020828403121561130e57600080fd5b5051919050565b60008282101561132757611327611295565b500390565b600061014073ffffffffffffffffffffffffffffffffffffffff808e1684528c60208501528160408501526113638285018d610e89565b925060028b1061139c577f4e487b7100000000000000000000000000000000000000000000000000000000600052602160045260246000fd5b8a60608501528960808501528860a08501528760c085015280871660e085015250506113e161010083018573ffffffffffffffffffffffffffffffffffffffff169052565b826101208301529b9a5050505050505050505050565b600060ff821660ff84168082101561141157611411611295565b90039392505050565b7f4e487b7100000000000000000000000000000000000000000000000000000000600052603160045260246000fdfea164736f6c634300080f000a",
    "linkReferences": {}
  },
  "methodIdentifiers": {
    "checkAfterExecution(bytes32,bool)": "93271368",
    "checkTransaction(address,uint256,bytes,uint8,uint256,uint256,uint256,address,address,bytes,address)": "75f0bb52",
    "lastLive(address)": "e458779b",
    "safe()": "186f0354",
    "showLiveness()": "4c205d0d",
    "supportsInterface(bytes4)": "01ffc9a7",
    "version()": "54fd4d50"
  },
  "storageLayout": {
    "storage": [
      {
        "astId": 67676,
        "contract": "src/Safe/LivenessGuard.sol:LivenessGuard",
        "label": "lastLive",
        "offset": 0,
        "slot": "0",
        "type": "t_mapping(t_address,t_uint256)"
      },
      {
        "astId": 67680,
        "contract": "src/Safe/LivenessGuard.sol:LivenessGuard",
        "label": "ownersBefore",
        "offset": 0,
        "slot": "1",
        "type": "t_struct(AddressSet)39784_storage"
      }
    ],
    "types": {
      "t_address": {
        "encoding": "inplace",
        "label": "address",
        "numberOfBytes": "20"
      },
      "t_array(t_bytes32)dyn_storage": {
        "encoding": "dynamic_array",
        "label": "bytes32[]",
        "numberOfBytes": "32",
        "base": "t_bytes32"
      },
      "t_bytes32": {
        "encoding": "inplace",
        "label": "bytes32",
        "numberOfBytes": "32"
      },
      "t_mapping(t_address,t_uint256)": {
        "encoding": "mapping",
        "key": "t_address",
        "label": "mapping(address => uint256)",
        "numberOfBytes": "32",
        "value": "t_uint256"
      },
      "t_mapping(t_bytes32,t_uint256)": {
        "encoding": "mapping",
        "key": "t_bytes32",
        "label": "mapping(bytes32 => uint256)",
        "numberOfBytes": "32",
        "value": "t_uint256"
      },
      "t_struct(AddressSet)39784_storage": {
        "encoding": "inplace",
        "label": "struct EnumerableSet.AddressSet",
        "numberOfBytes": "64",
        "members": [
          {
            "astId": 39783,
            "contract": "src/Safe/LivenessGuard.sol:LivenessGuard",
            "label": "_inner",
            "offset": 0,
            "slot": "0",
            "type": "t_struct(Set)39483_storage"
          }
        ]
      },
      "t_struct(Set)39483_storage": {
        "encoding": "inplace",
        "label": "struct EnumerableSet.Set",
        "numberOfBytes": "64",
        "members": [
          {
            "astId": 39478,
            "contract": "src/Safe/LivenessGuard.sol:LivenessGuard",
            "label": "_values",
            "offset": 0,
            "slot": "0",
            "type": "t_array(t_bytes32)dyn_storage"
          },
          {
            "astId": 39482,
            "contract": "src/Safe/LivenessGuard.sol:LivenessGuard",
            "label": "_indexes",
            "offset": 0,
            "slot": "1",
            "type": "t_mapping(t_bytes32,t_uint256)"
          }
        ]
      },
      "t_uint256": {
        "encoding": "inplace",
        "label": "uint256",
        "numberOfBytes": "32"
      }
    }
  },
  "userdoc": {
    "version": 1,
    "kind": "user",
    "methods": {
      "checkAfterExecution(bytes32,bool)": {
        "notice": "Update the lastLive mapping according to the set of owners before and after execution."
      },
      "checkTransaction(address,uint256,bytes,uint8,uint256,uint256,uint256,address,address,bytes,address)": {
        "notice": "Records the most recent time which any owner has signed a transaction."
      },
      "constructor": {
        "notice": "Constructor."
      },
      "lastLive(address)": {
        "notice": "A mapping of the timestamp at which an owner last participated in signing a         an executed transaction, or called showLiveness."
      },
      "safe()": {
        "notice": "Getter function for the Safe contract instance"
      },
      "showLiveness()": {
        "notice": "Enables an owner to demonstrate liveness by calling this method directly.         This is useful for owners who have not recently signed a transaction via the Safe."
      },
      "version()": {
        "notice": "Semantic version."
      }
    },
    "events": {
      "OwnerRecorded(address)": {
        "notice": "Emitted when an owner is recorded."
      }
    },
    "notice": "This Guard contract is used to track the liveness of Safe owners."
  },
  "devdoc": {
    "version": 1,
    "kind": "dev",
    "details": "It keeps track of the last time each owner participated in signing a transaction.      If an owner does not participate in a transaction for a certain period of time, they are considered inactive.      This Guard is intended to be used in conjunction with the LivenessModule contract, but does      not depend on it.      Note: Both `checkTransaction` and `checkAfterExecution` are called once each by the Safe contract      before and after the execution of a transaction. It is critical that neither function revert,      otherwise the Safe contract will be unable to execute a transaction.",
    "methods": {
      "checkAfterExecution(bytes32,bool)": {
        "details": "Called by the Safe contract after the execution of a transaction.      We use this post execution hook to compare the set of owners before and after.      If the set of owners has changed then we:      1. Add new owners to the lastLive mapping      2. Delete removed owners from the lastLive mapping"
      },
      "checkTransaction(address,uint256,bytes,uint8,uint256,uint256,uint256,address,address,bytes,address)": {
        "details": "Called by the Safe contract before execution of a transaction."
      },
      "constructor": {
        "params": {
          "_safe": "The safe account for which this contract will be the guard."
        }
      },
      "safe()": {
        "returns": {
          "safe_": "The Safe contract instance"
        }
      },
      "supportsInterface(bytes4)": {
        "details": "Returns true if this contract implements the interface defined by `interfaceId`. See the corresponding EIP section https://eips.ethereum.org/EIPS/eip-165#how-interfaces-are-identified to learn more about how these ids are created. This function call must use less than 30 000 gas."
      }
    },
    "events": {
      "OwnerRecorded(address)": {
        "params": {
          "owner": "The owner's address."
        }
      }
    },
    "title": "LivenessGuard"
  },
  "id": 135
}