{
  "abi": [
    {
      "inputs": [
        {
          "internalType": "bytes",
          "name": "",
          "type": "bytes"
        }
      ],
      "name": "check",
      "outputs": [
        {
          "internalType": "bool",
          "name": "execute_",
          "type": "bool"
        }
      ],
      "stateMutability": "pure",
      "type": "function"
    }
  ],
  "bytecode": {
    "object": "0x608060405234801561001057600080fd5b50610163806100206000396000f3fe608060405234801561001057600080fd5b506004361061002b5760003560e01c8063c64b3bb514610030575b600080fd5b61004461003e366004610087565b50600190565b604051901515815260200160405180910390f35b7f4e487b7100000000000000000000000000000000000000000000000000000000600052604160045260246000fd5b60006020828403121561009957600080fd5b813567ffffffffffffffff808211156100b157600080fd5b818401915084601f8301126100c557600080fd5b8135818111156100d7576100d7610058565b604051601f82017fffffffffffffffffffffffffffffffffffffffffffffffffffffffffffffffe0908116603f0116810190838211818310171561011d5761011d610058565b8160405282815287602084870101111561013657600080fd5b82602086016020830137600092810160200192909252509594505050505056fea164736f6c634300080f000a",
    "linkReferences": {}
  },
  "methodIdentifiers": {
    "check(bytes)": "c64b3bb5"
  },
  "storageLayout": {
    "storage": [],
    "types": {}
  },
  "userdoc": {
    "version": 1,
    "kind": "user",
    "methods": {
      "check(bytes)": {
        "notice": "Checks whether a drip should be executable."
      }
    },
    "notice": "DripCheck that always returns true."
  },
  "devdoc": {
    "version": 1,
    "kind": "dev",
    "methods": {
      "check(bytes)": {
        "params": {
          "_params": "Encoded parameters for the drip check."
        },
        "returns": {
          "execute_": "Whether the drip should be executed."
        }
      }
    },
    "title": "CheckTrue"
  },
  "id": 192
}