{
  "abi": [
    {
      "inputs": [],
      "name": "lastCall",
      "outputs": [
        {
          "internalType": "address",
          "name": "sender",
          "type": "address"
        },
        {
          "internalType": "bytes",
          "name": "data",
          "type": "bytes"
        },
        {
          "internalType": "uint256",
          "name": "gas",
          "type": "uint256"
        },
        {
          "internalType": "uint256",
          "name": "value",
          "type": "uint256"
        }
      ],
      "stateMutability": "view",
      "type": "function"
    },
    {
      "inputs": [],
      "name": "record",
      "outputs": [],
      "stateMutability": "payable",
      "type": "function"
    }
  ],
  "bytecode": {
    "object": "0x608060405234801561001057600080fd5b506103fe806100206000396000f3fe6080604052600436106100295760003560e01c8063266cf1091461002e578063da516aa914610038575b600080fd5b610036610066565b005b34801561004457600080fd5b5061004d6100aa565b60405161005d9493929190610164565b60405180910390f35b600080547fffffffffffffffffffffffff0000000000000000000000000000000000000000163317815560019061009f903690836102d6565b505a60025534600355565b600080546001805473ffffffffffffffffffffffffffffffffffffffff90921692916100d590610234565b80601f016020809104026020016040519081016040528092919081815260200182805461010190610234565b801561014e5780601f106101235761010080835404028352916020019161014e565b820191906000526020600020905b81548152906001019060200180831161013157829003601f168201915b5050505050908060020154908060030154905084565b73ffffffffffffffffffffffffffffffffffffffff8516815260006020608081840152855180608085015260005b818110156101ae5787810183015185820160a001528201610192565b818111156101c057600060a083870101525b5060a07fffffffffffffffffffffffffffffffffffffffffffffffffffffffffffffffe0601f8301168501019250505083604083015282606083015295945050505050565b7f4e487b7100000000000000000000000000000000000000000000000000000000600052604160045260246000fd5b600181811c9082168061024857607f821691505b602082108103610281577f4e487b7100000000000000000000000000000000000000000000000000000000600052602260045260246000fd5b50919050565b601f8211156102d157600081815260208120601f850160051c810160208610156102ae5750805b601f850160051c820191505b818110156102cd578281556001016102ba565b5050505b505050565b67ffffffffffffffff8311156102ee576102ee610205565b610302836102fc8354610234565b83610287565b6000601f841160018114610354576000851561031e5750838201355b7fffffffffffffffffffffffffffffffffffffffffffffffffffffffffffffffff600387901b1c1916600186901b1783556103ea565b6000838152602090207fffffffffffffffffffffffffffffffffffffffffffffffffffffffffffffffe0861690835b828110156103a35786850135825560209485019460019092019101610383565b50868210156103de577fffffffffffffffffffffffffffffffffffffffffffffffffffffffffffffffff60f88860031b161c19848701351681555b505060018560011b0183555b505050505056fea164736f6c634300080f000a",
    "linkReferences": {}
  },
  "methodIdentifiers": {
    "lastCall()": "da516aa9",
    "record()": "266cf109"
  },
  "storageLayout": {
    "storage": [
      {
        "astId": 104125,
        "contract": "test/Helpers.sol:CallRecorder",
        "label": "lastCall",
        "offset": 0,
        "slot": "0",
        "type": "t_struct(CallInfo)104122_storage"
      }
    ],
    "types": {
      "t_address": {
        "encoding": "inplace",
        "label": "address",
        "numberOfBytes": "20"
      },
      "t_bytes_storage": {
        "encoding": "bytes",
        "label": "bytes",
        "numberOfBytes": "32"
      },
      "t_struct(CallInfo)104122_storage": {
        "encoding": "inplace",
        "label": "struct CallRecorder.CallInfo",
        "numberOfBytes": "128",
        "members": [
          {
            "astId": 104115,
            "contract": "test/Helpers.sol:CallRecorder",
            "label": "sender",
            "offset": 0,
            "slot": "0",
            "type": "t_address"
          },
          {
            "astId": 104117,
            "contract": "test/Helpers.sol:CallRecorder",
            "label": "data",
            "offset": 0,
            "slot": "1",
            "type": "t_bytes_storage"
          },
          {
            "astId": 104119,
            "contract": "test/Helpers.sol:CallRecorder",
            "label": "gas",
            "offset": 0,
            "slot": "2",
            "type": "t_uint256"
          },
          {
            "astId": 104121,
            "contract": "test/Helpers.sol:CallRecorder",
            "label": "value",
            "offset": 0,
            "slot": "3",
            "type": "t_uint256"
          }
        ]
      },
      "t_uint256": {
        "encoding": "inplace",
        "label": "uint256",
        "numberOfBytes": "32"
      }
    }
  },
  "userdoc": {
    "version": 1,
    "kind": "user"
  },
  "devdoc": {
    "version": 1,
    "kind": "dev"
  },
  "id": 245
}