{
  "abi": [
    {
      "inputs": [],
      "name": "EIP712_DOMAIN_TYPEHASH",
      "outputs": [
        {
          "internalType": "bytes32",
          "name": "",
          "type": "bytes32"
        }
      ],
      "stateMutability": "view",
      "type": "function"
    },
    {
      "inputs": [],
      "name": "PROOF_TYPEHASH",
      "outputs": [
        {
          "internalType": "bytes32",
          "name": "",
          "type": "bytes32"
        }
      ],
      "stateMutability": "view",
      "type": "function"
    },
    {
      "inputs": [],
      "name": "consumeNonce",
      "outputs": [
        {
          "internalType": "bytes32",
          "name": "",
          "type": "bytes32"
        }
      ],
      "stateMutability": "nonpayable",
      "type": "function"
    },
    {
      "inputs": [],
      "name": "currentNonce",
      "outputs": [
        {
          "internalType": "uint256",
          "name": "",
          "type": "uint256"
        }
      ],
      "stateMutability": "view",
      "type": "function"
    },
    {
      "inputs": [
        {
          "components": [
            {
              "internalType": "address",
              "name": "recipient",
              "type": "address"
            },
            {
              "internalType": "bytes32",
              "name": "nonce",
              "type": "bytes32"
            },
            {
              "internalType": "bytes32",
              "name": "id",
              "type": "bytes32"
            }
          ],
          "internalType": "struct AdminFaucetAuthModule.Proof",
          "name": "_proof",
          "type": "tuple"
        },
        {
          "internalType": "bytes",
          "name": "_name",
          "type": "bytes"
        },
        {
          "internalType": "bytes",
          "name": "_version",
          "type": "bytes"
        },
        {
          "internalType": "uint256",
          "name": "_chainid",
          "type": "uint256"
        },
        {
          "internalType": "address",
          "name": "_verifyingContract",
          "type": "address"
        }
      ],
      "name": "getDigestWithEIP712Domain",
      "outputs": [
        {
          "internalType": "bytes32",
          "name": "",
          "type": "bytes32"
        }
      ],
      "stateMutability": "pure",
      "type": "function"
    },
    {
      "inputs": [
        {
          "components": [
            {
              "internalType": "address",
              "name": "recipient",
              "type": "address"
            },
            {
              "internalType": "bytes32",
              "name": "nonce",
              "type": "bytes32"
            },
            {
              "internalType": "bytes32",
              "name": "id",
              "type": "bytes32"
            }
          ],
          "internalType": "struct AdminFaucetAuthModule.Proof",
          "name": "_proof",
          "type": "tuple"
        }
      ],
      "name": "getProofStructHash",
      "outputs": [
        {
          "internalType": "bytes32",
          "name": "",
          "type": "bytes32"
        }
      ],
      "stateMutability": "pure",
      "type": "function"
    }
  ],
  "bytecode": {
    "object": "0x608060405234801561001057600080fd5b506105bd806100206000396000f3fe608060405234801561001057600080fd5b50600436106100725760003560e01c8063adb610a311610050578063adb610a314610142578063b163a6b81461014b578063c7977be71461015e57600080fd5b806334b1511814610077578063796dfbfa146100915780638b3e3bf61461011b575b600080fd5b61007f610185565b60405190815260200160405180910390f35b61007f61009f3660046103f3565b805160208083015160409384015184517fd4283507dc7a8282faa6b4c8c18bacbb74dbbab5467342e6f581656f3577236e8185015273ffffffffffffffffffffffffffffffffffffffff9094168486015260608401919091526080808401919091528351808403909101815260a0909201909252805191012090565b61007f7fd4283507dc7a8282faa6b4c8c18bacbb74dbbab5467342e6f581656f3577236e81565b61007f60005481565b61007f6101593660046104c1565b6101c5565b61007f7f8b73c3c69bb8fe3d512ecc4cf759cc79239f7b179b0ffacaa9a75d522b39400f81565b60008054818061019483610551565b919050556040516020016101aa91815260200190565b60405160208183030381529060405280519060200120905090565b8351602080860191909120845185830120604080517f8b73c3c69bb8fe3d512ecc4cf759cc79239f7b179b0ffacaa9a75d522b39400f9481019490945283019190915260608201526080810183905273ffffffffffffffffffffffffffffffffffffffff821660a0820152600090819060c00160405160208183030381529060405280519060200120905061032f816102d489805160208083015160409384015184517fd4283507dc7a8282faa6b4c8c18bacbb74dbbab5467342e6f581656f3577236e8185015273ffffffffffffffffffffffffffffffffffffffff9094168486015260608401919091526080808401919091528351808403909101815260a0909201909252805191012090565b6040517f19010000000000000000000000000000000000000000000000000000000000006020820152602281018390526042810182905260009060620160405160208183030381529060405280519060200120905092915050565b979650505050505050565b7f4e487b7100000000000000000000000000000000000000000000000000000000600052604160045260246000fd5b803573ffffffffffffffffffffffffffffffffffffffff8116811461038d57600080fd5b919050565b6000606082840312156103a457600080fd5b6040516060810181811067ffffffffffffffff821117156103c7576103c761033a565b6040529050806103d683610369565b815260208301356020820152604083013560408201525092915050565b60006060828403121561040557600080fd5b61040f8383610392565b9392505050565b600082601f83011261042757600080fd5b813567ffffffffffffffff808211156104425761044261033a565b604051601f83017fffffffffffffffffffffffffffffffffffffffffffffffffffffffffffffffe0908116603f011681019082821181831017156104885761048861033a565b816040528381528660208588010111156104a157600080fd5b836020870160208301376000602085830101528094505050505092915050565b600080600080600060e086880312156104d957600080fd5b6104e38787610392565b9450606086013567ffffffffffffffff8082111561050057600080fd5b61050c89838a01610416565b9550608088013591508082111561052257600080fd5b5061052f88828901610416565b93505060a0860135915061054560c08701610369565b90509295509295909350565b60007fffffffffffffffffffffffffffffffffffffffffffffffffffffffffffffffff82036105a9577f4e487b7100000000000000000000000000000000000000000000000000000000600052601160045260246000fd5b506001019056fea164736f6c634300080f000a",
    "linkReferences": {}
  },
  "methodIdentifiers": {
    "EIP712_DOMAIN_TYPEHASH()": "c7977be7",
    "PROOF_TYPEHASH()": "8b3e3bf6",
    "consumeNonce()": "34b15118",
    "currentNonce()": "adb610a3",
    "getDigestWithEIP712Domain((address,bytes32,bytes32),bytes,bytes,uint256,address)": "b163a6b8",
    "getProofStructHash((address,bytes32,bytes32))": "796dfbfa"
  },
  "storageLayout": {
    "storage": [
      {
        "astId": 106430,
        "contract": "test/Helpers.sol:FaucetHelper",
        "label": "currentNonce",
        "offset": 0,
        "slot": "0",
        "type": "t_uint256"
      }
    ],
    "types": {
      "t_uint256": {
        "encoding": "inplace",
        "label": "uint256",
        "numberOfBytes": "32"
      }
    }
  },
  "userdoc": {
    "version": 1,
    "kind": "user",
    "methods": {
      "EIP712_DOMAIN_TYPEHASH()": {
        "notice": "EIP712 typehash for the EIP712Domain type that is included as part of the signature."
      },
      "PROOF_TYPEHASH()": {
        "notice": "EIP712 typehash for the Proof type."
      },
      "consumeNonce()": {
        "notice": "Returns a bytes32 nonce that should change everytime. In practice, people should use         pseudorandom nonces."
      },
      "currentNonce()": {
        "notice": "Keeps track of current nonce to generate new nonces for each drip."
      },
      "getDigestWithEIP712Domain((address,bytes32,bytes32),bytes,bytes,uint256,address)": {
        "notice": "Computes the EIP712 digest with the given domain parameters.         Used for testing that different domain parameters fail."
      },
      "getProofStructHash((address,bytes32,bytes32))": {
        "notice": "Returns the hash of the struct Proof."
      }
    },
    "notice": "Simple helper contract that helps with testing the Faucet contract."
  },
  "devdoc": {
    "version": 1,
    "kind": "dev",
    "methods": {
      "consumeNonce()": {
        "returns": {
          "_0": "Nonce that should be used as part of drip parameters."
        }
      },
      "getDigestWithEIP712Domain((address,bytes32,bytes32),bytes,bytes,uint256,address)": {
        "params": {
          "_chainid": "Chain ID to use in the EIP712 domain.",
          "_name": "Contract name to use in the EIP712 domain.",
          "_proof": "Proof struct to hash.",
          "_verifyingContract": "Address to use in the EIP712 domain.",
          "_version": "Contract version to use in the EIP712 domain."
        },
        "returns": {
          "_0": "EIP-712 compatible digest."
        }
      },
      "getProofStructHash((address,bytes32,bytes32))": {
        "params": {
          "_proof": "Proof struct to hash."
        },
        "returns": {
          "_0": "EIP-712 typed struct hash."
        }
      }
    }
  },
  "id": 265
}