{
  "abi": [
    {
      "anonymous": false,
      "inputs": [
        {
          "indexed": true,
          "internalType": "bytes32",
          "name": "role",
          "type": "bytes32"
        },
        {
          "indexed": true,
          "internalType": "bytes32",
          "name": "previousAdminRole",
          "type": "bytes32"
        },
        {
          "indexed": true,
          "internalType": "bytes32",
          "name": "newAdminRole",
          "type": "bytes32"
        }
      ],
      "name": "RoleAdminChanged",
      "type": "event"
    },
    {
      "anonymous": false,
      "inputs": [
        {
          "indexed": true,
          "internalType": "bytes32",
          "name": "role",
          "type": "bytes32"
        },
        {
          "indexed": true,
          "internalType": "address",
          "name": "account",
          "type": "address"
        },
        {
          "indexed": true,
          "internalType": "address",
          "name": "sender",
          "type": "address"
        }
      ],
      "name": "RoleGranted",
      "type": "event"
    },
    {
      "anonymous": false,
      "inputs": [
        {
          "indexed": true,
          "internalType": "bytes32",
          "name": "role",
          "type": "bytes32"
        },
        {
          "indexed": true,
          "internalType": "address",
          "name": "account",
          "type": "address"
        },
        {
          "indexed": true,
          "internalType": "address",
          "name": "sender",
          "type": "address"
        }
      ],
      "name": "RoleRevoked",
      "type": "event"
    },
    {
      "inputs": [],
      "name": "ADMIN_ROLE",
      "outputs": [
        {
          "internalType": "bytes32",
          "name": "",
          "type": "bytes32"
        }
      ],
      "stateMutability": "view",
      "type": "function"
    },
    {
      "inputs": [],
      "name": "DEFAULT_ADMIN_ROLE",
      "outputs": [
        {
          "internalType": "bytes32",
          "name": "",
          "type": "bytes32"
        }
      ],
      "stateMutability": "view",
      "type": "function"
    },
    {
      "inputs": [],
      "name": "POLICY_ROLE",
      "outputs": [
        {
          "internalType": "bytes32",
          "name": "",
          "type": "bytes32"
        }
      ],
      "stateMutability": "view",
      "type": "function"
    },
    {
      "inputs": [
        {
          "internalType": "address",
          "name": "account",
          "type": "address"
        }
      ],
      "name": "addAdmin",
      "outputs": [],
      "stateMutability": "nonpayable",
      "type": "function"
    },
    {
      "inputs": [
        {
          "internalType": "bytes32",
          "name": "role",
          "type": "bytes32"
        }
      ],
      "name": "getRoleAdmin",
      "outputs": [
        {
          "internalType": "bytes32",
          "name": "",
          "type": "bytes32"
        }
      ],
      "stateMutability": "view",
      "type": "function"
    },
    {
      "inputs": [
        {
          "internalType": "bytes32",
          "name": "role",
          "type": "bytes32"
        },
        {
          "internalType": "address",
          "name": "account",
          "type": "address"
        }
      ],
      "name": "grantRole",
      "outputs": [],
      "stateMutability": "nonpayable",
      "type": "function"
    },
    {
      "inputs": [
        {
          "internalType": "bytes32",
          "name": "role",
          "type": "bytes32"
        },
        {
          "internalType": "address",
          "name": "account",
          "type": "address"
        }
      ],
      "name": "hasRole",
      "outputs": [
        {
          "internalType": "bool",
          "name": "",
          "type": "bool"
        }
      ],
      "stateMutability": "view",
      "type": "function"
    },
    {
      "inputs": [
        {
          "internalType": "address",
          "name": "account",
          "type": "address"
        }
      ],
      "name": "isAdmin",
      "outputs": [
        {
          "internalType": "bool",
          "name": "",
          "type": "bool"
        }
      ],
      "stateMutability": "view",
      "type": "function"
    },
    {
      "inputs": [
        {
          "internalType": "address",
          "name": "account",
          "type": "address"
        }
      ],
      "name": "removeAdmin",
      "outputs": [],
      "stateMutability": "nonpayable",
      "type": "function"
    },
    {
      "inputs": [
        {
          "internalType": "bytes32",
          "name": "role",
          "type": "bytes32"
        },
        {
          "internalType": "address",
          "name": "account",
          "type": "address"
        }
      ],
      "name": "renounceRole",
      "outputs": [],
      "stateMutability": "nonpayable",
      "type": "function"
    },
    {
      "inputs": [
        {
          "internalType": "bytes32",
          "name": "role",
          "type": "bytes32"
        },
        {
          "internalType": "address",
          "name": "account",
          "type": "address"
        }
      ],
      "name": "revokeRole",
      "outputs": [],
      "stateMutability": "nonpayable",
      "type": "function"
    },
    {
      "inputs": [
        {
          "internalType": "bytes4",
          "name": "interfaceId",
          "type": "bytes4"
        }
      ],
      "name": "supportsInterface",
      "outputs": [
        {
          "internalType": "bool",
          "name": "",
          "type": "bool"
        }
      ],
      "stateMutability": "view",
      "type": "function"
    },
    {
      "inputs": [
        {
          "internalType": "address",
          "name": "newAdmin",
          "type": "address"
        }
      ],
      "name": "transferAdmin",
      "outputs": [],
      "stateMutability": "nonpayable",
      "type": "function"
    }
  ],
  "bytecode": {
    "object": "0x608060405234801561001057600080fd5b50610f36806100206000396000f3fe608060405234801561001057600080fd5b50600436106100df5760003560e01c806336568abe1161008c57806375b238fc1161006657806375b238fc146101d857806391d14854146101ff578063a217fddf14610243578063d547741f1461024b57600080fd5b806336568abe1461019f57806370480275146101b257806375829def146101c557600080fd5b8063248a9ca3116100bd578063248a9ca31461015657806324d7806c146101795780632f2ff15d1461018c57600080fd5b806301ffc9a7146100e45780631785f53c1461010c5780632298524614610121575b600080fd5b6100f76100f2366004610c7c565b61025e565b60405190151581526020015b60405180910390f35b61011f61011a366004610ce7565b6102f7565b005b6101487ffb5864e8ff833c3cb2d2d08505e82ff02a43554c74a35d4f5a64e8526127831181565b604051908152602001610103565b610148610164366004610d02565b60009081526020819052604090206001015490565b6100f7610187366004610ce7565b6103be565b61011f61019a366004610d1b565b61040b565b61011f6101ad366004610d1b565b610435565b61011f6101c0366004610ce7565b6104e8565b61011f6101d3366004610ce7565b6105a7565b6101487fdf8b4c520ffe197c5343c6f5aec59570151ef9a492f2c624fd45ddde6135ec4281565b6100f761020d366004610d1b565b60009182526020828152604080842073ffffffffffffffffffffffffffffffffffffffff93909316845291905290205460ff1690565b610148600081565b61011f610259366004610d1b565b61078c565b60007fffffffff0000000000000000000000000000000000000000000000000000000082167f7965db0b0000000000000000000000000000000000000000000000000000000014806102f157507f01ffc9a7000000000000000000000000000000000000000000000000000000007fffffffff000000000000000000000000000000000000000000000000000000008316145b92915050565b610300336103be565b610391576040517f08c379a000000000000000000000000000000000000000000000000000000000815260206004820152602260248201527f41636365737369626c653a2043616c6c6572206973206e6f7420616e2061646d60448201527f696e00000000000000000000000000000000000000000000000000000000000060648201526084015b60405180910390fd5b6103bb7fdf8b4c520ffe197c5343c6f5aec59570151ef9a492f2c624fd45ddde6135ec4282610435565b50565b73ffffffffffffffffffffffffffffffffffffffff811660009081527f5cbfc8ee58ca47855df7bcf648dd304ddb6b932f9b87878bdf6318d7ec7ee5b7602052604081205460ff166102f1565b600082815260208190526040902060010154610426816107b1565b61043083836107bb565b505050565b73ffffffffffffffffffffffffffffffffffffffff811633146104da576040517f08c379a000000000000000000000000000000000000000000000000000000000815260206004820152602f60248201527f416363657373436f6e74726f6c3a2063616e206f6e6c792072656e6f756e636560448201527f20726f6c657320666f722073656c6600000000000000000000000000000000006064820152608401610388565b6104e482826108ab565b5050565b6104f1336103be565b61057d576040517f08c379a000000000000000000000000000000000000000000000000000000000815260206004820152602260248201527f41636365737369626c653a2043616c6c6572206973206e6f7420616e2061646d60448201527f696e0000000000000000000000000000000000000000000000000000000000006064820152608401610388565b6103bb7fdf8b4c520ffe197c5343c6f5aec59570151ef9a492f2c624fd45ddde6135ec428261040b565b6105b0336103be565b61063c576040517f08c379a000000000000000000000000000000000000000000000000000000000815260206004820152602260248201527f41636365737369626c653a2043616c6c6572206973206e6f7420616e2061646d60448201527f696e0000000000000000000000000000000000000000000000000000000000006064820152608401610388565b73ffffffffffffffffffffffffffffffffffffffff81166106b9576040517f08c379a000000000000000000000000000000000000000000000000000000000815260206004820152601860248201527f41636365737369626c653a207a65726f206164647265737300000000000000006044820152606401610388565b73ffffffffffffffffffffffffffffffffffffffff81163303610738576040517f08c379a000000000000000000000000000000000000000000000000000000000815260206004820152601660248201527f41636365737369626c653a2073616d652061646d696e000000000000000000006044820152606401610388565b6107627fdf8b4c520ffe197c5343c6f5aec59570151ef9a492f2c624fd45ddde6135ec428261040b565b6103bb7fdf8b4c520ffe197c5343c6f5aec59570151ef9a492f2c624fd45ddde6135ec4233610435565b6000828152602081905260409020600101546107a7816107b1565b61043083836108ab565b6103bb8133610962565b60008281526020818152604080832073ffffffffffffffffffffffffffffffffffffffff8516845290915290205460ff166104e45760008281526020818152604080832073ffffffffffffffffffffffffffffffffffffffff85168452909152902080547fffffffffffffffffffffffffffffffffffffffffffffffffffffffffffffff0016600117905561084d3390565b73ffffffffffffffffffffffffffffffffffffffff168173ffffffffffffffffffffffffffffffffffffffff16837f2f8788117e7eff1d82e926ec794901d17c78024a50270940304540a733656f0d60405160405180910390a45050565b60008281526020818152604080832073ffffffffffffffffffffffffffffffffffffffff8516845290915290205460ff16156104e45760008281526020818152604080832073ffffffffffffffffffffffffffffffffffffffff8516808552925280832080547fffffffffffffffffffffffffffffffffffffffffffffffffffffffffffffff0016905551339285917ff6391f5c32d9c69d2a47ea670b442974b53935d1edc7fd64eb21e047a839171b9190a45050565b60008281526020818152604080832073ffffffffffffffffffffffffffffffffffffffff8516845290915290205460ff166104e4576109b88173ffffffffffffffffffffffffffffffffffffffff166014610a32565b6109c3836020610a32565b6040516020016109d4929190610d6b565b604080517fffffffffffffffffffffffffffffffffffffffffffffffffffffffffffffffe0818403018152908290527f08c379a000000000000000000000000000000000000000000000000000000000825261038891600401610dec565b60606000610a41836002610e6c565b610a4c906002610e83565b67ffffffffffffffff811115610a6457610a64610e96565b6040519080825280601f01601f191660200182016040528015610a8e576020820181803683370190505b5090507f300000000000000000000000000000000000000000000000000000000000000081600081518110610ac557610ac5610ec5565b60200101907effffffffffffffffffffffffffffffffffffffffffffffffffffffffffffff1916908160001a9053507f780000000000000000000000000000000000000000000000000000000000000081600181518110610b2857610b28610ec5565b60200101907effffffffffffffffffffffffffffffffffffffffffffffffffffffffffffff1916908160001a9053506000610b64846002610e6c565b610b6f906001610e83565b90505b6001811115610c0c577f303132333435363738396162636465660000000000000000000000000000000085600f1660108110610bb057610bb0610ec5565b1a60f81b828281518110610bc657610bc6610ec5565b60200101907effffffffffffffffffffffffffffffffffffffffffffffffffffffffffffff1916908160001a90535060049490941c93610c0581610ef4565b9050610b72565b508315610c75576040517f08c379a000000000000000000000000000000000000000000000000000000000815260206004820181905260248201527f537472696e67733a20686578206c656e67746820696e73756666696369656e746044820152606401610388565b9392505050565b600060208284031215610c8e57600080fd5b81357fffffffff0000000000000000000000000000000000000000000000000000000081168114610c7557600080fd5b803573ffffffffffffffffffffffffffffffffffffffff81168114610ce257600080fd5b919050565b600060208284031215610cf957600080fd5b610c7582610cbe565b600060208284031215610d1457600080fd5b5035919050565b60008060408385031215610d2e57600080fd5b82359150610d3e60208401610cbe565b90509250929050565b60005b83811015610d62578181015183820152602001610d4a565b50506000910152565b7f416363657373436f6e74726f6c3a206163636f756e7420000000000000000000815260008351610da3816017850160208801610d47565b7f206973206d697373696e6720726f6c65200000000000000000000000000000006017918401918201528351610de0816028840160208801610d47565b01602801949350505050565b6020815260008251806020840152610e0b816040850160208701610d47565b601f017fffffffffffffffffffffffffffffffffffffffffffffffffffffffffffffffe0169190910160400192915050565b7f4e487b7100000000000000000000000000000000000000000000000000000000600052601160045260246000fd5b80820281158282048414176102f1576102f1610e3d565b808201808211156102f1576102f1610e3d565b7f4e487b7100000000000000000000000000000000000000000000000000000000600052604160045260246000fd5b7f4e487b7100000000000000000000000000000000000000000000000000000000600052603260045260246000fd5b600081610f0357610f03610e3d565b507fffffffffffffffffffffffffffffffffffffffffffffffffffffffffffffffff019056fea164736f6c6343000818000a",
    "linkReferences": {}
  },
  "methodIdentifiers": {
    "ADMIN_ROLE()": "75b238fc",
    "DEFAULT_ADMIN_ROLE()": "a217fddf",
    "POLICY_ROLE()": "22985246",
    "addAdmin(address)": "70480275",
    "getRoleAdmin(bytes32)": "248a9ca3",
    "grantRole(bytes32,address)": "2f2ff15d",
    "hasRole(bytes32,address)": "91d14854",
    "isAdmin(address)": "24d7806c",
    "removeAdmin(address)": "1785f53c",
    "renounceRole(bytes32,address)": "36568abe",
    "revokeRole(bytes32,address)": "d547741f",
    "supportsInterface(bytes4)": "01ffc9a7",
    "transferAdmin(address)": "75829def"
  },
  "storageLayout": {
    "storage": [
      {
        "astId": 29990,
        "contract": "src/common/AccessibleCommon.sol:AccessibleCommon",
        "label": "_roles",
        "offset": 0,
        "slot": "0",
        "type": "t_mapping(t_bytes32,t_struct(RoleData)29985_storage)"
      }
    ],
    "types": {
      "t_address": {
        "encoding": "inplace",
        "label": "address",
        "numberOfBytes": "20"
      },
      "t_bool": {
        "encoding": "inplace",
        "label": "bool",
        "numberOfBytes": "1"
      },
      "t_bytes32": {
        "encoding": "inplace",
        "label": "bytes32",
        "numberOfBytes": "32"
      },
      "t_mapping(t_address,t_bool)": {
        "encoding": "mapping",
        "key": "t_address",
        "label": "mapping(address => bool)",
        "numberOfBytes": "32",
        "value": "t_bool"
      },
      "t_mapping(t_bytes32,t_struct(RoleData)29985_storage)": {
        "encoding": "mapping",
        "key": "t_bytes32",
        "label": "mapping(bytes32 => struct AccessControl.RoleData)",
        "numberOfBytes": "32",
        "value": "t_struct(RoleData)29985_storage"
      },
      "t_struct(RoleData)29985_storage": {
        "encoding": "inplace",
        "label": "struct AccessControl.RoleData",
        "numberOfBytes": "64",
        "members": [
          {
            "astId": 29982,
            "contract": "src/common/AccessibleCommon.sol:AccessibleCommon",
            "label": "members",
            "offset": 0,
            "slot": "0",
            "type": "t_mapping(t_address,t_bool)"
          },
          {
            "astId": 29984,
            "contract": "src/common/AccessibleCommon.sol:AccessibleCommon",
            "label": "adminRole",
            "offset": 0,
            "slot": "1",
            "type": "t_bytes32"
          }
        ]
      }
    }
  },
  "userdoc": {
    "version": 1,
    "kind": "user"
  },
  "devdoc": {
    "version": 1,
    "kind": "dev",
    "methods": {
      "addAdmin(address)": {
        "details": "add admin",
        "params": {
          "account": "address to add"
        }
      },
      "getRoleAdmin(bytes32)": {
        "details": "Returns the admin role that controls `role`. See {grantRole} and {revokeRole}. To change a role's admin, use {_setRoleAdmin}."
      },
      "grantRole(bytes32,address)": {
        "details": "Grants `role` to `account`. If `account` had not been already granted `role`, emits a {RoleGranted} event. Requirements: - the caller must have ``role``'s admin role. May emit a {RoleGranted} event."
      },
      "hasRole(bytes32,address)": {
        "details": "Returns `true` if `account` has been granted `role`."
      },
      "isAdmin(address)": {
        "details": "whether admin",
        "params": {
          "account": "address to check"
        }
      },
      "removeAdmin(address)": {
        "details": "remove admin",
        "params": {
          "account": "address to remove"
        }
      },
      "renounceRole(bytes32,address)": {
        "details": "Revokes `role` from the calling account. Roles are often managed via {grantRole} and {revokeRole}: this function's purpose is to provide a mechanism for accounts to lose their privileges if they are compromised (such as when a trusted device is misplaced). If the calling account had been revoked `role`, emits a {RoleRevoked} event. Requirements: - the caller must be `account`. May emit a {RoleRevoked} event."
      },
      "revokeRole(bytes32,address)": {
        "details": "Revokes `role` from `account`. If `account` had been granted `role`, emits a {RoleRevoked} event. Requirements: - the caller must have ``role``'s admin role. May emit a {RoleRevoked} event."
      },
      "supportsInterface(bytes4)": {
        "details": "See {IERC165-supportsInterface}."
      },
      "transferAdmin(address)": {
        "details": "transfer admin",
        "params": {
          "newAdmin": "new admin address"
        }
      }
    },
    "events": {
      "RoleAdminChanged(bytes32,bytes32,bytes32)": {
        "details": "Emitted when `newAdminRole` is set as ``role``'s admin role, replacing `previousAdminRole` `DEFAULT_ADMIN_ROLE` is the starting admin for all roles, despite {RoleAdminChanged} not being emitted signaling this. _Available since v3.1._"
      },
      "RoleGranted(bytes32,address,address)": {
        "details": "Emitted when `account` is granted `role`. `sender` is the account that originated the contract call, an admin role bearer except when using {AccessControl-_setupRole}."
      },
      "RoleRevoked(bytes32,address,address)": {
        "details": "Emitted when `account` is revoked `role`. `sender` is the account that originated the contract call:   - if using `revokeRole`, it is the admin role bearer   - if using `renounceRole`, it is the role bearer (i.e. `account`)"
      }
    }
  },
  "id": 73
}