{
  "abi": [
    {
      "inputs": [],
      "stateMutability": "nonpayable",
      "type": "constructor"
    },
    {
      "anonymous": false,
      "inputs": [
        {
          "indexed": true,
          "internalType": "bytes32",
          "name": "role",
          "type": "bytes32"
        },
        {
          "indexed": true,
          "internalType": "bytes32",
          "name": "previousAdminRole",
          "type": "bytes32"
        },
        {
          "indexed": true,
          "internalType": "bytes32",
          "name": "newAdminRole",
          "type": "bytes32"
        }
      ],
      "name": "RoleAdminChanged",
      "type": "event"
    },
    {
      "anonymous": false,
      "inputs": [
        {
          "indexed": true,
          "internalType": "bytes32",
          "name": "role",
          "type": "bytes32"
        },
        {
          "indexed": true,
          "internalType": "address",
          "name": "account",
          "type": "address"
        },
        {
          "indexed": true,
          "internalType": "address",
          "name": "sender",
          "type": "address"
        }
      ],
      "name": "RoleGranted",
      "type": "event"
    },
    {
      "anonymous": false,
      "inputs": [
        {
          "indexed": true,
          "internalType": "bytes32",
          "name": "role",
          "type": "bytes32"
        },
        {
          "indexed": true,
          "internalType": "address",
          "name": "account",
          "type": "address"
        },
        {
          "indexed": true,
          "internalType": "address",
          "name": "sender",
          "type": "address"
        }
      ],
      "name": "RoleRevoked",
      "type": "event"
    },
    {
      "anonymous": false,
      "inputs": [
        {
          "indexed": true,
          "internalType": "address",
          "name": "impl",
          "type": "address"
        },
        {
          "indexed": false,
          "internalType": "bool",
          "name": "alive",
          "type": "bool"
        }
      ],
      "name": "SetAliveImplementation",
      "type": "event"
    },
    {
      "anonymous": false,
      "inputs": [
        {
          "indexed": true,
          "internalType": "bytes4",
          "name": "selector",
          "type": "bytes4"
        },
        {
          "indexed": true,
          "internalType": "address",
          "name": "impl",
          "type": "address"
        }
      ],
      "name": "SetSelectorImplementation",
      "type": "event"
    },
    {
      "anonymous": false,
      "inputs": [
        {
          "indexed": true,
          "internalType": "address",
          "name": "implementation",
          "type": "address"
        }
      ],
      "name": "Upgraded",
      "type": "event"
    },
    {
      "stateMutability": "payable",
      "type": "fallback"
    },
    {
      "inputs": [],
      "name": "ADMIN_ROLE",
      "outputs": [
        {
          "internalType": "bytes32",
          "name": "",
          "type": "bytes32"
        }
      ],
      "stateMutability": "view",
      "type": "function"
    },
    {
      "inputs": [],
      "name": "DEFAULT_ADMIN_ROLE",
      "outputs": [
        {
          "internalType": "bytes32",
          "name": "",
          "type": "bytes32"
        }
      ],
      "stateMutability": "view",
      "type": "function"
    },
    {
      "inputs": [],
      "name": "POLICY_ROLE",
      "outputs": [
        {
          "internalType": "bytes32",
          "name": "",
          "type": "bytes32"
        }
      ],
      "stateMutability": "view",
      "type": "function"
    },
    {
      "inputs": [
        {
          "internalType": "address",
          "name": "account",
          "type": "address"
        }
      ],
      "name": "addAdmin",
      "outputs": [],
      "stateMutability": "nonpayable",
      "type": "function"
    },
    {
      "inputs": [
        {
          "internalType": "address",
          "name": "",
          "type": "address"
        }
      ],
      "name": "aliveImplementation",
      "outputs": [
        {
          "internalType": "bool",
          "name": "",
          "type": "bool"
        }
      ],
      "stateMutability": "view",
      "type": "function"
    },
    {
      "inputs": [
        {
          "internalType": "bytes32",
          "name": "role",
          "type": "bytes32"
        }
      ],
      "name": "getRoleAdmin",
      "outputs": [
        {
          "internalType": "bytes32",
          "name": "",
          "type": "bytes32"
        }
      ],
      "stateMutability": "view",
      "type": "function"
    },
    {
      "inputs": [
        {
          "internalType": "bytes4",
          "name": "_selector",
          "type": "bytes4"
        }
      ],
      "name": "getSelectorImplementation2",
      "outputs": [
        {
          "internalType": "address",
          "name": "impl",
          "type": "address"
        }
      ],
      "stateMutability": "view",
      "type": "function"
    },
    {
      "inputs": [
        {
          "internalType": "bytes32",
          "name": "role",
          "type": "bytes32"
        },
        {
          "internalType": "address",
          "name": "account",
          "type": "address"
        }
      ],
      "name": "grantRole",
      "outputs": [],
      "stateMutability": "nonpayable",
      "type": "function"
    },
    {
      "inputs": [
        {
          "internalType": "bytes32",
          "name": "role",
          "type": "bytes32"
        },
        {
          "internalType": "address",
          "name": "account",
          "type": "address"
        }
      ],
      "name": "hasRole",
      "outputs": [
        {
          "internalType": "bool",
          "name": "",
          "type": "bool"
        }
      ],
      "stateMutability": "view",
      "type": "function"
    },
    {
      "inputs": [],
      "name": "implementation",
      "outputs": [
        {
          "internalType": "address",
          "name": "",
          "type": "address"
        }
      ],
      "stateMutability": "view",
      "type": "function"
    },
    {
      "inputs": [
        {
          "internalType": "uint256",
          "name": "_index",
          "type": "uint256"
        }
      ],
      "name": "implementation2",
      "outputs": [
        {
          "internalType": "address",
          "name": "",
          "type": "address"
        }
      ],
      "stateMutability": "view",
      "type": "function"
    },
    {
      "inputs": [
        {
          "internalType": "address",
          "name": "account",
          "type": "address"
        }
      ],
      "name": "isAdmin",
      "outputs": [
        {
          "internalType": "bool",
          "name": "",
          "type": "bool"
        }
      ],
      "stateMutability": "view",
      "type": "function"
    },
    {
      "inputs": [],
      "name": "pauseProxy",
      "outputs": [
        {
          "internalType": "bool",
          "name": "",
          "type": "bool"
        }
      ],
      "stateMutability": "view",
      "type": "function"
    },
    {
      "inputs": [
        {
          "internalType": "uint256",
          "name": "",
          "type": "uint256"
        }
      ],
      "name": "proxyImplementation",
      "outputs": [
        {
          "internalType": "address",
          "name": "",
          "type": "address"
        }
      ],
      "stateMutability": "view",
      "type": "function"
    },
    {
      "inputs": [
        {
          "internalType": "address",
          "name": "account",
          "type": "address"
        }
      ],
      "name": "removeAdmin",
      "outputs": [],
      "stateMutability": "nonpayable",
      "type": "function"
    },
    {
      "inputs": [
        {
          "internalType": "bytes32",
          "name": "role",
          "type": "bytes32"
        },
        {
          "internalType": "address",
          "name": "account",
          "type": "address"
        }
      ],
      "name": "renounceRole",
      "outputs": [],
      "stateMutability": "nonpayable",
      "type": "function"
    },
    {
      "inputs": [
        {
          "internalType": "bytes32",
          "name": "role",
          "type": "bytes32"
        },
        {
          "internalType": "address",
          "name": "account",
          "type": "address"
        }
      ],
      "name": "revokeRole",
      "outputs": [],
      "stateMutability": "nonpayable",
      "type": "function"
    },
    {
      "inputs": [
        {
          "internalType": "bytes4",
          "name": "",
          "type": "bytes4"
        }
      ],
      "name": "selectorImplementation",
      "outputs": [
        {
          "internalType": "address",
          "name": "",
          "type": "address"
        }
      ],
      "stateMutability": "view",
      "type": "function"
    },
    {
      "inputs": [
        {
          "internalType": "address",
          "name": "newImplementation",
          "type": "address"
        },
        {
          "internalType": "bool",
          "name": "_alive",
          "type": "bool"
        }
      ],
      "name": "setAliveImplementation2",
      "outputs": [],
      "stateMutability": "nonpayable",
      "type": "function"
    },
    {
      "inputs": [
        {
          "internalType": "address",
          "name": "newImplementation",
          "type": "address"
        },
        {
          "internalType": "uint256",
          "name": "_index",
          "type": "uint256"
        },
        {
          "internalType": "bool",
          "name": "_alive",
          "type": "bool"
        }
      ],
      "name": "setImplementation2",
      "outputs": [],
      "stateMutability": "nonpayable",
      "type": "function"
    },
    {
      "inputs": [
        {
          "internalType": "bool",
          "name": "_pause",
          "type": "bool"
        }
      ],
      "name": "setProxyPause",
      "outputs": [],
      "stateMutability": "nonpayable",
      "type": "function"
    },
    {
      "inputs": [
        {
          "internalType": "bytes4[]",
          "name": "_selectors",
          "type": "bytes4[]"
        },
        {
          "internalType": "address",
          "name": "_imp",
          "type": "address"
        }
      ],
      "name": "setSelectorImplementations2",
      "outputs": [],
      "stateMutability": "nonpayable",
      "type": "function"
    },
    {
      "inputs": [
        {
          "internalType": "bytes4",
          "name": "interfaceId",
          "type": "bytes4"
        }
      ],
      "name": "supportsInterface",
      "outputs": [
        {
          "internalType": "bool",
          "name": "",
          "type": "bool"
        }
      ],
      "stateMutability": "view",
      "type": "function"
    },
    {
      "inputs": [
        {
          "internalType": "address",
          "name": "newAdmin",
          "type": "address"
        }
      ],
      "name": "transferAdmin",
      "outputs": [],
      "stateMutability": "nonpayable",
      "type": "function"
    },
    {
      "inputs": [
        {
          "internalType": "address",
          "name": "impl",
          "type": "address"
        }
      ],
      "name": "upgradeTo",
      "outputs": [],
      "stateMutability": "nonpayable",
      "type": "function"
    },
    {
      "stateMutability": "payable",
      "type": "receive"
    }
  ],
  "bytecode": {
    "object": "0x60806040523480156200001157600080fd5b506200002d6000805160206200205d833981519152806200004e565b620000486000805160206200205d8339815191523362000099565b6200013e565b600082815260046020526040808220600101805490849055905190918391839186917fbd79b86ffe0ab8e8776151514217cd7cacd52c909f66475c3af44e129f0b00ff9190a4505050565b60008281526004602090815260408083206001600160a01b038516845290915290205460ff166200013a5760008281526004602090815260408083206001600160a01b03851684529091529020805460ff19166001179055620000f93390565b6001600160a01b0316816001600160a01b0316837f2f8788117e7eff1d82e926ec794901d17c78024a50270940304540a733656f0d60405160405180910390a45b5050565b611f0f806200014e6000396000f3fe60806040526004361061019a5760003560e01c80635cc797d8116100e15780637cd5f6631161008a57806391d148541161006457806391d148541461052b578063a217fddf1461057e578063b911135f14610593578063d547741f146105d6576101a1565b80637cd5f663146104cb5780638b8f4a65146104eb5780638d4fdb401461050b576101a1565b806375829def116100bb57806375829def1461045757806375b238fc146104775780637cb00d25146104ab576101a1565b80635cc797d8146103fd57806363a8fd891461041d5780637048027514610437576101a1565b806336568abe1161014357806350d2a2761161011d57806350d2a27614610312578063550d01a31461037a5780635c60da1b146103aa576101a1565b806336568abe146102b25780633659cfe6146102d25780634a5df50f146102f2576101a1565b8063248a9ca311610174578063248a9ca31461024257806324d7806c146102725780632f2ff15d14610292576101a1565b806301ffc9a7146101ab5780631785f53c146101e05780632298524614610200576101a1565b366101a157005b6101a96105f6565b005b3480156101b757600080fd5b506101cb6101c6366004611b4e565b6106e3565b60405190151581526020015b60405180910390f35b3480156101ec57600080fd5b506101a96101fb366004611bb4565b61077c565b34801561020c57600080fd5b506102347ffb5864e8ff833c3cb2d2d08505e82ff02a43554c74a35d4f5a64e8526127831181565b6040519081526020016101d7565b34801561024e57600080fd5b5061023461025d366004611bcf565b60009081526004602052604090206001015490565b34801561027e57600080fd5b506101cb61028d366004611bb4565b61083e565b34801561029e57600080fd5b506101a96102ad366004611be8565b61088b565b3480156102be57600080fd5b506101a96102cd366004611be8565b6108b0565b3480156102de57600080fd5b506101a96102ed366004611bb4565b610963565b3480156102fe57600080fd5b506101a961030d366004611c14565b610b72565b34801561031e57600080fd5b5061035561032d366004611b4e565b60036020526000908152604090205473ffffffffffffffffffffffffffffffffffffffff1681565b60405173ffffffffffffffffffffffffffffffffffffffff90911681526020016101d7565b34801561038657600080fd5b506101cb610395366004611bb4565b60026020526000908152604090205460ff1681565b3480156103b657600080fd5b506000805260016020527fa6eef7e35abe7026729641147f7915573c7e97b47efa546f5f6e3230263bcb495473ffffffffffffffffffffffffffffffffffffffff16610355565b34801561040957600080fd5b506101a9610418366004611ca8565b610f19565b34801561042957600080fd5b506000546101cb9060ff1681565b34801561044357600080fd5b506101a9610452366004611bb4565b610fb8565b34801561046357600080fd5b506101a9610472366004611bb4565b611077565b34801561048357600080fd5b506102347fdf8b4c520ffe197c5343c6f5aec59570151ef9a492f2c624fd45ddde6135ec4281565b3480156104b757600080fd5b506101a96104c6366004611cd2565b61125c565b3480156104d757600080fd5b506101a96104e6366004611ced565b611322565b3480156104f757600080fd5b50610355610506366004611bcf565b6113c2565b34801561051757600080fd5b50610355610526366004611b4e565b6113ec565b34801561053757600080fd5b506101cb610546366004611be8565b600091825260046020908152604080842073ffffffffffffffffffffffffffffffffffffffff93909316845291905290205460ff1690565b34801561058a57600080fd5b50610234600081565b34801561059f57600080fd5b506103556105ae366004611bcf565b60016020526000908152604090205473ffffffffffffffffffffffffffffffffffffffff1681565b3480156105e257600080fd5b506101a96105f1366004611be8565b611571565b60006106256000357fffffffff00000000000000000000000000000000000000000000000000000000166113ec565b905073ffffffffffffffffffffffffffffffffffffffff81161580159061064f575060005460ff16155b6106ba576040517f08c379a000000000000000000000000000000000000000000000000000000000815260206004820152601d60248201527f50726f78793a20696d706c204f522070726f78792069732066616c736500000060448201526064015b60405180910390fd5b3660008037600080366000845af43d6000803e8080156106d9573d6000f35b3d6000fd5b505050565b60007fffffffff0000000000000000000000000000000000000000000000000000000082167f7965db0b00000000000000000000000000000000000000000000000000000000148061077657507f01ffc9a7000000000000000000000000000000000000000000000000000000007fffffffff000000000000000000000000000000000000000000000000000000008316145b92915050565b6107853361083e565b610811576040517f08c379a000000000000000000000000000000000000000000000000000000000815260206004820152602260248201527f41636365737369626c653a2043616c6c6572206973206e6f7420616e2061646d60448201527f696e00000000000000000000000000000000000000000000000000000000000060648201526084016106b1565b61083b7fdf8b4c520ffe197c5343c6f5aec59570151ef9a492f2c624fd45ddde6135ec42826108b0565b50565b73ffffffffffffffffffffffffffffffffffffffff811660009081527f2fb794d17134dfdec181ddbac1babb5ab1eb140204ef4d982f294e7fc8b69022602052604081205460ff16610776565b6000828152600460205260409020600101546108a681611596565b6106de83836115a0565b73ffffffffffffffffffffffffffffffffffffffff81163314610955576040517f08c379a000000000000000000000000000000000000000000000000000000000815260206004820152602f60248201527f416363657373436f6e74726f6c3a2063616e206f6e6c792072656e6f756e636560448201527f20726f6c657320666f722073656c66000000000000000000000000000000000060648201526084016106b1565b61095f8282611694565b5050565b61096c3361083e565b6109f8576040517f08c379a000000000000000000000000000000000000000000000000000000000815260206004820152602260248201527f41636365737369626c653a2043616c6c6572206973206e6f7420616e2061646d60448201527f696e00000000000000000000000000000000000000000000000000000000000060648201526084016106b1565b73ffffffffffffffffffffffffffffffffffffffff8116610a75576040517f08c379a000000000000000000000000000000000000000000000000000000000815260206004820152600d60248201527f696e707574206973207a65726f0000000000000000000000000000000000000060448201526064016106b1565b6000805260016020527fa6eef7e35abe7026729641147f7915573c7e97b47efa546f5f6e3230263bcb495473ffffffffffffffffffffffffffffffffffffffff828116911603610b21576040517f08c379a000000000000000000000000000000000000000000000000000000000815260206004820152600960248201527f73616d652061646472000000000000000000000000000000000000000000000060448201526064016106b1565b610b2e816000600161174f565b60405173ffffffffffffffffffffffffffffffffffffffff8216907fbc7cd75a20ee27fd9adebab32041f755214dbc6bffa90cc0225b39da2e5c2d3b90600090a250565b610b7b3361083e565b610c07576040517f08c379a000000000000000000000000000000000000000000000000000000000815260206004820152602260248201527f41636365737369626c653a2043616c6c6572206973206e6f7420616e2061646d60448201527f696e00000000000000000000000000000000000000000000000000000000000060648201526084016106b1565b81610c6e576040517f08c379a000000000000000000000000000000000000000000000000000000000815260206004820181905260248201527f50726f78793a205f73656c6563746f727327732073697a65206973207a65726f60448201526064016106b1565b73ffffffffffffffffffffffffffffffffffffffff811660009081526002602052604090205460ff16610cfd576040517f08c379a000000000000000000000000000000000000000000000000000000000815260206004820152601860248201527f50726f78793a205f696d70206973206e6f7420616c697665000000000000000060448201526064016106b1565b60005b82811015610f13578173ffffffffffffffffffffffffffffffffffffffff1660036000868685818110610d3557610d35611d20565b9050602002016020810190610d4a9190611b4e565b7fffffffff0000000000000000000000000000000000000000000000000000000016815260208101919091526040016000205473ffffffffffffffffffffffffffffffffffffffff1603610dfa576040517f08c379a000000000000000000000000000000000000000000000000000000000815260206004820152601d60248201527f4c69717569646974795661756c7450726f78793a2073616d6520696d7000000060448201526064016106b1565b8160036000868685818110610e1157610e11611d20565b9050602002016020810190610e269190611b4e565b7fffffffff00000000000000000000000000000000000000000000000000000000168152602081019190915260400160002080547fffffffffffffffffffffffff00000000000000000000000000000000000000001673ffffffffffffffffffffffffffffffffffffffff9283161790558216848483818110610eab57610eab611d20565b9050602002016020810190610ec09190611b4e565b7bffffffffffffffffffffffffffffffffffffffffffffffffffffffff19167f14ebc1c32aa68f4d766e89f3e546cee249f7df25183fc10ab1568d91c2ce9b7b60405160405180910390a3600101610d00565b50505050565b610f223361083e565b610fae576040517f08c379a000000000000000000000000000000000000000000000000000000000815260206004820152602260248201527f41636365737369626c653a2043616c6c6572206973206e6f7420616e2061646d60448201527f696e00000000000000000000000000000000000000000000000000000000000060648201526084016106b1565b61095f82826117a8565b610fc13361083e565b61104d576040517f08c379a000000000000000000000000000000000000000000000000000000000815260206004820152602260248201527f41636365737369626c653a2043616c6c6572206973206e6f7420616e2061646d60448201527f696e00000000000000000000000000000000000000000000000000000000000060648201526084016106b1565b61083b7fdf8b4c520ffe197c5343c6f5aec59570151ef9a492f2c624fd45ddde6135ec428261088b565b6110803361083e565b61110c576040517f08c379a000000000000000000000000000000000000000000000000000000000815260206004820152602260248201527f41636365737369626c653a2043616c6c6572206973206e6f7420616e2061646d60448201527f696e00000000000000000000000000000000000000000000000000000000000060648201526084016106b1565b73ffffffffffffffffffffffffffffffffffffffff8116611189576040517f08c379a000000000000000000000000000000000000000000000000000000000815260206004820152601860248201527f41636365737369626c653a207a65726f2061646472657373000000000000000060448201526064016106b1565b73ffffffffffffffffffffffffffffffffffffffff81163303611208576040517f08c379a000000000000000000000000000000000000000000000000000000000815260206004820152601660248201527f41636365737369626c653a2073616d652061646d696e0000000000000000000060448201526064016106b1565b6112327fdf8b4c520ffe197c5343c6f5aec59570151ef9a492f2c624fd45ddde6135ec428261088b565b61083b7fdf8b4c520ffe197c5343c6f5aec59570151ef9a492f2c624fd45ddde6135ec42336108b0565b6112653361083e565b6112f1576040517f08c379a000000000000000000000000000000000000000000000000000000000815260206004820152602260248201527f41636365737369626c653a2043616c6c6572206973206e6f7420616e2061646d60448201527f696e00000000000000000000000000000000000000000000000000000000000060648201526084016106b1565b600080547fffffffffffffffffffffffffffffffffffffffffffffffffffffffffffffff0016911515919091179055565b61132b3361083e565b6113b7576040517f08c379a000000000000000000000000000000000000000000000000000000000815260206004820152602260248201527f41636365737369626c653a2043616c6c6572206973206e6f7420616e2061646d60448201527f696e00000000000000000000000000000000000000000000000000000000000060648201526084016106b1565b6106de83838361174f565b60008181526001602052604081205473ffffffffffffffffffffffffffffffffffffffff16610776565b7fffffffff00000000000000000000000000000000000000000000000000000000811660009081526003602052604081205473ffffffffffffffffffffffffffffffffffffffff1661147e5750506000805260016020527fa6eef7e35abe7026729641147f7915573c7e97b47efa546f5f6e3230263bcb495473ffffffffffffffffffffffffffffffffffffffff1690565b7fffffffff00000000000000000000000000000000000000000000000000000000821660009081526003602090815260408083205473ffffffffffffffffffffffffffffffffffffffff168352600290915290205460ff161561152657507fffffffff000000000000000000000000000000000000000000000000000000001660009081526003602052604090205473ffffffffffffffffffffffffffffffffffffffff1690565b50506000805260016020527fa6eef7e35abe7026729641147f7915573c7e97b47efa546f5f6e3230263bcb495473ffffffffffffffffffffffffffffffffffffffff1690565b919050565b60008281526004602052604090206001015461158c81611596565b6106de8383611694565b61083b8133611832565b600082815260046020908152604080832073ffffffffffffffffffffffffffffffffffffffff8516845290915290205460ff1661095f57600082815260046020908152604080832073ffffffffffffffffffffffffffffffffffffffff85168452909152902080547fffffffffffffffffffffffffffffffffffffffffffffffffffffffffffffff001660011790556116363390565b73ffffffffffffffffffffffffffffffffffffffff168173ffffffffffffffffffffffffffffffffffffffff16837f2f8788117e7eff1d82e926ec794901d17c78024a50270940304540a733656f0d60405160405180910390a45050565b600082815260046020908152604080832073ffffffffffffffffffffffffffffffffffffffff8516845290915290205460ff161561095f57600082815260046020908152604080832073ffffffffffffffffffffffffffffffffffffffff8516808552925280832080547fffffffffffffffffffffffffffffffffffffffffffffffffffffffffffffff0016905551339285917ff6391f5c32d9c69d2a47ea670b442974b53935d1edc7fd64eb21e047a839171b9190a45050565b80156117a257600082815260016020526040902080547fffffffffffffffffffffffff00000000000000000000000000000000000000001673ffffffffffffffffffffffffffffffffffffffff85161790555b6106de83825b73ffffffffffffffffffffffffffffffffffffffff821660008181526002602090815260409182902080547fffffffffffffffffffffffffffffffffffffffffffffffffffffffffffffff001685151590811790915591519182527f72558d9bfba4210f9ef095c782589484151f6d90f7a81bb3cb9b33efc695d324910160405180910390a25050565b600082815260046020908152604080832073ffffffffffffffffffffffffffffffffffffffff8516845290915290205460ff1661095f5761188a8173ffffffffffffffffffffffffffffffffffffffff166014611904565b611895836020611904565b6040516020016118a6929190611d73565b604080517fffffffffffffffffffffffffffffffffffffffffffffffffffffffffffffffe0818403018152908290527f08c379a00000000000000000000000000000000000000000000000000000000082526106b191600401611df4565b60606000611913836002611e74565b61191e906002611e8b565b67ffffffffffffffff81111561193657611936611e9e565b6040519080825280601f01601f191660200182016040528015611960576020820181803683370190505b5090507f30000000000000000000000000000000000000000000000000000000000000008160008151811061199757611997611d20565b60200101907effffffffffffffffffffffffffffffffffffffffffffffffffffffffffffff1916908160001a9053507f7800000000000000000000000000000000000000000000000000000000000000816001815181106119fa576119fa611d20565b60200101907effffffffffffffffffffffffffffffffffffffffffffffffffffffffffffff1916908160001a9053506000611a36846002611e74565b611a41906001611e8b565b90505b6001811115611ade577f303132333435363738396162636465660000000000000000000000000000000085600f1660108110611a8257611a82611d20565b1a60f81b828281518110611a9857611a98611d20565b60200101907effffffffffffffffffffffffffffffffffffffffffffffffffffffffffffff1916908160001a90535060049490941c93611ad781611ecd565b9050611a44565b508315611b47576040517f08c379a000000000000000000000000000000000000000000000000000000000815260206004820181905260248201527f537472696e67733a20686578206c656e67746820696e73756666696369656e7460448201526064016106b1565b9392505050565b600060208284031215611b6057600080fd5b81357fffffffff0000000000000000000000000000000000000000000000000000000081168114611b4757600080fd5b803573ffffffffffffffffffffffffffffffffffffffff8116811461156c57600080fd5b600060208284031215611bc657600080fd5b611b4782611b90565b600060208284031215611be157600080fd5b5035919050565b60008060408385031215611bfb57600080fd5b82359150611c0b60208401611b90565b90509250929050565b600080600060408486031215611c2957600080fd5b833567ffffffffffffffff80821115611c4157600080fd5b818601915086601f830112611c5557600080fd5b813581811115611c6457600080fd5b8760208260051b8501011115611c7957600080fd5b602092830195509350611c8f9186019050611b90565b90509250925092565b8035801515811461156c57600080fd5b60008060408385031215611cbb57600080fd5b611cc483611b90565b9150611c0b60208401611c98565b600060208284031215611ce457600080fd5b611b4782611c98565b600080600060608486031215611d0257600080fd5b611d0b84611b90565b925060208401359150611c8f60408501611c98565b7f4e487b7100000000000000000000000000000000000000000000000000000000600052603260045260246000fd5b60005b83811015611d6a578181015183820152602001611d52565b50506000910152565b7f416363657373436f6e74726f6c3a206163636f756e7420000000000000000000815260008351611dab816017850160208801611d4f565b7f206973206d697373696e6720726f6c65200000000000000000000000000000006017918401918201528351611de8816028840160208801611d4f565b01602801949350505050565b6020815260008251806020840152611e13816040850160208701611d4f565b601f017fffffffffffffffffffffffffffffffffffffffffffffffffffffffffffffffe0169190910160400192915050565b7f4e487b7100000000000000000000000000000000000000000000000000000000600052601160045260246000fd5b808202811582820484141761077657610776611e45565b8082018082111561077657610776611e45565b7f4e487b7100000000000000000000000000000000000000000000000000000000600052604160045260246000fd5b600081611edc57611edc611e45565b507fffffffffffffffffffffffffffffffffffffffffffffffffffffffffffffffff019056fea164736f6c6343000818000adf8b4c520ffe197c5343c6f5aec59570151ef9a492f2c624fd45ddde6135ec42",
    "linkReferences": {}
  },
  "methodIdentifiers": {
    "ADMIN_ROLE()": "75b238fc",
    "DEFAULT_ADMIN_ROLE()": "a217fddf",
    "POLICY_ROLE()": "22985246",
    "addAdmin(address)": "70480275",
    "aliveImplementation(address)": "550d01a3",
    "getRoleAdmin(bytes32)": "248a9ca3",
    "getSelectorImplementation2(bytes4)": "8d4fdb40",
    "grantRole(bytes32,address)": "2f2ff15d",
    "hasRole(bytes32,address)": "91d14854",
    "implementation()": "5c60da1b",
    "implementation2(uint256)": "8b8f4a65",
    "isAdmin(address)": "24d7806c",
    "pauseProxy()": "63a8fd89",
    "proxyImplementation(uint256)": "b911135f",
    "removeAdmin(address)": "1785f53c",
    "renounceRole(bytes32,address)": "36568abe",
    "revokeRole(bytes32,address)": "d547741f",
    "selectorImplementation(bytes4)": "50d2a276",
    "setAliveImplementation2(address,bool)": "5cc797d8",
    "setImplementation2(address,uint256,bool)": "7cd5f663",
    "setProxyPause(bool)": "7cb00d25",
    "setSelectorImplementations2(bytes4[],address)": "4a5df50f",
    "supportsInterface(bytes4)": "01ffc9a7",
    "transferAdmin(address)": "75829def",
    "upgradeTo(address)": "3659cfe6"
  },
  "storageLayout": {
    "storage": [
      {
        "astId": 1226,
        "contract": "src/proxy/Proxy.sol:Proxy",
        "label": "pauseProxy",
        "offset": 0,
        "slot": "0",
        "type": "t_bool"
      },
      {
        "astId": 1230,
        "contract": "src/proxy/Proxy.sol:Proxy",
        "label": "proxyImplementation",
        "offset": 0,
        "slot": "1",
        "type": "t_mapping(t_uint256,t_address)"
      },
      {
        "astId": 1234,
        "contract": "src/proxy/Proxy.sol:Proxy",
        "label": "aliveImplementation",
        "offset": 0,
        "slot": "2",
        "type": "t_mapping(t_address,t_bool)"
      },
      {
        "astId": 1238,
        "contract": "src/proxy/Proxy.sol:Proxy",
        "label": "selectorImplementation",
        "offset": 0,
        "slot": "3",
        "type": "t_mapping(t_bytes4,t_address)"
      },
      {
        "astId": 24,
        "contract": "src/proxy/Proxy.sol:Proxy",
        "label": "_roles",
        "offset": 0,
        "slot": "4",
        "type": "t_mapping(t_bytes32,t_struct(RoleData)19_storage)"
      }
    ],
    "types": {
      "t_address": {
        "encoding": "inplace",
        "label": "address",
        "numberOfBytes": "20"
      },
      "t_bool": {
        "encoding": "inplace",
        "label": "bool",
        "numberOfBytes": "1"
      },
      "t_bytes32": {
        "encoding": "inplace",
        "label": "bytes32",
        "numberOfBytes": "32"
      },
      "t_bytes4": {
        "encoding": "inplace",
        "label": "bytes4",
        "numberOfBytes": "4"
      },
      "t_mapping(t_address,t_bool)": {
        "encoding": "mapping",
        "key": "t_address",
        "label": "mapping(address => bool)",
        "numberOfBytes": "32",
        "value": "t_bool"
      },
      "t_mapping(t_bytes32,t_struct(RoleData)19_storage)": {
        "encoding": "mapping",
        "key": "t_bytes32",
        "label": "mapping(bytes32 => struct AccessControl.RoleData)",
        "numberOfBytes": "32",
        "value": "t_struct(RoleData)19_storage"
      },
      "t_mapping(t_bytes4,t_address)": {
        "encoding": "mapping",
        "key": "t_bytes4",
        "label": "mapping(bytes4 => address)",
        "numberOfBytes": "32",
        "value": "t_address"
      },
      "t_mapping(t_uint256,t_address)": {
        "encoding": "mapping",
        "key": "t_uint256",
        "label": "mapping(uint256 => address)",
        "numberOfBytes": "32",
        "value": "t_address"
      },
      "t_struct(RoleData)19_storage": {
        "encoding": "inplace",
        "label": "struct AccessControl.RoleData",
        "numberOfBytes": "64",
        "members": [
          {
            "astId": 16,
            "contract": "src/proxy/Proxy.sol:Proxy",
            "label": "members",
            "offset": 0,
            "slot": "0",
            "type": "t_mapping(t_address,t_bool)"
          },
          {
            "astId": 18,
            "contract": "src/proxy/Proxy.sol:Proxy",
            "label": "adminRole",
            "offset": 0,
            "slot": "1",
            "type": "t_bytes32"
          }
        ]
      },
      "t_uint256": {
        "encoding": "inplace",
        "label": "uint256",
        "numberOfBytes": "32"
      }
    }
  },
  "userdoc": {
    "version": 1,
    "kind": "user",
    "methods": {
      "setProxyPause(bool)": {
        "notice": "Set pause state"
      },
      "upgradeTo(address)": {
        "notice": "Set implementation contract"
      }
    }
  },
  "devdoc": {
    "version": 1,
    "kind": "dev",
    "methods": {
      "addAdmin(address)": {
        "details": "add admin",
        "params": {
          "account": "address to add"
        }
      },
      "getRoleAdmin(bytes32)": {
        "details": "Returns the admin role that controls `role`. See {grantRole} and {revokeRole}. To change a role's admin, use {_setRoleAdmin}."
      },
      "getSelectorImplementation2(bytes4)": {
        "details": "view implementation address of selector of function",
        "params": {
          "_selector": "selector of function"
        },
        "returns": {
          "impl": "address of the implementation"
        }
      },
      "grantRole(bytes32,address)": {
        "details": "Grants `role` to `account`. If `account` had not been already granted `role`, emits a {RoleGranted} event. Requirements: - the caller must have ``role``'s admin role. May emit a {RoleGranted} event."
      },
      "hasRole(bytes32,address)": {
        "details": "Returns `true` if `account` has been granted `role`."
      },
      "implementation()": {
        "details": "returns the implementation"
      },
      "implementation2(uint256)": {
        "details": "view implementation address of the proxy[index]",
        "params": {
          "_index": "index of proxy"
        },
        "returns": {
          "_0": "address of the implementation"
        }
      },
      "isAdmin(address)": {
        "details": "whether admin",
        "params": {
          "account": "address to check"
        }
      },
      "removeAdmin(address)": {
        "details": "remove admin",
        "params": {
          "account": "address to remove"
        }
      },
      "renounceRole(bytes32,address)": {
        "details": "Revokes `role` from the calling account. Roles are often managed via {grantRole} and {revokeRole}: this function's purpose is to provide a mechanism for accounts to lose their privileges if they are compromised (such as when a trusted device is misplaced). If the calling account had been revoked `role`, emits a {RoleRevoked} event. Requirements: - the caller must be `account`. May emit a {RoleRevoked} event."
      },
      "revokeRole(bytes32,address)": {
        "details": "Revokes `role` from `account`. If `account` had been granted `role`, emits a {RoleRevoked} event. Requirements: - the caller must have ``role``'s admin role. May emit a {RoleRevoked} event."
      },
      "setAliveImplementation2(address,bool)": {
        "details": "set alive status of implementation",
        "params": {
          "_alive": "alive status",
          "newImplementation": "Address of the new implementation."
        }
      },
      "setImplementation2(address,uint256,bool)": {
        "details": "set the implementation address and status of the proxy[index]",
        "params": {
          "_alive": "_alive",
          "_index": "index",
          "newImplementation": "Address of the new implementation."
        }
      },
      "setProxyPause(bool)": {
        "params": {
          "_pause": "true:pause or false:resume"
        }
      },
      "setSelectorImplementations2(bytes4[],address)": {
        "details": "set selectors of Implementation",
        "params": {
          "_imp": "implementation address",
          "_selectors": "being added selectors"
        }
      },
      "supportsInterface(bytes4)": {
        "details": "See {IERC165-supportsInterface}."
      },
      "transferAdmin(address)": {
        "details": "transfer admin",
        "params": {
          "newAdmin": "new admin address"
        }
      },
      "upgradeTo(address)": {
        "params": {
          "impl": "New implementation contract address"
        }
      }
    },
    "events": {
      "RoleAdminChanged(bytes32,bytes32,bytes32)": {
        "details": "Emitted when `newAdminRole` is set as ``role``'s admin role, replacing `previousAdminRole` `DEFAULT_ADMIN_ROLE` is the starting admin for all roles, despite {RoleAdminChanged} not being emitted signaling this. _Available since v3.1._"
      },
      "RoleGranted(bytes32,address,address)": {
        "details": "Emitted when `account` is granted `role`. `sender` is the account that originated the contract call, an admin role bearer except when using {AccessControl-_setupRole}."
      },
      "RoleRevoked(bytes32,address,address)": {
        "details": "Emitted when `account` is revoked `role`. `sender` is the account that originated the contract call:   - if using `revokeRole`, it is the admin role bearer   - if using `renounceRole`, it is the role bearer (i.e. `account`)"
      }
    }
  },
  "id": 10
}