{
  "_format": "hh-sol-artifact-1",
  "contractName": "OptimismMintableERC20",
  "sourceName": "contracts/Mock/OptimismMintableERC20.sol",
  "abi": [
    {
      "inputs": [
        {
          "internalType": "address",
          "name": "_bridge",
          "type": "address"
        },
        {
          "internalType": "address",
          "name": "_remoteToken",
          "type": "address"
        },
        {
          "internalType": "string",
          "name": "_name",
          "type": "string"
        },
        {
          "internalType": "string",
          "name": "_symbol",
          "type": "string"
        }
      ],
      "stateMutability": "nonpayable",
      "type": "constructor"
    },
    {
      "inputs": [
        {
          "internalType": "address",
          "name": "spender",
          "type": "address"
        },
        {
          "internalType": "uint256",
          "name": "allowance",
          "type": "uint256"
        },
        {
          "internalType": "uint256",
          "name": "needed",
          "type": "uint256"
        }
      ],
      "name": "ERC20InsufficientAllowance",
      "type": "error"
    },
    {
      "inputs": [
        {
          "internalType": "address",
          "name": "sender",
          "type": "address"
        },
        {
          "internalType": "uint256",
          "name": "balance",
          "type": "uint256"
        },
        {
          "internalType": "uint256",
          "name": "needed",
          "type": "uint256"
        }
      ],
      "name": "ERC20InsufficientBalance",
      "type": "error"
    },
    {
      "inputs": [
        {
          "internalType": "address",
          "name": "approver",
          "type": "address"
        }
      ],
      "name": "ERC20InvalidApprover",
      "type": "error"
    },
    {
      "inputs": [
        {
          "internalType": "address",
          "name": "receiver",
          "type": "address"
        }
      ],
      "name": "ERC20InvalidReceiver",
      "type": "error"
    },
    {
      "inputs": [
        {
          "internalType": "address",
          "name": "sender",
          "type": "address"
        }
      ],
      "name": "ERC20InvalidSender",
      "type": "error"
    },
    {
      "inputs": [
        {
          "internalType": "address",
          "name": "spender",
          "type": "address"
        }
      ],
      "name": "ERC20InvalidSpender",
      "type": "error"
    },
    {
      "anonymous": false,
      "inputs": [
        {
          "indexed": true,
          "internalType": "address",
          "name": "owner",
          "type": "address"
        },
        {
          "indexed": true,
          "internalType": "address",
          "name": "spender",
          "type": "address"
        },
        {
          "indexed": false,
          "internalType": "uint256",
          "name": "value",
          "type": "uint256"
        }
      ],
      "name": "Approval",
      "type": "event"
    },
    {
      "anonymous": false,
      "inputs": [
        {
          "indexed": true,
          "internalType": "address",
          "name": "account",
          "type": "address"
        },
        {
          "indexed": false,
          "internalType": "uint256",
          "name": "amount",
          "type": "uint256"
        }
      ],
      "name": "Burn",
      "type": "event"
    },
    {
      "anonymous": false,
      "inputs": [
        {
          "indexed": true,
          "internalType": "address",
          "name": "account",
          "type": "address"
        },
        {
          "indexed": false,
          "internalType": "uint256",
          "name": "amount",
          "type": "uint256"
        }
      ],
      "name": "Mint",
      "type": "event"
    },
    {
      "anonymous": false,
      "inputs": [
        {
          "indexed": true,
          "internalType": "address",
          "name": "from",
          "type": "address"
        },
        {
          "indexed": true,
          "internalType": "address",
          "name": "to",
          "type": "address"
        },
        {
          "indexed": false,
          "internalType": "uint256",
          "name": "value",
          "type": "uint256"
        }
      ],
      "name": "Transfer",
      "type": "event"
    },
    {
      "inputs": [
        {
          "internalType": "address",
          "name": "owner",
          "type": "address"
        },
        {
          "internalType": "address",
          "name": "spender",
          "type": "address"
        }
      ],
      "name": "allowance",
      "outputs": [
        {
          "internalType": "uint256",
          "name": "",
          "type": "uint256"
        }
      ],
      "stateMutability": "view",
      "type": "function"
    },
    {
      "inputs": [
        {
          "internalType": "address",
          "name": "spender",
          "type": "address"
        },
        {
          "internalType": "uint256",
          "name": "value",
          "type": "uint256"
        }
      ],
      "name": "approve",
      "outputs": [
        {
          "internalType": "bool",
          "name": "",
          "type": "bool"
        }
      ],
      "stateMutability": "nonpayable",
      "type": "function"
    },
    {
      "inputs": [
        {
          "internalType": "address",
          "name": "account",
          "type": "address"
        }
      ],
      "name": "balanceOf",
      "outputs": [
        {
          "internalType": "uint256",
          "name": "",
          "type": "uint256"
        }
      ],
      "stateMutability": "view",
      "type": "function"
    },
    {
      "inputs": [],
      "name": "bridge",
      "outputs": [
        {
          "internalType": "address",
          "name": "",
          "type": "address"
        }
      ],
      "stateMutability": "view",
      "type": "function"
    },
    {
      "inputs": [
        {
          "internalType": "address",
          "name": "_from",
          "type": "address"
        },
        {
          "internalType": "uint256",
          "name": "_amount",
          "type": "uint256"
        }
      ],
      "name": "burn",
      "outputs": [],
      "stateMutability": "nonpayable",
      "type": "function"
    },
    {
      "inputs": [],
      "name": "decimals",
      "outputs": [
        {
          "internalType": "uint8",
          "name": "",
          "type": "uint8"
        }
      ],
      "stateMutability": "view",
      "type": "function"
    },
    {
      "inputs": [],
      "name": "l1Token",
      "outputs": [
        {
          "internalType": "address",
          "name": "",
          "type": "address"
        }
      ],
      "stateMutability": "view",
      "type": "function"
    },
    {
      "inputs": [],
      "name": "l2Bridge",
      "outputs": [
        {
          "internalType": "address",
          "name": "",
          "type": "address"
        }
      ],
      "stateMutability": "view",
      "type": "function"
    },
    {
      "inputs": [
        {
          "internalType": "address",
          "name": "_to",
          "type": "address"
        },
        {
          "internalType": "uint256",
          "name": "_amount",
          "type": "uint256"
        }
      ],
      "name": "mint",
      "outputs": [],
      "stateMutability": "nonpayable",
      "type": "function"
    },
    {
      "inputs": [],
      "name": "name",
      "outputs": [
        {
          "internalType": "string",
          "name": "",
          "type": "string"
        }
      ],
      "stateMutability": "view",
      "type": "function"
    },
    {
      "inputs": [],
      "name": "remoteToken",
      "outputs": [
        {
          "internalType": "address",
          "name": "",
          "type": "address"
        }
      ],
      "stateMutability": "view",
      "type": "function"
    },
    {
      "inputs": [
        {
          "internalType": "bytes4",
          "name": "_interfaceId",
          "type": "bytes4"
        }
      ],
      "name": "supportsInterface",
      "outputs": [
        {
          "internalType": "bool",
          "name": "",
          "type": "bool"
        }
      ],
      "stateMutability": "pure",
      "type": "function"
    },
    {
      "inputs": [],
      "name": "symbol",
      "outputs": [
        {
          "internalType": "string",
          "name": "",
          "type": "string"
        }
      ],
      "stateMutability": "view",
      "type": "function"
    },
    {
      "inputs": [],
      "name": "totalSupply",
      "outputs": [
        {
          "internalType": "uint256",
          "name": "",
          "type": "uint256"
        }
      ],
      "stateMutability": "view",
      "type": "function"
    },
    {
      "inputs": [
        {
          "internalType": "address",
          "name": "to",
          "type": "address"
        },
        {
          "internalType": "uint256",
          "name": "value",
          "type": "uint256"
        }
      ],
      "name": "transfer",
      "outputs": [
        {
          "internalType": "bool",
          "name": "",
          "type": "bool"
        }
      ],
      "stateMutability": "nonpayable",
      "type": "function"
    },
    {
      "inputs": [
        {
          "internalType": "address",
          "name": "from",
          "type": "address"
        },
        {
          "internalType": "address",
          "name": "to",
          "type": "address"
        },
        {
          "internalType": "uint256",
          "name": "value",
          "type": "uint256"
        }
      ],
      "name": "transferFrom",
      "outputs": [
        {
          "internalType": "bool",
          "name": "",
          "type": "bool"
        }
      ],
      "stateMutability": "nonpayable",
      "type": "function"
    }
  ],
  "bytecode": "0x6080604052346200036757620013a5803803806200001d816200036c565b92833981016080828203126200036757620000388262000392565b906020906200004982850162000392565b604085015190946001600160401b03918281116200036757836200006f918301620003a7565b9260608201518381116200036757620000899201620003a7565b825182811162000267576003918254916001958684811c941680156200035c575b8885101462000346578190601f94858111620002f0575b50889085831160011462000289576000926200027d575b505060001982861b1c191690861b1783555b8051938411620002675760049586548681811c911680156200025c575b828210146200024757838111620001fc575b50809285116001146200018e575093839491849260009562000182575b50501b92600019911b1c19161790555b600580546001600160a01b039384166001600160a01b03199182161790915560068054929093169116179055604051610f8b90816200041a8239f35b01519350388062000136565b92919084601f1981168860005285600020956000905b89838310620001e15750505010620001c6575b50505050811b01905562000146565b01519060f884600019921b161c1916905538808080620001b7565b858701518955909701969485019488935090810190620001a4565b87600052816000208480880160051c8201928489106200023d575b0160051c019087905b8281106200023057505062000119565b6000815501879062000220565b9250819262000217565b602288634e487b7160e01b6000525260246000fd5b90607f169062000107565b634e487b7160e01b600052604160045260246000fd5b015190503880620000d8565b90889350601f19831691876000528a6000209260005b8c828210620002d95750508411620002c0575b505050811b018355620000ea565b015160001983881b60f8161c19169055388080620002b2565b8385015186558c979095019493840193016200029f565b90915085600052886000208580850160051c8201928b86106200033c575b918a91869594930160051c01915b8281106200032c575050620000c1565b600081558594508a91016200031c565b925081926200030e565b634e487b7160e01b600052602260045260246000fd5b93607f1693620000aa565b600080fd5b6040519190601f01601f191682016001600160401b038111838210176200026757604052565b51906001600160a01b03821682036200036757565b919080601f84011215620003675782516001600160401b0381116200026757602090620003dd601f8201601f191683016200036c565b92818452828287010111620003675760005b8181106200040557508260009394955001015290565b8581018301518482018401528201620003ef56fe608060408181526004918236101561001657600080fd5b600092833560e01c91826301ffc9a714610beb5750816306fdde0314610aa9578163095ea7b3146109a457816318160ddd1461096757816323b872dd146107dd578163313ce567146107a357816340c10f191461066557816370a082311461060457816395d89b411461040c5781639dc29fac1461028f57508063a9059cbb14610241578063ae1f6aaf146101ef578063c01e1bd61461019d578063d6c0b2c41461019d578063dd62ed3e1461012a5763e78cea92146100d557600080fd5b3461012657817ffffffffffffffffffffffffffffffffffffffffffffffffffffffffffffffffc3601126101265760209073ffffffffffffffffffffffffffffffffffffffff600654169051908152f35b5080fd5b503461012657807ffffffffffffffffffffffffffffffffffffffffffffffffffffffffffffffffc3601126101265780602092610165610d3e565b61016d610d66565b73ffffffffffffffffffffffffffffffffffffffff91821683526001865283832091168252845220549051908152f35b503461012657817ffffffffffffffffffffffffffffffffffffffffffffffffffffffffffffffffc3601126101265760209073ffffffffffffffffffffffffffffffffffffffff600554169051908152f35b503461012657817ffffffffffffffffffffffffffffffffffffffffffffffffffffffffffffffffc3601126101265760209073ffffffffffffffffffffffffffffffffffffffff600654169051908152f35b503461012657807ffffffffffffffffffffffffffffffffffffffffffffffffffffffffffffffffc3601126101265760209061028861027e610d3e565b6024359033610e14565b5160018152f35b90503461040857817ffffffffffffffffffffffffffffffffffffffffffffffffffffffffffffffffc360112610408576102c7610d3e565b916024359173ffffffffffffffffffffffffffffffffffffffff6102f081600654163314610d89565b84169384156103d95784865285602052828620549184831061037a57505091602091817fcc16f5dbb4873280815c1ee09dbd06736cffcc184412cf7a71a0fdb75d397ca5948688528785520381872055816002540360025585857fddf252ad1be2c89b69c2b068fc378daa952ba7f163c4a11628f55a4df523b3ef858451868152a351908152a280f35b6103d5858486519485947fe450d38c000000000000000000000000000000000000000000000000000000008652850160409194939273ffffffffffffffffffffffffffffffffffffffff606083019616825260208201520152565b0390fd5b508460249251917f96c6fd1e000000000000000000000000000000000000000000000000000000008352820152fd5b8280fd5b83833461012657817ffffffffffffffffffffffffffffffffffffffffffffffffffffffffffffffffc3601126101265780519082845460018160011c90600183169283156105fa575b60209384841081146105ce57838852879594939291811561057357506001146104f7575b50505003601f017fffffffffffffffffffffffffffffffffffffffffffffffffffffffffffffffe01682019267ffffffffffffffff8411838510176104cb57508291826104c7925282610cd8565b0390f35b806041867f4e487b71000000000000000000000000000000000000000000000000000000006024945252fd5b8888529193925086917f8a35acfbc15ff81a39ae7d344fd709f28e8600b4aa8c65c6b64bfe7fe36bd19b5b82841061055d57505050907fffffffffffffffffffffffffffffffffffffffffffffffffffffffffffffffe092601f92820101918193610479565b8054888501870152879450928501928101610522565b7fffffffffffffffffffffffffffffffffffffffffffffffffffffffffffffff0016848701525050151560051b830101905081601f7fffffffffffffffffffffffffffffffffffffffffffffffffffffffffffffffe0610479565b60248960228c7f4e487b7100000000000000000000000000000000000000000000000000000000835252fd5b91607f1691610455565b5050346101265760207ffffffffffffffffffffffffffffffffffffffffffffffffffffffffffffffffc360112610126578060209273ffffffffffffffffffffffffffffffffffffffff610656610d3e565b16815280845220549051908152f35b9190503461040857807ffffffffffffffffffffffffffffffffffffffffffffffffffffffffffffffffc3601126104085761069e610d3e565b906024359173ffffffffffffffffffffffffffffffffffffffff906106c882600654163314610d89565b1692831561077557600254908382018092116107495750916020917f0f6798a560793a54c3bcfe86a93cde1e73087d944c0ea20544137d41213968859360025584865285835280862082815401905584867fddf252ad1be2c89b69c2b068fc378daa952ba7f163c4a11628f55a4df523b3ef858451868152a351908152a280f35b8560116024927f4e487b7100000000000000000000000000000000000000000000000000000000835252fd5b8460249251917fec442f05000000000000000000000000000000000000000000000000000000008352820152fd5b50503461012657817ffffffffffffffffffffffffffffffffffffffffffffffffffffffffffffffffc360112610126576020905160128152f35b905082346109645760607ffffffffffffffffffffffffffffffffffffffffffffffffffffffffffffffffc36011261096457610817610d3e565b61081f610d66565b916044359373ffffffffffffffffffffffffffffffffffffffff8316808352600160205286832033845260205286832054917fffffffffffffffffffffffffffffffffffffffffffffffffffffffffffffffff8303610887575b602088610288898989610e14565b86831061091f5781156108f05733156108c15750825260016020908152868320338452815291869020908590039055829061028887610879565b602490848951917f94280d62000000000000000000000000000000000000000000000000000000008352820152fd5b602490848951917fe602df05000000000000000000000000000000000000000000000000000000008352820152fd5b87517ffb8f41b2000000000000000000000000000000000000000000000000000000008152339181019182526020820193909352604081018790528291506060010390fd5b80fd5b50503461012657817ffffffffffffffffffffffffffffffffffffffffffffffffffffffffffffffffc360112610126576020906002549051908152f35b90503461040857817ffffffffffffffffffffffffffffffffffffffffffffffffffffffffffffffffc360112610408576109dc610d3e565b602435903315610a7a5773ffffffffffffffffffffffffffffffffffffffff16918215610a4b57508083602095338152600187528181208582528752205582519081527f8c5be1e5ebec7d5bd14f71427d1e84f3dd0314c0f7b2291e5b200ac8c7c3b925843392a35160018152f35b602490858551917f94280d62000000000000000000000000000000000000000000000000000000008352820152fd5b602483868651917fe602df05000000000000000000000000000000000000000000000000000000008352820152fd5b83833461012657817ffffffffffffffffffffffffffffffffffffffffffffffffffffffffffffffffc360112610126578051908260035460018160011c9060018316928315610be1575b60209384841081146105ce5783885287959493929181156105735750600114610b645750505003601f017fffffffffffffffffffffffffffffffffffffffffffffffffffffffffffffffe01682019267ffffffffffffffff8411838510176104cb57508291826104c7925282610cd8565b600388529193925086917fc2575a0e9e593c00f959f8c92f12db2869c3395a3b0502d05e2516446f71f85b5b828410610bcb57505050907fffffffffffffffffffffffffffffffffffffffffffffffffffffffffffffffe092601f92820101918193610479565b8054888501870152879450928501928101610b90565b91607f1691610af3565b8491346104085760207ffffffffffffffffffffffffffffffffffffffffffffffffffffffffffffffffc36011261040857357fffffffff00000000000000000000000000000000000000000000000000000000811680910361040857602092507f01ffc9a7000000000000000000000000000000000000000000000000000000008114908115610cae575b8115610c84575b5015158152f35b7fec4fc8e30000000000000000000000000000000000000000000000000000000091501483610c7d565b7f1d1d8b630000000000000000000000000000000000000000000000000000000081149150610c76565b60208082528251818301819052939260005b858110610d2a575050507fffffffffffffffffffffffffffffffffffffffffffffffffffffffffffffffe0601f8460006040809697860101520116010190565b818101830151848201604001528201610cea565b6004359073ffffffffffffffffffffffffffffffffffffffff82168203610d6157565b600080fd5b6024359073ffffffffffffffffffffffffffffffffffffffff82168203610d6157565b15610d9057565b60846040517f08c379a000000000000000000000000000000000000000000000000000000000815260206004820152603460248201527f4f7074696d69736d4d696e7461626c6545524332303a206f6e6c79206272696460448201527f67652063616e206d696e7420616e64206275726e0000000000000000000000006064820152fd5b9173ffffffffffffffffffffffffffffffffffffffff808416928315610f245716928315610ef35760009083825281602052604082205490838210610e9b575091604082827fddf252ad1be2c89b69c2b068fc378daa952ba7f163c4a11628f55a4df523b3ef958760209652828652038282205586815220818154019055604051908152a3565b6040517fe450d38c00000000000000000000000000000000000000000000000000000000815273ffffffffffffffffffffffffffffffffffffffff919091166004820152602481019190915260448101839052606490fd5b60246040517fec442f0500000000000000000000000000000000000000000000000000000000815260006004820152fd5b60246040517f96c6fd1e00000000000000000000000000000000000000000000000000000000815260006004820152fdfea26469706673582212203ff371a49521df683c0620e642367dcd2773b28ba1e7a48999472e80fd1cccd564736f6c63430008180033",
  "linkReferences": {},
  "deployedLinkReferences": {}
}