{
  "abi": [
    {
      "inputs": [
        {
          "internalType": "address",
          "name": "_owner",
          "type": "address"
        }
      ],
      "stateMutability": "nonpayable",
      "type": "constructor"
    },
    {
      "anonymous": false,
      "inputs": [
        {
          "indexed": true,
          "internalType": "string",
          "name": "nameref",
          "type": "string"
        },
        {
          "indexed": false,
          "internalType": "string",
          "name": "name",
          "type": "string"
        },
        {
          "components": [
            {
              "internalType": "bool",
              "name": "reentrant",
              "type": "bool"
            },
            {
              "internalType": "uint256",
              "name": "interval",
              "type": "uint256"
            },
            {
              "internalType": "contract IDripCheck",
              "name": "dripcheck",
              "type": "address"
            },
            {
              "internalType": "bytes",
              "name": "checkparams",
              "type": "bytes"
            },
            {
              "components": [
                {
                  "internalType": "address payable",
                  "name": "target",
                  "type": "address"
                },
                {
                  "internalType": "bytes",
                  "name": "data",
                  "type": "bytes"
                },
                {
                  "internalType": "uint256",
                  "name": "value",
                  "type": "uint256"
                }
              ],
              "internalType": "struct Drippie.DripAction[]",
              "name": "actions",
              "type": "tuple[]"
            }
          ],
          "indexed": false,
          "internalType": "struct Drippie.DripConfig",
          "name": "config",
          "type": "tuple"
        }
      ],
      "name": "DripCreated",
      "type": "event"
    },
    {
      "anonymous": false,
      "inputs": [
        {
          "indexed": true,
          "internalType": "string",
          "name": "nameref",
          "type": "string"
        },
        {
          "indexed": false,
          "internalType": "string",
          "name": "name",
          "type": "string"
        },
        {
          "indexed": false,
          "internalType": "address",
          "name": "executor",
          "type": "address"
        },
        {
          "indexed": false,
          "internalType": "uint256",
          "name": "timestamp",
          "type": "uint256"
        }
      ],
      "name": "DripExecuted",
      "type": "event"
    },
    {
      "anonymous": false,
      "inputs": [
        {
          "indexed": true,
          "internalType": "string",
          "name": "nameref",
          "type": "string"
        },
        {
          "indexed": false,
          "internalType": "string",
          "name": "name",
          "type": "string"
        },
        {
          "indexed": false,
          "internalType": "enum Drippie.DripStatus",
          "name": "status",
          "type": "uint8"
        }
      ],
      "name": "DripStatusUpdated",
      "type": "event"
    },
    {
      "anonymous": false,
      "inputs": [
        {
          "indexed": true,
          "internalType": "address",
          "name": "user",
          "type": "address"
        },
        {
          "indexed": true,
          "internalType": "address",
          "name": "newOwner",
          "type": "address"
        }
      ],
      "name": "OwnerUpdated",
      "type": "event"
    },
    {
      "anonymous": false,
      "inputs": [
        {
          "indexed": true,
          "internalType": "address",
          "name": "from",
          "type": "address"
        },
        {
          "indexed": false,
          "internalType": "uint256",
          "name": "amount",
          "type": "uint256"
        }
      ],
      "name": "ReceivedETH",
      "type": "event"
    },
    {
      "anonymous": false,
      "inputs": [
        {
          "indexed": true,
          "internalType": "address",
          "name": "withdrawer",
          "type": "address"
        },
        {
          "indexed": true,
          "internalType": "address",
          "name": "recipient",
          "type": "address"
        },
        {
          "indexed": true,
          "internalType": "address",
          "name": "asset",
          "type": "address"
        },
        {
          "indexed": false,
          "internalType": "uint256",
          "name": "amount",
          "type": "uint256"
        }
      ],
      "name": "WithdrewERC20",
      "type": "event"
    },
    {
      "anonymous": false,
      "inputs": [
        {
          "indexed": true,
          "internalType": "address",
          "name": "withdrawer",
          "type": "address"
        },
        {
          "indexed": true,
          "internalType": "address",
          "name": "recipient",
          "type": "address"
        },
        {
          "indexed": true,
          "internalType": "address",
          "name": "asset",
          "type": "address"
        },
        {
          "indexed": false,
          "internalType": "uint256",
          "name": "id",
          "type": "uint256"
        }
      ],
      "name": "WithdrewERC721",
      "type": "event"
    },
    {
      "anonymous": false,
      "inputs": [
        {
          "indexed": true,
          "internalType": "address",
          "name": "withdrawer",
          "type": "address"
        },
        {
          "indexed": true,
          "internalType": "address",
          "name": "recipient",
          "type": "address"
        },
        {
          "indexed": false,
          "internalType": "uint256",
          "name": "amount",
          "type": "uint256"
        }
      ],
      "name": "WithdrewETH",
      "type": "event"
    },
    {
      "inputs": [
        {
          "internalType": "address",
          "name": "_target",
          "type": "address"
        },
        {
          "internalType": "bytes",
          "name": "_data",
          "type": "bytes"
        },
        {
          "internalType": "uint256",
          "name": "_value",
          "type": "uint256"
        }
      ],
      "name": "CALL",
      "outputs": [
        {
          "internalType": "bool",
          "name": "success_",
          "type": "bool"
        },
        {
          "internalType": "bytes",
          "name": "data_",
          "type": "bytes"
        }
      ],
      "stateMutability": "payable",
      "type": "function"
    },
    {
      "inputs": [
        {
          "internalType": "address",
          "name": "_target",
          "type": "address"
        },
        {
          "internalType": "bytes",
          "name": "_data",
          "type": "bytes"
        }
      ],
      "name": "DELEGATECALL",
      "outputs": [
        {
          "internalType": "bool",
          "name": "success_",
          "type": "bool"
        },
        {
          "internalType": "bytes",
          "name": "data_",
          "type": "bytes"
        }
      ],
      "stateMutability": "payable",
      "type": "function"
    },
    {
      "inputs": [
        {
          "internalType": "string",
          "name": "_name",
          "type": "string"
        },
        {
          "components": [
            {
              "internalType": "bool",
              "name": "reentrant",
              "type": "bool"
            },
            {
              "internalType": "uint256",
              "name": "interval",
              "type": "uint256"
            },
            {
              "internalType": "contract IDripCheck",
              "name": "dripcheck",
              "type": "address"
            },
            {
              "internalType": "bytes",
              "name": "checkparams",
              "type": "bytes"
            },
            {
              "components": [
                {
                  "internalType": "address payable",
                  "name": "target",
                  "type": "address"
                },
                {
                  "internalType": "bytes",
                  "name": "data",
                  "type": "bytes"
                },
                {
                  "internalType": "uint256",
                  "name": "value",
                  "type": "uint256"
                }
              ],
              "internalType": "struct Drippie.DripAction[]",
              "name": "actions",
              "type": "tuple[]"
            }
          ],
          "internalType": "struct Drippie.DripConfig",
          "name": "_config",
          "type": "tuple"
        }
      ],
      "name": "create",
      "outputs": [],
      "stateMutability": "nonpayable",
      "type": "function"
    },
    {
      "inputs": [
        {
          "internalType": "string",
          "name": "_name",
          "type": "string"
        }
      ],
      "name": "drip",
      "outputs": [],
      "stateMutability": "nonpayable",
      "type": "function"
    },
    {
      "inputs": [
        {
          "internalType": "string",
          "name": "",
          "type": "string"
        }
      ],
      "name": "drips",
      "outputs": [
        {
          "internalType": "enum Drippie.DripStatus",
          "name": "status",
          "type": "uint8"
        },
        {
          "components": [
            {
              "internalType": "bool",
              "name": "reentrant",
              "type": "bool"
            },
            {
              "internalType": "uint256",
              "name": "interval",
              "type": "uint256"
            },
            {
              "internalType": "contract IDripCheck",
              "name": "dripcheck",
              "type": "address"
            },
            {
              "internalType": "bytes",
              "name": "checkparams",
              "type": "bytes"
            },
            {
              "components": [
                {
                  "internalType": "address payable",
                  "name": "target",
                  "type": "address"
                },
                {
                  "internalType": "bytes",
                  "name": "data",
                  "type": "bytes"
                },
                {
                  "internalType": "uint256",
                  "name": "value",
                  "type": "uint256"
                }
              ],
              "internalType": "struct Drippie.DripAction[]",
              "name": "actions",
              "type": "tuple[]"
            }
          ],
          "internalType": "struct Drippie.DripConfig",
          "name": "config",
          "type": "tuple"
        },
        {
          "internalType": "uint256",
          "name": "last",
          "type": "uint256"
        },
        {
          "internalType": "uint256",
          "name": "count",
          "type": "uint256"
        }
      ],
      "stateMutability": "view",
      "type": "function"
    },
    {
      "inputs": [
        {
          "internalType": "string",
          "name": "_name",
          "type": "string"
        }
      ],
      "name": "executable",
      "outputs": [
        {
          "internalType": "bool",
          "name": "",
          "type": "bool"
        }
      ],
      "stateMutability": "view",
      "type": "function"
    },
    {
      "inputs": [
        {
          "internalType": "string",
          "name": "_name",
          "type": "string"
        }
      ],
      "name": "getDripStatus",
      "outputs": [
        {
          "internalType": "enum Drippie.DripStatus",
          "name": "",
          "type": "uint8"
        }
      ],
      "stateMutability": "view",
      "type": "function"
    },
    {
      "inputs": [],
      "name": "owner",
      "outputs": [
        {
          "internalType": "address",
          "name": "",
          "type": "address"
        }
      ],
      "stateMutability": "view",
      "type": "function"
    },
    {
      "inputs": [
        {
          "internalType": "address",
          "name": "newOwner",
          "type": "address"
        }
      ],
      "name": "setOwner",
      "outputs": [],
      "stateMutability": "nonpayable",
      "type": "function"
    },
    {
      "inputs": [
        {
          "internalType": "string",
          "name": "_name",
          "type": "string"
        },
        {
          "internalType": "enum Drippie.DripStatus",
          "name": "_status",
          "type": "uint8"
        }
      ],
      "name": "status",
      "outputs": [],
      "stateMutability": "nonpayable",
      "type": "function"
    },
    {
      "inputs": [
        {
          "internalType": "contract ERC20",
          "name": "_asset",
          "type": "address"
        },
        {
          "internalType": "address",
          "name": "_to",
          "type": "address"
        },
        {
          "internalType": "uint256",
          "name": "_amount",
          "type": "uint256"
        }
      ],
      "name": "withdrawERC20",
      "outputs": [],
      "stateMutability": "nonpayable",
      "type": "function"
    },
    {
      "inputs": [
        {
          "internalType": "contract ERC20",
          "name": "_asset",
          "type": "address"
        },
        {
          "internalType": "address",
          "name": "_to",
          "type": "address"
        }
      ],
      "name": "withdrawERC20",
      "outputs": [],
      "stateMutability": "nonpayable",
      "type": "function"
    },
    {
      "inputs": [
        {
          "internalType": "contract ERC721",
          "name": "_asset",
          "type": "address"
        },
        {
          "internalType": "address",
          "name": "_to",
          "type": "address"
        },
        {
          "internalType": "uint256",
          "name": "_id",
          "type": "uint256"
        }
      ],
      "name": "withdrawERC721",
      "outputs": [],
      "stateMutability": "nonpayable",
      "type": "function"
    },
    {
      "inputs": [
        {
          "internalType": "address payable",
          "name": "_to",
          "type": "address"
        },
        {
          "internalType": "uint256",
          "name": "_amount",
          "type": "uint256"
        }
      ],
      "name": "withdrawETH",
      "outputs": [],
      "stateMutability": "nonpayable",
      "type": "function"
    },
    {
      "inputs": [
        {
          "internalType": "address payable",
          "name": "_to",
          "type": "address"
        }
      ],
      "name": "withdrawETH",
      "outputs": [],
      "stateMutability": "nonpayable",
      "type": "function"
    },
    {
      "stateMutability": "payable",
      "type": "receive"
    }
  ],
  "bytecode": {
    "object": "0x60806040523480156200001157600080fd5b5060405162002e8338038062002e8383398101604081905262000034916200008c565b600080546001600160a01b0319166001600160a01b03831690811782556040518392839283929091907f8292fce18fa69edf4db7b94ea2e58241df0ae57f97e0a6c9b29067028bf92d76908290a350505050620000be565b6000602082840312156200009f57600080fd5b81516001600160a01b0381168114620000b757600080fd5b9392505050565b612db580620000ce6000396000f3fe6080604052600436106100ec5760003560e01c8063690d83201161008a5780639bc94d01116100595780639bc94d01146102e8578063e551cdaa14610308578063edee623914610328578063fc3e3eba1461033b57600080fd5b8063690d8320146102355780636e2d44ae146102555780638da5cb5b146102765780639456fbcc146102c857600080fd5b806344004cc1116100c657806344004cc1146101a55780634782f779146101c55780634d7fba6e146101e557806367148cd21461021557600080fd5b80630d8f46971461012d57806313af4035146101635780634025feb21461018557600080fd5b366101285760405134815233907f4103257eaac983ca79a70d28f90dfc4fa16b619bb0c17ee7cab0d4034c2796249060200160405180910390a2005b600080fd5b34801561013957600080fd5b5061014d610148366004611dc1565b61036b565b60405161015a9190611e6d565b60405180910390f35b34801561016f57600080fd5b5061018361017e366004611e9d565b61039b565b005b34801561019157600080fd5b506101836101a0366004611ec1565b610491565b3480156101b157600080fd5b506101836101c0366004611ec1565b610623565b3480156101d157600080fd5b506101836101e0366004611f02565b6107b4565b3480156101f157600080fd5b50610205610200366004611ff1565b610904565b60405161015a94939291906120bc565b34801561022157600080fd5b50610183610230366004611dc1565b610b36565b34801561024157600080fd5b50610183610250366004611e9d565b610d59565b610268610263366004612212565b610de7565b60405161015a92919061226b565b34801561028257600080fd5b506000546102a39073ffffffffffffffffffffffffffffffffffffffff1681565b60405173ffffffffffffffffffffffffffffffffffffffff909116815260200161015a565b3480156102d457600080fd5b506101836102e3366004612286565b610ee1565b3480156102f457600080fd5b506101836103033660046122bf565b610ffc565b34801561031457600080fd5b5061018361032336600461231a565b611537565b61026861033636600461237f565b6119bb565b34801561034757600080fd5b5061035b610356366004611dc1565b611ab1565b604051901515815260200161015a565b60006001838360405161037f9291906123cf565b9081526040519081900360200190205460ff1690505b92915050565b60005473ffffffffffffffffffffffffffffffffffffffff163314610421576040517f08c379a000000000000000000000000000000000000000000000000000000000815260206004820152600c60248201527f554e415554484f52495a4544000000000000000000000000000000000000000060448201526064015b60405180910390fd5b600080547fffffffffffffffffffffffff00000000000000000000000000000000000000001673ffffffffffffffffffffffffffffffffffffffff83169081178255604051909133917f8292fce18fa69edf4db7b94ea2e58241df0ae57f97e0a6c9b29067028bf92d769190a350565b60005473ffffffffffffffffffffffffffffffffffffffff163314610512576040517f08c379a000000000000000000000000000000000000000000000000000000000815260206004820152600c60248201527f554e415554484f52495a454400000000000000000000000000000000000000006044820152606401610418565b6040517f23b872dd00000000000000000000000000000000000000000000000000000000815230600482015273ffffffffffffffffffffffffffffffffffffffff8381166024830152604482018390528416906323b872dd90606401600060405180830381600087803b15801561058857600080fd5b505af115801561059c573d6000803e3d6000fd5b505050508273ffffffffffffffffffffffffffffffffffffffff168273ffffffffffffffffffffffffffffffffffffffff163373ffffffffffffffffffffffffffffffffffffffff167f30b478a5e196e55886228aa87ba74a7dfeba655e0a4d7ba275eabfc22aabb7a88460405161061691815260200190565b60405180910390a4505050565b60005473ffffffffffffffffffffffffffffffffffffffff1633146106a4576040517f08c379a000000000000000000000000000000000000000000000000000000000815260206004820152600c60248201527f554e415554484f52495a454400000000000000000000000000000000000000006044820152606401610418565b6040517fa9059cbb00000000000000000000000000000000000000000000000000000000815273ffffffffffffffffffffffffffffffffffffffff83811660048301526024820183905284169063a9059cbb906044016020604051808303816000875af1158015610719573d6000803e3d6000fd5b505050506040513d601f19601f8201168201806040525081019061073d91906123ed565b508273ffffffffffffffffffffffffffffffffffffffff168273ffffffffffffffffffffffffffffffffffffffff163373ffffffffffffffffffffffffffffffffffffffff167f6b00f1c7883f053ba83e907fd1965b22fffe3c4111383e725f04638a566cdbfa8460405161061691815260200190565b60005473ffffffffffffffffffffffffffffffffffffffff163314610835576040517f08c379a000000000000000000000000000000000000000000000000000000000815260206004820152600c60248201527f554e415554484f52495a454400000000000000000000000000000000000000006044820152606401610418565b60008273ffffffffffffffffffffffffffffffffffffffff168260405160006040518083038185875af1925050503d806000811461088f576040519150601f19603f3d011682016040523d82523d6000602084013e610894565b606091505b505090508273ffffffffffffffffffffffffffffffffffffffff163373ffffffffffffffffffffffffffffffffffffffff167f1f12aa8b6d492dd9b98e2b00b0b20830c2a7ded65afac13b60d169a034ae90bc846040516108f791815260200190565b60405180910390a3505050565b805160208183018101805160018083529383019483019490942093905282546040805160a081018252938501805460ff90811615158652600287015494860194909452600386015473ffffffffffffffffffffffffffffffffffffffff169185019190915260048501805493909216949392909160608401916109869061240a565b80601f01602080910402602001604051908101604052809291908181526020018280546109b29061240a565b80156109ff5780601f106109d4576101008083540402835291602001916109ff565b820191906000526020600020905b8154815290600101906020018083116109e257829003601f168201915b5050505050815260200160048201805480602002602001604051908101604052809291908181526020016000905b82821015610b1e576000848152602090819020604080516060810190915260038502909101805473ffffffffffffffffffffffffffffffffffffffff1682526001810180549293919291840191610a839061240a565b80601f0160208091040260200160405190810160405280929190818152602001828054610aaf9061240a565b8015610afc5780601f10610ad157610100808354040283529160200191610afc565b820191906000526020600020905b815481529060010190602001808311610adf57829003601f168201915b5050505050815260200160028201548152505081526020019060010190610a2d565b50505091525050600682015460079092015490919084565b600060018383604051610b4a9291906123cf565b90815260200160405180910390209050610b648383611ab1565b50426006820155600781018054906000610b7d8361248c565b9091555050600581015460005b81811015610cfd576000836001016004018281548110610bac57610bac6124c4565b6000918252602082206003909102018054600282015460405192945073ffffffffffffffffffffffffffffffffffffffff90911691610bef9060018601906124f3565b60006040518083038185875af1925050503d8060008114610c2c576040519150601f19603f3d011682016040523d82523d6000602084013e610c31565b606091505b5050905080610ce8576040517f08c379a000000000000000000000000000000000000000000000000000000000815260206004820152604c60248201527f447269707069653a20647269702077617320756e7375636365737366756c2c2060448201527f706c6561736520636865636b20796f757220636f6e66696775726174696f6e2060648201527f666f72206d697374616b65730000000000000000000000000000000000000000608482015260a401610418565b50508080610cf59061248c565b915050610b8a565b508383604051610d0e9291906123cf565b60405180910390207fea21435419aad9c54a9d90e2522b6f60bd566401f36fcef661f5f5a28cc0d2c685853342604051610d4b94939291906125d0565b60405180910390a250505050565b60005473ffffffffffffffffffffffffffffffffffffffff163314610dda576040517f08c379a000000000000000000000000000000000000000000000000000000000815260206004820152600c60248201527f554e415554484f52495a454400000000000000000000000000000000000000006044820152606401610418565b610de481476107b4565b50565b6000805460609073ffffffffffffffffffffffffffffffffffffffff163314610e6c576040517f08c379a000000000000000000000000000000000000000000000000000000000815260206004820152600c60248201527f554e415554484f52495a454400000000000000000000000000000000000000006044820152606401610418565b8473ffffffffffffffffffffffffffffffffffffffff168385604051610e92919061260d565b60006040518083038185875af1925050503d8060008114610ecf576040519150601f19603f3d011682016040523d82523d6000602084013e610ed4565b606091505b5090969095509350505050565b60005473ffffffffffffffffffffffffffffffffffffffff163314610f62576040517f08c379a000000000000000000000000000000000000000000000000000000000815260206004820152600c60248201527f554e415554484f52495a454400000000000000000000000000000000000000006044820152606401610418565b6040517f70a08231000000000000000000000000000000000000000000000000000000008152306004820152610ff8908390839073ffffffffffffffffffffffffffffffffffffffff8316906370a0823190602401602060405180830381865afa158015610fd4573d6000803e3d6000fd5b505050506040513d601f19601f820116820180604052508101906101c09190612629565b5050565b60005473ffffffffffffffffffffffffffffffffffffffff16331461107d576040517f08c379a000000000000000000000000000000000000000000000000000000000815260206004820152600c60248201527f554e415554484f52495a454400000000000000000000000000000000000000006044820152606401610418565b600081600381111561109157611091611e03565b03611144576040517f08c379a000000000000000000000000000000000000000000000000000000000815260206004820152604160248201527f447269707069653a2064726970207374617475732063616e206e65766572206260448201527f6520736574206261636b20746f204e4f4e45206166746572206372656174696f60648201527f6e00000000000000000000000000000000000000000000000000000000000000608482015260a401610418565b6000600184846040516111589291906123cf565b9081526040519081900360200190205460ff169050600081600381111561118157611181611e03565b03611234576040517f08c379a000000000000000000000000000000000000000000000000000000000815260206004820152604160248201527f447269707069653a206472697020776974682074686174206e616d6520646f6560448201527f73206e6f7420657869737420616e642063616e6e6f742062652075706461746560648201527f6400000000000000000000000000000000000000000000000000000000000000608482015260a401610418565b600381600381111561124857611248611e03565b036112fc576040517f08c379a0000000000000000000000000000000000000000000000000000000008152602060048201526044602482018190527f447269707069653a206472697020776974682074686174206e616d6520686173908201527f206265656e20617263686976656420616e642063616e6e6f742062652075706460648201527f6174656400000000000000000000000000000000000000000000000000000000608482015260a401610418565b81600381111561130e5761130e611e03565b81600381111561132057611320611e03565b036113d3576040517f08c379a000000000000000000000000000000000000000000000000000000000815260206004820152604860248201527f447269707069653a2063616e6e6f74207365742064726970207374617475732060448201527f746f207468652073616d6520737461747573206173206974732063757272656e60648201527f7420737461747573000000000000000000000000000000000000000000000000608482015260a401610418565b60038260038111156113e7576113e7611e03565b0361148d57600181600381111561140057611400611e03565b1461148d576040517f08c379a000000000000000000000000000000000000000000000000000000000815260206004820152603860248201527f447269707069653a2064726970206d757374206669727374206265207061757360448201527f6564206265666f7265206265696e6720617263686976656400000000000000006064820152608401610418565b81600185856040516114a09291906123cf565b90815260405190819003602001902080547fffffffffffffffffffffffffffffffffffffffffffffffffffffffffffffff001660018360038111156114e7576114e7611e03565b021790555083836040516114fc9291906123cf565b60405180910390207f407cb3ad05e60ec498fb39417c7a4f6b82d5ba80f82fe512a37b02c93181a2a1858585604051610d4b93929190612642565b60005473ffffffffffffffffffffffffffffffffffffffff1633146115b8576040517f08c379a000000000000000000000000000000000000000000000000000000000815260206004820152600c60248201527f554e415554484f52495a454400000000000000000000000000000000000000006044820152606401610418565b6000600184846040516115cc9291906123cf565b9081526040519081900360200190205460ff1660038111156115f0576115f0611e03565b1461167d576040517f08c379a000000000000000000000000000000000000000000000000000000000815260206004820152602b60248201527f447269707069653a206472697020776974682074686174206e616d6520616c7260448201527f65616479206578697374730000000000000000000000000000000000000000006064820152608401610418565b61168a6020820182612665565b1561172657602081013515611721576040517f08c379a000000000000000000000000000000000000000000000000000000000815260206004820152603e60248201527f447269707069653a20696620616c6c6f77696e67207265656e7472616e74206460448201527f7269702c206d7573742073657420696e74657276616c20746f207a65726f00006064820152608401610418565b6117e1565b60008160200135116117e1576040517f08c379a0000000000000000000000000000000000000000000000000000000008152602060048201526044602482018190527f447269707069653a20696e74657276616c206d75737420626520677265617465908201527f72207468616e207a65726f2069662064726970206973206e6f74207265656e7460648201527f72616e7400000000000000000000000000000000000000000000000000000000608482015260a401610418565b6000600184846040516117f59291906123cf565b9081526040516020918190038201902080547fffffffffffffffffffffffffffffffffffffffffffffffffffffffffffffff00166001178155915061183c90830183612665565b6001820180547fffffffffffffffffffffffffffffffffffffffffffffffffffffffffffffff0016911515919091179055602082013560028201556118876060830160408401611e9d565b6003820180547fffffffffffffffffffffffff00000000000000000000000000000000000000001673ffffffffffffffffffffffffffffffffffffffff929092169190911790556118db6060830183612682565b60048301916118eb919083612736565b5060005b6118fc6080840184612851565b905081101561196f57600582016119166080850185612851565b83818110611926576119266124c4565b905060200281019061193891906128b9565b81546001810183556000928352602090922090916003020161195a82826128ed565b505080806119679061248c565b9150506118ef565b5083836040516119809291906123cf565b60405180910390207fe38d8d98e6cc66f6f520d483c6c5a89289681f897799c4c29d767cf57e76d9a6858585604051610d4b93929190612be0565b6000805460609073ffffffffffffffffffffffffffffffffffffffff163314611a40576040517f08c379a000000000000000000000000000000000000000000000000000000000815260206004820152600c60248201527f554e415554484f52495a454400000000000000000000000000000000000000006044820152606401610418565b8373ffffffffffffffffffffffffffffffffffffffff1683604051611a65919061260d565b600060405180830381855af49150503d8060008114611aa0576040519150601f19603f3d011682016040523d82523d6000602084013e611aa5565b606091505b50909590945092505050565b60008060018484604051611ac69291906123cf565b90815260405190819003602001902090506002815460ff166003811115611aef57611aef611e03565b14611b7e57604080517f08c379a00000000000000000000000000000000000000000000000000000000081526020600482015260248101919091527f447269707069653a2073656c6563746564206472697020646f6573206e6f742060448201527f6578697374206f72206973206e6f742063757272656e746c79206163746976656064820152608401610418565b600281015460068201544291611b9391612ce7565b1115611c21576040517f08c379a000000000000000000000000000000000000000000000000000000000815260206004820152603660248201527f447269707069653a206472697020696e74657276616c20686173206e6f74206560448201527f6c61707365642073696e6365206c6173742064726970000000000000000000006064820152608401610418565b60038101546040517fc64b3bb500000000000000000000000000000000000000000000000000000000815273ffffffffffffffffffffffffffffffffffffffff9091169063c64b3bb590611c7b9060048086019101612cff565b602060405180830381865afa158015611c98573d6000803e3d6000fd5b505050506040513d601f19601f82011682018060405250810190611cbc91906123ed565b611d6e576040517f08c379a000000000000000000000000000000000000000000000000000000000815260206004820152604260248201527f447269707069653a2064726970636865636b206661696c656420736f2064726960448201527f70206973206e6f742079657420726561647920746f206265207472696767657260648201527f6564000000000000000000000000000000000000000000000000000000000000608482015260a401610418565b5060019392505050565b60008083601f840112611d8a57600080fd5b50813567ffffffffffffffff811115611da257600080fd5b602083019150836020828501011115611dba57600080fd5b9250929050565b60008060208385031215611dd457600080fd5b823567ffffffffffffffff811115611deb57600080fd5b611df785828601611d78565b90969095509350505050565b7f4e487b7100000000000000000000000000000000000000000000000000000000600052602160045260246000fd5b60048110611e69577f4e487b7100000000000000000000000000000000000000000000000000000000600052602160045260246000fd5b9052565b602081016103958284611e32565b73ffffffffffffffffffffffffffffffffffffffff81168114610de457600080fd5b600060208284031215611eaf57600080fd5b8135611eba81611e7b565b9392505050565b600080600060608486031215611ed657600080fd5b8335611ee181611e7b565b92506020840135611ef181611e7b565b929592945050506040919091013590565b60008060408385031215611f1557600080fd5b8235611f2081611e7b565b946020939093013593505050565b7f4e487b7100000000000000000000000000000000000000000000000000000000600052604160045260246000fd5b600067ffffffffffffffff80841115611f7857611f78611f2e565b604051601f85017fffffffffffffffffffffffffffffffffffffffffffffffffffffffffffffffe0908116603f01168101908282118183101715611fbe57611fbe611f2e565b81604052809350858152868686011115611fd757600080fd5b858560208301376000602087830101525050509392505050565b60006020828403121561200357600080fd5b813567ffffffffffffffff81111561201a57600080fd5b8201601f8101841361202b57600080fd5b61203a84823560208401611f5d565b949350505050565b60005b8381101561205d578181015183820152602001612045565b8381111561206c576000848401525b50505050565b6000815180845261208a816020860160208601612042565b601f017fffffffffffffffffffffffffffffffffffffffffffffffffffffffffffffffe0169290920160200192915050565b6120c68186611e32565b600060206080818401528551151560808401528086015160a084015260408087015173ffffffffffffffffffffffffffffffffffffffff80821660c0870152606091508189015160a060e0880152612122610120880182612072565b60808b01518882037fffffffffffffffffffffffffffffffffffffffffffffffffffffffffffffff80016101008a0152805180835291925086019086830190600581901b8401880160005b828110156121d6577fffffffffffffffffffffffffffffffffffffffffffffffffffffffffffffffe086830301845284518781511683528a810151898c8501526121b98a850182612072565b918b0151938b0193909352948a0194938a0193915060010161216d565b50968a019b909b52505050509093019390935250949350505050565b600082601f83011261220357600080fd5b611eba83833560208501611f5d565b60008060006060848603121561222757600080fd5b833561223281611e7b565b9250602084013567ffffffffffffffff81111561224e57600080fd5b61225a868287016121f2565b925050604084013590509250925092565b821515815260406020820152600061203a6040830184612072565b6000806040838503121561229957600080fd5b82356122a481611e7b565b915060208301356122b481611e7b565b809150509250929050565b6000806000604084860312156122d457600080fd5b833567ffffffffffffffff8111156122eb57600080fd5b6122f786828701611d78565b90945092505060208401356004811061230f57600080fd5b809150509250925092565b60008060006040848603121561232f57600080fd5b833567ffffffffffffffff8082111561234757600080fd5b61235387838801611d78565b9095509350602086013591508082111561236c57600080fd5b50840160a0818703121561230f57600080fd5b6000806040838503121561239257600080fd5b823561239d81611e7b565b9150602083013567ffffffffffffffff8111156123b957600080fd5b6123c5858286016121f2565b9150509250929050565b8183823760009101908152919050565b8015158114610de457600080fd5b6000602082840312156123ff57600080fd5b8151611eba816123df565b600181811c9082168061241e57607f821691505b602082108103612457577f4e487b7100000000000000000000000000000000000000000000000000000000600052602260045260246000fd5b50919050565b7f4e487b7100000000000000000000000000000000000000000000000000000000600052601160045260246000fd5b60007fffffffffffffffffffffffffffffffffffffffffffffffffffffffffffffffff82036124bd576124bd61245d565b5060010190565b7f4e487b7100000000000000000000000000000000000000000000000000000000600052603260045260246000fd5b60008083546125018161240a565b60018281168015612519576001811461254c5761257b565b7fffffffffffffffffffffffffffffffffffffffffffffffffffffffffffffff008416875282151583028701945061257b565b8760005260208060002060005b858110156125725781548a820152908401908201612559565b50505082870194505b50929695505050505050565b8183528181602085013750600060208284010152600060207fffffffffffffffffffffffffffffffffffffffffffffffffffffffffffffffe0601f840116840101905092915050565b6060815260006125e4606083018688612587565b73ffffffffffffffffffffffffffffffffffffffff949094166020830152506040015292915050565b6000825161261f818460208701612042565b9190910192915050565b60006020828403121561263b57600080fd5b5051919050565b604081526000612656604083018587612587565b905061203a6020830184611e32565b60006020828403121561267757600080fd5b8135611eba816123df565b60008083357fffffffffffffffffffffffffffffffffffffffffffffffffffffffffffffffe18436030181126126b757600080fd5b83018035915067ffffffffffffffff8211156126d257600080fd5b602001915036819003821315611dba57600080fd5b601f82111561273157600081815260208120601f850160051c8101602086101561270e5750805b601f850160051c820191505b8181101561272d5782815560010161271a565b5050505b505050565b67ffffffffffffffff83111561274e5761274e611f2e565b6127628361275c835461240a565b836126e7565b6000601f8411600181146127b4576000851561277e5750838201355b7fffffffffffffffffffffffffffffffffffffffffffffffffffffffffffffffff600387901b1c1916600186901b17835561284a565b6000838152602090207fffffffffffffffffffffffffffffffffffffffffffffffffffffffffffffffe0861690835b8281101561280357868501358255602094850194600190920191016127e3565b508682101561283e577fffffffffffffffffffffffffffffffffffffffffffffffffffffffffffffffff60f88860031b161c19848701351681555b505060018560011b0183555b5050505050565b60008083357fffffffffffffffffffffffffffffffffffffffffffffffffffffffffffffffe184360301811261288657600080fd5b83018035915067ffffffffffffffff8211156128a157600080fd5b6020019150600581901b3603821315611dba57600080fd5b600082357fffffffffffffffffffffffffffffffffffffffffffffffffffffffffffffffa183360301811261261f57600080fd5b81356128f881611e7b565b73ffffffffffffffffffffffffffffffffffffffff81167fffffffffffffffffffffffff00000000000000000000000000000000000000008354161782555060018082016020808501357fffffffffffffffffffffffffffffffffffffffffffffffffffffffffffffffe186360301811261297257600080fd5b8501803567ffffffffffffffff81111561298b57600080fd5b803603838301131561299c57600080fd5b6129b0816129aa865461240a565b866126e7565b6000601f821160018114612a0457600083156129ce57508382018501355b7fffffffffffffffffffffffffffffffffffffffffffffffffffffffffffffffff600385901b1c1916600184901b178655612a99565b6000868152602090207fffffffffffffffffffffffffffffffffffffffffffffffffffffffffffffffe0841690835b82811015612a5257868501880135825593870193908901908701612a33565b5084821015612a8f577fffffffffffffffffffffffffffffffffffffffffffffffffffffffffffffffff60f88660031b161c198785880101351681555b50508683881b0186555b50505050505050604082013560028201555050565b60008083357fffffffffffffffffffffffffffffffffffffffffffffffffffffffffffffffe1843603018112612ae357600080fd5b830160208101925035905067ffffffffffffffff811115612b0357600080fd5b803603821315611dba57600080fd5b81835260006020808501808196508560051b81019150846000805b88811015612bd2578385038a5282357fffffffffffffffffffffffffffffffffffffffffffffffffffffffffffffffa1893603018112612b6b578283fd5b880160608135612b7a81611e7b565b73ffffffffffffffffffffffffffffffffffffffff168752612b9e82890183612aae565b828a8a0152612bb0838a018284612587565b6040948501359990940198909852505099860199945091850191600101612b2d565b509298975050505050505050565b604081526000612bf4604083018587612587565b82810360208401528335612c07816123df565b15158152602084810135908201526040840135612c2381611e7b565b73ffffffffffffffffffffffffffffffffffffffff166040820152612c4b6060850185612aae565b60a06060840152612c6060a084018284612587565b91505060808501357fffffffffffffffffffffffffffffffffffffffffffffffffffffffffffffffe1863603018112612c9857600080fd5b850160208101903567ffffffffffffffff811115612cb557600080fd5b8060051b3603821315612cc757600080fd5b8383036080850152612cda838284612b12565b9998505050505050505050565b60008219821115612cfa57612cfa61245d565b500190565b6000602080835260008454612d138161240a565b80848701526040600180841660008114612d345760018114612d6c57612d9a565b7fffffffffffffffffffffffffffffffffffffffffffffffffffffffffffffff008516838a01528284151560051b8a01019550612d9a565b896000528660002060005b85811015612d925781548b8201860152908301908801612d77565b8a0184019650505b50939897505050505050505056fea164736f6c634300080f000a",
    "linkReferences": {}
  },
  "methodIdentifiers": {
    "CALL(address,bytes,uint256)": "6e2d44ae",
    "DELEGATECALL(address,bytes)": "edee6239",
    "create(string,(bool,uint256,address,bytes,(address,bytes,uint256)[]))": "e551cdaa",
    "drip(string)": "67148cd2",
    "drips(string)": "4d7fba6e",
    "executable(string)": "fc3e3eba",
    "getDripStatus(string)": "0d8f4697",
    "owner()": "8da5cb5b",
    "setOwner(address)": "13af4035",
    "status(string,uint8)": "9bc94d01",
    "withdrawERC20(address,address)": "9456fbcc",
    "withdrawERC20(address,address,uint256)": "44004cc1",
    "withdrawERC721(address,address,uint256)": "4025feb2",
    "withdrawETH(address)": "690d8320",
    "withdrawETH(address,uint256)": "4782f779"
  },
  "storageLayout": {
    "storage": [
      {
        "astId": 43345,
        "contract": "src/periphery/drippie/Drippie.sol:Drippie",
        "label": "owner",
        "offset": 0,
        "slot": "0",
        "type": "t_address"
      },
      {
        "astId": 80129,
        "contract": "src/periphery/drippie/Drippie.sol:Drippie",
        "label": "drips",
        "offset": 0,
        "slot": "1",
        "type": "t_mapping(t_string_memory_ptr,t_struct(DripState)80092_storage)"
      }
    ],
    "types": {
      "t_address": {
        "encoding": "inplace",
        "label": "address",
        "numberOfBytes": "20"
      },
      "t_address_payable": {
        "encoding": "inplace",
        "label": "address payable",
        "numberOfBytes": "20"
      },
      "t_array(t_struct(DripAction)80067_storage)dyn_storage": {
        "encoding": "dynamic_array",
        "label": "struct Drippie.DripAction[]",
        "numberOfBytes": "32",
        "base": "t_struct(DripAction)80067_storage"
      },
      "t_bool": {
        "encoding": "inplace",
        "label": "bool",
        "numberOfBytes": "1"
      },
      "t_bytes_storage": {
        "encoding": "bytes",
        "label": "bytes",
        "numberOfBytes": "32"
      },
      "t_contract(IDripCheck)80506": {
        "encoding": "inplace",
        "label": "contract IDripCheck",
        "numberOfBytes": "20"
      },
      "t_enum(DripStatus)80060": {
        "encoding": "inplace",
        "label": "enum Drippie.DripStatus",
        "numberOfBytes": "1"
      },
      "t_mapping(t_string_memory_ptr,t_struct(DripState)80092_storage)": {
        "encoding": "mapping",
        "key": "t_string_memory_ptr",
        "label": "mapping(string => struct Drippie.DripState)",
        "numberOfBytes": "32",
        "value": "t_struct(DripState)80092_storage"
      },
      "t_string_memory_ptr": {
        "encoding": "bytes",
        "label": "string",
        "numberOfBytes": "32"
      },
      "t_struct(DripAction)80067_storage": {
        "encoding": "inplace",
        "label": "struct Drippie.DripAction",
        "numberOfBytes": "96",
        "members": [
          {
            "astId": 80062,
            "contract": "src/periphery/drippie/Drippie.sol:Drippie",
            "label": "target",
            "offset": 0,
            "slot": "0",
            "type": "t_address_payable"
          },
          {
            "astId": 80064,
            "contract": "src/periphery/drippie/Drippie.sol:Drippie",
            "label": "data",
            "offset": 0,
            "slot": "1",
            "type": "t_bytes_storage"
          },
          {
            "astId": 80066,
            "contract": "src/periphery/drippie/Drippie.sol:Drippie",
            "label": "value",
            "offset": 0,
            "slot": "2",
            "type": "t_uint256"
          }
        ]
      },
      "t_struct(DripConfig)80081_storage": {
        "encoding": "inplace",
        "label": "struct Drippie.DripConfig",
        "numberOfBytes": "160",
        "members": [
          {
            "astId": 80069,
            "contract": "src/periphery/drippie/Drippie.sol:Drippie",
            "label": "reentrant",
            "offset": 0,
            "slot": "0",
            "type": "t_bool"
          },
          {
            "astId": 80071,
            "contract": "src/periphery/drippie/Drippie.sol:Drippie",
            "label": "interval",
            "offset": 0,
            "slot": "1",
            "type": "t_uint256"
          },
          {
            "astId": 80074,
            "contract": "src/periphery/drippie/Drippie.sol:Drippie",
            "label": "dripcheck",
            "offset": 0,
            "slot": "2",
            "type": "t_contract(IDripCheck)80506"
          },
          {
            "astId": 80076,
            "contract": "src/periphery/drippie/Drippie.sol:Drippie",
            "label": "checkparams",
            "offset": 0,
            "slot": "3",
            "type": "t_bytes_storage"
          },
          {
            "astId": 80080,
            "contract": "src/periphery/drippie/Drippie.sol:Drippie",
            "label": "actions",
            "offset": 0,
            "slot": "4",
            "type": "t_array(t_struct(DripAction)80067_storage)dyn_storage"
          }
        ]
      },
      "t_struct(DripState)80092_storage": {
        "encoding": "inplace",
        "label": "struct Drippie.DripState",
        "numberOfBytes": "256",
        "members": [
          {
            "astId": 80084,
            "contract": "src/periphery/drippie/Drippie.sol:Drippie",
            "label": "status",
            "offset": 0,
            "slot": "0",
            "type": "t_enum(DripStatus)80060"
          },
          {
            "astId": 80087,
            "contract": "src/periphery/drippie/Drippie.sol:Drippie",
            "label": "config",
            "offset": 0,
            "slot": "1",
            "type": "t_struct(DripConfig)80081_storage"
          },
          {
            "astId": 80089,
            "contract": "src/periphery/drippie/Drippie.sol:Drippie",
            "label": "last",
            "offset": 0,
            "slot": "6",
            "type": "t_uint256"
          },
          {
            "astId": 80091,
            "contract": "src/periphery/drippie/Drippie.sol:Drippie",
            "label": "count",
            "offset": 0,
            "slot": "7",
            "type": "t_uint256"
          }
        ]
      },
      "t_uint256": {
        "encoding": "inplace",
        "label": "uint256",
        "numberOfBytes": "32"
      }
    }
  },
  "userdoc": {
    "version": 1,
    "kind": "user",
    "methods": {
      "CALL(address,bytes,uint256)": {
        "notice": "Sends a CALL to a target address."
      },
      "DELEGATECALL(address,bytes)": {
        "notice": "Sends a DELEGATECALL to a target address."
      },
      "create(string,(bool,uint256,address,bytes,(address,bytes,uint256)[]))": {
        "notice": "Creates a new drip with the given name and configuration. Once created, drips cannot         be modified in any way (this is a security measure). If you want to update a drip,         simply pause (and potentially archive) the existing drip and create a new one."
      },
      "drip(string)": {
        "notice": "Triggers a drip. This function is deliberately left as a public function because the         assumption being made here is that setting the drip to ACTIVE is an affirmative         signal that the drip should be executable according to the drip parameters, drip         check, and drip interval. Note that drip parameters are read entirely from the state         and are not supplied as user input, so there should not be any way for a         non-authorized user to influence the behavior of the drip. Note that the drip check         is executed only **once** at the beginning of the call to the drip function and will         not be executed again between the drip actions within this call."
      },
      "drips(string)": {
        "notice": "Maps from drip names to drip states."
      },
      "executable(string)": {
        "notice": "Checks if a given drip is executable."
      },
      "getDripStatus(string)": {
        "notice": "Returns the status of a given drip."
      },
      "status(string,uint8)": {
        "notice": "Sets the status for a given drip. The behavior of this function depends on the         status that the user is trying to set. A drip can always move between ACTIVE and         PAUSED, but it can never move back to NONE and once ARCHIVED, it can never move back         to ACTIVE or PAUSED."
      },
      "withdrawERC20(address,address)": {
        "notice": "Withdraws full ERC20 balance to the recipient."
      },
      "withdrawERC20(address,address,uint256)": {
        "notice": "Withdraws partial ERC20 balance to the recipient."
      },
      "withdrawERC721(address,address,uint256)": {
        "notice": "Withdraws ERC721 token to the recipient."
      },
      "withdrawETH(address)": {
        "notice": "Withdraws full ETH balance to the recipient."
      },
      "withdrawETH(address,uint256)": {
        "notice": "Withdraws partial ETH balance to the recipient."
      }
    },
    "events": {
      "DripCreated(string,string,(bool,uint256,address,bytes,(address,bytes,uint256)[]))": {
        "notice": "Emitted when a new drip is created."
      },
      "DripExecuted(string,string,address,uint256)": {
        "notice": "Emitted when a drip is executed."
      },
      "DripStatusUpdated(string,string,uint8)": {
        "notice": "Emitted when a drip status is updated."
      },
      "ReceivedETH(address,uint256)": {
        "notice": "Emitted when ETH is received by this address."
      },
      "WithdrewERC20(address,address,address,uint256)": {
        "notice": "Emitted when ERC20 tokens are withdrawn from this address."
      },
      "WithdrewERC721(address,address,address,uint256)": {
        "notice": "Emitted when ERC20 tokens are withdrawn from this address."
      },
      "WithdrewETH(address,address,uint256)": {
        "notice": "Emitted when ETH is withdrawn from this address."
      }
    },
    "notice": "Drippie is a system for managing automated contract interactions. A specific interaction         is called a \"drip\" and can be executed according to some condition (called a dripcheck)         and an execution interval. Drips cannot be executed faster than the execution interval.         Drips can trigger arbitrary contract calls where the calling contract is this contract         address. Drips can also send ETH value, which makes them ideal for keeping addresses         sufficiently funded with ETH. Drippie is designed to be connected with smart contract         automation services so that drips can be executed automatically. However, Drippie is         specifically designed to be separated from these services so that trust assumptions are         better compartmentalized."
  },
  "devdoc": {
    "version": 1,
    "kind": "dev",
    "methods": {
      "CALL(address,bytes,uint256)": {
        "params": {
          "_data": "Data to send with the call.",
          "_target": "Address to call.",
          "_value": "ETH value to send with the call."
        },
        "returns": {
          "data_": "Bytes data returned by the call.",
          "success_": "Boolean success value."
        }
      },
      "DELEGATECALL(address,bytes)": {
        "params": {
          "_data": "Data to send with the call.",
          "_target": "Address to call."
        },
        "returns": {
          "data_": "Bytes data returned by the call.",
          "success_": "Boolean success value."
        }
      },
      "create(string,(bool,uint256,address,bytes,(address,bytes,uint256)[]))": {
        "params": {
          "_config": "Configuration for the drip.",
          "_name": "Name of the drip."
        }
      },
      "drip(string)": {
        "params": {
          "_name": "Name of the drip to trigger."
        }
      },
      "executable(string)": {
        "params": {
          "_name": "Drip to check."
        },
        "returns": {
          "_0": "True if the drip is executable, reverts otherwise."
        }
      },
      "getDripStatus(string)": {
        "params": {
          "_name": "Drip to check."
        },
        "returns": {
          "_0": "DripStatus of the given drip."
        }
      },
      "status(string,uint8)": {
        "params": {
          "_name": "Name of the drip to update.",
          "_status": "New drip status."
        }
      },
      "withdrawERC20(address,address)": {
        "params": {
          "_asset": "ERC20 token to withdraw.",
          "_to": "Address to receive the ERC20 balance."
        }
      },
      "withdrawERC20(address,address,uint256)": {
        "params": {
          "_amount": "Amount of ERC20 to withdraw.",
          "_asset": "ERC20 token to withdraw.",
          "_to": "Address to receive the ERC20 balance."
        }
      },
      "withdrawERC721(address,address,uint256)": {
        "params": {
          "_asset": "ERC721 token to withdraw.",
          "_id": "Token ID of the ERC721 token to withdraw.",
          "_to": "Address to receive the ERC721 token."
        }
      },
      "withdrawETH(address)": {
        "params": {
          "_to": "Address to receive the ETH balance."
        }
      },
      "withdrawETH(address,uint256)": {
        "params": {
          "_amount": "Amount of ETH to withdraw.",
          "_to": "Address to receive the ETH balance."
        }
      }
    },
    "events": {
      "DripCreated(string,string,(bool,uint256,address,bytes,(address,bytes,uint256)[]))": {
        "params": {
          "config": "Config for the created drip.",
          "name": "Unindexed name parameter (unhashed).",
          "nameref": "Indexed name parameter (hashed)."
        }
      },
      "DripExecuted(string,string,address,uint256)": {
        "params": {
          "executor": "Address that executed the drip.",
          "name": "Unindexed name parameter (unhashed).",
          "nameref": "Indexed name parameter (hashed).",
          "timestamp": "Time when the drip was executed."
        }
      },
      "DripStatusUpdated(string,string,uint8)": {
        "params": {
          "name": "Unindexed name parameter (unhashed).",
          "nameref": "Indexed name parameter (hashed).",
          "status": "New drip status."
        }
      }
    },
    "title": "Drippie"
  },
  "id": 205
}